BL51 BANKED LINKER/LOCATER V6.22                                                        03/09/2021  10:38:46  PAGE 1


BL51 BANKED LINKER/LOCATER V6.22, INVOKED BY:
D:\KEIL_V4\C51\BIN\BL51.EXE CH395.obj TO CH395EVT RAMSIZE (256)


MEMORY MODEL: LARGE


INPUT MODULES INCLUDED:
  CH395.obj (CH395)
  D:\KEIL_V4\C51\LIB\C51L.LIB (?C_STARTUP)
  D:\KEIL_V4\C51\LIB\C51L.LIB (?C?COPY)
  D:\KEIL_V4\C51\LIB\C51L.LIB (?C?CLDPTR)
  D:\KEIL_V4\C51\LIB\C51L.LIB (?C?CSTPTR)
  D:\KEIL_V4\C51\LIB\C51L.LIB (?C?ILDIX)
  D:\KEIL_V4\C51\LIB\C51L.LIB (?C?SLCMP)
  D:\KEIL_V4\C51\LIB\C51L.LIB (?C?ULSHR)
  D:\KEIL_V4\C51\LIB\C51L.LIB (?C?LSHL)
  D:\KEIL_V4\C51\LIB\C51L.LIB (?C?LSTXDATA)
  D:\KEIL_V4\C51\LIB\C51L.LIB (?C?LSTKXDATA)
  D:\KEIL_V4\C51\LIB\C51L.LIB (PRINTF)
  D:\KEIL_V4\C51\LIB\C51L.LIB (?C?MEMSET)
  D:\KEIL_V4\C51\LIB\C51L.LIB (?C_INIT)
  D:\KEIL_V4\C51\LIB\C51L.LIB (?C?CLDOPTR)
  D:\KEIL_V4\C51\LIB\C51L.LIB (?C?PLDIXDATA)
  D:\KEIL_V4\C51\LIB\C51L.LIB (?C?PSTXDATA)
  D:\KEIL_V4\C51\LIB\C51L.LIB (?C?CCASE)
  D:\KEIL_V4\C51\LIB\C51L.LIB (PUTCHAR)


LINK MAP OF MODULE:  CH395EVT (CH395)


            TYPE    BASE      LENGTH    RELOCATION   SEGMENT NAME
            -----------------------------------------------------

            * * * * * * *   D A T A   M E M O R Y   * * * * * * *
            REG     0000H     0008H     ABSOLUTE     "REG BANK 0"
            DATA    0008H     0005H     UNIT         _DATA_GROUP_
                    000DH     0013H                  *** GAP ***
            BIT     0020H.0   0001H.1   UNIT         _BIT_GROUP_
                    0021H.1   0000H.7                *** GAP ***
            IDATA   0022H     0001H     UNIT         ?STACK

            * * * * * * *  X D A T A   M E M O R Y  * * * * * * *
            XDATA   0000H     0253H     UNIT         ?XD?CH395
            XDATA   0253H     0039H     UNIT         _XDATA_GROUP_
            XDATA   028CH     0014H     UNIT         ?XD?_CH395CRCRET6BIT?CH395
            XDATA   02A0H     000DH     UNIT         ?XD?_CH395UDPSENDTO?CH395
            XDATA   02ADH     0009H     UNIT         ?XD?_CH395CMDSETMACFILT?CH395
            XDATA   02B6H     0006H     UNIT         ?XD?_CH395EEPROMWRITE?CH395
            XDATA   02BCH     0006H     UNIT         ?XD?_CH395EEPROMREAD?CH395
            XDATA   02C2H     0005H     UNIT         ?XD?_CH395CMDSETUARTBAUDRATE?CH395
            XDATA   02C7H     0004H     UNIT         ?XD?_CH395SETSTARTPARA?CH395
            XDATA   02CBH     0003H     UNIT         ?XD?_CH395CMDSETMACADDR?CH395
            XDATA   02CEH     0003H     UNIT         ?XD?_CH395CMDGETMACADDR?CH395
            XDATA   02D1H     0003H     UNIT         ?XD?_CH395CMDGETREMOTEIPP?CH395
            XDATA   02D4H     0003H     UNIT         ?XD?_CH395CMDGETSOCKETSTATUS?CH395
            XDATA   02D7H     0003H     UNIT         ?XD?_CH395GETIPINF?CH395
BL51 BANKED LINKER/LOCATER V6.22                                                      03/09/2021  10:38:46  PAGE 2



            * * * * * * *   C O D E   M E M O R Y   * * * * * * *
            CODE    0000H     0003H     ABSOLUTE     
            CODE    0003H     0365H     UNIT         ?PR?PRINTF?PRINTF
            CODE    0368H     024FH     UNIT         ?C?LIB_CODE
            CODE    05B7H     0175H     UNIT         ?PR?_CH395CRCRET6BIT?CH395
            CODE    072CH     00CCH     UNIT         ?PR?_CH395SOCKETINTERRUPT?CH395
            CODE    07F8H     0093H     UNIT         ?PR?_CH395CMDSETMACFILT?CH395
            CODE    088BH     008CH     UNIT         ?C_C51STARTUP
            CODE    0917H     0078H     UNIT         ?PR?CH395GLOBALINTERRUPT?CH395
            CODE    098FH     0057H     UNIT         ?PR?_CH395GETRECVDATA?CH395
            CODE    09E6H     0054H     UNIT         ?PR?_CH395UDPSENDTO?CH395
            CODE    0A3AH     0053H     UNIT         ?PR?_CH395EEPROMWRITE?CH395
            CODE    0A8DH     004EH     UNIT         ?PR?_CH395SETSTARTPARA?CH395
            CODE    0ADBH     004EH     UNIT         ?PR?_CH395KEEPLIVEIDLE?CH395
            CODE    0B29H     004EH     UNIT         ?PR?_CH395KEEPLIVEINTVL?CH395
            CODE    0B77H     004DH     UNIT         ?PR?_CH395EEPROMREAD?CH395
            CODE    0BC4H     004CH     UNIT         ?PR?INITSOCKETPARAM?CH395
            CODE    0C10H     0048H     UNIT         ?PR?INITCH395INFPARAM?CH395
            CODE    0C58H     0046H     UNIT         ?PR?_CH395SENDDATA?CH395
            CODE    0C9EH     0041H     UNIT         ?PR?_CH395CMDSETUARTBAUDRATE?CH395
            CODE    0CDFH     0040H     UNIT         ?PR?_CH395CMDGETSOCKETSTATUS?CH395
            CODE    0D1FH     003DH     UNIT         ?PR?CH395SOCKETINITOPEN?CH395
            CODE    0D5CH     0038H     UNIT         ?PR?_CH395CMDGETREMOTEIPP?CH395
            CODE    0D94H     0032H     UNIT         ?PR?MAIN?CH395
            CODE    0DC6H     0031H     UNIT         ?PR?_CH395CMDGETMACADDR?CH395
            CODE    0DF7H     0031H     UNIT         ?PR?_CH395CMDGETUNREACHIPPT?CH395
            CODE    0E28H     0031H     UNIT         ?PR?_CH395GETIPINF?CH395
            CODE    0E59H     0031H     UNIT         ?PR?CH395INIT?CH395
            CODE    0E8AH     002EH     UNIT         ?PR?_XWRITECH395DATA?CH395
            CODE    0EB8H     002EH     UNIT         ?PR?CH395CMDINITCH395?CH395
            CODE    0EE6H     0029H     UNIT         ?PR?_CH395TCPCONNECT?CH395
            CODE    0F0FH     0029H     UNIT         ?PR?_CH395TCPLISTEN?CH395
            CODE    0F38H     0029H     UNIT         ?PR?_CH395TCPDISCONNECT?CH395
            CODE    0F61H     0029H     UNIT         ?PR?_CH395DHCPENABLE?CH395
            CODE    0F8AH     0027H     UNIT         ?C_INITSEG
            CODE    0FB1H     0027H     UNIT         ?PR?PUTCHAR?PUTCHAR
            CODE    0FD8H     0026H     UNIT         ?PR?_CH395OPENSOCKET?CH395
            CODE    0FFEH     0026H     UNIT         ?PR?_CH395CLOSESOCKET?CH395
            CODE    1024H     0024H     UNIT         ?PR?_CH395CMDSETMACADDR?CH395
            CODE    1048H     0021H     UNIT         ?PR?CH395CMDGETGLOBINTSTATUS_ALL?CH395
            CODE    1069H     0020H     UNIT         ?PR?_CH395CMDSETIPADDR?CH395
            CODE    1089H     0020H     UNIT         ?PR?_CH395CMDSETGWIPADDR?CH395
            CODE    10A9H     0020H     UNIT         ?PR?_CH395CMDSETMASKADDR?CH395
            CODE    10C9H     0020H     UNIT         ?PR?_CH395SETSOCKETDESIP?CH395
            CODE    10E9H     001BH     UNIT         ?PR?_CH395GETRECVLENGTH?CH395
            CODE    1104H     001BH     UNIT         ?PR?KEEPLIVE_SET?CH395
            CODE    111FH     0019H     UNIT         ?PR?_CH395SETSOCKETDESPORT?CH395
            CODE    1138H     0019H     UNIT         ?PR?_CH395SETSOCKETSOURPORT?CH395
            CODE    1151H     0017H     UNIT         ?PR?_CH395GETSOCKETINT?CH395
            CODE    1168H     0016H     UNIT         ?PR?_CH395CMDSETRETRYPERIOD?CH395
            CODE    117EH     0016H     UNIT         ?PR?_CH395SETSOCKETRECVBUF?CH395
            CODE    1194H     0016H     UNIT         ?PR?_CH395SETSOCKETSENDBUF?CH395
            CODE    11AAH     0015H     UNIT         ?PR?_CH395READGPIOADDR?CH395
            CODE    11BFH     0014H     UNIT         ?PR?_CH395SETSOCKETPROTTYPE?CH395
            CODE    11D3H     0014H     UNIT         ?PR?_CH395SETSOCKETIPRAWPROTO?CH395
            CODE    11E7H     0013H     UNIT         ?PR?CH395EEPROMERASE?CH395
BL51 BANKED LINKER/LOCATER V6.22                                                      03/09/2021  10:38:46  PAGE 3


            CODE    11FAH     0013H     UNIT         ?PR?_CH395SETTCPMSS?CH395
            CODE    120DH     0011H     UNIT         ?PR?_MDELAYMS?CH395
            CODE    121EH     0011H     UNIT         ?PR?_CH395WRITEGPIOADDR?CH395
            CODE    122FH     0011H     UNIT         ?PR?_CH395SETKEEPLIVE?CH395
            CODE    1240H     0011H     UNIT         ?PR?_CH395SETTTLNUM?CH395
            CODE    1251H     0011H     UNIT         ?PR?MINITSTDIO?CH395
            CODE    1262H     0010H     UNIT         ?PR?CH395GETCMDSTATUS?CH395
            CODE    1272H     0010H     UNIT         ?PR?_MSTOPIFERROR?CH395
            CODE    1282H     000FH     UNIT         ?PR?_XWRITECH395CMD?CH395
            CODE    1291H     000FH     UNIT         ?PR?_CH395CMDSETPHY?CH395
            CODE    12A0H     000FH     UNIT         ?PR?_CH395ENABLEPING?CH395
            CODE    12AFH     000FH     UNIT         ?PR?_CH395CLEARRECVBUF?CH395
            CODE    12BEH     000FH     UNIT         ?PR?_CH395CMDSETRETRYCOUNT?CH395
            CODE    12CDH     000EH     UNIT         ?PR?_MDELAYUS?CH395
            CODE    12DBH     000EH     UNIT         ?PR?XREADCH395DATA?CH395
            CODE    12E9H     000DH     UNIT         ?PR?_SPI395EXCHANGE?CH395
            CODE    12F6H     000CH     UNIT         ?PR?_CH395KEEPLIVECNT?CH395
            CODE    1302H     000BH     UNIT         ?PR?CH395CMDGETVER?CH395
            CODE    130DH     000BH     UNIT         ?PR?CH395CMDGETPHYSTATUS?CH395
            CODE    1318H     000BH     UNIT         ?PR?CH395CMDGETGLOBINTSTATUS?CH395
            CODE    1323H     000BH     UNIT         ?PR?CH395GETDHCPSTATUS?CH395
            CODE    132EH     000BH     UNIT         ?CO?CH395
            CODE    1339H     000AH     UNIT         ?PR?_CH395CMDCHECKEXIST?CH395
            CODE    1343H     0009H     UNIT         ?PR?CH395_PORT_INIT?CH395
            CODE    134CH     0008H     UNIT         ?PR?CH395CMDRESET?CH395
            CODE    1354H     0008H     UNIT         ?PR?CH395CMDSLEEP?CH395



OVERLAY MAP OF MODULE:   CH395EVT (CH395)


SEGMENT                                           BIT_GROUP          DATA_GROUP          XDATA_GROUP
  +--> CALLED SEGMENT                          START    LENGTH     START    LENGTH     START    LENGTH
------------------------------------------------------------------------------------------------------
?C_C51STARTUP                                  -----    -----      -----    -----      -----    -----
  +--> ?PR?MAIN?CH395
  +--> ?C_INITSEG

?PR?MAIN?CH395                                 -----    -----      -----    -----      -----    -----
  +--> ?PR?_MDELAYMS?CH395
  +--> ?PR?MINITSTDIO?CH395
  +--> ?PR?CH395_PORT_INIT?CH395
  +--> ?PR?INITCH395INFPARAM?CH395
  +--> ?PR?CH395INIT?CH395
  +--> ?PR?_MSTOPIFERROR?CH395
  +--> ?PR?KEEPLIVE_SET?CH395
  +--> ?PR?CH395CMDGETPHYSTATUS?CH395
  +--> ?PR?INITSOCKETPARAM?CH395
  +--> ?PR?CH395SOCKETINITOPEN?CH395
  +--> ?PR?CH395GLOBALINTERRUPT?CH395

?PR?_MDELAYMS?CH395                            -----    -----      -----    -----      -----    -----
  +--> ?PR?_MDELAYUS?CH395

?PR?CH395INIT?CH395                            -----    -----      -----    -----      -----    -----
  +--> ?PR?_CH395CMDCHECKEXIST?CH395
BL51 BANKED LINKER/LOCATER V6.22                                                      03/09/2021  10:38:46  PAGE 4


  +--> ?PR?_CH395CMDSETIPADDR?CH395
  +--> ?PR?_CH395CMDSETGWIPADDR?CH395
  +--> ?PR?_CH395CMDSETMASKADDR?CH395
  +--> ?PR?_MDELAYMS?CH395
  +--> ?PR?CH395CMDINITCH395?CH395

?PR?_CH395CMDCHECKEXIST?CH395                  -----    -----      -----    -----      -----    -----
  +--> ?PR?XREADCH395DATA?CH395

?PR?XREADCH395DATA?CH395                       -----    -----      -----    -----      -----    -----
  +--> ?PR?_XWRITECH395CMD?CH395
  +--> ?PR?_XWRITECH395DATA?CH395
  +--> ?PR?_SPI395EXCHANGE?CH395

?PR?_XWRITECH395CMD?CH395                      -----    -----      -----    -----      -----    -----
  +--> ?PR?_SPI395EXCHANGE?CH395
  +--> ?PR?_MDELAYUS?CH395

?PR?_XWRITECH395DATA?CH395                     -----    -----      -----    -----      -----    -----
  +--> ?PR?_SPI395EXCHANGE?CH395

?PR?_CH395CMDSETIPADDR?CH395                   -----    -----      -----    -----      0253H    0003H
  +--> ?PR?_XWRITECH395CMD?CH395
  +--> ?PR?_XWRITECH395DATA?CH395

?PR?_CH395CMDSETGWIPADDR?CH395                 -----    -----      -----    -----      0253H    0003H
  +--> ?PR?_XWRITECH395CMD?CH395
  +--> ?PR?_XWRITECH395DATA?CH395

?PR?_CH395CMDSETMASKADDR?CH395                 -----    -----      -----    -----      0253H    0003H
  +--> ?PR?_XWRITECH395CMD?CH395
  +--> ?PR?_XWRITECH395DATA?CH395

?PR?CH395CMDINITCH395?CH395                    -----    -----      -----    -----      0253H    0001H
  +--> ?PR?_XWRITECH395CMD?CH395
  +--> ?PR?_MDELAYMS?CH395
  +--> ?PR?CH395GETCMDSTATUS?CH395

?PR?CH395GETCMDSTATUS?CH395                    -----    -----      -----    -----      -----    -----
  +--> ?PR?_MDELAYMS?CH395
  +--> ?PR?_XWRITECH395CMD?CH395
  +--> ?PR?XREADCH395DATA?CH395

?PR?_MSTOPIFERROR?CH395                        -----    -----      -----    -----      -----    -----
  +--> ?PR?_MDELAYMS?CH395

?PR?KEEPLIVE_SET?CH395                         -----    -----      -----    -----      -----    -----
  +--> ?PR?_CH395KEEPLIVECNT?CH395
  +--> ?PR?_CH395KEEPLIVEIDLE?CH395
  +--> ?PR?_CH395KEEPLIVEINTVL?CH395

?PR?_CH395KEEPLIVECNT?CH395                    -----    -----      -----    -----      -----    -----
  +--> ?PR?_XWRITECH395CMD?CH395
  +--> ?PR?_XWRITECH395DATA?CH395

?PR?_CH395KEEPLIVEIDLE?CH395                   -----    -----      -----    -----      0253H    0004H
  +--> ?PR?_XWRITECH395CMD?CH395
BL51 BANKED LINKER/LOCATER V6.22                                                      03/09/2021  10:38:46  PAGE 5


  +--> ?PR?_XWRITECH395DATA?CH395

?PR?_CH395KEEPLIVEINTVL?CH395                  -----    -----      -----    -----      0253H    0004H
  +--> ?PR?_XWRITECH395CMD?CH395
  +--> ?PR?_XWRITECH395DATA?CH395

?PR?CH395CMDGETPHYSTATUS?CH395                 -----    -----      -----    -----      -----    -----
  +--> ?PR?_XWRITECH395CMD?CH395
  +--> ?PR?XREADCH395DATA?CH395

?PR?CH395SOCKETINITOPEN?CH395                  -----    -----      -----    -----      -----    -----
  +--> ?PR?_CH395SETSOCKETDESIP?CH395
  +--> ?PR?_CH395SETSOCKETPROTTYPE?CH395
  +--> ?PR?_CH395SETSOCKETDESPORT?CH395
  +--> ?PR?_CH395SETSOCKETSOURPORT?CH395
  +--> ?PR?_CH395OPENSOCKET?CH395
  +--> ?PR?_MSTOPIFERROR?CH395
  +--> ?PR?_CH395TCPCONNECT?CH395

?PR?_CH395SETSOCKETDESIP?CH395                 -----    -----      -----    -----      0253H    0003H
  +--> ?PR?_XWRITECH395CMD?CH395
  +--> ?PR?_XWRITECH395DATA?CH395

?PR?_CH395SETSOCKETPROTTYPE?CH395              -----    -----      -----    -----      -----    -----
  +--> ?PR?_XWRITECH395CMD?CH395
  +--> ?PR?_XWRITECH395DATA?CH395

?PR?_CH395SETSOCKETDESPORT?CH395               -----    -----      -----    -----      -----    -----
  +--> ?PR?_XWRITECH395CMD?CH395
  +--> ?PR?_XWRITECH395DATA?CH395

?PR?_CH395SETSOCKETSOURPORT?CH395              -----    -----      -----    -----      -----    -----
  +--> ?PR?_XWRITECH395CMD?CH395
  +--> ?PR?_XWRITECH395DATA?CH395

?PR?_CH395OPENSOCKET?CH395                     -----    -----      -----    -----      -----    -----
  +--> ?PR?_XWRITECH395CMD?CH395
  +--> ?PR?_XWRITECH395DATA?CH395
  +--> ?PR?CH395GETCMDSTATUS?CH395

?PR?_CH395TCPCONNECT?CH395                     -----    -----      -----    -----      -----    -----
  +--> ?PR?_XWRITECH395CMD?CH395
  +--> ?PR?_XWRITECH395DATA?CH395
  +--> ?PR?CH395GETCMDSTATUS?CH395

?PR?CH395GLOBALINTERRUPT?CH395                 -----    -----      -----    -----      0253H    000CH
  +--> ?PR?CH395CMDGETGLOBINTSTATUS_ALL?CH395
  +--> ?PR?_CH395CMDGETUNREACHIPPT?CH395
  +--> ?PR?_CH395SOCKETINTERRUPT?CH395

?PR?CH395CMDGETGLOBINTSTATUS_ALL?CH395         -----    -----      -----    -----      -----    -----
  +--> ?PR?_XWRITECH395CMD?CH395
  +--> ?PR?_MDELAYUS?CH395
  +--> ?PR?XREADCH395DATA?CH395

?PR?_CH395CMDGETUNREACHIPPT?CH395              -----    -----      -----    -----      025FH    0003H
  +--> ?PR?_XWRITECH395CMD?CH395
BL51 BANKED LINKER/LOCATER V6.22                                                      03/09/2021  10:38:46  PAGE 6


  +--> ?PR?XREADCH395DATA?CH395

?PR?_CH395SOCKETINTERRUPT?CH395                -----    -----      -----    -----      025FH    0005H
  +--> ?PR?_CH395GETSOCKETINT?CH395
  +--> ?PR?_CH395GETRECVLENGTH?CH395
  +--> ?PR?_CH395GETRECVDATA?CH395
  +--> ?PR?_CH395SENDDATA?CH395
  +--> ?PR?_CH395SETKEEPLIVE?CH395
  +--> ?PR?_CH395SETTTLNUM?CH395
  +--> ?CO?CH395
  +--> ?PR?PRINTF?PRINTF

?PR?_CH395GETSOCKETINT?CH395                   -----    -----      -----    -----      -----    -----
  +--> ?PR?_XWRITECH395CMD?CH395
  +--> ?PR?_XWRITECH395DATA?CH395
  +--> ?PR?_MDELAYUS?CH395
  +--> ?PR?XREADCH395DATA?CH395

?PR?_CH395GETRECVLENGTH?CH395                  -----    -----      -----    -----      -----    -----
  +--> ?PR?XREADCH395DATA?CH395

?PR?_CH395GETRECVDATA?CH395                    -----    -----      -----    -----      0264H    0003H
  +--> ?PR?_XWRITECH395CMD?CH395
  +--> ?PR?_XWRITECH395DATA?CH395
  +--> ?PR?_MDELAYUS?CH395
  +--> ?PR?XREADCH395DATA?CH395

?PR?_CH395SENDDATA?CH395                       -----    -----      -----    -----      0264H    0006H
  +--> ?PR?_XWRITECH395CMD?CH395
  +--> ?PR?_XWRITECH395DATA?CH395

?PR?_CH395SETKEEPLIVE?CH395                    -----    -----      -----    -----      -----    -----
  +--> ?PR?_XWRITECH395CMD?CH395
  +--> ?PR?_XWRITECH395DATA?CH395

?PR?_CH395SETTTLNUM?CH395                      -----    -----      -----    -----      -----    -----
  +--> ?PR?_XWRITECH395CMD?CH395
  +--> ?PR?_XWRITECH395DATA?CH395

?PR?PRINTF?PRINTF                              0020H.0  0001H.1    0008H    0005H      0264H    0028H
  +--> ?PR?PUTCHAR?PUTCHAR



SYMBOL TABLE OF MODULE:  CH395EVT (CH395)

  VALUE           TYPE          NAME
  ----------------------------------

  -------         MODULE        CH395
  C:0000H         SYMBOL        _ICE_DUMMY_
  C:1354H         PUBLIC        CH395CMDSleep
  C:0D5CH         PUBLIC        _CH395CMDGetRemoteIPP
  D:0090H         PUBLIC        P1
  C:10C9H         PUBLIC        _CH395SetSocketDesIP
  C:1024H         PUBLIC        _CH395CMDSetMACAddr
  D:00B0H         PUBLIC        P3
BL51 BANKED LINKER/LOCATER V6.22                                                      03/09/2021  10:38:46  PAGE 7


  C:1240H         PUBLIC        _CH395SetTTLNum
  C:0A3AH         PUBLIC        _CH395EEPROMWrite
  C:1104H         PUBLIC        keeplive_set
  C:0E28H         PUBLIC        _CH395GetIPInf
  C:1251H         PUBLIC        mInitSTDIO
  C:12A0H         PUBLIC        _CH395EnablePing
  C:0F0FH         PUBLIC        _CH395TCPListen
  C:134CH         PUBLIC        CH395CMDReset
  C:05B7H         PUBLIC        _CH395CRCRet6Bit
  D:00A8H         PUBLIC        IE
  C:111FH         PUBLIC        _CH395SetSocketDesPort
  C:0FFEH         PUBLIC        _CH395CloseSocket
  C:07F8H         PUBLIC        _CH395CMDSetMACFilt
  C:11BFH         PUBLIC        _CH395SetSocketProtType
  D:00B8H         PUBLIC        IP
  C:0F61H         PUBLIC        _CH395DHCPEnable
  C:0CDFH         PUBLIC        _CH395CMDGetSocketStatus
  C:1048H         PUBLIC        CH395CMDGetGlobIntStatus_ALL
  B:0098H.1       PUBLIC        TI
  B:00B0H.3       PUBLIC        INT1
  C:1138H         PUBLIC        _CH395SetSocketSourPort
  C:130DH         PUBLIC        CH395CMDGetPHYStatus
  C:120DH         PUBLIC        _mDelaymS
  C:12E3H         PUBLIC        xReadCH395Data
  C:1291H         PUBLIC        _CH395CMDSetPHY
  X:0000H         PUBLIC        MyBuffer
  C:0D94H         PUBLIC        main
  C:0F38H         PUBLIC        _CH395TCPDisconnect
  C:12D4H         PUBLIC        _mDelayuS
  C:12F6H         PUBLIC        _CH395KeepLiveCNT
  C:0FD8H         PUBLIC        _CH395OpenSocket
  C:0DF7H         PUBLIC        _CH395CMDGetUnreachIPPT
  X:0200H         PUBLIC        SockInf
  D:0087H         PUBLIC        PCON
  C:0EB5H         PUBLIC        _xWriteCH395Data
  C:1168H         PUBLIC        _CH395CMDSetRetryPeriod
  D:0098H         PUBLIC        SCON
  B:0090H.4       PUBLIC        P14
  D:0089H         PUBLIC        TMOD
  D:0088H         PUBLIC        TCON
  C:0C58H         PUBLIC        _CH395SendData
  D:00D5H         PUBLIC        SPCR
  D:0086H         PUBLIC        SPDR
  C:0E59H         PUBLIC        CH395Init
  X:021CH         PUBLIC        CH395IPAddr
  C:0D1FH         PUBLIC        CH395SocketInitOpen
  C:0EB8H         PUBLIC        CH395CMDInitCH395
  C:10E9H         PUBLIC        _CH395GetRecvLength
  C:1069H         PUBLIC        _CH395CMDSetIPAddr
  D:00AAH         PUBLIC        SPSR
  C:12AFH         PUBLIC        _CH395ClearRecvBuf
  C:1285H         PUBLIC        _xWriteCH395Cmd
  X:0220H         PUBLIC        CH395Inf
  D:008DH         PUBLIC        TH1
  C:1272H         PUBLIC        _mStopIfError
  C:1302H         PUBLIC        CH395CMDGetVer
  X:0243H         PUBLIC        Socket0DesIP
BL51 BANKED LINKER/LOCATER V6.22                                                      03/09/2021  10:38:46  PAGE 8


  X:0247H         PUBLIC        CH395IPMask
  C:0917H         PUBLIC        CH395GlobalInterrupt
  B:0088H.6       PUBLIC        TR1
  C:0C10H         PUBLIC        InitCH395InfParam
  C:0B29H         PUBLIC        _CH395KeepLiveINTVL
  C:12BEH         PUBLIC        _CH395CMDSetRetryCount
  C:11AAH         PUBLIC        _CH395ReadGPIOAddr
  C:10A9H         PUBLIC        _CH395CMDSetMASKAddr
  C:0C9EH         PUBLIC        _CH395CMDSetUartBaudRate
  C:098FH         PUBLIC        _CH395GetRecvData
  C:1318H         PUBLIC        CH395CMDGetGlobIntStatus
  X:024BH         PUBLIC        Socket0DesPort
  X:024DH         PUBLIC        CH395GWIPAddr
  C:0EE6H         PUBLIC        _CH395TCPConnect
  C:11D3H         PUBLIC        _CH395SetSocketIPRAWProto
  D:00C8H         PUBLIC        T2CON
  C:0ADBH         PUBLIC        _CH395KeepLiveIDLE
  C:1089H         PUBLIC        _CH395CMDSetGWIPAddr
  C:09E6H         PUBLIC        _CH395UDPSendTo
  C:1151H         PUBLIC        _CH395GetSocketInt
  C:1343H         PUBLIC        CH395_PORT_INIT
  C:121EH         PUBLIC        _CH395WriteGPIOAddr
  C:11E7H         PUBLIC        CH395EEPROMErase
  C:1267H         PUBLIC        CH395GetCmdStatus
  C:072CH         PUBLIC        _CH395SocketInterrupt
  X:0251H         PUBLIC        Socket0SourPort
  C:0A8DH         PUBLIC        _CH395SetStartPara
  C:1194H         PUBLIC        _CH395SetSocketSendBuf
  C:0DC6H         PUBLIC        _CH395CMDGetMACAddr
  C:1339H         PUBLIC        _CH395CMDCheckExist
  C:122FH         PUBLIC        _CH395SetKeepLive
  C:0B77H         PUBLIC        _CH395EEPROMRead
  C:0BC4H         PUBLIC        InitSocketParam
  C:12E9H         PUBLIC        _Spi395Exchange
  C:1323H         PUBLIC        CH395GetDHCPStatus
  C:11FAH         PUBLIC        _CH395SetTCPMss
  D:00D0H         PUBLIC        PSW
  C:117EH         PUBLIC        _CH395SetSocketRecvBuf
  -------         PROC          L?0202
  -------         ENDPROC       L?0202
  -------         PROC          _MDELAYUS
  D:0007H         SYMBOL        us
  C:12D4H         LINE#         39
  C:12D4H         LINE#         40
  C:12D4H         LINE#         41
  C:12DAH         LINE#         42
  -------         ENDPROC       _MDELAYUS
  -------         PROC          _MDELAYMS
  D:0005H         SYMBOL        ms
  C:120DH         LINE#         51
  C:120FH         LINE#         52
  C:120FH         LINE#         53
  C:1215H         LINE#         54
  C:1215H         LINE#         55
  C:1215H         LINE#         56
  C:1218H         LINE#         57
  C:1218H         LINE#         58
BL51 BANKED LINKER/LOCATER V6.22                                                      03/09/2021  10:38:46  PAGE 9


  C:121BH         LINE#         59
  C:121DH         LINE#         60
  -------         ENDPROC       _MDELAYMS
  -------         PROC          CH395_PORT_INIT
  C:1343H         LINE#         69
  C:1343H         LINE#         70
  C:1343H         LINE#         71
  C:1345H         LINE#         74
  C:1348H         LINE#         78
  C:134BH         LINE#         80
  -------         ENDPROC       CH395_PORT_INIT
  -------         PROC          _SPI395EXCHANGE
  D:0007H         SYMBOL        d
  C:12E9H         LINE#         89
  C:12E9H         LINE#         90
  C:12E9H         LINE#         92
  C:12EBH         LINE#         93
  C:12F0H         LINE#         94
  C:12F3H         LINE#         95
  C:12F5H         LINE#         96
  -------         ENDPROC       _SPI395EXCHANGE
  -------         PROC          L?0201
  -------         ENDPROC       L?0201
  -------         PROC          _XWRITECH395CMD
  D:0007H         SYMBOL        cmd
  C:1285H         LINE#         105
  C:1285H         LINE#         106
  C:1285H         LINE#         107
  C:1287H         LINE#         108
  C:1289H         LINE#         109
  C:128CH         LINE#         110
  -------         ENDPROC       _XWRITECH395CMD
  C:0EA4H         SYMBOL        L?0196
  -------         PROC          L?0195
  -------         ENDPROC       L?0195
  C:0EA4H         SYMBOL        L?0196
  -------         PROC          _XWRITECH395DATA
  D:0007H         SYMBOL        mdata
  C:0EB5H         LINE#         120
  C:0EB5H         LINE#         121
  C:0EB5H         LINE#         122
  -------         ENDPROC       _XWRITECH395DATA
  C:12DBH         SYMBOL        L?0200
  -------         PROC          L?0199
  -------         ENDPROC       L?0199
  C:12DBH         SYMBOL        L?0200
  -------         PROC          XREADCH395DATA
  -------         DO            
  D:0007H         SYMBOL        i
  -------         ENDDO         
  C:12E3H         LINE#         132
  C:12E3H         LINE#         133
  C:12E3H         LINE#         135
  C:12E8H         LINE#         136
  C:12E8H         LINE#         137
  -------         ENDPROC       XREADCH395DATA
  -------         PROC          CH395CMDRESET
BL51 BANKED LINKER/LOCATER V6.22                                                      03/09/2021  10:38:46  PAGE 10


  C:134CH         LINE#         21
  C:134CH         LINE#         22
  C:134CH         LINE#         23
  C:1351H         LINE#         24
  C:1353H         LINE#         25
  -------         ENDPROC       CH395CMDRESET
  -------         PROC          CH395CMDSLEEP
  C:1354H         LINE#         34
  C:1354H         LINE#         35
  C:1354H         LINE#         36
  C:1359H         LINE#         37
  C:135BH         LINE#         38
  -------         ENDPROC       CH395CMDSLEEP
  -------         PROC          CH395CMDGETVER
  -------         DO            
  D:0007H         SYMBOL        i
  -------         ENDDO         
  C:1302H         LINE#         48
  C:1302H         LINE#         49
  C:1302H         LINE#         51
  C:1307H         LINE#         52
  C:130AH         LINE#         53
  C:130CH         LINE#         54
  C:130CH         LINE#         55
  -------         ENDPROC       CH395CMDGETVER
  -------         PROC          _CH395CMDCHECKEXIST
  D:0005H         SYMBOL        testdata
  -------         DO            
  D:0007H         SYMBOL        i
  -------         ENDDO         
  C:1339H         LINE#         64
  C:133BH         LINE#         65
  C:133BH         LINE#         68
  C:133DH         LINE#         69
  C:133DH         LINE#         70
  C:1340H         LINE#         71
  C:1342H         LINE#         72
  C:1342H         LINE#         73
  -------         ENDPROC       _CH395CMDCHECKEXIST
  -------         PROC          _CH395CMDSETPHY
  D:0005H         SYMBOL        phystat
  C:1291H         LINE#         83
  C:1293H         LINE#         84
  C:1293H         LINE#         85
  C:1298H         LINE#         86
  C:129DH         LINE#         87
  C:129FH         LINE#         88
  -------         ENDPROC       _CH395CMDSETPHY
  -------         PROC          CH395CMDGETPHYSTATUS
  -------         DO            
  D:0007H         SYMBOL        i
  -------         ENDDO         
  C:130DH         LINE#         97
  C:130DH         LINE#         98
  C:130DH         LINE#         101
  C:1312H         LINE#         102
  C:1315H         LINE#         103
BL51 BANKED LINKER/LOCATER V6.22                                                      03/09/2021  10:38:46  PAGE 11


  C:1317H         LINE#         104
  C:1317H         LINE#         105
  -------         ENDPROC       CH395CMDGETPHYSTATUS
  -------         PROC          CH395CMDGETGLOBINTSTATUS
  -------         DO            
  D:0007H         SYMBOL        init_status
  -------         ENDDO         
  C:1318H         LINE#         114
  C:1318H         LINE#         115
  C:1318H         LINE#         118
  C:131DH         LINE#         119
  C:1320H         LINE#         120
  C:1322H         LINE#         121
  C:1322H         LINE#         122
  -------         ENDPROC       CH395CMDGETGLOBINTSTATUS
  -------         PROC          CH395CMDINITCH395
  -------         DO            
  X:0253H         SYMBOL        i
  D:0005H         SYMBOL        s
  -------         ENDDO         
  C:0EB8H         LINE#         131
  C:0EB8H         LINE#         132
  C:0EB8H         LINE#         133
  C:0EBDH         LINE#         134
  C:0EBEH         LINE#         136
  C:0EC3H         LINE#         137
  C:0EC5H         LINE#         138
  C:0EC5H         LINE#         139
  C:0EC5H         LINE#         140
  C:0ECAH         LINE#         141
  C:0ECFH         LINE#         142
  C:0ED3H         LINE#         143
  C:0EE3H         LINE#         144
  C:0EE3H         LINE#         145
  C:0EE5H         LINE#         146
  -------         ENDPROC       CH395CMDINITCH395
  -------         PROC          _CH395CMDSETUARTBAUDRATE
  X:02C2H         SYMBOL        baudrate
  -------         DO            
  X:02C6H         SYMBOL        i
  -------         ENDDO         
  C:0C9EH         LINE#         155
  C:0CA4H         LINE#         156
  C:0CA4H         LINE#         158
  C:0CA9H         LINE#         159
  C:0CB4H         LINE#         160
  C:0CC0H         LINE#         161
  C:0CD6H         LINE#         162
  C:0CDCH         LINE#         163
  C:0CDEH         LINE#         164
  -------         ENDPROC       _CH395CMDSETUARTBAUDRATE
  C:1262H         SYMBOL        L?0198
  -------         PROC          L?0197
  -------         ENDPROC       L?0197
  C:1262H         SYMBOL        L?0198
  -------         PROC          CH395GETCMDSTATUS
  -------         DO            
BL51 BANKED LINKER/LOCATER V6.22                                                      03/09/2021  10:38:46  PAGE 12


  D:0007H         SYMBOL        i
  -------         ENDDO         
  C:1267H         LINE#         173
  C:1267H         LINE#         174
  C:1267H         LINE#         177
  C:126CH         LINE#         178
  C:126FH         LINE#         179
  C:1271H         LINE#         180
  C:1271H         LINE#         181
  -------         ENDPROC       CH395GETCMDSTATUS
  -------         PROC          _CH395CMDSETIPADDR
  X:0253H         SYMBOL        ipaddr
  -------         DO            
  D:0006H         SYMBOL        i
  -------         ENDDO         
  C:1069H         LINE#         190
  C:1074H         LINE#         191
  C:1074H         LINE#         194
  C:1079H         LINE#         195
  C:1086H         LINE#         196
  C:1088H         LINE#         197
  -------         ENDPROC       _CH395CMDSETIPADDR
  -------         PROC          _CH395CMDSETGWIPADDR
  X:0253H         SYMBOL        gwipaddr
  -------         DO            
  D:0006H         SYMBOL        i
  -------         ENDDO         
  C:1089H         LINE#         206
  C:1094H         LINE#         207
  C:1094H         LINE#         210
  C:1099H         LINE#         211
  C:10A6H         LINE#         212
  C:10A8H         LINE#         213
  -------         ENDPROC       _CH395CMDSETGWIPADDR
  -------         PROC          _CH395CMDSETMASKADDR
  X:0253H         SYMBOL        maskaddr
  -------         DO            
  D:0006H         SYMBOL        i
  -------         ENDDO         
  C:10A9H         LINE#         222
  C:10B4H         LINE#         223
  C:10B4H         LINE#         226
  C:10B9H         LINE#         227
  C:10C6H         LINE#         228
  C:10C8H         LINE#         229
  -------         ENDPROC       _CH395CMDSETMASKADDR
  -------         PROC          _CH395CMDSETMACADDR
  X:02CBH         SYMBOL        amcaddr
  -------         DO            
  D:0006H         SYMBOL        i
  -------         ENDDO         
  C:1024H         LINE#         238
  C:102FH         LINE#         239
  C:102FH         LINE#         242
  C:1034H         LINE#         243
  C:1041H         LINE#         244
  C:1043H         LINE#         245
BL51 BANKED LINKER/LOCATER V6.22                                                      03/09/2021  10:38:46  PAGE 13


  -------         ENDPROC       _CH395CMDSETMACADDR
  -------         PROC          _CH395CMDGETMACADDR
  X:02CEH         SYMBOL        amcaddr
  -------         DO            
  D:0006H         SYMBOL        i
  -------         ENDDO         
  C:0DC6H         LINE#         255
  C:0DD1H         LINE#         256
  C:0DD1H         LINE#         259
  C:0DD6H         LINE#         260
  C:0DF4H         LINE#         261
  C:0DF6H         LINE#         262
  -------         ENDPROC       _CH395CMDGETMACADDR
  -------         PROC          _CH395CMDSETMACFILT
  D:0005H         SYMBOL        filtype
  X:02AEH         SYMBOL        table0
  X:02B2H         SYMBOL        table1
  C:07F8H         LINE#         273
  C:07FAH         LINE#         274
  C:07FAH         LINE#         275
  C:07FFH         LINE#         276
  C:0804H         LINE#         277
  C:080FH         LINE#         278
  C:081BH         LINE#         279
  C:0831H         LINE#         280
  C:0847H         LINE#         282
  C:0850H         LINE#         283
  C:085CH         LINE#         284
  C:0872H         LINE#         285
  C:0888H         LINE#         286
  C:088AH         LINE#         287
  -------         ENDPROC       _CH395CMDSETMACFILT
  -------         PROC          _CH395CMDGETUNREACHIPPT
  X:025FH         SYMBOL        list
  -------         DO            
  D:0006H         SYMBOL        i
  -------         ENDDO         
  C:0DF7H         LINE#         300
  C:0E02H         LINE#         301
  C:0E02H         LINE#         304
  C:0E07H         LINE#         305
  C:0E09H         LINE#         306
  C:0E09H         LINE#         307
  C:0E20H         LINE#         308
  C:0E25H         LINE#         309
  C:0E27H         LINE#         310
  -------         ENDPROC       _CH395CMDGETUNREACHIPPT
  -------         PROC          _CH395CMDGETREMOTEIPP
  D:0005H         SYMBOL        sockindex
  X:02D1H         SYMBOL        list
  -------         DO            
  D:0006H         SYMBOL        i
  -------         ENDDO         
  C:0D5CH         LINE#         320
  C:0D69H         LINE#         321
  C:0D69H         LINE#         324
  C:0D6EH         LINE#         325
BL51 BANKED LINKER/LOCATER V6.22                                                      03/09/2021  10:38:46  PAGE 14


  C:0D73H         LINE#         326
  C:0D75H         LINE#         327
  C:0D75H         LINE#         328
  C:0D8CH         LINE#         329
  C:0D91H         LINE#         330
  C:0D93H         LINE#         331
  -------         ENDPROC       _CH395CMDGETREMOTEIPP
  -------         PROC          _CH395SETSOCKETDESIP
  D:0005H         SYMBOL        sockindex
  X:0253H         SYMBOL        ipaddr
  C:10C9H         LINE#         341
  C:10D6H         LINE#         342
  C:10D6H         LINE#         343
  C:10DBH         LINE#         344
  C:10E0H         LINE#         345
  C:10E0H         LINE#         346
  C:10E3H         LINE#         347
  C:10E3H         LINE#         348
  C:10E6H         LINE#         349
  C:10E8H         LINE#         350
  -------         ENDPROC       _CH395SETSOCKETDESIP
  -------         PROC          _CH395SETSOCKETPROTTYPE
  D:0004H         SYMBOL        sockindex
  D:0005H         SYMBOL        prottype
  C:11BFH         LINE#         360
  C:11C1H         LINE#         361
  C:11C1H         LINE#         362
  C:11C6H         LINE#         363
  C:11CBH         LINE#         364
  C:11D0H         LINE#         365
  C:11D2H         LINE#         366
  -------         ENDPROC       _CH395SETSOCKETPROTTYPE
  -------         PROC          _CH395SETSOCKETDESPORT
  D:0003H         SYMBOL        sockindex
  D:0004H         SYMBOL        desprot
  C:111FH         LINE#         377
  C:1121H         LINE#         378
  C:1121H         LINE#         379
  C:1126H         LINE#         380
  C:112BH         LINE#         381
  C:1130H         LINE#         382
  C:1135H         LINE#         383
  C:1137H         LINE#         384
  -------         ENDPROC       _CH395SETSOCKETDESPORT
  -------         PROC          _CH395SETSOCKETSOURPORT
  D:0003H         SYMBOL        sockindex
  D:0004H         SYMBOL        surprot
  C:1138H         LINE#         394
  C:113AH         LINE#         395
  C:113AH         LINE#         396
  C:113FH         LINE#         397
  C:1144H         LINE#         398
  C:1149H         LINE#         399
  C:114EH         LINE#         400
  C:1150H         LINE#         401
  -------         ENDPROC       _CH395SETSOCKETSOURPORT
  -------         PROC          _CH395SETSOCKETIPRAWPROTO
BL51 BANKED LINKER/LOCATER V6.22                                                      03/09/2021  10:38:46  PAGE 15


  D:0004H         SYMBOL        sockindex
  D:0005H         SYMBOL        prototype
  C:11D3H         LINE#         411
  C:11D5H         LINE#         412
  C:11D5H         LINE#         413
  C:11DAH         LINE#         414
  C:11DFH         LINE#         415
  C:11E4H         LINE#         416
  C:11E6H         LINE#         417
  -------         ENDPROC       _CH395SETSOCKETIPRAWPROTO
  -------         PROC          _CH395ENABLEPING
  D:0005H         SYMBOL        enable
  C:12A0H         LINE#         427
  C:12A2H         LINE#         428
  C:12A2H         LINE#         429
  C:12A7H         LINE#         430
  C:12ACH         LINE#         431
  C:12AEH         LINE#         432
  -------         ENDPROC       _CH395ENABLEPING
  -------         PROC          _CH395SENDDATA
  D:0005H         SYMBOL        sockindex
  X:0265H         SYMBOL        databuf
  X:0268H         SYMBOL        len
  -------         DO            
  D:0004H         SYMBOL        i
  -------         ENDDO         
  C:0C58H         LINE#         444
  C:0C65H         LINE#         445
  C:0C65H         LINE#         448
  C:0C6AH         LINE#         449
  C:0C6FH         LINE#         450
  C:0C76H         LINE#         451
  C:0C7EH         LINE#         453
  C:0C8EH         LINE#         454
  C:0C8EH         LINE#         455
  C:0C94H         LINE#         456
  C:0C9BH         LINE#         457
  C:0C9DH         LINE#         458
  -------         ENDPROC       _CH395SENDDATA
  -------         PROC          _CH395GETRECVLENGTH
  D:0005H         SYMBOL        sockindex
  -------         DO            
  D:0004H         SYMBOL        i
  -------         ENDDO         
  C:10E9H         LINE#         467
  C:10EBH         LINE#         468
  C:10EBH         LINE#         471
  C:10EDH         LINE#         472
  C:10EDH         LINE#         473
  C:10F4H         LINE#         474
  C:10FEH         LINE#         475
  C:1100H         LINE#         476
  C:1103H         LINE#         477
  -------         ENDPROC       _CH395GETRECVLENGTH
  -------         PROC          _CH395CLEARRECVBUF
  D:0005H         SYMBOL        sockindex
  C:12AFH         LINE#         486
BL51 BANKED LINKER/LOCATER V6.22                                                      03/09/2021  10:38:46  PAGE 16


  C:12B1H         LINE#         487
  C:12B1H         LINE#         488
  C:12B6H         LINE#         489
  C:12BBH         LINE#         490
  C:12BDH         LINE#         491
  -------         ENDPROC       _CH395CLEARRECVBUF
  -------         PROC          _CH395GETRECVDATA
  X:0264H         SYMBOL        sockindex
  X:0265H         SYMBOL        len
  D:0001H         SYMBOL        pbuf
  -------         DO            
  D:0004H         SYMBOL        i
  -------         ENDDO         
  C:098FH         LINE#         502
  C:099AH         LINE#         503
  C:099AH         LINE#         505
  C:099DH         LINE#         506
  C:09A2H         LINE#         507
  C:09AAH         LINE#         508
  C:09B1H         LINE#         509
  C:09B9H         LINE#         510
  C:09BEH         LINE#         511
  C:09CEH         LINE#         512
  C:09CEH         LINE#         513
  C:09D5H         LINE#         514
  C:09DCH         LINE#         515
  C:09E3H         LINE#         516
  C:09E5H         LINE#         517
  -------         ENDPROC       _CH395GETRECVDATA
  -------         PROC          _CH395CMDSETRETRYCOUNT
  D:0005H         SYMBOL        count
  C:12BEH         LINE#         526
  C:12C0H         LINE#         527
  C:12C0H         LINE#         528
  C:12C5H         LINE#         529
  C:12CAH         LINE#         530
  C:12CCH         LINE#         531
  -------         ENDPROC       _CH395CMDSETRETRYCOUNT
  -------         PROC          _CH395CMDSETRETRYPERIOD
  D:0004H         SYMBOL        period
  C:1168H         LINE#         540
  C:116CH         LINE#         541
  C:116CH         LINE#         542
  C:1171H         LINE#         543
  C:1176H         LINE#         544
  C:117BH         LINE#         545
  C:117DH         LINE#         546
  -------         ENDPROC       _CH395CMDSETRETRYPERIOD
  -------         PROC          _CH395CMDGETSOCKETSTATUS
  D:0005H         SYMBOL        sockindex
  X:02D4H         SYMBOL        status
  C:0CDFH         LINE#         556
  C:0CECH         LINE#         557
  C:0CECH         LINE#         558
  C:0CEEH         LINE#         559
  C:0CEEH         LINE#         560
  C:0D05H         LINE#         561
BL51 BANKED LINKER/LOCATER V6.22                                                      03/09/2021  10:38:46  PAGE 17


  C:0D1CH         LINE#         562
  C:0D1EH         LINE#         563
  -------         ENDPROC       _CH395CMDGETSOCKETSTATUS
  -------         PROC          _CH395OPENSOCKET
  D:0005H         SYMBOL        sockindex
  -------         DO            
  D:0004H         SYMBOL        i
  D:0003H         SYMBOL        s
  -------         ENDDO         
  C:0FD8H         LINE#         572
  C:0FDAH         LINE#         573
  C:0FDAH         LINE#         574
  C:0FDAH         LINE#         575
  C:0FDAH         LINE#         576
  C:0FDFH         LINE#         577
  C:0FE4H         LINE#         578
  C:0FE6H         LINE#         579
  C:0FE6H         LINE#         580
  C:0FE6H         LINE#         581
  C:0FE6H         LINE#         582
  C:0FEBH         LINE#         583
  C:0FEFH         LINE#         584
  C:0FFBH         LINE#         585
  C:0FFBH         LINE#         586
  C:0FFDH         LINE#         587
  -------         ENDPROC       _CH395OPENSOCKET
  -------         PROC          _CH395CLOSESOCKET
  D:0005H         SYMBOL        sockindex
  -------         DO            
  D:0004H         SYMBOL        i
  D:0003H         SYMBOL        s
  -------         ENDDO         
  C:0FFEH         LINE#         596
  C:1000H         LINE#         597
  C:1000H         LINE#         598
  C:1000H         LINE#         599
  C:1000H         LINE#         600
  C:1005H         LINE#         601
  C:100AH         LINE#         602
  C:100CH         LINE#         603
  C:100CH         LINE#         604
  C:100CH         LINE#         605
  C:100CH         LINE#         606
  C:1011H         LINE#         607
  C:1015H         LINE#         608
  C:1021H         LINE#         609
  C:1021H         LINE#         610
  C:1023H         LINE#         611
  -------         ENDPROC       _CH395CLOSESOCKET
  -------         PROC          _CH395TCPCONNECT
  D:0005H         SYMBOL        sockindex
  -------         DO            
  D:0004H         SYMBOL        i
  D:0003H         SYMBOL        s
  -------         ENDDO         
  C:0EE6H         LINE#         620
  C:0EE8H         LINE#         621
BL51 BANKED LINKER/LOCATER V6.22                                                      03/09/2021  10:38:46  PAGE 18


  C:0EE8H         LINE#         622
  C:0EEAH         LINE#         623
  C:0EEBH         LINE#         624
  C:0EF0H         LINE#         625
  C:0EF5H         LINE#         626
  C:0EF7H         LINE#         627
  C:0EF7H         LINE#         628
  C:0EF7H         LINE#         629
  C:0EF7H         LINE#         630
  C:0EFCH         LINE#         631
  C:0F00H         LINE#         632
  C:0F0CH         LINE#         633
  C:0F0CH         LINE#         634
  C:0F0EH         LINE#         635
  -------         ENDPROC       _CH395TCPCONNECT
  -------         PROC          _CH395TCPLISTEN
  D:0005H         SYMBOL        sockindex
  -------         DO            
  D:0004H         SYMBOL        i
  D:0003H         SYMBOL        s
  -------         ENDDO         
  C:0F0FH         LINE#         644
  C:0F11H         LINE#         645
  C:0F11H         LINE#         646
  C:0F13H         LINE#         647
  C:0F14H         LINE#         648
  C:0F19H         LINE#         649
  C:0F1EH         LINE#         650
  C:0F20H         LINE#         651
  C:0F20H         LINE#         652
  C:0F20H         LINE#         653
  C:0F20H         LINE#         654
  C:0F25H         LINE#         655
  C:0F29H         LINE#         656
  C:0F35H         LINE#         657
  C:0F35H         LINE#         658
  C:0F37H         LINE#         659
  -------         ENDPROC       _CH395TCPLISTEN
  -------         PROC          _CH395TCPDISCONNECT
  D:0005H         SYMBOL        sockindex
  -------         DO            
  D:0004H         SYMBOL        i
  D:0003H         SYMBOL        s
  -------         ENDDO         
  C:0F38H         LINE#         668
  C:0F3AH         LINE#         669
  C:0F3AH         LINE#         670
  C:0F3CH         LINE#         671
  C:0F3DH         LINE#         672
  C:0F42H         LINE#         673
  C:0F47H         LINE#         674
  C:0F49H         LINE#         675
  C:0F49H         LINE#         676
  C:0F49H         LINE#         677
  C:0F49H         LINE#         678
  C:0F4EH         LINE#         679
  C:0F52H         LINE#         680
BL51 BANKED LINKER/LOCATER V6.22                                                      03/09/2021  10:38:46  PAGE 19


  C:0F5EH         LINE#         681
  C:0F5EH         LINE#         682
  C:0F60H         LINE#         683
  -------         ENDPROC       _CH395TCPDISCONNECT
  -------         PROC          _CH395GETSOCKETINT
  D:0005H         SYMBOL        sockindex
  -------         DO            
  D:0007H         SYMBOL        intstatus
  -------         ENDDO         
  C:1151H         LINE#         692
  C:1153H         LINE#         693
  C:1153H         LINE#         695
  C:1158H         LINE#         696
  C:115DH         LINE#         697
  C:1162H         LINE#         698
  C:1165H         LINE#         699
  C:1167H         LINE#         700
  C:1167H         LINE#         701
  -------         ENDPROC       _CH395GETSOCKETINT
  -------         PROC          _CH395CRCRET6BIT
  X:028CH         SYMBOL        mac_addr
  -------         DO            
  X:028FH         SYMBOL        perByte
  X:0293H         SYMBOL        perBit
  X:0297H         SYMBOL        poly
  X:029BH         SYMBOL        crc_value
  X:029FH         SYMBOL        c
  -------         ENDDO         
  C:05B7H         LINE#         710
  C:05C2H         LINE#         711
  C:05C2H         LINE#         714
  C:05CCH         LINE#         715
  C:05D6H         LINE#         717
  C:05FDH         LINE#         718
  C:05FDH         LINE#         719
  C:0614H         LINE#         720
  C:063BH         LINE#         721
  C:063BH         LINE#         722
  C:06B3H         LINE#         723
  C:06BAH         LINE#         724
  C:06E2H         LINE#         725
  C:070AH         LINE#         726
  C:0723H         LINE#         727
  C:072BH         LINE#         728
  -------         ENDPROC       _CH395CRCRET6BIT
  -------         PROC          _CH395DHCPENABLE
  D:0005H         SYMBOL        flag
  -------         DO            
  D:0004H         SYMBOL        i
  D:0007H         SYMBOL        s
  -------         ENDDO         
  C:0F61H         LINE#         737
  C:0F63H         LINE#         738
  C:0F63H         LINE#         739
  C:0F65H         LINE#         741
  C:0F6AH         LINE#         742
  C:0F6FH         LINE#         743
BL51 BANKED LINKER/LOCATER V6.22                                                      03/09/2021  10:38:46  PAGE 20


  C:0F71H         LINE#         744
  C:0F71H         LINE#         745
  C:0F71H         LINE#         746
  C:0F76H         LINE#         747
  C:0F79H         LINE#         748
  C:0F7DH         LINE#         749
  C:0F89H         LINE#         750
  C:0F89H         LINE#         751
  C:0F89H         LINE#         752
  -------         ENDPROC       _CH395DHCPENABLE
  -------         PROC          CH395GETDHCPSTATUS
  -------         DO            
  D:0007H         SYMBOL        status
  -------         ENDDO         
  C:1323H         LINE#         761
  C:1323H         LINE#         762
  C:1323H         LINE#         764
  C:1328H         LINE#         765
  C:132BH         LINE#         766
  C:132DH         LINE#         767
  C:132DH         LINE#         768
  -------         ENDPROC       CH395GETDHCPSTATUS
  -------         PROC          _CH395GETIPINF
  X:02D7H         SYMBOL        addr
  -------         DO            
  D:0006H         SYMBOL        i
  -------         ENDDO         
  C:0E28H         LINE#         777
  C:0E33H         LINE#         778
  C:0E33H         LINE#         780
  C:0E38H         LINE#         781
  C:0E3AH         LINE#         782
  C:0E3AH         LINE#         783
  C:0E51H         LINE#         784
  C:0E56H         LINE#         785
  C:0E58H         LINE#         786
  -------         ENDPROC       _CH395GETIPINF
  -------         PROC          _CH395WRITEGPIOADDR
  D:0004H         SYMBOL        regadd
  D:0005H         SYMBOL        regval
  C:121EH         LINE#         796
  C:1220H         LINE#         797
  C:1220H         LINE#         798
  C:1225H         LINE#         799
  C:122AH         LINE#         800
  -------         ENDPROC       _CH395WRITEGPIOADDR
  -------         PROC          _CH395READGPIOADDR
  D:0005H         SYMBOL        regadd
  -------         DO            
  D:0007H         SYMBOL        i
  -------         ENDDO         
  C:11AAH         LINE#         810
  C:11ACH         LINE#         811
  C:11ACH         LINE#         813
  C:11B1H         LINE#         814
  C:11B6H         LINE#         815
  C:11BBH         LINE#         816
BL51 BANKED LINKER/LOCATER V6.22                                                      03/09/2021  10:38:46  PAGE 21


  C:11BEH         LINE#         817
  C:11BEH         LINE#         818
  -------         ENDPROC       _CH395READGPIOADDR
  -------         PROC          CH395EEPROMERASE
  -------         DO            
  D:0007H         SYMBOL        i
  -------         ENDDO         
  C:11E7H         LINE#         827
  C:11E7H         LINE#         828
  C:11E7H         LINE#         830
  C:11ECH         LINE#         831
  C:11ECH         LINE#         832
  C:11ECH         LINE#         833
  C:11F1H         LINE#         834
  C:11F4H         LINE#         835
  C:11F9H         LINE#         836
  C:11F9H         LINE#         837
  C:11F9H         LINE#         838
  C:11F9H         LINE#         839
  -------         ENDPROC       CH395EEPROMERASE
  -------         PROC          _CH395EEPROMWRITE
  D:0004H         SYMBOL        eepaddr
  X:02B8H         SYMBOL        buf
  X:02BBH         SYMBOL        len
  -------         DO            
  D:0007H         SYMBOL        i
  -------         ENDDO         
  C:0A3AH         LINE#         850
  C:0A49H         LINE#         851
  C:0A49H         LINE#         853
  C:0A4EH         LINE#         854
  C:0A53H         LINE#         855
  C:0A58H         LINE#         856
  C:0A5CH         LINE#         857
  C:0A7FH         LINE#         858
  C:0A7FH         LINE#         859
  C:0A7FH         LINE#         860
  C:0A84H         LINE#         861
  C:0A87H         LINE#         862
  C:0A8CH         LINE#         863
  C:0A8CH         LINE#         864
  C:0A8CH         LINE#         865
  C:0A8CH         LINE#         866
  -------         ENDPROC       _CH395EEPROMWRITE
  -------         PROC          _CH395EEPROMREAD
  D:0004H         SYMBOL        eepaddr
  X:02BEH         SYMBOL        buf
  X:02C1H         SYMBOL        len
  C:0B77H         LINE#         877
  C:0B86H         LINE#         878
  C:0B86H         LINE#         879
  C:0B8BH         LINE#         880
  C:0B90H         LINE#         881
  C:0B95H         LINE#         882
  C:0B9BH         LINE#         883
  C:0BA0H         LINE#         884
  C:0BC3H         LINE#         885
BL51 BANKED LINKER/LOCATER V6.22                                                      03/09/2021  10:38:46  PAGE 22


  -------         ENDPROC       _CH395EEPROMREAD
  -------         PROC          _CH395SETTCPMSS
  D:0004H         SYMBOL        tcpmss
  C:11FAH         LINE#         894
  C:11FEH         LINE#         895
  C:11FEH         LINE#         896
  C:1203H         LINE#         897
  C:1208H         LINE#         898
  -------         ENDPROC       _CH395SETTCPMSS
  -------         PROC          _CH395SETSOCKETRECVBUF
  D:0004H         SYMBOL        sockindex
  D:0005H         SYMBOL        startblk
  D:0003H         SYMBOL        blknum
  C:117EH         LINE#         910
  C:1180H         LINE#         911
  C:1180H         LINE#         912
  C:1185H         LINE#         913
  C:118AH         LINE#         914
  C:118FH         LINE#         915
  -------         ENDPROC       _CH395SETSOCKETRECVBUF
  -------         PROC          _CH395SETSOCKETSENDBUF
  D:0004H         SYMBOL        sockindex
  D:0005H         SYMBOL        startblk
  D:0003H         SYMBOL        blknum
  C:1194H         LINE#         927
  C:1196H         LINE#         928
  C:1196H         LINE#         929
  C:119BH         LINE#         930
  C:11A0H         LINE#         931
  C:11A5H         LINE#         932
  -------         ENDPROC       _CH395SETSOCKETSENDBUF
  -------         PROC          _CH395UDPSENDTO
  X:02A0H         SYMBOL        buf
  X:02A3H         SYMBOL        len
  X:02A7H         SYMBOL        ip
  X:02AAH         SYMBOL        port
  X:02ACH         SYMBOL        sockindex
  C:09E6H         LINE#         946
  C:09F5H         LINE#         947
  C:09F5H         LINE#         948
  C:0A08H         LINE#         949
  C:0A18H         LINE#         950
  -------         ENDPROC       _CH395UDPSENDTO
  -------         PROC          _CH395SETSTARTPARA
  X:02C7H         SYMBOL        mdata
  C:0A8DH         LINE#         960
  C:0A93H         LINE#         961
  C:0A93H         LINE#         962
  C:0A98H         LINE#         963
  C:0AA3H         LINE#         964
  C:0AAFH         LINE#         965
  C:0AC5H         LINE#         966
  -------         ENDPROC       _CH395SETSTARTPARA
  -------         PROC          CH395CMDGETGLOBINTSTATUS_ALL
  -------         DO            
  D:0004H         SYMBOL        init_status
  -------         ENDDO         
BL51 BANKED LINKER/LOCATER V6.22                                                      03/09/2021  10:38:46  PAGE 23


  C:1048H         LINE#         976
  C:1048H         LINE#         977
  C:1048H         LINE#         979
  C:104DH         LINE#         980
  C:1052H         LINE#         981
  C:1059H         LINE#         982
  C:1063H         LINE#         983
  C:1065H         LINE#         984
  C:1068H         LINE#         985
  -------         ENDPROC       CH395CMDGETGLOBINTSTATUS_ALL
  -------         PROC          _CH395SETKEEPLIVE
  D:0004H         SYMBOL        sockindex
  D:0005H         SYMBOL        cmd
  C:122FH         LINE#         995
  C:1231H         LINE#         996
  C:1231H         LINE#         997
  C:1236H         LINE#         998
  C:123BH         LINE#         999
  -------         ENDPROC       _CH395SETKEEPLIVE
  -------         PROC          _CH395KEEPLIVECNT
  D:0005H         SYMBOL        cnt
  C:12F6H         LINE#         1009
  C:12F8H         LINE#         1010
  C:12F8H         LINE#         1011
  C:12FDH         LINE#         1012
  -------         ENDPROC       _CH395KEEPLIVECNT
  -------         PROC          _CH395KEEPLIVEIDLE
  X:0253H         SYMBOL        idle
  C:0ADBH         LINE#         1022
  C:0AE1H         LINE#         1023
  C:0AE1H         LINE#         1024
  C:0AE6H         LINE#         1025
  C:0AF1H         LINE#         1026
  C:0AFDH         LINE#         1027
  C:0B13H         LINE#         1028
  -------         ENDPROC       _CH395KEEPLIVEIDLE
  -------         PROC          _CH395KEEPLIVEINTVL
  X:0253H         SYMBOL        intvl
  C:0B29H         LINE#         1038
  C:0B2FH         LINE#         1039
  C:0B2FH         LINE#         1040
  C:0B34H         LINE#         1041
  C:0B3FH         LINE#         1042
  C:0B4BH         LINE#         1043
  C:0B61H         LINE#         1044
  -------         ENDPROC       _CH395KEEPLIVEINTVL
  -------         PROC          _CH395SETTTLNUM
  D:0004H         SYMBOL        sockindex
  D:0005H         SYMBOL        TTLnum
  C:1240H         LINE#         1055
  C:1242H         LINE#         1056
  C:1242H         LINE#         1057
  C:1247H         LINE#         1058
  C:124CH         LINE#         1059
  -------         ENDPROC       _CH395SETTTLNUM
  -------         PROC          _MSTOPIFERROR
  D:0007H         SYMBOL        iError
BL51 BANKED LINKER/LOCATER V6.22                                                      03/09/2021  10:38:46  PAGE 24


  C:1272H         LINE#         77
  C:1272H         LINE#         78
  C:1272H         LINE#         79
  C:1275H         LINE#         83
  C:1275H         LINE#         84
  C:1275H         LINE#         85
  C:127AH         LINE#         86
  C:127FH         LINE#         87
  C:1281H         LINE#         88
  -------         ENDPROC       _MSTOPIFERROR
  -------         PROC          INITCH395INFPARAM
  C:0C10H         LINE#         97
  C:0C10H         LINE#         98
  C:0C10H         LINE#         99
  C:0C1FH         LINE#         100
  C:0C32H         LINE#         101
  C:0C45H         LINE#         102
  -------         ENDPROC       INITCH395INFPARAM
  -------         PROC          INITSOCKETPARAM
  C:0BC4H         LINE#         112
  C:0BC4H         LINE#         113
  C:0BC4H         LINE#         114
  C:0BD3H         LINE#         115
  C:0BE6H         LINE#         116
  C:0BF5H         LINE#         117
  C:0C04H         LINE#         118
  C:0C0AH         LINE#         119
  C:0C0FH         LINE#         120
  -------         ENDPROC       INITSOCKETPARAM
  -------         PROC          CH395SOCKETINITOPEN
  -------         DO            
  D:0007H         SYMBOL        i
  -------         ENDDO         
  C:0D1FH         LINE#         129
  C:0D1FH         LINE#         130
  C:0D1FH         LINE#         134
  C:0D2AH         LINE#         135
  C:0D34H         LINE#         136
  C:0D41H         LINE#         137
  C:0D4CH         LINE#         139
  C:0D51H         LINE#         140
  C:0D54H         LINE#         142
  C:0D59H         LINE#         143
  -------         ENDPROC       CH395SOCKETINITOPEN
  -------         PROC          KEEPLIVE_SET
  C:1104H         LINE#         155
  C:1104H         LINE#         156
  C:1104H         LINE#         157
  C:1109H         LINE#         158
  C:1114H         LINE#         159
  -------         ENDPROC       KEEPLIVE_SET
  -------         PROC          _CH395SOCKETINTERRUPT
  X:025FH         SYMBOL        sockindex
  -------         DO            
  X:0260H         SYMBOL        sock_int_socket
  X:0261H         SYMBOL        i
  X:0262H         SYMBOL        len
BL51 BANKED LINKER/LOCATER V6.22                                                      03/09/2021  10:38:46  PAGE 25


  D:0006H         SYMBOL        tmp
  -------         ENDDO         
  C:072CH         LINE#         169
  C:0731H         LINE#         170
  C:0731H         LINE#         176
  C:0737H         LINE#         177
  C:0737H         LINE#         178
  C:0737H         LINE#         179
  C:0737H         LINE#         180
  C:0737H         LINE#         181
  C:0737H         LINE#         182
  C:0737H         LINE#         183
  C:0741H         LINE#         184
  C:0741H         LINE#         185
  C:0751H         LINE#         189
  C:0757H         LINE#         190
  C:076CH         LINE#         191
  C:0782H         LINE#         192
  C:0792H         LINE#         193
  C:0792H         LINE#         194
  C:07ABH         LINE#         195
  C:07B2H         LINE#         196
  C:07CFH         LINE#         198
  C:07CFH         LINE#         199
  C:07D6H         LINE#         200
  C:07D6H         LINE#         201
  C:07E0H         LINE#         202
  C:07E7H         LINE#         203
  C:07E7H         LINE#         209
  C:07E7H         LINE#         210
  C:07E7H         LINE#         213
  C:07E7H         LINE#         214
  C:07EEH         LINE#         215
  C:07EEH         LINE#         216
  C:07F7H         LINE#         220
  C:07F7H         LINE#         221
  -------         ENDPROC       _CH395SOCKETINTERRUPT
  -------         PROC          CH395GLOBALINTERRUPT
  -------         DO            
  X:0253H         SYMBOL        init_status
  X:0255H         SYMBOL        buf
  -------         ENDDO         
  C:0917H         LINE#         230
  C:0917H         LINE#         231
  C:0917H         LINE#         235
  C:0922H         LINE#         236
  C:0925H         LINE#         237
  C:0925H         LINE#         238
  C:092EH         LINE#         239
  C:092EH         LINE#         240
  C:092EH         LINE#         241
  C:092EH         LINE#         242
  C:092EH         LINE#         243
  C:092EH         LINE#         244
  C:092EH         LINE#         248
  C:092EH         LINE#         249
  C:0935H         LINE#         250
BL51 BANKED LINKER/LOCATER V6.22                                                      03/09/2021  10:38:46  PAGE 26


  C:0935H         LINE#         251
  C:093AH         LINE#         252
  C:093AH         LINE#         253
  C:0941H         LINE#         254
  C:0941H         LINE#         255
  C:0946H         LINE#         256
  C:0946H         LINE#         257
  C:094DH         LINE#         258
  C:094DH         LINE#         259
  C:0952H         LINE#         260
  C:0952H         LINE#         261
  C:0959H         LINE#         262
  C:0959H         LINE#         263
  C:095EH         LINE#         264
  C:095EH         LINE#         265
  C:0965H         LINE#         266
  C:0965H         LINE#         267
  C:096AH         LINE#         268
  C:096AH         LINE#         269
  C:0971H         LINE#         270
  C:0971H         LINE#         271
  C:0976H         LINE#         272
  C:0976H         LINE#         273
  C:097DH         LINE#         274
  C:097DH         LINE#         275
  C:0982H         LINE#         276
  C:0982H         LINE#         277
  C:0989H         LINE#         278
  C:0989H         LINE#         279
  C:098EH         LINE#         280
  C:098EH         LINE#         281
  -------         ENDPROC       CH395GLOBALINTERRUPT
  -------         PROC          CH395INIT
  -------         DO            
  D:0007H         SYMBOL        i
  -------         ENDDO         
  C:0E59H         LINE#         290
  C:0E59H         LINE#         291
  C:0E59H         LINE#         294
  C:0E5EH         LINE#         295
  C:0E66H         LINE#         304
  C:0E6FH         LINE#         305
  C:0E78H         LINE#         306
  C:0E81H         LINE#         307
  C:0E86H         LINE#         308
  C:0E89H         LINE#         309
  C:0E89H         LINE#         310
  -------         ENDPROC       CH395INIT
  -------         PROC          MINITSTDIO
  C:1251H         LINE#         319
  C:1251H         LINE#         320
  C:1251H         LINE#         321
  C:1254H         LINE#         322
  C:1257H         LINE#         323
  C:125AH         LINE#         324
  C:125DH         LINE#         325
  C:125FH         LINE#         326
BL51 BANKED LINKER/LOCATER V6.22                                                      03/09/2021  10:38:46  PAGE 27


  C:1261H         LINE#         327
  -------         ENDPROC       MINITSTDIO
  -------         PROC          MAIN
  -------         DO            
  D:0007H         SYMBOL        i
  -------         ENDDO         
  C:0D94H         LINE#         336
  C:0D94H         LINE#         337
  C:0D94H         LINE#         340
  C:0D99H         LINE#         341
  C:0D9CH         LINE#         345
  C:0D9FH         LINE#         347
  C:0DA2H         LINE#         348
  C:0DA5H         LINE#         349
  C:0DA8H         LINE#         351
  C:0DABH         LINE#         352
  C:0DABH         LINE#         353
  C:0DABH         LINE#         354
  C:0DB1H         LINE#         355
  C:0DB1H         LINE#         356
  C:0DB6H         LINE#         357
  C:0DB8H         LINE#         359
  C:0DB8H         LINE#         363
  C:0DB8H         LINE#         364
  C:0DB8H         LINE#         365
  C:0DB8H         LINE#         366
  C:0DBBH         LINE#         367
  C:0DBEH         LINE#         369
  C:0DBEH         LINE#         370
  C:0DBEH         LINE#         371
  C:0DC4H         LINE#         372
  -------         ENDPROC       MAIN
  -------         ENDMOD        CH395

  -------         MODULE        ?C?COPY
  C:0438H         PUBLIC        ?C?COPY
  -------         ENDMOD        ?C?COPY

  -------         MODULE        ?C?CLDPTR
  C:045EH         PUBLIC        ?C?CLDPTR
  -------         ENDMOD        ?C?CLDPTR

  -------         MODULE        ?C?CSTPTR
  C:0477H         PUBLIC        ?C?CSTPTR
  -------         ENDMOD        ?C?CSTPTR

  -------         MODULE        ?C?ILDIX
  C:0489H         PUBLIC        ?C?ILDIX
  -------         ENDMOD        ?C?ILDIX

  -------         MODULE        ?C?SLCMP
  C:049FH         PUBLIC        ?C?SLCMP
  -------         ENDMOD        ?C?SLCMP

  -------         MODULE        ?C?ULSHR
  C:04B5H         PUBLIC        ?C?ULSHR
  -------         ENDMOD        ?C?ULSHR
BL51 BANKED LINKER/LOCATER V6.22                                                      03/09/2021  10:38:46  PAGE 28



  -------         MODULE        ?C?LSHL
  C:04C8H         PUBLIC        ?C?LSHL
  -------         ENDMOD        ?C?LSHL

  -------         MODULE        ?C?LSTXDATA
  C:04DBH         PUBLIC        ?C?LSTXDATA
  -------         ENDMOD        ?C?LSTXDATA

  -------         MODULE        ?C?LSTKXDATA
  C:04E7H         PUBLIC        ?C?LSTKXDATA
  -------         ENDMOD        ?C?LSTKXDATA

  -------         MODULE        PRINTF
  X:0264H         PUBLIC        ?_PRINTF517?BYTE
  X:0264H         PUBLIC        ?_PRINTF?BYTE
  X:0264H         PUBLIC        ?_SPRINTF517?BYTE
  X:0264H         PUBLIC        ?_SPRINTF?BYTE
  C:006EH         PUBLIC        _PRINTF
  C:006EH         PUBLIC        _PRINTF517
  C:0068H         PUBLIC        _SPRINTF
  C:0068H         PUBLIC        _SPRINTF517
  -------         ENDMOD        PRINTF

  -------         MODULE        ?C?MEMSET
  C:0518H         PUBLIC        ?C?MEMSET
  -------         ENDMOD        ?C?MEMSET

  -------         MODULE        ?C?CLDOPTR
  C:0544H         PUBLIC        ?C?CLDOPTR
  -------         ENDMOD        ?C?CLDOPTR

  -------         MODULE        ?C?PLDIXDATA
  C:0571H         PUBLIC        ?C?PLDIXDATA
  -------         ENDMOD        ?C?PLDIXDATA

  -------         MODULE        ?C?PSTXDATA
  C:0588H         PUBLIC        ?C?PSTXDATA
  -------         ENDMOD        ?C?PSTXDATA

  -------         MODULE        ?C?CCASE
  C:0591H         PUBLIC        ?C?CCASE
  -------         ENDMOD        ?C?CCASE

  -------         MODULE        PUTCHAR
  C:0FB1H         PUBLIC        _PUTCHAR
  -------         ENDMOD        PUTCHAR

*** WARNING L16: UNCALLED SEGMENT, IGNORED FOR OVERLAY PROCESS
    SEGMENT: ?PR?CH395CMDRESET?CH395

*** WARNING L16: UNCALLED SEGMENT, IGNORED FOR OVERLAY PROCESS
    SEGMENT: ?PR?CH395CMDSLEEP?CH395

*** WARNING L16: UNCALLED SEGMENT, IGNORED FOR OVERLAY PROCESS
    SEGMENT: ?PR?CH395CMDGETVER?CH395

BL51 BANKED LINKER/LOCATER V6.22                                                      03/09/2021  10:38:46  PAGE 29


*** WARNING L16: UNCALLED SEGMENT, IGNORED FOR OVERLAY PROCESS
    SEGMENT: ?PR?_CH395CMDSETPHY?CH395

*** WARNING L16: UNCALLED SEGMENT, IGNORED FOR OVERLAY PROCESS
    SEGMENT: ?PR?CH395CMDGETGLOBINTSTATUS?CH395

*** WARNING L16: UNCALLED SEGMENT, IGNORED FOR OVERLAY PROCESS
    SEGMENT: ?PR?_CH395CMDSETUARTBAUDRATE?CH395

*** WARNING L16: UNCALLED SEGMENT, IGNORED FOR OVERLAY PROCESS
    SEGMENT: ?PR?_CH395CMDSETMACADDR?CH395

*** WARNING L16: UNCALLED SEGMENT, IGNORED FOR OVERLAY PROCESS
    SEGMENT: ?PR?_CH395CMDGETMACADDR?CH395

*** WARNING L16: UNCALLED SEGMENT, IGNORED FOR OVERLAY PROCESS
    SEGMENT: ?PR?_CH395CMDSETMACFILT?CH395

*** WARNING L16: UNCALLED SEGMENT, IGNORED FOR OVERLAY PROCESS
    SEGMENT: ?PR?_CH395CMDGETREMOTEIPP?CH395

*** WARNING L16: UNCALLED SEGMENT, IGNORED FOR OVERLAY PROCESS
    SEGMENT: ?PR?_CH395SETSOCKETIPRAWPROTO?CH395

*** WARNING L16: UNCALLED SEGMENT, IGNORED FOR OVERLAY PROCESS
    SEGMENT: ?PR?_CH395ENABLEPING?CH395

*** WARNING L16: UNCALLED SEGMENT, IGNORED FOR OVERLAY PROCESS
    SEGMENT: ?PR?_CH395CLEARRECVBUF?CH395

*** WARNING L16: UNCALLED SEGMENT, IGNORED FOR OVERLAY PROCESS
    SEGMENT: ?PR?_CH395CMDSETRETRYCOUNT?CH395

*** WARNING L16: UNCALLED SEGMENT, IGNORED FOR OVERLAY PROCESS
    SEGMENT: ?PR?_CH395CMDSETRETRYPERIOD?CH395

*** WARNING L16: UNCALLED SEGMENT, IGNORED FOR OVERLAY PROCESS
    SEGMENT: ?PR?_CH395CMDGETSOCKETSTATUS?CH395

*** WARNING L16: UNCALLED SEGMENT, IGNORED FOR OVERLAY PROCESS
    SEGMENT: ?PR?_CH395CLOSESOCKET?CH395

*** WARNING L16: UNCALLED SEGMENT, IGNORED FOR OVERLAY PROCESS
    SEGMENT: ?PR?_CH395TCPLISTEN?CH395

*** WARNING L16: UNCALLED SEGMENT, IGNORED FOR OVERLAY PROCESS
    SEGMENT: ?PR?_CH395TCPDISCONNECT?CH395

*** WARNING L16: UNCALLED SEGMENT, IGNORED FOR OVERLAY PROCESS
    SEGMENT: ?PR?_CH395CRCRET6BIT?CH395

*** WARNING L16: UNCALLED SEGMENT, IGNORED FOR OVERLAY PROCESS
    SEGMENT: ?PR?_CH395DHCPENABLE?CH395

*** WARNING L16: UNCALLED SEGMENT, IGNORED FOR OVERLAY PROCESS
    SEGMENT: ?PR?CH395GETDHCPSTATUS?CH395

BL51 BANKED LINKER/LOCATER V6.22                                                      03/09/2021  10:38:46  PAGE 30


*** WARNING L16: UNCALLED SEGMENT, IGNORED FOR OVERLAY PROCESS
    SEGMENT: ?PR?_CH395GETIPINF?CH395

*** WARNING L16: UNCALLED SEGMENT, IGNORED FOR OVERLAY PROCESS
    SEGMENT: ?PR?_CH395WRITEGPIOADDR?CH395

*** WARNING L16: UNCALLED SEGMENT, IGNORED FOR OVERLAY PROCESS
    SEGMENT: ?PR?_CH395READGPIOADDR?CH395

*** WARNING L16: UNCALLED SEGMENT, IGNORED FOR OVERLAY PROCESS
    SEGMENT: ?PR?CH395EEPROMERASE?CH395

*** WARNING L16: UNCALLED SEGMENT, IGNORED FOR OVERLAY PROCESS
    SEGMENT: ?PR?_CH395EEPROMWRITE?CH395

*** WARNING L16: UNCALLED SEGMENT, IGNORED FOR OVERLAY PROCESS
    SEGMENT: ?PR?_CH395EEPROMREAD?CH395

*** WARNING L16: UNCALLED SEGMENT, IGNORED FOR OVERLAY PROCESS
    SEGMENT: ?PR?_CH395SETTCPMSS?CH395

*** WARNING L16: UNCALLED SEGMENT, IGNORED FOR OVERLAY PROCESS
    SEGMENT: ?PR?_CH395SETSOCKETRECVBUF?CH395

*** WARNING L16: UNCALLED SEGMENT, IGNORED FOR OVERLAY PROCESS
    SEGMENT: ?PR?_CH395SETSOCKETSENDBUF?CH395

*** WARNING L16: UNCALLED SEGMENT, IGNORED FOR OVERLAY PROCESS
    SEGMENT: ?PR?_CH395UDPSENDTO?CH395

*** WARNING L16: UNCALLED SEGMENT, IGNORED FOR OVERLAY PROCESS
    SEGMENT: ?PR?_CH395SETSTARTPARA?CH395

Program Size: data=15.1 xdata=730 code=4956
LINK/LOCATE RUN COMPLETE.  33 WARNING(S),  0 ERROR(S)
