BL51 BANKED LINKER/LOCATER V6.22                                                        04/02/2021  11:52:15  PAGE 1


BL51 BANKED LINKER/LOCATER V6.22, INVOKED BY:
D:\KEIL_V4\C51\BIN\BL51.EXE CH395.obj TO CH395EVT RAMSIZE (256)


MEMORY MODEL: LARGE


INPUT MODULES INCLUDED:
  CH395.obj (CH395)
  D:\KEIL_V4\C51\LIB\C51L.LIB (?C_STARTUP)
  D:\KEIL_V4\C51\LIB\C51L.LIB (?C?COPY)
  D:\KEIL_V4\C51\LIB\C51L.LIB (?C?CLDPTR)
  D:\KEIL_V4\C51\LIB\C51L.LIB (?C?CSTPTR)
  D:\KEIL_V4\C51\LIB\C51L.LIB (?C?ILDIX)
  D:\KEIL_V4\C51\LIB\C51L.LIB (?C?SLCMP)
  D:\KEIL_V4\C51\LIB\C51L.LIB (?C?ULSHR)
  D:\KEIL_V4\C51\LIB\C51L.LIB (?C?LSHL)
  D:\KEIL_V4\C51\LIB\C51L.LIB (?C?LSTXDATA)
  D:\KEIL_V4\C51\LIB\C51L.LIB (?C?LSTKXDATA)
  D:\KEIL_V4\C51\LIB\C51L.LIB (?C?MEMSET)
  D:\KEIL_V4\C51\LIB\C51L.LIB (?C_INIT)


LINK MAP OF MODULE:  CH395EVT (CH395)


            TYPE    BASE      LENGTH    RELOCATION   SEGMENT NAME
            -----------------------------------------------------

            * * * * * * *   D A T A   M E M O R Y   * * * * * * *
            REG     0000H     0008H     ABSOLUTE     "REG BANK 0"
            IDATA   0008H     000AH     UNIT         _IDATA_GROUP_
            IDATA   0012H     0001H     UNIT         ?STACK

            * * * * * * *  X D A T A   M E M O R Y  * * * * * * *
            XDATA   0000H     024AH     UNIT         ?XD?CH395
            XDATA   024AH     0018H     UNIT         _XDATA_GROUP_
            XDATA   0262H     0014H     UNIT         ?XD?_CH395CRCRET6BIT?CH395
            XDATA   0276H     000DH     UNIT         ?XD?_CH395UDPSENDTO?CH395
            XDATA   0283H     0009H     UNIT         ?XD?_CH395CMDSETMACFILT?CH395
            XDATA   028CH     0006H     UNIT         ?XD?_CH395EEPROMWRITE?CH395
            XDATA   0292H     0006H     UNIT         ?XD?_CH395EEPROMREAD?CH395
            XDATA   0298H     0005H     UNIT         ?XD?_CH395CMDSETUARTBAUDRATE?CH395
            XDATA   029DH     0004H     UNIT         ?XD?_CH395SETSTARTPARA?CH395
            XDATA   02A1H     0004H     UNIT         ?XD?_CH395KEEPLIVEIDLE?CH395
            XDATA   02A5H     0004H     UNIT         ?XD?_CH395KEEPLIVEINTVL?CH395
            XDATA   02A9H     0003H     UNIT         ?XD?_CH395CMDSETMACADDR?CH395
            XDATA   02ACH     0003H     UNIT         ?XD?_CH395CMDGETMACADDR?CH395
            XDATA   02AFH     0003H     UNIT         ?XD?_CH395CMDGETSOCKETSTATUS?CH395
            XDATA   02B2H     0003H     UNIT         ?XD?_CH395GETIPINF?CH395

            * * * * * * *   C O D E   M E M O R Y   * * * * * * *
            CODE    0000H     0003H     ABSOLUTE     
            CODE    0003H     01DCH     UNIT         ?C?LIB_CODE
            CODE    01DFH     0175H     UNIT         ?PR?_CH395CRCRET6BIT?CH395
            CODE    0354H     0163H     UNIT         ?PR?_CH395SOCKETINTERRUPT?CH395
            CODE    04B7H     00E0H     UNIT         ?PR?INITSOCKETPARAM?CH395
            CODE    0597H     00AEH     UNIT         ?PR?CH395SOCKETINITOPEN?CH395
BL51 BANKED LINKER/LOCATER V6.22                                                      04/02/2021  11:52:15  PAGE 2


            CODE    0645H     0093H     UNIT         ?PR?_CH395CMDSETMACFILT?CH395
            CODE    06D8H     008CH     UNIT         ?C_C51STARTUP
            CODE    0764H     0078H     UNIT         ?PR?CH395GLOBALINTERRUPT?CH395
            CODE    07DCH     0057H     UNIT         ?PR?_CH395GETRECVDATA?CH395
            CODE    0833H     0054H     UNIT         ?PR?_CH395UDPSENDTO?CH395
            CODE    0887H     0053H     UNIT         ?PR?_CH395EEPROMWRITE?CH395
            CODE    08DAH     004FH     UNIT         ?C_INITSEG
            CODE    0929H     004EH     UNIT         ?PR?_CH395SETSTARTPARA?CH395
            CODE    0977H     004EH     UNIT         ?PR?_CH395KEEPLIVEIDLE?CH395
            CODE    09C5H     004EH     UNIT         ?PR?_CH395KEEPLIVEINTVL?CH395
            CODE    0A13H     004DH     UNIT         ?PR?_CH395EEPROMREAD?CH395
            CODE    0A60H     0048H     UNIT         ?PR?INITCH395INFPARAM?CH395
            CODE    0AA8H     0046H     UNIT         ?PR?_CH395SENDDATA?CH395
            CODE    0AEEH     0041H     UNIT         ?PR?_CH395CMDSETUARTBAUDRATE?CH395
            CODE    0B2FH     0040H     UNIT         ?PR?_CH395CMDGETSOCKETSTATUS?CH395
            CODE    0B6FH     0038H     UNIT         ?PR?_CH395CMDGETREMOTEIPP?CH395
            CODE    0BA7H     0031H     UNIT         ?PR?_CH395CMDGETMACADDR?CH395
            CODE    0BD8H     0031H     UNIT         ?PR?_CH395CMDGETUNREACHIPPT?CH395
            CODE    0C09H     0031H     UNIT         ?PR?_CH395GETIPINF?CH395
            CODE    0C3AH     0031H     UNIT         ?PR?CH395INIT?CH395
            CODE    0C6BH     002FH     UNIT         ?PR?MAIN?CH395
            CODE    0C9AH     002EH     UNIT         ?PR?_XWRITECH395DATA?CH395
            CODE    0CC8H     002EH     UNIT         ?PR?CH395CMDINITCH395?CH395
            CODE    0CF6H     0029H     UNIT         ?PR?_CH395TCPCONNECT?CH395
            CODE    0D1FH     0029H     UNIT         ?PR?_CH395TCPLISTEN?CH395
            CODE    0D48H     0029H     UNIT         ?PR?_CH395TCPDISCONNECT?CH395
            CODE    0D71H     0029H     UNIT         ?PR?_CH395DHCPENABLE?CH395
            CODE    0D9AH     0026H     UNIT         ?PR?_CH395OPENSOCKET?CH395
            CODE    0DC0H     0026H     UNIT         ?PR?_CH395CLOSESOCKET?CH395
            CODE    0DE6H     0024H     UNIT         ?PR?_CH395CMDSETMACADDR?CH395
            CODE    0E0AH     0021H     UNIT         ?PR?CH395CMDGETGLOBINTSTATUS_ALL?CH395
            CODE    0E2BH     0020H     UNIT         ?PR?_CH395CMDSETIPADDR?CH395
            CODE    0E4BH     0020H     UNIT         ?PR?_CH395CMDSETGWIPADDR?CH395
            CODE    0E6BH     0020H     UNIT         ?PR?_CH395CMDSETMASKADDR?CH395
            CODE    0E8BH     0020H     UNIT         ?PR?_CH395SETSOCKETDESIP?CH395
            CODE    0EABH     001BH     UNIT         ?PR?_CH395GETRECVLENGTH?CH395
            CODE    0EC6H     0019H     UNIT         ?PR?_CH395SETSOCKETDESPORT?CH395
            CODE    0EDFH     0019H     UNIT         ?PR?_CH395SETSOCKETSOURPORT?CH395
            CODE    0EF8H     0017H     UNIT         ?PR?_CH395GETSOCKETINT?CH395
            CODE    0F0FH     0016H     UNIT         ?PR?_CH395CMDSETRETRYPERIOD?CH395
            CODE    0F25H     0016H     UNIT         ?PR?_CH395SETSOCKETRECVBUF?CH395
            CODE    0F3BH     0016H     UNIT         ?PR?_CH395SETSOCKETSENDBUF?CH395
            CODE    0F51H     0015H     UNIT         ?PR?_CH395READGPIOADDR?CH395
            CODE    0F66H     0014H     UNIT         ?PR?_CH395SETSOCKETPROTTYPE?CH395
            CODE    0F7AH     0014H     UNIT         ?PR?_CH395SETSOCKETIPRAWPROTO?CH395
            CODE    0F8EH     0013H     UNIT         ?PR?CH395EEPROMERASE?CH395
            CODE    0FA1H     0013H     UNIT         ?PR?_CH395SETTCPMSS?CH395
            CODE    0FB4H     0013H     UNIT         ?PR?_MSTOPIFERROR?CH395
            CODE    0FC7H     0011H     UNIT         ?PR?_MDELAYMS?CH395
            CODE    0FD8H     0011H     UNIT         ?PR?_CH395WRITEGPIOADDR?CH395
            CODE    0FE9H     0011H     UNIT         ?PR?_CH395SETKEEPLIVE?CH395
            CODE    0FFAH     0011H     UNIT         ?PR?_CH395SETTTLNUM?CH395
            CODE    100BH     0011H     UNIT         ?PR?MINITSTDIO?CH395
            CODE    101CH     0010H     UNIT         ?PR?CH395GETCMDSTATUS?CH395
            CODE    102CH     000FH     UNIT         ?PR?_XWRITECH395CMD?CH395
            CODE    103BH     000FH     UNIT         ?PR?_CH395CMDSETPHY?CH395
            CODE    104AH     000FH     UNIT         ?PR?_CH395ENABLEPING?CH395
BL51 BANKED LINKER/LOCATER V6.22                                                      04/02/2021  11:52:15  PAGE 3


            CODE    1059H     000FH     UNIT         ?PR?_CH395CLEARRECVBUF?CH395
            CODE    1068H     000FH     UNIT         ?PR?_CH395CMDSETRETRYCOUNT?CH395
            CODE    1077H     000EH     UNIT         ?PR?_MDELAYUS?CH395
            CODE    1085H     000EH     UNIT         ?PR?XREADCH395DATA?CH395
            CODE    1093H     000DH     UNIT         ?PR?_SPI395EXCHANGE?CH395
            CODE    10A0H     000CH     UNIT         ?PR?_CH395KEEPLIVECNT?CH395
            CODE    10ACH     000BH     UNIT         ?PR?CH395CMDGETVER?CH395
            CODE    10B7H     000BH     UNIT         ?PR?CH395CMDGETPHYSTATUS?CH395
            CODE    10C2H     000BH     UNIT         ?PR?CH395CMDGETGLOBINTSTATUS?CH395
            CODE    10CDH     000BH     UNIT         ?PR?CH395GETDHCPSTATUS?CH395
            CODE    10D8H     000AH     UNIT         ?PR?_CH395CMDCHECKEXIST?CH395
            CODE    10E2H     0009H     UNIT         ?PR?CH395_PORT_INIT?CH395
            CODE    10EBH     0008H     UNIT         ?PR?CH395CMDRESET?CH395
            CODE    10F3H     0008H     UNIT         ?PR?CH395CMDSLEEP?CH395



OVERLAY MAP OF MODULE:   CH395EVT (CH395)


SEGMENT                                          IDATA_GROUP         XDATA_GROUP
  +--> CALLED SEGMENT                          START    LENGTH     START    LENGTH
----------------------------------------------------------------------------------
?C_C51STARTUP                                  -----    -----      -----    -----
  +--> ?PR?MAIN?CH395
  +--> ?C_INITSEG

?PR?MAIN?CH395                                 -----    -----      -----    -----
  +--> ?PR?_MDELAYMS?CH395
  +--> ?PR?MINITSTDIO?CH395
  +--> ?PR?CH395_PORT_INIT?CH395
  +--> ?PR?INITCH395INFPARAM?CH395
  +--> ?PR?CH395INIT?CH395
  +--> ?PR?_MSTOPIFERROR?CH395
  +--> ?PR?CH395CMDGETPHYSTATUS?CH395
  +--> ?PR?INITSOCKETPARAM?CH395
  +--> ?PR?CH395SOCKETINITOPEN?CH395
  +--> ?PR?CH395GLOBALINTERRUPT?CH395

?PR?_MDELAYMS?CH395                            -----    -----      -----    -----
  +--> ?PR?_MDELAYUS?CH395

?PR?CH395INIT?CH395                            -----    -----      -----    -----
  +--> ?PR?_CH395CMDCHECKEXIST?CH395
  +--> ?PR?_CH395CMDSETIPADDR?CH395
  +--> ?PR?_CH395CMDSETGWIPADDR?CH395
  +--> ?PR?_CH395CMDSETMASKADDR?CH395
  +--> ?PR?_MDELAYMS?CH395
  +--> ?PR?CH395CMDINITCH395?CH395

?PR?_CH395CMDCHECKEXIST?CH395                  -----    -----      -----    -----
  +--> ?PR?XREADCH395DATA?CH395

?PR?XREADCH395DATA?CH395                       -----    -----      -----    -----
  +--> ?PR?_XWRITECH395CMD?CH395
  +--> ?PR?_XWRITECH395DATA?CH395
  +--> ?PR?_SPI395EXCHANGE?CH395
BL51 BANKED LINKER/LOCATER V6.22                                                      04/02/2021  11:52:15  PAGE 4



?PR?_XWRITECH395CMD?CH395                      -----    -----      -----    -----
  +--> ?PR?_SPI395EXCHANGE?CH395
  +--> ?PR?_MDELAYUS?CH395

?PR?_XWRITECH395DATA?CH395                     -----    -----      -----    -----
  +--> ?PR?_SPI395EXCHANGE?CH395

?PR?_CH395CMDSETIPADDR?CH395                   -----    -----      024AH    0003H
  +--> ?PR?_XWRITECH395CMD?CH395
  +--> ?PR?_XWRITECH395DATA?CH395

?PR?_CH395CMDSETGWIPADDR?CH395                 -----    -----      024AH    0003H
  +--> ?PR?_XWRITECH395CMD?CH395
  +--> ?PR?_XWRITECH395DATA?CH395

?PR?_CH395CMDSETMASKADDR?CH395                 -----    -----      024AH    0003H
  +--> ?PR?_XWRITECH395CMD?CH395
  +--> ?PR?_XWRITECH395DATA?CH395

?PR?CH395CMDINITCH395?CH395                    -----    -----      024AH    0001H
  +--> ?PR?_XWRITECH395CMD?CH395
  +--> ?PR?_MDELAYMS?CH395
  +--> ?PR?CH395GETCMDSTATUS?CH395

?PR?CH395GETCMDSTATUS?CH395                    -----    -----      -----    -----
  +--> ?PR?_MDELAYMS?CH395
  +--> ?PR?_XWRITECH395CMD?CH395
  +--> ?PR?XREADCH395DATA?CH395

?PR?_MSTOPIFERROR?CH395                        -----    -----      -----    -----
  +--> ?PR?_CH395OPENSOCKET?CH395
  +--> ?PR?_MDELAYMS?CH395

?PR?_CH395OPENSOCKET?CH395                     -----    -----      -----    -----
  +--> ?PR?_XWRITECH395CMD?CH395
  +--> ?PR?_XWRITECH395DATA?CH395
  +--> ?PR?CH395GETCMDSTATUS?CH395

?PR?CH395CMDGETPHYSTATUS?CH395                 -----    -----      -----    -----
  +--> ?PR?_XWRITECH395CMD?CH395
  +--> ?PR?XREADCH395DATA?CH395

?PR?CH395SOCKETINITOPEN?CH395                  -----    -----      -----    -----
  +--> ?PR?_CH395SETSOCKETDESIP?CH395
  +--> ?PR?_CH395SETSOCKETPROTTYPE?CH395
  +--> ?PR?_CH395SETSOCKETDESPORT?CH395
  +--> ?PR?_CH395SETSOCKETSOURPORT?CH395
  +--> ?PR?_MSTOPIFERROR?CH395
  +--> ?PR?_CH395TCPLISTEN?CH395
  +--> ?PR?_CH395OPENSOCKET?CH395
  +--> ?PR?_CH395TCPCONNECT?CH395
  +--> ?PR?_CH395SETSOCKETIPRAWPROTO?CH395

?PR?_CH395SETSOCKETDESIP?CH395                 -----    -----      024AH    0003H
  +--> ?PR?_XWRITECH395CMD?CH395
  +--> ?PR?_XWRITECH395DATA?CH395
BL51 BANKED LINKER/LOCATER V6.22                                                      04/02/2021  11:52:15  PAGE 5



?PR?_CH395SETSOCKETPROTTYPE?CH395              -----    -----      -----    -----
  +--> ?PR?_XWRITECH395CMD?CH395
  +--> ?PR?_XWRITECH395DATA?CH395

?PR?_CH395SETSOCKETDESPORT?CH395               -----    -----      -----    -----
  +--> ?PR?_XWRITECH395CMD?CH395
  +--> ?PR?_XWRITECH395DATA?CH395

?PR?_CH395SETSOCKETSOURPORT?CH395              -----    -----      -----    -----
  +--> ?PR?_XWRITECH395CMD?CH395
  +--> ?PR?_XWRITECH395DATA?CH395

?PR?_CH395TCPLISTEN?CH395                      -----    -----      -----    -----
  +--> ?PR?_XWRITECH395CMD?CH395
  +--> ?PR?_XWRITECH395DATA?CH395
  +--> ?PR?CH395GETCMDSTATUS?CH395

?PR?_CH395TCPCONNECT?CH395                     -----    -----      -----    -----
  +--> ?PR?_XWRITECH395CMD?CH395
  +--> ?PR?_XWRITECH395DATA?CH395
  +--> ?PR?CH395GETCMDSTATUS?CH395

?PR?_CH395SETSOCKETIPRAWPROTO?CH395            -----    -----      -----    -----
  +--> ?PR?_XWRITECH395CMD?CH395
  +--> ?PR?_XWRITECH395DATA?CH395

?PR?CH395GLOBALINTERRUPT?CH395                 -----    -----      024AH    000CH
  +--> ?PR?CH395CMDGETGLOBINTSTATUS_ALL?CH395
  +--> ?PR?_CH395CMDGETUNREACHIPPT?CH395
  +--> ?PR?_CH395SOCKETINTERRUPT?CH395

?PR?CH395CMDGETGLOBINTSTATUS_ALL?CH395         -----    -----      -----    -----
  +--> ?PR?_XWRITECH395CMD?CH395
  +--> ?PR?_MDELAYUS?CH395
  +--> ?PR?XREADCH395DATA?CH395

?PR?_CH395CMDGETUNREACHIPPT?CH395              -----    -----      0256H    0003H
  +--> ?PR?_XWRITECH395CMD?CH395
  +--> ?PR?XREADCH395DATA?CH395

?PR?_CH395SOCKETINTERRUPT?CH395                0008H    000AH      0256H    0006H
  +--> ?PR?_CH395GETSOCKETINT?CH395
  +--> ?PR?_CH395GETRECVLENGTH?CH395
  +--> ?PR?_CH395GETRECVDATA?CH395
  +--> ?PR?_CH395SENDDATA?CH395
  +--> ?PR?_CH395CMDGETREMOTEIPP?CH395
  +--> ?PR?_MDELAYMS?CH395
  +--> ?PR?_CH395OPENSOCKET?CH395
  +--> ?PR?_MSTOPIFERROR?CH395
  +--> ?PR?_CH395TCPCONNECT?CH395

?PR?_CH395GETSOCKETINT?CH395                   -----    -----      -----    -----
  +--> ?PR?_XWRITECH395CMD?CH395
  +--> ?PR?_XWRITECH395DATA?CH395
  +--> ?PR?_MDELAYUS?CH395
  +--> ?PR?XREADCH395DATA?CH395
BL51 BANKED LINKER/LOCATER V6.22                                                      04/02/2021  11:52:15  PAGE 6



?PR?_CH395GETRECVLENGTH?CH395                  -----    -----      -----    -----
  +--> ?PR?XREADCH395DATA?CH395

?PR?_CH395GETRECVDATA?CH395                    -----    -----      025CH    0003H
  +--> ?PR?_XWRITECH395CMD?CH395
  +--> ?PR?_XWRITECH395DATA?CH395
  +--> ?PR?_MDELAYUS?CH395
  +--> ?PR?XREADCH395DATA?CH395

?PR?_CH395SENDDATA?CH395                       -----    -----      025CH    0006H
  +--> ?PR?_XWRITECH395CMD?CH395
  +--> ?PR?_XWRITECH395DATA?CH395

?PR?_CH395CMDGETREMOTEIPP?CH395                -----    -----      025CH    0003H
  +--> ?PR?_XWRITECH395CMD?CH395
  +--> ?PR?_XWRITECH395DATA?CH395
  +--> ?PR?XREADCH395DATA?CH395



SYMBOL TABLE OF MODULE:  CH395EVT (CH395)

  VALUE           TYPE          NAME
  ----------------------------------

  -------         MODULE        CH395
  C:0000H         SYMBOL        _ICE_DUMMY_
  C:10F3H         PUBLIC        CH395CMDSleep
  C:0B6FH         PUBLIC        _CH395CMDGetRemoteIPP
  D:0090H         PUBLIC        P1
  C:0E8BH         PUBLIC        _CH395SetSocketDesIP
  C:0DE6H         PUBLIC        _CH395CMDSetMACAddr
  D:00B0H         PUBLIC        P3
  C:0FFAH         PUBLIC        _CH395SetTTLNum
  C:0887H         PUBLIC        _CH395EEPROMWrite
  C:0C09H         PUBLIC        _CH395GetIPInf
  C:100BH         PUBLIC        mInitSTDIO
  C:104AH         PUBLIC        _CH395EnablePing
  C:0D1FH         PUBLIC        _CH395TCPListen
  C:10EBH         PUBLIC        CH395CMDReset
  C:01DFH         PUBLIC        _CH395CRCRet6Bit
  D:00A8H         PUBLIC        IE
  C:0EC6H         PUBLIC        _CH395SetSocketDesPort
  C:0DC0H         PUBLIC        _CH395CloseSocket
  C:0645H         PUBLIC        _CH395CMDSetMACFilt
  C:0F66H         PUBLIC        _CH395SetSocketProtType
  D:00B8H         PUBLIC        IP
  C:0D71H         PUBLIC        _CH395DHCPEnable
  C:0B2FH         PUBLIC        _CH395CMDGetSocketStatus
  C:0E0AH         PUBLIC        CH395CMDGetGlobIntStatus_ALL
  B:0098H.1       PUBLIC        TI
  B:00B0H.3       PUBLIC        INT1
  C:0EDFH         PUBLIC        _CH395SetSocketSourPort
  C:10B7H         PUBLIC        CH395CMDGetPHYStatus
  C:0FC7H         PUBLIC        _mDelaymS
  C:108DH         PUBLIC        xReadCH395Data
BL51 BANKED LINKER/LOCATER V6.22                                                      04/02/2021  11:52:15  PAGE 7


  C:103BH         PUBLIC        _CH395CMDSetPHY
  X:0000H         PUBLIC        MyBuffer
  C:0C6BH         PUBLIC        main
  C:0D48H         PUBLIC        _CH395TCPDisconnect
  C:107EH         PUBLIC        _mDelayuS
  C:10A0H         PUBLIC        _CH395KeepLiveCNT
  C:0D9AH         PUBLIC        _CH395OpenSocket
  C:0BD8H         PUBLIC        _CH395CMDGetUnreachIPPT
  X:0190H         PUBLIC        SockInf
  D:0087H         PUBLIC        PCON
  C:0CC5H         PUBLIC        _xWriteCH395Data
  C:0F0FH         PUBLIC        _CH395CMDSetRetryPeriod
  D:0098H         PUBLIC        SCON
  B:0090H.4       PUBLIC        P14
  D:0089H         PUBLIC        TMOD
  D:0088H         PUBLIC        TCON
  C:0AA8H         PUBLIC        _CH395SendData
  D:00D5H         PUBLIC        SPCR
  D:0086H         PUBLIC        SPDR
  C:0C3AH         PUBLIC        CH395Init
  X:0200H         PUBLIC        CH395IPAddr
  C:0597H         PUBLIC        CH395SocketInitOpen
  C:0CC8H         PUBLIC        CH395CMDInitCH395
  C:0EABH         PUBLIC        _CH395GetRecvLength
  C:0E2BH         PUBLIC        _CH395CMDSetIPAddr
  D:00AAH         PUBLIC        SPSR
  C:1059H         PUBLIC        _CH395ClearRecvBuf
  C:102FH         PUBLIC        _xWriteCH395Cmd
  X:0204H         PUBLIC        CH395Inf
  D:008DH         PUBLIC        TH1
  C:0FB7H         PUBLIC        _mStopIfError
  C:10ACH         PUBLIC        CH395CMDGetVer
  X:0227H         PUBLIC        Socket0DesIP
  X:022BH         PUBLIC        Socket1DesIP
  X:022FH         PUBLIC        CH395IPMask
  C:0764H         PUBLIC        CH395GlobalInterrupt
  X:0233H         PUBLIC        Socket2DesIP
  B:0088H.6       PUBLIC        TR1
  C:0A60H         PUBLIC        InitCH395InfParam
  X:0237H         PUBLIC        Socket3DesIP
  C:09C5H         PUBLIC        _CH395KeepLiveINTVL
  C:1068H         PUBLIC        _CH395CMDSetRetryCount
  C:0F51H         PUBLIC        _CH395ReadGPIOAddr
  X:023BH         PUBLIC        IPRawProto
  C:0E6BH         PUBLIC        _CH395CMDSetMASKAddr
  C:0AEEH         PUBLIC        _CH395CMDSetUartBaudRate
  C:07DCH         PUBLIC        _CH395GetRecvData
  C:10C2H         PUBLIC        CH395CMDGetGlobIntStatus
  X:023CH         PUBLIC        Socket0DesPort
  X:023EH         PUBLIC        CH395GWIPAddr
  X:0242H         PUBLIC        Socket2DesPort
  C:0CF6H         PUBLIC        _CH395TCPConnect
  C:0F7AH         PUBLIC        _CH395SetSocketIPRAWProto
  D:00C8H         PUBLIC        T2CON
  C:0977H         PUBLIC        _CH395KeepLiveIDLE
  C:0E4BH         PUBLIC        _CH395CMDSetGWIPAddr
  C:0833H         PUBLIC        _CH395UDPSendTo
BL51 BANKED LINKER/LOCATER V6.22                                                      04/02/2021  11:52:15  PAGE 8


  C:0EF8H         PUBLIC        _CH395GetSocketInt
  C:10E2H         PUBLIC        CH395_PORT_INIT
  C:0FD8H         PUBLIC        _CH395WriteGPIOAddr
  C:0F8EH         PUBLIC        CH395EEPROMErase
  C:1021H         PUBLIC        CH395GetCmdStatus
  C:0354H         PUBLIC        _CH395SocketInterrupt
  X:0244H         PUBLIC        Socket0SourPort
  X:0246H         PUBLIC        Socket1SourPort
  X:0248H         PUBLIC        Socket2SourPort
  C:0929H         PUBLIC        _CH395SetStartPara
  C:0F3BH         PUBLIC        _CH395SetSocketSendBuf
  C:0BA7H         PUBLIC        _CH395CMDGetMACAddr
  C:10D8H         PUBLIC        _CH395CMDCheckExist
  C:0FE9H         PUBLIC        _CH395SetKeepLive
  C:0A13H         PUBLIC        _CH395EEPROMRead
  C:04B7H         PUBLIC        InitSocketParam
  C:1093H         PUBLIC        _Spi395Exchange
  C:10CDH         PUBLIC        CH395GetDHCPStatus
  C:0FA1H         PUBLIC        _CH395SetTCPMss
  D:00D0H         PUBLIC        PSW
  C:0F25H         PUBLIC        _CH395SetSocketRecvBuf
  -------         PROC          L?0203
  -------         ENDPROC       L?0203
  -------         PROC          _MDELAYUS
  D:0007H         SYMBOL        us
  C:107EH         LINE#         39
  C:107EH         LINE#         40
  C:107EH         LINE#         41
  C:1084H         LINE#         42
  -------         ENDPROC       _MDELAYUS
  -------         PROC          _MDELAYMS
  D:0005H         SYMBOL        ms
  C:0FC7H         LINE#         51
  C:0FC9H         LINE#         52
  C:0FC9H         LINE#         53
  C:0FCFH         LINE#         54
  C:0FCFH         LINE#         55
  C:0FCFH         LINE#         56
  C:0FD2H         LINE#         57
  C:0FD2H         LINE#         58
  C:0FD5H         LINE#         59
  C:0FD7H         LINE#         60
  -------         ENDPROC       _MDELAYMS
  -------         PROC          CH395_PORT_INIT
  C:10E2H         LINE#         69
  C:10E2H         LINE#         70
  C:10E2H         LINE#         71
  C:10E4H         LINE#         74
  C:10E7H         LINE#         78
  C:10EAH         LINE#         80
  -------         ENDPROC       CH395_PORT_INIT
  -------         PROC          _SPI395EXCHANGE
  D:0007H         SYMBOL        d
  C:1093H         LINE#         89
  C:1093H         LINE#         90
  C:1093H         LINE#         92
  C:1095H         LINE#         93
BL51 BANKED LINKER/LOCATER V6.22                                                      04/02/2021  11:52:15  PAGE 9


  C:109AH         LINE#         94
  C:109DH         LINE#         95
  C:109FH         LINE#         96
  -------         ENDPROC       _SPI395EXCHANGE
  -------         PROC          L?0202
  -------         ENDPROC       L?0202
  -------         PROC          _XWRITECH395CMD
  D:0007H         SYMBOL        cmd
  C:102FH         LINE#         105
  C:102FH         LINE#         106
  C:102FH         LINE#         107
  C:1031H         LINE#         108
  C:1033H         LINE#         109
  C:1036H         LINE#         110
  -------         ENDPROC       _XWRITECH395CMD
  C:0CB4H         SYMBOL        L?0197
  -------         PROC          L?0196
  -------         ENDPROC       L?0196
  C:0CB4H         SYMBOL        L?0197
  -------         PROC          _XWRITECH395DATA
  D:0007H         SYMBOL        mdata
  C:0CC5H         LINE#         120
  C:0CC5H         LINE#         121
  C:0CC5H         LINE#         122
  -------         ENDPROC       _XWRITECH395DATA
  C:1085H         SYMBOL        L?0201
  -------         PROC          L?0200
  -------         ENDPROC       L?0200
  C:1085H         SYMBOL        L?0201
  -------         PROC          XREADCH395DATA
  -------         DO            
  D:0007H         SYMBOL        i
  -------         ENDDO         
  C:108DH         LINE#         132
  C:108DH         LINE#         133
  C:108DH         LINE#         135
  C:1092H         LINE#         136
  C:1092H         LINE#         137
  -------         ENDPROC       XREADCH395DATA
  -------         PROC          CH395CMDRESET
  C:10EBH         LINE#         21
  C:10EBH         LINE#         22
  C:10EBH         LINE#         23
  C:10F0H         LINE#         24
  C:10F2H         LINE#         25
  -------         ENDPROC       CH395CMDRESET
  -------         PROC          CH395CMDSLEEP
  C:10F3H         LINE#         34
  C:10F3H         LINE#         35
  C:10F3H         LINE#         36
  C:10F8H         LINE#         37
  C:10FAH         LINE#         38
  -------         ENDPROC       CH395CMDSLEEP
  -------         PROC          CH395CMDGETVER
  -------         DO            
  D:0007H         SYMBOL        i
  -------         ENDDO         
BL51 BANKED LINKER/LOCATER V6.22                                                      04/02/2021  11:52:15  PAGE 10


  C:10ACH         LINE#         48
  C:10ACH         LINE#         49
  C:10ACH         LINE#         51
  C:10B1H         LINE#         52
  C:10B4H         LINE#         53
  C:10B6H         LINE#         54
  C:10B6H         LINE#         55
  -------         ENDPROC       CH395CMDGETVER
  -------         PROC          _CH395CMDCHECKEXIST
  D:0005H         SYMBOL        testdata
  -------         DO            
  D:0007H         SYMBOL        i
  -------         ENDDO         
  C:10D8H         LINE#         64
  C:10DAH         LINE#         65
  C:10DAH         LINE#         68
  C:10DCH         LINE#         69
  C:10DCH         LINE#         70
  C:10DFH         LINE#         71
  C:10E1H         LINE#         72
  C:10E1H         LINE#         73
  -------         ENDPROC       _CH395CMDCHECKEXIST
  -------         PROC          _CH395CMDSETPHY
  D:0005H         SYMBOL        phystat
  C:103BH         LINE#         83
  C:103DH         LINE#         84
  C:103DH         LINE#         85
  C:1042H         LINE#         86
  C:1047H         LINE#         87
  C:1049H         LINE#         88
  -------         ENDPROC       _CH395CMDSETPHY
  -------         PROC          CH395CMDGETPHYSTATUS
  -------         DO            
  D:0007H         SYMBOL        i
  -------         ENDDO         
  C:10B7H         LINE#         97
  C:10B7H         LINE#         98
  C:10B7H         LINE#         101
  C:10BCH         LINE#         102
  C:10BFH         LINE#         103
  C:10C1H         LINE#         104
  C:10C1H         LINE#         105
  -------         ENDPROC       CH395CMDGETPHYSTATUS
  -------         PROC          CH395CMDGETGLOBINTSTATUS
  -------         DO            
  D:0007H         SYMBOL        init_status
  -------         ENDDO         
  C:10C2H         LINE#         114
  C:10C2H         LINE#         115
  C:10C2H         LINE#         118
  C:10C7H         LINE#         119
  C:10CAH         LINE#         120
  C:10CCH         LINE#         121
  C:10CCH         LINE#         122
  -------         ENDPROC       CH395CMDGETGLOBINTSTATUS
  -------         PROC          CH395CMDINITCH395
  -------         DO            
BL51 BANKED LINKER/LOCATER V6.22                                                      04/02/2021  11:52:15  PAGE 11


  X:024AH         SYMBOL        i
  D:0005H         SYMBOL        s
  -------         ENDDO         
  C:0CC8H         LINE#         131
  C:0CC8H         LINE#         132
  C:0CC8H         LINE#         133
  C:0CCDH         LINE#         134
  C:0CCEH         LINE#         136
  C:0CD3H         LINE#         137
  C:0CD5H         LINE#         138
  C:0CD5H         LINE#         139
  C:0CD5H         LINE#         140
  C:0CDAH         LINE#         141
  C:0CDFH         LINE#         142
  C:0CE3H         LINE#         143
  C:0CF3H         LINE#         144
  C:0CF3H         LINE#         145
  C:0CF5H         LINE#         146
  -------         ENDPROC       CH395CMDINITCH395
  -------         PROC          _CH395CMDSETUARTBAUDRATE
  X:0298H         SYMBOL        baudrate
  -------         DO            
  X:029CH         SYMBOL        i
  -------         ENDDO         
  C:0AEEH         LINE#         155
  C:0AF4H         LINE#         156
  C:0AF4H         LINE#         158
  C:0AF9H         LINE#         159
  C:0B04H         LINE#         160
  C:0B10H         LINE#         161
  C:0B26H         LINE#         162
  C:0B2CH         LINE#         163
  C:0B2EH         LINE#         164
  -------         ENDPROC       _CH395CMDSETUARTBAUDRATE
  C:101CH         SYMBOL        L?0199
  -------         PROC          L?0198
  -------         ENDPROC       L?0198
  C:101CH         SYMBOL        L?0199
  -------         PROC          CH395GETCMDSTATUS
  -------         DO            
  D:0007H         SYMBOL        i
  -------         ENDDO         
  C:1021H         LINE#         173
  C:1021H         LINE#         174
  C:1021H         LINE#         177
  C:1026H         LINE#         178
  C:1029H         LINE#         179
  C:102BH         LINE#         180
  C:102BH         LINE#         181
  -------         ENDPROC       CH395GETCMDSTATUS
  -------         PROC          _CH395CMDSETIPADDR
  X:024AH         SYMBOL        ipaddr
  -------         DO            
  D:0006H         SYMBOL        i
  -------         ENDDO         
  C:0E2BH         LINE#         190
  C:0E36H         LINE#         191
BL51 BANKED LINKER/LOCATER V6.22                                                      04/02/2021  11:52:15  PAGE 12


  C:0E36H         LINE#         194
  C:0E3BH         LINE#         195
  C:0E48H         LINE#         196
  C:0E4AH         LINE#         197
  -------         ENDPROC       _CH395CMDSETIPADDR
  -------         PROC          _CH395CMDSETGWIPADDR
  X:024AH         SYMBOL        gwipaddr
  -------         DO            
  D:0006H         SYMBOL        i
  -------         ENDDO         
  C:0E4BH         LINE#         206
  C:0E56H         LINE#         207
  C:0E56H         LINE#         210
  C:0E5BH         LINE#         211
  C:0E68H         LINE#         212
  C:0E6AH         LINE#         213
  -------         ENDPROC       _CH395CMDSETGWIPADDR
  -------         PROC          _CH395CMDSETMASKADDR
  X:024AH         SYMBOL        maskaddr
  -------         DO            
  D:0006H         SYMBOL        i
  -------         ENDDO         
  C:0E6BH         LINE#         222
  C:0E76H         LINE#         223
  C:0E76H         LINE#         226
  C:0E7BH         LINE#         227
  C:0E88H         LINE#         228
  C:0E8AH         LINE#         229
  -------         ENDPROC       _CH395CMDSETMASKADDR
  -------         PROC          _CH395CMDSETMACADDR
  X:02A9H         SYMBOL        amcaddr
  -------         DO            
  D:0006H         SYMBOL        i
  -------         ENDDO         
  C:0DE6H         LINE#         238
  C:0DF1H         LINE#         239
  C:0DF1H         LINE#         242
  C:0DF6H         LINE#         243
  C:0E03H         LINE#         244
  C:0E05H         LINE#         245
  -------         ENDPROC       _CH395CMDSETMACADDR
  -------         PROC          _CH395CMDGETMACADDR
  X:02ACH         SYMBOL        amcaddr
  -------         DO            
  D:0006H         SYMBOL        i
  -------         ENDDO         
  C:0BA7H         LINE#         255
  C:0BB2H         LINE#         256
  C:0BB2H         LINE#         259
  C:0BB7H         LINE#         260
  C:0BD5H         LINE#         261
  C:0BD7H         LINE#         262
  -------         ENDPROC       _CH395CMDGETMACADDR
  -------         PROC          _CH395CMDSETMACFILT
  D:0005H         SYMBOL        filtype
  X:0284H         SYMBOL        table0
  X:0288H         SYMBOL        table1
BL51 BANKED LINKER/LOCATER V6.22                                                      04/02/2021  11:52:15  PAGE 13


  C:0645H         LINE#         273
  C:0647H         LINE#         274
  C:0647H         LINE#         275
  C:064CH         LINE#         276
  C:0651H         LINE#         277
  C:065CH         LINE#         278
  C:0668H         LINE#         279
  C:067EH         LINE#         280
  C:0694H         LINE#         282
  C:069DH         LINE#         283
  C:06A9H         LINE#         284
  C:06BFH         LINE#         285
  C:06D5H         LINE#         286
  C:06D7H         LINE#         287
  -------         ENDPROC       _CH395CMDSETMACFILT
  -------         PROC          _CH395CMDGETUNREACHIPPT
  X:0256H         SYMBOL        list
  -------         DO            
  D:0006H         SYMBOL        i
  -------         ENDDO         
  C:0BD8H         LINE#         300
  C:0BE3H         LINE#         301
  C:0BE3H         LINE#         304
  C:0BE8H         LINE#         305
  C:0BEAH         LINE#         306
  C:0BEAH         LINE#         307
  C:0C01H         LINE#         308
  C:0C06H         LINE#         309
  C:0C08H         LINE#         310
  -------         ENDPROC       _CH395CMDGETUNREACHIPPT
  -------         PROC          _CH395CMDGETREMOTEIPP
  D:0005H         SYMBOL        sockindex
  X:025CH         SYMBOL        list
  -------         DO            
  D:0006H         SYMBOL        i
  -------         ENDDO         
  C:0B6FH         LINE#         320
  C:0B7CH         LINE#         321
  C:0B7CH         LINE#         324
  C:0B81H         LINE#         325
  C:0B86H         LINE#         326
  C:0B88H         LINE#         327
  C:0B88H         LINE#         328
  C:0B9FH         LINE#         329
  C:0BA4H         LINE#         330
  C:0BA6H         LINE#         331
  -------         ENDPROC       _CH395CMDGETREMOTEIPP
  -------         PROC          _CH395SETSOCKETDESIP
  D:0005H         SYMBOL        sockindex
  X:024AH         SYMBOL        ipaddr
  C:0E8BH         LINE#         341
  C:0E98H         LINE#         342
  C:0E98H         LINE#         343
  C:0E9DH         LINE#         344
  C:0EA2H         LINE#         345
  C:0EA2H         LINE#         346
  C:0EA5H         LINE#         347
BL51 BANKED LINKER/LOCATER V6.22                                                      04/02/2021  11:52:15  PAGE 14


  C:0EA5H         LINE#         348
  C:0EA8H         LINE#         349
  C:0EAAH         LINE#         350
  -------         ENDPROC       _CH395SETSOCKETDESIP
  -------         PROC          _CH395SETSOCKETPROTTYPE
  D:0004H         SYMBOL        sockindex
  D:0005H         SYMBOL        prottype
  C:0F66H         LINE#         360
  C:0F68H         LINE#         361
  C:0F68H         LINE#         362
  C:0F6DH         LINE#         363
  C:0F72H         LINE#         364
  C:0F77H         LINE#         365
  C:0F79H         LINE#         366
  -------         ENDPROC       _CH395SETSOCKETPROTTYPE
  -------         PROC          _CH395SETSOCKETDESPORT
  D:0003H         SYMBOL        sockindex
  D:0004H         SYMBOL        desprot
  C:0EC6H         LINE#         377
  C:0EC8H         LINE#         378
  C:0EC8H         LINE#         379
  C:0ECDH         LINE#         380
  C:0ED2H         LINE#         381
  C:0ED7H         LINE#         382
  C:0EDCH         LINE#         383
  C:0EDEH         LINE#         384
  -------         ENDPROC       _CH395SETSOCKETDESPORT
  -------         PROC          _CH395SETSOCKETSOURPORT
  D:0003H         SYMBOL        sockindex
  D:0004H         SYMBOL        surprot
  C:0EDFH         LINE#         394
  C:0EE1H         LINE#         395
  C:0EE1H         LINE#         396
  C:0EE6H         LINE#         397
  C:0EEBH         LINE#         398
  C:0EF0H         LINE#         399
  C:0EF5H         LINE#         400
  C:0EF7H         LINE#         401
  -------         ENDPROC       _CH395SETSOCKETSOURPORT
  -------         PROC          _CH395SETSOCKETIPRAWPROTO
  D:0004H         SYMBOL        sockindex
  D:0005H         SYMBOL        prototype
  C:0F7AH         LINE#         411
  C:0F7CH         LINE#         412
  C:0F7CH         LINE#         413
  C:0F81H         LINE#         414
  C:0F86H         LINE#         415
  C:0F8BH         LINE#         416
  C:0F8DH         LINE#         417
  -------         ENDPROC       _CH395SETSOCKETIPRAWPROTO
  -------         PROC          _CH395ENABLEPING
  D:0005H         SYMBOL        enable
  C:104AH         LINE#         427
  C:104CH         LINE#         428
  C:104CH         LINE#         429
  C:1051H         LINE#         430
  C:1056H         LINE#         431
BL51 BANKED LINKER/LOCATER V6.22                                                      04/02/2021  11:52:15  PAGE 15


  C:1058H         LINE#         432
  -------         ENDPROC       _CH395ENABLEPING
  -------         PROC          _CH395SENDDATA
  D:0005H         SYMBOL        sockindex
  X:025DH         SYMBOL        databuf
  X:0260H         SYMBOL        len
  -------         DO            
  D:0004H         SYMBOL        i
  -------         ENDDO         
  C:0AA8H         LINE#         444
  C:0AB5H         LINE#         445
  C:0AB5H         LINE#         448
  C:0ABAH         LINE#         449
  C:0ABFH         LINE#         450
  C:0AC6H         LINE#         451
  C:0ACEH         LINE#         453
  C:0ADEH         LINE#         454
  C:0ADEH         LINE#         455
  C:0AE4H         LINE#         456
  C:0AEBH         LINE#         457
  C:0AEDH         LINE#         458
  -------         ENDPROC       _CH395SENDDATA
  -------         PROC          _CH395GETRECVLENGTH
  D:0005H         SYMBOL        sockindex
  -------         DO            
  D:0004H         SYMBOL        i
  -------         ENDDO         
  C:0EABH         LINE#         467
  C:0EADH         LINE#         468
  C:0EADH         LINE#         471
  C:0EAFH         LINE#         472
  C:0EAFH         LINE#         473
  C:0EB6H         LINE#         474
  C:0EC0H         LINE#         475
  C:0EC2H         LINE#         476
  C:0EC5H         LINE#         477
  -------         ENDPROC       _CH395GETRECVLENGTH
  -------         PROC          _CH395CLEARRECVBUF
  D:0005H         SYMBOL        sockindex
  C:1059H         LINE#         486
  C:105BH         LINE#         487
  C:105BH         LINE#         488
  C:1060H         LINE#         489
  C:1065H         LINE#         490
  C:1067H         LINE#         491
  -------         ENDPROC       _CH395CLEARRECVBUF
  -------         PROC          _CH395GETRECVDATA
  X:025CH         SYMBOL        sockindex
  X:025DH         SYMBOL        len
  D:0001H         SYMBOL        pbuf
  -------         DO            
  D:0004H         SYMBOL        i
  -------         ENDDO         
  C:07DCH         LINE#         502
  C:07E7H         LINE#         503
  C:07E7H         LINE#         505
  C:07EAH         LINE#         506
BL51 BANKED LINKER/LOCATER V6.22                                                      04/02/2021  11:52:15  PAGE 16


  C:07EFH         LINE#         507
  C:07F7H         LINE#         508
  C:07FEH         LINE#         509
  C:0806H         LINE#         510
  C:080BH         LINE#         511
  C:081BH         LINE#         512
  C:081BH         LINE#         513
  C:0822H         LINE#         514
  C:0829H         LINE#         515
  C:0830H         LINE#         516
  C:0832H         LINE#         517
  -------         ENDPROC       _CH395GETRECVDATA
  -------         PROC          _CH395CMDSETRETRYCOUNT
  D:0005H         SYMBOL        count
  C:1068H         LINE#         526
  C:106AH         LINE#         527
  C:106AH         LINE#         528
  C:106FH         LINE#         529
  C:1074H         LINE#         530
  C:1076H         LINE#         531
  -------         ENDPROC       _CH395CMDSETRETRYCOUNT
  -------         PROC          _CH395CMDSETRETRYPERIOD
  D:0004H         SYMBOL        period
  C:0F0FH         LINE#         540
  C:0F13H         LINE#         541
  C:0F13H         LINE#         542
  C:0F18H         LINE#         543
  C:0F1DH         LINE#         544
  C:0F22H         LINE#         545
  C:0F24H         LINE#         546
  -------         ENDPROC       _CH395CMDSETRETRYPERIOD
  -------         PROC          _CH395CMDGETSOCKETSTATUS
  D:0005H         SYMBOL        sockindex
  X:02AFH         SYMBOL        status
  C:0B2FH         LINE#         556
  C:0B3CH         LINE#         557
  C:0B3CH         LINE#         558
  C:0B3EH         LINE#         559
  C:0B3EH         LINE#         560
  C:0B55H         LINE#         561
  C:0B6CH         LINE#         562
  C:0B6EH         LINE#         563
  -------         ENDPROC       _CH395CMDGETSOCKETSTATUS
  -------         PROC          _CH395OPENSOCKET
  D:0005H         SYMBOL        sockindex
  -------         DO            
  D:0004H         SYMBOL        i
  D:0003H         SYMBOL        s
  -------         ENDDO         
  C:0D9AH         LINE#         572
  C:0D9CH         LINE#         573
  C:0D9CH         LINE#         574
  C:0D9CH         LINE#         575
  C:0D9CH         LINE#         576
  C:0DA1H         LINE#         577
  C:0DA6H         LINE#         578
  C:0DA8H         LINE#         579
BL51 BANKED LINKER/LOCATER V6.22                                                      04/02/2021  11:52:15  PAGE 17


  C:0DA8H         LINE#         580
  C:0DA8H         LINE#         581
  C:0DA8H         LINE#         582
  C:0DADH         LINE#         583
  C:0DB1H         LINE#         584
  C:0DBDH         LINE#         585
  C:0DBDH         LINE#         586
  C:0DBFH         LINE#         587
  -------         ENDPROC       _CH395OPENSOCKET
  -------         PROC          _CH395CLOSESOCKET
  D:0005H         SYMBOL        sockindex
  -------         DO            
  D:0004H         SYMBOL        i
  D:0003H         SYMBOL        s
  -------         ENDDO         
  C:0DC0H         LINE#         596
  C:0DC2H         LINE#         597
  C:0DC2H         LINE#         598
  C:0DC2H         LINE#         599
  C:0DC2H         LINE#         600
  C:0DC7H         LINE#         601
  C:0DCCH         LINE#         602
  C:0DCEH         LINE#         603
  C:0DCEH         LINE#         604
  C:0DCEH         LINE#         605
  C:0DCEH         LINE#         606
  C:0DD3H         LINE#         607
  C:0DD7H         LINE#         608
  C:0DE3H         LINE#         609
  C:0DE3H         LINE#         610
  C:0DE5H         LINE#         611
  -------         ENDPROC       _CH395CLOSESOCKET
  -------         PROC          _CH395TCPCONNECT
  D:0005H         SYMBOL        sockindex
  -------         DO            
  D:0004H         SYMBOL        i
  D:0003H         SYMBOL        s
  -------         ENDDO         
  C:0CF6H         LINE#         620
  C:0CF8H         LINE#         621
  C:0CF8H         LINE#         622
  C:0CFAH         LINE#         623
  C:0CFBH         LINE#         624
  C:0D00H         LINE#         625
  C:0D05H         LINE#         626
  C:0D07H         LINE#         627
  C:0D07H         LINE#         628
  C:0D07H         LINE#         629
  C:0D07H         LINE#         630
  C:0D0CH         LINE#         631
  C:0D10H         LINE#         632
  C:0D1CH         LINE#         633
  C:0D1CH         LINE#         634
  C:0D1EH         LINE#         635
  -------         ENDPROC       _CH395TCPCONNECT
  -------         PROC          _CH395TCPLISTEN
  D:0005H         SYMBOL        sockindex
BL51 BANKED LINKER/LOCATER V6.22                                                      04/02/2021  11:52:15  PAGE 18


  -------         DO            
  D:0004H         SYMBOL        i
  D:0003H         SYMBOL        s
  -------         ENDDO         
  C:0D1FH         LINE#         644
  C:0D21H         LINE#         645
  C:0D21H         LINE#         646
  C:0D23H         LINE#         647
  C:0D24H         LINE#         648
  C:0D29H         LINE#         649
  C:0D2EH         LINE#         650
  C:0D30H         LINE#         651
  C:0D30H         LINE#         652
  C:0D30H         LINE#         653
  C:0D30H         LINE#         654
  C:0D35H         LINE#         655
  C:0D39H         LINE#         656
  C:0D45H         LINE#         657
  C:0D45H         LINE#         658
  C:0D47H         LINE#         659
  -------         ENDPROC       _CH395TCPLISTEN
  -------         PROC          _CH395TCPDISCONNECT
  D:0005H         SYMBOL        sockindex
  -------         DO            
  D:0004H         SYMBOL        i
  D:0003H         SYMBOL        s
  -------         ENDDO         
  C:0D48H         LINE#         668
  C:0D4AH         LINE#         669
  C:0D4AH         LINE#         670
  C:0D4CH         LINE#         671
  C:0D4DH         LINE#         672
  C:0D52H         LINE#         673
  C:0D57H         LINE#         674
  C:0D59H         LINE#         675
  C:0D59H         LINE#         676
  C:0D59H         LINE#         677
  C:0D59H         LINE#         678
  C:0D5EH         LINE#         679
  C:0D62H         LINE#         680
  C:0D6EH         LINE#         681
  C:0D6EH         LINE#         682
  C:0D70H         LINE#         683
  -------         ENDPROC       _CH395TCPDISCONNECT
  -------         PROC          _CH395GETSOCKETINT
  D:0005H         SYMBOL        sockindex
  -------         DO            
  D:0007H         SYMBOL        intstatus
  -------         ENDDO         
  C:0EF8H         LINE#         692
  C:0EFAH         LINE#         693
  C:0EFAH         LINE#         695
  C:0EFFH         LINE#         696
  C:0F04H         LINE#         697
  C:0F09H         LINE#         698
  C:0F0CH         LINE#         699
  C:0F0EH         LINE#         700
BL51 BANKED LINKER/LOCATER V6.22                                                      04/02/2021  11:52:15  PAGE 19


  C:0F0EH         LINE#         701
  -------         ENDPROC       _CH395GETSOCKETINT
  -------         PROC          _CH395CRCRET6BIT
  X:0262H         SYMBOL        mac_addr
  -------         DO            
  X:0265H         SYMBOL        perByte
  X:0269H         SYMBOL        perBit
  X:026DH         SYMBOL        poly
  X:0271H         SYMBOL        crc_value
  X:0275H         SYMBOL        c
  -------         ENDDO         
  C:01DFH         LINE#         710
  C:01EAH         LINE#         711
  C:01EAH         LINE#         714
  C:01F4H         LINE#         715
  C:01FEH         LINE#         717
  C:0225H         LINE#         718
  C:0225H         LINE#         719
  C:023CH         LINE#         720
  C:0263H         LINE#         721
  C:0263H         LINE#         722
  C:02DBH         LINE#         723
  C:02E2H         LINE#         724
  C:030AH         LINE#         725
  C:0332H         LINE#         726
  C:034BH         LINE#         727
  C:0353H         LINE#         728
  -------         ENDPROC       _CH395CRCRET6BIT
  -------         PROC          _CH395DHCPENABLE
  D:0005H         SYMBOL        flag
  -------         DO            
  D:0004H         SYMBOL        i
  D:0007H         SYMBOL        s
  -------         ENDDO         
  C:0D71H         LINE#         737
  C:0D73H         LINE#         738
  C:0D73H         LINE#         739
  C:0D75H         LINE#         741
  C:0D7AH         LINE#         742
  C:0D7FH         LINE#         743
  C:0D81H         LINE#         744
  C:0D81H         LINE#         745
  C:0D81H         LINE#         746
  C:0D86H         LINE#         747
  C:0D89H         LINE#         748
  C:0D8DH         LINE#         749
  C:0D99H         LINE#         750
  C:0D99H         LINE#         751
  C:0D99H         LINE#         752
  -------         ENDPROC       _CH395DHCPENABLE
  -------         PROC          CH395GETDHCPSTATUS
  -------         DO            
  D:0007H         SYMBOL        status
  -------         ENDDO         
  C:10CDH         LINE#         761
  C:10CDH         LINE#         762
  C:10CDH         LINE#         764
BL51 BANKED LINKER/LOCATER V6.22                                                      04/02/2021  11:52:15  PAGE 20


  C:10D2H         LINE#         765
  C:10D5H         LINE#         766
  C:10D7H         LINE#         767
  C:10D7H         LINE#         768
  -------         ENDPROC       CH395GETDHCPSTATUS
  -------         PROC          _CH395GETIPINF
  X:02B2H         SYMBOL        addr
  -------         DO            
  D:0006H         SYMBOL        i
  -------         ENDDO         
  C:0C09H         LINE#         777
  C:0C14H         LINE#         778
  C:0C14H         LINE#         780
  C:0C19H         LINE#         781
  C:0C1BH         LINE#         782
  C:0C1BH         LINE#         783
  C:0C32H         LINE#         784
  C:0C37H         LINE#         785
  C:0C39H         LINE#         786
  -------         ENDPROC       _CH395GETIPINF
  -------         PROC          _CH395WRITEGPIOADDR
  D:0004H         SYMBOL        regadd
  D:0005H         SYMBOL        regval
  C:0FD8H         LINE#         796
  C:0FDAH         LINE#         797
  C:0FDAH         LINE#         798
  C:0FDFH         LINE#         799
  C:0FE4H         LINE#         800
  -------         ENDPROC       _CH395WRITEGPIOADDR
  -------         PROC          _CH395READGPIOADDR
  D:0005H         SYMBOL        regadd
  -------         DO            
  D:0007H         SYMBOL        i
  -------         ENDDO         
  C:0F51H         LINE#         810
  C:0F53H         LINE#         811
  C:0F53H         LINE#         813
  C:0F58H         LINE#         814
  C:0F5DH         LINE#         815
  C:0F62H         LINE#         816
  C:0F65H         LINE#         817
  C:0F65H         LINE#         818
  -------         ENDPROC       _CH395READGPIOADDR
  -------         PROC          CH395EEPROMERASE
  -------         DO            
  D:0007H         SYMBOL        i
  -------         ENDDO         
  C:0F8EH         LINE#         827
  C:0F8EH         LINE#         828
  C:0F8EH         LINE#         830
  C:0F93H         LINE#         831
  C:0F93H         LINE#         832
  C:0F93H         LINE#         833
  C:0F98H         LINE#         834
  C:0F9BH         LINE#         835
  C:0FA0H         LINE#         836
  C:0FA0H         LINE#         837
BL51 BANKED LINKER/LOCATER V6.22                                                      04/02/2021  11:52:15  PAGE 21


  C:0FA0H         LINE#         838
  C:0FA0H         LINE#         839
  -------         ENDPROC       CH395EEPROMERASE
  -------         PROC          _CH395EEPROMWRITE
  D:0004H         SYMBOL        eepaddr
  X:028EH         SYMBOL        buf
  X:0291H         SYMBOL        len
  -------         DO            
  D:0007H         SYMBOL        i
  -------         ENDDO         
  C:0887H         LINE#         850
  C:0896H         LINE#         851
  C:0896H         LINE#         853
  C:089BH         LINE#         854
  C:08A0H         LINE#         855
  C:08A5H         LINE#         856
  C:08A9H         LINE#         857
  C:08CCH         LINE#         858
  C:08CCH         LINE#         859
  C:08CCH         LINE#         860
  C:08D1H         LINE#         861
  C:08D4H         LINE#         862
  C:08D9H         LINE#         863
  C:08D9H         LINE#         864
  C:08D9H         LINE#         865
  C:08D9H         LINE#         866
  -------         ENDPROC       _CH395EEPROMWRITE
  -------         PROC          _CH395EEPROMREAD
  D:0004H         SYMBOL        eepaddr
  X:0294H         SYMBOL        buf
  X:0297H         SYMBOL        len
  C:0A13H         LINE#         877
  C:0A22H         LINE#         878
  C:0A22H         LINE#         879
  C:0A27H         LINE#         880
  C:0A2CH         LINE#         881
  C:0A31H         LINE#         882
  C:0A37H         LINE#         883
  C:0A3CH         LINE#         884
  C:0A5FH         LINE#         885
  -------         ENDPROC       _CH395EEPROMREAD
  -------         PROC          _CH395SETTCPMSS
  D:0004H         SYMBOL        tcpmss
  C:0FA1H         LINE#         894
  C:0FA5H         LINE#         895
  C:0FA5H         LINE#         896
  C:0FAAH         LINE#         897
  C:0FAFH         LINE#         898
  -------         ENDPROC       _CH395SETTCPMSS
  -------         PROC          _CH395SETSOCKETRECVBUF
  D:0004H         SYMBOL        sockindex
  D:0005H         SYMBOL        startblk
  D:0003H         SYMBOL        blknum
  C:0F25H         LINE#         910
  C:0F27H         LINE#         911
  C:0F27H         LINE#         912
  C:0F2CH         LINE#         913
BL51 BANKED LINKER/LOCATER V6.22                                                      04/02/2021  11:52:15  PAGE 22


  C:0F31H         LINE#         914
  C:0F36H         LINE#         915
  -------         ENDPROC       _CH395SETSOCKETRECVBUF
  -------         PROC          _CH395SETSOCKETSENDBUF
  D:0004H         SYMBOL        sockindex
  D:0005H         SYMBOL        startblk
  D:0003H         SYMBOL        blknum
  C:0F3BH         LINE#         927
  C:0F3DH         LINE#         928
  C:0F3DH         LINE#         929
  C:0F42H         LINE#         930
  C:0F47H         LINE#         931
  C:0F4CH         LINE#         932
  -------         ENDPROC       _CH395SETSOCKETSENDBUF
  -------         PROC          _CH395UDPSENDTO
  X:0276H         SYMBOL        buf
  X:0279H         SYMBOL        len
  X:027DH         SYMBOL        ip
  X:0280H         SYMBOL        port
  X:0282H         SYMBOL        sockindex
  C:0833H         LINE#         946
  C:0842H         LINE#         947
  C:0842H         LINE#         948
  C:0855H         LINE#         949
  C:0865H         LINE#         950
  -------         ENDPROC       _CH395UDPSENDTO
  -------         PROC          _CH395SETSTARTPARA
  X:029DH         SYMBOL        mdata
  C:0929H         LINE#         960
  C:092FH         LINE#         961
  C:092FH         LINE#         962
  C:0934H         LINE#         963
  C:093FH         LINE#         964
  C:094BH         LINE#         965
  C:0961H         LINE#         966
  -------         ENDPROC       _CH395SETSTARTPARA
  -------         PROC          CH395CMDGETGLOBINTSTATUS_ALL
  -------         DO            
  D:0004H         SYMBOL        init_status
  -------         ENDDO         
  C:0E0AH         LINE#         976
  C:0E0AH         LINE#         977
  C:0E0AH         LINE#         979
  C:0E0FH         LINE#         980
  C:0E14H         LINE#         981
  C:0E1BH         LINE#         982
  C:0E25H         LINE#         983
  C:0E27H         LINE#         984
  C:0E2AH         LINE#         985
  -------         ENDPROC       CH395CMDGETGLOBINTSTATUS_ALL
  -------         PROC          _CH395SETKEEPLIVE
  D:0004H         SYMBOL        sockindex
  D:0005H         SYMBOL        cmd
  C:0FE9H         LINE#         995
  C:0FEBH         LINE#         996
  C:0FEBH         LINE#         997
  C:0FF0H         LINE#         998
BL51 BANKED LINKER/LOCATER V6.22                                                      04/02/2021  11:52:15  PAGE 23


  C:0FF5H         LINE#         999
  -------         ENDPROC       _CH395SETKEEPLIVE
  -------         PROC          _CH395KEEPLIVECNT
  D:0005H         SYMBOL        cnt
  C:10A0H         LINE#         1009
  C:10A2H         LINE#         1010
  C:10A2H         LINE#         1011
  C:10A7H         LINE#         1012
  -------         ENDPROC       _CH395KEEPLIVECNT
  -------         PROC          _CH395KEEPLIVEIDLE
  X:02A1H         SYMBOL        idle
  C:0977H         LINE#         1022
  C:097DH         LINE#         1023
  C:097DH         LINE#         1024
  C:0982H         LINE#         1025
  C:098DH         LINE#         1026
  C:0999H         LINE#         1027
  C:09AFH         LINE#         1028
  -------         ENDPROC       _CH395KEEPLIVEIDLE
  -------         PROC          _CH395KEEPLIVEINTVL
  X:02A5H         SYMBOL        intvl
  C:09C5H         LINE#         1038
  C:09CBH         LINE#         1039
  C:09CBH         LINE#         1040
  C:09D0H         LINE#         1041
  C:09DBH         LINE#         1042
  C:09E7H         LINE#         1043
  C:09FDH         LINE#         1044
  -------         ENDPROC       _CH395KEEPLIVEINTVL
  -------         PROC          _CH395SETTTLNUM
  D:0004H         SYMBOL        sockindex
  D:0005H         SYMBOL        TTLnum
  C:0FFAH         LINE#         1055
  C:0FFCH         LINE#         1056
  C:0FFCH         LINE#         1057
  C:1001H         LINE#         1058
  C:1006H         LINE#         1059
  -------         ENDPROC       _CH395SETTTLNUM
  -------         PROC          L?0204
  -------         ENDPROC       L?0204
  -------         PROC          _MSTOPIFERROR
  D:0007H         SYMBOL        iError
  C:0FB7H         LINE#         84
  C:0FB7H         LINE#         85
  C:0FB7H         LINE#         86
  C:0FBAH         LINE#         90
  C:0FBAH         LINE#         91
  C:0FBAH         LINE#         92
  C:0FBFH         LINE#         93
  C:0FC4H         LINE#         94
  C:0FC6H         LINE#         95
  -------         ENDPROC       _MSTOPIFERROR
  -------         PROC          INITCH395INFPARAM
  C:0A60H         LINE#         104
  C:0A60H         LINE#         105
  C:0A60H         LINE#         106
  C:0A6FH         LINE#         107
BL51 BANKED LINKER/LOCATER V6.22                                                      04/02/2021  11:52:15  PAGE 24


  C:0A82H         LINE#         108
  C:0A95H         LINE#         109
  -------         ENDPROC       INITCH395INFPARAM
  -------         PROC          INITSOCKETPARAM
  C:04B7H         LINE#         119
  C:04B7H         LINE#         120
  C:04B7H         LINE#         121
  C:04C6H         LINE#         122
  C:04D9H         LINE#         123
  C:04E8H         LINE#         124
  C:04F7H         LINE#         125
  C:04FDH         LINE#         127
  C:050CH         LINE#         128
  C:051BH         LINE#         129
  C:0521H         LINE#         130
  C:0527H         LINE#         132
  C:0535H         LINE#         133
  C:0548H         LINE#         134
  C:0557H         LINE#         135
  C:0566H         LINE#         136
  C:056CH         LINE#         137
  C:0571H         LINE#         139
  C:057EH         LINE#         140
  C:0591H         LINE#         141
  C:0596H         LINE#         142
  -------         ENDPROC       INITSOCKETPARAM
  -------         PROC          CH395SOCKETINITOPEN
  -------         DO            
  D:0007H         SYMBOL        i
  -------         ENDDO         
  C:0597H         LINE#         151
  C:0597H         LINE#         152
  C:0597H         LINE#         156
  C:05A2H         LINE#         157
  C:05A9H         LINE#         158
  C:05B6H         LINE#         159
  C:05C1H         LINE#         160
  C:05C3H         LINE#         161
  C:05C6H         LINE#         164
  C:05CDH         LINE#         165
  C:05DAH         LINE#         166
  C:05DCH         LINE#         167
  C:05DFH         LINE#         168
  C:05E4H         LINE#         169
  C:05E7H         LINE#         172
  C:05F2H         LINE#         173
  C:05F9H         LINE#         174
  C:0606H         LINE#         175
  C:0611H         LINE#         176
  C:0616H         LINE#         177
  C:0619H         LINE#         178
  C:061EH         LINE#         179
  C:0621H         LINE#         182
  C:062CH         LINE#         183
  C:0633H         LINE#         184
  C:063DH         LINE#         185
  C:0642H         LINE#         186
BL51 BANKED LINKER/LOCATER V6.22                                                      04/02/2021  11:52:15  PAGE 25


  -------         ENDPROC       CH395SOCKETINITOPEN
  -------         PROC          _CH395SOCKETINTERRUPT
  X:0256H         SYMBOL        sockindex
  -------         DO            
  X:0257H         SYMBOL        sock_int_socket
  D:0002H         SYMBOL        i
  X:0258H         SYMBOL        len
  X:025AH         SYMBOL        tmp
  I:0008H         SYMBOL        buf
  -------         ENDDO         
  C:0354H         LINE#         196
  C:0359H         LINE#         197
  C:0359H         LINE#         204
  C:035FH         LINE#         205
  C:035FH         LINE#         206
  C:035FH         LINE#         208
  C:035FH         LINE#         209
  C:035FH         LINE#         210
  C:035FH         LINE#         211
  C:035FH         LINE#         212
  C:0369H         LINE#         213
  C:0369H         LINE#         214
  C:0379H         LINE#         218
  C:037FH         LINE#         219
  C:0394H         LINE#         220
  C:03B3H         LINE#         221
  C:03CFH         LINE#         222
  C:03CFH         LINE#         223
  C:040FH         LINE#         224
  C:041FH         LINE#         225
  C:0445H         LINE#         227
  C:0445H         LINE#         228
  C:044CH         LINE#         229
  C:044CH         LINE#         233
  C:0462H         LINE#         234
  C:0462H         LINE#         235
  C:046BH         LINE#         236
  C:047FH         LINE#         242
  C:047FH         LINE#         243
  C:047FH         LINE#         249
  C:047FH         LINE#         250
  C:047FH         LINE#         253
  C:047FH         LINE#         254
  C:0486H         LINE#         255
  C:0486H         LINE#         258
  C:049AH         LINE#         259
  C:049AH         LINE#         260
  C:049FH         LINE#         261
  C:04A9H         LINE#         262
  C:04ACH         LINE#         263
  C:04B1H         LINE#         264
  C:04B6H         LINE#         265
  C:04B6H         LINE#         266
  C:04B6H         LINE#         267
  -------         ENDPROC       _CH395SOCKETINTERRUPT
  -------         PROC          CH395GLOBALINTERRUPT
  -------         DO            
BL51 BANKED LINKER/LOCATER V6.22                                                      04/02/2021  11:52:15  PAGE 26


  X:024AH         SYMBOL        init_status
  X:024CH         SYMBOL        buf
  -------         ENDDO         
  C:0764H         LINE#         276
  C:0764H         LINE#         277
  C:0764H         LINE#         281
  C:076FH         LINE#         282
  C:0772H         LINE#         283
  C:0772H         LINE#         284
  C:077BH         LINE#         285
  C:077BH         LINE#         286
  C:077BH         LINE#         287
  C:077BH         LINE#         288
  C:077BH         LINE#         289
  C:077BH         LINE#         290
  C:077BH         LINE#         294
  C:077BH         LINE#         295
  C:0782H         LINE#         296
  C:0782H         LINE#         297
  C:0787H         LINE#         298
  C:0787H         LINE#         299
  C:078EH         LINE#         300
  C:078EH         LINE#         301
  C:0793H         LINE#         302
  C:0793H         LINE#         303
  C:079AH         LINE#         304
  C:079AH         LINE#         305
  C:079FH         LINE#         306
  C:079FH         LINE#         307
  C:07A6H         LINE#         308
  C:07A6H         LINE#         309
  C:07ABH         LINE#         310
  C:07ABH         LINE#         311
  C:07B2H         LINE#         312
  C:07B2H         LINE#         313
  C:07B7H         LINE#         314
  C:07B7H         LINE#         315
  C:07BEH         LINE#         316
  C:07BEH         LINE#         317
  C:07C3H         LINE#         318
  C:07C3H         LINE#         319
  C:07CAH         LINE#         320
  C:07CAH         LINE#         321
  C:07CFH         LINE#         322
  C:07CFH         LINE#         323
  C:07D6H         LINE#         324
  C:07D6H         LINE#         325
  C:07DBH         LINE#         326
  C:07DBH         LINE#         327
  -------         ENDPROC       CH395GLOBALINTERRUPT
  -------         PROC          CH395INIT
  -------         DO            
  D:0007H         SYMBOL        i
  -------         ENDDO         
  C:0C3AH         LINE#         336
  C:0C3AH         LINE#         337
  C:0C3AH         LINE#         340
BL51 BANKED LINKER/LOCATER V6.22                                                      04/02/2021  11:52:15  PAGE 27


  C:0C3FH         LINE#         341
  C:0C47H         LINE#         350
  C:0C50H         LINE#         351
  C:0C59H         LINE#         352
  C:0C62H         LINE#         353
  C:0C67H         LINE#         354
  C:0C6AH         LINE#         355
  C:0C6AH         LINE#         356
  -------         ENDPROC       CH395INIT
  -------         PROC          MINITSTDIO
  C:100BH         LINE#         365
  C:100BH         LINE#         366
  C:100BH         LINE#         367
  C:100EH         LINE#         368
  C:1011H         LINE#         369
  C:1014H         LINE#         370
  C:1017H         LINE#         371
  C:1019H         LINE#         372
  C:101BH         LINE#         373
  -------         ENDPROC       MINITSTDIO
  -------         PROC          MAIN
  -------         DO            
  D:0007H         SYMBOL        i
  -------         ENDDO         
  C:0C6BH         LINE#         382
  C:0C6BH         LINE#         383
  C:0C6BH         LINE#         385
  C:0C70H         LINE#         386
  C:0C73H         LINE#         390
  C:0C76H         LINE#         391
  C:0C79H         LINE#         392
  C:0C7CH         LINE#         393
  C:0C7FH         LINE#         395
  C:0C7FH         LINE#         396
  C:0C7FH         LINE#         397
  C:0C85H         LINE#         398
  C:0C85H         LINE#         399
  C:0C8AH         LINE#         400
  C:0C8CH         LINE#         402
  C:0C8CH         LINE#         406
  C:0C8CH         LINE#         407
  C:0C8CH         LINE#         408
  C:0C8CH         LINE#         409
  C:0C8FH         LINE#         410
  C:0C92H         LINE#         411
  C:0C92H         LINE#         412
  C:0C92H         LINE#         413
  C:0C98H         LINE#         414
  -------         ENDPROC       MAIN
  -------         ENDMOD        CH395

  -------         MODULE        ?C?COPY
  C:00D3H         PUBLIC        ?C?COPY
  -------         ENDMOD        ?C?COPY

  -------         MODULE        ?C?CLDPTR
  C:00F9H         PUBLIC        ?C?CLDPTR
BL51 BANKED LINKER/LOCATER V6.22                                                      04/02/2021  11:52:15  PAGE 28


  -------         ENDMOD        ?C?CLDPTR

  -------         MODULE        ?C?CSTPTR
  C:0112H         PUBLIC        ?C?CSTPTR
  -------         ENDMOD        ?C?CSTPTR

  -------         MODULE        ?C?ILDIX
  C:0124H         PUBLIC        ?C?ILDIX
  -------         ENDMOD        ?C?ILDIX

  -------         MODULE        ?C?SLCMP
  C:013AH         PUBLIC        ?C?SLCMP
  -------         ENDMOD        ?C?SLCMP

  -------         MODULE        ?C?ULSHR
  C:0150H         PUBLIC        ?C?ULSHR
  -------         ENDMOD        ?C?ULSHR

  -------         MODULE        ?C?LSHL
  C:0163H         PUBLIC        ?C?LSHL
  -------         ENDMOD        ?C?LSHL

  -------         MODULE        ?C?LSTXDATA
  C:0176H         PUBLIC        ?C?LSTXDATA
  -------         ENDMOD        ?C?LSTXDATA

  -------         MODULE        ?C?LSTKXDATA
  C:0182H         PUBLIC        ?C?LSTKXDATA
  -------         ENDMOD        ?C?LSTKXDATA

  -------         MODULE        ?C?MEMSET
  C:01B3H         PUBLIC        ?C?MEMSET
  -------         ENDMOD        ?C?MEMSET

*** WARNING L16: UNCALLED SEGMENT, IGNORED FOR OVERLAY PROCESS
    SEGMENT: ?PR?CH395CMDRESET?CH395

*** WARNING L16: UNCALLED SEGMENT, IGNORED FOR OVERLAY PROCESS
    SEGMENT: ?PR?CH395CMDSLEEP?CH395

*** WARNING L16: UNCALLED SEGMENT, IGNORED FOR OVERLAY PROCESS
    SEGMENT: ?PR?CH395CMDGETVER?CH395

*** WARNING L16: UNCALLED SEGMENT, IGNORED FOR OVERLAY PROCESS
    SEGMENT: ?PR?_CH395CMDSETPHY?CH395

*** WARNING L16: UNCALLED SEGMENT, IGNORED FOR OVERLAY PROCESS
    SEGMENT: ?PR?CH395CMDGETGLOBINTSTATUS?CH395

*** WARNING L16: UNCALLED SEGMENT, IGNORED FOR OVERLAY PROCESS
    SEGMENT: ?PR?_CH395CMDSETUARTBAUDRATE?CH395

*** WARNING L16: UNCALLED SEGMENT, IGNORED FOR OVERLAY PROCESS
    SEGMENT: ?PR?_CH395CMDSETMACADDR?CH395

*** WARNING L16: UNCALLED SEGMENT, IGNORED FOR OVERLAY PROCESS
    SEGMENT: ?PR?_CH395CMDGETMACADDR?CH395
BL51 BANKED LINKER/LOCATER V6.22                                                      04/02/2021  11:52:15  PAGE 29



*** WARNING L16: UNCALLED SEGMENT, IGNORED FOR OVERLAY PROCESS
    SEGMENT: ?PR?_CH395CMDSETMACFILT?CH395

*** WARNING L16: UNCALLED SEGMENT, IGNORED FOR OVERLAY PROCESS
    SEGMENT: ?PR?_CH395ENABLEPING?CH395

*** WARNING L16: UNCALLED SEGMENT, IGNORED FOR OVERLAY PROCESS
    SEGMENT: ?PR?_CH395CLEARRECVBUF?CH395

*** WARNING L16: UNCALLED SEGMENT, IGNORED FOR OVERLAY PROCESS
    SEGMENT: ?PR?_CH395CMDSETRETRYCOUNT?CH395

*** WARNING L16: UNCALLED SEGMENT, IGNORED FOR OVERLAY PROCESS
    SEGMENT: ?PR?_CH395CMDSETRETRYPERIOD?CH395

*** WARNING L16: UNCALLED SEGMENT, IGNORED FOR OVERLAY PROCESS
    SEGMENT: ?PR?_CH395CMDGETSOCKETSTATUS?CH395

*** WARNING L16: UNCALLED SEGMENT, IGNORED FOR OVERLAY PROCESS
    SEGMENT: ?PR?_CH395CLOSESOCKET?CH395

*** WARNING L16: UNCALLED SEGMENT, IGNORED FOR OVERLAY PROCESS
    SEGMENT: ?PR?_CH395TCPDISCONNECT?CH395

*** WARNING L16: UNCALLED SEGMENT, IGNORED FOR OVERLAY PROCESS
    SEGMENT: ?PR?_CH395CRCRET6BIT?CH395

*** WARNING L16: UNCALLED SEGMENT, IGNORED FOR OVERLAY PROCESS
    SEGMENT: ?PR?_CH395DHCPENABLE?CH395

*** WARNING L16: UNCALLED SEGMENT, IGNORED FOR OVERLAY PROCESS
    SEGMENT: ?PR?CH395GETDHCPSTATUS?CH395

*** WARNING L16: UNCALLED SEGMENT, IGNORED FOR OVERLAY PROCESS
    SEGMENT: ?PR?_CH395GETIPINF?CH395

*** WARNING L16: UNCALLED SEGMENT, IGNORED FOR OVERLAY PROCESS
    SEGMENT: ?PR?_CH395WRITEGPIOADDR?CH395

*** WARNING L16: UNCALLED SEGMENT, IGNORED FOR OVERLAY PROCESS
    SEGMENT: ?PR?_CH395READGPIOADDR?CH395

*** WARNING L16: UNCALLED SEGMENT, IGNORED FOR OVERLAY PROCESS
    SEGMENT: ?PR?CH395EEPROMERASE?CH395

*** WARNING L16: UNCALLED SEGMENT, IGNORED FOR OVERLAY PROCESS
    SEGMENT: ?PR?_CH395EEPROMWRITE?CH395

*** WARNING L16: UNCALLED SEGMENT, IGNORED FOR OVERLAY PROCESS
    SEGMENT: ?PR?_CH395EEPROMREAD?CH395

*** WARNING L16: UNCALLED SEGMENT, IGNORED FOR OVERLAY PROCESS
    SEGMENT: ?PR?_CH395SETTCPMSS?CH395

*** WARNING L16: UNCALLED SEGMENT, IGNORED FOR OVERLAY PROCESS
    SEGMENT: ?PR?_CH395SETSOCKETRECVBUF?CH395
BL51 BANKED LINKER/LOCATER V6.22                                                      04/02/2021  11:52:15  PAGE 30



*** WARNING L16: UNCALLED SEGMENT, IGNORED FOR OVERLAY PROCESS
    SEGMENT: ?PR?_CH395SETSOCKETSENDBUF?CH395

*** WARNING L16: UNCALLED SEGMENT, IGNORED FOR OVERLAY PROCESS
    SEGMENT: ?PR?_CH395UDPSENDTO?CH395

*** WARNING L16: UNCALLED SEGMENT, IGNORED FOR OVERLAY PROCESS
    SEGMENT: ?PR?_CH395SETSTARTPARA?CH395

*** WARNING L16: UNCALLED SEGMENT, IGNORED FOR OVERLAY PROCESS
    SEGMENT: ?PR?_CH395SETKEEPLIVE?CH395

*** WARNING L16: UNCALLED SEGMENT, IGNORED FOR OVERLAY PROCESS
    SEGMENT: ?PR?_CH395KEEPLIVECNT?CH395

*** WARNING L16: UNCALLED SEGMENT, IGNORED FOR OVERLAY PROCESS
    SEGMENT: ?PR?_CH395KEEPLIVEIDLE?CH395

*** WARNING L16: UNCALLED SEGMENT, IGNORED FOR OVERLAY PROCESS
    SEGMENT: ?PR?_CH395KEEPLIVEINTVL?CH395

*** WARNING L16: UNCALLED SEGMENT, IGNORED FOR OVERLAY PROCESS
    SEGMENT: ?PR?_CH395SETTTLNUM?CH395

Program Size: data=19.0 xdata=693 code=4347
LINK/LOCATE RUN COMPLETE.  35 WARNING(S),  0 ERROR(S)
