
UDP_Server.elf:     file format elf32-littleriscv
UDP_Server.elf
architecture: riscv:rv32, flags 0x00000112:
EXEC_P, HAS_SYMS, D_PAGED
start address 0x00000000

Program Header:
    LOAD off    0x00001000 vaddr 0x00000000 paddr 0x00000000 align 2**12
         filesz 0x000075e4 memsz 0x000075e4 flags r-x
    LOAD off    0x00009000 vaddr 0x20000000 paddr 0x000075e4 align 2**12
         filesz 0x000000a8 memsz 0x00000ecc flags rw-
    LOAD off    0x0000a000 vaddr 0x20020000 paddr 0x00008000 align 2**12
         filesz 0x0000c2d0 memsz 0x0000c2d0 flags rwx

Sections:
Idx Name          Size      VMA       LMA       File off  Algn
  0 .init         00000004  00000000  00000000  00001000  2**1
                  CONTENTS, ALLOC, LOAD, READONLY, CODE
  1 .vector       000000bc  00000004  00000004  00001004  2**1
                  CONTENTS, ALLOC, LOAD, READONLY, CODE
  2 .text         00007524  000000c0  000000c0  000010c0  2**3
                  CONTENTS, ALLOC, LOAD, READONLY, CODE
  3 .ramcodelalign 00000000  00008000  00008000  000162d0  2**0
                  CONTENTS
  4 .ramcode      0000c2d0  20020000  00008000  0000a000  2**4
                  CONTENTS, ALLOC, LOAD, CODE
  5 .fini         00000000  000075e4  000075e4  000162d0  2**0
                  CONTENTS, ALLOC, LOAD, CODE
  6 .dalign       00000000  20000000  20000000  000162d0  2**0
                  CONTENTS
  7 .dlalign      00000000  000075e4  000075e4  000162d0  2**0
                  CONTENTS
  8 .data         000000a8  20000000  000075e4  00009000  2**2
                  CONTENTS, ALLOC, LOAD, DATA
  9 .bss          00000e24  200000a8  0000768c  000090a8  2**2
                  ALLOC
 10 .heap         00000000  20000ecc  20000ecc  000162d0  2**0
                  CONTENTS
 11 .usrstack     00000000  20004000  20004000  000162d0  2**0
                  CONTENTS
 12 .debug_info   000088fc  00000000  00000000  000162d0  2**0
                  CONTENTS, READONLY, DEBUGGING
 13 .debug_abbrev 000018f7  00000000  00000000  0001ebcc  2**0
                  CONTENTS, READONLY, DEBUGGING
 14 .debug_loc    000010c6  00000000  00000000  000204c3  2**0
                  CONTENTS, READONLY, DEBUGGING
 15 .debug_aranges 000002a8  00000000  00000000  00021589  2**0
                  CONTENTS, READONLY, DEBUGGING
 16 .debug_ranges 000002a0  00000000  00000000  00021831  2**0
                  CONTENTS, READONLY, DEBUGGING
 17 .debug_line   00005497  00000000  00000000  00021ad1  2**0
                  CONTENTS, READONLY, DEBUGGING
 18 .debug_str    00001b3d  00000000  00000000  00026f68  2**0
                  CONTENTS, READONLY, DEBUGGING
 19 .comment      00000033  00000000  00000000  00028aa5  2**0
                  CONTENTS, READONLY
 20 .debug_frame  00000ff8  00000000  00000000  00028ad8  2**2
                  CONTENTS, READONLY, DEBUGGING
 21 .stab         00000084  00000000  00000000  00029ad0  2**2
                  CONTENTS, READONLY, DEBUGGING
 22 .stabstr      00000117  00000000  00000000  00029b54  2**0
                  CONTENTS, READONLY, DEBUGGING
SYMBOL TABLE:
00000000 l    d  .init	00000000 .init
00000004 l    d  .vector	00000000 .vector
000000c0 l    d  .text	00000000 .text
00008000 l    d  .ramcodelalign	00000000 .ramcodelalign
20020000 l    d  .ramcode	00000000 .ramcode
000075e4 l    d  .fini	00000000 .fini
20000000 l    d  .dalign	00000000 .dalign
000075e4 l    d  .dlalign	00000000 .dlalign
20000000 l    d  .data	00000000 .data
200000a8 l    d  .bss	00000000 .bss
20000ecc l    d  .heap	00000000 .heap
20004000 l    d  .usrstack	00000000 .usrstack
00000000 l    d  .debug_info	00000000 .debug_info
00000000 l    d  .debug_abbrev	00000000 .debug_abbrev
00000000 l    d  .debug_loc	00000000 .debug_loc
00000000 l    d  .debug_aranges	00000000 .debug_aranges
00000000 l    d  .debug_ranges	00000000 .debug_ranges
00000000 l    d  .debug_line	00000000 .debug_line
00000000 l    d  .debug_str	00000000 .debug_str
00000000 l    d  .comment	00000000 .comment
00000000 l    d  .debug_frame	00000000 .debug_frame
00000000 l    d  .stab	00000000 .stab
00000000 l    d  .stabstr	00000000 .stabstr
00000000 l    df *ABS*	00000000 ./SRC/Startup/startup_CH56x.o
00000004 l       .vector	00000000 _vector_base
00000000 l    df *ABS*	00000000 tcp.c
00000510 l     F .text	000000dc tcp_new_port
200000e8 l     O .bss	00000001 tcp_timer
2000007c l     O .data	00000004 iss.3741
20000080 l     O .data	00000002 port.3573
00000000 l    df *ABS*	00000000 tcp_in.c
00001a4a l     F .text	000000d4 tcp_parseopt
00001b1e l     F .text	00000112 tcp_oos_insert_segment
00001c30 l     F .text	0000112e tcp_receive
20000138 l     O .bss	00000014 inseg
200000ec l     O .bss	00000004 ackno
200000f0 l     O .bss	00000001 flags
200000f4 l     O .bss	00000004 iphdr
200000f8 l     O .bss	00000004 recv_data
200000fc l     O .bss	00000001 recv_flags
20000100 l     O .bss	00000004 seqno
20000104 l     O .bss	00000004 tcphdr
20000108 l     O .bss	00000002 tcplen
00000000 l    df *ABS*	00000000 tcp_out.c
00004262 l     F .text	000001a8 tcp_output_set_header.constprop.0
00000000 l    df *ABS*	00000000 ip.c
200000d0 l     O .bss	00000002 ip_id.3576
00000000 l    df *ABS*	00000000 mem.c
200000d8 l     O .bss	00000004 ram
200000dc l     O .bss	00000004 ram_end
00000000 l    df *ABS*	00000000 memp.c
20000118 l     O .bss	00000020 memp_tab
00000000 l    df *ABS*	00000000 udp.c
00000000 l    df *ABS*	00000000 pbuf.c
00000000 l    df *ABS*	00000000 ip_addr.c
00000000 l    df *ABS*	00000000 PHY_interrupt.c
00000000 l    df *ABS*	00000000 ethernet_driver.c
00000000 l    df *ABS*	00000000 timer.c
00000000 l    df *ABS*	00000000 Main.c
00000000 l    df *ABS*	00000000 CH56x_clk.c
00000000 l    df *ABS*	00000000 CH56x_gpio.c
00000000 l    df *ABS*	00000000 CH56x_sys.c
200000a8 l     O .bss	00000002 p_ms
200000aa l     O .bss	00000001 p_us
00000000 l    df *ABS*	00000000 ch569sock.c
00000000 l    df *ABS*	00000000 etharp.c
20022022 l     F .ramcode	0000025c find_entry
2002227e l     F .ramcode	000000f2 update_arp_entry
200000b0 l     O .bss	00000001 etharp_cached_entry
00000000 l    df *ABS*	00000000 ethernetif.c
20022a80 l     F .ramcode	00000092 low_level_output
00000000 l    df *ABS*	00000000 ipcheck.c
00000000 l    df *ABS*	00000000 inet.c
00000000 l    df *ABS*	00000000 init.c
00000000 l    df *ABS*	00000000 ip_frag.c
200000d2 l     O .bss	00000002 ip_reass_pbufcount
200000d4 l     O .bss	00000004 reassdatagrams
00000000 l    df *ABS*	00000000 netif.c
200000e0 l     O .bss	00000001 netifnum.2254
00000000 l    df *ABS*	00000000 raw.c
200000e4 l     O .bss	00000004 raw_pcbs
00000000 l    df *ABS*	00000000 icmp.c
20023bd0 l     F .ramcode	000000c6 icmp_send_response
00000000 l    df *ABS*	00000000 inet_chksum.c
20023ff8 l     F .ramcode	00000084 lwip_standard_chksum
00000000 l    df *ABS*	00000000 memcpy.c
00000000 l    df *ABS*	00000000 printf.c
00000000 l    df *ABS*	00000000 putchar.c
00000000 l    df *ABS*	00000000 puts.c
00000000 l    df *ABS*	00000000 wbuf.c
00000000 l    df *ABS*	00000000 wsetup.c
00000000 l    df *ABS*	00000000 fflush.c
00000000 l    df *ABS*	00000000 findfp.c
200247e4 l     F .ramcode	0000006a std
00000000 l    df *ABS*	00000000 fwalk.c
00000000 l    df *ABS*	00000000 makebuf.c
00000000 l    df *ABS*	00000000 nano-mallocr.c
00000000 l    df *ABS*	00000000 nano-mallocr.c
00000000 l    df *ABS*	00000000 nano-vfprintf.c
20024ca6 l     F .ramcode	0000002a __sfputc_r
00000000 l    df *ABS*	00000000 nano-vfprintf_i.c
00000000 l    df *ABS*	00000000 putc.c
00000000 l    df *ABS*	00000000 sbrkr.c
00000000 l    df *ABS*	00000000 stdio.c
00000000 l    df *ABS*	00000000 writer.c
00000000 l    df *ABS*	00000000 closer.c
00000000 l    df *ABS*	00000000 fstatr.c
00000000 l    df *ABS*	00000000 isattyr.c
00000000 l    df *ABS*	00000000 lseekr.c
00000000 l    df *ABS*	00000000 memchr.c
00000000 l    df *ABS*	00000000 mlock.c
00000000 l    df *ABS*	00000000 readr.c
00000000 l    df *ABS*	00000000 close.c
00000000 l    df *ABS*	00000000 fstat.c
00000000 l    df *ABS*	00000000 isatty.c
00000000 l    df *ABS*	00000000 lseek.c
00000000 l    df *ABS*	00000000 read.c
00000000 l    df *ABS*	00000000 sbrk.c
20000114 l     O .bss	00000004 heap_end.1518
00000000 l    df *ABS*	00000000 mem_malloc.c
00000000 l    df *ABS*	00000000 impure.c
20000000 l     O .data	00000060 impure_data
00000000 l    df *ABS*	00000000 reent.c
0000748c g     F .text	00000028 GPIO_IRQHandler
2002435c g     F .ramcode	0000002e putchar
200241a6 g     F .ramcode	00000012 inet_chksum
20023b3c g     F .ramcode	00000026 raw_bind
20023090 g     F .ramcode	00000574 ip_reass
000070c2 g     F .text	000000f6 pbuf_realloc
20025568 g     F .ramcode	00000030 _isatty_r
0000175e g     F .text	0000001a tcp_next_iss
2002438a g     F .ramcode	000000da _puts_r
00000890 g     F .text	000000a6 tcp_update_rcv_ann_wnd
20025598 g     F .ramcode	00000034 _lseek_r
20000ea0 g     O .bss	00000004 netif_list
000000dc  w      .text	00000000 EMMC_IRQHandler
20020d20 g     F .ramcode	00000006 Net_TimerIsr
000051ac g     F .text	00000164 tcp_rst
000000d2  w      .text	00000000 LINK_IRQHandler
20021ea6 g     F .ramcode	00000026 CH569NET_MainTask
200000cc g     O .bss	00000004 TCPTimer
200225ee g     F .ramcode	0000012e etharp_request
20000dc4 g     O .bss	00000001 PingEnable
20024318 g     F .ramcode	00000044 printf
20020008 g     F .ramcode	00000028 .hidden __riscv_save_8
00000a48 g     F .text	0000001c tcp_err
20000098 g     O .data	00000004 ip_addr_any
2002407c g     F .ramcode	0000012a inet_chksum_pseudo
200204b2 g     F .ramcode	000000e0 ETH_StructInit
20025494 g     F .ramcode	00000036 __sseek
2002489e g     F .ramcode	0000006a __sinit
00004a3e g     F .text	0000001e tcp_send_ctrl
20024472 g     F .ramcode	000000c0 __swbuf_r
0000759c g     F .text	00000048 HardFault_Handler
00005afa g     F .text	000001f4 ip_output_if
20024858 g     F .ramcode	00000046 __sfmoreglue
20020108 g     F .ramcode	000000bc phy_int_cheak_init
00006196 g     F .text	00000018 memp_free
200255e8 g     F .ramcode	00000002 __malloc_unlock
00006dce g     F .text	0000008e pbuf_free
20020054 g     F .ramcode	0000000c .hidden __riscv_restore_3
200207e0 g     F .ramcode	000002e4 ETH_Init
000000c4  w      .text	00000000 SysTick_Handler
00007204 g     F .text	0000006e pbuf_cat
20000dc8 g     O .bss	00000014 CH569Cfg
20021e40 g     F .ramcode	0000002c CH569NET_GetSocketInt
00005cee g     F .text	0000003c ip_output
20020040 g     F .ramcode	00000020 .hidden __riscv_restore_10
0000665a g     F .text	00000054 udp_sendto
000000c0  w      .text	00000000 NMI_Handler
20020e80 g     F .ramcode	0000005e CH569NET_HandleSockInt
00005546 g     F .text	00000068 tcp_keepalive
20022370 g     F .ramcode	00000080 etharp_tmr
20020008 g     F .ramcode	00000028 .hidden __riscv_save_11
00001778 g     F .text	00000284 tcp_alloc
000000e4  w      .text	00000000 UART1_IRQHandler
20022b12 g     F .ramcode	00000038 low_level_init
20025d60 g     O .ramcode	00000010 MemSize
000066ae g     F .text	000002d8 udp_sendto_if
00000a2c g     F .text	0000001c tcp_arg
20021a54 g     F .ramcode	00000208 CH569NET_SocketCreat
000000da  w      .text	00000000 USBHS_IRQHandler
20022448 g     F .ramcode	000001a6 etharp_arp_input
20000ea8 g     O .bss	00000004 tcp_active_pcbs
20025536 g     F .ramcode	00000032 _fstat_r
20000ec4 g     O .bss	00000004 udp_pcbs
20000ec8 g     O .bss	00000004 errno
200229fc g     F .ramcode	00000084 ethernet_input
200000a8 g       .bss	00000000 _sbss
00000800 g       *ABS*	00000000 __stack_size
000071e4 g     F .text	00000020 pbuf_ref
00001434 g     F .text	00000040 tcp_recv_null
20000e94 g     O .bss	00000004 current_netif
000012b8 g     F .text	0000017c tcp_close
20000860 g       .data	00000000 _global_pointer$
20000e88 g     O .bss	0000000c SelARP
00000936 g     F .text	0000006c tcp_recved
20020054 g     F .ramcode	0000000c .hidden __riscv_restore_2
00000a64 g     F .text	00000102 tcp_pcb_purge
000000d8  w      .text	00000000 UART0_IRQHandler
2000009c g     O .data	00000007 tcp_persist_backoff
20000e9c g     O .bss	00000004 lfree
20021a0a g     F .ramcode	00000016 CH569NET_ConfigKeepLive
20024262 g     F .ramcode	000000b6 memcpy
00005d7e g     F .text	000000fa mem_free
20000eac g     O .bss	00000004 tcp_ticks
2002068c g     F .ramcode	00000050 ETH_buf_init
20000eb0 g     O .bss	00000004 tcp_listen_pcbs
00005310 g     F .text	000000a0 tcp_rexmit_rto
2002484e g     F .ramcode	0000000a _cleanup_r
0000743a g     F .text	00000052 ip_addr_isbroadcast
20000ccc g     O .bss	00000004 DMARxDescToGet
000019fc g     F .text	00000016 tcp_new
20022e4e g     F .ramcode	0000005c IPCheckTmr
20024464 g     F .ramcode	0000000e puts
20000ddc g     O .bss	00000018 DHCPCtrl
200241b8 g     F .ramcode	000000aa inet_chksum_pbuf
000000c6  w      .text	00000000 SWI_Handler
2002562e g     F .ramcode	00000010 _fstat
20023c96 g     F .ramcode	0000033e icmp_input
00000004 g       .init	00000000 _einit
200218b0 g     F .ramcode	0000015a CH569NET_Init
20023a36 g     F .ramcode	00000066 netif_add
20020000 g     F .ramcode	00000030 .hidden __riscv_save_12
000009d4 g     F .text	00000024 tcp_segs_free
00007548 g     F .text	0000002a PMT_IRQHandler
20023898 g     F .ramcode	00000142 netif_set_ipaddr
20020040 g     F .ramcode	00000020 .hidden __riscv_restore_11
000000e2  w      .text	00000000 SPI1_IRQHandler
200253e6 g     F .ramcode	00000030 _sbrk_r
20021c5c g     F .ramcode	00000122 CH569NET_SocketUdpSendTo
20020030 g     F .ramcode	0000000c .hidden __riscv_save_1
00007572 g     F .text	0000002a TMR0_IRQHandler
20020054 g     F .ramcode	0000000c .hidden __riscv_restore_0
200255ea g     F .ramcode	00000034 _read_r
20020016 g     F .ramcode	0000001a .hidden __riscv_save_7
20020dee g     F .ramcode	00000026 net_initkeeplive
000005ec g     F .text	000002a4 tcp_bind
20021208 g     F .ramcode	00000330 GPIOB_ITModeCfg
20023fe6 g     F .ramcode	00000012 icmp_time_exceeded
20023604 g     F .ramcode	00000294 ip_frag
20021562 g     F .ramcode	0000002c mDelaymS
000000f0  w      .text	00000000 ECDC_IRQHandler
2002030a g     F .ramcode	0000002a ETH_GPIO_Init
20020f4e g     F .ramcode	00000072 CH569NET_CreatUpdSocket
2002563e g     F .ramcode	00000010 _isatty
20020bd6 g     F .ramcode	0000002a ETH_init
200000a4 g     O .data	00000004 _global_impure_ptr
2002004a g     F .ramcode	00000016 .hidden __riscv_restore_5
20000160 g     O .bss	00000001 SocketId
20020000 g       .ramcode	00000000 _ramcode_vma
2002566e g     F .ramcode	00000030 _sbrk
0000728a g     F .text	000001b0 pbuf_copy
000053b0 g     F .text	000000da tcp_rexmit
20000cd0 g     O .bss	00000004 DMATxDescToSet
20020ac4 g     F .ramcode	000000b2 ETH_MACDMA_Config
2002004a g     F .ramcode	00000016 .hidden __riscv_restore_6
20000eb4 g     O .bss	00000004 tcp_tmp_pcb
20000ecc g       .bss	00000000 _ebss
20000164 g     O .bss	000005b4 MyBuf
20028450 g     O .ramcode	0000120c Mem_Heap_Memory
200000bc g     O .bss	00000004 DHCPcoarseTimer
20000df4 g     O .bss	00000001 SocketNum
20020334 g     F .ramcode	00000032 RGMII_TXC_Delay
20021538 g     F .ramcode	0000002a Delay_Init
00005d2a g     F .text	00000054 mem_init
000000de  w      .text	00000000 DVP_IRQHandler
200206dc g     F .ramcode	00000040 Check_TxDes
00004ad6 g     F .text	000006d6 tcp_output
000000d0  w      .text	00000000 USBSS_IRQHandler
20025360 g     F .ramcode	00000086 _putc_r
20020392 g     F .ramcode	00000030 ETH_uClock_enable
20000ec0 g     O .bss	00000004 tcp_input_pcb
20023aae g     F .ramcode	0000008e raw_input
00004a5c g     F .text	0000007a tcp_send_empty_ack
20020008 g     F .ramcode	00000028 .hidden __riscv_save_9
0000548a g     F .text	000000bc tcp_rexmit_fast
20000e54 g     O .bss	00000034 CH569NetIf
2002965c g     O .ramcode	00002c73 Memp_Memory
20022f24 g     F .ramcode	0000000a ntohl
2000014c g     O .bss	0000000c globe_eth_status
2002071c g     F .ramcode	0000000e ETH_SoftwareReset
20025eb0 g     O .ramcode	00000020 __sf_fake_stderr
20020016 g     F .ramcode	0000001a .hidden __riscv_save_4
20023a9c g     F .ramcode	0000000a netif_set_default
2002078c g     F .ramcode	00000054 ETH_WritePHYRegister
00006c74 g     F .text	0000002e udp_recv
20000ecc g       .bss	00000000 end
20000158 g     O .bss	00000008 Globe_RxDes_status
000000e6  w      .text	00000000 UART2_IRQHandler
20020fc0 g     F .ramcode	00000028 register_if_fn
00008000 g       .ramcodelalign	00000000 _ramcode_lma
20022eaa g     F .ramcode	0000003a IPConflictHandle
00006e5c g     F .text	00000266 pbuf_alloc
20022e26 g     F .ramcode	00000028 SelIPARPSend
20021de6 g     F .ramcode	00000048 CH569NET_QueryGlobalInt
20020e14 g     F .ramcode	0000006c CH569NET_LibInit
20024cd0 g     F .ramcode	00000042 __sfputs_r
200255cc g     F .ramcode	0000001a memchr
20022f46 g     F .ramcode	0000014a ip_reass_tmr
20000078 g     O .data	00000004 memp_sizes
20024b0e g     F .ramcode	000000b0 _free_r
20020030 g     F .ramcode	0000000c .hidden __riscv_save_3
00006b1e g     F .text	00000156 udp_connect
20000e98 g     O .bss	00000004 current_header
20025d70 g     O .ramcode	00000010 ErrTable
200239da g     F .ramcode	0000005c netif_set_addr
20020d9c g     F .ramcode	00000052 DebugInit
00000000 g       .init	00000000 _start
20020c00 g     F .ramcode	000000ec ETH_MACDMA_reConfig
2002564e g     F .ramcode	00000010 _lseek
00006176 g     F .text	00000020 memp_malloc
20021d7e g     F .ramcode	00000068 CH569ScokedIntHandle
000055ae g     F .text	00000128 tcp_zero_window_probe
20020b76 g     F .ramcode	00000060 Mac_init
200000b8 g     O .bss	00000004 DHCPTestTimer
20000df8 g     O .bss	0000000c KeepLiveCfg
20020374 g     F .ramcode	0000001e ETH_Mem_Malloc
20000eb8 g     O .bss	00000004 tcp_bound_pcbs
20022f00 g     F .ramcode	00000024 htonl
000009a2 g     F .text	00000032 tcp_seg_free
000000d6  w      .text	00000000 TMR2_IRQHandler
20021a40 g     F .ramcode	00000004 CH569NET_GetVer
20021f30 g     F .ramcode	000000aa LwipRemoveTcpPcb
20022cfa g     F .ramcode	00000106 LwIPPeriodicHandle
200000ac g     O .bss	00000004 CH569NETConfig
200203c2 g     F .ramcode	0000009a mac_send
2002072a g     F .ramcode	0000000a ETH_GetSoftwareResetStatus
20025506 g     F .ramcode	00000030 _close_r
00005fb2 g     F .text	0000016a mem_malloc
20000000 g       .dalign	00000000 _data_vma
20000e04 g     O .bss	00000044 CH569Inf
200205d0 g     F .ramcode	00000054 ETH_DMARxDescChainInit
200215b6 g     F .ramcode	00000002 CH569TCPError
20024532 g     F .ramcode	00000110 __swsetup_r
20020734 g     F .ramcode	00000058 ETH_ReadPHYRegister
20024908 g     F .ramcode	000000a2 __sfp
0000440a g     F .text	00000634 tcp_enqueue
00001a12 g     F .text	00000038 tcp_eff_send_mss
20020008 g     F .ramcode	00000028 .hidden __riscv_save_10
20021ecc g     F .ramcode	00000064 CH569FileCorrectTCBPcb
20025416 g     F .ramcode	00000030 __sread
200255e6 g     F .ramcode	00000002 __malloc_lock
2002004a g     F .ramcode	00000016 .hidden __riscv_restore_4
20020040 g     F .ramcode	00000020 .hidden __riscv_restore_8
2002477e g     F .ramcode	00000066 _fflush_r
20020016 g     F .ramcode	0000001a .hidden __riscv_save_6
20023b62 g     F .ramcode	00000026 raw_connect
20025ed0 g     O .ramcode	00000020 __sf_fake_stdin
20000064 g     O .data	00000004 DESIP
20020060 g     F .ramcode	000000a8 memset
20020040 g     F .ramcode	00000020 .hidden __riscv_restore_9
2002004a g     F .ramcode	00000016 .hidden __riscv_restore_7
20020fe8 g     F .ramcode	00000126 main
200000c8 g     O .bss	00000004 LocalTime
20023fd4 g     F .ramcode	00000012 icmp_dest_unreach
200215b8 g     F .ramcode	0000014c SocketIPRAWReceive
20020366 g     F .ramcode	0000000e Get_TxBuff_Addr
20023aa6 g     F .ramcode	00000008 netif_is_up
200254ca g     F .ramcode	00000006 __sclose
20021868 g     F .ramcode	00000048 CH569SocketInit
20022ef2 g     F .ramcode	0000000e ntohs
20024bbe g     F .ramcode	000000e8 _malloc_r
200000c4 g     O .bss	00000004 IPFragTimer
20023b8e g     F .ramcode	00000042 raw_new
20022b78 g     F .ramcode	000000e0 ethernetif_input
2002045c g     F .ramcode	00000056 mac_rece
200201c4 g     F .ramcode	00000146 cheak_phy_int
00006986 g     F .text	00000198 udp_bind
00001566 g     F .text	00000030 tcp_tmr
2002271c g     F .ramcode	0000015a etharp_query
20022f2e g     F .ramcode	00000018 lwip_init
20022876 g     F .ramcode	00000186 etharp_output
2002110e g     F .ramcode	000000fa SystemInit
20024318 g     F .ramcode	00000044 iprintf
2002200e g     F .ramcode	00000014 frame_input
000071b8 g     F .text	0000002c pbuf_clen
00000000 g       .init	00000000 _sinit
200254d0 g     F .ramcode	00000036 _write_r
2002184a g     F .ramcode	0000001e ErrorEncode
20023b88 g     F .ramcode	00000006 raw_recv
20025d50 g     O .ramcode	00000010 MemNum
000074b4 g     F .text	00000094 ETH_IRQHandler
20024fb0 g     F .ramcode	0000010c _printf_common
20000084 g     O .data	00000004 _impure_ptr
20021a20 g     F .ramcode	00000020 CH569NET_ConfigLIB
00000b66 g     F .text	000005de tcp_slowtmr
20021e2e g     F .ramcode	00000012 CH569NET_GetGlobalInt
20024642 g     F .ramcode	0000013c __sflush_r
20000060 g     O .data	00000004 CH569IPAddr
20022b4a g     F .ramcode	0000002e ethernetif_init
20004000 g       .usrstack	00000000 _eusrstack
20020030 g     F .ramcode	0000000c .hidden __riscv_save_2
20022e00 g     F .ramcode	00000026 IPCheckParaInit
2002c2d0 g       .ramcode	00000000 _eramcode
20024a16 g     F .ramcode	0000005a __swhatbuf_r
20000ebc g     O .bss	00000004 tcp_tw_pcbs
000061ae g     F .text	000004ac udp_input
20020d26 g     F .ramcode	00000076 CH569NET_UdpServerRecv
20020016 g     F .ramcode	0000001a .hidden __riscv_save_5
200000c0 g     O .bss	00000004 DHCPfineTimer
2002158e g     F .ramcode	00000028 _write
200000a8 g       .data	00000000 _edata
000000ce  w      .text	00000000 SPI0_IRQHandler
20022ee4 g     F .ramcode	0000000e htons
000056d6 g     F .text	0000006e ip_route
000075e4 g       .dlalign	00000000 _data_lma
00006ce6 g     F .text	000000e8 pbuf_header
00005e78 g     F .text	0000013a mem_realloc
20000ea4 g     O .bss	00000004 netif_default
0000119e g     F .text	0000011a tcp_pcb_remove
2000006c g     O .data	00000004 SubMaskIp
20025446 g     F .ramcode	0000004e __swrite
20021e6c g     F .ramcode	0000003a CH569IPSetSocketRecvInit
00007272 g     F .text	00000018 pbuf_chain
20028350 g     O .ramcode	00000100 Mem_ArpTable
20025f50 g     O .ramcode	00002400 MAC_QUEUE
200000b4 g     O .bss	00000004 ARPTimer
00001596 g     F .text	000001c8 tcp_abandon
20021704 g     F .ramcode	00000146 SocketUdpReceive
20024d12 g     F .ramcode	0000029e _vfiprintf_r
20000070 g     O .data	00000006 local_mac
20020592 g     F .ramcode	0000003e ETH_MACAddressConfig
200249aa g     F .ramcode	0000006c _fwalk_reent
20000cd4 g     O .bss	000000f0 SocketInf
0000611c g     F .text	0000005a memp_init
00001474 g     F .text	000000f2 tcp_fasttmr
20020cec g     F .ramcode	00000034 TMR0_init
20025ef0 g     O .ramcode	00000020 __sf_fake_stdout
200223f0 g     F .ramcode	00000058 etharp_ip_input
20021a44 g     F .ramcode	00000010 CH569NET_TimeIsr
2002003c g     F .ramcode	00000024 .hidden __riscv_restore_12
000000c8  w      .text	00000000 WDOG_IRQHandler
20020ede g     F .ramcode	00000070 CH569NET_HandleGlobalInt
000000e0  w      .text	00000000 HSPI_IRQHandler
20000e48 g     O .bss	0000000c ethernet_if
2002565e g     F .ramcode	00000010 _read
000000f2  w      .text	00000000 handle_reset
20000718 g     O .bss	000005b4 SocketRecvBuf
20020030 g     F .ramcode	0000000c .hidden __riscv_save_0
20021fda g     F .ramcode	0000000a QueryPingEnable
000009f8 g     F .text	00000034 tcp_seg_copy
20024a70 g     F .ramcode	0000009e __smakebuf_r
20022c58 g     F .ramcode	000000a2 SetupNetif
200250bc g     F .ramcode	000002a4 _printf_i
00006ca2 g     F .text	00000044 udp_new
000000e8  w      .text	00000000 UART3_IRQHandler
20000110 g     O .bss	00000004 __malloc_sbrk_start
20000068 g     O .data	00000004 GatewayIp
20000088 g     O .data	00000006 ethbroadcast
20025e04 g     O .ramcode	00000014 tcp_backoff
2000010c g     O .bss	00000004 __malloc_free_list
20020054 g     F .ramcode	0000000c .hidden __riscv_restore_1
20024d12 g     F .ramcode	0000029e _vfprintf_r
000000d4  w      .text	00000000 TMR1_IRQHandler
20022002 g     F .ramcode	0000000c LwipArpCheck
000000ea  w      .text	00000000 SERDES_IRQHandler
00002d5e g     F .text	00001504 tcp_input
00001144 g     F .text	0000005a RemoveTimeWaiTCP
00005744 g     F .text	000003b6 ip_input
20000090 g     O .data	00000006 ethzero
2002561e g     F .ramcode	00000010 _close
20021fe4 g     F .ramcode	0000001e LwipUnreachPort
20020624 g     F .ramcode	00000068 ETH_DMATxDescChainInit



Disassembly of section .init:

00000000 <_sinit>:
   0:	0f20006f          	j	f2 <handle_reset>

Disassembly of section .vector:

00000004 <_vector_base>:
	...
   c:	0b40006f          	j	c0 <NMI_Handler>
  10:	58c0706f          	j	759c <HardFault_Handler>
	...
  34:	0900006f          	j	c4 <SysTick_Handler>
  38:	0000                	unimp
  3a:	0000                	unimp
  3c:	08a0006f          	j	c6 <SWI_Handler>
  40:	0000                	unimp
  42:	0000                	unimp
  44:	0840006f          	j	c8 <WDOG_IRQHandler>
  48:	52a0706f          	j	7572 <TMR0_IRQHandler>
  4c:	4400706f          	j	748c <GPIO_IRQHandler>
  50:	07e0006f          	j	ce <SPI0_IRQHandler>
  54:	07c0006f          	j	d0 <USBSS_IRQHandler>
  58:	07a0006f          	j	d2 <LINK_IRQHandler>
  5c:	0780006f          	j	d4 <TMR1_IRQHandler>
  60:	0760006f          	j	d6 <TMR2_IRQHandler>
  64:	0740006f          	j	d8 <UART0_IRQHandler>
  68:	0720006f          	j	da <USBHS_IRQHandler>
  6c:	0700006f          	j	dc <EMMC_IRQHandler>
  70:	06e0006f          	j	de <DVP_IRQHandler>
  74:	06c0006f          	j	e0 <HSPI_IRQHandler>
  78:	06a0006f          	j	e2 <SPI1_IRQHandler>
  7c:	0680006f          	j	e4 <UART1_IRQHandler>
  80:	0660006f          	j	e6 <UART2_IRQHandler>
  84:	0640006f          	j	e8 <UART3_IRQHandler>
  88:	0620006f          	j	ea <SERDES_IRQHandler>
  8c:	4280706f          	j	74b4 <ETH_IRQHandler>
  90:	4b80706f          	j	7548 <PMT_IRQHandler>
  94:	05c0006f          	j	f0 <ECDC_IRQHandler>
	...

Disassembly of section .text:

000000c0 <NMI_Handler>:
      c0:	a001                	j	c0 <NMI_Handler>
      c2:	a001                	j	c2 <NMI_Handler+0x2>

000000c4 <SysTick_Handler>:
      c4:	a001                	j	c4 <SysTick_Handler>

000000c6 <SWI_Handler>:
      c6:	a001                	j	c6 <SWI_Handler>

000000c8 <WDOG_IRQHandler>:
      c8:	a001                	j	c8 <WDOG_IRQHandler>
      ca:	a001                	j	ca <WDOG_IRQHandler+0x2>
      cc:	a001                	j	cc <WDOG_IRQHandler+0x4>

000000ce <SPI0_IRQHandler>:
      ce:	a001                	j	ce <SPI0_IRQHandler>

000000d0 <USBSS_IRQHandler>:
      d0:	a001                	j	d0 <USBSS_IRQHandler>

000000d2 <LINK_IRQHandler>:
      d2:	a001                	j	d2 <LINK_IRQHandler>

000000d4 <TMR1_IRQHandler>:
      d4:	a001                	j	d4 <TMR1_IRQHandler>

000000d6 <TMR2_IRQHandler>:
      d6:	a001                	j	d6 <TMR2_IRQHandler>

000000d8 <UART0_IRQHandler>:
      d8:	a001                	j	d8 <UART0_IRQHandler>

000000da <USBHS_IRQHandler>:
      da:	a001                	j	da <USBHS_IRQHandler>

000000dc <EMMC_IRQHandler>:
      dc:	a001                	j	dc <EMMC_IRQHandler>

000000de <DVP_IRQHandler>:
      de:	a001                	j	de <DVP_IRQHandler>

000000e0 <HSPI_IRQHandler>:
      e0:	a001                	j	e0 <HSPI_IRQHandler>

000000e2 <SPI1_IRQHandler>:
      e2:	a001                	j	e2 <SPI1_IRQHandler>

000000e4 <UART1_IRQHandler>:
      e4:	a001                	j	e4 <UART1_IRQHandler>

000000e6 <UART2_IRQHandler>:
      e6:	a001                	j	e6 <UART2_IRQHandler>

000000e8 <UART3_IRQHandler>:
      e8:	a001                	j	e8 <UART3_IRQHandler>

000000ea <SERDES_IRQHandler>:
      ea:	a001                	j	ea <SERDES_IRQHandler>
      ec:	a001                	j	ec <SERDES_IRQHandler+0x2>
      ee:	a001                	j	ee <SERDES_IRQHandler+0x4>

000000f0 <ECDC_IRQHandler>:
      f0:	a001                	j	f0 <ECDC_IRQHandler>

000000f2 <handle_reset>:
      f2:	20000197          	auipc	gp,0x20000
      f6:	76e18193          	addi	gp,gp,1902 # 20000860 <_global_pointer$>
      fa:	20004117          	auipc	sp,0x20004
      fe:	f0610113          	addi	sp,sp,-250 # 20004000 <_eusrstack>
     102:	00008517          	auipc	a0,0x8
     106:	efe50513          	addi	a0,a0,-258 # 8000 <_ramcode_lma>
     10a:	20020597          	auipc	a1,0x20020
     10e:	ef658593          	addi	a1,a1,-266 # 20020000 <__riscv_save_12>
     112:	2002c617          	auipc	a2,0x2002c
     116:	1be60613          	addi	a2,a2,446 # 2002c2d0 <_eramcode>
     11a:	00c5fa63          	bgeu	a1,a2,12e <handle_reset+0x3c>
     11e:	00052283          	lw	t0,0(a0)
     122:	0055a023          	sw	t0,0(a1)
     126:	0511                	addi	a0,a0,4
     128:	0591                	addi	a1,a1,4
     12a:	fec5eae3          	bltu	a1,a2,11e <handle_reset+0x2c>
     12e:	00007517          	auipc	a0,0x7
     132:	4b650513          	addi	a0,a0,1206 # 75e4 <_data_lma>
     136:	20000597          	auipc	a1,0x20000
     13a:	eca58593          	addi	a1,a1,-310 # 20000000 <_data_vma>
     13e:	20000617          	auipc	a2,0x20000
     142:	f6a60613          	addi	a2,a2,-150 # 200000a8 <_edata>
     146:	00c5fa63          	bgeu	a1,a2,15a <handle_reset+0x68>
     14a:	00052283          	lw	t0,0(a0)
     14e:	0055a023          	sw	t0,0(a1)
     152:	0511                	addi	a0,a0,4
     154:	0591                	addi	a1,a1,4
     156:	fec5eae3          	bltu	a1,a2,14a <handle_reset+0x58>
     15a:	20000517          	auipc	a0,0x20000
     15e:	f4e50513          	addi	a0,a0,-178 # 200000a8 <_edata>
     162:	20001597          	auipc	a1,0x20001
     166:	d6a58593          	addi	a1,a1,-662 # 20000ecc <_ebss>
     16a:	00b57763          	bgeu	a0,a1,178 <handle_reset+0x86>
     16e:	00052023          	sw	zero,0(a0)
     172:	0511                	addi	a0,a0,4
     174:	feb56de3          	bltu	a0,a1,16e <handle_reset+0x7c>
     178:	08800293          	li	t0,136
     17c:	3002a073          	csrs	mstatus,t0
     180:	00000297          	auipc	t0,0x0
     184:	e8428293          	addi	t0,t0,-380 # 4 <_einit>
     188:	0012e293          	ori	t0,t0,1
     18c:	30529073          	csrw	mtvec,t0
     190:	20021297          	auipc	t0,0x20021
     194:	e5828293          	addi	t0,t0,-424 # 20020fe8 <main>
     198:	34129073          	csrw	mepc,t0
     19c:	30200073          	mret
     1a0:	00000263          	beqz	zero,1a4 <handle_reset+0xb2>
     1a4:	00350003          	lb	zero,3(a0)
     1a8:	0000                	unimp
     1aa:	0101                	addi	sp,sp,0
     1ac:	000d0efb          	0xd0efb
     1b0:	0101                	addi	sp,sp,0
     1b2:	0101                	addi	sp,sp,0
     1b4:	0000                	unimp
     1b6:	0100                	addi	s0,sp,128
     1b8:	0000                	unimp
     1ba:	2e01                	jal	4ca <handle_reset+0x3d8>
     1bc:	2f2e                	fld	ft10,200(sp)
     1be:	2f435253          	0x2f435253
     1c2:	72617453          	0x72617453
     1c6:	7574                	flw	fa3,108(a0)
     1c8:	0070                	addi	a2,sp,12
     1ca:	7300                	flw	fs0,32(a4)
     1cc:	6174                	flw	fa3,68(a0)
     1ce:	7472                	flw	fs0,60(sp)
     1d0:	7075                	c.lui	zero,0xffffd
     1d2:	435f 3548 7836      	0x78363548435f
     1d8:	532e                	lw	t1,232(sp)
     1da:	0100                	addi	s0,sp,128
     1dc:	0000                	unimp
     1de:	0000                	unimp
     1e0:	0205                	addi	tp,tp,1
     1e2:	0000                	unimp
     1e4:	0000                	unimp
     1e6:	09010c03          	lb	s8,144(sp)
     1ea:	0004                	0x4
     1ec:	0100                	addi	s0,sp,128
     1ee:	0001                	nop
     1f0:	0205                	addi	tp,tp,1
     1f2:	000c                	0xc
     1f4:	0000                	unimp
     1f6:	03011403          	lh	s0,48(sp)
     1fa:	0901                	addi	s2,s2,0
     1fc:	0004                	0x4
     1fe:	0301                	addi	t1,t1,0
     200:	0909                	addi	s2,s2,2
     202:	0024                	addi	s1,sp,8
     204:	0301                	addi	t1,t1,0
     206:	0902                	c.slli64	s2
     208:	0008                	0x8
     20a:	0301                	addi	t1,t1,0
     20c:	00080903          	lb	s2,0(a6)
     210:	0301                	addi	t1,t1,0
     212:	0901                	addi	s2,s2,0
     214:	0004                	0x4
     216:	0301                	addi	t1,t1,0
     218:	0901                	addi	s2,s2,0
     21a:	0004                	0x4
     21c:	0301                	addi	t1,t1,0
     21e:	0901                	addi	s2,s2,0
     220:	0004                	0x4
     222:	0301                	addi	t1,t1,0
     224:	0901                	addi	s2,s2,0
     226:	0004                	0x4
     228:	0301                	addi	t1,t1,0
     22a:	0901                	addi	s2,s2,0
     22c:	0004                	0x4
     22e:	0301                	addi	t1,t1,0
     230:	0901                	addi	s2,s2,0
     232:	0004                	0x4
     234:	0301                	addi	t1,t1,0
     236:	0901                	addi	s2,s2,0
     238:	0004                	0x4
     23a:	0301                	addi	t1,t1,0
     23c:	0901                	addi	s2,s2,0
     23e:	0004                	0x4
     240:	0301                	addi	t1,t1,0
     242:	0901                	addi	s2,s2,0
     244:	0004                	0x4
     246:	0301                	addi	t1,t1,0
     248:	0901                	addi	s2,s2,0
     24a:	0004                	0x4
     24c:	0301                	addi	t1,t1,0
     24e:	0901                	addi	s2,s2,0
     250:	0004                	0x4
     252:	0301                	addi	t1,t1,0
     254:	0901                	addi	s2,s2,0
     256:	0004                	0x4
     258:	0301                	addi	t1,t1,0
     25a:	0901                	addi	s2,s2,0
     25c:	0004                	0x4
     25e:	0301                	addi	t1,t1,0
     260:	0901                	addi	s2,s2,0
     262:	0004                	0x4
     264:	0301                	addi	t1,t1,0
     266:	0901                	addi	s2,s2,0
     268:	0004                	0x4
     26a:	0301                	addi	t1,t1,0
     26c:	0901                	addi	s2,s2,0
     26e:	0004                	0x4
     270:	0301                	addi	t1,t1,0
     272:	0901                	addi	s2,s2,0
     274:	0004                	0x4
     276:	0301                	addi	t1,t1,0
     278:	0901                	addi	s2,s2,0
     27a:	0004                	0x4
     27c:	0301                	addi	t1,t1,0
     27e:	0901                	addi	s2,s2,0
     280:	0004                	0x4
     282:	0301                	addi	t1,t1,0
     284:	0901                	addi	s2,s2,0
     286:	0004                	0x4
     288:	0901                	addi	s2,s2,0
     28a:	0004                	0x4
     28c:	0100                	addi	s0,sp,128
     28e:	0001                	nop
     290:	0205                	addi	tp,tp,1
     292:	00c0                	addi	s0,sp,68
     294:	0000                	unimp
     296:	0100d603          	lhu	a2,16(ra)
     29a:	02090103          	lb	sp,32(s2)
     29e:	0100                	addi	s0,sp,128
     2a0:	02090103          	lb	sp,32(s2)
     2a4:	0100                	addi	s0,sp,128
     2a6:	02090103          	lb	sp,32(s2)
     2aa:	0100                	addi	s0,sp,128
     2ac:	02090103          	lb	sp,32(s2)
     2b0:	0100                	addi	s0,sp,128
     2b2:	02090103          	lb	sp,32(s2)
     2b6:	0100                	addi	s0,sp,128
     2b8:	02090103          	lb	sp,32(s2)
     2bc:	0100                	addi	s0,sp,128
     2be:	02090103          	lb	sp,32(s2)
     2c2:	0100                	addi	s0,sp,128
     2c4:	02090103          	lb	sp,32(s2)
     2c8:	0100                	addi	s0,sp,128
     2ca:	02090103          	lb	sp,32(s2)
     2ce:	0100                	addi	s0,sp,128
     2d0:	02090103          	lb	sp,32(s2)
     2d4:	0100                	addi	s0,sp,128
     2d6:	02090103          	lb	sp,32(s2)
     2da:	0100                	addi	s0,sp,128
     2dc:	02090103          	lb	sp,32(s2)
     2e0:	0100                	addi	s0,sp,128
     2e2:	02090103          	lb	sp,32(s2)
     2e6:	0100                	addi	s0,sp,128
     2e8:	02090103          	lb	sp,32(s2)
     2ec:	0100                	addi	s0,sp,128
     2ee:	02090103          	lb	sp,32(s2)
     2f2:	0100                	addi	s0,sp,128
     2f4:	02090103          	lb	sp,32(s2)
     2f8:	0100                	addi	s0,sp,128
     2fa:	02090103          	lb	sp,32(s2)
     2fe:	0100                	addi	s0,sp,128
     300:	02090103          	lb	sp,32(s2)
     304:	0100                	addi	s0,sp,128
     306:	02090103          	lb	sp,32(s2)
     30a:	0100                	addi	s0,sp,128
     30c:	02090103          	lb	sp,32(s2)
     310:	0100                	addi	s0,sp,128
     312:	02090103          	lb	sp,32(s2)
     316:	0100                	addi	s0,sp,128
     318:	02090103          	lb	sp,32(s2)
     31c:	0100                	addi	s0,sp,128
     31e:	02090103          	lb	sp,32(s2)
     322:	0100                	addi	s0,sp,128
     324:	02090103          	lb	sp,32(s2)
     328:	0100                	addi	s0,sp,128
     32a:	0209                	addi	tp,tp,2
     32c:	0000                	unimp
     32e:	0101                	addi	sp,sp,0
     330:	0500                	addi	s0,sp,640
     332:	f202                	fsw	ft0,36(sp)
     334:	0000                	unimp
     336:	0300                	addi	s0,sp,384
     338:	00f6                	slli	ra,ra,0x1d
     33a:	0301                	addi	t1,t1,0
     33c:	00080903          	lb	s2,0(a6)
     340:	0301                	addi	t1,t1,0
     342:	00080903          	lb	s2,0(a6)
     346:	0301                	addi	t1,t1,0
     348:	0901                	addi	s2,s2,0
     34a:	0008                	0x8
     34c:	0301                	addi	t1,t1,0
     34e:	0901                	addi	s2,s2,0
     350:	0008                	0x8
     352:	0301                	addi	t1,t1,0
     354:	0901                	addi	s2,s2,0
     356:	0008                	0x8
     358:	0301                	addi	t1,t1,0
     35a:	0902                	c.slli64	s2
     35c:	0004                	0x4
     35e:	0301                	addi	t1,t1,0
     360:	0901                	addi	s2,s2,0
     362:	0004                	0x4
     364:	0301                	addi	t1,t1,0
     366:	0901                	addi	s2,s2,0
     368:	0004                	0x4
     36a:	0301                	addi	t1,t1,0
     36c:	0901                	addi	s2,s2,0
     36e:	0002                	c.slli64	zero
     370:	0301                	addi	t1,t1,0
     372:	0901                	addi	s2,s2,0
     374:	0002                	c.slli64	zero
     376:	0301                	addi	t1,t1,0
     378:	0904                	addi	s1,sp,144
     37a:	0004                	0x4
     37c:	0301                	addi	t1,t1,0
     37e:	0901                	addi	s2,s2,0
     380:	0008                	0x8
     382:	0301                	addi	t1,t1,0
     384:	0901                	addi	s2,s2,0
     386:	0008                	0x8
     388:	0301                	addi	t1,t1,0
     38a:	0901                	addi	s2,s2,0
     38c:	0008                	0x8
     38e:	0301                	addi	t1,t1,0
     390:	0902                	c.slli64	s2
     392:	0004                	0x4
     394:	0301                	addi	t1,t1,0
     396:	0901                	addi	s2,s2,0
     398:	0004                	0x4
     39a:	0301                	addi	t1,t1,0
     39c:	0901                	addi	s2,s2,0
     39e:	0004                	0x4
     3a0:	0301                	addi	t1,t1,0
     3a2:	0901                	addi	s2,s2,0
     3a4:	0002                	c.slli64	zero
     3a6:	0301                	addi	t1,t1,0
     3a8:	0901                	addi	s2,s2,0
     3aa:	0002                	c.slli64	zero
     3ac:	0301                	addi	t1,t1,0
     3ae:	00040903          	lb	s2,0(s0)
     3b2:	0301                	addi	t1,t1,0
     3b4:	0901                	addi	s2,s2,0
     3b6:	0008                	0x8
     3b8:	0301                	addi	t1,t1,0
     3ba:	0901                	addi	s2,s2,0
     3bc:	0008                	0x8
     3be:	0301                	addi	t1,t1,0
     3c0:	0902                	c.slli64	s2
     3c2:	0004                	0x4
     3c4:	0301                	addi	t1,t1,0
     3c6:	0901                	addi	s2,s2,0
     3c8:	0004                	0x4
     3ca:	0301                	addi	t1,t1,0
     3cc:	0901                	addi	s2,s2,0
     3ce:	0002                	c.slli64	zero
     3d0:	0301                	addi	t1,t1,0
     3d2:	0904                	addi	s1,sp,144
     3d4:	0004                	0x4
     3d6:	0301                	addi	t1,t1,0
     3d8:	0901                	addi	s2,s2,0
     3da:	0004                	0x4
     3dc:	0301                	addi	t1,t1,0
     3de:	0901                	addi	s2,s2,0
     3e0:	0004                	0x4
     3e2:	0301                	addi	t1,t1,0
     3e4:	0901                	addi	s2,s2,0
     3e6:	0008                	0x8
     3e8:	0301                	addi	t1,t1,0
     3ea:	0901                	addi	s2,s2,0
     3ec:	0004                	0x4
     3ee:	0301                	addi	t1,t1,0
     3f0:	0901                	addi	s2,s2,0
     3f2:	0004                	0x4
     3f4:	0301                	addi	t1,t1,0
     3f6:	0901                	addi	s2,s2,0
     3f8:	0008                	0x8
     3fa:	0301                	addi	t1,t1,0
     3fc:	00040903          	lb	s2,0(s0)
     400:	0901                	addi	s2,s2,0
     402:	0004                	0x4
     404:	0100                	addi	s0,sp,128
     406:	1e01                	addi	t3,t3,-32
     408:	0000                	unimp
     40a:	0200                	addi	s0,sp,256
     40c:	2900                	fld	fs0,16(a0)
     40e:	0004                	0x4
     410:	0400                	addi	s0,sp,512
     412:	a001                	j	412 <handle_reset+0x320>
     414:	0001                	nop
     416:	e000                	fsw	fs0,0(s0)
     418:	0004                	0x4
     41a:	7800                	flw	fs0,48(s0)
     41c:	0004                	0x4
     41e:	9700                	0x9700
     420:	0004                	0x4
     422:	cf00                	sw	s0,24(a4)
     424:	0004                	0x4
     426:	0100                	addi	s0,sp,128
     428:	0180                	addi	s0,sp,192
     42a:	0011                	c.nop	4
     42c:	0610                	addi	a2,sp,768
     42e:	0655                	addi	a2,a2,21
     430:	0e1b0e03          	lb	t3,225(s6)
     434:	0e25                	addi	t3,t3,9
     436:	00000513          	li	a0,0
     43a:	0000                	unimp
     43c:	0000                	unimp
     43e:	0000                	unimp
     440:	0034                	addi	a3,sp,8
     442:	0000                	unimp
     444:	0002                	c.slli64	zero
     446:	00000407          	0x407
     44a:	0004                	0x4
	...
     454:	0004                	0x4
     456:	0000                	unimp
     458:	0004                	0x4
     45a:	0000                	unimp
     45c:	0094                	addi	a3,sp,64
     45e:	0000                	unimp
     460:	00c0                	addi	s0,sp,68
     462:	0000                	unimp
     464:	0032                	c.slli	zero,0xc
     466:	0000                	unimp
     468:	00f2                	slli	ra,ra,0x1c
     46a:	0000                	unimp
     46c:	00ae                	slli	ra,ra,0xb
	...
     476:	0000                	unimp
     478:	2e2e                	fld	ft8,200(sp)
     47a:	4352532f          	0x4352532f
     47e:	6174532f          	0x6174532f
     482:	7472                	flw	fs0,60(sp)
     484:	7075                	c.lui	zero,0xffffd
     486:	6174732f          	0x6174732f
     48a:	7472                	flw	fs0,60(sp)
     48c:	7075                	c.lui	zero,0xffffd
     48e:	435f 3548 7836      	0x78363548435f
     494:	532e                	lw	t1,232(sp)
     496:	4600                	lw	s0,8(a2)
     498:	5c3a                	lw	s8,172(sp)
     49a:	5f484357          	0x5f484357
     49e:	5445                	li	s0,-15
     4a0:	5c48                	lw	a0,60(s0)
     4a2:	2d484357          	0x2d484357
     4a6:	5445                	li	s0,-15
     4a8:	5c48                	lw	a0,60(s0)
     4aa:	434d                	li	t1,19
     4ac:	2b55                	jal	a60 <tcp_err+0x18>
     4ae:	5445                	li	s0,-15
     4b0:	5c48                	lw	a0,60(s0)
     4b2:	36354843          	fmadd.q	fa6,fa0,ft3,ft6,rmm
     4b6:	cd39                	beqz	a0,514 <tcp_new_port+0x4>
     4b8:	c2f8                	sw	a4,68(a3)
     4ba:	b3fdc0e7          	0xb3fdc0e7
     4be:	5ccc                	lw	a1,60(s1)
     4c0:	4455                	li	s0,21
     4c2:	5f50                	lw	a2,60(a4)
     4c4:	76726553          	0x76726553
     4c8:	7265                	lui	tp,0xffff9
     4ca:	6f5c                	flw	fa5,28(a4)
     4cc:	6a62                	flw	fs4,24(sp)
     4ce:	4700                	lw	s0,8(a4)
     4d0:	554e                	lw	a0,240(sp)
     4d2:	4120                	lw	s0,64(a0)
     4d4:	2e322053          	0x2e322053
     4d8:	00003233          	snez	tp,zero
     4dc:	0000                	unimp
     4de:	0000                	unimp
     4e0:	ffff                	0xffff
     4e2:	ffff                	0xffff
	...
     4ec:	0004                	0x4
     4ee:	0000                	unimp
     4f0:	0004                	0x4
     4f2:	0000                	unimp
     4f4:	0098                	addi	a4,sp,64
     4f6:	0000                	unimp
     4f8:	00c0                	addi	s0,sp,68
     4fa:	0000                	unimp
     4fc:	00f2                	slli	ra,ra,0x1c
     4fe:	0000                	unimp
     500:	00f2                	slli	ra,ra,0x1c
     502:	0000                	unimp
     504:	01a0                	addi	s0,sp,200
	...

00000510 <tcp_new_port>:
     510:	20001797          	auipc	a5,0x20001
     514:	99878793          	addi	a5,a5,-1640 # 20000ea8 <tcp_active_pcbs>
     518:	4390                	lw	a2,0(a5)
     51a:	20001797          	auipc	a5,0x20001
     51e:	9a278793          	addi	a5,a5,-1630 # 20000ebc <tcp_tw_pcbs>
     522:	438c                	lw	a1,0(a5)
     524:	20001797          	auipc	a5,0x20001
     528:	98c78793          	addi	a5,a5,-1652 # 20000eb0 <tcp_listen_pcbs>
     52c:	0007a803          	lw	a6,0(a5)
     530:	20000517          	auipc	a0,0x20000
     534:	b5055503          	lhu	a0,-1200(a0) # 20000080 <port.3573>
     538:	00150793          	addi	a5,a0,1
     53c:	01079513          	slli	a0,a5,0x10
     540:	01079713          	slli	a4,a5,0x10
     544:	8141                	srli	a0,a0,0x10
     546:	00075363          	bgez	a4,54c <tcp_new_port+0x3c>
     54a:	6505                	lui	a0,0x1
     54c:	87b2                	mv	a5,a2
     54e:	eb91                	bnez	a5,562 <tcp_new_port+0x52>
     550:	87ae                	mv	a5,a1
     552:	ef9d                	bnez	a5,590 <tcp_new_port+0x80>
     554:	87c2                	mv	a5,a6
     556:	e7a5                	bnez	a5,5be <tcp_new_port+0xae>
     558:	20000797          	auipc	a5,0x20000
     55c:	b2a79423          	sh	a0,-1240(a5) # 20000080 <port.3573>
     560:	8082                	ret
     562:	01a7c703          	lbu	a4,26(a5)
     566:	0197c683          	lbu	a3,25(a5)
     56a:	0722                	slli	a4,a4,0x8
     56c:	8f55                	or	a4,a4,a3
     56e:	fca705e3          	beq	a4,a0,538 <tcp_new_port+0x28>
     572:	00d7c703          	lbu	a4,13(a5)
     576:	00c7c683          	lbu	a3,12(a5)
     57a:	0722                	slli	a4,a4,0x8
     57c:	8ed9                	or	a3,a3,a4
     57e:	00e7c703          	lbu	a4,14(a5)
     582:	00f7c783          	lbu	a5,15(a5)
     586:	0742                	slli	a4,a4,0x10
     588:	8f55                	or	a4,a4,a3
     58a:	07e2                	slli	a5,a5,0x18
     58c:	8fd9                	or	a5,a5,a4
     58e:	b7c1                	j	54e <tcp_new_port+0x3e>
     590:	01a7c703          	lbu	a4,26(a5)
     594:	0197c683          	lbu	a3,25(a5)
     598:	0722                	slli	a4,a4,0x8
     59a:	8f55                	or	a4,a4,a3
     59c:	f8a70ee3          	beq	a4,a0,538 <tcp_new_port+0x28>
     5a0:	00d7c703          	lbu	a4,13(a5)
     5a4:	00c7c683          	lbu	a3,12(a5)
     5a8:	0722                	slli	a4,a4,0x8
     5aa:	8ed9                	or	a3,a3,a4
     5ac:	00e7c703          	lbu	a4,14(a5)
     5b0:	00f7c783          	lbu	a5,15(a5)
     5b4:	0742                	slli	a4,a4,0x10
     5b6:	8f55                	or	a4,a4,a3
     5b8:	07e2                	slli	a5,a5,0x18
     5ba:	8fd9                	or	a5,a5,a4
     5bc:	bf59                	j	552 <tcp_new_port+0x42>
     5be:	01a7c703          	lbu	a4,26(a5)
     5c2:	0197c683          	lbu	a3,25(a5)
     5c6:	0722                	slli	a4,a4,0x8
     5c8:	8f55                	or	a4,a4,a3
     5ca:	f6a707e3          	beq	a4,a0,538 <tcp_new_port+0x28>
     5ce:	00d7c703          	lbu	a4,13(a5)
     5d2:	00c7c683          	lbu	a3,12(a5)
     5d6:	0722                	slli	a4,a4,0x8
     5d8:	8ed9                	or	a3,a3,a4
     5da:	00e7c703          	lbu	a4,14(a5)
     5de:	00f7c783          	lbu	a5,15(a5)
     5e2:	0742                	slli	a4,a4,0x10
     5e4:	8f55                	or	a4,a4,a3
     5e6:	07e2                	slli	a5,a5,0x18
     5e8:	8fd9                	or	a5,a5,a4
     5ea:	b7b5                	j	556 <tcp_new_port+0x46>

000005ec <tcp_bind>:
     5ec:	01154703          	lbu	a4,17(a0) # 1011 <tcp_slowtmr+0x4ab>
     5f0:	01054783          	lbu	a5,16(a0)
     5f4:	0722                	slli	a4,a4,0x8
     5f6:	8f5d                	or	a4,a4,a5
     5f8:	01254783          	lbu	a5,18(a0)
     5fc:	07c2                	slli	a5,a5,0x10
     5fe:	8f5d                	or	a4,a4,a5
     600:	01354783          	lbu	a5,19(a0)
     604:	07e2                	slli	a5,a5,0x18
     606:	8fd9                	or	a5,a5,a4
     608:	28079063          	bnez	a5,888 <__stack_size+0x88>
     60c:	20020317          	auipc	t1,0x20020
     610:	a24302e7          	jalr	t0,-1500(t1) # 20020030 <__riscv_save_0>
     614:	1141                	addi	sp,sp,-16
     616:	842a                	mv	s0,a0
     618:	84b2                	mv	s1,a2
     61a:	e609                	bnez	a2,624 <tcp_bind+0x38>
     61c:	c62e                	sw	a1,12(sp)
     61e:	3dcd                	jal	510 <tcp_new_port>
     620:	45b2                	lw	a1,12(sp)
     622:	84aa                	mv	s1,a0
     624:	20001797          	auipc	a5,0x20001
     628:	88c78793          	addi	a5,a5,-1908 # 20000eb0 <tcp_listen_pcbs>
     62c:	439c                	lw	a5,0(a5)
     62e:	ebd1                	bnez	a5,6c2 <tcp_bind+0xd6>
     630:	20001797          	auipc	a5,0x20001
     634:	87878793          	addi	a5,a5,-1928 # 20000ea8 <tcp_active_pcbs>
     638:	439c                	lw	a5,0(a5)
     63a:	effd                	bnez	a5,738 <tcp_bind+0x14c>
     63c:	20001797          	auipc	a5,0x20001
     640:	87c78793          	addi	a5,a5,-1924 # 20000eb8 <tcp_bound_pcbs>
     644:	0007a903          	lw	s2,0(a5)
     648:	87ca                	mv	a5,s2
     64a:	16079263          	bnez	a5,7ae <tcp_bind+0x1c2>
     64e:	20001797          	auipc	a5,0x20001
     652:	86e78793          	addi	a5,a5,-1938 # 20000ebc <tcp_tw_pcbs>
     656:	439c                	lw	a5,0(a5)
     658:	1c079363          	bnez	a5,81e <__stack_size+0x1e>
     65c:	c595                	beqz	a1,688 <tcp_bind+0x9c>
     65e:	0015c703          	lbu	a4,1(a1)
     662:	0005c783          	lbu	a5,0(a1)
     666:	0722                	slli	a4,a4,0x8
     668:	8f5d                	or	a4,a4,a5
     66a:	0025c783          	lbu	a5,2(a1)
     66e:	07c2                	slli	a5,a5,0x10
     670:	8f5d                	or	a4,a4,a5
     672:	0035c783          	lbu	a5,3(a1)
     676:	07e2                	slli	a5,a5,0x18
     678:	8fd9                	or	a5,a5,a4
     67a:	c799                	beqz	a5,688 <tcp_bind+0x9c>
     67c:	4611                	li	a2,4
     67e:	8522                	mv	a0,s0
     680:	20024097          	auipc	ra,0x20024
     684:	be2080e7          	jalr	-1054(ra) # 20024262 <memcpy>
     688:	00895793          	srli	a5,s2,0x8
     68c:	00940ca3          	sb	s1,25(s0)
     690:	01240623          	sb	s2,12(s0)
     694:	80a1                	srli	s1,s1,0x8
     696:	00f406a3          	sb	a5,13(s0)
     69a:	01095793          	srli	a5,s2,0x10
     69e:	01895913          	srli	s2,s2,0x18
     6a2:	00f40723          	sb	a5,14(s0)
     6a6:	00940d23          	sb	s1,26(s0)
     6aa:	012407a3          	sb	s2,15(s0)
     6ae:	20001797          	auipc	a5,0x20001
     6b2:	8087a523          	sw	s0,-2038(a5) # 20000eb8 <tcp_bound_pcbs>
     6b6:	4501                	li	a0,0
     6b8:	0141                	addi	sp,sp,16
     6ba:	20020317          	auipc	t1,0x20020
     6be:	99a30067          	jr	-1638(t1) # 20020054 <__riscv_restore_0>
     6c2:	01a7c703          	lbu	a4,26(a5)
     6c6:	0197c683          	lbu	a3,25(a5)
     6ca:	0722                	slli	a4,a4,0x8
     6cc:	8f55                	or	a4,a4,a3
     6ce:	04971663          	bne	a4,s1,71a <tcp_bind+0x12e>
     6d2:	0017c703          	lbu	a4,1(a5)
     6d6:	0007c683          	lbu	a3,0(a5)
     6da:	0722                	slli	a4,a4,0x8
     6dc:	8f55                	or	a4,a4,a3
     6de:	0027c683          	lbu	a3,2(a5)
     6e2:	06c2                	slli	a3,a3,0x10
     6e4:	8f55                	or	a4,a4,a3
     6e6:	0037c683          	lbu	a3,3(a5)
     6ea:	06e2                	slli	a3,a3,0x18
     6ec:	8ed9                	or	a3,a3,a4
     6ee:	18068f63          	beqz	a3,88c <__stack_size+0x8c>
     6f2:	18058d63          	beqz	a1,88c <__stack_size+0x8c>
     6f6:	0015c603          	lbu	a2,1(a1)
     6fa:	0005c703          	lbu	a4,0(a1)
     6fe:	0622                	slli	a2,a2,0x8
     700:	8e59                	or	a2,a2,a4
     702:	0025c703          	lbu	a4,2(a1)
     706:	0742                	slli	a4,a4,0x10
     708:	8e59                	or	a2,a2,a4
     70a:	0035c703          	lbu	a4,3(a1)
     70e:	0762                	slli	a4,a4,0x18
     710:	8f51                	or	a4,a4,a2
     712:	16070d63          	beqz	a4,88c <__stack_size+0x8c>
     716:	16e68b63          	beq	a3,a4,88c <__stack_size+0x8c>
     71a:	00d7c703          	lbu	a4,13(a5)
     71e:	00c7c683          	lbu	a3,12(a5)
     722:	0722                	slli	a4,a4,0x8
     724:	8ed9                	or	a3,a3,a4
     726:	00e7c703          	lbu	a4,14(a5)
     72a:	00f7c783          	lbu	a5,15(a5)
     72e:	0742                	slli	a4,a4,0x10
     730:	8f55                	or	a4,a4,a3
     732:	07e2                	slli	a5,a5,0x18
     734:	8fd9                	or	a5,a5,a4
     736:	bde5                	j	62e <tcp_bind+0x42>
     738:	01a7c703          	lbu	a4,26(a5)
     73c:	0197c683          	lbu	a3,25(a5)
     740:	0722                	slli	a4,a4,0x8
     742:	8f55                	or	a4,a4,a3
     744:	04971663          	bne	a4,s1,790 <tcp_bind+0x1a4>
     748:	0017c703          	lbu	a4,1(a5)
     74c:	0007c683          	lbu	a3,0(a5)
     750:	0722                	slli	a4,a4,0x8
     752:	8f55                	or	a4,a4,a3
     754:	0027c683          	lbu	a3,2(a5)
     758:	06c2                	slli	a3,a3,0x10
     75a:	8f55                	or	a4,a4,a3
     75c:	0037c683          	lbu	a3,3(a5)
     760:	06e2                	slli	a3,a3,0x18
     762:	8ed9                	or	a3,a3,a4
     764:	12068463          	beqz	a3,88c <__stack_size+0x8c>
     768:	12058263          	beqz	a1,88c <__stack_size+0x8c>
     76c:	0015c603          	lbu	a2,1(a1)
     770:	0005c703          	lbu	a4,0(a1)
     774:	0622                	slli	a2,a2,0x8
     776:	8e59                	or	a2,a2,a4
     778:	0025c703          	lbu	a4,2(a1)
     77c:	0742                	slli	a4,a4,0x10
     77e:	8e59                	or	a2,a2,a4
     780:	0035c703          	lbu	a4,3(a1)
     784:	0762                	slli	a4,a4,0x18
     786:	8f51                	or	a4,a4,a2
     788:	10070263          	beqz	a4,88c <__stack_size+0x8c>
     78c:	10e68063          	beq	a3,a4,88c <__stack_size+0x8c>
     790:	00d7c703          	lbu	a4,13(a5)
     794:	00c7c683          	lbu	a3,12(a5)
     798:	0722                	slli	a4,a4,0x8
     79a:	8ed9                	or	a3,a3,a4
     79c:	00e7c703          	lbu	a4,14(a5)
     7a0:	00f7c783          	lbu	a5,15(a5)
     7a4:	0742                	slli	a4,a4,0x10
     7a6:	8f55                	or	a4,a4,a3
     7a8:	07e2                	slli	a5,a5,0x18
     7aa:	8fd9                	or	a5,a5,a4
     7ac:	b579                	j	63a <tcp_bind+0x4e>
     7ae:	01a7c703          	lbu	a4,26(a5)
     7b2:	0197c683          	lbu	a3,25(a5)
     7b6:	0722                	slli	a4,a4,0x8
     7b8:	8f55                	or	a4,a4,a3
     7ba:	04971363          	bne	a4,s1,800 <__stack_size>
     7be:	0017c703          	lbu	a4,1(a5)
     7c2:	0007c683          	lbu	a3,0(a5)
     7c6:	0722                	slli	a4,a4,0x8
     7c8:	8f55                	or	a4,a4,a3
     7ca:	0027c683          	lbu	a3,2(a5)
     7ce:	06c2                	slli	a3,a3,0x10
     7d0:	8f55                	or	a4,a4,a3
     7d2:	0037c683          	lbu	a3,3(a5)
     7d6:	06e2                	slli	a3,a3,0x18
     7d8:	8ed9                	or	a3,a3,a4
     7da:	cacd                	beqz	a3,88c <__stack_size+0x8c>
     7dc:	c9c5                	beqz	a1,88c <__stack_size+0x8c>
     7de:	0015c603          	lbu	a2,1(a1)
     7e2:	0005c703          	lbu	a4,0(a1)
     7e6:	0622                	slli	a2,a2,0x8
     7e8:	8e59                	or	a2,a2,a4
     7ea:	0025c703          	lbu	a4,2(a1)
     7ee:	0742                	slli	a4,a4,0x10
     7f0:	8e59                	or	a2,a2,a4
     7f2:	0035c703          	lbu	a4,3(a1)
     7f6:	0762                	slli	a4,a4,0x18
     7f8:	8f51                	or	a4,a4,a2
     7fa:	cb49                	beqz	a4,88c <__stack_size+0x8c>
     7fc:	08e68863          	beq	a3,a4,88c <__stack_size+0x8c>
     800:	00d7c703          	lbu	a4,13(a5)
     804:	00c7c683          	lbu	a3,12(a5)
     808:	0722                	slli	a4,a4,0x8
     80a:	8ed9                	or	a3,a3,a4
     80c:	00e7c703          	lbu	a4,14(a5)
     810:	00f7c783          	lbu	a5,15(a5)
     814:	0742                	slli	a4,a4,0x10
     816:	8f55                	or	a4,a4,a3
     818:	07e2                	slli	a5,a5,0x18
     81a:	8fd9                	or	a5,a5,a4
     81c:	b53d                	j	64a <tcp_bind+0x5e>
     81e:	01a7c703          	lbu	a4,26(a5)
     822:	0197c683          	lbu	a3,25(a5)
     826:	0722                	slli	a4,a4,0x8
     828:	8f55                	or	a4,a4,a3
     82a:	04971063          	bne	a4,s1,86a <__stack_size+0x6a>
     82e:	0017c703          	lbu	a4,1(a5)
     832:	0007c683          	lbu	a3,0(a5)
     836:	0015c603          	lbu	a2,1(a1)
     83a:	0722                	slli	a4,a4,0x8
     83c:	8f55                	or	a4,a4,a3
     83e:	0027c683          	lbu	a3,2(a5)
     842:	0622                	slli	a2,a2,0x8
     844:	06c2                	slli	a3,a3,0x10
     846:	8f55                	or	a4,a4,a3
     848:	0037c683          	lbu	a3,3(a5)
     84c:	06e2                	slli	a3,a3,0x18
     84e:	8ed9                	or	a3,a3,a4
     850:	0005c703          	lbu	a4,0(a1)
     854:	8e59                	or	a2,a2,a4
     856:	0025c703          	lbu	a4,2(a1)
     85a:	0742                	slli	a4,a4,0x10
     85c:	8e59                	or	a2,a2,a4
     85e:	0035c703          	lbu	a4,3(a1)
     862:	0762                	slli	a4,a4,0x18
     864:	8f51                	or	a4,a4,a2
     866:	02e68363          	beq	a3,a4,88c <__stack_size+0x8c>
     86a:	00d7c703          	lbu	a4,13(a5)
     86e:	00c7c683          	lbu	a3,12(a5)
     872:	0722                	slli	a4,a4,0x8
     874:	8ed9                	or	a3,a3,a4
     876:	00e7c703          	lbu	a4,14(a5)
     87a:	00f7c783          	lbu	a5,15(a5)
     87e:	0742                	slli	a4,a4,0x10
     880:	8f55                	or	a4,a4,a3
     882:	07e2                	slli	a5,a5,0x18
     884:	8fd9                	or	a5,a5,a4
     886:	bbc9                	j	658 <tcp_bind+0x6c>
     888:	554d                	li	a0,-13
     88a:	8082                	ret
     88c:	5555                	li	a0,-11
     88e:	b52d                	j	6b8 <tcp_bind+0xcc>

00000890 <tcp_update_rcv_ann_wnd>:
     890:	02354583          	lbu	a1,35(a0)
     894:	02254703          	lbu	a4,34(a0)
     898:	02754603          	lbu	a2,39(a0)
     89c:	05a2                	slli	a1,a1,0x8
     89e:	8f4d                	or	a4,a4,a1
     8a0:	02454583          	lbu	a1,36(a0)
     8a4:	0622                	slli	a2,a2,0x8
     8a6:	02a54683          	lbu	a3,42(a0)
     8aa:	05c2                	slli	a1,a1,0x10
     8ac:	8dd9                	or	a1,a1,a4
     8ae:	02554703          	lbu	a4,37(a0)
     8b2:	87aa                	mv	a5,a0
     8b4:	0377c803          	lbu	a6,55(a5)
     8b8:	0762                	slli	a4,a4,0x18
     8ba:	8dd9                	or	a1,a1,a4
     8bc:	02654703          	lbu	a4,38(a0)
     8c0:	0367c883          	lbu	a7,54(a5)
     8c4:	0822                	slli	a6,a6,0x8
     8c6:	8e59                	or	a2,a2,a4
     8c8:	02b54703          	lbu	a4,43(a0)
     8cc:	01186833          	or	a6,a6,a7
     8d0:	0722                	slli	a4,a4,0x8
     8d2:	8ed9                	or	a3,a3,a4
     8d4:	02c54703          	lbu	a4,44(a0)
     8d8:	0742                	slli	a4,a4,0x10
     8da:	8f55                	or	a4,a4,a3
     8dc:	02d54683          	lbu	a3,45(a0)
     8e0:	06e2                	slli	a3,a3,0x18
     8e2:	8f55                	or	a4,a4,a3
     8e4:	20000697          	auipc	a3,0x20000
     8e8:	4e468693          	addi	a3,a3,1252 # 20000dc8 <CH569Cfg>
     8ec:	42d4                	lw	a3,4(a3)
     8ee:	40e60533          	sub	a0,a2,a4
     8f2:	952e                	add	a0,a0,a1
     8f4:	8285                	srli	a3,a3,0x1
     8f6:	00d87363          	bgeu	a6,a3,8fc <tcp_update_rcv_ann_wnd+0x6c>
     8fa:	86c2                	mv	a3,a6
     8fc:	40d506b3          	sub	a3,a0,a3
     900:	0006c863          	bltz	a3,910 <tcp_update_rcv_ann_wnd+0x80>
     904:	02c78423          	sb	a2,40(a5)
     908:	8221                	srli	a2,a2,0x8
     90a:	02c784a3          	sb	a2,41(a5)
     90e:	8082                	ret
     910:	40e586b3          	sub	a3,a1,a4
     914:	00d05863          	blez	a3,924 <tcp_update_rcv_ann_wnd+0x94>
     918:	02078423          	sb	zero,40(a5)
     91c:	020784a3          	sb	zero,41(a5)
     920:	4501                	li	a0,0
     922:	8082                	ret
     924:	8f0d                	sub	a4,a4,a1
     926:	0742                	slli	a4,a4,0x10
     928:	8341                	srli	a4,a4,0x10
     92a:	02e78423          	sb	a4,40(a5)
     92e:	8321                	srli	a4,a4,0x8
     930:	02e784a3          	sb	a4,41(a5)
     934:	b7f5                	j	920 <tcp_update_rcv_ann_wnd+0x90>

00000936 <tcp_recved>:
     936:	2001f317          	auipc	t1,0x2001f
     93a:	6fa302e7          	jalr	t0,1786(t1) # 20020030 <__riscv_save_0>
     93e:	02754783          	lbu	a5,39(a0)
     942:	02654703          	lbu	a4,38(a0)
     946:	842a                	mv	s0,a0
     948:	07a2                	slli	a5,a5,0x8
     94a:	8fd9                	or	a5,a5,a4
     94c:	95be                	add	a1,a1,a5
     94e:	05c2                	slli	a1,a1,0x10
     950:	81c1                	srli	a1,a1,0x10
     952:	0085d793          	srli	a5,a1,0x8
     956:	20000717          	auipc	a4,0x20000
     95a:	47270713          	addi	a4,a4,1138 # 20000dc8 <CH569Cfg>
     95e:	02f503a3          	sb	a5,39(a0)
     962:	435c                	lw	a5,4(a4)
     964:	02b50323          	sb	a1,38(a0)
     968:	84ba                	mv	s1,a4
     96a:	00b7f963          	bgeu	a5,a1,97c <tcp_recved+0x46>
     96e:	07c2                	slli	a5,a5,0x10
     970:	83c1                	srli	a5,a5,0x10
     972:	02f50323          	sb	a5,38(a0)
     976:	83a1                	srli	a5,a5,0x8
     978:	02f503a3          	sb	a5,39(a0)
     97c:	8522                	mv	a0,s0
     97e:	3f09                	jal	890 <tcp_update_rcv_ann_wnd>
     980:	40dc                	lw	a5,4(s1)
     982:	8389                	srli	a5,a5,0x2
     984:	00f56b63          	bltu	a0,a5,99a <tcp_recved+0x64>
     988:	02144783          	lbu	a5,33(s0)
     98c:	8522                	mv	a0,s0
     98e:	0027e793          	ori	a5,a5,2
     992:	02f400a3          	sb	a5,33(s0)
     996:	140040ef          	jal	ra,4ad6 <tcp_output>
     99a:	2001f317          	auipc	t1,0x2001f
     99e:	6ba30067          	jr	1722(t1) # 20020054 <__riscv_restore_0>

000009a2 <tcp_seg_free>:
     9a2:	2001f317          	auipc	t1,0x2001f
     9a6:	68e302e7          	jalr	t0,1678(t1) # 20020030 <__riscv_save_0>
     9aa:	1141                	addi	sp,sp,-16
     9ac:	4401                	li	s0,0
     9ae:	cd09                	beqz	a0,9c8 <tcp_seg_free+0x26>
     9b0:	85aa                	mv	a1,a0
     9b2:	4148                	lw	a0,4(a0)
     9b4:	4401                	li	s0,0
     9b6:	c511                	beqz	a0,9c2 <tcp_seg_free+0x20>
     9b8:	c62e                	sw	a1,12(sp)
     9ba:	414060ef          	jal	ra,6dce <pbuf_free>
     9be:	45b2                	lw	a1,12(sp)
     9c0:	842a                	mv	s0,a0
     9c2:	4511                	li	a0,4
     9c4:	7d2050ef          	jal	ra,6196 <memp_free>
     9c8:	8522                	mv	a0,s0
     9ca:	0141                	addi	sp,sp,16
     9cc:	2001f317          	auipc	t1,0x2001f
     9d0:	68830067          	jr	1672(t1) # 20020054 <__riscv_restore_0>

000009d4 <tcp_segs_free>:
     9d4:	2001f317          	auipc	t1,0x2001f
     9d8:	65c302e7          	jalr	t0,1628(t1) # 20020030 <__riscv_save_0>
     9dc:	4401                	li	s0,0
     9de:	e511                	bnez	a0,9ea <tcp_segs_free+0x16>
     9e0:	8522                	mv	a0,s0
     9e2:	2001f317          	auipc	t1,0x2001f
     9e6:	67230067          	jr	1650(t1) # 20020054 <__riscv_restore_0>
     9ea:	4104                	lw	s1,0(a0)
     9ec:	3f5d                	jal	9a2 <tcp_seg_free>
     9ee:	942a                	add	s0,s0,a0
     9f0:	0ff47413          	andi	s0,s0,255
     9f4:	8526                	mv	a0,s1
     9f6:	b7e5                	j	9de <tcp_segs_free+0xa>

000009f8 <tcp_seg_copy>:
     9f8:	2001f317          	auipc	t1,0x2001f
     9fc:	638302e7          	jalr	t0,1592(t1) # 20020030 <__riscv_save_0>
     a00:	1141                	addi	sp,sp,-16
     a02:	c62a                	sw	a0,12(sp)
     a04:	4511                	li	a0,4
     a06:	770050ef          	jal	ra,6176 <memp_malloc>
     a0a:	842a                	mv	s0,a0
     a0c:	c911                	beqz	a0,a20 <tcp_seg_copy+0x28>
     a0e:	45b2                	lw	a1,12(sp)
     a10:	4651                	li	a2,20
     a12:	20024097          	auipc	ra,0x20024
     a16:	850080e7          	jalr	-1968(ra) # 20024262 <memcpy>
     a1a:	4048                	lw	a0,4(s0)
     a1c:	7c8060ef          	jal	ra,71e4 <pbuf_ref>
     a20:	8522                	mv	a0,s0
     a22:	0141                	addi	sp,sp,16
     a24:	2001f317          	auipc	t1,0x2001f
     a28:	63030067          	jr	1584(t1) # 20020054 <__riscv_restore_0>

00000a2c <tcp_arg>:
     a2c:	0085d793          	srli	a5,a1,0x8
     a30:	00b50aa3          	sb	a1,21(a0)
     a34:	00f50b23          	sb	a5,22(a0)
     a38:	0105d793          	srli	a5,a1,0x10
     a3c:	81e1                	srli	a1,a1,0x18
     a3e:	00f50ba3          	sb	a5,23(a0)
     a42:	00b50c23          	sb	a1,24(a0)
     a46:	8082                	ret

00000a48 <tcp_err>:
     a48:	0085d793          	srli	a5,a1,0x8
     a4c:	08b50423          	sb	a1,136(a0)
     a50:	08f504a3          	sb	a5,137(a0)
     a54:	0105d793          	srli	a5,a1,0x10
     a58:	81e1                	srli	a1,a1,0x18
     a5a:	08f50523          	sb	a5,138(a0)
     a5e:	08b505a3          	sb	a1,139(a0)
     a62:	8082                	ret

00000a64 <tcp_pcb_purge>:
     a64:	01154703          	lbu	a4,17(a0)
     a68:	01054783          	lbu	a5,16(a0)
     a6c:	0722                	slli	a4,a4,0x8
     a6e:	8f5d                	or	a4,a4,a5
     a70:	01254783          	lbu	a5,18(a0)
     a74:	07c2                	slli	a5,a5,0x10
     a76:	8f5d                	or	a4,a4,a5
     a78:	01354783          	lbu	a5,19(a0)
     a7c:	07e2                	slli	a5,a5,0x18
     a7e:	8fd9                	or	a5,a5,a4
     a80:	4705                	li	a4,1
     a82:	0ef77163          	bgeu	a4,a5,b64 <tcp_pcb_purge+0x100>
     a86:	4729                	li	a4,10
     a88:	0ce78e63          	beq	a5,a4,b64 <tcp_pcb_purge+0x100>
     a8c:	2001f317          	auipc	t1,0x2001f
     a90:	5a4302e7          	jalr	t0,1444(t1) # 20020030 <__riscv_save_0>
     a94:	842a                	mv	s0,a0
     a96:	07544783          	lbu	a5,117(s0)
     a9a:	07454503          	lbu	a0,116(a0)
     a9e:	07a2                	slli	a5,a5,0x8
     aa0:	8fc9                	or	a5,a5,a0
     aa2:	07644503          	lbu	a0,118(s0)
     aa6:	0542                	slli	a0,a0,0x10
     aa8:	8fc9                	or	a5,a5,a0
     aaa:	07744503          	lbu	a0,119(s0)
     aae:	0562                	slli	a0,a0,0x18
     ab0:	8d5d                	or	a0,a0,a5
     ab2:	c919                	beqz	a0,ac8 <tcp_pcb_purge+0x64>
     ab4:	31a060ef          	jal	ra,6dce <pbuf_free>
     ab8:	06040a23          	sb	zero,116(s0)
     abc:	06040aa3          	sb	zero,117(s0)
     ac0:	06040b23          	sb	zero,118(s0)
     ac4:	06040ba3          	sb	zero,119(s0)
     ac8:	07144503          	lbu	a0,113(s0)
     acc:	07044783          	lbu	a5,112(s0)
     ad0:	577d                	li	a4,-1
     ad2:	0522                	slli	a0,a0,0x8
     ad4:	8d5d                	or	a0,a0,a5
     ad6:	07244783          	lbu	a5,114(s0)
     ada:	02e40a23          	sb	a4,52(s0)
     ade:	02e40aa3          	sb	a4,53(s0)
     ae2:	07c2                	slli	a5,a5,0x10
     ae4:	8fc9                	or	a5,a5,a0
     ae6:	07344503          	lbu	a0,115(s0)
     aea:	0562                	slli	a0,a0,0x18
     aec:	8d5d                	or	a0,a0,a5
     aee:	35dd                	jal	9d4 <tcp_segs_free>
     af0:	06944503          	lbu	a0,105(s0)
     af4:	06844783          	lbu	a5,104(s0)
     af8:	06040823          	sb	zero,112(s0)
     afc:	0522                	slli	a0,a0,0x8
     afe:	8d5d                	or	a0,a0,a5
     b00:	06a44783          	lbu	a5,106(s0)
     b04:	060408a3          	sb	zero,113(s0)
     b08:	06040923          	sb	zero,114(s0)
     b0c:	07c2                	slli	a5,a5,0x10
     b0e:	8fc9                	or	a5,a5,a0
     b10:	06b44503          	lbu	a0,107(s0)
     b14:	060409a3          	sb	zero,115(s0)
     b18:	0562                	slli	a0,a0,0x18
     b1a:	8d5d                	or	a0,a0,a5
     b1c:	3d65                	jal	9d4 <tcp_segs_free>
     b1e:	06d44503          	lbu	a0,109(s0)
     b22:	06c44783          	lbu	a5,108(s0)
     b26:	0522                	slli	a0,a0,0x8
     b28:	8d5d                	or	a0,a0,a5
     b2a:	06e44783          	lbu	a5,110(s0)
     b2e:	07c2                	slli	a5,a5,0x10
     b30:	8fc9                	or	a5,a5,a0
     b32:	06f44503          	lbu	a0,111(s0)
     b36:	0562                	slli	a0,a0,0x18
     b38:	8d5d                	or	a0,a0,a5
     b3a:	3d69                	jal	9d4 <tcp_segs_free>
     b3c:	06040423          	sb	zero,104(s0)
     b40:	060404a3          	sb	zero,105(s0)
     b44:	06040523          	sb	zero,106(s0)
     b48:	060405a3          	sb	zero,107(s0)
     b4c:	06040623          	sb	zero,108(s0)
     b50:	060406a3          	sb	zero,109(s0)
     b54:	06040723          	sb	zero,110(s0)
     b58:	060407a3          	sb	zero,111(s0)
     b5c:	2001f317          	auipc	t1,0x2001f
     b60:	4f830067          	jr	1272(t1) # 20020054 <__riscv_restore_0>
     b64:	8082                	ret

00000b66 <tcp_slowtmr>:
     b66:	2001f317          	auipc	t1,0x2001f
     b6a:	49a302e7          	jalr	t0,1178(t1) # 20020000 <__riscv_save_12>
     b6e:	20000497          	auipc	s1,0x20000
     b72:	33e48493          	addi	s1,s1,830 # 20000eac <tcp_ticks>
     b76:	409c                	lw	a5,0(s1)
     b78:	20000b17          	auipc	s6,0x20000
     b7c:	2a4b4b03          	lbu	s6,676(s6) # 20000e1c <CH569Inf+0x18>
     b80:	06600993          	li	s3,102
     b84:	0785                	addi	a5,a5,1
     b86:	20000717          	auipc	a4,0x20000
     b8a:	32f72323          	sw	a5,806(a4) # 20000eac <tcp_ticks>
     b8e:	20000797          	auipc	a5,0x20000
     b92:	31a78793          	addi	a5,a5,794 # 20000ea8 <tcp_active_pcbs>
     b96:	4380                	lw	s0,0(a5)
     b98:	4901                	li	s2,0
     b9a:	4b89                	li	s7,2
     b9c:	1ffffd97          	auipc	s11,0x1ffff
     ba0:	500d8d93          	addi	s11,s11,1280 # 2000009c <tcp_persist_backoff>
     ba4:	4a19                	li	s4,6
     ba6:	02800c13          	li	s8,40
     baa:	20000c97          	auipc	s9,0x20000
     bae:	24ec8c93          	addi	s9,s9,590 # 20000df8 <KeepLiveCfg>
     bb2:	ec01                	bnez	s0,bca <tcp_slowtmr+0x64>
     bb4:	20000797          	auipc	a5,0x20000
     bb8:	30878793          	addi	a5,a5,776 # 20000ebc <tcp_tw_pcbs>
     bbc:	4380                	lw	s0,0(a5)
     bbe:	54041463          	bnez	s0,1106 <tcp_slowtmr+0x5a0>
     bc2:	2001f317          	auipc	t1,0x2001f
     bc6:	47a30067          	jr	1146(t1) # 2002003c <__riscv_restore_12>
     bca:	19fd                	addi	s3,s3,-1
     bcc:	0ff9f993          	andi	s3,s3,255
     bd0:	fe0989e3          	beqz	s3,bc2 <tcp_slowtmr+0x5c>
     bd4:	01144783          	lbu	a5,17(s0)
     bd8:	01044683          	lbu	a3,16(s0)
     bdc:	04644603          	lbu	a2,70(s0)
     be0:	07a2                	slli	a5,a5,0x8
     be2:	8fd5                	or	a5,a5,a3
     be4:	01244683          	lbu	a3,18(s0)
     be8:	4d05                	li	s10,1
     bea:	06c2                	slli	a3,a3,0x10
     bec:	8fd5                	or	a5,a5,a3
     bee:	01344683          	lbu	a3,19(s0)
     bf2:	06e2                	slli	a3,a3,0x18
     bf4:	8edd                	or	a3,a3,a5
     bf6:	04cb0a63          	beq	s6,a2,c4a <tcp_slowtmr+0xe4>
     bfa:	09444d03          	lbu	s10,148(s0)
     bfe:	240d0563          	beqz	s10,e48 <tcp_slowtmr+0x2e2>
     c02:	09144683          	lbu	a3,145(s0)
     c06:	09044703          	lbu	a4,144(s0)
     c0a:	06a2                	slli	a3,a3,0x8
     c0c:	8ed9                	or	a3,a3,a4
     c0e:	09244703          	lbu	a4,146(s0)
     c12:	0742                	slli	a4,a4,0x10
     c14:	8ed9                	or	a3,a3,a4
     c16:	09344703          	lbu	a4,147(s0)
     c1a:	0762                	slli	a4,a4,0x18
     c1c:	8f55                	or	a4,a4,a3
     c1e:	0705                	addi	a4,a4,1
     c20:	00875693          	srli	a3,a4,0x8
     c24:	08d408a3          	sb	a3,145(s0)
     c28:	01075693          	srli	a3,a4,0x10
     c2c:	08d40923          	sb	a3,146(s0)
     c30:	01875693          	srli	a3,a4,0x18
     c34:	08d409a3          	sb	a3,147(s0)
     c38:	01ad86b3          	add	a3,s11,s10
     c3c:	fff6c683          	lbu	a3,-1(a3)
     c40:	08e40823          	sb	a4,144(s0)
     c44:	1ed77063          	bgeu	a4,a3,e24 <tcp_slowtmr+0x2be>
     c48:	4d01                	li	s10,0
     c4a:	01144683          	lbu	a3,17(s0)
     c4e:	01044703          	lbu	a4,16(s0)
     c52:	06a2                	slli	a3,a3,0x8
     c54:	8ed9                	or	a3,a3,a4
     c56:	01244703          	lbu	a4,18(s0)
     c5a:	0742                	slli	a4,a4,0x10
     c5c:	8ed9                	or	a3,a3,a4
     c5e:	01344703          	lbu	a4,19(s0)
     c62:	0762                	slli	a4,a4,0x18
     c64:	8f55                	or	a4,a4,a3
     c66:	03471963          	bne	a4,s4,c98 <tcp_slowtmr+0x132>
     c6a:	02f44603          	lbu	a2,47(s0)
     c6e:	02e44683          	lbu	a3,46(s0)
     c72:	0622                	slli	a2,a2,0x8
     c74:	8e55                	or	a2,a2,a3
     c76:	03044683          	lbu	a3,48(s0)
     c7a:	06c2                	slli	a3,a3,0x10
     c7c:	8e55                	or	a2,a2,a3
     c7e:	03144683          	lbu	a3,49(s0)
     c82:	06e2                	slli	a3,a3,0x18
     c84:	8ed1                	or	a3,a3,a2
     c86:	4090                	lw	a2,0(s1)
     c88:	40d606b3          	sub	a3,a2,a3
     c8c:	00dc7663          	bgeu	s8,a3,c98 <tcp_slowtmr+0x132>
     c90:	001d0793          	addi	a5,s10,1
     c94:	0ff7fd13          	andi	s10,a5,255
     c98:	00844683          	lbu	a3,8(s0)
     c9c:	4a81                	li	s5,0
     c9e:	8aa1                	andi	a3,a3,8
     ca0:	c6bd                	beqz	a3,d0e <tcp_slowtmr+0x1a8>
     ca2:	4691                	li	a3,4
     ca4:	00d70563          	beq	a4,a3,cae <tcp_slowtmr+0x148>
     ca8:	469d                	li	a3,7
     caa:	06d71263          	bne	a4,a3,d0e <tcp_slowtmr+0x1a8>
     cae:	02f44703          	lbu	a4,47(s0)
     cb2:	02e44583          	lbu	a1,46(s0)
     cb6:	08d44603          	lbu	a2,141(s0)
     cba:	0722                	slli	a4,a4,0x8
     cbc:	8dd9                	or	a1,a1,a4
     cbe:	03044703          	lbu	a4,48(s0)
     cc2:	004ca803          	lw	a6,4(s9)
     cc6:	008ca683          	lw	a3,8(s9)
     cca:	0742                	slli	a4,a4,0x10
     ccc:	8f4d                	or	a4,a4,a1
     cce:	03144583          	lbu	a1,49(s0)
     cd2:	0622                	slli	a2,a2,0x8
     cd4:	02d806b3          	mul	a3,a6,a3
     cd8:	05e2                	slli	a1,a1,0x18
     cda:	8f4d                	or	a4,a4,a1
     cdc:	408c                	lw	a1,0(s1)
     cde:	1f400513          	li	a0,500
     ce2:	8d99                	sub	a1,a1,a4
     ce4:	08c44703          	lbu	a4,140(s0)
     ce8:	8f51                	or	a4,a4,a2
     cea:	08e44603          	lbu	a2,142(s0)
     cee:	0642                	slli	a2,a2,0x10
     cf0:	8e59                	or	a2,a2,a4
     cf2:	08f44703          	lbu	a4,143(s0)
     cf6:	0762                	slli	a4,a4,0x18
     cf8:	8e59                	or	a2,a2,a4
     cfa:	96b2                	add	a3,a3,a2
     cfc:	02a6d6b3          	divu	a3,a3,a0
     d00:	24b6fb63          	bgeu	a3,a1,f56 <tcp_slowtmr+0x3f0>
     d04:	001d0793          	addi	a5,s10,1
     d08:	0ff7fd13          	andi	s10,a5,255
     d0c:	4a85                	li	s5,1
     d0e:	07144703          	lbu	a4,113(s0)
     d12:	07044503          	lbu	a0,112(s0)
     d16:	0722                	slli	a4,a4,0x8
     d18:	8f49                	or	a4,a4,a0
     d1a:	07244503          	lbu	a0,114(s0)
     d1e:	0542                	slli	a0,a0,0x10
     d20:	8f49                	or	a4,a4,a0
     d22:	07344503          	lbu	a0,115(s0)
     d26:	0562                	slli	a0,a0,0x18
     d28:	8d59                	or	a0,a0,a4
     d2a:	c531                	beqz	a0,d76 <tcp_slowtmr+0x210>
     d2c:	02f44683          	lbu	a3,47(s0)
     d30:	02e44703          	lbu	a4,46(s0)
     d34:	04444603          	lbu	a2,68(s0)
     d38:	06a2                	slli	a3,a3,0x8
     d3a:	8ed9                	or	a3,a3,a4
     d3c:	03044703          	lbu	a4,48(s0)
     d40:	0742                	slli	a4,a4,0x10
     d42:	8ed9                	or	a3,a3,a4
     d44:	03144703          	lbu	a4,49(s0)
     d48:	0762                	slli	a4,a4,0x18
     d4a:	8f55                	or	a4,a4,a3
     d4c:	4094                	lw	a3,0(s1)
     d4e:	8e99                	sub	a3,a3,a4
     d50:	04544703          	lbu	a4,69(s0)
     d54:	0722                	slli	a4,a4,0x8
     d56:	8f51                	or	a4,a4,a2
     d58:	0742                	slli	a4,a4,0x10
     d5a:	8741                	srai	a4,a4,0x10
     d5c:	03470733          	mul	a4,a4,s4
     d60:	00e6eb63          	bltu	a3,a4,d76 <tcp_slowtmr+0x210>
     d64:	3985                	jal	9d4 <tcp_segs_free>
     d66:	06040823          	sb	zero,112(s0)
     d6a:	060408a3          	sb	zero,113(s0)
     d6e:	06040923          	sb	zero,114(s0)
     d72:	060409a3          	sb	zero,115(s0)
     d76:	01144683          	lbu	a3,17(s0)
     d7a:	01044703          	lbu	a4,16(s0)
     d7e:	06a2                	slli	a3,a3,0x8
     d80:	8ed9                	or	a3,a3,a4
     d82:	01244703          	lbu	a4,18(s0)
     d86:	0742                	slli	a4,a4,0x10
     d88:	8ed9                	or	a3,a3,a4
     d8a:	01344703          	lbu	a4,19(s0)
     d8e:	0762                	slli	a4,a4,0x18
     d90:	8f55                	or	a4,a4,a3
     d92:	468d                	li	a3,3
     d94:	1ed71463          	bne	a4,a3,f7c <tcp_slowtmr+0x416>
     d98:	02f44683          	lbu	a3,47(s0)
     d9c:	02e44703          	lbu	a4,46(s0)
     da0:	06a2                	slli	a3,a3,0x8
     da2:	8ed9                	or	a3,a3,a4
     da4:	03044703          	lbu	a4,48(s0)
     da8:	0742                	slli	a4,a4,0x10
     daa:	8ed9                	or	a3,a3,a4
     dac:	03144703          	lbu	a4,49(s0)
     db0:	0762                	slli	a4,a4,0x18
     db2:	8f55                	or	a4,a4,a3
     db4:	4094                	lw	a3,0(s1)
     db6:	40e68733          	sub	a4,a3,a4
     dba:	1eec6963          	bltu	s8,a4,fac <tcp_slowtmr+0x446>
     dbe:	1e0d1763          	bnez	s10,fac <tcp_slowtmr+0x446>
     dc2:	03244783          	lbu	a5,50(s0)
     dc6:	03344703          	lbu	a4,51(s0)
     dca:	0785                	addi	a5,a5,1
     dcc:	0ff7f793          	andi	a5,a5,255
     dd0:	02f40923          	sb	a5,50(s0)
     dd4:	02e7e763          	bltu	a5,a4,e02 <tcp_slowtmr+0x29c>
     dd8:	08544703          	lbu	a4,133(s0)
     ddc:	08444783          	lbu	a5,132(s0)
     de0:	02040923          	sb	zero,50(s0)
     de4:	0722                	slli	a4,a4,0x8
     de6:	8f5d                	or	a4,a4,a5
     de8:	08644783          	lbu	a5,134(s0)
     dec:	07c2                	slli	a5,a5,0x10
     dee:	8f5d                	or	a4,a4,a5
     df0:	08744783          	lbu	a5,135(s0)
     df4:	07e2                	slli	a5,a5,0x18
     df6:	8fd9                	or	a5,a5,a4
     df8:	2e079463          	bnez	a5,10e0 <tcp_slowtmr+0x57a>
     dfc:	8522                	mv	a0,s0
     dfe:	4d9030ef          	jal	ra,4ad6 <tcp_output>
     e02:	00d44783          	lbu	a5,13(s0)
     e06:	00c44703          	lbu	a4,12(s0)
     e0a:	8922                	mv	s2,s0
     e0c:	07a2                	slli	a5,a5,0x8
     e0e:	8f5d                	or	a4,a4,a5
     e10:	00e44783          	lbu	a5,14(s0)
     e14:	07c2                	slli	a5,a5,0x10
     e16:	8fd9                	or	a5,a5,a4
     e18:	00f44703          	lbu	a4,15(s0)
     e1c:	0762                	slli	a4,a4,0x18
     e1e:	00f76433          	or	s0,a4,a5
     e22:	bb41                	j	bb2 <tcp_slowtmr+0x4c>
     e24:	08040823          	sb	zero,144(s0)
     e28:	080408a3          	sb	zero,145(s0)
     e2c:	08040923          	sb	zero,146(s0)
     e30:	080409a3          	sb	zero,147(s0)
     e34:	01aa6663          	bltu	s4,s10,e40 <tcp_slowtmr+0x2da>
     e38:	001d0793          	addi	a5,s10,1
     e3c:	08f40a23          	sb	a5,148(s0)
     e40:	8522                	mv	a0,s0
     e42:	76c040ef          	jal	ra,55ae <tcp_zero_window_probe>
     e46:	b509                	j	c48 <tcp_slowtmr+0xe2>
     e48:	03544703          	lbu	a4,53(s0)
     e4c:	03444583          	lbu	a1,52(s0)
     e50:	0722                	slli	a4,a4,0x8
     e52:	8f4d                	or	a4,a4,a1
     e54:	0742                	slli	a4,a4,0x10
     e56:	8741                	srai	a4,a4,0x10
     e58:	00074a63          	bltz	a4,e6c <tcp_slowtmr+0x306>
     e5c:	0705                	addi	a4,a4,1
     e5e:	0742                	slli	a4,a4,0x10
     e60:	8341                	srli	a4,a4,0x10
     e62:	02e40a23          	sb	a4,52(s0)
     e66:	8321                	srli	a4,a4,0x8
     e68:	02e40aa3          	sb	a4,53(s0)
     e6c:	06d44583          	lbu	a1,109(s0)
     e70:	06c44703          	lbu	a4,108(s0)
     e74:	05a2                	slli	a1,a1,0x8
     e76:	8dd9                	or	a1,a1,a4
     e78:	06e44703          	lbu	a4,110(s0)
     e7c:	0742                	slli	a4,a4,0x10
     e7e:	8dd9                	or	a1,a1,a4
     e80:	06f44703          	lbu	a4,111(s0)
     e84:	0762                	slli	a4,a4,0x18
     e86:	8f4d                	or	a4,a4,a1
     e88:	dc0700e3          	beqz	a4,c48 <tcp_slowtmr+0xe2>
     e8c:	03544703          	lbu	a4,53(s0)
     e90:	03444583          	lbu	a1,52(s0)
     e94:	0722                	slli	a4,a4,0x8
     e96:	8f4d                	or	a4,a4,a1
     e98:	0742                	slli	a4,a4,0x10
     e9a:	8741                	srai	a4,a4,0x10
     e9c:	dae056e3          	blez	a4,c48 <tcp_slowtmr+0xe2>
     ea0:	05768463          	beq	a3,s7,ee8 <tcp_slowtmr+0x382>
     ea4:	04144703          	lbu	a4,65(s0)
     ea8:	04044683          	lbu	a3,64(s0)
     eac:	04244583          	lbu	a1,66(s0)
     eb0:	0722                	slli	a4,a4,0x8
     eb2:	8f55                	or	a4,a4,a3
     eb4:	04344683          	lbu	a3,67(s0)
     eb8:	0742                	slli	a4,a4,0x10
     eba:	8741                	srai	a4,a4,0x10
     ebc:	06a2                	slli	a3,a3,0x8
     ebe:	8ecd                	or	a3,a3,a1
     ec0:	06c2                	slli	a3,a3,0x10
     ec2:	20025797          	auipc	a5,0x20025
     ec6:	f4278793          	addi	a5,a5,-190 # 20025e04 <tcp_backoff>
     eca:	86c1                	srai	a3,a3,0x10
     ecc:	870d                	srai	a4,a4,0x3
     ece:	963e                	add	a2,a2,a5
     ed0:	9736                	add	a4,a4,a3
     ed2:	00064683          	lbu	a3,0(a2)
     ed6:	00d71733          	sll	a4,a4,a3
     eda:	0742                	slli	a4,a4,0x10
     edc:	8341                	srli	a4,a4,0x10
     ede:	04e40223          	sb	a4,68(s0)
     ee2:	8321                	srli	a4,a4,0x8
     ee4:	04e402a3          	sb	a4,69(s0)
     ee8:	05544603          	lbu	a2,85(s0)
     eec:	05444703          	lbu	a4,84(s0)
     ef0:	04c44683          	lbu	a3,76(s0)
     ef4:	0622                	slli	a2,a2,0x8
     ef6:	8e59                	or	a2,a2,a4
     ef8:	04d44703          	lbu	a4,77(s0)
     efc:	02040a23          	sb	zero,52(s0)
     f00:	02040aa3          	sb	zero,53(s0)
     f04:	0722                	slli	a4,a4,0x8
     f06:	8f55                	or	a4,a4,a3
     f08:	86b2                	mv	a3,a2
     f0a:	00c77363          	bgeu	a4,a2,f10 <tcp_slowtmr+0x3aa>
     f0e:	86ba                	mv	a3,a4
     f10:	06c2                	slli	a3,a3,0x10
     f12:	82c1                	srli	a3,a3,0x10
     f14:	8285                	srli	a3,a3,0x1
     f16:	0086d713          	srli	a4,a3,0x8
     f1a:	04e407a3          	sb	a4,79(s0)
     f1e:	03744703          	lbu	a4,55(s0)
     f22:	03644603          	lbu	a2,54(s0)
     f26:	04d40723          	sb	a3,78(s0)
     f2a:	0722                	slli	a4,a4,0x8
     f2c:	8f51                	or	a4,a4,a2
     f2e:	00e6fb63          	bgeu	a3,a4,f44 <tcp_slowtmr+0x3de>
     f32:	00171693          	slli	a3,a4,0x1
     f36:	06c2                	slli	a3,a3,0x10
     f38:	82c1                	srli	a3,a3,0x10
     f3a:	04d40723          	sb	a3,78(s0)
     f3e:	82a1                	srli	a3,a3,0x8
     f40:	04d407a3          	sb	a3,79(s0)
     f44:	04e40623          	sb	a4,76(s0)
     f48:	8321                	srli	a4,a4,0x8
     f4a:	04e406a3          	sb	a4,77(s0)
     f4e:	8522                	mv	a0,s0
     f50:	3c0040ef          	jal	ra,5310 <tcp_rexmit_rto>
     f54:	b9dd                	j	c4a <tcp_slowtmr+0xe4>
     f56:	09544703          	lbu	a4,149(s0)
     f5a:	4a81                	li	s5,0
     f5c:	03070733          	mul	a4,a4,a6
     f60:	9732                	add	a4,a4,a2
     f62:	02a75733          	divu	a4,a4,a0
     f66:	dab774e3          	bgeu	a4,a1,d0e <tcp_slowtmr+0x1a8>
     f6a:	8522                	mv	a0,s0
     f6c:	5da040ef          	jal	ra,5546 <tcp_keepalive>
     f70:	09544703          	lbu	a4,149(s0)
     f74:	0705                	addi	a4,a4,1
     f76:	08e40aa3          	sb	a4,149(s0)
     f7a:	bb51                	j	d0e <tcp_slowtmr+0x1a8>
     f7c:	46a5                	li	a3,9
     f7e:	e4d710e3          	bne	a4,a3,dbe <tcp_slowtmr+0x258>
     f82:	02f44683          	lbu	a3,47(s0)
     f86:	02e44703          	lbu	a4,46(s0)
     f8a:	06a2                	slli	a3,a3,0x8
     f8c:	8ed9                	or	a3,a3,a4
     f8e:	03044703          	lbu	a4,48(s0)
     f92:	0742                	slli	a4,a4,0x10
     f94:	8ed9                	or	a3,a3,a4
     f96:	03144703          	lbu	a4,49(s0)
     f9a:	0762                	slli	a4,a4,0x18
     f9c:	8f55                	or	a4,a4,a3
     f9e:	4094                	lw	a3,0(s1)
     fa0:	40e68733          	sub	a4,a3,a4
     fa4:	0f000693          	li	a3,240
     fa8:	e0e6fbe3          	bgeu	a3,a4,dbe <tcp_slowtmr+0x258>
     fac:	8522                	mv	a0,s0
     fae:	20021097          	auipc	ra,0x20021
     fb2:	f82080e7          	jalr	-126(ra) # 20021f30 <LwipRemoveTcpPcb>
     fb6:	8522                	mv	a0,s0
     fb8:	3475                	jal	a64 <tcp_pcb_purge>
     fba:	00d44603          	lbu	a2,13(s0)
     fbe:	00c44783          	lbu	a5,12(s0)
     fc2:	00e44683          	lbu	a3,14(s0)
     fc6:	00f44703          	lbu	a4,15(s0)
     fca:	0622                	slli	a2,a2,0x8
     fcc:	10090063          	beqz	s2,10cc <tcp_slowtmr+0x566>
     fd0:	8fd1                	or	a5,a5,a2
     fd2:	06c2                	slli	a3,a3,0x10
     fd4:	8edd                	or	a3,a3,a5
     fd6:	01871793          	slli	a5,a4,0x18
     fda:	8fd5                	or	a5,a5,a3
     fdc:	0087d713          	srli	a4,a5,0x8
     fe0:	00f90623          	sb	a5,12(s2)
     fe4:	00e906a3          	sb	a4,13(s2)
     fe8:	0107d713          	srli	a4,a5,0x10
     fec:	83e1                	srli	a5,a5,0x18
     fee:	00e90723          	sb	a4,14(s2)
     ff2:	00f907a3          	sb	a5,15(s2)
     ff6:	08944703          	lbu	a4,137(s0)
     ffa:	08844783          	lbu	a5,136(s0)
     ffe:	0722                	slli	a4,a4,0x8
    1000:	8f5d                	or	a4,a4,a5
    1002:	08a44783          	lbu	a5,138(s0)
    1006:	07c2                	slli	a5,a5,0x10
    1008:	8f5d                	or	a4,a4,a5
    100a:	08b44783          	lbu	a5,139(s0)
    100e:	07e2                	slli	a5,a5,0x18
    1010:	8fd9                	or	a5,a5,a4
    1012:	c38d                	beqz	a5,1034 <tcp_slowtmr+0x4ce>
    1014:	01644503          	lbu	a0,22(s0)
    1018:	01544703          	lbu	a4,21(s0)
    101c:	55ed                	li	a1,-5
    101e:	0522                	slli	a0,a0,0x8
    1020:	8d59                	or	a0,a0,a4
    1022:	01744703          	lbu	a4,23(s0)
    1026:	0742                	slli	a4,a4,0x10
    1028:	8f49                	or	a4,a4,a0
    102a:	01844503          	lbu	a0,24(s0)
    102e:	0562                	slli	a0,a0,0x18
    1030:	8d59                	or	a0,a0,a4
    1032:	9782                	jalr	a5
    1034:	060a8563          	beqz	s5,109e <tcp_slowtmr+0x538>
    1038:	02344583          	lbu	a1,35(s0)
    103c:	05144503          	lbu	a0,81(s0)
    1040:	02244883          	lbu	a7,34(s0)
    1044:	05044803          	lbu	a6,80(s0)
    1048:	05a2                	slli	a1,a1,0x8
    104a:	0522                	slli	a0,a0,0x8
    104c:	0115e5b3          	or	a1,a1,a7
    1050:	01056533          	or	a0,a0,a6
    1054:	02444883          	lbu	a7,36(s0)
    1058:	05244803          	lbu	a6,82(s0)
    105c:	02044783          	lbu	a5,32(s0)
    1060:	08c2                	slli	a7,a7,0x10
    1062:	0842                	slli	a6,a6,0x10
    1064:	00b8e8b3          	or	a7,a7,a1
    1068:	00a86833          	or	a6,a6,a0
    106c:	01a44703          	lbu	a4,26(s0)
    1070:	02544583          	lbu	a1,37(s0)
    1074:	05344503          	lbu	a0,83(s0)
    1078:	01f44603          	lbu	a2,31(s0)
    107c:	01944683          	lbu	a3,25(s0)
    1080:	07a2                	slli	a5,a5,0x8
    1082:	0722                	slli	a4,a4,0x8
    1084:	05e2                	slli	a1,a1,0x18
    1086:	0562                	slli	a0,a0,0x18
    1088:	8fd1                	or	a5,a5,a2
    108a:	8f55                	or	a4,a4,a3
    108c:	8622                	mv	a2,s0
    108e:	00440693          	addi	a3,s0,4
    1092:	0115e5b3          	or	a1,a1,a7
    1096:	01056533          	or	a0,a0,a6
    109a:	112040ef          	jal	ra,51ac <tcp_rst>
    109e:	00d44783          	lbu	a5,13(s0)
    10a2:	00c44a83          	lbu	s5,12(s0)
    10a6:	85a2                	mv	a1,s0
    10a8:	07a2                	slli	a5,a5,0x8
    10aa:	0157e7b3          	or	a5,a5,s5
    10ae:	00e44a83          	lbu	s5,14(s0)
    10b2:	4509                	li	a0,2
    10b4:	0ac2                	slli	s5,s5,0x10
    10b6:	00fae7b3          	or	a5,s5,a5
    10ba:	00f44a83          	lbu	s5,15(s0)
    10be:	0ae2                	slli	s5,s5,0x18
    10c0:	00faeab3          	or	s5,s5,a5
    10c4:	8456                	mv	s0,s5
    10c6:	0d0050ef          	jal	ra,6196 <memp_free>
    10ca:	b4e5                	j	bb2 <tcp_slowtmr+0x4c>
    10cc:	8e5d                	or	a2,a2,a5
    10ce:	06c2                	slli	a3,a3,0x10
    10d0:	8ed1                	or	a3,a3,a2
    10d2:	0762                	slli	a4,a4,0x18
    10d4:	8f55                	or	a4,a4,a3
    10d6:	20000797          	auipc	a5,0x20000
    10da:	dce7a923          	sw	a4,-558(a5) # 20000ea8 <tcp_active_pcbs>
    10de:	bf21                	j	ff6 <tcp_slowtmr+0x490>
    10e0:	01644503          	lbu	a0,22(s0)
    10e4:	01544703          	lbu	a4,21(s0)
    10e8:	85a2                	mv	a1,s0
    10ea:	0522                	slli	a0,a0,0x8
    10ec:	8d59                	or	a0,a0,a4
    10ee:	01744703          	lbu	a4,23(s0)
    10f2:	0742                	slli	a4,a4,0x10
    10f4:	8f49                	or	a4,a4,a0
    10f6:	01844503          	lbu	a0,24(s0)
    10fa:	0562                	slli	a0,a0,0x18
    10fc:	8d59                	or	a0,a0,a4
    10fe:	9782                	jalr	a5
    1100:	ce050ee3          	beqz	a0,dfc <tcp_slowtmr+0x296>
    1104:	b9fd                	j	e02 <tcp_slowtmr+0x29c>
    1106:	8522                	mv	a0,s0
    1108:	20021097          	auipc	ra,0x20021
    110c:	e28080e7          	jalr	-472(ra) # 20021f30 <LwipRemoveTcpPcb>
    1110:	8522                	mv	a0,s0
    1112:	3a89                	jal	a64 <tcp_pcb_purge>
    1114:	00d44783          	lbu	a5,13(s0)
    1118:	00c44483          	lbu	s1,12(s0)
    111c:	85a2                	mv	a1,s0
    111e:	07a2                	slli	a5,a5,0x8
    1120:	8fc5                	or	a5,a5,s1
    1122:	00e44483          	lbu	s1,14(s0)
    1126:	4509                	li	a0,2
    1128:	04c2                	slli	s1,s1,0x10
    112a:	8fc5                	or	a5,a5,s1
    112c:	00f44483          	lbu	s1,15(s0)
    1130:	04e2                	slli	s1,s1,0x18
    1132:	8cdd                	or	s1,s1,a5
    1134:	20000797          	auipc	a5,0x20000
    1138:	d897a423          	sw	s1,-632(a5) # 20000ebc <tcp_tw_pcbs>
    113c:	8426                	mv	s0,s1
    113e:	058050ef          	jal	ra,6196 <memp_free>
    1142:	bcb5                	j	bbe <tcp_slowtmr+0x58>

00001144 <RemoveTimeWaiTCP>:
    1144:	2001f317          	auipc	t1,0x2001f
    1148:	eec302e7          	jalr	t0,-276(t1) # 20020030 <__riscv_save_0>
    114c:	20000797          	auipc	a5,0x20000
    1150:	d7078793          	addi	a5,a5,-656 # 20000ebc <tcp_tw_pcbs>
    1154:	4380                	lw	s0,0(a5)
    1156:	e409                	bnez	s0,1160 <RemoveTimeWaiTCP+0x1c>
    1158:	2001f317          	auipc	t1,0x2001f
    115c:	efc30067          	jr	-260(t1) # 20020054 <__riscv_restore_0>
    1160:	8522                	mv	a0,s0
    1162:	20021097          	auipc	ra,0x20021
    1166:	dce080e7          	jalr	-562(ra) # 20021f30 <LwipRemoveTcpPcb>
    116a:	8522                	mv	a0,s0
    116c:	38e5                	jal	a64 <tcp_pcb_purge>
    116e:	00d44783          	lbu	a5,13(s0)
    1172:	00c44483          	lbu	s1,12(s0)
    1176:	85a2                	mv	a1,s0
    1178:	07a2                	slli	a5,a5,0x8
    117a:	8fc5                	or	a5,a5,s1
    117c:	00e44483          	lbu	s1,14(s0)
    1180:	4509                	li	a0,2
    1182:	04c2                	slli	s1,s1,0x10
    1184:	8fc5                	or	a5,a5,s1
    1186:	00f44483          	lbu	s1,15(s0)
    118a:	04e2                	slli	s1,s1,0x18
    118c:	8cdd                	or	s1,s1,a5
    118e:	20000797          	auipc	a5,0x20000
    1192:	d297a723          	sw	s1,-722(a5) # 20000ebc <tcp_tw_pcbs>
    1196:	8426                	mv	s0,s1
    1198:	7ff040ef          	jal	ra,6196 <memp_free>
    119c:	bf6d                	j	1156 <RemoveTimeWaiTCP+0x12>

0000119e <tcp_pcb_remove>:
    119e:	2001f317          	auipc	t1,0x2001f
    11a2:	e92302e7          	jalr	t0,-366(t1) # 20020030 <__riscv_save_0>
    11a6:	411c                	lw	a5,0(a0)
    11a8:	842e                	mv	s0,a1
    11aa:	08b79763          	bne	a5,a1,1238 <tcp_pcb_remove+0x9a>
    11ae:	00d5c703          	lbu	a4,13(a1)
    11b2:	00c5c783          	lbu	a5,12(a1)
    11b6:	0722                	slli	a4,a4,0x8
    11b8:	8f5d                	or	a4,a4,a5
    11ba:	00e5c783          	lbu	a5,14(a1)
    11be:	07c2                	slli	a5,a5,0x10
    11c0:	8f5d                	or	a4,a4,a5
    11c2:	00f5c783          	lbu	a5,15(a1)
    11c6:	07e2                	slli	a5,a5,0x18
    11c8:	8fd9                	or	a5,a5,a4
    11ca:	c11c                	sw	a5,0(a0)
    11cc:	00040623          	sb	zero,12(s0)
    11d0:	000406a3          	sb	zero,13(s0)
    11d4:	00040723          	sb	zero,14(s0)
    11d8:	000407a3          	sb	zero,15(s0)
    11dc:	8522                	mv	a0,s0
    11de:	3059                	jal	a64 <tcp_pcb_purge>
    11e0:	01144703          	lbu	a4,17(s0)
    11e4:	01044783          	lbu	a5,16(s0)
    11e8:	0722                	slli	a4,a4,0x8
    11ea:	8f5d                	or	a4,a4,a5
    11ec:	01244783          	lbu	a5,18(s0)
    11f0:	07c2                	slli	a5,a5,0x10
    11f2:	8f5d                	or	a4,a4,a5
    11f4:	01344783          	lbu	a5,19(s0)
    11f8:	07e2                	slli	a5,a5,0x18
    11fa:	8fd9                	or	a5,a5,a4
    11fc:	4729                	li	a4,10
    11fe:	02e78163          	beq	a5,a4,1220 <tcp_pcb_remove+0x82>
    1202:	4705                	li	a4,1
    1204:	00e78e63          	beq	a5,a4,1220 <tcp_pcb_remove+0x82>
    1208:	02144783          	lbu	a5,33(s0)
    120c:	0017f713          	andi	a4,a5,1
    1210:	cb01                	beqz	a4,1220 <tcp_pcb_remove+0x82>
    1212:	0027e793          	ori	a5,a5,2
    1216:	02f400a3          	sb	a5,33(s0)
    121a:	8522                	mv	a0,s0
    121c:	0bb030ef          	jal	ra,4ad6 <tcp_output>
    1220:	00040823          	sb	zero,16(s0)
    1224:	000408a3          	sb	zero,17(s0)
    1228:	00040923          	sb	zero,18(s0)
    122c:	000409a3          	sb	zero,19(s0)
    1230:	2001f317          	auipc	t1,0x2001f
    1234:	e2430067          	jr	-476(t1) # 20020054 <__riscv_restore_0>
    1238:	20000717          	auipc	a4,0x20000
    123c:	c6f72e23          	sw	a5,-900(a4) # 20000eb4 <tcp_tmp_pcb>
    1240:	4601                	li	a2,0
    1242:	e799                	bnez	a5,1250 <tcp_pcb_remove+0xb2>
    1244:	d641                	beqz	a2,11cc <tcp_pcb_remove+0x2e>
    1246:	20000797          	auipc	a5,0x20000
    124a:	c607a723          	sw	zero,-914(a5) # 20000eb4 <tcp_tmp_pcb>
    124e:	bfbd                	j	11cc <tcp_pcb_remove+0x2e>
    1250:	00d7c683          	lbu	a3,13(a5)
    1254:	00c7c703          	lbu	a4,12(a5)
    1258:	06a2                	slli	a3,a3,0x8
    125a:	8ed9                	or	a3,a3,a4
    125c:	00e7c703          	lbu	a4,14(a5)
    1260:	0742                	slli	a4,a4,0x10
    1262:	8ed9                	or	a3,a3,a4
    1264:	00f7c703          	lbu	a4,15(a5)
    1268:	0762                	slli	a4,a4,0x18
    126a:	8f55                	or	a4,a4,a3
    126c:	04871363          	bne	a4,s0,12b2 <tcp_pcb_remove+0x114>
    1270:	c609                	beqz	a2,127a <tcp_pcb_remove+0xdc>
    1272:	20000717          	auipc	a4,0x20000
    1276:	c4f72123          	sw	a5,-958(a4) # 20000eb4 <tcp_tmp_pcb>
    127a:	00d44683          	lbu	a3,13(s0)
    127e:	00c44703          	lbu	a4,12(s0)
    1282:	06a2                	slli	a3,a3,0x8
    1284:	8ed9                	or	a3,a3,a4
    1286:	00e44703          	lbu	a4,14(s0)
    128a:	0742                	slli	a4,a4,0x10
    128c:	8ed9                	or	a3,a3,a4
    128e:	00f44703          	lbu	a4,15(s0)
    1292:	0762                	slli	a4,a4,0x18
    1294:	8f55                	or	a4,a4,a3
    1296:	00875693          	srli	a3,a4,0x8
    129a:	00e78623          	sb	a4,12(a5)
    129e:	00d786a3          	sb	a3,13(a5)
    12a2:	01075693          	srli	a3,a4,0x10
    12a6:	8361                	srli	a4,a4,0x18
    12a8:	00d78723          	sb	a3,14(a5)
    12ac:	00e787a3          	sb	a4,15(a5)
    12b0:	bf31                	j	11cc <tcp_pcb_remove+0x2e>
    12b2:	4605                	li	a2,1
    12b4:	87ba                	mv	a5,a4
    12b6:	b771                	j	1242 <tcp_pcb_remove+0xa4>

000012b8 <tcp_close>:
    12b8:	01154703          	lbu	a4,17(a0)
    12bc:	01054783          	lbu	a5,16(a0)
    12c0:	0722                	slli	a4,a4,0x8
    12c2:	8f5d                	or	a4,a4,a5
    12c4:	01254783          	lbu	a5,18(a0)
    12c8:	07c2                	slli	a5,a5,0x10
    12ca:	8f5d                	or	a4,a4,a5
    12cc:	01354783          	lbu	a5,19(a0)
    12d0:	07e2                	slli	a5,a5,0x18
    12d2:	8fd9                	or	a5,a5,a4
    12d4:	471d                	li	a4,7
    12d6:	14f76d63          	bltu	a4,a5,1430 <tcp_close+0x178>
    12da:	2001f317          	auipc	t1,0x2001f
    12de:	d56302e7          	jalr	t0,-682(t1) # 20020030 <__riscv_save_0>
    12e2:	20025717          	auipc	a4,0x20025
    12e6:	b0270713          	addi	a4,a4,-1278 # 20025de4 <ErrTable+0x74>
    12ea:	078a                	slli	a5,a5,0x2
    12ec:	97ba                	add	a5,a5,a4
    12ee:	439c                	lw	a5,0(a5)
    12f0:	842a                	mv	s0,a0
    12f2:	97ba                	add	a5,a5,a4
    12f4:	8782                	jr	a5
    12f6:	20021097          	auipc	ra,0x20021
    12fa:	c3a080e7          	jalr	-966(ra) # 20021f30 <LwipRemoveTcpPcb>
    12fe:	20000797          	auipc	a5,0x20000
    1302:	bba78793          	addi	a5,a5,-1094 # 20000eb8 <tcp_bound_pcbs>
    1306:	439c                	lw	a5,0(a5)
    1308:	02879f63          	bne	a5,s0,1346 <tcp_close+0x8e>
    130c:	00d44703          	lbu	a4,13(s0)
    1310:	00c44783          	lbu	a5,12(s0)
    1314:	0722                	slli	a4,a4,0x8
    1316:	8f5d                	or	a4,a4,a5
    1318:	00e44783          	lbu	a5,14(s0)
    131c:	07c2                	slli	a5,a5,0x10
    131e:	8f5d                	or	a4,a4,a5
    1320:	00f44783          	lbu	a5,15(s0)
    1324:	07e2                	slli	a5,a5,0x18
    1326:	8fd9                	or	a5,a5,a4
    1328:	20000717          	auipc	a4,0x20000
    132c:	b8f72823          	sw	a5,-1136(a4) # 20000eb8 <tcp_bound_pcbs>
    1330:	00040623          	sb	zero,12(s0)
    1334:	000406a3          	sb	zero,13(s0)
    1338:	00040723          	sb	zero,14(s0)
    133c:	000407a3          	sb	zero,15(s0)
    1340:	85a2                	mv	a1,s0
    1342:	4509                	li	a0,2
    1344:	a869                	j	13de <tcp_close+0x126>
    1346:	20000717          	auipc	a4,0x20000
    134a:	b6f72723          	sw	a5,-1170(a4) # 20000eb4 <tcp_tmp_pcb>
    134e:	4601                	li	a2,0
    1350:	e799                	bnez	a5,135e <tcp_close+0xa6>
    1352:	de79                	beqz	a2,1330 <tcp_close+0x78>
    1354:	20000797          	auipc	a5,0x20000
    1358:	b607a023          	sw	zero,-1184(a5) # 20000eb4 <tcp_tmp_pcb>
    135c:	bfd1                	j	1330 <tcp_close+0x78>
    135e:	00d7c683          	lbu	a3,13(a5)
    1362:	00c7c703          	lbu	a4,12(a5)
    1366:	06a2                	slli	a3,a3,0x8
    1368:	8ed9                	or	a3,a3,a4
    136a:	00e7c703          	lbu	a4,14(a5)
    136e:	0742                	slli	a4,a4,0x10
    1370:	8ed9                	or	a3,a3,a4
    1372:	00f7c703          	lbu	a4,15(a5)
    1376:	0762                	slli	a4,a4,0x18
    1378:	8f55                	or	a4,a4,a3
    137a:	04871363          	bne	a4,s0,13c0 <tcp_close+0x108>
    137e:	c609                	beqz	a2,1388 <tcp_close+0xd0>
    1380:	20000717          	auipc	a4,0x20000
    1384:	b2f72a23          	sw	a5,-1228(a4) # 20000eb4 <tcp_tmp_pcb>
    1388:	00d44683          	lbu	a3,13(s0)
    138c:	00c44703          	lbu	a4,12(s0)
    1390:	06a2                	slli	a3,a3,0x8
    1392:	8ed9                	or	a3,a3,a4
    1394:	00e44703          	lbu	a4,14(s0)
    1398:	0742                	slli	a4,a4,0x10
    139a:	8ed9                	or	a3,a3,a4
    139c:	00f44703          	lbu	a4,15(s0)
    13a0:	0762                	slli	a4,a4,0x18
    13a2:	8f55                	or	a4,a4,a3
    13a4:	00875693          	srli	a3,a4,0x8
    13a8:	00e78623          	sb	a4,12(a5)
    13ac:	00d786a3          	sb	a3,13(a5)
    13b0:	01075693          	srli	a3,a4,0x10
    13b4:	8361                	srli	a4,a4,0x18
    13b6:	00d78723          	sb	a3,14(a5)
    13ba:	00e787a3          	sb	a4,15(a5)
    13be:	bf8d                	j	1330 <tcp_close+0x78>
    13c0:	4605                	li	a2,1
    13c2:	87ba                	mv	a5,a4
    13c4:	b771                	j	1350 <tcp_close+0x98>
    13c6:	20021097          	auipc	ra,0x20021
    13ca:	b6a080e7          	jalr	-1174(ra) # 20021f30 <LwipRemoveTcpPcb>
    13ce:	85a2                	mv	a1,s0
    13d0:	20000517          	auipc	a0,0x20000
    13d4:	ae050513          	addi	a0,a0,-1312 # 20000eb0 <tcp_listen_pcbs>
    13d8:	33d9                	jal	119e <tcp_pcb_remove>
    13da:	85a2                	mv	a1,s0
    13dc:	450d                	li	a0,3
    13de:	5b9040ef          	jal	ra,6196 <memp_free>
    13e2:	4501                	li	a0,0
    13e4:	a00d                	j	1406 <tcp_close+0x14e>
    13e6:	20021097          	auipc	ra,0x20021
    13ea:	b4a080e7          	jalr	-1206(ra) # 20021f30 <LwipRemoveTcpPcb>
    13ee:	85a2                	mv	a1,s0
    13f0:	20000517          	auipc	a0,0x20000
    13f4:	ab850513          	addi	a0,a0,-1352 # 20000ea8 <tcp_active_pcbs>
    13f8:	335d                	jal	119e <tcp_pcb_remove>
    13fa:	b799                	j	1340 <tcp_close+0x88>
    13fc:	4585                	li	a1,1
    13fe:	640030ef          	jal	ra,4a3e <tcp_send_ctrl>
    1402:	4795                	li	a5,5
    1404:	c911                	beqz	a0,1418 <tcp_close+0x160>
    1406:	2001f317          	auipc	t1,0x2001f
    140a:	c4e30067          	jr	-946(t1) # 20020054 <__riscv_restore_0>
    140e:	4585                	li	a1,1
    1410:	62e030ef          	jal	ra,4a3e <tcp_send_ctrl>
    1414:	f96d                	bnez	a0,1406 <tcp_close+0x14e>
    1416:	47a5                	li	a5,9
    1418:	00f40823          	sb	a5,16(s0)
    141c:	000408a3          	sb	zero,17(s0)
    1420:	00040923          	sb	zero,18(s0)
    1424:	000409a3          	sb	zero,19(s0)
    1428:	8522                	mv	a0,s0
    142a:	6ac030ef          	jal	ra,4ad6 <tcp_output>
    142e:	bf55                	j	13e2 <tcp_close+0x12a>
    1430:	4501                	li	a0,0
    1432:	8082                	ret

00001434 <tcp_recv_null>:
    1434:	2001f317          	auipc	t1,0x2001f
    1438:	bfc302e7          	jalr	t0,-1028(t1) # 20020030 <__riscv_save_0>
    143c:	1141                	addi	sp,sp,-16
    143e:	852e                	mv	a0,a1
    1440:	c60d                	beqz	a2,146a <tcp_recv_null+0x36>
    1442:	00964783          	lbu	a5,9(a2)
    1446:	00864583          	lbu	a1,8(a2)
    144a:	c632                	sw	a2,12(sp)
    144c:	07a2                	slli	a5,a5,0x8
    144e:	8ddd                	or	a1,a1,a5
    1450:	ce6ff0ef          	jal	ra,936 <tcp_recved>
    1454:	4632                	lw	a2,12(sp)
    1456:	8532                	mv	a0,a2
    1458:	177050ef          	jal	ra,6dce <pbuf_free>
    145c:	4781                	li	a5,0
    145e:	853e                	mv	a0,a5
    1460:	0141                	addi	sp,sp,16
    1462:	2001f317          	auipc	t1,0x2001f
    1466:	bf230067          	jr	-1038(t1) # 20020054 <__riscv_restore_0>
    146a:	4781                	li	a5,0
    146c:	faed                	bnez	a3,145e <tcp_recv_null+0x2a>
    146e:	35a9                	jal	12b8 <tcp_close>
    1470:	87aa                	mv	a5,a0
    1472:	b7f5                	j	145e <tcp_recv_null+0x2a>

00001474 <tcp_fasttmr>:
    1474:	2001f317          	auipc	t1,0x2001f
    1478:	bbc302e7          	jalr	t0,-1092(t1) # 20020030 <__riscv_save_0>
    147c:	20000797          	auipc	a5,0x20000
    1480:	a2c78793          	addi	a5,a5,-1492 # 20000ea8 <tcp_active_pcbs>
    1484:	4380                	lw	s0,0(a5)
    1486:	06500493          	li	s1,101
    148a:	c449                	beqz	s0,1514 <tcp_fasttmr+0xa0>
    148c:	07544783          	lbu	a5,117(s0)
    1490:	07444603          	lbu	a2,116(s0)
    1494:	07a2                	slli	a5,a5,0x8
    1496:	8fd1                	or	a5,a5,a2
    1498:	07644603          	lbu	a2,118(s0)
    149c:	0642                	slli	a2,a2,0x10
    149e:	8fd1                	or	a5,a5,a2
    14a0:	07744603          	lbu	a2,119(s0)
    14a4:	0662                	slli	a2,a2,0x18
    14a6:	8e5d                	or	a2,a2,a5
    14a8:	ca31                	beqz	a2,14fc <tcp_fasttmr+0x88>
    14aa:	07d44703          	lbu	a4,125(s0)
    14ae:	07c44783          	lbu	a5,124(s0)
    14b2:	0722                	slli	a4,a4,0x8
    14b4:	8f5d                	or	a4,a4,a5
    14b6:	07e44783          	lbu	a5,126(s0)
    14ba:	07c2                	slli	a5,a5,0x10
    14bc:	8f5d                	or	a4,a4,a5
    14be:	07f44783          	lbu	a5,127(s0)
    14c2:	07e2                	slli	a5,a5,0x18
    14c4:	8fd9                	or	a5,a5,a4
    14c6:	cbb9                	beqz	a5,151c <tcp_fasttmr+0xa8>
    14c8:	01644503          	lbu	a0,22(s0)
    14cc:	01544703          	lbu	a4,21(s0)
    14d0:	4681                	li	a3,0
    14d2:	0522                	slli	a0,a0,0x8
    14d4:	8d59                	or	a0,a0,a4
    14d6:	01744703          	lbu	a4,23(s0)
    14da:	85a2                	mv	a1,s0
    14dc:	0742                	slli	a4,a4,0x10
    14de:	8f49                	or	a4,a4,a0
    14e0:	01844503          	lbu	a0,24(s0)
    14e4:	0562                	slli	a0,a0,0x18
    14e6:	8d59                	or	a0,a0,a4
    14e8:	9782                	jalr	a5
    14ea:	e909                	bnez	a0,14fc <tcp_fasttmr+0x88>
    14ec:	06040a23          	sb	zero,116(s0)
    14f0:	06040aa3          	sb	zero,117(s0)
    14f4:	06040b23          	sb	zero,118(s0)
    14f8:	06040ba3          	sb	zero,119(s0)
    14fc:	14fd                	addi	s1,s1,-1
    14fe:	0ff4f493          	andi	s1,s1,255
    1502:	e095                	bnez	s1,1526 <tcp_fasttmr+0xb2>
    1504:	20025517          	auipc	a0,0x20025
    1508:	91450513          	addi	a0,a0,-1772 # 20025e18 <tcp_backoff+0x14>
    150c:	20023097          	auipc	ra,0x20023
    1510:	f58080e7          	jalr	-168(ra) # 20024464 <puts>
    1514:	2001f317          	auipc	t1,0x2001f
    1518:	b4030067          	jr	-1216(t1) # 20020054 <__riscv_restore_0>
    151c:	4681                	li	a3,0
    151e:	85a2                	mv	a1,s0
    1520:	4501                	li	a0,0
    1522:	3f09                	jal	1434 <tcp_recv_null>
    1524:	b7d9                	j	14ea <tcp_fasttmr+0x76>
    1526:	02144783          	lbu	a5,33(s0)
    152a:	0017f713          	andi	a4,a5,1
    152e:	cf09                	beqz	a4,1548 <tcp_fasttmr+0xd4>
    1530:	0027e793          	ori	a5,a5,2
    1534:	02f400a3          	sb	a5,33(s0)
    1538:	8522                	mv	a0,s0
    153a:	59c030ef          	jal	ra,4ad6 <tcp_output>
    153e:	02144783          	lbu	a5,33(s0)
    1542:	9bf1                	andi	a5,a5,-4
    1544:	02f400a3          	sb	a5,33(s0)
    1548:	00d44783          	lbu	a5,13(s0)
    154c:	00c44703          	lbu	a4,12(s0)
    1550:	07a2                	slli	a5,a5,0x8
    1552:	8f5d                	or	a4,a4,a5
    1554:	00e44783          	lbu	a5,14(s0)
    1558:	00f44403          	lbu	s0,15(s0)
    155c:	07c2                	slli	a5,a5,0x10
    155e:	8fd9                	or	a5,a5,a4
    1560:	0462                	slli	s0,s0,0x18
    1562:	8c5d                	or	s0,s0,a5
    1564:	b71d                	j	148a <tcp_fasttmr+0x16>

00001566 <tcp_tmr>:
    1566:	2001f317          	auipc	t1,0x2001f
    156a:	aca302e7          	jalr	t0,-1334(t1) # 20020030 <__riscv_save_0>
    156e:	3719                	jal	1474 <tcp_fasttmr>
    1570:	1ffff797          	auipc	a5,0x1ffff
    1574:	b787c783          	lbu	a5,-1160(a5) # 200000e8 <tcp_timer>
    1578:	0785                	addi	a5,a5,1
    157a:	0ff7f793          	andi	a5,a5,255
    157e:	1ffff717          	auipc	a4,0x1ffff
    1582:	b6f70523          	sb	a5,-1174(a4) # 200000e8 <tcp_timer>
    1586:	8b85                	andi	a5,a5,1
    1588:	c399                	beqz	a5,158e <tcp_tmr+0x28>
    158a:	ddcff0ef          	jal	ra,b66 <tcp_slowtmr>
    158e:	2001f317          	auipc	t1,0x2001f
    1592:	ac630067          	jr	-1338(t1) # 20020054 <__riscv_restore_0>

00001596 <tcp_abandon>:
    1596:	2001f317          	auipc	t1,0x2001f
    159a:	a72302e7          	jalr	t0,-1422(t1) # 20020008 <__riscv_save_10>
    159e:	01154703          	lbu	a4,17(a0)
    15a2:	01054783          	lbu	a5,16(a0)
    15a6:	1141                	addi	sp,sp,-16
    15a8:	0722                	slli	a4,a4,0x8
    15aa:	8f5d                	or	a4,a4,a5
    15ac:	01254783          	lbu	a5,18(a0)
    15b0:	842a                	mv	s0,a0
    15b2:	07c2                	slli	a5,a5,0x10
    15b4:	8f5d                	or	a4,a4,a5
    15b6:	01354783          	lbu	a5,19(a0)
    15ba:	07e2                	slli	a5,a5,0x18
    15bc:	8fd9                	or	a5,a5,a4
    15be:	4729                	li	a4,10
    15c0:	02e79163          	bne	a5,a4,15e2 <tcp_abandon+0x4c>
    15c4:	85aa                	mv	a1,a0
    15c6:	20000517          	auipc	a0,0x20000
    15ca:	8f650513          	addi	a0,a0,-1802 # 20000ebc <tcp_tw_pcbs>
    15ce:	3ec1                	jal	119e <tcp_pcb_remove>
    15d0:	85a2                	mv	a1,s0
    15d2:	4509                	li	a0,2
    15d4:	3c3040ef          	jal	ra,6196 <memp_free>
    15d8:	0141                	addi	sp,sp,16
    15da:	2001f317          	auipc	t1,0x2001f
    15de:	a6630067          	jr	-1434(t1) # 20020040 <__riscv_restore_10>
    15e2:	05154783          	lbu	a5,81(a0)
    15e6:	05054903          	lbu	s2,80(a0)
    15ea:	02254983          	lbu	s3,34(a0)
    15ee:	07a2                	slli	a5,a5,0x8
    15f0:	0127e7b3          	or	a5,a5,s2
    15f4:	05254903          	lbu	s2,82(a0)
    15f8:	00154703          	lbu	a4,1(a0)
    15fc:	8bae                	mv	s7,a1
    15fe:	0942                	slli	s2,s2,0x10
    1600:	00f967b3          	or	a5,s2,a5
    1604:	05354903          	lbu	s2,83(a0)
    1608:	0722                	slli	a4,a4,0x8
    160a:	0962                	slli	s2,s2,0x18
    160c:	00f96933          	or	s2,s2,a5
    1610:	02354783          	lbu	a5,35(a0)
    1614:	07a2                	slli	a5,a5,0x8
    1616:	0137e7b3          	or	a5,a5,s3
    161a:	02454983          	lbu	s3,36(a0)
    161e:	09c2                	slli	s3,s3,0x10
    1620:	00f9e7b3          	or	a5,s3,a5
    1624:	02554983          	lbu	s3,37(a0)
    1628:	09e2                	slli	s3,s3,0x18
    162a:	00f9e9b3          	or	s3,s3,a5
    162e:	00054783          	lbu	a5,0(a0)
    1632:	8f5d                	or	a4,a4,a5
    1634:	00254783          	lbu	a5,2(a0)
    1638:	07c2                	slli	a5,a5,0x10
    163a:	8f5d                	or	a4,a4,a5
    163c:	00354783          	lbu	a5,3(a0)
    1640:	07e2                	slli	a5,a5,0x18
    1642:	8fd9                	or	a5,a5,a4
    1644:	c63e                	sw	a5,12(sp)
    1646:	00554703          	lbu	a4,5(a0)
    164a:	00454783          	lbu	a5,4(a0)
    164e:	0722                	slli	a4,a4,0x8
    1650:	8f5d                	or	a4,a4,a5
    1652:	00654783          	lbu	a5,6(a0)
    1656:	07c2                	slli	a5,a5,0x10
    1658:	8f5d                	or	a4,a4,a5
    165a:	00754783          	lbu	a5,7(a0)
    165e:	07e2                	slli	a5,a5,0x18
    1660:	8fd9                	or	a5,a5,a4
    1662:	c43e                	sw	a5,8(sp)
    1664:	01a54a03          	lbu	s4,26(a0)
    1668:	01954783          	lbu	a5,25(a0)
    166c:	02054a83          	lbu	s5,32(a0)
    1670:	0a22                	slli	s4,s4,0x8
    1672:	00fa6a33          	or	s4,s4,a5
    1676:	01f54783          	lbu	a5,31(a0)
    167a:	0aa2                	slli	s5,s5,0x8
    167c:	08854483          	lbu	s1,136(a0)
    1680:	00faeab3          	or	s5,s5,a5
    1684:	08954783          	lbu	a5,137(a0)
    1688:	01554b03          	lbu	s6,21(a0)
    168c:	07a2                	slli	a5,a5,0x8
    168e:	8fc5                	or	a5,a5,s1
    1690:	08a54483          	lbu	s1,138(a0)
    1694:	04c2                	slli	s1,s1,0x10
    1696:	8fc5                	or	a5,a5,s1
    1698:	08b54483          	lbu	s1,139(a0)
    169c:	04e2                	slli	s1,s1,0x18
    169e:	8cdd                	or	s1,s1,a5
    16a0:	01654783          	lbu	a5,22(a0)
    16a4:	07a2                	slli	a5,a5,0x8
    16a6:	0167e7b3          	or	a5,a5,s6
    16aa:	01754b03          	lbu	s6,23(a0)
    16ae:	0b42                	slli	s6,s6,0x10
    16b0:	00fb67b3          	or	a5,s6,a5
    16b4:	01854b03          	lbu	s6,24(a0)
    16b8:	0b62                	slli	s6,s6,0x18
    16ba:	00fb6b33          	or	s6,s6,a5
    16be:	20021097          	auipc	ra,0x20021
    16c2:	872080e7          	jalr	-1934(ra) # 20021f30 <LwipRemoveTcpPcb>
    16c6:	1ffff517          	auipc	a0,0x1ffff
    16ca:	7e250513          	addi	a0,a0,2018 # 20000ea8 <tcp_active_pcbs>
    16ce:	85a2                	mv	a1,s0
    16d0:	34f9                	jal	119e <tcp_pcb_remove>
    16d2:	06d44783          	lbu	a5,109(s0)
    16d6:	06c44503          	lbu	a0,108(s0)
    16da:	07a2                	slli	a5,a5,0x8
    16dc:	8fc9                	or	a5,a5,a0
    16de:	06e44503          	lbu	a0,110(s0)
    16e2:	0542                	slli	a0,a0,0x10
    16e4:	8fc9                	or	a5,a5,a0
    16e6:	06f44503          	lbu	a0,111(s0)
    16ea:	0562                	slli	a0,a0,0x18
    16ec:	8d5d                	or	a0,a0,a5
    16ee:	c119                	beqz	a0,16f4 <tcp_abandon+0x15e>
    16f0:	ae4ff0ef          	jal	ra,9d4 <tcp_segs_free>
    16f4:	06944783          	lbu	a5,105(s0)
    16f8:	06844503          	lbu	a0,104(s0)
    16fc:	07a2                	slli	a5,a5,0x8
    16fe:	8fc9                	or	a5,a5,a0
    1700:	06a44503          	lbu	a0,106(s0)
    1704:	0542                	slli	a0,a0,0x10
    1706:	8fc9                	or	a5,a5,a0
    1708:	06b44503          	lbu	a0,107(s0)
    170c:	0562                	slli	a0,a0,0x18
    170e:	8d5d                	or	a0,a0,a5
    1710:	c119                	beqz	a0,1716 <tcp_abandon+0x180>
    1712:	ac2ff0ef          	jal	ra,9d4 <tcp_segs_free>
    1716:	07144783          	lbu	a5,113(s0)
    171a:	07044503          	lbu	a0,112(s0)
    171e:	07a2                	slli	a5,a5,0x8
    1720:	8fc9                	or	a5,a5,a0
    1722:	07244503          	lbu	a0,114(s0)
    1726:	0542                	slli	a0,a0,0x10
    1728:	8fc9                	or	a5,a5,a0
    172a:	07344503          	lbu	a0,115(s0)
    172e:	0562                	slli	a0,a0,0x18
    1730:	8d5d                	or	a0,a0,a5
    1732:	c119                	beqz	a0,1738 <tcp_abandon+0x1a2>
    1734:	aa0ff0ef          	jal	ra,9d4 <tcp_segs_free>
    1738:	85a2                	mv	a1,s0
    173a:	4509                	li	a0,2
    173c:	25b040ef          	jal	ra,6196 <memp_free>
    1740:	c481                	beqz	s1,1748 <tcp_abandon+0x1b2>
    1742:	55ed                	li	a1,-5
    1744:	855a                	mv	a0,s6
    1746:	9482                	jalr	s1
    1748:	e80b88e3          	beqz	s7,15d8 <tcp_abandon+0x42>
    174c:	87d6                	mv	a5,s5
    174e:	8752                	mv	a4,s4
    1750:	0034                	addi	a3,sp,8
    1752:	0070                	addi	a2,sp,12
    1754:	85ce                	mv	a1,s3
    1756:	854a                	mv	a0,s2
    1758:	255030ef          	jal	ra,51ac <tcp_rst>
    175c:	bdb5                	j	15d8 <tcp_abandon+0x42>

0000175e <tcp_next_iss>:
    175e:	1ffff797          	auipc	a5,0x1ffff
    1762:	91e78793          	addi	a5,a5,-1762 # 2000007c <iss.3741>
    1766:	1ffff717          	auipc	a4,0x1ffff
    176a:	74670713          	addi	a4,a4,1862 # 20000eac <tcp_ticks>
    176e:	4388                	lw	a0,0(a5)
    1770:	4318                	lw	a4,0(a4)
    1772:	953a                	add	a0,a0,a4
    1774:	c388                	sw	a0,0(a5)
    1776:	8082                	ret

00001778 <tcp_alloc>:
    1778:	2001f317          	auipc	t1,0x2001f
    177c:	89e302e7          	jalr	t0,-1890(t1) # 20020016 <__riscv_save_4>
    1780:	892a                	mv	s2,a0
    1782:	4509                	li	a0,2
    1784:	1f3040ef          	jal	ra,6176 <memp_malloc>
    1788:	1ffff497          	auipc	s1,0x1ffff
    178c:	64048493          	addi	s1,s1,1600 # 20000dc8 <CH569Cfg>
    1790:	842a                	mv	s0,a0
    1792:	e92d                	bnez	a0,1804 <tcp_alloc+0x8c>
    1794:	489c                	lw	a5,16(s1)
    1796:	8b91                	andi	a5,a5,4
    1798:	e799                	bnez	a5,17a6 <tcp_alloc+0x2e>
    179a:	4401                	li	s0,0
    179c:	8522                	mv	a0,s0
    179e:	2001f317          	auipc	t1,0x2001f
    17a2:	8ac30067          	jr	-1876(t1) # 2002004a <__riscv_restore_4>
    17a6:	1ffff797          	auipc	a5,0x1ffff
    17aa:	71678793          	addi	a5,a5,1814 # 20000ebc <tcp_tw_pcbs>
    17ae:	1ffff997          	auipc	s3,0x1ffff
    17b2:	6fe98993          	addi	s3,s3,1790 # 20000eac <tcp_ticks>
    17b6:	439c                	lw	a5,0(a5)
    17b8:	0009a583          	lw	a1,0(s3)
    17bc:	4501                	li	a0,0
    17be:	4601                	li	a2,0
    17c0:	1a079163          	bnez	a5,1962 <tcp_alloc+0x1ea>
    17c4:	c119                	beqz	a0,17ca <tcp_alloc+0x52>
    17c6:	4585                	li	a1,1
    17c8:	33f9                	jal	1596 <tcp_abandon>
    17ca:	4509                	li	a0,2
    17cc:	1ab040ef          	jal	ra,6176 <memp_malloc>
    17d0:	842a                	mv	s0,a0
    17d2:	e90d                	bnez	a0,1804 <tcp_alloc+0x8c>
    17d4:	1ffff797          	auipc	a5,0x1ffff
    17d8:	6d478793          	addi	a5,a5,1748 # 20000ea8 <tcp_active_pcbs>
    17dc:	439c                	lw	a5,0(a5)
    17de:	0009a803          	lw	a6,0(s3)
    17e2:	197d                	addi	s2,s2,-1
    17e4:	0ff97913          	andi	s2,s2,255
    17e8:	07f00593          	li	a1,127
    17ec:	4501                	li	a0,0
    17ee:	1a079d63          	bnez	a5,19a8 <tcp_alloc+0x230>
    17f2:	c401                	beqz	s0,17fa <tcp_alloc+0x82>
    17f4:	4585                	li	a1,1
    17f6:	8522                	mv	a0,s0
    17f8:	3b79                	jal	1596 <tcp_abandon>
    17fa:	4509                	li	a0,2
    17fc:	17b040ef          	jal	ra,6176 <memp_malloc>
    1800:	842a                	mv	s0,a0
    1802:	dd41                	beqz	a0,179a <tcp_alloc+0x22>
    1804:	09600613          	li	a2,150
    1808:	4581                	li	a1,0
    180a:	8522                	mv	a0,s0
    180c:	2001f097          	auipc	ra,0x2001f
    1810:	854080e7          	jalr	-1964(ra) # 20020060 <memset>
    1814:	04000793          	li	a5,64
    1818:	00f40a23          	sb	a5,20(s0)
    181c:	02000793          	li	a5,32
    1820:	06f402a3          	sb	a5,101(s0)
    1824:	40dc                	lw	a5,4(s1)
    1826:	00040523          	sb	zero,10(s0)
    182a:	01079713          	slli	a4,a5,0x10
    182e:	8341                	srli	a4,a4,0x10
    1830:	0ff77693          	andi	a3,a4,255
    1834:	8321                	srli	a4,a4,0x8
    1836:	02e403a3          	sb	a4,39(s0)
    183a:	02e404a3          	sb	a4,41(s0)
    183e:	f8000713          	li	a4,-128
    1842:	00e405a3          	sb	a4,11(s0)
    1846:	02d40323          	sb	a3,38(s0)
    184a:	02d40423          	sb	a3,40(s0)
    184e:	21800713          	li	a4,536
    1852:	00f77463          	bgeu	a4,a5,185a <tcp_alloc+0xe2>
    1856:	21800793          	li	a5,536
    185a:	07c2                	slli	a5,a5,0x10
    185c:	83c1                	srli	a5,a5,0x10
    185e:	02f40b23          	sb	a5,54(s0)
    1862:	83a1                	srli	a5,a5,0x8
    1864:	02f40ba3          	sb	a5,55(s0)
    1868:	4799                	li	a5,6
    186a:	04f40223          	sb	a5,68(s0)
    186e:	04f40123          	sb	a5,66(s0)
    1872:	57fd                	li	a5,-1
    1874:	02f40a23          	sb	a5,52(s0)
    1878:	02f40aa3          	sb	a5,53(s0)
    187c:	4785                	li	a5,1
    187e:	04f40623          	sb	a5,76(s0)
    1882:	040402a3          	sb	zero,69(s0)
    1886:	04040023          	sb	zero,64(s0)
    188a:	040400a3          	sb	zero,65(s0)
    188e:	040401a3          	sb	zero,67(s0)
    1892:	040406a3          	sb	zero,77(s0)
    1896:	35e1                	jal	175e <tcp_next_iss>
    1898:	01055793          	srli	a5,a0,0x10
    189c:	0ff7f793          	andi	a5,a5,255
    18a0:	04f40e23          	sb	a5,92(s0)
    18a4:	04f40923          	sb	a5,82(s0)
    18a8:	04f404a3          	sb	a5,73(s0)
    18ac:	06f40023          	sb	a5,96(s0)
    18b0:	1ffff797          	auipc	a5,0x1ffff
    18b4:	5fc78793          	addi	a5,a5,1532 # 20000eac <tcp_ticks>
    18b8:	439c                	lw	a5,0(a5)
    18ba:	00855713          	srli	a4,a0,0x8
    18be:	0ff77713          	andi	a4,a4,255
    18c2:	04e40da3          	sb	a4,91(s0)
    18c6:	04e408a3          	sb	a4,81(s0)
    18ca:	04e40423          	sb	a4,72(s0)
    18ce:	04e40fa3          	sb	a4,95(s0)
    18d2:	0087d713          	srli	a4,a5,0x8
    18d6:	02f40723          	sb	a5,46(s0)
    18da:	02e407a3          	sb	a4,47(s0)
    18de:	0107d713          	srli	a4,a5,0x10
    18e2:	83e1                	srli	a5,a5,0x18
    18e4:	02f408a3          	sb	a5,49(s0)
    18e8:	00000797          	auipc	a5,0x0
    18ec:	b4c78793          	addi	a5,a5,-1204 # 1434 <tcp_recv_null>
    18f0:	02e40823          	sb	a4,48(s0)
    18f4:	0087d713          	srli	a4,a5,0x8
    18f8:	06f40e23          	sb	a5,124(s0)
    18fc:	06e40ea3          	sb	a4,125(s0)
    1900:	0107d713          	srli	a4,a5,0x10
    1904:	83e1                	srli	a5,a5,0x18
    1906:	06f40fa3          	sb	a5,127(s0)
    190a:	1ffff797          	auipc	a5,0x1ffff
    190e:	4ee78793          	addi	a5,a5,1262 # 20000df8 <KeepLiveCfg>
    1912:	439c                	lw	a5,0(a5)
    1914:	06e40f23          	sb	a4,126(s0)
    1918:	0ff57693          	andi	a3,a0,255
    191c:	0087d713          	srli	a4,a5,0x8
    1920:	8161                	srli	a0,a0,0x18
    1922:	08f40623          	sb	a5,140(s0)
    1926:	08e406a3          	sb	a4,141(s0)
    192a:	0107d713          	srli	a4,a5,0x10
    192e:	83e1                	srli	a5,a5,0x18
    1930:	04d40d23          	sb	a3,90(s0)
    1934:	04a40ea3          	sb	a0,93(s0)
    1938:	04d40823          	sb	a3,80(s0)
    193c:	04a409a3          	sb	a0,83(s0)
    1940:	04d403a3          	sb	a3,71(s0)
    1944:	04a40523          	sb	a0,74(s0)
    1948:	04d40f23          	sb	a3,94(s0)
    194c:	06a400a3          	sb	a0,97(s0)
    1950:	02040923          	sb	zero,50(s0)
    1954:	08e40723          	sb	a4,142(s0)
    1958:	08f407a3          	sb	a5,143(s0)
    195c:	08040aa3          	sb	zero,149(s0)
    1960:	bd35                	j	179c <tcp_alloc+0x24>
    1962:	02f7c683          	lbu	a3,47(a5)
    1966:	02e7c703          	lbu	a4,46(a5)
    196a:	06a2                	slli	a3,a3,0x8
    196c:	8ed9                	or	a3,a3,a4
    196e:	0307c703          	lbu	a4,48(a5)
    1972:	0742                	slli	a4,a4,0x10
    1974:	8ed9                	or	a3,a3,a4
    1976:	0317c703          	lbu	a4,49(a5)
    197a:	0762                	slli	a4,a4,0x18
    197c:	8f55                	or	a4,a4,a3
    197e:	40e58733          	sub	a4,a1,a4
    1982:	00c76463          	bltu	a4,a2,198a <tcp_alloc+0x212>
    1986:	863a                	mv	a2,a4
    1988:	853e                	mv	a0,a5
    198a:	00d7c703          	lbu	a4,13(a5)
    198e:	00c7c683          	lbu	a3,12(a5)
    1992:	0722                	slli	a4,a4,0x8
    1994:	8ed9                	or	a3,a3,a4
    1996:	00e7c703          	lbu	a4,14(a5)
    199a:	00f7c783          	lbu	a5,15(a5)
    199e:	0742                	slli	a4,a4,0x10
    19a0:	8f55                	or	a4,a4,a3
    19a2:	07e2                	slli	a5,a5,0x18
    19a4:	8fd9                	or	a5,a5,a4
    19a6:	bd29                	j	17c0 <tcp_alloc+0x48>
    19a8:	0147c603          	lbu	a2,20(a5)
    19ac:	02c96963          	bltu	s2,a2,19de <tcp_alloc+0x266>
    19b0:	02c5e763          	bltu	a1,a2,19de <tcp_alloc+0x266>
    19b4:	02f7c683          	lbu	a3,47(a5)
    19b8:	02e7c703          	lbu	a4,46(a5)
    19bc:	06a2                	slli	a3,a3,0x8
    19be:	8ed9                	or	a3,a3,a4
    19c0:	0307c703          	lbu	a4,48(a5)
    19c4:	0742                	slli	a4,a4,0x10
    19c6:	8ed9                	or	a3,a3,a4
    19c8:	0317c703          	lbu	a4,49(a5)
    19cc:	0762                	slli	a4,a4,0x18
    19ce:	8f55                	or	a4,a4,a3
    19d0:	40e80733          	sub	a4,a6,a4
    19d4:	00a76563          	bltu	a4,a0,19de <tcp_alloc+0x266>
    19d8:	85b2                	mv	a1,a2
    19da:	853a                	mv	a0,a4
    19dc:	843e                	mv	s0,a5
    19de:	00d7c703          	lbu	a4,13(a5)
    19e2:	00c7c683          	lbu	a3,12(a5)
    19e6:	0722                	slli	a4,a4,0x8
    19e8:	8ed9                	or	a3,a3,a4
    19ea:	00e7c703          	lbu	a4,14(a5)
    19ee:	00f7c783          	lbu	a5,15(a5)
    19f2:	0742                	slli	a4,a4,0x10
    19f4:	8f55                	or	a4,a4,a3
    19f6:	07e2                	slli	a5,a5,0x18
    19f8:	8fd9                	or	a5,a5,a4
    19fa:	bbd5                	j	17ee <tcp_alloc+0x76>

000019fc <tcp_new>:
    19fc:	2001e317          	auipc	t1,0x2001e
    1a00:	634302e7          	jalr	t0,1588(t1) # 20020030 <__riscv_save_0>
    1a04:	04000513          	li	a0,64
    1a08:	3b85                	jal	1778 <tcp_alloc>
    1a0a:	2001e317          	auipc	t1,0x2001e
    1a0e:	64a30067          	jr	1610(t1) # 20020054 <__riscv_restore_0>

00001a12 <tcp_eff_send_mss>:
    1a12:	2001e317          	auipc	t1,0x2001e
    1a16:	61e302e7          	jalr	t0,1566(t1) # 20020030 <__riscv_save_0>
    1a1a:	842a                	mv	s0,a0
    1a1c:	852e                	mv	a0,a1
    1a1e:	4b9030ef          	jal	ra,56d6 <ip_route>
    1a22:	cd19                	beqz	a0,1a40 <tcp_eff_send_mss+0x2e>
    1a24:	02455783          	lhu	a5,36(a0)
    1a28:	cf81                	beqz	a5,1a40 <tcp_eff_send_mss+0x2e>
    1a2a:	fd878793          	addi	a5,a5,-40
    1a2e:	873e                	mv	a4,a5
    1a30:	07c2                	slli	a5,a5,0x10
    1a32:	83c1                	srli	a5,a5,0x10
    1a34:	00f47363          	bgeu	s0,a5,1a3a <tcp_eff_send_mss+0x28>
    1a38:	8722                	mv	a4,s0
    1a3a:	01071413          	slli	s0,a4,0x10
    1a3e:	8041                	srli	s0,s0,0x10
    1a40:	8522                	mv	a0,s0
    1a42:	2001e317          	auipc	t1,0x2001e
    1a46:	61230067          	jr	1554(t1) # 20020054 <__riscv_restore_0>

00001a4a <tcp_parseopt>:
    1a4a:	2001e317          	auipc	t1,0x2001e
    1a4e:	5e6302e7          	jalr	t0,1510(t1) # 20020030 <__riscv_save_0>
    1a52:	1fffe917          	auipc	s2,0x1fffe
    1a56:	6b290913          	addi	s2,s2,1714 # 20000104 <tcphdr>
    1a5a:	00092483          	lw	s1,0(s2)
    1a5e:	842a                	mv	s0,a0
    1a60:	00d4c783          	lbu	a5,13(s1)
    1a64:	00c4c503          	lbu	a0,12(s1)
    1a68:	07a2                	slli	a5,a5,0x8
    1a6a:	8d5d                	or	a0,a0,a5
    1a6c:	20021097          	auipc	ra,0x20021
    1a70:	486080e7          	jalr	1158(ra) # 20022ef2 <ntohs>
    1a74:	8131                	srli	a0,a0,0xc
    1a76:	0542                	slli	a0,a0,0x10
    1a78:	8141                	srli	a0,a0,0x10
    1a7a:	4795                	li	a5,5
    1a7c:	04a7f263          	bgeu	a5,a0,1ac0 <tcp_parseopt+0x76>
    1a80:	00092783          	lw	a5,0(s2)
    1a84:	04d1                	addi	s1,s1,20
    1a86:	00c7c503          	lbu	a0,12(a5)
    1a8a:	00d7c783          	lbu	a5,13(a5)
    1a8e:	07a2                	slli	a5,a5,0x8
    1a90:	8d5d                	or	a0,a0,a5
    1a92:	20021097          	auipc	ra,0x20021
    1a96:	460080e7          	jalr	1120(ra) # 20022ef2 <ntohs>
    1a9a:	1ffff797          	auipc	a5,0x1ffff
    1a9e:	32e78793          	addi	a5,a5,814 # 20000dc8 <CH569Cfg>
    1aa2:	43d0                	lw	a2,4(a5)
    1aa4:	8131                	srli	a0,a0,0xc
    1aa6:	156d                	addi	a0,a0,-5
    1aa8:	050a                	slli	a0,a0,0x2
    1aaa:	0542                	slli	a0,a0,0x10
    1aac:	01061593          	slli	a1,a2,0x10
    1ab0:	8141                	srli	a0,a0,0x10
    1ab2:	81c1                	srli	a1,a1,0x10
    1ab4:	4781                	li	a5,0
    1ab6:	4805                	li	a6,1
    1ab8:	4889                	li	a7,2
    1aba:	4311                	li	t1,4
    1abc:	00a7e663          	bltu	a5,a0,1ac8 <tcp_parseopt+0x7e>
    1ac0:	2001e317          	auipc	t1,0x2001e
    1ac4:	59430067          	jr	1428(t1) # 20020054 <__riscv_restore_0>
    1ac8:	00f486b3          	add	a3,s1,a5
    1acc:	0006c703          	lbu	a4,0(a3)
    1ad0:	01070a63          	beq	a4,a6,1ae4 <tcp_parseopt+0x9a>
    1ad4:	d775                	beqz	a4,1ac0 <tcp_parseopt+0x76>
    1ad6:	01170b63          	beq	a4,a7,1aec <tcp_parseopt+0xa2>
    1ada:	0016c703          	lbu	a4,1(a3)
    1ade:	d36d                	beqz	a4,1ac0 <tcp_parseopt+0x76>
    1ae0:	97ba                	add	a5,a5,a4
    1ae2:	a011                	j	1ae6 <tcp_parseopt+0x9c>
    1ae4:	0785                	addi	a5,a5,1
    1ae6:	07c2                	slli	a5,a5,0x10
    1ae8:	83c1                	srli	a5,a5,0x10
    1aea:	bfc9                	j	1abc <tcp_parseopt+0x72>
    1aec:	0016c703          	lbu	a4,1(a3)
    1af0:	fc6718e3          	bne	a4,t1,1ac0 <tcp_parseopt+0x76>
    1af4:	00378713          	addi	a4,a5,3
    1af8:	fca754e3          	bge	a4,a0,1ac0 <tcp_parseopt+0x76>
    1afc:	0026c703          	lbu	a4,2(a3)
    1b00:	0036c683          	lbu	a3,3(a3)
    1b04:	0722                	slli	a4,a4,0x8
    1b06:	8f55                	or	a4,a4,a3
    1b08:	00e66363          	bltu	a2,a4,1b0e <tcp_parseopt+0xc4>
    1b0c:	e311                	bnez	a4,1b10 <tcp_parseopt+0xc6>
    1b0e:	872e                	mv	a4,a1
    1b10:	02e40b23          	sb	a4,54(s0)
    1b14:	8321                	srli	a4,a4,0x8
    1b16:	02e40ba3          	sb	a4,55(s0)
    1b1a:	0791                	addi	a5,a5,4
    1b1c:	b7e9                	j	1ae6 <tcp_parseopt+0x9c>

00001b1e <tcp_oos_insert_segment>:
    1b1e:	2001e317          	auipc	t1,0x2001e
    1b22:	4f8302e7          	jalr	t0,1272(t1) # 20020016 <__riscv_save_4>
    1b26:	491c                	lw	a5,16(a0)
    1b28:	84aa                	mv	s1,a0
    1b2a:	8a2e                	mv	s4,a1
    1b2c:	00c7c503          	lbu	a0,12(a5)
    1b30:	00d7c783          	lbu	a5,13(a5)
    1b34:	07a2                	slli	a5,a5,0x8
    1b36:	8d5d                	or	a0,a0,a5
    1b38:	20021097          	auipc	ra,0x20021
    1b3c:	3ba080e7          	jalr	954(ra) # 20022ef2 <ntohs>
    1b40:	8905                	andi	a0,a0,1
    1b42:	e52d                	bnez	a0,1bac <tcp_oos_insert_segment+0x8e>
    1b44:	6941                	lui	s2,0x10
    1b46:	1fffe997          	auipc	s3,0x1fffe
    1b4a:	5ba98993          	addi	s3,s3,1466 # 20000100 <seqno>
    1b4e:	fc090913          	addi	s2,s2,-64 # ffc0 <_ramcode_lma+0x7fc0>
    1b52:	010a2703          	lw	a4,16(s4)
    1b56:	0009a603          	lw	a2,0(s3)
    1b5a:	00c4d783          	lhu	a5,12(s1)
    1b5e:	00574683          	lbu	a3,5(a4)
    1b62:	00474583          	lbu	a1,4(a4)
    1b66:	97b2                	add	a5,a5,a2
    1b68:	06a2                	slli	a3,a3,0x8
    1b6a:	8dd5                	or	a1,a1,a3
    1b6c:	00674683          	lbu	a3,6(a4)
    1b70:	06c2                	slli	a3,a3,0x10
    1b72:	8ecd                	or	a3,a3,a1
    1b74:	00774583          	lbu	a1,7(a4)
    1b78:	05e2                	slli	a1,a1,0x18
    1b7a:	8dd5                	or	a1,a1,a3
    1b7c:	00ca5683          	lhu	a3,12(s4)
    1b80:	96ae                	add	a3,a3,a1
    1b82:	40d786b3          	sub	a3,a5,a3
    1b86:	0206d863          	bgez	a3,1bb6 <tcp_oos_insert_segment+0x98>
    1b8a:	8f8d                	sub	a5,a5,a1
    1b8c:	00f05a63          	blez	a5,1ba0 <tcp_oos_insert_segment+0x82>
    1b90:	8d91                	sub	a1,a1,a2
    1b92:	05c2                	slli	a1,a1,0x10
    1b94:	40c8                	lw	a0,4(s1)
    1b96:	81c1                	srli	a1,a1,0x10
    1b98:	00b49623          	sh	a1,12(s1)
    1b9c:	526050ef          	jal	ra,70c2 <pbuf_realloc>
    1ba0:	0144a023          	sw	s4,0(s1)
    1ba4:	2001e317          	auipc	t1,0x2001e
    1ba8:	4a630067          	jr	1190(t1) # 2002004a <__riscv_restore_4>
    1bac:	8552                	mv	a0,s4
    1bae:	e27fe0ef          	jal	ra,9d4 <tcp_segs_free>
    1bb2:	4a01                	li	s4,0
    1bb4:	b7f5                	j	1ba0 <tcp_oos_insert_segment+0x82>
    1bb6:	00d74783          	lbu	a5,13(a4)
    1bba:	00c74503          	lbu	a0,12(a4)
    1bbe:	07a2                	slli	a5,a5,0x8
    1bc0:	8d5d                	or	a0,a0,a5
    1bc2:	20021097          	auipc	ra,0x20021
    1bc6:	330080e7          	jalr	816(ra) # 20022ef2 <ntohs>
    1bca:	8905                	andi	a0,a0,1
    1bcc:	c931                	beqz	a0,1c20 <tcp_oos_insert_segment+0x102>
    1bce:	489c                	lw	a5,16(s1)
    1bd0:	00d7c403          	lbu	s0,13(a5)
    1bd4:	00c7c503          	lbu	a0,12(a5)
    1bd8:	0422                	slli	s0,s0,0x8
    1bda:	8c49                	or	s0,s0,a0
    1bdc:	854a                	mv	a0,s2
    1bde:	20021097          	auipc	ra,0x20021
    1be2:	306080e7          	jalr	774(ra) # 20022ee4 <htons>
    1be6:	489c                	lw	a5,16(s1)
    1be8:	8c69                	and	s0,s0,a0
    1bea:	00c7c503          	lbu	a0,12(a5)
    1bee:	00d7c783          	lbu	a5,13(a5)
    1bf2:	07a2                	slli	a5,a5,0x8
    1bf4:	8d5d                	or	a0,a0,a5
    1bf6:	20021097          	auipc	ra,0x20021
    1bfa:	2fc080e7          	jalr	764(ra) # 20022ef2 <ntohs>
    1bfe:	03e57513          	andi	a0,a0,62
    1c02:	00156513          	ori	a0,a0,1
    1c06:	20021097          	auipc	ra,0x20021
    1c0a:	2de080e7          	jalr	734(ra) # 20022ee4 <htons>
    1c0e:	489c                	lw	a5,16(s1)
    1c10:	8d41                	or	a0,a0,s0
    1c12:	0542                	slli	a0,a0,0x10
    1c14:	8141                	srli	a0,a0,0x10
    1c16:	00a78623          	sb	a0,12(a5)
    1c1a:	8121                	srli	a0,a0,0x8
    1c1c:	00a786a3          	sb	a0,13(a5)
    1c20:	000a2403          	lw	s0,0(s4)
    1c24:	8552                	mv	a0,s4
    1c26:	d7dfe0ef          	jal	ra,9a2 <tcp_seg_free>
    1c2a:	d441                	beqz	s0,1bb2 <tcp_oos_insert_segment+0x94>
    1c2c:	8a22                	mv	s4,s0
    1c2e:	b715                	j	1b52 <tcp_oos_insert_segment+0x34>

00001c30 <tcp_receive>:
    1c30:	2001e317          	auipc	t1,0x2001e
    1c34:	3e6302e7          	jalr	t0,998(t1) # 20020016 <__riscv_save_4>
    1c38:	1fffe797          	auipc	a5,0x1fffe
    1c3c:	4b87c783          	lbu	a5,1208(a5) # 200000f0 <flags>
    1c40:	8bc1                	andi	a5,a5,16
    1c42:	842a                	mv	s0,a0
    1c44:	1fffe497          	auipc	s1,0x1fffe
    1c48:	4bc48493          	addi	s1,s1,1212 # 20000100 <seqno>
    1c4c:	1e078963          	beqz	a5,1e3e <tcp_receive+0x20e>
    1c50:	05554683          	lbu	a3,85(a0)
    1c54:	05454783          	lbu	a5,84(a0)
    1c58:	05a54603          	lbu	a2,90(a0)
    1c5c:	06a2                	slli	a3,a3,0x8
    1c5e:	8edd                	or	a3,a3,a5
    1c60:	05b54783          	lbu	a5,91(a0)
    1c64:	05654583          	lbu	a1,86(a0)
    1c68:	4098                	lw	a4,0(s1)
    1c6a:	07a2                	slli	a5,a5,0x8
    1c6c:	8fd1                	or	a5,a5,a2
    1c6e:	05c54603          	lbu	a2,92(a0)
    1c72:	1fffe917          	auipc	s2,0x1fffe
    1c76:	47a90913          	addi	s2,s2,1146 # 200000ec <ackno>
    1c7a:	0642                	slli	a2,a2,0x10
    1c7c:	8fd1                	or	a5,a5,a2
    1c7e:	05d54603          	lbu	a2,93(a0)
    1c82:	0662                	slli	a2,a2,0x18
    1c84:	8e5d                	or	a2,a2,a5
    1c86:	05754783          	lbu	a5,87(a0)
    1c8a:	07a2                	slli	a5,a5,0x8
    1c8c:	8fcd                	or	a5,a5,a1
    1c8e:	05854583          	lbu	a1,88(a0)
    1c92:	05c2                	slli	a1,a1,0x10
    1c94:	8fcd                	or	a5,a5,a1
    1c96:	05954583          	lbu	a1,89(a0)
    1c9a:	05e2                	slli	a1,a1,0x18
    1c9c:	8ddd                	or	a1,a1,a5
    1c9e:	40e58533          	sub	a0,a1,a4
    1ca2:	00092783          	lw	a5,0(s2)
    1ca6:	02054863          	bltz	a0,1cd6 <tcp_receive+0xa6>
    1caa:	00e59663          	bne	a1,a4,1cb6 <tcp_receive+0x86>
    1cae:	40f605b3          	sub	a1,a2,a5
    1cb2:	0205c263          	bltz	a1,1cd6 <tcp_receive+0xa6>
    1cb6:	08f61363          	bne	a2,a5,1d3c <tcp_receive+0x10c>
    1cba:	1fffe597          	auipc	a1,0x1fffe
    1cbe:	44a58593          	addi	a1,a1,1098 # 20000104 <tcphdr>
    1cc2:	4188                	lw	a0,0(a1)
    1cc4:	00f54583          	lbu	a1,15(a0)
    1cc8:	00e54803          	lbu	a6,14(a0)
    1ccc:	05a2                	slli	a1,a1,0x8
    1cce:	0105e5b3          	or	a1,a1,a6
    1cd2:	06b6f563          	bgeu	a3,a1,1d3c <tcp_receive+0x10c>
    1cd6:	1fffe597          	auipc	a1,0x1fffe
    1cda:	42e58593          	addi	a1,a1,1070 # 20000104 <tcphdr>
    1cde:	4188                	lw	a0,0(a1)
    1ce0:	00f54583          	lbu	a1,15(a0)
    1ce4:	00e54803          	lbu	a6,14(a0)
    1ce8:	04e40b23          	sb	a4,86(s0)
    1cec:	05a2                	slli	a1,a1,0x8
    1cee:	0105e5b3          	or	a1,a1,a6
    1cf2:	0085d513          	srli	a0,a1,0x8
    1cf6:	04a40aa3          	sb	a0,85(s0)
    1cfa:	00875513          	srli	a0,a4,0x8
    1cfe:	04a40ba3          	sb	a0,87(s0)
    1d02:	01075513          	srli	a0,a4,0x10
    1d06:	8361                	srli	a4,a4,0x18
    1d08:	04e40ca3          	sb	a4,89(s0)
    1d0c:	0087d713          	srli	a4,a5,0x8
    1d10:	04e40da3          	sb	a4,91(s0)
    1d14:	0107d713          	srli	a4,a5,0x10
    1d18:	04e40e23          	sb	a4,92(s0)
    1d1c:	0187d713          	srli	a4,a5,0x18
    1d20:	04b40a23          	sb	a1,84(s0)
    1d24:	04a40c23          	sb	a0,88(s0)
    1d28:	04f40d23          	sb	a5,90(s0)
    1d2c:	04e40ea3          	sb	a4,93(s0)
    1d30:	c591                	beqz	a1,1d3c <tcp_receive+0x10c>
    1d32:	09444703          	lbu	a4,148(s0)
    1d36:	c319                	beqz	a4,1d3c <tcp_receive+0x10c>
    1d38:	08040a23          	sb	zero,148(s0)
    1d3c:	04844703          	lbu	a4,72(s0)
    1d40:	04744583          	lbu	a1,71(s0)
    1d44:	0722                	slli	a4,a4,0x8
    1d46:	8f4d                	or	a4,a4,a1
    1d48:	04944583          	lbu	a1,73(s0)
    1d4c:	05c2                	slli	a1,a1,0x10
    1d4e:	8f4d                	or	a4,a4,a1
    1d50:	04a44583          	lbu	a1,74(s0)
    1d54:	05e2                	slli	a1,a1,0x18
    1d56:	8dd9                	or	a1,a1,a4
    1d58:	40b78733          	sub	a4,a5,a1
    1d5c:	4ee04963          	bgtz	a4,224e <tcp_receive+0x61e>
    1d60:	06040123          	sb	zero,98(s0)
    1d64:	060401a3          	sb	zero,99(s0)
    1d68:	1fffe717          	auipc	a4,0x1fffe
    1d6c:	3a075703          	lhu	a4,928(a4) # 20000108 <tcplen>
    1d70:	4c071c63          	bnez	a4,2248 <tcp_receive+0x618>
    1d74:	05b44503          	lbu	a0,91(s0)
    1d78:	05a44703          	lbu	a4,90(s0)
    1d7c:	05444803          	lbu	a6,84(s0)
    1d80:	0522                	slli	a0,a0,0x8
    1d82:	8d59                	or	a0,a0,a4
    1d84:	05c44703          	lbu	a4,92(s0)
    1d88:	96b2                	add	a3,a3,a2
    1d8a:	0742                	slli	a4,a4,0x10
    1d8c:	8d59                	or	a0,a0,a4
    1d8e:	05d44703          	lbu	a4,93(s0)
    1d92:	0762                	slli	a4,a4,0x18
    1d94:	8f49                	or	a4,a4,a0
    1d96:	05544503          	lbu	a0,85(s0)
    1d9a:	0522                	slli	a0,a0,0x8
    1d9c:	01056533          	or	a0,a0,a6
    1da0:	972a                	add	a4,a4,a0
    1da2:	4ad71363          	bne	a4,a3,2248 <tcp_receive+0x618>
    1da6:	03544703          	lbu	a4,53(s0)
    1daa:	03444683          	lbu	a3,52(s0)
    1dae:	0722                	slli	a4,a4,0x8
    1db0:	8f55                	or	a4,a4,a3
    1db2:	0742                	slli	a4,a4,0x10
    1db4:	8741                	srai	a4,a4,0x10
    1db6:	48074963          	bltz	a4,2248 <tcp_receive+0x618>
    1dba:	48f59763          	bne	a1,a5,2248 <tcp_receive+0x618>
    1dbe:	04b44783          	lbu	a5,75(s0)
    1dc2:	470d                	li	a4,3
    1dc4:	0785                	addi	a5,a5,1
    1dc6:	0ff7f793          	andi	a5,a5,255
    1dca:	04f405a3          	sb	a5,75(s0)
    1dce:	46f77763          	bgeu	a4,a5,223c <tcp_receive+0x60c>
    1dd2:	04d44703          	lbu	a4,77(s0)
    1dd6:	04c44783          	lbu	a5,76(s0)
    1dda:	03644683          	lbu	a3,54(s0)
    1dde:	0722                	slli	a4,a4,0x8
    1de0:	8f5d                	or	a4,a4,a5
    1de2:	03744783          	lbu	a5,55(s0)
    1de6:	07a2                	slli	a5,a5,0x8
    1de8:	8fd5                	or	a5,a5,a3
    1dea:	97ba                	add	a5,a5,a4
    1dec:	07c2                	slli	a5,a5,0x10
    1dee:	83c1                	srli	a5,a5,0x10
    1df0:	00f77763          	bgeu	a4,a5,1dfe <tcp_receive+0x1ce>
    1df4:	04f40623          	sb	a5,76(s0)
    1df8:	83a1                	srli	a5,a5,0x8
    1dfa:	04f406a3          	sb	a5,77(s0)
    1dfe:	06944703          	lbu	a4,105(s0)
    1e02:	06844783          	lbu	a5,104(s0)
    1e06:	0722                	slli	a4,a4,0x8
    1e08:	8f5d                	or	a4,a4,a5
    1e0a:	06a44783          	lbu	a5,106(s0)
    1e0e:	07c2                	slli	a5,a5,0x10
    1e10:	8f5d                	or	a4,a4,a5
    1e12:	06b44783          	lbu	a5,107(s0)
    1e16:	07e2                	slli	a5,a5,0x18
    1e18:	8fd9                	or	a5,a5,a4
    1e1a:	6e079763          	bnez	a5,2508 <tcp_receive+0x8d8>
    1e1e:	03944783          	lbu	a5,57(s0)
    1e22:	03844603          	lbu	a2,56(s0)
    1e26:	07a2                	slli	a5,a5,0x8
    1e28:	8fd1                	or	a5,a5,a2
    1e2a:	03a44603          	lbu	a2,58(s0)
    1e2e:	0642                	slli	a2,a2,0x10
    1e30:	8fd1                	or	a5,a5,a2
    1e32:	03b44603          	lbu	a2,59(s0)
    1e36:	0662                	slli	a2,a2,0x18
    1e38:	8e5d                	or	a2,a2,a5
    1e3a:	020611e3          	bnez	a2,265c <tcp_receive+0xa2c>
    1e3e:	02344603          	lbu	a2,35(s0)
    1e42:	02244703          	lbu	a4,34(s0)
    1e46:	1fffe517          	auipc	a0,0x1fffe
    1e4a:	2c255503          	lhu	a0,706(a0) # 20000108 <tcplen>
    1e4e:	0622                	slli	a2,a2,0x8
    1e50:	8e59                	or	a2,a2,a4
    1e52:	02444703          	lbu	a4,36(s0)
    1e56:	409c                	lw	a5,0(s1)
    1e58:	0742                	slli	a4,a4,0x10
    1e5a:	8e59                	or	a2,a2,a4
    1e5c:	02544703          	lbu	a4,37(s0)
    1e60:	0762                	slli	a4,a4,0x18
    1e62:	8f51                	or	a4,a4,a2
    1e64:	6c050be3          	beqz	a0,2d3a <tcp_receive+0x110a>
    1e68:	40f705b3          	sub	a1,a4,a5
    1e6c:	fff58693          	addi	a3,a1,-1
    1e70:	1006c2e3          	bltz	a3,2774 <tcp_receive+0xb44>
    1e74:	4685                	li	a3,1
    1e76:	8e9d                	sub	a3,a3,a5
    1e78:	8e89                	sub	a3,a3,a0
    1e7a:	96ba                	add	a3,a3,a4
    1e7c:	0ed04ce3          	bgtz	a3,2774 <tcp_receive+0xb44>
    1e80:	1fffe997          	auipc	s3,0x1fffe
    1e84:	2b898993          	addi	s3,s3,696 # 20000138 <inseg>
    1e88:	0049a903          	lw	s2,4(s3)
    1e8c:	01059693          	slli	a3,a1,0x10
    1e90:	82c1                	srli	a3,a3,0x10
    1e92:	00b94703          	lbu	a4,11(s2)
    1e96:	00a94783          	lbu	a5,10(s2)
    1e9a:	0722                	slli	a4,a4,0x8
    1e9c:	8f5d                	or	a4,a4,a5
    1e9e:	0cb755e3          	bge	a4,a1,2768 <tcp_receive+0xb38>
    1ea2:	00994783          	lbu	a5,9(s2)
    1ea6:	00894703          	lbu	a4,8(s2)
    1eaa:	07a2                	slli	a5,a5,0x8
    1eac:	8fd9                	or	a5,a5,a4
    1eae:	8f95                	sub	a5,a5,a3
    1eb0:	07c2                	slli	a5,a5,0x10
    1eb2:	83c1                	srli	a5,a5,0x10
    1eb4:	0ff7f613          	andi	a2,a5,255
    1eb8:	83a1                	srli	a5,a5,0x8
    1eba:	00b94703          	lbu	a4,11(s2)
    1ebe:	00a94683          	lbu	a3,10(s2)
    1ec2:	0722                	slli	a4,a4,0x8
    1ec4:	8f55                	or	a4,a4,a3
    1ec6:	06b747e3          	blt	a4,a1,2734 <tcp_receive+0xb04>
    1eca:	40b005b3          	neg	a1,a1
    1ece:	05c2                	slli	a1,a1,0x10
    1ed0:	85c1                	srai	a1,a1,0x10
    1ed2:	854a                	mv	a0,s2
    1ed4:	613040ef          	jal	ra,6ce6 <pbuf_header>
    1ed8:	00594703          	lbu	a4,5(s2)
    1edc:	00494783          	lbu	a5,4(s2)
    1ee0:	00c9d683          	lhu	a3,12(s3)
    1ee4:	0722                	slli	a4,a4,0x8
    1ee6:	8f5d                	or	a4,a4,a5
    1ee8:	00694783          	lbu	a5,6(s2)
    1eec:	07c2                	slli	a5,a5,0x10
    1eee:	8f5d                	or	a4,a4,a5
    1ef0:	00794783          	lbu	a5,7(s2)
    1ef4:	07e2                	slli	a5,a5,0x18
    1ef6:	8fd9                	or	a5,a5,a4
    1ef8:	1fffe717          	auipc	a4,0x1fffe
    1efc:	24f72423          	sw	a5,584(a4) # 20000140 <inseg+0x8>
    1f00:	02344703          	lbu	a4,35(s0)
    1f04:	02244783          	lbu	a5,34(s0)
    1f08:	0722                	slli	a4,a4,0x8
    1f0a:	8f5d                	or	a4,a4,a5
    1f0c:	02444783          	lbu	a5,36(s0)
    1f10:	07c2                	slli	a5,a5,0x10
    1f12:	8f5d                	or	a4,a4,a5
    1f14:	02544783          	lbu	a5,37(s0)
    1f18:	07e2                	slli	a5,a5,0x18
    1f1a:	8fd9                	or	a5,a5,a4
    1f1c:	4098                	lw	a4,0(s1)
    1f1e:	9736                	add	a4,a4,a3
    1f20:	8f1d                	sub	a4,a4,a5
    1f22:	1fffe697          	auipc	a3,0x1fffe
    1f26:	22e69123          	sh	a4,546(a3) # 20000144 <inseg+0xc>
    1f2a:	1fffe717          	auipc	a4,0x1fffe
    1f2e:	1cf72b23          	sw	a5,470(a4) # 20000100 <seqno>
    1f32:	0109a703          	lw	a4,16(s3)
    1f36:	0087d693          	srli	a3,a5,0x8
    1f3a:	00f70223          	sb	a5,4(a4)
    1f3e:	00d702a3          	sb	a3,5(a4)
    1f42:	0107d693          	srli	a3,a5,0x10
    1f46:	83e1                	srli	a5,a5,0x18
    1f48:	00d70323          	sb	a3,6(a4)
    1f4c:	00f703a3          	sb	a5,7(a4)
    1f50:	02344703          	lbu	a4,35(s0)
    1f54:	02244783          	lbu	a5,34(s0)
    1f58:	4090                	lw	a2,0(s1)
    1f5a:	0722                	slli	a4,a4,0x8
    1f5c:	8f5d                	or	a4,a4,a5
    1f5e:	02444783          	lbu	a5,36(s0)
    1f62:	07c2                	slli	a5,a5,0x10
    1f64:	8f5d                	or	a4,a4,a5
    1f66:	02544783          	lbu	a5,37(s0)
    1f6a:	07e2                	slli	a5,a5,0x18
    1f6c:	8fd9                	or	a5,a5,a4
    1f6e:	40f60733          	sub	a4,a2,a5
    1f72:	5c0740e3          	bltz	a4,2d32 <tcp_receive+0x1102>
    1f76:	02744683          	lbu	a3,39(s0)
    1f7a:	02644583          	lbu	a1,38(s0)
    1f7e:	00160713          	addi	a4,a2,1
    1f82:	06a2                	slli	a3,a3,0x8
    1f84:	8f1d                	sub	a4,a4,a5
    1f86:	8ecd                	or	a3,a3,a1
    1f88:	8f15                	sub	a4,a4,a3
    1f8a:	5ae044e3          	bgtz	a4,2d32 <tcp_receive+0x1102>
    1f8e:	38f617e3          	bne	a2,a5,2b1c <tcp_receive+0xeec>
    1f92:	1fffe917          	auipc	s2,0x1fffe
    1f96:	1a690913          	addi	s2,s2,422 # 20000138 <inseg>
    1f9a:	01092783          	lw	a5,16(s2)
    1f9e:	1fffe997          	auipc	s3,0x1fffe
    1fa2:	1a69d983          	lhu	s3,422(s3) # 20000144 <inseg+0xc>
    1fa6:	00c7c503          	lbu	a0,12(a5)
    1faa:	00d7c783          	lbu	a5,13(a5)
    1fae:	07a2                	slli	a5,a5,0x8
    1fb0:	8d5d                	or	a0,a0,a5
    1fb2:	20021097          	auipc	ra,0x20021
    1fb6:	f40080e7          	jalr	-192(ra) # 20022ef2 <ntohs>
    1fba:	890d                	andi	a0,a0,3
    1fbc:	00a03533          	snez	a0,a0
    1fc0:	954e                	add	a0,a0,s3
    1fc2:	0542                	slli	a0,a0,0x10
    1fc4:	8141                	srli	a0,a0,0x10
    1fc6:	1fffe797          	auipc	a5,0x1fffe
    1fca:	14a79123          	sh	a0,322(a5) # 20000108 <tcplen>
    1fce:	02744783          	lbu	a5,39(s0)
    1fd2:	02644703          	lbu	a4,38(s0)
    1fd6:	07a2                	slli	a5,a5,0x8
    1fd8:	8fd9                	or	a5,a5,a4
    1fda:	0ea7fe63          	bgeu	a5,a0,20d6 <tcp_receive+0x4a6>
    1fde:	01092783          	lw	a5,16(s2)
    1fe2:	00c7c503          	lbu	a0,12(a5)
    1fe6:	00d7c783          	lbu	a5,13(a5)
    1fea:	07a2                	slli	a5,a5,0x8
    1fec:	8d5d                	or	a0,a0,a5
    1fee:	20021097          	auipc	ra,0x20021
    1ff2:	f04080e7          	jalr	-252(ra) # 20022ef2 <ntohs>
    1ff6:	8905                	andi	a0,a0,1
    1ff8:	c125                	beqz	a0,2058 <tcp_receive+0x428>
    1ffa:	01092783          	lw	a5,16(s2)
    1ffe:	00d7c983          	lbu	s3,13(a5)
    2002:	00c7c503          	lbu	a0,12(a5)
    2006:	09a2                	slli	s3,s3,0x8
    2008:	00a9e9b3          	or	s3,s3,a0
    200c:	6541                	lui	a0,0x10
    200e:	fc050513          	addi	a0,a0,-64 # ffc0 <_ramcode_lma+0x7fc0>
    2012:	20021097          	auipc	ra,0x20021
    2016:	ed2080e7          	jalr	-302(ra) # 20022ee4 <htons>
    201a:	01092783          	lw	a5,16(s2)
    201e:	00a9f9b3          	and	s3,s3,a0
    2022:	00c7c503          	lbu	a0,12(a5)
    2026:	00d7c783          	lbu	a5,13(a5)
    202a:	07a2                	slli	a5,a5,0x8
    202c:	8d5d                	or	a0,a0,a5
    202e:	20021097          	auipc	ra,0x20021
    2032:	ec4080e7          	jalr	-316(ra) # 20022ef2 <ntohs>
    2036:	03e57513          	andi	a0,a0,62
    203a:	20021097          	auipc	ra,0x20021
    203e:	eaa080e7          	jalr	-342(ra) # 20022ee4 <htons>
    2042:	01092783          	lw	a5,16(s2)
    2046:	00a9e533          	or	a0,s3,a0
    204a:	0542                	slli	a0,a0,0x10
    204c:	8141                	srli	a0,a0,0x10
    204e:	00a78623          	sb	a0,12(a5)
    2052:	8121                	srli	a0,a0,0x8
    2054:	00a786a3          	sb	a0,13(a5)
    2058:	02744783          	lbu	a5,39(s0)
    205c:	02644703          	lbu	a4,38(s0)
    2060:	07a2                	slli	a5,a5,0x8
    2062:	8fd9                	or	a5,a5,a4
    2064:	1fffe717          	auipc	a4,0x1fffe
    2068:	0ef71023          	sh	a5,224(a4) # 20000144 <inseg+0xc>
    206c:	01092783          	lw	a5,16(s2)
    2070:	00c7c503          	lbu	a0,12(a5)
    2074:	00d7c783          	lbu	a5,13(a5)
    2078:	07a2                	slli	a5,a5,0x8
    207a:	8d5d                	or	a0,a0,a5
    207c:	20021097          	auipc	ra,0x20021
    2080:	e76080e7          	jalr	-394(ra) # 20022ef2 <ntohs>
    2084:	8909                	andi	a0,a0,2
    2086:	c901                	beqz	a0,2096 <tcp_receive+0x466>
    2088:	00c95783          	lhu	a5,12(s2)
    208c:	17fd                	addi	a5,a5,-1
    208e:	1fffe717          	auipc	a4,0x1fffe
    2092:	0af71b23          	sh	a5,182(a4) # 20000144 <inseg+0xc>
    2096:	00492503          	lw	a0,4(s2)
    209a:	1fffe597          	auipc	a1,0x1fffe
    209e:	0aa5d583          	lhu	a1,170(a1) # 20000144 <inseg+0xc>
    20a2:	020050ef          	jal	ra,70c2 <pbuf_realloc>
    20a6:	01092783          	lw	a5,16(s2)
    20aa:	1fffe997          	auipc	s3,0x1fffe
    20ae:	09a9d983          	lhu	s3,154(s3) # 20000144 <inseg+0xc>
    20b2:	00c7c503          	lbu	a0,12(a5)
    20b6:	00d7c783          	lbu	a5,13(a5)
    20ba:	07a2                	slli	a5,a5,0x8
    20bc:	8d5d                	or	a0,a0,a5
    20be:	20021097          	auipc	ra,0x20021
    20c2:	e34080e7          	jalr	-460(ra) # 20022ef2 <ntohs>
    20c6:	890d                	andi	a0,a0,3
    20c8:	00a03533          	snez	a0,a0
    20cc:	99aa                	add	s3,s3,a0
    20ce:	1fffe797          	auipc	a5,0x1fffe
    20d2:	03379d23          	sh	s3,58(a5) # 20000108 <tcplen>
    20d6:	07144703          	lbu	a4,113(s0)
    20da:	07044783          	lbu	a5,112(s0)
    20de:	0722                	slli	a4,a4,0x8
    20e0:	8f5d                	or	a4,a4,a5
    20e2:	07244783          	lbu	a5,114(s0)
    20e6:	07c2                	slli	a5,a5,0x10
    20e8:	8f5d                	or	a4,a4,a5
    20ea:	07344783          	lbu	a5,115(s0)
    20ee:	07e2                	slli	a5,a5,0x18
    20f0:	8fd9                	or	a5,a5,a4
    20f2:	6e078063          	beqz	a5,27d2 <tcp_receive+0xba2>
    20f6:	01092783          	lw	a5,16(s2)
    20fa:	00c7c503          	lbu	a0,12(a5)
    20fe:	00d7c783          	lbu	a5,13(a5)
    2102:	07a2                	slli	a5,a5,0x8
    2104:	8d5d                	or	a0,a0,a5
    2106:	20021097          	auipc	ra,0x20021
    210a:	dec080e7          	jalr	-532(ra) # 20022ef2 <ntohs>
    210e:	8905                	andi	a0,a0,1
    2110:	6a051263          	bnez	a0,27b4 <tcp_receive+0xb84>
    2114:	07144783          	lbu	a5,113(s0)
    2118:	07044983          	lbu	s3,112(s0)
    211c:	6ac1                	lui	s5,0x10
    211e:	07a2                	slli	a5,a5,0x8
    2120:	0137e7b3          	or	a5,a5,s3
    2124:	07244983          	lbu	s3,114(s0)
    2128:	fc0a8a93          	addi	s5,s5,-64 # ffc0 <_ramcode_lma+0x7fc0>
    212c:	09c2                	slli	s3,s3,0x10
    212e:	00f9e7b3          	or	a5,s3,a5
    2132:	07344983          	lbu	s3,115(s0)
    2136:	09e2                	slli	s3,s3,0x18
    2138:	00f9e9b3          	or	s3,s3,a5
    213c:	4088                	lw	a0,0(s1)
    213e:	1fffe717          	auipc	a4,0x1fffe
    2142:	fca75703          	lhu	a4,-54(a4) # 20000108 <tcplen>
    2146:	972a                	add	a4,a4,a0
    2148:	0c098b63          	beqz	s3,221e <tcp_receive+0x5ee>
    214c:	0109a603          	lw	a2,16(s3)
    2150:	00c9d583          	lhu	a1,12(s3)
    2154:	00564783          	lbu	a5,5(a2)
    2158:	00464683          	lbu	a3,4(a2)
    215c:	07a2                	slli	a5,a5,0x8
    215e:	8fd5                	or	a5,a5,a3
    2160:	00664683          	lbu	a3,6(a2)
    2164:	06c2                	slli	a3,a3,0x10
    2166:	8fd5                	or	a5,a5,a3
    2168:	00764683          	lbu	a3,7(a2)
    216c:	06e2                	slli	a3,a3,0x18
    216e:	8edd                	or	a3,a3,a5
    2170:	95b6                	add	a1,a1,a3
    2172:	40b705b3          	sub	a1,a4,a1
    2176:	7005d663          	bgez	a1,2882 <tcp_receive+0xc52>
    217a:	8f15                	sub	a4,a4,a3
    217c:	0ae05163          	blez	a4,221e <tcp_receive+0x5ee>
    2180:	07144683          	lbu	a3,113(s0)
    2184:	07044703          	lbu	a4,112(s0)
    2188:	06a2                	slli	a3,a3,0x8
    218a:	8ed9                	or	a3,a3,a4
    218c:	07244703          	lbu	a4,114(s0)
    2190:	0742                	slli	a4,a4,0x10
    2192:	8ed9                	or	a3,a3,a4
    2194:	07344703          	lbu	a4,115(s0)
    2198:	0762                	slli	a4,a4,0x18
    219a:	8f55                	or	a4,a4,a3
    219c:	4b18                	lw	a4,16(a4)
    219e:	00574783          	lbu	a5,5(a4)
    21a2:	00474683          	lbu	a3,4(a4)
    21a6:	07a2                	slli	a5,a5,0x8
    21a8:	8fd5                	or	a5,a5,a3
    21aa:	8f89                	sub	a5,a5,a0
    21ac:	1fffe717          	auipc	a4,0x1fffe
    21b0:	f8f71c23          	sh	a5,-104(a4) # 20000144 <inseg+0xc>
    21b4:	01092783          	lw	a5,16(s2)
    21b8:	00c7c503          	lbu	a0,12(a5)
    21bc:	00d7c783          	lbu	a5,13(a5)
    21c0:	07a2                	slli	a5,a5,0x8
    21c2:	8d5d                	or	a0,a0,a5
    21c4:	20021097          	auipc	ra,0x20021
    21c8:	d2e080e7          	jalr	-722(ra) # 20022ef2 <ntohs>
    21cc:	8909                	andi	a0,a0,2
    21ce:	c901                	beqz	a0,21de <tcp_receive+0x5ae>
    21d0:	00c95783          	lhu	a5,12(s2)
    21d4:	17fd                	addi	a5,a5,-1
    21d6:	1fffe717          	auipc	a4,0x1fffe
    21da:	f6f71723          	sh	a5,-146(a4) # 20000144 <inseg+0xc>
    21de:	00492503          	lw	a0,4(s2)
    21e2:	1fffe597          	auipc	a1,0x1fffe
    21e6:	f625d583          	lhu	a1,-158(a1) # 20000144 <inseg+0xc>
    21ea:	6d9040ef          	jal	ra,70c2 <pbuf_realloc>
    21ee:	01092783          	lw	a5,16(s2)
    21f2:	1fffea17          	auipc	s4,0x1fffe
    21f6:	f52a5a03          	lhu	s4,-174(s4) # 20000144 <inseg+0xc>
    21fa:	00c7c503          	lbu	a0,12(a5)
    21fe:	00d7c783          	lbu	a5,13(a5)
    2202:	07a2                	slli	a5,a5,0x8
    2204:	8d5d                	or	a0,a0,a5
    2206:	20021097          	auipc	ra,0x20021
    220a:	cec080e7          	jalr	-788(ra) # 20022ef2 <ntohs>
    220e:	890d                	andi	a0,a0,3
    2210:	00a03533          	snez	a0,a0
    2214:	9a2a                	add	s4,s4,a0
    2216:	1fffe797          	auipc	a5,0x1fffe
    221a:	ef479923          	sh	s4,-270(a5) # 20000108 <tcplen>
    221e:	0089d793          	srli	a5,s3,0x8
    2222:	07340823          	sb	s3,112(s0)
    2226:	06f408a3          	sb	a5,113(s0)
    222a:	0109d793          	srli	a5,s3,0x10
    222e:	0189d993          	srli	s3,s3,0x18
    2232:	06f40923          	sb	a5,114(s0)
    2236:	073409a3          	sb	s3,115(s0)
    223a:	ab61                	j	27d2 <tcp_receive+0xba2>
    223c:	bce791e3          	bne	a5,a4,1dfe <tcp_receive+0x1ce>
    2240:	8522                	mv	a0,s0
    2242:	248030ef          	jal	ra,548a <tcp_rexmit_fast>
    2246:	be65                	j	1dfe <tcp_receive+0x1ce>
    2248:	040405a3          	sb	zero,75(s0)
    224c:	be4d                	j	1dfe <tcp_receive+0x1ce>
    224e:	05144603          	lbu	a2,81(s0)
    2252:	05044683          	lbu	a3,80(s0)
    2256:	0622                	slli	a2,a2,0x8
    2258:	8e55                	or	a2,a2,a3
    225a:	05244683          	lbu	a3,82(s0)
    225e:	06c2                	slli	a3,a3,0x10
    2260:	8e55                	or	a2,a2,a3
    2262:	05344683          	lbu	a3,83(s0)
    2266:	06e2                	slli	a3,a3,0x18
    2268:	8ed1                	or	a3,a3,a2
    226a:	40d786b3          	sub	a3,a5,a3
    226e:	28d04863          	bgtz	a3,24fe <tcp_receive+0x8ce>
    2272:	02144683          	lbu	a3,33(s0)
    2276:	0046f613          	andi	a2,a3,4
    227a:	ce19                	beqz	a2,2298 <tcp_receive+0x668>
    227c:	9aed                	andi	a3,a3,-5
    227e:	02d400a3          	sb	a3,33(s0)
    2282:	04f44683          	lbu	a3,79(s0)
    2286:	04e44603          	lbu	a2,78(s0)
    228a:	06a2                	slli	a3,a3,0x8
    228c:	8ed1                	or	a3,a3,a2
    228e:	04d40623          	sb	a3,76(s0)
    2292:	82a1                	srli	a3,a3,0x8
    2294:	04d406a3          	sb	a3,77(s0)
    2298:	04144683          	lbu	a3,65(s0)
    229c:	04044603          	lbu	a2,64(s0)
    22a0:	04244583          	lbu	a1,66(s0)
    22a4:	06a2                	slli	a3,a3,0x8
    22a6:	8ed1                	or	a3,a3,a2
    22a8:	06c2                	slli	a3,a3,0x10
    22aa:	86c1                	srai	a3,a3,0x10
    22ac:	4036d613          	srai	a2,a3,0x3
    22b0:	04344683          	lbu	a3,67(s0)
    22b4:	0742                	slli	a4,a4,0x10
    22b6:	8341                	srli	a4,a4,0x10
    22b8:	06a2                	slli	a3,a3,0x8
    22ba:	8ecd                	or	a3,a3,a1
    22bc:	96b2                	add	a3,a3,a2
    22be:	06c2                	slli	a3,a3,0x10
    22c0:	82c1                	srli	a3,a3,0x10
    22c2:	04d40223          	sb	a3,68(s0)
    22c6:	82a1                	srli	a3,a3,0x8
    22c8:	04d402a3          	sb	a3,69(s0)
    22cc:	00875693          	srli	a3,a4,0x8
    22d0:	06d401a3          	sb	a3,99(s0)
    22d4:	06544683          	lbu	a3,101(s0)
    22d8:	06444603          	lbu	a2,100(s0)
    22dc:	06e40123          	sb	a4,98(s0)
    22e0:	06a2                	slli	a3,a3,0x8
    22e2:	8ed1                	or	a3,a3,a2
    22e4:	9736                	add	a4,a4,a3
    22e6:	0742                	slli	a4,a4,0x10
    22e8:	8341                	srli	a4,a4,0x10
    22ea:	06e40223          	sb	a4,100(s0)
    22ee:	8321                	srli	a4,a4,0x8
    22f0:	06e402a3          	sb	a4,101(s0)
    22f4:	0087d713          	srli	a4,a5,0x8
    22f8:	04e40423          	sb	a4,72(s0)
    22fc:	0107d713          	srli	a4,a5,0x10
    2300:	04f403a3          	sb	a5,71(s0)
    2304:	04e404a3          	sb	a4,73(s0)
    2308:	83e1                	srli	a5,a5,0x18
    230a:	01144703          	lbu	a4,17(s0)
    230e:	04f40523          	sb	a5,74(s0)
    2312:	01044783          	lbu	a5,16(s0)
    2316:	0722                	slli	a4,a4,0x8
    2318:	04040323          	sb	zero,70(s0)
    231c:	8f5d                	or	a4,a4,a5
    231e:	01244783          	lbu	a5,18(s0)
    2322:	040405a3          	sb	zero,75(s0)
    2326:	07c2                	slli	a5,a5,0x10
    2328:	8f5d                	or	a4,a4,a5
    232a:	01344783          	lbu	a5,19(s0)
    232e:	07e2                	slli	a5,a5,0x18
    2330:	8fd9                	or	a5,a5,a4
    2332:	470d                	li	a4,3
    2334:	04f77063          	bgeu	a4,a5,2374 <tcp_receive+0x744>
    2338:	04d44703          	lbu	a4,77(s0)
    233c:	04c44783          	lbu	a5,76(s0)
    2340:	03644683          	lbu	a3,54(s0)
    2344:	0722                	slli	a4,a4,0x8
    2346:	8f5d                	or	a4,a4,a5
    2348:	03744783          	lbu	a5,55(s0)
    234c:	04e44603          	lbu	a2,78(s0)
    2350:	07a2                	slli	a5,a5,0x8
    2352:	8fd5                	or	a5,a5,a3
    2354:	04f44683          	lbu	a3,79(s0)
    2358:	06a2                	slli	a3,a3,0x8
    235a:	8ed1                	or	a3,a3,a2
    235c:	06d77763          	bgeu	a4,a3,23ca <tcp_receive+0x79a>
    2360:	97ba                	add	a5,a5,a4
    2362:	07c2                	slli	a5,a5,0x10
    2364:	83c1                	srli	a5,a5,0x10
    2366:	00f77763          	bgeu	a4,a5,2374 <tcp_receive+0x744>
    236a:	04f40623          	sb	a5,76(s0)
    236e:	83a1                	srli	a5,a5,0x8
    2370:	04f406a3          	sb	a5,77(s0)
    2374:	06d44703          	lbu	a4,109(s0)
    2378:	06c44783          	lbu	a5,108(s0)
    237c:	0722                	slli	a4,a4,0x8
    237e:	8f5d                	or	a4,a4,a5
    2380:	06e44783          	lbu	a5,110(s0)
    2384:	07c2                	slli	a5,a5,0x10
    2386:	8f5d                	or	a4,a4,a5
    2388:	06f44783          	lbu	a5,111(s0)
    238c:	07e2                	slli	a5,a5,0x18
    238e:	8fd9                	or	a5,a5,a4
    2390:	e3b1                	bnez	a5,23d4 <tcp_receive+0x7a4>
    2392:	06d44703          	lbu	a4,109(s0)
    2396:	06c44783          	lbu	a5,108(s0)
    239a:	02040923          	sb	zero,50(s0)
    239e:	0722                	slli	a4,a4,0x8
    23a0:	8f5d                	or	a4,a4,a5
    23a2:	06e44783          	lbu	a5,110(s0)
    23a6:	07c2                	slli	a5,a5,0x10
    23a8:	8f5d                	or	a4,a4,a5
    23aa:	06f44783          	lbu	a5,111(s0)
    23ae:	07e2                	slli	a5,a5,0x18
    23b0:	8fd9                	or	a5,a5,a4
    23b2:	0017b793          	seqz	a5,a5
    23b6:	40f007b3          	neg	a5,a5
    23ba:	07c2                	slli	a5,a5,0x10
    23bc:	83c1                	srli	a5,a5,0x10
    23be:	02f40a23          	sb	a5,52(s0)
    23c2:	83a1                	srli	a5,a5,0x8
    23c4:	02f40aa3          	sb	a5,53(s0)
    23c8:	bc1d                	j	1dfe <tcp_receive+0x1ce>
    23ca:	02f787b3          	mul	a5,a5,a5
    23ce:	02e7c7b3          	div	a5,a5,a4
    23d2:	b779                	j	2360 <tcp_receive+0x730>
    23d4:	4b98                	lw	a4,16(a5)
    23d6:	00574503          	lbu	a0,5(a4)
    23da:	00474783          	lbu	a5,4(a4)
    23de:	0522                	slli	a0,a0,0x8
    23e0:	8d5d                	or	a0,a0,a5
    23e2:	00674783          	lbu	a5,6(a4)
    23e6:	07c2                	slli	a5,a5,0x10
    23e8:	8fc9                	or	a5,a5,a0
    23ea:	00774503          	lbu	a0,7(a4)
    23ee:	0562                	slli	a0,a0,0x18
    23f0:	8d5d                	or	a0,a0,a5
    23f2:	20021097          	auipc	ra,0x20021
    23f6:	b32080e7          	jalr	-1230(ra) # 20022f24 <ntohl>
    23fa:	06d44703          	lbu	a4,109(s0)
    23fe:	06c44783          	lbu	a5,108(s0)
    2402:	89aa                	mv	s3,a0
    2404:	0722                	slli	a4,a4,0x8
    2406:	8f5d                	or	a4,a4,a5
    2408:	06e44783          	lbu	a5,110(s0)
    240c:	07c2                	slli	a5,a5,0x10
    240e:	8f5d                	or	a4,a4,a5
    2410:	06f44783          	lbu	a5,111(s0)
    2414:	07e2                	slli	a5,a5,0x18
    2416:	8fd9                	or	a5,a5,a4
    2418:	00c7da03          	lhu	s4,12(a5)
    241c:	4b9c                	lw	a5,16(a5)
    241e:	00c7c503          	lbu	a0,12(a5)
    2422:	00d7c783          	lbu	a5,13(a5)
    2426:	07a2                	slli	a5,a5,0x8
    2428:	8d5d                	or	a0,a0,a5
    242a:	20021097          	auipc	ra,0x20021
    242e:	ac8080e7          	jalr	-1336(ra) # 20022ef2 <ntohs>
    2432:	00092783          	lw	a5,0(s2)
    2436:	890d                	andi	a0,a0,3
    2438:	00a03533          	snez	a0,a0
    243c:	9552                	add	a0,a0,s4
    243e:	40f989b3          	sub	s3,s3,a5
    2442:	954e                	add	a0,a0,s3
    2444:	f4a047e3          	bgtz	a0,2392 <tcp_receive+0x762>
    2448:	06d44783          	lbu	a5,109(s0)
    244c:	06c44983          	lbu	s3,108(s0)
    2450:	06244703          	lbu	a4,98(s0)
    2454:	07a2                	slli	a5,a5,0x8
    2456:	0137e7b3          	or	a5,a5,s3
    245a:	06e44983          	lbu	s3,110(s0)
    245e:	09c2                	slli	s3,s3,0x10
    2460:	00f9e7b3          	or	a5,s3,a5
    2464:	06f44983          	lbu	s3,111(s0)
    2468:	09e2                	slli	s3,s3,0x18
    246a:	00f9e9b3          	or	s3,s3,a5
    246e:	0009c783          	lbu	a5,0(s3)
    2472:	06f40623          	sb	a5,108(s0)
    2476:	0019c783          	lbu	a5,1(s3)
    247a:	06f406a3          	sb	a5,109(s0)
    247e:	0029c783          	lbu	a5,2(s3)
    2482:	06f40723          	sb	a5,110(s0)
    2486:	0039c783          	lbu	a5,3(s3)
    248a:	06f407a3          	sb	a5,111(s0)
    248e:	06344783          	lbu	a5,99(s0)
    2492:	07a2                	slli	a5,a5,0x8
    2494:	8fd9                	or	a5,a5,a4
    2496:	cf8d                	beqz	a5,24d0 <tcp_receive+0x8a0>
    2498:	0109a783          	lw	a5,16(s3)
    249c:	00c7c503          	lbu	a0,12(a5)
    24a0:	00d7c783          	lbu	a5,13(a5)
    24a4:	07a2                	slli	a5,a5,0x8
    24a6:	8d5d                	or	a0,a0,a5
    24a8:	20021097          	auipc	ra,0x20021
    24ac:	a4a080e7          	jalr	-1462(ra) # 20022ef2 <ntohs>
    24b0:	8905                	andi	a0,a0,1
    24b2:	cd19                	beqz	a0,24d0 <tcp_receive+0x8a0>
    24b4:	06344783          	lbu	a5,99(s0)
    24b8:	06244703          	lbu	a4,98(s0)
    24bc:	07a2                	slli	a5,a5,0x8
    24be:	8fd9                	or	a5,a5,a4
    24c0:	17fd                	addi	a5,a5,-1
    24c2:	07c2                	slli	a5,a5,0x10
    24c4:	83c1                	srli	a5,a5,0x10
    24c6:	06f40123          	sb	a5,98(s0)
    24ca:	83a1                	srli	a5,a5,0x8
    24cc:	06f401a3          	sb	a5,99(s0)
    24d0:	0049a503          	lw	a0,4(s3)
    24d4:	4e5040ef          	jal	ra,71b8 <pbuf_clen>
    24d8:	06744783          	lbu	a5,103(s0)
    24dc:	06644703          	lbu	a4,102(s0)
    24e0:	07a2                	slli	a5,a5,0x8
    24e2:	8fd9                	or	a5,a5,a4
    24e4:	40a78533          	sub	a0,a5,a0
    24e8:	0542                	slli	a0,a0,0x10
    24ea:	8141                	srli	a0,a0,0x10
    24ec:	06a40323          	sb	a0,102(s0)
    24f0:	8121                	srli	a0,a0,0x8
    24f2:	06a403a3          	sb	a0,103(s0)
    24f6:	854e                	mv	a0,s3
    24f8:	caafe0ef          	jal	ra,9a2 <tcp_seg_free>
    24fc:	bda5                	j	2374 <tcp_receive+0x744>
    24fe:	06040123          	sb	zero,98(s0)
    2502:	060401a3          	sb	zero,99(s0)
    2506:	b8e5                	j	1dfe <tcp_receive+0x1ce>
    2508:	4b94                	lw	a3,16(a5)
    250a:	00092983          	lw	s3,0(s2)
    250e:	0056c503          	lbu	a0,5(a3)
    2512:	0046c703          	lbu	a4,4(a3)
    2516:	0522                	slli	a0,a0,0x8
    2518:	8d59                	or	a0,a0,a4
    251a:	0066c703          	lbu	a4,6(a3)
    251e:	0742                	slli	a4,a4,0x10
    2520:	8f49                	or	a4,a4,a0
    2522:	0076c503          	lbu	a0,7(a3)
    2526:	0562                	slli	a0,a0,0x18
    2528:	8d59                	or	a0,a0,a4
    252a:	20021097          	auipc	ra,0x20021
    252e:	9fa080e7          	jalr	-1542(ra) # 20022f24 <ntohl>
    2532:	06944703          	lbu	a4,105(s0)
    2536:	06844783          	lbu	a5,104(s0)
    253a:	8aaa                	mv	s5,a0
    253c:	0722                	slli	a4,a4,0x8
    253e:	8fd9                	or	a5,a5,a4
    2540:	06a44703          	lbu	a4,106(s0)
    2544:	0742                	slli	a4,a4,0x10
    2546:	8f5d                	or	a4,a4,a5
    2548:	06b44783          	lbu	a5,107(s0)
    254c:	07e2                	slli	a5,a5,0x18
    254e:	8fd9                	or	a5,a5,a4
    2550:	4b98                	lw	a4,16(a5)
    2552:	00c7da03          	lhu	s4,12(a5)
    2556:	00c74503          	lbu	a0,12(a4)
    255a:	00d74703          	lbu	a4,13(a4)
    255e:	0722                	slli	a4,a4,0x8
    2560:	8d59                	or	a0,a0,a4
    2562:	20021097          	auipc	ra,0x20021
    2566:	990080e7          	jalr	-1648(ra) # 20022ef2 <ntohs>
    256a:	890d                	andi	a0,a0,3
    256c:	00a03533          	snez	a0,a0
    2570:	415987b3          	sub	a5,s3,s5
    2574:	9552                	add	a0,a0,s4
    2576:	8f89                	sub	a5,a5,a0
    2578:	8a07c3e3          	bltz	a5,1e1e <tcp_receive+0x1ee>
    257c:	05144703          	lbu	a4,81(s0)
    2580:	05044783          	lbu	a5,80(s0)
    2584:	0722                	slli	a4,a4,0x8
    2586:	8f5d                	or	a4,a4,a5
    2588:	05244783          	lbu	a5,82(s0)
    258c:	07c2                	slli	a5,a5,0x10
    258e:	8f5d                	or	a4,a4,a5
    2590:	05344783          	lbu	a5,83(s0)
    2594:	07e2                	slli	a5,a5,0x18
    2596:	8fd9                	or	a5,a5,a4
    2598:	00092703          	lw	a4,0(s2)
    259c:	40f707b3          	sub	a5,a4,a5
    25a0:	86f04fe3          	bgtz	a5,1e1e <tcp_receive+0x1ee>
    25a4:	06944783          	lbu	a5,105(s0)
    25a8:	06844983          	lbu	s3,104(s0)
    25ac:	06244703          	lbu	a4,98(s0)
    25b0:	07a2                	slli	a5,a5,0x8
    25b2:	0137e7b3          	or	a5,a5,s3
    25b6:	06a44983          	lbu	s3,106(s0)
    25ba:	09c2                	slli	s3,s3,0x10
    25bc:	00f9e7b3          	or	a5,s3,a5
    25c0:	06b44983          	lbu	s3,107(s0)
    25c4:	09e2                	slli	s3,s3,0x18
    25c6:	00f9e9b3          	or	s3,s3,a5
    25ca:	0009c783          	lbu	a5,0(s3)
    25ce:	06f40423          	sb	a5,104(s0)
    25d2:	0019c783          	lbu	a5,1(s3)
    25d6:	06f404a3          	sb	a5,105(s0)
    25da:	0029c783          	lbu	a5,2(s3)
    25de:	06f40523          	sb	a5,106(s0)
    25e2:	0039c783          	lbu	a5,3(s3)
    25e6:	06f405a3          	sb	a5,107(s0)
    25ea:	06344783          	lbu	a5,99(s0)
    25ee:	07a2                	slli	a5,a5,0x8
    25f0:	8fd9                	or	a5,a5,a4
    25f2:	cf8d                	beqz	a5,262c <tcp_receive+0x9fc>
    25f4:	0109a783          	lw	a5,16(s3)
    25f8:	00c7c503          	lbu	a0,12(a5)
    25fc:	00d7c783          	lbu	a5,13(a5)
    2600:	07a2                	slli	a5,a5,0x8
    2602:	8d5d                	or	a0,a0,a5
    2604:	20021097          	auipc	ra,0x20021
    2608:	8ee080e7          	jalr	-1810(ra) # 20022ef2 <ntohs>
    260c:	8905                	andi	a0,a0,1
    260e:	cd19                	beqz	a0,262c <tcp_receive+0x9fc>
    2610:	06344783          	lbu	a5,99(s0)
    2614:	06244703          	lbu	a4,98(s0)
    2618:	07a2                	slli	a5,a5,0x8
    261a:	8fd9                	or	a5,a5,a4
    261c:	17fd                	addi	a5,a5,-1
    261e:	07c2                	slli	a5,a5,0x10
    2620:	83c1                	srli	a5,a5,0x10
    2622:	06f40123          	sb	a5,98(s0)
    2626:	83a1                	srli	a5,a5,0x8
    2628:	06f401a3          	sb	a5,99(s0)
    262c:	0049a503          	lw	a0,4(s3)
    2630:	389040ef          	jal	ra,71b8 <pbuf_clen>
    2634:	06744783          	lbu	a5,103(s0)
    2638:	06644703          	lbu	a4,102(s0)
    263c:	07a2                	slli	a5,a5,0x8
    263e:	8fd9                	or	a5,a5,a4
    2640:	40a78533          	sub	a0,a5,a0
    2644:	0542                	slli	a0,a0,0x10
    2646:	8141                	srli	a0,a0,0x10
    2648:	06a40323          	sb	a0,102(s0)
    264c:	8121                	srli	a0,a0,0x8
    264e:	06a403a3          	sb	a0,103(s0)
    2652:	854e                	mv	a0,s3
    2654:	b4efe0ef          	jal	ra,9a2 <tcp_seg_free>
    2658:	fa6ff06f          	j	1dfe <tcp_receive+0x1ce>
    265c:	03d44703          	lbu	a4,61(s0)
    2660:	03c44783          	lbu	a5,60(s0)
    2664:	0722                	slli	a4,a4,0x8
    2666:	8f5d                	or	a4,a4,a5
    2668:	03e44783          	lbu	a5,62(s0)
    266c:	07c2                	slli	a5,a5,0x10
    266e:	8f5d                	or	a4,a4,a5
    2670:	03f44783          	lbu	a5,63(s0)
    2674:	07e2                	slli	a5,a5,0x18
    2676:	8fd9                	or	a5,a5,a4
    2678:	00092703          	lw	a4,0(s2)
    267c:	8f99                	sub	a5,a5,a4
    267e:	fc07d063          	bgez	a5,1e3e <tcp_receive+0x20e>
    2682:	04144683          	lbu	a3,65(s0)
    2686:	04044583          	lbu	a1,64(s0)
    268a:	0642                	slli	a2,a2,0x10
    268c:	06a2                	slli	a3,a3,0x8
    268e:	8ecd                	or	a3,a3,a1
    2690:	01069593          	slli	a1,a3,0x10
    2694:	85c1                	srai	a1,a1,0x10
    2696:	4035d513          	srai	a0,a1,0x3
    269a:	1ffff797          	auipc	a5,0x1ffff
    269e:	8127d783          	lhu	a5,-2030(a5) # 20000eac <tcp_ticks>
    26a2:	8241                	srli	a2,a2,0x10
    26a4:	0542                	slli	a0,a0,0x10
    26a6:	8141                	srli	a0,a0,0x10
    26a8:	40c786b3          	sub	a3,a5,a2
    26ac:	8e89                	sub	a3,a3,a0
    26ae:	06c2                	slli	a3,a3,0x10
    26b0:	82c1                	srli	a3,a3,0x10
    26b2:	01069813          	slli	a6,a3,0x10
    26b6:	96ae                	add	a3,a3,a1
    26b8:	06c2                	slli	a3,a3,0x10
    26ba:	86c1                	srai	a3,a3,0x10
    26bc:	01069593          	slli	a1,a3,0x10
    26c0:	81c1                	srli	a1,a1,0x10
    26c2:	04b40023          	sb	a1,64(s0)
    26c6:	81a1                	srli	a1,a1,0x8
    26c8:	41085813          	srai	a6,a6,0x10
    26cc:	04b400a3          	sb	a1,65(s0)
    26d0:	00085863          	bgez	a6,26e0 <tcp_receive+0xab0>
    26d4:	8e1d                	sub	a2,a2,a5
    26d6:	962a                	add	a2,a2,a0
    26d8:	01061813          	slli	a6,a2,0x10
    26dc:	41085813          	srai	a6,a6,0x10
    26e0:	04344703          	lbu	a4,67(s0)
    26e4:	04244783          	lbu	a5,66(s0)
    26e8:	868d                	srai	a3,a3,0x3
    26ea:	0722                	slli	a4,a4,0x8
    26ec:	8f5d                	or	a4,a4,a5
    26ee:	0742                	slli	a4,a4,0x10
    26f0:	8741                	srai	a4,a4,0x10
    26f2:	40275793          	srai	a5,a4,0x2
    26f6:	40f707b3          	sub	a5,a4,a5
    26fa:	97c2                	add	a5,a5,a6
    26fc:	07c2                	slli	a5,a5,0x10
    26fe:	83c1                	srli	a5,a5,0x10
    2700:	01079713          	slli	a4,a5,0x10
    2704:	97b6                	add	a5,a5,a3
    2706:	07c2                	slli	a5,a5,0x10
    2708:	8341                	srli	a4,a4,0x10
    270a:	83c1                	srli	a5,a5,0x10
    270c:	04e40123          	sb	a4,66(s0)
    2710:	04f40223          	sb	a5,68(s0)
    2714:	8321                	srli	a4,a4,0x8
    2716:	83a1                	srli	a5,a5,0x8
    2718:	04e401a3          	sb	a4,67(s0)
    271c:	04f402a3          	sb	a5,69(s0)
    2720:	02040c23          	sb	zero,56(s0)
    2724:	02040ca3          	sb	zero,57(s0)
    2728:	02040d23          	sb	zero,58(s0)
    272c:	02040da3          	sb	zero,59(s0)
    2730:	f0eff06f          	j	1e3e <tcp_receive+0x20e>
    2734:	8d99                	sub	a1,a1,a4
    2736:	00194703          	lbu	a4,1(s2)
    273a:	00094683          	lbu	a3,0(s2)
    273e:	00c90423          	sb	a2,8(s2)
    2742:	0722                	slli	a4,a4,0x8
    2744:	8ed9                	or	a3,a3,a4
    2746:	00294703          	lbu	a4,2(s2)
    274a:	00f904a3          	sb	a5,9(s2)
    274e:	00090523          	sb	zero,10(s2)
    2752:	000905a3          	sb	zero,11(s2)
    2756:	00394903          	lbu	s2,3(s2)
    275a:	0742                	slli	a4,a4,0x10
    275c:	8f55                	or	a4,a4,a3
    275e:	0962                	slli	s2,s2,0x18
    2760:	00e96933          	or	s2,s2,a4
    2764:	f56ff06f          	j	1eba <tcp_receive+0x28a>
    2768:	40d006b3          	neg	a3,a3
    276c:	01069593          	slli	a1,a3,0x10
    2770:	f60ff06f          	j	1ed0 <tcp_receive+0x2a0>
    2774:	8f99                	sub	a5,a5,a4
    2776:	fc07dd63          	bgez	a5,1f50 <tcp_receive+0x320>
    277a:	02144783          	lbu	a5,33(s0)
    277e:	8522                	mv	a0,s0
    2780:	0027e793          	ori	a5,a5,2
    2784:	02f400a3          	sb	a5,33(s0)
    2788:	34e020ef          	jal	ra,4ad6 <tcp_output>
    278c:	fc4ff06f          	j	1f50 <tcp_receive+0x320>
    2790:	00054783          	lbu	a5,0(a0)
    2794:	06f40823          	sb	a5,112(s0)
    2798:	00154783          	lbu	a5,1(a0)
    279c:	06f408a3          	sb	a5,113(s0)
    27a0:	00254783          	lbu	a5,2(a0)
    27a4:	06f40923          	sb	a5,114(s0)
    27a8:	00354783          	lbu	a5,3(a0)
    27ac:	06f409a3          	sb	a5,115(s0)
    27b0:	9f2fe0ef          	jal	ra,9a2 <tcp_seg_free>
    27b4:	07144783          	lbu	a5,113(s0)
    27b8:	07044503          	lbu	a0,112(s0)
    27bc:	07a2                	slli	a5,a5,0x8
    27be:	8fc9                	or	a5,a5,a0
    27c0:	07244503          	lbu	a0,114(s0)
    27c4:	0542                	slli	a0,a0,0x10
    27c6:	8fc9                	or	a5,a5,a0
    27c8:	07344503          	lbu	a0,115(s0)
    27cc:	0562                	slli	a0,a0,0x18
    27ce:	8d5d                	or	a0,a0,a5
    27d0:	f161                	bnez	a0,2790 <tcp_receive+0xb60>
    27d2:	4098                	lw	a4,0(s1)
    27d4:	1fffe697          	auipc	a3,0x1fffe
    27d8:	9346d683          	lhu	a3,-1740(a3) # 20000108 <tcplen>
    27dc:	8522                	mv	a0,s0
    27de:	9736                	add	a4,a4,a3
    27e0:	00875793          	srli	a5,a4,0x8
    27e4:	02f401a3          	sb	a5,35(s0)
    27e8:	01075793          	srli	a5,a4,0x10
    27ec:	02e40123          	sb	a4,34(s0)
    27f0:	02f40223          	sb	a5,36(s0)
    27f4:	8361                	srli	a4,a4,0x18
    27f6:	02744783          	lbu	a5,39(s0)
    27fa:	02e402a3          	sb	a4,37(s0)
    27fe:	02644703          	lbu	a4,38(s0)
    2802:	07a2                	slli	a5,a5,0x8
    2804:	8fd9                	or	a5,a5,a4
    2806:	8f95                	sub	a5,a5,a3
    2808:	07c2                	slli	a5,a5,0x10
    280a:	83c1                	srli	a5,a5,0x10
    280c:	02f40323          	sb	a5,38(s0)
    2810:	83a1                	srli	a5,a5,0x8
    2812:	02f403a3          	sb	a5,39(s0)
    2816:	87afe0ef          	jal	ra,890 <tcp_update_rcv_ann_wnd>
    281a:	00492703          	lw	a4,4(s2)
    281e:	00974783          	lbu	a5,9(a4)
    2822:	00874683          	lbu	a3,8(a4)
    2826:	07a2                	slli	a5,a5,0x8
    2828:	8fd5                	or	a5,a5,a3
    282a:	cb89                	beqz	a5,283c <tcp_receive+0xc0c>
    282c:	1fffe797          	auipc	a5,0x1fffe
    2830:	8ce7a623          	sw	a4,-1844(a5) # 200000f8 <recv_data>
    2834:	1fffe797          	auipc	a5,0x1fffe
    2838:	9007a423          	sw	zero,-1784(a5) # 2000013c <inseg+0x4>
    283c:	01092783          	lw	a5,16(s2)
    2840:	00c7c503          	lbu	a0,12(a5)
    2844:	00d7c783          	lbu	a5,13(a5)
    2848:	07a2                	slli	a5,a5,0x8
    284a:	8d5d                	or	a0,a0,a5
    284c:	20020097          	auipc	ra,0x20020
    2850:	6a6080e7          	jalr	1702(ra) # 20022ef2 <ntohs>
    2854:	8905                	andi	a0,a0,1
    2856:	c919                	beqz	a0,286c <tcp_receive+0xc3c>
    2858:	1fffe797          	auipc	a5,0x1fffe
    285c:	8a47c783          	lbu	a5,-1884(a5) # 200000fc <recv_flags>
    2860:	0207e793          	ori	a5,a5,32
    2864:	1fffe717          	auipc	a4,0x1fffe
    2868:	88f70c23          	sb	a5,-1896(a4) # 200000fc <recv_flags>
    286c:	1fffe917          	auipc	s2,0x1fffe
    2870:	88c90913          	addi	s2,s2,-1908 # 200000f8 <recv_data>
    2874:	1fffe997          	auipc	s3,0x1fffe
    2878:	88898993          	addi	s3,s3,-1912 # 200000fc <recv_flags>
    287c:	4a11                	li	s4,4
    287e:	4a9d                	li	s5,7
    2880:	a429                	j	2a8a <tcp_receive+0xe5a>
    2882:	00d64783          	lbu	a5,13(a2)
    2886:	00c64503          	lbu	a0,12(a2)
    288a:	07a2                	slli	a5,a5,0x8
    288c:	8d5d                	or	a0,a0,a5
    288e:	20020097          	auipc	ra,0x20020
    2892:	664080e7          	jalr	1636(ra) # 20022ef2 <ntohs>
    2896:	8905                	andi	a0,a0,1
    2898:	cd59                	beqz	a0,2936 <tcp_receive+0xd06>
    289a:	01092783          	lw	a5,16(s2)
    289e:	00c7c503          	lbu	a0,12(a5)
    28a2:	00d7c783          	lbu	a5,13(a5)
    28a6:	07a2                	slli	a5,a5,0x8
    28a8:	8d5d                	or	a0,a0,a5
    28aa:	20020097          	auipc	ra,0x20020
    28ae:	648080e7          	jalr	1608(ra) # 20022ef2 <ntohs>
    28b2:	8909                	andi	a0,a0,2
    28b4:	e149                	bnez	a0,2936 <tcp_receive+0xd06>
    28b6:	01092783          	lw	a5,16(s2)
    28ba:	00d7ca03          	lbu	s4,13(a5)
    28be:	00c7c503          	lbu	a0,12(a5)
    28c2:	0a22                	slli	s4,s4,0x8
    28c4:	00aa6a33          	or	s4,s4,a0
    28c8:	8556                	mv	a0,s5
    28ca:	20020097          	auipc	ra,0x20020
    28ce:	61a080e7          	jalr	1562(ra) # 20022ee4 <htons>
    28d2:	01092783          	lw	a5,16(s2)
    28d6:	00aa7a33          	and	s4,s4,a0
    28da:	00c7c503          	lbu	a0,12(a5)
    28de:	00d7c783          	lbu	a5,13(a5)
    28e2:	07a2                	slli	a5,a5,0x8
    28e4:	8d5d                	or	a0,a0,a5
    28e6:	20020097          	auipc	ra,0x20020
    28ea:	60c080e7          	jalr	1548(ra) # 20022ef2 <ntohs>
    28ee:	03e57513          	andi	a0,a0,62
    28f2:	00156513          	ori	a0,a0,1
    28f6:	20020097          	auipc	ra,0x20020
    28fa:	5ee080e7          	jalr	1518(ra) # 20022ee4 <htons>
    28fe:	00aa6533          	or	a0,s4,a0
    2902:	01092783          	lw	a5,16(s2)
    2906:	0542                	slli	a0,a0,0x10
    2908:	8141                	srli	a0,a0,0x10
    290a:	00855713          	srli	a4,a0,0x8
    290e:	00a78623          	sb	a0,12(a5)
    2912:	00e786a3          	sb	a4,13(a5)
    2916:	1fffea17          	auipc	s4,0x1fffe
    291a:	82ea5a03          	lhu	s4,-2002(s4) # 20000144 <inseg+0xc>
    291e:	20020097          	auipc	ra,0x20020
    2922:	5d4080e7          	jalr	1492(ra) # 20022ef2 <ntohs>
    2926:	890d                	andi	a0,a0,3
    2928:	00a03533          	snez	a0,a0
    292c:	9a2a                	add	s4,s4,a0
    292e:	1fffd797          	auipc	a5,0x1fffd
    2932:	7d479d23          	sh	s4,2010(a5) # 20000108 <tcplen>
    2936:	0009aa03          	lw	s4,0(s3)
    293a:	854e                	mv	a0,s3
    293c:	866fe0ef          	jal	ra,9a2 <tcp_seg_free>
    2940:	89d2                	mv	s3,s4
    2942:	ffaff06f          	j	213c <tcp_receive+0x50c>
    2946:	1fffd717          	auipc	a4,0x1fffd
    294a:	7af72d23          	sw	a5,1978(a4) # 20000100 <seqno>
    294e:	00d64783          	lbu	a5,13(a2)
    2952:	00c64503          	lbu	a0,12(a2)
    2956:	00c4db03          	lhu	s6,12(s1)
    295a:	07a2                	slli	a5,a5,0x8
    295c:	8d5d                	or	a0,a0,a5
    295e:	20020097          	auipc	ra,0x20020
    2962:	594080e7          	jalr	1428(ra) # 20022ef2 <ntohs>
    2966:	02344703          	lbu	a4,35(s0)
    296a:	02244783          	lbu	a5,34(s0)
    296e:	890d                	andi	a0,a0,3
    2970:	0722                	slli	a4,a4,0x8
    2972:	8f5d                	or	a4,a4,a5
    2974:	02444783          	lbu	a5,36(s0)
    2978:	00a03533          	snez	a0,a0
    297c:	955a                	add	a0,a0,s6
    297e:	07c2                	slli	a5,a5,0x10
    2980:	8f5d                	or	a4,a4,a5
    2982:	02544783          	lbu	a5,37(s0)
    2986:	00c4db03          	lhu	s6,12(s1)
    298a:	07e2                	slli	a5,a5,0x18
    298c:	8fd9                	or	a5,a5,a4
    298e:	953e                	add	a0,a0,a5
    2990:	00855793          	srli	a5,a0,0x8
    2994:	4898                	lw	a4,16(s1)
    2996:	02a40123          	sb	a0,34(s0)
    299a:	02f401a3          	sb	a5,35(s0)
    299e:	01055793          	srli	a5,a0,0x10
    29a2:	8161                	srli	a0,a0,0x18
    29a4:	02f40223          	sb	a5,36(s0)
    29a8:	02a402a3          	sb	a0,37(s0)
    29ac:	00c74503          	lbu	a0,12(a4)
    29b0:	00d74703          	lbu	a4,13(a4)
    29b4:	0722                	slli	a4,a4,0x8
    29b6:	8d59                	or	a0,a0,a4
    29b8:	20020097          	auipc	ra,0x20020
    29bc:	53a080e7          	jalr	1338(ra) # 20022ef2 <ntohs>
    29c0:	02744783          	lbu	a5,39(s0)
    29c4:	02644703          	lbu	a4,38(s0)
    29c8:	890d                	andi	a0,a0,3
    29ca:	07a2                	slli	a5,a5,0x8
    29cc:	00a03533          	snez	a0,a0
    29d0:	8fd9                	or	a5,a5,a4
    29d2:	955a                	add	a0,a0,s6
    29d4:	8f89                	sub	a5,a5,a0
    29d6:	07c2                	slli	a5,a5,0x10
    29d8:	83c1                	srli	a5,a5,0x10
    29da:	02f40323          	sb	a5,38(s0)
    29de:	83a1                	srli	a5,a5,0x8
    29e0:	02f403a3          	sb	a5,39(s0)
    29e4:	8522                	mv	a0,s0
    29e6:	eabfd0ef          	jal	ra,890 <tcp_update_rcv_ann_wnd>
    29ea:	40cc                	lw	a1,4(s1)
    29ec:	0095c783          	lbu	a5,9(a1)
    29f0:	0085c703          	lbu	a4,8(a1)
    29f4:	07a2                	slli	a5,a5,0x8
    29f6:	8fd9                	or	a5,a5,a4
    29f8:	cb89                	beqz	a5,2a0a <tcp_receive+0xdda>
    29fa:	00092503          	lw	a0,0(s2)
    29fe:	10050263          	beqz	a0,2b02 <tcp_receive+0xed2>
    2a02:	003040ef          	jal	ra,7204 <pbuf_cat>
    2a06:	0004a223          	sw	zero,4(s1)
    2a0a:	489c                	lw	a5,16(s1)
    2a0c:	00c7c503          	lbu	a0,12(a5)
    2a10:	00d7c783          	lbu	a5,13(a5)
    2a14:	07a2                	slli	a5,a5,0x8
    2a16:	8d5d                	or	a0,a0,a5
    2a18:	20020097          	auipc	ra,0x20020
    2a1c:	4da080e7          	jalr	1242(ra) # 20022ef2 <ntohs>
    2a20:	8905                	andi	a0,a0,1
    2a22:	c129                	beqz	a0,2a64 <tcp_receive+0xe34>
    2a24:	0009c783          	lbu	a5,0(s3)
    2a28:	0207e793          	ori	a5,a5,32
    2a2c:	1fffd717          	auipc	a4,0x1fffd
    2a30:	6cf70823          	sb	a5,1744(a4) # 200000fc <recv_flags>
    2a34:	01144703          	lbu	a4,17(s0)
    2a38:	01044783          	lbu	a5,16(s0)
    2a3c:	0722                	slli	a4,a4,0x8
    2a3e:	8f5d                	or	a4,a4,a5
    2a40:	01244783          	lbu	a5,18(s0)
    2a44:	07c2                	slli	a5,a5,0x10
    2a46:	8f5d                	or	a4,a4,a5
    2a48:	01344783          	lbu	a5,19(s0)
    2a4c:	07e2                	slli	a5,a5,0x18
    2a4e:	8fd9                	or	a5,a5,a4
    2a50:	01479a63          	bne	a5,s4,2a64 <tcp_receive+0xe34>
    2a54:	01540823          	sb	s5,16(s0)
    2a58:	000408a3          	sb	zero,17(s0)
    2a5c:	00040923          	sb	zero,18(s0)
    2a60:	000409a3          	sb	zero,19(s0)
    2a64:	0004c783          	lbu	a5,0(s1)
    2a68:	8526                	mv	a0,s1
    2a6a:	06f40823          	sb	a5,112(s0)
    2a6e:	0014c783          	lbu	a5,1(s1)
    2a72:	06f408a3          	sb	a5,113(s0)
    2a76:	0024c783          	lbu	a5,2(s1)
    2a7a:	06f40923          	sb	a5,114(s0)
    2a7e:	0034c783          	lbu	a5,3(s1)
    2a82:	06f409a3          	sb	a5,115(s0)
    2a86:	f1dfd0ef          	jal	ra,9a2 <tcp_seg_free>
    2a8a:	07144783          	lbu	a5,113(s0)
    2a8e:	07044483          	lbu	s1,112(s0)
    2a92:	07a2                	slli	a5,a5,0x8
    2a94:	8fc5                	or	a5,a5,s1
    2a96:	07244483          	lbu	s1,114(s0)
    2a9a:	04c2                	slli	s1,s1,0x10
    2a9c:	8fc5                	or	a5,a5,s1
    2a9e:	07344483          	lbu	s1,115(s0)
    2aa2:	04e2                	slli	s1,s1,0x18
    2aa4:	8cdd                	or	s1,s1,a5
    2aa6:	c0a1                	beqz	s1,2ae6 <tcp_receive+0xeb6>
    2aa8:	4890                	lw	a2,16(s1)
    2aaa:	02344683          	lbu	a3,35(s0)
    2aae:	00564703          	lbu	a4,5(a2)
    2ab2:	00464783          	lbu	a5,4(a2)
    2ab6:	06a2                	slli	a3,a3,0x8
    2ab8:	0722                	slli	a4,a4,0x8
    2aba:	8f5d                	or	a4,a4,a5
    2abc:	00664783          	lbu	a5,6(a2)
    2ac0:	07c2                	slli	a5,a5,0x10
    2ac2:	8f5d                	or	a4,a4,a5
    2ac4:	00764783          	lbu	a5,7(a2)
    2ac8:	07e2                	slli	a5,a5,0x18
    2aca:	8fd9                	or	a5,a5,a4
    2acc:	02244703          	lbu	a4,34(s0)
    2ad0:	8ed9                	or	a3,a3,a4
    2ad2:	02444703          	lbu	a4,36(s0)
    2ad6:	0742                	slli	a4,a4,0x10
    2ad8:	8ed9                	or	a3,a3,a4
    2ada:	02544703          	lbu	a4,37(s0)
    2ade:	0762                	slli	a4,a4,0x18
    2ae0:	8f55                	or	a4,a4,a3
    2ae2:	e6e782e3          	beq	a5,a4,2946 <tcp_receive+0xd16>
    2ae6:	02144783          	lbu	a5,33(s0)
    2aea:	0017f713          	andi	a4,a5,1
    2aee:	cf19                	beqz	a4,2b0c <tcp_receive+0xedc>
    2af0:	9bf9                	andi	a5,a5,-2
    2af2:	0027e793          	ori	a5,a5,2
    2af6:	02f400a3          	sb	a5,33(s0)
    2afa:	8522                	mv	a0,s0
    2afc:	7db010ef          	jal	ra,4ad6 <tcp_output>
    2b00:	a811                	j	2b14 <tcp_receive+0xee4>
    2b02:	1fffd797          	auipc	a5,0x1fffd
    2b06:	5eb7ab23          	sw	a1,1526(a5) # 200000f8 <recv_data>
    2b0a:	bdf5                	j	2a06 <tcp_receive+0xdd6>
    2b0c:	0017e793          	ori	a5,a5,1
    2b10:	02f400a3          	sb	a5,33(s0)
    2b14:	2001d317          	auipc	t1,0x2001d
    2b18:	53630067          	jr	1334(t1) # 2002004a <__riscv_restore_4>
    2b1c:	8522                	mv	a0,s0
    2b1e:	73f010ef          	jal	ra,4a5c <tcp_send_empty_ack>
    2b22:	07144783          	lbu	a5,113(s0)
    2b26:	07044903          	lbu	s2,112(s0)
    2b2a:	07a2                	slli	a5,a5,0x8
    2b2c:	0127e7b3          	or	a5,a5,s2
    2b30:	07244903          	lbu	s2,114(s0)
    2b34:	0942                	slli	s2,s2,0x10
    2b36:	00f967b3          	or	a5,s2,a5
    2b3a:	07344903          	lbu	s2,115(s0)
    2b3e:	0962                	slli	s2,s2,0x18
    2b40:	00f96933          	or	s2,s2,a5
    2b44:	02091663          	bnez	s2,2b70 <tcp_receive+0xf40>
    2b48:	1fffd517          	auipc	a0,0x1fffd
    2b4c:	5f050513          	addi	a0,a0,1520 # 20000138 <inseg>
    2b50:	ea9fd0ef          	jal	ra,9f8 <tcp_seg_copy>
    2b54:	00855793          	srli	a5,a0,0x8
    2b58:	06a40823          	sb	a0,112(s0)
    2b5c:	06f408a3          	sb	a5,113(s0)
    2b60:	01055793          	srli	a5,a0,0x10
    2b64:	8161                	srli	a0,a0,0x18
    2b66:	06f40923          	sb	a5,114(s0)
    2b6a:	06a409a3          	sb	a0,115(s0)
    2b6e:	b75d                	j	2b14 <tcp_receive+0xee4>
    2b70:	4098                	lw	a4,0(s1)
    2b72:	4981                	li	s3,0
    2b74:	fff70813          	addi	a6,a4,-1
    2b78:	00170513          	addi	a0,a4,1
    2b7c:	01092603          	lw	a2,16(s2)
    2b80:	00564683          	lbu	a3,5(a2)
    2b84:	00464783          	lbu	a5,4(a2)
    2b88:	06a2                	slli	a3,a3,0x8
    2b8a:	8edd                	or	a3,a3,a5
    2b8c:	00664783          	lbu	a5,6(a2)
    2b90:	07c2                	slli	a5,a5,0x10
    2b92:	8edd                	or	a3,a3,a5
    2b94:	00764783          	lbu	a5,7(a2)
    2b98:	07e2                	slli	a5,a5,0x18
    2b9a:	8fd5                	or	a5,a5,a3
    2b9c:	04e79a63          	bne	a5,a4,2bf0 <tcp_receive+0xfc0>
    2ba0:	00c95783          	lhu	a5,12(s2)
    2ba4:	1fffd717          	auipc	a4,0x1fffd
    2ba8:	5a075703          	lhu	a4,1440(a4) # 20000144 <inseg+0xc>
    2bac:	f6e7f4e3          	bgeu	a5,a4,2b14 <tcp_receive+0xee4>
    2bb0:	1fffd517          	auipc	a0,0x1fffd
    2bb4:	58850513          	addi	a0,a0,1416 # 20000138 <inseg>
    2bb8:	e41fd0ef          	jal	ra,9f8 <tcp_seg_copy>
    2bbc:	dd21                	beqz	a0,2b14 <tcp_receive+0xee4>
    2bbe:	00098a63          	beqz	s3,2bd2 <tcp_receive+0xfa2>
    2bc2:	00a9a023          	sw	a0,0(s3)
    2bc6:	85ca                	mv	a1,s2
    2bc8:	f57fe0ef          	jal	ra,1b1e <tcp_oos_insert_segment>
    2bcc:	b7a1                	j	2b14 <tcp_receive+0xee4>
    2bce:	8936                	mv	s2,a3
    2bd0:	b775                	j	2b7c <tcp_receive+0xf4c>
    2bd2:	00855793          	srli	a5,a0,0x8
    2bd6:	06f408a3          	sb	a5,113(s0)
    2bda:	01055793          	srli	a5,a0,0x10
    2bde:	06f40923          	sb	a5,114(s0)
    2be2:	06a40823          	sb	a0,112(s0)
    2be6:	01855793          	srli	a5,a0,0x18
    2bea:	06f409a3          	sb	a5,115(s0)
    2bee:	bfe1                	j	2bc6 <tcp_receive+0xf96>
    2bf0:	02099b63          	bnez	s3,2c26 <tcp_receive+0xff6>
    2bf4:	40f706b3          	sub	a3,a4,a5
    2bf8:	0a06dd63          	bgez	a3,2cb2 <tcp_receive+0x1082>
    2bfc:	1fffd517          	auipc	a0,0x1fffd
    2c00:	53c50513          	addi	a0,a0,1340 # 20000138 <inseg>
    2c04:	df5fd0ef          	jal	ra,9f8 <tcp_seg_copy>
    2c08:	f00506e3          	beqz	a0,2b14 <tcp_receive+0xee4>
    2c0c:	00855713          	srli	a4,a0,0x8
    2c10:	06e408a3          	sb	a4,113(s0)
    2c14:	01055713          	srli	a4,a0,0x10
    2c18:	06a40823          	sb	a0,112(s0)
    2c1c:	06e40923          	sb	a4,114(s0)
    2c20:	01855793          	srli	a5,a0,0x18
    2c24:	b7d9                	j	2bea <tcp_receive+0xfba>
    2c26:	0109a883          	lw	a7,16(s3)
    2c2a:	0058c583          	lbu	a1,5(a7)
    2c2e:	0048c683          	lbu	a3,4(a7)
    2c32:	05a2                	slli	a1,a1,0x8
    2c34:	8dd5                	or	a1,a1,a3
    2c36:	0068c683          	lbu	a3,6(a7)
    2c3a:	06c2                	slli	a3,a3,0x10
    2c3c:	8dd5                	or	a1,a1,a3
    2c3e:	0078c683          	lbu	a3,7(a7)
    2c42:	06e2                	slli	a3,a3,0x18
    2c44:	8ecd                	or	a3,a3,a1
    2c46:	40d806b3          	sub	a3,a6,a3
    2c4a:	0606c463          	bltz	a3,2cb2 <tcp_receive+0x1082>
    2c4e:	40f506b3          	sub	a3,a0,a5
    2c52:	06d04063          	bgtz	a3,2cb2 <tcp_receive+0x1082>
    2c56:	1fffd517          	auipc	a0,0x1fffd
    2c5a:	4e250513          	addi	a0,a0,1250 # 20000138 <inseg>
    2c5e:	d9bfd0ef          	jal	ra,9f8 <tcp_seg_copy>
    2c62:	842a                	mv	s0,a0
    2c64:	ea0508e3          	beqz	a0,2b14 <tcp_receive+0xee4>
    2c68:	0109a703          	lw	a4,16(s3)
    2c6c:	00574783          	lbu	a5,5(a4)
    2c70:	00474583          	lbu	a1,4(a4)
    2c74:	07a2                	slli	a5,a5,0x8
