
FTP_Client.elf:     file format elf32-littleriscv
FTP_Client.elf
architecture: riscv:rv32, flags 0x00000112:
EXEC_P, HAS_SYMS, D_PAGED
start address 0x00000000

Program Header:
    LOAD off    0x00001000 vaddr 0x00000000 paddr 0x00000000 align 2**12
         filesz 0x00007c0c memsz 0x00007c0c flags r-x
    LOAD off    0x00009000 vaddr 0x20000000 paddr 0x00007c0c align 2**12
         filesz 0x000000b8 memsz 0x00002288 flags rw-
    LOAD off    0x0000a000 vaddr 0x20020000 paddr 0x00008000 align 2**12
         filesz 0x0000e740 memsz 0x0000e740 flags rwx

Sections:
Idx Name          Size      VMA       LMA       File off  Algn
  0 .init         00000004  00000000  00000000  00001000  2**1
                  CONTENTS, ALLOC, LOAD, READONLY, CODE
  1 .vector       000000bc  00000004  00000004  00001004  2**1
                  CONTENTS, ALLOC, LOAD, READONLY, CODE
  2 .text         00007b4c  000000c0  000000c0  000010c0  2**3
                  CONTENTS, ALLOC, LOAD, READONLY, CODE
  3 .ramcodelalign 00000000  00008000  00008000  00018740  2**0
                  CONTENTS
  4 .ramcode      0000e740  20020000  00008000  0000a000  2**4
                  CONTENTS, ALLOC, LOAD, CODE
  5 .fini         00000000  00007c0c  00007c0c  00018740  2**0
                  CONTENTS, ALLOC, LOAD, CODE
  6 .dalign       00000000  20000000  20000000  00018740  2**0
                  CONTENTS
  7 .dlalign      00000000  00007c0c  00007c0c  00018740  2**0
                  CONTENTS
  8 .data         000000b8  20000000  00007c0c  00009000  2**2
                  CONTENTS, ALLOC, LOAD, DATA
  9 .bss          000021d0  200000b8  00007cc4  000090b8  2**2
                  ALLOC
 10 .heap         00000000  20002288  20002288  00018740  2**0
                  CONTENTS
 11 .usrstack     00000000  20004000  20004000  00018740  2**0
                  CONTENTS
 12 .debug_info   0000cce9  00000000  00000000  00018740  2**0
                  CONTENTS, READONLY, DEBUGGING
 13 .debug_abbrev 000022c8  00000000  00000000  00025429  2**0
                  CONTENTS, READONLY, DEBUGGING
 14 .debug_loc    000018c4  00000000  00000000  000276f1  2**0
                  CONTENTS, READONLY, DEBUGGING
 15 .debug_aranges 00000430  00000000  00000000  00028fb5  2**0
                  CONTENTS, READONLY, DEBUGGING
 16 .debug_ranges 00000448  00000000  00000000  000293e5  2**0
                  CONTENTS, READONLY, DEBUGGING
 17 .debug_line   00007de6  00000000  00000000  0002982d  2**0
                  CONTENTS, READONLY, DEBUGGING
 18 .debug_str    0000202e  00000000  00000000  00031613  2**0
                  CONTENTS, READONLY, DEBUGGING
 19 .comment      00000033  00000000  00000000  00033641  2**0
                  CONTENTS, READONLY
 20 .debug_frame  000017e4  00000000  00000000  00033674  2**2
                  CONTENTS, READONLY, DEBUGGING
 21 .stab         00000084  00000000  00000000  00034e58  2**2
                  CONTENTS, READONLY, DEBUGGING
 22 .stabstr      00000117  00000000  00000000  00034edc  2**0
                  CONTENTS, READONLY, DEBUGGING
SYMBOL TABLE:
00000000 l    d  .init	00000000 .init
00000004 l    d  .vector	00000000 .vector
000000c0 l    d  .text	00000000 .text
00008000 l    d  .ramcodelalign	00000000 .ramcodelalign
20020000 l    d  .ramcode	00000000 .ramcode
00007c0c l    d  .fini	00000000 .fini
20000000 l    d  .dalign	00000000 .dalign
00007c0c l    d  .dlalign	00000000 .dlalign
20000000 l    d  .data	00000000 .data
200000b8 l    d  .bss	00000000 .bss
20002288 l    d  .heap	00000000 .heap
20004000 l    d  .usrstack	00000000 .usrstack
00000000 l    d  .debug_info	00000000 .debug_info
00000000 l    d  .debug_abbrev	00000000 .debug_abbrev
00000000 l    d  .debug_loc	00000000 .debug_loc
00000000 l    d  .debug_aranges	00000000 .debug_aranges
00000000 l    d  .debug_ranges	00000000 .debug_ranges
00000000 l    d  .debug_line	00000000 .debug_line
00000000 l    d  .debug_str	00000000 .debug_str
00000000 l    d  .comment	00000000 .comment
00000000 l    d  .debug_frame	00000000 .debug_frame
00000000 l    d  .stab	00000000 .stab
00000000 l    d  .stabstr	00000000 .stabstr
00000000 l    df *ABS*	00000000 ./SRC/Startup/startup_CH56x.o
00000004 l       .vector	00000000 _vector_base
00000000 l    df *ABS*	00000000 tcp.c
00000500 l     F .text	00000004 tcp_accept_null
00000504 l     F .text	000000dc tcp_new_port
20000100 l     O .bss	00000001 tcp_timer
20000088 l     O .data	00000004 iss.3741
2000008c l     O .data	00000002 port.3573
00000000 l    df *ABS*	00000000 tcp_in.c
00001f54 l     F .text	000000d4 tcp_parseopt
00002028 l     F .text	00000112 tcp_oos_insert_segment
0000213a l     F .text	0000112e tcp_receive
20000150 l     O .bss	00000014 inseg
20000104 l     O .bss	00000004 ackno
20000108 l     O .bss	00000001 flags
2000010c l     O .bss	00000004 iphdr
20000110 l     O .bss	00000004 recv_data
20000114 l     O .bss	00000001 recv_flags
20000118 l     O .bss	00000004 seqno
2000011c l     O .bss	00000004 tcphdr
20000120 l     O .bss	00000002 tcplen
00000000 l    df *ABS*	00000000 tcp_out.c
0000476c l     F .text	000001a8 tcp_output_set_header.constprop.0
00000000 l    df *ABS*	00000000 ip.c
200000e8 l     O .bss	00000002 ip_id.3576
00000000 l    df *ABS*	00000000 mem.c
200000f0 l     O .bss	00000004 ram
200000f4 l     O .bss	00000004 ram_end
00000000 l    df *ABS*	00000000 memp.c
20000130 l     O .bss	00000020 memp_tab
00000000 l    df *ABS*	00000000 udp.c
00000000 l    df *ABS*	00000000 pbuf.c
00000000 l    df *ABS*	00000000 ip_addr.c
00000000 l    df *ABS*	00000000 PHY_interrupt.c
00000000 l    df *ABS*	00000000 ethernet_driver.c
00000000 l    df *ABS*	00000000 timer.c
00000000 l    df *ABS*	00000000 Main.c
00000000 l    df *ABS*	00000000 FTPCMD.c
00000000 l    df *ABS*	00000000 FTPFILE.c
00000000 l    df *ABS*	00000000 FTP_CLIENT.c
00000000 l    df *ABS*	00000000 CH56x_clk.c
00000000 l    df *ABS*	00000000 CH56x_gpio.c
00000000 l    df *ABS*	00000000 CH56x_sys.c
200000bc l     O .bss	00000002 p_ms
200000be l     O .bss	00000001 p_us
00000000 l    df *ABS*	00000000 ch569sock.c
00000000 l    df *ABS*	00000000 etharp.c
20023c42 l     F .ramcode	0000025c find_entry
20023e9e l     F .ramcode	000000f4 update_arp_entry
200000c8 l     O .bss	00000001 etharp_cached_entry
00000000 l    df *ABS*	00000000 ethernetif.c
200246ac l     F .ramcode	00000092 low_level_output
00000000 l    df *ABS*	00000000 ipcheck.c
00000000 l    df *ABS*	00000000 inet.c
00000000 l    df *ABS*	00000000 init.c
00000000 l    df *ABS*	00000000 ip_frag.c
200000ea l     O .bss	00000002 ip_reass_pbufcount
200000ec l     O .bss	00000004 reassdatagrams
00000000 l    df *ABS*	00000000 netif.c
200000f8 l     O .bss	00000001 netifnum.2254
00000000 l    df *ABS*	00000000 raw.c
200000fc l     O .bss	00000004 raw_pcbs
00000000 l    df *ABS*	00000000 icmp.c
200258fa l     F .ramcode	000000c6 icmp_send_response
00000000 l    df *ABS*	00000000 inet_chksum.c
20025d22 l     F .ramcode	00000084 lwip_standard_chksum
00000000 l    df *ABS*	00000000 memcpy.c
00000000 l    df *ABS*	00000000 printf.c
00000000 l    df *ABS*	00000000 putchar.c
00000000 l    df *ABS*	00000000 puts.c
00000000 l    df *ABS*	00000000 sprintf.c
00000000 l    df *ABS*	00000000 strcpy.c
00000000 l    df *ABS*	00000000 strlen.c
00000000 l    df *ABS*	00000000 strncmp.c
00000000 l    df *ABS*	00000000 wbuf.c
00000000 l    df *ABS*	00000000 wsetup.c
00000000 l    df *ABS*	00000000 fflush.c
00000000 l    df *ABS*	00000000 findfp.c
200265ae l     F .ramcode	0000006a std
00000000 l    df *ABS*	00000000 fwalk.c
00000000 l    df *ABS*	00000000 makebuf.c
00000000 l    df *ABS*	00000000 nano-mallocr.c
00000000 l    df *ABS*	00000000 nano-mallocr.c
00000000 l    df *ABS*	00000000 nano-vfprintf.c
00000000 l    df *ABS*	00000000 nano-vfprintf.c
20026dea l     F .ramcode	0000002a __sfputc_r
00000000 l    df *ABS*	00000000 nano-vfprintf_i.c
00000000 l    df *ABS*	00000000 putc.c
00000000 l    df *ABS*	00000000 sbrkr.c
00000000 l    df *ABS*	00000000 stdio.c
00000000 l    df *ABS*	00000000 writer.c
00000000 l    df *ABS*	00000000 closer.c
00000000 l    df *ABS*	00000000 fstatr.c
00000000 l    df *ABS*	00000000 isattyr.c
00000000 l    df *ABS*	00000000 lseekr.c
00000000 l    df *ABS*	00000000 memchr.c
00000000 l    df *ABS*	00000000 memmove.c
00000000 l    df *ABS*	00000000 mlock.c
00000000 l    df *ABS*	00000000 nano-mallocr.c
00000000 l    df *ABS*	00000000 readr.c
00000000 l    df *ABS*	00000000 nano-mallocr.c
00000000 l    df *ABS*	00000000 close.c
00000000 l    df *ABS*	00000000 fstat.c
00000000 l    df *ABS*	00000000 isatty.c
00000000 l    df *ABS*	00000000 lseek.c
00000000 l    df *ABS*	00000000 read.c
00000000 l    df *ABS*	00000000 sbrk.c
2000012c l     O .bss	00000004 heap_end.1518
00000000 l    df *ABS*	00000000 mem_malloc.c
00000000 l    df *ABS*	00000000 impure.c
20000000 l     O .data	00000060 impure_data
00000000 l    df *ABS*	00000000 reent.c
20027806 g     F .ramcode	00000014 _malloc_usable_size_r
00007ab4 g     F .text	00000028 GPIO_IRQHandler
2002608a g     F .ramcode	0000002e putchar
20025ed2 g     F .ramcode	00000014 inet_chksum
2002577e g     F .ramcode	00000026 raw_bind
20024cc6 g     F .ramcode	0000057c ip_reass
2000007c g     O .data	00000004 pPassword
000076ea g     F .text	000000f6 pbuf_realloc
200214ce g     F .ramcode	0000007c CH569NET_FTPCheckRespond
200276ae g     F .ramcode	00000030 _isatty_r
200261ec g     F .ramcode	00000012 strcpy
000019e0 g     F .text	0000001a tcp_next_iss
200260b8 g     F .ramcode	000000da _puts_r
00000a9e g     F .text	000000a6 tcp_update_rcv_ann_wnd
200276de g     F .ramcode	00000034 _lseek_r
2000225c g     O .bss	00000004 netif_list
000000dc  w      .text	00000000 EMMC_IRQHandler
20020d20 g     F .ramcode	00000006 Net_TimerIsr
00005706 g     F .text	00000164 tcp_rst
000000d2  w      .text	00000000 LINK_IRQHandler
2002373c g     F .ramcode	00000026 CH569NET_MainTask
200000e4 g     O .bss	00000004 TCPTimer
20024216 g     F .ramcode	0000012e etharp_request
20021630 g     F .ramcode	0000005c CH569NET_FTPLogin
200000c4 g     O .bss	00000004 tcppackt
20002180 g     O .bss	00000001 PingEnable
20026046 g     F .ramcode	00000044 printf
20020008 g     F .ramcode	00000028 .hidden __riscv_save_8
00000c8e g     F .text	0000001c tcp_err
200000a4 g     O .data	00000004 ip_addr_any
20025da6 g     F .ramcode	0000012c inet_chksum_pseudo
200204b2 g     F .ramcode	000000e0 ETH_StructInit
200275da g     F .ramcode	00000036 __sseek
20026668 g     F .ramcode	00000070 __sinit
00004f48 g     F .text	0000001e tcp_send_ctrl
0000723e g     F .text	0000008c udp_remove
2002623c g     F .ramcode	000000c0 __swbuf_r
00007bc4 g     F .text	00000048 HardFault_Handler
00006054 g     F .text	000001f4 ip_output_if
200233e0 g     F .ramcode	00000026 CH569NET_SocketRecvLen
20026622 g     F .ramcode	00000046 __sfmoreglue
20020108 g     F .ramcode	000000bc phy_int_cheak_init
000066f0 g     F .text	00000018 memp_free
20027778 g     F .ramcode	00000002 __malloc_unlock
000073f6 g     F .text	0000008e pbuf_free
20020054 g     F .ramcode	0000000c .hidden __riscv_restore_3
00000c56 g     F .text	0000001c tcp_recv
200207e0 g     F .ramcode	000002e4 ETH_Init
000000c4  w      .text	00000000 SysTick_Handler
0000782c g     F .text	0000006e pbuf_cat
20002184 g     O .bss	00000014 CH569Cfg
200236d6 g     F .ramcode	0000002c CH569NET_GetSocketInt
20023aa0 g     F .ramcode	0000003c CloseUpdConnect
2002772c g     F .ramcode	0000004a memmove
200000b8 g     O .bss	00000004 ListNum
00006248 g     F .text	0000003c ip_output
20020040 g     F .ramcode	00000020 .hidden __riscv_restore_10
00006bf4 g     F .text	00000054 udp_sendto
000000c0  w      .text	00000000 NMI_Handler
20021f94 g     F .ramcode	00000124 CH569NET_HandleSockInt
00005aa0 g     F .text	00000068 tcp_keepalive
20023f92 g     F .ramcode	00000080 etharp_tmr
20020008 g     F .ramcode	00000028 .hidden __riscv_save_11
000019fa g     F .text	00000284 tcp_alloc
000000e4  w      .text	00000000 UART1_IRQHandler
2002473e g     F .ramcode	00000038 low_level_init
200281c8 g     O .ramcode	00000010 MemSize
00006c48 g     F .text	000002da udp_sendto_if
20021da8 g     F .ramcode	00000108 CH569NET_FTPInitVari
00000c3a g     F .text	0000001c tcp_arg
20022f5e g     F .ramcode	0000020e CH569NET_SocketCreat
000000da  w      .text	00000000 USBHS_IRQHandler
20021a9a g     F .ramcode	00000062 CH569NET_FTPClientCmd
2002406c g     F .ramcode	000001aa etharp_arp_input
20002264 g     O .bss	00000004 tcp_active_pcbs
20020e96 g     F .ramcode	0000004c CH569NET_FTPRetr
2002767c g     F .ramcode	00000032 _fstat_r
20002280 g     O .bss	00000004 udp_pcbs
20021080 g     F .ramcode	0000006c CH569NET_FTPCwd
20002284 g     O .bss	00000004 errno
20024628 g     F .ramcode	00000084 ethernet_input
200000b8 g       .bss	00000000 _sbss
00000800 g       *ABS*	00000000 __stack_size
0000780c g     F .text	00000020 pbuf_ref
200003a0 g     O .bss	00000001 gPort
000016b6 g     F .text	00000040 tcp_recv_null
20002250 g     O .bss	00000004 current_netif
0000153a g     F .text	0000017c tcp_close
20000860 g       .data	00000000 _global_pointer$
20002244 g     O .bss	0000000c SelARP
200212c2 g     F .ramcode	000000f2 CH569NET_FTPCheckGetfile
00000b44 g     F .text	0000006c tcp_recved
20020054 g     F .ramcode	0000000c .hidden __riscv_restore_2
00000ce6 g     F .text	00000102 tcp_pcb_purge
000000d8  w      .text	00000000 UART0_IRQHandler
200000a8 g     O .data	00000007 tcp_persist_backoff
20000178 g     O .bss	00000218 send_buff
20002258 g     O .bss	00000004 lfree
20022f14 g     F .ramcode	00000016 CH569NET_ConfigKeepLive
20025f90 g     F .ramcode	000000b6 memcpy
000062d8 g     F .text	000000fa mem_free
20002268 g     O .bss	00000004 tcp_ticks
2002068c g     F .ramcode	00000050 ETH_buf_init
2000226c g     O .bss	00000004 tcp_listen_pcbs
200003a4 g     O .bss	00000018 ListMkd
0000586a g     F .text	000000a0 tcp_rexmit_rto
20026618 g     F .ramcode	0000000a _cleanup_r
20026b6a g     F .ramcode	00000280 _svfprintf_r
20023adc g     F .ramcode	00000038 CloseIPRAWConnect
00007a62 g     F .text	00000052 ip_addr_isbroadcast
20002088 g     O .bss	00000004 DMARxDescToGet
00001c7e g     F .text	00000016 tcp_new
20024a7c g     F .ramcode	00000060 IPCheckTmr
20026192 g     F .ramcode	00000010 puts
20002198 g     O .bss	00000018 DHCPCtrl
2002586a g     F .ramcode	00000010 raw_send
20025ee6 g     F .ramcode	000000aa inet_chksum_pbuf
000000c6  w      .text	00000000 SWI_Handler
2002782a g     F .ramcode	00000010 _fstat
200259c0 g     F .ramcode	0000033e icmp_input
00000004 g       .init	00000000 _einit
20022dba g     F .ramcode	0000015a CH569NET_Init
20021894 g     F .ramcode	0000001c CH569NET_FTPFileWrite
20025676 g     F .ramcode	00000068 netif_add
20020000 g     F .ramcode	00000030 .hidden __riscv_save_12
00000be2 g     F .text	00000024 tcp_segs_free
20021cd2 g     F .ramcode	00000074 CH569NET_FTPSendData
00007b70 g     F .text	0000002a PMT_IRQHandler
200254d6 g     F .ramcode	00000142 netif_set_ipaddr
20020040 g     F .ramcode	00000020 .hidden __riscv_restore_11
000000e2  w      .text	00000000 SPI1_IRQHandler
2002752c g     F .ramcode	00000030 _sbrk_r
00004f66 g     F .text	00000050 tcp_write
20020030 g     F .ramcode	0000000c .hidden __riscv_save_1
00007b9a g     F .text	0000002a TMR0_IRQHandler
20020054 g     F .ramcode	0000000c .hidden __riscv_restore_0
200277d2 g     F .ramcode	00000034 _read_r
20021018 g     F .ramcode	00000068 CH569NET_FTPPort
20020016 g     F .ramcode	0000001a .hidden __riscv_save_7
20021f02 g     F .ramcode	00000026 net_initkeeplive
2002154a g     F .ramcode	00000088 CH569NET_FTPFindList
000005e0 g     F .text	000002a4 tcp_bind
2002237c g     F .ramcode	00000330 GPIOB_ITModeCfg
20025d10 g     F .ramcode	00000012 icmp_time_exceeded
20025242 g     F .ramcode	00000294 ip_frag
200226d6 g     F .ramcode	0000002c mDelaymS
000000f0  w      .text	00000000 ECDC_IRQHandler
2002030a g     F .ramcode	0000002a ETH_GPIO_Init
200257d0 g     F .ramcode	0000009a raw_sendto
2002783a g     F .ramcode	00000010 _isatty
20020bd6 g     F .ramcode	0000002a ETH_init
200000b0 g     O .data	00000004 _global_impure_ptr
2002004a g     F .ramcode	00000016 .hidden __riscv_restore_5
200003bc g     O .bss	00000001 SocketId
2002777a g     F .ramcode	00000058 _realloc_r
20020000 g       .ramcode	00000000 _ramcode_vma
200003c0 g     O .bss	00000018 ListName
2002786a g     F .ramcode	00000030 _sbrk
000078b2 g     F .text	000001b0 pbuf_copy
0000590a g     F .text	000000da tcp_rexmit
2002279c g     F .ramcode	00000004 LwipTCPPollCallBack
2000208c g     O .bss	00000004 DMATxDescToSet
20020ac4 g     F .ramcode	000000b2 ETH_MACDMA_Config
2002004a g     F .ramcode	00000016 .hidden __riscv_restore_6
20002270 g     O .bss	00000004 tcp_tmp_pcb
20002288 g       .bss	00000000 _ebss
200003d8 g     O .bss	000005b4 MyBuf
2002a8c0 g     O .ramcode	0000120c Mem_Heap_Memory
200000d4 g     O .bss	00000004 DHCPcoarseTimer
200021b0 g     O .bss	00000001 SocketNum
20020334 g     F .ramcode	00000032 RGMII_TXC_Delay
200226ac g     F .ramcode	0000002a Delay_Init
00006284 g     F .text	00000054 mem_init
000000de  w      .text	00000000 DVP_IRQHandler
200206dc g     F .ramcode	00000040 Check_TxDes
00005030 g     F .text	000006d6 tcp_output
000000d0  w      .text	00000000 USBSS_IRQHandler
200274a6 g     F .ramcode	00000086 _putc_r
20020392 g     F .ramcode	00000030 ETH_uClock_enable
2000227c g     O .bss	00000004 tcp_input_pcb
20000080 g     O .data	00000004 pUserName
200256f0 g     F .ramcode	0000008e raw_input
200231b0 g     F .ramcode	00000048 CH569NET_ModifyRecvBuf
00004fb6 g     F .text	0000007a tcp_send_empty_ack
20020008 g     F .ramcode	00000028 .hidden __riscv_save_9
000059e4 g     F .text	000000bc tcp_rexmit_fast
20002210 g     O .bss	00000034 CH569NetIf
2002bacc g     O .ramcode	00002c73 Memp_Memory
20024b58 g     F .ramcode	0000000c ntohl
20000164 g     O .bss	0000000c globe_eth_status
2002071c g     F .ramcode	0000000e ETH_SoftwareReset
20028318 g     O .ramcode	00000020 __sf_fake_stderr
20020016 g     F .ramcode	0000001a .hidden __riscv_save_4
200256de g     F .ramcode	0000000a netif_set_default
2002078c g     F .ramcode	00000054 ETH_WritePHYRegister
00007210 g     F .text	0000002e udp_recv
20021afc g     F .ramcode	000000d2 CH569NET_FTPCtlClient
20002288 g       .bss	00000000 end
20000170 g     O .bss	00000008 Globe_RxDes_status
000000e6  w      .text	00000000 UART2_IRQHandler
20022128 g     F .ramcode	00000028 register_if_fn
00008000 g       .ramcodelalign	00000000 _ramcode_lma
20021bce g     F .ramcode	00000104 CH569NET_FTPDatServer
20024adc g     F .ramcode	0000003c IPConflictHandle
00007484 g     F .text	00000266 pbuf_alloc
20024a54 g     F .ramcode	00000028 SelIPARPSend
20026a7c g     F .ramcode	000000ee __ssputs_r
2002367c g     F .ramcode	00000048 CH569NET_QueryGlobalInt
200210ec g     F .ramcode	00000044 CH569NET_FTPQuit
20022d50 g     F .ramcode	00000022 MemShortCopy
20021f28 g     F .ramcode	0000006c CH569NET_LibInit
20026e14 g     F .ramcode	00000044 __sfputs_r
20022a32 g     F .ramcode	000001d8 CH569SocketTCPReceive
20027712 g     F .ramcode	0000001a memchr
20024b7c g     F .ramcode	0000014a ip_reass_tmr
20000084 g     O .data	00000004 memp_sizes
200268e2 g     F .ramcode	000000b0 _free_r
20020030 g     F .ramcode	0000000c .hidden __riscv_save_3
000070ba g     F .text	00000156 udp_connect
20002254 g     O .bss	00000004 current_header
200281d8 g     O .ramcode	00000010 ErrTable
20025618 g     F .ramcode	0000005e netif_set_addr
20021eb0 g     F .ramcode	00000052 DebugInit
00000000 g       .init	00000000 _start
20020e06 g     F .ramcode	00000044 CH569NET_FTPType
20020c00 g     F .ramcode	000000ec ETH_MACDMA_reConfig
2002784a g     F .ramcode	00000010 _lseek
20020ee2 g     F .ramcode	00000044 CH569NET_FTPCdup
000066d0 g     F .text	00000020 memp_malloc
20023614 g     F .ramcode	00000068 CH569ScokedIntHandle
00005b08 g     F .text	00000128 tcp_zero_window_probe
2002198e g     F .ramcode	00000058 CH569NET_FTPSendFile
20020b76 g     F .ramcode	00000060 Mac_init
200000d0 g     O .bss	00000004 DHCPTestTimer
200217d8 g     F .ramcode	000000b8 CH569NET_FTPPutFile
20026210 g     F .ramcode	0000002c strncmp
200021b4 g     O .bss	0000000c KeepLiveCfg
20020374 g     F .ramcode	0000001e ETH_Mem_Malloc
200213b4 g     F .ramcode	0000011a CH569NET_FTPCheckPutfile
20002274 g     O .bss	00000004 tcp_bound_pcbs
20024b34 g     F .ramcode	00000024 htonl
00000bb0 g     F .text	00000032 tcp_seg_free
000000d6  w      .text	00000000 TMR2_IRQHandler
20022f4a g     F .ramcode	00000004 CH569NET_GetVer
2002390a g     F .ramcode	000000ac LwipRemoveTcpPcb
20024928 g     F .ramcode	00000106 LwIPPeriodicHandle
200000c0 g     O .bss	00000004 CH569NETConfig
200203c2 g     F .ramcode	0000009a mac_send
2002072a g     F .ramcode	0000000a ETH_GetSoftwareResetStatus
00001ccc g     F .text	00000288 tcp_connect
2002764c g     F .ramcode	00000030 _close_r
0000650c g     F .text	0000016a mem_malloc
20000000 g       .dalign	00000000 _data_vma
200021c0 g     O .bss	00000044 CH569Inf
200205d0 g     F .ramcode	00000054 ETH_DMARxDescChainInit
2002272a g     F .ramcode	00000002 CH569TCPError
200262fc g     F .ramcode	00000110 __swsetup_r
20020734 g     F .ramcode	00000058 ETH_ReadPHYRegister
200266d8 g     F .ramcode	000000a4 __sfp
00004914 g     F .text	00000634 tcp_enqueue
00001c94 g     F .text	00000038 tcp_eff_send_mss
20020008 g     F .ramcode	00000028 .hidden __riscv_save_10
200238a6 g     F .ramcode	00000064 CH569FileCorrectTCBPcb
2002755c g     F .ramcode	00000030 __sread
20027776 g     F .ramcode	00000002 __malloc_lock
2002004a g     F .ramcode	00000016 .hidden __riscv_restore_4
20020040 g     F .ramcode	00000020 .hidden __riscv_restore_8
20026548 g     F .ramcode	00000066 _fflush_r
20020016 g     F .ramcode	0000001a .hidden __riscv_save_6
200257a4 g     F .ramcode	00000026 raw_connect
20028338 g     O .ramcode	00000020 __sf_fake_stdin
20000068 g     O .data	00000004 DESIP
20020060 g     F .ramcode	000000a8 memset
20020040 g     F .ramcode	00000020 .hidden __riscv_restore_9
2002004a g     F .ramcode	00000016 .hidden __riscv_restore_7
20022150 g     F .ramcode	00000132 main
200000e0 g     O .bss	00000004 LocalTime
20020f26 g     F .ramcode	000000a6 CH569NET_FTPMkd
20025cfe g     F .ramcode	00000012 icmp_dest_unreach
200227a0 g     F .ramcode	0000014c SocketIPRAWReceive
2000098c g     O .bss	00000011 CharIP
20020366 g     F .ramcode	0000000e Get_TxBuff_Addr
20000390 g     O .bss	00000010 ftp
00000c72 g     F .text	0000001c tcp_sent
200256e8 g     F .ramcode	00000008 netif_is_up
20027610 g     F .ramcode	00000006 __sclose
20022d72 g     F .ramcode	00000048 CH569SocketInit
20024b26 g     F .ramcode	0000000e ntohs
200239b6 g     F .ramcode	00000076 CH569NET_SocketConnect
20026992 g     F .ramcode	000000ea _malloc_r
200000dc g     O .bss	00000004 IPFragTimer
200258b8 g     F .ramcode	00000042 raw_new
200247a6 g     F .ramcode	000000e0 ethernetif_input
20023a2c g     F .ramcode	00000074 CH569NET_SocketListen
2002045c g     F .ramcode	00000056 mac_rece
200201c4 g     F .ramcode	00000146 cheak_phy_int
20000060 g     O .data	00000004 pTest
2002587a g     F .ramcode	0000003e raw_remove
20021d46 g     F .ramcode	00000062 CH569NET_FTPGetSockeID
2002351a g     F .ramcode	000000fa SocketUdpSend
00006f22 g     F .text	00000198 udp_bind
000017e8 g     F .text	00000030 tcp_tmr
20024344 g     F .ramcode	0000015c etharp_query
20024b64 g     F .ramcode	00000018 lwip_init
200244a0 g     F .ramcode	00000188 etharp_output
20022282 g     F .ramcode	000000fa SystemInit
20020fcc g     F .ramcode	0000004c CH569NET_FTPAppe
20020d26 g     F .ramcode	0000004e CH569NET_FTPLoginUser
20026046 g     F .ramcode	00000044 iprintf
20023762 g     F .ramcode	000000ee SocketTcpSend
20022c5a g     F .ramcode	000000d8 CH569TCPServerAccept
20023c2e g     F .ramcode	00000014 frame_input
200261a2 g     F .ramcode	0000004a sprintf
000077e0 g     F .text	0000002c pbuf_clen
00000000 g       .init	00000000 _sinit
20027616 g     F .ramcode	00000036 _write_r
20022d32 g     F .ramcode	0000001e ErrorEncode
00006bba g     F .text	0000003a udp_send
200257ca g     F .ramcode	00000006 raw_recv
200281b8 g     O .ramcode	00000010 MemNum
00007adc g     F .text	00000094 ETH_IRQHandler
200270f6 g     F .ramcode	0000010c _printf_common
20000090 g     O .data	00000004 _impure_ptr
20022f2a g     F .ramcode	00000020 CH569NET_ConfigLIB
00000de8 g     F .text	000005de tcp_slowtmr
200236c4 g     F .ramcode	00000012 CH569NET_GetGlobalInt
2002640c g     F .ramcode	0000013c __sflush_r
20023b14 g     F .ramcode	00000082 CloseTcpPCB
20021130 g     F .ramcode	00000094 CH569NET_FTPCheckLogin
20026b6a g     F .ramcode	00000280 _svfiprintf_r
20021906 g     F .ramcode	00000088 CH569NET_FTPProcessReceDat
20000064 g     O .data	00000004 CH569IPAddr
00000caa g     F .text	0000001c tcp_accept
20024776 g     F .ramcode	00000030 ethernetif_init
200211c4 g     F .ramcode	000000fe CH569NET_FTPCheckSearch
20004000 g       .usrstack	00000000 _eusrstack
20020030 g     F .ramcode	0000000c .hidden __riscv_save_2
20023850 g     F .ramcode	00000056 CH569NET_SocketSend
2002316c g     F .ramcode	00000044 tcp_recved_socket
20024a2e g     F .ramcode	00000026 IPCheckParaInit
2002e740 g       .ramcode	00000000 _eramcode
200267e8 g     F .ramcode	0000005a __swhatbuf_r
20002278 g     O .bss	00000004 tcp_tw_pcbs
00006708 g     F .text	000004b2 udp_input
20020016 g     F .ramcode	0000001a .hidden __riscv_save_5
200000d8 g     O .bss	00000004 DHCPfineTimer
20022702 g     F .ramcode	00000028 _write
200000b8 g       .data	00000000 _edata
000000ce  w      .text	00000000 SPI0_IRQHandler
20024b18 g     F .ramcode	0000000e htons
00005c30 g     F .text	0000006e ip_route
00000884 g     F .text	0000021a tcp_listen_with_backlog
00007c0c g       .dlalign	00000000 _data_lma
0000730e g     F .text	000000e8 pbuf_header
000063d2 g     F .text	0000013a mem_realloc
20002260 g     O .bss	00000004 netif_default
00001420 g     F .text	0000011a tcp_pcb_remove
20000070 g     O .data	00000004 SubMaskIp
2002758c g     F .ramcode	0000004e __swrite
20023702 g     F .ramcode	0000003a CH569IPSetSocketRecvInit
0000789a g     F .text	00000018 pbuf_chain
2002a7c0 g     O .ramcode	00000100 Mem_ArpTable
200283c0 g     O .ramcode	00002400 MAC_QUEUE
200000cc g     O .bss	00000004 ARPTimer
20023b96 g     F .ramcode	00000064 CH569NET_SocketClose
00001818 g     F .text	000001c8 tcp_abandon
200228ec g     F .ramcode	00000146 SocketUdpReceive
20026e58 g     F .ramcode	0000029e _vfiprintf_r
20000074 g     O .data	00000006 local_mac
20020592 g     F .ramcode	0000003e ETH_MACAddressConfig
20022c0a g     F .ramcode	00000050 LwipTcpConnectedCallBack
2002677c g     F .ramcode	0000006c _fwalk_reent
20002090 g     O .bss	000000f0 SocketInf
00006676 g     F .text	0000005a memp_init
000016f6 g     F .text	000000f2 tcp_fasttmr
20023406 g     F .ramcode	00000114 SocketIPRawSend
20021744 g     F .ramcode	00000094 CH569NET_FTPGetFile
200009a0 g     O .bss	00000018 FileName
20021890 g     F .ramcode	00000004 CH569NET_FTPFileOpen
20020cec g     F .ramcode	00000034 TMR0_init
20028358 g     O .ramcode	00000020 __sf_fake_stdout
200261a2 g     F .ramcode	0000004a siprintf
20024012 g     F .ramcode	0000005a etharp_ip_input
20022f4e g     F .ramcode	00000010 CH569NET_TimeIsr
2002003c g     F .ramcode	00000024 .hidden __riscv_restore_12
000000c8  w      .text	00000000 WDOG_IRQHandler
200220b8 g     F .ramcode	00000070 CH569NET_HandleGlobalInt
000000e0  w      .text	00000000 HSPI_IRQHandler
20002204 g     O .bss	0000000c ethernet_if
2002785a g     F .ramcode	00000010 _read
20020e4a g     F .ramcode	0000004c CH569NET_FTPSize
000000f2  w      .text	00000000 handle_reset
200009b8 g     O .bss	000016d0 SocketRecvBuf
20020030 g     F .ramcode	0000000c .hidden __riscv_save_0
200215d2 g     F .ramcode	0000005e CH569NET_FTPFindFile
20023bfa g     F .ramcode	0000000a QueryPingEnable
00000c06 g     F .text	00000034 tcp_seg_copy
20026842 g     F .ramcode	000000a0 __smakebuf_r
20024886 g     F .ramcode	000000a2 SetupNetif
00000cc6 g     F .text	00000020 tcp_poll
200261fe g     F .ramcode	00000012 strlen
20027202 g     F .ramcode	000002a4 _printf_i
000072ca g     F .text	00000044 udp_new
000000e8  w      .text	00000000 UART3_IRQHandler
20000128 g     O .bss	00000004 __malloc_sbrk_start
2000006c g     O .data	00000004 GatewayIp
20000094 g     O .data	00000006 ethbroadcast
2002826c g     O .ramcode	00000014 tcp_backoff
2002168c g     F .ramcode	000000b8 CH569NET_FTPSearch
200218b0 g     F .ramcode	00000056 CH569NET_FTPFileRead
20000124 g     O .bss	00000004 __malloc_free_list
20020054 g     F .ramcode	0000000c .hidden __riscv_restore_1
20026e58 g     F .ramcode	0000029e _vfprintf_r
000000d4  w      .text	00000000 TMR1_IRQHandler
2002272c g     F .ramcode	00000070 LwipTCPSendCallBack
20023c22 g     F .ramcode	0000000c LwipArpCheck
000000ea  w      .text	00000000 SERDES_IRQHandler
00003268 g     F .text	00001504 tcp_input
200231f8 g     F .ramcode	000001e8 CH569NET_SocketRecv
20020d74 g     F .ramcode	0000004e CH569NET_FTPLoginPass
000013c6 g     F .text	0000005a RemoveTimeWaiTCP
20020dc2 g     F .ramcode	00000044 CH569NET_FTPList
00005c9e g     F .text	000003b6 ip_input
2000009c g     O .data	00000006 ethzero
200219e6 g     F .ramcode	000000b4 CH569NET_FTPInterCmd
2002781a g     F .ramcode	00000010 _close
20023c04 g     F .ramcode	0000001e LwipUnreachPort
20020624 g     F .ramcode	00000068 ETH_DMATxDescChainInit



Disassembly of section .init:

00000000 <_sinit>:
   0:	0f20006f          	j	f2 <handle_reset>

Disassembly of section .vector:

00000004 <_vector_base>:
	...
   c:	0b40006f          	j	c0 <NMI_Handler>
  10:	3b50706f          	j	7bc4 <HardFault_Handler>
	...
  34:	0900006f          	j	c4 <SysTick_Handler>
  38:	0000                	unimp
  3a:	0000                	unimp
  3c:	08a0006f          	j	c6 <SWI_Handler>
  40:	0000                	unimp
  42:	0000                	unimp
  44:	0840006f          	j	c8 <WDOG_IRQHandler>
  48:	3530706f          	j	7b9a <TMR0_IRQHandler>
  4c:	2690706f          	j	7ab4 <GPIO_IRQHandler>
  50:	07e0006f          	j	ce <SPI0_IRQHandler>
  54:	07c0006f          	j	d0 <USBSS_IRQHandler>
  58:	07a0006f          	j	d2 <LINK_IRQHandler>
  5c:	0780006f          	j	d4 <TMR1_IRQHandler>
  60:	0760006f          	j	d6 <TMR2_IRQHandler>
  64:	0740006f          	j	d8 <UART0_IRQHandler>
  68:	0720006f          	j	da <USBHS_IRQHandler>
  6c:	0700006f          	j	dc <EMMC_IRQHandler>
  70:	06e0006f          	j	de <DVP_IRQHandler>
  74:	06c0006f          	j	e0 <HSPI_IRQHandler>
  78:	06a0006f          	j	e2 <SPI1_IRQHandler>
  7c:	0680006f          	j	e4 <UART1_IRQHandler>
  80:	0660006f          	j	e6 <UART2_IRQHandler>
  84:	0640006f          	j	e8 <UART3_IRQHandler>
  88:	0620006f          	j	ea <SERDES_IRQHandler>
  8c:	2510706f          	j	7adc <ETH_IRQHandler>
  90:	2e10706f          	j	7b70 <PMT_IRQHandler>
  94:	05c0006f          	j	f0 <ECDC_IRQHandler>
	...

Disassembly of section .text:

000000c0 <NMI_Handler>:
      c0:	a001                	j	c0 <NMI_Handler>
      c2:	a001                	j	c2 <NMI_Handler+0x2>

000000c4 <SysTick_Handler>:
      c4:	a001                	j	c4 <SysTick_Handler>

000000c6 <SWI_Handler>:
      c6:	a001                	j	c6 <SWI_Handler>

000000c8 <WDOG_IRQHandler>:
      c8:	a001                	j	c8 <WDOG_IRQHandler>
      ca:	a001                	j	ca <WDOG_IRQHandler+0x2>
      cc:	a001                	j	cc <WDOG_IRQHandler+0x4>

000000ce <SPI0_IRQHandler>:
      ce:	a001                	j	ce <SPI0_IRQHandler>

000000d0 <USBSS_IRQHandler>:
      d0:	a001                	j	d0 <USBSS_IRQHandler>

000000d2 <LINK_IRQHandler>:
      d2:	a001                	j	d2 <LINK_IRQHandler>

000000d4 <TMR1_IRQHandler>:
      d4:	a001                	j	d4 <TMR1_IRQHandler>

000000d6 <TMR2_IRQHandler>:
      d6:	a001                	j	d6 <TMR2_IRQHandler>

000000d8 <UART0_IRQHandler>:
      d8:	a001                	j	d8 <UART0_IRQHandler>

000000da <USBHS_IRQHandler>:
      da:	a001                	j	da <USBHS_IRQHandler>

000000dc <EMMC_IRQHandler>:
      dc:	a001                	j	dc <EMMC_IRQHandler>

000000de <DVP_IRQHandler>:
      de:	a001                	j	de <DVP_IRQHandler>

000000e0 <HSPI_IRQHandler>:
      e0:	a001                	j	e0 <HSPI_IRQHandler>

000000e2 <SPI1_IRQHandler>:
      e2:	a001                	j	e2 <SPI1_IRQHandler>

000000e4 <UART1_IRQHandler>:
      e4:	a001                	j	e4 <UART1_IRQHandler>

000000e6 <UART2_IRQHandler>:
      e6:	a001                	j	e6 <UART2_IRQHandler>

000000e8 <UART3_IRQHandler>:
      e8:	a001                	j	e8 <UART3_IRQHandler>

000000ea <SERDES_IRQHandler>:
      ea:	a001                	j	ea <SERDES_IRQHandler>
      ec:	a001                	j	ec <SERDES_IRQHandler+0x2>
      ee:	a001                	j	ee <SERDES_IRQHandler+0x4>

000000f0 <ECDC_IRQHandler>:
      f0:	a001                	j	f0 <ECDC_IRQHandler>

000000f2 <handle_reset>:
      f2:	20000197          	auipc	gp,0x20000
      f6:	76e18193          	addi	gp,gp,1902 # 20000860 <_global_pointer$>
      fa:	20004117          	auipc	sp,0x20004
      fe:	f0610113          	addi	sp,sp,-250 # 20004000 <_eusrstack>
     102:	00008517          	auipc	a0,0x8
     106:	efe50513          	addi	a0,a0,-258 # 8000 <_ramcode_lma>
     10a:	20020597          	auipc	a1,0x20020
     10e:	ef658593          	addi	a1,a1,-266 # 20020000 <__riscv_save_12>
     112:	2002e617          	auipc	a2,0x2002e
     116:	62e60613          	addi	a2,a2,1582 # 2002e740 <_eramcode>
     11a:	00c5fa63          	bgeu	a1,a2,12e <handle_reset+0x3c>
     11e:	00052283          	lw	t0,0(a0)
     122:	0055a023          	sw	t0,0(a1)
     126:	0511                	addi	a0,a0,4
     128:	0591                	addi	a1,a1,4
     12a:	fec5eae3          	bltu	a1,a2,11e <handle_reset+0x2c>
     12e:	00008517          	auipc	a0,0x8
     132:	ade50513          	addi	a0,a0,-1314 # 7c0c <_data_lma>
     136:	20000597          	auipc	a1,0x20000
     13a:	eca58593          	addi	a1,a1,-310 # 20000000 <_data_vma>
     13e:	20000617          	auipc	a2,0x20000
     142:	f7a60613          	addi	a2,a2,-134 # 200000b8 <_edata>
     146:	00c5fa63          	bgeu	a1,a2,15a <handle_reset+0x68>
     14a:	00052283          	lw	t0,0(a0)
     14e:	0055a023          	sw	t0,0(a1)
     152:	0511                	addi	a0,a0,4
     154:	0591                	addi	a1,a1,4
     156:	fec5eae3          	bltu	a1,a2,14a <handle_reset+0x58>
     15a:	20000517          	auipc	a0,0x20000
     15e:	f5e50513          	addi	a0,a0,-162 # 200000b8 <_edata>
     162:	20002597          	auipc	a1,0x20002
     166:	12658593          	addi	a1,a1,294 # 20002288 <_ebss>
     16a:	00b57763          	bgeu	a0,a1,178 <handle_reset+0x86>
     16e:	00052023          	sw	zero,0(a0)
     172:	0511                	addi	a0,a0,4
     174:	feb56de3          	bltu	a0,a1,16e <handle_reset+0x7c>
     178:	08800293          	li	t0,136
     17c:	3002a073          	csrs	mstatus,t0
     180:	00000297          	auipc	t0,0x0
     184:	e8428293          	addi	t0,t0,-380 # 4 <_einit>
     188:	0012e293          	ori	t0,t0,1
     18c:	30529073          	csrw	mtvec,t0
     190:	20022297          	auipc	t0,0x20022
     194:	fc028293          	addi	t0,t0,-64 # 20022150 <main>
     198:	34129073          	csrw	mepc,t0
     19c:	30200073          	mret
     1a0:	00000263          	beqz	zero,1a4 <handle_reset+0xb2>
     1a4:	00350003          	lb	zero,3(a0)
     1a8:	0000                	unimp
     1aa:	0101                	addi	sp,sp,0
     1ac:	000d0efb          	0xd0efb
     1b0:	0101                	addi	sp,sp,0
     1b2:	0101                	addi	sp,sp,0
     1b4:	0000                	unimp
     1b6:	0100                	addi	s0,sp,128
     1b8:	0000                	unimp
     1ba:	2e01                	jal	4ca <handle_reset+0x3d8>
     1bc:	2f2e                	fld	ft10,200(sp)
     1be:	2f435253          	0x2f435253
     1c2:	72617453          	0x72617453
     1c6:	7574                	flw	fa3,108(a0)
     1c8:	0070                	addi	a2,sp,12
     1ca:	7300                	flw	fs0,32(a4)
     1cc:	6174                	flw	fa3,68(a0)
     1ce:	7472                	flw	fs0,60(sp)
     1d0:	7075                	c.lui	zero,0xffffd
     1d2:	435f 3548 7836      	0x78363548435f
     1d8:	532e                	lw	t1,232(sp)
     1da:	0100                	addi	s0,sp,128
     1dc:	0000                	unimp
     1de:	0000                	unimp
     1e0:	0205                	addi	tp,tp,1
     1e2:	0000                	unimp
     1e4:	0000                	unimp
     1e6:	09010c03          	lb	s8,144(sp)
     1ea:	0004                	0x4
     1ec:	0100                	addi	s0,sp,128
     1ee:	0001                	nop
     1f0:	0205                	addi	tp,tp,1
     1f2:	000c                	0xc
     1f4:	0000                	unimp
     1f6:	03011403          	lh	s0,48(sp)
     1fa:	0901                	addi	s2,s2,0
     1fc:	0004                	0x4
     1fe:	0301                	addi	t1,t1,0
     200:	0909                	addi	s2,s2,2
     202:	0024                	addi	s1,sp,8
     204:	0301                	addi	t1,t1,0
     206:	0902                	c.slli64	s2
     208:	0008                	0x8
     20a:	0301                	addi	t1,t1,0
     20c:	00080903          	lb	s2,0(a6)
     210:	0301                	addi	t1,t1,0
     212:	0901                	addi	s2,s2,0
     214:	0004                	0x4
     216:	0301                	addi	t1,t1,0
     218:	0901                	addi	s2,s2,0
     21a:	0004                	0x4
     21c:	0301                	addi	t1,t1,0
     21e:	0901                	addi	s2,s2,0
     220:	0004                	0x4
     222:	0301                	addi	t1,t1,0
     224:	0901                	addi	s2,s2,0
     226:	0004                	0x4
     228:	0301                	addi	t1,t1,0
     22a:	0901                	addi	s2,s2,0
     22c:	0004                	0x4
     22e:	0301                	addi	t1,t1,0
     230:	0901                	addi	s2,s2,0
     232:	0004                	0x4
     234:	0301                	addi	t1,t1,0
     236:	0901                	addi	s2,s2,0
     238:	0004                	0x4
     23a:	0301                	addi	t1,t1,0
     23c:	0901                	addi	s2,s2,0
     23e:	0004                	0x4
     240:	0301                	addi	t1,t1,0
     242:	0901                	addi	s2,s2,0
     244:	0004                	0x4
     246:	0301                	addi	t1,t1,0
     248:	0901                	addi	s2,s2,0
     24a:	0004                	0x4
     24c:	0301                	addi	t1,t1,0
     24e:	0901                	addi	s2,s2,0
     250:	0004                	0x4
     252:	0301                	addi	t1,t1,0
     254:	0901                	addi	s2,s2,0
     256:	0004                	0x4
     258:	0301                	addi	t1,t1,0
     25a:	0901                	addi	s2,s2,0
     25c:	0004                	0x4
     25e:	0301                	addi	t1,t1,0
     260:	0901                	addi	s2,s2,0
     262:	0004                	0x4
     264:	0301                	addi	t1,t1,0
     266:	0901                	addi	s2,s2,0
     268:	0004                	0x4
     26a:	0301                	addi	t1,t1,0
     26c:	0901                	addi	s2,s2,0
     26e:	0004                	0x4
     270:	0301                	addi	t1,t1,0
     272:	0901                	addi	s2,s2,0
     274:	0004                	0x4
     276:	0301                	addi	t1,t1,0
     278:	0901                	addi	s2,s2,0
     27a:	0004                	0x4
     27c:	0301                	addi	t1,t1,0
     27e:	0901                	addi	s2,s2,0
     280:	0004                	0x4
     282:	0301                	addi	t1,t1,0
     284:	0901                	addi	s2,s2,0
     286:	0004                	0x4
     288:	0901                	addi	s2,s2,0
     28a:	0004                	0x4
     28c:	0100                	addi	s0,sp,128
     28e:	0001                	nop
     290:	0205                	addi	tp,tp,1
     292:	00c0                	addi	s0,sp,68
     294:	0000                	unimp
     296:	0100d603          	lhu	a2,16(ra)
     29a:	02090103          	lb	sp,32(s2)
     29e:	0100                	addi	s0,sp,128
     2a0:	02090103          	lb	sp,32(s2)
     2a4:	0100                	addi	s0,sp,128
     2a6:	02090103          	lb	sp,32(s2)
     2aa:	0100                	addi	s0,sp,128
     2ac:	02090103          	lb	sp,32(s2)
     2b0:	0100                	addi	s0,sp,128
     2b2:	02090103          	lb	sp,32(s2)
     2b6:	0100                	addi	s0,sp,128
     2b8:	02090103          	lb	sp,32(s2)
     2bc:	0100                	addi	s0,sp,128
     2be:	02090103          	lb	sp,32(s2)
     2c2:	0100                	addi	s0,sp,128
     2c4:	02090103          	lb	sp,32(s2)
     2c8:	0100                	addi	s0,sp,128
     2ca:	02090103          	lb	sp,32(s2)
     2ce:	0100                	addi	s0,sp,128
     2d0:	02090103          	lb	sp,32(s2)
     2d4:	0100                	addi	s0,sp,128
     2d6:	02090103          	lb	sp,32(s2)
     2da:	0100                	addi	s0,sp,128
     2dc:	02090103          	lb	sp,32(s2)
     2e0:	0100                	addi	s0,sp,128
     2e2:	02090103          	lb	sp,32(s2)
     2e6:	0100                	addi	s0,sp,128
     2e8:	02090103          	lb	sp,32(s2)
     2ec:	0100                	addi	s0,sp,128
     2ee:	02090103          	lb	sp,32(s2)
     2f2:	0100                	addi	s0,sp,128
     2f4:	02090103          	lb	sp,32(s2)
     2f8:	0100                	addi	s0,sp,128
     2fa:	02090103          	lb	sp,32(s2)
     2fe:	0100                	addi	s0,sp,128
     300:	02090103          	lb	sp,32(s2)
     304:	0100                	addi	s0,sp,128
     306:	02090103          	lb	sp,32(s2)
     30a:	0100                	addi	s0,sp,128
     30c:	02090103          	lb	sp,32(s2)
     310:	0100                	addi	s0,sp,128
     312:	02090103          	lb	sp,32(s2)
     316:	0100                	addi	s0,sp,128
     318:	02090103          	lb	sp,32(s2)
     31c:	0100                	addi	s0,sp,128
     31e:	02090103          	lb	sp,32(s2)
     322:	0100                	addi	s0,sp,128
     324:	02090103          	lb	sp,32(s2)
     328:	0100                	addi	s0,sp,128
     32a:	0209                	addi	tp,tp,2
     32c:	0000                	unimp
     32e:	0101                	addi	sp,sp,0
     330:	0500                	addi	s0,sp,640
     332:	f202                	fsw	ft0,36(sp)
     334:	0000                	unimp
     336:	0300                	addi	s0,sp,384
     338:	00f6                	slli	ra,ra,0x1d
     33a:	0301                	addi	t1,t1,0
     33c:	00080903          	lb	s2,0(a6)
     340:	0301                	addi	t1,t1,0
     342:	00080903          	lb	s2,0(a6)
     346:	0301                	addi	t1,t1,0
     348:	0901                	addi	s2,s2,0
     34a:	0008                	0x8
     34c:	0301                	addi	t1,t1,0
     34e:	0901                	addi	s2,s2,0
     350:	0008                	0x8
     352:	0301                	addi	t1,t1,0
     354:	0901                	addi	s2,s2,0
     356:	0008                	0x8
     358:	0301                	addi	t1,t1,0
     35a:	0902                	c.slli64	s2
     35c:	0004                	0x4
     35e:	0301                	addi	t1,t1,0
     360:	0901                	addi	s2,s2,0
     362:	0004                	0x4
     364:	0301                	addi	t1,t1,0
     366:	0901                	addi	s2,s2,0
     368:	0004                	0x4
     36a:	0301                	addi	t1,t1,0
     36c:	0901                	addi	s2,s2,0
     36e:	0002                	c.slli64	zero
     370:	0301                	addi	t1,t1,0
     372:	0901                	addi	s2,s2,0
     374:	0002                	c.slli64	zero
     376:	0301                	addi	t1,t1,0
     378:	0904                	addi	s1,sp,144
     37a:	0004                	0x4
     37c:	0301                	addi	t1,t1,0
     37e:	0901                	addi	s2,s2,0
     380:	0008                	0x8
     382:	0301                	addi	t1,t1,0
     384:	0901                	addi	s2,s2,0
     386:	0008                	0x8
     388:	0301                	addi	t1,t1,0
     38a:	0901                	addi	s2,s2,0
     38c:	0008                	0x8
     38e:	0301                	addi	t1,t1,0
     390:	0902                	c.slli64	s2
     392:	0004                	0x4
     394:	0301                	addi	t1,t1,0
     396:	0901                	addi	s2,s2,0
     398:	0004                	0x4
     39a:	0301                	addi	t1,t1,0
     39c:	0901                	addi	s2,s2,0
     39e:	0004                	0x4
     3a0:	0301                	addi	t1,t1,0
     3a2:	0901                	addi	s2,s2,0
     3a4:	0002                	c.slli64	zero
     3a6:	0301                	addi	t1,t1,0
     3a8:	0901                	addi	s2,s2,0
     3aa:	0002                	c.slli64	zero
     3ac:	0301                	addi	t1,t1,0
     3ae:	00040903          	lb	s2,0(s0)
     3b2:	0301                	addi	t1,t1,0
     3b4:	0901                	addi	s2,s2,0
     3b6:	0008                	0x8
     3b8:	0301                	addi	t1,t1,0
     3ba:	0901                	addi	s2,s2,0
     3bc:	0008                	0x8
     3be:	0301                	addi	t1,t1,0
     3c0:	0902                	c.slli64	s2
     3c2:	0004                	0x4
     3c4:	0301                	addi	t1,t1,0
     3c6:	0901                	addi	s2,s2,0
     3c8:	0004                	0x4
     3ca:	0301                	addi	t1,t1,0
     3cc:	0901                	addi	s2,s2,0
     3ce:	0002                	c.slli64	zero
     3d0:	0301                	addi	t1,t1,0
     3d2:	0904                	addi	s1,sp,144
     3d4:	0004                	0x4
     3d6:	0301                	addi	t1,t1,0
     3d8:	0901                	addi	s2,s2,0
     3da:	0004                	0x4
     3dc:	0301                	addi	t1,t1,0
     3de:	0901                	addi	s2,s2,0
     3e0:	0004                	0x4
     3e2:	0301                	addi	t1,t1,0
     3e4:	0901                	addi	s2,s2,0
     3e6:	0008                	0x8
     3e8:	0301                	addi	t1,t1,0
     3ea:	0901                	addi	s2,s2,0
     3ec:	0004                	0x4
     3ee:	0301                	addi	t1,t1,0
     3f0:	0901                	addi	s2,s2,0
     3f2:	0004                	0x4
     3f4:	0301                	addi	t1,t1,0
     3f6:	0901                	addi	s2,s2,0
     3f8:	0008                	0x8
     3fa:	0301                	addi	t1,t1,0
     3fc:	00040903          	lb	s2,0(s0)
     400:	0901                	addi	s2,s2,0
     402:	0004                	0x4
     404:	0100                	addi	s0,sp,128
     406:	1e01                	addi	t3,t3,-32
     408:	0000                	unimp
     40a:	0200                	addi	s0,sp,256
     40c:	2900                	fld	fs0,16(a0)
     40e:	0004                	0x4
     410:	0400                	addi	s0,sp,512
     412:	a001                	j	412 <handle_reset+0x320>
     414:	0001                	nop
     416:	d000                	sw	s0,32(s0)
     418:	0004                	0x4
     41a:	7800                	flw	fs0,48(s0)
     41c:	0004                	0x4
     41e:	9700                	0x9700
     420:	0004                	0x4
     422:	c200                	sw	s0,0(a2)
     424:	0004                	0x4
     426:	0100                	addi	s0,sp,128
     428:	0180                	addi	s0,sp,192
     42a:	0011                	c.nop	4
     42c:	0610                	addi	a2,sp,768
     42e:	0655                	addi	a2,a2,21
     430:	0e1b0e03          	lb	t3,225(s6)
     434:	0e25                	addi	t3,t3,9
     436:	00000513          	li	a0,0
     43a:	0000                	unimp
     43c:	0000                	unimp
     43e:	0000                	unimp
     440:	0034                	addi	a3,sp,8
     442:	0000                	unimp
     444:	0002                	c.slli64	zero
     446:	00000407          	0x407
     44a:	0004                	0x4
	...
     454:	0004                	0x4
     456:	0000                	unimp
     458:	0004                	0x4
     45a:	0000                	unimp
     45c:	0094                	addi	a3,sp,64
     45e:	0000                	unimp
     460:	00c0                	addi	s0,sp,68
     462:	0000                	unimp
     464:	0032                	c.slli	zero,0xc
     466:	0000                	unimp
     468:	00f2                	slli	ra,ra,0x1c
     46a:	0000                	unimp
     46c:	00ae                	slli	ra,ra,0xb
	...
     476:	0000                	unimp
     478:	2e2e                	fld	ft8,200(sp)
     47a:	4352532f          	0x4352532f
     47e:	6174532f          	0x6174532f
     482:	7472                	flw	fs0,60(sp)
     484:	7075                	c.lui	zero,0xffffd
     486:	6174732f          	0x6174732f
     48a:	7472                	flw	fs0,60(sp)
     48c:	7075                	c.lui	zero,0xffffd
     48e:	435f 3548 7836      	0x78363548435f
     494:	532e                	lw	t1,232(sp)
     496:	4500                	lw	s0,8(a0)
     498:	5c3a                	lw	s8,172(sp)
     49a:	cfc1cad7          	0xcfc1cad7
     49e:	435c                	lw	a5,4(a4)
     4a0:	3548                	fld	fa0,168(a0)
     4a2:	3936                	fld	fs2,360(sp)
     4a4:	435c                	lw	a5,4(a4)
     4a6:	3548                	fld	fa0,168(a0)
     4a8:	3936                	fld	fs2,360(sp)
     4aa:	f8cd                	bnez	s1,45c <handle_reset+0x36a>
     4ac:	e7c2                	fsw	fa6,204(sp)
     4ae:	fdc0                	fsw	fs0,60(a1)
     4b0:	465cccb3          	0x465cccb3
     4b4:	5054                	lw	a3,36(s0)
     4b6:	435f 696c 6e65      	0x6e65696c435f
     4bc:	5c74                	lw	a3,124(s0)
     4be:	006a626f          	jal	tp,a64c4 <_ramcode_lma+0x9e4c4>
     4c2:	20554e47          	fmsub.s	ft8,fa0,ft5,ft4,rmm
     4c6:	5341                	li	t1,-16
     4c8:	3220                	fld	fs0,96(a2)
     4ca:	332e                	fld	ft6,232(sp)
     4cc:	0032                	c.slli	zero,0xc
     4ce:	0000                	unimp
     4d0:	ffff                	0xffff
     4d2:	ffff                	0xffff
	...
     4dc:	0004                	0x4
     4de:	0000                	unimp
     4e0:	0004                	0x4
     4e2:	0000                	unimp
     4e4:	0098                	addi	a4,sp,64
     4e6:	0000                	unimp
     4e8:	00c0                	addi	s0,sp,68
     4ea:	0000                	unimp
     4ec:	00f2                	slli	ra,ra,0x1c
     4ee:	0000                	unimp
     4f0:	00f2                	slli	ra,ra,0x1c
     4f2:	0000                	unimp
     4f4:	01a0                	addi	s0,sp,200
	...

00000500 <tcp_accept_null>:
     500:	556d                	li	a0,-5
     502:	8082                	ret

00000504 <tcp_new_port>:
     504:	20002797          	auipc	a5,0x20002
     508:	d6078793          	addi	a5,a5,-672 # 20002264 <tcp_active_pcbs>
     50c:	4390                	lw	a2,0(a5)
     50e:	20002797          	auipc	a5,0x20002
     512:	d6a78793          	addi	a5,a5,-662 # 20002278 <tcp_tw_pcbs>
     516:	438c                	lw	a1,0(a5)
     518:	20002797          	auipc	a5,0x20002
     51c:	d5478793          	addi	a5,a5,-684 # 2000226c <tcp_listen_pcbs>
     520:	0007a803          	lw	a6,0(a5)
     524:	20000517          	auipc	a0,0x20000
     528:	b6855503          	lhu	a0,-1176(a0) # 2000008c <port.3573>
     52c:	00150793          	addi	a5,a0,1
     530:	01079513          	slli	a0,a5,0x10
     534:	01079713          	slli	a4,a5,0x10
     538:	8141                	srli	a0,a0,0x10
     53a:	00075363          	bgez	a4,540 <tcp_new_port+0x3c>
     53e:	6505                	lui	a0,0x1
     540:	87b2                	mv	a5,a2
     542:	eb91                	bnez	a5,556 <tcp_new_port+0x52>
     544:	87ae                	mv	a5,a1
     546:	ef9d                	bnez	a5,584 <tcp_new_port+0x80>
     548:	87c2                	mv	a5,a6
     54a:	e7a5                	bnez	a5,5b2 <tcp_new_port+0xae>
     54c:	20000797          	auipc	a5,0x20000
     550:	b4a79023          	sh	a0,-1216(a5) # 2000008c <port.3573>
     554:	8082                	ret
     556:	01a7c703          	lbu	a4,26(a5)
     55a:	0197c683          	lbu	a3,25(a5)
     55e:	0722                	slli	a4,a4,0x8
     560:	8f55                	or	a4,a4,a3
     562:	fca705e3          	beq	a4,a0,52c <tcp_new_port+0x28>
     566:	00d7c703          	lbu	a4,13(a5)
     56a:	00c7c683          	lbu	a3,12(a5)
     56e:	0722                	slli	a4,a4,0x8
     570:	8ed9                	or	a3,a3,a4
     572:	00e7c703          	lbu	a4,14(a5)
     576:	00f7c783          	lbu	a5,15(a5)
     57a:	0742                	slli	a4,a4,0x10
     57c:	8f55                	or	a4,a4,a3
     57e:	07e2                	slli	a5,a5,0x18
     580:	8fd9                	or	a5,a5,a4
     582:	b7c1                	j	542 <tcp_new_port+0x3e>
     584:	01a7c703          	lbu	a4,26(a5)
     588:	0197c683          	lbu	a3,25(a5)
     58c:	0722                	slli	a4,a4,0x8
     58e:	8f55                	or	a4,a4,a3
     590:	f8a70ee3          	beq	a4,a0,52c <tcp_new_port+0x28>
     594:	00d7c703          	lbu	a4,13(a5)
     598:	00c7c683          	lbu	a3,12(a5)
     59c:	0722                	slli	a4,a4,0x8
     59e:	8ed9                	or	a3,a3,a4
     5a0:	00e7c703          	lbu	a4,14(a5)
     5a4:	00f7c783          	lbu	a5,15(a5)
     5a8:	0742                	slli	a4,a4,0x10
     5aa:	8f55                	or	a4,a4,a3
     5ac:	07e2                	slli	a5,a5,0x18
     5ae:	8fd9                	or	a5,a5,a4
     5b0:	bf59                	j	546 <tcp_new_port+0x42>
     5b2:	01a7c703          	lbu	a4,26(a5)
     5b6:	0197c683          	lbu	a3,25(a5)
     5ba:	0722                	slli	a4,a4,0x8
     5bc:	8f55                	or	a4,a4,a3
     5be:	f6a707e3          	beq	a4,a0,52c <tcp_new_port+0x28>
     5c2:	00d7c703          	lbu	a4,13(a5)
     5c6:	00c7c683          	lbu	a3,12(a5)
     5ca:	0722                	slli	a4,a4,0x8
     5cc:	8ed9                	or	a3,a3,a4
     5ce:	00e7c703          	lbu	a4,14(a5)
     5d2:	00f7c783          	lbu	a5,15(a5)
     5d6:	0742                	slli	a4,a4,0x10
     5d8:	8f55                	or	a4,a4,a3
     5da:	07e2                	slli	a5,a5,0x18
     5dc:	8fd9                	or	a5,a5,a4
     5de:	b7b5                	j	54a <tcp_new_port+0x46>

000005e0 <tcp_bind>:
     5e0:	01154703          	lbu	a4,17(a0) # 1011 <tcp_slowtmr+0x229>
     5e4:	01054783          	lbu	a5,16(a0)
     5e8:	0722                	slli	a4,a4,0x8
     5ea:	8f5d                	or	a4,a4,a5
     5ec:	01254783          	lbu	a5,18(a0)
     5f0:	07c2                	slli	a5,a5,0x10
     5f2:	8f5d                	or	a4,a4,a5
     5f4:	01354783          	lbu	a5,19(a0)
     5f8:	07e2                	slli	a5,a5,0x18
     5fa:	8fd9                	or	a5,a5,a4
     5fc:	28079063          	bnez	a5,87c <__stack_size+0x7c>
     600:	20020317          	auipc	t1,0x20020
     604:	a30302e7          	jalr	t0,-1488(t1) # 20020030 <__riscv_save_0>
     608:	1141                	addi	sp,sp,-16
     60a:	842a                	mv	s0,a0
     60c:	84b2                	mv	s1,a2
     60e:	e609                	bnez	a2,618 <tcp_bind+0x38>
     610:	c62e                	sw	a1,12(sp)
     612:	3dcd                	jal	504 <tcp_new_port>
     614:	45b2                	lw	a1,12(sp)
     616:	84aa                	mv	s1,a0
     618:	20002797          	auipc	a5,0x20002
     61c:	c5478793          	addi	a5,a5,-940 # 2000226c <tcp_listen_pcbs>
     620:	439c                	lw	a5,0(a5)
     622:	ebd1                	bnez	a5,6b6 <tcp_bind+0xd6>
     624:	20002797          	auipc	a5,0x20002
     628:	c4078793          	addi	a5,a5,-960 # 20002264 <tcp_active_pcbs>
     62c:	439c                	lw	a5,0(a5)
     62e:	effd                	bnez	a5,72c <tcp_bind+0x14c>
     630:	20002797          	auipc	a5,0x20002
     634:	c4478793          	addi	a5,a5,-956 # 20002274 <tcp_bound_pcbs>
     638:	0007a903          	lw	s2,0(a5)
     63c:	87ca                	mv	a5,s2
     63e:	16079263          	bnez	a5,7a2 <tcp_bind+0x1c2>
     642:	20002797          	auipc	a5,0x20002
     646:	c3678793          	addi	a5,a5,-970 # 20002278 <tcp_tw_pcbs>
     64a:	439c                	lw	a5,0(a5)
     64c:	1c079363          	bnez	a5,812 <__stack_size+0x12>
     650:	c595                	beqz	a1,67c <tcp_bind+0x9c>
     652:	0015c703          	lbu	a4,1(a1)
     656:	0005c783          	lbu	a5,0(a1)
     65a:	0722                	slli	a4,a4,0x8
     65c:	8f5d                	or	a4,a4,a5
     65e:	0025c783          	lbu	a5,2(a1)
     662:	07c2                	slli	a5,a5,0x10
     664:	8f5d                	or	a4,a4,a5
     666:	0035c783          	lbu	a5,3(a1)
     66a:	07e2                	slli	a5,a5,0x18
     66c:	8fd9                	or	a5,a5,a4
     66e:	c799                	beqz	a5,67c <tcp_bind+0x9c>
     670:	4611                	li	a2,4
     672:	8522                	mv	a0,s0
     674:	20026097          	auipc	ra,0x20026
     678:	91c080e7          	jalr	-1764(ra) # 20025f90 <memcpy>
     67c:	00895793          	srli	a5,s2,0x8
     680:	00940ca3          	sb	s1,25(s0)
     684:	01240623          	sb	s2,12(s0)
     688:	80a1                	srli	s1,s1,0x8
     68a:	00f406a3          	sb	a5,13(s0)
     68e:	01095793          	srli	a5,s2,0x10
     692:	01895913          	srli	s2,s2,0x18
     696:	00f40723          	sb	a5,14(s0)
     69a:	00940d23          	sb	s1,26(s0)
     69e:	012407a3          	sb	s2,15(s0)
     6a2:	20002797          	auipc	a5,0x20002
     6a6:	bc87a923          	sw	s0,-1070(a5) # 20002274 <tcp_bound_pcbs>
     6aa:	4501                	li	a0,0
     6ac:	0141                	addi	sp,sp,16
     6ae:	20020317          	auipc	t1,0x20020
     6b2:	9a630067          	jr	-1626(t1) # 20020054 <__riscv_restore_0>
     6b6:	01a7c703          	lbu	a4,26(a5)
     6ba:	0197c683          	lbu	a3,25(a5)
     6be:	0722                	slli	a4,a4,0x8
     6c0:	8f55                	or	a4,a4,a3
     6c2:	04971663          	bne	a4,s1,70e <tcp_bind+0x12e>
     6c6:	0017c703          	lbu	a4,1(a5)
     6ca:	0007c683          	lbu	a3,0(a5)
     6ce:	0722                	slli	a4,a4,0x8
     6d0:	8f55                	or	a4,a4,a3
     6d2:	0027c683          	lbu	a3,2(a5)
     6d6:	06c2                	slli	a3,a3,0x10
     6d8:	8f55                	or	a4,a4,a3
     6da:	0037c683          	lbu	a3,3(a5)
     6de:	06e2                	slli	a3,a3,0x18
     6e0:	8ed9                	or	a3,a3,a4
     6e2:	18068f63          	beqz	a3,880 <__stack_size+0x80>
     6e6:	18058d63          	beqz	a1,880 <__stack_size+0x80>
     6ea:	0015c603          	lbu	a2,1(a1)
     6ee:	0005c703          	lbu	a4,0(a1)
     6f2:	0622                	slli	a2,a2,0x8
     6f4:	8e59                	or	a2,a2,a4
     6f6:	0025c703          	lbu	a4,2(a1)
     6fa:	0742                	slli	a4,a4,0x10
     6fc:	8e59                	or	a2,a2,a4
     6fe:	0035c703          	lbu	a4,3(a1)
     702:	0762                	slli	a4,a4,0x18
     704:	8f51                	or	a4,a4,a2
     706:	16070d63          	beqz	a4,880 <__stack_size+0x80>
     70a:	16e68b63          	beq	a3,a4,880 <__stack_size+0x80>
     70e:	00d7c703          	lbu	a4,13(a5)
     712:	00c7c683          	lbu	a3,12(a5)
     716:	0722                	slli	a4,a4,0x8
     718:	8ed9                	or	a3,a3,a4
     71a:	00e7c703          	lbu	a4,14(a5)
     71e:	00f7c783          	lbu	a5,15(a5)
     722:	0742                	slli	a4,a4,0x10
     724:	8f55                	or	a4,a4,a3
     726:	07e2                	slli	a5,a5,0x18
     728:	8fd9                	or	a5,a5,a4
     72a:	bde5                	j	622 <tcp_bind+0x42>
     72c:	01a7c703          	lbu	a4,26(a5)
     730:	0197c683          	lbu	a3,25(a5)
     734:	0722                	slli	a4,a4,0x8
     736:	8f55                	or	a4,a4,a3
     738:	04971663          	bne	a4,s1,784 <tcp_bind+0x1a4>
     73c:	0017c703          	lbu	a4,1(a5)
     740:	0007c683          	lbu	a3,0(a5)
     744:	0722                	slli	a4,a4,0x8
     746:	8f55                	or	a4,a4,a3
     748:	0027c683          	lbu	a3,2(a5)
     74c:	06c2                	slli	a3,a3,0x10
     74e:	8f55                	or	a4,a4,a3
     750:	0037c683          	lbu	a3,3(a5)
     754:	06e2                	slli	a3,a3,0x18
     756:	8ed9                	or	a3,a3,a4
     758:	12068463          	beqz	a3,880 <__stack_size+0x80>
     75c:	12058263          	beqz	a1,880 <__stack_size+0x80>
     760:	0015c603          	lbu	a2,1(a1)
     764:	0005c703          	lbu	a4,0(a1)
     768:	0622                	slli	a2,a2,0x8
     76a:	8e59                	or	a2,a2,a4
     76c:	0025c703          	lbu	a4,2(a1)
     770:	0742                	slli	a4,a4,0x10
     772:	8e59                	or	a2,a2,a4
     774:	0035c703          	lbu	a4,3(a1)
     778:	0762                	slli	a4,a4,0x18
     77a:	8f51                	or	a4,a4,a2
     77c:	10070263          	beqz	a4,880 <__stack_size+0x80>
     780:	10e68063          	beq	a3,a4,880 <__stack_size+0x80>
     784:	00d7c703          	lbu	a4,13(a5)
     788:	00c7c683          	lbu	a3,12(a5)
     78c:	0722                	slli	a4,a4,0x8
     78e:	8ed9                	or	a3,a3,a4
     790:	00e7c703          	lbu	a4,14(a5)
     794:	00f7c783          	lbu	a5,15(a5)
     798:	0742                	slli	a4,a4,0x10
     79a:	8f55                	or	a4,a4,a3
     79c:	07e2                	slli	a5,a5,0x18
     79e:	8fd9                	or	a5,a5,a4
     7a0:	b579                	j	62e <tcp_bind+0x4e>
     7a2:	01a7c703          	lbu	a4,26(a5)
     7a6:	0197c683          	lbu	a3,25(a5)
     7aa:	0722                	slli	a4,a4,0x8
     7ac:	8f55                	or	a4,a4,a3
     7ae:	04971363          	bne	a4,s1,7f4 <tcp_bind+0x214>
     7b2:	0017c703          	lbu	a4,1(a5)
     7b6:	0007c683          	lbu	a3,0(a5)
     7ba:	0722                	slli	a4,a4,0x8
     7bc:	8f55                	or	a4,a4,a3
     7be:	0027c683          	lbu	a3,2(a5)
     7c2:	06c2                	slli	a3,a3,0x10
     7c4:	8f55                	or	a4,a4,a3
     7c6:	0037c683          	lbu	a3,3(a5)
     7ca:	06e2                	slli	a3,a3,0x18
     7cc:	8ed9                	or	a3,a3,a4
     7ce:	cacd                	beqz	a3,880 <__stack_size+0x80>
     7d0:	c9c5                	beqz	a1,880 <__stack_size+0x80>
     7d2:	0015c603          	lbu	a2,1(a1)
     7d6:	0005c703          	lbu	a4,0(a1)
     7da:	0622                	slli	a2,a2,0x8
     7dc:	8e59                	or	a2,a2,a4
     7de:	0025c703          	lbu	a4,2(a1)
     7e2:	0742                	slli	a4,a4,0x10
     7e4:	8e59                	or	a2,a2,a4
     7e6:	0035c703          	lbu	a4,3(a1)
     7ea:	0762                	slli	a4,a4,0x18
     7ec:	8f51                	or	a4,a4,a2
     7ee:	cb49                	beqz	a4,880 <__stack_size+0x80>
     7f0:	08e68863          	beq	a3,a4,880 <__stack_size+0x80>
     7f4:	00d7c703          	lbu	a4,13(a5)
     7f8:	00c7c683          	lbu	a3,12(a5)
     7fc:	0722                	slli	a4,a4,0x8
     7fe:	8ed9                	or	a3,a3,a4
     800:	00e7c703          	lbu	a4,14(a5)
     804:	00f7c783          	lbu	a5,15(a5)
     808:	0742                	slli	a4,a4,0x10
     80a:	8f55                	or	a4,a4,a3
     80c:	07e2                	slli	a5,a5,0x18
     80e:	8fd9                	or	a5,a5,a4
     810:	b53d                	j	63e <tcp_bind+0x5e>
     812:	01a7c703          	lbu	a4,26(a5)
     816:	0197c683          	lbu	a3,25(a5)
     81a:	0722                	slli	a4,a4,0x8
     81c:	8f55                	or	a4,a4,a3
     81e:	04971063          	bne	a4,s1,85e <__stack_size+0x5e>
     822:	0017c703          	lbu	a4,1(a5)
     826:	0007c683          	lbu	a3,0(a5)
     82a:	0015c603          	lbu	a2,1(a1)
     82e:	0722                	slli	a4,a4,0x8
     830:	8f55                	or	a4,a4,a3
     832:	0027c683          	lbu	a3,2(a5)
     836:	0622                	slli	a2,a2,0x8
     838:	06c2                	slli	a3,a3,0x10
     83a:	8f55                	or	a4,a4,a3
     83c:	0037c683          	lbu	a3,3(a5)
     840:	06e2                	slli	a3,a3,0x18
     842:	8ed9                	or	a3,a3,a4
     844:	0005c703          	lbu	a4,0(a1)
     848:	8e59                	or	a2,a2,a4
     84a:	0025c703          	lbu	a4,2(a1)
     84e:	0742                	slli	a4,a4,0x10
     850:	8e59                	or	a2,a2,a4
     852:	0035c703          	lbu	a4,3(a1)
     856:	0762                	slli	a4,a4,0x18
     858:	8f51                	or	a4,a4,a2
     85a:	02e68363          	beq	a3,a4,880 <__stack_size+0x80>
     85e:	00d7c703          	lbu	a4,13(a5)
     862:	00c7c683          	lbu	a3,12(a5)
     866:	0722                	slli	a4,a4,0x8
     868:	8ed9                	or	a3,a3,a4
     86a:	00e7c703          	lbu	a4,14(a5)
     86e:	00f7c783          	lbu	a5,15(a5)
     872:	0742                	slli	a4,a4,0x10
     874:	8f55                	or	a4,a4,a3
     876:	07e2                	slli	a5,a5,0x18
     878:	8fd9                	or	a5,a5,a4
     87a:	bbc9                	j	64c <tcp_bind+0x6c>
     87c:	554d                	li	a0,-13
     87e:	8082                	ret
     880:	5555                	li	a0,-11
     882:	b52d                	j	6ac <tcp_bind+0xcc>

00000884 <tcp_listen_with_backlog>:
     884:	2001f317          	auipc	t1,0x2001f
     888:	7ac302e7          	jalr	t0,1964(t1) # 20020030 <__riscv_save_0>
     88c:	01154703          	lbu	a4,17(a0)
     890:	01054783          	lbu	a5,16(a0)
     894:	1141                	addi	sp,sp,-16
     896:	0722                	slli	a4,a4,0x8
     898:	8f5d                	or	a4,a4,a5
     89a:	01254783          	lbu	a5,18(a0)
     89e:	07c2                	slli	a5,a5,0x10
     8a0:	8f5d                	or	a4,a4,a5
     8a2:	01354783          	lbu	a5,19(a0)
     8a6:	07e2                	slli	a5,a5,0x18
     8a8:	8fd9                	or	a5,a5,a4
     8aa:	cb81                	beqz	a5,8ba <tcp_listen_with_backlog+0x36>
     8ac:	4401                	li	s0,0
     8ae:	8522                	mv	a0,s0
     8b0:	0141                	addi	sp,sp,16
     8b2:	2001f317          	auipc	t1,0x2001f
     8b6:	7a230067          	jr	1954(t1) # 20020054 <__riscv_restore_0>
     8ba:	c62a                	sw	a0,12(sp)
     8bc:	450d                	li	a0,3
     8be:	613050ef          	jal	ra,66d0 <memp_malloc>
     8c2:	842a                	mv	s0,a0
     8c4:	d565                	beqz	a0,8ac <tcp_listen_with_backlog+0x28>
     8c6:	45b2                	lw	a1,12(sp)
     8c8:	0165c703          	lbu	a4,22(a1)
     8cc:	0155c783          	lbu	a5,21(a1)
     8d0:	0722                	slli	a4,a4,0x8
     8d2:	8f5d                	or	a4,a4,a5
     8d4:	0175c783          	lbu	a5,23(a1)
     8d8:	07c2                	slli	a5,a5,0x10
     8da:	8f5d                	or	a4,a4,a5
     8dc:	0185c783          	lbu	a5,24(a1)
     8e0:	07e2                	slli	a5,a5,0x18
     8e2:	8fd9                	or	a5,a5,a4
     8e4:	0087d713          	srli	a4,a5,0x8
     8e8:	00f50aa3          	sb	a5,21(a0)
     8ec:	00e50b23          	sb	a4,22(a0)
     8f0:	0107d713          	srli	a4,a5,0x10
     8f4:	83e1                	srli	a5,a5,0x18
     8f6:	00e50ba3          	sb	a4,23(a0)
     8fa:	00f50c23          	sb	a5,24(a0)
     8fe:	01a5c783          	lbu	a5,26(a1)
     902:	0195c703          	lbu	a4,25(a1)
     906:	000508a3          	sb	zero,17(a0)
     90a:	07a2                	slli	a5,a5,0x8
     90c:	8fd9                	or	a5,a5,a4
     90e:	00f50ca3          	sb	a5,25(a0)
     912:	83a1                	srli	a5,a5,0x8
     914:	00f50d23          	sb	a5,26(a0)
     918:	4785                	li	a5,1
     91a:	00f50823          	sb	a5,16(a0)
     91e:	00050923          	sb	zero,18(a0)
     922:	000509a3          	sb	zero,19(a0)
     926:	0095c783          	lbu	a5,9(a1)
     92a:	0085c703          	lbu	a4,8(a1)
     92e:	07a2                	slli	a5,a5,0x8
     930:	8fd9                	or	a5,a5,a4
     932:	0027e793          	ori	a5,a5,2
     936:	00f50423          	sb	a5,8(a0)
     93a:	83a1                	srli	a5,a5,0x8
     93c:	00f504a3          	sb	a5,9(a0)
     940:	00b5c783          	lbu	a5,11(a1)
     944:	00f505a3          	sb	a5,11(a0)
     948:	00a5c783          	lbu	a5,10(a1)
     94c:	00f50523          	sb	a5,10(a0)
     950:	0015c703          	lbu	a4,1(a1)
     954:	0005c783          	lbu	a5,0(a1)
     958:	0722                	slli	a4,a4,0x8
     95a:	8f5d                	or	a4,a4,a5
     95c:	0025c783          	lbu	a5,2(a1)
     960:	07c2                	slli	a5,a5,0x10
     962:	8f5d                	or	a4,a4,a5
     964:	0035c783          	lbu	a5,3(a1)
     968:	07e2                	slli	a5,a5,0x18
     96a:	8fd9                	or	a5,a5,a4
     96c:	0087d713          	srli	a4,a5,0x8
     970:	00e500a3          	sb	a4,1(a0)
     974:	0107d713          	srli	a4,a5,0x10
     978:	00f50023          	sb	a5,0(a0)
     97c:	00e50123          	sb	a4,2(a0)
     980:	83e1                	srli	a5,a5,0x18
     982:	00f501a3          	sb	a5,3(a0)
     986:	20002797          	auipc	a5,0x20002
     98a:	8ee78793          	addi	a5,a5,-1810 # 20002274 <tcp_bound_pcbs>
     98e:	439c                	lw	a5,0(a5)
     990:	08b79763          	bne	a5,a1,a1e <tcp_listen_with_backlog+0x19a>
     994:	00d5c703          	lbu	a4,13(a1)
     998:	00c5c783          	lbu	a5,12(a1)
     99c:	0722                	slli	a4,a4,0x8
     99e:	8f5d                	or	a4,a4,a5
     9a0:	00e5c783          	lbu	a5,14(a1)
     9a4:	07c2                	slli	a5,a5,0x10
     9a6:	8f5d                	or	a4,a4,a5
     9a8:	00f5c783          	lbu	a5,15(a1)
     9ac:	07e2                	slli	a5,a5,0x18
     9ae:	8fd9                	or	a5,a5,a4
     9b0:	20002717          	auipc	a4,0x20002
     9b4:	8cf72223          	sw	a5,-1852(a4) # 20002274 <tcp_bound_pcbs>
     9b8:	00058623          	sb	zero,12(a1)
     9bc:	000586a3          	sb	zero,13(a1)
     9c0:	00058723          	sb	zero,14(a1)
     9c4:	000587a3          	sb	zero,15(a1)
     9c8:	4509                	li	a0,2
     9ca:	527050ef          	jal	ra,66f0 <memp_free>
     9ce:	00000797          	auipc	a5,0x0
     9d2:	b3278793          	addi	a5,a5,-1230 # 500 <tcp_accept_null>
     9d6:	0087d713          	srli	a4,a5,0x8
     9da:	00f40da3          	sb	a5,27(s0)
     9de:	00e40e23          	sb	a4,28(s0)
     9e2:	0107d713          	srli	a4,a5,0x10
     9e6:	83e1                	srli	a5,a5,0x18
     9e8:	00f40f23          	sb	a5,30(s0)
     9ec:	20002797          	auipc	a5,0x20002
     9f0:	88078793          	addi	a5,a5,-1920 # 2000226c <tcp_listen_pcbs>
     9f4:	439c                	lw	a5,0(a5)
     9f6:	00e40ea3          	sb	a4,29(s0)
     9fa:	0087d713          	srli	a4,a5,0x8
     9fe:	00f40623          	sb	a5,12(s0)
     a02:	00e406a3          	sb	a4,13(s0)
     a06:	0107d713          	srli	a4,a5,0x10
     a0a:	83e1                	srli	a5,a5,0x18
     a0c:	00f407a3          	sb	a5,15(s0)
     a10:	00e40723          	sb	a4,14(s0)
     a14:	20002797          	auipc	a5,0x20002
     a18:	8487ac23          	sw	s0,-1960(a5) # 2000226c <tcp_listen_pcbs>
     a1c:	bd49                	j	8ae <tcp_listen_with_backlog+0x2a>
     a1e:	20002717          	auipc	a4,0x20002
     a22:	84f72923          	sw	a5,-1966(a4) # 20002270 <tcp_tmp_pcb>
     a26:	4601                	li	a2,0
     a28:	e799                	bnez	a5,a36 <tcp_listen_with_backlog+0x1b2>
     a2a:	d659                	beqz	a2,9b8 <tcp_listen_with_backlog+0x134>
     a2c:	20002797          	auipc	a5,0x20002
     a30:	8407a223          	sw	zero,-1980(a5) # 20002270 <tcp_tmp_pcb>
     a34:	b751                	j	9b8 <tcp_listen_with_backlog+0x134>
     a36:	00d7c683          	lbu	a3,13(a5)
     a3a:	00c7c703          	lbu	a4,12(a5)
     a3e:	06a2                	slli	a3,a3,0x8
     a40:	8ed9                	or	a3,a3,a4
     a42:	00e7c703          	lbu	a4,14(a5)
     a46:	0742                	slli	a4,a4,0x10
     a48:	8ed9                	or	a3,a3,a4
     a4a:	00f7c703          	lbu	a4,15(a5)
     a4e:	0762                	slli	a4,a4,0x18
     a50:	8f55                	or	a4,a4,a3
     a52:	04b71363          	bne	a4,a1,a98 <tcp_listen_with_backlog+0x214>
     a56:	c609                	beqz	a2,a60 <tcp_listen_with_backlog+0x1dc>
     a58:	20002717          	auipc	a4,0x20002
     a5c:	80f72c23          	sw	a5,-2024(a4) # 20002270 <tcp_tmp_pcb>
     a60:	00d5c683          	lbu	a3,13(a1)
     a64:	00c5c703          	lbu	a4,12(a1)
     a68:	06a2                	slli	a3,a3,0x8
     a6a:	8ed9                	or	a3,a3,a4
     a6c:	00e5c703          	lbu	a4,14(a1)
     a70:	0742                	slli	a4,a4,0x10
     a72:	8ed9                	or	a3,a3,a4
     a74:	00f5c703          	lbu	a4,15(a1)
     a78:	0762                	slli	a4,a4,0x18
     a7a:	8f55                	or	a4,a4,a3
     a7c:	00875693          	srli	a3,a4,0x8
     a80:	00e78623          	sb	a4,12(a5)
     a84:	00d786a3          	sb	a3,13(a5)
     a88:	01075693          	srli	a3,a4,0x10
     a8c:	8361                	srli	a4,a4,0x18
     a8e:	00d78723          	sb	a3,14(a5)
     a92:	00e787a3          	sb	a4,15(a5)
     a96:	b70d                	j	9b8 <tcp_listen_with_backlog+0x134>
     a98:	4605                	li	a2,1
     a9a:	87ba                	mv	a5,a4
     a9c:	b771                	j	a28 <tcp_listen_with_backlog+0x1a4>

00000a9e <tcp_update_rcv_ann_wnd>:
     a9e:	02354583          	lbu	a1,35(a0)
     aa2:	02254703          	lbu	a4,34(a0)
     aa6:	02754603          	lbu	a2,39(a0)
     aaa:	05a2                	slli	a1,a1,0x8
     aac:	8f4d                	or	a4,a4,a1
     aae:	02454583          	lbu	a1,36(a0)
     ab2:	0622                	slli	a2,a2,0x8
     ab4:	02a54683          	lbu	a3,42(a0)
     ab8:	05c2                	slli	a1,a1,0x10
     aba:	8dd9                	or	a1,a1,a4
     abc:	02554703          	lbu	a4,37(a0)
     ac0:	87aa                	mv	a5,a0
     ac2:	0377c803          	lbu	a6,55(a5)
     ac6:	0762                	slli	a4,a4,0x18
     ac8:	8dd9                	or	a1,a1,a4
     aca:	02654703          	lbu	a4,38(a0)
     ace:	0367c883          	lbu	a7,54(a5)
     ad2:	0822                	slli	a6,a6,0x8
     ad4:	8e59                	or	a2,a2,a4
     ad6:	02b54703          	lbu	a4,43(a0)
     ada:	01186833          	or	a6,a6,a7
     ade:	0722                	slli	a4,a4,0x8
     ae0:	8ed9                	or	a3,a3,a4
     ae2:	02c54703          	lbu	a4,44(a0)
     ae6:	0742                	slli	a4,a4,0x10
     ae8:	8f55                	or	a4,a4,a3
     aea:	02d54683          	lbu	a3,45(a0)
     aee:	06e2                	slli	a3,a3,0x18
     af0:	8f55                	or	a4,a4,a3
     af2:	20001697          	auipc	a3,0x20001
     af6:	69268693          	addi	a3,a3,1682 # 20002184 <CH569Cfg>
     afa:	42d4                	lw	a3,4(a3)
     afc:	40e60533          	sub	a0,a2,a4
     b00:	952e                	add	a0,a0,a1
     b02:	8285                	srli	a3,a3,0x1
     b04:	00d87363          	bgeu	a6,a3,b0a <tcp_update_rcv_ann_wnd+0x6c>
     b08:	86c2                	mv	a3,a6
     b0a:	40d506b3          	sub	a3,a0,a3
     b0e:	0006c863          	bltz	a3,b1e <tcp_update_rcv_ann_wnd+0x80>
     b12:	02c78423          	sb	a2,40(a5)
     b16:	8221                	srli	a2,a2,0x8
     b18:	02c784a3          	sb	a2,41(a5)
     b1c:	8082                	ret
     b1e:	40e586b3          	sub	a3,a1,a4
     b22:	00d05863          	blez	a3,b32 <tcp_update_rcv_ann_wnd+0x94>
     b26:	02078423          	sb	zero,40(a5)
     b2a:	020784a3          	sb	zero,41(a5)
     b2e:	4501                	li	a0,0
     b30:	8082                	ret
     b32:	8f0d                	sub	a4,a4,a1
     b34:	0742                	slli	a4,a4,0x10
     b36:	8341                	srli	a4,a4,0x10
     b38:	02e78423          	sb	a4,40(a5)
     b3c:	8321                	srli	a4,a4,0x8
     b3e:	02e784a3          	sb	a4,41(a5)
     b42:	b7f5                	j	b2e <tcp_update_rcv_ann_wnd+0x90>

00000b44 <tcp_recved>:
     b44:	2001f317          	auipc	t1,0x2001f
     b48:	4ec302e7          	jalr	t0,1260(t1) # 20020030 <__riscv_save_0>
     b4c:	02754783          	lbu	a5,39(a0)
     b50:	02654703          	lbu	a4,38(a0)
     b54:	842a                	mv	s0,a0
     b56:	07a2                	slli	a5,a5,0x8
     b58:	8fd9                	or	a5,a5,a4
     b5a:	95be                	add	a1,a1,a5
     b5c:	05c2                	slli	a1,a1,0x10
     b5e:	81c1                	srli	a1,a1,0x10
     b60:	0085d793          	srli	a5,a1,0x8
     b64:	20001717          	auipc	a4,0x20001
     b68:	62070713          	addi	a4,a4,1568 # 20002184 <CH569Cfg>
     b6c:	02f503a3          	sb	a5,39(a0)
     b70:	435c                	lw	a5,4(a4)
     b72:	02b50323          	sb	a1,38(a0)
     b76:	84ba                	mv	s1,a4
     b78:	00b7f963          	bgeu	a5,a1,b8a <tcp_recved+0x46>
     b7c:	07c2                	slli	a5,a5,0x10
     b7e:	83c1                	srli	a5,a5,0x10
     b80:	02f50323          	sb	a5,38(a0)
     b84:	83a1                	srli	a5,a5,0x8
     b86:	02f503a3          	sb	a5,39(a0)
     b8a:	8522                	mv	a0,s0
     b8c:	3f09                	jal	a9e <tcp_update_rcv_ann_wnd>
     b8e:	40dc                	lw	a5,4(s1)
     b90:	8389                	srli	a5,a5,0x2
     b92:	00f56b63          	bltu	a0,a5,ba8 <tcp_recved+0x64>
     b96:	02144783          	lbu	a5,33(s0)
     b9a:	8522                	mv	a0,s0
     b9c:	0027e793          	ori	a5,a5,2
     ba0:	02f400a3          	sb	a5,33(s0)
     ba4:	48c040ef          	jal	ra,5030 <tcp_output>
     ba8:	2001f317          	auipc	t1,0x2001f
     bac:	4ac30067          	jr	1196(t1) # 20020054 <__riscv_restore_0>

00000bb0 <tcp_seg_free>:
     bb0:	2001f317          	auipc	t1,0x2001f
     bb4:	480302e7          	jalr	t0,1152(t1) # 20020030 <__riscv_save_0>
     bb8:	1141                	addi	sp,sp,-16
     bba:	4401                	li	s0,0
     bbc:	cd09                	beqz	a0,bd6 <tcp_seg_free+0x26>
     bbe:	85aa                	mv	a1,a0
     bc0:	4148                	lw	a0,4(a0)
     bc2:	4401                	li	s0,0
     bc4:	c511                	beqz	a0,bd0 <tcp_seg_free+0x20>
     bc6:	c62e                	sw	a1,12(sp)
     bc8:	02f060ef          	jal	ra,73f6 <pbuf_free>
     bcc:	45b2                	lw	a1,12(sp)
     bce:	842a                	mv	s0,a0
     bd0:	4511                	li	a0,4
     bd2:	31f050ef          	jal	ra,66f0 <memp_free>
     bd6:	8522                	mv	a0,s0
     bd8:	0141                	addi	sp,sp,16
     bda:	2001f317          	auipc	t1,0x2001f
     bde:	47a30067          	jr	1146(t1) # 20020054 <__riscv_restore_0>

00000be2 <tcp_segs_free>:
     be2:	2001f317          	auipc	t1,0x2001f
     be6:	44e302e7          	jalr	t0,1102(t1) # 20020030 <__riscv_save_0>
     bea:	4401                	li	s0,0
     bec:	e511                	bnez	a0,bf8 <tcp_segs_free+0x16>
     bee:	8522                	mv	a0,s0
     bf0:	2001f317          	auipc	t1,0x2001f
     bf4:	46430067          	jr	1124(t1) # 20020054 <__riscv_restore_0>
     bf8:	4104                	lw	s1,0(a0)
     bfa:	3f5d                	jal	bb0 <tcp_seg_free>
     bfc:	942a                	add	s0,s0,a0
     bfe:	0ff47413          	andi	s0,s0,255
     c02:	8526                	mv	a0,s1
     c04:	b7e5                	j	bec <tcp_segs_free+0xa>

00000c06 <tcp_seg_copy>:
     c06:	2001f317          	auipc	t1,0x2001f
     c0a:	42a302e7          	jalr	t0,1066(t1) # 20020030 <__riscv_save_0>
     c0e:	1141                	addi	sp,sp,-16
     c10:	c62a                	sw	a0,12(sp)
     c12:	4511                	li	a0,4
     c14:	2bd050ef          	jal	ra,66d0 <memp_malloc>
     c18:	842a                	mv	s0,a0
     c1a:	c911                	beqz	a0,c2e <tcp_seg_copy+0x28>
     c1c:	45b2                	lw	a1,12(sp)
     c1e:	4651                	li	a2,20
     c20:	20025097          	auipc	ra,0x20025
     c24:	370080e7          	jalr	880(ra) # 20025f90 <memcpy>
     c28:	4048                	lw	a0,4(s0)
     c2a:	3e3060ef          	jal	ra,780c <pbuf_ref>
     c2e:	8522                	mv	a0,s0
     c30:	0141                	addi	sp,sp,16
     c32:	2001f317          	auipc	t1,0x2001f
     c36:	42230067          	jr	1058(t1) # 20020054 <__riscv_restore_0>

00000c3a <tcp_arg>:
     c3a:	0085d793          	srli	a5,a1,0x8
     c3e:	00b50aa3          	sb	a1,21(a0)
     c42:	00f50b23          	sb	a5,22(a0)
     c46:	0105d793          	srli	a5,a1,0x10
     c4a:	81e1                	srli	a1,a1,0x18
     c4c:	00f50ba3          	sb	a5,23(a0)
     c50:	00b50c23          	sb	a1,24(a0)
     c54:	8082                	ret

00000c56 <tcp_recv>:
     c56:	0085d793          	srli	a5,a1,0x8
     c5a:	06b50e23          	sb	a1,124(a0)
     c5e:	06f50ea3          	sb	a5,125(a0)
     c62:	0105d793          	srli	a5,a1,0x10
     c66:	81e1                	srli	a1,a1,0x18
     c68:	06f50f23          	sb	a5,126(a0)
     c6c:	06b50fa3          	sb	a1,127(a0)
     c70:	8082                	ret

00000c72 <tcp_sent>:
     c72:	0085d793          	srli	a5,a1,0x8
     c76:	06b50c23          	sb	a1,120(a0)
     c7a:	06f50ca3          	sb	a5,121(a0)
     c7e:	0105d793          	srli	a5,a1,0x10
     c82:	81e1                	srli	a1,a1,0x18
     c84:	06f50d23          	sb	a5,122(a0)
     c88:	06b50da3          	sb	a1,123(a0)
     c8c:	8082                	ret

00000c8e <tcp_err>:
     c8e:	0085d793          	srli	a5,a1,0x8
     c92:	08b50423          	sb	a1,136(a0)
     c96:	08f504a3          	sb	a5,137(a0)
     c9a:	0105d793          	srli	a5,a1,0x10
     c9e:	81e1                	srli	a1,a1,0x18
     ca0:	08f50523          	sb	a5,138(a0)
     ca4:	08b505a3          	sb	a1,139(a0)
     ca8:	8082                	ret

00000caa <tcp_accept>:
     caa:	0085d793          	srli	a5,a1,0x8
     cae:	00b50da3          	sb	a1,27(a0)
     cb2:	00f50e23          	sb	a5,28(a0)
     cb6:	0105d793          	srli	a5,a1,0x10
     cba:	81e1                	srli	a1,a1,0x18
     cbc:	00f50ea3          	sb	a5,29(a0)
     cc0:	00b50f23          	sb	a1,30(a0)
     cc4:	8082                	ret

00000cc6 <tcp_poll>:
     cc6:	0085d793          	srli	a5,a1,0x8
     cca:	08b50223          	sb	a1,132(a0)
     cce:	08f502a3          	sb	a5,133(a0)
     cd2:	0105d793          	srli	a5,a1,0x10
     cd6:	81e1                	srli	a1,a1,0x18
     cd8:	08f50323          	sb	a5,134(a0)
     cdc:	08b503a3          	sb	a1,135(a0)
     ce0:	02c509a3          	sb	a2,51(a0)
     ce4:	8082                	ret

00000ce6 <tcp_pcb_purge>:
     ce6:	01154703          	lbu	a4,17(a0)
     cea:	01054783          	lbu	a5,16(a0)
     cee:	0722                	slli	a4,a4,0x8
     cf0:	8f5d                	or	a4,a4,a5
     cf2:	01254783          	lbu	a5,18(a0)
     cf6:	07c2                	slli	a5,a5,0x10
     cf8:	8f5d                	or	a4,a4,a5
     cfa:	01354783          	lbu	a5,19(a0)
     cfe:	07e2                	slli	a5,a5,0x18
     d00:	8fd9                	or	a5,a5,a4
     d02:	4705                	li	a4,1
     d04:	0ef77163          	bgeu	a4,a5,de6 <tcp_pcb_purge+0x100>
     d08:	4729                	li	a4,10
     d0a:	0ce78e63          	beq	a5,a4,de6 <tcp_pcb_purge+0x100>
     d0e:	2001f317          	auipc	t1,0x2001f
     d12:	322302e7          	jalr	t0,802(t1) # 20020030 <__riscv_save_0>
     d16:	842a                	mv	s0,a0
     d18:	07544783          	lbu	a5,117(s0)
     d1c:	07454503          	lbu	a0,116(a0)
     d20:	07a2                	slli	a5,a5,0x8
     d22:	8fc9                	or	a5,a5,a0
     d24:	07644503          	lbu	a0,118(s0)
     d28:	0542                	slli	a0,a0,0x10
     d2a:	8fc9                	or	a5,a5,a0
     d2c:	07744503          	lbu	a0,119(s0)
     d30:	0562                	slli	a0,a0,0x18
     d32:	8d5d                	or	a0,a0,a5
     d34:	c919                	beqz	a0,d4a <tcp_pcb_purge+0x64>
     d36:	6c0060ef          	jal	ra,73f6 <pbuf_free>
     d3a:	06040a23          	sb	zero,116(s0)
     d3e:	06040aa3          	sb	zero,117(s0)
     d42:	06040b23          	sb	zero,118(s0)
     d46:	06040ba3          	sb	zero,119(s0)
     d4a:	07144503          	lbu	a0,113(s0)
     d4e:	07044783          	lbu	a5,112(s0)
     d52:	577d                	li	a4,-1
     d54:	0522                	slli	a0,a0,0x8
     d56:	8d5d                	or	a0,a0,a5
     d58:	07244783          	lbu	a5,114(s0)
     d5c:	02e40a23          	sb	a4,52(s0)
     d60:	02e40aa3          	sb	a4,53(s0)
     d64:	07c2                	slli	a5,a5,0x10
     d66:	8fc9                	or	a5,a5,a0
     d68:	07344503          	lbu	a0,115(s0)
     d6c:	0562                	slli	a0,a0,0x18
     d6e:	8d5d                	or	a0,a0,a5
     d70:	3d8d                	jal	be2 <tcp_segs_free>
     d72:	06944503          	lbu	a0,105(s0)
     d76:	06844783          	lbu	a5,104(s0)
     d7a:	06040823          	sb	zero,112(s0)
     d7e:	0522                	slli	a0,a0,0x8
     d80:	8d5d                	or	a0,a0,a5
     d82:	06a44783          	lbu	a5,106(s0)
     d86:	060408a3          	sb	zero,113(s0)
     d8a:	06040923          	sb	zero,114(s0)
     d8e:	07c2                	slli	a5,a5,0x10
     d90:	8fc9                	or	a5,a5,a0
     d92:	06b44503          	lbu	a0,107(s0)
     d96:	060409a3          	sb	zero,115(s0)
     d9a:	0562                	slli	a0,a0,0x18
     d9c:	8d5d                	or	a0,a0,a5
     d9e:	3591                	jal	be2 <tcp_segs_free>
     da0:	06d44503          	lbu	a0,109(s0)
     da4:	06c44783          	lbu	a5,108(s0)
     da8:	0522                	slli	a0,a0,0x8
     daa:	8d5d                	or	a0,a0,a5
     dac:	06e44783          	lbu	a5,110(s0)
     db0:	07c2                	slli	a5,a5,0x10
     db2:	8fc9                	or	a5,a5,a0
     db4:	06f44503          	lbu	a0,111(s0)
     db8:	0562                	slli	a0,a0,0x18
     dba:	8d5d                	or	a0,a0,a5
     dbc:	351d                	jal	be2 <tcp_segs_free>
     dbe:	06040423          	sb	zero,104(s0)
     dc2:	060404a3          	sb	zero,105(s0)
     dc6:	06040523          	sb	zero,106(s0)
     dca:	060405a3          	sb	zero,107(s0)
     dce:	06040623          	sb	zero,108(s0)
     dd2:	060406a3          	sb	zero,109(s0)
     dd6:	06040723          	sb	zero,110(s0)
     dda:	060407a3          	sb	zero,111(s0)
     dde:	2001f317          	auipc	t1,0x2001f
     de2:	27630067          	jr	630(t1) # 20020054 <__riscv_restore_0>
     de6:	8082                	ret

00000de8 <tcp_slowtmr>:
     de8:	2001f317          	auipc	t1,0x2001f
     dec:	218302e7          	jalr	t0,536(t1) # 20020000 <__riscv_save_12>
     df0:	20001497          	auipc	s1,0x20001
     df4:	47848493          	addi	s1,s1,1144 # 20002268 <tcp_ticks>
     df8:	409c                	lw	a5,0(s1)
     dfa:	20001b17          	auipc	s6,0x20001
     dfe:	3deb4b03          	lbu	s6,990(s6) # 200021d8 <CH569Inf+0x18>
     e02:	06600993          	li	s3,102
     e06:	0785                	addi	a5,a5,1
     e08:	20001717          	auipc	a4,0x20001
     e0c:	46f72023          	sw	a5,1120(a4) # 20002268 <tcp_ticks>
     e10:	20001797          	auipc	a5,0x20001
     e14:	45478793          	addi	a5,a5,1108 # 20002264 <tcp_active_pcbs>
     e18:	4380                	lw	s0,0(a5)
     e1a:	4901                	li	s2,0
     e1c:	4b89                	li	s7,2
     e1e:	1ffffd97          	auipc	s11,0x1ffff
     e22:	28ad8d93          	addi	s11,s11,650 # 200000a8 <tcp_persist_backoff>
     e26:	4a19                	li	s4,6
     e28:	02800c13          	li	s8,40
     e2c:	20001c97          	auipc	s9,0x20001
     e30:	388c8c93          	addi	s9,s9,904 # 200021b4 <KeepLiveCfg>
     e34:	ec01                	bnez	s0,e4c <tcp_slowtmr+0x64>
     e36:	20001797          	auipc	a5,0x20001
     e3a:	44278793          	addi	a5,a5,1090 # 20002278 <tcp_tw_pcbs>
     e3e:	4380                	lw	s0,0(a5)
     e40:	54041463          	bnez	s0,1388 <tcp_slowtmr+0x5a0>
     e44:	2001f317          	auipc	t1,0x2001f
     e48:	1f830067          	jr	504(t1) # 2002003c <__riscv_restore_12>
     e4c:	19fd                	addi	s3,s3,-1
     e4e:	0ff9f993          	andi	s3,s3,255
     e52:	fe0989e3          	beqz	s3,e44 <tcp_slowtmr+0x5c>
     e56:	01144783          	lbu	a5,17(s0)
     e5a:	01044683          	lbu	a3,16(s0)
     e5e:	04644603          	lbu	a2,70(s0)
     e62:	07a2                	slli	a5,a5,0x8
     e64:	8fd5                	or	a5,a5,a3
     e66:	01244683          	lbu	a3,18(s0)
     e6a:	4d05                	li	s10,1
     e6c:	06c2                	slli	a3,a3,0x10
     e6e:	8fd5                	or	a5,a5,a3
     e70:	01344683          	lbu	a3,19(s0)
     e74:	06e2                	slli	a3,a3,0x18
     e76:	8edd                	or	a3,a3,a5
     e78:	04cb0a63          	beq	s6,a2,ecc <tcp_slowtmr+0xe4>
     e7c:	09444d03          	lbu	s10,148(s0)
     e80:	240d0563          	beqz	s10,10ca <tcp_slowtmr+0x2e2>
     e84:	09144683          	lbu	a3,145(s0)
     e88:	09044703          	lbu	a4,144(s0)
     e8c:	06a2                	slli	a3,a3,0x8
     e8e:	8ed9                	or	a3,a3,a4
     e90:	09244703          	lbu	a4,146(s0)
     e94:	0742                	slli	a4,a4,0x10
     e96:	8ed9                	or	a3,a3,a4
     e98:	09344703          	lbu	a4,147(s0)
     e9c:	0762                	slli	a4,a4,0x18
     e9e:	8f55                	or	a4,a4,a3
     ea0:	0705                	addi	a4,a4,1
     ea2:	00875693          	srli	a3,a4,0x8
     ea6:	08d408a3          	sb	a3,145(s0)
     eaa:	01075693          	srli	a3,a4,0x10
     eae:	08d40923          	sb	a3,146(s0)
     eb2:	01875693          	srli	a3,a4,0x18
     eb6:	08d409a3          	sb	a3,147(s0)
     eba:	01ad86b3          	add	a3,s11,s10
     ebe:	fff6c683          	lbu	a3,-1(a3)
     ec2:	08e40823          	sb	a4,144(s0)
     ec6:	1ed77063          	bgeu	a4,a3,10a6 <tcp_slowtmr+0x2be>
     eca:	4d01                	li	s10,0
     ecc:	01144683          	lbu	a3,17(s0)
     ed0:	01044703          	lbu	a4,16(s0)
     ed4:	06a2                	slli	a3,a3,0x8
     ed6:	8ed9                	or	a3,a3,a4
     ed8:	01244703          	lbu	a4,18(s0)
     edc:	0742                	slli	a4,a4,0x10
     ede:	8ed9                	or	a3,a3,a4
     ee0:	01344703          	lbu	a4,19(s0)
     ee4:	0762                	slli	a4,a4,0x18
     ee6:	8f55                	or	a4,a4,a3
     ee8:	03471963          	bne	a4,s4,f1a <tcp_slowtmr+0x132>
     eec:	02f44603          	lbu	a2,47(s0)
     ef0:	02e44683          	lbu	a3,46(s0)
     ef4:	0622                	slli	a2,a2,0x8
     ef6:	8e55                	or	a2,a2,a3
     ef8:	03044683          	lbu	a3,48(s0)
     efc:	06c2                	slli	a3,a3,0x10
     efe:	8e55                	or	a2,a2,a3
     f00:	03144683          	lbu	a3,49(s0)
     f04:	06e2                	slli	a3,a3,0x18
     f06:	8ed1                	or	a3,a3,a2
     f08:	4090                	lw	a2,0(s1)
     f0a:	40d606b3          	sub	a3,a2,a3
     f0e:	00dc7663          	bgeu	s8,a3,f1a <tcp_slowtmr+0x132>
     f12:	001d0793          	addi	a5,s10,1
     f16:	0ff7fd13          	andi	s10,a5,255
     f1a:	00844683          	lbu	a3,8(s0)
     f1e:	4a81                	li	s5,0
     f20:	8aa1                	andi	a3,a3,8
     f22:	c6bd                	beqz	a3,f90 <tcp_slowtmr+0x1a8>
     f24:	4691                	li	a3,4
     f26:	00d70563          	beq	a4,a3,f30 <tcp_slowtmr+0x148>
     f2a:	469d                	li	a3,7
     f2c:	06d71263          	bne	a4,a3,f90 <tcp_slowtmr+0x1a8>
     f30:	02f44703          	lbu	a4,47(s0)
     f34:	02e44583          	lbu	a1,46(s0)
     f38:	08d44603          	lbu	a2,141(s0)
     f3c:	0722                	slli	a4,a4,0x8
     f3e:	8dd9                	or	a1,a1,a4
     f40:	03044703          	lbu	a4,48(s0)
     f44:	004ca803          	lw	a6,4(s9)
     f48:	008ca683          	lw	a3,8(s9)
     f4c:	0742                	slli	a4,a4,0x10
     f4e:	8f4d                	or	a4,a4,a1
     f50:	03144583          	lbu	a1,49(s0)
     f54:	0622                	slli	a2,a2,0x8
     f56:	02d806b3          	mul	a3,a6,a3
     f5a:	05e2                	slli	a1,a1,0x18
     f5c:	8f4d                	or	a4,a4,a1
     f5e:	408c                	lw	a1,0(s1)
     f60:	1f400513          	li	a0,500
     f64:	8d99                	sub	a1,a1,a4
     f66:	08c44703          	lbu	a4,140(s0)
     f6a:	8f51                	or	a4,a4,a2
     f6c:	08e44603          	lbu	a2,142(s0)
     f70:	0642                	slli	a2,a2,0x10
     f72:	8e59                	or	a2,a2,a4
     f74:	08f44703          	lbu	a4,143(s0)
     f78:	0762                	slli	a4,a4,0x18
     f7a:	8e59                	or	a2,a2,a4
     f7c:	96b2                	add	a3,a3,a2
     f7e:	02a6d6b3          	divu	a3,a3,a0
     f82:	24b6fb63          	bgeu	a3,a1,11d8 <tcp_slowtmr+0x3f0>
     f86:	001d0793          	addi	a5,s10,1
     f8a:	0ff7fd13          	andi	s10,a5,255
     f8e:	4a85                	li	s5,1
     f90:	07144703          	lbu	a4,113(s0)
     f94:	07044503          	lbu	a0,112(s0)
     f98:	0722                	slli	a4,a4,0x8
     f9a:	8f49                	or	a4,a4,a0
     f9c:	07244503          	lbu	a0,114(s0)
     fa0:	0542                	slli	a0,a0,0x10
     fa2:	8f49                	or	a4,a4,a0
     fa4:	07344503          	lbu	a0,115(s0)
     fa8:	0562                	slli	a0,a0,0x18
     faa:	8d59                	or	a0,a0,a4
     fac:	c531                	beqz	a0,ff8 <tcp_slowtmr+0x210>
     fae:	02f44683          	lbu	a3,47(s0)
     fb2:	02e44703          	lbu	a4,46(s0)
     fb6:	04444603          	lbu	a2,68(s0)
     fba:	06a2                	slli	a3,a3,0x8
     fbc:	8ed9                	or	a3,a3,a4
     fbe:	03044703          	lbu	a4,48(s0)
     fc2:	0742                	slli	a4,a4,0x10
     fc4:	8ed9                	or	a3,a3,a4
     fc6:	03144703          	lbu	a4,49(s0)
     fca:	0762                	slli	a4,a4,0x18
     fcc:	8f55                	or	a4,a4,a3
     fce:	4094                	lw	a3,0(s1)
     fd0:	8e99                	sub	a3,a3,a4
     fd2:	04544703          	lbu	a4,69(s0)
     fd6:	0722                	slli	a4,a4,0x8
     fd8:	8f51                	or	a4,a4,a2
     fda:	0742                	slli	a4,a4,0x10
     fdc:	8741                	srai	a4,a4,0x10
     fde:	03470733          	mul	a4,a4,s4
     fe2:	00e6eb63          	bltu	a3,a4,ff8 <tcp_slowtmr+0x210>
     fe6:	3ef5                	jal	be2 <tcp_segs_free>
     fe8:	06040823          	sb	zero,112(s0)
     fec:	060408a3          	sb	zero,113(s0)
     ff0:	06040923          	sb	zero,114(s0)
     ff4:	060409a3          	sb	zero,115(s0)
     ff8:	01144683          	lbu	a3,17(s0)
     ffc:	01044703          	lbu	a4,16(s0)
    1000:	06a2                	slli	a3,a3,0x8
    1002:	8ed9                	or	a3,a3,a4
    1004:	01244703          	lbu	a4,18(s0)
    1008:	0742                	slli	a4,a4,0x10
    100a:	8ed9                	or	a3,a3,a4
    100c:	01344703          	lbu	a4,19(s0)
    1010:	0762                	slli	a4,a4,0x18
    1012:	8f55                	or	a4,a4,a3
    1014:	468d                	li	a3,3
    1016:	1ed71463          	bne	a4,a3,11fe <tcp_slowtmr+0x416>
    101a:	02f44683          	lbu	a3,47(s0)
    101e:	02e44703          	lbu	a4,46(s0)
    1022:	06a2                	slli	a3,a3,0x8
    1024:	8ed9                	or	a3,a3,a4
    1026:	03044703          	lbu	a4,48(s0)
    102a:	0742                	slli	a4,a4,0x10
    102c:	8ed9                	or	a3,a3,a4
    102e:	03144703          	lbu	a4,49(s0)
    1032:	0762                	slli	a4,a4,0x18
    1034:	8f55                	or	a4,a4,a3
    1036:	4094                	lw	a3,0(s1)
    1038:	40e68733          	sub	a4,a3,a4
    103c:	1eec6963          	bltu	s8,a4,122e <tcp_slowtmr+0x446>
    1040:	1e0d1763          	bnez	s10,122e <tcp_slowtmr+0x446>
    1044:	03244783          	lbu	a5,50(s0)
    1048:	03344703          	lbu	a4,51(s0)
    104c:	0785                	addi	a5,a5,1
    104e:	0ff7f793          	andi	a5,a5,255
    1052:	02f40923          	sb	a5,50(s0)
    1056:	02e7e763          	bltu	a5,a4,1084 <tcp_slowtmr+0x29c>
    105a:	08544703          	lbu	a4,133(s0)
    105e:	08444783          	lbu	a5,132(s0)
    1062:	02040923          	sb	zero,50(s0)
    1066:	0722                	slli	a4,a4,0x8
    1068:	8f5d                	or	a4,a4,a5
    106a:	08644783          	lbu	a5,134(s0)
    106e:	07c2                	slli	a5,a5,0x10
    1070:	8f5d                	or	a4,a4,a5
    1072:	08744783          	lbu	a5,135(s0)
    1076:	07e2                	slli	a5,a5,0x18
    1078:	8fd9                	or	a5,a5,a4
    107a:	2e079463          	bnez	a5,1362 <tcp_slowtmr+0x57a>
    107e:	8522                	mv	a0,s0
    1080:	7b1030ef          	jal	ra,5030 <tcp_output>
    1084:	00d44783          	lbu	a5,13(s0)
    1088:	00c44703          	lbu	a4,12(s0)
    108c:	8922                	mv	s2,s0
    108e:	07a2                	slli	a5,a5,0x8
    1090:	8f5d                	or	a4,a4,a5
    1092:	00e44783          	lbu	a5,14(s0)
    1096:	07c2                	slli	a5,a5,0x10
    1098:	8fd9                	or	a5,a5,a4
    109a:	00f44703          	lbu	a4,15(s0)
    109e:	0762                	slli	a4,a4,0x18
    10a0:	00f76433          	or	s0,a4,a5
    10a4:	bb41                	j	e34 <tcp_slowtmr+0x4c>
    10a6:	08040823          	sb	zero,144(s0)
    10aa:	080408a3          	sb	zero,145(s0)
    10ae:	08040923          	sb	zero,146(s0)
    10b2:	080409a3          	sb	zero,147(s0)
    10b6:	01aa6663          	bltu	s4,s10,10c2 <tcp_slowtmr+0x2da>
    10ba:	001d0793          	addi	a5,s10,1
    10be:	08f40a23          	sb	a5,148(s0)
    10c2:	8522                	mv	a0,s0
    10c4:	245040ef          	jal	ra,5b08 <tcp_zero_window_probe>
    10c8:	b509                	j	eca <tcp_slowtmr+0xe2>
    10ca:	03544703          	lbu	a4,53(s0)
    10ce:	03444583          	lbu	a1,52(s0)
    10d2:	0722                	slli	a4,a4,0x8
    10d4:	8f4d                	or	a4,a4,a1
    10d6:	0742                	slli	a4,a4,0x10
    10d8:	8741                	srai	a4,a4,0x10
    10da:	00074a63          	bltz	a4,10ee <tcp_slowtmr+0x306>
    10de:	0705                	addi	a4,a4,1
    10e0:	0742                	slli	a4,a4,0x10
    10e2:	8341                	srli	a4,a4,0x10
    10e4:	02e40a23          	sb	a4,52(s0)
    10e8:	8321                	srli	a4,a4,0x8
    10ea:	02e40aa3          	sb	a4,53(s0)
    10ee:	06d44583          	lbu	a1,109(s0)
    10f2:	06c44703          	lbu	a4,108(s0)
    10f6:	05a2                	slli	a1,a1,0x8
    10f8:	8dd9                	or	a1,a1,a4
    10fa:	06e44703          	lbu	a4,110(s0)
    10fe:	0742                	slli	a4,a4,0x10
    1100:	8dd9                	or	a1,a1,a4
    1102:	06f44703          	lbu	a4,111(s0)
    1106:	0762                	slli	a4,a4,0x18
    1108:	8f4d                	or	a4,a4,a1
    110a:	dc0700e3          	beqz	a4,eca <tcp_slowtmr+0xe2>
    110e:	03544703          	lbu	a4,53(s0)
    1112:	03444583          	lbu	a1,52(s0)
    1116:	0722                	slli	a4,a4,0x8
    1118:	8f4d                	or	a4,a4,a1
    111a:	0742                	slli	a4,a4,0x10
    111c:	8741                	srai	a4,a4,0x10
    111e:	dae056e3          	blez	a4,eca <tcp_slowtmr+0xe2>
    1122:	05768463          	beq	a3,s7,116a <tcp_slowtmr+0x382>
    1126:	04144703          	lbu	a4,65(s0)
    112a:	04044683          	lbu	a3,64(s0)
    112e:	04244583          	lbu	a1,66(s0)
    1132:	0722                	slli	a4,a4,0x8
    1134:	8f55                	or	a4,a4,a3
    1136:	04344683          	lbu	a3,67(s0)
    113a:	0742                	slli	a4,a4,0x10
    113c:	8741                	srai	a4,a4,0x10
    113e:	06a2                	slli	a3,a3,0x8
    1140:	8ecd                	or	a3,a3,a1
    1142:	06c2                	slli	a3,a3,0x10
    1144:	20027797          	auipc	a5,0x20027
    1148:	12878793          	addi	a5,a5,296 # 2002826c <tcp_backoff>
    114c:	86c1                	srai	a3,a3,0x10
    114e:	870d                	srai	a4,a4,0x3
    1150:	963e                	add	a2,a2,a5
    1152:	9736                	add	a4,a4,a3
    1154:	00064683          	lbu	a3,0(a2)
    1158:	00d71733          	sll	a4,a4,a3
    115c:	0742                	slli	a4,a4,0x10
    115e:	8341                	srli	a4,a4,0x10
    1160:	04e40223          	sb	a4,68(s0)
    1164:	8321                	srli	a4,a4,0x8
    1166:	04e402a3          	sb	a4,69(s0)
    116a:	05544603          	lbu	a2,85(s0)
    116e:	05444703          	lbu	a4,84(s0)
    1172:	04c44683          	lbu	a3,76(s0)
    1176:	0622                	slli	a2,a2,0x8
    1178:	8e59                	or	a2,a2,a4
    117a:	04d44703          	lbu	a4,77(s0)
    117e:	02040a23          	sb	zero,52(s0)
    1182:	02040aa3          	sb	zero,53(s0)
    1186:	0722                	slli	a4,a4,0x8
    1188:	8f55                	or	a4,a4,a3
    118a:	86b2                	mv	a3,a2
    118c:	00c77363          	bgeu	a4,a2,1192 <tcp_slowtmr+0x3aa>
    1190:	86ba                	mv	a3,a4
    1192:	06c2                	slli	a3,a3,0x10
    1194:	82c1                	srli	a3,a3,0x10
    1196:	8285                	srli	a3,a3,0x1
    1198:	0086d713          	srli	a4,a3,0x8
    119c:	04e407a3          	sb	a4,79(s0)
    11a0:	03744703          	lbu	a4,55(s0)
    11a4:	03644603          	lbu	a2,54(s0)
    11a8:	04d40723          	sb	a3,78(s0)
    11ac:	0722                	slli	a4,a4,0x8
    11ae:	8f51                	or	a4,a4,a2
    11b0:	00e6fb63          	bgeu	a3,a4,11c6 <tcp_slowtmr+0x3de>
    11b4:	00171693          	slli	a3,a4,0x1
    11b8:	06c2                	slli	a3,a3,0x10
    11ba:	82c1                	srli	a3,a3,0x10
    11bc:	04d40723          	sb	a3,78(s0)
    11c0:	82a1                	srli	a3,a3,0x8
    11c2:	04d407a3          	sb	a3,79(s0)
    11c6:	04e40623          	sb	a4,76(s0)
    11ca:	8321                	srli	a4,a4,0x8
    11cc:	04e406a3          	sb	a4,77(s0)
    11d0:	8522                	mv	a0,s0
    11d2:	698040ef          	jal	ra,586a <tcp_rexmit_rto>
    11d6:	b9dd                	j	ecc <tcp_slowtmr+0xe4>
    11d8:	09544703          	lbu	a4,149(s0)
    11dc:	4a81                	li	s5,0
    11de:	03070733          	mul	a4,a4,a6
    11e2:	9732                	add	a4,a4,a2
    11e4:	02a75733          	divu	a4,a4,a0
    11e8:	dab774e3          	bgeu	a4,a1,f90 <tcp_slowtmr+0x1a8>
    11ec:	8522                	mv	a0,s0
    11ee:	0b3040ef          	jal	ra,5aa0 <tcp_keepalive>
    11f2:	09544703          	lbu	a4,149(s0)
    11f6:	0705                	addi	a4,a4,1
    11f8:	08e40aa3          	sb	a4,149(s0)
    11fc:	bb51                	j	f90 <tcp_slowtmr+0x1a8>
    11fe:	46a5                	li	a3,9
    1200:	e4d710e3          	bne	a4,a3,1040 <tcp_slowtmr+0x258>
    1204:	02f44683          	lbu	a3,47(s0)
    1208:	02e44703          	lbu	a4,46(s0)
    120c:	06a2                	slli	a3,a3,0x8
    120e:	8ed9                	or	a3,a3,a4
    1210:	03044703          	lbu	a4,48(s0)
    1214:	0742                	slli	a4,a4,0x10
    1216:	8ed9                	or	a3,a3,a4
    1218:	03144703          	lbu	a4,49(s0)
    121c:	0762                	slli	a4,a4,0x18
    121e:	8f55                	or	a4,a4,a3
    1220:	4094                	lw	a3,0(s1)
    1222:	40e68733          	sub	a4,a3,a4
    1226:	0f000693          	li	a3,240
    122a:	e0e6fbe3          	bgeu	a3,a4,1040 <tcp_slowtmr+0x258>
    122e:	8522                	mv	a0,s0
    1230:	20022097          	auipc	ra,0x20022
    1234:	6da080e7          	jalr	1754(ra) # 2002390a <LwipRemoveTcpPcb>
    1238:	8522                	mv	a0,s0
    123a:	3475                	jal	ce6 <tcp_pcb_purge>
    123c:	00d44603          	lbu	a2,13(s0)
    1240:	00c44783          	lbu	a5,12(s0)
    1244:	00e44683          	lbu	a3,14(s0)
    1248:	00f44703          	lbu	a4,15(s0)
    124c:	0622                	slli	a2,a2,0x8
    124e:	10090063          	beqz	s2,134e <tcp_slowtmr+0x566>
    1252:	8fd1                	or	a5,a5,a2
    1254:	06c2                	slli	a3,a3,0x10
    1256:	8edd                	or	a3,a3,a5
    1258:	01871793          	slli	a5,a4,0x18
    125c:	8fd5                	or	a5,a5,a3
    125e:	0087d713          	srli	a4,a5,0x8
    1262:	00f90623          	sb	a5,12(s2)
    1266:	00e906a3          	sb	a4,13(s2)
    126a:	0107d713          	srli	a4,a5,0x10
    126e:	83e1                	srli	a5,a5,0x18
    1270:	00e90723          	sb	a4,14(s2)
    1274:	00f907a3          	sb	a5,15(s2)
    1278:	08944703          	lbu	a4,137(s0)
    127c:	08844783          	lbu	a5,136(s0)
    1280:	0722                	slli	a4,a4,0x8
    1282:	8f5d                	or	a4,a4,a5
    1284:	08a44783          	lbu	a5,138(s0)
    1288:	07c2                	slli	a5,a5,0x10
    128a:	8f5d                	or	a4,a4,a5
    128c:	08b44783          	lbu	a5,139(s0)
    1290:	07e2                	slli	a5,a5,0x18
    1292:	8fd9                	or	a5,a5,a4
    1294:	c38d                	beqz	a5,12b6 <tcp_slowtmr+0x4ce>
    1296:	01644503          	lbu	a0,22(s0)
    129a:	01544703          	lbu	a4,21(s0)
    129e:	55ed                	li	a1,-5
    12a0:	0522                	slli	a0,a0,0x8
    12a2:	8d59                	or	a0,a0,a4
    12a4:	01744703          	lbu	a4,23(s0)
    12a8:	0742                	slli	a4,a4,0x10
    12aa:	8f49                	or	a4,a4,a0
    12ac:	01844503          	lbu	a0,24(s0)
    12b0:	0562                	slli	a0,a0,0x18
    12b2:	8d59                	or	a0,a0,a4
    12b4:	9782                	jalr	a5
    12b6:	060a8563          	beqz	s5,1320 <tcp_slowtmr+0x538>
    12ba:	02344583          	lbu	a1,35(s0)
    12be:	05144503          	lbu	a0,81(s0)
    12c2:	02244883          	lbu	a7,34(s0)
    12c6:	05044803          	lbu	a6,80(s0)
    12ca:	05a2                	slli	a1,a1,0x8
    12cc:	0522                	slli	a0,a0,0x8
    12ce:	0115e5b3          	or	a1,a1,a7
    12d2:	01056533          	or	a0,a0,a6
    12d6:	02444883          	lbu	a7,36(s0)
    12da:	05244803          	lbu	a6,82(s0)
    12de:	02044783          	lbu	a5,32(s0)
    12e2:	08c2                	slli	a7,a7,0x10
    12e4:	0842                	slli	a6,a6,0x10
    12e6:	00b8e8b3          	or	a7,a7,a1
    12ea:	00a86833          	or	a6,a6,a0
    12ee:	01a44703          	lbu	a4,26(s0)
    12f2:	02544583          	lbu	a1,37(s0)
    12f6:	05344503          	lbu	a0,83(s0)
    12fa:	01f44603          	lbu	a2,31(s0)
    12fe:	01944683          	lbu	a3,25(s0)
    1302:	07a2                	slli	a5,a5,0x8
    1304:	0722                	slli	a4,a4,0x8
    1306:	05e2                	slli	a1,a1,0x18
    1308:	0562                	slli	a0,a0,0x18
    130a:	8fd1                	or	a5,a5,a2
    130c:	8f55                	or	a4,a4,a3
    130e:	8622                	mv	a2,s0
    1310:	00440693          	addi	a3,s0,4
    1314:	0115e5b3          	or	a1,a1,a7
    1318:	01056533          	or	a0,a0,a6
    131c:	3ea040ef          	jal	ra,5706 <tcp_rst>
    1320:	00d44783          	lbu	a5,13(s0)
    1324:	00c44a83          	lbu	s5,12(s0)
    1328:	85a2                	mv	a1,s0
    132a:	07a2                	slli	a5,a5,0x8
    132c:	0157e7b3          	or	a5,a5,s5
    1330:	00e44a83          	lbu	s5,14(s0)
    1334:	4509                	li	a0,2
    1336:	0ac2                	slli	s5,s5,0x10
    1338:	00fae7b3          	or	a5,s5,a5
    133c:	00f44a83          	lbu	s5,15(s0)
    1340:	0ae2                	slli	s5,s5,0x18
    1342:	00faeab3          	or	s5,s5,a5
    1346:	8456                	mv	s0,s5
    1348:	3a8050ef          	jal	ra,66f0 <memp_free>
    134c:	b4e5                	j	e34 <tcp_slowtmr+0x4c>
    134e:	8e5d                	or	a2,a2,a5
    1350:	06c2                	slli	a3,a3,0x10
    1352:	8ed1                	or	a3,a3,a2
    1354:	0762                	slli	a4,a4,0x18
    1356:	8f55                	or	a4,a4,a3
    1358:	20001797          	auipc	a5,0x20001
    135c:	f0e7a623          	sw	a4,-244(a5) # 20002264 <tcp_active_pcbs>
    1360:	bf21                	j	1278 <tcp_slowtmr+0x490>
    1362:	01644503          	lbu	a0,22(s0)
    1366:	01544703          	lbu	a4,21(s0)
    136a:	85a2                	mv	a1,s0
    136c:	0522                	slli	a0,a0,0x8
    136e:	8d59                	or	a0,a0,a4
    1370:	01744703          	lbu	a4,23(s0)
    1374:	0742                	slli	a4,a4,0x10
    1376:	8f49                	or	a4,a4,a0
    1378:	01844503          	lbu	a0,24(s0)
    137c:	0562                	slli	a0,a0,0x18
    137e:	8d59                	or	a0,a0,a4
    1380:	9782                	jalr	a5
    1382:	ce050ee3          	beqz	a0,107e <tcp_slowtmr+0x296>
    1386:	b9fd                	j	1084 <tcp_slowtmr+0x29c>
    1388:	8522                	mv	a0,s0
    138a:	20022097          	auipc	ra,0x20022
    138e:	580080e7          	jalr	1408(ra) # 2002390a <LwipRemoveTcpPcb>
    1392:	8522                	mv	a0,s0
    1394:	3a89                	jal	ce6 <tcp_pcb_purge>
    1396:	00d44783          	lbu	a5,13(s0)
    139a:	00c44483          	lbu	s1,12(s0)
    139e:	85a2                	mv	a1,s0
    13a0:	07a2                	slli	a5,a5,0x8
    13a2:	8fc5                	or	a5,a5,s1
    13a4:	00e44483          	lbu	s1,14(s0)
    13a8:	4509                	li	a0,2
    13aa:	04c2                	slli	s1,s1,0x10
    13ac:	8fc5                	or	a5,a5,s1
    13ae:	00f44483          	lbu	s1,15(s0)
    13b2:	04e2                	slli	s1,s1,0x18
    13b4:	8cdd                	or	s1,s1,a5
    13b6:	20001797          	auipc	a5,0x20001
    13ba:	ec97a123          	sw	s1,-318(a5) # 20002278 <tcp_tw_pcbs>
    13be:	8426                	mv	s0,s1
    13c0:	330050ef          	jal	ra,66f0 <memp_free>
    13c4:	bcb5                	j	e40 <tcp_slowtmr+0x58>

000013c6 <RemoveTimeWaiTCP>:
    13c6:	2001f317          	auipc	t1,0x2001f
    13ca:	c6a302e7          	jalr	t0,-918(t1) # 20020030 <__riscv_save_0>
    13ce:	20001797          	auipc	a5,0x20001
    13d2:	eaa78793          	addi	a5,a5,-342 # 20002278 <tcp_tw_pcbs>
    13d6:	4380                	lw	s0,0(a5)
    13d8:	e409                	bnez	s0,13e2 <RemoveTimeWaiTCP+0x1c>
    13da:	2001f317          	auipc	t1,0x2001f
    13de:	c7a30067          	jr	-902(t1) # 20020054 <__riscv_restore_0>
    13e2:	8522                	mv	a0,s0
    13e4:	20022097          	auipc	ra,0x20022
    13e8:	526080e7          	jalr	1318(ra) # 2002390a <LwipRemoveTcpPcb>
    13ec:	8522                	mv	a0,s0
    13ee:	38e5                	jal	ce6 <tcp_pcb_purge>
    13f0:	00d44783          	lbu	a5,13(s0)
    13f4:	00c44483          	lbu	s1,12(s0)
    13f8:	85a2                	mv	a1,s0
    13fa:	07a2                	slli	a5,a5,0x8
    13fc:	8fc5                	or	a5,a5,s1
    13fe:	00e44483          	lbu	s1,14(s0)
    1402:	4509                	li	a0,2
    1404:	04c2                	slli	s1,s1,0x10
    1406:	8fc5                	or	a5,a5,s1
    1408:	00f44483          	lbu	s1,15(s0)
    140c:	04e2                	slli	s1,s1,0x18
    140e:	8cdd                	or	s1,s1,a5
    1410:	20001797          	auipc	a5,0x20001
    1414:	e697a423          	sw	s1,-408(a5) # 20002278 <tcp_tw_pcbs>
    1418:	8426                	mv	s0,s1
    141a:	2d6050ef          	jal	ra,66f0 <memp_free>
    141e:	bf6d                	j	13d8 <RemoveTimeWaiTCP+0x12>

00001420 <tcp_pcb_remove>:
    1420:	2001f317          	auipc	t1,0x2001f
    1424:	c10302e7          	jalr	t0,-1008(t1) # 20020030 <__riscv_save_0>
    1428:	411c                	lw	a5,0(a0)
    142a:	842e                	mv	s0,a1
    142c:	08b79763          	bne	a5,a1,14ba <tcp_pcb_remove+0x9a>
    1430:	00d5c703          	lbu	a4,13(a1)
    1434:	00c5c783          	lbu	a5,12(a1)
    1438:	0722                	slli	a4,a4,0x8
    143a:	8f5d                	or	a4,a4,a5
    143c:	00e5c783          	lbu	a5,14(a1)
    1440:	07c2                	slli	a5,a5,0x10
    1442:	8f5d                	or	a4,a4,a5
    1444:	00f5c783          	lbu	a5,15(a1)
    1448:	07e2                	slli	a5,a5,0x18
    144a:	8fd9                	or	a5,a5,a4
    144c:	c11c                	sw	a5,0(a0)
    144e:	00040623          	sb	zero,12(s0)
    1452:	000406a3          	sb	zero,13(s0)
    1456:	00040723          	sb	zero,14(s0)
    145a:	000407a3          	sb	zero,15(s0)
    145e:	8522                	mv	a0,s0
    1460:	3059                	jal	ce6 <tcp_pcb_purge>
    1462:	01144703          	lbu	a4,17(s0)
    1466:	01044783          	lbu	a5,16(s0)
    146a:	0722                	slli	a4,a4,0x8
    146c:	8f5d                	or	a4,a4,a5
    146e:	01244783          	lbu	a5,18(s0)
    1472:	07c2                	slli	a5,a5,0x10
    1474:	8f5d                	or	a4,a4,a5
    1476:	01344783          	lbu	a5,19(s0)
    147a:	07e2                	slli	a5,a5,0x18
    147c:	8fd9                	or	a5,a5,a4
    147e:	4729                	li	a4,10
    1480:	02e78163          	beq	a5,a4,14a2 <tcp_pcb_remove+0x82>
    1484:	4705                	li	a4,1
    1486:	00e78e63          	beq	a5,a4,14a2 <tcp_pcb_remove+0x82>
    148a:	02144783          	lbu	a5,33(s0)
    148e:	0017f713          	andi	a4,a5,1
    1492:	cb01                	beqz	a4,14a2 <tcp_pcb_remove+0x82>
    1494:	0027e793          	ori	a5,a5,2
    1498:	02f400a3          	sb	a5,33(s0)
    149c:	8522                	mv	a0,s0
    149e:	393030ef          	jal	ra,5030 <tcp_output>
    14a2:	00040823          	sb	zero,16(s0)
    14a6:	000408a3          	sb	zero,17(s0)
    14aa:	00040923          	sb	zero,18(s0)
    14ae:	000409a3          	sb	zero,19(s0)
    14b2:	2001f317          	auipc	t1,0x2001f
    14b6:	ba230067          	jr	-1118(t1) # 20020054 <__riscv_restore_0>
    14ba:	20001717          	auipc	a4,0x20001
    14be:	daf72b23          	sw	a5,-586(a4) # 20002270 <tcp_tmp_pcb>
    14c2:	4601                	li	a2,0
    14c4:	e799                	bnez	a5,14d2 <tcp_pcb_remove+0xb2>
    14c6:	d641                	beqz	a2,144e <tcp_pcb_remove+0x2e>
    14c8:	20001797          	auipc	a5,0x20001
    14cc:	da07a423          	sw	zero,-600(a5) # 20002270 <tcp_tmp_pcb>
    14d0:	bfbd                	j	144e <tcp_pcb_remove+0x2e>
    14d2:	00d7c683          	lbu	a3,13(a5)
    14d6:	00c7c703          	lbu	a4,12(a5)
    14da:	06a2                	slli	a3,a3,0x8
    14dc:	8ed9                	or	a3,a3,a4
    14de:	00e7c703          	lbu	a4,14(a5)
    14e2:	0742                	slli	a4,a4,0x10
    14e4:	8ed9                	or	a3,a3,a4
    14e6:	00f7c703          	lbu	a4,15(a5)
    14ea:	0762                	slli	a4,a4,0x18
    14ec:	8f55                	or	a4,a4,a3
    14ee:	04871363          	bne	a4,s0,1534 <tcp_pcb_remove+0x114>
    14f2:	c609                	beqz	a2,14fc <tcp_pcb_remove+0xdc>
    14f4:	20001717          	auipc	a4,0x20001
    14f8:	d6f72e23          	sw	a5,-644(a4) # 20002270 <tcp_tmp_pcb>
    14fc:	00d44683          	lbu	a3,13(s0)
    1500:	00c44703          	lbu	a4,12(s0)
    1504:	06a2                	slli	a3,a3,0x8
    1506:	8ed9                	or	a3,a3,a4
    1508:	00e44703          	lbu	a4,14(s0)
    150c:	0742                	slli	a4,a4,0x10
    150e:	8ed9                	or	a3,a3,a4
    1510:	00f44703          	lbu	a4,15(s0)
    1514:	0762                	slli	a4,a4,0x18
    1516:	8f55                	or	a4,a4,a3
    1518:	00875693          	srli	a3,a4,0x8
    151c:	00e78623          	sb	a4,12(a5)
    1520:	00d786a3          	sb	a3,13(a5)
    1524:	01075693          	srli	a3,a4,0x10
    1528:	8361                	srli	a4,a4,0x18
    152a:	00d78723          	sb	a3,14(a5)
    152e:	00e787a3          	sb	a4,15(a5)
    1532:	bf31                	j	144e <tcp_pcb_remove+0x2e>
    1534:	4605                	li	a2,1
    1536:	87ba                	mv	a5,a4
    1538:	b771                	j	14c4 <tcp_pcb_remove+0xa4>

0000153a <tcp_close>:
    153a:	01154703          	lbu	a4,17(a0)
    153e:	01054783          	lbu	a5,16(a0)
    1542:	0722                	slli	a4,a4,0x8
    1544:	8f5d                	or	a4,a4,a5
    1546:	01254783          	lbu	a5,18(a0)
    154a:	07c2                	slli	a5,a5,0x10
    154c:	8f5d                	or	a4,a4,a5
    154e:	01354783          	lbu	a5,19(a0)
    1552:	07e2                	slli	a5,a5,0x18
    1554:	8fd9                	or	a5,a5,a4
    1556:	471d                	li	a4,7
    1558:	14f76d63          	bltu	a4,a5,16b2 <tcp_close+0x178>
    155c:	2001f317          	auipc	t1,0x2001f
    1560:	ad4302e7          	jalr	t0,-1324(t1) # 20020030 <__riscv_save_0>
    1564:	20027717          	auipc	a4,0x20027
    1568:	ce870713          	addi	a4,a4,-792 # 2002824c <ErrTable+0x74>
    156c:	078a                	slli	a5,a5,0x2
    156e:	97ba                	add	a5,a5,a4
    1570:	439c                	lw	a5,0(a5)
    1572:	842a                	mv	s0,a0
    1574:	97ba                	add	a5,a5,a4
    1576:	8782                	jr	a5
    1578:	20022097          	auipc	ra,0x20022
    157c:	392080e7          	jalr	914(ra) # 2002390a <LwipRemoveTcpPcb>
    1580:	20001797          	auipc	a5,0x20001
    1584:	cf478793          	addi	a5,a5,-780 # 20002274 <tcp_bound_pcbs>
    1588:	439c                	lw	a5,0(a5)
    158a:	02879f63          	bne	a5,s0,15c8 <tcp_close+0x8e>
    158e:	00d44703          	lbu	a4,13(s0)
    1592:	00c44783          	lbu	a5,12(s0)
    1596:	0722                	slli	a4,a4,0x8
    1598:	8f5d                	or	a4,a4,a5
    159a:	00e44783          	lbu	a5,14(s0)
    159e:	07c2                	slli	a5,a5,0x10
    15a0:	8f5d                	or	a4,a4,a5
    15a2:	00f44783          	lbu	a5,15(s0)
    15a6:	07e2                	slli	a5,a5,0x18
    15a8:	8fd9                	or	a5,a5,a4
    15aa:	20001717          	auipc	a4,0x20001
    15ae:	ccf72523          	sw	a5,-822(a4) # 20002274 <tcp_bound_pcbs>
    15b2:	00040623          	sb	zero,12(s0)
    15b6:	000406a3          	sb	zero,13(s0)
    15ba:	00040723          	sb	zero,14(s0)
    15be:	000407a3          	sb	zero,15(s0)
    15c2:	85a2                	mv	a1,s0
    15c4:	4509                	li	a0,2
    15c6:	a869                	j	1660 <tcp_close+0x126>
    15c8:	20001717          	auipc	a4,0x20001
    15cc:	caf72423          	sw	a5,-856(a4) # 20002270 <tcp_tmp_pcb>
    15d0:	4601                	li	a2,0
    15d2:	e799                	bnez	a5,15e0 <tcp_close+0xa6>
    15d4:	de79                	beqz	a2,15b2 <tcp_close+0x78>
    15d6:	20001797          	auipc	a5,0x20001
    15da:	c807ad23          	sw	zero,-870(a5) # 20002270 <tcp_tmp_pcb>
    15de:	bfd1                	j	15b2 <tcp_close+0x78>
    15e0:	00d7c683          	lbu	a3,13(a5)
    15e4:	00c7c703          	lbu	a4,12(a5)
    15e8:	06a2                	slli	a3,a3,0x8
    15ea:	8ed9                	or	a3,a3,a4
    15ec:	00e7c703          	lbu	a4,14(a5)
    15f0:	0742                	slli	a4,a4,0x10
    15f2:	8ed9                	or	a3,a3,a4
    15f4:	00f7c703          	lbu	a4,15(a5)
    15f8:	0762                	slli	a4,a4,0x18
    15fa:	8f55                	or	a4,a4,a3
    15fc:	04871363          	bne	a4,s0,1642 <tcp_close+0x108>
    1600:	c609                	beqz	a2,160a <tcp_close+0xd0>
    1602:	20001717          	auipc	a4,0x20001
    1606:	c6f72723          	sw	a5,-914(a4) # 20002270 <tcp_tmp_pcb>
    160a:	00d44683          	lbu	a3,13(s0)
    160e:	00c44703          	lbu	a4,12(s0)
    1612:	06a2                	slli	a3,a3,0x8
    1614:	8ed9                	or	a3,a3,a4
    1616:	00e44703          	lbu	a4,14(s0)
    161a:	0742                	slli	a4,a4,0x10
    161c:	8ed9                	or	a3,a3,a4
    161e:	00f44703          	lbu	a4,15(s0)
    1622:	0762                	slli	a4,a4,0x18
    1624:	8f55                	or	a4,a4,a3
    1626:	00875693          	srli	a3,a4,0x8
    162a:	00e78623          	sb	a4,12(a5)
    162e:	00d786a3          	sb	a3,13(a5)
    1632:	01075693          	srli	a3,a4,0x10
    1636:	8361                	srli	a4,a4,0x18
    1638:	00d78723          	sb	a3,14(a5)
    163c:	00e787a3          	sb	a4,15(a5)
    1640:	bf8d                	j	15b2 <tcp_close+0x78>
    1642:	4605                	li	a2,1
    1644:	87ba                	mv	a5,a4
    1646:	b771                	j	15d2 <tcp_close+0x98>
    1648:	20022097          	auipc	ra,0x20022
    164c:	2c2080e7          	jalr	706(ra) # 2002390a <LwipRemoveTcpPcb>
    1650:	85a2                	mv	a1,s0
    1652:	20001517          	auipc	a0,0x20001
    1656:	c1a50513          	addi	a0,a0,-998 # 2000226c <tcp_listen_pcbs>
    165a:	33d9                	jal	1420 <tcp_pcb_remove>
    165c:	85a2                	mv	a1,s0
    165e:	450d                	li	a0,3
    1660:	090050ef          	jal	ra,66f0 <memp_free>
    1664:	4501                	li	a0,0
    1666:	a00d                	j	1688 <tcp_close+0x14e>
    1668:	20022097          	auipc	ra,0x20022
    166c:	2a2080e7          	jalr	674(ra) # 2002390a <LwipRemoveTcpPcb>
    1670:	85a2                	mv	a1,s0
    1672:	20001517          	auipc	a0,0x20001
    1676:	bf250513          	addi	a0,a0,-1038 # 20002264 <tcp_active_pcbs>
    167a:	335d                	jal	1420 <tcp_pcb_remove>
    167c:	b799                	j	15c2 <tcp_close+0x88>
    167e:	4585                	li	a1,1
    1680:	0c9030ef          	jal	ra,4f48 <tcp_send_ctrl>
    1684:	4795                	li	a5,5
    1686:	c911                	beqz	a0,169a <tcp_close+0x160>
    1688:	2001f317          	auipc	t1,0x2001f
    168c:	9cc30067          	jr	-1588(t1) # 20020054 <__riscv_restore_0>
    1690:	4585                	li	a1,1
    1692:	0b7030ef          	jal	ra,4f48 <tcp_send_ctrl>
    1696:	f96d                	bnez	a0,1688 <tcp_close+0x14e>
    1698:	47a5                	li	a5,9
    169a:	00f40823          	sb	a5,16(s0)
    169e:	000408a3          	sb	zero,17(s0)
    16a2:	00040923          	sb	zero,18(s0)
    16a6:	000409a3          	sb	zero,19(s0)
    16aa:	8522                	mv	a0,s0
    16ac:	185030ef          	jal	ra,5030 <tcp_output>
    16b0:	bf55                	j	1664 <tcp_close+0x12a>
    16b2:	4501                	li	a0,0
    16b4:	8082                	ret

000016b6 <tcp_recv_null>:
    16b6:	2001f317          	auipc	t1,0x2001f
    16ba:	97a302e7          	jalr	t0,-1670(t1) # 20020030 <__riscv_save_0>
    16be:	1141                	addi	sp,sp,-16
    16c0:	852e                	mv	a0,a1
    16c2:	c60d                	beqz	a2,16ec <tcp_recv_null+0x36>
    16c4:	00964783          	lbu	a5,9(a2)
    16c8:	00864583          	lbu	a1,8(a2)
    16cc:	c632                	sw	a2,12(sp)
    16ce:	07a2                	slli	a5,a5,0x8
    16d0:	8ddd                	or	a1,a1,a5
    16d2:	c72ff0ef          	jal	ra,b44 <tcp_recved>
    16d6:	4632                	lw	a2,12(sp)
    16d8:	8532                	mv	a0,a2
    16da:	51d050ef          	jal	ra,73f6 <pbuf_free>
    16de:	4781                	li	a5,0
    16e0:	853e                	mv	a0,a5
    16e2:	0141                	addi	sp,sp,16
    16e4:	2001f317          	auipc	t1,0x2001f
    16e8:	97030067          	jr	-1680(t1) # 20020054 <__riscv_restore_0>
    16ec:	4781                	li	a5,0
    16ee:	faed                	bnez	a3,16e0 <tcp_recv_null+0x2a>
    16f0:	35a9                	jal	153a <tcp_close>
    16f2:	87aa                	mv	a5,a0
    16f4:	b7f5                	j	16e0 <tcp_recv_null+0x2a>

000016f6 <tcp_fasttmr>:
    16f6:	2001f317          	auipc	t1,0x2001f
    16fa:	93a302e7          	jalr	t0,-1734(t1) # 20020030 <__riscv_save_0>
    16fe:	20001797          	auipc	a5,0x20001
    1702:	b6678793          	addi	a5,a5,-1178 # 20002264 <tcp_active_pcbs>
    1706:	4380                	lw	s0,0(a5)
    1708:	06500493          	li	s1,101
    170c:	c449                	beqz	s0,1796 <tcp_fasttmr+0xa0>
    170e:	07544783          	lbu	a5,117(s0)
    1712:	07444603          	lbu	a2,116(s0)
    1716:	07a2                	slli	a5,a5,0x8
    1718:	8fd1                	or	a5,a5,a2
    171a:	07644603          	lbu	a2,118(s0)
    171e:	0642                	slli	a2,a2,0x10
    1720:	8fd1                	or	a5,a5,a2
    1722:	07744603          	lbu	a2,119(s0)
    1726:	0662                	slli	a2,a2,0x18
    1728:	8e5d                	or	a2,a2,a5
    172a:	ca31                	beqz	a2,177e <tcp_fasttmr+0x88>
    172c:	07d44703          	lbu	a4,125(s0)
    1730:	07c44783          	lbu	a5,124(s0)
    1734:	0722                	slli	a4,a4,0x8
    1736:	8f5d                	or	a4,a4,a5
    1738:	07e44783          	lbu	a5,126(s0)
    173c:	07c2                	slli	a5,a5,0x10
    173e:	8f5d                	or	a4,a4,a5
    1740:	07f44783          	lbu	a5,127(s0)
    1744:	07e2                	slli	a5,a5,0x18
    1746:	8fd9                	or	a5,a5,a4
    1748:	cbb9                	beqz	a5,179e <tcp_fasttmr+0xa8>
    174a:	01644503          	lbu	a0,22(s0)
    174e:	01544703          	lbu	a4,21(s0)
    1752:	4681                	li	a3,0
    1754:	0522                	slli	a0,a0,0x8
    1756:	8d59                	or	a0,a0,a4
    1758:	01744703          	lbu	a4,23(s0)
    175c:	85a2                	mv	a1,s0
    175e:	0742                	slli	a4,a4,0x10
    1760:	8f49                	or	a4,a4,a0
    1762:	01844503          	lbu	a0,24(s0)
    1766:	0562                	slli	a0,a0,0x18
    1768:	8d59                	or	a0,a0,a4
    176a:	9782                	jalr	a5
    176c:	e909                	bnez	a0,177e <tcp_fasttmr+0x88>
    176e:	06040a23          	sb	zero,116(s0)
    1772:	06040aa3          	sb	zero,117(s0)
    1776:	06040b23          	sb	zero,118(s0)
    177a:	06040ba3          	sb	zero,119(s0)
    177e:	14fd                	addi	s1,s1,-1
    1780:	0ff4f493          	andi	s1,s1,255
    1784:	e095                	bnez	s1,17a8 <tcp_fasttmr+0xb2>
    1786:	20027517          	auipc	a0,0x20027
    178a:	afa50513          	addi	a0,a0,-1286 # 20028280 <tcp_backoff+0x14>
    178e:	20025097          	auipc	ra,0x20025
    1792:	a04080e7          	jalr	-1532(ra) # 20026192 <puts>
    1796:	2001f317          	auipc	t1,0x2001f
    179a:	8be30067          	jr	-1858(t1) # 20020054 <__riscv_restore_0>
    179e:	4681                	li	a3,0
    17a0:	85a2                	mv	a1,s0
    17a2:	4501                	li	a0,0
    17a4:	3f09                	jal	16b6 <tcp_recv_null>
    17a6:	b7d9                	j	176c <tcp_fasttmr+0x76>
    17a8:	02144783          	lbu	a5,33(s0)
    17ac:	0017f713          	andi	a4,a5,1
    17b0:	cf09                	beqz	a4,17ca <tcp_fasttmr+0xd4>
    17b2:	0027e793          	ori	a5,a5,2
    17b6:	02f400a3          	sb	a5,33(s0)
    17ba:	8522                	mv	a0,s0
    17bc:	075030ef          	jal	ra,5030 <tcp_output>
    17c0:	02144783          	lbu	a5,33(s0)
    17c4:	9bf1                	andi	a5,a5,-4
    17c6:	02f400a3          	sb	a5,33(s0)
    17ca:	00d44783          	lbu	a5,13(s0)
    17ce:	00c44703          	lbu	a4,12(s0)
    17d2:	07a2                	slli	a5,a5,0x8
    17d4:	8f5d                	or	a4,a4,a5
    17d6:	00e44783          	lbu	a5,14(s0)
    17da:	00f44403          	lbu	s0,15(s0)
    17de:	07c2                	slli	a5,a5,0x10
    17e0:	8fd9                	or	a5,a5,a4
    17e2:	0462                	slli	s0,s0,0x18
    17e4:	8c5d                	or	s0,s0,a5
    17e6:	b71d                	j	170c <tcp_fasttmr+0x16>

000017e8 <tcp_tmr>:
    17e8:	2001f317          	auipc	t1,0x2001f
    17ec:	848302e7          	jalr	t0,-1976(t1) # 20020030 <__riscv_save_0>
    17f0:	3719                	jal	16f6 <tcp_fasttmr>
    17f2:	1ffff797          	auipc	a5,0x1ffff
    17f6:	90e7c783          	lbu	a5,-1778(a5) # 20000100 <tcp_timer>
    17fa:	0785                	addi	a5,a5,1
    17fc:	0ff7f793          	andi	a5,a5,255
    1800:	1ffff717          	auipc	a4,0x1ffff
    1804:	90f70023          	sb	a5,-1792(a4) # 20000100 <tcp_timer>
    1808:	8b85                	andi	a5,a5,1
    180a:	c399                	beqz	a5,1810 <tcp_tmr+0x28>
    180c:	ddcff0ef          	jal	ra,de8 <tcp_slowtmr>
    1810:	2001f317          	auipc	t1,0x2001f
    1814:	84430067          	jr	-1980(t1) # 20020054 <__riscv_restore_0>

00001818 <tcp_abandon>:
    1818:	2001e317          	auipc	t1,0x2001e
    181c:	7f0302e7          	jalr	t0,2032(t1) # 20020008 <__riscv_save_10>
    1820:	01154703          	lbu	a4,17(a0)
    1824:	01054783          	lbu	a5,16(a0)
    1828:	1141                	addi	sp,sp,-16
    182a:	0722                	slli	a4,a4,0x8
    182c:	8f5d                	or	a4,a4,a5
    182e:	01254783          	lbu	a5,18(a0)
    1832:	842a                	mv	s0,a0
    1834:	07c2                	slli	a5,a5,0x10
    1836:	8f5d                	or	a4,a4,a5
    1838:	01354783          	lbu	a5,19(a0)
    183c:	07e2                	slli	a5,a5,0x18
    183e:	8fd9                	or	a5,a5,a4
    1840:	4729                	li	a4,10
    1842:	02e79163          	bne	a5,a4,1864 <tcp_abandon+0x4c>
    1846:	85aa                	mv	a1,a0
    1848:	20001517          	auipc	a0,0x20001
    184c:	a3050513          	addi	a0,a0,-1488 # 20002278 <tcp_tw_pcbs>
    1850:	3ec1                	jal	1420 <tcp_pcb_remove>
    1852:	85a2                	mv	a1,s0
    1854:	4509                	li	a0,2
    1856:	69b040ef          	jal	ra,66f0 <memp_free>
    185a:	0141                	addi	sp,sp,16
    185c:	2001e317          	auipc	t1,0x2001e
    1860:	7e430067          	jr	2020(t1) # 20020040 <__riscv_restore_10>
    1864:	05154783          	lbu	a5,81(a0)
    1868:	05054903          	lbu	s2,80(a0)
    186c:	02254983          	lbu	s3,34(a0)
    1870:	07a2                	slli	a5,a5,0x8
    1872:	0127e7b3          	or	a5,a5,s2
    1876:	05254903          	lbu	s2,82(a0)
    187a:	00154703          	lbu	a4,1(a0)
    187e:	8bae                	mv	s7,a1
    1880:	0942                	slli	s2,s2,0x10
    1882:	00f967b3          	or	a5,s2,a5
    1886:	05354903          	lbu	s2,83(a0)
    188a:	0722                	slli	a4,a4,0x8
    188c:	0962                	slli	s2,s2,0x18
    188e:	00f96933          	or	s2,s2,a5
    1892:	02354783          	lbu	a5,35(a0)
    1896:	07a2                	slli	a5,a5,0x8
    1898:	0137e7b3          	or	a5,a5,s3
    189c:	02454983          	lbu	s3,36(a0)
    18a0:	09c2                	slli	s3,s3,0x10
    18a2:	00f9e7b3          	or	a5,s3,a5
    18a6:	02554983          	lbu	s3,37(a0)
    18aa:	09e2                	slli	s3,s3,0x18
    18ac:	00f9e9b3          	or	s3,s3,a5
    18b0:	00054783          	lbu	a5,0(a0)
    18b4:	8f5d                	or	a4,a4,a5
    18b6:	00254783          	lbu	a5,2(a0)
    18ba:	07c2                	slli	a5,a5,0x10
    18bc:	8f5d                	or	a4,a4,a5
    18be:	00354783          	lbu	a5,3(a0)
    18c2:	07e2                	slli	a5,a5,0x18
    18c4:	8fd9                	or	a5,a5,a4
    18c6:	c63e                	sw	a5,12(sp)
    18c8:	00554703          	lbu	a4,5(a0)
    18cc:	00454783          	lbu	a5,4(a0)
    18d0:	0722                	slli	a4,a4,0x8
    18d2:	8f5d                	or	a4,a4,a5
    18d4:	00654783          	lbu	a5,6(a0)
    18d8:	07c2                	slli	a5,a5,0x10
    18da:	8f5d                	or	a4,a4,a5
    18dc:	00754783          	lbu	a5,7(a0)
    18e0:	07e2                	slli	a5,a5,0x18
    18e2:	8fd9                	or	a5,a5,a4
    18e4:	c43e                	sw	a5,8(sp)
    18e6:	01a54a03          	lbu	s4,26(a0)
    18ea:	01954783          	lbu	a5,25(a0)
    18ee:	02054a83          	lbu	s5,32(a0)
    18f2:	0a22                	slli	s4,s4,0x8
    18f4:	00fa6a33          	or	s4,s4,a5
    18f8:	01f54783          	lbu	a5,31(a0)
    18fc:	0aa2                	slli	s5,s5,0x8
    18fe:	08854483          	lbu	s1,136(a0)
    1902:	00faeab3          	or	s5,s5,a5
    1906:	08954783          	lbu	a5,137(a0)
    190a:	01554b03          	lbu	s6,21(a0)
    190e:	07a2                	slli	a5,a5,0x8
    1910:	8fc5                	or	a5,a5,s1
    1912:	08a54483          	lbu	s1,138(a0)
    1916:	04c2                	slli	s1,s1,0x10
    1918:	8fc5                	or	a5,a5,s1
    191a:	08b54483          	lbu	s1,139(a0)
    191e:	04e2                	slli	s1,s1,0x18
    1920:	8cdd                	or	s1,s1,a5
    1922:	01654783          	lbu	a5,22(a0)
    1926:	07a2                	slli	a5,a5,0x8
    1928:	0167e7b3          	or	a5,a5,s6
    192c:	01754b03          	lbu	s6,23(a0)
    1930:	0b42                	slli	s6,s6,0x10
    1932:	00fb67b3          	or	a5,s6,a5
    1936:	01854b03          	lbu	s6,24(a0)
    193a:	0b62                	slli	s6,s6,0x18
    193c:	00fb6b33          	or	s6,s6,a5
    1940:	20022097          	auipc	ra,0x20022
    1944:	fca080e7          	jalr	-54(ra) # 2002390a <LwipRemoveTcpPcb>
    1948:	20001517          	auipc	a0,0x20001
    194c:	91c50513          	addi	a0,a0,-1764 # 20002264 <tcp_active_pcbs>
    1950:	85a2                	mv	a1,s0
    1952:	34f9                	jal	1420 <tcp_pcb_remove>
    1954:	06d44783          	lbu	a5,109(s0)
    1958:	06c44503          	lbu	a0,108(s0)
    195c:	07a2                	slli	a5,a5,0x8
    195e:	8fc9                	or	a5,a5,a0
    1960:	06e44503          	lbu	a0,110(s0)
    1964:	0542                	slli	a0,a0,0x10
    1966:	8fc9                	or	a5,a5,a0
    1968:	06f44503          	lbu	a0,111(s0)
    196c:	0562                	slli	a0,a0,0x18
    196e:	8d5d                	or	a0,a0,a5
    1970:	c119                	beqz	a0,1976 <tcp_abandon+0x15e>
    1972:	a70ff0ef          	jal	ra,be2 <tcp_segs_free>
    1976:	06944783          	lbu	a5,105(s0)
    197a:	06844503          	lbu	a0,104(s0)
    197e:	07a2                	slli	a5,a5,0x8
    1980:	8fc9                	or	a5,a5,a0
    1982:	06a44503          	lbu	a0,106(s0)
    1986:	0542                	slli	a0,a0,0x10
    1988:	8fc9                	or	a5,a5,a0
    198a:	06b44503          	lbu	a0,107(s0)
    198e:	0562                	slli	a0,a0,0x18
    1990:	8d5d                	or	a0,a0,a5
    1992:	c119                	beqz	a0,1998 <tcp_abandon+0x180>
    1994:	a4eff0ef          	jal	ra,be2 <tcp_segs_free>
    1998:	07144783          	lbu	a5,113(s0)
    199c:	07044503          	lbu	a0,112(s0)
    19a0:	07a2                	slli	a5,a5,0x8
    19a2:	8fc9                	or	a5,a5,a0
    19a4:	07244503          	lbu	a0,114(s0)
    19a8:	0542                	slli	a0,a0,0x10
    19aa:	8fc9                	or	a5,a5,a0
    19ac:	07344503          	lbu	a0,115(s0)
    19b0:	0562                	slli	a0,a0,0x18
    19b2:	8d5d                	or	a0,a0,a5
    19b4:	c119                	beqz	a0,19ba <tcp_abandon+0x1a2>
    19b6:	a2cff0ef          	jal	ra,be2 <tcp_segs_free>
    19ba:	85a2                	mv	a1,s0
    19bc:	4509                	li	a0,2
    19be:	533040ef          	jal	ra,66f0 <memp_free>
    19c2:	c481                	beqz	s1,19ca <tcp_abandon+0x1b2>
    19c4:	55ed                	li	a1,-5
    19c6:	855a                	mv	a0,s6
    19c8:	9482                	jalr	s1
    19ca:	e80b88e3          	beqz	s7,185a <tcp_abandon+0x42>
    19ce:	87d6                	mv	a5,s5
    19d0:	8752                	mv	a4,s4
    19d2:	0034                	addi	a3,sp,8
    19d4:	0070                	addi	a2,sp,12
    19d6:	85ce                	mv	a1,s3
    19d8:	854a                	mv	a0,s2
    19da:	52d030ef          	jal	ra,5706 <tcp_rst>
    19de:	bdb5                	j	185a <tcp_abandon+0x42>

000019e0 <tcp_next_iss>:
    19e0:	1fffe797          	auipc	a5,0x1fffe
    19e4:	6a878793          	addi	a5,a5,1704 # 20000088 <iss.3741>
    19e8:	20001717          	auipc	a4,0x20001
    19ec:	88070713          	addi	a4,a4,-1920 # 20002268 <tcp_ticks>
    19f0:	4388                	lw	a0,0(a5)
    19f2:	4318                	lw	a4,0(a4)
    19f4:	953a                	add	a0,a0,a4
    19f6:	c388                	sw	a0,0(a5)
    19f8:	8082                	ret

000019fa <tcp_alloc>:
    19fa:	2001e317          	auipc	t1,0x2001e
    19fe:	61c302e7          	jalr	t0,1564(t1) # 20020016 <__riscv_save_4>
    1a02:	892a                	mv	s2,a0
    1a04:	4509                	li	a0,2
    1a06:	4cb040ef          	jal	ra,66d0 <memp_malloc>
    1a0a:	20000497          	auipc	s1,0x20000
    1a0e:	77a48493          	addi	s1,s1,1914 # 20002184 <CH569Cfg>
    1a12:	842a                	mv	s0,a0
    1a14:	e92d                	bnez	a0,1a86 <tcp_alloc+0x8c>
    1a16:	489c                	lw	a5,16(s1)
    1a18:	8b91                	andi	a5,a5,4
    1a1a:	e799                	bnez	a5,1a28 <tcp_alloc+0x2e>
    1a1c:	4401                	li	s0,0
    1a1e:	8522                	mv	a0,s0
    1a20:	2001e317          	auipc	t1,0x2001e
    1a24:	62a30067          	jr	1578(t1) # 2002004a <__riscv_restore_4>
    1a28:	20001797          	auipc	a5,0x20001
    1a2c:	85078793          	addi	a5,a5,-1968 # 20002278 <tcp_tw_pcbs>
    1a30:	20001997          	auipc	s3,0x20001
    1a34:	83898993          	addi	s3,s3,-1992 # 20002268 <tcp_ticks>
    1a38:	439c                	lw	a5,0(a5)
    1a3a:	0009a583          	lw	a1,0(s3)
    1a3e:	4501                	li	a0,0
    1a40:	4601                	li	a2,0
    1a42:	1a079163          	bnez	a5,1be4 <tcp_alloc+0x1ea>
    1a46:	c119                	beqz	a0,1a4c <tcp_alloc+0x52>
    1a48:	4585                	li	a1,1
    1a4a:	33f9                	jal	1818 <tcp_abandon>
    1a4c:	4509                	li	a0,2
    1a4e:	483040ef          	jal	ra,66d0 <memp_malloc>
    1a52:	842a                	mv	s0,a0
    1a54:	e90d                	bnez	a0,1a86 <tcp_alloc+0x8c>
    1a56:	20001797          	auipc	a5,0x20001
    1a5a:	80e78793          	addi	a5,a5,-2034 # 20002264 <tcp_active_pcbs>
    1a5e:	439c                	lw	a5,0(a5)
    1a60:	0009a803          	lw	a6,0(s3)
    1a64:	197d                	addi	s2,s2,-1
    1a66:	0ff97913          	andi	s2,s2,255
    1a6a:	07f00593          	li	a1,127
    1a6e:	4501                	li	a0,0
    1a70:	1a079d63          	bnez	a5,1c2a <tcp_alloc+0x230>
    1a74:	c401                	beqz	s0,1a7c <tcp_alloc+0x82>
    1a76:	4585                	li	a1,1
    1a78:	8522                	mv	a0,s0
    1a7a:	3b79                	jal	1818 <tcp_abandon>
    1a7c:	4509                	li	a0,2
    1a7e:	453040ef          	jal	ra,66d0 <memp_malloc>
    1a82:	842a                	mv	s0,a0
    1a84:	dd41                	beqz	a0,1a1c <tcp_alloc+0x22>
    1a86:	09600613          	li	a2,150
    1a8a:	4581                	li	a1,0
    1a8c:	8522                	mv	a0,s0
    1a8e:	2001e097          	auipc	ra,0x2001e
    1a92:	5d2080e7          	jalr	1490(ra) # 20020060 <memset>
    1a96:	04000793          	li	a5,64
    1a9a:	00f40a23          	sb	a5,20(s0)
    1a9e:	02000793          	li	a5,32
    1aa2:	06f402a3          	sb	a5,101(s0)
    1aa6:	40dc                	lw	a5,4(s1)
    1aa8:	00040523          	sb	zero,10(s0)
    1aac:	01079713          	slli	a4,a5,0x10
    1ab0:	8341                	srli	a4,a4,0x10
    1ab2:	0ff77693          	andi	a3,a4,255
    1ab6:	8321                	srli	a4,a4,0x8
    1ab8:	02e403a3          	sb	a4,39(s0)
    1abc:	02e404a3          	sb	a4,41(s0)
    1ac0:	f8000713          	li	a4,-128
    1ac4:	00e405a3          	sb	a4,11(s0)
    1ac8:	02d40323          	sb	a3,38(s0)
    1acc:	02d40423          	sb	a3,40(s0)
    1ad0:	21800713          	li	a4,536
    1ad4:	00f77463          	bgeu	a4,a5,1adc <tcp_alloc+0xe2>
    1ad8:	21800793          	li	a5,536
    1adc:	07c2                	slli	a5,a5,0x10
    1ade:	83c1                	srli	a5,a5,0x10
    1ae0:	02f40b23          	sb	a5,54(s0)
    1ae4:	83a1                	srli	a5,a5,0x8
    1ae6:	02f40ba3          	sb	a5,55(s0)
    1aea:	4799                	li	a5,6
    1aec:	04f40223          	sb	a5,68(s0)
    1af0:	04f40123          	sb	a5,66(s0)
    1af4:	57fd                	li	a5,-1
    1af6:	02f40a23          	sb	a5,52(s0)
    1afa:	02f40aa3          	sb	a5,53(s0)
    1afe:	4785                	li	a5,1
    1b00:	04f40623          	sb	a5,76(s0)
    1b04:	040402a3          	sb	zero,69(s0)
    1b08:	04040023          	sb	zero,64(s0)
    1b0c:	040400a3          	sb	zero,65(s0)
    1b10:	040401a3          	sb	zero,67(s0)
    1b14:	040406a3          	sb	zero,77(s0)
    1b18:	35e1                	jal	19e0 <tcp_next_iss>
    1b1a:	01055793          	srli	a5,a0,0x10
    1b1e:	0ff7f793          	andi	a5,a5,255
    1b22:	04f40e23          	sb	a5,92(s0)
    1b26:	04f40923          	sb	a5,82(s0)
    1b2a:	04f404a3          	sb	a5,73(s0)
    1b2e:	06f40023          	sb	a5,96(s0)
    1b32:	20000797          	auipc	a5,0x20000
    1b36:	73678793          	addi	a5,a5,1846 # 20002268 <tcp_ticks>
    1b3a:	439c                	lw	a5,0(a5)
    1b3c:	00855713          	srli	a4,a0,0x8
    1b40:	0ff77713          	andi	a4,a4,255
    1b44:	04e40da3          	sb	a4,91(s0)
    1b48:	04e408a3          	sb	a4,81(s0)
    1b4c:	04e40423          	sb	a4,72(s0)
    1b50:	04e40fa3          	sb	a4,95(s0)
    1b54:	0087d713          	srli	a4,a5,0x8
    1b58:	02f40723          	sb	a5,46(s0)
    1b5c:	02e407a3          	sb	a4,47(s0)
    1b60:	0107d713          	srli	a4,a5,0x10
    1b64:	83e1                	srli	a5,a5,0x18
    1b66:	02f408a3          	sb	a5,49(s0)
    1b6a:	00000797          	auipc	a5,0x0
    1b6e:	b4c78793          	addi	a5,a5,-1204 # 16b6 <tcp_recv_null>
    1b72:	02e40823          	sb	a4,48(s0)
    1b76:	0087d713          	srli	a4,a5,0x8
    1b7a:	06f40e23          	sb	a5,124(s0)
    1b7e:	06e40ea3          	sb	a4,125(s0)
    1b82:	0107d713          	srli	a4,a5,0x10
    1b86:	83e1                	srli	a5,a5,0x18
    1b88:	06f40fa3          	sb	a5,127(s0)
    1b8c:	20000797          	auipc	a5,0x20000
    1b90:	62878793          	addi	a5,a5,1576 # 200021b4 <KeepLiveCfg>
    1b94:	439c                	lw	a5,0(a5)
    1b96:	06e40f23          	sb	a4,126(s0)
    1b9a:	0ff57693          	andi	a3,a0,255
    1b9e:	0087d713          	srli	a4,a5,0x8
    1ba2:	8161                	srli	a0,a0,0x18
    1ba4:	08f40623          	sb	a5,140(s0)
    1ba8:	08e406a3          	sb	a4,141(s0)
    1bac:	0107d713          	srli	a4,a5,0x10
    1bb0:	83e1                	srli	a5,a5,0x18
    1bb2:	04d40d23          	sb	a3,90(s0)
    1bb6:	04a40ea3          	sb	a0,93(s0)
    1bba:	04d40823          	sb	a3,80(s0)
    1bbe:	04a409a3          	sb	a0,83(s0)
    1bc2:	04d403a3          	sb	a3,71(s0)
    1bc6:	04a40523          	sb	a0,74(s0)
    1bca:	04d40f23          	sb	a3,94(s0)
    1bce:	06a400a3          	sb	a0,97(s0)
    1bd2:	02040923          	sb	zero,50(s0)
    1bd6:	08e40723          	sb	a4,142(s0)
    1bda:	08f407a3          	sb	a5,143(s0)
    1bde:	08040aa3          	sb	zero,149(s0)
    1be2:	bd35                	j	1a1e <tcp_alloc+0x24>
    1be4:	02f7c683          	lbu	a3,47(a5)
    1be8:	02e7c703          	lbu	a4,46(a5)
    1bec:	06a2                	slli	a3,a3,0x8
    1bee:	8ed9                	or	a3,a3,a4
    1bf0:	0307c703          	lbu	a4,48(a5)
    1bf4:	0742                	slli	a4,a4,0x10
    1bf6:	8ed9                	or	a3,a3,a4
    1bf8:	0317c703          	lbu	a4,49(a5)
    1bfc:	0762                	slli	a4,a4,0x18
    1bfe:	8f55                	or	a4,a4,a3
    1c00:	40e58733          	sub	a4,a1,a4
    1c04:	00c76463          	bltu	a4,a2,1c0c <tcp_alloc+0x212>
    1c08:	863a                	mv	a2,a4
    1c0a:	853e                	mv	a0,a5
    1c0c:	00d7c703          	lbu	a4,13(a5)
    1c10:	00c7c683          	lbu	a3,12(a5)
    1c14:	0722                	slli	a4,a4,0x8
    1c16:	8ed9                	or	a3,a3,a4
    1c18:	00e7c703          	lbu	a4,14(a5)
    1c1c:	00f7c783          	lbu	a5,15(a5)
    1c20:	0742                	slli	a4,a4,0x10
    1c22:	8f55                	or	a4,a4,a3
    1c24:	07e2                	slli	a5,a5,0x18
    1c26:	8fd9                	or	a5,a5,a4
    1c28:	bd29                	j	1a42 <tcp_alloc+0x48>
    1c2a:	0147c603          	lbu	a2,20(a5)
    1c2e:	02c96963          	bltu	s2,a2,1c60 <tcp_alloc+0x266>
    1c32:	02c5e763          	bltu	a1,a2,1c60 <tcp_alloc+0x266>
    1c36:	02f7c683          	lbu	a3,47(a5)
    1c3a:	02e7c703          	lbu	a4,46(a5)
    1c3e:	06a2                	slli	a3,a3,0x8
    1c40:	8ed9                	or	a3,a3,a4
    1c42:	0307c703          	lbu	a4,48(a5)
    1c46:	0742                	slli	a4,a4,0x10
    1c48:	8ed9                	or	a3,a3,a4
    1c4a:	0317c703          	lbu	a4,49(a5)
    1c4e:	0762                	slli	a4,a4,0x18
    1c50:	8f55                	or	a4,a4,a3
    1c52:	40e80733          	sub	a4,a6,a4
    1c56:	00a76563          	bltu	a4,a0,1c60 <tcp_alloc+0x266>
    1c5a:	85b2                	mv	a1,a2
    1c5c:	853a                	mv	a0,a4
    1c5e:	843e                	mv	s0,a5
    1c60:	00d7c703          	lbu	a4,13(a5)
    1c64:	00c7c683          	lbu	a3,12(a5)
    1c68:	0722                	slli	a4,a4,0x8
    1c6a:	8ed9                	or	a3,a3,a4
    1c6c:	00e7c703          	lbu	a4,14(a5)
    1c70:	00f7c783          	lbu	a5,15(a5)
    1c74:	0742                	slli	a4,a4,0x10
    1c76:	8f55                	or	a4,a4,a3
    1c78:	07e2                	slli	a5,a5,0x18
    1c7a:	8fd9                	or	a5,a5,a4
    1c7c:	bbd5                	j	1a70 <tcp_alloc+0x76>

00001c7e <tcp_new>:
    1c7e:	2001e317          	auipc	t1,0x2001e
    1c82:	3b2302e7          	jalr	t0,946(t1) # 20020030 <__riscv_save_0>
    1c86:	04000513          	li	a0,64
    1c8a:	3b85                	jal	19fa <tcp_alloc>
    1c8c:	2001e317          	auipc	t1,0x2001e
    1c90:	3c830067          	jr	968(t1) # 20020054 <__riscv_restore_0>

00001c94 <tcp_eff_send_mss>:
    1c94:	2001e317          	auipc	t1,0x2001e
    1c98:	39c302e7          	jalr	t0,924(t1) # 20020030 <__riscv_save_0>
    1c9c:	842a                	mv	s0,a0
    1c9e:	852e                	mv	a0,a1
    1ca0:	791030ef          	jal	ra,5c30 <ip_route>
    1ca4:	cd19                	beqz	a0,1cc2 <tcp_eff_send_mss+0x2e>
    1ca6:	02455783          	lhu	a5,36(a0)
    1caa:	cf81                	beqz	a5,1cc2 <tcp_eff_send_mss+0x2e>
    1cac:	fd878793          	addi	a5,a5,-40
    1cb0:	873e                	mv	a4,a5
    1cb2:	07c2                	slli	a5,a5,0x10
    1cb4:	83c1                	srli	a5,a5,0x10
    1cb6:	00f47363          	bgeu	s0,a5,1cbc <tcp_eff_send_mss+0x28>
    1cba:	8722                	mv	a4,s0
    1cbc:	01071413          	slli	s0,a4,0x10
    1cc0:	8041                	srli	s0,s0,0x10
    1cc2:	8522                	mv	a0,s0
    1cc4:	2001e317          	auipc	t1,0x2001e
    1cc8:	39030067          	jr	912(t1) # 20020054 <__riscv_restore_0>

00001ccc <tcp_connect>:
    1ccc:	2001e317          	auipc	t1,0x2001e
    1cd0:	34a302e7          	jalr	t0,842(t1) # 20020016 <__riscv_save_4>
    1cd4:	01154703          	lbu	a4,17(a0)
    1cd8:	01054783          	lbu	a5,16(a0)
    1cdc:	594d                	li	s2,-13
    1cde:	0722                	slli	a4,a4,0x8
    1ce0:	8f5d                	or	a4,a4,a5
    1ce2:	01254783          	lbu	a5,18(a0)
    1ce6:	07c2                	slli	a5,a5,0x10
    1ce8:	8f5d                	or	a4,a4,a5
    1cea:	01354783          	lbu	a5,19(a0)
    1cee:	07e2                	slli	a5,a5,0x18
    1cf0:	8fd9                	or	a5,a5,a4
    1cf2:	1c079c63          	bnez	a5,1eca <tcp_connect+0x1fe>
    1cf6:	89ae                	mv	s3,a1
    1cf8:	595d                	li	s2,-9
    1cfa:	1c058863          	beqz	a1,1eca <tcp_connect+0x1fe>
    1cfe:	842a                	mv	s0,a0
    1d00:	8932                	mv	s2,a2
    1d02:	0511                	addi	a0,a0,4
    1d04:	4611                	li	a2,4
    1d06:	84b6                	mv	s1,a3
    1d08:	20024097          	auipc	ra,0x20024
    1d0c:	288080e7          	jalr	648(ra) # 20025f90 <memcpy>
    1d10:	01a44783          	lbu	a5,26(s0)
    1d14:	01944703          	lbu	a4,25(s0)
    1d18:	01240fa3          	sb	s2,31(s0)
    1d1c:	07a2                	slli	a5,a5,0x8
    1d1e:	00895913          	srli	s2,s2,0x8
    1d22:	03240023          	sb	s2,32(s0)
    1d26:	8fd9                	or	a5,a5,a4
    1d28:	eb81                	bnez	a5,1d38 <tcp_connect+0x6c>
    1d2a:	fdafe0ef          	jal	ra,504 <tcp_new_port>
    1d2e:	00a40ca3          	sb	a0,25(s0)
    1d32:	8121                	srli	a0,a0,0x8
    1d34:	00a40d23          	sb	a0,26(s0)
    1d38:	3165                	jal	19e0 <tcp_next_iss>
    1d3a:	00855793          	srli	a5,a0,0x8
    1d3e:	04f408a3          	sb	a5,81(s0)
    1d42:	01055793          	srli	a5,a0,0x10
    1d46:	04a40823          	sb	a0,80(s0)
    1d4a:	04f40923          	sb	a5,82(s0)
    1d4e:	01855793          	srli	a5,a0,0x18
    1d52:	157d                	addi	a0,a0,-1
    1d54:	04f409a3          	sb	a5,83(s0)
    1d58:	01055793          	srli	a5,a0,0x10
    1d5c:	0ff7f793          	andi	a5,a5,255
    1d60:	0ff57693          	andi	a3,a0,255
    1d64:	00855713          	srli	a4,a0,0x8
    1d68:	04f404a3          	sb	a5,73(s0)
    1d6c:	8161                	srli	a0,a0,0x18
    1d6e:	06f40023          	sb	a5,96(s0)
    1d72:	20000797          	auipc	a5,0x20000
    1d76:	41278793          	addi	a5,a5,1042 # 20002184 <CH569Cfg>
    1d7a:	04a40523          	sb	a0,74(s0)
    1d7e:	06a400a3          	sb	a0,97(s0)
    1d82:	43c8                	lw	a0,4(a5)
    1d84:	0ff77713          	andi	a4,a4,255
    1d88:	04e40423          	sb	a4,72(s0)
    1d8c:	01051793          	slli	a5,a0,0x10
    1d90:	83c1                	srli	a5,a5,0x10
    1d92:	04e40fa3          	sb	a4,95(s0)
    1d96:	0ff7f713          	andi	a4,a5,255
    1d9a:	83a1                	srli	a5,a5,0x8
    1d9c:	02f403a3          	sb	a5,39(s0)
    1da0:	02f404a3          	sb	a5,41(s0)
    1da4:	04f40aa3          	sb	a5,85(s0)
    1da8:	02040123          	sb	zero,34(s0)
    1dac:	020401a3          	sb	zero,35(s0)
    1db0:	02040223          	sb	zero,36(s0)
    1db4:	020402a3          	sb	zero,37(s0)
    1db8:	04d403a3          	sb	a3,71(s0)
    1dbc:	04d40f23          	sb	a3,94(s0)
    1dc0:	02e40323          	sb	a4,38(s0)
    1dc4:	02e40423          	sb	a4,40(s0)
    1dc8:	02040523          	sb	zero,42(s0)
    1dcc:	020405a3          	sb	zero,43(s0)
    1dd0:	02040623          	sb	zero,44(s0)
    1dd4:	020406a3          	sb	zero,45(s0)
    1dd8:	04e40a23          	sb	a4,84(s0)
    1ddc:	21800793          	li	a5,536
    1de0:	00a7f463          	bgeu	a5,a0,1de8 <tcp_connect+0x11c>
    1de4:	21800513          	li	a0,536
    1de8:	0542                	slli	a0,a0,0x10
    1dea:	8141                	srli	a0,a0,0x10
    1dec:	00855793          	srli	a5,a0,0x8
    1df0:	02f40ba3          	sb	a5,55(s0)
    1df4:	02a40b23          	sb	a0,54(s0)
    1df8:	85ce                	mv	a1,s3
    1dfa:	3d69                	jal	1c94 <tcp_eff_send_mss>
    1dfc:	00855793          	srli	a5,a0,0x8
    1e00:	02f40ba3          	sb	a5,55(s0)
    1e04:	4785                	li	a5,1
    1e06:	04f40623          	sb	a5,76(s0)
    1e0a:	47a9                	li	a5,10
    1e0c:	02a40b23          	sb	a0,54(s0)
    1e10:	02f50533          	mul	a0,a0,a5
    1e14:	4789                	li	a5,2
    1e16:	00f40823          	sb	a5,16(s0)
    1e1a:	0084d793          	srli	a5,s1,0x8
    1e1e:	08f400a3          	sb	a5,129(s0)
    1e22:	0104d793          	srli	a5,s1,0x10
    1e26:	08f40123          	sb	a5,130(s0)
    1e2a:	20000797          	auipc	a5,0x20000
    1e2e:	44a78793          	addi	a5,a5,1098 # 20002274 <tcp_bound_pcbs>
    1e32:	439c                	lw	a5,0(a5)
    1e34:	08940023          	sb	s1,128(s0)
    1e38:	0542                	slli	a0,a0,0x10
    1e3a:	8141                	srli	a0,a0,0x10
    1e3c:	04a40723          	sb	a0,78(s0)
    1e40:	80e1                	srli	s1,s1,0x18
    1e42:	8121                	srli	a0,a0,0x8
    1e44:	040406a3          	sb	zero,77(s0)
    1e48:	04a407a3          	sb	a0,79(s0)
    1e4c:	000408a3          	sb	zero,17(s0)
    1e50:	00040923          	sb	zero,18(s0)
    1e54:	000409a3          	sb	zero,19(s0)
    1e58:	089401a3          	sb	s1,131(s0)
    1e5c:	06879c63          	bne	a5,s0,1ed4 <tcp_connect+0x208>
    1e60:	00d44703          	lbu	a4,13(s0)
    1e64:	00c44783          	lbu	a5,12(s0)
    1e68:	0722                	slli	a4,a4,0x8
    1e6a:	8f5d                	or	a4,a4,a5
    1e6c:	00e44783          	lbu	a5,14(s0)
    1e70:	07c2                	slli	a5,a5,0x10
    1e72:	8f5d                	or	a4,a4,a5
    1e74:	00f44783          	lbu	a5,15(s0)
    1e78:	07e2                	slli	a5,a5,0x18
    1e7a:	8fd9                	or	a5,a5,a4
    1e7c:	20000717          	auipc	a4,0x20000
    1e80:	3ef72c23          	sw	a5,1016(a4) # 20002274 <tcp_bound_pcbs>
    1e84:	20000797          	auipc	a5,0x20000
    1e88:	3e078793          	addi	a5,a5,992 # 20002264 <tcp_active_pcbs>
    1e8c:	439c                	lw	a5,0(a5)
    1e8e:	4689                	li	a3,2
    1e90:	4601                	li	a2,0
    1e92:	0087d713          	srli	a4,a5,0x8
    1e96:	00f40623          	sb	a5,12(s0)
    1e9a:	00e406a3          	sb	a4,13(s0)
    1e9e:	0107d713          	srli	a4,a5,0x10
    1ea2:	83e1                	srli	a5,a5,0x18
    1ea4:	00f407a3          	sb	a5,15(s0)
    1ea8:	20000797          	auipc	a5,0x20000
    1eac:	3a87ae23          	sw	s0,956(a5) # 20002264 <tcp_active_pcbs>
    1eb0:	00e40723          	sb	a4,14(s0)
    1eb4:	4785                	li	a5,1
    1eb6:	4701                	li	a4,0
    1eb8:	4581                	li	a1,0
    1eba:	8522                	mv	a0,s0
    1ebc:	259020ef          	jal	ra,4914 <tcp_enqueue>
    1ec0:	892a                	mv	s2,a0
    1ec2:	e501                	bnez	a0,1eca <tcp_connect+0x1fe>
    1ec4:	8522                	mv	a0,s0
    1ec6:	16a030ef          	jal	ra,5030 <tcp_output>
    1eca:	854a                	mv	a0,s2
    1ecc:	2001e317          	auipc	t1,0x2001e
    1ed0:	17e30067          	jr	382(t1) # 2002004a <__riscv_restore_4>
    1ed4:	20000717          	auipc	a4,0x20000
    1ed8:	38f72e23          	sw	a5,924(a4) # 20002270 <tcp_tmp_pcb>
    1edc:	4601                	li	a2,0
    1ede:	e799                	bnez	a5,1eec <tcp_connect+0x220>
    1ee0:	d255                	beqz	a2,1e84 <tcp_connect+0x1b8>
    1ee2:	20000797          	auipc	a5,0x20000
    1ee6:	3807a723          	sw	zero,910(a5) # 20002270 <tcp_tmp_pcb>
    1eea:	bf69                	j	1e84 <tcp_connect+0x1b8>
    1eec:	00d7c683          	lbu	a3,13(a5)
    1ef0:	00c7c703          	lbu	a4,12(a5)
    1ef4:	06a2                	slli	a3,a3,0x8
    1ef6:	8ed9                	or	a3,a3,a4
    1ef8:	00e7c703          	lbu	a4,14(a5)
    1efc:	0742                	slli	a4,a4,0x10
    1efe:	8ed9                	or	a3,a3,a4
    1f00:	00f7c703          	lbu	a4,15(a5)
    1f04:	0762                	slli	a4,a4,0x18
    1f06:	8f55                	or	a4,a4,a3
    1f08:	04871363          	bne	a4,s0,1f4e <tcp_connect+0x282>
    1f0c:	c609                	beqz	a2,1f16 <tcp_connect+0x24a>
    1f0e:	20000717          	auipc	a4,0x20000
    1f12:	36f72123          	sw	a5,866(a4) # 20002270 <tcp_tmp_pcb>
    1f16:	00d44683          	lbu	a3,13(s0)
    1f1a:	00c44703          	lbu	a4,12(s0)
    1f1e:	06a2                	slli	a3,a3,0x8
    1f20:	8ed9                	or	a3,a3,a4
    1f22:	00e44703          	lbu	a4,14(s0)
    1f26:	0742                	slli	a4,a4,0x10
    1f28:	8ed9                	or	a3,a3,a4
    1f2a:	00f44703          	lbu	a4,15(s0)
    1f2e:	0762                	slli	a4,a4,0x18
    1f30:	8f55                	or	a4,a4,a3
    1f32:	00875693          	srli	a3,a4,0x8
    1f36:	00e78623          	sb	a4,12(a5)
    1f3a:	00d786a3          	sb	a3,13(a5)
    1f3e:	01075693          	srli	a3,a4,0x10
    1f42:	8361                	srli	a4,a4,0x18
    1f44:	00d78723          	sb	a3,14(a5)
    1f48:	00e787a3          	sb	a4,15(a5)
    1f4c:	bf25                	j	1e84 <tcp_connect+0x1b8>
    1f4e:	4605                	li	a2,1
    1f50:	87ba                	mv	a5,a4
    1f52:	b771                	j	1ede <tcp_connect+0x212>

00001f54 <tcp_parseopt>:
    1f54:	2001e317          	auipc	t1,0x2001e
    1f58:	0dc302e7          	jalr	t0,220(t1) # 20020030 <__riscv_save_0>
    1f5c:	1fffe917          	auipc	s2,0x1fffe
    1f60:	1c090913          	addi	s2,s2,448 # 2000011c <tcphdr>
    1f64:	00092483          	lw	s1,0(s2)
    1f68:	842a                	mv	s0,a0
    1f6a:	00d4c783          	lbu	a5,13(s1)
    1f6e:	00c4c503          	lbu	a0,12(s1)
    1f72:	07a2                	slli	a5,a5,0x8
    1f74:	8d5d                	or	a0,a0,a5
    1f76:	20023097          	auipc	ra,0x20023
    1f7a:	bb0080e7          	jalr	-1104(ra) # 20024b26 <ntohs>
    1f7e:	8131                	srli	a0,a0,0xc
    1f80:	0542                	slli	a0,a0,0x10
    1f82:	8141                	srli	a0,a0,0x10
    1f84:	4795                	li	a5,5
    1f86:	04a7f263          	bgeu	a5,a0,1fca <tcp_parseopt+0x76>
    1f8a:	00092783          	lw	a5,0(s2)
    1f8e:	04d1                	addi	s1,s1,20
    1f90:	00c7c503          	lbu	a0,12(a5)
    1f94:	00d7c783          	lbu	a5,13(a5)
    1f98:	07a2                	slli	a5,a5,0x8
    1f9a:	8d5d                	or	a0,a0,a5
    1f9c:	20023097          	auipc	ra,0x20023
    1fa0:	b8a080e7          	jalr	-1142(ra) # 20024b26 <ntohs>
    1fa4:	20000797          	auipc	a5,0x20000
    1fa8:	1e078793          	addi	a5,a5,480 # 20002184 <CH569Cfg>
    1fac:	43d0                	lw	a2,4(a5)
    1fae:	8131                	srli	a0,a0,0xc
    1fb0:	156d                	addi	a0,a0,-5
    1fb2:	050a                	slli	a0,a0,0x2
    1fb4:	0542                	slli	a0,a0,0x10
    1fb6:	01061593          	slli	a1,a2,0x10
    1fba:	8141                	srli	a0,a0,0x10
    1fbc:	81c1                	srli	a1,a1,0x10
    1fbe:	4781                	li	a5,0
    1fc0:	4805                	li	a6,1
    1fc2:	4889                	li	a7,2
    1fc4:	4311                	li	t1,4
    1fc6:	00a7e663          	bltu	a5,a0,1fd2 <tcp_parseopt+0x7e>
    1fca:	2001e317          	auipc	t1,0x2001e
    1fce:	08a30067          	jr	138(t1) # 20020054 <__riscv_restore_0>
    1fd2:	00f486b3          	add	a3,s1,a5
    1fd6:	0006c703          	lbu	a4,0(a3)
    1fda:	01070a63          	beq	a4,a6,1fee <tcp_parseopt+0x9a>
    1fde:	d775                	beqz	a4,1fca <tcp_parseopt+0x76>
    1fe0:	01170b63          	beq	a4,a7,1ff6 <tcp_parseopt+0xa2>
    1fe4:	0016c703          	lbu	a4,1(a3)
    1fe8:	d36d                	beqz	a4,1fca <tcp_parseopt+0x76>
    1fea:	97ba                	add	a5,a5,a4
    1fec:	a011                	j	1ff0 <tcp_parseopt+0x9c>
    1fee:	0785                	addi	a5,a5,1
    1ff0:	07c2                	slli	a5,a5,0x10
    1ff2:	83c1                	srli	a5,a5,0x10
    1ff4:	bfc9                	j	1fc6 <tcp_parseopt+0x72>
    1ff6:	0016c703          	lbu	a4,1(a3)
    1ffa:	fc6718e3          	bne	a4,t1,1fca <tcp_parseopt+0x76>
    1ffe:	00378713          	addi	a4,a5,3
    2002:	fca754e3          	bge	a4,a0,1fca <tcp_parseopt+0x76>
    2006:	0026c703          	lbu	a4,2(a3)
    200a:	0036c683          	lbu	a3,3(a3)
    200e:	0722                	slli	a4,a4,0x8
    2010:	8f55                	or	a4,a4,a3
    2012:	00e66363          	bltu	a2,a4,2018 <tcp_parseopt+0xc4>
    2016:	e311                	bnez	a4,201a <tcp_parseopt+0xc6>
    2018:	872e                	mv	a4,a1
    201a:	02e40b23          	sb	a4,54(s0)
    201e:	8321                	srli	a4,a4,0x8
    2020:	02e40ba3          	sb	a4,55(s0)
    2024:	0791                	addi	a5,a5,4
    2026:	b7e9                	j	1ff0 <tcp_parseopt+0x9c>

00002028 <tcp_oos_insert_segment>:
    2028:	2001e317          	auipc	t1,0x2001e
    202c:	fee302e7          	jalr	t0,-18(t1) # 20020016 <__riscv_save_4>
    2030:	491c                	lw	a5,16(a0)
    2032:	84aa                	mv	s1,a0
    2034:	8a2e                	mv	s4,a1
    2036:	00c7c503          	lbu	a0,12(a5)
    203a:	00d7c783          	lbu	a5,13(a5)
    203e:	07a2                	slli	a5,a5,0x8
    2040:	8d5d                	or	a0,a0,a5
    2042:	20023097          	auipc	ra,0x20023
    2046:	ae4080e7          	jalr	-1308(ra) # 20024b26 <ntohs>
    204a:	8905                	andi	a0,a0,1
    204c:	e52d                	bnez	a0,20b6 <tcp_oos_insert_segment+0x8e>
    204e:	6941                	lui	s2,0x10
    2050:	1fffe997          	auipc	s3,0x1fffe
    2054:	0c898993          	addi	s3,s3,200 # 20000118 <seqno>
    2058:	fc090913          	addi	s2,s2,-64 # ffc0 <_ramcode_lma+0x7fc0>
    205c:	010a2703          	lw	a4,16(s4)
    2060:	0009a603          	lw	a2,0(s3)
    2064:	00c4d783          	lhu	a5,12(s1)
    2068:	00574683          	lbu	a3,5(a4)
    206c:	00474583          	lbu	a1,4(a4)
    2070:	97b2                	add	a5,a5,a2
    2072:	06a2                	slli	a3,a3,0x8
    2074:	8dd5                	or	a1,a1,a3
    2076:	00674683          	lbu	a3,6(a4)
    207a:	06c2                	slli	a3,a3,0x10
    207c:	8ecd                	or	a3,a3,a1
    207e:	00774583          	lbu	a1,7(a4)
    2082:	05e2                	slli	a1,a1,0x18
    2084:	8dd5                	or	a1,a1,a3
    2086:	00ca5683          	lhu	a3,12(s4)
    208a:	96ae                	add	a3,a3,a1
    208c:	40d786b3          	sub	a3,a5,a3
    2090:	0206d863          	bgez	a3,20c0 <tcp_oos_insert_segment+0x98>
    2094:	8f8d                	sub	a5,a5,a1
    2096:	00f05a63          	blez	a5,20aa <tcp_oos_insert_segment+0x82>
    209a:	8d91                	sub	a1,a1,a2
    209c:	05c2                	slli	a1,a1,0x10
    209e:	40c8                	lw	a0,4(s1)
    20a0:	81c1                	srli	a1,a1,0x10
    20a2:	00b49623          	sh	a1,12(s1)
    20a6:	644050ef          	jal	ra,76ea <pbuf_realloc>
    20aa:	0144a023          	sw	s4,0(s1)
    20ae:	2001e317          	auipc	t1,0x2001e
    20b2:	f9c30067          	jr	-100(t1) # 2002004a <__riscv_restore_4>
    20b6:	8552                	mv	a0,s4
    20b8:	b2bfe0ef          	jal	ra,be2 <tcp_segs_free>
    20bc:	4a01                	li	s4,0
    20be:	b7f5                	j	20aa <tcp_oos_insert_segment+0x82>
    20c0:	00d74783          	lbu	a5,13(a4)
    20c4:	00c74503          	lbu	a0,12(a4)
    20c8:	07a2                	slli	a5,a5,0x8
    20ca:	8d5d                	or	a0,a0,a5
    20cc:	20023097          	auipc	ra,0x20023
    20d0:	a5a080e7          	jalr	-1446(ra) # 20024b26 <ntohs>
    20d4:	8905                	andi	a0,a0,1
    20d6:	c931                	beqz	a0,212a <tcp_oos_insert_segment+0x102>
    20d8:	489c                	lw	a5,16(s1)
    20da:	00d7c403          	lbu	s0,13(a5)
    20de:	00c7c503          	lbu	a0,12(a5)
    20e2:	0422                	slli	s0,s0,0x8
    20e4:	8c49                	or	s0,s0,a0
    20e6:	854a                	mv	a0,s2
    20e8:	20023097          	auipc	ra,0x20023
    20ec:	a30080e7          	jalr	-1488(ra) # 20024b18 <htons>
    20f0:	489c                	lw	a5,16(s1)
    20f2:	8c69                	and	s0,s0,a0
    20f4:	00c7c503          	lbu	a0,12(a5)
    20f8:	00d7c783          	lbu	a5,13(a5)
    20fc:	07a2                	slli	a5,a5,0x8
    20fe:	8d5d                	or	a0,a0,a5
    2100:	20023097          	auipc	ra,0x20023
    2104:	a26080e7          	jalr	-1498(ra) # 20024b26 <ntohs>
    2108:	03e57513          	andi	a0,a0,62
    210c:	00156513          	ori	a0,a0,1
    2110:	20023097          	auipc	ra,0x20023
    2114:	a08080e7          	jalr	-1528(ra) # 20024b18 <htons>
    2118:	489c                	lw	a5,16(s1)
    211a:	8d41                	or	a0,a0,s0
    211c:	0542                	slli	a0,a0,0x10
    211e:	8141                	srli	a0,a0,0x10
    2120:	00a78623          	sb	a0,12(a5)
    2124:	8121                	srli	a0,a0,0x8
    2126:	00a786a3          	sb	a0,13(a5)
    212a:	000a2403          	lw	s0,0(s4)
    212e:	8552                	mv	a0,s4
    2130:	a81fe0ef          	jal	ra,bb0 <tcp_seg_free>
    2134:	d441                	beqz	s0,20bc <tcp_oos_insert_segment+0x94>
    2136:	8a22                	mv	s4,s0
    2138:	b715                	j	205c <tcp_oos_insert_segment+0x34>

0000213a <tcp_receive>:
    213a:	2001e317          	auipc	t1,0x2001e
    213e:	edc302e7          	jalr	t0,-292(t1) # 20020016 <__riscv_save_4>
    2142:	1fffe797          	auipc	a5,0x1fffe
    2146:	fc67c783          	lbu	a5,-58(a5) # 20000108 <flags>
    214a:	8bc1                	andi	a5,a5,16
    214c:	842a                	mv	s0,a0
    214e:	1fffe497          	auipc	s1,0x1fffe
    2152:	fca48493          	addi	s1,s1,-54 # 20000118 <seqno>
    2156:	1e078963          	beqz	a5,2348 <tcp_receive+0x20e>
    215a:	05554683          	lbu	a3,85(a0)
    215e:	05454783          	lbu	a5,84(a0)
    2162:	05a54603          	lbu	a2,90(a0)
    2166:	06a2                	slli	a3,a3,0x8
    2168:	8edd                	or	a3,a3,a5
    216a:	05b54783          	lbu	a5,91(a0)
    216e:	05654583          	lbu	a1,86(a0)
    2172:	4098                	lw	a4,0(s1)
    2174:	07a2                	slli	a5,a5,0x8
    2176:	8fd1                	or	a5,a5,a2
    2178:	05c54603          	lbu	a2,92(a0)
    217c:	1fffe917          	auipc	s2,0x1fffe
    2180:	f8890913          	addi	s2,s2,-120 # 20000104 <ackno>
    2184:	0642                	slli	a2,a2,0x10
    2186:	8fd1                	or	a5,a5,a2
    2188:	05d54603          	lbu	a2,93(a0)
    218c:	0662                	slli	a2,a2,0x18
    218e:	8e5d                	or	a2,a2,a5
    2190:	05754783          	lbu	a5,87(a0)
    2194:	07a2                	slli	a5,a5,0x8
    2196:	8fcd                	or	a5,a5,a1
    2198:	05854583          	lbu	a1,88(a0)
    219c:	05c2                	slli	a1,a1,0x10
    219e:	8fcd                	or	a5,a5,a1
    21a0:	05954583          	lbu	a1,89(a0)
    21a4:	05e2                	slli	a1,a1,0x18
    21a6:	8ddd                	or	a1,a1,a5
    21a8:	40e58533          	sub	a0,a1,a4
    21ac:	00092783          	lw	a5,0(s2)
    21b0:	02054863          	bltz	a0,21e0 <tcp_receive+0xa6>
    21b4:	00e59663          	bne	a1,a4,21c0 <tcp_receive+0x86>
    21b8:	40f605b3          	sub	a1,a2,a5
    21bc:	0205c263          	bltz	a1,21e0 <tcp_receive+0xa6>
    21c0:	08f61363          	bne	a2,a5,2246 <tcp_receive+0x10c>
    21c4:	1fffe597          	auipc	a1,0x1fffe
    21c8:	f5858593          	addi	a1,a1,-168 # 2000011c <tcphdr>
    21cc:	4188                	lw	a0,0(a1)
    21ce:	00f54583          	lbu	a1,15(a0)
    21d2:	00e54803          	lbu	a6,14(a0)
    21d6:	05a2                	slli	a1,a1,0x8
    21d8:	0105e5b3          	or	a1,a1,a6
    21dc:	06b6f563          	bgeu	a3,a1,2246 <tcp_receive+0x10c>
    21e0:	1fffe597          	auipc	a1,0x1fffe
    21e4:	f3c58593          	addi	a1,a1,-196 # 2000011c <tcphdr>
    21e8:	4188                	lw	a0,0(a1)
    21ea:	00f54583          	lbu	a1,15(a0)
    21ee:	00e54803          	lbu	a6,14(a0)
    21f2:	04e40b23          	sb	a4,86(s0)
    21f6:	05a2                	slli	a1,a1,0x8
    21f8:	0105e5b3          	or	a1,a1,a6
    21fc:	0085d513          	srli	a0,a1,0x8
    2200:	04a40aa3          	sb	a0,85(s0)
    2204:	00875513          	srli	a0,a4,0x8
    2208:	04a40ba3          	sb	a0,87(s0)
    220c:	01075513          	srli	a0,a4,0x10
    2210:	8361                	srli	a4,a4,0x18
    2212:	04e40ca3          	sb	a4,89(s0)
    2216:	0087d713          	srli	a4,a5,0x8
    221a:	04e40da3          	sb	a4,91(s0)
    221e:	0107d713          	srli	a4,a5,0x10
    2222:	04e40e23          	sb	a4,92(s0)
    2226:	0187d713          	srli	a4,a5,0x18
    222a:	04b40a23          	sb	a1,84(s0)
    222e:	04a40c23          	sb	a0,88(s0)
    2232:	04f40d23          	sb	a5,90(s0)
    2236:	04e40ea3          	sb	a4,93(s0)
    223a:	c591                	beqz	a1,2246 <tcp_receive+0x10c>
    223c:	09444703          	lbu	a4,148(s0)
    2240:	c319                	beqz	a4,2246 <tcp_receive+0x10c>
    2242:	08040a23          	sb	zero,148(s0)
    2246:	04844703          	lbu	a4,72(s0)
    224a:	04744583          	lbu	a1,71(s0)
    224e:	0722                	slli	a4,a4,0x8
    2250:	8f4d                	or	a4,a4,a1
    2252:	04944583          	lbu	a1,73(s0)
    2256:	05c2                	slli	a1,a1,0x10
    2258:	8f4d                	or	a4,a4,a1
    225a:	04a44583          	lbu	a1,74(s0)
    225e:	05e2                	slli	a1,a1,0x18
    2260:	8dd9                	or	a1,a1,a4
    2262:	40b78733          	sub	a4,a5,a1
    2266:	4ee04963          	bgtz	a4,2758 <tcp_receive+0x61e>
    226a:	06040123          	sb	zero,98(s0)
    226e:	060401a3          	sb	zero,99(s0)
    2272:	1fffe717          	auipc	a4,0x1fffe
    2276:	eae75703          	lhu	a4,-338(a4) # 20000120 <tcplen>
    227a:	4c071c63          	bnez	a4,2752 <tcp_receive+0x618>
    227e:	05b44503          	lbu	a0,91(s0)
    2282:	05a44703          	lbu	a4,90(s0)
    2286:	05444803          	lbu	a6,84(s0)
    228a:	0522                	slli	a0,a0,0x8
    228c:	8d59                	or	a0,a0,a4
    228e:	05c44703          	lbu	a4,92(s0)
    2292:	96b2                	add	a3,a3,a2
    2294:	0742                	slli	a4,a4,0x10
    2296:	8d59                	or	a0,a0,a4
    2298:	05d44703          	lbu	a4,93(s0)
    229c:	0762                	slli	a4,a4,0x18
    229e:	8f49                	or	a4,a4,a0
    22a0:	05544503          	lbu	a0,85(s0)
    22a4:	0522                	slli	a0,a0,0x8
    22a6:	01056533          	or	a0,a0,a6
    22aa:	972a                	add	a4,a4,a0
    22ac:	4ad71363          	bne	a4,a3,2752 <tcp_receive+0x618>
    22b0:	03544703          	lbu	a4,53(s0)
    22b4:	03444683          	lbu	a3,52(s0)
    22b8:	0722                	slli	a4,a4,0x8
    22ba:	8f55                	or	a4,a4,a3
    22bc:	0742                	slli	a4,a4,0x10
    22be:	8741                	srai	a4,a4,0x10
    22c0:	48074963          	bltz	a4,2752 <tcp_receive+0x618>
    22c4:	48f59763          	bne	a1,a5,2752 <tcp_receive+0x618>
    22c8:	04b44783          	lbu	a5,75(s0)
    22cc:	470d                	li	a4,3
    22ce:	0785                	addi	a5,a5,1
    22d0:	0ff7f793          	andi	a5,a5,255
    22d4:	04f405a3          	sb	a5,75(s0)
    22d8:	46f77763          	bgeu	a4,a5,2746 <tcp_receive+0x60c>
    22dc:	04d44703          	lbu	a4,77(s0)
    22e0:	04c44783          	lbu	a5,76(s0)
    22e4:	03644683          	lbu	a3,54(s0)
    22e8:	0722                	slli	a4,a4,0x8
    22ea:	8f5d                	or	a4,a4,a5
    22ec:	03744783          	lbu	a5,55(s0)
    22f0:	07a2                	slli	a5,a5,0x8
    22f2:	8fd5                	or	a5,a5,a3
    22f4:	97ba                	add	a5,a5,a4
    22f6:	07c2                	slli	a5,a5,0x10
    22f8:	83c1                	srli	a5,a5,0x10
    22fa:	00f77763          	bgeu	a4,a5,2308 <tcp_receive+0x1ce>
    22fe:	04f40623          	sb	a5,76(s0)
    2302:	83a1                	srli	a5,a5,0x8
    2304:	04f406a3          	sb	a5,77(s0)
    2308:	06944703          	lbu	a4,105(s0)
    230c:	06844783          	lbu	a5,104(s0)
    2310:	0722                	slli	a4,a4,0x8
    2312:	8f5d                	or	a4,a4,a5
    2314:	06a44783          	lbu	a5,106(s0)
    2318:	07c2                	slli	a5,a5,0x10
    231a:	8f5d                	or	a4,a4,a5
    231c:	06b44783          	lbu	a5,107(s0)
    2320:	07e2                	slli	a5,a5,0x18
    2322:	8fd9                	or	a5,a5,a4
    2324:	6e079763          	bnez	a5,2a12 <tcp_receive+0x8d8>
    2328:	03944783          	lbu	a5,57(s0)
    232c:	03844603          	lbu	a2,56(s0)
    2330:	07a2                	slli	a5,a5,0x8
    2332:	8fd1                	or	a5,a5,a2
    2334:	03a44603          	lbu	a2,58(s0)
    2338:	0642                	slli	a2,a2,0x10
    233a:	8fd1                	or	a5,a5,a2
    233c:	03b44603          	lbu	a2,59(s0)
    2340:	0662                	slli	a2,a2,0x18
    2342:	8e5d                	or	a2,a2,a5
    2344:	020611e3          	bnez	a2,2b66 <tcp_receive+0xa2c>
    2348:	02344603          	lbu	a2,35(s0)
    234c:	02244703          	lbu	a4,34(s0)
    2350:	1fffe517          	auipc	a0,0x1fffe
    2354:	dd055503          	lhu	a0,-560(a0) # 20000120 <tcplen>
    2358:	0622                	slli	a2,a2,0x8
    235a:	8e59                	or	a2,a2,a4
    235c:	02444703          	lbu	a4,36(s0)
    2360:	409c                	lw	a5,0(s1)
    2362:	0742                	slli	a4,a4,0x10
    2364:	8e59                	or	a2,a2,a4
    2366:	02544703          	lbu	a4,37(s0)
    236a:	0762                	slli	a4,a4,0x18
    236c:	8f51                	or	a4,a4,a2
    236e:	6c050be3          	beqz	a0,3244 <tcp_receive+0x110a>
    2372:	40f705b3          	sub	a1,a4,a5
    2376:	fff58693          	addi	a3,a1,-1
    237a:	1006c2e3          	bltz	a3,2c7e <tcp_receive+0xb44>
    237e:	4685                	li	a3,1
    2380:	8e9d                	sub	a3,a3,a5
    2382:	8e89                	sub	a3,a3,a0
    2384:	96ba                	add	a3,a3,a4
    2386:	0ed04ce3          	bgtz	a3,2c7e <tcp_receive+0xb44>
    238a:	1fffe997          	auipc	s3,0x1fffe
    238e:	dc698993          	addi	s3,s3,-570 # 20000150 <inseg>
    2392:	0049a903          	lw	s2,4(s3)
    2396:	01059693          	slli	a3,a1,0x10
    239a:	82c1                	srli	a3,a3,0x10
    239c:	00b94703          	lbu	a4,11(s2)
    23a0:	00a94783          	lbu	a5,10(s2)
    23a4:	0722                	slli	a4,a4,0x8
    23a6:	8f5d                	or	a4,a4,a5
    23a8:	0cb755e3          	bge	a4,a1,2c72 <tcp_receive+0xb38>
    23ac:	00994783          	lbu	a5,9(s2)
    23b0:	00894703          	lbu	a4,8(s2)
    23b4:	07a2                	slli	a5,a5,0x8
    23b6:	8fd9                	or	a5,a5,a4
    23b8:	8f95                	sub	a5,a5,a3
    23ba:	07c2                	slli	a5,a5,0x10
    23bc:	83c1                	srli	a5,a5,0x10
    23be:	0ff7f613          	andi	a2,a5,255
    23c2:	83a1                	srli	a5,a5,0x8
    23c4:	00b94703          	lbu	a4,11(s2)
    23c8:	00a94683          	lbu	a3,10(s2)
    23cc:	0722                	slli	a4,a4,0x8
    23ce:	8f55                	or	a4,a4,a3
    23d0:	06b747e3          	blt	a4,a1,2c3e <tcp_receive+0xb04>
    23d4:	40b005b3          	neg	a1,a1
    23d8:	05c2                	slli	a1,a1,0x10
    23da:	85c1                	srai	a1,a1,0x10
    23dc:	854a                	mv	a0,s2
    23de:	731040ef          	jal	ra,730e <pbuf_header>
    23e2:	00594703          	lbu	a4,5(s2)
    23e6:	00494783          	lbu	a5,4(s2)
    23ea:	00c9d683          	lhu	a3,12(s3)
    23ee:	0722                	slli	a4,a4,0x8
    23f0:	8f5d                	or	a4,a4,a5
    23f2:	00694783          	lbu	a5,6(s2)
    23f6:	07c2                	slli	a5,a5,0x10
    23f8:	8f5d                	or	a4,a4,a5
    23fa:	00794783          	lbu	a5,7(s2)
    23fe:	07e2                	slli	a5,a5,0x18
    2400:	8fd9                	or	a5,a5,a4
    2402:	1fffe717          	auipc	a4,0x1fffe
    2406:	d4f72b23          	sw	a5,-682(a4) # 20000158 <inseg+0x8>
    240a:	02344703          	lbu	a4,35(s0)
    240e:	02244783          	lbu	a5,34(s0)
    2412:	0722                	slli	a4,a4,0x8
    2414:	8f5d                	or	a4,a4,a5
    2416:	02444783          	lbu	a5,36(s0)
    241a:	07c2                	slli	a5,a5,0x10
    241c:	8f5d                	or	a4,a4,a5
    241e:	02544783          	lbu	a5,37(s0)
    2422:	07e2                	slli	a5,a5,0x18
    2424:	8fd9                	or	a5,a5,a4
    2426:	4098                	lw	a4,0(s1)
    2428:	9736                	add	a4,a4,a3
    242a:	8f1d                	sub	a4,a4,a5
    242c:	1fffe697          	auipc	a3,0x1fffe
    2430:	d2e69823          	sh	a4,-720(a3) # 2000015c <inseg+0xc>
    2434:	1fffe717          	auipc	a4,0x1fffe
    2438:	cef72223          	sw	a5,-796(a4) # 20000118 <seqno>
    243c:	0109a703          	lw	a4,16(s3)
    2440:	0087d693          	srli	a3,a5,0x8
    2444:	00f70223          	sb	a5,4(a4)
    2448:	00d702a3          	sb	a3,5(a4)
    244c:	0107d693          	srli	a3,a5,0x10
    2450:	83e1                	srli	a5,a5,0x18
    2452:	00d70323          	sb	a3,6(a4)
    2456:	00f703a3          	sb	a5,7(a4)
    245a:	02344703          	lbu	a4,35(s0)
    245e:	02244783          	lbu	a5,34(s0)
    2462:	4090                	lw	a2,0(s1)
    2464:	0722                	slli	a4,a4,0x8
    2466:	8f5d                	or	a4,a4,a5
    2468:	02444783          	lbu	a5,36(s0)
    246c:	07c2                	slli	a5,a5,0x10
    246e:	8f5d                	or	a4,a4,a5
    2470:	02544783          	lbu	a5,37(s0)
    2474:	07e2                	slli	a5,a5,0x18
    2476:	8fd9                	or	a5,a5,a4
    2478:	40f60733          	sub	a4,a2,a5
    247c:	5c0740e3          	bltz	a4,323c <tcp_receive+0x1102>
    2480:	02744683          	lbu	a3,39(s0)
    2484:	02644583          	lbu	a1,38(s0)
    2488:	00160713          	addi	a4,a2,1
    248c:	06a2                	slli	a3,a3,0x8
    248e:	8f1d                	sub	a4,a4,a5
    2490:	8ecd                	or	a3,a3,a1
    2492:	8f15                	sub	a4,a4,a3
    2494:	5ae044e3          	bgtz	a4,323c <tcp_receive+0x1102>
    2498:	38f617e3          	bne	a2,a5,3026 <tcp_receive+0xeec>
    249c:	1fffe917          	auipc	s2,0x1fffe
    24a0:	cb490913          	addi	s2,s2,-844 # 20000150 <inseg>
    24a4:	01092783          	lw	a5,16(s2)
    24a8:	1fffe997          	auipc	s3,0x1fffe
    24ac:	cb49d983          	lhu	s3,-844(s3) # 2000015c <inseg+0xc>
    24b0:	00c7c503          	lbu	a0,12(a5)
    24b4:	00d7c783          	lbu	a5,13(a5)
    24b8:	07a2                	slli	a5,a5,0x8
    24ba:	8d5d                	or	a0,a0,a5
    24bc:	20022097          	auipc	ra,0x20022
    24c0:	66a080e7          	jalr	1642(ra) # 20024b26 <ntohs>
    24c4:	890d                	andi	a0,a0,3
    24c6:	00a03533          	snez	a0,a0
    24ca:	954e                	add	a0,a0,s3
    24cc:	0542                	slli	a0,a0,0x10
    24ce:	8141                	srli	a0,a0,0x10
    24d0:	1fffe797          	auipc	a5,0x1fffe
    24d4:	c4a79823          	sh	a0,-944(a5) # 20000120 <tcplen>
    24d8:	02744783          	lbu	a5,39(s0)
    24dc:	02644703          	lbu	a4,38(s0)
    24e0:	07a2                	slli	a5,a5,0x8
    24e2:	8fd9                	or	a5,a5,a4
    24e4:	0ea7fe63          	bgeu	a5,a0,25e0 <tcp_receive+0x4a6>
    24e8:	01092783          	lw	a5,16(s2)
    24ec:	00c7c503          	lbu	a0,12(a5)
    24f0:	00d7c783          	lbu	a5,13(a5)
    24f4:	07a2                	slli	a5,a5,0x8
    24f6:	8d5d                	or	a0,a0,a5
    24f8:	20022097          	auipc	ra,0x20022
    24fc:	62e080e7          	jalr	1582(ra) # 20024b26 <ntohs>
    2500:	8905                	andi	a0,a0,1
    2502:	c125                	beqz	a0,2562 <tcp_receive+0x428>
    2504:	01092783          	lw	a5,16(s2)
    2508:	00d7c983          	lbu	s3,13(a5)
    250c:	00c7c503          	lbu	a0,12(a5)
    2510:	09a2                	slli	s3,s3,0x8
    2512:	00a9e9b3          	or	s3,s3,a0
    2516:	6541                	lui	a0,0x10
    2518:	fc050513          	addi	a0,a0,-64 # ffc0 <_ramcode_lma+0x7fc0>
    251c:	20022097          	auipc	ra,0x20022
    2520:	5fc080e7          	jalr	1532(ra) # 20024b18 <htons>
    2524:	01092783          	lw	a5,16(s2)
    2528:	00a9f9b3          	and	s3,s3,a0
    252c:	00c7c503          	lbu	a0,12(a5)
    2530:	00d7c783          	lbu	a5,13(a5)
    2534:	07a2                	slli	a5,a5,0x8
    2536:	8d5d                	or	a0,a0,a5
    2538:	20022097          	auipc	ra,0x20022
    253c:	5ee080e7          	jalr	1518(ra) # 20024b26 <ntohs>
    2540:	03e57513          	andi	a0,a0,62
    2544:	20022097          	auipc	ra,0x20022
    2548:	5d4080e7          	jalr	1492(ra) # 20024b18 <htons>
    254c:	01092783          	lw	a5,16(s2)
    2550:	00a9e533          	or	a0,s3,a0
    2554:	0542                	slli	a0,a0,0x10
    2556:	8141                	srli	a0,a0,0x10
    2558:	00a78623          	sb	a0,12(a5)
    255c:	8121                	srli	a0,a0,0x8
    255e:	00a786a3          	sb	a0,13(a5)
    2562:	02744783          	lbu	a5,39(s0)
    2566:	02644703          	lbu	a4,38(s0)
    256a:	07a2                	slli	a5,a5,0x8
    256c:	8fd9                	or	a5,a5,a4
    256e:	1fffe717          	auipc	a4,0x1fffe
    2572:	bef71723          	sh	a5,-1042(a4) # 2000015c <inseg+0xc>
    2576:	01092783          	lw	a5,16(s2)
    257a:	00c7c503          	lbu	a0,12(a5)
    257e:	00d7c783          	lbu	a5,13(a5)
    2582:	07a2                	slli	a5,a5,0x8
    2584:	8d5d                	or	a0,a0,a5
    2586:	20022097          	auipc	ra,0x20022
    258a:	5a0080e7          	jalr	1440(ra) # 20024b26 <ntohs>
    258e:	8909                	andi	a0,a0,2
    2590:	c901                	beqz	a0,25a0 <tcp_receive+0x466>
    2592:	00c95783          	lhu	a5,12(s2)
    2596:	17fd                	addi	a5,a5,-1
    2598:	1fffe717          	auipc	a4,0x1fffe
    259c:	bcf71223          	sh	a5,-1084(a4) # 2000015c <inseg+0xc>
    25a0:	00492503          	lw	a0,4(s2)
    25a4:	1fffe597          	auipc	a1,0x1fffe
    25a8:	bb85d583          	lhu	a1,-1096(a1) # 2000015c <inseg+0xc>
    25ac:	13e050ef          	jal	ra,76ea <pbuf_realloc>
    25b0:	01092783          	lw	a5,16(s2)
    25b4:	1fffe997          	auipc	s3,0x1fffe
    25b8:	ba89d983          	lhu	s3,-1112(s3) # 2000015c <inseg+0xc>
    25bc:	00c7c503          	lbu	a0,12(a5)
    25c0:	00d7c783          	lbu	a5,13(a5)
    25c4:	07a2                	slli	a5,a5,0x8
    25c6:	8d5d                	or	a0,a0,a5
    25c8:	20022097          	auipc	ra,0x20022
    25cc:	55e080e7          	jalr	1374(ra) # 20024b26 <ntohs>
    25d0:	890d                	andi	a0,a0,3
    25d2:	00a03533          	snez	a0,a0
    25d6:	99aa                	add	s3,s3,a0
    25d8:	1fffe797          	auipc	a5,0x1fffe
    25dc:	b5379423          	sh	s3,-1208(a5) # 20000120 <tcplen>
    25e0:	07144703          	lbu	a4,113(s0)
    25e4:	07044783          	lbu	a5,112(s0)
    25e8:	0722                	slli	a4,a4,0x8
    25ea:	8f5d                	or	a4,a4,a5
    25ec:	07244783          	lbu	a5,114(s0)
    25f0:	07c2                	slli	a5,a5,0x10
    25f2:	8f5d                	or	a4,a4,a5
    25f4:	07344783          	lbu	a5,115(s0)
    25f8:	07e2                	slli	a5,a5,0x18
    25fa:	8fd9                	or	a5,a5,a4
    25fc:	6e078063          	beqz	a5,2cdc <tcp_receive+0xba2>
    2600:	01092783          	lw	a5,16(s2)
    2604:	00c7c503          	lbu	a0,12(a5)
    2608:	00d7c783          	lbu	a5,13(a5)
    260c:	07a2                	slli	a5,a5,0x8
    260e:	8d5d                	or	a0,a0,a5
    2610:	20022097          	auipc	ra,0x20022
    2614:	516080e7          	jalr	1302(ra) # 20024b26 <ntohs>
    2618:	8905                	andi	a0,a0,1
    261a:	6a051263          	bnez	a0,2cbe <tcp_receive+0xb84>
    261e:	07144783          	lbu	a5,113(s0)
    2622:	07044983          	lbu	s3,112(s0)
    2626:	6ac1                	lui	s5,0x10
    2628:	07a2                	slli	a5,a5,0x8
    262a:	0137e7b3          	or	a5,a5,s3
    262e:	07244983          	lbu	s3,114(s0)
    2632:	fc0a8a93          	addi	s5,s5,-64 # ffc0 <_ramcode_lma+0x7fc0>
    2636:	09c2                	slli	s3,s3,0x10
    2638:	00f9e7b3          	or	a5,s3,a5
    263c:	07344983          	lbu	s3,115(s0)
    2640:	09e2                	slli	s3,s3,0x18
    2642:	00f9e9b3          	or	s3,s3,a5
    2646:	4088                	lw	a0,0(s1)
    2648:	1fffe717          	auipc	a4,0x1fffe
    264c:	ad875703          	lhu	a4,-1320(a4) # 20000120 <tcplen>
    2650:	972a                	add	a4,a4,a0
    2652:	0c098b63          	beqz	s3,2728 <tcp_receive+0x5ee>
    2656:	0109a603          	lw	a2,16(s3)
    265a:	00c9d583          	lhu	a1,12(s3)
    265e:	00564783          	lbu	a5,5(a2)
    2662:	00464683          	lbu	a3,4(a2)
    2666:	07a2                	slli	a5,a5,0x8
    2668:	8fd5                	or	a5,a5,a3
    266a:	00664683          	lbu	a3,6(a2)
    266e:	06c2                	slli	a3,a3,0x10
    2670:	8fd5                	or	a5,a5,a3
    2672:	00764683          	lbu	a3,7(a2)
    2676:	06e2                	slli	a3,a3,0x18
    2678:	8edd                	or	a3,a3,a5
    267a:	95b6                	add	a1,a1,a3
    267c:	40b705b3          	sub	a1,a4,a1
    2680:	7005d663          	bgez	a1,2d8c <tcp_receive+0xc52>
    2684:	8f15                	sub	a4,a4,a3
    2686:	0ae05163          	blez	a4,2728 <tcp_receive+0x5ee>
    268a:	07144683          	lbu	a3,113(s0)
    268e:	07044703          	lbu	a4,112(s0)
    2692:	06a2                	slli	a3,a3,0x8
    2694:	8ed9                	or	a3,a3,a4
    2696:	07244703          	lbu	a4,114(s0)
    269a:	0742                	slli	a4,a4,0x10
    269c:	8ed9                	or	a3,a3,a4
    269e:	07344703          	lbu	a4,115(s0)
    26a2:	0762                	slli	a4,a4,0x18
    26a4:	8f55                	or	a4,a4,a3
    26a6:	4b18                	lw	a4,16(a4)
    26a8:	00574783          	lbu	a5,5(a4)
    26ac:	00474683          	lbu	a3,4(a4)
    26b0:	07a2                	slli	a5,a5,0x8
    26b2:	8fd5                	or	a5,a5,a3
    26b4:	8f89                	sub	a5,a5,a0
    26b6:	1fffe717          	auipc	a4,0x1fffe
    26ba:	aaf71323          	sh	a5,-1370(a4) # 2000015c <inseg+0xc>
    26be:	01092783          	lw	a5,16(s2)
    26c2:	00c7c503          	lbu	a0,12(a5)
    26c6:	00d7c783          	lbu	a5,13(a5)
    26ca:	07a2                	slli	a5,a5,0x8
    26cc:	8d5d                	or	a0,a0,a5
    26ce:	20022097          	auipc	ra,0x20022
    26d2:	458080e7          	jalr	1112(ra) # 20024b26 <ntohs>
    26d6:	8909                	andi	a0,a0,2
    26d8:	c901                	beqz	a0,26e8 <tcp_receive+0x5ae>
    26da:	00c95783          	lhu	a5,12(s2)
    26de:	17fd                	addi	a5,a5,-1
    26e0:	1fffe717          	auipc	a4,0x1fffe
    26e4:	a6f71e23          	sh	a5,-1412(a4) # 2000015c <inseg+0xc>
    26e8:	00492503          	lw	a0,4(s2)
    26ec:	1fffe597          	auipc	a1,0x1fffe
    26f0:	a705d583          	lhu	a1,-1424(a1) # 2000015c <inseg+0xc>
    26f4:	7f7040ef          	jal	ra,76ea <pbuf_realloc>
    26f8:	01092783          	lw	a5,16(s2)
    26fc:	1fffea17          	auipc	s4,0x1fffe
    2700:	a60a5a03          	lhu	s4,-1440(s4) # 2000015c <inseg+0xc>
    2704:	00c7c503          	lbu	a0,12(a5)
    2708:	00d7c783          	lbu	a5,13(a5)
    270c:	07a2                	slli	a5,a5,0x8
    270e:	8d5d                	or	a0,a0,a5
    2710:	20022097          	auipc	ra,0x20022
    2714:	416080e7          	jalr	1046(ra) # 20024b26 <ntohs>
    2718:	890d                	andi	a0,a0,3
    271a:	00a03533          	snez	a0,a0
    271e:	9a2a                	add	s4,s4,a0
    2720:	1fffe797          	auipc	a5,0x1fffe
    2724:	a1479023          	sh	s4,-1536(a5) # 20000120 <tcplen>
    2728:	0089d793          	srli	a5,s3,0x8
    272c:	07340823          	sb	s3,112(s0)
    2730:	06f408a3          	sb	a5,113(s0)
    2734:	0109d793          	srli	a5,s3,0x10
    2738:	0189d993          	srli	s3,s3,0x18
    273c:	06f40923          	sb	a5,114(s0)
    2740:	073409a3          	sb	s3,115(s0)
    2744:	ab61                	j	2cdc <tcp_receive+0xba2>
    2746:	bce791e3          	bne	a5,a4,2308 <tcp_receive+0x1ce>
    274a:	8522                	mv	a0,s0
    274c:	298030ef          	jal	ra,59e4 <tcp_rexmit_fast>
    2750:	be65                	j	2308 <tcp_receive+0x1ce>
    2752:	040405a3          	sb	zero,75(s0)
    2756:	be4d                	j	2308 <tcp_receive+0x1ce>
    2758:	05144603          	lbu	a2,81(s0)
    275c:	05044683          	lbu	a3,80(s0)
    2760:	0622                	slli	a2,a2,0x8
    2762:	8e55                	or	a2,a2,a3
    2764:	05244683          	lbu	a3,82(s0)
    2768:	06c2                	slli	a3,a3,0x10
    276a:	8e55                	or	a2,a2,a3
    276c:	05344683          	lbu	a3,83(s0)
    2770:	06e2                	slli	a3,a3,0x18
    2772:	8ed1                	or	a3,a3,a2
    2774:	40d786b3          	sub	a3,a5,a3
    2778:	28d04863          	bgtz	a3,2a08 <tcp_receive+0x8ce>
    277c:	02144683          	lbu	a3,33(s0)
    2780:	0046f613          	andi	a2,a3,4
    2784:	ce19                	beqz	a2,27a2 <tcp_receive+0x668>
    2786:	9aed                	andi	a3,a3,-5
    2788:	02d400a3          	sb	a3,33(s0)
    278c:	04f44683          	lbu	a3,79(s0)
    2790:	04e44603          	lbu	a2,78(s0)
    2794:	06a2                	slli	a3,a3,0x8
    2796:	8ed1                	or	a3,a3,a2
    2798:	04d40623          	sb	a3,76(s0)
    279c:	82a1                	srli	a3,a3,0x8
    279e:	04d406a3          	sb	a3,77(s0)
    27a2:	04144683          	lbu	a3,65(s0)
    27a6:	04044603          	lbu	a2,64(s0)
    27aa:	04244583          	lbu	a1,66(s0)
    27ae:	06a2                	slli	a3,a3,0x8
    27b0:	8ed1                	or	a3,a3,a2
    27b2:	06c2                	slli	a3,a3,0x10
    27b4:	86c1                	srai	a3,a3,0x10
    27b6:	4036d613          	srai	a2,a3,0x3
    27ba:	04344683          	lbu	a3,67(s0)
    27be:	0742                	slli	a4,a4,0x10
    27c0:	8341                	srli	a4,a4,0x10
    27c2:	06a2                	slli	a3,a3,0x8
    27c4:	8ecd                	or	a3,a3,a1
    27c6:	96b2                	add	a3,a3,a2
    27c8:	06c2                	slli	a3,a3,0x10
    27ca:	82c1                	srli	a3,a3,0x10
    27cc:	04d40223          	sb	a3,68(s0)
    27d0:	82a1                	srli	a3,a3,0x8
    27d2:	04d402a3          	sb	a3,69(s0)
    27d6:	00875693          	srli	a3,a4,0x8
    27da:	06d401a3          	sb	a3,99(s0)
    27de:	06544683          	lbu	a3,101(s0)
    27e2:	06444603          	lbu	a2,100(s0)
    27e6:	06e40123          	sb	a4,98(s0)
    27ea:	06a2                	slli	a3,a3,0x8
    27ec:	8ed1                	or	a3,a3,a2
    27ee:	9736                	add	a4,a4,a3
    27f0:	0742                	slli	a4,a4,0x10
    27f2:	8341                	srli	a4,a4,0x10
    27f4:	06e40223          	sb	a4,100(s0)
    27f8:	8321                	srli	a4,a4,0x8
    27fa:	06e402a3          	sb	a4,101(s0)
    27fe:	0087d713          	srli	a4,a5,0x8
    2802:	04e40423          	sb	a4,72(s0)
    2806:	0107d713          	srli	a4,a5,0x10
    280a:	04f403a3          	sb	a5,71(s0)
    280e:	04e404a3          	sb	a4,73(s0)
    2812:	83e1                	srli	a5,a5,0x18
    2814:	01144703          	lbu	a4,17(s0)
    2818:	04f40523          	sb	a5,74(s0)
    281c:	01044783          	lbu	a5,16(s0)
    2820:	0722                	slli	a4,a4,0x8
    2822:	04040323          	sb	zero,70(s0)
    2826:	8f5d                	or	a4,a4,a5
    2828:	01244783          	lbu	a5,18(s0)
    282c:	040405a3          	sb	zero,75(s0)
    2830:	07c2                	slli	a5,a5,0x10
    2832:	8f5d                	or	a4,a4,a5
    2834:	01344783          	lbu	a5,19(s0)
    2838:	07e2                	slli	a5,a5,0x18
    283a:	8fd9                	or	a5,a5,a4
    283c:	470d                	li	a4,3
    283e:	04f77063          	bgeu	a4,a5,287e <tcp_receive+0x744>
    2842:	04d44703          	lbu	a4,77(s0)
    2846:	04c44783          	lbu	a5,76(s0)
    284a:	03644683          	lbu	a3,54(s0)
    284e:	0722                	slli	a4,a4,0x8
    2850:	8f5d                	or	a4,a4,a5
    2852:	03744783          	lbu	a5,55(s0)
    2856:	04e44603          	lbu	a2,78(s0)
    285a:	07a2                	slli	a5,a5,0x8
    285c:	8fd5                	or	a5,a5,a3
    285e:	04f44683          	lbu	a3,79(s0)
    2862:	06a2                	slli	a3,a3,0x8
    2864:	8ed1                	or	a3,a3,a2
    2866:	06d77763          	bgeu	a4,a3,28d4 <tcp_receive+0x79a>
    286a:	97ba                	add	a5,a5,a4
    286c:	07c2                	slli	a5,a5,0x10
    286e:	83c1                	srli	a5,a5,0x10
    2870:	00f77763          	bgeu	a4,a5,287e <tcp_receive+0x744>
    2874:	04f40623          	sb	a5,76(s0)
    2878:	83a1                	srli	a5,a5,0x8
    287a:	04f406a3          	sb	a5,77(s0)
    287e:	06d44703          	lbu	a4,109(s0)
    2882:	06c44783          	lbu	a5,108(s0)
    2886:	0722                	slli	a4,a4,0x8
    2888:	8f5d                	or	a4,a4,a5
    288a:	06e44783          	lbu	a5,110(s0)
    288e:	07c2                	slli	a5,a5,0x10
    2890:	8f5d                	or	a4,a4,a5
    2892:	06f44783          	lbu	a5,111(s0)
    2896:	07e2                	slli	a5,a5,0x18
    2898:	8fd9                	or	a5,a5,a4
    289a:	e3b1                	bnez	a5,28de <tcp_receive+0x7a4>
    289c:	06d44703          	lbu	a4,109(s0)
    28a0:	06c44783          	lbu	a5,108(s0)
    28a4:	02040923          	sb	zero,50(s0)
    28a8:	0722                	slli	a4,a4,0x8
    28aa:	8f5d                	or	a4,a4,a5
    28ac:	06e44783          	lbu	a5,110(s0)
    28b0:	07c2                	slli	a5,a5,0x10
    28b2:	8f5d                	or	a4,a4,a5
    28b4:	06f44783          	lbu	a5,111(s0)
    28b8:	07e2                	slli	a5,a5,0x18
    28ba:	8fd9                	or	a5,a5,a4
    28bc:	0017b793          	seqz	a5,a5
    28c0:	40f007b3          	neg	a5,a5
    28c4:	07c2                	slli	a5,a5,0x10
    28c6:	83c1                	srli	a5,a5,0x10
    28c8:	02f40a23          	sb	a5,52(s0)
    28cc:	83a1                	srli	a5,a5,0x8
    28ce:	02f40aa3          	sb	a5,53(s0)
    28d2:	bc1d                	j	2308 <tcp_receive+0x1ce>
    28d4:	02f787b3          	mul	a5,a5,a5
    28d8:	02e7c7b3          	div	a5,a5,a4
    28dc:	b779                	j	286a <tcp_receive+0x730>
    28de:	4b98                	lw	a4,16(a5)
    28e0:	00574503          	lbu	a0,5(a4)
    28e4:	00474783          	lbu	a5,4(a4)
    28e8:	0522                	slli	a0,a0,0x8
    28ea:	8d5d                	or	a0,a0,a5
    28ec:	00674783          	lbu	a5,6(a4)
    28f0:	07c2                	slli	a5,a5,0x10
    28f2:	8fc9                	or	a5,a5,a0
    28f4:	00774503          	lbu	a0,7(a4)
    28f8:	0562                	slli	a0,a0,0x18
    28fa:	8d5d                	or	a0,a0,a5
    28fc:	20022097          	auipc	ra,0x20022
    2900:	25c080e7          	jalr	604(ra) # 20024b58 <ntohl>
    2904:	06d44703          	lbu	a4,109(s0)
    2908:	06c44783          	lbu	a5,108(s0)
    290c:	89aa                	mv	s3,a0
    290e:	0722                	slli	a4,a4,0x8
    2910:	8f5d                	or	a4,a4,a5
    2912:	06e44783          	lbu	a5,110(s0)
    2916:	07c2                	slli	a5,a5,0x10
    2918:	8f5d                	or	a4,a4,a5
    291a:	06f44783          	lbu	a5,111(s0)
    291e:	07e2                	slli	a5,a5,0x18
    2920:	8fd9                	or	a5,a5,a4
    2922:	00c7da03          	lhu	s4,12(a5)
    2926:	4b9c                	lw	a5,16(a5)
    2928:	00c7c503          	lbu	a0,12(a5)
    292c:	00d7c783          	lbu	a5,13(a5)
    2930:	07a2                	slli	a5,a5,0x8
    2932:	8d5d                	or	a0,a0,a5
    2934:	20022097          	auipc	ra,0x20022
    2938:	1f2080e7          	jalr	498(ra) # 20024b26 <ntohs>
    293c:	00092783          	lw	a5,0(s2)
    2940:	890d                	andi	a0,a0,3
    2942:	00a03533          	snez	a0,a0
    2946:	9552                	add	a0,a0,s4
    2948:	40f989b3          	sub	s3,s3,a5
    294c:	954e                	add	a0,a0,s3
    294e:	f4a047e3          	bgtz	a0,289c <tcp_receive+0x762>
    2952:	06d44783          	lbu	a5,109(s0)
    2956:	06c44983          	lbu	s3,108(s0)
    295a:	06244703          	lbu	a4,98(s0)
    295e:	07a2                	slli	a5,a5,0x8
    2960:	0137e7b3          	or	a5,a5,s3
    2964:	06e44983          	lbu	s3,110(s0)
    2968:	09c2                	slli	s3,s3,0x10
    296a:	00f9e7b3          	or	a5,s3,a5
    296e:	06f44983          	lbu	s3,111(s0)
    2972:	09e2                	slli	s3,s3,0x18
    2974:	00f9e9b3          	or	s3,s3,a5
    2978:	0009c783          	lbu	a5,0(s3)
    297c:	06f40623          	sb	a5,108(s0)
    2980:	0019c783          	lbu	a5,1(s3)
    2984:	06f406a3          	sb	a5,109(s0)
    2988:	0029c783          	lbu	a5,2(s3)
    298c:	06f40723          	sb	a5,110(s0)
    2990:	0039c783          	lbu	a5,3(s3)
    2994:	06f407a3          	sb	a5,111(s0)
    2998:	06344783          	lbu	a5,99(s0)
    299c:	07a2                	slli	a5,a5,0x8
    299e:	8fd9                	or	a5,a5,a4
    29a0:	cf8d                	beqz	a5,29da <tcp_receive+0x8a0>
    29a2:	0109a783          	lw	a5,16(s3)
    29a6:	00c7c503          	lbu	a0,12(a5)
    29aa:	00d7c783          	lbu	a5,13(a5)
    29ae:	07a2                	slli	a5,a5,0x8
    29b0:	8d5d                	or	a0,a0,a5
    29b2:	20022097          	auipc	ra,0x20022
    29b6:	174080e7          	jalr	372(ra) # 20024b26 <ntohs>
    29ba:	8905                	andi	a0,a0,1
    29bc:	cd19                	beqz	a0,29da <tcp_receive+0x8a0>
    29be:	06344783          	lbu	a5,99(s0)
    29c2:	06244703          	lbu	a4,98(s0)
    29c6:	07a2                	slli	a5,a5,0x8
    29c8:	8fd9                	or	a5,a5,a4
    29ca:	17fd                	addi	a5,a5,-1
    29cc:	07c2                	slli	a5,a5,0x10
    29ce:	83c1                	srli	a5,a5,0x10
    29d0:	06f40123          	sb	a5,98(s0)
    29d4:	83a1                	srli	a5,a5,0x8
    29d6:	06f401a3          	sb	a5,99(s0)
    29da:	0049a503          	lw	a0,4(s3)
    29de:	603040ef          	jal	ra,77e0 <pbuf_clen>
    29e2:	06744783          	lbu	a5,103(s0)
    29e6:	06644703          	lbu	a4,102(s0)
    29ea:	07a2                	slli	a5,a5,0x8
    29ec:	8fd9                	or	a5,a5,a4
    29ee:	40a78533          	sub	a0,a5,a0
    29f2:	0542                	slli	a0,a0,0x10
    29f4:	8141                	srli	a0,a0,0x10
    29f6:	06a40323          	sb	a0,102(s0)
    29fa:	8121                	srli	a0,a0,0x8
    29fc:	06a403a3          	sb	a0,103(s0)
    2a00:	854e                	mv	a0,s3
    2a02:	9aefe0ef          	jal	ra,bb0 <tcp_seg_free>
    2a06:	bda5                	j	287e <tcp_receive+0x744>
    2a08:	06040123          	sb	zero,98(s0)
    2a0c:	060401a3          	sb	zero,99(s0)
    2a10:	b8e5                	j	2308 <tcp_receive+0x1ce>
    2a12:	4b94                	lw	a3,16(a5)
    2a14:	00092983          	lw	s3,0(s2)
    2a18:	0056c503          	lbu	a0,5(a3)
    2a1c:	0046c703          	lbu	a4,4(a3)
    2a20:	0522                	slli	a0,a0,0x8
    2a22:	8d59                	or	a0,a0,a4
    2a24:	0066c703          	lbu	a4,6(a3)
    2a28:	0742                	slli	a4,a4,0x10
    2a2a:	8f49                	or	a4,a4,a0
    2a2c:	0076c503          	lbu	a0,7(a3)
    2a30:	0562                	slli	a0,a0,0x18
    2a32:	8d59                	or	a0,a0,a4
    2a34:	20022097          	auipc	ra,0x20022
    2a38:	124080e7          	jalr	292(ra) # 20024b58 <ntohl>
    2a3c:	06944703          	lbu	a4,105(s0)
    2a40:	06844783          	lbu	a5,104(s0)
    2a44:	8aaa                	mv	s5,a0
    2a46:	0722                	slli	a4,a4,0x8
    2a48:	8fd9                	or	a5,a5,a4
    2a4a:	06a44703          	lbu	a4,106(s0)
    2a4e:	0742                	slli	a4,a4,0x10
    2a50:	8f5d                	or	a4,a4,a5
    2a52:	06b44783          	lbu	a5,107(s0)
    2a56:	07e2                	slli	a5,a5,0x18
    2a58:	8fd9                	or	a5,a5,a4
    2a5a:	4b98                	lw	a4,16(a5)
    2a5c:	00c7da03          	lhu	s4,12(a5)
    2a60:	00c74503          	lbu	a0,12(a4)
    2a64:	00d74703          	lbu	a4,13(a4)
    2a68:	0722                	slli	a4,a4,0x8
    2a6a:	8d59                	or	a0,a0,a4
    2a6c:	20022097          	auipc	ra,0x20022
    2a70:	0ba080e7          	jalr	186(ra) # 20024b26 <ntohs>
    2a74:	890d                	andi	a0,a0,3
    2a76:	00a03533          	snez	a0,a0
    2a7a:	415987b3          	sub	a5,s3,s5
    2a7e:	9552                	add	a0,a0,s4
    2a80:	8f89                	sub	a5,a5,a0
    2a82:	8a07c3e3          	bltz	a5,2328 <tcp_receive+0x1ee>
    2a86:	05144703          	lbu	a4,81(s0)
    2a8a:	05044783          	lbu	a5,80(s0)
    2a8e:	0722                	slli	a4,a4,0x8
    2a90:	8f5d                	or	a4,a4,a5
    2a92:	05244783          	lbu	a5,82(s0)
    2a96:	07c2                	slli	a5,a5,0x10
    2a98:	8f5d                	or	a4,a4,a5
    2a9a:	05344783          	lbu	a5,83(s0)
    2a9e:	07e2                	slli	a5,a5,0x18
    2aa0:	8fd9                	or	a5,a5,a4
    2aa2:	00092703          	lw	a4,0(s2)
    2aa6:	40f707b3          	sub	a5,a4,a5
    2aaa:	86f04fe3          	bgtz	a5,2328 <tcp_receive+0x1ee>
    2aae:	06944783          	lbu	a5,105(s0)
    2ab2:	06844983          	lbu	s3,104(s0)
    2ab6:	06244703          	lbu	a4,98(s0)
    2aba:	07a2                	slli	a5,a5,0x8
    2abc:	0137e7b3          	or	a5,a5,s3
    2ac0:	06a44983          	lbu	s3,106(s0)
    2ac4:	09c2                	slli	s3,s3,0x10
    2ac6:	00f9e7b3          	or	a5,s3,a5
    2aca:	06b44983          	lbu	s3,107(s0)
    2ace:	09e2                	slli	s3,s3,0x18
    2ad0:	00f9e9b3          	or	s3,s3,a5
    2ad4:	0009c783          	lbu	a5,0(s3)
    2ad8:	06f40423          	sb	a5,104(s0)
    2adc:	0019c783          	lbu	a5,1(s3)
    2ae0:	06f404a3          	sb	a5,105(s0)
    2ae4:	0029c783          	lbu	a5,2(s3)
    2ae8:	06f40523          	sb	a5,106(s0)
    2aec:	0039c783          	lbu	a5,3(s3)
    2af0:	06f405a3          	sb	a5,107(s0)
    2af4:	06344783          	lbu	a5,99(s0)
    2af8:	07a2                	slli	a5,a5,0x8
    2afa:	8fd9                	or	a5,a5,a4
    2afc:	cf8d                	beqz	a5,2b36 <tcp_receive+0x9fc>
    2afe:	0109a783          	lw	a5,16(s3)
    2b02:	00c7c503          	lbu	a0,12(a5)
    2b06:	00d7c783          	lbu	a5,13(a5)
    2b0a:	07a2                	slli	a5,a5,0x8
    2b0c:	8d5d                	or	a0,a0,a5
    2b0e:	20022097          	auipc	ra,0x20022
    2b12:	018080e7          	jalr	24(ra) # 20024b26 <ntohs>
    2b16:	8905                	andi	a0,a0,1
    2b18:	cd19                	beqz	a0,2b36 <tcp_receive+0x9fc>
    2b1a:	06344783          	lbu	a5,99(s0)
    2b1e:	06244703          	lbu	a4,98(s0)
    2b22:	07a2                	slli	a5,a5,0x8
