
TCP_Client.elf:     file format elf32-littleriscv
TCP_Client.elf
architecture: riscv:rv32, flags 0x00000112:
EXEC_P, HAS_SYMS, D_PAGED
start address 0x00000000

Program Header:
    LOAD off    0x00001000 vaddr 0x00000000 paddr 0x00000000 align 2**12
         filesz 0x00007944 memsz 0x00007944 flags r-x
    LOAD off    0x00009000 vaddr 0x20000000 paddr 0x00007944 align 2**12
         filesz 0x000000a8 memsz 0x00000ed0 flags rw-
    LOAD off    0x0000a000 vaddr 0x20020000 paddr 0x00008000 align 2**12
         filesz 0x0000cc00 memsz 0x0000cc00 flags rwx

Sections:
Idx Name          Size      VMA       LMA       File off  Algn
  0 .init         00000004  00000000  00000000  00001000  2**1
                  CONTENTS, ALLOC, LOAD, READONLY, CODE
  1 .vector       000000bc  00000004  00000004  00001004  2**1
                  CONTENTS, ALLOC, LOAD, READONLY, CODE
  2 .text         00007884  000000c0  000000c0  000010c0  2**3
                  CONTENTS, ALLOC, LOAD, READONLY, CODE
  3 .ramcodelalign 00000000  00008000  00008000  00016c00  2**0
                  CONTENTS
  4 .ramcode      0000cc00  20020000  00008000  0000a000  2**4
                  CONTENTS, ALLOC, LOAD, CODE
  5 .fini         00000000  00007944  00007944  00016c00  2**0
                  CONTENTS, ALLOC, LOAD, CODE
  6 .dalign       00000000  20000000  20000000  00016c00  2**0
                  CONTENTS
  7 .dlalign      00000000  00007944  00007944  00016c00  2**0
                  CONTENTS
  8 .data         000000a8  20000000  00007944  00009000  2**2
                  CONTENTS, ALLOC, LOAD, DATA
  9 .bss          00000e28  200000a8  000079ec  000090a8  2**2
                  ALLOC
 10 .heap         00000000  20000ed0  20000ed0  00016c00  2**0
                  CONTENTS
 11 .usrstack     00000000  20004000  20004000  00016c00  2**0
                  CONTENTS
 12 .debug_info   00008963  00000000  00000000  00016c00  2**0
                  CONTENTS, READONLY, DEBUGGING
 13 .debug_abbrev 00001909  00000000  00000000  0001f563  2**0
                  CONTENTS, READONLY, DEBUGGING
 14 .debug_loc    000010b9  00000000  00000000  00020e6c  2**0
                  CONTENTS, READONLY, DEBUGGING
 15 .debug_aranges 000002a0  00000000  00000000  00021f25  2**0
                  CONTENTS, READONLY, DEBUGGING
 16 .debug_ranges 00000298  00000000  00000000  000221c5  2**0
                  CONTENTS, READONLY, DEBUGGING
 17 .debug_line   00005430  00000000  00000000  0002245d  2**0
                  CONTENTS, READONLY, DEBUGGING
 18 .debug_str    00001b6c  00000000  00000000  0002788d  2**0
                  CONTENTS, READONLY, DEBUGGING
 19 .comment      00000033  00000000  00000000  000293f9  2**0
                  CONTENTS, READONLY
 20 .debug_frame  00000fc8  00000000  00000000  0002942c  2**2
                  CONTENTS, READONLY, DEBUGGING
 21 .stab         00000084  00000000  00000000  0002a3f4  2**2
                  CONTENTS, READONLY, DEBUGGING
 22 .stabstr      00000117  00000000  00000000  0002a478  2**0
                  CONTENTS, READONLY, DEBUGGING
SYMBOL TABLE:
00000000 l    d  .init	00000000 .init
00000004 l    d  .vector	00000000 .vector
000000c0 l    d  .text	00000000 .text
00008000 l    d  .ramcodelalign	00000000 .ramcodelalign
20020000 l    d  .ramcode	00000000 .ramcode
00007944 l    d  .fini	00000000 .fini
20000000 l    d  .dalign	00000000 .dalign
00007944 l    d  .dlalign	00000000 .dlalign
20000000 l    d  .data	00000000 .data
200000a8 l    d  .bss	00000000 .bss
20000ed0 l    d  .heap	00000000 .heap
20004000 l    d  .usrstack	00000000 .usrstack
00000000 l    d  .debug_info	00000000 .debug_info
00000000 l    d  .debug_abbrev	00000000 .debug_abbrev
00000000 l    d  .debug_loc	00000000 .debug_loc
00000000 l    d  .debug_aranges	00000000 .debug_aranges
00000000 l    d  .debug_ranges	00000000 .debug_ranges
00000000 l    d  .debug_line	00000000 .debug_line
00000000 l    d  .debug_str	00000000 .debug_str
00000000 l    d  .comment	00000000 .comment
00000000 l    d  .debug_frame	00000000 .debug_frame
00000000 l    d  .stab	00000000 .stab
00000000 l    d  .stabstr	00000000 .stabstr
00000000 l    df *ABS*	00000000 ./SRC/Startup/startup_CH56x.o
00000004 l       .vector	00000000 _vector_base
00000000 l    df *ABS*	00000000 tcp.c
00000500 l     F .text	000000dc tcp_new_port
200000ec l     O .bss	00000001 tcp_timer
2000007c l     O .data	00000004 iss.3741
20000080 l     O .data	00000002 port.3573
00000000 l    df *ABS*	00000000 tcp_in.c
00001d1a l     F .text	000000d4 tcp_parseopt
00001dee l     F .text	00000112 tcp_oos_insert_segment
00001f00 l     F .text	0000112e tcp_receive
2000013c l     O .bss	00000014 inseg
200000f0 l     O .bss	00000004 ackno
200000f4 l     O .bss	00000001 flags
200000f8 l     O .bss	00000004 iphdr
200000fc l     O .bss	00000004 recv_data
20000100 l     O .bss	00000001 recv_flags
20000104 l     O .bss	00000004 seqno
20000108 l     O .bss	00000004 tcphdr
2000010c l     O .bss	00000002 tcplen
00000000 l    df *ABS*	00000000 tcp_out.c
00004532 l     F .text	000001a8 tcp_output_set_header.constprop.0
00000000 l    df *ABS*	00000000 ip.c
200000d4 l     O .bss	00000002 ip_id.3576
00000000 l    df *ABS*	00000000 mem.c
200000dc l     O .bss	00000004 ram
200000e0 l     O .bss	00000004 ram_end
00000000 l    df *ABS*	00000000 memp.c
2000011c l     O .bss	00000020 memp_tab
00000000 l    df *ABS*	00000000 udp.c
00000000 l    df *ABS*	00000000 pbuf.c
00000000 l    df *ABS*	00000000 ip_addr.c
00000000 l    df *ABS*	00000000 PHY_interrupt.c
00000000 l    df *ABS*	00000000 ethernet_driver.c
00000000 l    df *ABS*	00000000 timer.c
00000000 l    df *ABS*	00000000 Main.c
00000000 l    df *ABS*	00000000 CH56x_clk.c
00000000 l    df *ABS*	00000000 CH56x_gpio.c
00000000 l    df *ABS*	00000000 CH56x_sys.c
200000a8 l     O .bss	00000002 p_ms
200000aa l     O .bss	00000001 p_us
00000000 l    df *ABS*	00000000 ch569sock.c
00000000 l    df *ABS*	00000000 etharp.c
200228b0 l     F .ramcode	0000025c find_entry
20022b0c l     F .ramcode	000000f2 update_arp_entry
200000b4 l     O .bss	00000001 etharp_cached_entry
00000000 l    df *ABS*	00000000 ethernetif.c
2002330e l     F .ramcode	00000092 low_level_output
00000000 l    df *ABS*	00000000 ipcheck.c
00000000 l    df *ABS*	00000000 inet.c
00000000 l    df *ABS*	00000000 init.c
00000000 l    df *ABS*	00000000 ip_frag.c
200000d6 l     O .bss	00000002 ip_reass_pbufcount
200000d8 l     O .bss	00000004 reassdatagrams
00000000 l    df *ABS*	00000000 netif.c
200000e4 l     O .bss	00000001 netifnum.2254
00000000 l    df *ABS*	00000000 raw.c
200000e8 l     O .bss	00000004 raw_pcbs
00000000 l    df *ABS*	00000000 icmp.c
20024506 l     F .ramcode	000000c6 icmp_send_response
00000000 l    df *ABS*	00000000 inet_chksum.c
2002492e l     F .ramcode	00000084 lwip_standard_chksum
00000000 l    df *ABS*	00000000 memcpy.c
00000000 l    df *ABS*	00000000 printf.c
00000000 l    df *ABS*	00000000 putchar.c
00000000 l    df *ABS*	00000000 puts.c
00000000 l    df *ABS*	00000000 wbuf.c
00000000 l    df *ABS*	00000000 wsetup.c
00000000 l    df *ABS*	00000000 fflush.c
00000000 l    df *ABS*	00000000 findfp.c
20025120 l     F .ramcode	0000006a std
00000000 l    df *ABS*	00000000 fwalk.c
00000000 l    df *ABS*	00000000 makebuf.c
00000000 l    df *ABS*	00000000 nano-mallocr.c
00000000 l    df *ABS*	00000000 nano-mallocr.c
00000000 l    df *ABS*	00000000 nano-vfprintf.c
200255ec l     F .ramcode	0000002a __sfputc_r
00000000 l    df *ABS*	00000000 nano-vfprintf_i.c
00000000 l    df *ABS*	00000000 putc.c
00000000 l    df *ABS*	00000000 sbrkr.c
00000000 l    df *ABS*	00000000 stdio.c
00000000 l    df *ABS*	00000000 writer.c
00000000 l    df *ABS*	00000000 closer.c
00000000 l    df *ABS*	00000000 fstatr.c
00000000 l    df *ABS*	00000000 isattyr.c
00000000 l    df *ABS*	00000000 lseekr.c
00000000 l    df *ABS*	00000000 memchr.c
00000000 l    df *ABS*	00000000 mlock.c
00000000 l    df *ABS*	00000000 readr.c
00000000 l    df *ABS*	00000000 close.c
00000000 l    df *ABS*	00000000 fstat.c
00000000 l    df *ABS*	00000000 isatty.c
00000000 l    df *ABS*	00000000 lseek.c
00000000 l    df *ABS*	00000000 read.c
00000000 l    df *ABS*	00000000 sbrk.c
20000118 l     O .bss	00000004 heap_end.1518
00000000 l    df *ABS*	00000000 mem_malloc.c
00000000 l    df *ABS*	00000000 impure.c
20000000 l     O .data	00000060 impure_data
00000000 l    df *ABS*	00000000 reent.c
000077ec g     F .text	00000028 GPIO_IRQHandler
20024c96 g     F .ramcode	0000002e putchar
20024ade g     F .ramcode	00000014 inet_chksum
200243ca g     F .ramcode	00000026 raw_bind
2002391e g     F .ramcode	00000574 ip_reass
00007422 g     F .text	000000f6 pbuf_realloc
20025eb0 g     F .ramcode	00000030 _isatty_r
000017a6 g     F .text	0000001a tcp_next_iss
20024cc4 g     F .ramcode	000000da _puts_r
00000880 g     F .text	000000a6 tcp_update_rcv_ann_wnd
20025ee0 g     F .ramcode	00000034 _lseek_r
20000ea4 g     O .bss	00000004 netif_list
000000dc  w      .text	00000000 EMMC_IRQHandler
20020d20 g     F .ramcode	00000006 Net_TimerIsr
000054cc g     F .text	00000164 tcp_rst
000000d2  w      .text	00000000 LINK_IRQHandler
200224ea g     F .ramcode	00000026 CH569NET_MainTask
200000d0 g     O .bss	00000004 TCPTimer
20022e7c g     F .ramcode	0000012e etharp_request
200000b0 g     O .bss	00000004 tcppackt
20000dc8 g     O .bss	00000001 PingEnable
20024c52 g     F .ramcode	00000044 printf
20020008 g     F .ramcode	00000028 .hidden __riscv_save_8
00000a70 g     F .text	0000001c tcp_err
20000098 g     O .data	00000004 ip_addr_any
200249b2 g     F .ramcode	0000012c inet_chksum_pseudo
200204b2 g     F .ramcode	000000e0 ETH_StructInit
20025ddc g     F .ramcode	00000036 __sseek
200251da g     F .ramcode	00000070 __sinit
00004d0e g     F .text	0000001e tcp_send_ctrl
20024dae g     F .ramcode	000000c0 __swbuf_r
000078fc g     F .text	00000048 HardFault_Handler
00005e1a g     F .text	000001f4 ip_output_if
2002218e g     F .ramcode	00000026 CH569NET_SocketRecvLen
20025194 g     F .ramcode	00000046 __sfmoreglue
20020108 g     F .ramcode	000000bc phy_int_cheak_init
000064b6 g     F .text	00000018 memp_free
20025f30 g     F .ramcode	00000002 __malloc_unlock
0000712e g     F .text	0000008e pbuf_free
20020054 g     F .ramcode	0000000c .hidden __riscv_restore_3
00000a38 g     F .text	0000001c tcp_recv
200207e0 g     F .ramcode	000002e4 ETH_Init
000000c4  w      .text	00000000 SysTick_Handler
00007564 g     F .text	0000006e pbuf_cat
20000dcc g     O .bss	00000014 CH569Cfg
20022484 g     F .ramcode	0000002c CH569NET_GetSocketInt
0000600e g     F .text	0000003c ip_output
20020040 g     F .ramcode	00000020 .hidden __riscv_restore_10
000069ba g     F .text	00000054 udp_sendto
000000c0  w      .text	00000000 NMI_Handler
20020e0a g     F .ramcode	000000bc CH569NET_HandleSockInt
00005866 g     F .text	00000068 tcp_keepalive
20022bfe g     F .ramcode	00000080 etharp_tmr
20020008 g     F .ramcode	00000028 .hidden __riscv_save_11
000017c0 g     F .text	00000284 tcp_alloc
000000e4  w      .text	00000000 UART1_IRQHandler
200233a0 g     F .ramcode	00000038 low_level_init
20026694 g     O .ramcode	00000010 MemSize
00006a0e g     F .text	000002d8 udp_sendto_if
00000a1c g     F .text	0000001c tcp_arg
20021d5c g     F .ramcode	00000208 CH569NET_SocketCreat
000000da  w      .text	00000000 USBHS_IRQHandler
20022cd6 g     F .ramcode	000001a6 etharp_arp_input
20000eac g     O .bss	00000004 tcp_active_pcbs
20025e7e g     F .ramcode	00000032 _fstat_r
20000ec8 g     O .bss	00000004 udp_pcbs
20000ecc g     O .bss	00000004 errno
2002328a g     F .ramcode	00000084 ethernet_input
200000a8 g       .bss	00000000 _sbss
00000800 g       *ABS*	00000000 __stack_size
00007544 g     F .text	00000020 pbuf_ref
20020f36 g     F .ramcode	000000d4 CH569NET_CreatTcpSocket
0000147c g     F .text	00000040 tcp_recv_null
20000e98 g     O .bss	00000004 current_netif
00001300 g     F .text	0000017c tcp_close
20000860 g       .data	00000000 _global_pointer$
20000e8c g     O .bss	0000000c SelARP
00000926 g     F .text	0000006c tcp_recved
20020054 g     F .ramcode	0000000c .hidden __riscv_restore_2
00000aac g     F .text	00000102 tcp_pcb_purge
000000d8  w      .text	00000000 UART0_IRQHandler
2000009c g     O .data	00000007 tcp_persist_backoff
20000ea0 g     O .bss	00000004 lfree
20021d12 g     F .ramcode	00000016 CH569NET_ConfigKeepLive
20024b9c g     F .ramcode	000000b6 memcpy
0000609e g     F .text	000000fa mem_free
20000eb0 g     O .bss	00000004 tcp_ticks
2002068c g     F .ramcode	00000050 ETH_buf_init
20000eb4 g     O .bss	00000004 tcp_listen_pcbs
00005630 g     F .text	000000a0 tcp_rexmit_rto
2002518a g     F .ramcode	0000000a _cleanup_r
0000779a g     F .text	00000052 ip_addr_isbroadcast
20000cd0 g     O .bss	00000004 DMARxDescToGet
00001a44 g     F .text	00000016 tcp_new
200236dc g     F .ramcode	0000005c IPCheckTmr
20024d9e g     F .ramcode	00000010 puts
20000de0 g     O .bss	00000018 DHCPCtrl
200244b6 g     F .ramcode	0000000e raw_send
20024af2 g     F .ramcode	000000aa inet_chksum_pbuf
000000c6  w      .text	00000000 SWI_Handler
20025f76 g     F .ramcode	00000010 _fstat
200245cc g     F .ramcode	0000033e icmp_input
00000004 g       .init	00000000 _einit
20021bb8 g     F .ramcode	0000015a CH569NET_Init
200242c4 g     F .ramcode	00000066 netif_add
20020000 g     F .ramcode	00000030 .hidden __riscv_save_12
000009c4 g     F .text	00000024 tcp_segs_free
000078a8 g     F .text	0000002a PMT_IRQHandler
20024126 g     F .ramcode	00000142 netif_set_ipaddr
20020040 g     F .ramcode	00000020 .hidden __riscv_restore_11
000000e2  w      .text	00000000 SPI1_IRQHandler
20025d2e g     F .ramcode	00000030 _sbrk_r
00004d2c g     F .text	00000050 tcp_write
20020030 g     F .ramcode	0000000c .hidden __riscv_save_1
000078d2 g     F .text	0000002a TMR0_IRQHandler
20020054 g     F .ramcode	0000000c .hidden __riscv_restore_0
20025f32 g     F .ramcode	00000034 _read_r
20020016 g     F .ramcode	0000001a .hidden __riscv_save_7
20020d78 g     F .ramcode	00000026 net_initkeeplive
000005dc g     F .text	000002a4 tcp_bind
20021252 g     F .ramcode	00000330 GPIOB_ITModeCfg
2002491c g     F .ramcode	00000012 icmp_time_exceeded
20023e92 g     F .ramcode	00000294 ip_frag
200215ac g     F .ramcode	0000002c mDelaymS
000000f0  w      .text	00000000 ECDC_IRQHandler
2002030a g     F .ramcode	0000002a ETH_GPIO_Init
2002441c g     F .ramcode	0000009a raw_sendto
20025f86 g     F .ramcode	00000010 _isatty
20020bd6 g     F .ramcode	0000002a ETH_init
200000a4 g     O .data	00000004 _global_impure_ptr
2002004a g     F .ramcode	00000016 .hidden __riscv_restore_5
20000164 g     O .bss	00000001 SocketId
20020000 g       .ramcode	00000000 _ramcode_vma
20025fb6 g     F .ramcode	00000030 _sbrk
000075ea g     F .text	000001b0 pbuf_copy
000056d0 g     F .text	000000da tcp_rexmit
20021672 g     F .ramcode	00000004 LwipTCPPollCallBack
20000cd4 g     O .bss	00000004 DMATxDescToSet
20020ac4 g     F .ramcode	000000b2 ETH_MACDMA_Config
2002004a g     F .ramcode	00000016 .hidden __riscv_restore_6
20000eb8 g     O .bss	00000004 tcp_tmp_pcb
20000ed0 g       .bss	00000000 _ebss
20000168 g     O .bss	000005b4 MyBuf
20028d80 g     O .ramcode	0000120c Mem_Heap_Memory
200000c0 g     O .bss	00000004 DHCPcoarseTimer
20000df8 g     O .bss	00000001 SocketNum
20020334 g     F .ramcode	00000032 RGMII_TXC_Delay
20021582 g     F .ramcode	0000002a Delay_Init
0000604a g     F .text	00000054 mem_init
000000de  w      .text	00000000 DVP_IRQHandler
200206dc g     F .ramcode	00000040 Check_TxDes
00004df6 g     F .text	000006d6 tcp_output
000000d0  w      .text	00000000 USBSS_IRQHandler
20025ca8 g     F .ramcode	00000086 _putc_r
20020392 g     F .ramcode	00000030 ETH_uClock_enable
20000ec4 g     O .bss	00000004 tcp_input_pcb
2002433c g     F .ramcode	0000008e raw_input
00004d7c g     F .text	0000007a tcp_send_empty_ack
20020008 g     F .ramcode	00000028 .hidden __riscv_save_9
000057aa g     F .text	000000bc tcp_rexmit_fast
20000e58 g     O .bss	00000034 CH569NetIf
20029f8c g     O .ramcode	00002c73 Memp_Memory
200237b2 g     F .ramcode	0000000a ntohl
20000150 g     O .bss	0000000c globe_eth_status
2002071c g     F .ramcode	0000000e ETH_SoftwareReset
200267e4 g     O .ramcode	00000020 __sf_fake_stderr
20020016 g     F .ramcode	0000001a .hidden __riscv_save_4
2002432a g     F .ramcode	0000000a netif_set_default
2002078c g     F .ramcode	00000054 ETH_WritePHYRegister
00006fd4 g     F .text	0000002e udp_recv
20000ed0 g       .bss	00000000 end
2000015c g     O .bss	00000008 Globe_RxDes_status
000000e6  w      .text	00000000 UART2_IRQHandler
2002100a g     F .ramcode	00000028 register_if_fn
00008000 g       .ramcodelalign	00000000 _ramcode_lma
20023738 g     F .ramcode	0000003a IPConflictHandle
000071bc g     F .text	00000266 pbuf_alloc
200236b4 g     F .ramcode	00000028 SelIPARPSend
2002242a g     F .ramcode	00000048 CH569NET_QueryGlobalInt
20021b4e g     F .ramcode	00000022 MemShortCopy
20020d9e g     F .ramcode	0000006c CH569NET_LibInit
20025616 g     F .ramcode	00000044 __sfputs_r
20021908 g     F .ramcode	000001d8 CH569SocketTCPReceive
20025f14 g     F .ramcode	0000001a memchr
200237d4 g     F .ramcode	0000014a ip_reass_tmr
20000078 g     O .data	00000004 memp_sizes
20025454 g     F .ramcode	000000b0 _free_r
20020030 g     F .ramcode	0000000c .hidden __riscv_save_3
00006e7e g     F .text	00000156 udp_connect
20000e9c g     O .bss	00000004 current_header
200266a4 g     O .ramcode	00000010 ErrTable
20024268 g     F .ramcode	0000005c netif_set_addr
20020d26 g     F .ramcode	00000052 DebugInit
00000000 g       .init	00000000 _start
20020c00 g     F .ramcode	000000ec ETH_MACDMA_reConfig
20025f96 g     F .ramcode	00000010 _lseek
00006496 g     F .text	00000020 memp_malloc
200223c2 g     F .ramcode	00000068 CH569ScokedIntHandle
000058ce g     F .text	00000128 tcp_zero_window_probe
20020b76 g     F .ramcode	00000060 Mac_init
200000bc g     O .bss	00000004 DHCPTestTimer
20000dfc g     O .bss	0000000c KeepLiveCfg
20020374 g     F .ramcode	0000001e ETH_Mem_Malloc
20000ebc g     O .bss	00000004 tcp_bound_pcbs
2002378e g     F .ramcode	00000024 htonl
00000992 g     F .text	00000032 tcp_seg_free
000000d6  w      .text	00000000 TMR2_IRQHandler
20021d48 g     F .ramcode	00000004 CH569NET_GetVer
200226b4 g     F .ramcode	000000aa LwipRemoveTcpPcb
20023588 g     F .ramcode	00000106 LwIPPeriodicHandle
200000ac g     O .bss	00000004 CH569NETConfig
200203c2 g     F .ramcode	0000009a mac_send
2002072a g     F .ramcode	0000000a ETH_GetSoftwareResetStatus
00001a92 g     F .text	00000288 tcp_connect
20025e4e g     F .ramcode	00000030 _close_r
000062d2 g     F .text	0000016a mem_malloc
20000000 g       .dalign	00000000 _data_vma
20000e08 g     O .bss	00000044 CH569Inf
200205d0 g     F .ramcode	00000054 ETH_DMARxDescChainInit
20021600 g     F .ramcode	00000002 CH569TCPError
20024e6e g     F .ramcode	00000110 __swsetup_r
20020734 g     F .ramcode	00000058 ETH_ReadPHYRegister
2002524a g     F .ramcode	000000a4 __sfp
000046da g     F .text	00000634 tcp_enqueue
00001a5a g     F .text	00000038 tcp_eff_send_mss
20022858 g     F .ramcode	00000044 CH569NET_SetSocketTTL
20020008 g     F .ramcode	00000028 .hidden __riscv_save_10
20022650 g     F .ramcode	00000064 CH569FileCorrectTCBPcb
20025d5e g     F .ramcode	00000030 __sread
20025f2e g     F .ramcode	00000002 __malloc_lock
2002004a g     F .ramcode	00000016 .hidden __riscv_restore_4
20020040 g     F .ramcode	00000020 .hidden __riscv_restore_8
200250ba g     F .ramcode	00000066 _fflush_r
20020016 g     F .ramcode	0000001a .hidden __riscv_save_6
200243f0 g     F .ramcode	00000026 raw_connect
20026804 g     O .ramcode	00000020 __sf_fake_stdin
20000064 g     O .data	00000004 DESIP
20020060 g     F .ramcode	000000a8 memset
20020040 g     F .ramcode	00000020 .hidden __riscv_restore_9
2002004a g     F .ramcode	00000016 .hidden __riscv_restore_7
20021032 g     F .ramcode	00000126 main
200000cc g     O .bss	00000004 LocalTime
2002490a g     F .ramcode	00000012 icmp_dest_unreach
20021676 g     F .ramcode	0000014c SocketIPRAWReceive
20020366 g     F .ramcode	0000000e Get_TxBuff_Addr
00000a54 g     F .text	0000001c tcp_sent
20024334 g     F .ramcode	00000008 netif_is_up
20025e12 g     F .ramcode	00000006 __sclose
20021b70 g     F .ramcode	00000048 CH569SocketInit
20023780 g     F .ramcode	0000000e ntohs
200227ae g     F .ramcode	00000076 CH569NET_SocketConnect
20025504 g     F .ramcode	000000e8 _malloc_r
200000c8 g     O .bss	00000004 IPFragTimer
200244c4 g     F .ramcode	00000042 raw_new
20023406 g     F .ramcode	000000e0 ethernetif_input
2002045c g     F .ramcode	00000056 mac_rece
200201c4 g     F .ramcode	00000146 cheak_phy_int
200222c8 g     F .ramcode	000000fa SocketUdpSend
00006ce6 g     F .text	00000198 udp_bind
000015ae g     F .text	00000030 tcp_tmr
20022faa g     F .ramcode	0000015a etharp_query
200237bc g     F .ramcode	00000018 lwip_init
20023104 g     F .ramcode	00000186 etharp_output
20021158 g     F .ramcode	000000fa SystemInit
20024c52 g     F .ramcode	00000044 iprintf
20022510 g     F .ramcode	000000ee SocketTcpSend
2002289c g     F .ramcode	00000014 frame_input
00007518 g     F .text	0000002c pbuf_clen
00000000 g       .init	00000000 _sinit
20025e18 g     F .ramcode	00000036 _write_r
20021b30 g     F .ramcode	0000001e ErrorEncode
00006980 g     F .text	0000003a udp_send
20024416 g     F .ramcode	00000006 raw_recv
20026684 g     O .ramcode	00000010 MemNum
00007814 g     F .text	00000094 ETH_IRQHandler
200258f8 g     F .ramcode	0000010c _printf_common
20000084 g     O .data	00000004 _impure_ptr
20021d28 g     F .ramcode	00000020 CH569NET_ConfigLIB
00000bae g     F .text	000005de tcp_slowtmr
20022472 g     F .ramcode	00000012 CH569NET_GetGlobalInt
20024f7e g     F .ramcode	0000013c __sflush_r
20000060 g     O .data	00000004 CH569IPAddr
200233d8 g     F .ramcode	0000002e ethernetif_init
20004000 g       .usrstack	00000000 _eusrstack
20020030 g     F .ramcode	0000000c .hidden __riscv_save_2
200225fe g     F .ramcode	00000052 CH569NET_SocketSend
20021f64 g     F .ramcode	00000044 tcp_recved_socket
2002368e g     F .ramcode	00000026 IPCheckParaInit
2002cc00 g       .ramcode	00000000 _eramcode
2002535a g     F .ramcode	0000005a __swhatbuf_r
20000ec0 g     O .bss	00000004 tcp_tw_pcbs
000064ce g     F .text	000004b2 udp_input
20020016 g     F .ramcode	0000001a .hidden __riscv_save_5
200000c4 g     O .bss	00000004 DHCPfineTimer
200215d8 g     F .ramcode	00000028 _write
200000a8 g       .data	00000000 _edata
000000ce  w      .text	00000000 SPI0_IRQHandler
20023772 g     F .ramcode	0000000e htons
2002275e g     F .ramcode	00000050 CH569NET_SocketSetKeepLive
000059f6 g     F .text	0000006e ip_route
00007944 g       .dlalign	00000000 _data_lma
00007046 g     F .text	000000e8 pbuf_header
00006198 g     F .text	0000013a mem_realloc
20000ea8 g     O .bss	00000004 netif_default
000011e6 g     F .text	0000011a tcp_pcb_remove
2000006c g     O .data	00000004 SubMaskIp
20025d8e g     F .ramcode	0000004e __swrite
200224b0 g     F .ramcode	0000003a CH569IPSetSocketRecvInit
000075d2 g     F .text	00000018 pbuf_chain
20028c80 g     O .ramcode	00000100 Mem_ArpTable
20026880 g     O .ramcode	00002400 MAC_QUEUE
200000b8 g     O .bss	00000004 ARPTimer
000015de g     F .text	000001c8 tcp_abandon
200217c2 g     F .ramcode	00000146 SocketUdpReceive
2002565a g     F .ramcode	0000029e _vfiprintf_r
20000070 g     O .data	00000006 local_mac
20020592 g     F .ramcode	0000003e ETH_MACAddressConfig
20021ae0 g     F .ramcode	00000050 LwipTcpConnectedCallBack
200252ee g     F .ramcode	0000006c _fwalk_reent
20000cd8 g     O .bss	000000f0 SocketInf
0000643c g     F .text	0000005a memp_init
000014bc g     F .text	000000f2 tcp_fasttmr
200221b4 g     F .ramcode	00000114 SocketIPRawSend
20020cec g     F .ramcode	00000034 TMR0_init
20026824 g     O .ramcode	00000020 __sf_fake_stdout
20022c7e g     F .ramcode	00000058 etharp_ip_input
20021d4c g     F .ramcode	00000010 CH569NET_TimeIsr
2002003c g     F .ramcode	00000024 .hidden __riscv_restore_12
000000c8  w      .text	00000000 WDOG_IRQHandler
20020ec6 g     F .ramcode	00000070 CH569NET_HandleGlobalInt
000000e0  w      .text	00000000 HSPI_IRQHandler
20000e4c g     O .bss	0000000c ethernet_if
20025fa6 g     F .ramcode	00000010 _read
000000f2  w      .text	00000000 handle_reset
2000071c g     O .bss	000005b4 SocketRecvBuf
20020030 g     F .ramcode	0000000c .hidden __riscv_save_0
20022824 g     F .ramcode	0000000a QueryPingEnable
000009e8 g     F .text	00000034 tcp_seg_copy
200253b4 g     F .ramcode	000000a0 __smakebuf_r
200234e6 g     F .ramcode	000000a2 SetupNetif
00000a8c g     F .text	00000020 tcp_poll
20025a04 g     F .ramcode	000002a4 _printf_i
00007002 g     F .text	00000044 udp_new
000000e8  w      .text	00000000 UART3_IRQHandler
20000114 g     O .bss	00000004 __malloc_sbrk_start
20000068 g     O .data	00000004 GatewayIp
20000088 g     O .data	00000006 ethbroadcast
20026738 g     O .ramcode	00000014 tcp_backoff
20000110 g     O .bss	00000004 __malloc_free_list
20020054 g     F .ramcode	0000000c .hidden __riscv_restore_1
2002565a g     F .ramcode	0000029e _vfprintf_r
000000d4  w      .text	00000000 TMR1_IRQHandler
20021602 g     F .ramcode	00000070 LwipTCPSendCallBack
2002284c g     F .ramcode	0000000c LwipArpCheck
000000ea  w      .text	00000000 SERDES_IRQHandler
0000302e g     F .text	00001504 tcp_input
20021fa8 g     F .ramcode	000001e6 CH569NET_SocketRecv
0000118c g     F .text	0000005a RemoveTimeWaiTCP
00005a64 g     F .text	000003b6 ip_input
20000090 g     O .data	00000006 ethzero
20025f66 g     F .ramcode	00000010 _close
2002282e g     F .ramcode	0000001e LwipUnreachPort
20020624 g     F .ramcode	00000068 ETH_DMATxDescChainInit



Disassembly of section .init:

00000000 <_sinit>:
   0:	0f20006f          	j	f2 <handle_reset>

Disassembly of section .vector:

00000004 <_vector_base>:
	...
   c:	0b40006f          	j	c0 <NMI_Handler>
  10:	0ed0706f          	j	78fc <HardFault_Handler>
	...
  34:	0900006f          	j	c4 <SysTick_Handler>
  38:	0000                	unimp
  3a:	0000                	unimp
  3c:	08a0006f          	j	c6 <SWI_Handler>
  40:	0000                	unimp
  42:	0000                	unimp
  44:	0840006f          	j	c8 <WDOG_IRQHandler>
  48:	08b0706f          	j	78d2 <TMR0_IRQHandler>
  4c:	7a00706f          	j	77ec <GPIO_IRQHandler>
  50:	07e0006f          	j	ce <SPI0_IRQHandler>
  54:	07c0006f          	j	d0 <USBSS_IRQHandler>
  58:	07a0006f          	j	d2 <LINK_IRQHandler>
  5c:	0780006f          	j	d4 <TMR1_IRQHandler>
  60:	0760006f          	j	d6 <TMR2_IRQHandler>
  64:	0740006f          	j	d8 <UART0_IRQHandler>
  68:	0720006f          	j	da <USBHS_IRQHandler>
  6c:	0700006f          	j	dc <EMMC_IRQHandler>
  70:	06e0006f          	j	de <DVP_IRQHandler>
  74:	06c0006f          	j	e0 <HSPI_IRQHandler>
  78:	06a0006f          	j	e2 <SPI1_IRQHandler>
  7c:	0680006f          	j	e4 <UART1_IRQHandler>
  80:	0660006f          	j	e6 <UART2_IRQHandler>
  84:	0640006f          	j	e8 <UART3_IRQHandler>
  88:	0620006f          	j	ea <SERDES_IRQHandler>
  8c:	7880706f          	j	7814 <ETH_IRQHandler>
  90:	0190706f          	j	78a8 <PMT_IRQHandler>
  94:	05c0006f          	j	f0 <ECDC_IRQHandler>
	...

Disassembly of section .text:

000000c0 <NMI_Handler>:
      c0:	a001                	j	c0 <NMI_Handler>
      c2:	a001                	j	c2 <NMI_Handler+0x2>

000000c4 <SysTick_Handler>:
      c4:	a001                	j	c4 <SysTick_Handler>

000000c6 <SWI_Handler>:
      c6:	a001                	j	c6 <SWI_Handler>

000000c8 <WDOG_IRQHandler>:
      c8:	a001                	j	c8 <WDOG_IRQHandler>
      ca:	a001                	j	ca <WDOG_IRQHandler+0x2>
      cc:	a001                	j	cc <WDOG_IRQHandler+0x4>

000000ce <SPI0_IRQHandler>:
      ce:	a001                	j	ce <SPI0_IRQHandler>

000000d0 <USBSS_IRQHandler>:
      d0:	a001                	j	d0 <USBSS_IRQHandler>

000000d2 <LINK_IRQHandler>:
      d2:	a001                	j	d2 <LINK_IRQHandler>

000000d4 <TMR1_IRQHandler>:
      d4:	a001                	j	d4 <TMR1_IRQHandler>

000000d6 <TMR2_IRQHandler>:
      d6:	a001                	j	d6 <TMR2_IRQHandler>

000000d8 <UART0_IRQHandler>:
      d8:	a001                	j	d8 <UART0_IRQHandler>

000000da <USBHS_IRQHandler>:
      da:	a001                	j	da <USBHS_IRQHandler>

000000dc <EMMC_IRQHandler>:
      dc:	a001                	j	dc <EMMC_IRQHandler>

000000de <DVP_IRQHandler>:
      de:	a001                	j	de <DVP_IRQHandler>

000000e0 <HSPI_IRQHandler>:
      e0:	a001                	j	e0 <HSPI_IRQHandler>

000000e2 <SPI1_IRQHandler>:
      e2:	a001                	j	e2 <SPI1_IRQHandler>

000000e4 <UART1_IRQHandler>:
      e4:	a001                	j	e4 <UART1_IRQHandler>

000000e6 <UART2_IRQHandler>:
      e6:	a001                	j	e6 <UART2_IRQHandler>

000000e8 <UART3_IRQHandler>:
      e8:	a001                	j	e8 <UART3_IRQHandler>

000000ea <SERDES_IRQHandler>:
      ea:	a001                	j	ea <SERDES_IRQHandler>
      ec:	a001                	j	ec <SERDES_IRQHandler+0x2>
      ee:	a001                	j	ee <SERDES_IRQHandler+0x4>

000000f0 <ECDC_IRQHandler>:
      f0:	a001                	j	f0 <ECDC_IRQHandler>

000000f2 <handle_reset>:
      f2:	20000197          	auipc	gp,0x20000
      f6:	76e18193          	addi	gp,gp,1902 # 20000860 <_global_pointer$>
      fa:	20004117          	auipc	sp,0x20004
      fe:	f0610113          	addi	sp,sp,-250 # 20004000 <_eusrstack>
     102:	00008517          	auipc	a0,0x8
     106:	efe50513          	addi	a0,a0,-258 # 8000 <_ramcode_lma>
     10a:	20020597          	auipc	a1,0x20020
     10e:	ef658593          	addi	a1,a1,-266 # 20020000 <__riscv_save_12>
     112:	2002d617          	auipc	a2,0x2002d
     116:	aee60613          	addi	a2,a2,-1298 # 2002cc00 <_eramcode>
     11a:	00c5fa63          	bgeu	a1,a2,12e <handle_reset+0x3c>
     11e:	00052283          	lw	t0,0(a0)
     122:	0055a023          	sw	t0,0(a1)
     126:	0511                	addi	a0,a0,4
     128:	0591                	addi	a1,a1,4
     12a:	fec5eae3          	bltu	a1,a2,11e <handle_reset+0x2c>
     12e:	00008517          	auipc	a0,0x8
     132:	81650513          	addi	a0,a0,-2026 # 7944 <_data_lma>
     136:	20000597          	auipc	a1,0x20000
     13a:	eca58593          	addi	a1,a1,-310 # 20000000 <_data_vma>
     13e:	20000617          	auipc	a2,0x20000
     142:	f6a60613          	addi	a2,a2,-150 # 200000a8 <_edata>
     146:	00c5fa63          	bgeu	a1,a2,15a <handle_reset+0x68>
     14a:	00052283          	lw	t0,0(a0)
     14e:	0055a023          	sw	t0,0(a1)
     152:	0511                	addi	a0,a0,4
     154:	0591                	addi	a1,a1,4
     156:	fec5eae3          	bltu	a1,a2,14a <handle_reset+0x58>
     15a:	20000517          	auipc	a0,0x20000
     15e:	f4e50513          	addi	a0,a0,-178 # 200000a8 <_edata>
     162:	20001597          	auipc	a1,0x20001
     166:	d6e58593          	addi	a1,a1,-658 # 20000ed0 <_ebss>
     16a:	00b57763          	bgeu	a0,a1,178 <handle_reset+0x86>
     16e:	00052023          	sw	zero,0(a0)
     172:	0511                	addi	a0,a0,4
     174:	feb56de3          	bltu	a0,a1,16e <handle_reset+0x7c>
     178:	08800293          	li	t0,136
     17c:	3002a073          	csrs	mstatus,t0
     180:	00000297          	auipc	t0,0x0
     184:	e8428293          	addi	t0,t0,-380 # 4 <_einit>
     188:	0012e293          	ori	t0,t0,1
     18c:	30529073          	csrw	mtvec,t0
     190:	20021297          	auipc	t0,0x20021
     194:	ea228293          	addi	t0,t0,-350 # 20021032 <main>
     198:	34129073          	csrw	mepc,t0
     19c:	30200073          	mret
     1a0:	00000263          	beqz	zero,1a4 <handle_reset+0xb2>
     1a4:	00350003          	lb	zero,3(a0)
     1a8:	0000                	unimp
     1aa:	0101                	addi	sp,sp,0
     1ac:	000d0efb          	0xd0efb
     1b0:	0101                	addi	sp,sp,0
     1b2:	0101                	addi	sp,sp,0
     1b4:	0000                	unimp
     1b6:	0100                	addi	s0,sp,128
     1b8:	0000                	unimp
     1ba:	2e01                	jal	4ca <handle_reset+0x3d8>
     1bc:	2f2e                	fld	ft10,200(sp)
     1be:	2f435253          	0x2f435253
     1c2:	72617453          	0x72617453
     1c6:	7574                	flw	fa3,108(a0)
     1c8:	0070                	addi	a2,sp,12
     1ca:	7300                	flw	fs0,32(a4)
     1cc:	6174                	flw	fa3,68(a0)
     1ce:	7472                	flw	fs0,60(sp)
     1d0:	7075                	c.lui	zero,0xffffd
     1d2:	435f 3548 7836      	0x78363548435f
     1d8:	532e                	lw	t1,232(sp)
     1da:	0100                	addi	s0,sp,128
     1dc:	0000                	unimp
     1de:	0000                	unimp
     1e0:	0205                	addi	tp,tp,1
     1e2:	0000                	unimp
     1e4:	0000                	unimp
     1e6:	09010c03          	lb	s8,144(sp)
     1ea:	0004                	0x4
     1ec:	0100                	addi	s0,sp,128
     1ee:	0001                	nop
     1f0:	0205                	addi	tp,tp,1
     1f2:	000c                	0xc
     1f4:	0000                	unimp
     1f6:	03011403          	lh	s0,48(sp)
     1fa:	0901                	addi	s2,s2,0
     1fc:	0004                	0x4
     1fe:	0301                	addi	t1,t1,0
     200:	0909                	addi	s2,s2,2
     202:	0024                	addi	s1,sp,8
     204:	0301                	addi	t1,t1,0
     206:	0902                	c.slli64	s2
     208:	0008                	0x8
     20a:	0301                	addi	t1,t1,0
     20c:	00080903          	lb	s2,0(a6)
     210:	0301                	addi	t1,t1,0
     212:	0901                	addi	s2,s2,0
     214:	0004                	0x4
     216:	0301                	addi	t1,t1,0
     218:	0901                	addi	s2,s2,0
     21a:	0004                	0x4
     21c:	0301                	addi	t1,t1,0
     21e:	0901                	addi	s2,s2,0
     220:	0004                	0x4
     222:	0301                	addi	t1,t1,0
     224:	0901                	addi	s2,s2,0
     226:	0004                	0x4
     228:	0301                	addi	t1,t1,0
     22a:	0901                	addi	s2,s2,0
     22c:	0004                	0x4
     22e:	0301                	addi	t1,t1,0
     230:	0901                	addi	s2,s2,0
     232:	0004                	0x4
     234:	0301                	addi	t1,t1,0
     236:	0901                	addi	s2,s2,0
     238:	0004                	0x4
     23a:	0301                	addi	t1,t1,0
     23c:	0901                	addi	s2,s2,0
     23e:	0004                	0x4
     240:	0301                	addi	t1,t1,0
     242:	0901                	addi	s2,s2,0
     244:	0004                	0x4
     246:	0301                	addi	t1,t1,0
     248:	0901                	addi	s2,s2,0
     24a:	0004                	0x4
     24c:	0301                	addi	t1,t1,0
     24e:	0901                	addi	s2,s2,0
     250:	0004                	0x4
     252:	0301                	addi	t1,t1,0
     254:	0901                	addi	s2,s2,0
     256:	0004                	0x4
     258:	0301                	addi	t1,t1,0
     25a:	0901                	addi	s2,s2,0
     25c:	0004                	0x4
     25e:	0301                	addi	t1,t1,0
     260:	0901                	addi	s2,s2,0
     262:	0004                	0x4
     264:	0301                	addi	t1,t1,0
     266:	0901                	addi	s2,s2,0
     268:	0004                	0x4
     26a:	0301                	addi	t1,t1,0
     26c:	0901                	addi	s2,s2,0
     26e:	0004                	0x4
     270:	0301                	addi	t1,t1,0
     272:	0901                	addi	s2,s2,0
     274:	0004                	0x4
     276:	0301                	addi	t1,t1,0
     278:	0901                	addi	s2,s2,0
     27a:	0004                	0x4
     27c:	0301                	addi	t1,t1,0
     27e:	0901                	addi	s2,s2,0
     280:	0004                	0x4
     282:	0301                	addi	t1,t1,0
     284:	0901                	addi	s2,s2,0
     286:	0004                	0x4
     288:	0901                	addi	s2,s2,0
     28a:	0004                	0x4
     28c:	0100                	addi	s0,sp,128
     28e:	0001                	nop
     290:	0205                	addi	tp,tp,1
     292:	00c0                	addi	s0,sp,68
     294:	0000                	unimp
     296:	0100d603          	lhu	a2,16(ra)
     29a:	02090103          	lb	sp,32(s2)
     29e:	0100                	addi	s0,sp,128
     2a0:	02090103          	lb	sp,32(s2)
     2a4:	0100                	addi	s0,sp,128
     2a6:	02090103          	lb	sp,32(s2)
     2aa:	0100                	addi	s0,sp,128
     2ac:	02090103          	lb	sp,32(s2)
     2b0:	0100                	addi	s0,sp,128
     2b2:	02090103          	lb	sp,32(s2)
     2b6:	0100                	addi	s0,sp,128
     2b8:	02090103          	lb	sp,32(s2)
     2bc:	0100                	addi	s0,sp,128
     2be:	02090103          	lb	sp,32(s2)
     2c2:	0100                	addi	s0,sp,128
     2c4:	02090103          	lb	sp,32(s2)
     2c8:	0100                	addi	s0,sp,128
     2ca:	02090103          	lb	sp,32(s2)
     2ce:	0100                	addi	s0,sp,128
     2d0:	02090103          	lb	sp,32(s2)
     2d4:	0100                	addi	s0,sp,128
     2d6:	02090103          	lb	sp,32(s2)
     2da:	0100                	addi	s0,sp,128
     2dc:	02090103          	lb	sp,32(s2)
     2e0:	0100                	addi	s0,sp,128
     2e2:	02090103          	lb	sp,32(s2)
     2e6:	0100                	addi	s0,sp,128
     2e8:	02090103          	lb	sp,32(s2)
     2ec:	0100                	addi	s0,sp,128
     2ee:	02090103          	lb	sp,32(s2)
     2f2:	0100                	addi	s0,sp,128
     2f4:	02090103          	lb	sp,32(s2)
     2f8:	0100                	addi	s0,sp,128
     2fa:	02090103          	lb	sp,32(s2)
     2fe:	0100                	addi	s0,sp,128
     300:	02090103          	lb	sp,32(s2)
     304:	0100                	addi	s0,sp,128
     306:	02090103          	lb	sp,32(s2)
     30a:	0100                	addi	s0,sp,128
     30c:	02090103          	lb	sp,32(s2)
     310:	0100                	addi	s0,sp,128
     312:	02090103          	lb	sp,32(s2)
     316:	0100                	addi	s0,sp,128
     318:	02090103          	lb	sp,32(s2)
     31c:	0100                	addi	s0,sp,128
     31e:	02090103          	lb	sp,32(s2)
     322:	0100                	addi	s0,sp,128
     324:	02090103          	lb	sp,32(s2)
     328:	0100                	addi	s0,sp,128
     32a:	0209                	addi	tp,tp,2
     32c:	0000                	unimp
     32e:	0101                	addi	sp,sp,0
     330:	0500                	addi	s0,sp,640
     332:	f202                	fsw	ft0,36(sp)
     334:	0000                	unimp
     336:	0300                	addi	s0,sp,384
     338:	00f6                	slli	ra,ra,0x1d
     33a:	0301                	addi	t1,t1,0
     33c:	00080903          	lb	s2,0(a6)
     340:	0301                	addi	t1,t1,0
     342:	00080903          	lb	s2,0(a6)
     346:	0301                	addi	t1,t1,0
     348:	0901                	addi	s2,s2,0
     34a:	0008                	0x8
     34c:	0301                	addi	t1,t1,0
     34e:	0901                	addi	s2,s2,0
     350:	0008                	0x8
     352:	0301                	addi	t1,t1,0
     354:	0901                	addi	s2,s2,0
     356:	0008                	0x8
     358:	0301                	addi	t1,t1,0
     35a:	0902                	c.slli64	s2
     35c:	0004                	0x4
     35e:	0301                	addi	t1,t1,0
     360:	0901                	addi	s2,s2,0
     362:	0004                	0x4
     364:	0301                	addi	t1,t1,0
     366:	0901                	addi	s2,s2,0
     368:	0004                	0x4
     36a:	0301                	addi	t1,t1,0
     36c:	0901                	addi	s2,s2,0
     36e:	0002                	c.slli64	zero
     370:	0301                	addi	t1,t1,0
     372:	0901                	addi	s2,s2,0
     374:	0002                	c.slli64	zero
     376:	0301                	addi	t1,t1,0
     378:	0904                	addi	s1,sp,144
     37a:	0004                	0x4
     37c:	0301                	addi	t1,t1,0
     37e:	0901                	addi	s2,s2,0
     380:	0008                	0x8
     382:	0301                	addi	t1,t1,0
     384:	0901                	addi	s2,s2,0
     386:	0008                	0x8
     388:	0301                	addi	t1,t1,0
     38a:	0901                	addi	s2,s2,0
     38c:	0008                	0x8
     38e:	0301                	addi	t1,t1,0
     390:	0902                	c.slli64	s2
     392:	0004                	0x4
     394:	0301                	addi	t1,t1,0
     396:	0901                	addi	s2,s2,0
     398:	0004                	0x4
     39a:	0301                	addi	t1,t1,0
     39c:	0901                	addi	s2,s2,0
     39e:	0004                	0x4
     3a0:	0301                	addi	t1,t1,0
     3a2:	0901                	addi	s2,s2,0
     3a4:	0002                	c.slli64	zero
     3a6:	0301                	addi	t1,t1,0
     3a8:	0901                	addi	s2,s2,0
     3aa:	0002                	c.slli64	zero
     3ac:	0301                	addi	t1,t1,0
     3ae:	00040903          	lb	s2,0(s0)
     3b2:	0301                	addi	t1,t1,0
     3b4:	0901                	addi	s2,s2,0
     3b6:	0008                	0x8
     3b8:	0301                	addi	t1,t1,0
     3ba:	0901                	addi	s2,s2,0
     3bc:	0008                	0x8
     3be:	0301                	addi	t1,t1,0
     3c0:	0902                	c.slli64	s2
     3c2:	0004                	0x4
     3c4:	0301                	addi	t1,t1,0
     3c6:	0901                	addi	s2,s2,0
     3c8:	0004                	0x4
     3ca:	0301                	addi	t1,t1,0
     3cc:	0901                	addi	s2,s2,0
     3ce:	0002                	c.slli64	zero
     3d0:	0301                	addi	t1,t1,0
     3d2:	0904                	addi	s1,sp,144
     3d4:	0004                	0x4
     3d6:	0301                	addi	t1,t1,0
     3d8:	0901                	addi	s2,s2,0
     3da:	0004                	0x4
     3dc:	0301                	addi	t1,t1,0
     3de:	0901                	addi	s2,s2,0
     3e0:	0004                	0x4
     3e2:	0301                	addi	t1,t1,0
     3e4:	0901                	addi	s2,s2,0
     3e6:	0008                	0x8
     3e8:	0301                	addi	t1,t1,0
     3ea:	0901                	addi	s2,s2,0
     3ec:	0004                	0x4
     3ee:	0301                	addi	t1,t1,0
     3f0:	0901                	addi	s2,s2,0
     3f2:	0004                	0x4
     3f4:	0301                	addi	t1,t1,0
     3f6:	0901                	addi	s2,s2,0
     3f8:	0008                	0x8
     3fa:	0301                	addi	t1,t1,0
     3fc:	00040903          	lb	s2,0(s0)
     400:	0901                	addi	s2,s2,0
     402:	0004                	0x4
     404:	0100                	addi	s0,sp,128
     406:	1e01                	addi	t3,t3,-32
     408:	0000                	unimp
     40a:	0200                	addi	s0,sp,256
     40c:	2900                	fld	fs0,16(a0)
     40e:	0004                	0x4
     410:	0400                	addi	s0,sp,512
     412:	a001                	j	412 <handle_reset+0x320>
     414:	0001                	nop
     416:	d000                	sw	s0,32(s0)
     418:	0004                	0x4
     41a:	7800                	flw	fs0,48(s0)
     41c:	0004                	0x4
     41e:	9700                	0x9700
     420:	0004                	0x4
     422:	c200                	sw	s0,0(a2)
     424:	0004                	0x4
     426:	0100                	addi	s0,sp,128
     428:	0180                	addi	s0,sp,192
     42a:	0011                	c.nop	4
     42c:	0610                	addi	a2,sp,768
     42e:	0655                	addi	a2,a2,21
     430:	0e1b0e03          	lb	t3,225(s6)
     434:	0e25                	addi	t3,t3,9
     436:	00000513          	li	a0,0
     43a:	0000                	unimp
     43c:	0000                	unimp
     43e:	0000                	unimp
     440:	0034                	addi	a3,sp,8
     442:	0000                	unimp
     444:	0002                	c.slli64	zero
     446:	00000407          	0x407
     44a:	0004                	0x4
	...
     454:	0004                	0x4
     456:	0000                	unimp
     458:	0004                	0x4
     45a:	0000                	unimp
     45c:	0094                	addi	a3,sp,64
     45e:	0000                	unimp
     460:	00c0                	addi	s0,sp,68
     462:	0000                	unimp
     464:	0032                	c.slli	zero,0xc
     466:	0000                	unimp
     468:	00f2                	slli	ra,ra,0x1c
     46a:	0000                	unimp
     46c:	00ae                	slli	ra,ra,0xb
	...
     476:	0000                	unimp
     478:	2e2e                	fld	ft8,200(sp)
     47a:	4352532f          	0x4352532f
     47e:	6174532f          	0x6174532f
     482:	7472                	flw	fs0,60(sp)
     484:	7075                	c.lui	zero,0xffffd
     486:	6174732f          	0x6174732f
     48a:	7472                	flw	fs0,60(sp)
     48c:	7075                	c.lui	zero,0xffffd
     48e:	435f 3548 7836      	0x78363548435f
     494:	532e                	lw	t1,232(sp)
     496:	4500                	lw	s0,8(a0)
     498:	5c3a                	lw	s8,172(sp)
     49a:	cfc1cad7          	0xcfc1cad7
     49e:	435c                	lw	a5,4(a4)
     4a0:	3548                	fld	fa0,168(a0)
     4a2:	3936                	fld	fs2,360(sp)
     4a4:	435c                	lw	a5,4(a4)
     4a6:	3548                	fld	fa0,168(a0)
     4a8:	3936                	fld	fs2,360(sp)
     4aa:	f8cd                	bnez	s1,45c <handle_reset+0x36a>
     4ac:	e7c2                	fsw	fa6,204(sp)
     4ae:	fdc0                	fsw	fs0,60(a1)
     4b0:	545cccb3          	0x545cccb3
     4b4:	435f5043          	fmadd.d	ft0,ft10,fs5,fs0,unknown
     4b8:	696c                	flw	fa1,84(a0)
     4ba:	6e65                	lui	t3,0x19
     4bc:	5c74                	lw	a3,124(s0)
     4be:	006a626f          	jal	tp,a64c4 <_ramcode_lma+0x9e4c4>
     4c2:	20554e47          	fmsub.s	ft8,fa0,ft5,ft4,rmm
     4c6:	5341                	li	t1,-16
     4c8:	3220                	fld	fs0,96(a2)
     4ca:	332e                	fld	ft6,232(sp)
     4cc:	0032                	c.slli	zero,0xc
     4ce:	0000                	unimp
     4d0:	ffff                	0xffff
     4d2:	ffff                	0xffff
	...
     4dc:	0004                	0x4
     4de:	0000                	unimp
     4e0:	0004                	0x4
     4e2:	0000                	unimp
     4e4:	0098                	addi	a4,sp,64
     4e6:	0000                	unimp
     4e8:	00c0                	addi	s0,sp,68
     4ea:	0000                	unimp
     4ec:	00f2                	slli	ra,ra,0x1c
     4ee:	0000                	unimp
     4f0:	00f2                	slli	ra,ra,0x1c
     4f2:	0000                	unimp
     4f4:	01a0                	addi	s0,sp,200
	...

00000500 <tcp_new_port>:
     500:	20001797          	auipc	a5,0x20001
     504:	9ac78793          	addi	a5,a5,-1620 # 20000eac <tcp_active_pcbs>
     508:	4390                	lw	a2,0(a5)
     50a:	20001797          	auipc	a5,0x20001
     50e:	9b678793          	addi	a5,a5,-1610 # 20000ec0 <tcp_tw_pcbs>
     512:	438c                	lw	a1,0(a5)
     514:	20001797          	auipc	a5,0x20001
     518:	9a078793          	addi	a5,a5,-1632 # 20000eb4 <tcp_listen_pcbs>
     51c:	0007a803          	lw	a6,0(a5)
     520:	20000517          	auipc	a0,0x20000
     524:	b6055503          	lhu	a0,-1184(a0) # 20000080 <port.3573>
     528:	00150793          	addi	a5,a0,1
     52c:	01079513          	slli	a0,a5,0x10
     530:	01079713          	slli	a4,a5,0x10
     534:	8141                	srli	a0,a0,0x10
     536:	00075363          	bgez	a4,53c <tcp_new_port+0x3c>
     53a:	6505                	lui	a0,0x1
     53c:	87b2                	mv	a5,a2
     53e:	eb91                	bnez	a5,552 <tcp_new_port+0x52>
     540:	87ae                	mv	a5,a1
     542:	ef9d                	bnez	a5,580 <tcp_new_port+0x80>
     544:	87c2                	mv	a5,a6
     546:	e7a5                	bnez	a5,5ae <tcp_new_port+0xae>
     548:	20000797          	auipc	a5,0x20000
     54c:	b2a79c23          	sh	a0,-1224(a5) # 20000080 <port.3573>
     550:	8082                	ret
     552:	01a7c703          	lbu	a4,26(a5)
     556:	0197c683          	lbu	a3,25(a5)
     55a:	0722                	slli	a4,a4,0x8
     55c:	8f55                	or	a4,a4,a3
     55e:	fca705e3          	beq	a4,a0,528 <tcp_new_port+0x28>
     562:	00d7c703          	lbu	a4,13(a5)
     566:	00c7c683          	lbu	a3,12(a5)
     56a:	0722                	slli	a4,a4,0x8
     56c:	8ed9                	or	a3,a3,a4
     56e:	00e7c703          	lbu	a4,14(a5)
     572:	00f7c783          	lbu	a5,15(a5)
     576:	0742                	slli	a4,a4,0x10
     578:	8f55                	or	a4,a4,a3
     57a:	07e2                	slli	a5,a5,0x18
     57c:	8fd9                	or	a5,a5,a4
     57e:	b7c1                	j	53e <tcp_new_port+0x3e>
     580:	01a7c703          	lbu	a4,26(a5)
     584:	0197c683          	lbu	a3,25(a5)
     588:	0722                	slli	a4,a4,0x8
     58a:	8f55                	or	a4,a4,a3
     58c:	f8a70ee3          	beq	a4,a0,528 <tcp_new_port+0x28>
     590:	00d7c703          	lbu	a4,13(a5)
     594:	00c7c683          	lbu	a3,12(a5)
     598:	0722                	slli	a4,a4,0x8
     59a:	8ed9                	or	a3,a3,a4
     59c:	00e7c703          	lbu	a4,14(a5)
     5a0:	00f7c783          	lbu	a5,15(a5)
     5a4:	0742                	slli	a4,a4,0x10
     5a6:	8f55                	or	a4,a4,a3
     5a8:	07e2                	slli	a5,a5,0x18
     5aa:	8fd9                	or	a5,a5,a4
     5ac:	bf59                	j	542 <tcp_new_port+0x42>
     5ae:	01a7c703          	lbu	a4,26(a5)
     5b2:	0197c683          	lbu	a3,25(a5)
     5b6:	0722                	slli	a4,a4,0x8
     5b8:	8f55                	or	a4,a4,a3
     5ba:	f6a707e3          	beq	a4,a0,528 <tcp_new_port+0x28>
     5be:	00d7c703          	lbu	a4,13(a5)
     5c2:	00c7c683          	lbu	a3,12(a5)
     5c6:	0722                	slli	a4,a4,0x8
     5c8:	8ed9                	or	a3,a3,a4
     5ca:	00e7c703          	lbu	a4,14(a5)
     5ce:	00f7c783          	lbu	a5,15(a5)
     5d2:	0742                	slli	a4,a4,0x10
     5d4:	8f55                	or	a4,a4,a3
     5d6:	07e2                	slli	a5,a5,0x18
     5d8:	8fd9                	or	a5,a5,a4
     5da:	b7b5                	j	546 <tcp_new_port+0x46>

000005dc <tcp_bind>:
     5dc:	01154703          	lbu	a4,17(a0) # 1011 <tcp_slowtmr+0x463>
     5e0:	01054783          	lbu	a5,16(a0)
     5e4:	0722                	slli	a4,a4,0x8
     5e6:	8f5d                	or	a4,a4,a5
     5e8:	01254783          	lbu	a5,18(a0)
     5ec:	07c2                	slli	a5,a5,0x10
     5ee:	8f5d                	or	a4,a4,a5
     5f0:	01354783          	lbu	a5,19(a0)
     5f4:	07e2                	slli	a5,a5,0x18
     5f6:	8fd9                	or	a5,a5,a4
     5f8:	28079063          	bnez	a5,878 <__stack_size+0x78>
     5fc:	20020317          	auipc	t1,0x20020
     600:	a34302e7          	jalr	t0,-1484(t1) # 20020030 <__riscv_save_0>
     604:	1141                	addi	sp,sp,-16
     606:	842a                	mv	s0,a0
     608:	84b2                	mv	s1,a2
     60a:	e609                	bnez	a2,614 <tcp_bind+0x38>
     60c:	c62e                	sw	a1,12(sp)
     60e:	3dcd                	jal	500 <tcp_new_port>
     610:	45b2                	lw	a1,12(sp)
     612:	84aa                	mv	s1,a0
     614:	20001797          	auipc	a5,0x20001
     618:	8a078793          	addi	a5,a5,-1888 # 20000eb4 <tcp_listen_pcbs>
     61c:	439c                	lw	a5,0(a5)
     61e:	ebd1                	bnez	a5,6b2 <tcp_bind+0xd6>
     620:	20001797          	auipc	a5,0x20001
     624:	88c78793          	addi	a5,a5,-1908 # 20000eac <tcp_active_pcbs>
     628:	439c                	lw	a5,0(a5)
     62a:	effd                	bnez	a5,728 <tcp_bind+0x14c>
     62c:	20001797          	auipc	a5,0x20001
     630:	89078793          	addi	a5,a5,-1904 # 20000ebc <tcp_bound_pcbs>
     634:	0007a903          	lw	s2,0(a5)
     638:	87ca                	mv	a5,s2
     63a:	16079263          	bnez	a5,79e <tcp_bind+0x1c2>
     63e:	20001797          	auipc	a5,0x20001
     642:	88278793          	addi	a5,a5,-1918 # 20000ec0 <tcp_tw_pcbs>
     646:	439c                	lw	a5,0(a5)
     648:	1c079363          	bnez	a5,80e <__stack_size+0xe>
     64c:	c595                	beqz	a1,678 <tcp_bind+0x9c>
     64e:	0015c703          	lbu	a4,1(a1)
     652:	0005c783          	lbu	a5,0(a1)
     656:	0722                	slli	a4,a4,0x8
     658:	8f5d                	or	a4,a4,a5
     65a:	0025c783          	lbu	a5,2(a1)
     65e:	07c2                	slli	a5,a5,0x10
     660:	8f5d                	or	a4,a4,a5
     662:	0035c783          	lbu	a5,3(a1)
     666:	07e2                	slli	a5,a5,0x18
     668:	8fd9                	or	a5,a5,a4
     66a:	c799                	beqz	a5,678 <tcp_bind+0x9c>
     66c:	4611                	li	a2,4
     66e:	8522                	mv	a0,s0
     670:	20024097          	auipc	ra,0x20024
     674:	52c080e7          	jalr	1324(ra) # 20024b9c <memcpy>
     678:	00895793          	srli	a5,s2,0x8
     67c:	00940ca3          	sb	s1,25(s0)
     680:	01240623          	sb	s2,12(s0)
     684:	80a1                	srli	s1,s1,0x8
     686:	00f406a3          	sb	a5,13(s0)
     68a:	01095793          	srli	a5,s2,0x10
     68e:	01895913          	srli	s2,s2,0x18
     692:	00f40723          	sb	a5,14(s0)
     696:	00940d23          	sb	s1,26(s0)
     69a:	012407a3          	sb	s2,15(s0)
     69e:	20001797          	auipc	a5,0x20001
     6a2:	8087af23          	sw	s0,-2018(a5) # 20000ebc <tcp_bound_pcbs>
     6a6:	4501                	li	a0,0
     6a8:	0141                	addi	sp,sp,16
     6aa:	20020317          	auipc	t1,0x20020
     6ae:	9aa30067          	jr	-1622(t1) # 20020054 <__riscv_restore_0>
     6b2:	01a7c703          	lbu	a4,26(a5)
     6b6:	0197c683          	lbu	a3,25(a5)
     6ba:	0722                	slli	a4,a4,0x8
     6bc:	8f55                	or	a4,a4,a3
     6be:	04971663          	bne	a4,s1,70a <tcp_bind+0x12e>
     6c2:	0017c703          	lbu	a4,1(a5)
     6c6:	0007c683          	lbu	a3,0(a5)
     6ca:	0722                	slli	a4,a4,0x8
     6cc:	8f55                	or	a4,a4,a3
     6ce:	0027c683          	lbu	a3,2(a5)
     6d2:	06c2                	slli	a3,a3,0x10
     6d4:	8f55                	or	a4,a4,a3
     6d6:	0037c683          	lbu	a3,3(a5)
     6da:	06e2                	slli	a3,a3,0x18
     6dc:	8ed9                	or	a3,a3,a4
     6de:	18068f63          	beqz	a3,87c <__stack_size+0x7c>
     6e2:	18058d63          	beqz	a1,87c <__stack_size+0x7c>
     6e6:	0015c603          	lbu	a2,1(a1)
     6ea:	0005c703          	lbu	a4,0(a1)
     6ee:	0622                	slli	a2,a2,0x8
     6f0:	8e59                	or	a2,a2,a4
     6f2:	0025c703          	lbu	a4,2(a1)
     6f6:	0742                	slli	a4,a4,0x10
     6f8:	8e59                	or	a2,a2,a4
     6fa:	0035c703          	lbu	a4,3(a1)
     6fe:	0762                	slli	a4,a4,0x18
     700:	8f51                	or	a4,a4,a2
     702:	16070d63          	beqz	a4,87c <__stack_size+0x7c>
     706:	16e68b63          	beq	a3,a4,87c <__stack_size+0x7c>
     70a:	00d7c703          	lbu	a4,13(a5)
     70e:	00c7c683          	lbu	a3,12(a5)
     712:	0722                	slli	a4,a4,0x8
     714:	8ed9                	or	a3,a3,a4
     716:	00e7c703          	lbu	a4,14(a5)
     71a:	00f7c783          	lbu	a5,15(a5)
     71e:	0742                	slli	a4,a4,0x10
     720:	8f55                	or	a4,a4,a3
     722:	07e2                	slli	a5,a5,0x18
     724:	8fd9                	or	a5,a5,a4
     726:	bde5                	j	61e <tcp_bind+0x42>
     728:	01a7c703          	lbu	a4,26(a5)
     72c:	0197c683          	lbu	a3,25(a5)
     730:	0722                	slli	a4,a4,0x8
     732:	8f55                	or	a4,a4,a3
     734:	04971663          	bne	a4,s1,780 <tcp_bind+0x1a4>
     738:	0017c703          	lbu	a4,1(a5)
     73c:	0007c683          	lbu	a3,0(a5)
     740:	0722                	slli	a4,a4,0x8
     742:	8f55                	or	a4,a4,a3
     744:	0027c683          	lbu	a3,2(a5)
     748:	06c2                	slli	a3,a3,0x10
     74a:	8f55                	or	a4,a4,a3
     74c:	0037c683          	lbu	a3,3(a5)
     750:	06e2                	slli	a3,a3,0x18
     752:	8ed9                	or	a3,a3,a4
     754:	12068463          	beqz	a3,87c <__stack_size+0x7c>
     758:	12058263          	beqz	a1,87c <__stack_size+0x7c>
     75c:	0015c603          	lbu	a2,1(a1)
     760:	0005c703          	lbu	a4,0(a1)
     764:	0622                	slli	a2,a2,0x8
     766:	8e59                	or	a2,a2,a4
     768:	0025c703          	lbu	a4,2(a1)
     76c:	0742                	slli	a4,a4,0x10
     76e:	8e59                	or	a2,a2,a4
     770:	0035c703          	lbu	a4,3(a1)
     774:	0762                	slli	a4,a4,0x18
     776:	8f51                	or	a4,a4,a2
     778:	10070263          	beqz	a4,87c <__stack_size+0x7c>
     77c:	10e68063          	beq	a3,a4,87c <__stack_size+0x7c>
     780:	00d7c703          	lbu	a4,13(a5)
     784:	00c7c683          	lbu	a3,12(a5)
     788:	0722                	slli	a4,a4,0x8
     78a:	8ed9                	or	a3,a3,a4
     78c:	00e7c703          	lbu	a4,14(a5)
     790:	00f7c783          	lbu	a5,15(a5)
     794:	0742                	slli	a4,a4,0x10
     796:	8f55                	or	a4,a4,a3
     798:	07e2                	slli	a5,a5,0x18
     79a:	8fd9                	or	a5,a5,a4
     79c:	b579                	j	62a <tcp_bind+0x4e>
     79e:	01a7c703          	lbu	a4,26(a5)
     7a2:	0197c683          	lbu	a3,25(a5)
     7a6:	0722                	slli	a4,a4,0x8
     7a8:	8f55                	or	a4,a4,a3
     7aa:	04971363          	bne	a4,s1,7f0 <tcp_bind+0x214>
     7ae:	0017c703          	lbu	a4,1(a5)
     7b2:	0007c683          	lbu	a3,0(a5)
     7b6:	0722                	slli	a4,a4,0x8
     7b8:	8f55                	or	a4,a4,a3
     7ba:	0027c683          	lbu	a3,2(a5)
     7be:	06c2                	slli	a3,a3,0x10
     7c0:	8f55                	or	a4,a4,a3
     7c2:	0037c683          	lbu	a3,3(a5)
     7c6:	06e2                	slli	a3,a3,0x18
     7c8:	8ed9                	or	a3,a3,a4
     7ca:	cacd                	beqz	a3,87c <__stack_size+0x7c>
     7cc:	c9c5                	beqz	a1,87c <__stack_size+0x7c>
     7ce:	0015c603          	lbu	a2,1(a1)
     7d2:	0005c703          	lbu	a4,0(a1)
     7d6:	0622                	slli	a2,a2,0x8
     7d8:	8e59                	or	a2,a2,a4
     7da:	0025c703          	lbu	a4,2(a1)
     7de:	0742                	slli	a4,a4,0x10
     7e0:	8e59                	or	a2,a2,a4
     7e2:	0035c703          	lbu	a4,3(a1)
     7e6:	0762                	slli	a4,a4,0x18
     7e8:	8f51                	or	a4,a4,a2
     7ea:	cb49                	beqz	a4,87c <__stack_size+0x7c>
     7ec:	08e68863          	beq	a3,a4,87c <__stack_size+0x7c>
     7f0:	00d7c703          	lbu	a4,13(a5)
     7f4:	00c7c683          	lbu	a3,12(a5)
     7f8:	0722                	slli	a4,a4,0x8
     7fa:	8ed9                	or	a3,a3,a4
     7fc:	00e7c703          	lbu	a4,14(a5)
     800:	00f7c783          	lbu	a5,15(a5)
     804:	0742                	slli	a4,a4,0x10
     806:	8f55                	or	a4,a4,a3
     808:	07e2                	slli	a5,a5,0x18
     80a:	8fd9                	or	a5,a5,a4
     80c:	b53d                	j	63a <tcp_bind+0x5e>
     80e:	01a7c703          	lbu	a4,26(a5)
     812:	0197c683          	lbu	a3,25(a5)
     816:	0722                	slli	a4,a4,0x8
     818:	8f55                	or	a4,a4,a3
     81a:	04971063          	bne	a4,s1,85a <__stack_size+0x5a>
     81e:	0017c703          	lbu	a4,1(a5)
     822:	0007c683          	lbu	a3,0(a5)
     826:	0015c603          	lbu	a2,1(a1)
     82a:	0722                	slli	a4,a4,0x8
     82c:	8f55                	or	a4,a4,a3
     82e:	0027c683          	lbu	a3,2(a5)
     832:	0622                	slli	a2,a2,0x8
     834:	06c2                	slli	a3,a3,0x10
     836:	8f55                	or	a4,a4,a3
     838:	0037c683          	lbu	a3,3(a5)
     83c:	06e2                	slli	a3,a3,0x18
     83e:	8ed9                	or	a3,a3,a4
     840:	0005c703          	lbu	a4,0(a1)
     844:	8e59                	or	a2,a2,a4
     846:	0025c703          	lbu	a4,2(a1)
     84a:	0742                	slli	a4,a4,0x10
     84c:	8e59                	or	a2,a2,a4
     84e:	0035c703          	lbu	a4,3(a1)
     852:	0762                	slli	a4,a4,0x18
     854:	8f51                	or	a4,a4,a2
     856:	02e68363          	beq	a3,a4,87c <__stack_size+0x7c>
     85a:	00d7c703          	lbu	a4,13(a5)
     85e:	00c7c683          	lbu	a3,12(a5)
     862:	0722                	slli	a4,a4,0x8
     864:	8ed9                	or	a3,a3,a4
     866:	00e7c703          	lbu	a4,14(a5)
     86a:	00f7c783          	lbu	a5,15(a5)
     86e:	0742                	slli	a4,a4,0x10
     870:	8f55                	or	a4,a4,a3
     872:	07e2                	slli	a5,a5,0x18
     874:	8fd9                	or	a5,a5,a4
     876:	bbc9                	j	648 <tcp_bind+0x6c>
     878:	554d                	li	a0,-13
     87a:	8082                	ret
     87c:	5555                	li	a0,-11
     87e:	b52d                	j	6a8 <tcp_bind+0xcc>

00000880 <tcp_update_rcv_ann_wnd>:
     880:	02354583          	lbu	a1,35(a0)
     884:	02254703          	lbu	a4,34(a0)
     888:	02754603          	lbu	a2,39(a0)
     88c:	05a2                	slli	a1,a1,0x8
     88e:	8f4d                	or	a4,a4,a1
     890:	02454583          	lbu	a1,36(a0)
     894:	0622                	slli	a2,a2,0x8
     896:	02a54683          	lbu	a3,42(a0)
     89a:	05c2                	slli	a1,a1,0x10
     89c:	8dd9                	or	a1,a1,a4
     89e:	02554703          	lbu	a4,37(a0)
     8a2:	87aa                	mv	a5,a0
     8a4:	0377c803          	lbu	a6,55(a5)
     8a8:	0762                	slli	a4,a4,0x18
     8aa:	8dd9                	or	a1,a1,a4
     8ac:	02654703          	lbu	a4,38(a0)
     8b0:	0367c883          	lbu	a7,54(a5)
     8b4:	0822                	slli	a6,a6,0x8
     8b6:	8e59                	or	a2,a2,a4
     8b8:	02b54703          	lbu	a4,43(a0)
     8bc:	01186833          	or	a6,a6,a7
     8c0:	0722                	slli	a4,a4,0x8
     8c2:	8ed9                	or	a3,a3,a4
     8c4:	02c54703          	lbu	a4,44(a0)
     8c8:	0742                	slli	a4,a4,0x10
     8ca:	8f55                	or	a4,a4,a3
     8cc:	02d54683          	lbu	a3,45(a0)
     8d0:	06e2                	slli	a3,a3,0x18
     8d2:	8f55                	or	a4,a4,a3
     8d4:	20000697          	auipc	a3,0x20000
     8d8:	4f868693          	addi	a3,a3,1272 # 20000dcc <CH569Cfg>
     8dc:	42d4                	lw	a3,4(a3)
     8de:	40e60533          	sub	a0,a2,a4
     8e2:	952e                	add	a0,a0,a1
     8e4:	8285                	srli	a3,a3,0x1
     8e6:	00d87363          	bgeu	a6,a3,8ec <tcp_update_rcv_ann_wnd+0x6c>
     8ea:	86c2                	mv	a3,a6
     8ec:	40d506b3          	sub	a3,a0,a3
     8f0:	0006c863          	bltz	a3,900 <tcp_update_rcv_ann_wnd+0x80>
     8f4:	02c78423          	sb	a2,40(a5)
     8f8:	8221                	srli	a2,a2,0x8
     8fa:	02c784a3          	sb	a2,41(a5)
     8fe:	8082                	ret
     900:	40e586b3          	sub	a3,a1,a4
     904:	00d05863          	blez	a3,914 <tcp_update_rcv_ann_wnd+0x94>
     908:	02078423          	sb	zero,40(a5)
     90c:	020784a3          	sb	zero,41(a5)
     910:	4501                	li	a0,0
     912:	8082                	ret
     914:	8f0d                	sub	a4,a4,a1
     916:	0742                	slli	a4,a4,0x10
     918:	8341                	srli	a4,a4,0x10
     91a:	02e78423          	sb	a4,40(a5)
     91e:	8321                	srli	a4,a4,0x8
     920:	02e784a3          	sb	a4,41(a5)
     924:	b7f5                	j	910 <tcp_update_rcv_ann_wnd+0x90>

00000926 <tcp_recved>:
     926:	2001f317          	auipc	t1,0x2001f
     92a:	70a302e7          	jalr	t0,1802(t1) # 20020030 <__riscv_save_0>
     92e:	02754783          	lbu	a5,39(a0)
     932:	02654703          	lbu	a4,38(a0)
     936:	842a                	mv	s0,a0
     938:	07a2                	slli	a5,a5,0x8
     93a:	8fd9                	or	a5,a5,a4
     93c:	95be                	add	a1,a1,a5
     93e:	05c2                	slli	a1,a1,0x10
     940:	81c1                	srli	a1,a1,0x10
     942:	0085d793          	srli	a5,a1,0x8
     946:	20000717          	auipc	a4,0x20000
     94a:	48670713          	addi	a4,a4,1158 # 20000dcc <CH569Cfg>
     94e:	02f503a3          	sb	a5,39(a0)
     952:	435c                	lw	a5,4(a4)
     954:	02b50323          	sb	a1,38(a0)
     958:	84ba                	mv	s1,a4
     95a:	00b7f963          	bgeu	a5,a1,96c <tcp_recved+0x46>
     95e:	07c2                	slli	a5,a5,0x10
     960:	83c1                	srli	a5,a5,0x10
     962:	02f50323          	sb	a5,38(a0)
     966:	83a1                	srli	a5,a5,0x8
     968:	02f503a3          	sb	a5,39(a0)
     96c:	8522                	mv	a0,s0
     96e:	3f09                	jal	880 <tcp_update_rcv_ann_wnd>
     970:	40dc                	lw	a5,4(s1)
     972:	8389                	srli	a5,a5,0x2
     974:	00f56b63          	bltu	a0,a5,98a <tcp_recved+0x64>
     978:	02144783          	lbu	a5,33(s0)
     97c:	8522                	mv	a0,s0
     97e:	0027e793          	ori	a5,a5,2
     982:	02f400a3          	sb	a5,33(s0)
     986:	470040ef          	jal	ra,4df6 <tcp_output>
     98a:	2001f317          	auipc	t1,0x2001f
     98e:	6ca30067          	jr	1738(t1) # 20020054 <__riscv_restore_0>

00000992 <tcp_seg_free>:
     992:	2001f317          	auipc	t1,0x2001f
     996:	69e302e7          	jalr	t0,1694(t1) # 20020030 <__riscv_save_0>
     99a:	1141                	addi	sp,sp,-16
     99c:	4401                	li	s0,0
     99e:	cd09                	beqz	a0,9b8 <tcp_seg_free+0x26>
     9a0:	85aa                	mv	a1,a0
     9a2:	4148                	lw	a0,4(a0)
     9a4:	4401                	li	s0,0
     9a6:	c511                	beqz	a0,9b2 <tcp_seg_free+0x20>
     9a8:	c62e                	sw	a1,12(sp)
     9aa:	784060ef          	jal	ra,712e <pbuf_free>
     9ae:	45b2                	lw	a1,12(sp)
     9b0:	842a                	mv	s0,a0
     9b2:	4511                	li	a0,4
     9b4:	303050ef          	jal	ra,64b6 <memp_free>
     9b8:	8522                	mv	a0,s0
     9ba:	0141                	addi	sp,sp,16
     9bc:	2001f317          	auipc	t1,0x2001f
     9c0:	69830067          	jr	1688(t1) # 20020054 <__riscv_restore_0>

000009c4 <tcp_segs_free>:
     9c4:	2001f317          	auipc	t1,0x2001f
     9c8:	66c302e7          	jalr	t0,1644(t1) # 20020030 <__riscv_save_0>
     9cc:	4401                	li	s0,0
     9ce:	e511                	bnez	a0,9da <tcp_segs_free+0x16>
     9d0:	8522                	mv	a0,s0
     9d2:	2001f317          	auipc	t1,0x2001f
     9d6:	68230067          	jr	1666(t1) # 20020054 <__riscv_restore_0>
     9da:	4104                	lw	s1,0(a0)
     9dc:	3f5d                	jal	992 <tcp_seg_free>
     9de:	942a                	add	s0,s0,a0
     9e0:	0ff47413          	andi	s0,s0,255
     9e4:	8526                	mv	a0,s1
     9e6:	b7e5                	j	9ce <tcp_segs_free+0xa>

000009e8 <tcp_seg_copy>:
     9e8:	2001f317          	auipc	t1,0x2001f
     9ec:	648302e7          	jalr	t0,1608(t1) # 20020030 <__riscv_save_0>
     9f0:	1141                	addi	sp,sp,-16
     9f2:	c62a                	sw	a0,12(sp)
     9f4:	4511                	li	a0,4
     9f6:	2a1050ef          	jal	ra,6496 <memp_malloc>
     9fa:	842a                	mv	s0,a0
     9fc:	c911                	beqz	a0,a10 <tcp_seg_copy+0x28>
     9fe:	45b2                	lw	a1,12(sp)
     a00:	4651                	li	a2,20
     a02:	20024097          	auipc	ra,0x20024
     a06:	19a080e7          	jalr	410(ra) # 20024b9c <memcpy>
     a0a:	4048                	lw	a0,4(s0)
     a0c:	339060ef          	jal	ra,7544 <pbuf_ref>
     a10:	8522                	mv	a0,s0
     a12:	0141                	addi	sp,sp,16
     a14:	2001f317          	auipc	t1,0x2001f
     a18:	64030067          	jr	1600(t1) # 20020054 <__riscv_restore_0>

00000a1c <tcp_arg>:
     a1c:	0085d793          	srli	a5,a1,0x8
     a20:	00b50aa3          	sb	a1,21(a0)
     a24:	00f50b23          	sb	a5,22(a0)
     a28:	0105d793          	srli	a5,a1,0x10
     a2c:	81e1                	srli	a1,a1,0x18
     a2e:	00f50ba3          	sb	a5,23(a0)
     a32:	00b50c23          	sb	a1,24(a0)
     a36:	8082                	ret

00000a38 <tcp_recv>:
     a38:	0085d793          	srli	a5,a1,0x8
     a3c:	06b50e23          	sb	a1,124(a0)
     a40:	06f50ea3          	sb	a5,125(a0)
     a44:	0105d793          	srli	a5,a1,0x10
     a48:	81e1                	srli	a1,a1,0x18
     a4a:	06f50f23          	sb	a5,126(a0)
     a4e:	06b50fa3          	sb	a1,127(a0)
     a52:	8082                	ret

00000a54 <tcp_sent>:
     a54:	0085d793          	srli	a5,a1,0x8
     a58:	06b50c23          	sb	a1,120(a0)
     a5c:	06f50ca3          	sb	a5,121(a0)
     a60:	0105d793          	srli	a5,a1,0x10
     a64:	81e1                	srli	a1,a1,0x18
     a66:	06f50d23          	sb	a5,122(a0)
     a6a:	06b50da3          	sb	a1,123(a0)
     a6e:	8082                	ret

00000a70 <tcp_err>:
     a70:	0085d793          	srli	a5,a1,0x8
     a74:	08b50423          	sb	a1,136(a0)
     a78:	08f504a3          	sb	a5,137(a0)
     a7c:	0105d793          	srli	a5,a1,0x10
     a80:	81e1                	srli	a1,a1,0x18
     a82:	08f50523          	sb	a5,138(a0)
     a86:	08b505a3          	sb	a1,139(a0)
     a8a:	8082                	ret

00000a8c <tcp_poll>:
     a8c:	0085d793          	srli	a5,a1,0x8
     a90:	08b50223          	sb	a1,132(a0)
     a94:	08f502a3          	sb	a5,133(a0)
     a98:	0105d793          	srli	a5,a1,0x10
     a9c:	81e1                	srli	a1,a1,0x18
     a9e:	08f50323          	sb	a5,134(a0)
     aa2:	08b503a3          	sb	a1,135(a0)
     aa6:	02c509a3          	sb	a2,51(a0)
     aaa:	8082                	ret

00000aac <tcp_pcb_purge>:
     aac:	01154703          	lbu	a4,17(a0)
     ab0:	01054783          	lbu	a5,16(a0)
     ab4:	0722                	slli	a4,a4,0x8
     ab6:	8f5d                	or	a4,a4,a5
     ab8:	01254783          	lbu	a5,18(a0)
     abc:	07c2                	slli	a5,a5,0x10
     abe:	8f5d                	or	a4,a4,a5
     ac0:	01354783          	lbu	a5,19(a0)
     ac4:	07e2                	slli	a5,a5,0x18
     ac6:	8fd9                	or	a5,a5,a4
     ac8:	4705                	li	a4,1
     aca:	0ef77163          	bgeu	a4,a5,bac <tcp_pcb_purge+0x100>
     ace:	4729                	li	a4,10
     ad0:	0ce78e63          	beq	a5,a4,bac <tcp_pcb_purge+0x100>
     ad4:	2001f317          	auipc	t1,0x2001f
     ad8:	55c302e7          	jalr	t0,1372(t1) # 20020030 <__riscv_save_0>
     adc:	842a                	mv	s0,a0
     ade:	07544783          	lbu	a5,117(s0)
     ae2:	07454503          	lbu	a0,116(a0)
     ae6:	07a2                	slli	a5,a5,0x8
     ae8:	8fc9                	or	a5,a5,a0
     aea:	07644503          	lbu	a0,118(s0)
     aee:	0542                	slli	a0,a0,0x10
     af0:	8fc9                	or	a5,a5,a0
     af2:	07744503          	lbu	a0,119(s0)
     af6:	0562                	slli	a0,a0,0x18
     af8:	8d5d                	or	a0,a0,a5
     afa:	c919                	beqz	a0,b10 <tcp_pcb_purge+0x64>
     afc:	632060ef          	jal	ra,712e <pbuf_free>
     b00:	06040a23          	sb	zero,116(s0)
     b04:	06040aa3          	sb	zero,117(s0)
     b08:	06040b23          	sb	zero,118(s0)
     b0c:	06040ba3          	sb	zero,119(s0)
     b10:	07144503          	lbu	a0,113(s0)
     b14:	07044783          	lbu	a5,112(s0)
     b18:	577d                	li	a4,-1
     b1a:	0522                	slli	a0,a0,0x8
     b1c:	8d5d                	or	a0,a0,a5
     b1e:	07244783          	lbu	a5,114(s0)
     b22:	02e40a23          	sb	a4,52(s0)
     b26:	02e40aa3          	sb	a4,53(s0)
     b2a:	07c2                	slli	a5,a5,0x10
     b2c:	8fc9                	or	a5,a5,a0
     b2e:	07344503          	lbu	a0,115(s0)
     b32:	0562                	slli	a0,a0,0x18
     b34:	8d5d                	or	a0,a0,a5
     b36:	3579                	jal	9c4 <tcp_segs_free>
     b38:	06944503          	lbu	a0,105(s0)
     b3c:	06844783          	lbu	a5,104(s0)
     b40:	06040823          	sb	zero,112(s0)
     b44:	0522                	slli	a0,a0,0x8
     b46:	8d5d                	or	a0,a0,a5
     b48:	06a44783          	lbu	a5,106(s0)
     b4c:	060408a3          	sb	zero,113(s0)
     b50:	06040923          	sb	zero,114(s0)
     b54:	07c2                	slli	a5,a5,0x10
     b56:	8fc9                	or	a5,a5,a0
     b58:	06b44503          	lbu	a0,107(s0)
     b5c:	060409a3          	sb	zero,115(s0)
     b60:	0562                	slli	a0,a0,0x18
     b62:	8d5d                	or	a0,a0,a5
     b64:	3585                	jal	9c4 <tcp_segs_free>
     b66:	06d44503          	lbu	a0,109(s0)
     b6a:	06c44783          	lbu	a5,108(s0)
     b6e:	0522                	slli	a0,a0,0x8
     b70:	8d5d                	or	a0,a0,a5
     b72:	06e44783          	lbu	a5,110(s0)
     b76:	07c2                	slli	a5,a5,0x10
     b78:	8fc9                	or	a5,a5,a0
     b7a:	06f44503          	lbu	a0,111(s0)
     b7e:	0562                	slli	a0,a0,0x18
     b80:	8d5d                	or	a0,a0,a5
     b82:	3589                	jal	9c4 <tcp_segs_free>
     b84:	06040423          	sb	zero,104(s0)
     b88:	060404a3          	sb	zero,105(s0)
     b8c:	06040523          	sb	zero,106(s0)
     b90:	060405a3          	sb	zero,107(s0)
     b94:	06040623          	sb	zero,108(s0)
     b98:	060406a3          	sb	zero,109(s0)
     b9c:	06040723          	sb	zero,110(s0)
     ba0:	060407a3          	sb	zero,111(s0)
     ba4:	2001f317          	auipc	t1,0x2001f
     ba8:	4b030067          	jr	1200(t1) # 20020054 <__riscv_restore_0>
     bac:	8082                	ret

00000bae <tcp_slowtmr>:
     bae:	2001f317          	auipc	t1,0x2001f
     bb2:	452302e7          	jalr	t0,1106(t1) # 20020000 <__riscv_save_12>
     bb6:	20000497          	auipc	s1,0x20000
     bba:	2fa48493          	addi	s1,s1,762 # 20000eb0 <tcp_ticks>
     bbe:	409c                	lw	a5,0(s1)
     bc0:	20000b17          	auipc	s6,0x20000
     bc4:	260b4b03          	lbu	s6,608(s6) # 20000e20 <CH569Inf+0x18>
     bc8:	06600993          	li	s3,102
     bcc:	0785                	addi	a5,a5,1
     bce:	20000717          	auipc	a4,0x20000
     bd2:	2ef72123          	sw	a5,738(a4) # 20000eb0 <tcp_ticks>
     bd6:	20000797          	auipc	a5,0x20000
     bda:	2d678793          	addi	a5,a5,726 # 20000eac <tcp_active_pcbs>
     bde:	4380                	lw	s0,0(a5)
     be0:	4901                	li	s2,0
     be2:	4b89                	li	s7,2
     be4:	1ffffd97          	auipc	s11,0x1ffff
     be8:	4b8d8d93          	addi	s11,s11,1208 # 2000009c <tcp_persist_backoff>
     bec:	4a19                	li	s4,6
     bee:	02800c13          	li	s8,40
     bf2:	20000c97          	auipc	s9,0x20000
     bf6:	20ac8c93          	addi	s9,s9,522 # 20000dfc <KeepLiveCfg>
     bfa:	ec01                	bnez	s0,c12 <tcp_slowtmr+0x64>
     bfc:	20000797          	auipc	a5,0x20000
     c00:	2c478793          	addi	a5,a5,708 # 20000ec0 <tcp_tw_pcbs>
     c04:	4380                	lw	s0,0(a5)
     c06:	54041463          	bnez	s0,114e <tcp_slowtmr+0x5a0>
     c0a:	2001f317          	auipc	t1,0x2001f
     c0e:	43230067          	jr	1074(t1) # 2002003c <__riscv_restore_12>
     c12:	19fd                	addi	s3,s3,-1
     c14:	0ff9f993          	andi	s3,s3,255
     c18:	fe0989e3          	beqz	s3,c0a <tcp_slowtmr+0x5c>
     c1c:	01144783          	lbu	a5,17(s0)
     c20:	01044683          	lbu	a3,16(s0)
     c24:	04644603          	lbu	a2,70(s0)
     c28:	07a2                	slli	a5,a5,0x8
     c2a:	8fd5                	or	a5,a5,a3
     c2c:	01244683          	lbu	a3,18(s0)
     c30:	4d05                	li	s10,1
     c32:	06c2                	slli	a3,a3,0x10
     c34:	8fd5                	or	a5,a5,a3
     c36:	01344683          	lbu	a3,19(s0)
     c3a:	06e2                	slli	a3,a3,0x18
     c3c:	8edd                	or	a3,a3,a5
     c3e:	04cb0a63          	beq	s6,a2,c92 <tcp_slowtmr+0xe4>
     c42:	09444d03          	lbu	s10,148(s0)
     c46:	240d0563          	beqz	s10,e90 <tcp_slowtmr+0x2e2>
     c4a:	09144683          	lbu	a3,145(s0)
     c4e:	09044703          	lbu	a4,144(s0)
     c52:	06a2                	slli	a3,a3,0x8
     c54:	8ed9                	or	a3,a3,a4
     c56:	09244703          	lbu	a4,146(s0)
     c5a:	0742                	slli	a4,a4,0x10
     c5c:	8ed9                	or	a3,a3,a4
     c5e:	09344703          	lbu	a4,147(s0)
     c62:	0762                	slli	a4,a4,0x18
     c64:	8f55                	or	a4,a4,a3
     c66:	0705                	addi	a4,a4,1
     c68:	00875693          	srli	a3,a4,0x8
     c6c:	08d408a3          	sb	a3,145(s0)
     c70:	01075693          	srli	a3,a4,0x10
     c74:	08d40923          	sb	a3,146(s0)
     c78:	01875693          	srli	a3,a4,0x18
     c7c:	08d409a3          	sb	a3,147(s0)
     c80:	01ad86b3          	add	a3,s11,s10
     c84:	fff6c683          	lbu	a3,-1(a3)
     c88:	08e40823          	sb	a4,144(s0)
     c8c:	1ed77063          	bgeu	a4,a3,e6c <tcp_slowtmr+0x2be>
     c90:	4d01                	li	s10,0
     c92:	01144683          	lbu	a3,17(s0)
     c96:	01044703          	lbu	a4,16(s0)
     c9a:	06a2                	slli	a3,a3,0x8
     c9c:	8ed9                	or	a3,a3,a4
     c9e:	01244703          	lbu	a4,18(s0)
     ca2:	0742                	slli	a4,a4,0x10
     ca4:	8ed9                	or	a3,a3,a4
     ca6:	01344703          	lbu	a4,19(s0)
     caa:	0762                	slli	a4,a4,0x18
     cac:	8f55                	or	a4,a4,a3
     cae:	03471963          	bne	a4,s4,ce0 <tcp_slowtmr+0x132>
     cb2:	02f44603          	lbu	a2,47(s0)
     cb6:	02e44683          	lbu	a3,46(s0)
     cba:	0622                	slli	a2,a2,0x8
     cbc:	8e55                	or	a2,a2,a3
     cbe:	03044683          	lbu	a3,48(s0)
     cc2:	06c2                	slli	a3,a3,0x10
     cc4:	8e55                	or	a2,a2,a3
     cc6:	03144683          	lbu	a3,49(s0)
     cca:	06e2                	slli	a3,a3,0x18
     ccc:	8ed1                	or	a3,a3,a2
     cce:	4090                	lw	a2,0(s1)
     cd0:	40d606b3          	sub	a3,a2,a3
     cd4:	00dc7663          	bgeu	s8,a3,ce0 <tcp_slowtmr+0x132>
     cd8:	001d0793          	addi	a5,s10,1
     cdc:	0ff7fd13          	andi	s10,a5,255
     ce0:	00844683          	lbu	a3,8(s0)
     ce4:	4a81                	li	s5,0
     ce6:	8aa1                	andi	a3,a3,8
     ce8:	c6bd                	beqz	a3,d56 <tcp_slowtmr+0x1a8>
     cea:	4691                	li	a3,4
     cec:	00d70563          	beq	a4,a3,cf6 <tcp_slowtmr+0x148>
     cf0:	469d                	li	a3,7
     cf2:	06d71263          	bne	a4,a3,d56 <tcp_slowtmr+0x1a8>
     cf6:	02f44703          	lbu	a4,47(s0)
     cfa:	02e44583          	lbu	a1,46(s0)
     cfe:	08d44603          	lbu	a2,141(s0)
     d02:	0722                	slli	a4,a4,0x8
     d04:	8dd9                	or	a1,a1,a4
     d06:	03044703          	lbu	a4,48(s0)
     d0a:	004ca803          	lw	a6,4(s9)
     d0e:	008ca683          	lw	a3,8(s9)
     d12:	0742                	slli	a4,a4,0x10
     d14:	8f4d                	or	a4,a4,a1
     d16:	03144583          	lbu	a1,49(s0)
     d1a:	0622                	slli	a2,a2,0x8
     d1c:	02d806b3          	mul	a3,a6,a3
     d20:	05e2                	slli	a1,a1,0x18
     d22:	8f4d                	or	a4,a4,a1
     d24:	408c                	lw	a1,0(s1)
     d26:	1f400513          	li	a0,500
     d2a:	8d99                	sub	a1,a1,a4
     d2c:	08c44703          	lbu	a4,140(s0)
     d30:	8f51                	or	a4,a4,a2
     d32:	08e44603          	lbu	a2,142(s0)
     d36:	0642                	slli	a2,a2,0x10
     d38:	8e59                	or	a2,a2,a4
     d3a:	08f44703          	lbu	a4,143(s0)
     d3e:	0762                	slli	a4,a4,0x18
     d40:	8e59                	or	a2,a2,a4
     d42:	96b2                	add	a3,a3,a2
     d44:	02a6d6b3          	divu	a3,a3,a0
     d48:	24b6fb63          	bgeu	a3,a1,f9e <tcp_slowtmr+0x3f0>
     d4c:	001d0793          	addi	a5,s10,1
     d50:	0ff7fd13          	andi	s10,a5,255
     d54:	4a85                	li	s5,1
     d56:	07144703          	lbu	a4,113(s0)
     d5a:	07044503          	lbu	a0,112(s0)
     d5e:	0722                	slli	a4,a4,0x8
     d60:	8f49                	or	a4,a4,a0
     d62:	07244503          	lbu	a0,114(s0)
     d66:	0542                	slli	a0,a0,0x10
     d68:	8f49                	or	a4,a4,a0
     d6a:	07344503          	lbu	a0,115(s0)
     d6e:	0562                	slli	a0,a0,0x18
     d70:	8d59                	or	a0,a0,a4
     d72:	c531                	beqz	a0,dbe <tcp_slowtmr+0x210>
     d74:	02f44683          	lbu	a3,47(s0)
     d78:	02e44703          	lbu	a4,46(s0)
     d7c:	04444603          	lbu	a2,68(s0)
     d80:	06a2                	slli	a3,a3,0x8
     d82:	8ed9                	or	a3,a3,a4
     d84:	03044703          	lbu	a4,48(s0)
     d88:	0742                	slli	a4,a4,0x10
     d8a:	8ed9                	or	a3,a3,a4
     d8c:	03144703          	lbu	a4,49(s0)
     d90:	0762                	slli	a4,a4,0x18
     d92:	8f55                	or	a4,a4,a3
     d94:	4094                	lw	a3,0(s1)
     d96:	8e99                	sub	a3,a3,a4
     d98:	04544703          	lbu	a4,69(s0)
     d9c:	0722                	slli	a4,a4,0x8
     d9e:	8f51                	or	a4,a4,a2
     da0:	0742                	slli	a4,a4,0x10
     da2:	8741                	srai	a4,a4,0x10
     da4:	03470733          	mul	a4,a4,s4
     da8:	00e6eb63          	bltu	a3,a4,dbe <tcp_slowtmr+0x210>
     dac:	3921                	jal	9c4 <tcp_segs_free>
     dae:	06040823          	sb	zero,112(s0)
     db2:	060408a3          	sb	zero,113(s0)
     db6:	06040923          	sb	zero,114(s0)
     dba:	060409a3          	sb	zero,115(s0)
     dbe:	01144683          	lbu	a3,17(s0)
     dc2:	01044703          	lbu	a4,16(s0)
     dc6:	06a2                	slli	a3,a3,0x8
     dc8:	8ed9                	or	a3,a3,a4
     dca:	01244703          	lbu	a4,18(s0)
     dce:	0742                	slli	a4,a4,0x10
     dd0:	8ed9                	or	a3,a3,a4
     dd2:	01344703          	lbu	a4,19(s0)
     dd6:	0762                	slli	a4,a4,0x18
     dd8:	8f55                	or	a4,a4,a3
     dda:	468d                	li	a3,3
     ddc:	1ed71463          	bne	a4,a3,fc4 <tcp_slowtmr+0x416>
     de0:	02f44683          	lbu	a3,47(s0)
     de4:	02e44703          	lbu	a4,46(s0)
     de8:	06a2                	slli	a3,a3,0x8
     dea:	8ed9                	or	a3,a3,a4
     dec:	03044703          	lbu	a4,48(s0)
     df0:	0742                	slli	a4,a4,0x10
     df2:	8ed9                	or	a3,a3,a4
     df4:	03144703          	lbu	a4,49(s0)
     df8:	0762                	slli	a4,a4,0x18
     dfa:	8f55                	or	a4,a4,a3
     dfc:	4094                	lw	a3,0(s1)
     dfe:	40e68733          	sub	a4,a3,a4
     e02:	1eec6963          	bltu	s8,a4,ff4 <tcp_slowtmr+0x446>
     e06:	1e0d1763          	bnez	s10,ff4 <tcp_slowtmr+0x446>
     e0a:	03244783          	lbu	a5,50(s0)
     e0e:	03344703          	lbu	a4,51(s0)
     e12:	0785                	addi	a5,a5,1
     e14:	0ff7f793          	andi	a5,a5,255
     e18:	02f40923          	sb	a5,50(s0)
     e1c:	02e7e763          	bltu	a5,a4,e4a <tcp_slowtmr+0x29c>
     e20:	08544703          	lbu	a4,133(s0)
     e24:	08444783          	lbu	a5,132(s0)
     e28:	02040923          	sb	zero,50(s0)
     e2c:	0722                	slli	a4,a4,0x8
     e2e:	8f5d                	or	a4,a4,a5
     e30:	08644783          	lbu	a5,134(s0)
     e34:	07c2                	slli	a5,a5,0x10
     e36:	8f5d                	or	a4,a4,a5
     e38:	08744783          	lbu	a5,135(s0)
     e3c:	07e2                	slli	a5,a5,0x18
     e3e:	8fd9                	or	a5,a5,a4
     e40:	2e079463          	bnez	a5,1128 <tcp_slowtmr+0x57a>
     e44:	8522                	mv	a0,s0
     e46:	7b1030ef          	jal	ra,4df6 <tcp_output>
     e4a:	00d44783          	lbu	a5,13(s0)
     e4e:	00c44703          	lbu	a4,12(s0)
     e52:	8922                	mv	s2,s0
     e54:	07a2                	slli	a5,a5,0x8
     e56:	8f5d                	or	a4,a4,a5
     e58:	00e44783          	lbu	a5,14(s0)
     e5c:	07c2                	slli	a5,a5,0x10
     e5e:	8fd9                	or	a5,a5,a4
     e60:	00f44703          	lbu	a4,15(s0)
     e64:	0762                	slli	a4,a4,0x18
     e66:	00f76433          	or	s0,a4,a5
     e6a:	bb41                	j	bfa <tcp_slowtmr+0x4c>
     e6c:	08040823          	sb	zero,144(s0)
     e70:	080408a3          	sb	zero,145(s0)
     e74:	08040923          	sb	zero,146(s0)
     e78:	080409a3          	sb	zero,147(s0)
     e7c:	01aa6663          	bltu	s4,s10,e88 <tcp_slowtmr+0x2da>
     e80:	001d0793          	addi	a5,s10,1
     e84:	08f40a23          	sb	a5,148(s0)
     e88:	8522                	mv	a0,s0
     e8a:	245040ef          	jal	ra,58ce <tcp_zero_window_probe>
     e8e:	b509                	j	c90 <tcp_slowtmr+0xe2>
     e90:	03544703          	lbu	a4,53(s0)
     e94:	03444583          	lbu	a1,52(s0)
     e98:	0722                	slli	a4,a4,0x8
     e9a:	8f4d                	or	a4,a4,a1
     e9c:	0742                	slli	a4,a4,0x10
     e9e:	8741                	srai	a4,a4,0x10
     ea0:	00074a63          	bltz	a4,eb4 <tcp_slowtmr+0x306>
     ea4:	0705                	addi	a4,a4,1
     ea6:	0742                	slli	a4,a4,0x10
     ea8:	8341                	srli	a4,a4,0x10
     eaa:	02e40a23          	sb	a4,52(s0)
     eae:	8321                	srli	a4,a4,0x8
     eb0:	02e40aa3          	sb	a4,53(s0)
     eb4:	06d44583          	lbu	a1,109(s0)
     eb8:	06c44703          	lbu	a4,108(s0)
     ebc:	05a2                	slli	a1,a1,0x8
     ebe:	8dd9                	or	a1,a1,a4
     ec0:	06e44703          	lbu	a4,110(s0)
     ec4:	0742                	slli	a4,a4,0x10
     ec6:	8dd9                	or	a1,a1,a4
     ec8:	06f44703          	lbu	a4,111(s0)
     ecc:	0762                	slli	a4,a4,0x18
     ece:	8f4d                	or	a4,a4,a1
     ed0:	dc0700e3          	beqz	a4,c90 <tcp_slowtmr+0xe2>
     ed4:	03544703          	lbu	a4,53(s0)
     ed8:	03444583          	lbu	a1,52(s0)
     edc:	0722                	slli	a4,a4,0x8
     ede:	8f4d                	or	a4,a4,a1
     ee0:	0742                	slli	a4,a4,0x10
     ee2:	8741                	srai	a4,a4,0x10
     ee4:	dae056e3          	blez	a4,c90 <tcp_slowtmr+0xe2>
     ee8:	05768463          	beq	a3,s7,f30 <tcp_slowtmr+0x382>
     eec:	04144703          	lbu	a4,65(s0)
     ef0:	04044683          	lbu	a3,64(s0)
     ef4:	04244583          	lbu	a1,66(s0)
     ef8:	0722                	slli	a4,a4,0x8
     efa:	8f55                	or	a4,a4,a3
     efc:	04344683          	lbu	a3,67(s0)
     f00:	0742                	slli	a4,a4,0x10
     f02:	8741                	srai	a4,a4,0x10
     f04:	06a2                	slli	a3,a3,0x8
     f06:	8ecd                	or	a3,a3,a1
     f08:	06c2                	slli	a3,a3,0x10
     f0a:	20026797          	auipc	a5,0x20026
     f0e:	82e78793          	addi	a5,a5,-2002 # 20026738 <tcp_backoff>
     f12:	86c1                	srai	a3,a3,0x10
     f14:	870d                	srai	a4,a4,0x3
     f16:	963e                	add	a2,a2,a5
     f18:	9736                	add	a4,a4,a3
     f1a:	00064683          	lbu	a3,0(a2)
     f1e:	00d71733          	sll	a4,a4,a3
     f22:	0742                	slli	a4,a4,0x10
     f24:	8341                	srli	a4,a4,0x10
     f26:	04e40223          	sb	a4,68(s0)
     f2a:	8321                	srli	a4,a4,0x8
     f2c:	04e402a3          	sb	a4,69(s0)
     f30:	05544603          	lbu	a2,85(s0)
     f34:	05444703          	lbu	a4,84(s0)
     f38:	04c44683          	lbu	a3,76(s0)
     f3c:	0622                	slli	a2,a2,0x8
     f3e:	8e59                	or	a2,a2,a4
     f40:	04d44703          	lbu	a4,77(s0)
     f44:	02040a23          	sb	zero,52(s0)
     f48:	02040aa3          	sb	zero,53(s0)
     f4c:	0722                	slli	a4,a4,0x8
     f4e:	8f55                	or	a4,a4,a3
     f50:	86b2                	mv	a3,a2
     f52:	00c77363          	bgeu	a4,a2,f58 <tcp_slowtmr+0x3aa>
     f56:	86ba                	mv	a3,a4
     f58:	06c2                	slli	a3,a3,0x10
     f5a:	82c1                	srli	a3,a3,0x10
     f5c:	8285                	srli	a3,a3,0x1
     f5e:	0086d713          	srli	a4,a3,0x8
     f62:	04e407a3          	sb	a4,79(s0)
     f66:	03744703          	lbu	a4,55(s0)
     f6a:	03644603          	lbu	a2,54(s0)
     f6e:	04d40723          	sb	a3,78(s0)
     f72:	0722                	slli	a4,a4,0x8
     f74:	8f51                	or	a4,a4,a2
     f76:	00e6fb63          	bgeu	a3,a4,f8c <tcp_slowtmr+0x3de>
     f7a:	00171693          	slli	a3,a4,0x1
     f7e:	06c2                	slli	a3,a3,0x10
     f80:	82c1                	srli	a3,a3,0x10
     f82:	04d40723          	sb	a3,78(s0)
     f86:	82a1                	srli	a3,a3,0x8
     f88:	04d407a3          	sb	a3,79(s0)
     f8c:	04e40623          	sb	a4,76(s0)
     f90:	8321                	srli	a4,a4,0x8
     f92:	04e406a3          	sb	a4,77(s0)
     f96:	8522                	mv	a0,s0
     f98:	698040ef          	jal	ra,5630 <tcp_rexmit_rto>
     f9c:	b9dd                	j	c92 <tcp_slowtmr+0xe4>
     f9e:	09544703          	lbu	a4,149(s0)
     fa2:	4a81                	li	s5,0
     fa4:	03070733          	mul	a4,a4,a6
     fa8:	9732                	add	a4,a4,a2
     faa:	02a75733          	divu	a4,a4,a0
     fae:	dab774e3          	bgeu	a4,a1,d56 <tcp_slowtmr+0x1a8>
     fb2:	8522                	mv	a0,s0
     fb4:	0b3040ef          	jal	ra,5866 <tcp_keepalive>
     fb8:	09544703          	lbu	a4,149(s0)
     fbc:	0705                	addi	a4,a4,1
     fbe:	08e40aa3          	sb	a4,149(s0)
     fc2:	bb51                	j	d56 <tcp_slowtmr+0x1a8>
     fc4:	46a5                	li	a3,9
     fc6:	e4d710e3          	bne	a4,a3,e06 <tcp_slowtmr+0x258>
     fca:	02f44683          	lbu	a3,47(s0)
     fce:	02e44703          	lbu	a4,46(s0)
     fd2:	06a2                	slli	a3,a3,0x8
     fd4:	8ed9                	or	a3,a3,a4
     fd6:	03044703          	lbu	a4,48(s0)
     fda:	0742                	slli	a4,a4,0x10
     fdc:	8ed9                	or	a3,a3,a4
     fde:	03144703          	lbu	a4,49(s0)
     fe2:	0762                	slli	a4,a4,0x18
     fe4:	8f55                	or	a4,a4,a3
     fe6:	4094                	lw	a3,0(s1)
     fe8:	40e68733          	sub	a4,a3,a4
     fec:	0f000693          	li	a3,240
     ff0:	e0e6fbe3          	bgeu	a3,a4,e06 <tcp_slowtmr+0x258>
     ff4:	8522                	mv	a0,s0
     ff6:	20021097          	auipc	ra,0x20021
     ffa:	6be080e7          	jalr	1726(ra) # 200226b4 <LwipRemoveTcpPcb>
     ffe:	8522                	mv	a0,s0
    1000:	3475                	jal	aac <tcp_pcb_purge>
    1002:	00d44603          	lbu	a2,13(s0)
    1006:	00c44783          	lbu	a5,12(s0)
    100a:	00e44683          	lbu	a3,14(s0)
    100e:	00f44703          	lbu	a4,15(s0)
    1012:	0622                	slli	a2,a2,0x8
    1014:	10090063          	beqz	s2,1114 <tcp_slowtmr+0x566>
    1018:	8fd1                	or	a5,a5,a2
    101a:	06c2                	slli	a3,a3,0x10
    101c:	8edd                	or	a3,a3,a5
    101e:	01871793          	slli	a5,a4,0x18
    1022:	8fd5                	or	a5,a5,a3
    1024:	0087d713          	srli	a4,a5,0x8
    1028:	00f90623          	sb	a5,12(s2)
    102c:	00e906a3          	sb	a4,13(s2)
    1030:	0107d713          	srli	a4,a5,0x10
    1034:	83e1                	srli	a5,a5,0x18
    1036:	00e90723          	sb	a4,14(s2)
    103a:	00f907a3          	sb	a5,15(s2)
    103e:	08944703          	lbu	a4,137(s0)
    1042:	08844783          	lbu	a5,136(s0)
    1046:	0722                	slli	a4,a4,0x8
    1048:	8f5d                	or	a4,a4,a5
    104a:	08a44783          	lbu	a5,138(s0)
    104e:	07c2                	slli	a5,a5,0x10
    1050:	8f5d                	or	a4,a4,a5
    1052:	08b44783          	lbu	a5,139(s0)
    1056:	07e2                	slli	a5,a5,0x18
    1058:	8fd9                	or	a5,a5,a4
    105a:	c38d                	beqz	a5,107c <tcp_slowtmr+0x4ce>
    105c:	01644503          	lbu	a0,22(s0)
    1060:	01544703          	lbu	a4,21(s0)
    1064:	55ed                	li	a1,-5
    1066:	0522                	slli	a0,a0,0x8
    1068:	8d59                	or	a0,a0,a4
    106a:	01744703          	lbu	a4,23(s0)
    106e:	0742                	slli	a4,a4,0x10
    1070:	8f49                	or	a4,a4,a0
    1072:	01844503          	lbu	a0,24(s0)
    1076:	0562                	slli	a0,a0,0x18
    1078:	8d59                	or	a0,a0,a4
    107a:	9782                	jalr	a5
    107c:	060a8563          	beqz	s5,10e6 <tcp_slowtmr+0x538>
    1080:	02344583          	lbu	a1,35(s0)
    1084:	05144503          	lbu	a0,81(s0)
    1088:	02244883          	lbu	a7,34(s0)
    108c:	05044803          	lbu	a6,80(s0)
    1090:	05a2                	slli	a1,a1,0x8
    1092:	0522                	slli	a0,a0,0x8
    1094:	0115e5b3          	or	a1,a1,a7
    1098:	01056533          	or	a0,a0,a6
    109c:	02444883          	lbu	a7,36(s0)
    10a0:	05244803          	lbu	a6,82(s0)
    10a4:	02044783          	lbu	a5,32(s0)
    10a8:	08c2                	slli	a7,a7,0x10
    10aa:	0842                	slli	a6,a6,0x10
    10ac:	00b8e8b3          	or	a7,a7,a1
    10b0:	00a86833          	or	a6,a6,a0
    10b4:	01a44703          	lbu	a4,26(s0)
    10b8:	02544583          	lbu	a1,37(s0)
    10bc:	05344503          	lbu	a0,83(s0)
    10c0:	01f44603          	lbu	a2,31(s0)
    10c4:	01944683          	lbu	a3,25(s0)
    10c8:	07a2                	slli	a5,a5,0x8
    10ca:	0722                	slli	a4,a4,0x8
    10cc:	05e2                	slli	a1,a1,0x18
    10ce:	0562                	slli	a0,a0,0x18
    10d0:	8fd1                	or	a5,a5,a2
    10d2:	8f55                	or	a4,a4,a3
    10d4:	8622                	mv	a2,s0
    10d6:	00440693          	addi	a3,s0,4
    10da:	0115e5b3          	or	a1,a1,a7
    10de:	01056533          	or	a0,a0,a6
    10e2:	3ea040ef          	jal	ra,54cc <tcp_rst>
    10e6:	00d44783          	lbu	a5,13(s0)
    10ea:	00c44a83          	lbu	s5,12(s0)
    10ee:	85a2                	mv	a1,s0
    10f0:	07a2                	slli	a5,a5,0x8
    10f2:	0157e7b3          	or	a5,a5,s5
    10f6:	00e44a83          	lbu	s5,14(s0)
    10fa:	4509                	li	a0,2
    10fc:	0ac2                	slli	s5,s5,0x10
    10fe:	00fae7b3          	or	a5,s5,a5
    1102:	00f44a83          	lbu	s5,15(s0)
    1106:	0ae2                	slli	s5,s5,0x18
    1108:	00faeab3          	or	s5,s5,a5
    110c:	8456                	mv	s0,s5
    110e:	3a8050ef          	jal	ra,64b6 <memp_free>
    1112:	b4e5                	j	bfa <tcp_slowtmr+0x4c>
    1114:	8e5d                	or	a2,a2,a5
    1116:	06c2                	slli	a3,a3,0x10
    1118:	8ed1                	or	a3,a3,a2
    111a:	0762                	slli	a4,a4,0x18
    111c:	8f55                	or	a4,a4,a3
    111e:	20000797          	auipc	a5,0x20000
    1122:	d8e7a723          	sw	a4,-626(a5) # 20000eac <tcp_active_pcbs>
    1126:	bf21                	j	103e <tcp_slowtmr+0x490>
    1128:	01644503          	lbu	a0,22(s0)
    112c:	01544703          	lbu	a4,21(s0)
    1130:	85a2                	mv	a1,s0
    1132:	0522                	slli	a0,a0,0x8
    1134:	8d59                	or	a0,a0,a4
    1136:	01744703          	lbu	a4,23(s0)
    113a:	0742                	slli	a4,a4,0x10
    113c:	8f49                	or	a4,a4,a0
    113e:	01844503          	lbu	a0,24(s0)
    1142:	0562                	slli	a0,a0,0x18
    1144:	8d59                	or	a0,a0,a4
    1146:	9782                	jalr	a5
    1148:	ce050ee3          	beqz	a0,e44 <tcp_slowtmr+0x296>
    114c:	b9fd                	j	e4a <tcp_slowtmr+0x29c>
    114e:	8522                	mv	a0,s0
    1150:	20021097          	auipc	ra,0x20021
    1154:	564080e7          	jalr	1380(ra) # 200226b4 <LwipRemoveTcpPcb>
    1158:	8522                	mv	a0,s0
    115a:	3a89                	jal	aac <tcp_pcb_purge>
    115c:	00d44783          	lbu	a5,13(s0)
    1160:	00c44483          	lbu	s1,12(s0)
    1164:	85a2                	mv	a1,s0
    1166:	07a2                	slli	a5,a5,0x8
    1168:	8fc5                	or	a5,a5,s1
    116a:	00e44483          	lbu	s1,14(s0)
    116e:	4509                	li	a0,2
    1170:	04c2                	slli	s1,s1,0x10
    1172:	8fc5                	or	a5,a5,s1
    1174:	00f44483          	lbu	s1,15(s0)
    1178:	04e2                	slli	s1,s1,0x18
    117a:	8cdd                	or	s1,s1,a5
    117c:	20000797          	auipc	a5,0x20000
    1180:	d497a223          	sw	s1,-700(a5) # 20000ec0 <tcp_tw_pcbs>
    1184:	8426                	mv	s0,s1
    1186:	330050ef          	jal	ra,64b6 <memp_free>
    118a:	bcb5                	j	c06 <tcp_slowtmr+0x58>

0000118c <RemoveTimeWaiTCP>:
    118c:	2001f317          	auipc	t1,0x2001f
    1190:	ea4302e7          	jalr	t0,-348(t1) # 20020030 <__riscv_save_0>
    1194:	20000797          	auipc	a5,0x20000
    1198:	d2c78793          	addi	a5,a5,-724 # 20000ec0 <tcp_tw_pcbs>
    119c:	4380                	lw	s0,0(a5)
    119e:	e409                	bnez	s0,11a8 <RemoveTimeWaiTCP+0x1c>
    11a0:	2001f317          	auipc	t1,0x2001f
    11a4:	eb430067          	jr	-332(t1) # 20020054 <__riscv_restore_0>
    11a8:	8522                	mv	a0,s0
    11aa:	20021097          	auipc	ra,0x20021
    11ae:	50a080e7          	jalr	1290(ra) # 200226b4 <LwipRemoveTcpPcb>
    11b2:	8522                	mv	a0,s0
    11b4:	38e5                	jal	aac <tcp_pcb_purge>
    11b6:	00d44783          	lbu	a5,13(s0)
    11ba:	00c44483          	lbu	s1,12(s0)
    11be:	85a2                	mv	a1,s0
    11c0:	07a2                	slli	a5,a5,0x8
    11c2:	8fc5                	or	a5,a5,s1
    11c4:	00e44483          	lbu	s1,14(s0)
    11c8:	4509                	li	a0,2
    11ca:	04c2                	slli	s1,s1,0x10
    11cc:	8fc5                	or	a5,a5,s1
    11ce:	00f44483          	lbu	s1,15(s0)
    11d2:	04e2                	slli	s1,s1,0x18
    11d4:	8cdd                	or	s1,s1,a5
    11d6:	20000797          	auipc	a5,0x20000
    11da:	ce97a523          	sw	s1,-790(a5) # 20000ec0 <tcp_tw_pcbs>
    11de:	8426                	mv	s0,s1
    11e0:	2d6050ef          	jal	ra,64b6 <memp_free>
    11e4:	bf6d                	j	119e <RemoveTimeWaiTCP+0x12>

000011e6 <tcp_pcb_remove>:
    11e6:	2001f317          	auipc	t1,0x2001f
    11ea:	e4a302e7          	jalr	t0,-438(t1) # 20020030 <__riscv_save_0>
    11ee:	411c                	lw	a5,0(a0)
    11f0:	842e                	mv	s0,a1
    11f2:	08b79763          	bne	a5,a1,1280 <tcp_pcb_remove+0x9a>
    11f6:	00d5c703          	lbu	a4,13(a1)
    11fa:	00c5c783          	lbu	a5,12(a1)
    11fe:	0722                	slli	a4,a4,0x8
    1200:	8f5d                	or	a4,a4,a5
    1202:	00e5c783          	lbu	a5,14(a1)
    1206:	07c2                	slli	a5,a5,0x10
    1208:	8f5d                	or	a4,a4,a5
    120a:	00f5c783          	lbu	a5,15(a1)
    120e:	07e2                	slli	a5,a5,0x18
    1210:	8fd9                	or	a5,a5,a4
    1212:	c11c                	sw	a5,0(a0)
    1214:	00040623          	sb	zero,12(s0)
    1218:	000406a3          	sb	zero,13(s0)
    121c:	00040723          	sb	zero,14(s0)
    1220:	000407a3          	sb	zero,15(s0)
    1224:	8522                	mv	a0,s0
    1226:	3059                	jal	aac <tcp_pcb_purge>
    1228:	01144703          	lbu	a4,17(s0)
    122c:	01044783          	lbu	a5,16(s0)
    1230:	0722                	slli	a4,a4,0x8
    1232:	8f5d                	or	a4,a4,a5
    1234:	01244783          	lbu	a5,18(s0)
    1238:	07c2                	slli	a5,a5,0x10
    123a:	8f5d                	or	a4,a4,a5
    123c:	01344783          	lbu	a5,19(s0)
    1240:	07e2                	slli	a5,a5,0x18
    1242:	8fd9                	or	a5,a5,a4
    1244:	4729                	li	a4,10
    1246:	02e78163          	beq	a5,a4,1268 <tcp_pcb_remove+0x82>
    124a:	4705                	li	a4,1
    124c:	00e78e63          	beq	a5,a4,1268 <tcp_pcb_remove+0x82>
    1250:	02144783          	lbu	a5,33(s0)
    1254:	0017f713          	andi	a4,a5,1
    1258:	cb01                	beqz	a4,1268 <tcp_pcb_remove+0x82>
    125a:	0027e793          	ori	a5,a5,2
    125e:	02f400a3          	sb	a5,33(s0)
    1262:	8522                	mv	a0,s0
    1264:	393030ef          	jal	ra,4df6 <tcp_output>
    1268:	00040823          	sb	zero,16(s0)
    126c:	000408a3          	sb	zero,17(s0)
    1270:	00040923          	sb	zero,18(s0)
    1274:	000409a3          	sb	zero,19(s0)
    1278:	2001f317          	auipc	t1,0x2001f
    127c:	ddc30067          	jr	-548(t1) # 20020054 <__riscv_restore_0>
    1280:	20000717          	auipc	a4,0x20000
    1284:	c2f72c23          	sw	a5,-968(a4) # 20000eb8 <tcp_tmp_pcb>
    1288:	4601                	li	a2,0
    128a:	e799                	bnez	a5,1298 <tcp_pcb_remove+0xb2>
    128c:	d641                	beqz	a2,1214 <tcp_pcb_remove+0x2e>
    128e:	20000797          	auipc	a5,0x20000
    1292:	c207a523          	sw	zero,-982(a5) # 20000eb8 <tcp_tmp_pcb>
    1296:	bfbd                	j	1214 <tcp_pcb_remove+0x2e>
    1298:	00d7c683          	lbu	a3,13(a5)
    129c:	00c7c703          	lbu	a4,12(a5)
    12a0:	06a2                	slli	a3,a3,0x8
    12a2:	8ed9                	or	a3,a3,a4
    12a4:	00e7c703          	lbu	a4,14(a5)
    12a8:	0742                	slli	a4,a4,0x10
    12aa:	8ed9                	or	a3,a3,a4
    12ac:	00f7c703          	lbu	a4,15(a5)
    12b0:	0762                	slli	a4,a4,0x18
    12b2:	8f55                	or	a4,a4,a3
    12b4:	04871363          	bne	a4,s0,12fa <tcp_pcb_remove+0x114>
    12b8:	c609                	beqz	a2,12c2 <tcp_pcb_remove+0xdc>
    12ba:	20000717          	auipc	a4,0x20000
    12be:	bef72f23          	sw	a5,-1026(a4) # 20000eb8 <tcp_tmp_pcb>
    12c2:	00d44683          	lbu	a3,13(s0)
    12c6:	00c44703          	lbu	a4,12(s0)
    12ca:	06a2                	slli	a3,a3,0x8
    12cc:	8ed9                	or	a3,a3,a4
    12ce:	00e44703          	lbu	a4,14(s0)
    12d2:	0742                	slli	a4,a4,0x10
    12d4:	8ed9                	or	a3,a3,a4
    12d6:	00f44703          	lbu	a4,15(s0)
    12da:	0762                	slli	a4,a4,0x18
    12dc:	8f55                	or	a4,a4,a3
    12de:	00875693          	srli	a3,a4,0x8
    12e2:	00e78623          	sb	a4,12(a5)
    12e6:	00d786a3          	sb	a3,13(a5)
    12ea:	01075693          	srli	a3,a4,0x10
    12ee:	8361                	srli	a4,a4,0x18
    12f0:	00d78723          	sb	a3,14(a5)
    12f4:	00e787a3          	sb	a4,15(a5)
    12f8:	bf31                	j	1214 <tcp_pcb_remove+0x2e>
    12fa:	4605                	li	a2,1
    12fc:	87ba                	mv	a5,a4
    12fe:	b771                	j	128a <tcp_pcb_remove+0xa4>

00001300 <tcp_close>:
    1300:	01154703          	lbu	a4,17(a0)
    1304:	01054783          	lbu	a5,16(a0)
    1308:	0722                	slli	a4,a4,0x8
    130a:	8f5d                	or	a4,a4,a5
    130c:	01254783          	lbu	a5,18(a0)
    1310:	07c2                	slli	a5,a5,0x10
    1312:	8f5d                	or	a4,a4,a5
    1314:	01354783          	lbu	a5,19(a0)
    1318:	07e2                	slli	a5,a5,0x18
    131a:	8fd9                	or	a5,a5,a4
    131c:	471d                	li	a4,7
    131e:	14f76d63          	bltu	a4,a5,1478 <tcp_close+0x178>
    1322:	2001f317          	auipc	t1,0x2001f
    1326:	d0e302e7          	jalr	t0,-754(t1) # 20020030 <__riscv_save_0>
    132a:	20025717          	auipc	a4,0x20025
    132e:	3ee70713          	addi	a4,a4,1006 # 20026718 <ErrTable+0x74>
    1332:	078a                	slli	a5,a5,0x2
    1334:	97ba                	add	a5,a5,a4
    1336:	439c                	lw	a5,0(a5)
    1338:	842a                	mv	s0,a0
    133a:	97ba                	add	a5,a5,a4
    133c:	8782                	jr	a5
    133e:	20021097          	auipc	ra,0x20021
    1342:	376080e7          	jalr	886(ra) # 200226b4 <LwipRemoveTcpPcb>
    1346:	20000797          	auipc	a5,0x20000
    134a:	b7678793          	addi	a5,a5,-1162 # 20000ebc <tcp_bound_pcbs>
    134e:	439c                	lw	a5,0(a5)
    1350:	02879f63          	bne	a5,s0,138e <tcp_close+0x8e>
    1354:	00d44703          	lbu	a4,13(s0)
    1358:	00c44783          	lbu	a5,12(s0)
    135c:	0722                	slli	a4,a4,0x8
    135e:	8f5d                	or	a4,a4,a5
    1360:	00e44783          	lbu	a5,14(s0)
    1364:	07c2                	slli	a5,a5,0x10
    1366:	8f5d                	or	a4,a4,a5
    1368:	00f44783          	lbu	a5,15(s0)
    136c:	07e2                	slli	a5,a5,0x18
    136e:	8fd9                	or	a5,a5,a4
    1370:	20000717          	auipc	a4,0x20000
    1374:	b4f72623          	sw	a5,-1204(a4) # 20000ebc <tcp_bound_pcbs>
    1378:	00040623          	sb	zero,12(s0)
    137c:	000406a3          	sb	zero,13(s0)
    1380:	00040723          	sb	zero,14(s0)
    1384:	000407a3          	sb	zero,15(s0)
    1388:	85a2                	mv	a1,s0
    138a:	4509                	li	a0,2
    138c:	a869                	j	1426 <tcp_close+0x126>
    138e:	20000717          	auipc	a4,0x20000
    1392:	b2f72523          	sw	a5,-1238(a4) # 20000eb8 <tcp_tmp_pcb>
    1396:	4601                	li	a2,0
    1398:	e799                	bnez	a5,13a6 <tcp_close+0xa6>
    139a:	de79                	beqz	a2,1378 <tcp_close+0x78>
    139c:	20000797          	auipc	a5,0x20000
    13a0:	b007ae23          	sw	zero,-1252(a5) # 20000eb8 <tcp_tmp_pcb>
    13a4:	bfd1                	j	1378 <tcp_close+0x78>
    13a6:	00d7c683          	lbu	a3,13(a5)
    13aa:	00c7c703          	lbu	a4,12(a5)
    13ae:	06a2                	slli	a3,a3,0x8
    13b0:	8ed9                	or	a3,a3,a4
    13b2:	00e7c703          	lbu	a4,14(a5)
    13b6:	0742                	slli	a4,a4,0x10
    13b8:	8ed9                	or	a3,a3,a4
    13ba:	00f7c703          	lbu	a4,15(a5)
    13be:	0762                	slli	a4,a4,0x18
    13c0:	8f55                	or	a4,a4,a3
    13c2:	04871363          	bne	a4,s0,1408 <tcp_close+0x108>
    13c6:	c609                	beqz	a2,13d0 <tcp_close+0xd0>
    13c8:	20000717          	auipc	a4,0x20000
    13cc:	aef72823          	sw	a5,-1296(a4) # 20000eb8 <tcp_tmp_pcb>
    13d0:	00d44683          	lbu	a3,13(s0)
    13d4:	00c44703          	lbu	a4,12(s0)
    13d8:	06a2                	slli	a3,a3,0x8
    13da:	8ed9                	or	a3,a3,a4
    13dc:	00e44703          	lbu	a4,14(s0)
    13e0:	0742                	slli	a4,a4,0x10
    13e2:	8ed9                	or	a3,a3,a4
    13e4:	00f44703          	lbu	a4,15(s0)
    13e8:	0762                	slli	a4,a4,0x18
    13ea:	8f55                	or	a4,a4,a3
    13ec:	00875693          	srli	a3,a4,0x8
    13f0:	00e78623          	sb	a4,12(a5)
    13f4:	00d786a3          	sb	a3,13(a5)
    13f8:	01075693          	srli	a3,a4,0x10
    13fc:	8361                	srli	a4,a4,0x18
    13fe:	00d78723          	sb	a3,14(a5)
    1402:	00e787a3          	sb	a4,15(a5)
    1406:	bf8d                	j	1378 <tcp_close+0x78>
    1408:	4605                	li	a2,1
    140a:	87ba                	mv	a5,a4
    140c:	b771                	j	1398 <tcp_close+0x98>
    140e:	20021097          	auipc	ra,0x20021
    1412:	2a6080e7          	jalr	678(ra) # 200226b4 <LwipRemoveTcpPcb>
    1416:	85a2                	mv	a1,s0
    1418:	20000517          	auipc	a0,0x20000
    141c:	a9c50513          	addi	a0,a0,-1380 # 20000eb4 <tcp_listen_pcbs>
    1420:	33d9                	jal	11e6 <tcp_pcb_remove>
    1422:	85a2                	mv	a1,s0
    1424:	450d                	li	a0,3
    1426:	090050ef          	jal	ra,64b6 <memp_free>
    142a:	4501                	li	a0,0
    142c:	a00d                	j	144e <tcp_close+0x14e>
    142e:	20021097          	auipc	ra,0x20021
    1432:	286080e7          	jalr	646(ra) # 200226b4 <LwipRemoveTcpPcb>
    1436:	85a2                	mv	a1,s0
    1438:	20000517          	auipc	a0,0x20000
    143c:	a7450513          	addi	a0,a0,-1420 # 20000eac <tcp_active_pcbs>
    1440:	335d                	jal	11e6 <tcp_pcb_remove>
    1442:	b799                	j	1388 <tcp_close+0x88>
    1444:	4585                	li	a1,1
    1446:	0c9030ef          	jal	ra,4d0e <tcp_send_ctrl>
    144a:	4795                	li	a5,5
    144c:	c911                	beqz	a0,1460 <tcp_close+0x160>
    144e:	2001f317          	auipc	t1,0x2001f
    1452:	c0630067          	jr	-1018(t1) # 20020054 <__riscv_restore_0>
    1456:	4585                	li	a1,1
    1458:	0b7030ef          	jal	ra,4d0e <tcp_send_ctrl>
    145c:	f96d                	bnez	a0,144e <tcp_close+0x14e>
    145e:	47a5                	li	a5,9
    1460:	00f40823          	sb	a5,16(s0)
    1464:	000408a3          	sb	zero,17(s0)
    1468:	00040923          	sb	zero,18(s0)
    146c:	000409a3          	sb	zero,19(s0)
    1470:	8522                	mv	a0,s0
    1472:	185030ef          	jal	ra,4df6 <tcp_output>
    1476:	bf55                	j	142a <tcp_close+0x12a>
    1478:	4501                	li	a0,0
    147a:	8082                	ret

0000147c <tcp_recv_null>:
    147c:	2001f317          	auipc	t1,0x2001f
    1480:	bb4302e7          	jalr	t0,-1100(t1) # 20020030 <__riscv_save_0>
    1484:	1141                	addi	sp,sp,-16
    1486:	852e                	mv	a0,a1
    1488:	c60d                	beqz	a2,14b2 <tcp_recv_null+0x36>
    148a:	00964783          	lbu	a5,9(a2)
    148e:	00864583          	lbu	a1,8(a2)
    1492:	c632                	sw	a2,12(sp)
    1494:	07a2                	slli	a5,a5,0x8
    1496:	8ddd                	or	a1,a1,a5
    1498:	c8eff0ef          	jal	ra,926 <tcp_recved>
    149c:	4632                	lw	a2,12(sp)
    149e:	8532                	mv	a0,a2
    14a0:	48f050ef          	jal	ra,712e <pbuf_free>
    14a4:	4781                	li	a5,0
    14a6:	853e                	mv	a0,a5
    14a8:	0141                	addi	sp,sp,16
    14aa:	2001f317          	auipc	t1,0x2001f
    14ae:	baa30067          	jr	-1110(t1) # 20020054 <__riscv_restore_0>
    14b2:	4781                	li	a5,0
    14b4:	faed                	bnez	a3,14a6 <tcp_recv_null+0x2a>
    14b6:	35a9                	jal	1300 <tcp_close>
    14b8:	87aa                	mv	a5,a0
    14ba:	b7f5                	j	14a6 <tcp_recv_null+0x2a>

000014bc <tcp_fasttmr>:
    14bc:	2001f317          	auipc	t1,0x2001f
    14c0:	b74302e7          	jalr	t0,-1164(t1) # 20020030 <__riscv_save_0>
    14c4:	20000797          	auipc	a5,0x20000
    14c8:	9e878793          	addi	a5,a5,-1560 # 20000eac <tcp_active_pcbs>
    14cc:	4380                	lw	s0,0(a5)
    14ce:	06500493          	li	s1,101
    14d2:	c449                	beqz	s0,155c <tcp_fasttmr+0xa0>
    14d4:	07544783          	lbu	a5,117(s0)
    14d8:	07444603          	lbu	a2,116(s0)
    14dc:	07a2                	slli	a5,a5,0x8
    14de:	8fd1                	or	a5,a5,a2
    14e0:	07644603          	lbu	a2,118(s0)
    14e4:	0642                	slli	a2,a2,0x10
    14e6:	8fd1                	or	a5,a5,a2
    14e8:	07744603          	lbu	a2,119(s0)
    14ec:	0662                	slli	a2,a2,0x18
    14ee:	8e5d                	or	a2,a2,a5
    14f0:	ca31                	beqz	a2,1544 <tcp_fasttmr+0x88>
    14f2:	07d44703          	lbu	a4,125(s0)
    14f6:	07c44783          	lbu	a5,124(s0)
    14fa:	0722                	slli	a4,a4,0x8
    14fc:	8f5d                	or	a4,a4,a5
    14fe:	07e44783          	lbu	a5,126(s0)
    1502:	07c2                	slli	a5,a5,0x10
    1504:	8f5d                	or	a4,a4,a5
    1506:	07f44783          	lbu	a5,127(s0)
    150a:	07e2                	slli	a5,a5,0x18
    150c:	8fd9                	or	a5,a5,a4
    150e:	cbb9                	beqz	a5,1564 <tcp_fasttmr+0xa8>
    1510:	01644503          	lbu	a0,22(s0)
    1514:	01544703          	lbu	a4,21(s0)
    1518:	4681                	li	a3,0
    151a:	0522                	slli	a0,a0,0x8
    151c:	8d59                	or	a0,a0,a4
    151e:	01744703          	lbu	a4,23(s0)
    1522:	85a2                	mv	a1,s0
    1524:	0742                	slli	a4,a4,0x10
    1526:	8f49                	or	a4,a4,a0
    1528:	01844503          	lbu	a0,24(s0)
    152c:	0562                	slli	a0,a0,0x18
    152e:	8d59                	or	a0,a0,a4
    1530:	9782                	jalr	a5
    1532:	e909                	bnez	a0,1544 <tcp_fasttmr+0x88>
    1534:	06040a23          	sb	zero,116(s0)
    1538:	06040aa3          	sb	zero,117(s0)
    153c:	06040b23          	sb	zero,118(s0)
    1540:	06040ba3          	sb	zero,119(s0)
    1544:	14fd                	addi	s1,s1,-1
    1546:	0ff4f493          	andi	s1,s1,255
    154a:	e095                	bnez	s1,156e <tcp_fasttmr+0xb2>
    154c:	20025517          	auipc	a0,0x20025
    1550:	20050513          	addi	a0,a0,512 # 2002674c <tcp_backoff+0x14>
    1554:	20024097          	auipc	ra,0x20024
    1558:	84a080e7          	jalr	-1974(ra) # 20024d9e <puts>
    155c:	2001f317          	auipc	t1,0x2001f
    1560:	af830067          	jr	-1288(t1) # 20020054 <__riscv_restore_0>
    1564:	4681                	li	a3,0
    1566:	85a2                	mv	a1,s0
    1568:	4501                	li	a0,0
    156a:	3f09                	jal	147c <tcp_recv_null>
    156c:	b7d9                	j	1532 <tcp_fasttmr+0x76>
    156e:	02144783          	lbu	a5,33(s0)
    1572:	0017f713          	andi	a4,a5,1
    1576:	cf09                	beqz	a4,1590 <tcp_fasttmr+0xd4>
    1578:	0027e793          	ori	a5,a5,2
    157c:	02f400a3          	sb	a5,33(s0)
    1580:	8522                	mv	a0,s0
    1582:	075030ef          	jal	ra,4df6 <tcp_output>
    1586:	02144783          	lbu	a5,33(s0)
    158a:	9bf1                	andi	a5,a5,-4
    158c:	02f400a3          	sb	a5,33(s0)
    1590:	00d44783          	lbu	a5,13(s0)
    1594:	00c44703          	lbu	a4,12(s0)
    1598:	07a2                	slli	a5,a5,0x8
    159a:	8f5d                	or	a4,a4,a5
    159c:	00e44783          	lbu	a5,14(s0)
    15a0:	00f44403          	lbu	s0,15(s0)
    15a4:	07c2                	slli	a5,a5,0x10
    15a6:	8fd9                	or	a5,a5,a4
    15a8:	0462                	slli	s0,s0,0x18
    15aa:	8c5d                	or	s0,s0,a5
    15ac:	b71d                	j	14d2 <tcp_fasttmr+0x16>

000015ae <tcp_tmr>:
    15ae:	2001f317          	auipc	t1,0x2001f
    15b2:	a82302e7          	jalr	t0,-1406(t1) # 20020030 <__riscv_save_0>
    15b6:	3719                	jal	14bc <tcp_fasttmr>
    15b8:	1ffff797          	auipc	a5,0x1ffff
    15bc:	b347c783          	lbu	a5,-1228(a5) # 200000ec <tcp_timer>
    15c0:	0785                	addi	a5,a5,1
    15c2:	0ff7f793          	andi	a5,a5,255
    15c6:	1ffff717          	auipc	a4,0x1ffff
    15ca:	b2f70323          	sb	a5,-1242(a4) # 200000ec <tcp_timer>
    15ce:	8b85                	andi	a5,a5,1
    15d0:	c399                	beqz	a5,15d6 <tcp_tmr+0x28>
    15d2:	ddcff0ef          	jal	ra,bae <tcp_slowtmr>
    15d6:	2001f317          	auipc	t1,0x2001f
    15da:	a7e30067          	jr	-1410(t1) # 20020054 <__riscv_restore_0>

000015de <tcp_abandon>:
    15de:	2001f317          	auipc	t1,0x2001f
    15e2:	a2a302e7          	jalr	t0,-1494(t1) # 20020008 <__riscv_save_10>
    15e6:	01154703          	lbu	a4,17(a0)
    15ea:	01054783          	lbu	a5,16(a0)
    15ee:	1141                	addi	sp,sp,-16
    15f0:	0722                	slli	a4,a4,0x8
    15f2:	8f5d                	or	a4,a4,a5
    15f4:	01254783          	lbu	a5,18(a0)
    15f8:	842a                	mv	s0,a0
    15fa:	07c2                	slli	a5,a5,0x10
    15fc:	8f5d                	or	a4,a4,a5
    15fe:	01354783          	lbu	a5,19(a0)
    1602:	07e2                	slli	a5,a5,0x18
    1604:	8fd9                	or	a5,a5,a4
    1606:	4729                	li	a4,10
    1608:	02e79163          	bne	a5,a4,162a <tcp_abandon+0x4c>
    160c:	85aa                	mv	a1,a0
    160e:	20000517          	auipc	a0,0x20000
    1612:	8b250513          	addi	a0,a0,-1870 # 20000ec0 <tcp_tw_pcbs>
    1616:	3ec1                	jal	11e6 <tcp_pcb_remove>
    1618:	85a2                	mv	a1,s0
    161a:	4509                	li	a0,2
    161c:	69b040ef          	jal	ra,64b6 <memp_free>
    1620:	0141                	addi	sp,sp,16
    1622:	2001f317          	auipc	t1,0x2001f
    1626:	a1e30067          	jr	-1506(t1) # 20020040 <__riscv_restore_10>
    162a:	05154783          	lbu	a5,81(a0)
    162e:	05054903          	lbu	s2,80(a0)
    1632:	02254983          	lbu	s3,34(a0)
    1636:	07a2                	slli	a5,a5,0x8
    1638:	0127e7b3          	or	a5,a5,s2
    163c:	05254903          	lbu	s2,82(a0)
    1640:	00154703          	lbu	a4,1(a0)
    1644:	8bae                	mv	s7,a1
    1646:	0942                	slli	s2,s2,0x10
    1648:	00f967b3          	or	a5,s2,a5
    164c:	05354903          	lbu	s2,83(a0)
    1650:	0722                	slli	a4,a4,0x8
    1652:	0962                	slli	s2,s2,0x18
    1654:	00f96933          	or	s2,s2,a5
    1658:	02354783          	lbu	a5,35(a0)
    165c:	07a2                	slli	a5,a5,0x8
    165e:	0137e7b3          	or	a5,a5,s3
    1662:	02454983          	lbu	s3,36(a0)
    1666:	09c2                	slli	s3,s3,0x10
    1668:	00f9e7b3          	or	a5,s3,a5
    166c:	02554983          	lbu	s3,37(a0)
    1670:	09e2                	slli	s3,s3,0x18
    1672:	00f9e9b3          	or	s3,s3,a5
    1676:	00054783          	lbu	a5,0(a0)
    167a:	8f5d                	or	a4,a4,a5
    167c:	00254783          	lbu	a5,2(a0)
    1680:	07c2                	slli	a5,a5,0x10
    1682:	8f5d                	or	a4,a4,a5
    1684:	00354783          	lbu	a5,3(a0)
    1688:	07e2                	slli	a5,a5,0x18
    168a:	8fd9                	or	a5,a5,a4
    168c:	c63e                	sw	a5,12(sp)
    168e:	00554703          	lbu	a4,5(a0)
    1692:	00454783          	lbu	a5,4(a0)
    1696:	0722                	slli	a4,a4,0x8
    1698:	8f5d                	or	a4,a4,a5
    169a:	00654783          	lbu	a5,6(a0)
    169e:	07c2                	slli	a5,a5,0x10
    16a0:	8f5d                	or	a4,a4,a5
    16a2:	00754783          	lbu	a5,7(a0)
    16a6:	07e2                	slli	a5,a5,0x18
    16a8:	8fd9                	or	a5,a5,a4
    16aa:	c43e                	sw	a5,8(sp)
    16ac:	01a54a03          	lbu	s4,26(a0)
    16b0:	01954783          	lbu	a5,25(a0)
    16b4:	02054a83          	lbu	s5,32(a0)
    16b8:	0a22                	slli	s4,s4,0x8
    16ba:	00fa6a33          	or	s4,s4,a5
    16be:	01f54783          	lbu	a5,31(a0)
    16c2:	0aa2                	slli	s5,s5,0x8
    16c4:	08854483          	lbu	s1,136(a0)
    16c8:	00faeab3          	or	s5,s5,a5
    16cc:	08954783          	lbu	a5,137(a0)
    16d0:	01554b03          	lbu	s6,21(a0)
    16d4:	07a2                	slli	a5,a5,0x8
    16d6:	8fc5                	or	a5,a5,s1
    16d8:	08a54483          	lbu	s1,138(a0)
    16dc:	04c2                	slli	s1,s1,0x10
    16de:	8fc5                	or	a5,a5,s1
    16e0:	08b54483          	lbu	s1,139(a0)
    16e4:	04e2                	slli	s1,s1,0x18
    16e6:	8cdd                	or	s1,s1,a5
    16e8:	01654783          	lbu	a5,22(a0)
    16ec:	07a2                	slli	a5,a5,0x8
    16ee:	0167e7b3          	or	a5,a5,s6
    16f2:	01754b03          	lbu	s6,23(a0)
    16f6:	0b42                	slli	s6,s6,0x10
    16f8:	00fb67b3          	or	a5,s6,a5
    16fc:	01854b03          	lbu	s6,24(a0)
    1700:	0b62                	slli	s6,s6,0x18
    1702:	00fb6b33          	or	s6,s6,a5
    1706:	20021097          	auipc	ra,0x20021
    170a:	fae080e7          	jalr	-82(ra) # 200226b4 <LwipRemoveTcpPcb>
    170e:	1ffff517          	auipc	a0,0x1ffff
    1712:	79e50513          	addi	a0,a0,1950 # 20000eac <tcp_active_pcbs>
    1716:	85a2                	mv	a1,s0
    1718:	34f9                	jal	11e6 <tcp_pcb_remove>
    171a:	06d44783          	lbu	a5,109(s0)
    171e:	06c44503          	lbu	a0,108(s0)
    1722:	07a2                	slli	a5,a5,0x8
    1724:	8fc9                	or	a5,a5,a0
    1726:	06e44503          	lbu	a0,110(s0)
    172a:	0542                	slli	a0,a0,0x10
    172c:	8fc9                	or	a5,a5,a0
    172e:	06f44503          	lbu	a0,111(s0)
    1732:	0562                	slli	a0,a0,0x18
    1734:	8d5d                	or	a0,a0,a5
    1736:	c119                	beqz	a0,173c <tcp_abandon+0x15e>
    1738:	a8cff0ef          	jal	ra,9c4 <tcp_segs_free>
    173c:	06944783          	lbu	a5,105(s0)
    1740:	06844503          	lbu	a0,104(s0)
    1744:	07a2                	slli	a5,a5,0x8
    1746:	8fc9                	or	a5,a5,a0
    1748:	06a44503          	lbu	a0,106(s0)
    174c:	0542                	slli	a0,a0,0x10
    174e:	8fc9                	or	a5,a5,a0
    1750:	06b44503          	lbu	a0,107(s0)
    1754:	0562                	slli	a0,a0,0x18
    1756:	8d5d                	or	a0,a0,a5
    1758:	c119                	beqz	a0,175e <tcp_abandon+0x180>
    175a:	a6aff0ef          	jal	ra,9c4 <tcp_segs_free>
    175e:	07144783          	lbu	a5,113(s0)
    1762:	07044503          	lbu	a0,112(s0)
    1766:	07a2                	slli	a5,a5,0x8
    1768:	8fc9                	or	a5,a5,a0
    176a:	07244503          	lbu	a0,114(s0)
    176e:	0542                	slli	a0,a0,0x10
    1770:	8fc9                	or	a5,a5,a0
    1772:	07344503          	lbu	a0,115(s0)
    1776:	0562                	slli	a0,a0,0x18
    1778:	8d5d                	or	a0,a0,a5
    177a:	c119                	beqz	a0,1780 <tcp_abandon+0x1a2>
    177c:	a48ff0ef          	jal	ra,9c4 <tcp_segs_free>
    1780:	85a2                	mv	a1,s0
    1782:	4509                	li	a0,2
    1784:	533040ef          	jal	ra,64b6 <memp_free>
    1788:	c481                	beqz	s1,1790 <tcp_abandon+0x1b2>
    178a:	55ed                	li	a1,-5
    178c:	855a                	mv	a0,s6
    178e:	9482                	jalr	s1
    1790:	e80b88e3          	beqz	s7,1620 <tcp_abandon+0x42>
    1794:	87d6                	mv	a5,s5
    1796:	8752                	mv	a4,s4
    1798:	0034                	addi	a3,sp,8
    179a:	0070                	addi	a2,sp,12
    179c:	85ce                	mv	a1,s3
    179e:	854a                	mv	a0,s2
    17a0:	52d030ef          	jal	ra,54cc <tcp_rst>
    17a4:	bdb5                	j	1620 <tcp_abandon+0x42>

000017a6 <tcp_next_iss>:
    17a6:	1ffff797          	auipc	a5,0x1ffff
    17aa:	8d678793          	addi	a5,a5,-1834 # 2000007c <iss.3741>
    17ae:	1ffff717          	auipc	a4,0x1ffff
    17b2:	70270713          	addi	a4,a4,1794 # 20000eb0 <tcp_ticks>
    17b6:	4388                	lw	a0,0(a5)
    17b8:	4318                	lw	a4,0(a4)
    17ba:	953a                	add	a0,a0,a4
    17bc:	c388                	sw	a0,0(a5)
    17be:	8082                	ret

000017c0 <tcp_alloc>:
    17c0:	2001f317          	auipc	t1,0x2001f
    17c4:	856302e7          	jalr	t0,-1962(t1) # 20020016 <__riscv_save_4>
    17c8:	892a                	mv	s2,a0
    17ca:	4509                	li	a0,2
    17cc:	4cb040ef          	jal	ra,6496 <memp_malloc>
    17d0:	1ffff497          	auipc	s1,0x1ffff
    17d4:	5fc48493          	addi	s1,s1,1532 # 20000dcc <CH569Cfg>
    17d8:	842a                	mv	s0,a0
    17da:	e92d                	bnez	a0,184c <tcp_alloc+0x8c>
    17dc:	489c                	lw	a5,16(s1)
    17de:	8b91                	andi	a5,a5,4
    17e0:	e799                	bnez	a5,17ee <tcp_alloc+0x2e>
    17e2:	4401                	li	s0,0
    17e4:	8522                	mv	a0,s0
    17e6:	2001f317          	auipc	t1,0x2001f
    17ea:	86430067          	jr	-1948(t1) # 2002004a <__riscv_restore_4>
    17ee:	1ffff797          	auipc	a5,0x1ffff
    17f2:	6d278793          	addi	a5,a5,1746 # 20000ec0 <tcp_tw_pcbs>
    17f6:	1ffff997          	auipc	s3,0x1ffff
    17fa:	6ba98993          	addi	s3,s3,1722 # 20000eb0 <tcp_ticks>
    17fe:	439c                	lw	a5,0(a5)
    1800:	0009a583          	lw	a1,0(s3)
    1804:	4501                	li	a0,0
    1806:	4601                	li	a2,0
    1808:	1a079163          	bnez	a5,19aa <tcp_alloc+0x1ea>
    180c:	c119                	beqz	a0,1812 <tcp_alloc+0x52>
    180e:	4585                	li	a1,1
    1810:	33f9                	jal	15de <tcp_abandon>
    1812:	4509                	li	a0,2
    1814:	483040ef          	jal	ra,6496 <memp_malloc>
    1818:	842a                	mv	s0,a0
    181a:	e90d                	bnez	a0,184c <tcp_alloc+0x8c>
    181c:	1ffff797          	auipc	a5,0x1ffff
    1820:	69078793          	addi	a5,a5,1680 # 20000eac <tcp_active_pcbs>
    1824:	439c                	lw	a5,0(a5)
    1826:	0009a803          	lw	a6,0(s3)
    182a:	197d                	addi	s2,s2,-1
    182c:	0ff97913          	andi	s2,s2,255
    1830:	07f00593          	li	a1,127
    1834:	4501                	li	a0,0
    1836:	1a079d63          	bnez	a5,19f0 <tcp_alloc+0x230>
    183a:	c401                	beqz	s0,1842 <tcp_alloc+0x82>
    183c:	4585                	li	a1,1
    183e:	8522                	mv	a0,s0
    1840:	3b79                	jal	15de <tcp_abandon>
    1842:	4509                	li	a0,2
    1844:	453040ef          	jal	ra,6496 <memp_malloc>
    1848:	842a                	mv	s0,a0
    184a:	dd41                	beqz	a0,17e2 <tcp_alloc+0x22>
    184c:	09600613          	li	a2,150
    1850:	4581                	li	a1,0
    1852:	8522                	mv	a0,s0
    1854:	2001f097          	auipc	ra,0x2001f
    1858:	80c080e7          	jalr	-2036(ra) # 20020060 <memset>
    185c:	04000793          	li	a5,64
    1860:	00f40a23          	sb	a5,20(s0)
    1864:	02000793          	li	a5,32
    1868:	06f402a3          	sb	a5,101(s0)
    186c:	40dc                	lw	a5,4(s1)
    186e:	00040523          	sb	zero,10(s0)
    1872:	01079713          	slli	a4,a5,0x10
    1876:	8341                	srli	a4,a4,0x10
    1878:	0ff77693          	andi	a3,a4,255
    187c:	8321                	srli	a4,a4,0x8
    187e:	02e403a3          	sb	a4,39(s0)
    1882:	02e404a3          	sb	a4,41(s0)
    1886:	f8000713          	li	a4,-128
    188a:	00e405a3          	sb	a4,11(s0)
    188e:	02d40323          	sb	a3,38(s0)
    1892:	02d40423          	sb	a3,40(s0)
    1896:	21800713          	li	a4,536
    189a:	00f77463          	bgeu	a4,a5,18a2 <tcp_alloc+0xe2>
    189e:	21800793          	li	a5,536
    18a2:	07c2                	slli	a5,a5,0x10
    18a4:	83c1                	srli	a5,a5,0x10
    18a6:	02f40b23          	sb	a5,54(s0)
    18aa:	83a1                	srli	a5,a5,0x8
    18ac:	02f40ba3          	sb	a5,55(s0)
    18b0:	4799                	li	a5,6
    18b2:	04f40223          	sb	a5,68(s0)
    18b6:	04f40123          	sb	a5,66(s0)
    18ba:	57fd                	li	a5,-1
    18bc:	02f40a23          	sb	a5,52(s0)
    18c0:	02f40aa3          	sb	a5,53(s0)
    18c4:	4785                	li	a5,1
    18c6:	04f40623          	sb	a5,76(s0)
    18ca:	040402a3          	sb	zero,69(s0)
    18ce:	04040023          	sb	zero,64(s0)
    18d2:	040400a3          	sb	zero,65(s0)
    18d6:	040401a3          	sb	zero,67(s0)
    18da:	040406a3          	sb	zero,77(s0)
    18de:	35e1                	jal	17a6 <tcp_next_iss>
    18e0:	01055793          	srli	a5,a0,0x10
    18e4:	0ff7f793          	andi	a5,a5,255
    18e8:	04f40e23          	sb	a5,92(s0)
    18ec:	04f40923          	sb	a5,82(s0)
    18f0:	04f404a3          	sb	a5,73(s0)
    18f4:	06f40023          	sb	a5,96(s0)
    18f8:	1ffff797          	auipc	a5,0x1ffff
    18fc:	5b878793          	addi	a5,a5,1464 # 20000eb0 <tcp_ticks>
    1900:	439c                	lw	a5,0(a5)
    1902:	00855713          	srli	a4,a0,0x8
    1906:	0ff77713          	andi	a4,a4,255
    190a:	04e40da3          	sb	a4,91(s0)
    190e:	04e408a3          	sb	a4,81(s0)
    1912:	04e40423          	sb	a4,72(s0)
    1916:	04e40fa3          	sb	a4,95(s0)
    191a:	0087d713          	srli	a4,a5,0x8
    191e:	02f40723          	sb	a5,46(s0)
    1922:	02e407a3          	sb	a4,47(s0)
    1926:	0107d713          	srli	a4,a5,0x10
    192a:	83e1                	srli	a5,a5,0x18
    192c:	02f408a3          	sb	a5,49(s0)
    1930:	00000797          	auipc	a5,0x0
    1934:	b4c78793          	addi	a5,a5,-1204 # 147c <tcp_recv_null>
    1938:	02e40823          	sb	a4,48(s0)
    193c:	0087d713          	srli	a4,a5,0x8
    1940:	06f40e23          	sb	a5,124(s0)
    1944:	06e40ea3          	sb	a4,125(s0)
    1948:	0107d713          	srli	a4,a5,0x10
    194c:	83e1                	srli	a5,a5,0x18
    194e:	06f40fa3          	sb	a5,127(s0)
    1952:	1ffff797          	auipc	a5,0x1ffff
    1956:	4aa78793          	addi	a5,a5,1194 # 20000dfc <KeepLiveCfg>
    195a:	439c                	lw	a5,0(a5)
    195c:	06e40f23          	sb	a4,126(s0)
    1960:	0ff57693          	andi	a3,a0,255
    1964:	0087d713          	srli	a4,a5,0x8
    1968:	8161                	srli	a0,a0,0x18
    196a:	08f40623          	sb	a5,140(s0)
    196e:	08e406a3          	sb	a4,141(s0)
    1972:	0107d713          	srli	a4,a5,0x10
    1976:	83e1                	srli	a5,a5,0x18
    1978:	04d40d23          	sb	a3,90(s0)
    197c:	04a40ea3          	sb	a0,93(s0)
    1980:	04d40823          	sb	a3,80(s0)
    1984:	04a409a3          	sb	a0,83(s0)
    1988:	04d403a3          	sb	a3,71(s0)
    198c:	04a40523          	sb	a0,74(s0)
    1990:	04d40f23          	sb	a3,94(s0)
    1994:	06a400a3          	sb	a0,97(s0)
    1998:	02040923          	sb	zero,50(s0)
    199c:	08e40723          	sb	a4,142(s0)
    19a0:	08f407a3          	sb	a5,143(s0)
    19a4:	08040aa3          	sb	zero,149(s0)
    19a8:	bd35                	j	17e4 <tcp_alloc+0x24>
    19aa:	02f7c683          	lbu	a3,47(a5)
    19ae:	02e7c703          	lbu	a4,46(a5)
    19b2:	06a2                	slli	a3,a3,0x8
    19b4:	8ed9                	or	a3,a3,a4
    19b6:	0307c703          	lbu	a4,48(a5)
    19ba:	0742                	slli	a4,a4,0x10
    19bc:	8ed9                	or	a3,a3,a4
    19be:	0317c703          	lbu	a4,49(a5)
    19c2:	0762                	slli	a4,a4,0x18
    19c4:	8f55                	or	a4,a4,a3
    19c6:	40e58733          	sub	a4,a1,a4
    19ca:	00c76463          	bltu	a4,a2,19d2 <tcp_alloc+0x212>
    19ce:	863a                	mv	a2,a4
    19d0:	853e                	mv	a0,a5
    19d2:	00d7c703          	lbu	a4,13(a5)
    19d6:	00c7c683          	lbu	a3,12(a5)
    19da:	0722                	slli	a4,a4,0x8
    19dc:	8ed9                	or	a3,a3,a4
    19de:	00e7c703          	lbu	a4,14(a5)
    19e2:	00f7c783          	lbu	a5,15(a5)
    19e6:	0742                	slli	a4,a4,0x10
    19e8:	8f55                	or	a4,a4,a3
    19ea:	07e2                	slli	a5,a5,0x18
    19ec:	8fd9                	or	a5,a5,a4
    19ee:	bd29                	j	1808 <tcp_alloc+0x48>
    19f0:	0147c603          	lbu	a2,20(a5)
    19f4:	02c96963          	bltu	s2,a2,1a26 <tcp_alloc+0x266>
    19f8:	02c5e763          	bltu	a1,a2,1a26 <tcp_alloc+0x266>
    19fc:	02f7c683          	lbu	a3,47(a5)
    1a00:	02e7c703          	lbu	a4,46(a5)
    1a04:	06a2                	slli	a3,a3,0x8
    1a06:	8ed9                	or	a3,a3,a4
    1a08:	0307c703          	lbu	a4,48(a5)
    1a0c:	0742                	slli	a4,a4,0x10
    1a0e:	8ed9                	or	a3,a3,a4
    1a10:	0317c703          	lbu	a4,49(a5)
    1a14:	0762                	slli	a4,a4,0x18
    1a16:	8f55                	or	a4,a4,a3
    1a18:	40e80733          	sub	a4,a6,a4
    1a1c:	00a76563          	bltu	a4,a0,1a26 <tcp_alloc+0x266>
    1a20:	85b2                	mv	a1,a2
    1a22:	853a                	mv	a0,a4
    1a24:	843e                	mv	s0,a5
    1a26:	00d7c703          	lbu	a4,13(a5)
    1a2a:	00c7c683          	lbu	a3,12(a5)
    1a2e:	0722                	slli	a4,a4,0x8
    1a30:	8ed9                	or	a3,a3,a4
    1a32:	00e7c703          	lbu	a4,14(a5)
    1a36:	00f7c783          	lbu	a5,15(a5)
    1a3a:	0742                	slli	a4,a4,0x10
    1a3c:	8f55                	or	a4,a4,a3
    1a3e:	07e2                	slli	a5,a5,0x18
    1a40:	8fd9                	or	a5,a5,a4
    1a42:	bbd5                	j	1836 <tcp_alloc+0x76>

00001a44 <tcp_new>:
    1a44:	2001e317          	auipc	t1,0x2001e
    1a48:	5ec302e7          	jalr	t0,1516(t1) # 20020030 <__riscv_save_0>
    1a4c:	04000513          	li	a0,64
    1a50:	3b85                	jal	17c0 <tcp_alloc>
    1a52:	2001e317          	auipc	t1,0x2001e
    1a56:	60230067          	jr	1538(t1) # 20020054 <__riscv_restore_0>

00001a5a <tcp_eff_send_mss>:
    1a5a:	2001e317          	auipc	t1,0x2001e
    1a5e:	5d6302e7          	jalr	t0,1494(t1) # 20020030 <__riscv_save_0>
    1a62:	842a                	mv	s0,a0
    1a64:	852e                	mv	a0,a1
    1a66:	791030ef          	jal	ra,59f6 <ip_route>
    1a6a:	cd19                	beqz	a0,1a88 <tcp_eff_send_mss+0x2e>
    1a6c:	02455783          	lhu	a5,36(a0)
    1a70:	cf81                	beqz	a5,1a88 <tcp_eff_send_mss+0x2e>
    1a72:	fd878793          	addi	a5,a5,-40
    1a76:	873e                	mv	a4,a5
    1a78:	07c2                	slli	a5,a5,0x10
    1a7a:	83c1                	srli	a5,a5,0x10
    1a7c:	00f47363          	bgeu	s0,a5,1a82 <tcp_eff_send_mss+0x28>
    1a80:	8722                	mv	a4,s0
    1a82:	01071413          	slli	s0,a4,0x10
    1a86:	8041                	srli	s0,s0,0x10
    1a88:	8522                	mv	a0,s0
    1a8a:	2001e317          	auipc	t1,0x2001e
    1a8e:	5ca30067          	jr	1482(t1) # 20020054 <__riscv_restore_0>

00001a92 <tcp_connect>:
    1a92:	2001e317          	auipc	t1,0x2001e
    1a96:	584302e7          	jalr	t0,1412(t1) # 20020016 <__riscv_save_4>
    1a9a:	01154703          	lbu	a4,17(a0)
    1a9e:	01054783          	lbu	a5,16(a0)
    1aa2:	594d                	li	s2,-13
    1aa4:	0722                	slli	a4,a4,0x8
    1aa6:	8f5d                	or	a4,a4,a5
    1aa8:	01254783          	lbu	a5,18(a0)
    1aac:	07c2                	slli	a5,a5,0x10
    1aae:	8f5d                	or	a4,a4,a5
    1ab0:	01354783          	lbu	a5,19(a0)
    1ab4:	07e2                	slli	a5,a5,0x18
    1ab6:	8fd9                	or	a5,a5,a4
    1ab8:	1c079c63          	bnez	a5,1c90 <tcp_connect+0x1fe>
    1abc:	89ae                	mv	s3,a1
    1abe:	595d                	li	s2,-9
    1ac0:	1c058863          	beqz	a1,1c90 <tcp_connect+0x1fe>
    1ac4:	842a                	mv	s0,a0
    1ac6:	8932                	mv	s2,a2
    1ac8:	0511                	addi	a0,a0,4
    1aca:	4611                	li	a2,4
    1acc:	84b6                	mv	s1,a3
    1ace:	20023097          	auipc	ra,0x20023
    1ad2:	0ce080e7          	jalr	206(ra) # 20024b9c <memcpy>
    1ad6:	01a44783          	lbu	a5,26(s0)
    1ada:	01944703          	lbu	a4,25(s0)
    1ade:	01240fa3          	sb	s2,31(s0)
    1ae2:	07a2                	slli	a5,a5,0x8
    1ae4:	00895913          	srli	s2,s2,0x8
    1ae8:	03240023          	sb	s2,32(s0)
    1aec:	8fd9                	or	a5,a5,a4
    1aee:	eb81                	bnez	a5,1afe <tcp_connect+0x6c>
    1af0:	a11fe0ef          	jal	ra,500 <tcp_new_port>
    1af4:	00a40ca3          	sb	a0,25(s0)
    1af8:	8121                	srli	a0,a0,0x8
    1afa:	00a40d23          	sb	a0,26(s0)
    1afe:	3165                	jal	17a6 <tcp_next_iss>
    1b00:	00855793          	srli	a5,a0,0x8
    1b04:	04f408a3          	sb	a5,81(s0)
    1b08:	01055793          	srli	a5,a0,0x10
    1b0c:	04a40823          	sb	a0,80(s0)
    1b10:	04f40923          	sb	a5,82(s0)
    1b14:	01855793          	srli	a5,a0,0x18
    1b18:	157d                	addi	a0,a0,-1
    1b1a:	04f409a3          	sb	a5,83(s0)
    1b1e:	01055793          	srli	a5,a0,0x10
    1b22:	0ff7f793          	andi	a5,a5,255
    1b26:	0ff57693          	andi	a3,a0,255
    1b2a:	00855713          	srli	a4,a0,0x8
    1b2e:	04f404a3          	sb	a5,73(s0)
    1b32:	8161                	srli	a0,a0,0x18
    1b34:	06f40023          	sb	a5,96(s0)
    1b38:	1ffff797          	auipc	a5,0x1ffff
    1b3c:	29478793          	addi	a5,a5,660 # 20000dcc <CH569Cfg>
    1b40:	04a40523          	sb	a0,74(s0)
    1b44:	06a400a3          	sb	a0,97(s0)
    1b48:	43c8                	lw	a0,4(a5)
    1b4a:	0ff77713          	andi	a4,a4,255
    1b4e:	04e40423          	sb	a4,72(s0)
    1b52:	01051793          	slli	a5,a0,0x10
    1b56:	83c1                	srli	a5,a5,0x10
    1b58:	04e40fa3          	sb	a4,95(s0)
    1b5c:	0ff7f713          	andi	a4,a5,255
    1b60:	83a1                	srli	a5,a5,0x8
    1b62:	02f403a3          	sb	a5,39(s0)
    1b66:	02f404a3          	sb	a5,41(s0)
    1b6a:	04f40aa3          	sb	a5,85(s0)
    1b6e:	02040123          	sb	zero,34(s0)
    1b72:	020401a3          	sb	zero,35(s0)
    1b76:	02040223          	sb	zero,36(s0)
    1b7a:	020402a3          	sb	zero,37(s0)
    1b7e:	04d403a3          	sb	a3,71(s0)
    1b82:	04d40f23          	sb	a3,94(s0)
    1b86:	02e40323          	sb	a4,38(s0)
    1b8a:	02e40423          	sb	a4,40(s0)
    1b8e:	02040523          	sb	zero,42(s0)
    1b92:	020405a3          	sb	zero,43(s0)
    1b96:	02040623          	sb	zero,44(s0)
    1b9a:	020406a3          	sb	zero,45(s0)
    1b9e:	04e40a23          	sb	a4,84(s0)
    1ba2:	21800793          	li	a5,536
    1ba6:	00a7f463          	bgeu	a5,a0,1bae <tcp_connect+0x11c>
    1baa:	21800513          	li	a0,536
    1bae:	0542                	slli	a0,a0,0x10
    1bb0:	8141                	srli	a0,a0,0x10
    1bb2:	00855793          	srli	a5,a0,0x8
    1bb6:	02f40ba3          	sb	a5,55(s0)
    1bba:	02a40b23          	sb	a0,54(s0)
    1bbe:	85ce                	mv	a1,s3
    1bc0:	3d69                	jal	1a5a <tcp_eff_send_mss>
    1bc2:	00855793          	srli	a5,a0,0x8
    1bc6:	02f40ba3          	sb	a5,55(s0)
    1bca:	4785                	li	a5,1
    1bcc:	04f40623          	sb	a5,76(s0)
    1bd0:	47a9                	li	a5,10
    1bd2:	02a40b23          	sb	a0,54(s0)
    1bd6:	02f50533          	mul	a0,a0,a5
    1bda:	4789                	li	a5,2
    1bdc:	00f40823          	sb	a5,16(s0)
    1be0:	0084d793          	srli	a5,s1,0x8
    1be4:	08f400a3          	sb	a5,129(s0)
    1be8:	0104d793          	srli	a5,s1,0x10
    1bec:	08f40123          	sb	a5,130(s0)
    1bf0:	1ffff797          	auipc	a5,0x1ffff
    1bf4:	2cc78793          	addi	a5,a5,716 # 20000ebc <tcp_bound_pcbs>
    1bf8:	439c                	lw	a5,0(a5)
    1bfa:	08940023          	sb	s1,128(s0)
    1bfe:	0542                	slli	a0,a0,0x10
    1c00:	8141                	srli	a0,a0,0x10
    1c02:	04a40723          	sb	a0,78(s0)
    1c06:	80e1                	srli	s1,s1,0x18
    1c08:	8121                	srli	a0,a0,0x8
    1c0a:	040406a3          	sb	zero,77(s0)
    1c0e:	04a407a3          	sb	a0,79(s0)
    1c12:	000408a3          	sb	zero,17(s0)
    1c16:	00040923          	sb	zero,18(s0)
    1c1a:	000409a3          	sb	zero,19(s0)
    1c1e:	089401a3          	sb	s1,131(s0)
    1c22:	06879c63          	bne	a5,s0,1c9a <tcp_connect+0x208>
    1c26:	00d44703          	lbu	a4,13(s0)
    1c2a:	00c44783          	lbu	a5,12(s0)
    1c2e:	0722                	slli	a4,a4,0x8
    1c30:	8f5d                	or	a4,a4,a5
    1c32:	00e44783          	lbu	a5,14(s0)
    1c36:	07c2                	slli	a5,a5,0x10
    1c38:	8f5d                	or	a4,a4,a5
    1c3a:	00f44783          	lbu	a5,15(s0)
    1c3e:	07e2                	slli	a5,a5,0x18
    1c40:	8fd9                	or	a5,a5,a4
    1c42:	1ffff717          	auipc	a4,0x1ffff
    1c46:	26f72d23          	sw	a5,634(a4) # 20000ebc <tcp_bound_pcbs>
    1c4a:	1ffff797          	auipc	a5,0x1ffff
    1c4e:	26278793          	addi	a5,a5,610 # 20000eac <tcp_active_pcbs>
    1c52:	439c                	lw	a5,0(a5)
    1c54:	4689                	li	a3,2
    1c56:	4601                	li	a2,0
    1c58:	0087d713          	srli	a4,a5,0x8
    1c5c:	00f40623          	sb	a5,12(s0)
    1c60:	00e406a3          	sb	a4,13(s0)
    1c64:	0107d713          	srli	a4,a5,0x10
    1c68:	83e1                	srli	a5,a5,0x18
    1c6a:	00f407a3          	sb	a5,15(s0)
    1c6e:	1ffff797          	auipc	a5,0x1ffff
    1c72:	2287af23          	sw	s0,574(a5) # 20000eac <tcp_active_pcbs>
    1c76:	00e40723          	sb	a4,14(s0)
    1c7a:	4785                	li	a5,1
    1c7c:	4701                	li	a4,0
    1c7e:	4581                	li	a1,0
    1c80:	8522                	mv	a0,s0
    1c82:	259020ef          	jal	ra,46da <tcp_enqueue>
    1c86:	892a                	mv	s2,a0
    1c88:	e501                	bnez	a0,1c90 <tcp_connect+0x1fe>
    1c8a:	8522                	mv	a0,s0
    1c8c:	16a030ef          	jal	ra,4df6 <tcp_output>
    1c90:	854a                	mv	a0,s2
    1c92:	2001e317          	auipc	t1,0x2001e
    1c96:	3b830067          	jr	952(t1) # 2002004a <__riscv_restore_4>
    1c9a:	1ffff717          	auipc	a4,0x1ffff
    1c9e:	20f72f23          	sw	a5,542(a4) # 20000eb8 <tcp_tmp_pcb>
    1ca2:	4601                	li	a2,0
    1ca4:	e799                	bnez	a5,1cb2 <tcp_connect+0x220>
    1ca6:	d255                	beqz	a2,1c4a <tcp_connect+0x1b8>
    1ca8:	1ffff797          	auipc	a5,0x1ffff
    1cac:	2007a823          	sw	zero,528(a5) # 20000eb8 <tcp_tmp_pcb>
    1cb0:	bf69                	j	1c4a <tcp_connect+0x1b8>
    1cb2:	00d7c683          	lbu	a3,13(a5)
    1cb6:	00c7c703          	lbu	a4,12(a5)
    1cba:	06a2                	slli	a3,a3,0x8
    1cbc:	8ed9                	or	a3,a3,a4
    1cbe:	00e7c703          	lbu	a4,14(a5)
    1cc2:	0742                	slli	a4,a4,0x10
    1cc4:	8ed9                	or	a3,a3,a4
    1cc6:	00f7c703          	lbu	a4,15(a5)
    1cca:	0762                	slli	a4,a4,0x18
    1ccc:	8f55                	or	a4,a4,a3
    1cce:	04871363          	bne	a4,s0,1d14 <tcp_connect+0x282>
    1cd2:	c609                	beqz	a2,1cdc <tcp_connect+0x24a>
    1cd4:	1ffff717          	auipc	a4,0x1ffff
    1cd8:	1ef72223          	sw	a5,484(a4) # 20000eb8 <tcp_tmp_pcb>
    1cdc:	00d44683          	lbu	a3,13(s0)
    1ce0:	00c44703          	lbu	a4,12(s0)
    1ce4:	06a2                	slli	a3,a3,0x8
    1ce6:	8ed9                	or	a3,a3,a4
    1ce8:	00e44703          	lbu	a4,14(s0)
    1cec:	0742                	slli	a4,a4,0x10
    1cee:	8ed9                	or	a3,a3,a4
    1cf0:	00f44703          	lbu	a4,15(s0)
    1cf4:	0762                	slli	a4,a4,0x18
    1cf6:	8f55                	or	a4,a4,a3
    1cf8:	00875693          	srli	a3,a4,0x8
    1cfc:	00e78623          	sb	a4,12(a5)
    1d00:	00d786a3          	sb	a3,13(a5)
    1d04:	01075693          	srli	a3,a4,0x10
    1d08:	8361                	srli	a4,a4,0x18
    1d0a:	00d78723          	sb	a3,14(a5)
    1d0e:	00e787a3          	sb	a4,15(a5)
    1d12:	bf25                	j	1c4a <tcp_connect+0x1b8>
    1d14:	4605                	li	a2,1
    1d16:	87ba                	mv	a5,a4
    1d18:	b771                	j	1ca4 <tcp_connect+0x212>

00001d1a <tcp_parseopt>:
    1d1a:	2001e317          	auipc	t1,0x2001e
    1d1e:	316302e7          	jalr	t0,790(t1) # 20020030 <__riscv_save_0>
    1d22:	1fffe917          	auipc	s2,0x1fffe
    1d26:	3e690913          	addi	s2,s2,998 # 20000108 <tcphdr>
    1d2a:	00092483          	lw	s1,0(s2)
    1d2e:	842a                	mv	s0,a0
    1d30:	00d4c783          	lbu	a5,13(s1)
    1d34:	00c4c503          	lbu	a0,12(s1)
    1d38:	07a2                	slli	a5,a5,0x8
    1d3a:	8d5d                	or	a0,a0,a5
    1d3c:	20022097          	auipc	ra,0x20022
    1d40:	a44080e7          	jalr	-1468(ra) # 20023780 <ntohs>
    1d44:	8131                	srli	a0,a0,0xc
    1d46:	0542                	slli	a0,a0,0x10
    1d48:	8141                	srli	a0,a0,0x10
    1d4a:	4795                	li	a5,5
    1d4c:	04a7f263          	bgeu	a5,a0,1d90 <tcp_parseopt+0x76>
    1d50:	00092783          	lw	a5,0(s2)
    1d54:	04d1                	addi	s1,s1,20
    1d56:	00c7c503          	lbu	a0,12(a5)
    1d5a:	00d7c783          	lbu	a5,13(a5)
    1d5e:	07a2                	slli	a5,a5,0x8
    1d60:	8d5d                	or	a0,a0,a5
    1d62:	20022097          	auipc	ra,0x20022
    1d66:	a1e080e7          	jalr	-1506(ra) # 20023780 <ntohs>
    1d6a:	1ffff797          	auipc	a5,0x1ffff
    1d6e:	06278793          	addi	a5,a5,98 # 20000dcc <CH569Cfg>
    1d72:	43d0                	lw	a2,4(a5)
    1d74:	8131                	srli	a0,a0,0xc
    1d76:	156d                	addi	a0,a0,-5
    1d78:	050a                	slli	a0,a0,0x2
    1d7a:	0542                	slli	a0,a0,0x10
    1d7c:	01061593          	slli	a1,a2,0x10
    1d80:	8141                	srli	a0,a0,0x10
    1d82:	81c1                	srli	a1,a1,0x10
    1d84:	4781                	li	a5,0
    1d86:	4805                	li	a6,1
    1d88:	4889                	li	a7,2
    1d8a:	4311                	li	t1,4
    1d8c:	00a7e663          	bltu	a5,a0,1d98 <tcp_parseopt+0x7e>
    1d90:	2001e317          	auipc	t1,0x2001e
    1d94:	2c430067          	jr	708(t1) # 20020054 <__riscv_restore_0>
    1d98:	00f486b3          	add	a3,s1,a5
    1d9c:	0006c703          	lbu	a4,0(a3)
    1da0:	01070a63          	beq	a4,a6,1db4 <tcp_parseopt+0x9a>
    1da4:	d775                	beqz	a4,1d90 <tcp_parseopt+0x76>
    1da6:	01170b63          	beq	a4,a7,1dbc <tcp_parseopt+0xa2>
    1daa:	0016c703          	lbu	a4,1(a3)
    1dae:	d36d                	beqz	a4,1d90 <tcp_parseopt+0x76>
    1db0:	97ba                	add	a5,a5,a4
    1db2:	a011                	j	1db6 <tcp_parseopt+0x9c>
    1db4:	0785                	addi	a5,a5,1
    1db6:	07c2                	slli	a5,a5,0x10
    1db8:	83c1                	srli	a5,a5,0x10
    1dba:	bfc9                	j	1d8c <tcp_parseopt+0x72>
    1dbc:	0016c703          	lbu	a4,1(a3)
    1dc0:	fc6718e3          	bne	a4,t1,1d90 <tcp_parseopt+0x76>
    1dc4:	00378713          	addi	a4,a5,3
    1dc8:	fca754e3          	bge	a4,a0,1d90 <tcp_parseopt+0x76>
    1dcc:	0026c703          	lbu	a4,2(a3)
    1dd0:	0036c683          	lbu	a3,3(a3)
    1dd4:	0722                	slli	a4,a4,0x8
    1dd6:	8f55                	or	a4,a4,a3
    1dd8:	00e66363          	bltu	a2,a4,1dde <tcp_parseopt+0xc4>
    1ddc:	e311                	bnez	a4,1de0 <tcp_parseopt+0xc6>
    1dde:	872e                	mv	a4,a1
    1de0:	02e40b23          	sb	a4,54(s0)
    1de4:	8321                	srli	a4,a4,0x8
    1de6:	02e40ba3          	sb	a4,55(s0)
    1dea:	0791                	addi	a5,a5,4
    1dec:	b7e9                	j	1db6 <tcp_parseopt+0x9c>

00001dee <tcp_oos_insert_segment>:
    1dee:	2001e317          	auipc	t1,0x2001e
    1df2:	228302e7          	jalr	t0,552(t1) # 20020016 <__riscv_save_4>
    1df6:	491c                	lw	a5,16(a0)
    1df8:	84aa                	mv	s1,a0
    1dfa:	8a2e                	mv	s4,a1
    1dfc:	00c7c503          	lbu	a0,12(a5)
    1e00:	00d7c783          	lbu	a5,13(a5)
    1e04:	07a2                	slli	a5,a5,0x8
    1e06:	8d5d                	or	a0,a0,a5
    1e08:	20022097          	auipc	ra,0x20022
    1e0c:	978080e7          	jalr	-1672(ra) # 20023780 <ntohs>
    1e10:	8905                	andi	a0,a0,1
    1e12:	e52d                	bnez	a0,1e7c <tcp_oos_insert_segment+0x8e>
    1e14:	6941                	lui	s2,0x10
    1e16:	1fffe997          	auipc	s3,0x1fffe
    1e1a:	2ee98993          	addi	s3,s3,750 # 20000104 <seqno>
    1e1e:	fc090913          	addi	s2,s2,-64 # ffc0 <_ramcode_lma+0x7fc0>
    1e22:	010a2703          	lw	a4,16(s4)
    1e26:	0009a603          	lw	a2,0(s3)
    1e2a:	00c4d783          	lhu	a5,12(s1)
    1e2e:	00574683          	lbu	a3,5(a4)
    1e32:	00474583          	lbu	a1,4(a4)
    1e36:	97b2                	add	a5,a5,a2
    1e38:	06a2                	slli	a3,a3,0x8
    1e3a:	8dd5                	or	a1,a1,a3
    1e3c:	00674683          	lbu	a3,6(a4)
    1e40:	06c2                	slli	a3,a3,0x10
    1e42:	8ecd                	or	a3,a3,a1
    1e44:	00774583          	lbu	a1,7(a4)
    1e48:	05e2                	slli	a1,a1,0x18
    1e4a:	8dd5                	or	a1,a1,a3
    1e4c:	00ca5683          	lhu	a3,12(s4)
    1e50:	96ae                	add	a3,a3,a1
    1e52:	40d786b3          	sub	a3,a5,a3
    1e56:	0206d863          	bgez	a3,1e86 <tcp_oos_insert_segment+0x98>
    1e5a:	8f8d                	sub	a5,a5,a1
    1e5c:	00f05a63          	blez	a5,1e70 <tcp_oos_insert_segment+0x82>
    1e60:	8d91                	sub	a1,a1,a2
    1e62:	05c2                	slli	a1,a1,0x10
    1e64:	40c8                	lw	a0,4(s1)
    1e66:	81c1                	srli	a1,a1,0x10
    1e68:	00b49623          	sh	a1,12(s1)
    1e6c:	5b6050ef          	jal	ra,7422 <pbuf_realloc>
    1e70:	0144a023          	sw	s4,0(s1)
    1e74:	2001e317          	auipc	t1,0x2001e
    1e78:	1d630067          	jr	470(t1) # 2002004a <__riscv_restore_4>
    1e7c:	8552                	mv	a0,s4
    1e7e:	b47fe0ef          	jal	ra,9c4 <tcp_segs_free>
    1e82:	4a01                	li	s4,0
    1e84:	b7f5                	j	1e70 <tcp_oos_insert_segment+0x82>
    1e86:	00d74783          	lbu	a5,13(a4)
    1e8a:	00c74503          	lbu	a0,12(a4)
    1e8e:	07a2                	slli	a5,a5,0x8
    1e90:	8d5d                	or	a0,a0,a5
    1e92:	20022097          	auipc	ra,0x20022
    1e96:	8ee080e7          	jalr	-1810(ra) # 20023780 <ntohs>
    1e9a:	8905                	andi	a0,a0,1
    1e9c:	c931                	beqz	a0,1ef0 <tcp_oos_insert_segment+0x102>
    1e9e:	489c                	lw	a5,16(s1)
    1ea0:	00d7c403          	lbu	s0,13(a5)
    1ea4:	00c7c503          	lbu	a0,12(a5)
    1ea8:	0422                	slli	s0,s0,0x8
    1eaa:	8c49                	or	s0,s0,a0
    1eac:	854a                	mv	a0,s2
    1eae:	20022097          	auipc	ra,0x20022
    1eb2:	8c4080e7          	jalr	-1852(ra) # 20023772 <htons>
    1eb6:	489c                	lw	a5,16(s1)
    1eb8:	8c69                	and	s0,s0,a0
    1eba:	00c7c503          	lbu	a0,12(a5)
    1ebe:	00d7c783          	lbu	a5,13(a5)
    1ec2:	07a2                	slli	a5,a5,0x8
    1ec4:	8d5d                	or	a0,a0,a5
    1ec6:	20022097          	auipc	ra,0x20022
    1eca:	8ba080e7          	jalr	-1862(ra) # 20023780 <ntohs>
    1ece:	03e57513          	andi	a0,a0,62
    1ed2:	00156513          	ori	a0,a0,1
    1ed6:	20022097          	auipc	ra,0x20022
    1eda:	89c080e7          	jalr	-1892(ra) # 20023772 <htons>
    1ede:	489c                	lw	a5,16(s1)
    1ee0:	8d41                	or	a0,a0,s0
    1ee2:	0542                	slli	a0,a0,0x10
    1ee4:	8141                	srli	a0,a0,0x10
    1ee6:	00a78623          	sb	a0,12(a5)
    1eea:	8121                	srli	a0,a0,0x8
    1eec:	00a786a3          	sb	a0,13(a5)
    1ef0:	000a2403          	lw	s0,0(s4)
    1ef4:	8552                	mv	a0,s4
    1ef6:	a9dfe0ef          	jal	ra,992 <tcp_seg_free>
    1efa:	d441                	beqz	s0,1e82 <tcp_oos_insert_segment+0x94>
    1efc:	8a22                	mv	s4,s0
    1efe:	b715                	j	1e22 <tcp_oos_insert_segment+0x34>

00001f00 <tcp_receive>:
    1f00:	2001e317          	auipc	t1,0x2001e
    1f04:	116302e7          	jalr	t0,278(t1) # 20020016 <__riscv_save_4>
    1f08:	1fffe797          	auipc	a5,0x1fffe
    1f0c:	1ec7c783          	lbu	a5,492(a5) # 200000f4 <flags>
    1f10:	8bc1                	andi	a5,a5,16
    1f12:	842a                	mv	s0,a0
    1f14:	1fffe497          	auipc	s1,0x1fffe
    1f18:	1f048493          	addi	s1,s1,496 # 20000104 <seqno>
    1f1c:	1e078963          	beqz	a5,210e <tcp_receive+0x20e>
    1f20:	05554683          	lbu	a3,85(a0)
    1f24:	05454783          	lbu	a5,84(a0)
    1f28:	05a54603          	lbu	a2,90(a0)
    1f2c:	06a2                	slli	a3,a3,0x8
    1f2e:	8edd                	or	a3,a3,a5
    1f30:	05b54783          	lbu	a5,91(a0)
    1f34:	05654583          	lbu	a1,86(a0)
    1f38:	4098                	lw	a4,0(s1)
    1f3a:	07a2                	slli	a5,a5,0x8
    1f3c:	8fd1                	or	a5,a5,a2
    1f3e:	05c54603          	lbu	a2,92(a0)
    1f42:	1fffe917          	auipc	s2,0x1fffe
    1f46:	1ae90913          	addi	s2,s2,430 # 200000f0 <ackno>
    1f4a:	0642                	slli	a2,a2,0x10
    1f4c:	8fd1                	or	a5,a5,a2
    1f4e:	05d54603          	lbu	a2,93(a0)
    1f52:	0662                	slli	a2,a2,0x18
    1f54:	8e5d                	or	a2,a2,a5
    1f56:	05754783          	lbu	a5,87(a0)
    1f5a:	07a2                	slli	a5,a5,0x8
    1f5c:	8fcd                	or	a5,a5,a1
    1f5e:	05854583          	lbu	a1,88(a0)
    1f62:	05c2                	slli	a1,a1,0x10
    1f64:	8fcd                	or	a5,a5,a1
    1f66:	05954583          	lbu	a1,89(a0)
    1f6a:	05e2                	slli	a1,a1,0x18
    1f6c:	8ddd                	or	a1,a1,a5
    1f6e:	40e58533          	sub	a0,a1,a4
    1f72:	00092783          	lw	a5,0(s2)
    1f76:	02054863          	bltz	a0,1fa6 <tcp_receive+0xa6>
    1f7a:	00e59663          	bne	a1,a4,1f86 <tcp_receive+0x86>
    1f7e:	40f605b3          	sub	a1,a2,a5
    1f82:	0205c263          	bltz	a1,1fa6 <tcp_receive+0xa6>
    1f86:	08f61363          	bne	a2,a5,200c <tcp_receive+0x10c>
    1f8a:	1fffe597          	auipc	a1,0x1fffe
    1f8e:	17e58593          	addi	a1,a1,382 # 20000108 <tcphdr>
    1f92:	4188                	lw	a0,0(a1)
    1f94:	00f54583          	lbu	a1,15(a0)
    1f98:	00e54803          	lbu	a6,14(a0)
    1f9c:	05a2                	slli	a1,a1,0x8
    1f9e:	0105e5b3          	or	a1,a1,a6
    1fa2:	06b6f563          	bgeu	a3,a1,200c <tcp_receive+0x10c>
    1fa6:	1fffe597          	auipc	a1,0x1fffe
    1faa:	16258593          	addi	a1,a1,354 # 20000108 <tcphdr>
    1fae:	4188                	lw	a0,0(a1)
    1fb0:	00f54583          	lbu	a1,15(a0)
    1fb4:	00e54803          	lbu	a6,14(a0)
    1fb8:	04e40b23          	sb	a4,86(s0)
    1fbc:	05a2                	slli	a1,a1,0x8
    1fbe:	0105e5b3          	or	a1,a1,a6
    1fc2:	0085d513          	srli	a0,a1,0x8
    1fc6:	04a40aa3          	sb	a0,85(s0)
    1fca:	00875513          	srli	a0,a4,0x8
    1fce:	04a40ba3          	sb	a0,87(s0)
    1fd2:	01075513          	srli	a0,a4,0x10
    1fd6:	8361                	srli	a4,a4,0x18
    1fd8:	04e40ca3          	sb	a4,89(s0)
    1fdc:	0087d713          	srli	a4,a5,0x8
    1fe0:	04e40da3          	sb	a4,91(s0)
    1fe4:	0107d713          	srli	a4,a5,0x10
    1fe8:	04e40e23          	sb	a4,92(s0)
    1fec:	0187d713          	srli	a4,a5,0x18
    1ff0:	04b40a23          	sb	a1,84(s0)
    1ff4:	04a40c23          	sb	a0,88(s0)
    1ff8:	04f40d23          	sb	a5,90(s0)
    1ffc:	04e40ea3          	sb	a4,93(s0)
    2000:	c591                	beqz	a1,200c <tcp_receive+0x10c>
    2002:	09444703          	lbu	a4,148(s0)
    2006:	c319                	beqz	a4,200c <tcp_receive+0x10c>
    2008:	08040a23          	sb	zero,148(s0)
    200c:	04844703          	lbu	a4,72(s0)
    2010:	04744583          	lbu	a1,71(s0)
    2014:	0722                	slli	a4,a4,0x8
    2016:	8f4d                	or	a4,a4,a1
    2018:	04944583          	lbu	a1,73(s0)
    201c:	05c2                	slli	a1,a1,0x10
    201e:	8f4d                	or	a4,a4,a1
    2020:	04a44583          	lbu	a1,74(s0)
    2024:	05e2                	slli	a1,a1,0x18
    2026:	8dd9                	or	a1,a1,a4
    2028:	40b78733          	sub	a4,a5,a1
    202c:	4ee04963          	bgtz	a4,251e <tcp_receive+0x61e>
    2030:	06040123          	sb	zero,98(s0)
    2034:	060401a3          	sb	zero,99(s0)
    2038:	1fffe717          	auipc	a4,0x1fffe
    203c:	0d475703          	lhu	a4,212(a4) # 2000010c <tcplen>
    2040:	4c071c63          	bnez	a4,2518 <tcp_receive+0x618>
    2044:	05b44503          	lbu	a0,91(s0)
    2048:	05a44703          	lbu	a4,90(s0)
    204c:	05444803          	lbu	a6,84(s0)
    2050:	0522                	slli	a0,a0,0x8
    2052:	8d59                	or	a0,a0,a4
    2054:	05c44703          	lbu	a4,92(s0)
    2058:	96b2                	add	a3,a3,a2
    205a:	0742                	slli	a4,a4,0x10
    205c:	8d59                	or	a0,a0,a4
    205e:	05d44703          	lbu	a4,93(s0)
    2062:	0762                	slli	a4,a4,0x18
    2064:	8f49                	or	a4,a4,a0
    2066:	05544503          	lbu	a0,85(s0)
    206a:	0522                	slli	a0,a0,0x8
    206c:	01056533          	or	a0,a0,a6
    2070:	972a                	add	a4,a4,a0
    2072:	4ad71363          	bne	a4,a3,2518 <tcp_receive+0x618>
    2076:	03544703          	lbu	a4,53(s0)
    207a:	03444683          	lbu	a3,52(s0)
    207e:	0722                	slli	a4,a4,0x8
    2080:	8f55                	or	a4,a4,a3
    2082:	0742                	slli	a4,a4,0x10
    2084:	8741                	srai	a4,a4,0x10
    2086:	48074963          	bltz	a4,2518 <tcp_receive+0x618>
    208a:	48f59763          	bne	a1,a5,2518 <tcp_receive+0x618>
    208e:	04b44783          	lbu	a5,75(s0)
    2092:	470d                	li	a4,3
    2094:	0785                	addi	a5,a5,1
    2096:	0ff7f793          	andi	a5,a5,255
    209a:	04f405a3          	sb	a5,75(s0)
    209e:	46f77763          	bgeu	a4,a5,250c <tcp_receive+0x60c>
    20a2:	04d44703          	lbu	a4,77(s0)
    20a6:	04c44783          	lbu	a5,76(s0)
    20aa:	03644683          	lbu	a3,54(s0)
    20ae:	0722                	slli	a4,a4,0x8
    20b0:	8f5d                	or	a4,a4,a5
    20b2:	03744783          	lbu	a5,55(s0)
    20b6:	07a2                	slli	a5,a5,0x8
    20b8:	8fd5                	or	a5,a5,a3
    20ba:	97ba                	add	a5,a5,a4
    20bc:	07c2                	slli	a5,a5,0x10
    20be:	83c1                	srli	a5,a5,0x10
    20c0:	00f77763          	bgeu	a4,a5,20ce <tcp_receive+0x1ce>
    20c4:	04f40623          	sb	a5,76(s0)
    20c8:	83a1                	srli	a5,a5,0x8
    20ca:	04f406a3          	sb	a5,77(s0)
    20ce:	06944703          	lbu	a4,105(s0)
    20d2:	06844783          	lbu	a5,104(s0)
    20d6:	0722                	slli	a4,a4,0x8
    20d8:	8f5d                	or	a4,a4,a5
    20da:	06a44783          	lbu	a5,106(s0)
    20de:	07c2                	slli	a5,a5,0x10
    20e0:	8f5d                	or	a4,a4,a5
    20e2:	06b44783          	lbu	a5,107(s0)
    20e6:	07e2                	slli	a5,a5,0x18
    20e8:	8fd9                	or	a5,a5,a4
    20ea:	6e079763          	bnez	a5,27d8 <tcp_receive+0x8d8>
    20ee:	03944783          	lbu	a5,57(s0)
    20f2:	03844603          	lbu	a2,56(s0)
    20f6:	07a2                	slli	a5,a5,0x8
    20f8:	8fd1                	or	a5,a5,a2
    20fa:	03a44603          	lbu	a2,58(s0)
    20fe:	0642                	slli	a2,a2,0x10
    2100:	8fd1                	or	a5,a5,a2
    2102:	03b44603          	lbu	a2,59(s0)
    2106:	0662                	slli	a2,a2,0x18
    2108:	8e5d                	or	a2,a2,a5
    210a:	020611e3          	bnez	a2,292c <tcp_receive+0xa2c>
    210e:	02344603          	lbu	a2,35(s0)
    2112:	02244703          	lbu	a4,34(s0)
    2116:	1fffe517          	auipc	a0,0x1fffe
    211a:	ff655503          	lhu	a0,-10(a0) # 2000010c <tcplen>
    211e:	0622                	slli	a2,a2,0x8
    2120:	8e59                	or	a2,a2,a4
    2122:	02444703          	lbu	a4,36(s0)
    2126:	409c                	lw	a5,0(s1)
    2128:	0742                	slli	a4,a4,0x10
    212a:	8e59                	or	a2,a2,a4
    212c:	02544703          	lbu	a4,37(s0)
    2130:	0762                	slli	a4,a4,0x18
    2132:	8f51                	or	a4,a4,a2
    2134:	6c050be3          	beqz	a0,300a <tcp_receive+0x110a>
    2138:	40f705b3          	sub	a1,a4,a5
    213c:	fff58693          	addi	a3,a1,-1
    2140:	1006c2e3          	bltz	a3,2a44 <tcp_receive+0xb44>
    2144:	4685                	li	a3,1
    2146:	8e9d                	sub	a3,a3,a5
    2148:	8e89                	sub	a3,a3,a0
    214a:	96ba                	add	a3,a3,a4
    214c:	0ed04ce3          	bgtz	a3,2a44 <tcp_receive+0xb44>
    2150:	1fffe997          	auipc	s3,0x1fffe
    2154:	fec98993          	addi	s3,s3,-20 # 2000013c <inseg>
    2158:	0049a903          	lw	s2,4(s3)
    215c:	01059693          	slli	a3,a1,0x10
    2160:	82c1                	srli	a3,a3,0x10
    2162:	00b94703          	lbu	a4,11(s2)
    2166:	00a94783          	lbu	a5,10(s2)
    216a:	0722                	slli	a4,a4,0x8
    216c:	8f5d                	or	a4,a4,a5
    216e:	0cb755e3          	bge	a4,a1,2a38 <tcp_receive+0xb38>
    2172:	00994783          	lbu	a5,9(s2)
    2176:	00894703          	lbu	a4,8(s2)
    217a:	07a2                	slli	a5,a5,0x8
    217c:	8fd9                	or	a5,a5,a4
    217e:	8f95                	sub	a5,a5,a3
    2180:	07c2                	slli	a5,a5,0x10
    2182:	83c1                	srli	a5,a5,0x10
    2184:	0ff7f613          	andi	a2,a5,255
    2188:	83a1                	srli	a5,a5,0x8
    218a:	00b94703          	lbu	a4,11(s2)
    218e:	00a94683          	lbu	a3,10(s2)
    2192:	0722                	slli	a4,a4,0x8
    2194:	8f55                	or	a4,a4,a3
    2196:	06b747e3          	blt	a4,a1,2a04 <tcp_receive+0xb04>
    219a:	40b005b3          	neg	a1,a1
    219e:	05c2                	slli	a1,a1,0x10
    21a0:	85c1                	srai	a1,a1,0x10
    21a2:	854a                	mv	a0,s2
    21a4:	6a3040ef          	jal	ra,7046 <pbuf_header>
    21a8:	00594703          	lbu	a4,5(s2)
    21ac:	00494783          	lbu	a5,4(s2)
    21b0:	00c9d683          	lhu	a3,12(s3)
    21b4:	0722                	slli	a4,a4,0x8
    21b6:	8f5d                	or	a4,a4,a5
    21b8:	00694783          	lbu	a5,6(s2)
    21bc:	07c2                	slli	a5,a5,0x10
    21be:	8f5d                	or	a4,a4,a5
    21c0:	00794783          	lbu	a5,7(s2)
    21c4:	07e2                	slli	a5,a5,0x18
    21c6:	8fd9                	or	a5,a5,a4
    21c8:	1fffe717          	auipc	a4,0x1fffe
    21cc:	f6f72e23          	sw	a5,-132(a4) # 20000144 <inseg+0x8>
    21d0:	02344703          	lbu	a4,35(s0)
    21d4:	02244783          	lbu	a5,34(s0)
    21d8:	0722                	slli	a4,a4,0x8
    21da:	8f5d                	or	a4,a4,a5
    21dc:	02444783          	lbu	a5,36(s0)
    21e0:	07c2                	slli	a5,a5,0x10
    21e2:	8f5d                	or	a4,a4,a5
    21e4:	02544783          	lbu	a5,37(s0)
    21e8:	07e2                	slli	a5,a5,0x18
    21ea:	8fd9                	or	a5,a5,a4
    21ec:	4098                	lw	a4,0(s1)
    21ee:	9736                	add	a4,a4,a3
    21f0:	8f1d                	sub	a4,a4,a5
    21f2:	1fffe697          	auipc	a3,0x1fffe
    21f6:	f4e69b23          	sh	a4,-170(a3) # 20000148 <inseg+0xc>
    21fa:	1fffe717          	auipc	a4,0x1fffe
    21fe:	f0f72523          	sw	a5,-246(a4) # 20000104 <seqno>
    2202:	0109a703          	lw	a4,16(s3)
    2206:	0087d693          	srli	a3,a5,0x8
    220a:	00f70223          	sb	a5,4(a4)
    220e:	00d702a3          	sb	a3,5(a4)
    2212:	0107d693          	srli	a3,a5,0x10
    2216:	83e1                	srli	a5,a5,0x18
    2218:	00d70323          	sb	a3,6(a4)
    221c:	00f703a3          	sb	a5,7(a4)
    2220:	02344703          	lbu	a4,35(s0)
    2224:	02244783          	lbu	a5,34(s0)
    2228:	4090                	lw	a2,0(s1)
    222a:	0722                	slli	a4,a4,0x8
    222c:	8f5d                	or	a4,a4,a5
    222e:	02444783          	lbu	a5,36(s0)
    2232:	07c2                	slli	a5,a5,0x10
    2234:	8f5d                	or	a4,a4,a5
    2236:	02544783          	lbu	a5,37(s0)
    223a:	07e2                	slli	a5,a5,0x18
    223c:	8fd9                	or	a5,a5,a4
    223e:	40f60733          	sub	a4,a2,a5
    2242:	5c0740e3          	bltz	a4,3002 <tcp_receive+0x1102>
    2246:	02744683          	lbu	a3,39(s0)
    224a:	02644583          	lbu	a1,38(s0)
    224e:	00160713          	addi	a4,a2,1
    2252:	06a2                	slli	a3,a3,0x8
    2254:	8f1d                	sub	a4,a4,a5
    2256:	8ecd                	or	a3,a3,a1
    2258:	8f15                	sub	a4,a4,a3
    225a:	5ae044e3          	bgtz	a4,3002 <tcp_receive+0x1102>
    225e:	38f617e3          	bne	a2,a5,2dec <tcp_receive+0xeec>
    2262:	1fffe917          	auipc	s2,0x1fffe
    2266:	eda90913          	addi	s2,s2,-294 # 2000013c <inseg>
    226a:	01092783          	lw	a5,16(s2)
    226e:	1fffe997          	auipc	s3,0x1fffe
    2272:	eda9d983          	lhu	s3,-294(s3) # 20000148 <inseg+0xc>
    2276:	00c7c503          	lbu	a0,12(a5)
    227a:	00d7c783          	lbu	a5,13(a5)
    227e:	07a2                	slli	a5,a5,0x8
    2280:	8d5d                	or	a0,a0,a5
    2282:	20021097          	auipc	ra,0x20021
    2286:	4fe080e7          	jalr	1278(ra) # 20023780 <ntohs>
    228a:	890d                	andi	a0,a0,3
    228c:	00a03533          	snez	a0,a0
    2290:	954e                	add	a0,a0,s3
    2292:	0542                	slli	a0,a0,0x10
    2294:	8141                	srli	a0,a0,0x10
    2296:	1fffe797          	auipc	a5,0x1fffe
    229a:	e6a79b23          	sh	a0,-394(a5) # 2000010c <tcplen>
    229e:	02744783          	lbu	a5,39(s0)
    22a2:	02644703          	lbu	a4,38(s0)
    22a6:	07a2                	slli	a5,a5,0x8
    22a8:	8fd9                	or	a5,a5,a4
    22aa:	0ea7fe63          	bgeu	a5,a0,23a6 <tcp_receive+0x4a6>
    22ae:	01092783          	lw	a5,16(s2)
    22b2:	00c7c503          	lbu	a0,12(a5)
    22b6:	00d7c783          	lbu	a5,13(a5)
    22ba:	07a2                	slli	a5,a5,0x8
    22bc:	8d5d                	or	a0,a0,a5
    22be:	20021097          	auipc	ra,0x20021
    22c2:	4c2080e7          	jalr	1218(ra) # 20023780 <ntohs>
    22c6:	8905                	andi	a0,a0,1
    22c8:	c125                	beqz	a0,2328 <tcp_receive+0x428>
    22ca:	01092783          	lw	a5,16(s2)
    22ce:	00d7c983          	lbu	s3,13(a5)
    22d2:	00c7c503          	lbu	a0,12(a5)
    22d6:	09a2                	slli	s3,s3,0x8
    22d8:	00a9e9b3          	or	s3,s3,a0
    22dc:	6541                	lui	a0,0x10
    22de:	fc050513          	addi	a0,a0,-64 # ffc0 <_ramcode_lma+0x7fc0>
    22e2:	20021097          	auipc	ra,0x20021
    22e6:	490080e7          	jalr	1168(ra) # 20023772 <htons>
    22ea:	01092783          	lw	a5,16(s2)
    22ee:	00a9f9b3          	and	s3,s3,a0
    22f2:	00c7c503          	lbu	a0,12(a5)
    22f6:	00d7c783          	lbu	a5,13(a5)
    22fa:	07a2                	slli	a5,a5,0x8
    22fc:	8d5d                	or	a0,a0,a5
    22fe:	20021097          	auipc	ra,0x20021
    2302:	482080e7          	jalr	1154(ra) # 20023780 <ntohs>
    2306:	03e57513          	andi	a0,a0,62
    230a:	20021097          	auipc	ra,0x20021
    230e:	468080e7          	jalr	1128(ra) # 20023772 <htons>
    2312:	01092783          	lw	a5,16(s2)
    2316:	00a9e533          	or	a0,s3,a0
    231a:	0542                	slli	a0,a0,0x10
    231c:	8141                	srli	a0,a0,0x10
    231e:	00a78623          	sb	a0,12(a5)
    2322:	8121                	srli	a0,a0,0x8
    2324:	00a786a3          	sb	a0,13(a5)
    2328:	02744783          	lbu	a5,39(s0)
    232c:	02644703          	lbu	a4,38(s0)
    2330:	07a2                	slli	a5,a5,0x8
    2332:	8fd9                	or	a5,a5,a4
    2334:	1fffe717          	auipc	a4,0x1fffe
    2338:	e0f71a23          	sh	a5,-492(a4) # 20000148 <inseg+0xc>
    233c:	01092783          	lw	a5,16(s2)
    2340:	00c7c503          	lbu	a0,12(a5)
    2344:	00d7c783          	lbu	a5,13(a5)
    2348:	07a2                	slli	a5,a5,0x8
    234a:	8d5d                	or	a0,a0,a5
    234c:	20021097          	auipc	ra,0x20021
    2350:	434080e7          	jalr	1076(ra) # 20023780 <ntohs>
    2354:	8909                	andi	a0,a0,2
    2356:	c901                	beqz	a0,2366 <tcp_receive+0x466>
    2358:	00c95783          	lhu	a5,12(s2)
    235c:	17fd                	addi	a5,a5,-1
    235e:	1fffe717          	auipc	a4,0x1fffe
    2362:	def71523          	sh	a5,-534(a4) # 20000148 <inseg+0xc>
    2366:	00492503          	lw	a0,4(s2)
    236a:	1fffe597          	auipc	a1,0x1fffe
    236e:	dde5d583          	lhu	a1,-546(a1) # 20000148 <inseg+0xc>
    2372:	0b0050ef          	jal	ra,7422 <pbuf_realloc>
    2376:	01092783          	lw	a5,16(s2)
    237a:	1fffe997          	auipc	s3,0x1fffe
    237e:	dce9d983          	lhu	s3,-562(s3) # 20000148 <inseg+0xc>
    2382:	00c7c503          	lbu	a0,12(a5)
    2386:	00d7c783          	lbu	a5,13(a5)
    238a:	07a2                	slli	a5,a5,0x8
    238c:	8d5d                	or	a0,a0,a5
    238e:	20021097          	auipc	ra,0x20021
    2392:	3f2080e7          	jalr	1010(ra) # 20023780 <ntohs>
    2396:	890d                	andi	a0,a0,3
    2398:	00a03533          	snez	a0,a0
    239c:	99aa                	add	s3,s3,a0
    239e:	1fffe797          	auipc	a5,0x1fffe
    23a2:	d7379723          	sh	s3,-658(a5) # 2000010c <tcplen>
    23a6:	07144703          	lbu	a4,113(s0)
    23aa:	07044783          	lbu	a5,112(s0)
    23ae:	0722                	slli	a4,a4,0x8
    23b0:	8f5d                	or	a4,a4,a5
    23b2:	07244783          	lbu	a5,114(s0)
    23b6:	07c2                	slli	a5,a5,0x10
    23b8:	8f5d                	or	a4,a4,a5
    23ba:	07344783          	lbu	a5,115(s0)
    23be:	07e2                	slli	a5,a5,0x18
    23c0:	8fd9                	or	a5,a5,a4
    23c2:	6e078063          	beqz	a5,2aa2 <tcp_receive+0xba2>
    23c6:	01092783          	lw	a5,16(s2)
    23ca:	00c7c503          	lbu	a0,12(a5)
    23ce:	00d7c783          	lbu	a5,13(a5)
    23d2:	07a2                	slli	a5,a5,0x8
    23d4:	8d5d                	or	a0,a0,a5
    23d6:	20021097          	auipc	ra,0x20021
    23da:	3aa080e7          	jalr	938(ra) # 20023780 <ntohs>
    23de:	8905                	andi	a0,a0,1
    23e0:	6a051263          	bnez	a0,2a84 <tcp_receive+0xb84>
    23e4:	07144783          	lbu	a5,113(s0)
    23e8:	07044983          	lbu	s3,112(s0)
    23ec:	6ac1                	lui	s5,0x10
    23ee:	07a2                	slli	a5,a5,0x8
    23f0:	0137e7b3          	or	a5,a5,s3
    23f4:	07244983          	lbu	s3,114(s0)
    23f8:	fc0a8a93          	addi	s5,s5,-64 # ffc0 <_ramcode_lma+0x7fc0>
    23fc:	09c2                	slli	s3,s3,0x10
    23fe:	00f9e7b3          	or	a5,s3,a5
    2402:	07344983          	lbu	s3,115(s0)
    2406:	09e2                	slli	s3,s3,0x18
    2408:	00f9e9b3          	or	s3,s3,a5
    240c:	4088                	lw	a0,0(s1)
    240e:	1fffe717          	auipc	a4,0x1fffe
    2412:	cfe75703          	lhu	a4,-770(a4) # 2000010c <tcplen>
    2416:	972a                	add	a4,a4,a0
    2418:	0c098b63          	beqz	s3,24ee <tcp_receive+0x5ee>
    241c:	0109a603          	lw	a2,16(s3)
    2420:	00c9d583          	lhu	a1,12(s3)
    2424:	00564783          	lbu	a5,5(a2)
    2428:	00464683          	lbu	a3,4(a2)
    242c:	07a2                	slli	a5,a5,0x8
    242e:	8fd5                	or	a5,a5,a3
    2430:	00664683          	lbu	a3,6(a2)
    2434:	06c2                	slli	a3,a3,0x10
    2436:	8fd5                	or	a5,a5,a3
    2438:	00764683          	lbu	a3,7(a2)
    243c:	06e2                	slli	a3,a3,0x18
    243e:	8edd                	or	a3,a3,a5
    2440:	95b6                	add	a1,a1,a3
    2442:	40b705b3          	sub	a1,a4,a1
    2446:	7005d663          	bgez	a1,2b52 <tcp_receive+0xc52>
    244a:	8f15                	sub	a4,a4,a3
    244c:	0ae05163          	blez	a4,24ee <tcp_receive+0x5ee>
    2450:	07144683          	lbu	a3,113(s0)
    2454:	07044703          	lbu	a4,112(s0)
    2458:	06a2                	slli	a3,a3,0x8
    245a:	8ed9                	or	a3,a3,a4
    245c:	07244703          	lbu	a4,114(s0)
    2460:	0742                	slli	a4,a4,0x10
    2462:	8ed9                	or	a3,a3,a4
    2464:	07344703          	lbu	a4,115(s0)
    2468:	0762                	slli	a4,a4,0x18
    246a:	8f55                	or	a4,a4,a3
    246c:	4b18                	lw	a4,16(a4)
    246e:	00574783          	lbu	a5,5(a4)
    2472:	00474683          	lbu	a3,4(a4)
    2476:	07a2                	slli	a5,a5,0x8
    2478:	8fd5                	or	a5,a5,a3
    247a:	8f89                	sub	a5,a5,a0
    247c:	1fffe717          	auipc	a4,0x1fffe
    2480:	ccf71623          	sh	a5,-820(a4) # 20000148 <inseg+0xc>
    2484:	01092783          	lw	a5,16(s2)
    2488:	00c7c503          	lbu	a0,12(a5)
    248c:	00d7c783          	lbu	a5,13(a5)
    2490:	07a2                	slli	a5,a5,0x8
    2492:	8d5d                	or	a0,a0,a5
    2494:	20021097          	auipc	ra,0x20021
    2498:	2ec080e7          	jalr	748(ra) # 20023780 <ntohs>
    249c:	8909                	andi	a0,a0,2
    249e:	c901                	beqz	a0,24ae <tcp_receive+0x5ae>
    24a0:	00c95783          	lhu	a5,12(s2)
    24a4:	17fd                	addi	a5,a5,-1
    24a6:	1fffe717          	auipc	a4,0x1fffe
    24aa:	caf71123          	sh	a5,-862(a4) # 20000148 <inseg+0xc>
    24ae:	00492503          	lw	a0,4(s2)
    24b2:	1fffe597          	auipc	a1,0x1fffe
    24b6:	c965d583          	lhu	a1,-874(a1) # 20000148 <inseg+0xc>
    24ba:	769040ef          	jal	ra,7422 <pbuf_realloc>
    24be:	01092783          	lw	a5,16(s2)
    24c2:	1fffea17          	auipc	s4,0x1fffe
    24c6:	c86a5a03          	lhu	s4,-890(s4) # 20000148 <inseg+0xc>
    24ca:	00c7c503          	lbu	a0,12(a5)
    24ce:	00d7c783          	lbu	a5,13(a5)
    24d2:	07a2                	slli	a5,a5,0x8
    24d4:	8d5d                	or	a0,a0,a5
    24d6:	20021097          	auipc	ra,0x20021
    24da:	2aa080e7          	jalr	682(ra) # 20023780 <ntohs>
    24de:	890d                	andi	a0,a0,3
    24e0:	00a03533          	snez	a0,a0
    24e4:	9a2a                	add	s4,s4,a0
    24e6:	1fffe797          	auipc	a5,0x1fffe
    24ea:	c3479323          	sh	s4,-986(a5) # 2000010c <tcplen>
    24ee:	0089d793          	srli	a5,s3,0x8
    24f2:	07340823          	sb	s3,112(s0)
    24f6:	06f408a3          	sb	a5,113(s0)
    24fa:	0109d793          	srli	a5,s3,0x10
    24fe:	0189d993          	srli	s3,s3,0x18
    2502:	06f40923          	sb	a5,114(s0)
    2506:	073409a3          	sb	s3,115(s0)
    250a:	ab61                	j	2aa2 <tcp_receive+0xba2>
    250c:	bce791e3          	bne	a5,a4,20ce <tcp_receive+0x1ce>
    2510:	8522                	mv	a0,s0
    2512:	298030ef          	jal	ra,57aa <tcp_rexmit_fast>
    2516:	be65                	j	20ce <tcp_receive+0x1ce>
    2518:	040405a3          	sb	zero,75(s0)
    251c:	be4d                	j	20ce <tcp_receive+0x1ce>
    251e:	05144603          	lbu	a2,81(s0)
    2522:	05044683          	lbu	a3,80(s0)
    2526:	0622                	slli	a2,a2,0x8
    2528:	8e55                	or	a2,a2,a3
    252a:	05244683          	lbu	a3,82(s0)
    252e:	06c2                	slli	a3,a3,0x10
    2530:	8e55                	or	a2,a2,a3
    2532:	05344683          	lbu	a3,83(s0)
    2536:	06e2                	slli	a3,a3,0x18
    2538:	8ed1                	or	a3,a3,a2
    253a:	40d786b3          	sub	a3,a5,a3
    253e:	28d04863          	bgtz	a3,27ce <tcp_receive+0x8ce>
    2542:	02144683          	lbu	a3,33(s0)
    2546:	0046f613          	andi	a2,a3,4
    254a:	ce19                	beqz	a2,2568 <tcp_receive+0x668>
    254c:	9aed                	andi	a3,a3,-5
    254e:	02d400a3          	sb	a3,33(s0)
    2552:	04f44683          	lbu	a3,79(s0)
    2556:	04e44603          	lbu	a2,78(s0)
    255a:	06a2                	slli	a3,a3,0x8
    255c:	8ed1                	or	a3,a3,a2
    255e:	04d40623          	sb	a3,76(s0)
    2562:	82a1                	srli	a3,a3,0x8
    2564:	04d406a3          	sb	a3,77(s0)
    2568:	04144683          	lbu	a3,65(s0)
    256c:	04044603          	lbu	a2,64(s0)
    2570:	04244583          	lbu	a1,66(s0)
    2574:	06a2                	slli	a3,a3,0x8
    2576:	8ed1                	or	a3,a3,a2
    2578:	06c2                	slli	a3,a3,0x10
    257a:	86c1                	srai	a3,a3,0x10
    257c:	4036d613          	srai	a2,a3,0x3
    2580:	04344683          	lbu	a3,67(s0)
    2584:	0742                	slli	a4,a4,0x10
    2586:	8341                	srli	a4,a4,0x10
    2588:	06a2                	slli	a3,a3,0x8
    258a:	8ecd                	or	a3,a3,a1
    258c:	96b2                	add	a3,a3,a2
    258e:	06c2                	slli	a3,a3,0x10
    2590:	82c1                	srli	a3,a3,0x10
    2592:	04d40223          	sb	a3,68(s0)
    2596:	82a1                	srli	a3,a3,0x8
    2598:	04d402a3          	sb	a3,69(s0)
    259c:	00875693          	srli	a3,a4,0x8
    25a0:	06d401a3          	sb	a3,99(s0)
    25a4:	06544683          	lbu	a3,101(s0)
    25a8:	06444603          	lbu	a2,100(s0)
    25ac:	06e40123          	sb	a4,98(s0)
    25b0:	06a2                	slli	a3,a3,0x8
    25b2:	8ed1                	or	a3,a3,a2
    25b4:	9736                	add	a4,a4,a3
    25b6:	0742                	slli	a4,a4,0x10
    25b8:	8341                	srli	a4,a4,0x10
    25ba:	06e40223          	sb	a4,100(s0)
    25be:	8321                	srli	a4,a4,0x8
    25c0:	06e402a3          	sb	a4,101(s0)
    25c4:	0087d713          	srli	a4,a5,0x8
    25c8:	04e40423          	sb	a4,72(s0)
    25cc:	0107d713          	srli	a4,a5,0x10
    25d0:	04f403a3          	sb	a5,71(s0)
    25d4:	04e404a3          	sb	a4,73(s0)
    25d8:	83e1                	srli	a5,a5,0x18
    25da:	01144703          	lbu	a4,17(s0)
    25de:	04f40523          	sb	a5,74(s0)
    25e2:	01044783          	lbu	a5,16(s0)
    25e6:	0722                	slli	a4,a4,0x8
    25e8:	04040323          	sb	zero,70(s0)
    25ec:	8f5d                	or	a4,a4,a5
    25ee:	01244783          	lbu	a5,18(s0)
    25f2:	040405a3          	sb	zero,75(s0)
    25f6:	07c2                	slli	a5,a5,0x10
    25f8:	8f5d                	or	a4,a4,a5
    25fa:	01344783          	lbu	a5,19(s0)
    25fe:	07e2                	slli	a5,a5,0x18
    2600:	8fd9                	or	a5,a5,a4
    2602:	470d                	li	a4,3
    2604:	04f77063          	bgeu	a4,a5,2644 <tcp_receive+0x744>
    2608:	04d44703          	lbu	a4,77(s0)
    260c:	04c44783          	lbu	a5,76(s0)
    2610:	03644683          	lbu	a3,54(s0)
    2614:	0722                	slli	a4,a4,0x8
    2616:	8f5d                	or	a4,a4,a5
    2618:	03744783          	lbu	a5,55(s0)
    261c:	04e44603          	lbu	a2,78(s0)
    2620:	07a2                	slli	a5,a5,0x8
    2622:	8fd5                	or	a5,a5,a3
    2624:	04f44683          	lbu	a3,79(s0)
    2628:	06a2                	slli	a3,a3,0x8
    262a:	8ed1                	or	a3,a3,a2
    262c:	06d77763          	bgeu	a4,a3,269a <tcp_receive+0x79a>
    2630:	97ba                	add	a5,a5,a4
    2632:	07c2                	slli	a5,a5,0x10
    2634:	83c1                	srli	a5,a5,0x10
    2636:	00f77763          	bgeu	a4,a5,2644 <tcp_receive+0x744>
    263a:	04f40623          	sb	a5,76(s0)
    263e:	83a1                	srli	a5,a5,0x8
    2640:	04f406a3          	sb	a5,77(s0)
    2644:	06d44703          	lbu	a4,109(s0)
    2648:	06c44783          	lbu	a5,108(s0)
    264c:	0722                	slli	a4,a4,0x8
    264e:	8f5d                	or	a4,a4,a5
    2650:	06e44783          	lbu	a5,110(s0)
    2654:	07c2                	slli	a5,a5,0x10
    2656:	8f5d                	or	a4,a4,a5
    2658:	06f44783          	lbu	a5,111(s0)
    265c:	07e2                	slli	a5,a5,0x18
    265e:	8fd9                	or	a5,a5,a4
    2660:	e3b1                	bnez	a5,26a4 <tcp_receive+0x7a4>
    2662:	06d44703          	lbu	a4,109(s0)
    2666:	06c44783          	lbu	a5,108(s0)
    266a:	02040923          	sb	zero,50(s0)
    266e:	0722                	slli	a4,a4,0x8
    2670:	8f5d                	or	a4,a4,a5
    2672:	06e44783          	lbu	a5,110(s0)
    2676:	07c2                	slli	a5,a5,0x10
    2678:	8f5d                	or	a4,a4,a5
    267a:	06f44783          	lbu	a5,111(s0)
    267e:	07e2                	slli	a5,a5,0x18
    2680:	8fd9                	or	a5,a5,a4
    2682:	0017b793          	seqz	a5,a5
    2686:	40f007b3          	neg	a5,a5
    268a:	07c2                	slli	a5,a5,0x10
    268c:	83c1                	srli	a5,a5,0x10
    268e:	02f40a23          	sb	a5,52(s0)
    2692:	83a1                	srli	a5,a5,0x8
    2694:	02f40aa3          	sb	a5,53(s0)
    2698:	bc1d                	j	20ce <tcp_receive+0x1ce>
    269a:	02f787b3          	mul	a5,a5,a5
    269e:	02e7c7b3          	div	a5,a5,a4
    26a2:	b779                	j	2630 <tcp_receive+0x730>
    26a4:	4b98                	lw	a4,16(a5)
    26a6:	00574503          	lbu	a0,5(a4)
    26aa:	00474783          	lbu	a5,4(a4)
    26ae:	0522                	slli	a0,a0,0x8
    26b0:	8d5d                	or	a0,a0,a5
    26b2:	00674783          	lbu	a5,6(a4)
    26b6:	07c2                	slli	a5,a5,0x10
    26b8:	8fc9                	or	a5,a5,a0
    26ba:	00774503          	lbu	a0,7(a4)
    26be:	0562                	slli	a0,a0,0x18
    26c0:	8d5d                	or	a0,a0,a5
    26c2:	20021097          	auipc	ra,0x20021
    26c6:	0f0080e7          	jalr	240(ra) # 200237b2 <ntohl>
    26ca:	06d44703          	lbu	a4,109(s0)
    26ce:	06c44783          	lbu	a5,108(s0)
    26d2:	89aa                	mv	s3,a0
    26d4:	0722                	slli	a4,a4,0x8
    26d6:	8f5d                	or	a4,a4,a5
    26d8:	06e44783          	lbu	a5,110(s0)
    26dc:	07c2                	slli	a5,a5,0x10
    26de:	8f5d                	or	a4,a4,a5
    26e0:	06f44783          	lbu	a5,111(s0)
    26e4:	07e2                	slli	a5,a5,0x18
    26e6:	8fd9                	or	a5,a5,a4
    26e8:	00c7da03          	lhu	s4,12(a5)
    26ec:	4b9c                	lw	a5,16(a5)
    26ee:	00c7c503          	lbu	a0,12(a5)
    26f2:	00d7c783          	lbu	a5,13(a5)
    26f6:	07a2                	slli	a5,a5,0x8
    26f8:	8d5d                	or	a0,a0,a5
    26fa:	20021097          	auipc	ra,0x20021
    26fe:	086080e7          	jalr	134(ra) # 20023780 <ntohs>
    2702:	00092783          	lw	a5,0(s2)
    2706:	890d                	andi	a0,a0,3
    2708:	00a03533          	snez	a0,a0
    270c:	9552                	add	a0,a0,s4
    270e:	40f989b3          	sub	s3,s3,a5
    2712:	954e                	add	a0,a0,s3
    2714:	f4a047e3          	bgtz	a0,2662 <tcp_receive+0x762>
    2718:	06d44783          	lbu	a5,109(s0)
    271c:	06c44983          	lbu	s3,108(s0)
    2720:	06244703          	lbu	a4,98(s0)
    2724:	07a2                	slli	a5,a5,0x8
    2726:	0137e7b3          	or	a5,a5,s3
    272a:	06e44983          	lbu	s3,110(s0)
    272e:	09c2                	slli	s3,s3,0x10
    2730:	00f9e7b3          	or	a5,s3,a5
    2734:	06f44983          	lbu	s3,111(s0)
    2738:	09e2                	slli	s3,s3,0x18
    273a:	00f9e9b3          	or	s3,s3,a5
    273e:	0009c783          	lbu	a5,0(s3)
    2742:	06f40623          	sb	a5,108(s0)
    2746:	0019c783          	lbu	a5,1(s3)
    274a:	06f406a3          	sb	a5,109(s0)
    274e:	0029c783          	lbu	a5,2(s3)
    2752:	06f40723          	sb	a5,110(s0)
    2756:	0039c783          	lbu	a5,3(s3)
    275a:	06f407a3          	sb	a5,111(s0)
    275e:	06344783          	lbu	a5,99(s0)
    2762:	07a2                	slli	a5,a5,0x8
    2764:	8fd9                	or	a5,a5,a4
    2766:	cf8d                	beqz	a5,27a0 <tcp_receive+0x8a0>
    2768:	0109a783          	lw	a5,16(s3)
    276c:	00c7c503          	lbu	a0,12(a5)
    2770:	00d7c783          	lbu	a5,13(a5)
    2774:	07a2                	slli	a5,a5,0x8
    2776:	8d5d                	or	a0,a0,a5
    2778:	20021097          	auipc	ra,0x20021
    277c:	008080e7          	jalr	8(ra) # 20023780 <ntohs>
    2780:	8905                	andi	a0,a0,1
    2782:	cd19                	beqz	a0,27a0 <tcp_receive+0x8a0>
    2784:	06344783          	lbu	a5,99(s0)
    2788:	06244703          	lbu	a4,98(s0)
    278c:	07a2                	slli	a5,a5,0x8
    278e:	8fd9                	or	a5,a5,a4
    2790:	17fd                	addi	a5,a5,-1
    2792:	07c2                	slli	a5,a5,0x10
    2794:	83c1                	srli	a5,a5,0x10
    2796:	06f40123          	sb	a5,98(s0)
    279a:	83a1                	srli	a5,a5,0x8
    279c:	06f401a3          	sb	a5,99(s0)
    27a0:	0049a503          	lw	a0,4(s3)
    27a4:	575040ef          	jal	ra,7518 <pbuf_clen>
    27a8:	06744783          	lbu	a5,103(s0)
    27ac:	06644703          	lbu	a4,102(s0)
    27b0:	07a2                	slli	a5,a5,0x8
    27b2:	8fd9                	or	a5,a5,a4
    27b4:	40a78533          	sub	a0,a5,a0
    27b8:	0542                	slli	a0,a0,0x10
    27ba:	8141                	srli	a0,a0,0x10
    27bc:	06a40323          	sb	a0,102(s0)
    27c0:	8121                	srli	a0,a0,0x8
    27c2:	06a403a3          	sb	a0,103(s0)
    27c6:	854e                	mv	a0,s3
    27c8:	9cafe0ef          	jal	ra,992 <tcp_seg_free>
    27cc:	bda5                	j	2644 <tcp_receive+0x744>
    27ce:	06040123          	sb	zero,98(s0)
    27d2:	060401a3          	sb	zero,99(s0)
    27d6:	b8e5                	j	20ce <tcp_receive+0x1ce>
    27d8:	4b94                	lw	a3,16(a5)
    27da:	00092983          	lw	s3,0(s2)
    27de:	0056c503          	lbu	a0,5(a3)
    27e2:	0046c703          	lbu	a4,4(a3)
    27e6:	0522                	slli	a0,a0,0x8
    27e8:	8d59                	or	a0,a0,a4
    27ea:	0066c703          	lbu	a4,6(a3)
    27ee:	0742                	slli	a4,a4,0x10
    27f0:	8f49                	or	a4,a4,a0
    27f2:	0076c503          	lbu	a0,7(a3)
    27f6:	0562                	slli	a0,a0,0x18
    27f8:	8d59                	or	a0,a0,a4
    27fa:	20021097          	auipc	ra,0x20021
    27fe:	fb8080e7          	jalr	-72(ra) # 200237b2 <ntohl>
    2802:	06944703          	lbu	a4,105(s0)
    2806:	06844783          	lbu	a5,104(s0)
    280a:	8aaa                	mv	s5,a0
    280c:	0722                	slli	a4,a4,0x8
    280e:	8fd9                	or	a5,a5,a4
    2810:	06a44703          	lbu	a4,106(s0)
    2814:	0742                	slli	a4,a4,0x10
    2816:	8f5d                	or	a4,a4,a5
    2818:	06b44783          	lbu	a5,107(s0)
    281c:	07e2                	slli	a5,a5,0x18
    281e:	8fd9                	or	a5,a5,a4
    2820:	4b98                	lw	a4,16(a5)
    2822:	00c7da03          	lhu	s4,12(a5)
    2826:	00c74503          	lbu	a0,12(a4)
    282a:	00d74703          	lbu	a4,13(a4)
    282e:	0722                	slli	a4,a4,0x8
    2830:	8d59                	or	a0,a0,a4
    2832:	20021097          	auipc	ra,0x20021
    2836:	f4e080e7          	jalr	-178(ra) # 20023780 <ntohs>
    283a:	890d                	andi	a0,a0,3
    283c:	00a03533          	snez	a0,a0
    2840:	415987b3          	sub	a5,s3,s5
    2844:	9552                	add	a0,a0,s4
    2846:	8f89                	sub	a5,a5,a0
    2848:	8a07c3e3          	bltz	a5,20ee <tcp_receive+0x1ee>
    284c:	05144703          	lbu	a4,81(s0)
    2850:	05044783          	lbu	a5,80(s0)
    2854:	0722                	slli	a4,a4,0x8
    2856:	8f5d                	or	a4,a4,a5
    2858:	05244783          	lbu	a5,82(s0)
    285c:	07c2                	slli	a5,a5,0x10
    285e:	8f5d                	or	a4,a4,a5
    2860:	05344783          	lbu	a5,83(s0)
    2864:	07e2                	slli	a5,a5,0x18
    2866:	8fd9                	or	a5,a5,a4
    2868:	00092703          	lw	a4,0(s2)
    286c:	40f707b3          	sub	a5,a4,a5
    2870:	86f04fe3          	bgtz	a5,20ee <tcp_receive+0x1ee>
    2874:	06944783          	lbu	a5,105(s0)
    2878:	06844983          	lbu	s3,104(s0)
    287c:	06244703          	lbu	a4,98(s0)
    2880:	07a2                	slli	a5,a5,0x8
    2882:	0137e7b3          	or	a5,a5,s3
    2886:	06a44983          	lbu	s3,106(s0)
    288a:	09c2                	slli	s3,s3,0x10
    288c:	00f9e7b3          	or	a5,s3,a5
    2890:	06b44983          	lbu	s3,107(s0)
    2894:	09e2                	slli	s3,s3,0x18
    2896:	00f9e9b3          	or	s3,s3,a5
    289a:	0009c783          	lbu	a5,0(s3)
    289e:	06f40423          	sb	a5,104(s0)
    28a2:	0019c783          	lbu	a5,1(s3)
    28a6:	06f404a3          	sb	a5,105(s0)
    28aa:	0029c783          	lbu	a5,2(s3)
    28ae:	06f40523          	sb	a5,106(s0)
    28b2:	0039c783          	lbu	a5,3(s3)
    28b6:	06f405a3          	sb	a5,107(s0)
    28ba:	06344783          	lbu	a5,99(s0)
    28be:	07a2                	slli	a5,a5,0x8
    28c0:	8fd9                	or	a5,a5,a4
    28c2:	cf8d                	beqz	a5,28fc <tcp_receive+0x9fc>
    28c4:	0109a783          	lw	a5,16(s3)
    28c8:	00c7c503          	lbu	a0,12(a5)
    28cc:	00d7c783          	lbu	a5,13(a5)
    28d0:	07a2                	slli	a5,a5,0x8
    28d2:	8d5d                	or	a0,a0,a5
    28d4:	20021097          	auipc	ra,0x20021
    28d8:	eac080e7          	jalr	-340(ra) # 20023780 <ntohs>
    28dc:	8905                	andi	a0,a0,1
    28de:	cd19                	beqz	a0,28fc <tcp_receive+0x9fc>
    28e0:	06344783          	lbu	a5,99(s0)
    28e4:	06244703          	lbu	a4,98(s0)
    28e8:	07a2                	slli	a5,a5,0x8
    28ea:	8fd9                	or	a5,a5,a4
    28ec:	17fd                	addi	a5,a5,-1
    28ee:	07c2                	slli	a5,a5,0x10
    28f0:	83c1                	srli	a5,a5,0x10
    28f2:	06f40123          	sb	a5,98(s0)
    28f6:	83a1                	srli	a5,a5,0x8
    28f8:	06f401a3          	sb	a5,99(s0)
    28fc:	0049a503          	lw	a0,4(s3)
    2900:	419040ef          	jal	ra,7518 <pbuf_clen>
    2904:	06744783          	lbu	a5,103(s0)
    2908:	06644703          	lbu	a4,102(s0)
    290c:	07a2                	slli	a5,a5,0x8
    290e:	8fd9                	or	a5,a5,a4
    2910:	40a78533          	sub	a0,a5,a0
    2914:	0542                	slli	a0,a0,0x10
    2916:	8141                	srli	a0,a0,0x10
    2918:	06a40323          	sb	a0,102(s0)
    291c:	8121                	srli	a0,a0,0x8
    291e:	06a403a3          	sb	a0,103(s0)
    2922:	854e                	mv	a0,s3
    2924:	86efe0ef          	jal	ra,992 <tcp_seg_free>
    2928:	fa6ff06f          	j	20ce <tcp_receive+0x1ce>
    292c:	03d44703          	lbu	a4,61(s0)
    2930:	03c44783          	lbu	a5,60(s0)
    2934:	0722                	slli	a4,a4,0x8
    2936:	8f5d                	or	a4,a4,a5
    2938:	03e44783          	lbu	a5,62(s0)
    293c:	07c2                	slli	a5,a5,0x10
    293e:	8f5d                	or	a4,a4,a5
    2940:	03f44783          	lbu	a5,63(s0)
    2944:	07e2                	slli	a5,a5,0x18
    2946:	8fd9                	or	a5,a5,a4
    2948:	00092703          	lw	a4,0(s2)
    294c:	8f99                	sub	a5,a5,a4
    294e:	fc07d063          	bgez	a5,210e <tcp_receive+0x20e>
    2952:	04144683          	lbu	a3,65(s0)
    2956:	04044583          	lbu	a1,64(s0)
    295a:	0642                	slli	a2,a2,0x10
    295c:	06a2                	slli	a3,a3,0x8
    295e:	8ecd                	or	a3,a3,a1
    2960:	01069593          	slli	a1,a3,0x10
    2964:	85c1                	srai	a1,a1,0x10
    2966:	4035d513          	srai	a0,a1,0x3
    296a:	1fffe797          	auipc	a5,0x1fffe
    296e:	5467d783          	lhu	a5,1350(a5) # 20000eb0 <tcp_ticks>
    2972:	8241                	srli	a2,a2,0x10
    2974:	0542                	slli	a0,a0,0x10
    2976:	8141                	srli	a0,a0,0x10
    2978:	40c786b3          	sub	a3,a5,a2
    297c:	8e89                	sub	a3,a3,a0
    297e:	06c2                	slli	a3,a3,0x10
    2980:	82c1                	srli	a3,a3,0x10
    2982:	01069813          	slli	a6,a3,0x10
    2986:	96ae                	add	a3,a3,a1
    2988:	06c2                	slli	a3,a3,0x10
    298a:	86c1                	srai	a3,a3,0x10
    298c:	01069593          	slli	a1,a3,0x10
    2990:	81c1                	srli	a1,a1,0x10
    2992:	04b40023          	sb	a1,64(s0)
    2996:	81a1                	srli	a1,a1,0x8
    2998:	41085813          	srai	a6,a6,0x10
    299c:	04b400a3          	sb	a1,65(s0)
    29a0:	00085863          	bgez	a6,29b0 <tcp_receive+0xab0>
    29a4:	8e1d                	sub	a2,a2,a5
    29a6:	962a                	add	a2,a2,a0
    29a8:	01061813          	slli	a6,a2,0x10
    29ac:	41085813          	srai	a6,a6,0x10
    29b0:	04344703          	lbu	a4,67(s0)
    29b4:	04244783          	lbu	a5,66(s0)
    29b8:	868d                	srai	a3,a3,0x3
    29ba:	0722                	slli	a4,a4,0x8
    29bc:	8f5d                	or	a4,a4,a5
    29be:	0742                	slli	a4,a4,0x10
    29c0:	8741                	srai	a4,a4,0x10
    29c2:	40275793          	srai	a5,a4,0x2
    29c6:	40f707b3          	sub	a5,a4,a5
    29ca:	97c2                	add	a5,a5,a6
    29cc:	07c2                	slli	a5,a5,0x10
    29ce:	83c1                	srli	a5,a5,0x10
    29d0:	01079713          	slli	a4,a5,0x10
    29d4:	97b6                	add	a5,a5,a3
    29d6:	07c2                	slli	a5,a5,0x10
    29d8:	8341                	srli	a4,a4,0x10
    29da:	83c1                	srli	a5,a5,0x10
    29dc:	04e40123          	sb	a4,66(s0)
    29e0:	04f40223          	sb	a5,68(s0)
    29e4:	8321                	srli	a4,a4,0x8
    29e6:	83a1                	srli	a5,a5,0x8
    29e8:	04e401a3          	sb	a4,67(s0)
    29ec:	04f402a3          	sb	a5,69(s0)
    29f0:	02040c23          	sb	zero,56(s0)
    29f4:	02040ca3          	sb	zero,57(s0)
    29f8:	02040d23          	sb	zero,58(s0)
    29fc:	02040da3          	sb	zero,59(s0)
    2a00:	f0eff06f          	j	210e <tcp_receive+0x20e>
    2a04:	8d99                	sub	a1,a1,a4
    2a06:	00194703          	lbu	a4,1(s2)
    2a0a:	00094683          	lbu	a3,0(s2)
    2a0e:	00c90423          	sb	a2,8(s2)
    2a12:	0722                	slli	a4,a4,0x8
    2a14:	8ed9                	or	a3,a3,a4
    2a16:	00294703          	lbu	a4,2(s2)
    2a1a:	00f904a3          	sb	a5,9(s2)
    2a1e:	00090523          	sb	zero,10(s2)
    2a22:	000905a3          	sb	zero,11(s2)
    2a26:	00394903          	lbu	s2,3(s2)
    2a2a:	0742                	slli	a4,a4,0x10
    2a2c:	8f55                	or	a4,a4,a3
    2a2e:	0962                	slli	s2,s2,0x18
    2a30:	00e96933          	or	s2,s2,a4
    2a34:	f56ff06f          	j	218a <tcp_receive+0x28a>
    2a38:	40d006b3          	neg	a3,a3
    2a3c:	01069593          	slli	a1,a3,0x10
    2a40:	f60ff06f          	j	21a0 <tcp_receive+0x2a0>
    2a44:	8f99                	sub	a5,a5,a4
    2a46:	fc07dd63          	bgez	a5,2220 <tcp_receive+0x320>
    2a4a:	02144783          	lbu	a5,33(s0)
    2a4e:	8522                	mv	a0,s0
    2a50:	0027e793          	ori	a5,a5,2
    2a54:	02f400a3          	sb	a5,33(s0)
    2a58:	39e020ef          	jal	ra,4df6 <tcp_output>
    2a5c:	fc4ff06f          	j	2220 <tcp_receive+0x320>
    2a60:	00054783          	lbu	a5,0(a0)
    2a64:	06f40823          	sb	a5,112(s0)
    2a68:	00154783          	lbu	a5,1(a0)
    2a6c:	06f408a3          	sb	a5,113(s0)
    2a70:	00254783          	lbu	a5,2(a0)
    2a74:	06f40923          	sb	a5,114(s0)
    2a78:	00354783          	lbu	a5,3(a0)
    2a7c:	06f409a3          	sb	a5,115(s0)
    2a80:	f13fd0ef          	jal	ra,992 <tcp_seg_free>
    2a84:	07144783          	lbu	a5,113(s0)
    2a88:	07044503          	lbu	a0,112(s0)
    2a8c:	07a2                	slli	a5,a5,0x8
    2a8e:	8fc9                	or	a5,a5,a0
    2a90:	07244503          	lbu	a0,114(s0)
    2a94:	0542                	slli	a0,a0,0x10
    2a96:	8fc9                	or	a5,a5,a0
    2a98:	07344503          	lbu	a0,115(s0)
    2a9c:	0562                	slli	a0,a0,0x18
    2a9e:	8d5d                	or	a0,a0,a5
    2aa0:	f161                	bnez	a0,2a60 <tcp_receive+0xb60>
    2aa2:	4098                	lw	a4,0(s1)
    2aa4:	1fffd697          	auipc	a3,0x1fffd
    2aa8:	6686d683          	lhu	a3,1640(a3) # 2000010c <tcplen>
    2aac:	8522                	mv	a0,s0
    2aae:	9736                	add	a4,a4,a3
    2ab0:	00875793          	srli	a5,a4,0x8
    2ab4:	02f401a3          	sb	a5,35(s0)
    2ab8:	01075793          	srli	a5,a4,0x10
    2abc:	02e40123          	sb	a4,34(s0)
    2ac0:	02f40223          	sb	a5,36(s0)
    2ac4:	8361                	srli	a4,a4,0x18
    2ac6:	02744783          	lbu	a5,39(s0)
    2aca:	02e402a3          	sb	a4,37(s0)
    2ace:	02644703          	lbu	a4,38(s0)
    2ad2:	07a2                	slli	a5,a5,0x8
    2ad4:	8fd9                	or	a5,a5,a4
    2ad6:	8f95                	sub	a5,a5,a3
    2ad8:	07c2                	slli	a5,a5,0x10
    2ada:	83c1                	srli	a5,a5,0x10
    2adc:	02f40323          	sb	a5,38(s0)
    2ae0:	83a1                	srli	a5,a5,0x8
    2ae2:	02f403a3          	sb	a5,39(s0)
    2ae6:	d9bfd0ef          	jal	ra,880 <tcp_update_rcv_ann_wnd>
    2aea:	00492703          	lw	a4,4(s2)
    2aee:	00974783          	lbu	a5,9(a4)
    2af2:	00874683          	lbu	a3,8(a4)
    2af6:	07a2                	slli	a5,a5,0x8
    2af8:	8fd5                	or	a5,a5,a3
    2afa:	cb89                	beqz	a5,2b0c <tcp_receive+0xc0c>
    2afc:	1fffd797          	auipc	a5,0x1fffd
    2b00:	60e7a023          	sw	a4,1536(a5) # 200000fc <recv_data>
    2b04:	1fffd797          	auipc	a5,0x1fffd
    2b08:	6207ae23          	sw	zero,1596(a5) # 20000140 <inseg+0x4>
    2b0c:	01092783          	lw	a5,16(s2)
    2b10:	00c7c503          	lbu	a0,12(a5)
    2b14:	00d7c783          	lbu	a5,13(a5)
    2b18:	07a2                	slli	a5,a5,0x8
    2b1a:	8d5d                	or	a0,a0,a5
    2b1c:	20021097          	auipc	ra,0x20021
    2b20:	c64080e7          	jalr	-924(ra) # 20023780 <ntohs>
    2b24:	8905                	andi	a0,a0,1
    2b26:	c919                	beqz	a0,2b3c <tcp_receive+0xc3c>
    2b28:	1fffd797          	auipc	a5,0x1fffd
    2b2c:	5d87c783          	lbu	a5,1496(a5) # 20000100 <recv_flags>
    2b30:	0207e793          	ori	a5,a5,32
    2b34:	1fffd717          	auipc	a4,0x1fffd
    2b38:	5cf70623          	sb	a5,1484(a4) # 20000100 <recv_flags>
    2b3c:	1fffd917          	auipc	s2,0x1fffd
    2b40:	5c090913          	addi	s2,s2,1472 # 200000fc <recv_data>
    2b44:	1fffd997          	auipc	s3,0x1fffd
    2b48:	5bc98993          	addi	s3,s3,1468 # 20000100 <recv_flags>
    2b4c:	4a11                	li	s4,4
    2b4e:	4a9d                	li	s5,7
    2b50:	a429                	j	2d5a <tcp_receive+0xe5a>
    2b52:	00d64783          	lbu	a5,13(a2)
    2b56:	00c64503          	lbu	a0,12(a2)
    2b5a:	07a2                	slli	a5,a5,0x8
    2b5c:	8d5d                	or	a0,a0,a5
    2b5e:	20021097          	auipc	ra,0x20021
    2b62:	c22080e7          	jalr	-990(ra) # 20023780 <ntohs>
    2b66:	8905                	andi	a0,a0,1
    2b68:	cd59                	beqz	a0,2c06 <tcp_receive+0xd06>
    2b6a:	01092783          	lw	a5,16(s2)
    2b6e:	00c7c503          	lbu	a0,12(a5)
    2b72:	00d7c783          	lbu	a5,13(a5)
    2b76:	07a2                	slli	a5,a5,0x8
    2b78:	8d5d                	or	a0,a0,a5
    2b7a:	20021097          	auipc	ra,0x20021
    2b7e:	c06080e7          	jalr	-1018(ra) # 20023780 <ntohs>
    2b82:	8909                	andi	a0,a0,2
    2b84:	e149                	bnez	a0,2c06 <tcp_receive+0xd06>
    2b86:	01092783          	lw	a5,16(s2)
    2b8a:	00d7ca03          	lbu	s4,13(a5)
    2b8e:	00c7c503          	lbu	a0,12(a5)
    2b92:	0a22                	slli	s4,s4,0x8
    2b94:	00aa6a33          	or	s4,s4,a0
    2b98:	8556                	mv	a0,s5
    2b9a:	20021097          	auipc	ra,0x20021
    2b9e:	bd8080e7          	jalr	-1064(ra) # 20023772 <htons>
    2ba2:	01092783          	lw	a5,16(s2)
    2ba6:	00aa7a33          	and	s4,s4,a0
    2baa:	00c7c503          	lbu	a0,12(a5)
    2bae:	00d7c783          	lbu	a5,13(a5)
    2bb2:	07a2                	slli	a5,a5,0x8
    2bb4:	8d5d                	or	a0,a0,a5
    2bb6:	20021097          	auipc	ra,0x20021
    2bba:	bca080e7          	jalr	-1078(ra) # 20023780 <ntohs>
    2bbe:	03e57513          	andi	a0,a0,62
    2bc2:	00156513          	ori	a0,a0,1
    2bc6:	20021097          	auipc	ra,0x20021
    2bca:	bac080e7          	jalr	-1108(ra) # 20023772 <htons>
    2bce:	00aa6533          	or	a0,s4,a0
    2bd2:	01092783          	lw	a5,16(s2)
    2bd6:	0542                	slli	a0,a0,0x10
    2bd8:	8141                	srli	a0,a0,0x10
    2bda:	00855713          	srli	a4,a0,0x8
    2bde:	00a78623          	sb	a0,12(a5)
    2be2:	00e786a3          	sb	a4,13(a5)
    2be6:	1fffda17          	auipc	s4,0x1fffd
    2bea:	562a5a03          	lhu	s4,1378(s4) # 20000148 <inseg+0xc>
    2bee:	20021097          	auipc	ra,0x20021
    2bf2:	b92080e7          	jalr	-1134(ra) # 20023780 <ntohs>
    2bf6:	890d                	andi	a0,a0,3
    2bf8:	00a03533          	snez	a0,a0
    2bfc:	9a2a                	add	s4,s4,a0
    2bfe:	1fffd797          	auipc	a5,0x1fffd
    2c02:	51479723          	sh	s4,1294(a5) # 2000010c <tcplen>
    2c06:	0009aa03          	lw	s4,0(s3)
    2c0a:	854e                	mv	a0,s3
    2c0c:	d87fd0ef          	jal	ra,992 <tcp_seg_free>
    2c10:	89d2                	mv	s3,s4
    2c12:	ffaff06f          	j	240c <tcp_receive+0x50c>
    2c16:	1fffd717          	auipc	a4,0x1fffd
    2c1a:	4ef72723          	sw	a5,1262(a4) # 20000104 <seqno>
    2c1e:	00d64783          	lbu	a5,13(a2)
    2c22:	00c64503          	lbu	a0,12(a2)
    2c26:	00c4db03          	lhu	s6,12(s1)
    2c2a:	07a2                	slli	a5,a5,0x8
    2c2c:	8d5d                	or	a0,a0,a5
    2c2e:	20021097          	auipc	ra,0x20021
    2c32:	b52080e7          	jalr	-1198(ra) # 20023780 <ntohs>
    2c36:	02344703          	lbu	a4,35(s0)
