BL51 BANKED LINKER/LOCATER V6.22                                                        03/29/2021  13:59:43  PAGE 1


BL51 BANKED LINKER/LOCATER V6.22, INVOKED BY:
D:\KEIL_V4\C51\BIN\BL51.EXE CH395.obj TO CH395EVT RAMSIZE (256)


MEMORY MODEL: LARGE


INPUT MODULES INCLUDED:
  CH395.obj (CH395)
  D:\KEIL_V4\C51\LIB\C51L.LIB (?C_STARTUP)
  D:\KEIL_V4\C51\LIB\C51L.LIB (?C?COPY)
  D:\KEIL_V4\C51\LIB\C51L.LIB (?C?CLDPTR)
  D:\KEIL_V4\C51\LIB\C51L.LIB (?C?CSTPTR)
  D:\KEIL_V4\C51\LIB\C51L.LIB (?C?ILDIX)
  D:\KEIL_V4\C51\LIB\C51L.LIB (?C?SLCMP)
  D:\KEIL_V4\C51\LIB\C51L.LIB (?C?ULSHR)
  D:\KEIL_V4\C51\LIB\C51L.LIB (?C?LSHL)
  D:\KEIL_V4\C51\LIB\C51L.LIB (?C?LSTXDATA)
  D:\KEIL_V4\C51\LIB\C51L.LIB (?C?LSTKXDATA)
  D:\KEIL_V4\C51\LIB\C51L.LIB (?C?MEMSET)
  D:\KEIL_V4\C51\LIB\C51L.LIB (?C_INIT)


LINK MAP OF MODULE:  CH395EVT (CH395)


            TYPE    BASE      LENGTH    RELOCATION   SEGMENT NAME
            -----------------------------------------------------

            * * * * * * *   D A T A   M E M O R Y   * * * * * * *
            REG     0000H     0008H     ABSOLUTE     "REG BANK 0"
            IDATA   0008H     0001H     UNIT         ?STACK

            * * * * * * *  X D A T A   M E M O R Y  * * * * * * *
            XDATA   0000H     0245H     UNIT         ?XD?CH395
            XDATA   0245H     0057H     UNIT         _XDATA_GROUP_
            XDATA   029CH     0014H     UNIT         ?XD?_CH395CRCRET6BIT?CH395
            XDATA   02B0H     000DH     UNIT         ?XD?_CH395UDPSENDTO?CH395
            XDATA   02BDH     0009H     UNIT         ?XD?_CH395CMDSETMACFILT?CH395
            XDATA   02C6H     0006H     UNIT         ?XD?_CH395EEPROMWRITE?CH395
            XDATA   02CCH     0006H     UNIT         ?XD?_CH395EEPROMREAD?CH395
            XDATA   02D2H     0005H     UNIT         ?XD?_CH395CMDSETUARTBAUDRATE?CH395
            XDATA   02D7H     0004H     UNIT         ?XD?_CH395SETSTARTPARA?CH395
            XDATA   02DBH     0004H     UNIT         ?XD?_CH395KEEPLIVEIDLE?CH395
            XDATA   02DFH     0004H     UNIT         ?XD?_CH395KEEPLIVEINTVL?CH395
            XDATA   02E3H     0003H     UNIT         ?XD?_CH395CMDSETIPADDR?CH395
            XDATA   02E6H     0003H     UNIT         ?XD?_CH395CMDSETGWIPADDR?CH395
            XDATA   02E9H     0003H     UNIT         ?XD?_CH395CMDSETMASKADDR?CH395
            XDATA   02ECH     0003H     UNIT         ?XD?_CH395CMDSETMACADDR?CH395
            XDATA   02EFH     0003H     UNIT         ?XD?_CH395CMDGETMACADDR?CH395
            XDATA   02F2H     0003H     UNIT         ?XD?_CH395CMDGETREMOTEIPP?CH395
            XDATA   02F5H     0003H     UNIT         ?XD?_CH395SETSOCKETDESIP?CH395
            XDATA   02F8H     0003H     UNIT         ?XD?_CH395CMDGETSOCKETSTATUS?CH395
            XDATA   02FBH     0003H     UNIT         ?XD?_CH395GETIPINF?CH395

            * * * * * * *   C O D E   M E M O R Y   * * * * * * *
            CODE    0000H     0003H     ABSOLUTE     
            CODE    0003H     01DCH     UNIT         ?C?LIB_CODE
BL51 BANKED LINKER/LOCATER V6.22                                                      03/29/2021  13:59:43  PAGE 2


            CODE    01DFH     0175H     UNIT         ?PR?_CH395CRCRET6BIT?CH395
            CODE    0354H     00EAH     UNIT         ?PR?_CH395SOCKETINTERRUPT?CH395
            CODE    043EH     0093H     UNIT         ?PR?_CH395CMDSETMACFILT?CH395
            CODE    04D1H     008CH     UNIT         ?C_C51STARTUP
            CODE    055DH     0078H     UNIT         ?PR?CH395GLOBALINTERRUPT?CH395
            CODE    05D5H     0057H     UNIT         ?PR?_CH395GETRECVDATA?CH395
            CODE    062CH     0054H     UNIT         ?PR?_CH395UDPSENDTO?CH395
            CODE    0680H     0053H     UNIT         ?PR?_CH395EEPROMWRITE?CH395
            CODE    06D3H     004EH     UNIT         ?PR?_CH395SETSTARTPARA?CH395
            CODE    0721H     004EH     UNIT         ?PR?_CH395KEEPLIVEIDLE?CH395
            CODE    076FH     004EH     UNIT         ?PR?_CH395KEEPLIVEINTVL?CH395
            CODE    07BDH     004DH     UNIT         ?PR?_CH395EEPROMREAD?CH395
            CODE    080AH     0046H     UNIT         ?PR?_CH395SENDDATA?CH395
            CODE    0850H     0041H     UNIT         ?PR?_CH395CMDSETUARTBAUDRATE?CH395
            CODE    0891H     0040H     UNIT         ?PR?_CH395CMDGETSOCKETSTATUS?CH395
            CODE    08D1H     0038H     UNIT         ?PR?_CH395CMDGETREMOTEIPP?CH395
            CODE    0909H     0031H     UNIT         ?PR?_CH395CMDGETMACADDR?CH395
            CODE    093AH     0031H     UNIT         ?PR?_CH395CMDGETUNREACHIPPT?CH395
            CODE    096BH     0031H     UNIT         ?PR?_CH395GETIPINF?CH395
            CODE    099CH     002FH     UNIT         ?PR?MAIN?CH395
            CODE    09CBH     002EH     UNIT         ?PR?_XWRITECH395DATA?CH395
            CODE    09F9H     002EH     UNIT         ?PR?CH395CMDINITCH395?CH395
            CODE    0A27H     0029H     UNIT         ?PR?_CH395TCPCONNECT?CH395
            CODE    0A50H     0029H     UNIT         ?PR?_CH395TCPLISTEN?CH395
            CODE    0A79H     0029H     UNIT         ?PR?_CH395TCPDISCONNECT?CH395
            CODE    0AA2H     0029H     UNIT         ?PR?_CH395DHCPENABLE?CH395
            CODE    0ACBH     0026H     UNIT         ?PR?_CH395OPENSOCKET?CH395
            CODE    0AF1H     0026H     UNIT         ?PR?_CH395CLOSESOCKET?CH395
            CODE    0B17H     0024H     UNIT         ?PR?_CH395CMDSETMACADDR?CH395
            CODE    0B3BH     0022H     UNIT         ?PR?_MDELAYMS?CH395
            CODE    0B5DH     0022H     UNIT         ?PR?INITCH395INFPARAM?CH395
            CODE    0B7FH     0021H     UNIT         ?PR?CH395CMDGETGLOBINTSTATUS_ALL?CH395
            CODE    0BA0H     0020H     UNIT         ?PR?_CH395CMDSETIPADDR?CH395
            CODE    0BC0H     0020H     UNIT         ?PR?_CH395CMDSETGWIPADDR?CH395
            CODE    0BE0H     0020H     UNIT         ?PR?_CH395CMDSETMASKADDR?CH395
            CODE    0C00H     0020H     UNIT         ?PR?_CH395SETSOCKETDESIP?CH395
            CODE    0C20H     001CH     UNIT         ?PR?CH395INIT?CH395
            CODE    0C3CH     001BH     UNIT         ?PR?_CH395GETRECVLENGTH?CH395
            CODE    0C57H     0019H     UNIT         ?PR?_CH395SETSOCKETDESPORT?CH395
            CODE    0C70H     0019H     UNIT         ?PR?_CH395SETSOCKETSOURPORT?CH395
            CODE    0C89H     0017H     UNIT         ?PR?_CH395GETSOCKETINT?CH395
            CODE    0CA0H     0016H     UNIT         ?PR?_CH395CMDSETRETRYPERIOD?CH395
            CODE    0CB6H     0016H     UNIT         ?PR?_CH395SETSOCKETRECVBUF?CH395
            CODE    0CCCH     0016H     UNIT         ?PR?_CH395SETSOCKETSENDBUF?CH395
            CODE    0CE2H     0016H     UNIT         ?PR?INITSOCKETPARAM?CH395
            CODE    0CF8H     0015H     UNIT         ?PR?_CH395READGPIOADDR?CH395
            CODE    0D0DH     0014H     UNIT         ?PR?_CH395SETSOCKETPROTTYPE?CH395
            CODE    0D21H     0014H     UNIT         ?PR?_CH395SETSOCKETIPRAWPROTO?CH395
            CODE    0D35H     0013H     UNIT         ?PR?CH395EEPROMERASE?CH395
            CODE    0D48H     0013H     UNIT         ?PR?_CH395SETTCPMSS?CH395
            CODE    0D5BH     0012H     UNIT         ?PR?CH395SOCKETINITOPEN?CH395
            CODE    0D6DH     0011H     UNIT         ?PR?_CH395WRITEGPIOADDR?CH395
            CODE    0D7EH     0011H     UNIT         ?PR?_CH395SETKEEPLIVE?CH395
            CODE    0D8FH     0011H     UNIT         ?PR?_CH395SETTTLNUM?CH395
            CODE    0DA0H     0011H     UNIT         ?PR?MINITSTDIO?CH395
            CODE    0DB1H     0010H     UNIT         ?PR?CH395GETCMDSTATUS?CH395
            CODE    0DC1H     000FH     UNIT         ?PR?_XWRITECH395CMD?CH395
BL51 BANKED LINKER/LOCATER V6.22                                                      03/29/2021  13:59:43  PAGE 3


            CODE    0DD0H     000FH     UNIT         ?PR?_CH395CMDSETPHY?CH395
            CODE    0DDFH     000FH     UNIT         ?PR?_CH395ENABLEPING?CH395
            CODE    0DEEH     000FH     UNIT         ?PR?_CH395CLEARRECVBUF?CH395
            CODE    0DFDH     000FH     UNIT         ?PR?_CH395CMDSETRETRYCOUNT?CH395
            CODE    0E0CH     000EH     UNIT         ?PR?_MDELAYUS?CH395
            CODE    0E1AH     000EH     UNIT         ?PR?XREADCH395DATA?CH395
            CODE    0E28H     000DH     UNIT         ?PR?_SPI395EXCHANGE?CH395
            CODE    0E35H     000CH     UNIT         ?PR?_CH395KEEPLIVECNT?CH395
            CODE    0E41H     000BH     UNIT         ?PR?CH395CMDGETVER?CH395
            CODE    0E4CH     000BH     UNIT         ?PR?CH395CMDGETPHYSTATUS?CH395
            CODE    0E57H     000BH     UNIT         ?PR?CH395CMDGETGLOBINTSTATUS?CH395
            CODE    0E62H     000BH     UNIT         ?PR?CH395GETDHCPSTATUS?CH395
            CODE    0E6DH     000AH     UNIT         ?PR?_CH395CMDCHECKEXIST?CH395
            CODE    0E77H     000AH     UNIT         ?C_INITSEG
            CODE    0E81H     0009H     UNIT         ?PR?CH395_PORT_INIT?CH395
            CODE    0E8AH     0009H     UNIT         ?PR?_MSTOPIFERROR?CH395
            CODE    0E93H     0008H     UNIT         ?PR?CH395CMDRESET?CH395
            CODE    0E9BH     0008H     UNIT         ?PR?CH395CMDSLEEP?CH395



OVERLAY MAP OF MODULE:   CH395EVT (CH395)


SEGMENT                                          XDATA_GROUP
  +--> CALLED SEGMENT                          START    LENGTH
--------------------------------------------------------------
?C_C51STARTUP                                  -----    -----
  +--> ?PR?MAIN?CH395
  +--> ?C_INITSEG

?PR?MAIN?CH395                                 -----    -----
  +--> ?PR?_MDELAYMS?CH395
  +--> ?PR?MINITSTDIO?CH395
  +--> ?PR?CH395_PORT_INIT?CH395
  +--> ?PR?INITCH395INFPARAM?CH395
  +--> ?PR?CH395INIT?CH395
  +--> ?PR?_MSTOPIFERROR?CH395
  +--> ?PR?CH395CMDGETPHYSTATUS?CH395
  +--> ?PR?INITSOCKETPARAM?CH395
  +--> ?PR?CH395SOCKETINITOPEN?CH395
  +--> ?PR?CH395GLOBALINTERRUPT?CH395

?PR?_MDELAYMS?CH395                            -----    -----
  +--> ?PR?_MDELAYUS?CH395

?PR?CH395INIT?CH395                            -----    -----
  +--> ?PR?_CH395CMDCHECKEXIST?CH395
  +--> ?PR?_MDELAYMS?CH395
  +--> ?PR?CH395CMDINITCH395?CH395

?PR?_CH395CMDCHECKEXIST?CH395                  -----    -----
  +--> ?PR?XREADCH395DATA?CH395

?PR?XREADCH395DATA?CH395                       -----    -----
  +--> ?PR?_XWRITECH395CMD?CH395
  +--> ?PR?_XWRITECH395DATA?CH395
BL51 BANKED LINKER/LOCATER V6.22                                                      03/29/2021  13:59:43  PAGE 4


  +--> ?PR?_SPI395EXCHANGE?CH395

?PR?_XWRITECH395CMD?CH395                      -----    -----
  +--> ?PR?_SPI395EXCHANGE?CH395
  +--> ?PR?_MDELAYUS?CH395

?PR?_XWRITECH395DATA?CH395                     -----    -----
  +--> ?PR?_SPI395EXCHANGE?CH395

?PR?CH395CMDINITCH395?CH395                    0245H    0001H
  +--> ?PR?_XWRITECH395CMD?CH395
  +--> ?PR?_MDELAYMS?CH395
  +--> ?PR?CH395GETCMDSTATUS?CH395

?PR?CH395GETCMDSTATUS?CH395                    -----    -----
  +--> ?PR?_MDELAYMS?CH395
  +--> ?PR?_XWRITECH395CMD?CH395
  +--> ?PR?XREADCH395DATA?CH395

?PR?_MSTOPIFERROR?CH395                        -----    -----
  +--> ?PR?_MDELAYMS?CH395

?PR?CH395CMDGETPHYSTATUS?CH395                 -----    -----
  +--> ?PR?_XWRITECH395CMD?CH395
  +--> ?PR?XREADCH395DATA?CH395

?PR?CH395SOCKETINITOPEN?CH395                  -----    -----
  +--> ?PR?_CH395SETSOCKETPROTTYPE?CH395
  +--> ?PR?_CH395OPENSOCKET?CH395
  +--> ?PR?_MSTOPIFERROR?CH395

?PR?_CH395SETSOCKETPROTTYPE?CH395              -----    -----
  +--> ?PR?_XWRITECH395CMD?CH395
  +--> ?PR?_XWRITECH395DATA?CH395

?PR?_CH395OPENSOCKET?CH395                     -----    -----
  +--> ?PR?_XWRITECH395CMD?CH395
  +--> ?PR?_XWRITECH395DATA?CH395
  +--> ?PR?CH395GETCMDSTATUS?CH395

?PR?CH395GLOBALINTERRUPT?CH395                 0245H    0042H
  +--> ?PR?CH395CMDGETGLOBINTSTATUS_ALL?CH395
  +--> ?PR?_CH395CMDGETUNREACHIPPT?CH395
  +--> ?PR?_CH395SOCKETINTERRUPT?CH395

?PR?CH395CMDGETGLOBINTSTATUS_ALL?CH395         -----    -----
  +--> ?PR?_XWRITECH395CMD?CH395
  +--> ?PR?_MDELAYUS?CH395
  +--> ?PR?XREADCH395DATA?CH395

?PR?_CH395CMDGETUNREACHIPPT?CH395              0287H    0003H
  +--> ?PR?_XWRITECH395CMD?CH395
  +--> ?PR?XREADCH395DATA?CH395

?PR?_CH395SOCKETINTERRUPT?CH395                0287H    000FH
  +--> ?PR?_CH395GETSOCKETINT?CH395
  +--> ?PR?_CH395GETRECVLENGTH?CH395
BL51 BANKED LINKER/LOCATER V6.22                                                      03/29/2021  13:59:43  PAGE 5


  +--> ?PR?_CH395GETRECVDATA?CH395
  +--> ?PR?_CH395SENDDATA?CH395

?PR?_CH395GETSOCKETINT?CH395                   -----    -----
  +--> ?PR?_XWRITECH395CMD?CH395
  +--> ?PR?_XWRITECH395DATA?CH395
  +--> ?PR?_MDELAYUS?CH395
  +--> ?PR?XREADCH395DATA?CH395

?PR?_CH395GETRECVLENGTH?CH395                  -----    -----
  +--> ?PR?XREADCH395DATA?CH395

?PR?_CH395GETRECVDATA?CH395                    0296H    0003H
  +--> ?PR?_XWRITECH395CMD?CH395
  +--> ?PR?_XWRITECH395DATA?CH395
  +--> ?PR?_MDELAYUS?CH395
  +--> ?PR?XREADCH395DATA?CH395

?PR?_CH395SENDDATA?CH395                       0296H    0006H
  +--> ?PR?_XWRITECH395CMD?CH395
  +--> ?PR?_XWRITECH395DATA?CH395



SYMBOL TABLE OF MODULE:  CH395EVT (CH395)

  VALUE           TYPE          NAME
  ----------------------------------

  -------         MODULE        CH395
  C:0000H         SYMBOL        _ICE_DUMMY_
  C:0E9BH         PUBLIC        CH395CMDSleep
  C:08D1H         PUBLIC        _CH395CMDGetRemoteIPP
  D:0090H         PUBLIC        P1
  C:0C00H         PUBLIC        _CH395SetSocketDesIP
  C:0B17H         PUBLIC        _CH395CMDSetMACAddr
  D:00B0H         PUBLIC        P3
  C:0D8FH         PUBLIC        _CH395SetTTLNum
  C:0680H         PUBLIC        _CH395EEPROMWrite
  C:096BH         PUBLIC        _CH395GetIPInf
  C:0DA0H         PUBLIC        mInitSTDIO
  C:0DDFH         PUBLIC        _CH395EnablePing
  C:0A50H         PUBLIC        _CH395TCPListen
  C:0E93H         PUBLIC        CH395CMDReset
  C:01DFH         PUBLIC        _CH395CRCRet6Bit
  D:00A8H         PUBLIC        IE
  C:0C57H         PUBLIC        _CH395SetSocketDesPort
  C:0AF1H         PUBLIC        _CH395CloseSocket
  C:043EH         PUBLIC        _CH395CMDSetMACFilt
  C:0D0DH         PUBLIC        _CH395SetSocketProtType
  D:00B8H         PUBLIC        IP
  C:0AA2H         PUBLIC        _CH395DHCPEnable
  C:0891H         PUBLIC        _CH395CMDGetSocketStatus
  C:0B7FH         PUBLIC        CH395CMDGetGlobIntStatus_ALL
  B:0098H.1       PUBLIC        TI
  B:00B0H.3       PUBLIC        INT1
  C:0C70H         PUBLIC        _CH395SetSocketSourPort
BL51 BANKED LINKER/LOCATER V6.22                                                      03/29/2021  13:59:43  PAGE 6


  C:0E4CH         PUBLIC        CH395CMDGetPHYStatus
  C:0B4CH         PUBLIC        _mDelaymS
  C:0E22H         PUBLIC        xReadCH395Data
  C:0DD0H         PUBLIC        _CH395CMDSetPHY
  X:0000H         PUBLIC        MyBuffer
  C:099CH         PUBLIC        main
  C:0A79H         PUBLIC        _CH395TCPDisconnect
  C:0E13H         PUBLIC        _mDelayuS
  C:0E35H         PUBLIC        _CH395KeepLiveCNT
  C:0ACBH         PUBLIC        _CH395OpenSocket
  C:093AH         PUBLIC        _CH395CMDGetUnreachIPPT
  X:0200H         PUBLIC        SockInf
  D:0087H         PUBLIC        PCON
  C:09F6H         PUBLIC        _xWriteCH395Data
  C:0CA0H         PUBLIC        _CH395CMDSetRetryPeriod
  D:0098H         PUBLIC        SCON
  B:0090H.4       PUBLIC        P14
  D:0089H         PUBLIC        TMOD
  D:0088H         PUBLIC        TCON
  C:080AH         PUBLIC        _CH395SendData
  D:00D5H         PUBLIC        SPCR
  D:0086H         PUBLIC        SPDR
  C:0C20H         PUBLIC        CH395Init
  C:0D5BH         PUBLIC        CH395SocketInitOpen
  C:09F9H         PUBLIC        CH395CMDInitCH395
  C:0C3CH         PUBLIC        _CH395GetRecvLength
  C:0BA0H         PUBLIC        _CH395CMDSetIPAddr
  D:00AAH         PUBLIC        SPSR
  C:0DEEH         PUBLIC        _CH395ClearRecvBuf
  C:0DC4H         PUBLIC        _xWriteCH395Cmd
  X:021CH         PUBLIC        CH395Inf
  D:008DH         PUBLIC        TH1
  C:0E8AH         PUBLIC        _mStopIfError
  C:0E41H         PUBLIC        CH395CMDGetVer
  C:055DH         PUBLIC        CH395GlobalInterrupt
  B:0088H.6       PUBLIC        TR1
  C:0B5DH         PUBLIC        InitCH395InfParam
  C:076FH         PUBLIC        _CH395KeepLiveINTVL
  C:0DFDH         PUBLIC        _CH395CMDSetRetryCount
  C:0CF8H         PUBLIC        _CH395ReadGPIOAddr
  C:0BE0H         PUBLIC        _CH395CMDSetMASKAddr
  C:0850H         PUBLIC        _CH395CMDSetUartBaudRate
  C:05D5H         PUBLIC        _CH395GetRecvData
  C:0E57H         PUBLIC        CH395CMDGetGlobIntStatus
  C:0A27H         PUBLIC        _CH395TCPConnect
  C:0D21H         PUBLIC        _CH395SetSocketIPRAWProto
  D:00C8H         PUBLIC        T2CON
  C:0721H         PUBLIC        _CH395KeepLiveIDLE
  C:0BC0H         PUBLIC        _CH395CMDSetGWIPAddr
  C:062CH         PUBLIC        _CH395UDPSendTo
  C:0C89H         PUBLIC        _CH395GetSocketInt
  C:0E81H         PUBLIC        CH395_PORT_INIT
  C:0D6DH         PUBLIC        _CH395WriteGPIOAddr
  C:0D35H         PUBLIC        CH395EEPROMErase
  C:0DB6H         PUBLIC        CH395GetCmdStatus
  C:0354H         PUBLIC        _CH395SocketInterrupt
  C:06D3H         PUBLIC        _CH395SetStartPara
BL51 BANKED LINKER/LOCATER V6.22                                                      03/29/2021  13:59:43  PAGE 7


  C:0CCCH         PUBLIC        _CH395SetSocketSendBuf
  C:0909H         PUBLIC        _CH395CMDGetMACAddr
  C:0E6DH         PUBLIC        _CH395CMDCheckExist
  C:0D7EH         PUBLIC        _CH395SetKeepLive
  C:07BDH         PUBLIC        _CH395EEPROMRead
  C:0CE2H         PUBLIC        InitSocketParam
  C:0E28H         PUBLIC        _Spi395Exchange
  C:0E62H         PUBLIC        CH395GetDHCPStatus
  C:0D48H         PUBLIC        _CH395SetTCPMss
  D:00D0H         PUBLIC        PSW
  C:0CB6H         PUBLIC        _CH395SetSocketRecvBuf
  X:023FH         PUBLIC        CH395MACAddr
  -------         PROC          L?0211
  -------         ENDPROC       L?0211
  -------         PROC          _MDELAYUS
  D:0007H         SYMBOL        us
  C:0E13H         LINE#         39
  C:0E13H         LINE#         40
  C:0E13H         LINE#         41
  C:0E19H         LINE#         42
  -------         ENDPROC       _MDELAYUS
  C:0B45H         SYMBOL        L?0205
  -------         PROC          L?0204
  -------         ENDPROC       L?0204
  C:0B45H         SYMBOL        L?0205
  -------         PROC          _MDELAYMS
  D:0005H         SYMBOL        ms
  C:0B4CH         LINE#         51
  C:0B4EH         LINE#         52
  C:0B4EH         LINE#         53
  C:0B54H         LINE#         54
  C:0B54H         LINE#         55
  C:0B54H         LINE#         56
  C:0B57H         LINE#         57
  C:0B57H         LINE#         58
  C:0B5AH         LINE#         59
  C:0B5CH         LINE#         60
  -------         ENDPROC       _MDELAYMS
  -------         PROC          CH395_PORT_INIT
  C:0E81H         LINE#         69
  C:0E81H         LINE#         70
  C:0E81H         LINE#         71
  C:0E83H         LINE#         74
  C:0E86H         LINE#         78
  C:0E89H         LINE#         80
  -------         ENDPROC       CH395_PORT_INIT
  -------         PROC          _SPI395EXCHANGE
  D:0007H         SYMBOL        d
  C:0E28H         LINE#         89
  C:0E28H         LINE#         90
  C:0E28H         LINE#         92
  C:0E2AH         LINE#         93
  C:0E2FH         LINE#         94
  C:0E32H         LINE#         95
  C:0E34H         LINE#         96
  -------         ENDPROC       _SPI395EXCHANGE
  -------         PROC          L?0210
BL51 BANKED LINKER/LOCATER V6.22                                                      03/29/2021  13:59:43  PAGE 8


  -------         ENDPROC       L?0210
  -------         PROC          _XWRITECH395CMD
  D:0007H         SYMBOL        cmd
  C:0DC4H         LINE#         105
  C:0DC4H         LINE#         106
  C:0DC4H         LINE#         107
  C:0DC6H         LINE#         108
  C:0DC8H         LINE#         109
  C:0DCBH         LINE#         110
  -------         ENDPROC       _XWRITECH395CMD
  C:09E5H         SYMBOL        L?0203
  -------         PROC          L?0202
  -------         ENDPROC       L?0202
  C:09E5H         SYMBOL        L?0203
  -------         PROC          _XWRITECH395DATA
  D:0007H         SYMBOL        mdata
  C:09F6H         LINE#         120
  C:09F6H         LINE#         121
  C:09F6H         LINE#         122
  -------         ENDPROC       _XWRITECH395DATA
  C:0E1AH         SYMBOL        L?0209
  -------         PROC          L?0208
  -------         ENDPROC       L?0208
  C:0E1AH         SYMBOL        L?0209
  -------         PROC          XREADCH395DATA
  -------         DO            
  D:0007H         SYMBOL        i
  -------         ENDDO         
  C:0E22H         LINE#         132
  C:0E22H         LINE#         133
  C:0E22H         LINE#         135
  C:0E27H         LINE#         136
  C:0E27H         LINE#         137
  -------         ENDPROC       XREADCH395DATA
  -------         PROC          CH395CMDRESET
  C:0E93H         LINE#         21
  C:0E93H         LINE#         22
  C:0E93H         LINE#         23
  C:0E98H         LINE#         24
  C:0E9AH         LINE#         25
  -------         ENDPROC       CH395CMDRESET
  -------         PROC          CH395CMDSLEEP
  C:0E9BH         LINE#         34
  C:0E9BH         LINE#         35
  C:0E9BH         LINE#         36
  C:0EA0H         LINE#         37
  C:0EA2H         LINE#         38
  -------         ENDPROC       CH395CMDSLEEP
  -------         PROC          CH395CMDGETVER
  -------         DO            
  D:0007H         SYMBOL        i
  -------         ENDDO         
  C:0E41H         LINE#         48
  C:0E41H         LINE#         49
  C:0E41H         LINE#         51
  C:0E46H         LINE#         52
  C:0E49H         LINE#         53
BL51 BANKED LINKER/LOCATER V6.22                                                      03/29/2021  13:59:43  PAGE 9


  C:0E4BH         LINE#         54
  C:0E4BH         LINE#         55
  -------         ENDPROC       CH395CMDGETVER
  -------         PROC          _CH395CMDCHECKEXIST
  D:0005H         SYMBOL        testdata
  -------         DO            
  D:0007H         SYMBOL        i
  -------         ENDDO         
  C:0E6DH         LINE#         64
  C:0E6FH         LINE#         65
  C:0E6FH         LINE#         68
  C:0E71H         LINE#         69
  C:0E71H         LINE#         70
  C:0E74H         LINE#         71
  C:0E76H         LINE#         72
  C:0E76H         LINE#         73
  -------         ENDPROC       _CH395CMDCHECKEXIST
  -------         PROC          _CH395CMDSETPHY
  D:0005H         SYMBOL        phystat
  C:0DD0H         LINE#         83
  C:0DD2H         LINE#         84
  C:0DD2H         LINE#         85
  C:0DD7H         LINE#         86
  C:0DDCH         LINE#         87
  C:0DDEH         LINE#         88
  -------         ENDPROC       _CH395CMDSETPHY
  -------         PROC          CH395CMDGETPHYSTATUS
  -------         DO            
  D:0007H         SYMBOL        i
  -------         ENDDO         
  C:0E4CH         LINE#         97
  C:0E4CH         LINE#         98
  C:0E4CH         LINE#         101
  C:0E51H         LINE#         102
  C:0E54H         LINE#         103
  C:0E56H         LINE#         104
  C:0E56H         LINE#         105
  -------         ENDPROC       CH395CMDGETPHYSTATUS
  -------         PROC          CH395CMDGETGLOBINTSTATUS
  -------         DO            
  D:0007H         SYMBOL        init_status
  -------         ENDDO         
  C:0E57H         LINE#         114
  C:0E57H         LINE#         115
  C:0E57H         LINE#         118
  C:0E5CH         LINE#         119
  C:0E5FH         LINE#         120
  C:0E61H         LINE#         121
  C:0E61H         LINE#         122
  -------         ENDPROC       CH395CMDGETGLOBINTSTATUS
  -------         PROC          CH395CMDINITCH395
  -------         DO            
  X:0245H         SYMBOL        i
  D:0005H         SYMBOL        s
  -------         ENDDO         
  C:09F9H         LINE#         131
  C:09F9H         LINE#         132
BL51 BANKED LINKER/LOCATER V6.22                                                      03/29/2021  13:59:43  PAGE 10


  C:09F9H         LINE#         133
  C:09FEH         LINE#         134
  C:09FFH         LINE#         136
  C:0A04H         LINE#         137
  C:0A06H         LINE#         138
  C:0A06H         LINE#         139
  C:0A06H         LINE#         140
  C:0A0BH         LINE#         141
  C:0A10H         LINE#         142
  C:0A14H         LINE#         143
  C:0A24H         LINE#         144
  C:0A24H         LINE#         145
  C:0A26H         LINE#         146
  -------         ENDPROC       CH395CMDINITCH395
  -------         PROC          _CH395CMDSETUARTBAUDRATE
  X:02D2H         SYMBOL        baudrate
  -------         DO            
  X:02D6H         SYMBOL        i
  -------         ENDDO         
  C:0850H         LINE#         155
  C:0856H         LINE#         156
  C:0856H         LINE#         158
  C:085BH         LINE#         159
  C:0866H         LINE#         160
  C:0872H         LINE#         161
  C:0888H         LINE#         162
  C:088EH         LINE#         163
  C:0890H         LINE#         164
  -------         ENDPROC       _CH395CMDSETUARTBAUDRATE
  C:0DB1H         SYMBOL        L?0207
  -------         PROC          L?0206
  -------         ENDPROC       L?0206
  C:0DB1H         SYMBOL        L?0207
  -------         PROC          CH395GETCMDSTATUS
  -------         DO            
  D:0007H         SYMBOL        i
  -------         ENDDO         
  C:0DB6H         LINE#         173
  C:0DB6H         LINE#         174
  C:0DB6H         LINE#         177
  C:0DBBH         LINE#         178
  C:0DBEH         LINE#         179
  C:0DC0H         LINE#         180
  C:0DC0H         LINE#         181
  -------         ENDPROC       CH395GETCMDSTATUS
  -------         PROC          _CH395CMDSETIPADDR
  X:02E3H         SYMBOL        ipaddr
  -------         DO            
  D:0006H         SYMBOL        i
  -------         ENDDO         
  C:0BA0H         LINE#         190
  C:0BABH         LINE#         191
  C:0BABH         LINE#         194
  C:0BB0H         LINE#         195
  C:0BBDH         LINE#         196
  C:0BBFH         LINE#         197
  -------         ENDPROC       _CH395CMDSETIPADDR
BL51 BANKED LINKER/LOCATER V6.22                                                      03/29/2021  13:59:43  PAGE 11


  -------         PROC          _CH395CMDSETGWIPADDR
  X:02E6H         SYMBOL        gwipaddr
  -------         DO            
  D:0006H         SYMBOL        i
  -------         ENDDO         
  C:0BC0H         LINE#         206
  C:0BCBH         LINE#         207
  C:0BCBH         LINE#         210
  C:0BD0H         LINE#         211
  C:0BDDH         LINE#         212
  C:0BDFH         LINE#         213
  -------         ENDPROC       _CH395CMDSETGWIPADDR
  -------         PROC          _CH395CMDSETMASKADDR
  X:02E9H         SYMBOL        maskaddr
  -------         DO            
  D:0006H         SYMBOL        i
  -------         ENDDO         
  C:0BE0H         LINE#         222
  C:0BEBH         LINE#         223
  C:0BEBH         LINE#         226
  C:0BF0H         LINE#         227
  C:0BFDH         LINE#         228
  C:0BFFH         LINE#         229
  -------         ENDPROC       _CH395CMDSETMASKADDR
  -------         PROC          _CH395CMDSETMACADDR
  X:02ECH         SYMBOL        amcaddr
  -------         DO            
  D:0006H         SYMBOL        i
  -------         ENDDO         
  C:0B17H         LINE#         238
  C:0B22H         LINE#         239
  C:0B22H         LINE#         242
  C:0B27H         LINE#         243
  C:0B34H         LINE#         244
  C:0B36H         LINE#         245
  -------         ENDPROC       _CH395CMDSETMACADDR
  -------         PROC          _CH395CMDGETMACADDR
  X:02EFH         SYMBOL        amcaddr
  -------         DO            
  D:0006H         SYMBOL        i
  -------         ENDDO         
  C:0909H         LINE#         255
  C:0914H         LINE#         256
  C:0914H         LINE#         259
  C:0919H         LINE#         260
  C:0937H         LINE#         261
  C:0939H         LINE#         262
  -------         ENDPROC       _CH395CMDGETMACADDR
  -------         PROC          _CH395CMDSETMACFILT
  D:0005H         SYMBOL        filtype
  X:02BEH         SYMBOL        table0
  X:02C2H         SYMBOL        table1
  C:043EH         LINE#         273
  C:0440H         LINE#         274
  C:0440H         LINE#         275
  C:0445H         LINE#         276
  C:044AH         LINE#         277
BL51 BANKED LINKER/LOCATER V6.22                                                      03/29/2021  13:59:43  PAGE 12


  C:0455H         LINE#         278
  C:0461H         LINE#         279
  C:0477H         LINE#         280
  C:048DH         LINE#         282
  C:0496H         LINE#         283
  C:04A2H         LINE#         284
  C:04B8H         LINE#         285
  C:04CEH         LINE#         286
  C:04D0H         LINE#         287
  -------         ENDPROC       _CH395CMDSETMACFILT
  -------         PROC          _CH395CMDGETUNREACHIPPT
  X:0287H         SYMBOL        list
  -------         DO            
  D:0006H         SYMBOL        i
  -------         ENDDO         
  C:093AH         LINE#         300
  C:0945H         LINE#         301
  C:0945H         LINE#         304
  C:094AH         LINE#         305
  C:094CH         LINE#         306
  C:094CH         LINE#         307
  C:0963H         LINE#         308
  C:0968H         LINE#         309
  C:096AH         LINE#         310
  -------         ENDPROC       _CH395CMDGETUNREACHIPPT
  -------         PROC          _CH395CMDGETREMOTEIPP
  D:0005H         SYMBOL        sockindex
  X:02F2H         SYMBOL        list
  -------         DO            
  D:0006H         SYMBOL        i
  -------         ENDDO         
  C:08D1H         LINE#         320
  C:08DEH         LINE#         321
  C:08DEH         LINE#         324
  C:08E3H         LINE#         325
  C:08E8H         LINE#         326
  C:08EAH         LINE#         327
  C:08EAH         LINE#         328
  C:0901H         LINE#         329
  C:0906H         LINE#         330
  C:0908H         LINE#         331
  -------         ENDPROC       _CH395CMDGETREMOTEIPP
  -------         PROC          _CH395SETSOCKETDESIP
  D:0005H         SYMBOL        sockindex
  X:02F5H         SYMBOL        ipaddr
  C:0C00H         LINE#         341
  C:0C0DH         LINE#         342
  C:0C0DH         LINE#         343
  C:0C12H         LINE#         344
  C:0C17H         LINE#         345
  C:0C17H         LINE#         346
  C:0C1AH         LINE#         347
  C:0C1AH         LINE#         348
  C:0C1DH         LINE#         349
  C:0C1FH         LINE#         350
  -------         ENDPROC       _CH395SETSOCKETDESIP
  -------         PROC          _CH395SETSOCKETPROTTYPE
BL51 BANKED LINKER/LOCATER V6.22                                                      03/29/2021  13:59:43  PAGE 13


  D:0004H         SYMBOL        sockindex
  D:0005H         SYMBOL        prottype
  C:0D0DH         LINE#         360
  C:0D0FH         LINE#         361
  C:0D0FH         LINE#         362
  C:0D14H         LINE#         363
  C:0D19H         LINE#         364
  C:0D1EH         LINE#         365
  C:0D20H         LINE#         366
  -------         ENDPROC       _CH395SETSOCKETPROTTYPE
  -------         PROC          _CH395SETSOCKETDESPORT
  D:0003H         SYMBOL        sockindex
  D:0004H         SYMBOL        desprot
  C:0C57H         LINE#         377
  C:0C59H         LINE#         378
  C:0C59H         LINE#         379
  C:0C5EH         LINE#         380
  C:0C63H         LINE#         381
  C:0C68H         LINE#         382
  C:0C6DH         LINE#         383
  C:0C6FH         LINE#         384
  -------         ENDPROC       _CH395SETSOCKETDESPORT
  -------         PROC          _CH395SETSOCKETSOURPORT
  D:0003H         SYMBOL        sockindex
  D:0004H         SYMBOL        surprot
  C:0C70H         LINE#         394
  C:0C72H         LINE#         395
  C:0C72H         LINE#         396
  C:0C77H         LINE#         397
  C:0C7CH         LINE#         398
  C:0C81H         LINE#         399
  C:0C86H         LINE#         400
  C:0C88H         LINE#         401
  -------         ENDPROC       _CH395SETSOCKETSOURPORT
  -------         PROC          _CH395SETSOCKETIPRAWPROTO
  D:0004H         SYMBOL        sockindex
  D:0005H         SYMBOL        prototype
  C:0D21H         LINE#         411
  C:0D23H         LINE#         412
  C:0D23H         LINE#         413
  C:0D28H         LINE#         414
  C:0D2DH         LINE#         415
  C:0D32H         LINE#         416
  C:0D34H         LINE#         417
  -------         ENDPROC       _CH395SETSOCKETIPRAWPROTO
  -------         PROC          _CH395ENABLEPING
  D:0005H         SYMBOL        enable
  C:0DDFH         LINE#         427
  C:0DE1H         LINE#         428
  C:0DE1H         LINE#         429
  C:0DE6H         LINE#         430
  C:0DEBH         LINE#         431
  C:0DEDH         LINE#         432
  -------         ENDPROC       _CH395ENABLEPING
  -------         PROC          _CH395SENDDATA
  D:0005H         SYMBOL        sockindex
  X:0297H         SYMBOL        databuf
BL51 BANKED LINKER/LOCATER V6.22                                                      03/29/2021  13:59:43  PAGE 14


  X:029AH         SYMBOL        len
  -------         DO            
  D:0004H         SYMBOL        i
  -------         ENDDO         
  C:080AH         LINE#         444
  C:0817H         LINE#         445
  C:0817H         LINE#         448
  C:081CH         LINE#         449
  C:0821H         LINE#         450
  C:0828H         LINE#         451
  C:0830H         LINE#         453
  C:0840H         LINE#         454
  C:0840H         LINE#         455
  C:0846H         LINE#         456
  C:084DH         LINE#         457
  C:084FH         LINE#         458
  -------         ENDPROC       _CH395SENDDATA
  -------         PROC          _CH395GETRECVLENGTH
  D:0005H         SYMBOL        sockindex
  -------         DO            
  D:0004H         SYMBOL        i
  -------         ENDDO         
  C:0C3CH         LINE#         467
  C:0C3EH         LINE#         468
  C:0C3EH         LINE#         471
  C:0C40H         LINE#         472
  C:0C40H         LINE#         473
  C:0C47H         LINE#         474
  C:0C51H         LINE#         475
  C:0C53H         LINE#         476
  C:0C56H         LINE#         477
  -------         ENDPROC       _CH395GETRECVLENGTH
  -------         PROC          _CH395CLEARRECVBUF
  D:0005H         SYMBOL        sockindex
  C:0DEEH         LINE#         486
  C:0DF0H         LINE#         487
  C:0DF0H         LINE#         488
  C:0DF5H         LINE#         489
  C:0DFAH         LINE#         490
  C:0DFCH         LINE#         491
  -------         ENDPROC       _CH395CLEARRECVBUF
  -------         PROC          _CH395GETRECVDATA
  X:0296H         SYMBOL        sockindex
  X:0297H         SYMBOL        len
  D:0001H         SYMBOL        pbuf
  -------         DO            
  D:0004H         SYMBOL        i
  -------         ENDDO         
  C:05D5H         LINE#         502
  C:05E0H         LINE#         503
  C:05E0H         LINE#         505
  C:05E3H         LINE#         506
  C:05E8H         LINE#         507
  C:05F0H         LINE#         508
  C:05F7H         LINE#         509
  C:05FFH         LINE#         510
  C:0604H         LINE#         511
BL51 BANKED LINKER/LOCATER V6.22                                                      03/29/2021  13:59:43  PAGE 15


  C:0614H         LINE#         512
  C:0614H         LINE#         513
  C:061BH         LINE#         514
  C:0622H         LINE#         515
  C:0629H         LINE#         516
  C:062BH         LINE#         517
  -------         ENDPROC       _CH395GETRECVDATA
  -------         PROC          _CH395CMDSETRETRYCOUNT
  D:0005H         SYMBOL        count
  C:0DFDH         LINE#         526
  C:0DFFH         LINE#         527
  C:0DFFH         LINE#         528
  C:0E04H         LINE#         529
  C:0E09H         LINE#         530
  C:0E0BH         LINE#         531
  -------         ENDPROC       _CH395CMDSETRETRYCOUNT
  -------         PROC          _CH395CMDSETRETRYPERIOD
  D:0004H         SYMBOL        period
  C:0CA0H         LINE#         540
  C:0CA4H         LINE#         541
  C:0CA4H         LINE#         542
  C:0CA9H         LINE#         543
  C:0CAEH         LINE#         544
  C:0CB3H         LINE#         545
  C:0CB5H         LINE#         546
  -------         ENDPROC       _CH395CMDSETRETRYPERIOD
  -------         PROC          _CH395CMDGETSOCKETSTATUS
  D:0005H         SYMBOL        sockindex
  X:02F8H         SYMBOL        status
  C:0891H         LINE#         556
  C:089EH         LINE#         557
  C:089EH         LINE#         558
  C:08A0H         LINE#         559
  C:08A0H         LINE#         560
  C:08B7H         LINE#         561
  C:08CEH         LINE#         562
  C:08D0H         LINE#         563
  -------         ENDPROC       _CH395CMDGETSOCKETSTATUS
  -------         PROC          _CH395OPENSOCKET
  D:0005H         SYMBOL        sockindex
  -------         DO            
  D:0004H         SYMBOL        i
  D:0003H         SYMBOL        s
  -------         ENDDO         
  C:0ACBH         LINE#         572
  C:0ACDH         LINE#         573
  C:0ACDH         LINE#         574
  C:0ACDH         LINE#         575
  C:0ACDH         LINE#         576
  C:0AD2H         LINE#         577
  C:0AD7H         LINE#         578
  C:0AD9H         LINE#         579
  C:0AD9H         LINE#         580
  C:0AD9H         LINE#         581
  C:0AD9H         LINE#         582
  C:0ADEH         LINE#         583
  C:0AE2H         LINE#         584
BL51 BANKED LINKER/LOCATER V6.22                                                      03/29/2021  13:59:43  PAGE 16


  C:0AEEH         LINE#         585
  C:0AEEH         LINE#         586
  C:0AF0H         LINE#         587
  -------         ENDPROC       _CH395OPENSOCKET
  -------         PROC          _CH395CLOSESOCKET
  D:0005H         SYMBOL        sockindex
  -------         DO            
  D:0004H         SYMBOL        i
  D:0003H         SYMBOL        s
  -------         ENDDO         
  C:0AF1H         LINE#         596
  C:0AF3H         LINE#         597
  C:0AF3H         LINE#         598
  C:0AF3H         LINE#         599
  C:0AF3H         LINE#         600
  C:0AF8H         LINE#         601
  C:0AFDH         LINE#         602
  C:0AFFH         LINE#         603
  C:0AFFH         LINE#         604
  C:0AFFH         LINE#         605
  C:0AFFH         LINE#         606
  C:0B04H         LINE#         607
  C:0B08H         LINE#         608
  C:0B14H         LINE#         609
  C:0B14H         LINE#         610
  C:0B16H         LINE#         611
  -------         ENDPROC       _CH395CLOSESOCKET
  -------         PROC          _CH395TCPCONNECT
  D:0005H         SYMBOL        sockindex
  -------         DO            
  D:0004H         SYMBOL        i
  D:0003H         SYMBOL        s
  -------         ENDDO         
  C:0A27H         LINE#         620
  C:0A29H         LINE#         621
  C:0A29H         LINE#         622
  C:0A2BH         LINE#         623
  C:0A2CH         LINE#         624
  C:0A31H         LINE#         625
  C:0A36H         LINE#         626
  C:0A38H         LINE#         627
  C:0A38H         LINE#         628
  C:0A38H         LINE#         629
  C:0A38H         LINE#         630
  C:0A3DH         LINE#         631
  C:0A41H         LINE#         632
  C:0A4DH         LINE#         633
  C:0A4DH         LINE#         634
  C:0A4FH         LINE#         635
  -------         ENDPROC       _CH395TCPCONNECT
  -------         PROC          _CH395TCPLISTEN
  D:0005H         SYMBOL        sockindex
  -------         DO            
  D:0004H         SYMBOL        i
  D:0003H         SYMBOL        s
  -------         ENDDO         
  C:0A50H         LINE#         644
BL51 BANKED LINKER/LOCATER V6.22                                                      03/29/2021  13:59:43  PAGE 17


  C:0A52H         LINE#         645
  C:0A52H         LINE#         646
  C:0A54H         LINE#         647
  C:0A55H         LINE#         648
  C:0A5AH         LINE#         649
  C:0A5FH         LINE#         650
  C:0A61H         LINE#         651
  C:0A61H         LINE#         652
  C:0A61H         LINE#         653
  C:0A61H         LINE#         654
  C:0A66H         LINE#         655
  C:0A6AH         LINE#         656
  C:0A76H         LINE#         657
  C:0A76H         LINE#         658
  C:0A78H         LINE#         659
  -------         ENDPROC       _CH395TCPLISTEN
  -------         PROC          _CH395TCPDISCONNECT
  D:0005H         SYMBOL        sockindex
  -------         DO            
  D:0004H         SYMBOL        i
  D:0003H         SYMBOL        s
  -------         ENDDO         
  C:0A79H         LINE#         668
  C:0A7BH         LINE#         669
  C:0A7BH         LINE#         670
  C:0A7DH         LINE#         671
  C:0A7EH         LINE#         672
  C:0A83H         LINE#         673
  C:0A88H         LINE#         674
  C:0A8AH         LINE#         675
  C:0A8AH         LINE#         676
  C:0A8AH         LINE#         677
  C:0A8AH         LINE#         678
  C:0A8FH         LINE#         679
  C:0A93H         LINE#         680
  C:0A9FH         LINE#         681
  C:0A9FH         LINE#         682
  C:0AA1H         LINE#         683
  -------         ENDPROC       _CH395TCPDISCONNECT
  -------         PROC          _CH395GETSOCKETINT
  D:0005H         SYMBOL        sockindex
  -------         DO            
  D:0007H         SYMBOL        intstatus
  -------         ENDDO         
  C:0C89H         LINE#         692
  C:0C8BH         LINE#         693
  C:0C8BH         LINE#         695
  C:0C90H         LINE#         696
  C:0C95H         LINE#         697
  C:0C9AH         LINE#         698
  C:0C9DH         LINE#         699
  C:0C9FH         LINE#         700
  C:0C9FH         LINE#         701
  -------         ENDPROC       _CH395GETSOCKETINT
  -------         PROC          _CH395CRCRET6BIT
  X:029CH         SYMBOL        mac_addr
  -------         DO            
BL51 BANKED LINKER/LOCATER V6.22                                                      03/29/2021  13:59:43  PAGE 18


  X:029FH         SYMBOL        perByte
  X:02A3H         SYMBOL        perBit
  X:02A7H         SYMBOL        poly
  X:02ABH         SYMBOL        crc_value
  X:02AFH         SYMBOL        c
  -------         ENDDO         
  C:01DFH         LINE#         710
  C:01EAH         LINE#         711
  C:01EAH         LINE#         714
  C:01F4H         LINE#         715
  C:01FEH         LINE#         717
  C:0225H         LINE#         718
  C:0225H         LINE#         719
  C:023CH         LINE#         720
  C:0263H         LINE#         721
  C:0263H         LINE#         722
  C:02DBH         LINE#         723
  C:02E2H         LINE#         724
  C:030AH         LINE#         725
  C:0332H         LINE#         726
  C:034BH         LINE#         727
  C:0353H         LINE#         728
  -------         ENDPROC       _CH395CRCRET6BIT
  -------         PROC          _CH395DHCPENABLE
  D:0005H         SYMBOL        flag
  -------         DO            
  D:0004H         SYMBOL        i
  D:0007H         SYMBOL        s
  -------         ENDDO         
  C:0AA2H         LINE#         737
  C:0AA4H         LINE#         738
  C:0AA4H         LINE#         739
  C:0AA6H         LINE#         741
  C:0AABH         LINE#         742
  C:0AB0H         LINE#         743
  C:0AB2H         LINE#         744
  C:0AB2H         LINE#         745
  C:0AB2H         LINE#         746
  C:0AB7H         LINE#         747
  C:0ABAH         LINE#         748
  C:0ABEH         LINE#         749
  C:0ACAH         LINE#         750
  C:0ACAH         LINE#         751
  C:0ACAH         LINE#         752
  -------         ENDPROC       _CH395DHCPENABLE
  -------         PROC          CH395GETDHCPSTATUS
  -------         DO            
  D:0007H         SYMBOL        status
  -------         ENDDO         
  C:0E62H         LINE#         761
  C:0E62H         LINE#         762
  C:0E62H         LINE#         764
  C:0E67H         LINE#         765
  C:0E6AH         LINE#         766
  C:0E6CH         LINE#         767
  C:0E6CH         LINE#         768
  -------         ENDPROC       CH395GETDHCPSTATUS
BL51 BANKED LINKER/LOCATER V6.22                                                      03/29/2021  13:59:43  PAGE 19


  -------         PROC          _CH395GETIPINF
  X:02FBH         SYMBOL        addr
  -------         DO            
  D:0006H         SYMBOL        i
  -------         ENDDO         
  C:096BH         LINE#         777
  C:0976H         LINE#         778
  C:0976H         LINE#         780
  C:097BH         LINE#         781
  C:097DH         LINE#         782
  C:097DH         LINE#         783
  C:0994H         LINE#         784
  C:0999H         LINE#         785
  C:099BH         LINE#         786
  -------         ENDPROC       _CH395GETIPINF
  -------         PROC          _CH395WRITEGPIOADDR
  D:0004H         SYMBOL        regadd
  D:0005H         SYMBOL        regval
  C:0D6DH         LINE#         796
  C:0D6FH         LINE#         797
  C:0D6FH         LINE#         798
  C:0D74H         LINE#         799
  C:0D79H         LINE#         800
  -------         ENDPROC       _CH395WRITEGPIOADDR
  -------         PROC          _CH395READGPIOADDR
  D:0005H         SYMBOL        regadd
  -------         DO            
  D:0007H         SYMBOL        i
  -------         ENDDO         
  C:0CF8H         LINE#         810
  C:0CFAH         LINE#         811
  C:0CFAH         LINE#         813
  C:0CFFH         LINE#         814
  C:0D04H         LINE#         815
  C:0D09H         LINE#         816
  C:0D0CH         LINE#         817
  C:0D0CH         LINE#         818
  -------         ENDPROC       _CH395READGPIOADDR
  -------         PROC          CH395EEPROMERASE
  -------         DO            
  D:0007H         SYMBOL        i
  -------         ENDDO         
  C:0D35H         LINE#         827
  C:0D35H         LINE#         828
  C:0D35H         LINE#         830
  C:0D3AH         LINE#         831
  C:0D3AH         LINE#         832
  C:0D3AH         LINE#         833
  C:0D3FH         LINE#         834
  C:0D42H         LINE#         835
  C:0D47H         LINE#         836
  C:0D47H         LINE#         837
  C:0D47H         LINE#         838
  C:0D47H         LINE#         839
  -------         ENDPROC       CH395EEPROMERASE
  -------         PROC          _CH395EEPROMWRITE
  D:0004H         SYMBOL        eepaddr
BL51 BANKED LINKER/LOCATER V6.22                                                      03/29/2021  13:59:43  PAGE 20


  X:02C8H         SYMBOL        buf
  X:02CBH         SYMBOL        len
  -------         DO            
  D:0007H         SYMBOL        i
  -------         ENDDO         
  C:0680H         LINE#         850
  C:068FH         LINE#         851
  C:068FH         LINE#         853
  C:0694H         LINE#         854
  C:0699H         LINE#         855
  C:069EH         LINE#         856
  C:06A2H         LINE#         857
  C:06C5H         LINE#         858
  C:06C5H         LINE#         859
  C:06C5H         LINE#         860
  C:06CAH         LINE#         861
  C:06CDH         LINE#         862
  C:06D2H         LINE#         863
  C:06D2H         LINE#         864
  C:06D2H         LINE#         865
  C:06D2H         LINE#         866
  -------         ENDPROC       _CH395EEPROMWRITE
  -------         PROC          _CH395EEPROMREAD
  D:0004H         SYMBOL        eepaddr
  X:02CEH         SYMBOL        buf
  X:02D1H         SYMBOL        len
  C:07BDH         LINE#         877
  C:07CCH         LINE#         878
  C:07CCH         LINE#         879
  C:07D1H         LINE#         880
  C:07D6H         LINE#         881
  C:07DBH         LINE#         882
  C:07E1H         LINE#         883
  C:07E6H         LINE#         884
  C:0809H         LINE#         885
  -------         ENDPROC       _CH395EEPROMREAD
  -------         PROC          _CH395SETTCPMSS
  D:0004H         SYMBOL        tcpmss
  C:0D48H         LINE#         894
  C:0D4CH         LINE#         895
  C:0D4CH         LINE#         896
  C:0D51H         LINE#         897
  C:0D56H         LINE#         898
  -------         ENDPROC       _CH395SETTCPMSS
  -------         PROC          _CH395SETSOCKETRECVBUF
  D:0004H         SYMBOL        sockindex
  D:0005H         SYMBOL        startblk
  D:0003H         SYMBOL        blknum
  C:0CB6H         LINE#         910
  C:0CB8H         LINE#         911
  C:0CB8H         LINE#         912
  C:0CBDH         LINE#         913
  C:0CC2H         LINE#         914
  C:0CC7H         LINE#         915
  -------         ENDPROC       _CH395SETSOCKETRECVBUF
  -------         PROC          _CH395SETSOCKETSENDBUF
  D:0004H         SYMBOL        sockindex
BL51 BANKED LINKER/LOCATER V6.22                                                      03/29/2021  13:59:43  PAGE 21


  D:0005H         SYMBOL        startblk
  D:0003H         SYMBOL        blknum
  C:0CCCH         LINE#         927
  C:0CCEH         LINE#         928
  C:0CCEH         LINE#         929
  C:0CD3H         LINE#         930
  C:0CD8H         LINE#         931
  C:0CDDH         LINE#         932
  -------         ENDPROC       _CH395SETSOCKETSENDBUF
  -------         PROC          _CH395UDPSENDTO
  X:02B0H         SYMBOL        buf
  X:02B3H         SYMBOL        len
  X:02B7H         SYMBOL        ip
  X:02BAH         SYMBOL        port
  X:02BCH         SYMBOL        sockindex
  C:062CH         LINE#         946
  C:063BH         LINE#         947
  C:063BH         LINE#         948
  C:064EH         LINE#         949
  C:065EH         LINE#         950
  -------         ENDPROC       _CH395UDPSENDTO
  -------         PROC          _CH395SETSTARTPARA
  X:02D7H         SYMBOL        mdata
  C:06D3H         LINE#         960
  C:06D9H         LINE#         961
  C:06D9H         LINE#         962
  C:06DEH         LINE#         963
  C:06E9H         LINE#         964
  C:06F5H         LINE#         965
  C:070BH         LINE#         966
  -------         ENDPROC       _CH395SETSTARTPARA
  -------         PROC          CH395CMDGETGLOBINTSTATUS_ALL
  -------         DO            
  D:0004H         SYMBOL        init_status
  -------         ENDDO         
  C:0B7FH         LINE#         976
  C:0B7FH         LINE#         977
  C:0B7FH         LINE#         979
  C:0B84H         LINE#         980
  C:0B89H         LINE#         981
  C:0B90H         LINE#         982
  C:0B9AH         LINE#         983
  C:0B9CH         LINE#         984
  C:0B9FH         LINE#         985
  -------         ENDPROC       CH395CMDGETGLOBINTSTATUS_ALL
  -------         PROC          _CH395SETKEEPLIVE
  D:0004H         SYMBOL        sockindex
  D:0005H         SYMBOL        cmd
  C:0D7EH         LINE#         995
  C:0D80H         LINE#         996
  C:0D80H         LINE#         997
  C:0D85H         LINE#         998
  C:0D8AH         LINE#         999
  -------         ENDPROC       _CH395SETKEEPLIVE
  -------         PROC          _CH395KEEPLIVECNT
  D:0005H         SYMBOL        cnt
  C:0E35H         LINE#         1009
BL51 BANKED LINKER/LOCATER V6.22                                                      03/29/2021  13:59:43  PAGE 22


  C:0E37H         LINE#         1010
  C:0E37H         LINE#         1011
  C:0E3CH         LINE#         1012
  -------         ENDPROC       _CH395KEEPLIVECNT
  -------         PROC          _CH395KEEPLIVEIDLE
  X:02DBH         SYMBOL        idle
  C:0721H         LINE#         1022
  C:0727H         LINE#         1023
  C:0727H         LINE#         1024
  C:072CH         LINE#         1025
  C:0737H         LINE#         1026
  C:0743H         LINE#         1027
  C:0759H         LINE#         1028
  -------         ENDPROC       _CH395KEEPLIVEIDLE
  -------         PROC          _CH395KEEPLIVEINTVL
  X:02DFH         SYMBOL        intvl
  C:076FH         LINE#         1038
  C:0775H         LINE#         1039
  C:0775H         LINE#         1040
  C:077AH         LINE#         1041
  C:0785H         LINE#         1042
  C:0791H         LINE#         1043
  C:07A7H         LINE#         1044
  -------         ENDPROC       _CH395KEEPLIVEINTVL
  -------         PROC          _CH395SETTTLNUM
  D:0004H         SYMBOL        sockindex
  D:0005H         SYMBOL        TTLnum
  C:0D8FH         LINE#         1055
  C:0D91H         LINE#         1056
  C:0D91H         LINE#         1057
  C:0D96H         LINE#         1058
  C:0D9BH         LINE#         1059
  -------         ENDPROC       _CH395SETTTLNUM
  -------         PROC          _MSTOPIFERROR
  D:0007H         SYMBOL        iError
  C:0E8AH         LINE#         64
  C:0E8AH         LINE#         65
  C:0E8AH         LINE#         66
  C:0E8DH         LINE#         70
  C:0E8DH         LINE#         71
  C:0E8DH         LINE#         72
  C:0E8DH         LINE#         73
  C:0E90H         LINE#         74
  C:0E92H         LINE#         75
  -------         ENDPROC       _MSTOPIFERROR
  -------         PROC          INITCH395INFPARAM
  C:0B5DH         LINE#         84
  C:0B5DH         LINE#         85
  C:0B5DH         LINE#         86
  C:0B6CH         LINE#         87
  -------         ENDPROC       INITCH395INFPARAM
  -------         PROC          INITSOCKETPARAM
  C:0CE2H         LINE#         97
  C:0CE2H         LINE#         98
  C:0CE2H         LINE#         99
  C:0CF1H         LINE#         100
  C:0CF7H         LINE#         101
BL51 BANKED LINKER/LOCATER V6.22                                                      03/29/2021  13:59:43  PAGE 23


  -------         ENDPROC       INITSOCKETPARAM
  -------         PROC          CH395SOCKETINITOPEN
  -------         DO            
  D:0007H         SYMBOL        i
  -------         ENDDO         
  C:0D5BH         LINE#         110
  C:0D5BH         LINE#         111
  C:0D5BH         LINE#         114
  C:0D65H         LINE#         115
  C:0D6AH         LINE#         116
  -------         ENDPROC       CH395SOCKETINITOPEN
  -------         PROC          _CH395SOCKETINTERRUPT
  X:0287H         SYMBOL        sockindex
  -------         DO            
  D:0007H         SYMBOL        sock_int_socket
  X:0288H         SYMBOL        tmp1
  X:028EH         SYMBOL        tmp2
  D:0007H         SYMBOL        i
  X:0294H         SYMBOL        len
  -------         ENDDO         
  C:0354H         LINE#         126
  C:0359H         LINE#         127
  C:0359H         LINE#         131
  C:035CH         LINE#         132
  C:035CH         LINE#         133
  C:035CH         LINE#         134
  C:035CH         LINE#         135
  C:035CH         LINE#         136
  C:035CH         LINE#         137
  C:035CH         LINE#         138
  C:0363H         LINE#         139
  C:0363H         LINE#         140
  C:0373H         LINE#         144
  C:0379H         LINE#         145
  C:038EH         LINE#         146
  C:03A4H         LINE#         149
  C:03A6H         LINE#         150
  C:03A6H         LINE#         151
  C:03BEH         LINE#         152
  C:03C3H         LINE#         153
  C:03C5H         LINE#         154
  C:03C5H         LINE#         155
  C:03DDH         LINE#         156
  C:03E2H         LINE#         157
  C:03E4H         LINE#         158
  C:03E4H         LINE#         159
  C:03FCH         LINE#         160
  C:0401H         LINE#         161
  C:0403H         LINE#         162
  C:0403H         LINE#         163
  C:041BH         LINE#         164
  C:0420H         LINE#         166
  C:043DH         LINE#         167
  C:043DH         LINE#         173
  C:043DH         LINE#         174
  C:043DH         LINE#         176
  C:043DH         LINE#         177
BL51 BANKED LINKER/LOCATER V6.22                                                      03/29/2021  13:59:43  PAGE 24


  C:043DH         LINE#         178
  C:043DH         LINE#         179
  C:043DH         LINE#         180
  C:043DH         LINE#         181
  C:043DH         LINE#         182
  C:043DH         LINE#         183
  -------         ENDPROC       _CH395SOCKETINTERRUPT
  -------         PROC          CH395GLOBALINTERRUPT
  -------         DO            
  X:0245H         SYMBOL        init_status
  X:0247H         SYMBOL        buf
  -------         ENDDO         
  C:055DH         LINE#         192
  C:055DH         LINE#         193
  C:055DH         LINE#         197
  C:0568H         LINE#         198
  C:056BH         LINE#         199
  C:056BH         LINE#         200
  C:0574H         LINE#         201
  C:0574H         LINE#         202
  C:0574H         LINE#         203
  C:0574H         LINE#         204
  C:0574H         LINE#         205
  C:0574H         LINE#         206
  C:0574H         LINE#         210
  C:0574H         LINE#         211
  C:057BH         LINE#         212
  C:057BH         LINE#         213
  C:0580H         LINE#         214
  C:0580H         LINE#         215
  C:0587H         LINE#         216
  C:0587H         LINE#         217
  C:058CH         LINE#         218
  C:058CH         LINE#         219
  C:0593H         LINE#         220
  C:0593H         LINE#         221
  C:0598H         LINE#         222
  C:0598H         LINE#         223
  C:059FH         LINE#         224
  C:059FH         LINE#         225
  C:05A4H         LINE#         226
  C:05A4H         LINE#         227
  C:05ABH         LINE#         228
  C:05ABH         LINE#         229
  C:05B0H         LINE#         230
  C:05B0H         LINE#         231
  C:05B7H         LINE#         232
  C:05B7H         LINE#         233
  C:05BCH         LINE#         234
  C:05BCH         LINE#         235
  C:05C3H         LINE#         236
  C:05C3H         LINE#         237
  C:05C8H         LINE#         238
  C:05C8H         LINE#         239
  C:05CFH         LINE#         240
  C:05CFH         LINE#         241
  C:05D4H         LINE#         242
BL51 BANKED LINKER/LOCATER V6.22                                                      03/29/2021  13:59:43  PAGE 25


  C:05D4H         LINE#         243
  -------         ENDPROC       CH395GLOBALINTERRUPT
  -------         PROC          CH395INIT
  -------         DO            
  D:0007H         SYMBOL        i
  -------         ENDDO         
  C:0C20H         LINE#         252
  C:0C20H         LINE#         253
  C:0C20H         LINE#         256
  C:0C25H         LINE#         257
  C:0C2DH         LINE#         268
  C:0C2DH         LINE#         269
  C:0C2DH         LINE#         270
  C:0C2DH         LINE#         271
  C:0C30H         LINE#         272
  C:0C35H         LINE#         273
  C:0C35H         LINE#         274
  C:0C35H         LINE#         275
  C:0C35H         LINE#         276
  C:0C38H         LINE#         277
  C:0C3BH         LINE#         278
  C:0C3BH         LINE#         279
  -------         ENDPROC       CH395INIT
  -------         PROC          MINITSTDIO
  C:0DA0H         LINE#         288
  C:0DA0H         LINE#         289
  C:0DA0H         LINE#         290
  C:0DA3H         LINE#         291
  C:0DA6H         LINE#         292
  C:0DA9H         LINE#         293
  C:0DACH         LINE#         294
  C:0DAEH         LINE#         295
  C:0DB0H         LINE#         296
  -------         ENDPROC       MINITSTDIO
  -------         PROC          MAIN
  -------         DO            
  D:0007H         SYMBOL        i
  -------         ENDDO         
  C:099CH         LINE#         305
  C:099CH         LINE#         306
  C:099CH         LINE#         309
  C:09A1H         LINE#         310
  C:09A4H         LINE#         314
  C:09A7H         LINE#         315
  C:09AAH         LINE#         316
  C:09ADH         LINE#         317
  C:09B0H         LINE#         319
  C:09B0H         LINE#         320
  C:09B0H         LINE#         321
  C:09B6H         LINE#         322
  C:09B6H         LINE#         323
  C:09BBH         LINE#         324
  C:09BDH         LINE#         326
  C:09BDH         LINE#         330
  C:09BDH         LINE#         331
  C:09BDH         LINE#         332
  C:09BDH         LINE#         333
BL51 BANKED LINKER/LOCATER V6.22                                                      03/29/2021  13:59:43  PAGE 26


  C:09C0H         LINE#         334
  C:09C3H         LINE#         335
  C:09C3H         LINE#         336
  C:09C3H         LINE#         337
  C:09C9H         LINE#         338
  -------         ENDPROC       MAIN
  -------         ENDMOD        CH395

  -------         MODULE        ?C?COPY
  C:00D3H         PUBLIC        ?C?COPY
  -------         ENDMOD        ?C?COPY

  -------         MODULE        ?C?CLDPTR
  C:00F9H         PUBLIC        ?C?CLDPTR
  -------         ENDMOD        ?C?CLDPTR

  -------         MODULE        ?C?CSTPTR
  C:0112H         PUBLIC        ?C?CSTPTR
  -------         ENDMOD        ?C?CSTPTR

  -------         MODULE        ?C?ILDIX
  C:0124H         PUBLIC        ?C?ILDIX
  -------         ENDMOD        ?C?ILDIX

  -------         MODULE        ?C?SLCMP
  C:013AH         PUBLIC        ?C?SLCMP
  -------         ENDMOD        ?C?SLCMP

  -------         MODULE        ?C?ULSHR
  C:0150H         PUBLIC        ?C?ULSHR
  -------         ENDMOD        ?C?ULSHR

  -------         MODULE        ?C?LSHL
  C:0163H         PUBLIC        ?C?LSHL
  -------         ENDMOD        ?C?LSHL

  -------         MODULE        ?C?LSTXDATA
  C:0176H         PUBLIC        ?C?LSTXDATA
  -------         ENDMOD        ?C?LSTXDATA

  -------         MODULE        ?C?LSTKXDATA
  C:0182H         PUBLIC        ?C?LSTKXDATA
  -------         ENDMOD        ?C?LSTKXDATA

  -------         MODULE        ?C?MEMSET
  C:01B3H         PUBLIC        ?C?MEMSET
  -------         ENDMOD        ?C?MEMSET

*** WARNING L16: UNCALLED SEGMENT, IGNORED FOR OVERLAY PROCESS
    SEGMENT: ?PR?CH395CMDRESET?CH395

*** WARNING L16: UNCALLED SEGMENT, IGNORED FOR OVERLAY PROCESS
    SEGMENT: ?PR?CH395CMDSLEEP?CH395

*** WARNING L16: UNCALLED SEGMENT, IGNORED FOR OVERLAY PROCESS
    SEGMENT: ?PR?CH395CMDGETVER?CH395

BL51 BANKED LINKER/LOCATER V6.22                                                      03/29/2021  13:59:43  PAGE 27


*** WARNING L16: UNCALLED SEGMENT, IGNORED FOR OVERLAY PROCESS
    SEGMENT: ?PR?_CH395CMDSETPHY?CH395

*** WARNING L16: UNCALLED SEGMENT, IGNORED FOR OVERLAY PROCESS
    SEGMENT: ?PR?CH395CMDGETGLOBINTSTATUS?CH395

*** WARNING L16: UNCALLED SEGMENT, IGNORED FOR OVERLAY PROCESS
    SEGMENT: ?PR?_CH395CMDSETUARTBAUDRATE?CH395

*** WARNING L16: UNCALLED SEGMENT, IGNORED FOR OVERLAY PROCESS
    SEGMENT: ?PR?_CH395CMDSETIPADDR?CH395

*** WARNING L16: UNCALLED SEGMENT, IGNORED FOR OVERLAY PROCESS
    SEGMENT: ?PR?_CH395CMDSETGWIPADDR?CH395

*** WARNING L16: UNCALLED SEGMENT, IGNORED FOR OVERLAY PROCESS
    SEGMENT: ?PR?_CH395CMDSETMASKADDR?CH395

*** WARNING L16: UNCALLED SEGMENT, IGNORED FOR OVERLAY PROCESS
    SEGMENT: ?PR?_CH395CMDSETMACADDR?CH395

*** WARNING L16: UNCALLED SEGMENT, IGNORED FOR OVERLAY PROCESS
    SEGMENT: ?PR?_CH395CMDGETMACADDR?CH395

*** WARNING L16: UNCALLED SEGMENT, IGNORED FOR OVERLAY PROCESS
    SEGMENT: ?PR?_CH395CMDSETMACFILT?CH395

*** WARNING L16: UNCALLED SEGMENT, IGNORED FOR OVERLAY PROCESS
    SEGMENT: ?PR?_CH395CMDGETREMOTEIPP?CH395

*** WARNING L16: UNCALLED SEGMENT, IGNORED FOR OVERLAY PROCESS
    SEGMENT: ?PR?_CH395SETSOCKETSOURPORT?CH395

*** WARNING L16: UNCALLED SEGMENT, IGNORED FOR OVERLAY PROCESS
    SEGMENT: ?PR?_CH395SETSOCKETIPRAWPROTO?CH395

*** WARNING L16: UNCALLED SEGMENT, IGNORED FOR OVERLAY PROCESS
    SEGMENT: ?PR?_CH395ENABLEPING?CH395

*** WARNING L16: UNCALLED SEGMENT, IGNORED FOR OVERLAY PROCESS
    SEGMENT: ?PR?_CH395CLEARRECVBUF?CH395

*** WARNING L16: UNCALLED SEGMENT, IGNORED FOR OVERLAY PROCESS
    SEGMENT: ?PR?_CH395CMDSETRETRYCOUNT?CH395

*** WARNING L16: UNCALLED SEGMENT, IGNORED FOR OVERLAY PROCESS
    SEGMENT: ?PR?_CH395CMDSETRETRYPERIOD?CH395

*** WARNING L16: UNCALLED SEGMENT, IGNORED FOR OVERLAY PROCESS
    SEGMENT: ?PR?_CH395CMDGETSOCKETSTATUS?CH395

*** WARNING L16: UNCALLED SEGMENT, IGNORED FOR OVERLAY PROCESS
    SEGMENT: ?PR?_CH395CLOSESOCKET?CH395

*** WARNING L16: UNCALLED SEGMENT, IGNORED FOR OVERLAY PROCESS
    SEGMENT: ?PR?_CH395TCPCONNECT?CH395

BL51 BANKED LINKER/LOCATER V6.22                                                      03/29/2021  13:59:43  PAGE 28


*** WARNING L16: UNCALLED SEGMENT, IGNORED FOR OVERLAY PROCESS
    SEGMENT: ?PR?_CH395TCPLISTEN?CH395

*** WARNING L16: UNCALLED SEGMENT, IGNORED FOR OVERLAY PROCESS
    SEGMENT: ?PR?_CH395TCPDISCONNECT?CH395

*** WARNING L16: UNCALLED SEGMENT, IGNORED FOR OVERLAY PROCESS
    SEGMENT: ?PR?_CH395CRCRET6BIT?CH395

*** WARNING L16: UNCALLED SEGMENT, IGNORED FOR OVERLAY PROCESS
    SEGMENT: ?PR?_CH395DHCPENABLE?CH395

*** WARNING L16: UNCALLED SEGMENT, IGNORED FOR OVERLAY PROCESS
    SEGMENT: ?PR?CH395GETDHCPSTATUS?CH395

*** WARNING L16: UNCALLED SEGMENT, IGNORED FOR OVERLAY PROCESS
    SEGMENT: ?PR?_CH395GETIPINF?CH395

*** WARNING L16: UNCALLED SEGMENT, IGNORED FOR OVERLAY PROCESS
    SEGMENT: ?PR?_CH395WRITEGPIOADDR?CH395

*** WARNING L16: UNCALLED SEGMENT, IGNORED FOR OVERLAY PROCESS
    SEGMENT: ?PR?_CH395READGPIOADDR?CH395

*** WARNING L16: UNCALLED SEGMENT, IGNORED FOR OVERLAY PROCESS
    SEGMENT: ?PR?CH395EEPROMERASE?CH395

*** WARNING L16: UNCALLED SEGMENT, IGNORED FOR OVERLAY PROCESS
    SEGMENT: ?PR?_CH395EEPROMWRITE?CH395

*** WARNING L16: UNCALLED SEGMENT, IGNORED FOR OVERLAY PROCESS
    SEGMENT: ?PR?_CH395EEPROMREAD?CH395

*** WARNING L16: UNCALLED SEGMENT, IGNORED FOR OVERLAY PROCESS
    SEGMENT: ?PR?_CH395SETTCPMSS?CH395

*** WARNING L16: UNCALLED SEGMENT, IGNORED FOR OVERLAY PROCESS
    SEGMENT: ?PR?_CH395SETSOCKETRECVBUF?CH395

*** WARNING L16: UNCALLED SEGMENT, IGNORED FOR OVERLAY PROCESS
    SEGMENT: ?PR?_CH395SETSOCKETSENDBUF?CH395

*** WARNING L16: UNCALLED SEGMENT, IGNORED FOR OVERLAY PROCESS
    SEGMENT: ?PR?_CH395UDPSENDTO?CH395

*** WARNING L16: UNCALLED SEGMENT, IGNORED FOR OVERLAY PROCESS
    SEGMENT: ?PR?_CH395SETSTARTPARA?CH395

*** WARNING L16: UNCALLED SEGMENT, IGNORED FOR OVERLAY PROCESS
    SEGMENT: ?PR?_CH395SETKEEPLIVE?CH395

*** WARNING L16: UNCALLED SEGMENT, IGNORED FOR OVERLAY PROCESS
    SEGMENT: ?PR?_CH395KEEPLIVECNT?CH395

*** WARNING L16: UNCALLED SEGMENT, IGNORED FOR OVERLAY PROCESS
    SEGMENT: ?PR?_CH395KEEPLIVEIDLE?CH395

BL51 BANKED LINKER/LOCATER V6.22                                                      03/29/2021  13:59:43  PAGE 29


*** WARNING L16: UNCALLED SEGMENT, IGNORED FOR OVERLAY PROCESS
    SEGMENT: ?PR?_CH395KEEPLIVEINTVL?CH395

*** WARNING L16: UNCALLED SEGMENT, IGNORED FOR OVERLAY PROCESS
    SEGMENT: ?PR?_CH395SETTTLNUM?CH395

Program Size: data=9.0 xdata=766 code=3747
LINK/LOCATE RUN COMPLETE.  43 WARNING(S),  0 ERROR(S)
