
DNS_Client.elf:     file format elf32-littleriscv
DNS_Client.elf
architecture: riscv:rv32, flags 0x00000112:
EXEC_P, HAS_SYMS, D_PAGED
start address 0x00000000

Program Header:
    LOAD off    0x00001000 vaddr 0x00000000 paddr 0x00000000 align 2**12
         filesz 0x00007ce0 memsz 0x00007ce0 flags r-x
    LOAD off    0x00009000 vaddr 0x20000000 paddr 0x00007ce0 align 2**12
         filesz 0x000000f0 memsz 0x0000111c flags rw-
    LOAD off    0x0000a000 vaddr 0x20020000 paddr 0x00008000 align 2**12
         filesz 0x0000c9e0 memsz 0x0000c9e0 flags rwx

Sections:
Idx Name          Size      VMA       LMA       File off  Algn
  0 .init         00000004  00000000  00000000  00001000  2**1
                  CONTENTS, ALLOC, LOAD, READONLY, CODE
  1 .vector       000000bc  00000004  00000004  00001004  2**1
                  CONTENTS, ALLOC, LOAD, READONLY, CODE
  2 .text         00007c20  000000c0  000000c0  000010c0  2**3
                  CONTENTS, ALLOC, LOAD, READONLY, CODE
  3 .ramcodelalign 00000000  00008000  00008000  000169e0  2**0
                  CONTENTS
  4 .ramcode      0000c9e0  20020000  00008000  0000a000  2**4
                  CONTENTS, ALLOC, LOAD, CODE
  5 .fini         00000000  00007ce0  00007ce0  000169e0  2**0
                  CONTENTS, ALLOC, LOAD, CODE
  6 .dalign       00000000  20000000  20000000  000169e0  2**0
                  CONTENTS
  7 .dlalign      00000000  00007ce0  00007ce0  000169e0  2**0
                  CONTENTS
  8 .data         000000f0  20000000  00007ce0  00009000  2**2
                  CONTENTS, ALLOC, LOAD, DATA
  9 .bss          0000102c  200000f0  00007dd0  000090f0  2**2
                  ALLOC
 10 .heap         00000000  2000111c  2000111c  000169e0  2**0
                  CONTENTS
 11 .usrstack     00000000  20004000  20004000  000169e0  2**0
                  CONTENTS
 12 .debug_info   00009e9c  00000000  00000000  000169e0  2**0
                  CONTENTS, READONLY, DEBUGGING
 13 .debug_abbrev 00001cdf  00000000  00000000  0002087c  2**0
                  CONTENTS, READONLY, DEBUGGING
 14 .debug_loc    00001b58  00000000  00000000  0002255b  2**0
                  CONTENTS, READONLY, DEBUGGING
 15 .debug_aranges 000002f8  00000000  00000000  000240b3  2**0
                  CONTENTS, READONLY, DEBUGGING
 16 .debug_ranges 00000408  00000000  00000000  000243ab  2**0
                  CONTENTS, READONLY, DEBUGGING
 17 .debug_line   0000656b  00000000  00000000  000247b3  2**0
                  CONTENTS, READONLY, DEBUGGING
 18 .debug_str    00001c6c  00000000  00000000  0002ad1e  2**0
                  CONTENTS, READONLY, DEBUGGING
 19 .comment      00000033  00000000  00000000  0002c98a  2**0
                  CONTENTS, READONLY
 20 .debug_frame  00001180  00000000  00000000  0002c9c0  2**2
                  CONTENTS, READONLY, DEBUGGING
 21 .stab         00000084  00000000  00000000  0002db40  2**2
                  CONTENTS, READONLY, DEBUGGING
 22 .stabstr      00000117  00000000  00000000  0002dbc4  2**0
                  CONTENTS, READONLY, DEBUGGING
SYMBOL TABLE:
00000000 l    d  .init	00000000 .init
00000004 l    d  .vector	00000000 .vector
000000c0 l    d  .text	00000000 .text
00008000 l    d  .ramcodelalign	00000000 .ramcodelalign
20020000 l    d  .ramcode	00000000 .ramcode
00007ce0 l    d  .fini	00000000 .fini
20000000 l    d  .dalign	00000000 .dalign
00007ce0 l    d  .dlalign	00000000 .dlalign
20000000 l    d  .data	00000000 .data
200000f0 l    d  .bss	00000000 .bss
2000111c l    d  .heap	00000000 .heap
20004000 l    d  .usrstack	00000000 .usrstack
00000000 l    d  .debug_info	00000000 .debug_info
00000000 l    d  .debug_abbrev	00000000 .debug_abbrev
00000000 l    d  .debug_loc	00000000 .debug_loc
00000000 l    d  .debug_aranges	00000000 .debug_aranges
00000000 l    d  .debug_ranges	00000000 .debug_ranges
00000000 l    d  .debug_line	00000000 .debug_line
00000000 l    d  .debug_str	00000000 .debug_str
00000000 l    d  .comment	00000000 .comment
00000000 l    d  .debug_frame	00000000 .debug_frame
00000000 l    d  .stab	00000000 .stab
00000000 l    d  .stabstr	00000000 .stabstr
00000000 l    df *ABS*	00000000 ./SRC/Startup/startup_CH56x.o
00000004 l       .vector	00000000 _vector_base
00000000 l    df *ABS*	00000000 tcp.c
00000500 l     F .text	000000dc tcp_new_port
20000134 l     O .bss	00000001 tcp_timer
200000c0 l     O .data	00000004 iss.3741
200000c4 l     O .data	00000002 port.3573
00000000 l    df *ABS*	00000000 tcp_in.c
00001a3a l     F .text	000000d4 tcp_parseopt
00001b0e l     F .text	00000112 tcp_oos_insert_segment
00001c20 l     F .text	0000112e tcp_receive
20000184 l     O .bss	00000014 inseg
20000138 l     O .bss	00000004 ackno
2000013c l     O .bss	00000001 flags
20000140 l     O .bss	00000004 iphdr
20000144 l     O .bss	00000004 recv_data
20000148 l     O .bss	00000001 recv_flags
2000014c l     O .bss	00000004 seqno
20000150 l     O .bss	00000004 tcphdr
20000154 l     O .bss	00000002 tcplen
00000000 l    df *ABS*	00000000 tcp_out.c
00004252 l     F .text	000001a8 tcp_output_set_header.constprop.0
00000000 l    df *ABS*	00000000 ip.c
2000011c l     O .bss	00000002 ip_id.3576
00000000 l    df *ABS*	00000000 mem.c
20000124 l     O .bss	00000004 ram
20000128 l     O .bss	00000004 ram_end
00000000 l    df *ABS*	00000000 memp.c
20000164 l     O .bss	00000020 memp_tab
00000000 l    df *ABS*	00000000 udp.c
00000000 l    df *ABS*	00000000 pbuf.c
00000000 l    df *ABS*	00000000 ip_addr.c
00000000 l    df *ABS*	00000000 ethernetif.c
0000758e l     F .text	0000009e low_level_output
00000000 l    df *ABS*	00000000 netif.c
2000012c l     O .bss	00000001 netifnum.2254
00000000 l    df *ABS*	00000000 PHY_interrupt.c
00000000 l    df *ABS*	00000000 ethernet_driver.c
00000000 l    df *ABS*	00000000 timer.c
00000000 l    df *ABS*	00000000 Main.c
00000000 l    df *ABS*	00000000 DNS_Client.c
00000000 l    df *ABS*	00000000 CH56x_clk.c
00000000 l    df *ABS*	00000000 CH56x_gpio.c
00000000 l    df *ABS*	00000000 CH56x_sys.c
200000f4 l     O .bss	00000002 p_ms
200000f6 l     O .bss	00000001 p_us
00000000 l    df *ABS*	00000000 ch569sock.c
00000000 l    df *ABS*	00000000 etharp.c
20022b62 l     F .ramcode	0000025c find_entry
20022dbe l     F .ramcode	000000f2 update_arp_entry
200000fc l     O .bss	00000001 etharp_cached_entry
00000000 l    df *ABS*	00000000 ipcheck.c
00000000 l    df *ABS*	00000000 inet.c
00000000 l    df *ABS*	00000000 init.c
00000000 l    df *ABS*	00000000 ip_frag.c
2000011e l     O .bss	00000002 ip_reass_pbufcount
20000120 l     O .bss	00000004 reassdatagrams
00000000 l    df *ABS*	00000000 raw.c
20000130 l     O .bss	00000004 raw_pcbs
00000000 l    df *ABS*	00000000 icmp.c
20024246 l     F .ramcode	000000c6 icmp_send_response
00000000 l    df *ABS*	00000000 inet_chksum.c
2002466e l     F .ramcode	00000084 lwip_standard_chksum
00000000 l    df *ABS*	00000000 memcpy.c
00000000 l    df *ABS*	00000000 printf.c
00000000 l    df *ABS*	00000000 putchar.c
00000000 l    df *ABS*	00000000 puts.c
00000000 l    df *ABS*	00000000 strchr.c
00000000 l    df *ABS*	00000000 strcpy.c
00000000 l    df *ABS*	00000000 strlen.c
00000000 l    df *ABS*	00000000 strncpy.c
00000000 l    df *ABS*	00000000 wbuf.c
00000000 l    df *ABS*	00000000 wsetup.c
00000000 l    df *ABS*	00000000 fflush.c
00000000 l    df *ABS*	00000000 findfp.c
20024ec2 l     F .ramcode	0000006a std
00000000 l    df *ABS*	00000000 fwalk.c
00000000 l    df *ABS*	00000000 makebuf.c
00000000 l    df *ABS*	00000000 nano-mallocr.c
00000000 l    df *ABS*	00000000 nano-mallocr.c
00000000 l    df *ABS*	00000000 nano-vfprintf.c
2002538e l     F .ramcode	0000002a __sfputc_r
00000000 l    df *ABS*	00000000 nano-vfprintf_i.c
00000000 l    df *ABS*	00000000 putc.c
00000000 l    df *ABS*	00000000 sbrkr.c
00000000 l    df *ABS*	00000000 stdio.c
00000000 l    df *ABS*	00000000 writer.c
00000000 l    df *ABS*	00000000 closer.c
00000000 l    df *ABS*	00000000 fstatr.c
00000000 l    df *ABS*	00000000 isattyr.c
00000000 l    df *ABS*	00000000 lseekr.c
00000000 l    df *ABS*	00000000 memchr.c
00000000 l    df *ABS*	00000000 mlock.c
00000000 l    df *ABS*	00000000 readr.c
00000000 l    df *ABS*	00000000 close.c
00000000 l    df *ABS*	00000000 fstat.c
00000000 l    df *ABS*	00000000 isatty.c
00000000 l    df *ABS*	00000000 lseek.c
00000000 l    df *ABS*	00000000 read.c
00000000 l    df *ABS*	00000000 sbrk.c
20000160 l     O .bss	00000004 heap_end.1518
00000000 l    df *ABS*	00000000 mem_malloc.c
00000000 l    df *ABS*	00000000 impure.c
20000040 l     O .data	00000060 impure_data
00000000 l    df *ABS*	00000000 reent.c
00007b88 g     F .text	00000028 GPIO_IRQHandler
200249d6 g     F .ramcode	0000002e putchar
2002481e g     F .ramcode	00000014 inet_chksum
200240cc g     F .ramcode	00000026 raw_bind
20023836 g     F .ramcode	00000574 ip_reass
000071c4 g     F .text	000000f6 pbuf_realloc
20025c52 g     F .ramcode	00000030 _isatty_r
20024b08 g     F .ramcode	00000012 strcpy
0000174e g     F .text	0000001a tcp_next_iss
20024a04 g     F .ramcode	000000da _puts_r
00000880 g     F .text	000000a6 tcp_update_rcv_ann_wnd
20025c82 g     F .ramcode	00000034 _lseek_r
200010f0 g     O .bss	00000004 netif_list
000000dc  w      .text	00000000 EMMC_IRQHandler
20020d32 g     F .ramcode	00000006 Net_TimerIsr
000051ec g     F .text	00000164 tcp_rst
20000000 g     O .data	00000040 url_dns
000000d2  w      .text	00000000 LINK_IRQHandler
200001ac g     O .bss	00000200 dns_buf
20022748 g     F .ramcode	0000002a CH569NET_MainTask
20000118 g     O .bss	00000004 TCPTimer
20023122 g     F .ramcode	00000124 etharp_request
20001014 g     O .bss	00000001 PingEnable
20024992 g     F .ramcode	00000044 printf
20020008 g     F .ramcode	00000028 .hidden __riscv_save_8
00000a38 g     F .text	0000001c tcp_err
200000dc g     O .data	00000004 ip_addr_any
200246f2 g     F .ramcode	0000012c inet_chksum_pseudo
200204c4 g     F .ramcode	000000e0 ETH_StructInit
20025b7e g     F .ramcode	00000036 __sseek
20024f7c g     F .ramcode	00000070 __sinit
00004a2e g     F .text	0000001e tcp_send_ctrl
00006d18 g     F .text	0000008c udp_remove
20024b50 g     F .ramcode	000000c0 __swbuf_r
00007c98 g     F .text	00000048 HardFault_Handler
00005b2e g     F .text	000001f4 ip_output_if
200223ec g     F .ramcode	00000026 CH569NET_SocketRecvLen
20024f36 g     F .ramcode	00000046 __sfmoreglue
20020108 g     F .ramcode	000000ce phy_int_cheak_init
000061ca g     F .text	00000018 memp_free
20025cd2 g     F .ramcode	00000002 __malloc_unlock
00006ed0 g     F .text	0000008e pbuf_free
20020054 g     F .ramcode	0000000c .hidden __riscv_restore_3
200207f2 g     F .ramcode	000002e4 ETH_Init
000000c4  w      .text	00000000 SysTick_Handler
00007306 g     F .text	0000006e pbuf_cat
20001018 g     O .bss	00000014 CH569Cfg
200226e2 g     F .ramcode	0000002c CH569NET_GetSocketInt
200229c0 g     F .ramcode	0000003c CloseUpdConnect
00005d22 g     F .text	0000003c ip_output
20020040 g     F .ramcode	00000020 .hidden __riscv_restore_10
000066ce g     F .text	00000054 udp_sendto
000000c0  w      .text	00000000 NMI_Handler
200212e6 g     F .ramcode	000000d6 CH569NET_HandleSockInt
00005586 g     F .text	00000068 tcp_keepalive
20022eb0 g     F .ramcode	00000080 etharp_tmr
20020008 g     F .ramcode	00000028 .hidden __riscv_save_11
00001768 g     F .text	00000284 tcp_alloc
000000e4  w      .text	00000000 UART1_IRQHandler
0000762c g     F .text	00000038 low_level_init
20026474 g     O .ramcode	00000010 MemSize
00006722 g     F .text	000002da udp_sendto_if
00000a1c g     F .text	0000001c tcp_arg
20021fba g     F .ramcode	00000208 CH569NET_SocketCreat
000000da  w      .text	00000000 USBHS_IRQHandler
20022f88 g     F .ramcode	0000019a etharp_arp_input
200010f8 g     O .bss	00000004 tcp_active_pcbs
20025c20 g     F .ramcode	00000032 _fstat_r
20001114 g     O .bss	00000004 udp_pcbs
20001118 g     O .bss	00000004 errno
20023522 g     F .ramcode	00000084 ethernet_input
200000f0 g       .bss	00000000 _sbss
00000800 g       *ABS*	00000000 __stack_size
000072e6 g     F .text	00000020 pbuf_ref
00001424 g     F .text	00000040 tcp_recv_null
200010e4 g     O .bss	00000004 current_netif
000012a8 g     F .text	0000017c tcp_close
200008a0 g       .data	00000000 _global_pointer$
200010d8 g     O .bss	0000000c SelARP
00000926 g     F .text	0000006c tcp_recved
20020054 g     F .ramcode	0000000c .hidden __riscv_restore_2
00000a54 g     F .text	00000102 tcp_pcb_purge
000000d8  w      .text	00000000 UART0_IRQHandler
200000e0 g     O .data	00000007 tcp_persist_backoff
200010ec g     O .bss	00000004 lfree
20021f70 g     F .ramcode	00000016 CH569NET_ConfigKeepLive
200248dc g     F .ramcode	000000b6 memcpy
00005db2 g     F .text	000000fa mem_free
200010fc g     O .bss	00000004 tcp_ticks
2002069e g     F .ramcode	00000050 ETH_buf_init
20001100 g     O .bss	00000004 tcp_listen_pcbs
00005350 g     F .text	000000a0 tcp_rexmit_rto
20024f2c g     F .ramcode	0000000a _cleanup_r
200229fc g     F .ramcode	00000038 CloseIPRAWConnect
0000753c g     F .text	00000052 ip_addr_isbroadcast
20000f1c g     O .bss	00000004 DMARxDescToGet
000019ec g     F .text	00000016 tcp_new
2002142c g     F .ramcode	00000074 UDPSocketParamInit
200235f4 g     F .ramcode	0000005c IPCheckTmr
20024ade g     F .ramcode	00000010 puts
2000102c g     O .bss	00000018 DHCPCtrl
200241b8 g     F .ramcode	0000000e raw_send
20024832 g     F .ramcode	000000aa inet_chksum_pbuf
000000c6  w      .text	00000000 SWI_Handler
20025d18 g     F .ramcode	00000010 _fstat
2002430c g     F .ramcode	0000033e icmp_input
00000004 g       .init	00000000 _einit
20021e12 g     F .ramcode	0000015e CH569NET_Init
00007b08 g     F .text	0000006e netif_add
20020000 g     F .ramcode	00000030 .hidden __riscv_save_12
000009c4 g     F .text	00000024 tcp_segs_free
20020ddc g     F .ramcode	00000024 DnsQuestion
00007c44 g     F .text	0000002a PMT_IRQHandler
0000795e g     F .text	00000146 netif_set_ipaddr
20020040 g     F .ramcode	00000020 .hidden __riscv_restore_11
000000e2  w      .text	00000000 SPI1_IRQHandler
20025ad0 g     F .ramcode	00000030 _sbrk_r
00004a4c g     F .text	00000050 tcp_write
200000a0 g     O .data	00000004 DNS_SERVER_IP
20020030 g     F .ramcode	0000000c .hidden __riscv_save_1
00007c6e g     F .text	0000002a TMR0_IRQHandler
20020054 g     F .ramcode	0000000c .hidden __riscv_restore_0
20025cd4 g     F .ramcode	00000034 _read_r
20020016 g     F .ramcode	0000001a .hidden __riscv_save_7
20021254 g     F .ramcode	00000026 net_initkeeplive
000005dc g     F .text	000002a4 tcp_bind
20021748 g     F .ramcode	00000330 GPIOB_ITModeCfg
2002465c g     F .ramcode	00000012 icmp_time_exceeded
20023daa g     F .ramcode	00000294 ip_frag
20021aa2 g     F .ramcode	0000002c mDelaymS
000000f0  w      .text	00000000 ECDC_IRQHandler
2002031c g     F .ramcode	0000002a ETH_GPIO_Init
2002411e g     F .ramcode	0000009a raw_sendto
20025d28 g     F .ramcode	00000010 _isatty
20020be8 g     F .ramcode	0000002a ETH_init
200000e8 g     O .data	00000004 _global_impure_ptr
2002004a g     F .ramcode	00000016 .hidden __riscv_restore_5
200003ac g     O .bss	00000001 SocketId
20020000 g       .ramcode	00000000 _ramcode_vma
20025d58 g     F .ramcode	00000030 _sbrk
0000738c g     F .text	000001b0 pbuf_copy
000053f0 g     F .text	000000da tcp_rexmit
20000f20 g     O .bss	00000004 DMATxDescToSet
20020ad6 g     F .ramcode	000000b2 ETH_MACDMA_Config
2002004a g     F .ramcode	00000016 .hidden __riscv_restore_6
20001104 g     O .bss	00000004 tcp_tmp_pcb
2000111c g       .bss	00000000 _ebss
200003b0 g     O .bss	000005b4 MyBuf
20028b60 g     O .ramcode	0000120c Mem_Heap_Memory
20000108 g     O .bss	00000004 DHCPcoarseTimer
20001044 g     O .bss	00000001 SocketNum
20020346 g     F .ramcode	00000032 RGMII_TXC_Delay
20021a78 g     F .ramcode	0000002a Delay_Init
00005d5e g     F .text	00000054 mem_init
000000de  w      .text	00000000 DVP_IRQHandler
200206ee g     F .ramcode	00000040 Check_TxDes
00004b16 g     F .text	000006d6 tcp_output
20020e00 g     F .ramcode	00000096 DnsAnswer
000000d0  w      .text	00000000 USBSS_IRQHandler
20025a4a g     F .ramcode	00000086 _putc_r
200203a4 g     F .ramcode	00000030 ETH_uClock_enable
20001110 g     O .bss	00000004 tcp_input_pcb
2002403e g     F .ramcode	0000008e raw_input
00004a9c g     F .text	0000007a tcp_send_empty_ack
20020008 g     F .ramcode	00000028 .hidden __riscv_save_9
000054ca g     F .text	000000bc tcp_rexmit_fast
200010a4 g     O .bss	00000034 CH569NetIf
20029d6c g     O .ramcode	00002c73 Memp_Memory
200236ca g     F .ramcode	0000000a ntohl
20000198 g     O .bss	0000000c globe_eth_status
2002072e g     F .ramcode	0000000e ETH_SoftwareReset
200265c4 g     O .ramcode	00000020 __sf_fake_stderr
20020016 g     F .ramcode	0000001a .hidden __riscv_save_4
00007b76 g     F .text	0000000a netif_set_default
2002079e g     F .ramcode	00000054 ETH_WritePHYRegister
00006cea g     F .text	0000002e udp_recv
2000111c g       .bss	00000000 end
200001a4 g     O .bss	00000008 Globe_RxDes_status
000000e6  w      .text	00000000 UART2_IRQHandler
200214a0 g     F .ramcode	00000028 register_if_fn
00008000 g       .ramcodelalign	00000000 _ramcode_lma
20023650 g     F .ramcode	0000003a IPConflictHandle
00006f5e g     F .text	00000266 pbuf_alloc
200235cc g     F .ramcode	00000028 SelIPARPSend
20022688 g     F .ramcode	00000048 CH569NET_QueryGlobalInt
20021da8 g     F .ramcode	00000022 MemShortCopy
2002127a g     F .ramcode	0000006c CH569NET_LibInit
20020fb8 g     F .ramcode	00000130 MakeDnsQueryMsg
200253b8 g     F .ramcode	00000044 __sfputs_r
20025cb6 g     F .ramcode	0000001a memchr
200236ec g     F .ramcode	0000014a ip_reass_tmr
200000bc g     O .data	00000004 memp_sizes
200251f6 g     F .ramcode	000000b0 _free_r
20020030 g     F .ramcode	0000000c .hidden __riscv_save_3
00006b94 g     F .text	00000156 udp_connect
200010e8 g     O .bss	00000004 current_header
20026484 g     O .ramcode	00000010 ErrTable
00007aa4 g     F .text	00000064 netif_set_addr
20021202 g     F .ramcode	00000052 DebugInit
00000000 g       .init	00000000 _start
20020c12 g     F .ramcode	000000ec ETH_MACDMA_reConfig
20025d38 g     F .ramcode	00000010 _lseek
000061aa g     F .text	00000020 memp_malloc
20022620 g     F .ramcode	00000068 CH569ScokedIntHandle
000055ee g     F .text	00000128 tcp_zero_window_probe
20020b88 g     F .ramcode	00000060 Mac_init
20000104 g     O .bss	00000004 DHCPTestTimer
20001048 g     O .bss	0000000c KeepLiveCfg
20020386 g     F .ramcode	0000001e ETH_Mem_Malloc
20024b2c g     F .ramcode	00000024 strncpy
20001108 g     O .bss	00000004 tcp_bound_pcbs
200236a6 g     F .ramcode	00000024 htonl
00000992 g     F .text	00000032 tcp_seg_free
000000d6  w      .text	00000000 TMR2_IRQHandler
20021fa6 g     F .ramcode	00000004 CH569NET_GetVer
20022916 g     F .ramcode	000000aa LwipRemoveTcpPcb
00007844 g     F .text	0000011a LwIPPeriodicHandle
200000f8 g     O .bss	00000004 CH569NETConfig
200203d4 g     F .ramcode	0000009a mac_send
2002073c g     F .ramcode	0000000a ETH_GetSoftwareResetStatus
20025bf0 g     F .ramcode	00000030 _close_r
00005fe6 g     F .text	0000016a mem_malloc
20000000 g       .dalign	00000000 _data_vma
20001054 g     O .bss	00000044 CH569Inf
200205e2 g     F .ramcode	00000054 ETH_DMARxDescChainInit
20021af6 g     F .ramcode	00000002 CH569TCPError
20024c10 g     F .ramcode	00000110 __swsetup_r
20020746 g     F .ramcode	00000058 ETH_ReadPHYRegister
20024fec g     F .ramcode	000000a4 __sfp
000043fa g     F .text	00000634 tcp_enqueue
00001a02 g     F .text	00000038 tcp_eff_send_mss
20020008 g     F .ramcode	00000028 .hidden __riscv_save_10
200228b2 g     F .ramcode	00000064 CH569FileCorrectTCBPcb
20025b00 g     F .ramcode	00000030 __sread
20025cd0 g     F .ramcode	00000002 __malloc_lock
2002004a g     F .ramcode	00000016 .hidden __riscv_restore_4
20020040 g     F .ramcode	00000020 .hidden __riscv_restore_8
20024e5c g     F .ramcode	00000066 _fflush_r
20020016 g     F .ramcode	0000001a .hidden __riscv_save_6
200240f2 g     F .ramcode	00000026 raw_connect
200265e4 g     O .ramcode	00000020 __sf_fake_stdin
20020060 g     F .ramcode	000000a8 memset
20020040 g     F .ramcode	00000020 .hidden __riscv_restore_9
2002004a g     F .ramcode	00000016 .hidden __riscv_restore_7
200214c8 g     F .ramcode	00000186 main
20000114 g     O .bss	00000004 LocalTime
2002464a g     F .ramcode	00000012 icmp_dest_unreach
20021af8 g     F .ramcode	0000014c SocketIPRAWReceive
20020378 g     F .ramcode	0000000e Get_TxBuff_Addr
00007b80 g     F .text	00000008 netif_is_up
20025bb4 g     F .ramcode	00000006 __sclose
20021dca g     F .ramcode	00000048 CH569SocketInit
20023698 g     F .ramcode	0000000e ntohs
200252a6 g     F .ramcode	000000e8 _malloc_r
20000110 g     O .bss	00000004 IPFragTimer
20024204 g     F .ramcode	00000042 raw_new
0000769a g     F .text	000000ea ethernetif_input
2002046e g     F .ramcode	00000056 mac_rece
200201d6 g     F .ramcode	00000146 cheak_phy_int
200241c6 g     F .ramcode	0000003e raw_remove
20022526 g     F .ramcode	000000fa SocketUdpSend
000069fc g     F .text	00000198 udp_bind
00001556 g     F .text	00000030 tcp_tmr
20023246 g     F .ramcode	00000156 etharp_query
20020e96 g     F .ramcode	00000122 parseMSG
200236d4 g     F .ramcode	00000018 lwip_init
2002339c g     F .ramcode	00000186 etharp_output
2002164e g     F .ramcode	000000fa SystemInit
200000f0 g     O .bss	00000004 count
20024992 g     F .ramcode	00000044 iprintf
20022772 g     F .ramcode	000000ee SocketTcpSend
20022b4a g     F .ramcode	00000018 frame_input
000072ba g     F .text	0000002c pbuf_clen
00000000 g       .init	00000000 _sinit
20025bba g     F .ramcode	00000036 _write_r
20021d8a g     F .ramcode	0000001e ErrorEncode
00006694 g     F .text	0000003a udp_send
20024118 g     F .ramcode	00000006 raw_recv
20026464 g     O .ramcode	00000010 MemNum
00007bb0 g     F .text	00000094 ETH_IRQHandler
2002569a g     F .ramcode	0000010c _printf_common
200000c8 g     O .data	00000004 _impure_ptr
20021f86 g     F .ramcode	00000020 CH569NET_ConfigLIB
00000b56 g     F .text	000005de tcp_slowtmr
200226d0 g     F .ramcode	00000012 CH569NET_GetGlobalInt
20024d20 g     F .ramcode	0000013c __sflush_r
20022a34 g     F .ramcode	00000082 CloseTcpPCB
200000a8 g     O .data	00000004 CH569IPAddr
00007664 g     F .text	00000036 ethernetif_init
20004000 g       .usrstack	00000000 _eusrstack
20020030 g     F .ramcode	0000000c .hidden __riscv_save_2
20022860 g     F .ramcode	00000052 CH569NET_SocketSend
200221c2 g     F .ramcode	00000044 tcp_recved_socket
200235a6 g     F .ramcode	00000026 IPCheckParaInit
2002c9e0 g       .ramcode	00000000 _eramcode
200250fc g     F .ramcode	0000005a __swhatbuf_r
2000110c g     O .bss	00000004 tcp_tw_pcbs
20020d38 g     F .ramcode	000000a4 ParseName
000061e2 g     F .text	000004b2 udp_input
20020016 g     F .ramcode	0000001a .hidden __riscv_save_5
2000010c g     O .bss	00000004 DHCPfineTimer
20021ace g     F .ramcode	00000028 _write
200000f0 g       .data	00000000 _edata
000000ce  w      .text	00000000 SPI0_IRQHandler
2002368a g     F .ramcode	0000000e htons
00005716 g     F .text	00000066 ip_route
00007ce0 g       .dlalign	00000000 _data_lma
00006de8 g     F .text	000000e8 pbuf_header
00005eac g     F .text	0000013a mem_realloc
200010f4 g     O .bss	00000004 netif_default
0000118e g     F .text	0000011a tcp_pcb_remove
200000b0 g     O .data	00000004 SubMaskIp
20025b30 g     F .ramcode	0000004e __swrite
2002270e g     F .ramcode	0000003a CH569IPSetSocketRecvInit
00007374 g     F .text	00000018 pbuf_chain
20028a60 g     O .ramcode	00000100 Mem_ArpTable
20026660 g     O .ramcode	00002400 MAC_QUEUE
20000100 g     O .bss	00000004 ARPTimer
20022ab6 g     F .ramcode	00000060 CH569NET_SocketClose
00001586 g     F .text	000001c8 tcp_abandon
20021c44 g     F .ramcode	00000146 SocketUdpReceive
200253fc g     F .ramcode	0000029e _vfiprintf_r
200000b4 g     O .data	00000006 local_mac
200205a4 g     F .ramcode	0000003e ETH_MACAddressConfig
20025090 g     F .ramcode	0000006c _fwalk_reent
20000f24 g     O .bss	000000f0 SocketInf
00006150 g     F .text	0000005a memp_init
00001464 g     F .text	000000f2 tcp_fasttmr
20022412 g     F .ramcode	00000114 SocketIPRawSend
20020cfe g     F .ramcode	00000034 TMR0_init
20026604 g     O .ramcode	00000020 __sf_fake_stdout
20022f30 g     F .ramcode	00000058 etharp_ip_input
20021faa g     F .ramcode	00000010 CH569NET_TimeIsr
2002003c g     F .ramcode	00000024 .hidden __riscv_restore_12
000000c8  w      .text	00000000 WDOG_IRQHandler
200213bc g     F .ramcode	00000070 CH569NET_HandleGlobalInt
000000e0  w      .text	00000000 HSPI_IRQHandler
20001098 g     O .bss	0000000c ethernet_if
20025d48 g     F .ramcode	00000010 _read
000000f2  w      .text	00000000 handle_reset
20000964 g     O .bss	000005b4 SocketRecvBuf
200210e8 g     F .ramcode	0000011a DnsQuery
20020030 g     F .ramcode	0000000c .hidden __riscv_save_0
20022b16 g     F .ramcode	0000000a QueryPingEnable
000009e8 g     F .text	00000034 tcp_seg_copy
20025156 g     F .ramcode	000000a0 __smakebuf_r
00007784 g     F .text	000000c0 SetupNetif
20024b1a g     F .ramcode	00000012 strlen
200257a6 g     F .ramcode	000002a4 _printf_i
00006da4 g     F .text	00000044 udp_new
000000e8  w      .text	00000000 UART3_IRQHandler
2000015c g     O .bss	00000004 __malloc_sbrk_start
200000a4 g     O .data	00000002 MSG_ID
20024aee g     F .ramcode	0000001a strchr
200000ac g     O .data	00000004 GatewayIp
200000cc g     O .data	00000006 ethbroadcast
20026518 g     O .ramcode	00000014 tcp_backoff
20000158 g     O .bss	00000004 __malloc_free_list
20020054 g     F .ramcode	0000000c .hidden __riscv_restore_1
200253fc g     F .ramcode	0000029e _vfprintf_r
000000d4  w      .text	00000000 TMR1_IRQHandler
20022b3e g     F .ramcode	0000000c LwipArpCheck
000000ea  w      .text	00000000 SERDES_IRQHandler
20000f18 g     O .bss	00000001 status
00002d4e g     F .text	00001504 tcp_input
20022206 g     F .ramcode	000001e6 CH569NET_SocketRecv
00001134 g     F .text	0000005a RemoveTimeWaiTCP
0000577c g     F .text	000003b2 ip_input
200000d4 g     O .data	00000006 ethzero
20025d08 g     F .ramcode	00000010 _close
20022b20 g     F .ramcode	0000001e LwipUnreachPort
20020636 g     F .ramcode	00000068 ETH_DMATxDescChainInit



Disassembly of section .init:

00000000 <_sinit>:
   0:	0f20006f          	j	f2 <handle_reset>

Disassembly of section .vector:

00000004 <_vector_base>:
	...
   c:	0b40006f          	j	c0 <NMI_Handler>
  10:	4890706f          	j	7c98 <HardFault_Handler>
	...
  34:	0900006f          	j	c4 <SysTick_Handler>
  38:	0000                	unimp
  3a:	0000                	unimp
  3c:	08a0006f          	j	c6 <SWI_Handler>
  40:	0000                	unimp
  42:	0000                	unimp
  44:	0840006f          	j	c8 <WDOG_IRQHandler>
  48:	4270706f          	j	7c6e <TMR0_IRQHandler>
  4c:	33d0706f          	j	7b88 <GPIO_IRQHandler>
  50:	07e0006f          	j	ce <SPI0_IRQHandler>
  54:	07c0006f          	j	d0 <USBSS_IRQHandler>
  58:	07a0006f          	j	d2 <LINK_IRQHandler>
  5c:	0780006f          	j	d4 <TMR1_IRQHandler>
  60:	0760006f          	j	d6 <TMR2_IRQHandler>
  64:	0740006f          	j	d8 <UART0_IRQHandler>
  68:	0720006f          	j	da <USBHS_IRQHandler>
  6c:	0700006f          	j	dc <EMMC_IRQHandler>
  70:	06e0006f          	j	de <DVP_IRQHandler>
  74:	06c0006f          	j	e0 <HSPI_IRQHandler>
  78:	06a0006f          	j	e2 <SPI1_IRQHandler>
  7c:	0680006f          	j	e4 <UART1_IRQHandler>
  80:	0660006f          	j	e6 <UART2_IRQHandler>
  84:	0640006f          	j	e8 <UART3_IRQHandler>
  88:	0620006f          	j	ea <SERDES_IRQHandler>
  8c:	3250706f          	j	7bb0 <ETH_IRQHandler>
  90:	3b50706f          	j	7c44 <PMT_IRQHandler>
  94:	05c0006f          	j	f0 <ECDC_IRQHandler>
	...

Disassembly of section .text:

000000c0 <NMI_Handler>:
      c0:	a001                	j	c0 <NMI_Handler>
      c2:	a001                	j	c2 <NMI_Handler+0x2>

000000c4 <SysTick_Handler>:
      c4:	a001                	j	c4 <SysTick_Handler>

000000c6 <SWI_Handler>:
      c6:	a001                	j	c6 <SWI_Handler>

000000c8 <WDOG_IRQHandler>:
      c8:	a001                	j	c8 <WDOG_IRQHandler>
      ca:	a001                	j	ca <WDOG_IRQHandler+0x2>
      cc:	a001                	j	cc <WDOG_IRQHandler+0x4>

000000ce <SPI0_IRQHandler>:
      ce:	a001                	j	ce <SPI0_IRQHandler>

000000d0 <USBSS_IRQHandler>:
      d0:	a001                	j	d0 <USBSS_IRQHandler>

000000d2 <LINK_IRQHandler>:
      d2:	a001                	j	d2 <LINK_IRQHandler>

000000d4 <TMR1_IRQHandler>:
      d4:	a001                	j	d4 <TMR1_IRQHandler>

000000d6 <TMR2_IRQHandler>:
      d6:	a001                	j	d6 <TMR2_IRQHandler>

000000d8 <UART0_IRQHandler>:
      d8:	a001                	j	d8 <UART0_IRQHandler>

000000da <USBHS_IRQHandler>:
      da:	a001                	j	da <USBHS_IRQHandler>

000000dc <EMMC_IRQHandler>:
      dc:	a001                	j	dc <EMMC_IRQHandler>

000000de <DVP_IRQHandler>:
      de:	a001                	j	de <DVP_IRQHandler>

000000e0 <HSPI_IRQHandler>:
      e0:	a001                	j	e0 <HSPI_IRQHandler>

000000e2 <SPI1_IRQHandler>:
      e2:	a001                	j	e2 <SPI1_IRQHandler>

000000e4 <UART1_IRQHandler>:
      e4:	a001                	j	e4 <UART1_IRQHandler>

000000e6 <UART2_IRQHandler>:
      e6:	a001                	j	e6 <UART2_IRQHandler>

000000e8 <UART3_IRQHandler>:
      e8:	a001                	j	e8 <UART3_IRQHandler>

000000ea <SERDES_IRQHandler>:
      ea:	a001                	j	ea <SERDES_IRQHandler>
      ec:	a001                	j	ec <SERDES_IRQHandler+0x2>
      ee:	a001                	j	ee <SERDES_IRQHandler+0x4>

000000f0 <ECDC_IRQHandler>:
      f0:	a001                	j	f0 <ECDC_IRQHandler>

000000f2 <handle_reset>:
      f2:	20000197          	auipc	gp,0x20000
      f6:	7ae18193          	addi	gp,gp,1966 # 200008a0 <_global_pointer$>
      fa:	20004117          	auipc	sp,0x20004
      fe:	f0610113          	addi	sp,sp,-250 # 20004000 <_eusrstack>
     102:	00008517          	auipc	a0,0x8
     106:	efe50513          	addi	a0,a0,-258 # 8000 <_ramcode_lma>
     10a:	20020597          	auipc	a1,0x20020
     10e:	ef658593          	addi	a1,a1,-266 # 20020000 <__riscv_save_12>
     112:	2002d617          	auipc	a2,0x2002d
     116:	8ce60613          	addi	a2,a2,-1842 # 2002c9e0 <_eramcode>
     11a:	00c5fa63          	bgeu	a1,a2,12e <handle_reset+0x3c>
     11e:	00052283          	lw	t0,0(a0)
     122:	0055a023          	sw	t0,0(a1)
     126:	0511                	addi	a0,a0,4
     128:	0591                	addi	a1,a1,4
     12a:	fec5eae3          	bltu	a1,a2,11e <handle_reset+0x2c>
     12e:	00008517          	auipc	a0,0x8
     132:	bb250513          	addi	a0,a0,-1102 # 7ce0 <_data_lma>
     136:	20000597          	auipc	a1,0x20000
     13a:	eca58593          	addi	a1,a1,-310 # 20000000 <_data_vma>
     13e:	20000617          	auipc	a2,0x20000
     142:	fb260613          	addi	a2,a2,-78 # 200000f0 <_edata>
     146:	00c5fa63          	bgeu	a1,a2,15a <handle_reset+0x68>
     14a:	00052283          	lw	t0,0(a0)
     14e:	0055a023          	sw	t0,0(a1)
     152:	0511                	addi	a0,a0,4
     154:	0591                	addi	a1,a1,4
     156:	fec5eae3          	bltu	a1,a2,14a <handle_reset+0x58>
     15a:	20000517          	auipc	a0,0x20000
     15e:	f9650513          	addi	a0,a0,-106 # 200000f0 <_edata>
     162:	20001597          	auipc	a1,0x20001
     166:	fba58593          	addi	a1,a1,-70 # 2000111c <_ebss>
     16a:	00b57763          	bgeu	a0,a1,178 <handle_reset+0x86>
     16e:	00052023          	sw	zero,0(a0)
     172:	0511                	addi	a0,a0,4
     174:	feb56de3          	bltu	a0,a1,16e <handle_reset+0x7c>
     178:	08800293          	li	t0,136
     17c:	3002a073          	csrs	mstatus,t0
     180:	00000297          	auipc	t0,0x0
     184:	e8428293          	addi	t0,t0,-380 # 4 <_einit>
     188:	0012e293          	ori	t0,t0,1
     18c:	30529073          	csrw	mtvec,t0
     190:	20021297          	auipc	t0,0x20021
     194:	33828293          	addi	t0,t0,824 # 200214c8 <main>
     198:	34129073          	csrw	mepc,t0
     19c:	30200073          	mret
     1a0:	00000263          	beqz	zero,1a4 <handle_reset+0xb2>
     1a4:	00350003          	lb	zero,3(a0)
     1a8:	0000                	unimp
     1aa:	0101                	addi	sp,sp,0
     1ac:	000d0efb          	0xd0efb
     1b0:	0101                	addi	sp,sp,0
     1b2:	0101                	addi	sp,sp,0
     1b4:	0000                	unimp
     1b6:	0100                	addi	s0,sp,128
     1b8:	0000                	unimp
     1ba:	2e01                	jal	4ca <handle_reset+0x3d8>
     1bc:	2f2e                	fld	ft10,200(sp)
     1be:	2f435253          	0x2f435253
     1c2:	72617453          	0x72617453
     1c6:	7574                	flw	fa3,108(a0)
     1c8:	0070                	addi	a2,sp,12
     1ca:	7300                	flw	fs0,32(a4)
     1cc:	6174                	flw	fa3,68(a0)
     1ce:	7472                	flw	fs0,60(sp)
     1d0:	7075                	c.lui	zero,0xffffd
     1d2:	435f 3548 7836      	0x78363548435f
     1d8:	532e                	lw	t1,232(sp)
     1da:	0100                	addi	s0,sp,128
     1dc:	0000                	unimp
     1de:	0000                	unimp
     1e0:	0205                	addi	tp,tp,1
     1e2:	0000                	unimp
     1e4:	0000                	unimp
     1e6:	09010c03          	lb	s8,144(sp)
     1ea:	0004                	0x4
     1ec:	0100                	addi	s0,sp,128
     1ee:	0001                	nop
     1f0:	0205                	addi	tp,tp,1
     1f2:	000c                	0xc
     1f4:	0000                	unimp
     1f6:	03011403          	lh	s0,48(sp)
     1fa:	0901                	addi	s2,s2,0
     1fc:	0004                	0x4
     1fe:	0301                	addi	t1,t1,0
     200:	0909                	addi	s2,s2,2
     202:	0024                	addi	s1,sp,8
     204:	0301                	addi	t1,t1,0
     206:	0902                	c.slli64	s2
     208:	0008                	0x8
     20a:	0301                	addi	t1,t1,0
     20c:	00080903          	lb	s2,0(a6)
     210:	0301                	addi	t1,t1,0
     212:	0901                	addi	s2,s2,0
     214:	0004                	0x4
     216:	0301                	addi	t1,t1,0
     218:	0901                	addi	s2,s2,0
     21a:	0004                	0x4
     21c:	0301                	addi	t1,t1,0
     21e:	0901                	addi	s2,s2,0
     220:	0004                	0x4
     222:	0301                	addi	t1,t1,0
     224:	0901                	addi	s2,s2,0
     226:	0004                	0x4
     228:	0301                	addi	t1,t1,0
     22a:	0901                	addi	s2,s2,0
     22c:	0004                	0x4
     22e:	0301                	addi	t1,t1,0
     230:	0901                	addi	s2,s2,0
     232:	0004                	0x4
     234:	0301                	addi	t1,t1,0
     236:	0901                	addi	s2,s2,0
     238:	0004                	0x4
     23a:	0301                	addi	t1,t1,0
     23c:	0901                	addi	s2,s2,0
     23e:	0004                	0x4
     240:	0301                	addi	t1,t1,0
     242:	0901                	addi	s2,s2,0
     244:	0004                	0x4
     246:	0301                	addi	t1,t1,0
     248:	0901                	addi	s2,s2,0
     24a:	0004                	0x4
     24c:	0301                	addi	t1,t1,0
     24e:	0901                	addi	s2,s2,0
     250:	0004                	0x4
     252:	0301                	addi	t1,t1,0
     254:	0901                	addi	s2,s2,0
     256:	0004                	0x4
     258:	0301                	addi	t1,t1,0
     25a:	0901                	addi	s2,s2,0
     25c:	0004                	0x4
     25e:	0301                	addi	t1,t1,0
     260:	0901                	addi	s2,s2,0
     262:	0004                	0x4
     264:	0301                	addi	t1,t1,0
     266:	0901                	addi	s2,s2,0
     268:	0004                	0x4
     26a:	0301                	addi	t1,t1,0
     26c:	0901                	addi	s2,s2,0
     26e:	0004                	0x4
     270:	0301                	addi	t1,t1,0
     272:	0901                	addi	s2,s2,0
     274:	0004                	0x4
     276:	0301                	addi	t1,t1,0
     278:	0901                	addi	s2,s2,0
     27a:	0004                	0x4
     27c:	0301                	addi	t1,t1,0
     27e:	0901                	addi	s2,s2,0
     280:	0004                	0x4
     282:	0301                	addi	t1,t1,0
     284:	0901                	addi	s2,s2,0
     286:	0004                	0x4
     288:	0901                	addi	s2,s2,0
     28a:	0004                	0x4
     28c:	0100                	addi	s0,sp,128
     28e:	0001                	nop
     290:	0205                	addi	tp,tp,1
     292:	00c0                	addi	s0,sp,68
     294:	0000                	unimp
     296:	0100d603          	lhu	a2,16(ra)
     29a:	02090103          	lb	sp,32(s2)
     29e:	0100                	addi	s0,sp,128
     2a0:	02090103          	lb	sp,32(s2)
     2a4:	0100                	addi	s0,sp,128
     2a6:	02090103          	lb	sp,32(s2)
     2aa:	0100                	addi	s0,sp,128
     2ac:	02090103          	lb	sp,32(s2)
     2b0:	0100                	addi	s0,sp,128
     2b2:	02090103          	lb	sp,32(s2)
     2b6:	0100                	addi	s0,sp,128
     2b8:	02090103          	lb	sp,32(s2)
     2bc:	0100                	addi	s0,sp,128
     2be:	02090103          	lb	sp,32(s2)
     2c2:	0100                	addi	s0,sp,128
     2c4:	02090103          	lb	sp,32(s2)
     2c8:	0100                	addi	s0,sp,128
     2ca:	02090103          	lb	sp,32(s2)
     2ce:	0100                	addi	s0,sp,128
     2d0:	02090103          	lb	sp,32(s2)
     2d4:	0100                	addi	s0,sp,128
     2d6:	02090103          	lb	sp,32(s2)
     2da:	0100                	addi	s0,sp,128
     2dc:	02090103          	lb	sp,32(s2)
     2e0:	0100                	addi	s0,sp,128
     2e2:	02090103          	lb	sp,32(s2)
     2e6:	0100                	addi	s0,sp,128
     2e8:	02090103          	lb	sp,32(s2)
     2ec:	0100                	addi	s0,sp,128
     2ee:	02090103          	lb	sp,32(s2)
     2f2:	0100                	addi	s0,sp,128
     2f4:	02090103          	lb	sp,32(s2)
     2f8:	0100                	addi	s0,sp,128
     2fa:	02090103          	lb	sp,32(s2)
     2fe:	0100                	addi	s0,sp,128
     300:	02090103          	lb	sp,32(s2)
     304:	0100                	addi	s0,sp,128
     306:	02090103          	lb	sp,32(s2)
     30a:	0100                	addi	s0,sp,128
     30c:	02090103          	lb	sp,32(s2)
     310:	0100                	addi	s0,sp,128
     312:	02090103          	lb	sp,32(s2)
     316:	0100                	addi	s0,sp,128
     318:	02090103          	lb	sp,32(s2)
     31c:	0100                	addi	s0,sp,128
     31e:	02090103          	lb	sp,32(s2)
     322:	0100                	addi	s0,sp,128
     324:	02090103          	lb	sp,32(s2)
     328:	0100                	addi	s0,sp,128
     32a:	0209                	addi	tp,tp,2
     32c:	0000                	unimp
     32e:	0101                	addi	sp,sp,0
     330:	0500                	addi	s0,sp,640
     332:	f202                	fsw	ft0,36(sp)
     334:	0000                	unimp
     336:	0300                	addi	s0,sp,384
     338:	00f6                	slli	ra,ra,0x1d
     33a:	0301                	addi	t1,t1,0
     33c:	00080903          	lb	s2,0(a6)
     340:	0301                	addi	t1,t1,0
     342:	00080903          	lb	s2,0(a6)
     346:	0301                	addi	t1,t1,0
     348:	0901                	addi	s2,s2,0
     34a:	0008                	0x8
     34c:	0301                	addi	t1,t1,0
     34e:	0901                	addi	s2,s2,0
     350:	0008                	0x8
     352:	0301                	addi	t1,t1,0
     354:	0901                	addi	s2,s2,0
     356:	0008                	0x8
     358:	0301                	addi	t1,t1,0
     35a:	0902                	c.slli64	s2
     35c:	0004                	0x4
     35e:	0301                	addi	t1,t1,0
     360:	0901                	addi	s2,s2,0
     362:	0004                	0x4
     364:	0301                	addi	t1,t1,0
     366:	0901                	addi	s2,s2,0
     368:	0004                	0x4
     36a:	0301                	addi	t1,t1,0
     36c:	0901                	addi	s2,s2,0
     36e:	0002                	c.slli64	zero
     370:	0301                	addi	t1,t1,0
     372:	0901                	addi	s2,s2,0
     374:	0002                	c.slli64	zero
     376:	0301                	addi	t1,t1,0
     378:	0904                	addi	s1,sp,144
     37a:	0004                	0x4
     37c:	0301                	addi	t1,t1,0
     37e:	0901                	addi	s2,s2,0
     380:	0008                	0x8
     382:	0301                	addi	t1,t1,0
     384:	0901                	addi	s2,s2,0
     386:	0008                	0x8
     388:	0301                	addi	t1,t1,0
     38a:	0901                	addi	s2,s2,0
     38c:	0008                	0x8
     38e:	0301                	addi	t1,t1,0
     390:	0902                	c.slli64	s2
     392:	0004                	0x4
     394:	0301                	addi	t1,t1,0
     396:	0901                	addi	s2,s2,0
     398:	0004                	0x4
     39a:	0301                	addi	t1,t1,0
     39c:	0901                	addi	s2,s2,0
     39e:	0004                	0x4
     3a0:	0301                	addi	t1,t1,0
     3a2:	0901                	addi	s2,s2,0
     3a4:	0002                	c.slli64	zero
     3a6:	0301                	addi	t1,t1,0
     3a8:	0901                	addi	s2,s2,0
     3aa:	0002                	c.slli64	zero
     3ac:	0301                	addi	t1,t1,0
     3ae:	00040903          	lb	s2,0(s0)
     3b2:	0301                	addi	t1,t1,0
     3b4:	0901                	addi	s2,s2,0
     3b6:	0008                	0x8
     3b8:	0301                	addi	t1,t1,0
     3ba:	0901                	addi	s2,s2,0
     3bc:	0008                	0x8
     3be:	0301                	addi	t1,t1,0
     3c0:	0902                	c.slli64	s2
     3c2:	0004                	0x4
     3c4:	0301                	addi	t1,t1,0
     3c6:	0901                	addi	s2,s2,0
     3c8:	0004                	0x4
     3ca:	0301                	addi	t1,t1,0
     3cc:	0901                	addi	s2,s2,0
     3ce:	0002                	c.slli64	zero
     3d0:	0301                	addi	t1,t1,0
     3d2:	0904                	addi	s1,sp,144
     3d4:	0004                	0x4
     3d6:	0301                	addi	t1,t1,0
     3d8:	0901                	addi	s2,s2,0
     3da:	0004                	0x4
     3dc:	0301                	addi	t1,t1,0
     3de:	0901                	addi	s2,s2,0
     3e0:	0004                	0x4
     3e2:	0301                	addi	t1,t1,0
     3e4:	0901                	addi	s2,s2,0
     3e6:	0008                	0x8
     3e8:	0301                	addi	t1,t1,0
     3ea:	0901                	addi	s2,s2,0
     3ec:	0004                	0x4
     3ee:	0301                	addi	t1,t1,0
     3f0:	0901                	addi	s2,s2,0
     3f2:	0004                	0x4
     3f4:	0301                	addi	t1,t1,0
     3f6:	0901                	addi	s2,s2,0
     3f8:	0008                	0x8
     3fa:	0301                	addi	t1,t1,0
     3fc:	0901                	addi	s2,s2,0
     3fe:	0004                	0x4
     400:	0901                	addi	s2,s2,0
     402:	0004                	0x4
     404:	0100                	addi	s0,sp,128
     406:	1e01                	addi	t3,t3,-32
     408:	0000                	unimp
     40a:	0200                	addi	s0,sp,256
     40c:	2900                	fld	fs0,16(a0)
     40e:	0004                	0x4
     410:	0400                	addi	s0,sp,512
     412:	a001                	j	412 <handle_reset+0x320>
     414:	0001                	nop
     416:	d000                	sw	s0,32(s0)
     418:	0004                	0x4
     41a:	7800                	flw	fs0,48(s0)
     41c:	0004                	0x4
     41e:	9700                	0x9700
     420:	0004                	0x4
     422:	c200                	sw	s0,0(a2)
     424:	0004                	0x4
     426:	0100                	addi	s0,sp,128
     428:	0180                	addi	s0,sp,192
     42a:	0011                	c.nop	4
     42c:	0610                	addi	a2,sp,768
     42e:	0655                	addi	a2,a2,21
     430:	0e1b0e03          	lb	t3,225(s6)
     434:	0e25                	addi	t3,t3,9
     436:	00000513          	li	a0,0
     43a:	0000                	unimp
     43c:	0000                	unimp
     43e:	0000                	unimp
     440:	0034                	addi	a3,sp,8
     442:	0000                	unimp
     444:	0002                	c.slli64	zero
     446:	00000407          	0x407
     44a:	0004                	0x4
	...
     454:	0004                	0x4
     456:	0000                	unimp
     458:	0004                	0x4
     45a:	0000                	unimp
     45c:	0094                	addi	a3,sp,64
     45e:	0000                	unimp
     460:	00c0                	addi	s0,sp,68
     462:	0000                	unimp
     464:	0032                	c.slli	zero,0xc
     466:	0000                	unimp
     468:	00f2                	slli	ra,ra,0x1c
     46a:	0000                	unimp
     46c:	00ae                	slli	ra,ra,0xb
	...
     476:	0000                	unimp
     478:	2e2e                	fld	ft8,200(sp)
     47a:	4352532f          	0x4352532f
     47e:	6174532f          	0x6174532f
     482:	7472                	flw	fs0,60(sp)
     484:	7075                	c.lui	zero,0xffffd
     486:	6174732f          	0x6174732f
     48a:	7472                	flw	fs0,60(sp)
     48c:	7075                	c.lui	zero,0xffffd
     48e:	435f 3548 7836      	0x78363548435f
     494:	532e                	lw	t1,232(sp)
     496:	4500                	lw	s0,8(a0)
     498:	5c3a                	lw	s8,172(sp)
     49a:	cfc1cad7          	0xcfc1cad7
     49e:	435c                	lw	a5,4(a4)
     4a0:	3548                	fld	fa0,168(a0)
     4a2:	3936                	fld	fs2,360(sp)
     4a4:	435c                	lw	a5,4(a4)
     4a6:	3548                	fld	fa0,168(a0)
     4a8:	3936                	fld	fs2,360(sp)
     4aa:	f8cd                	bnez	s1,45c <handle_reset+0x36a>
     4ac:	e7c2                	fsw	fa6,204(sp)
     4ae:	fdc0                	fsw	fs0,60(a1)
     4b0:	445cccb3          	0x445cccb3
     4b4:	534e                	lw	t1,240(sp)
     4b6:	435f 696c 6e65      	0x6e65696c435f
     4bc:	5c74                	lw	a3,124(s0)
     4be:	006a626f          	jal	tp,a64c4 <_ramcode_lma+0x9e4c4>
     4c2:	20554e47          	fmsub.s	ft8,fa0,ft5,ft4,rmm
     4c6:	5341                	li	t1,-16
     4c8:	3220                	fld	fs0,96(a2)
     4ca:	332e                	fld	ft6,232(sp)
     4cc:	0032                	c.slli	zero,0xc
     4ce:	0000                	unimp
     4d0:	ffff                	0xffff
     4d2:	ffff                	0xffff
	...
     4dc:	0004                	0x4
     4de:	0000                	unimp
     4e0:	0004                	0x4
     4e2:	0000                	unimp
     4e4:	0098                	addi	a4,sp,64
     4e6:	0000                	unimp
     4e8:	00c0                	addi	s0,sp,68
     4ea:	0000                	unimp
     4ec:	00f2                	slli	ra,ra,0x1c
     4ee:	0000                	unimp
     4f0:	00f2                	slli	ra,ra,0x1c
     4f2:	0000                	unimp
     4f4:	01a0                	addi	s0,sp,200
	...

00000500 <tcp_new_port>:
     500:	20001797          	auipc	a5,0x20001
     504:	bf878793          	addi	a5,a5,-1032 # 200010f8 <tcp_active_pcbs>
     508:	4390                	lw	a2,0(a5)
     50a:	20001797          	auipc	a5,0x20001
     50e:	c0278793          	addi	a5,a5,-1022 # 2000110c <tcp_tw_pcbs>
     512:	438c                	lw	a1,0(a5)
     514:	20001797          	auipc	a5,0x20001
     518:	bec78793          	addi	a5,a5,-1044 # 20001100 <tcp_listen_pcbs>
     51c:	0007a803          	lw	a6,0(a5)
     520:	20000517          	auipc	a0,0x20000
     524:	ba455503          	lhu	a0,-1116(a0) # 200000c4 <port.3573>
     528:	00150793          	addi	a5,a0,1
     52c:	01079513          	slli	a0,a5,0x10
     530:	01079713          	slli	a4,a5,0x10
     534:	8141                	srli	a0,a0,0x10
     536:	00075363          	bgez	a4,53c <tcp_new_port+0x3c>
     53a:	6505                	lui	a0,0x1
     53c:	87b2                	mv	a5,a2
     53e:	eb91                	bnez	a5,552 <tcp_new_port+0x52>
     540:	87ae                	mv	a5,a1
     542:	ef9d                	bnez	a5,580 <tcp_new_port+0x80>
     544:	87c2                	mv	a5,a6
     546:	e7a5                	bnez	a5,5ae <tcp_new_port+0xae>
     548:	20000797          	auipc	a5,0x20000
     54c:	b6a79e23          	sh	a0,-1156(a5) # 200000c4 <port.3573>
     550:	8082                	ret
     552:	01a7c703          	lbu	a4,26(a5)
     556:	0197c683          	lbu	a3,25(a5)
     55a:	0722                	slli	a4,a4,0x8
     55c:	8f55                	or	a4,a4,a3
     55e:	fca705e3          	beq	a4,a0,528 <tcp_new_port+0x28>
     562:	00d7c703          	lbu	a4,13(a5)
     566:	00c7c683          	lbu	a3,12(a5)
     56a:	0722                	slli	a4,a4,0x8
     56c:	8ed9                	or	a3,a3,a4
     56e:	00e7c703          	lbu	a4,14(a5)
     572:	00f7c783          	lbu	a5,15(a5)
     576:	0742                	slli	a4,a4,0x10
     578:	8f55                	or	a4,a4,a3
     57a:	07e2                	slli	a5,a5,0x18
     57c:	8fd9                	or	a5,a5,a4
     57e:	b7c1                	j	53e <tcp_new_port+0x3e>
     580:	01a7c703          	lbu	a4,26(a5)
     584:	0197c683          	lbu	a3,25(a5)
     588:	0722                	slli	a4,a4,0x8
     58a:	8f55                	or	a4,a4,a3
     58c:	f8a70ee3          	beq	a4,a0,528 <tcp_new_port+0x28>
     590:	00d7c703          	lbu	a4,13(a5)
     594:	00c7c683          	lbu	a3,12(a5)
     598:	0722                	slli	a4,a4,0x8
     59a:	8ed9                	or	a3,a3,a4
     59c:	00e7c703          	lbu	a4,14(a5)
     5a0:	00f7c783          	lbu	a5,15(a5)
     5a4:	0742                	slli	a4,a4,0x10
     5a6:	8f55                	or	a4,a4,a3
     5a8:	07e2                	slli	a5,a5,0x18
     5aa:	8fd9                	or	a5,a5,a4
     5ac:	bf59                	j	542 <tcp_new_port+0x42>
     5ae:	01a7c703          	lbu	a4,26(a5)
     5b2:	0197c683          	lbu	a3,25(a5)
     5b6:	0722                	slli	a4,a4,0x8
     5b8:	8f55                	or	a4,a4,a3
     5ba:	f6a707e3          	beq	a4,a0,528 <tcp_new_port+0x28>
     5be:	00d7c703          	lbu	a4,13(a5)
     5c2:	00c7c683          	lbu	a3,12(a5)
     5c6:	0722                	slli	a4,a4,0x8
     5c8:	8ed9                	or	a3,a3,a4
     5ca:	00e7c703          	lbu	a4,14(a5)
     5ce:	00f7c783          	lbu	a5,15(a5)
     5d2:	0742                	slli	a4,a4,0x10
     5d4:	8f55                	or	a4,a4,a3
     5d6:	07e2                	slli	a5,a5,0x18
     5d8:	8fd9                	or	a5,a5,a4
     5da:	b7b5                	j	546 <tcp_new_port+0x46>

000005dc <tcp_bind>:
     5dc:	01154703          	lbu	a4,17(a0) # 1011 <tcp_slowtmr+0x4bb>
     5e0:	01054783          	lbu	a5,16(a0)
     5e4:	0722                	slli	a4,a4,0x8
     5e6:	8f5d                	or	a4,a4,a5
     5e8:	01254783          	lbu	a5,18(a0)
     5ec:	07c2                	slli	a5,a5,0x10
     5ee:	8f5d                	or	a4,a4,a5
     5f0:	01354783          	lbu	a5,19(a0)
     5f4:	07e2                	slli	a5,a5,0x18
     5f6:	8fd9                	or	a5,a5,a4
     5f8:	28079063          	bnez	a5,878 <__stack_size+0x78>
     5fc:	20020317          	auipc	t1,0x20020
     600:	a34302e7          	jalr	t0,-1484(t1) # 20020030 <__riscv_save_0>
     604:	1141                	addi	sp,sp,-16
     606:	842a                	mv	s0,a0
     608:	84b2                	mv	s1,a2
     60a:	e609                	bnez	a2,614 <tcp_bind+0x38>
     60c:	c62e                	sw	a1,12(sp)
     60e:	3dcd                	jal	500 <tcp_new_port>
     610:	45b2                	lw	a1,12(sp)
     612:	84aa                	mv	s1,a0
     614:	20001797          	auipc	a5,0x20001
     618:	aec78793          	addi	a5,a5,-1300 # 20001100 <tcp_listen_pcbs>
     61c:	439c                	lw	a5,0(a5)
     61e:	ebd1                	bnez	a5,6b2 <tcp_bind+0xd6>
     620:	20001797          	auipc	a5,0x20001
     624:	ad878793          	addi	a5,a5,-1320 # 200010f8 <tcp_active_pcbs>
     628:	439c                	lw	a5,0(a5)
     62a:	effd                	bnez	a5,728 <tcp_bind+0x14c>
     62c:	20001797          	auipc	a5,0x20001
     630:	adc78793          	addi	a5,a5,-1316 # 20001108 <tcp_bound_pcbs>
     634:	0007a903          	lw	s2,0(a5)
     638:	87ca                	mv	a5,s2
     63a:	16079263          	bnez	a5,79e <tcp_bind+0x1c2>
     63e:	20001797          	auipc	a5,0x20001
     642:	ace78793          	addi	a5,a5,-1330 # 2000110c <tcp_tw_pcbs>
     646:	439c                	lw	a5,0(a5)
     648:	1c079363          	bnez	a5,80e <__stack_size+0xe>
     64c:	c595                	beqz	a1,678 <tcp_bind+0x9c>
     64e:	0015c703          	lbu	a4,1(a1)
     652:	0005c783          	lbu	a5,0(a1)
     656:	0722                	slli	a4,a4,0x8
     658:	8f5d                	or	a4,a4,a5
     65a:	0025c783          	lbu	a5,2(a1)
     65e:	07c2                	slli	a5,a5,0x10
     660:	8f5d                	or	a4,a4,a5
     662:	0035c783          	lbu	a5,3(a1)
     666:	07e2                	slli	a5,a5,0x18
     668:	8fd9                	or	a5,a5,a4
     66a:	c799                	beqz	a5,678 <tcp_bind+0x9c>
     66c:	4611                	li	a2,4
     66e:	8522                	mv	a0,s0
     670:	20024097          	auipc	ra,0x20024
     674:	26c080e7          	jalr	620(ra) # 200248dc <memcpy>
     678:	00895793          	srli	a5,s2,0x8
     67c:	00940ca3          	sb	s1,25(s0)
     680:	01240623          	sb	s2,12(s0)
     684:	80a1                	srli	s1,s1,0x8
     686:	00f406a3          	sb	a5,13(s0)
     68a:	01095793          	srli	a5,s2,0x10
     68e:	01895913          	srli	s2,s2,0x18
     692:	00f40723          	sb	a5,14(s0)
     696:	00940d23          	sb	s1,26(s0)
     69a:	012407a3          	sb	s2,15(s0)
     69e:	20001797          	auipc	a5,0x20001
     6a2:	a687a523          	sw	s0,-1430(a5) # 20001108 <tcp_bound_pcbs>
     6a6:	4501                	li	a0,0
     6a8:	0141                	addi	sp,sp,16
     6aa:	20020317          	auipc	t1,0x20020
     6ae:	9aa30067          	jr	-1622(t1) # 20020054 <__riscv_restore_0>
     6b2:	01a7c703          	lbu	a4,26(a5)
     6b6:	0197c683          	lbu	a3,25(a5)
     6ba:	0722                	slli	a4,a4,0x8
     6bc:	8f55                	or	a4,a4,a3
     6be:	04971663          	bne	a4,s1,70a <tcp_bind+0x12e>
     6c2:	0017c703          	lbu	a4,1(a5)
     6c6:	0007c683          	lbu	a3,0(a5)
     6ca:	0722                	slli	a4,a4,0x8
     6cc:	8f55                	or	a4,a4,a3
     6ce:	0027c683          	lbu	a3,2(a5)
     6d2:	06c2                	slli	a3,a3,0x10
     6d4:	8f55                	or	a4,a4,a3
     6d6:	0037c683          	lbu	a3,3(a5)
     6da:	06e2                	slli	a3,a3,0x18
     6dc:	8ed9                	or	a3,a3,a4
     6de:	18068f63          	beqz	a3,87c <__stack_size+0x7c>
     6e2:	18058d63          	beqz	a1,87c <__stack_size+0x7c>
     6e6:	0015c603          	lbu	a2,1(a1)
     6ea:	0005c703          	lbu	a4,0(a1)
     6ee:	0622                	slli	a2,a2,0x8
     6f0:	8e59                	or	a2,a2,a4
     6f2:	0025c703          	lbu	a4,2(a1)
     6f6:	0742                	slli	a4,a4,0x10
     6f8:	8e59                	or	a2,a2,a4
     6fa:	0035c703          	lbu	a4,3(a1)
     6fe:	0762                	slli	a4,a4,0x18
     700:	8f51                	or	a4,a4,a2
     702:	16070d63          	beqz	a4,87c <__stack_size+0x7c>
     706:	16e68b63          	beq	a3,a4,87c <__stack_size+0x7c>
     70a:	00d7c703          	lbu	a4,13(a5)
     70e:	00c7c683          	lbu	a3,12(a5)
     712:	0722                	slli	a4,a4,0x8
     714:	8ed9                	or	a3,a3,a4
     716:	00e7c703          	lbu	a4,14(a5)
     71a:	00f7c783          	lbu	a5,15(a5)
     71e:	0742                	slli	a4,a4,0x10
     720:	8f55                	or	a4,a4,a3
     722:	07e2                	slli	a5,a5,0x18
     724:	8fd9                	or	a5,a5,a4
     726:	bde5                	j	61e <tcp_bind+0x42>
     728:	01a7c703          	lbu	a4,26(a5)
     72c:	0197c683          	lbu	a3,25(a5)
     730:	0722                	slli	a4,a4,0x8
     732:	8f55                	or	a4,a4,a3
     734:	04971663          	bne	a4,s1,780 <tcp_bind+0x1a4>
     738:	0017c703          	lbu	a4,1(a5)
     73c:	0007c683          	lbu	a3,0(a5)
     740:	0722                	slli	a4,a4,0x8
     742:	8f55                	or	a4,a4,a3
     744:	0027c683          	lbu	a3,2(a5)
     748:	06c2                	slli	a3,a3,0x10
     74a:	8f55                	or	a4,a4,a3
     74c:	0037c683          	lbu	a3,3(a5)
     750:	06e2                	slli	a3,a3,0x18
     752:	8ed9                	or	a3,a3,a4
     754:	12068463          	beqz	a3,87c <__stack_size+0x7c>
     758:	12058263          	beqz	a1,87c <__stack_size+0x7c>
     75c:	0015c603          	lbu	a2,1(a1)
     760:	0005c703          	lbu	a4,0(a1)
     764:	0622                	slli	a2,a2,0x8
     766:	8e59                	or	a2,a2,a4
     768:	0025c703          	lbu	a4,2(a1)
     76c:	0742                	slli	a4,a4,0x10
     76e:	8e59                	or	a2,a2,a4
     770:	0035c703          	lbu	a4,3(a1)
     774:	0762                	slli	a4,a4,0x18
     776:	8f51                	or	a4,a4,a2
     778:	10070263          	beqz	a4,87c <__stack_size+0x7c>
     77c:	10e68063          	beq	a3,a4,87c <__stack_size+0x7c>
     780:	00d7c703          	lbu	a4,13(a5)
     784:	00c7c683          	lbu	a3,12(a5)
     788:	0722                	slli	a4,a4,0x8
     78a:	8ed9                	or	a3,a3,a4
     78c:	00e7c703          	lbu	a4,14(a5)
     790:	00f7c783          	lbu	a5,15(a5)
     794:	0742                	slli	a4,a4,0x10
     796:	8f55                	or	a4,a4,a3
     798:	07e2                	slli	a5,a5,0x18
     79a:	8fd9                	or	a5,a5,a4
     79c:	b579                	j	62a <tcp_bind+0x4e>
     79e:	01a7c703          	lbu	a4,26(a5)
     7a2:	0197c683          	lbu	a3,25(a5)
     7a6:	0722                	slli	a4,a4,0x8
     7a8:	8f55                	or	a4,a4,a3
     7aa:	04971363          	bne	a4,s1,7f0 <tcp_bind+0x214>
     7ae:	0017c703          	lbu	a4,1(a5)
     7b2:	0007c683          	lbu	a3,0(a5)
     7b6:	0722                	slli	a4,a4,0x8
     7b8:	8f55                	or	a4,a4,a3
     7ba:	0027c683          	lbu	a3,2(a5)
     7be:	06c2                	slli	a3,a3,0x10
     7c0:	8f55                	or	a4,a4,a3
     7c2:	0037c683          	lbu	a3,3(a5)
     7c6:	06e2                	slli	a3,a3,0x18
     7c8:	8ed9                	or	a3,a3,a4
     7ca:	cacd                	beqz	a3,87c <__stack_size+0x7c>
     7cc:	c9c5                	beqz	a1,87c <__stack_size+0x7c>
     7ce:	0015c603          	lbu	a2,1(a1)
     7d2:	0005c703          	lbu	a4,0(a1)
     7d6:	0622                	slli	a2,a2,0x8
     7d8:	8e59                	or	a2,a2,a4
     7da:	0025c703          	lbu	a4,2(a1)
     7de:	0742                	slli	a4,a4,0x10
     7e0:	8e59                	or	a2,a2,a4
     7e2:	0035c703          	lbu	a4,3(a1)
     7e6:	0762                	slli	a4,a4,0x18
     7e8:	8f51                	or	a4,a4,a2
     7ea:	cb49                	beqz	a4,87c <__stack_size+0x7c>
     7ec:	08e68863          	beq	a3,a4,87c <__stack_size+0x7c>
     7f0:	00d7c703          	lbu	a4,13(a5)
     7f4:	00c7c683          	lbu	a3,12(a5)
     7f8:	0722                	slli	a4,a4,0x8
     7fa:	8ed9                	or	a3,a3,a4
     7fc:	00e7c703          	lbu	a4,14(a5)
     800:	00f7c783          	lbu	a5,15(a5)
     804:	0742                	slli	a4,a4,0x10
     806:	8f55                	or	a4,a4,a3
     808:	07e2                	slli	a5,a5,0x18
     80a:	8fd9                	or	a5,a5,a4
     80c:	b53d                	j	63a <tcp_bind+0x5e>
     80e:	01a7c703          	lbu	a4,26(a5)
     812:	0197c683          	lbu	a3,25(a5)
     816:	0722                	slli	a4,a4,0x8
     818:	8f55                	or	a4,a4,a3
     81a:	04971063          	bne	a4,s1,85a <__stack_size+0x5a>
     81e:	0017c703          	lbu	a4,1(a5)
     822:	0007c683          	lbu	a3,0(a5)
     826:	0015c603          	lbu	a2,1(a1)
     82a:	0722                	slli	a4,a4,0x8
     82c:	8f55                	or	a4,a4,a3
     82e:	0027c683          	lbu	a3,2(a5)
     832:	0622                	slli	a2,a2,0x8
     834:	06c2                	slli	a3,a3,0x10
     836:	8f55                	or	a4,a4,a3
     838:	0037c683          	lbu	a3,3(a5)
     83c:	06e2                	slli	a3,a3,0x18
     83e:	8ed9                	or	a3,a3,a4
     840:	0005c703          	lbu	a4,0(a1)
     844:	8e59                	or	a2,a2,a4
     846:	0025c703          	lbu	a4,2(a1)
     84a:	0742                	slli	a4,a4,0x10
     84c:	8e59                	or	a2,a2,a4
     84e:	0035c703          	lbu	a4,3(a1)
     852:	0762                	slli	a4,a4,0x18
     854:	8f51                	or	a4,a4,a2
     856:	02e68363          	beq	a3,a4,87c <__stack_size+0x7c>
     85a:	00d7c703          	lbu	a4,13(a5)
     85e:	00c7c683          	lbu	a3,12(a5)
     862:	0722                	slli	a4,a4,0x8
     864:	8ed9                	or	a3,a3,a4
     866:	00e7c703          	lbu	a4,14(a5)
     86a:	00f7c783          	lbu	a5,15(a5)
     86e:	0742                	slli	a4,a4,0x10
     870:	8f55                	or	a4,a4,a3
     872:	07e2                	slli	a5,a5,0x18
     874:	8fd9                	or	a5,a5,a4
     876:	bbc9                	j	648 <tcp_bind+0x6c>
     878:	554d                	li	a0,-13
     87a:	8082                	ret
     87c:	5555                	li	a0,-11
     87e:	b52d                	j	6a8 <tcp_bind+0xcc>

00000880 <tcp_update_rcv_ann_wnd>:
     880:	02354583          	lbu	a1,35(a0)
     884:	02254703          	lbu	a4,34(a0)
     888:	02754603          	lbu	a2,39(a0)
     88c:	05a2                	slli	a1,a1,0x8
     88e:	8f4d                	or	a4,a4,a1
     890:	02454583          	lbu	a1,36(a0)
     894:	0622                	slli	a2,a2,0x8
     896:	02a54683          	lbu	a3,42(a0)
     89a:	05c2                	slli	a1,a1,0x10
     89c:	8dd9                	or	a1,a1,a4
     89e:	02554703          	lbu	a4,37(a0)
     8a2:	87aa                	mv	a5,a0
     8a4:	0377c803          	lbu	a6,55(a5)
     8a8:	0762                	slli	a4,a4,0x18
     8aa:	8dd9                	or	a1,a1,a4
     8ac:	02654703          	lbu	a4,38(a0)
     8b0:	0367c883          	lbu	a7,54(a5)
     8b4:	0822                	slli	a6,a6,0x8
     8b6:	8e59                	or	a2,a2,a4
     8b8:	02b54703          	lbu	a4,43(a0)
     8bc:	01186833          	or	a6,a6,a7
     8c0:	0722                	slli	a4,a4,0x8
     8c2:	8ed9                	or	a3,a3,a4
     8c4:	02c54703          	lbu	a4,44(a0)
     8c8:	0742                	slli	a4,a4,0x10
     8ca:	8f55                	or	a4,a4,a3
     8cc:	02d54683          	lbu	a3,45(a0)
     8d0:	06e2                	slli	a3,a3,0x18
     8d2:	8f55                	or	a4,a4,a3
     8d4:	20000697          	auipc	a3,0x20000
     8d8:	74468693          	addi	a3,a3,1860 # 20001018 <CH569Cfg>
     8dc:	42d4                	lw	a3,4(a3)
     8de:	40e60533          	sub	a0,a2,a4
     8e2:	952e                	add	a0,a0,a1
     8e4:	8285                	srli	a3,a3,0x1
     8e6:	00d87363          	bgeu	a6,a3,8ec <tcp_update_rcv_ann_wnd+0x6c>
     8ea:	86c2                	mv	a3,a6
     8ec:	40d506b3          	sub	a3,a0,a3
     8f0:	0006c863          	bltz	a3,900 <tcp_update_rcv_ann_wnd+0x80>
     8f4:	02c78423          	sb	a2,40(a5)
     8f8:	8221                	srli	a2,a2,0x8
     8fa:	02c784a3          	sb	a2,41(a5)
     8fe:	8082                	ret
     900:	40e586b3          	sub	a3,a1,a4
     904:	00d05863          	blez	a3,914 <tcp_update_rcv_ann_wnd+0x94>
     908:	02078423          	sb	zero,40(a5)
     90c:	020784a3          	sb	zero,41(a5)
     910:	4501                	li	a0,0
     912:	8082                	ret
     914:	8f0d                	sub	a4,a4,a1
     916:	0742                	slli	a4,a4,0x10
     918:	8341                	srli	a4,a4,0x10
     91a:	02e78423          	sb	a4,40(a5)
     91e:	8321                	srli	a4,a4,0x8
     920:	02e784a3          	sb	a4,41(a5)
     924:	b7f5                	j	910 <tcp_update_rcv_ann_wnd+0x90>

00000926 <tcp_recved>:
     926:	2001f317          	auipc	t1,0x2001f
     92a:	70a302e7          	jalr	t0,1802(t1) # 20020030 <__riscv_save_0>
     92e:	02754783          	lbu	a5,39(a0)
     932:	02654703          	lbu	a4,38(a0)
     936:	842a                	mv	s0,a0
     938:	07a2                	slli	a5,a5,0x8
     93a:	8fd9                	or	a5,a5,a4
     93c:	95be                	add	a1,a1,a5
     93e:	05c2                	slli	a1,a1,0x10
     940:	81c1                	srli	a1,a1,0x10
     942:	0085d793          	srli	a5,a1,0x8
     946:	20000717          	auipc	a4,0x20000
     94a:	6d270713          	addi	a4,a4,1746 # 20001018 <CH569Cfg>
     94e:	02f503a3          	sb	a5,39(a0)
     952:	435c                	lw	a5,4(a4)
     954:	02b50323          	sb	a1,38(a0)
     958:	84ba                	mv	s1,a4
     95a:	00b7f963          	bgeu	a5,a1,96c <tcp_recved+0x46>
     95e:	07c2                	slli	a5,a5,0x10
     960:	83c1                	srli	a5,a5,0x10
     962:	02f50323          	sb	a5,38(a0)
     966:	83a1                	srli	a5,a5,0x8
     968:	02f503a3          	sb	a5,39(a0)
     96c:	8522                	mv	a0,s0
     96e:	3f09                	jal	880 <tcp_update_rcv_ann_wnd>
     970:	40dc                	lw	a5,4(s1)
     972:	8389                	srli	a5,a5,0x2
     974:	00f56b63          	bltu	a0,a5,98a <tcp_recved+0x64>
     978:	02144783          	lbu	a5,33(s0)
     97c:	8522                	mv	a0,s0
     97e:	0027e793          	ori	a5,a5,2
     982:	02f400a3          	sb	a5,33(s0)
     986:	190040ef          	jal	ra,4b16 <tcp_output>
     98a:	2001f317          	auipc	t1,0x2001f
     98e:	6ca30067          	jr	1738(t1) # 20020054 <__riscv_restore_0>

00000992 <tcp_seg_free>:
     992:	2001f317          	auipc	t1,0x2001f
     996:	69e302e7          	jalr	t0,1694(t1) # 20020030 <__riscv_save_0>
     99a:	1141                	addi	sp,sp,-16
     99c:	4401                	li	s0,0
     99e:	cd09                	beqz	a0,9b8 <tcp_seg_free+0x26>
     9a0:	85aa                	mv	a1,a0
     9a2:	4148                	lw	a0,4(a0)
     9a4:	4401                	li	s0,0
     9a6:	c511                	beqz	a0,9b2 <tcp_seg_free+0x20>
     9a8:	c62e                	sw	a1,12(sp)
     9aa:	526060ef          	jal	ra,6ed0 <pbuf_free>
     9ae:	45b2                	lw	a1,12(sp)
     9b0:	842a                	mv	s0,a0
     9b2:	4511                	li	a0,4
     9b4:	017050ef          	jal	ra,61ca <memp_free>
     9b8:	8522                	mv	a0,s0
     9ba:	0141                	addi	sp,sp,16
     9bc:	2001f317          	auipc	t1,0x2001f
     9c0:	69830067          	jr	1688(t1) # 20020054 <__riscv_restore_0>

000009c4 <tcp_segs_free>:
     9c4:	2001f317          	auipc	t1,0x2001f
     9c8:	66c302e7          	jalr	t0,1644(t1) # 20020030 <__riscv_save_0>
     9cc:	4401                	li	s0,0
     9ce:	e511                	bnez	a0,9da <tcp_segs_free+0x16>
     9d0:	8522                	mv	a0,s0
     9d2:	2001f317          	auipc	t1,0x2001f
     9d6:	68230067          	jr	1666(t1) # 20020054 <__riscv_restore_0>
     9da:	4104                	lw	s1,0(a0)
     9dc:	3f5d                	jal	992 <tcp_seg_free>
     9de:	942a                	add	s0,s0,a0
     9e0:	0ff47413          	andi	s0,s0,255
     9e4:	8526                	mv	a0,s1
     9e6:	b7e5                	j	9ce <tcp_segs_free+0xa>

000009e8 <tcp_seg_copy>:
     9e8:	2001f317          	auipc	t1,0x2001f
     9ec:	648302e7          	jalr	t0,1608(t1) # 20020030 <__riscv_save_0>
     9f0:	1141                	addi	sp,sp,-16
     9f2:	c62a                	sw	a0,12(sp)
     9f4:	4511                	li	a0,4
     9f6:	7b4050ef          	jal	ra,61aa <memp_malloc>
     9fa:	842a                	mv	s0,a0
     9fc:	c911                	beqz	a0,a10 <tcp_seg_copy+0x28>
     9fe:	45b2                	lw	a1,12(sp)
     a00:	4651                	li	a2,20
     a02:	20024097          	auipc	ra,0x20024
     a06:	eda080e7          	jalr	-294(ra) # 200248dc <memcpy>
     a0a:	4048                	lw	a0,4(s0)
     a0c:	0db060ef          	jal	ra,72e6 <pbuf_ref>
     a10:	8522                	mv	a0,s0
     a12:	0141                	addi	sp,sp,16
     a14:	2001f317          	auipc	t1,0x2001f
     a18:	64030067          	jr	1600(t1) # 20020054 <__riscv_restore_0>

00000a1c <tcp_arg>:
     a1c:	0085d793          	srli	a5,a1,0x8
     a20:	00b50aa3          	sb	a1,21(a0)
     a24:	00f50b23          	sb	a5,22(a0)
     a28:	0105d793          	srli	a5,a1,0x10
     a2c:	81e1                	srli	a1,a1,0x18
     a2e:	00f50ba3          	sb	a5,23(a0)
     a32:	00b50c23          	sb	a1,24(a0)
     a36:	8082                	ret

00000a38 <tcp_err>:
     a38:	0085d793          	srli	a5,a1,0x8
     a3c:	08b50423          	sb	a1,136(a0)
     a40:	08f504a3          	sb	a5,137(a0)
     a44:	0105d793          	srli	a5,a1,0x10
     a48:	81e1                	srli	a1,a1,0x18
     a4a:	08f50523          	sb	a5,138(a0)
     a4e:	08b505a3          	sb	a1,139(a0)
     a52:	8082                	ret

00000a54 <tcp_pcb_purge>:
     a54:	01154703          	lbu	a4,17(a0)
     a58:	01054783          	lbu	a5,16(a0)
     a5c:	0722                	slli	a4,a4,0x8
     a5e:	8f5d                	or	a4,a4,a5
     a60:	01254783          	lbu	a5,18(a0)
     a64:	07c2                	slli	a5,a5,0x10
     a66:	8f5d                	or	a4,a4,a5
     a68:	01354783          	lbu	a5,19(a0)
     a6c:	07e2                	slli	a5,a5,0x18
     a6e:	8fd9                	or	a5,a5,a4
     a70:	4705                	li	a4,1
     a72:	0ef77163          	bgeu	a4,a5,b54 <tcp_pcb_purge+0x100>
     a76:	4729                	li	a4,10
     a78:	0ce78e63          	beq	a5,a4,b54 <tcp_pcb_purge+0x100>
     a7c:	2001f317          	auipc	t1,0x2001f
     a80:	5b4302e7          	jalr	t0,1460(t1) # 20020030 <__riscv_save_0>
     a84:	842a                	mv	s0,a0
     a86:	07544783          	lbu	a5,117(s0)
     a8a:	07454503          	lbu	a0,116(a0)
     a8e:	07a2                	slli	a5,a5,0x8
     a90:	8fc9                	or	a5,a5,a0
     a92:	07644503          	lbu	a0,118(s0)
     a96:	0542                	slli	a0,a0,0x10
     a98:	8fc9                	or	a5,a5,a0
     a9a:	07744503          	lbu	a0,119(s0)
     a9e:	0562                	slli	a0,a0,0x18
     aa0:	8d5d                	or	a0,a0,a5
     aa2:	c919                	beqz	a0,ab8 <tcp_pcb_purge+0x64>
     aa4:	42c060ef          	jal	ra,6ed0 <pbuf_free>
     aa8:	06040a23          	sb	zero,116(s0)
     aac:	06040aa3          	sb	zero,117(s0)
     ab0:	06040b23          	sb	zero,118(s0)
     ab4:	06040ba3          	sb	zero,119(s0)
     ab8:	07144503          	lbu	a0,113(s0)
     abc:	07044783          	lbu	a5,112(s0)
     ac0:	577d                	li	a4,-1
     ac2:	0522                	slli	a0,a0,0x8
     ac4:	8d5d                	or	a0,a0,a5
     ac6:	07244783          	lbu	a5,114(s0)
     aca:	02e40a23          	sb	a4,52(s0)
     ace:	02e40aa3          	sb	a4,53(s0)
     ad2:	07c2                	slli	a5,a5,0x10
     ad4:	8fc9                	or	a5,a5,a0
     ad6:	07344503          	lbu	a0,115(s0)
     ada:	0562                	slli	a0,a0,0x18
     adc:	8d5d                	or	a0,a0,a5
     ade:	35dd                	jal	9c4 <tcp_segs_free>
     ae0:	06944503          	lbu	a0,105(s0)
     ae4:	06844783          	lbu	a5,104(s0)
     ae8:	06040823          	sb	zero,112(s0)
     aec:	0522                	slli	a0,a0,0x8
     aee:	8d5d                	or	a0,a0,a5
     af0:	06a44783          	lbu	a5,106(s0)
     af4:	060408a3          	sb	zero,113(s0)
     af8:	06040923          	sb	zero,114(s0)
     afc:	07c2                	slli	a5,a5,0x10
     afe:	8fc9                	or	a5,a5,a0
     b00:	06b44503          	lbu	a0,107(s0)
     b04:	060409a3          	sb	zero,115(s0)
     b08:	0562                	slli	a0,a0,0x18
     b0a:	8d5d                	or	a0,a0,a5
     b0c:	3d65                	jal	9c4 <tcp_segs_free>
     b0e:	06d44503          	lbu	a0,109(s0)
     b12:	06c44783          	lbu	a5,108(s0)
     b16:	0522                	slli	a0,a0,0x8
     b18:	8d5d                	or	a0,a0,a5
     b1a:	06e44783          	lbu	a5,110(s0)
     b1e:	07c2                	slli	a5,a5,0x10
     b20:	8fc9                	or	a5,a5,a0
     b22:	06f44503          	lbu	a0,111(s0)
     b26:	0562                	slli	a0,a0,0x18
     b28:	8d5d                	or	a0,a0,a5
     b2a:	3d69                	jal	9c4 <tcp_segs_free>
     b2c:	06040423          	sb	zero,104(s0)
     b30:	060404a3          	sb	zero,105(s0)
     b34:	06040523          	sb	zero,106(s0)
     b38:	060405a3          	sb	zero,107(s0)
     b3c:	06040623          	sb	zero,108(s0)
     b40:	060406a3          	sb	zero,109(s0)
     b44:	06040723          	sb	zero,110(s0)
     b48:	060407a3          	sb	zero,111(s0)
     b4c:	2001f317          	auipc	t1,0x2001f
     b50:	50830067          	jr	1288(t1) # 20020054 <__riscv_restore_0>
     b54:	8082                	ret

00000b56 <tcp_slowtmr>:
     b56:	2001f317          	auipc	t1,0x2001f
     b5a:	4aa302e7          	jalr	t0,1194(t1) # 20020000 <__riscv_save_12>
     b5e:	20000497          	auipc	s1,0x20000
     b62:	59e48493          	addi	s1,s1,1438 # 200010fc <tcp_ticks>
     b66:	409c                	lw	a5,0(s1)
     b68:	20000b17          	auipc	s6,0x20000
     b6c:	504b4b03          	lbu	s6,1284(s6) # 2000106c <CH569Inf+0x18>
     b70:	06600993          	li	s3,102
     b74:	0785                	addi	a5,a5,1
     b76:	20000717          	auipc	a4,0x20000
     b7a:	58f72323          	sw	a5,1414(a4) # 200010fc <tcp_ticks>
     b7e:	20000797          	auipc	a5,0x20000
     b82:	57a78793          	addi	a5,a5,1402 # 200010f8 <tcp_active_pcbs>
     b86:	4380                	lw	s0,0(a5)
     b88:	4901                	li	s2,0
     b8a:	4b89                	li	s7,2
     b8c:	1ffffd97          	auipc	s11,0x1ffff
     b90:	554d8d93          	addi	s11,s11,1364 # 200000e0 <tcp_persist_backoff>
     b94:	4a19                	li	s4,6
     b96:	02800c13          	li	s8,40
     b9a:	20000c97          	auipc	s9,0x20000
     b9e:	4aec8c93          	addi	s9,s9,1198 # 20001048 <KeepLiveCfg>
     ba2:	ec01                	bnez	s0,bba <tcp_slowtmr+0x64>
     ba4:	20000797          	auipc	a5,0x20000
     ba8:	56878793          	addi	a5,a5,1384 # 2000110c <tcp_tw_pcbs>
     bac:	4380                	lw	s0,0(a5)
     bae:	54041463          	bnez	s0,10f6 <tcp_slowtmr+0x5a0>
     bb2:	2001f317          	auipc	t1,0x2001f
     bb6:	48a30067          	jr	1162(t1) # 2002003c <__riscv_restore_12>
     bba:	19fd                	addi	s3,s3,-1
     bbc:	0ff9f993          	andi	s3,s3,255
     bc0:	fe0989e3          	beqz	s3,bb2 <tcp_slowtmr+0x5c>
     bc4:	01144783          	lbu	a5,17(s0)
     bc8:	01044683          	lbu	a3,16(s0)
     bcc:	04644603          	lbu	a2,70(s0)
     bd0:	07a2                	slli	a5,a5,0x8
     bd2:	8fd5                	or	a5,a5,a3
     bd4:	01244683          	lbu	a3,18(s0)
     bd8:	4d05                	li	s10,1
     bda:	06c2                	slli	a3,a3,0x10
     bdc:	8fd5                	or	a5,a5,a3
     bde:	01344683          	lbu	a3,19(s0)
     be2:	06e2                	slli	a3,a3,0x18
     be4:	8edd                	or	a3,a3,a5
     be6:	04cb0a63          	beq	s6,a2,c3a <tcp_slowtmr+0xe4>
     bea:	09444d03          	lbu	s10,148(s0)
     bee:	240d0563          	beqz	s10,e38 <tcp_slowtmr+0x2e2>
     bf2:	09144683          	lbu	a3,145(s0)
     bf6:	09044703          	lbu	a4,144(s0)
     bfa:	06a2                	slli	a3,a3,0x8
     bfc:	8ed9                	or	a3,a3,a4
     bfe:	09244703          	lbu	a4,146(s0)
     c02:	0742                	slli	a4,a4,0x10
     c04:	8ed9                	or	a3,a3,a4
     c06:	09344703          	lbu	a4,147(s0)
     c0a:	0762                	slli	a4,a4,0x18
     c0c:	8f55                	or	a4,a4,a3
     c0e:	0705                	addi	a4,a4,1
     c10:	00875693          	srli	a3,a4,0x8
     c14:	08d408a3          	sb	a3,145(s0)
     c18:	01075693          	srli	a3,a4,0x10
     c1c:	08d40923          	sb	a3,146(s0)
     c20:	01875693          	srli	a3,a4,0x18
     c24:	08d409a3          	sb	a3,147(s0)
     c28:	01ad86b3          	add	a3,s11,s10
     c2c:	fff6c683          	lbu	a3,-1(a3)
     c30:	08e40823          	sb	a4,144(s0)
     c34:	1ed77063          	bgeu	a4,a3,e14 <tcp_slowtmr+0x2be>
     c38:	4d01                	li	s10,0
     c3a:	01144683          	lbu	a3,17(s0)
     c3e:	01044703          	lbu	a4,16(s0)
     c42:	06a2                	slli	a3,a3,0x8
     c44:	8ed9                	or	a3,a3,a4
     c46:	01244703          	lbu	a4,18(s0)
     c4a:	0742                	slli	a4,a4,0x10
     c4c:	8ed9                	or	a3,a3,a4
     c4e:	01344703          	lbu	a4,19(s0)
     c52:	0762                	slli	a4,a4,0x18
     c54:	8f55                	or	a4,a4,a3
     c56:	03471963          	bne	a4,s4,c88 <tcp_slowtmr+0x132>
     c5a:	02f44603          	lbu	a2,47(s0)
     c5e:	02e44683          	lbu	a3,46(s0)
     c62:	0622                	slli	a2,a2,0x8
     c64:	8e55                	or	a2,a2,a3
     c66:	03044683          	lbu	a3,48(s0)
     c6a:	06c2                	slli	a3,a3,0x10
     c6c:	8e55                	or	a2,a2,a3
     c6e:	03144683          	lbu	a3,49(s0)
     c72:	06e2                	slli	a3,a3,0x18
     c74:	8ed1                	or	a3,a3,a2
     c76:	4090                	lw	a2,0(s1)
     c78:	40d606b3          	sub	a3,a2,a3
     c7c:	00dc7663          	bgeu	s8,a3,c88 <tcp_slowtmr+0x132>
     c80:	001d0793          	addi	a5,s10,1
     c84:	0ff7fd13          	andi	s10,a5,255
     c88:	00844683          	lbu	a3,8(s0)
     c8c:	4a81                	li	s5,0
     c8e:	8aa1                	andi	a3,a3,8
     c90:	c6bd                	beqz	a3,cfe <tcp_slowtmr+0x1a8>
     c92:	4691                	li	a3,4
     c94:	00d70563          	beq	a4,a3,c9e <tcp_slowtmr+0x148>
     c98:	469d                	li	a3,7
     c9a:	06d71263          	bne	a4,a3,cfe <tcp_slowtmr+0x1a8>
     c9e:	02f44703          	lbu	a4,47(s0)
     ca2:	02e44583          	lbu	a1,46(s0)
     ca6:	08d44603          	lbu	a2,141(s0)
     caa:	0722                	slli	a4,a4,0x8
     cac:	8dd9                	or	a1,a1,a4
     cae:	03044703          	lbu	a4,48(s0)
     cb2:	004ca803          	lw	a6,4(s9)
     cb6:	008ca683          	lw	a3,8(s9)
     cba:	0742                	slli	a4,a4,0x10
     cbc:	8f4d                	or	a4,a4,a1
     cbe:	03144583          	lbu	a1,49(s0)
     cc2:	0622                	slli	a2,a2,0x8
     cc4:	02d806b3          	mul	a3,a6,a3
     cc8:	05e2                	slli	a1,a1,0x18
     cca:	8f4d                	or	a4,a4,a1
     ccc:	408c                	lw	a1,0(s1)
     cce:	1f400513          	li	a0,500
     cd2:	8d99                	sub	a1,a1,a4
     cd4:	08c44703          	lbu	a4,140(s0)
     cd8:	8f51                	or	a4,a4,a2
     cda:	08e44603          	lbu	a2,142(s0)
     cde:	0642                	slli	a2,a2,0x10
     ce0:	8e59                	or	a2,a2,a4
     ce2:	08f44703          	lbu	a4,143(s0)
     ce6:	0762                	slli	a4,a4,0x18
     ce8:	8e59                	or	a2,a2,a4
     cea:	96b2                	add	a3,a3,a2
     cec:	02a6d6b3          	divu	a3,a3,a0
     cf0:	24b6fb63          	bgeu	a3,a1,f46 <tcp_slowtmr+0x3f0>
     cf4:	001d0793          	addi	a5,s10,1
     cf8:	0ff7fd13          	andi	s10,a5,255
     cfc:	4a85                	li	s5,1
     cfe:	07144703          	lbu	a4,113(s0)
     d02:	07044503          	lbu	a0,112(s0)
     d06:	0722                	slli	a4,a4,0x8
     d08:	8f49                	or	a4,a4,a0
     d0a:	07244503          	lbu	a0,114(s0)
     d0e:	0542                	slli	a0,a0,0x10
     d10:	8f49                	or	a4,a4,a0
     d12:	07344503          	lbu	a0,115(s0)
     d16:	0562                	slli	a0,a0,0x18
     d18:	8d59                	or	a0,a0,a4
     d1a:	c531                	beqz	a0,d66 <tcp_slowtmr+0x210>
     d1c:	02f44683          	lbu	a3,47(s0)
     d20:	02e44703          	lbu	a4,46(s0)
     d24:	04444603          	lbu	a2,68(s0)
     d28:	06a2                	slli	a3,a3,0x8
     d2a:	8ed9                	or	a3,a3,a4
     d2c:	03044703          	lbu	a4,48(s0)
     d30:	0742                	slli	a4,a4,0x10
     d32:	8ed9                	or	a3,a3,a4
     d34:	03144703          	lbu	a4,49(s0)
     d38:	0762                	slli	a4,a4,0x18
     d3a:	8f55                	or	a4,a4,a3
     d3c:	4094                	lw	a3,0(s1)
     d3e:	8e99                	sub	a3,a3,a4
     d40:	04544703          	lbu	a4,69(s0)
     d44:	0722                	slli	a4,a4,0x8
     d46:	8f51                	or	a4,a4,a2
     d48:	0742                	slli	a4,a4,0x10
     d4a:	8741                	srai	a4,a4,0x10
     d4c:	03470733          	mul	a4,a4,s4
     d50:	00e6eb63          	bltu	a3,a4,d66 <tcp_slowtmr+0x210>
     d54:	3985                	jal	9c4 <tcp_segs_free>
     d56:	06040823          	sb	zero,112(s0)
     d5a:	060408a3          	sb	zero,113(s0)
     d5e:	06040923          	sb	zero,114(s0)
     d62:	060409a3          	sb	zero,115(s0)
     d66:	01144683          	lbu	a3,17(s0)
     d6a:	01044703          	lbu	a4,16(s0)
     d6e:	06a2                	slli	a3,a3,0x8
     d70:	8ed9                	or	a3,a3,a4
     d72:	01244703          	lbu	a4,18(s0)
     d76:	0742                	slli	a4,a4,0x10
     d78:	8ed9                	or	a3,a3,a4
     d7a:	01344703          	lbu	a4,19(s0)
     d7e:	0762                	slli	a4,a4,0x18
     d80:	8f55                	or	a4,a4,a3
     d82:	468d                	li	a3,3
     d84:	1ed71463          	bne	a4,a3,f6c <tcp_slowtmr+0x416>
     d88:	02f44683          	lbu	a3,47(s0)
     d8c:	02e44703          	lbu	a4,46(s0)
     d90:	06a2                	slli	a3,a3,0x8
     d92:	8ed9                	or	a3,a3,a4
     d94:	03044703          	lbu	a4,48(s0)
     d98:	0742                	slli	a4,a4,0x10
     d9a:	8ed9                	or	a3,a3,a4
     d9c:	03144703          	lbu	a4,49(s0)
     da0:	0762                	slli	a4,a4,0x18
     da2:	8f55                	or	a4,a4,a3
     da4:	4094                	lw	a3,0(s1)
     da6:	40e68733          	sub	a4,a3,a4
     daa:	1eec6963          	bltu	s8,a4,f9c <tcp_slowtmr+0x446>
     dae:	1e0d1763          	bnez	s10,f9c <tcp_slowtmr+0x446>
     db2:	03244783          	lbu	a5,50(s0)
     db6:	03344703          	lbu	a4,51(s0)
     dba:	0785                	addi	a5,a5,1
     dbc:	0ff7f793          	andi	a5,a5,255
     dc0:	02f40923          	sb	a5,50(s0)
     dc4:	02e7e763          	bltu	a5,a4,df2 <tcp_slowtmr+0x29c>
     dc8:	08544703          	lbu	a4,133(s0)
     dcc:	08444783          	lbu	a5,132(s0)
     dd0:	02040923          	sb	zero,50(s0)
     dd4:	0722                	slli	a4,a4,0x8
     dd6:	8f5d                	or	a4,a4,a5
     dd8:	08644783          	lbu	a5,134(s0)
     ddc:	07c2                	slli	a5,a5,0x10
     dde:	8f5d                	or	a4,a4,a5
     de0:	08744783          	lbu	a5,135(s0)
     de4:	07e2                	slli	a5,a5,0x18
     de6:	8fd9                	or	a5,a5,a4
     de8:	2e079463          	bnez	a5,10d0 <tcp_slowtmr+0x57a>
     dec:	8522                	mv	a0,s0
     dee:	529030ef          	jal	ra,4b16 <tcp_output>
     df2:	00d44783          	lbu	a5,13(s0)
     df6:	00c44703          	lbu	a4,12(s0)
     dfa:	8922                	mv	s2,s0
     dfc:	07a2                	slli	a5,a5,0x8
     dfe:	8f5d                	or	a4,a4,a5
     e00:	00e44783          	lbu	a5,14(s0)
     e04:	07c2                	slli	a5,a5,0x10
     e06:	8fd9                	or	a5,a5,a4
     e08:	00f44703          	lbu	a4,15(s0)
     e0c:	0762                	slli	a4,a4,0x18
     e0e:	00f76433          	or	s0,a4,a5
     e12:	bb41                	j	ba2 <tcp_slowtmr+0x4c>
     e14:	08040823          	sb	zero,144(s0)
     e18:	080408a3          	sb	zero,145(s0)
     e1c:	08040923          	sb	zero,146(s0)
     e20:	080409a3          	sb	zero,147(s0)
     e24:	01aa6663          	bltu	s4,s10,e30 <tcp_slowtmr+0x2da>
     e28:	001d0793          	addi	a5,s10,1
     e2c:	08f40a23          	sb	a5,148(s0)
     e30:	8522                	mv	a0,s0
     e32:	7bc040ef          	jal	ra,55ee <tcp_zero_window_probe>
     e36:	b509                	j	c38 <tcp_slowtmr+0xe2>
     e38:	03544703          	lbu	a4,53(s0)
     e3c:	03444583          	lbu	a1,52(s0)
     e40:	0722                	slli	a4,a4,0x8
     e42:	8f4d                	or	a4,a4,a1
     e44:	0742                	slli	a4,a4,0x10
     e46:	8741                	srai	a4,a4,0x10
     e48:	00074a63          	bltz	a4,e5c <tcp_slowtmr+0x306>
     e4c:	0705                	addi	a4,a4,1
     e4e:	0742                	slli	a4,a4,0x10
     e50:	8341                	srli	a4,a4,0x10
     e52:	02e40a23          	sb	a4,52(s0)
     e56:	8321                	srli	a4,a4,0x8
     e58:	02e40aa3          	sb	a4,53(s0)
     e5c:	06d44583          	lbu	a1,109(s0)
     e60:	06c44703          	lbu	a4,108(s0)
     e64:	05a2                	slli	a1,a1,0x8
     e66:	8dd9                	or	a1,a1,a4
     e68:	06e44703          	lbu	a4,110(s0)
     e6c:	0742                	slli	a4,a4,0x10
     e6e:	8dd9                	or	a1,a1,a4
     e70:	06f44703          	lbu	a4,111(s0)
     e74:	0762                	slli	a4,a4,0x18
     e76:	8f4d                	or	a4,a4,a1
     e78:	dc0700e3          	beqz	a4,c38 <tcp_slowtmr+0xe2>
     e7c:	03544703          	lbu	a4,53(s0)
     e80:	03444583          	lbu	a1,52(s0)
     e84:	0722                	slli	a4,a4,0x8
     e86:	8f4d                	or	a4,a4,a1
     e88:	0742                	slli	a4,a4,0x10
     e8a:	8741                	srai	a4,a4,0x10
     e8c:	dae056e3          	blez	a4,c38 <tcp_slowtmr+0xe2>
     e90:	05768463          	beq	a3,s7,ed8 <tcp_slowtmr+0x382>
     e94:	04144703          	lbu	a4,65(s0)
     e98:	04044683          	lbu	a3,64(s0)
     e9c:	04244583          	lbu	a1,66(s0)
     ea0:	0722                	slli	a4,a4,0x8
     ea2:	8f55                	or	a4,a4,a3
     ea4:	04344683          	lbu	a3,67(s0)
     ea8:	0742                	slli	a4,a4,0x10
     eaa:	8741                	srai	a4,a4,0x10
     eac:	06a2                	slli	a3,a3,0x8
     eae:	8ecd                	or	a3,a3,a1
     eb0:	06c2                	slli	a3,a3,0x10
     eb2:	20025797          	auipc	a5,0x20025
     eb6:	66678793          	addi	a5,a5,1638 # 20026518 <tcp_backoff>
     eba:	86c1                	srai	a3,a3,0x10
     ebc:	870d                	srai	a4,a4,0x3
     ebe:	963e                	add	a2,a2,a5
     ec0:	9736                	add	a4,a4,a3
     ec2:	00064683          	lbu	a3,0(a2)
     ec6:	00d71733          	sll	a4,a4,a3
     eca:	0742                	slli	a4,a4,0x10
     ecc:	8341                	srli	a4,a4,0x10
     ece:	04e40223          	sb	a4,68(s0)
     ed2:	8321                	srli	a4,a4,0x8
     ed4:	04e402a3          	sb	a4,69(s0)
     ed8:	05544603          	lbu	a2,85(s0)
     edc:	05444703          	lbu	a4,84(s0)
     ee0:	04c44683          	lbu	a3,76(s0)
     ee4:	0622                	slli	a2,a2,0x8
     ee6:	8e59                	or	a2,a2,a4
     ee8:	04d44703          	lbu	a4,77(s0)
     eec:	02040a23          	sb	zero,52(s0)
     ef0:	02040aa3          	sb	zero,53(s0)
     ef4:	0722                	slli	a4,a4,0x8
     ef6:	8f55                	or	a4,a4,a3
     ef8:	86b2                	mv	a3,a2
     efa:	00c77363          	bgeu	a4,a2,f00 <tcp_slowtmr+0x3aa>
     efe:	86ba                	mv	a3,a4
     f00:	06c2                	slli	a3,a3,0x10
     f02:	82c1                	srli	a3,a3,0x10
     f04:	8285                	srli	a3,a3,0x1
     f06:	0086d713          	srli	a4,a3,0x8
     f0a:	04e407a3          	sb	a4,79(s0)
     f0e:	03744703          	lbu	a4,55(s0)
     f12:	03644603          	lbu	a2,54(s0)
     f16:	04d40723          	sb	a3,78(s0)
     f1a:	0722                	slli	a4,a4,0x8
     f1c:	8f51                	or	a4,a4,a2
     f1e:	00e6fb63          	bgeu	a3,a4,f34 <tcp_slowtmr+0x3de>
     f22:	00171693          	slli	a3,a4,0x1
     f26:	06c2                	slli	a3,a3,0x10
     f28:	82c1                	srli	a3,a3,0x10
     f2a:	04d40723          	sb	a3,78(s0)
     f2e:	82a1                	srli	a3,a3,0x8
     f30:	04d407a3          	sb	a3,79(s0)
     f34:	04e40623          	sb	a4,76(s0)
     f38:	8321                	srli	a4,a4,0x8
     f3a:	04e406a3          	sb	a4,77(s0)
     f3e:	8522                	mv	a0,s0
     f40:	410040ef          	jal	ra,5350 <tcp_rexmit_rto>
     f44:	b9dd                	j	c3a <tcp_slowtmr+0xe4>
     f46:	09544703          	lbu	a4,149(s0)
     f4a:	4a81                	li	s5,0
     f4c:	03070733          	mul	a4,a4,a6
     f50:	9732                	add	a4,a4,a2
     f52:	02a75733          	divu	a4,a4,a0
     f56:	dab774e3          	bgeu	a4,a1,cfe <tcp_slowtmr+0x1a8>
     f5a:	8522                	mv	a0,s0
     f5c:	62a040ef          	jal	ra,5586 <tcp_keepalive>
     f60:	09544703          	lbu	a4,149(s0)
     f64:	0705                	addi	a4,a4,1
     f66:	08e40aa3          	sb	a4,149(s0)
     f6a:	bb51                	j	cfe <tcp_slowtmr+0x1a8>
     f6c:	46a5                	li	a3,9
     f6e:	e4d710e3          	bne	a4,a3,dae <tcp_slowtmr+0x258>
     f72:	02f44683          	lbu	a3,47(s0)
     f76:	02e44703          	lbu	a4,46(s0)
     f7a:	06a2                	slli	a3,a3,0x8
     f7c:	8ed9                	or	a3,a3,a4
     f7e:	03044703          	lbu	a4,48(s0)
     f82:	0742                	slli	a4,a4,0x10
     f84:	8ed9                	or	a3,a3,a4
     f86:	03144703          	lbu	a4,49(s0)
     f8a:	0762                	slli	a4,a4,0x18
     f8c:	8f55                	or	a4,a4,a3
     f8e:	4094                	lw	a3,0(s1)
     f90:	40e68733          	sub	a4,a3,a4
     f94:	0f000693          	li	a3,240
     f98:	e0e6fbe3          	bgeu	a3,a4,dae <tcp_slowtmr+0x258>
     f9c:	8522                	mv	a0,s0
     f9e:	20022097          	auipc	ra,0x20022
     fa2:	978080e7          	jalr	-1672(ra) # 20022916 <LwipRemoveTcpPcb>
     fa6:	8522                	mv	a0,s0
     fa8:	3475                	jal	a54 <tcp_pcb_purge>
     faa:	00d44603          	lbu	a2,13(s0)
     fae:	00c44783          	lbu	a5,12(s0)
     fb2:	00e44683          	lbu	a3,14(s0)
     fb6:	00f44703          	lbu	a4,15(s0)
     fba:	0622                	slli	a2,a2,0x8
     fbc:	10090063          	beqz	s2,10bc <tcp_slowtmr+0x566>
     fc0:	8fd1                	or	a5,a5,a2
     fc2:	06c2                	slli	a3,a3,0x10
     fc4:	8edd                	or	a3,a3,a5
     fc6:	01871793          	slli	a5,a4,0x18
     fca:	8fd5                	or	a5,a5,a3
     fcc:	0087d713          	srli	a4,a5,0x8
     fd0:	00f90623          	sb	a5,12(s2)
     fd4:	00e906a3          	sb	a4,13(s2)
     fd8:	0107d713          	srli	a4,a5,0x10
     fdc:	83e1                	srli	a5,a5,0x18
     fde:	00e90723          	sb	a4,14(s2)
     fe2:	00f907a3          	sb	a5,15(s2)
     fe6:	08944703          	lbu	a4,137(s0)
     fea:	08844783          	lbu	a5,136(s0)
     fee:	0722                	slli	a4,a4,0x8
     ff0:	8f5d                	or	a4,a4,a5
     ff2:	08a44783          	lbu	a5,138(s0)
     ff6:	07c2                	slli	a5,a5,0x10
     ff8:	8f5d                	or	a4,a4,a5
     ffa:	08b44783          	lbu	a5,139(s0)
     ffe:	07e2                	slli	a5,a5,0x18
    1000:	8fd9                	or	a5,a5,a4
    1002:	c38d                	beqz	a5,1024 <tcp_slowtmr+0x4ce>
    1004:	01644503          	lbu	a0,22(s0)
    1008:	01544703          	lbu	a4,21(s0)
    100c:	55ed                	li	a1,-5
    100e:	0522                	slli	a0,a0,0x8
    1010:	8d59                	or	a0,a0,a4
    1012:	01744703          	lbu	a4,23(s0)
    1016:	0742                	slli	a4,a4,0x10
    1018:	8f49                	or	a4,a4,a0
    101a:	01844503          	lbu	a0,24(s0)
    101e:	0562                	slli	a0,a0,0x18
    1020:	8d59                	or	a0,a0,a4
    1022:	9782                	jalr	a5
    1024:	060a8563          	beqz	s5,108e <tcp_slowtmr+0x538>
    1028:	02344583          	lbu	a1,35(s0)
    102c:	05144503          	lbu	a0,81(s0)
    1030:	02244883          	lbu	a7,34(s0)
    1034:	05044803          	lbu	a6,80(s0)
    1038:	05a2                	slli	a1,a1,0x8
    103a:	0522                	slli	a0,a0,0x8
    103c:	0115e5b3          	or	a1,a1,a7
    1040:	01056533          	or	a0,a0,a6
    1044:	02444883          	lbu	a7,36(s0)
    1048:	05244803          	lbu	a6,82(s0)
    104c:	02044783          	lbu	a5,32(s0)
    1050:	08c2                	slli	a7,a7,0x10
    1052:	0842                	slli	a6,a6,0x10
    1054:	00b8e8b3          	or	a7,a7,a1
    1058:	00a86833          	or	a6,a6,a0
    105c:	01a44703          	lbu	a4,26(s0)
    1060:	02544583          	lbu	a1,37(s0)
    1064:	05344503          	lbu	a0,83(s0)
    1068:	01f44603          	lbu	a2,31(s0)
    106c:	01944683          	lbu	a3,25(s0)
    1070:	07a2                	slli	a5,a5,0x8
    1072:	0722                	slli	a4,a4,0x8
    1074:	05e2                	slli	a1,a1,0x18
    1076:	0562                	slli	a0,a0,0x18
    1078:	8fd1                	or	a5,a5,a2
    107a:	8f55                	or	a4,a4,a3
    107c:	8622                	mv	a2,s0
    107e:	00440693          	addi	a3,s0,4
    1082:	0115e5b3          	or	a1,a1,a7
    1086:	01056533          	or	a0,a0,a6
    108a:	162040ef          	jal	ra,51ec <tcp_rst>
    108e:	00d44783          	lbu	a5,13(s0)
    1092:	00c44a83          	lbu	s5,12(s0)
    1096:	85a2                	mv	a1,s0
    1098:	07a2                	slli	a5,a5,0x8
    109a:	0157e7b3          	or	a5,a5,s5
    109e:	00e44a83          	lbu	s5,14(s0)
    10a2:	4509                	li	a0,2
    10a4:	0ac2                	slli	s5,s5,0x10
    10a6:	00fae7b3          	or	a5,s5,a5
    10aa:	00f44a83          	lbu	s5,15(s0)
    10ae:	0ae2                	slli	s5,s5,0x18
    10b0:	00faeab3          	or	s5,s5,a5
    10b4:	8456                	mv	s0,s5
    10b6:	114050ef          	jal	ra,61ca <memp_free>
    10ba:	b4e5                	j	ba2 <tcp_slowtmr+0x4c>
    10bc:	8e5d                	or	a2,a2,a5
    10be:	06c2                	slli	a3,a3,0x10
    10c0:	8ed1                	or	a3,a3,a2
    10c2:	0762                	slli	a4,a4,0x18
    10c4:	8f55                	or	a4,a4,a3
    10c6:	20000797          	auipc	a5,0x20000
    10ca:	02e7a923          	sw	a4,50(a5) # 200010f8 <tcp_active_pcbs>
    10ce:	bf21                	j	fe6 <tcp_slowtmr+0x490>
    10d0:	01644503          	lbu	a0,22(s0)
    10d4:	01544703          	lbu	a4,21(s0)
    10d8:	85a2                	mv	a1,s0
    10da:	0522                	slli	a0,a0,0x8
    10dc:	8d59                	or	a0,a0,a4
    10de:	01744703          	lbu	a4,23(s0)
    10e2:	0742                	slli	a4,a4,0x10
    10e4:	8f49                	or	a4,a4,a0
    10e6:	01844503          	lbu	a0,24(s0)
    10ea:	0562                	slli	a0,a0,0x18
    10ec:	8d59                	or	a0,a0,a4
    10ee:	9782                	jalr	a5
    10f0:	ce050ee3          	beqz	a0,dec <tcp_slowtmr+0x296>
    10f4:	b9fd                	j	df2 <tcp_slowtmr+0x29c>
    10f6:	8522                	mv	a0,s0
    10f8:	20022097          	auipc	ra,0x20022
    10fc:	81e080e7          	jalr	-2018(ra) # 20022916 <LwipRemoveTcpPcb>
    1100:	8522                	mv	a0,s0
    1102:	3a89                	jal	a54 <tcp_pcb_purge>
    1104:	00d44783          	lbu	a5,13(s0)
    1108:	00c44483          	lbu	s1,12(s0)
    110c:	85a2                	mv	a1,s0
    110e:	07a2                	slli	a5,a5,0x8
    1110:	8fc5                	or	a5,a5,s1
    1112:	00e44483          	lbu	s1,14(s0)
    1116:	4509                	li	a0,2
    1118:	04c2                	slli	s1,s1,0x10
    111a:	8fc5                	or	a5,a5,s1
    111c:	00f44483          	lbu	s1,15(s0)
    1120:	04e2                	slli	s1,s1,0x18
    1122:	8cdd                	or	s1,s1,a5
    1124:	20000797          	auipc	a5,0x20000
    1128:	fe97a423          	sw	s1,-24(a5) # 2000110c <tcp_tw_pcbs>
    112c:	8426                	mv	s0,s1
    112e:	09c050ef          	jal	ra,61ca <memp_free>
    1132:	bcb5                	j	bae <tcp_slowtmr+0x58>

00001134 <RemoveTimeWaiTCP>:
    1134:	2001f317          	auipc	t1,0x2001f
    1138:	efc302e7          	jalr	t0,-260(t1) # 20020030 <__riscv_save_0>
    113c:	20000797          	auipc	a5,0x20000
    1140:	fd078793          	addi	a5,a5,-48 # 2000110c <tcp_tw_pcbs>
    1144:	4380                	lw	s0,0(a5)
    1146:	e409                	bnez	s0,1150 <RemoveTimeWaiTCP+0x1c>
    1148:	2001f317          	auipc	t1,0x2001f
    114c:	f0c30067          	jr	-244(t1) # 20020054 <__riscv_restore_0>
    1150:	8522                	mv	a0,s0
    1152:	20021097          	auipc	ra,0x20021
    1156:	7c4080e7          	jalr	1988(ra) # 20022916 <LwipRemoveTcpPcb>
    115a:	8522                	mv	a0,s0
    115c:	38e5                	jal	a54 <tcp_pcb_purge>
    115e:	00d44783          	lbu	a5,13(s0)
    1162:	00c44483          	lbu	s1,12(s0)
    1166:	85a2                	mv	a1,s0
    1168:	07a2                	slli	a5,a5,0x8
    116a:	8fc5                	or	a5,a5,s1
    116c:	00e44483          	lbu	s1,14(s0)
    1170:	4509                	li	a0,2
    1172:	04c2                	slli	s1,s1,0x10
    1174:	8fc5                	or	a5,a5,s1
    1176:	00f44483          	lbu	s1,15(s0)
    117a:	04e2                	slli	s1,s1,0x18
    117c:	8cdd                	or	s1,s1,a5
    117e:	20000797          	auipc	a5,0x20000
    1182:	f897a723          	sw	s1,-114(a5) # 2000110c <tcp_tw_pcbs>
    1186:	8426                	mv	s0,s1
    1188:	042050ef          	jal	ra,61ca <memp_free>
    118c:	bf6d                	j	1146 <RemoveTimeWaiTCP+0x12>

0000118e <tcp_pcb_remove>:
    118e:	2001f317          	auipc	t1,0x2001f
    1192:	ea2302e7          	jalr	t0,-350(t1) # 20020030 <__riscv_save_0>
    1196:	411c                	lw	a5,0(a0)
    1198:	842e                	mv	s0,a1
    119a:	08b79763          	bne	a5,a1,1228 <tcp_pcb_remove+0x9a>
    119e:	00d5c703          	lbu	a4,13(a1)
    11a2:	00c5c783          	lbu	a5,12(a1)
    11a6:	0722                	slli	a4,a4,0x8
    11a8:	8f5d                	or	a4,a4,a5
    11aa:	00e5c783          	lbu	a5,14(a1)
    11ae:	07c2                	slli	a5,a5,0x10
    11b0:	8f5d                	or	a4,a4,a5
    11b2:	00f5c783          	lbu	a5,15(a1)
    11b6:	07e2                	slli	a5,a5,0x18
    11b8:	8fd9                	or	a5,a5,a4
    11ba:	c11c                	sw	a5,0(a0)
    11bc:	00040623          	sb	zero,12(s0)
    11c0:	000406a3          	sb	zero,13(s0)
    11c4:	00040723          	sb	zero,14(s0)
    11c8:	000407a3          	sb	zero,15(s0)
    11cc:	8522                	mv	a0,s0
    11ce:	3059                	jal	a54 <tcp_pcb_purge>
    11d0:	01144703          	lbu	a4,17(s0)
    11d4:	01044783          	lbu	a5,16(s0)
    11d8:	0722                	slli	a4,a4,0x8
    11da:	8f5d                	or	a4,a4,a5
    11dc:	01244783          	lbu	a5,18(s0)
    11e0:	07c2                	slli	a5,a5,0x10
    11e2:	8f5d                	or	a4,a4,a5
    11e4:	01344783          	lbu	a5,19(s0)
    11e8:	07e2                	slli	a5,a5,0x18
    11ea:	8fd9                	or	a5,a5,a4
    11ec:	4729                	li	a4,10
    11ee:	02e78163          	beq	a5,a4,1210 <tcp_pcb_remove+0x82>
    11f2:	4705                	li	a4,1
    11f4:	00e78e63          	beq	a5,a4,1210 <tcp_pcb_remove+0x82>
    11f8:	02144783          	lbu	a5,33(s0)
    11fc:	0017f713          	andi	a4,a5,1
    1200:	cb01                	beqz	a4,1210 <tcp_pcb_remove+0x82>
    1202:	0027e793          	ori	a5,a5,2
    1206:	02f400a3          	sb	a5,33(s0)
    120a:	8522                	mv	a0,s0
    120c:	10b030ef          	jal	ra,4b16 <tcp_output>
    1210:	00040823          	sb	zero,16(s0)
    1214:	000408a3          	sb	zero,17(s0)
    1218:	00040923          	sb	zero,18(s0)
    121c:	000409a3          	sb	zero,19(s0)
    1220:	2001f317          	auipc	t1,0x2001f
    1224:	e3430067          	jr	-460(t1) # 20020054 <__riscv_restore_0>
    1228:	20000717          	auipc	a4,0x20000
    122c:	ecf72e23          	sw	a5,-292(a4) # 20001104 <tcp_tmp_pcb>
    1230:	4601                	li	a2,0
    1232:	e799                	bnez	a5,1240 <tcp_pcb_remove+0xb2>
    1234:	d641                	beqz	a2,11bc <tcp_pcb_remove+0x2e>
    1236:	20000797          	auipc	a5,0x20000
    123a:	ec07a723          	sw	zero,-306(a5) # 20001104 <tcp_tmp_pcb>
    123e:	bfbd                	j	11bc <tcp_pcb_remove+0x2e>
    1240:	00d7c683          	lbu	a3,13(a5)
    1244:	00c7c703          	lbu	a4,12(a5)
    1248:	06a2                	slli	a3,a3,0x8
    124a:	8ed9                	or	a3,a3,a4
    124c:	00e7c703          	lbu	a4,14(a5)
    1250:	0742                	slli	a4,a4,0x10
    1252:	8ed9                	or	a3,a3,a4
    1254:	00f7c703          	lbu	a4,15(a5)
    1258:	0762                	slli	a4,a4,0x18
    125a:	8f55                	or	a4,a4,a3
    125c:	04871363          	bne	a4,s0,12a2 <tcp_pcb_remove+0x114>
    1260:	c609                	beqz	a2,126a <tcp_pcb_remove+0xdc>
    1262:	20000717          	auipc	a4,0x20000
    1266:	eaf72123          	sw	a5,-350(a4) # 20001104 <tcp_tmp_pcb>
    126a:	00d44683          	lbu	a3,13(s0)
    126e:	00c44703          	lbu	a4,12(s0)
    1272:	06a2                	slli	a3,a3,0x8
    1274:	8ed9                	or	a3,a3,a4
    1276:	00e44703          	lbu	a4,14(s0)
    127a:	0742                	slli	a4,a4,0x10
    127c:	8ed9                	or	a3,a3,a4
    127e:	00f44703          	lbu	a4,15(s0)
    1282:	0762                	slli	a4,a4,0x18
    1284:	8f55                	or	a4,a4,a3
    1286:	00875693          	srli	a3,a4,0x8
    128a:	00e78623          	sb	a4,12(a5)
    128e:	00d786a3          	sb	a3,13(a5)
    1292:	01075693          	srli	a3,a4,0x10
    1296:	8361                	srli	a4,a4,0x18
    1298:	00d78723          	sb	a3,14(a5)
    129c:	00e787a3          	sb	a4,15(a5)
    12a0:	bf31                	j	11bc <tcp_pcb_remove+0x2e>
    12a2:	4605                	li	a2,1
    12a4:	87ba                	mv	a5,a4
    12a6:	b771                	j	1232 <tcp_pcb_remove+0xa4>

000012a8 <tcp_close>:
    12a8:	01154703          	lbu	a4,17(a0)
    12ac:	01054783          	lbu	a5,16(a0)
    12b0:	0722                	slli	a4,a4,0x8
    12b2:	8f5d                	or	a4,a4,a5
    12b4:	01254783          	lbu	a5,18(a0)
    12b8:	07c2                	slli	a5,a5,0x10
    12ba:	8f5d                	or	a4,a4,a5
    12bc:	01354783          	lbu	a5,19(a0)
    12c0:	07e2                	slli	a5,a5,0x18
    12c2:	8fd9                	or	a5,a5,a4
    12c4:	471d                	li	a4,7
    12c6:	14f76d63          	bltu	a4,a5,1420 <tcp_close+0x178>
    12ca:	2001f317          	auipc	t1,0x2001f
    12ce:	d66302e7          	jalr	t0,-666(t1) # 20020030 <__riscv_save_0>
    12d2:	20025717          	auipc	a4,0x20025
    12d6:	22670713          	addi	a4,a4,550 # 200264f8 <ErrTable+0x74>
    12da:	078a                	slli	a5,a5,0x2
    12dc:	97ba                	add	a5,a5,a4
    12de:	439c                	lw	a5,0(a5)
    12e0:	842a                	mv	s0,a0
    12e2:	97ba                	add	a5,a5,a4
    12e4:	8782                	jr	a5
    12e6:	20021097          	auipc	ra,0x20021
    12ea:	630080e7          	jalr	1584(ra) # 20022916 <LwipRemoveTcpPcb>
    12ee:	20000797          	auipc	a5,0x20000
    12f2:	e1a78793          	addi	a5,a5,-486 # 20001108 <tcp_bound_pcbs>
    12f6:	439c                	lw	a5,0(a5)
    12f8:	02879f63          	bne	a5,s0,1336 <tcp_close+0x8e>
    12fc:	00d44703          	lbu	a4,13(s0)
    1300:	00c44783          	lbu	a5,12(s0)
    1304:	0722                	slli	a4,a4,0x8
    1306:	8f5d                	or	a4,a4,a5
    1308:	00e44783          	lbu	a5,14(s0)
    130c:	07c2                	slli	a5,a5,0x10
    130e:	8f5d                	or	a4,a4,a5
    1310:	00f44783          	lbu	a5,15(s0)
    1314:	07e2                	slli	a5,a5,0x18
    1316:	8fd9                	or	a5,a5,a4
    1318:	20000717          	auipc	a4,0x20000
    131c:	def72823          	sw	a5,-528(a4) # 20001108 <tcp_bound_pcbs>
    1320:	00040623          	sb	zero,12(s0)
    1324:	000406a3          	sb	zero,13(s0)
    1328:	00040723          	sb	zero,14(s0)
    132c:	000407a3          	sb	zero,15(s0)
    1330:	85a2                	mv	a1,s0
    1332:	4509                	li	a0,2
    1334:	a869                	j	13ce <tcp_close+0x126>
    1336:	20000717          	auipc	a4,0x20000
    133a:	dcf72723          	sw	a5,-562(a4) # 20001104 <tcp_tmp_pcb>
    133e:	4601                	li	a2,0
    1340:	e799                	bnez	a5,134e <tcp_close+0xa6>
    1342:	de79                	beqz	a2,1320 <tcp_close+0x78>
    1344:	20000797          	auipc	a5,0x20000
    1348:	dc07a023          	sw	zero,-576(a5) # 20001104 <tcp_tmp_pcb>
    134c:	bfd1                	j	1320 <tcp_close+0x78>
    134e:	00d7c683          	lbu	a3,13(a5)
    1352:	00c7c703          	lbu	a4,12(a5)
    1356:	06a2                	slli	a3,a3,0x8
    1358:	8ed9                	or	a3,a3,a4
    135a:	00e7c703          	lbu	a4,14(a5)
    135e:	0742                	slli	a4,a4,0x10
    1360:	8ed9                	or	a3,a3,a4
    1362:	00f7c703          	lbu	a4,15(a5)
    1366:	0762                	slli	a4,a4,0x18
    1368:	8f55                	or	a4,a4,a3
    136a:	04871363          	bne	a4,s0,13b0 <tcp_close+0x108>
    136e:	c609                	beqz	a2,1378 <tcp_close+0xd0>
    1370:	20000717          	auipc	a4,0x20000
    1374:	d8f72a23          	sw	a5,-620(a4) # 20001104 <tcp_tmp_pcb>
    1378:	00d44683          	lbu	a3,13(s0)
    137c:	00c44703          	lbu	a4,12(s0)
    1380:	06a2                	slli	a3,a3,0x8
    1382:	8ed9                	or	a3,a3,a4
    1384:	00e44703          	lbu	a4,14(s0)
    1388:	0742                	slli	a4,a4,0x10
    138a:	8ed9                	or	a3,a3,a4
    138c:	00f44703          	lbu	a4,15(s0)
    1390:	0762                	slli	a4,a4,0x18
    1392:	8f55                	or	a4,a4,a3
    1394:	00875693          	srli	a3,a4,0x8
    1398:	00e78623          	sb	a4,12(a5)
    139c:	00d786a3          	sb	a3,13(a5)
    13a0:	01075693          	srli	a3,a4,0x10
    13a4:	8361                	srli	a4,a4,0x18
    13a6:	00d78723          	sb	a3,14(a5)
    13aa:	00e787a3          	sb	a4,15(a5)
    13ae:	bf8d                	j	1320 <tcp_close+0x78>
    13b0:	4605                	li	a2,1
    13b2:	87ba                	mv	a5,a4
    13b4:	b771                	j	1340 <tcp_close+0x98>
    13b6:	20021097          	auipc	ra,0x20021
    13ba:	560080e7          	jalr	1376(ra) # 20022916 <LwipRemoveTcpPcb>
    13be:	85a2                	mv	a1,s0
    13c0:	20000517          	auipc	a0,0x20000
    13c4:	d4050513          	addi	a0,a0,-704 # 20001100 <tcp_listen_pcbs>
    13c8:	33d9                	jal	118e <tcp_pcb_remove>
    13ca:	85a2                	mv	a1,s0
    13cc:	450d                	li	a0,3
    13ce:	5fd040ef          	jal	ra,61ca <memp_free>
    13d2:	4501                	li	a0,0
    13d4:	a00d                	j	13f6 <tcp_close+0x14e>
    13d6:	20021097          	auipc	ra,0x20021
    13da:	540080e7          	jalr	1344(ra) # 20022916 <LwipRemoveTcpPcb>
    13de:	85a2                	mv	a1,s0
    13e0:	20000517          	auipc	a0,0x20000
    13e4:	d1850513          	addi	a0,a0,-744 # 200010f8 <tcp_active_pcbs>
    13e8:	335d                	jal	118e <tcp_pcb_remove>
    13ea:	b799                	j	1330 <tcp_close+0x88>
    13ec:	4585                	li	a1,1
    13ee:	640030ef          	jal	ra,4a2e <tcp_send_ctrl>
    13f2:	4795                	li	a5,5
    13f4:	c911                	beqz	a0,1408 <tcp_close+0x160>
    13f6:	2001f317          	auipc	t1,0x2001f
    13fa:	c5e30067          	jr	-930(t1) # 20020054 <__riscv_restore_0>
    13fe:	4585                	li	a1,1
    1400:	62e030ef          	jal	ra,4a2e <tcp_send_ctrl>
    1404:	f96d                	bnez	a0,13f6 <tcp_close+0x14e>
    1406:	47a5                	li	a5,9
    1408:	00f40823          	sb	a5,16(s0)
    140c:	000408a3          	sb	zero,17(s0)
    1410:	00040923          	sb	zero,18(s0)
    1414:	000409a3          	sb	zero,19(s0)
    1418:	8522                	mv	a0,s0
    141a:	6fc030ef          	jal	ra,4b16 <tcp_output>
    141e:	bf55                	j	13d2 <tcp_close+0x12a>
    1420:	4501                	li	a0,0
    1422:	8082                	ret

00001424 <tcp_recv_null>:
    1424:	2001f317          	auipc	t1,0x2001f
    1428:	c0c302e7          	jalr	t0,-1012(t1) # 20020030 <__riscv_save_0>
    142c:	1141                	addi	sp,sp,-16
    142e:	852e                	mv	a0,a1
    1430:	c60d                	beqz	a2,145a <tcp_recv_null+0x36>
    1432:	00964783          	lbu	a5,9(a2)
    1436:	00864583          	lbu	a1,8(a2)
    143a:	c632                	sw	a2,12(sp)
    143c:	07a2                	slli	a5,a5,0x8
    143e:	8ddd                	or	a1,a1,a5
    1440:	ce6ff0ef          	jal	ra,926 <tcp_recved>
    1444:	4632                	lw	a2,12(sp)
    1446:	8532                	mv	a0,a2
    1448:	289050ef          	jal	ra,6ed0 <pbuf_free>
    144c:	4781                	li	a5,0
    144e:	853e                	mv	a0,a5
    1450:	0141                	addi	sp,sp,16
    1452:	2001f317          	auipc	t1,0x2001f
    1456:	c0230067          	jr	-1022(t1) # 20020054 <__riscv_restore_0>
    145a:	4781                	li	a5,0
    145c:	faed                	bnez	a3,144e <tcp_recv_null+0x2a>
    145e:	35a9                	jal	12a8 <tcp_close>
    1460:	87aa                	mv	a5,a0
    1462:	b7f5                	j	144e <tcp_recv_null+0x2a>

00001464 <tcp_fasttmr>:
    1464:	2001f317          	auipc	t1,0x2001f
    1468:	bcc302e7          	jalr	t0,-1076(t1) # 20020030 <__riscv_save_0>
    146c:	20000797          	auipc	a5,0x20000
    1470:	c8c78793          	addi	a5,a5,-884 # 200010f8 <tcp_active_pcbs>
    1474:	4380                	lw	s0,0(a5)
    1476:	06500493          	li	s1,101
    147a:	c449                	beqz	s0,1504 <tcp_fasttmr+0xa0>
    147c:	07544783          	lbu	a5,117(s0)
    1480:	07444603          	lbu	a2,116(s0)
    1484:	07a2                	slli	a5,a5,0x8
    1486:	8fd1                	or	a5,a5,a2
    1488:	07644603          	lbu	a2,118(s0)
    148c:	0642                	slli	a2,a2,0x10
    148e:	8fd1                	or	a5,a5,a2
    1490:	07744603          	lbu	a2,119(s0)
    1494:	0662                	slli	a2,a2,0x18
    1496:	8e5d                	or	a2,a2,a5
    1498:	ca31                	beqz	a2,14ec <tcp_fasttmr+0x88>
    149a:	07d44703          	lbu	a4,125(s0)
    149e:	07c44783          	lbu	a5,124(s0)
    14a2:	0722                	slli	a4,a4,0x8
    14a4:	8f5d                	or	a4,a4,a5
    14a6:	07e44783          	lbu	a5,126(s0)
    14aa:	07c2                	slli	a5,a5,0x10
    14ac:	8f5d                	or	a4,a4,a5
    14ae:	07f44783          	lbu	a5,127(s0)
    14b2:	07e2                	slli	a5,a5,0x18
    14b4:	8fd9                	or	a5,a5,a4
    14b6:	cbb9                	beqz	a5,150c <tcp_fasttmr+0xa8>
    14b8:	01644503          	lbu	a0,22(s0)
    14bc:	01544703          	lbu	a4,21(s0)
    14c0:	4681                	li	a3,0
    14c2:	0522                	slli	a0,a0,0x8
    14c4:	8d59                	or	a0,a0,a4
    14c6:	01744703          	lbu	a4,23(s0)
    14ca:	85a2                	mv	a1,s0
    14cc:	0742                	slli	a4,a4,0x10
    14ce:	8f49                	or	a4,a4,a0
    14d0:	01844503          	lbu	a0,24(s0)
    14d4:	0562                	slli	a0,a0,0x18
    14d6:	8d59                	or	a0,a0,a4
    14d8:	9782                	jalr	a5
    14da:	e909                	bnez	a0,14ec <tcp_fasttmr+0x88>
    14dc:	06040a23          	sb	zero,116(s0)
    14e0:	06040aa3          	sb	zero,117(s0)
    14e4:	06040b23          	sb	zero,118(s0)
    14e8:	06040ba3          	sb	zero,119(s0)
    14ec:	14fd                	addi	s1,s1,-1
    14ee:	0ff4f493          	andi	s1,s1,255
    14f2:	e095                	bnez	s1,1516 <tcp_fasttmr+0xb2>
    14f4:	20025517          	auipc	a0,0x20025
    14f8:	03850513          	addi	a0,a0,56 # 2002652c <tcp_backoff+0x14>
    14fc:	20023097          	auipc	ra,0x20023
    1500:	5e2080e7          	jalr	1506(ra) # 20024ade <puts>
    1504:	2001f317          	auipc	t1,0x2001f
    1508:	b5030067          	jr	-1200(t1) # 20020054 <__riscv_restore_0>
    150c:	4681                	li	a3,0
    150e:	85a2                	mv	a1,s0
    1510:	4501                	li	a0,0
    1512:	3f09                	jal	1424 <tcp_recv_null>
    1514:	b7d9                	j	14da <tcp_fasttmr+0x76>
    1516:	02144783          	lbu	a5,33(s0)
    151a:	0017f713          	andi	a4,a5,1
    151e:	cf09                	beqz	a4,1538 <tcp_fasttmr+0xd4>
    1520:	0027e793          	ori	a5,a5,2
    1524:	02f400a3          	sb	a5,33(s0)
    1528:	8522                	mv	a0,s0
    152a:	5ec030ef          	jal	ra,4b16 <tcp_output>
    152e:	02144783          	lbu	a5,33(s0)
    1532:	9bf1                	andi	a5,a5,-4
    1534:	02f400a3          	sb	a5,33(s0)
    1538:	00d44783          	lbu	a5,13(s0)
    153c:	00c44703          	lbu	a4,12(s0)
    1540:	07a2                	slli	a5,a5,0x8
    1542:	8f5d                	or	a4,a4,a5
    1544:	00e44783          	lbu	a5,14(s0)
    1548:	00f44403          	lbu	s0,15(s0)
    154c:	07c2                	slli	a5,a5,0x10
    154e:	8fd9                	or	a5,a5,a4
    1550:	0462                	slli	s0,s0,0x18
    1552:	8c5d                	or	s0,s0,a5
    1554:	b71d                	j	147a <tcp_fasttmr+0x16>

00001556 <tcp_tmr>:
    1556:	2001f317          	auipc	t1,0x2001f
    155a:	ada302e7          	jalr	t0,-1318(t1) # 20020030 <__riscv_save_0>
    155e:	3719                	jal	1464 <tcp_fasttmr>
    1560:	1ffff797          	auipc	a5,0x1ffff
    1564:	bd47c783          	lbu	a5,-1068(a5) # 20000134 <tcp_timer>
    1568:	0785                	addi	a5,a5,1
    156a:	0ff7f793          	andi	a5,a5,255
    156e:	1ffff717          	auipc	a4,0x1ffff
    1572:	bcf70323          	sb	a5,-1082(a4) # 20000134 <tcp_timer>
    1576:	8b85                	andi	a5,a5,1
    1578:	c399                	beqz	a5,157e <tcp_tmr+0x28>
    157a:	ddcff0ef          	jal	ra,b56 <tcp_slowtmr>
    157e:	2001f317          	auipc	t1,0x2001f
    1582:	ad630067          	jr	-1322(t1) # 20020054 <__riscv_restore_0>

00001586 <tcp_abandon>:
    1586:	2001f317          	auipc	t1,0x2001f
    158a:	a82302e7          	jalr	t0,-1406(t1) # 20020008 <__riscv_save_10>
    158e:	01154703          	lbu	a4,17(a0)
    1592:	01054783          	lbu	a5,16(a0)
    1596:	1141                	addi	sp,sp,-16
    1598:	0722                	slli	a4,a4,0x8
    159a:	8f5d                	or	a4,a4,a5
    159c:	01254783          	lbu	a5,18(a0)
    15a0:	842a                	mv	s0,a0
    15a2:	07c2                	slli	a5,a5,0x10
    15a4:	8f5d                	or	a4,a4,a5
    15a6:	01354783          	lbu	a5,19(a0)
    15aa:	07e2                	slli	a5,a5,0x18
    15ac:	8fd9                	or	a5,a5,a4
    15ae:	4729                	li	a4,10
    15b0:	02e79163          	bne	a5,a4,15d2 <tcp_abandon+0x4c>
    15b4:	85aa                	mv	a1,a0
    15b6:	20000517          	auipc	a0,0x20000
    15ba:	b5650513          	addi	a0,a0,-1194 # 2000110c <tcp_tw_pcbs>
    15be:	3ec1                	jal	118e <tcp_pcb_remove>
    15c0:	85a2                	mv	a1,s0
    15c2:	4509                	li	a0,2
    15c4:	407040ef          	jal	ra,61ca <memp_free>
    15c8:	0141                	addi	sp,sp,16
    15ca:	2001f317          	auipc	t1,0x2001f
    15ce:	a7630067          	jr	-1418(t1) # 20020040 <__riscv_restore_10>
    15d2:	05154783          	lbu	a5,81(a0)
    15d6:	05054903          	lbu	s2,80(a0)
    15da:	02254983          	lbu	s3,34(a0)
    15de:	07a2                	slli	a5,a5,0x8
    15e0:	0127e7b3          	or	a5,a5,s2
    15e4:	05254903          	lbu	s2,82(a0)
    15e8:	00154703          	lbu	a4,1(a0)
    15ec:	8bae                	mv	s7,a1
    15ee:	0942                	slli	s2,s2,0x10
    15f0:	00f967b3          	or	a5,s2,a5
    15f4:	05354903          	lbu	s2,83(a0)
    15f8:	0722                	slli	a4,a4,0x8
    15fa:	0962                	slli	s2,s2,0x18
    15fc:	00f96933          	or	s2,s2,a5
    1600:	02354783          	lbu	a5,35(a0)
    1604:	07a2                	slli	a5,a5,0x8
    1606:	0137e7b3          	or	a5,a5,s3
    160a:	02454983          	lbu	s3,36(a0)
    160e:	09c2                	slli	s3,s3,0x10
    1610:	00f9e7b3          	or	a5,s3,a5
    1614:	02554983          	lbu	s3,37(a0)
    1618:	09e2                	slli	s3,s3,0x18
    161a:	00f9e9b3          	or	s3,s3,a5
    161e:	00054783          	lbu	a5,0(a0)
    1622:	8f5d                	or	a4,a4,a5
    1624:	00254783          	lbu	a5,2(a0)
    1628:	07c2                	slli	a5,a5,0x10
    162a:	8f5d                	or	a4,a4,a5
    162c:	00354783          	lbu	a5,3(a0)
    1630:	07e2                	slli	a5,a5,0x18
    1632:	8fd9                	or	a5,a5,a4
    1634:	c63e                	sw	a5,12(sp)
    1636:	00554703          	lbu	a4,5(a0)
    163a:	00454783          	lbu	a5,4(a0)
    163e:	0722                	slli	a4,a4,0x8
    1640:	8f5d                	or	a4,a4,a5
    1642:	00654783          	lbu	a5,6(a0)
    1646:	07c2                	slli	a5,a5,0x10
    1648:	8f5d                	or	a4,a4,a5
    164a:	00754783          	lbu	a5,7(a0)
    164e:	07e2                	slli	a5,a5,0x18
    1650:	8fd9                	or	a5,a5,a4
    1652:	c43e                	sw	a5,8(sp)
    1654:	01a54a03          	lbu	s4,26(a0)
    1658:	01954783          	lbu	a5,25(a0)
    165c:	02054a83          	lbu	s5,32(a0)
    1660:	0a22                	slli	s4,s4,0x8
    1662:	00fa6a33          	or	s4,s4,a5
    1666:	01f54783          	lbu	a5,31(a0)
    166a:	0aa2                	slli	s5,s5,0x8
    166c:	08854483          	lbu	s1,136(a0)
    1670:	00faeab3          	or	s5,s5,a5
    1674:	08954783          	lbu	a5,137(a0)
    1678:	01554b03          	lbu	s6,21(a0)
    167c:	07a2                	slli	a5,a5,0x8
    167e:	8fc5                	or	a5,a5,s1
    1680:	08a54483          	lbu	s1,138(a0)
    1684:	04c2                	slli	s1,s1,0x10
    1686:	8fc5                	or	a5,a5,s1
    1688:	08b54483          	lbu	s1,139(a0)
    168c:	04e2                	slli	s1,s1,0x18
    168e:	8cdd                	or	s1,s1,a5
    1690:	01654783          	lbu	a5,22(a0)
    1694:	07a2                	slli	a5,a5,0x8
    1696:	0167e7b3          	or	a5,a5,s6
    169a:	01754b03          	lbu	s6,23(a0)
    169e:	0b42                	slli	s6,s6,0x10
    16a0:	00fb67b3          	or	a5,s6,a5
    16a4:	01854b03          	lbu	s6,24(a0)
    16a8:	0b62                	slli	s6,s6,0x18
    16aa:	00fb6b33          	or	s6,s6,a5
    16ae:	20021097          	auipc	ra,0x20021
    16b2:	268080e7          	jalr	616(ra) # 20022916 <LwipRemoveTcpPcb>
    16b6:	20000517          	auipc	a0,0x20000
    16ba:	a4250513          	addi	a0,a0,-1470 # 200010f8 <tcp_active_pcbs>
    16be:	85a2                	mv	a1,s0
    16c0:	34f9                	jal	118e <tcp_pcb_remove>
    16c2:	06d44783          	lbu	a5,109(s0)
    16c6:	06c44503          	lbu	a0,108(s0)
    16ca:	07a2                	slli	a5,a5,0x8
    16cc:	8fc9                	or	a5,a5,a0
    16ce:	06e44503          	lbu	a0,110(s0)
    16d2:	0542                	slli	a0,a0,0x10
    16d4:	8fc9                	or	a5,a5,a0
    16d6:	06f44503          	lbu	a0,111(s0)
    16da:	0562                	slli	a0,a0,0x18
    16dc:	8d5d                	or	a0,a0,a5
    16de:	c119                	beqz	a0,16e4 <tcp_abandon+0x15e>
    16e0:	ae4ff0ef          	jal	ra,9c4 <tcp_segs_free>
    16e4:	06944783          	lbu	a5,105(s0)
    16e8:	06844503          	lbu	a0,104(s0)
    16ec:	07a2                	slli	a5,a5,0x8
    16ee:	8fc9                	or	a5,a5,a0
    16f0:	06a44503          	lbu	a0,106(s0)
    16f4:	0542                	slli	a0,a0,0x10
    16f6:	8fc9                	or	a5,a5,a0
    16f8:	06b44503          	lbu	a0,107(s0)
    16fc:	0562                	slli	a0,a0,0x18
    16fe:	8d5d                	or	a0,a0,a5
    1700:	c119                	beqz	a0,1706 <tcp_abandon+0x180>
    1702:	ac2ff0ef          	jal	ra,9c4 <tcp_segs_free>
    1706:	07144783          	lbu	a5,113(s0)
    170a:	07044503          	lbu	a0,112(s0)
    170e:	07a2                	slli	a5,a5,0x8
    1710:	8fc9                	or	a5,a5,a0
    1712:	07244503          	lbu	a0,114(s0)
    1716:	0542                	slli	a0,a0,0x10
    1718:	8fc9                	or	a5,a5,a0
    171a:	07344503          	lbu	a0,115(s0)
    171e:	0562                	slli	a0,a0,0x18
    1720:	8d5d                	or	a0,a0,a5
    1722:	c119                	beqz	a0,1728 <tcp_abandon+0x1a2>
    1724:	aa0ff0ef          	jal	ra,9c4 <tcp_segs_free>
    1728:	85a2                	mv	a1,s0
    172a:	4509                	li	a0,2
    172c:	29f040ef          	jal	ra,61ca <memp_free>
    1730:	c481                	beqz	s1,1738 <tcp_abandon+0x1b2>
    1732:	55ed                	li	a1,-5
    1734:	855a                	mv	a0,s6
    1736:	9482                	jalr	s1
    1738:	e80b88e3          	beqz	s7,15c8 <tcp_abandon+0x42>
    173c:	87d6                	mv	a5,s5
    173e:	8752                	mv	a4,s4
    1740:	0034                	addi	a3,sp,8
    1742:	0070                	addi	a2,sp,12
    1744:	85ce                	mv	a1,s3
    1746:	854a                	mv	a0,s2
    1748:	2a5030ef          	jal	ra,51ec <tcp_rst>
    174c:	bdb5                	j	15c8 <tcp_abandon+0x42>

0000174e <tcp_next_iss>:
    174e:	1ffff797          	auipc	a5,0x1ffff
    1752:	97278793          	addi	a5,a5,-1678 # 200000c0 <iss.3741>
    1756:	20000717          	auipc	a4,0x20000
    175a:	9a670713          	addi	a4,a4,-1626 # 200010fc <tcp_ticks>
    175e:	4388                	lw	a0,0(a5)
    1760:	4318                	lw	a4,0(a4)
    1762:	953a                	add	a0,a0,a4
    1764:	c388                	sw	a0,0(a5)
    1766:	8082                	ret

00001768 <tcp_alloc>:
    1768:	2001f317          	auipc	t1,0x2001f
    176c:	8ae302e7          	jalr	t0,-1874(t1) # 20020016 <__riscv_save_4>
    1770:	892a                	mv	s2,a0
    1772:	4509                	li	a0,2
    1774:	237040ef          	jal	ra,61aa <memp_malloc>
    1778:	20000497          	auipc	s1,0x20000
    177c:	8a048493          	addi	s1,s1,-1888 # 20001018 <CH569Cfg>
    1780:	842a                	mv	s0,a0
    1782:	e92d                	bnez	a0,17f4 <tcp_alloc+0x8c>
    1784:	489c                	lw	a5,16(s1)
    1786:	8b91                	andi	a5,a5,4
    1788:	e799                	bnez	a5,1796 <tcp_alloc+0x2e>
    178a:	4401                	li	s0,0
    178c:	8522                	mv	a0,s0
    178e:	2001f317          	auipc	t1,0x2001f
    1792:	8bc30067          	jr	-1860(t1) # 2002004a <__riscv_restore_4>
    1796:	20000797          	auipc	a5,0x20000
    179a:	97678793          	addi	a5,a5,-1674 # 2000110c <tcp_tw_pcbs>
    179e:	20000997          	auipc	s3,0x20000
    17a2:	95e98993          	addi	s3,s3,-1698 # 200010fc <tcp_ticks>
    17a6:	439c                	lw	a5,0(a5)
    17a8:	0009a583          	lw	a1,0(s3)
    17ac:	4501                	li	a0,0
    17ae:	4601                	li	a2,0
    17b0:	1a079163          	bnez	a5,1952 <tcp_alloc+0x1ea>
    17b4:	c119                	beqz	a0,17ba <tcp_alloc+0x52>
    17b6:	4585                	li	a1,1
    17b8:	33f9                	jal	1586 <tcp_abandon>
    17ba:	4509                	li	a0,2
    17bc:	1ef040ef          	jal	ra,61aa <memp_malloc>
    17c0:	842a                	mv	s0,a0
    17c2:	e90d                	bnez	a0,17f4 <tcp_alloc+0x8c>
    17c4:	20000797          	auipc	a5,0x20000
    17c8:	93478793          	addi	a5,a5,-1740 # 200010f8 <tcp_active_pcbs>
    17cc:	439c                	lw	a5,0(a5)
    17ce:	0009a803          	lw	a6,0(s3)
    17d2:	197d                	addi	s2,s2,-1
    17d4:	0ff97913          	andi	s2,s2,255
    17d8:	07f00593          	li	a1,127
    17dc:	4501                	li	a0,0
    17de:	1a079d63          	bnez	a5,1998 <tcp_alloc+0x230>
    17e2:	c401                	beqz	s0,17ea <tcp_alloc+0x82>
    17e4:	4585                	li	a1,1
    17e6:	8522                	mv	a0,s0
    17e8:	3b79                	jal	1586 <tcp_abandon>
    17ea:	4509                	li	a0,2
    17ec:	1bf040ef          	jal	ra,61aa <memp_malloc>
    17f0:	842a                	mv	s0,a0
    17f2:	dd41                	beqz	a0,178a <tcp_alloc+0x22>
    17f4:	09600613          	li	a2,150
    17f8:	4581                	li	a1,0
    17fa:	8522                	mv	a0,s0
    17fc:	2001f097          	auipc	ra,0x2001f
    1800:	864080e7          	jalr	-1948(ra) # 20020060 <memset>
    1804:	04000793          	li	a5,64
    1808:	00f40a23          	sb	a5,20(s0)
    180c:	02000793          	li	a5,32
    1810:	06f402a3          	sb	a5,101(s0)
    1814:	40dc                	lw	a5,4(s1)
    1816:	00040523          	sb	zero,10(s0)
    181a:	01079713          	slli	a4,a5,0x10
    181e:	8341                	srli	a4,a4,0x10
    1820:	0ff77693          	andi	a3,a4,255
    1824:	8321                	srli	a4,a4,0x8
    1826:	02e403a3          	sb	a4,39(s0)
    182a:	02e404a3          	sb	a4,41(s0)
    182e:	f8000713          	li	a4,-128
    1832:	00e405a3          	sb	a4,11(s0)
    1836:	02d40323          	sb	a3,38(s0)
    183a:	02d40423          	sb	a3,40(s0)
    183e:	21800713          	li	a4,536
    1842:	00f77463          	bgeu	a4,a5,184a <tcp_alloc+0xe2>
    1846:	21800793          	li	a5,536
    184a:	07c2                	slli	a5,a5,0x10
    184c:	83c1                	srli	a5,a5,0x10
    184e:	02f40b23          	sb	a5,54(s0)
    1852:	83a1                	srli	a5,a5,0x8
    1854:	02f40ba3          	sb	a5,55(s0)
    1858:	4799                	li	a5,6
    185a:	04f40223          	sb	a5,68(s0)
    185e:	04f40123          	sb	a5,66(s0)
    1862:	57fd                	li	a5,-1
    1864:	02f40a23          	sb	a5,52(s0)
    1868:	02f40aa3          	sb	a5,53(s0)
    186c:	4785                	li	a5,1
    186e:	04f40623          	sb	a5,76(s0)
    1872:	040402a3          	sb	zero,69(s0)
    1876:	04040023          	sb	zero,64(s0)
    187a:	040400a3          	sb	zero,65(s0)
    187e:	040401a3          	sb	zero,67(s0)
    1882:	040406a3          	sb	zero,77(s0)
    1886:	35e1                	jal	174e <tcp_next_iss>
    1888:	01055793          	srli	a5,a0,0x10
    188c:	0ff7f793          	andi	a5,a5,255
    1890:	04f40e23          	sb	a5,92(s0)
    1894:	04f40923          	sb	a5,82(s0)
    1898:	04f404a3          	sb	a5,73(s0)
    189c:	06f40023          	sb	a5,96(s0)
    18a0:	20000797          	auipc	a5,0x20000
    18a4:	85c78793          	addi	a5,a5,-1956 # 200010fc <tcp_ticks>
    18a8:	439c                	lw	a5,0(a5)
    18aa:	00855713          	srli	a4,a0,0x8
    18ae:	0ff77713          	andi	a4,a4,255
    18b2:	04e40da3          	sb	a4,91(s0)
    18b6:	04e408a3          	sb	a4,81(s0)
    18ba:	04e40423          	sb	a4,72(s0)
    18be:	04e40fa3          	sb	a4,95(s0)
    18c2:	0087d713          	srli	a4,a5,0x8
    18c6:	02f40723          	sb	a5,46(s0)
    18ca:	02e407a3          	sb	a4,47(s0)
    18ce:	0107d713          	srli	a4,a5,0x10
    18d2:	83e1                	srli	a5,a5,0x18
    18d4:	02f408a3          	sb	a5,49(s0)
    18d8:	00000797          	auipc	a5,0x0
    18dc:	b4c78793          	addi	a5,a5,-1204 # 1424 <tcp_recv_null>
    18e0:	02e40823          	sb	a4,48(s0)
    18e4:	0087d713          	srli	a4,a5,0x8
    18e8:	06f40e23          	sb	a5,124(s0)
    18ec:	06e40ea3          	sb	a4,125(s0)
    18f0:	0107d713          	srli	a4,a5,0x10
    18f4:	83e1                	srli	a5,a5,0x18
    18f6:	06f40fa3          	sb	a5,127(s0)
    18fa:	1ffff797          	auipc	a5,0x1ffff
    18fe:	74e78793          	addi	a5,a5,1870 # 20001048 <KeepLiveCfg>
    1902:	439c                	lw	a5,0(a5)
    1904:	06e40f23          	sb	a4,126(s0)
    1908:	0ff57693          	andi	a3,a0,255
    190c:	0087d713          	srli	a4,a5,0x8
    1910:	8161                	srli	a0,a0,0x18
    1912:	08f40623          	sb	a5,140(s0)
    1916:	08e406a3          	sb	a4,141(s0)
    191a:	0107d713          	srli	a4,a5,0x10
    191e:	83e1                	srli	a5,a5,0x18
    1920:	04d40d23          	sb	a3,90(s0)
    1924:	04a40ea3          	sb	a0,93(s0)
    1928:	04d40823          	sb	a3,80(s0)
    192c:	04a409a3          	sb	a0,83(s0)
    1930:	04d403a3          	sb	a3,71(s0)
    1934:	04a40523          	sb	a0,74(s0)
    1938:	04d40f23          	sb	a3,94(s0)
    193c:	06a400a3          	sb	a0,97(s0)
    1940:	02040923          	sb	zero,50(s0)
    1944:	08e40723          	sb	a4,142(s0)
    1948:	08f407a3          	sb	a5,143(s0)
    194c:	08040aa3          	sb	zero,149(s0)
    1950:	bd35                	j	178c <tcp_alloc+0x24>
    1952:	02f7c683          	lbu	a3,47(a5)
    1956:	02e7c703          	lbu	a4,46(a5)
    195a:	06a2                	slli	a3,a3,0x8
    195c:	8ed9                	or	a3,a3,a4
    195e:	0307c703          	lbu	a4,48(a5)
    1962:	0742                	slli	a4,a4,0x10
    1964:	8ed9                	or	a3,a3,a4
    1966:	0317c703          	lbu	a4,49(a5)
    196a:	0762                	slli	a4,a4,0x18
    196c:	8f55                	or	a4,a4,a3
    196e:	40e58733          	sub	a4,a1,a4
    1972:	00c76463          	bltu	a4,a2,197a <tcp_alloc+0x212>
    1976:	863a                	mv	a2,a4
    1978:	853e                	mv	a0,a5
    197a:	00d7c703          	lbu	a4,13(a5)
    197e:	00c7c683          	lbu	a3,12(a5)
    1982:	0722                	slli	a4,a4,0x8
    1984:	8ed9                	or	a3,a3,a4
    1986:	00e7c703          	lbu	a4,14(a5)
    198a:	00f7c783          	lbu	a5,15(a5)
    198e:	0742                	slli	a4,a4,0x10
    1990:	8f55                	or	a4,a4,a3
    1992:	07e2                	slli	a5,a5,0x18
    1994:	8fd9                	or	a5,a5,a4
    1996:	bd29                	j	17b0 <tcp_alloc+0x48>
    1998:	0147c603          	lbu	a2,20(a5)
    199c:	02c96963          	bltu	s2,a2,19ce <tcp_alloc+0x266>
    19a0:	02c5e763          	bltu	a1,a2,19ce <tcp_alloc+0x266>
    19a4:	02f7c683          	lbu	a3,47(a5)
    19a8:	02e7c703          	lbu	a4,46(a5)
    19ac:	06a2                	slli	a3,a3,0x8
    19ae:	8ed9                	or	a3,a3,a4
    19b0:	0307c703          	lbu	a4,48(a5)
    19b4:	0742                	slli	a4,a4,0x10
    19b6:	8ed9                	or	a3,a3,a4
    19b8:	0317c703          	lbu	a4,49(a5)
    19bc:	0762                	slli	a4,a4,0x18
    19be:	8f55                	or	a4,a4,a3
    19c0:	40e80733          	sub	a4,a6,a4
    19c4:	00a76563          	bltu	a4,a0,19ce <tcp_alloc+0x266>
    19c8:	85b2                	mv	a1,a2
    19ca:	853a                	mv	a0,a4
    19cc:	843e                	mv	s0,a5
    19ce:	00d7c703          	lbu	a4,13(a5)
    19d2:	00c7c683          	lbu	a3,12(a5)
    19d6:	0722                	slli	a4,a4,0x8
    19d8:	8ed9                	or	a3,a3,a4
    19da:	00e7c703          	lbu	a4,14(a5)
    19de:	00f7c783          	lbu	a5,15(a5)
    19e2:	0742                	slli	a4,a4,0x10
    19e4:	8f55                	or	a4,a4,a3
    19e6:	07e2                	slli	a5,a5,0x18
    19e8:	8fd9                	or	a5,a5,a4
    19ea:	bbd5                	j	17de <tcp_alloc+0x76>

000019ec <tcp_new>:
    19ec:	2001e317          	auipc	t1,0x2001e
    19f0:	644302e7          	jalr	t0,1604(t1) # 20020030 <__riscv_save_0>
    19f4:	04000513          	li	a0,64
    19f8:	3b85                	jal	1768 <tcp_alloc>
    19fa:	2001e317          	auipc	t1,0x2001e
    19fe:	65a30067          	jr	1626(t1) # 20020054 <__riscv_restore_0>

00001a02 <tcp_eff_send_mss>:
    1a02:	2001e317          	auipc	t1,0x2001e
    1a06:	62e302e7          	jalr	t0,1582(t1) # 20020030 <__riscv_save_0>
    1a0a:	842a                	mv	s0,a0
    1a0c:	852e                	mv	a0,a1
    1a0e:	509030ef          	jal	ra,5716 <ip_route>
    1a12:	cd19                	beqz	a0,1a30 <tcp_eff_send_mss+0x2e>
    1a14:	02455783          	lhu	a5,36(a0)
    1a18:	cf81                	beqz	a5,1a30 <tcp_eff_send_mss+0x2e>
    1a1a:	fd878793          	addi	a5,a5,-40
    1a1e:	873e                	mv	a4,a5
    1a20:	07c2                	slli	a5,a5,0x10
    1a22:	83c1                	srli	a5,a5,0x10
    1a24:	00f47363          	bgeu	s0,a5,1a2a <tcp_eff_send_mss+0x28>
    1a28:	8722                	mv	a4,s0
    1a2a:	01071413          	slli	s0,a4,0x10
    1a2e:	8041                	srli	s0,s0,0x10
    1a30:	8522                	mv	a0,s0
    1a32:	2001e317          	auipc	t1,0x2001e
    1a36:	62230067          	jr	1570(t1) # 20020054 <__riscv_restore_0>

00001a3a <tcp_parseopt>:
    1a3a:	2001e317          	auipc	t1,0x2001e
    1a3e:	5f6302e7          	jalr	t0,1526(t1) # 20020030 <__riscv_save_0>
    1a42:	1fffe917          	auipc	s2,0x1fffe
    1a46:	70e90913          	addi	s2,s2,1806 # 20000150 <tcphdr>
    1a4a:	00092483          	lw	s1,0(s2)
    1a4e:	842a                	mv	s0,a0
    1a50:	00d4c783          	lbu	a5,13(s1)
    1a54:	00c4c503          	lbu	a0,12(s1)
    1a58:	07a2                	slli	a5,a5,0x8
    1a5a:	8d5d                	or	a0,a0,a5
    1a5c:	20022097          	auipc	ra,0x20022
    1a60:	c3c080e7          	jalr	-964(ra) # 20023698 <ntohs>
    1a64:	8131                	srli	a0,a0,0xc
    1a66:	0542                	slli	a0,a0,0x10
    1a68:	8141                	srli	a0,a0,0x10
    1a6a:	4795                	li	a5,5
    1a6c:	04a7f263          	bgeu	a5,a0,1ab0 <tcp_parseopt+0x76>
    1a70:	00092783          	lw	a5,0(s2)
    1a74:	04d1                	addi	s1,s1,20
    1a76:	00c7c503          	lbu	a0,12(a5)
    1a7a:	00d7c783          	lbu	a5,13(a5)
    1a7e:	07a2                	slli	a5,a5,0x8
    1a80:	8d5d                	or	a0,a0,a5
    1a82:	20022097          	auipc	ra,0x20022
    1a86:	c16080e7          	jalr	-1002(ra) # 20023698 <ntohs>
    1a8a:	1ffff797          	auipc	a5,0x1ffff
    1a8e:	58e78793          	addi	a5,a5,1422 # 20001018 <CH569Cfg>
    1a92:	43d0                	lw	a2,4(a5)
    1a94:	8131                	srli	a0,a0,0xc
    1a96:	156d                	addi	a0,a0,-5
    1a98:	050a                	slli	a0,a0,0x2
    1a9a:	0542                	slli	a0,a0,0x10
    1a9c:	01061593          	slli	a1,a2,0x10
    1aa0:	8141                	srli	a0,a0,0x10
    1aa2:	81c1                	srli	a1,a1,0x10
    1aa4:	4781                	li	a5,0
    1aa6:	4805                	li	a6,1
    1aa8:	4889                	li	a7,2
    1aaa:	4311                	li	t1,4
    1aac:	00a7e663          	bltu	a5,a0,1ab8 <tcp_parseopt+0x7e>
    1ab0:	2001e317          	auipc	t1,0x2001e
    1ab4:	5a430067          	jr	1444(t1) # 20020054 <__riscv_restore_0>
    1ab8:	00f486b3          	add	a3,s1,a5
    1abc:	0006c703          	lbu	a4,0(a3)
    1ac0:	01070a63          	beq	a4,a6,1ad4 <tcp_parseopt+0x9a>
    1ac4:	d775                	beqz	a4,1ab0 <tcp_parseopt+0x76>
    1ac6:	01170b63          	beq	a4,a7,1adc <tcp_parseopt+0xa2>
    1aca:	0016c703          	lbu	a4,1(a3)
    1ace:	d36d                	beqz	a4,1ab0 <tcp_parseopt+0x76>
    1ad0:	97ba                	add	a5,a5,a4
    1ad2:	a011                	j	1ad6 <tcp_parseopt+0x9c>
    1ad4:	0785                	addi	a5,a5,1
    1ad6:	07c2                	slli	a5,a5,0x10
    1ad8:	83c1                	srli	a5,a5,0x10
    1ada:	bfc9                	j	1aac <tcp_parseopt+0x72>
    1adc:	0016c703          	lbu	a4,1(a3)
    1ae0:	fc6718e3          	bne	a4,t1,1ab0 <tcp_parseopt+0x76>
    1ae4:	00378713          	addi	a4,a5,3
    1ae8:	fca754e3          	bge	a4,a0,1ab0 <tcp_parseopt+0x76>
    1aec:	0026c703          	lbu	a4,2(a3)
    1af0:	0036c683          	lbu	a3,3(a3)
    1af4:	0722                	slli	a4,a4,0x8
    1af6:	8f55                	or	a4,a4,a3
    1af8:	00e66363          	bltu	a2,a4,1afe <tcp_parseopt+0xc4>
    1afc:	e311                	bnez	a4,1b00 <tcp_parseopt+0xc6>
    1afe:	872e                	mv	a4,a1
    1b00:	02e40b23          	sb	a4,54(s0)
    1b04:	8321                	srli	a4,a4,0x8
    1b06:	02e40ba3          	sb	a4,55(s0)
    1b0a:	0791                	addi	a5,a5,4
    1b0c:	b7e9                	j	1ad6 <tcp_parseopt+0x9c>

00001b0e <tcp_oos_insert_segment>:
    1b0e:	2001e317          	auipc	t1,0x2001e
    1b12:	508302e7          	jalr	t0,1288(t1) # 20020016 <__riscv_save_4>
    1b16:	491c                	lw	a5,16(a0)
    1b18:	84aa                	mv	s1,a0
    1b1a:	8a2e                	mv	s4,a1
    1b1c:	00c7c503          	lbu	a0,12(a5)
    1b20:	00d7c783          	lbu	a5,13(a5)
    1b24:	07a2                	slli	a5,a5,0x8
    1b26:	8d5d                	or	a0,a0,a5
    1b28:	20022097          	auipc	ra,0x20022
    1b2c:	b70080e7          	jalr	-1168(ra) # 20023698 <ntohs>
    1b30:	8905                	andi	a0,a0,1
    1b32:	e52d                	bnez	a0,1b9c <tcp_oos_insert_segment+0x8e>
    1b34:	6941                	lui	s2,0x10
    1b36:	1fffe997          	auipc	s3,0x1fffe
    1b3a:	61698993          	addi	s3,s3,1558 # 2000014c <seqno>
    1b3e:	fc090913          	addi	s2,s2,-64 # ffc0 <_ramcode_lma+0x7fc0>
    1b42:	010a2703          	lw	a4,16(s4)
    1b46:	0009a603          	lw	a2,0(s3)
    1b4a:	00c4d783          	lhu	a5,12(s1)
    1b4e:	00574683          	lbu	a3,5(a4)
    1b52:	00474583          	lbu	a1,4(a4)
    1b56:	97b2                	add	a5,a5,a2
    1b58:	06a2                	slli	a3,a3,0x8
    1b5a:	8dd5                	or	a1,a1,a3
    1b5c:	00674683          	lbu	a3,6(a4)
    1b60:	06c2                	slli	a3,a3,0x10
    1b62:	8ecd                	or	a3,a3,a1
    1b64:	00774583          	lbu	a1,7(a4)
    1b68:	05e2                	slli	a1,a1,0x18
    1b6a:	8dd5                	or	a1,a1,a3
    1b6c:	00ca5683          	lhu	a3,12(s4)
    1b70:	96ae                	add	a3,a3,a1
    1b72:	40d786b3          	sub	a3,a5,a3
    1b76:	0206d863          	bgez	a3,1ba6 <tcp_oos_insert_segment+0x98>
    1b7a:	8f8d                	sub	a5,a5,a1
    1b7c:	00f05a63          	blez	a5,1b90 <tcp_oos_insert_segment+0x82>
    1b80:	8d91                	sub	a1,a1,a2
    1b82:	05c2                	slli	a1,a1,0x10
    1b84:	40c8                	lw	a0,4(s1)
    1b86:	81c1                	srli	a1,a1,0x10
    1b88:	00b49623          	sh	a1,12(s1)
    1b8c:	638050ef          	jal	ra,71c4 <pbuf_realloc>
    1b90:	0144a023          	sw	s4,0(s1)
    1b94:	2001e317          	auipc	t1,0x2001e
    1b98:	4b630067          	jr	1206(t1) # 2002004a <__riscv_restore_4>
    1b9c:	8552                	mv	a0,s4
    1b9e:	e27fe0ef          	jal	ra,9c4 <tcp_segs_free>
    1ba2:	4a01                	li	s4,0
    1ba4:	b7f5                	j	1b90 <tcp_oos_insert_segment+0x82>
    1ba6:	00d74783          	lbu	a5,13(a4)
    1baa:	00c74503          	lbu	a0,12(a4)
    1bae:	07a2                	slli	a5,a5,0x8
    1bb0:	8d5d                	or	a0,a0,a5
    1bb2:	20022097          	auipc	ra,0x20022
    1bb6:	ae6080e7          	jalr	-1306(ra) # 20023698 <ntohs>
    1bba:	8905                	andi	a0,a0,1
    1bbc:	c931                	beqz	a0,1c10 <tcp_oos_insert_segment+0x102>
    1bbe:	489c                	lw	a5,16(s1)
    1bc0:	00d7c403          	lbu	s0,13(a5)
    1bc4:	00c7c503          	lbu	a0,12(a5)
    1bc8:	0422                	slli	s0,s0,0x8
    1bca:	8c49                	or	s0,s0,a0
    1bcc:	854a                	mv	a0,s2
    1bce:	20022097          	auipc	ra,0x20022
    1bd2:	abc080e7          	jalr	-1348(ra) # 2002368a <htons>
    1bd6:	489c                	lw	a5,16(s1)
    1bd8:	8c69                	and	s0,s0,a0
    1bda:	00c7c503          	lbu	a0,12(a5)
    1bde:	00d7c783          	lbu	a5,13(a5)
    1be2:	07a2                	slli	a5,a5,0x8
    1be4:	8d5d                	or	a0,a0,a5
    1be6:	20022097          	auipc	ra,0x20022
    1bea:	ab2080e7          	jalr	-1358(ra) # 20023698 <ntohs>
    1bee:	03e57513          	andi	a0,a0,62
    1bf2:	00156513          	ori	a0,a0,1
    1bf6:	20022097          	auipc	ra,0x20022
    1bfa:	a94080e7          	jalr	-1388(ra) # 2002368a <htons>
    1bfe:	489c                	lw	a5,16(s1)
    1c00:	8d41                	or	a0,a0,s0
    1c02:	0542                	slli	a0,a0,0x10
    1c04:	8141                	srli	a0,a0,0x10
    1c06:	00a78623          	sb	a0,12(a5)
    1c0a:	8121                	srli	a0,a0,0x8
    1c0c:	00a786a3          	sb	a0,13(a5)
    1c10:	000a2403          	lw	s0,0(s4)
    1c14:	8552                	mv	a0,s4
    1c16:	d7dfe0ef          	jal	ra,992 <tcp_seg_free>
    1c1a:	d441                	beqz	s0,1ba2 <tcp_oos_insert_segment+0x94>
    1c1c:	8a22                	mv	s4,s0
    1c1e:	b715                	j	1b42 <tcp_oos_insert_segment+0x34>

00001c20 <tcp_receive>:
    1c20:	2001e317          	auipc	t1,0x2001e
    1c24:	3f6302e7          	jalr	t0,1014(t1) # 20020016 <__riscv_save_4>
    1c28:	1fffe797          	auipc	a5,0x1fffe
    1c2c:	5147c783          	lbu	a5,1300(a5) # 2000013c <flags>
    1c30:	8bc1                	andi	a5,a5,16
    1c32:	842a                	mv	s0,a0
    1c34:	1fffe497          	auipc	s1,0x1fffe
    1c38:	51848493          	addi	s1,s1,1304 # 2000014c <seqno>
    1c3c:	1e078963          	beqz	a5,1e2e <tcp_receive+0x20e>
    1c40:	05554683          	lbu	a3,85(a0)
    1c44:	05454783          	lbu	a5,84(a0)
    1c48:	05a54603          	lbu	a2,90(a0)
    1c4c:	06a2                	slli	a3,a3,0x8
    1c4e:	8edd                	or	a3,a3,a5
    1c50:	05b54783          	lbu	a5,91(a0)
    1c54:	05654583          	lbu	a1,86(a0)
    1c58:	4098                	lw	a4,0(s1)
    1c5a:	07a2                	slli	a5,a5,0x8
    1c5c:	8fd1                	or	a5,a5,a2
    1c5e:	05c54603          	lbu	a2,92(a0)
    1c62:	1fffe917          	auipc	s2,0x1fffe
    1c66:	4d690913          	addi	s2,s2,1238 # 20000138 <ackno>
    1c6a:	0642                	slli	a2,a2,0x10
    1c6c:	8fd1                	or	a5,a5,a2
    1c6e:	05d54603          	lbu	a2,93(a0)
    1c72:	0662                	slli	a2,a2,0x18
    1c74:	8e5d                	or	a2,a2,a5
    1c76:	05754783          	lbu	a5,87(a0)
    1c7a:	07a2                	slli	a5,a5,0x8
    1c7c:	8fcd                	or	a5,a5,a1
    1c7e:	05854583          	lbu	a1,88(a0)
    1c82:	05c2                	slli	a1,a1,0x10
    1c84:	8fcd                	or	a5,a5,a1
    1c86:	05954583          	lbu	a1,89(a0)
    1c8a:	05e2                	slli	a1,a1,0x18
    1c8c:	8ddd                	or	a1,a1,a5
    1c8e:	40e58533          	sub	a0,a1,a4
    1c92:	00092783          	lw	a5,0(s2)
    1c96:	02054863          	bltz	a0,1cc6 <tcp_receive+0xa6>
    1c9a:	00e59663          	bne	a1,a4,1ca6 <tcp_receive+0x86>
    1c9e:	40f605b3          	sub	a1,a2,a5
    1ca2:	0205c263          	bltz	a1,1cc6 <tcp_receive+0xa6>
    1ca6:	08f61363          	bne	a2,a5,1d2c <tcp_receive+0x10c>
    1caa:	1fffe597          	auipc	a1,0x1fffe
    1cae:	4a658593          	addi	a1,a1,1190 # 20000150 <tcphdr>
    1cb2:	4188                	lw	a0,0(a1)
    1cb4:	00f54583          	lbu	a1,15(a0)
    1cb8:	00e54803          	lbu	a6,14(a0)
    1cbc:	05a2                	slli	a1,a1,0x8
    1cbe:	0105e5b3          	or	a1,a1,a6
    1cc2:	06b6f563          	bgeu	a3,a1,1d2c <tcp_receive+0x10c>
    1cc6:	1fffe597          	auipc	a1,0x1fffe
    1cca:	48a58593          	addi	a1,a1,1162 # 20000150 <tcphdr>
    1cce:	4188                	lw	a0,0(a1)
    1cd0:	00f54583          	lbu	a1,15(a0)
    1cd4:	00e54803          	lbu	a6,14(a0)
    1cd8:	04e40b23          	sb	a4,86(s0)
    1cdc:	05a2                	slli	a1,a1,0x8
    1cde:	0105e5b3          	or	a1,a1,a6
    1ce2:	0085d513          	srli	a0,a1,0x8
    1ce6:	04a40aa3          	sb	a0,85(s0)
    1cea:	00875513          	srli	a0,a4,0x8
    1cee:	04a40ba3          	sb	a0,87(s0)
    1cf2:	01075513          	srli	a0,a4,0x10
    1cf6:	8361                	srli	a4,a4,0x18
    1cf8:	04e40ca3          	sb	a4,89(s0)
    1cfc:	0087d713          	srli	a4,a5,0x8
    1d00:	04e40da3          	sb	a4,91(s0)
    1d04:	0107d713          	srli	a4,a5,0x10
    1d08:	04e40e23          	sb	a4,92(s0)
    1d0c:	0187d713          	srli	a4,a5,0x18
    1d10:	04b40a23          	sb	a1,84(s0)
    1d14:	04a40c23          	sb	a0,88(s0)
    1d18:	04f40d23          	sb	a5,90(s0)
    1d1c:	04e40ea3          	sb	a4,93(s0)
    1d20:	c591                	beqz	a1,1d2c <tcp_receive+0x10c>
    1d22:	09444703          	lbu	a4,148(s0)
    1d26:	c319                	beqz	a4,1d2c <tcp_receive+0x10c>
    1d28:	08040a23          	sb	zero,148(s0)
    1d2c:	04844703          	lbu	a4,72(s0)
    1d30:	04744583          	lbu	a1,71(s0)
    1d34:	0722                	slli	a4,a4,0x8
    1d36:	8f4d                	or	a4,a4,a1
    1d38:	04944583          	lbu	a1,73(s0)
    1d3c:	05c2                	slli	a1,a1,0x10
    1d3e:	8f4d                	or	a4,a4,a1
    1d40:	04a44583          	lbu	a1,74(s0)
    1d44:	05e2                	slli	a1,a1,0x18
    1d46:	8dd9                	or	a1,a1,a4
    1d48:	40b78733          	sub	a4,a5,a1
    1d4c:	4ee04963          	bgtz	a4,223e <tcp_receive+0x61e>
    1d50:	06040123          	sb	zero,98(s0)
    1d54:	060401a3          	sb	zero,99(s0)
    1d58:	1fffe717          	auipc	a4,0x1fffe
    1d5c:	3fc75703          	lhu	a4,1020(a4) # 20000154 <tcplen>
    1d60:	4c071c63          	bnez	a4,2238 <tcp_receive+0x618>
    1d64:	05b44503          	lbu	a0,91(s0)
    1d68:	05a44703          	lbu	a4,90(s0)
    1d6c:	05444803          	lbu	a6,84(s0)
    1d70:	0522                	slli	a0,a0,0x8
    1d72:	8d59                	or	a0,a0,a4
    1d74:	05c44703          	lbu	a4,92(s0)
    1d78:	96b2                	add	a3,a3,a2
    1d7a:	0742                	slli	a4,a4,0x10
    1d7c:	8d59                	or	a0,a0,a4
    1d7e:	05d44703          	lbu	a4,93(s0)
    1d82:	0762                	slli	a4,a4,0x18
    1d84:	8f49                	or	a4,a4,a0
    1d86:	05544503          	lbu	a0,85(s0)
    1d8a:	0522                	slli	a0,a0,0x8
    1d8c:	01056533          	or	a0,a0,a6
    1d90:	972a                	add	a4,a4,a0
    1d92:	4ad71363          	bne	a4,a3,2238 <tcp_receive+0x618>
    1d96:	03544703          	lbu	a4,53(s0)
    1d9a:	03444683          	lbu	a3,52(s0)
    1d9e:	0722                	slli	a4,a4,0x8
    1da0:	8f55                	or	a4,a4,a3
    1da2:	0742                	slli	a4,a4,0x10
    1da4:	8741                	srai	a4,a4,0x10
    1da6:	48074963          	bltz	a4,2238 <tcp_receive+0x618>
    1daa:	48f59763          	bne	a1,a5,2238 <tcp_receive+0x618>
    1dae:	04b44783          	lbu	a5,75(s0)
    1db2:	470d                	li	a4,3
    1db4:	0785                	addi	a5,a5,1
    1db6:	0ff7f793          	andi	a5,a5,255
    1dba:	04f405a3          	sb	a5,75(s0)
    1dbe:	46f77763          	bgeu	a4,a5,222c <tcp_receive+0x60c>
    1dc2:	04d44703          	lbu	a4,77(s0)
    1dc6:	04c44783          	lbu	a5,76(s0)
    1dca:	03644683          	lbu	a3,54(s0)
    1dce:	0722                	slli	a4,a4,0x8
    1dd0:	8f5d                	or	a4,a4,a5
    1dd2:	03744783          	lbu	a5,55(s0)
    1dd6:	07a2                	slli	a5,a5,0x8
    1dd8:	8fd5                	or	a5,a5,a3
    1dda:	97ba                	add	a5,a5,a4
    1ddc:	07c2                	slli	a5,a5,0x10
    1dde:	83c1                	srli	a5,a5,0x10
    1de0:	00f77763          	bgeu	a4,a5,1dee <tcp_receive+0x1ce>
    1de4:	04f40623          	sb	a5,76(s0)
    1de8:	83a1                	srli	a5,a5,0x8
    1dea:	04f406a3          	sb	a5,77(s0)
    1dee:	06944703          	lbu	a4,105(s0)
    1df2:	06844783          	lbu	a5,104(s0)
    1df6:	0722                	slli	a4,a4,0x8
    1df8:	8f5d                	or	a4,a4,a5
    1dfa:	06a44783          	lbu	a5,106(s0)
    1dfe:	07c2                	slli	a5,a5,0x10
    1e00:	8f5d                	or	a4,a4,a5
    1e02:	06b44783          	lbu	a5,107(s0)
    1e06:	07e2                	slli	a5,a5,0x18
    1e08:	8fd9                	or	a5,a5,a4
    1e0a:	6e079763          	bnez	a5,24f8 <tcp_receive+0x8d8>
    1e0e:	03944783          	lbu	a5,57(s0)
    1e12:	03844603          	lbu	a2,56(s0)
    1e16:	07a2                	slli	a5,a5,0x8
    1e18:	8fd1                	or	a5,a5,a2
    1e1a:	03a44603          	lbu	a2,58(s0)
    1e1e:	0642                	slli	a2,a2,0x10
    1e20:	8fd1                	or	a5,a5,a2
    1e22:	03b44603          	lbu	a2,59(s0)
    1e26:	0662                	slli	a2,a2,0x18
    1e28:	8e5d                	or	a2,a2,a5
    1e2a:	020611e3          	bnez	a2,264c <tcp_receive+0xa2c>
    1e2e:	02344603          	lbu	a2,35(s0)
    1e32:	02244703          	lbu	a4,34(s0)
    1e36:	1fffe517          	auipc	a0,0x1fffe
    1e3a:	31e55503          	lhu	a0,798(a0) # 20000154 <tcplen>
    1e3e:	0622                	slli	a2,a2,0x8
    1e40:	8e59                	or	a2,a2,a4
    1e42:	02444703          	lbu	a4,36(s0)
    1e46:	409c                	lw	a5,0(s1)
    1e48:	0742                	slli	a4,a4,0x10
    1e4a:	8e59                	or	a2,a2,a4
    1e4c:	02544703          	lbu	a4,37(s0)
    1e50:	0762                	slli	a4,a4,0x18
    1e52:	8f51                	or	a4,a4,a2
    1e54:	6c050be3          	beqz	a0,2d2a <tcp_receive+0x110a>
    1e58:	40f705b3          	sub	a1,a4,a5
    1e5c:	fff58693          	addi	a3,a1,-1
    1e60:	1006c2e3          	bltz	a3,2764 <tcp_receive+0xb44>
    1e64:	4685                	li	a3,1
    1e66:	8e9d                	sub	a3,a3,a5
    1e68:	8e89                	sub	a3,a3,a0
    1e6a:	96ba                	add	a3,a3,a4
    1e6c:	0ed04ce3          	bgtz	a3,2764 <tcp_receive+0xb44>
    1e70:	1fffe997          	auipc	s3,0x1fffe
    1e74:	31498993          	addi	s3,s3,788 # 20000184 <inseg>
    1e78:	0049a903          	lw	s2,4(s3)
    1e7c:	01059693          	slli	a3,a1,0x10
    1e80:	82c1                	srli	a3,a3,0x10
    1e82:	00b94703          	lbu	a4,11(s2)
    1e86:	00a94783          	lbu	a5,10(s2)
    1e8a:	0722                	slli	a4,a4,0x8
    1e8c:	8f5d                	or	a4,a4,a5
    1e8e:	0cb755e3          	bge	a4,a1,2758 <tcp_receive+0xb38>
    1e92:	00994783          	lbu	a5,9(s2)
    1e96:	00894703          	lbu	a4,8(s2)
    1e9a:	07a2                	slli	a5,a5,0x8
    1e9c:	8fd9                	or	a5,a5,a4
    1e9e:	8f95                	sub	a5,a5,a3
    1ea0:	07c2                	slli	a5,a5,0x10
    1ea2:	83c1                	srli	a5,a5,0x10
    1ea4:	0ff7f613          	andi	a2,a5,255
    1ea8:	83a1                	srli	a5,a5,0x8
    1eaa:	00b94703          	lbu	a4,11(s2)
    1eae:	00a94683          	lbu	a3,10(s2)
    1eb2:	0722                	slli	a4,a4,0x8
    1eb4:	8f55                	or	a4,a4,a3
    1eb6:	06b747e3          	blt	a4,a1,2724 <tcp_receive+0xb04>
    1eba:	40b005b3          	neg	a1,a1
    1ebe:	05c2                	slli	a1,a1,0x10
    1ec0:	85c1                	srai	a1,a1,0x10
    1ec2:	854a                	mv	a0,s2
    1ec4:	725040ef          	jal	ra,6de8 <pbuf_header>
    1ec8:	00594703          	lbu	a4,5(s2)
    1ecc:	00494783          	lbu	a5,4(s2)
    1ed0:	00c9d683          	lhu	a3,12(s3)
    1ed4:	0722                	slli	a4,a4,0x8
    1ed6:	8f5d                	or	a4,a4,a5
    1ed8:	00694783          	lbu	a5,6(s2)
    1edc:	07c2                	slli	a5,a5,0x10
    1ede:	8f5d                	or	a4,a4,a5
    1ee0:	00794783          	lbu	a5,7(s2)
    1ee4:	07e2                	slli	a5,a5,0x18
    1ee6:	8fd9                	or	a5,a5,a4
    1ee8:	1fffe717          	auipc	a4,0x1fffe
    1eec:	2af72223          	sw	a5,676(a4) # 2000018c <inseg+0x8>
    1ef0:	02344703          	lbu	a4,35(s0)
    1ef4:	02244783          	lbu	a5,34(s0)
    1ef8:	0722                	slli	a4,a4,0x8
    1efa:	8f5d                	or	a4,a4,a5
    1efc:	02444783          	lbu	a5,36(s0)
    1f00:	07c2                	slli	a5,a5,0x10
    1f02:	8f5d                	or	a4,a4,a5
    1f04:	02544783          	lbu	a5,37(s0)
    1f08:	07e2                	slli	a5,a5,0x18
    1f0a:	8fd9                	or	a5,a5,a4
    1f0c:	4098                	lw	a4,0(s1)
    1f0e:	9736                	add	a4,a4,a3
    1f10:	8f1d                	sub	a4,a4,a5
    1f12:	1fffe697          	auipc	a3,0x1fffe
    1f16:	26e69f23          	sh	a4,638(a3) # 20000190 <inseg+0xc>
    1f1a:	1fffe717          	auipc	a4,0x1fffe
    1f1e:	22f72923          	sw	a5,562(a4) # 2000014c <seqno>
    1f22:	0109a703          	lw	a4,16(s3)
    1f26:	0087d693          	srli	a3,a5,0x8
    1f2a:	00f70223          	sb	a5,4(a4)
    1f2e:	00d702a3          	sb	a3,5(a4)
    1f32:	0107d693          	srli	a3,a5,0x10
    1f36:	83e1                	srli	a5,a5,0x18
    1f38:	00d70323          	sb	a3,6(a4)
    1f3c:	00f703a3          	sb	a5,7(a4)
    1f40:	02344703          	lbu	a4,35(s0)
    1f44:	02244783          	lbu	a5,34(s0)
    1f48:	4090                	lw	a2,0(s1)
    1f4a:	0722                	slli	a4,a4,0x8
    1f4c:	8f5d                	or	a4,a4,a5
    1f4e:	02444783          	lbu	a5,36(s0)
    1f52:	07c2                	slli	a5,a5,0x10
    1f54:	8f5d                	or	a4,a4,a5
    1f56:	02544783          	lbu	a5,37(s0)
    1f5a:	07e2                	slli	a5,a5,0x18
    1f5c:	8fd9                	or	a5,a5,a4
    1f5e:	40f60733          	sub	a4,a2,a5
    1f62:	5c0740e3          	bltz	a4,2d22 <tcp_receive+0x1102>
    1f66:	02744683          	lbu	a3,39(s0)
    1f6a:	02644583          	lbu	a1,38(s0)
    1f6e:	00160713          	addi	a4,a2,1
    1f72:	06a2                	slli	a3,a3,0x8
    1f74:	8f1d                	sub	a4,a4,a5
    1f76:	8ecd                	or	a3,a3,a1
    1f78:	8f15                	sub	a4,a4,a3
    1f7a:	5ae044e3          	bgtz	a4,2d22 <tcp_receive+0x1102>
    1f7e:	38f617e3          	bne	a2,a5,2b0c <tcp_receive+0xeec>
    1f82:	1fffe917          	auipc	s2,0x1fffe
    1f86:	20290913          	addi	s2,s2,514 # 20000184 <inseg>
    1f8a:	01092783          	lw	a5,16(s2)
    1f8e:	1fffe997          	auipc	s3,0x1fffe
    1f92:	2029d983          	lhu	s3,514(s3) # 20000190 <inseg+0xc>
    1f96:	00c7c503          	lbu	a0,12(a5)
    1f9a:	00d7c783          	lbu	a5,13(a5)
    1f9e:	07a2                	slli	a5,a5,0x8
    1fa0:	8d5d                	or	a0,a0,a5
    1fa2:	20021097          	auipc	ra,0x20021
    1fa6:	6f6080e7          	jalr	1782(ra) # 20023698 <ntohs>
    1faa:	890d                	andi	a0,a0,3
    1fac:	00a03533          	snez	a0,a0
    1fb0:	954e                	add	a0,a0,s3
    1fb2:	0542                	slli	a0,a0,0x10
    1fb4:	8141                	srli	a0,a0,0x10
    1fb6:	1fffe797          	auipc	a5,0x1fffe
    1fba:	18a79f23          	sh	a0,414(a5) # 20000154 <tcplen>
    1fbe:	02744783          	lbu	a5,39(s0)
    1fc2:	02644703          	lbu	a4,38(s0)
    1fc6:	07a2                	slli	a5,a5,0x8
    1fc8:	8fd9                	or	a5,a5,a4
    1fca:	0ea7fe63          	bgeu	a5,a0,20c6 <tcp_receive+0x4a6>
    1fce:	01092783          	lw	a5,16(s2)
    1fd2:	00c7c503          	lbu	a0,12(a5)
    1fd6:	00d7c783          	lbu	a5,13(a5)
    1fda:	07a2                	slli	a5,a5,0x8
    1fdc:	8d5d                	or	a0,a0,a5
    1fde:	20021097          	auipc	ra,0x20021
    1fe2:	6ba080e7          	jalr	1722(ra) # 20023698 <ntohs>
    1fe6:	8905                	andi	a0,a0,1
    1fe8:	c125                	beqz	a0,2048 <tcp_receive+0x428>
    1fea:	01092783          	lw	a5,16(s2)
    1fee:	00d7c983          	lbu	s3,13(a5)
    1ff2:	00c7c503          	lbu	a0,12(a5)
    1ff6:	09a2                	slli	s3,s3,0x8
    1ff8:	00a9e9b3          	or	s3,s3,a0
    1ffc:	6541                	lui	a0,0x10
    1ffe:	fc050513          	addi	a0,a0,-64 # ffc0 <_ramcode_lma+0x7fc0>
    2002:	20021097          	auipc	ra,0x20021
    2006:	688080e7          	jalr	1672(ra) # 2002368a <htons>
    200a:	01092783          	lw	a5,16(s2)
    200e:	00a9f9b3          	and	s3,s3,a0
    2012:	00c7c503          	lbu	a0,12(a5)
    2016:	00d7c783          	lbu	a5,13(a5)
    201a:	07a2                	slli	a5,a5,0x8
    201c:	8d5d                	or	a0,a0,a5
    201e:	20021097          	auipc	ra,0x20021
    2022:	67a080e7          	jalr	1658(ra) # 20023698 <ntohs>
    2026:	03e57513          	andi	a0,a0,62
    202a:	20021097          	auipc	ra,0x20021
    202e:	660080e7          	jalr	1632(ra) # 2002368a <htons>
    2032:	01092783          	lw	a5,16(s2)
    2036:	00a9e533          	or	a0,s3,a0
    203a:	0542                	slli	a0,a0,0x10
    203c:	8141                	srli	a0,a0,0x10
    203e:	00a78623          	sb	a0,12(a5)
    2042:	8121                	srli	a0,a0,0x8
    2044:	00a786a3          	sb	a0,13(a5)
    2048:	02744783          	lbu	a5,39(s0)
    204c:	02644703          	lbu	a4,38(s0)
    2050:	07a2                	slli	a5,a5,0x8
    2052:	8fd9                	or	a5,a5,a4
    2054:	1fffe717          	auipc	a4,0x1fffe
    2058:	12f71e23          	sh	a5,316(a4) # 20000190 <inseg+0xc>
    205c:	01092783          	lw	a5,16(s2)
    2060:	00c7c503          	lbu	a0,12(a5)
    2064:	00d7c783          	lbu	a5,13(a5)
    2068:	07a2                	slli	a5,a5,0x8
    206a:	8d5d                	or	a0,a0,a5
    206c:	20021097          	auipc	ra,0x20021
    2070:	62c080e7          	jalr	1580(ra) # 20023698 <ntohs>
    2074:	8909                	andi	a0,a0,2
    2076:	c901                	beqz	a0,2086 <tcp_receive+0x466>
    2078:	00c95783          	lhu	a5,12(s2)
    207c:	17fd                	addi	a5,a5,-1
    207e:	1fffe717          	auipc	a4,0x1fffe
    2082:	10f71923          	sh	a5,274(a4) # 20000190 <inseg+0xc>
    2086:	00492503          	lw	a0,4(s2)
    208a:	1fffe597          	auipc	a1,0x1fffe
    208e:	1065d583          	lhu	a1,262(a1) # 20000190 <inseg+0xc>
    2092:	132050ef          	jal	ra,71c4 <pbuf_realloc>
    2096:	01092783          	lw	a5,16(s2)
    209a:	1fffe997          	auipc	s3,0x1fffe
    209e:	0f69d983          	lhu	s3,246(s3) # 20000190 <inseg+0xc>
    20a2:	00c7c503          	lbu	a0,12(a5)
    20a6:	00d7c783          	lbu	a5,13(a5)
    20aa:	07a2                	slli	a5,a5,0x8
    20ac:	8d5d                	or	a0,a0,a5
    20ae:	20021097          	auipc	ra,0x20021
    20b2:	5ea080e7          	jalr	1514(ra) # 20023698 <ntohs>
    20b6:	890d                	andi	a0,a0,3
    20b8:	00a03533          	snez	a0,a0
    20bc:	99aa                	add	s3,s3,a0
    20be:	1fffe797          	auipc	a5,0x1fffe
    20c2:	09379b23          	sh	s3,150(a5) # 20000154 <tcplen>
    20c6:	07144703          	lbu	a4,113(s0)
    20ca:	07044783          	lbu	a5,112(s0)
    20ce:	0722                	slli	a4,a4,0x8
    20d0:	8f5d                	or	a4,a4,a5
    20d2:	07244783          	lbu	a5,114(s0)
    20d6:	07c2                	slli	a5,a5,0x10
    20d8:	8f5d                	or	a4,a4,a5
    20da:	07344783          	lbu	a5,115(s0)
    20de:	07e2                	slli	a5,a5,0x18
    20e0:	8fd9                	or	a5,a5,a4
    20e2:	6e078063          	beqz	a5,27c2 <tcp_receive+0xba2>
    20e6:	01092783          	lw	a5,16(s2)
    20ea:	00c7c503          	lbu	a0,12(a5)
    20ee:	00d7c783          	lbu	a5,13(a5)
    20f2:	07a2                	slli	a5,a5,0x8
    20f4:	8d5d                	or	a0,a0,a5
    20f6:	20021097          	auipc	ra,0x20021
    20fa:	5a2080e7          	jalr	1442(ra) # 20023698 <ntohs>
    20fe:	8905                	andi	a0,a0,1
    2100:	6a051263          	bnez	a0,27a4 <tcp_receive+0xb84>
    2104:	07144783          	lbu	a5,113(s0)
    2108:	07044983          	lbu	s3,112(s0)
    210c:	6ac1                	lui	s5,0x10
    210e:	07a2                	slli	a5,a5,0x8
    2110:	0137e7b3          	or	a5,a5,s3
    2114:	07244983          	lbu	s3,114(s0)
    2118:	fc0a8a93          	addi	s5,s5,-64 # ffc0 <_ramcode_lma+0x7fc0>
    211c:	09c2                	slli	s3,s3,0x10
    211e:	00f9e7b3          	or	a5,s3,a5
    2122:	07344983          	lbu	s3,115(s0)
    2126:	09e2                	slli	s3,s3,0x18
    2128:	00f9e9b3          	or	s3,s3,a5
    212c:	4088                	lw	a0,0(s1)
    212e:	1fffe717          	auipc	a4,0x1fffe
    2132:	02675703          	lhu	a4,38(a4) # 20000154 <tcplen>
    2136:	972a                	add	a4,a4,a0
    2138:	0c098b63          	beqz	s3,220e <tcp_receive+0x5ee>
    213c:	0109a603          	lw	a2,16(s3)
    2140:	00c9d583          	lhu	a1,12(s3)
    2144:	00564783          	lbu	a5,5(a2)
    2148:	00464683          	lbu	a3,4(a2)
    214c:	07a2                	slli	a5,a5,0x8
    214e:	8fd5                	or	a5,a5,a3
    2150:	00664683          	lbu	a3,6(a2)
    2154:	06c2                	slli	a3,a3,0x10
    2156:	8fd5                	or	a5,a5,a3
    2158:	00764683          	lbu	a3,7(a2)
    215c:	06e2                	slli	a3,a3,0x18
    215e:	8edd                	or	a3,a3,a5
    2160:	95b6                	add	a1,a1,a3
    2162:	40b705b3          	sub	a1,a4,a1
    2166:	7005d663          	bgez	a1,2872 <tcp_receive+0xc52>
    216a:	8f15                	sub	a4,a4,a3
    216c:	0ae05163          	blez	a4,220e <tcp_receive+0x5ee>
    2170:	07144683          	lbu	a3,113(s0)
    2174:	07044703          	lbu	a4,112(s0)
    2178:	06a2                	slli	a3,a3,0x8
    217a:	8ed9                	or	a3,a3,a4
    217c:	07244703          	lbu	a4,114(s0)
    2180:	0742                	slli	a4,a4,0x10
    2182:	8ed9                	or	a3,a3,a4
    2184:	07344703          	lbu	a4,115(s0)
    2188:	0762                	slli	a4,a4,0x18
    218a:	8f55                	or	a4,a4,a3
    218c:	4b18                	lw	a4,16(a4)
    218e:	00574783          	lbu	a5,5(a4)
    2192:	00474683          	lbu	a3,4(a4)
    2196:	07a2                	slli	a5,a5,0x8
    2198:	8fd5                	or	a5,a5,a3
    219a:	8f89                	sub	a5,a5,a0
    219c:	1fffe717          	auipc	a4,0x1fffe
    21a0:	fef71a23          	sh	a5,-12(a4) # 20000190 <inseg+0xc>
    21a4:	01092783          	lw	a5,16(s2)
    21a8:	00c7c503          	lbu	a0,12(a5)
    21ac:	00d7c783          	lbu	a5,13(a5)
    21b0:	07a2                	slli	a5,a5,0x8
    21b2:	8d5d                	or	a0,a0,a5
    21b4:	20021097          	auipc	ra,0x20021
    21b8:	4e4080e7          	jalr	1252(ra) # 20023698 <ntohs>
    21bc:	8909                	andi	a0,a0,2
    21be:	c901                	beqz	a0,21ce <tcp_receive+0x5ae>
    21c0:	00c95783          	lhu	a5,12(s2)
    21c4:	17fd                	addi	a5,a5,-1
    21c6:	1fffe717          	auipc	a4,0x1fffe
    21ca:	fcf71523          	sh	a5,-54(a4) # 20000190 <inseg+0xc>
    21ce:	00492503          	lw	a0,4(s2)
    21d2:	1fffe597          	auipc	a1,0x1fffe
    21d6:	fbe5d583          	lhu	a1,-66(a1) # 20000190 <inseg+0xc>
    21da:	7eb040ef          	jal	ra,71c4 <pbuf_realloc>
    21de:	01092783          	lw	a5,16(s2)
    21e2:	1fffea17          	auipc	s4,0x1fffe
    21e6:	faea5a03          	lhu	s4,-82(s4) # 20000190 <inseg+0xc>
    21ea:	00c7c503          	lbu	a0,12(a5)
    21ee:	00d7c783          	lbu	a5,13(a5)
    21f2:	07a2                	slli	a5,a5,0x8
    21f4:	8d5d                	or	a0,a0,a5
    21f6:	20021097          	auipc	ra,0x20021
    21fa:	4a2080e7          	jalr	1186(ra) # 20023698 <ntohs>
    21fe:	890d                	andi	a0,a0,3
    2200:	00a03533          	snez	a0,a0
    2204:	9a2a                	add	s4,s4,a0
    2206:	1fffe797          	auipc	a5,0x1fffe
    220a:	f5479723          	sh	s4,-178(a5) # 20000154 <tcplen>
    220e:	0089d793          	srli	a5,s3,0x8
    2212:	07340823          	sb	s3,112(s0)
    2216:	06f408a3          	sb	a5,113(s0)
    221a:	0109d793          	srli	a5,s3,0x10
    221e:	0189d993          	srli	s3,s3,0x18
    2222:	06f40923          	sb	a5,114(s0)
    2226:	073409a3          	sb	s3,115(s0)
    222a:	ab61                	j	27c2 <tcp_receive+0xba2>
    222c:	bce791e3          	bne	a5,a4,1dee <tcp_receive+0x1ce>
    2230:	8522                	mv	a0,s0
    2232:	298030ef          	jal	ra,54ca <tcp_rexmit_fast>
    2236:	be65                	j	1dee <tcp_receive+0x1ce>
    2238:	040405a3          	sb	zero,75(s0)
    223c:	be4d                	j	1dee <tcp_receive+0x1ce>
    223e:	05144603          	lbu	a2,81(s0)
    2242:	05044683          	lbu	a3,80(s0)
    2246:	0622                	slli	a2,a2,0x8
    2248:	8e55                	or	a2,a2,a3
    224a:	05244683          	lbu	a3,82(s0)
    224e:	06c2                	slli	a3,a3,0x10
    2250:	8e55                	or	a2,a2,a3
    2252:	05344683          	lbu	a3,83(s0)
    2256:	06e2                	slli	a3,a3,0x18
    2258:	8ed1                	or	a3,a3,a2
    225a:	40d786b3          	sub	a3,a5,a3
    225e:	28d04863          	bgtz	a3,24ee <tcp_receive+0x8ce>
    2262:	02144683          	lbu	a3,33(s0)
    2266:	0046f613          	andi	a2,a3,4
    226a:	ce19                	beqz	a2,2288 <tcp_receive+0x668>
    226c:	9aed                	andi	a3,a3,-5
    226e:	02d400a3          	sb	a3,33(s0)
    2272:	04f44683          	lbu	a3,79(s0)
    2276:	04e44603          	lbu	a2,78(s0)
    227a:	06a2                	slli	a3,a3,0x8
    227c:	8ed1                	or	a3,a3,a2
    227e:	04d40623          	sb	a3,76(s0)
    2282:	82a1                	srli	a3,a3,0x8
    2284:	04d406a3          	sb	a3,77(s0)
    2288:	04144683          	lbu	a3,65(s0)
    228c:	04044603          	lbu	a2,64(s0)
    2290:	04244583          	lbu	a1,66(s0)
    2294:	06a2                	slli	a3,a3,0x8
    2296:	8ed1                	or	a3,a3,a2
    2298:	06c2                	slli	a3,a3,0x10
    229a:	86c1                	srai	a3,a3,0x10
    229c:	4036d613          	srai	a2,a3,0x3
    22a0:	04344683          	lbu	a3,67(s0)
    22a4:	0742                	slli	a4,a4,0x10
    22a6:	8341                	srli	a4,a4,0x10
    22a8:	06a2                	slli	a3,a3,0x8
    22aa:	8ecd                	or	a3,a3,a1
    22ac:	96b2                	add	a3,a3,a2
    22ae:	06c2                	slli	a3,a3,0x10
    22b0:	82c1                	srli	a3,a3,0x10
    22b2:	04d40223          	sb	a3,68(s0)
    22b6:	82a1                	srli	a3,a3,0x8
    22b8:	04d402a3          	sb	a3,69(s0)
    22bc:	00875693          	srli	a3,a4,0x8
    22c0:	06d401a3          	sb	a3,99(s0)
    22c4:	06544683          	lbu	a3,101(s0)
    22c8:	06444603          	lbu	a2,100(s0)
    22cc:	06e40123          	sb	a4,98(s0)
    22d0:	06a2                	slli	a3,a3,0x8
    22d2:	8ed1                	or	a3,a3,a2
    22d4:	9736                	add	a4,a4,a3
    22d6:	0742                	slli	a4,a4,0x10
    22d8:	8341                	srli	a4,a4,0x10
    22da:	06e40223          	sb	a4,100(s0)
    22de:	8321                	srli	a4,a4,0x8
    22e0:	06e402a3          	sb	a4,101(s0)
    22e4:	0087d713          	srli	a4,a5,0x8
    22e8:	04e40423          	sb	a4,72(s0)
    22ec:	0107d713          	srli	a4,a5,0x10
    22f0:	04f403a3          	sb	a5,71(s0)
    22f4:	04e404a3          	sb	a4,73(s0)
    22f8:	83e1                	srli	a5,a5,0x18
    22fa:	01144703          	lbu	a4,17(s0)
    22fe:	04f40523          	sb	a5,74(s0)
    2302:	01044783          	lbu	a5,16(s0)
    2306:	0722                	slli	a4,a4,0x8
    2308:	04040323          	sb	zero,70(s0)
    230c:	8f5d                	or	a4,a4,a5
    230e:	01244783          	lbu	a5,18(s0)
    2312:	040405a3          	sb	zero,75(s0)
    2316:	07c2                	slli	a5,a5,0x10
    2318:	8f5d                	or	a4,a4,a5
    231a:	01344783          	lbu	a5,19(s0)
    231e:	07e2                	slli	a5,a5,0x18
    2320:	8fd9                	or	a5,a5,a4
    2322:	470d                	li	a4,3
    2324:	04f77063          	bgeu	a4,a5,2364 <tcp_receive+0x744>
    2328:	04d44703          	lbu	a4,77(s0)
    232c:	04c44783          	lbu	a5,76(s0)
    2330:	03644683          	lbu	a3,54(s0)
    2334:	0722                	slli	a4,a4,0x8
    2336:	8f5d                	or	a4,a4,a5
    2338:	03744783          	lbu	a5,55(s0)
    233c:	04e44603          	lbu	a2,78(s0)
    2340:	07a2                	slli	a5,a5,0x8
    2342:	8fd5                	or	a5,a5,a3
    2344:	04f44683          	lbu	a3,79(s0)
    2348:	06a2                	slli	a3,a3,0x8
    234a:	8ed1                	or	a3,a3,a2
    234c:	06d77763          	bgeu	a4,a3,23ba <tcp_receive+0x79a>
    2350:	97ba                	add	a5,a5,a4
    2352:	07c2                	slli	a5,a5,0x10
    2354:	83c1                	srli	a5,a5,0x10
    2356:	00f77763          	bgeu	a4,a5,2364 <tcp_receive+0x744>
    235a:	04f40623          	sb	a5,76(s0)
    235e:	83a1                	srli	a5,a5,0x8
    2360:	04f406a3          	sb	a5,77(s0)
    2364:	06d44703          	lbu	a4,109(s0)
    2368:	06c44783          	lbu	a5,108(s0)
    236c:	0722                	slli	a4,a4,0x8
    236e:	8f5d                	or	a4,a4,a5
    2370:	06e44783          	lbu	a5,110(s0)
    2374:	07c2                	slli	a5,a5,0x10
    2376:	8f5d                	or	a4,a4,a5
    2378:	06f44783          	lbu	a5,111(s0)
    237c:	07e2                	slli	a5,a5,0x18
    237e:	8fd9                	or	a5,a5,a4
    2380:	e3b1                	bnez	a5,23c4 <tcp_receive+0x7a4>
    2382:	06d44703          	lbu	a4,109(s0)
    2386:	06c44783          	lbu	a5,108(s0)
    238a:	02040923          	sb	zero,50(s0)
    238e:	0722                	slli	a4,a4,0x8
    2390:	8f5d                	or	a4,a4,a5
    2392:	06e44783          	lbu	a5,110(s0)
    2396:	07c2                	slli	a5,a5,0x10
    2398:	8f5d                	or	a4,a4,a5
    239a:	06f44783          	lbu	a5,111(s0)
    239e:	07e2                	slli	a5,a5,0x18
    23a0:	8fd9                	or	a5,a5,a4
    23a2:	0017b793          	seqz	a5,a5
    23a6:	40f007b3          	neg	a5,a5
    23aa:	07c2                	slli	a5,a5,0x10
    23ac:	83c1                	srli	a5,a5,0x10
    23ae:	02f40a23          	sb	a5,52(s0)
    23b2:	83a1                	srli	a5,a5,0x8
    23b4:	02f40aa3          	sb	a5,53(s0)
    23b8:	bc1d                	j	1dee <tcp_receive+0x1ce>
    23ba:	02f787b3          	mul	a5,a5,a5
    23be:	02e7c7b3          	div	a5,a5,a4
    23c2:	b779                	j	2350 <tcp_receive+0x730>
    23c4:	4b98                	lw	a4,16(a5)
    23c6:	00574503          	lbu	a0,5(a4)
    23ca:	00474783          	lbu	a5,4(a4)
    23ce:	0522                	slli	a0,a0,0x8
    23d0:	8d5d                	or	a0,a0,a5
    23d2:	00674783          	lbu	a5,6(a4)
    23d6:	07c2                	slli	a5,a5,0x10
    23d8:	8fc9                	or	a5,a5,a0
    23da:	00774503          	lbu	a0,7(a4)
    23de:	0562                	slli	a0,a0,0x18
    23e0:	8d5d                	or	a0,a0,a5
    23e2:	20021097          	auipc	ra,0x20021
    23e6:	2e8080e7          	jalr	744(ra) # 200236ca <ntohl>
    23ea:	06d44703          	lbu	a4,109(s0)
    23ee:	06c44783          	lbu	a5,108(s0)
    23f2:	89aa                	mv	s3,a0
    23f4:	0722                	slli	a4,a4,0x8
    23f6:	8f5d                	or	a4,a4,a5
    23f8:	06e44783          	lbu	a5,110(s0)
    23fc:	07c2                	slli	a5,a5,0x10
    23fe:	8f5d                	or	a4,a4,a5
    2400:	06f44783          	lbu	a5,111(s0)
    2404:	07e2                	slli	a5,a5,0x18
    2406:	8fd9                	or	a5,a5,a4
    2408:	00c7da03          	lhu	s4,12(a5)
    240c:	4b9c                	lw	a5,16(a5)
    240e:	00c7c503          	lbu	a0,12(a5)
    2412:	00d7c783          	lbu	a5,13(a5)
    2416:	07a2                	slli	a5,a5,0x8
    2418:	8d5d                	or	a0,a0,a5
    241a:	20021097          	auipc	ra,0x20021
    241e:	27e080e7          	jalr	638(ra) # 20023698 <ntohs>
    2422:	00092783          	lw	a5,0(s2)
    2426:	890d                	andi	a0,a0,3
    2428:	00a03533          	snez	a0,a0
    242c:	9552                	add	a0,a0,s4
    242e:	40f989b3          	sub	s3,s3,a5
    2432:	954e                	add	a0,a0,s3
    2434:	f4a047e3          	bgtz	a0,2382 <tcp_receive+0x762>
    2438:	06d44783          	lbu	a5,109(s0)
    243c:	06c44983          	lbu	s3,108(s0)
    2440:	06244703          	lbu	a4,98(s0)
    2444:	07a2                	slli	a5,a5,0x8
    2446:	0137e7b3          	or	a5,a5,s3
    244a:	06e44983          	lbu	s3,110(s0)
    244e:	09c2                	slli	s3,s3,0x10
    2450:	00f9e7b3          	or	a5,s3,a5
    2454:	06f44983          	lbu	s3,111(s0)
    2458:	09e2                	slli	s3,s3,0x18
    245a:	00f9e9b3          	or	s3,s3,a5
    245e:	0009c783          	lbu	a5,0(s3)
    2462:	06f40623          	sb	a5,108(s0)
    2466:	0019c783          	lbu	a5,1(s3)
    246a:	06f406a3          	sb	a5,109(s0)
    246e:	0029c783          	lbu	a5,2(s3)
    2472:	06f40723          	sb	a5,110(s0)
    2476:	0039c783          	lbu	a5,3(s3)
    247a:	06f407a3          	sb	a5,111(s0)
    247e:	06344783          	lbu	a5,99(s0)
    2482:	07a2                	slli	a5,a5,0x8
    2484:	8fd9                	or	a5,a5,a4
    2486:	cf8d                	beqz	a5,24c0 <tcp_receive+0x8a0>
    2488:	0109a783          	lw	a5,16(s3)
    248c:	00c7c503          	lbu	a0,12(a5)
    2490:	00d7c783          	lbu	a5,13(a5)
    2494:	07a2                	slli	a5,a5,0x8
    2496:	8d5d                	or	a0,a0,a5
    2498:	20021097          	auipc	ra,0x20021
    249c:	200080e7          	jalr	512(ra) # 20023698 <ntohs>
    24a0:	8905                	andi	a0,a0,1
    24a2:	cd19                	beqz	a0,24c0 <tcp_receive+0x8a0>
    24a4:	06344783          	lbu	a5,99(s0)
    24a8:	06244703          	lbu	a4,98(s0)
    24ac:	07a2                	slli	a5,a5,0x8
    24ae:	8fd9                	or	a5,a5,a4
    24b0:	17fd                	addi	a5,a5,-1
    24b2:	07c2                	slli	a5,a5,0x10
    24b4:	83c1                	srli	a5,a5,0x10
    24b6:	06f40123          	sb	a5,98(s0)
    24ba:	83a1                	srli	a5,a5,0x8
    24bc:	06f401a3          	sb	a5,99(s0)
    24c0:	0049a503          	lw	a0,4(s3)
    24c4:	5f7040ef          	jal	ra,72ba <pbuf_clen>
    24c8:	06744783          	lbu	a5,103(s0)
    24cc:	06644703          	lbu	a4,102(s0)
    24d0:	07a2                	slli	a5,a5,0x8
    24d2:	8fd9                	or	a5,a5,a4
    24d4:	40a78533          	sub	a0,a5,a0
    24d8:	0542                	slli	a0,a0,0x10
    24da:	8141                	srli	a0,a0,0x10
    24dc:	06a40323          	sb	a0,102(s0)
    24e0:	8121                	srli	a0,a0,0x8
    24e2:	06a403a3          	sb	a0,103(s0)
    24e6:	854e                	mv	a0,s3
    24e8:	caafe0ef          	jal	ra,992 <tcp_seg_free>
    24ec:	bda5                	j	2364 <tcp_receive+0x744>
    24ee:	06040123          	sb	zero,98(s0)
    24f2:	060401a3          	sb	zero,99(s0)
    24f6:	b8e5                	j	1dee <tcp_receive+0x1ce>
    24f8:	4b94                	lw	a3,16(a5)
    24fa:	00092983          	lw	s3,0(s2)
    24fe:	0056c503          	lbu	a0,5(a3)
    2502:	0046c703          	lbu	a4,4(a3)
    2506:	0522                	slli	a0,a0,0x8
    2508:	8d59                	or	a0,a0,a4
    250a:	0066c703          	lbu	a4,6(a3)
    250e:	0742                	slli	a4,a4,0x10
    2510:	8f49                	or	a4,a4,a0
    2512:	0076c503          	lbu	a0,7(a3)
    2516:	0562                	slli	a0,a0,0x18
    2518:	8d59                	or	a0,a0,a4
    251a:	20021097          	auipc	ra,0x20021
    251e:	1b0080e7          	jalr	432(ra) # 200236ca <ntohl>
    2522:	06944703          	lbu	a4,105(s0)
    2526:	06844783          	lbu	a5,104(s0)
    252a:	8aaa                	mv	s5,a0
    252c:	0722                	slli	a4,a4,0x8
    252e:	8fd9                	or	a5,a5,a4
    2530:	06a44703          	lbu	a4,106(s0)
    2534:	0742                	slli	a4,a4,0x10
    2536:	8f5d                	or	a4,a4,a5
    2538:	06b44783          	lbu	a5,107(s0)
    253c:	07e2                	slli	a5,a5,0x18
    253e:	8fd9                	or	a5,a5,a4
    2540:	4b98                	lw	a4,16(a5)
    2542:	00c7da03          	lhu	s4,12(a5)
    2546:	00c74503          	lbu	a0,12(a4)
    254a:	00d74703          	lbu	a4,13(a4)
    254e:	0722                	slli	a4,a4,0x8
    2550:	8d59                	or	a0,a0,a4
    2552:	20021097          	auipc	ra,0x20021
    2556:	146080e7          	jalr	326(ra) # 20023698 <ntohs>
    255a:	890d                	andi	a0,a0,3
    255c:	00a03533          	snez	a0,a0
    2560:	415987b3          	sub	a5,s3,s5
    2564:	9552                	add	a0,a0,s4
    2566:	8f89                	sub	a5,a5,a0
    2568:	8a07c3e3          	bltz	a5,1e0e <tcp_receive+0x1ee>
    256c:	05144703          	lbu	a4,81(s0)
    2570:	05044783          	lbu	a5,80(s0)
    2574:	0722                	slli	a4,a4,0x8
    2576:	8f5d                	or	a4,a4,a5
    2578:	05244783          	lbu	a5,82(s0)
    257c:	07c2                	slli	a5,a5,0x10
    257e:	8f5d                	or	a4,a4,a5
    2580:	05344783          	lbu	a5,83(s0)
    2584:	07e2                	slli	a5,a5,0x18
    2586:	8fd9                	or	a5,a5,a4
    2588:	00092703          	lw	a4,0(s2)
    258c:	40f707b3          	sub	a5,a4,a5
    2590:	86f04fe3          	bgtz	a5,1e0e <tcp_receive+0x1ee>
    2594:	06944783          	lbu	a5,105(s0)
    2598:	06844983          	lbu	s3,104(s0)
    259c:	06244703          	lbu	a4,98(s0)
    25a0:	07a2                	slli	a5,a5,0x8
    25a2:	0137e7b3          	or	a5,a5,s3
    25a6:	06a44983          	lbu	s3,106(s0)
    25aa:	09c2                	slli	s3,s3,0x10
    25ac:	00f9e7b3          	or	a5,s3,a5
    25b0:	06b44983          	lbu	s3,107(s0)
    25b4:	09e2                	slli	s3,s3,0x18
    25b6:	00f9e9b3          	or	s3,s3,a5
    25ba:	0009c783          	lbu	a5,0(s3)
    25be:	06f40423          	sb	a5,104(s0)
    25c2:	0019c783          	lbu	a5,1(s3)
    25c6:	06f404a3          	sb	a5,105(s0)
    25ca:	0029c783          	lbu	a5,2(s3)
    25ce:	06f40523          	sb	a5,106(s0)
    25d2:	0039c783          	lbu	a5,3(s3)
    25d6:	06f405a3          	sb	a5,107(s0)
    25da:	06344783          	lbu	a5,99(s0)
    25de:	07a2                	slli	a5,a5,0x8
    25e0:	8fd9                	or	a5,a5,a4
    25e2:	cf8d                	beqz	a5,261c <tcp_receive+0x9fc>
    25e4:	0109a783          	lw	a5,16(s3)
    25e8:	00c7c503          	lbu	a0,12(a5)
    25ec:	00d7c783          	lbu	a5,13(a5)
    25f0:	07a2                	slli	a5,a5,0x8
    25f2:	8d5d                	or	a0,a0,a5
    25f4:	20021097          	auipc	ra,0x20021
    25f8:	0a4080e7          	jalr	164(ra) # 20023698 <ntohs>
    25fc:	8905                	andi	a0,a0,1
    25fe:	cd19                	beqz	a0,261c <tcp_receive+0x9fc>
    2600:	06344783          	lbu	a5,99(s0)
    2604:	06244703          	lbu	a4,98(s0)
    2608:	07a2                	slli	a5,a5,0x8
    260a:	8fd9                	or	a5,a5,a4
    260c:	17fd                	addi	a5,a5,-1
    260e:	07c2                	slli	a5,a5,0x10
    2610:	83c1                	srli	a5,a5,0x10
    2612:	06f40123          	sb	a5,98(s0)
    2616:	83a1                	srli	a5,a5,0x8
    2618:	06f401a3          	sb	a5,99(s0)
    261c:	0049a503          	lw	a0,4(s3)
    2620:	49b040ef          	jal	ra,72ba <pbuf_clen>
    2624:	06744783          	lbu	a5,103(s0)
    2628:	06644703          	lbu	a4,102(s0)
    262c:	07a2                	slli	a5,a5,0x8
    262e:	8fd9                	or	a5,a5,a4
    2630:	40a78533          	sub	a0,a5,a0
    2634:	0542                	slli	a0,a0,0x10
    2636:	8141                	srli	a0,a0,0x10
    2638:	06a40323          	sb	a0,102(s0)
    263c:	8121                	srli	a0,a0,0x8
    263e:	06a403a3          	sb	a0,103(s0)
    2642:	854e                	mv	a0,s3
    2644:	b4efe0ef          	jal	ra,992 <tcp_seg_free>
    2648:	fa6ff06f          	j	1dee <tcp_receive+0x1ce>
    264c:	03d44703          	lbu	a4,61(s0)
    2650:	03c44783          	lbu	a5,60(s0)
    2654:	0722                	slli	a4,a4,0x8
    2656:	8f5d                	or	a4,a4,a5
    2658:	03e44783          	lbu	a5,62(s0)
    265c:	07c2                	slli	a5,a5,0x10
    265e:	8f5d                	or	a4,a4,a5
    2660:	03f44783          	lbu	a5,63(s0)
    2664:	07e2                	slli	a5,a5,0x18
    2666:	8fd9                	or	a5,a5,a4
    2668:	00092703          	lw	a4,0(s2)
    266c:	8f99                	sub	a5,a5,a4
    266e:	fc07d063          	bgez	a5,1e2e <tcp_receive+0x20e>
    2672:	04144683          	lbu	a3,65(s0)
    2676:	04044583          	lbu	a1,64(s0)
    267a:	0642                	slli	a2,a2,0x10
    267c:	06a2                	slli	a3,a3,0x8
    267e:	8ecd                	or	a3,a3,a1
    2680:	01069593          	slli	a1,a3,0x10
    2684:	85c1                	srai	a1,a1,0x10
    2686:	4035d513          	srai	a0,a1,0x3
    268a:	1ffff797          	auipc	a5,0x1ffff
    268e:	a727d783          	lhu	a5,-1422(a5) # 200010fc <tcp_ticks>
    2692:	8241                	srli	a2,a2,0x10
    2694:	0542                	slli	a0,a0,0x10
    2696:	8141                	srli	a0,a0,0x10
    2698:	40c786b3          	sub	a3,a5,a2
    269c:	8e89                	sub	a3,a3,a0
    269e:	06c2                	slli	a3,a3,0x10
    26a0:	82c1                	srli	a3,a3,0x10
    26a2:	01069813          	slli	a6,a3,0x10
    26a6:	96ae                	add	a3,a3,a1
    26a8:	06c2                	slli	a3,a3,0x10
    26aa:	86c1                	srai	a3,a3,0x10
    26ac:	01069593          	slli	a1,a3,0x10
    26b0:	81c1                	srli	a1,a1,0x10
    26b2:	04b40023          	sb	a1,64(s0)
    26b6:	81a1                	srli	a1,a1,0x8
    26b8:	41085813          	srai	a6,a6,0x10
    26bc:	04b400a3          	sb	a1,65(s0)
    26c0:	00085863          	bgez	a6,26d0 <tcp_receive+0xab0>
    26c4:	8e1d                	sub	a2,a2,a5
    26c6:	962a                	add	a2,a2,a0
    26c8:	01061813          	slli	a6,a2,0x10
    26cc:	41085813          	srai	a6,a6,0x10
    26d0:	04344703          	lbu	a4,67(s0)
    26d4:	04244783          	lbu	a5,66(s0)
    26d8:	868d                	srai	a3,a3,0x3
    26da:	0722                	slli	a4,a4,0x8
    26dc:	8f5d                	or	a4,a4,a5
    26de:	0742                	slli	a4,a4,0x10
    26e0:	8741                	srai	a4,a4,0x10
    26e2:	40275793          	srai	a5,a4,0x2
    26e6:	40f707b3          	sub	a5,a4,a5
    26ea:	97c2                	add	a5,a5,a6
    26ec:	07c2                	slli	a5,a5,0x10
    26ee:	83c1                	srli	a5,a5,0x10
    26f0:	01079713          	slli	a4,a5,0x10
    26f4:	97b6                	add	a5,a5,a3
    26f6:	07c2                	slli	a5,a5,0x10
    26f8:	8341                	srli	a4,a4,0x10
    26fa:	83c1                	srli	a5,a5,0x10
    26fc:	04e40123          	sb	a4,66(s0)
    2700:	04f40223          	sb	a5,68(s0)
    2704:	8321                	srli	a4,a4,0x8
    2706:	83a1                	srli	a5,a5,0x8
    2708:	04e401a3          	sb	a4,67(s0)
    270c:	04f402a3          	sb	a5,69(s0)
    2710:	02040c23          	sb	zero,56(s0)
    2714:	02040ca3          	sb	zero,57(s0)
    2718:	02040d23          	sb	zero,58(s0)
    271c:	02040da3          	sb	zero,59(s0)
    2720:	f0eff06f          	j	1e2e <tcp_receive+0x20e>
    2724:	8d99                	sub	a1,a1,a4
    2726:	00194703          	lbu	a4,1(s2)
    272a:	00094683          	lbu	a3,0(s2)
    272e:	00c90423          	sb	a2,8(s2)
    2732:	0722                	slli	a4,a4,0x8
    2734:	8ed9                	or	a3,a3,a4
    2736:	00294703          	lbu	a4,2(s2)
    273a:	00f904a3          	sb	a5,9(s2)
    273e:	00090523          	sb	zero,10(s2)
    2742:	000905a3          	sb	zero,11(s2)
    2746:	00394903          	lbu	s2,3(s2)
    274a:	0742                	slli	a4,a4,0x10
    274c:	8f55                	or	a4,a4,a3
    274e:	0962                	slli	s2,s2,0x18
    2750:	00e96933          	or	s2,s2,a4
    2754:	f56ff06f          	j	1eaa <tcp_receive+0x28a>
    2758:	40d006b3          	neg	a3,a3
    275c:	01069593          	slli	a1,a3,0x10
    2760:	f60ff06f          	j	1ec0 <tcp_receive+0x2a0>
    2764:	8f99                	sub	a5,a5,a4
    2766:	fc07dd63          	bgez	a5,1f40 <tcp_receive+0x320>
    276a:	02144783          	lbu	a5,33(s0)
    276e:	8522                	mv	a0,s0
    2770:	0027e793          	ori	a5,a5,2
    2774:	02f400a3          	sb	a5,33(s0)
    2778:	39e020ef          	jal	ra,4b16 <tcp_output>
    277c:	fc4ff06f          	j	1f40 <tcp_receive+0x320>
    2780:	00054783          	lbu	a5,0(a0)
    2784:	06f40823          	sb	a5,112(s0)
    2788:	00154783          	lbu	a5,1(a0)
    278c:	06f408a3          	sb	a5,113(s0)
    2790:	00254783          	lbu	a5,2(a0)
    2794:	06f40923          	sb	a5,114(s0)
    2798:	00354783          	lbu	a5,3(a0)
    279c:	06f409a3          	sb	a5,115(s0)
    27a0:	9f2fe0ef          	jal	ra,992 <tcp_seg_free>
    27a4:	07144783          	lbu	a5,113(s0)
    27a8:	07044503          	lbu	a0,112(s0)
    27ac:	07a2                	slli	a5,a5,0x8
    27ae:	8fc9                	or	a5,a5,a0
    27b0:	07244503          	lbu	a0,114(s0)
    27b4:	0542                	slli	a0,a0,0x10
    27b6:	8fc9                	or	a5,a5,a0
    27b8:	07344503          	lbu	a0,115(s0)
    27bc:	0562                	slli	a0,a0,0x18
    27be:	8d5d                	or	a0,a0,a5
    27c0:	f161                	bnez	a0,2780 <tcp_receive+0xb60>
    27c2:	4098                	lw	a4,0(s1)
    27c4:	1fffe697          	auipc	a3,0x1fffe
    27c8:	9906d683          	lhu	a3,-1648(a3) # 20000154 <tcplen>
    27cc:	8522                	mv	a0,s0
    27ce:	9736                	add	a4,a4,a3
    27d0:	00875793          	srli	a5,a4,0x8
    27d4:	02f401a3          	sb	a5,35(s0)
    27d8:	01075793          	srli	a5,a4,0x10
    27dc:	02e40123          	sb	a4,34(s0)
    27e0:	02f40223          	sb	a5,36(s0)
    27e4:	8361                	srli	a4,a4,0x18
    27e6:	02744783          	lbu	a5,39(s0)
    27ea:	02e402a3          	sb	a4,37(s0)
    27ee:	02644703          	lbu	a4,38(s0)
    27f2:	07a2                	slli	a5,a5,0x8
    27f4:	8fd9                	or	a5,a5,a4
    27f6:	8f95                	sub	a5,a5,a3
    27f8:	07c2                	slli	a5,a5,0x10
    27fa:	83c1                	srli	a5,a5,0x10
    27fc:	02f40323          	sb	a5,38(s0)
    2800:	83a1                	srli	a5,a5,0x8
    2802:	02f403a3          	sb	a5,39(s0)
    2806:	87afe0ef          	jal	ra,880 <tcp_update_rcv_ann_wnd>
    280a:	00492703          	lw	a4,4(s2)
    280e:	00974783          	lbu	a5,9(a4)
    2812:	00874683          	lbu	a3,8(a4)
    2816:	07a2                	slli	a5,a5,0x8
    2818:	8fd5                	or	a5,a5,a3
    281a:	cb89                	beqz	a5,282c <tcp_receive+0xc0c>
    281c:	1fffe797          	auipc	a5,0x1fffe
    2820:	92e7a423          	sw	a4,-1752(a5) # 20000144 <recv_data>
    2824:	1fffe797          	auipc	a5,0x1fffe
    2828:	9607a223          	sw	zero,-1692(a5) # 20000188 <inseg+0x4>
    282c:	01092783          	lw	a5,16(s2)
    2830:	00c7c503          	lbu	a0,12(a5)
    2834:	00d7c783          	lbu	a5,13(a5)
    2838:	07a2                	slli	a5,a5,0x8
    283a:	8d5d                	or	a0,a0,a5
    283c:	20021097          	auipc	ra,0x20021
    2840:	e5c080e7          	jalr	-420(ra) # 20023698 <ntohs>
    2844:	8905                	andi	a0,a0,1
    2846:	c919                	beqz	a0,285c <tcp_receive+0xc3c>
    2848:	1fffe797          	auipc	a5,0x1fffe
    284c:	9007c783          	lbu	a5,-1792(a5) # 20000148 <recv_flags>
    2850:	0207e793          	ori	a5,a5,32
    2854:	1fffe717          	auipc	a4,0x1fffe
    2858:	8ef70a23          	sb	a5,-1804(a4) # 20000148 <recv_flags>
    285c:	1fffe917          	auipc	s2,0x1fffe
    2860:	8e890913          	addi	s2,s2,-1816 # 20000144 <recv_data>
    2864:	1fffe997          	auipc	s3,0x1fffe
    2868:	8e498993          	addi	s3,s3,-1820 # 20000148 <recv_flags>
    286c:	4a11                	li	s4,4
    286e:	4a9d                	li	s5,7
    2870:	a429                	j	2a7a <tcp_receive+0xe5a>
    2872:	00d64783          	lbu	a5,13(a2)
    2876:	00c64503          	lbu	a0,12(a2)
    287a:	07a2                	slli	a5,a5,0x8
    287c:	8d5d                	or	a0,a0,a5
    287e:	20021097          	auipc	ra,0x20021
    2882:	e1a080e7          	jalr	-486(ra) # 20023698 <ntohs>
    2886:	8905                	andi	a0,a0,1
    2888:	cd59                	beqz	a0,2926 <tcp_receive+0xd06>
    288a:	01092783          	lw	a5,16(s2)
    288e:	00c7c503          	lbu	a0,12(a5)
    2892:	00d7c783          	lbu	a5,13(a5)
    2896:	07a2                	slli	a5,a5,0x8
    2898:	8d5d                	or	a0,a0,a5
    289a:	20021097          	auipc	ra,0x20021
    289e:	dfe080e7          	jalr	-514(ra) # 20023698 <ntohs>
    28a2:	8909                	andi	a0,a0,2
    28a4:	e149                	bnez	a0,2926 <tcp_receive+0xd06>
    28a6:	01092783          	lw	a5,16(s2)
    28aa:	00d7ca03          	lbu	s4,13(a5)
    28ae:	00c7c503          	lbu	a0,12(a5)
    28b2:	0a22                	slli	s4,s4,0x8
    28b4:	00aa6a33          	or	s4,s4,a0
    28b8:	8556                	mv	a0,s5
    28ba:	20021097          	auipc	ra,0x20021
    28be:	dd0080e7          	jalr	-560(ra) # 2002368a <htons>
    28c2:	01092783          	lw	a5,16(s2)
    28c6:	00aa7a33          	and	s4,s4,a0
    28ca:	00c7c503          	lbu	a0,12(a5)
    28ce:	00d7c783          	lbu	a5,13(a5)
    28d2:	07a2                	slli	a5,a5,0x8
    28d4:	8d5d                	or	a0,a0,a5
    28d6:	20021097          	auipc	ra,0x20021
    28da:	dc2080e7          	jalr	-574(ra) # 20023698 <ntohs>
    28de:	03e57513          	andi	a0,a0,62
    28e2:	00156513          	ori	a0,a0,1
    28e6:	20021097          	auipc	ra,0x20021
    28ea:	da4080e7          	jalr	-604(ra) # 2002368a <htons>
    28ee:	00aa6533          	or	a0,s4,a0
    28f2:	01092783          	lw	a5,16(s2)
    28f6:	0542                	slli	a0,a0,0x10
    28f8:	8141                	srli	a0,a0,0x10
    28fa:	00855713          	srli	a4,a0,0x8
    28fe:	00a78623          	sb	a0,12(a5)
    2902:	00e786a3          	sb	a4,13(a5)
    2906:	1fffea17          	auipc	s4,0x1fffe
    290a:	88aa5a03          	lhu	s4,-1910(s4) # 20000190 <inseg+0xc>
    290e:	20021097          	auipc	ra,0x20021
    2912:	d8a080e7          	jalr	-630(ra) # 20023698 <ntohs>
    2916:	890d                	andi	a0,a0,3
    2918:	00a03533          	snez	a0,a0
    291c:	9a2a                	add	s4,s4,a0
    291e:	1fffe797          	auipc	a5,0x1fffe
    2922:	83479b23          	sh	s4,-1994(a5) # 20000154 <tcplen>
    2926:	0009aa03          	lw	s4,0(s3)
    292a:	854e                	mv	a0,s3
    292c:	866fe0ef          	jal	ra,992 <tcp_seg_free>
    2930:	89d2                	mv	s3,s4
    2932:	ffaff06f          	j	212c <tcp_receive+0x50c>
    2936:	1fffe717          	auipc	a4,0x1fffe
    293a:	80f72b23          	sw	a5,-2026(a4) # 2000014c <seqno>
    293e:	00d64783          	lbu	a5,13(a2)
    2942:	00c64503          	lbu	a0,12(a2)
    2946:	00c4db03          	lhu	s6,12(s1)
    294a:	07a2                	slli	a5,a5,0x8
    294c:	8d5d                	or	a0,a0,a5
    294e:	20021097          	auipc	ra,0x20021
    2952:	d4a080e7          	jalr	-694(ra) # 20023698 <ntohs>
    2956:	02344703          	lbu	a4,35(s0)
    295a:	02244783          	lbu	a5,34(s0)
    295e:	890d                	andi	a0,a0,3
    2960:	0722                	slli	a4,a4,0x8
    2962:	8f5d                	or	a4,a4,a5
    2964:	02444783          	lbu	a5,36(s0)
    2968:	00a03533          	snez	a0,a0
    296c:	955a                	add	a0,a0,s6
    296e:	07c2                	slli	a5,a5,0x10
    2970:	8f5d                	or	a4,a4,a5
    2972:	02544783          	lbu	a5,37(s0)
    2976:	00c4db03          	lhu	s6,12(s1)
    297a:	07e2                	slli	a5,a5,0x18
    297c:	8fd9                	or	a5,a5,a4
    297e:	953e                	add	a0,a0,a5
    2980:	00855793          	srli	a5,a0,0x8
    2984:	4898                	lw	a4,16(s1)
    2986:	02a40123          	sb	a0,34(s0)
    298a:	02f401a3          	sb	a5,35(s0)
    298e:	01055793          	srli	a5,a0,0x10
    2992:	8161                	srli	a0,a0,0x18
    2994:	02f40223          	sb	a5,36(s0)
    2998:	02a402a3          	sb	a0,37(s0)
    299c:	00c74503          	lbu	a0,12(a4)
    29a0:	00d74703          	lbu	a4,13(a4)
    29a4:	0722                	slli	a4,a4,0x8
    29a6:	8d59                	or	a0,a0,a4
    29a8:	20021097          	auipc	ra,0x20021
    29ac:	cf0080e7          	jalr	-784(ra) # 20023698 <ntohs>
    29b0:	02744783          	lbu	a5,39(s0)
    29b4:	02644703          	lbu	a4,38(s0)
    29b8:	890d                	andi	a0,a0,3
    29ba:	07a2                	slli	a5,a5,0x8
    29bc:	00a03533          	snez	a0,a0
    29c0:	8fd9                	or	a5,a5,a4
    29c2:	955a                	add	a0,a0,s6
    29c4:	8f89                	sub	a5,a5,a0
    29c6:	07c2                	slli	a5,a5,0x10
    29c8:	83c1                	srli	a5,a5,0x10
    29ca:	02f40323          	sb	a5,38(s0)
    29ce:	83a1                	srli	a5,a5,0x8
    29d0:	02f403a3          	sb	a5,39(s0)
    29d4:	8522                	mv	a0,s0
    29d6:	eabfd0ef          	jal	ra,880 <tcp_update_rcv_ann_wnd>
    29da:	40cc                	lw	a1,4(s1)
    29dc:	0095c783          	lbu	a5,9(a1)
    29e0:	0085c703          	lbu	a4,8(a1)
    29e4:	07a2                	slli	a5,a5,0x8
    29e6:	8fd9                	or	a5,a5,a4
    29e8:	cb89                	beqz	a5,29fa <tcp_receive+0xdda>
    29ea:	00092503          	lw	a0,0(s2)
    29ee:	10050263          	beqz	a0,2af2 <tcp_receive+0xed2>
    29f2:	115040ef          	jal	ra,7306 <pbuf_cat>
    29f6:	0004a223          	sw	zero,4(s1)
    29fa:	489c                	lw	a5,16(s1)
    29fc:	00c7c503          	lbu	a0,12(a5)
    2a00:	00d7c783          	lbu	a5,13(a5)
    2a04:	07a2                	slli	a5,a5,0x8
    2a06:	8d5d                	or	a0,a0,a5
    2a08:	20021097          	auipc	ra,0x20021
    2a0c:	c90080e7          	jalr	-880(ra) # 20023698 <ntohs>
    2a10:	8905                	andi	a0,a0,1
    2a12:	c129                	beqz	a0,2a54 <tcp_receive+0xe34>
    2a14:	0009c783          	lbu	a5,0(s3)
    2a18:	0207e793          	ori	a5,a5,32
    2a1c:	1fffd717          	auipc	a4,0x1fffd
    2a20:	72f70623          	sb	a5,1836(a4) # 20000148 <recv_flags>
    2a24:	01144703          	lbu	a4,17(s0)
    2a28:	01044783          	lbu	a5,16(s0)
    2a2c:	0722                	slli	a4,a4,0x8
    2a2e:	8f5d                	or	a4,a4,a5
    2a30:	01244783          	lbu	a5,18(s0)
    2a34:	07c2                	slli	a5,a5,0x10
    2a36:	8f5d                	or	a4,a4,a5
    2a38:	01344783          	lbu	a5,19(s0)
    2a3c:	07e2                	slli	a5,a5,0x18
    2a3e:	8fd9                	or	a5,a5,a4
    2a40:	01479a63          	bne	a5,s4,2a54 <tcp_receive+0xe34>
    2a44:	01540823          	sb	s5,16(s0)
    2a48:	000408a3          	sb	zero,17(s0)
    2a4c:	00040923          	sb	zero,18(s0)
    2a50:	000409a3          	sb	zero,19(s0)
    2a54:	0004c783          	lbu	a5,0(s1)
    2a58:	8526                	mv	a0,s1
    2a5a:	06f40823          	sb	a5,112(s0)
    2a5e:	0014c783          	lbu	a5,1(s1)
    2a62:	06f408a3          	sb	a5,113(s0)
    2a66:	0024c783          	lbu	a5,2(s1)
    2a6a:	06f40923          	sb	a5,114(s0)
    2a6e:	0034c783          	lbu	a5,3(s1)
    2a72:	06f409a3          	sb	a5,115(s0)
    2a76:	f1dfd0ef          	jal	ra,992 <tcp_seg_free>
    2a7a:	07144783          	lbu	a5,113(s0)
    2a7e:	07044483          	lbu	s1,112(s0)
    2a82:	07a2                	slli	a5,a5,0x8
    2a84:	8fc5                	or	a5,a5,s1
    2a86:	07244483          	lbu	s1,114(s0)
    2a8a:	04c2                	slli	s1,s1,0x10
    2a8c:	8fc5                	or	a5,a5,s1
    2a8e:	07344483          	lbu	s1,115(s0)
    2a92:	04e2                	slli	s1,s1,0x18
    2a94:	8cdd                	or	s1,s1,a5
    2a96:	c0a1                	beqz	s1,2ad6 <tcp_receive+0xeb6>
    2a98:	4890                	lw	a2,16(s1)
    2a9a:	02344683          	lbu	a3,35(s0)
    2a9e:	00564703          	lbu	a4,5(a2)
    2aa2:	00464783          	lbu	a5,4(a2)
    2aa6:	06a2                	slli	a3,a3,0x8
    2aa8:	0722                	slli	a4,a4,0x8
    2aaa:	8f5d                	or	a4,a4,a5
    2aac:	00664783          	lbu	a5,6(a2)
    2ab0:	07c2                	slli	a5,a5,0x10
    2ab2:	8f5d                	or	a4,a4,a5
    2ab4:	00764783          	lbu	a5,7(a2)
    2ab8:	07e2                	slli	a5,a5,0x18
    2aba:	8fd9                	or	a5,a5,a4
    2abc:	02244703          	lbu	a4,34(s0)
    2ac0:	8ed9                	or	a3,a3,a4
    2ac2:	02444703          	lbu	a4,36(s0)
    2ac6:	0742                	slli	a4,a4,0x10
    2ac8:	8ed9                	or	a3,a3,a4
    2aca:	02544703          	lbu	a4,37(s0)
    2ace:	0762                	slli	a4,a4,0x18
    2ad0:	8f55                	or	a4,a4,a3
    2ad2:	e6e782e3          	beq	a5,a4,2936 <tcp_receive+0xd16>
    2ad6:	02144783          	lbu	a5,33(s0)
    2ada:	0017f713          	andi	a4,a5,1
    2ade:	cf19                	beqz	a4,2afc <tcp_receive+0xedc>
    2ae0:	9bf9                	andi	a5,a5,-2
    2ae2:	0027e793          	ori	a5,a5,2
    2ae6:	02f400a3          	sb	a5,33(s0)
    2aea:	8522                	mv	a0,s0
    2aec:	02a020ef          	jal	ra,4b16 <tcp_output>
    2af0:	a811                	j	2b04 <tcp_receive+0xee4>
    2af2:	1fffd797          	auipc	a5,0x1fffd
    2af6:	64b7a923          	sw	a1,1618(a5) # 20000144 <recv_data>
    2afa:	bdf5                	j	29f6 <tcp_receive+0xdd6>
    2afc:	0017e793          	ori	a5,a5,1
    2b00:	02f400a3          	sb	a5,33(s0)
    2b04:	2001d317          	auipc	t1,0x2001d
    2b08:	54630067          	jr	1350(t1) # 2002004a <__riscv_restore_4>
    2b0c:	8522                	mv	a0,s0
    2b0e:	78f010ef          	jal	ra,4a9c <tcp_send_empty_ack>
    2b12:	07144783          	lbu	a5,113(s0)
    2b16:	07044903          	lbu	s2,112(s0)
    2b1a:	07a2                	slli	a5,a5,0x8
    2b1c:	0127e7b3          	or	a5,a5,s2
    2b20:	07244903          	lbu	s2,114(s0)
    2b24:	0942                	slli	s2,s2,0x10
    2b26:	00f967b3          	or	a5,s2,a5
    2b2a:	07344903          	lbu	s2,115(s0)
    2b2e:	0962                	slli	s2,s2,0x18
    2b30:	00f96933          	or	s2,s2,a5
    2b34:	02091663          	bnez	s2,2b60 <tcp_receive+0xf40>
    2b38:	1fffd517          	auipc	a0,0x1fffd
    2b3c:	64c50513          	addi	a0,a0,1612 # 20000184 <inseg>
    2b40:	ea9fd0ef          	jal	ra,9e8 <tcp_seg_copy>
    2b44:	00855793          	srli	a5,a0,0x8
    2b48:	06a40823          	sb	a0,112(s0)
    2b4c:	06f408a3          	sb	a5,113(s0)
    2b50:	01055793          	srli	a5,a0,0x10
    2b54:	8161                	srli	a0,a0,0x18
    2b56:	06f40923          	sb	a5,114(s0)
    2b5a:	06a409a3          	sb	a0,115(s0)
    2b5e:	b75d                	j	2b04 <tcp_receive+0xee4>
    2b60:	4098                	lw	a4,0(s1)
    2b62:	4981                	li	s3,0
    2b64:	fff70813          	addi	a6,a4,-1
    2b68:	00170513          	addi	a0,a4,1
    2b6c:	01092603          	lw	a2,16(s2)
    2b70:	00564683          	lbu	a3,5(a2)
    2b74:	00464783          	lbu	a5,4(a2)
    2b78:	06a2                	slli	a3,a3,0x8
    2b7a:	8edd                	or	a3,a3,a5
    2b7c:	00664783          	lbu	a5,6(a2)
    2b80:	07c2                	slli	a5,a5,0x10
    2b82:	8edd                	or	a3,a3,a5
    2b84:	00764783          	lbu	a5,7(a2)
    2b88:	07e2                	slli	a5,a5,0x18
    2b8a:	8fd5                	or	a5,a5,a3
    2b8c:	04e79a63          	bne	a5,a4,2be0 <tcp_receive+0xfc0>
    2b90:	00c95783          	lhu	a5,12(s2)
    2b94:	1fffd717          	auipc	a4,0x1fffd
    2b98:	5fc75703          	lhu	a4,1532(a4) # 20000190 <inseg+0xc>
    2b9c:	f6e7f4e3          	bgeu	a5,a4,2b04 <tcp_receive+0xee4>
    2ba0:	1fffd517          	auipc	a0,0x1fffd
    2ba4:	5e450513          	addi	a0,a0,1508 # 20000184 <inseg>
    2ba8:	e41fd0ef          	jal	ra,9e8 <tcp_seg_copy>
    2bac:	dd21                	beqz	a0,2b04 <tcp_receive+0xee4>
    2bae:	00098a63          	beqz	s3,2bc2 <tcp_receive+0xfa2>
    2bb2:	00a9a023          	sw	a0,0(s3)
    2bb6:	85ca                	mv	a1,s2
    2bb8:	f57fe0ef          	jal	ra,1b0e <tcp_oos_insert_segment>
    2bbc:	b7a1                	j	2b04 <tcp_receive+0xee4>
    2bbe:	8936                	mv	s2,a3
    2bc0:	b775                	j	2b6c <tcp_receive+0xf4c>
    2bc2:	00855793          	srli	a5,a0,0x8
    2bc6:	06f408a3          	sb	a5,113(s0)
    2bca:	01055793          	srli	a5,a0,0x10
    2bce:	06f40923          	sb	a5,114(s0)
    2bd2:	06a40823          	sb	a0,112(s0)
    2bd6:	01855793          	srli	a5,a0,0x18
    2bda:	06f409a3          	sb	a5,115(s0)
    2bde:	bfe1                	j	2bb6 <tcp_receive+0xf96>
    2be0:	02099b63          	bnez	s3,2c16 <tcp_receive+0xff6>
    2be4:	40f706b3          	sub	a3,a4,a5
    2be8:	0a06dd63          	bgez	a3,2ca2 <tcp_receive+0x1082>
    2bec:	1fffd517          	auipc	a0,0x1fffd
    2bf0:	59850513          	addi	a0,a0,1432 # 20000184 <inseg>
    2bf4:	df5fd0ef          	jal	ra,9e8 <tcp_seg_copy>
    2bf8:	f00506e3          	beqz	a0,2b04 <tcp_receive+0xee4>
    2bfc:	00855713          	srli	a4,a0,0x8
