
MQTT_SUB.elf:     file format elf32-littleriscv
MQTT_SUB.elf
architecture: riscv:rv32, flags 0x00000112:
EXEC_P, HAS_SYMS, D_PAGED
start address 0x00000000

Program Header:
    LOAD off    0x00001000 vaddr 0x00000000 paddr 0x00000000 align 2**12
         filesz 0x0000794c memsz 0x0000794c flags r-x
    LOAD off    0x00009000 vaddr 0x20000000 paddr 0x0000794c align 2**12
         filesz 0x000000b8 memsz 0x00000ee8 flags rw-
    LOAD off    0x0000a000 vaddr 0x20020000 paddr 0x00008000 align 2**12
         filesz 0x0000d2f0 memsz 0x0000d2f0 flags rwx

Sections:
Idx Name          Size      VMA       LMA       File off  Algn
  0 .init         00000004  00000000  00000000  00001000  2**1
                  CONTENTS, ALLOC, LOAD, READONLY, CODE
  1 .vector       000000bc  00000004  00000004  00001004  2**1
                  CONTENTS, ALLOC, LOAD, READONLY, CODE
  2 .text         0000788c  000000c0  000000c0  000010c0  2**3
                  CONTENTS, ALLOC, LOAD, READONLY, CODE
  3 .ramcodelalign 00000000  00008000  00008000  000172f0  2**0
                  CONTENTS
  4 .ramcode      0000d2f0  20020000  00008000  0000a000  2**4
                  CONTENTS, ALLOC, LOAD, CODE
  5 .fini         00000000  0000794c  0000794c  000172f0  2**0
                  CONTENTS, ALLOC, LOAD, CODE
  6 .dalign       00000000  20000000  20000000  000172f0  2**0
                  CONTENTS
  7 .dlalign      00000000  0000794c  0000794c  000172f0  2**0
                  CONTENTS
  8 .data         000000b8  20000000  0000794c  00009000  2**2
                  CONTENTS, ALLOC, LOAD, DATA
  9 .bss          00000e30  200000b8  00007a04  000090b8  2**2
                  ALLOC
 10 .heap         00000000  20000ee8  20000ee8  000172f0  2**0
                  CONTENTS
 11 .usrstack     00000000  20004000  20004000  000172f0  2**0
                  CONTENTS
 12 .debug_info   0000d205  00000000  00000000  000172f0  2**0
                  CONTENTS, READONLY, DEBUGGING
 13 .debug_abbrev 0000268e  00000000  00000000  000244f5  2**0
                  CONTENTS, READONLY, DEBUGGING
 14 .debug_loc    0000282a  00000000  00000000  00026b83  2**0
                  CONTENTS, READONLY, DEBUGGING
 15 .debug_aranges 00000418  00000000  00000000  000293ad  2**0
                  CONTENTS, READONLY, DEBUGGING
 16 .debug_ranges 00000450  00000000  00000000  000297c5  2**0
                  CONTENTS, READONLY, DEBUGGING
 17 .debug_line   000079cd  00000000  00000000  00029c15  2**0
                  CONTENTS, READONLY, DEBUGGING
 18 .debug_str    00002181  00000000  00000000  000315e2  2**0
                  CONTENTS, READONLY, DEBUGGING
 19 .comment      00000033  00000000  00000000  00033763  2**0
                  CONTENTS, READONLY
 20 .debug_frame  000014b4  00000000  00000000  00033798  2**2
                  CONTENTS, READONLY, DEBUGGING
 21 .stab         00000084  00000000  00000000  00034c4c  2**2
                  CONTENTS, READONLY, DEBUGGING
 22 .stabstr      00000117  00000000  00000000  00034cd0  2**0
                  CONTENTS, READONLY, DEBUGGING
SYMBOL TABLE:
00000000 l    d  .init	00000000 .init
00000004 l    d  .vector	00000000 .vector
000000c0 l    d  .text	00000000 .text
00008000 l    d  .ramcodelalign	00000000 .ramcodelalign
20020000 l    d  .ramcode	00000000 .ramcode
0000794c l    d  .fini	00000000 .fini
20000000 l    d  .dalign	00000000 .dalign
0000794c l    d  .dlalign	00000000 .dlalign
20000000 l    d  .data	00000000 .data
200000b8 l    d  .bss	00000000 .bss
20000ee8 l    d  .heap	00000000 .heap
20004000 l    d  .usrstack	00000000 .usrstack
00000000 l    d  .debug_info	00000000 .debug_info
00000000 l    d  .debug_abbrev	00000000 .debug_abbrev
00000000 l    d  .debug_loc	00000000 .debug_loc
00000000 l    d  .debug_aranges	00000000 .debug_aranges
00000000 l    d  .debug_ranges	00000000 .debug_ranges
00000000 l    d  .debug_line	00000000 .debug_line
00000000 l    d  .debug_str	00000000 .debug_str
00000000 l    d  .comment	00000000 .comment
00000000 l    d  .debug_frame	00000000 .debug_frame
00000000 l    d  .stab	00000000 .stab
00000000 l    d  .stabstr	00000000 .stabstr
00000000 l    df *ABS*	00000000 ./SRC/Startup/startup_CH56x.o
00000004 l       .vector	00000000 _vector_base
00000000 l    df *ABS*	00000000 tcp.c
00000508 l     F .text	000000dc tcp_new_port
20000104 l     O .bss	00000001 tcp_timer
2000008c l     O .data	00000004 iss.3741
20000090 l     O .data	00000002 port.3573
00000000 l    df *ABS*	00000000 tcp_in.c
00001d22 l     F .text	000000d4 tcp_parseopt
00001df6 l     F .text	00000112 tcp_oos_insert_segment
00001f08 l     F .text	0000112e tcp_receive
20000154 l     O .bss	00000014 inseg
20000108 l     O .bss	00000004 ackno
2000010c l     O .bss	00000001 flags
20000110 l     O .bss	00000004 iphdr
20000114 l     O .bss	00000004 recv_data
20000118 l     O .bss	00000001 recv_flags
2000011c l     O .bss	00000004 seqno
20000120 l     O .bss	00000004 tcphdr
20000124 l     O .bss	00000002 tcplen
00000000 l    df *ABS*	00000000 tcp_out.c
0000453a l     F .text	000001a8 tcp_output_set_header.constprop.0
00000000 l    df *ABS*	00000000 ip.c
200000ec l     O .bss	00000002 ip_id.3576
00000000 l    df *ABS*	00000000 mem.c
200000f4 l     O .bss	00000004 ram
200000f8 l     O .bss	00000004 ram_end
00000000 l    df *ABS*	00000000 memp.c
20000134 l     O .bss	00000020 memp_tab
00000000 l    df *ABS*	00000000 udp.c
00000000 l    df *ABS*	00000000 pbuf.c
00000000 l    df *ABS*	00000000 ip_addr.c
00000000 l    df *ABS*	00000000 PHY_interrupt.c
00000000 l    df *ABS*	00000000 ethernet_driver.c
00000000 l    df *ABS*	00000000 timer.c
00000000 l    df *ABS*	00000000 Main.c
00000000 l    df *ABS*	00000000 MQTTConnectClient.c
00000000 l    df *ABS*	00000000 MQTTDeserializePublish.c
00000000 l    df *ABS*	00000000 MQTTPacket.c
200000b8 l     O .bss	00000004 bufptr
00000000 l    df *ABS*	00000000 MQTTSubscribeClient.c
00000000 l    df *ABS*	00000000 CH56x_clk.c
00000000 l    df *ABS*	00000000 CH56x_gpio.c
00000000 l    df *ABS*	00000000 CH56x_sys.c
200000be l     O .bss	00000002 p_ms
200000c0 l     O .bss	00000001 p_us
00000000 l    df *ABS*	00000000 ch569sock.c
00000000 l    df *ABS*	00000000 etharp.c
20022ee6 l     F .ramcode	0000025c find_entry
20023142 l     F .ramcode	000000f4 update_arp_entry
200000cc l     O .bss	00000001 etharp_cached_entry
00000000 l    df *ABS*	00000000 ethernetif.c
2002394c l     F .ramcode	00000092 low_level_output
00000000 l    df *ABS*	00000000 ipcheck.c
00000000 l    df *ABS*	00000000 inet.c
00000000 l    df *ABS*	00000000 init.c
00000000 l    df *ABS*	00000000 ip_frag.c
200000ee l     O .bss	00000002 ip_reass_pbufcount
200000f0 l     O .bss	00000004 reassdatagrams
00000000 l    df *ABS*	00000000 netif.c
200000fc l     O .bss	00000001 netifnum.2254
00000000 l    df *ABS*	00000000 raw.c
20000100 l     O .bss	00000004 raw_pcbs
00000000 l    df *ABS*	00000000 icmp.c
20024b52 l     F .ramcode	000000c6 icmp_send_response
00000000 l    df *ABS*	00000000 inet_chksum.c
20024f7a l     F .ramcode	00000084 lwip_standard_chksum
00000000 l    df *ABS*	00000000 memcpy.c
00000000 l    df *ABS*	00000000 printf.c
00000000 l    df *ABS*	00000000 putchar.c
00000000 l    df *ABS*	00000000 puts.c
00000000 l    df *ABS*	00000000 strlen.c
00000000 l    df *ABS*	00000000 wbuf.c
00000000 l    df *ABS*	00000000 wsetup.c
00000000 l    df *ABS*	00000000 fflush.c
00000000 l    df *ABS*	00000000 findfp.c
2002577e l     F .ramcode	0000006a std
00000000 l    df *ABS*	00000000 fwalk.c
00000000 l    df *ABS*	00000000 makebuf.c
00000000 l    df *ABS*	00000000 nano-mallocr.c
00000000 l    df *ABS*	00000000 nano-mallocr.c
00000000 l    df *ABS*	00000000 nano-vfprintf.c
20025c4a l     F .ramcode	0000002a __sfputc_r
00000000 l    df *ABS*	00000000 nano-vfprintf_i.c
00000000 l    df *ABS*	00000000 putc.c
00000000 l    df *ABS*	00000000 sbrkr.c
00000000 l    df *ABS*	00000000 stdio.c
00000000 l    df *ABS*	00000000 writer.c
00000000 l    df *ABS*	00000000 closer.c
00000000 l    df *ABS*	00000000 fstatr.c
00000000 l    df *ABS*	00000000 isattyr.c
00000000 l    df *ABS*	00000000 lseekr.c
00000000 l    df *ABS*	00000000 memchr.c
00000000 l    df *ABS*	00000000 mlock.c
00000000 l    df *ABS*	00000000 readr.c
00000000 l    df *ABS*	00000000 close.c
00000000 l    df *ABS*	00000000 fstat.c
00000000 l    df *ABS*	00000000 isatty.c
00000000 l    df *ABS*	00000000 lseek.c
00000000 l    df *ABS*	00000000 read.c
00000000 l    df *ABS*	00000000 sbrk.c
20000130 l     O .bss	00000004 heap_end.1518
00000000 l    df *ABS*	00000000 mem_malloc.c
00000000 l    df *ABS*	00000000 impure.c
20000000 l     O .data	00000060 impure_data
00000000 l    df *ABS*	00000000 reent.c
000077f4 g     F .text	00000028 GPIO_IRQHandler
200204e4 g     F .ramcode	0000000e readChar
200252e2 g     F .ramcode	0000002e putchar
2002512a g     F .ramcode	00000014 inet_chksum
2000007c g     O .data	00000004 password
20024a14 g     F .ramcode	00000026 raw_bind
20023f5c g     F .ramcode	0000057c ip_reass
0000742a g     F .text	000000f6 pbuf_realloc
2002650e g     F .ramcode	00000030 _isatty_r
000017ae g     F .text	0000001a tcp_next_iss
20025310 g     F .ramcode	000000da _puts_r
00000888 g     F .text	000000a6 tcp_update_rcv_ann_wnd
2002653e g     F .ramcode	00000034 _lseek_r
20000ebc g     O .bss	00000004 netif_list
000000dc  w      .text	00000000 EMMC_IRQHandler
2002130a g     F .ramcode	00000006 Net_TimerIsr
000054d4 g     F .text	00000164 tcp_rst
000000d2  w      .text	00000000 LINK_IRQHandler
20022bb0 g     F .ramcode	00000026 CH569NET_MainTask
200000e8 g     O .bss	00000004 TCPTimer
200234b8 g     F .ramcode	0000012e etharp_request
200000c8 g     O .bss	00000004 tcppackt
20000de0 g     O .bss	00000001 PingEnable
2002529e g     F .ramcode	00000044 printf
20020008 g     F .ramcode	00000028 .hidden __riscv_save_8
00000a78 g     F .text	0000001c tcp_err
200000a8 g     O .data	00000004 ip_addr_any
20024ffe g     F .ramcode	0000012c inet_chksum_pseudo
20020a96 g     F .ramcode	000000e0 ETH_StructInit
2002643a g     F .ramcode	00000036 __sseek
20025838 g     F .ramcode	00000070 __sinit
00004d16 g     F .text	0000001e tcp_send_ctrl
2002540c g     F .ramcode	000000c0 __swbuf_r
00007904 g     F .text	00000048 HardFault_Handler
00005e22 g     F .text	000001f4 ip_output_if
20022854 g     F .ramcode	00000026 CH569NET_SocketRecvLen
200257f2 g     F .ramcode	00000046 __sfmoreglue
200206ea g     F .ramcode	000000bc phy_int_cheak_init
000064be g     F .text	00000018 memp_free
2002658e g     F .ramcode	00000002 __malloc_unlock
00007136 g     F .text	0000008e pbuf_free
20020054 g     F .ramcode	0000000c .hidden __riscv_restore_3
00000a40 g     F .text	0000001c tcp_recv
20020dc4 g     F .ramcode	000002e4 ETH_Init
000000c4  w      .text	00000000 SysTick_Handler
0000756c g     F .text	0000006e pbuf_cat
20000de4 g     O .bss	00000014 CH569Cfg
20022b4a g     F .ramcode	0000002c CH569NET_GetSocketInt
00006016 g     F .text	0000003c ip_output
20020040 g     F .ramcode	00000020 .hidden __riscv_restore_10
000069c2 g     F .text	00000054 udp_sendto
000000c0  w      .text	00000000 NMI_Handler
20000084 g     O .data	00000004 username
20021530 g     F .ramcode	00000142 CH569NET_HandleSockInt
0000586e g     F .text	00000068 tcp_keepalive
20023236 g     F .ramcode	00000080 etharp_tmr
20020008 g     F .ramcode	00000028 .hidden __riscv_save_11
000017c8 g     F .text	00000284 tcp_alloc
000000e4  w      .text	00000000 UART1_IRQHandler
200239de g     F .ramcode	00000038 low_level_init
20026d84 g     O .ramcode	00000010 MemSize
00006a16 g     F .text	000002d8 udp_sendto_if
00000a24 g     F .text	0000001c tcp_arg
20022422 g     F .ramcode	00000208 CH569NET_SocketCreat
000000da  w      .text	00000000 USBHS_IRQHandler
2002330e g     F .ramcode	000001aa etharp_arp_input
20000ec4 g     O .bss	00000004 tcp_active_pcbs
200264dc g     F .ramcode	00000032 _fstat_r
20000ee0 g     O .bss	00000004 udp_pcbs
20000ee4 g     O .bss	00000004 errno
200238c8 g     F .ramcode	00000084 ethernet_input
200000b8 g       .bss	00000000 _sbss
00000800 g       *ABS*	00000000 __stack_size
0000754c g     F .text	00000020 pbuf_ref
00001484 g     F .text	00000040 tcp_recv_null
20000eb0 g     O .bss	00000004 current_netif
00001308 g     F .text	0000017c tcp_close
20000860 g       .data	00000000 _global_pointer$
20000ea4 g     O .bss	0000000c SelARP
0000092e g     F .text	0000006c tcp_recved
20020054 g     F .ramcode	0000000c .hidden __riscv_restore_2
00000ab4 g     F .text	00000102 tcp_pcb_purge
000000d8  w      .text	00000000 UART0_IRQHandler
200000ac g     O .data	00000007 tcp_persist_backoff
20000eb8 g     O .bss	00000004 lfree
200251e8 g     F .ramcode	000000b6 memcpy
000060a6 g     F .text	000000fa mem_free
20000ec8 g     O .bss	00000004 tcp_ticks
20020c70 g     F .ramcode	00000050 ETH_buf_init
20000ecc g     O .bss	00000004 tcp_listen_pcbs
20000080 g     O .data	00000004 sub_topic
00005638 g     F .text	000000a0 tcp_rexmit_rto
200257e8 g     F .ramcode	0000000a _cleanup_r
000077a2 g     F .text	00000052 ip_addr_isbroadcast
20000ce8 g     O .bss	00000004 DMARxDescToGet
00001a4c g     F .text	00000016 tcp_new
20023d1a g     F .ramcode	0000005c IPCheckTmr
200253ea g     F .ramcode	00000010 puts
20000df8 g     O .bss	00000018 DHCPCtrl
20024b00 g     F .ramcode	00000010 raw_send
2002513e g     F .ramcode	000000aa inet_chksum_pbuf
200000bd g     O .bss	00000001 sub_flag
000000c6  w      .text	00000000 SWI_Handler
200265d4 g     F .ramcode	00000010 _fstat
20024c18 g     F .ramcode	0000033e icmp_input
00000004 g       .init	00000000 _einit
20022294 g     F .ramcode	0000015a CH569NET_Init
2002490c g     F .ramcode	00000068 netif_add
20020000 g     F .ramcode	00000030 .hidden __riscv_save_12
000009cc g     F .text	00000024 tcp_segs_free
200205b4 g     F .ramcode	00000040 readMQTTLenString
000078b0 g     F .text	0000002a PMT_IRQHandler
2002476c g     F .ramcode	00000142 netif_set_ipaddr
20020040 g     F .ramcode	00000020 .hidden __riscv_restore_11
000000e2  w      .text	00000000 SPI1_IRQHandler
2002638c g     F .ramcode	00000030 _sbrk_r
00004d34 g     F .text	00000050 tcp_write
20020030 g     F .ramcode	0000000c .hidden __riscv_save_1
000078da g     F .text	0000002a TMR0_IRQHandler
20020054 g     F .ramcode	0000000c .hidden __riscv_restore_0
20026590 g     F .ramcode	00000034 _read_r
20020016 g     F .ramcode	0000001a .hidden __riscv_save_7
000005e4 g     F .text	000002a4 tcp_bind
2002192e g     F .ramcode	00000330 GPIOB_ITModeCfg
20024f68 g     F .ramcode	00000012 icmp_time_exceeded
200204ce g     F .ramcode	00000016 readInt
200244d8 g     F .ramcode	00000294 ip_frag
20021c88 g     F .ramcode	0000002c mDelaymS
000000f0  w      .text	00000000 ECDC_IRQHandler
200208ec g     F .ramcode	0000002a ETH_GPIO_Init
20024a66 g     F .ramcode	0000009a raw_sendto
200265e4 g     F .ramcode	00000010 _isatty
200211bc g     F .ramcode	0000002a ETH_init
200000b4 g     O .data	00000004 _global_impure_ptr
2002004a g     F .ramcode	00000016 .hidden __riscv_restore_5
2000017c g     O .bss	00000001 SocketId
20020000 g       .ramcode	00000000 _ramcode_vma
20026614 g     F .ramcode	00000030 _sbrk
000075f2 g     F .text	000001b0 pbuf_copy
000056d8 g     F .text	000000da tcp_rexmit
20021d4e g     F .ramcode	00000004 LwipTCPPollCallBack
20000cec g     O .bss	00000004 DMATxDescToSet
200210a8 g     F .ramcode	000000b4 ETH_MACDMA_Config
2002004a g     F .ramcode	00000016 .hidden __riscv_restore_6
20000ed0 g     O .bss	00000004 tcp_tmp_pcb
20000ee8 g       .bss	00000000 _ebss
20000180 g     O .bss	000005b4 MyBuf
20029470 g     O .ramcode	0000120c Mem_Heap_Memory
200000d8 g     O .bss	00000004 DHCPcoarseTimer
20000e10 g     O .bss	00000001 SocketNum
20020916 g     F .ramcode	00000032 RGMII_TXC_Delay
20021c5e g     F .ramcode	0000002a Delay_Init
00006052 g     F .text	00000054 mem_init
000000de  w      .text	00000000 DVP_IRQHandler
20020cc0 g     F .ramcode	00000040 Check_TxDes
00004dfe g     F .text	000006d6 tcp_output
000000d0  w      .text	00000000 USBSS_IRQHandler
20026306 g     F .ramcode	00000086 _putc_r
20020976 g     F .ramcode	00000030 ETH_uClock_enable
20000edc g     O .bss	00000004 tcp_input_pcb
20024986 g     F .ramcode	0000008e raw_input
00004d84 g     F .text	0000007a tcp_send_empty_ack
20020008 g     F .ramcode	00000028 .hidden __riscv_save_9
000057b2 g     F .text	000000bc tcp_rexmit_fast
20000e70 g     O .bss	00000034 CH569NetIf
2002a67c g     O .ramcode	00002c73 Memp_Memory
20023df0 g     F .ramcode	0000000a ntohl
20000168 g     O .bss	0000000c globe_eth_status
20020d00 g     F .ramcode	0000000e ETH_SoftwareReset
20026ed4 g     O .ramcode	00000020 __sf_fake_stderr
20020016 g     F .ramcode	0000001a .hidden __riscv_save_4
20024974 g     F .ramcode	0000000a netif_set_default
20020d70 g     F .ramcode	00000054 ETH_WritePHYRegister
00006fdc g     F .text	0000002e udp_recv
20000ee8 g       .bss	00000000 end
20000174 g     O .bss	00000008 Globe_RxDes_status
000000e6  w      .text	00000000 UART2_IRQHandler
200216e2 g     F .ramcode	00000028 register_if_fn
00008000 g       .ramcodelalign	00000000 _ramcode_lma
200201b2 g     F .ramcode	0000015a MQTTSerialize_connect
20023d76 g     F .ramcode	0000003a IPConflictHandle
000071c4 g     F .text	00000266 pbuf_alloc
20023cf2 g     F .ramcode	00000028 SelIPARPSend
20022af0 g     F .ramcode	00000048 CH569NET_QueryGlobalInt
2002222a g     F .ramcode	00000022 MemShortCopy
20021362 g     F .ramcode	00000066 CH569NET_LibInit
20025c74 g     F .ramcode	00000044 __sfputs_r
20021fe4 g     F .ramcode	000001d8 CH569SocketTCPReceive
200203f8 g     F .ramcode	00000034 MQTTPacket_encode
20026572 g     F .ramcode	0000001a memchr
20023e12 g     F .ramcode	0000014a ip_reass_tmr
20000088 g     O .data	00000004 memp_sizes
20025ab2 g     F .ramcode	000000b0 _free_r
20020030 g     F .ramcode	0000000c .hidden __riscv_save_3
00006e86 g     F .text	00000156 udp_connect
20000eb4 g     O .bss	00000004 current_header
20026d94 g     O .ramcode	00000010 ErrTable
200248ae g     F .ramcode	0000005e netif_set_addr
20021310 g     F .ramcode	00000052 DebugInit
00000000 g       .init	00000000 _start
200211e6 g     F .ramcode	000000f0 ETH_MACDMA_reConfig
2002048e g     F .ramcode	0000002e MQTTPacket_len
200265f4 g     F .ramcode	00000010 _lseek
0000649e g     F .text	00000020 memp_malloc
20022a88 g     F .ramcode	00000068 CH569ScokedIntHandle
000058d6 g     F .text	00000128 tcp_zero_window_probe
2002115c g     F .ramcode	00000060 Mac_init
200000d4 g     O .bss	00000004 DHCPTestTimer
200204bc g     F .ramcode	00000012 MQTTPacket_decodeBuf
200214a8 g     F .ramcode	0000005a MQTT_Connect
20000e14 g     O .bss	0000000c KeepLiveCfg
200205f4 g     F .ramcode	0000000e MQTTstrlen
20020956 g     F .ramcode	00000020 ETH_Mem_Malloc
20021478 g     F .ramcode	00000030 Transport_SendPacket
20000ed4 g     O .bss	00000004 tcp_bound_pcbs
20023dcc g     F .ramcode	00000024 htonl
0000099a g     F .text	00000032 tcp_seg_free
000000d6  w      .text	00000000 TMR2_IRQHandler
2002240e g     F .ramcode	00000004 CH569NET_GetVer
200213c8 g     F .ramcode	000000b0 Transport_Open
20022d7c g     F .ramcode	000000ac LwipRemoveTcpPcb
20023bc6 g     F .ramcode	00000106 LwIPPeriodicHandle
200000c4 g     O .bss	00000004 CH569NETConfig
200209a6 g     F .ramcode	0000009a mac_send
20020526 g     F .ramcode	00000038 writeCString
20020d0e g     F .ramcode	0000000a ETH_GetSoftwareResetStatus
00001a9a g     F .text	00000288 tcp_connect
200264ac g     F .ramcode	00000030 _close_r
000062da g     F .text	0000016a mem_malloc
20000000 g       .dalign	00000000 _data_vma
20000e20 g     O .bss	00000044 CH569Inf
20020bb4 g     F .ramcode	00000054 ETH_DMARxDescChainInit
20021cdc g     F .ramcode	00000002 CH569TCPError
200254cc g     F .ramcode	00000110 __swsetup_r
20020d18 g     F .ramcode	00000058 ETH_ReadPHYRegister
200258a8 g     F .ramcode	000000a4 __sfp
000046e2 g     F .text	00000634 tcp_enqueue
00001a62 g     F .text	00000038 tcp_eff_send_mss
20020008 g     F .ramcode	00000028 .hidden __riscv_save_10
20022d18 g     F .ramcode	00000064 CH569FileCorrectTCBPcb
200263bc g     F .ramcode	00000030 __sread
2002658c g     F .ramcode	00000002 __malloc_lock
2002004a g     F .ramcode	00000016 .hidden __riscv_restore_4
20020040 g     F .ramcode	00000020 .hidden __riscv_restore_8
20025718 g     F .ramcode	00000066 _fflush_r
20020016 g     F .ramcode	0000001a .hidden __riscv_save_6
20024a3a g     F .ramcode	00000026 raw_connect
20026ef4 g     O .ramcode	00000020 __sf_fake_stdin
200204f2 g     F .ramcode	0000000e writeChar
20000064 g     O .data	00000004 DESIP
20020060 g     F .ramcode	000000a8 memset
20020040 g     F .ramcode	00000020 .hidden __riscv_restore_9
2002004a g     F .ramcode	00000016 .hidden __riscv_restore_7
2002170a g     F .ramcode	0000012a main
200000e4 g     O .bss	00000004 LocalTime
20024f56 g     F .ramcode	00000012 icmp_dest_unreach
20021d52 g     F .ramcode	0000014c SocketIPRAWReceive
20020948 g     F .ramcode	0000000e Get_TxBuff_Addr
00000a5c g     F .text	0000001c tcp_sent
2002497e g     F .ramcode	00000008 netif_is_up
20026470 g     F .ramcode	00000006 __sclose
2002224c g     F .ramcode	00000048 CH569SocketInit
20023dbe g     F .ramcode	0000000e ntohs
20022e28 g     F .ramcode	00000076 CH569NET_SocketConnect
20025b62 g     F .ramcode	000000e8 _malloc_r
200000e0 g     O .bss	00000004 IPFragTimer
20024b10 g     F .ramcode	00000042 raw_new
20023a44 g     F .ramcode	000000e0 ethernetif_input
20020a40 g     F .ramcode	00000056 mac_rece
200207a6 g     F .ramcode	00000146 cheak_phy_int
2002298e g     F .ramcode	000000fa SocketUdpSend
00006cee g     F .text	00000198 udp_bind
000015b6 g     F .text	00000030 tcp_tmr
200235e6 g     F .ramcode	0000015a etharp_query
20023dfa g     F .ramcode	00000018 lwip_init
20023740 g     F .ramcode	00000188 etharp_output
20021834 g     F .ramcode	000000fa SystemInit
2002529e g     F .ramcode	00000044 iprintf
20022bd6 g     F .ramcode	000000ee SocketTcpSend
20022ed2 g     F .ramcode	00000014 frame_input
00007520 g     F .text	0000002c pbuf_clen
00000000 g       .init	00000000 _sinit
20026476 g     F .ramcode	00000036 _write_r
2002220c g     F .ramcode	0000001e ErrorEncode
00006988 g     F .text	0000003a udp_send
20024a60 g     F .ramcode	00000006 raw_recv
2002042c g     F .ramcode	00000062 MQTTPacket_decode
20026d74 g     O .ramcode	00000010 MemNum
0000781c g     F .text	00000094 ETH_IRQHandler
20025f56 g     F .ramcode	0000010c _printf_common
20000094 g     O .data	00000004 _impure_ptr
200223ee g     F .ramcode	00000020 CH569NET_ConfigLIB
00000bb6 g     F .text	000005de tcp_slowtmr
20022b38 g     F .ramcode	00000012 CH569NET_GetGlobalInt
200255dc g     F .ramcode	0000013c __sflush_r
20000060 g     O .data	00000004 CH569IPAddr
20023a16 g     F .ramcode	0000002e ethernetif_init
20004000 g       .usrstack	00000000 _eusrstack
20020030 g     F .ramcode	0000000c .hidden __riscv_save_2
20022cc4 g     F .ramcode	00000054 CH569NET_SocketSend
2002262a g     F .ramcode	00000044 tcp_recved_socket
20023ccc g     F .ramcode	00000026 IPCheckParaInit
2002d2f0 g       .ramcode	00000000 _eramcode
200259b8 g     F .ramcode	0000005a __swhatbuf_r
20000ed8 g     O .bss	00000004 tcp_tw_pcbs
000064d6 g     F .text	000004b2 udp_input
20020016 g     F .ramcode	0000001a .hidden __riscv_save_5
200000dc g     O .bss	00000004 DHCPfineTimer
2002064a g     F .ramcode	000000a0 MQTTSerialize_subscribe
20021cb4 g     F .ramcode	00000028 _write
200203bc g     F .ramcode	0000003c bufchar
200000b8 g       .data	00000000 _edata
000000ce  w      .text	00000000 SPI0_IRQHandler
20023db0 g     F .ramcode	0000000e htons
000059fe g     F .text	0000006e ip_route
20020602 g     F .ramcode	00000048 MQTTSerialize_subscribeLength
0000794c g       .dlalign	00000000 _data_lma
0000704e g     F .text	000000e8 pbuf_header
000061a0 g     F .text	0000013a mem_realloc
20000ec0 g     O .bss	00000004 netif_default
000011ee g     F .text	0000011a tcp_pcb_remove
2000006c g     O .data	00000004 SubMaskIp
200263ec g     F .ramcode	0000004e __swrite
20022b76 g     F .ramcode	0000003a CH569IPSetSocketRecvInit
000075da g     F .text	00000018 pbuf_chain
20029370 g     O .ramcode	00000100 Mem_ArpTable
20026f70 g     O .ramcode	00002400 MAC_QUEUE
200000d0 g     O .bss	00000004 ARPTimer
000015e6 g     F .text	000001c8 tcp_abandon
20021e9e g     F .ramcode	00000146 SocketUdpReceive
20025cb8 g     F .ramcode	0000029e _vfiprintf_r
20000074 g     O .data	00000006 local_mac
20020b76 g     F .ramcode	0000003e ETH_MACAddressConfig
200221bc g     F .ramcode	00000050 LwipTcpConnectedCallBack
2002594c g     F .ramcode	0000006c _fwalk_reent
20000cf0 g     O .bss	000000f0 SocketInf
00006444 g     F .text	0000005a memp_init
000014c4 g     F .text	000000f2 tcp_fasttmr
2002287a g     F .ramcode	00000114 SocketIPRawSend
20020500 g     F .ramcode	00000026 writeInt
2002030c g     F .ramcode	000000b0 MQTTDeserialize_publish
200212d6 g     F .ramcode	00000034 TMR0_init
20026f14 g     O .ramcode	00000020 __sf_fake_stdout
200232b6 g     F .ramcode	00000058 etharp_ip_input
20022412 g     F .ramcode	00000010 CH569NET_TimeIsr
2002003c g     F .ramcode	00000024 .hidden __riscv_restore_12
000000c8  w      .text	00000000 WDOG_IRQHandler
20021672 g     F .ramcode	00000070 CH569NET_HandleGlobalInt
000000e0  w      .text	00000000 HSPI_IRQHandler
20000e64 g     O .bss	0000000c ethernet_if
20026604 g     F .ramcode	00000010 _read
000000f2  w      .text	00000000 handle_reset
20000734 g     O .bss	000005b4 SocketRecvBuf
20020108 g     F .ramcode	000000aa MQTTSerialize_connectLength
20020030 g     F .ramcode	0000000c .hidden __riscv_save_0
20022e9e g     F .ramcode	0000000a QueryPingEnable
000009f0 g     F .text	00000034 tcp_seg_copy
20025a12 g     F .ramcode	000000a0 __smakebuf_r
20023b24 g     F .ramcode	000000a2 SetupNetif
2002055e g     F .ramcode	00000056 writeMQTTString
00000a94 g     F .text	00000020 tcp_poll
200253fa g     F .ramcode	00000012 strlen
20026062 g     F .ramcode	000002a4 _printf_i
200000bc g     O .bss	00000001 con_flag
0000700a g     F .text	00000044 udp_new
000000e8  w      .text	00000000 UART3_IRQHandler
2000012c g     O .bss	00000004 __malloc_sbrk_start
20000070 g     O .data	00000002 aport
20000068 g     O .data	00000004 GatewayIp
20000098 g     O .data	00000006 ethbroadcast
20026e28 g     O .ramcode	00000014 tcp_backoff
20000128 g     O .bss	00000004 __malloc_free_list
20020054 g     F .ramcode	0000000c .hidden __riscv_restore_1
20025cb8 g     F .ramcode	0000029e _vfprintf_r
000000d4  w      .text	00000000 TMR1_IRQHandler
20021cde g     F .ramcode	00000070 LwipTCPSendCallBack
20022ec6 g     F .ramcode	0000000c LwipArpCheck
000000ea  w      .text	00000000 SERDES_IRQHandler
00003036 g     F .text	00001504 tcp_input
2002266e g     F .ramcode	000001e6 CH569NET_SocketRecv
00001194 g     F .text	0000005a RemoveTimeWaiTCP
00005a6c g     F .text	000003b6 ip_input
200000a0 g     O .data	00000006 ethzero
200265c4 g     F .ramcode	00000010 _close
20022ea8 g     F .ramcode	0000001e LwipUnreachPort
20021502 g     F .ramcode	0000002e MQTT_Subscribe
20020c08 g     F .ramcode	00000068 ETH_DMATxDescChainInit



Disassembly of section .init:

00000000 <_sinit>:
   0:	0f20006f          	j	f2 <handle_reset>

Disassembly of section .vector:

00000004 <_vector_base>:
	...
   c:	0b40006f          	j	c0 <NMI_Handler>
  10:	0f50706f          	j	7904 <HardFault_Handler>
	...
  34:	0900006f          	j	c4 <SysTick_Handler>
  38:	0000                	unimp
  3a:	0000                	unimp
  3c:	08a0006f          	j	c6 <SWI_Handler>
  40:	0000                	unimp
  42:	0000                	unimp
  44:	0840006f          	j	c8 <WDOG_IRQHandler>
  48:	0930706f          	j	78da <TMR0_IRQHandler>
  4c:	7a80706f          	j	77f4 <GPIO_IRQHandler>
  50:	07e0006f          	j	ce <SPI0_IRQHandler>
  54:	07c0006f          	j	d0 <USBSS_IRQHandler>
  58:	07a0006f          	j	d2 <LINK_IRQHandler>
  5c:	0780006f          	j	d4 <TMR1_IRQHandler>
  60:	0760006f          	j	d6 <TMR2_IRQHandler>
  64:	0740006f          	j	d8 <UART0_IRQHandler>
  68:	0720006f          	j	da <USBHS_IRQHandler>
  6c:	0700006f          	j	dc <EMMC_IRQHandler>
  70:	06e0006f          	j	de <DVP_IRQHandler>
  74:	06c0006f          	j	e0 <HSPI_IRQHandler>
  78:	06a0006f          	j	e2 <SPI1_IRQHandler>
  7c:	0680006f          	j	e4 <UART1_IRQHandler>
  80:	0660006f          	j	e6 <UART2_IRQHandler>
  84:	0640006f          	j	e8 <UART3_IRQHandler>
  88:	0620006f          	j	ea <SERDES_IRQHandler>
  8c:	7900706f          	j	781c <ETH_IRQHandler>
  90:	0210706f          	j	78b0 <PMT_IRQHandler>
  94:	05c0006f          	j	f0 <ECDC_IRQHandler>
	...

Disassembly of section .text:

000000c0 <NMI_Handler>:
      c0:	a001                	j	c0 <NMI_Handler>
      c2:	a001                	j	c2 <NMI_Handler+0x2>

000000c4 <SysTick_Handler>:
      c4:	a001                	j	c4 <SysTick_Handler>

000000c6 <SWI_Handler>:
      c6:	a001                	j	c6 <SWI_Handler>

000000c8 <WDOG_IRQHandler>:
      c8:	a001                	j	c8 <WDOG_IRQHandler>
      ca:	a001                	j	ca <WDOG_IRQHandler+0x2>
      cc:	a001                	j	cc <WDOG_IRQHandler+0x4>

000000ce <SPI0_IRQHandler>:
      ce:	a001                	j	ce <SPI0_IRQHandler>

000000d0 <USBSS_IRQHandler>:
      d0:	a001                	j	d0 <USBSS_IRQHandler>

000000d2 <LINK_IRQHandler>:
      d2:	a001                	j	d2 <LINK_IRQHandler>

000000d4 <TMR1_IRQHandler>:
      d4:	a001                	j	d4 <TMR1_IRQHandler>

000000d6 <TMR2_IRQHandler>:
      d6:	a001                	j	d6 <TMR2_IRQHandler>

000000d8 <UART0_IRQHandler>:
      d8:	a001                	j	d8 <UART0_IRQHandler>

000000da <USBHS_IRQHandler>:
      da:	a001                	j	da <USBHS_IRQHandler>

000000dc <EMMC_IRQHandler>:
      dc:	a001                	j	dc <EMMC_IRQHandler>

000000de <DVP_IRQHandler>:
      de:	a001                	j	de <DVP_IRQHandler>

000000e0 <HSPI_IRQHandler>:
      e0:	a001                	j	e0 <HSPI_IRQHandler>

000000e2 <SPI1_IRQHandler>:
      e2:	a001                	j	e2 <SPI1_IRQHandler>

000000e4 <UART1_IRQHandler>:
      e4:	a001                	j	e4 <UART1_IRQHandler>

000000e6 <UART2_IRQHandler>:
      e6:	a001                	j	e6 <UART2_IRQHandler>

000000e8 <UART3_IRQHandler>:
      e8:	a001                	j	e8 <UART3_IRQHandler>

000000ea <SERDES_IRQHandler>:
      ea:	a001                	j	ea <SERDES_IRQHandler>
      ec:	a001                	j	ec <SERDES_IRQHandler+0x2>
      ee:	a001                	j	ee <SERDES_IRQHandler+0x4>

000000f0 <ECDC_IRQHandler>:
      f0:	a001                	j	f0 <ECDC_IRQHandler>

000000f2 <handle_reset>:
      f2:	20000197          	auipc	gp,0x20000
      f6:	76e18193          	addi	gp,gp,1902 # 20000860 <_global_pointer$>
      fa:	20004117          	auipc	sp,0x20004
      fe:	f0610113          	addi	sp,sp,-250 # 20004000 <_eusrstack>
     102:	00008517          	auipc	a0,0x8
     106:	efe50513          	addi	a0,a0,-258 # 8000 <_ramcode_lma>
     10a:	20020597          	auipc	a1,0x20020
     10e:	ef658593          	addi	a1,a1,-266 # 20020000 <__riscv_save_12>
     112:	2002d617          	auipc	a2,0x2002d
     116:	1de60613          	addi	a2,a2,478 # 2002d2f0 <_eramcode>
     11a:	00c5fa63          	bgeu	a1,a2,12e <handle_reset+0x3c>
     11e:	00052283          	lw	t0,0(a0)
     122:	0055a023          	sw	t0,0(a1)
     126:	0511                	addi	a0,a0,4
     128:	0591                	addi	a1,a1,4
     12a:	fec5eae3          	bltu	a1,a2,11e <handle_reset+0x2c>
     12e:	00008517          	auipc	a0,0x8
     132:	81e50513          	addi	a0,a0,-2018 # 794c <_data_lma>
     136:	20000597          	auipc	a1,0x20000
     13a:	eca58593          	addi	a1,a1,-310 # 20000000 <_data_vma>
     13e:	20000617          	auipc	a2,0x20000
     142:	f7a60613          	addi	a2,a2,-134 # 200000b8 <_edata>
     146:	00c5fa63          	bgeu	a1,a2,15a <handle_reset+0x68>
     14a:	00052283          	lw	t0,0(a0)
     14e:	0055a023          	sw	t0,0(a1)
     152:	0511                	addi	a0,a0,4
     154:	0591                	addi	a1,a1,4
     156:	fec5eae3          	bltu	a1,a2,14a <handle_reset+0x58>
     15a:	20000517          	auipc	a0,0x20000
     15e:	f5e50513          	addi	a0,a0,-162 # 200000b8 <_edata>
     162:	20001597          	auipc	a1,0x20001
     166:	d8658593          	addi	a1,a1,-634 # 20000ee8 <_ebss>
     16a:	00b57763          	bgeu	a0,a1,178 <handle_reset+0x86>
     16e:	00052023          	sw	zero,0(a0)
     172:	0511                	addi	a0,a0,4
     174:	feb56de3          	bltu	a0,a1,16e <handle_reset+0x7c>
     178:	08800293          	li	t0,136
     17c:	3002a073          	csrs	mstatus,t0
     180:	00000297          	auipc	t0,0x0
     184:	e8428293          	addi	t0,t0,-380 # 4 <_einit>
     188:	0012e293          	ori	t0,t0,1
     18c:	30529073          	csrw	mtvec,t0
     190:	20021297          	auipc	t0,0x20021
     194:	57a28293          	addi	t0,t0,1402 # 2002170a <main>
     198:	34129073          	csrw	mepc,t0
     19c:	30200073          	mret
     1a0:	00000263          	beqz	zero,1a4 <handle_reset+0xb2>
     1a4:	00350003          	lb	zero,3(a0)
     1a8:	0000                	unimp
     1aa:	0101                	addi	sp,sp,0
     1ac:	000d0efb          	0xd0efb
     1b0:	0101                	addi	sp,sp,0
     1b2:	0101                	addi	sp,sp,0
     1b4:	0000                	unimp
     1b6:	0100                	addi	s0,sp,128
     1b8:	0000                	unimp
     1ba:	2e01                	jal	4ca <handle_reset+0x3d8>
     1bc:	2f2e                	fld	ft10,200(sp)
     1be:	2f435253          	0x2f435253
     1c2:	72617453          	0x72617453
     1c6:	7574                	flw	fa3,108(a0)
     1c8:	0070                	addi	a2,sp,12
     1ca:	7300                	flw	fs0,32(a4)
     1cc:	6174                	flw	fa3,68(a0)
     1ce:	7472                	flw	fs0,60(sp)
     1d0:	7075                	c.lui	zero,0xffffd
     1d2:	435f 3548 7836      	0x78363548435f
     1d8:	532e                	lw	t1,232(sp)
     1da:	0100                	addi	s0,sp,128
     1dc:	0000                	unimp
     1de:	0000                	unimp
     1e0:	0205                	addi	tp,tp,1
     1e2:	0000                	unimp
     1e4:	0000                	unimp
     1e6:	09010c03          	lb	s8,144(sp)
     1ea:	0004                	0x4
     1ec:	0100                	addi	s0,sp,128
     1ee:	0001                	nop
     1f0:	0205                	addi	tp,tp,1
     1f2:	000c                	0xc
     1f4:	0000                	unimp
     1f6:	03011403          	lh	s0,48(sp)
     1fa:	0901                	addi	s2,s2,0
     1fc:	0004                	0x4
     1fe:	0301                	addi	t1,t1,0
     200:	0909                	addi	s2,s2,2
     202:	0024                	addi	s1,sp,8
     204:	0301                	addi	t1,t1,0
     206:	0902                	c.slli64	s2
     208:	0008                	0x8
     20a:	0301                	addi	t1,t1,0
     20c:	00080903          	lb	s2,0(a6)
     210:	0301                	addi	t1,t1,0
     212:	0901                	addi	s2,s2,0
     214:	0004                	0x4
     216:	0301                	addi	t1,t1,0
     218:	0901                	addi	s2,s2,0
     21a:	0004                	0x4
     21c:	0301                	addi	t1,t1,0
     21e:	0901                	addi	s2,s2,0
     220:	0004                	0x4
     222:	0301                	addi	t1,t1,0
     224:	0901                	addi	s2,s2,0
     226:	0004                	0x4
     228:	0301                	addi	t1,t1,0
     22a:	0901                	addi	s2,s2,0
     22c:	0004                	0x4
     22e:	0301                	addi	t1,t1,0
     230:	0901                	addi	s2,s2,0
     232:	0004                	0x4
     234:	0301                	addi	t1,t1,0
     236:	0901                	addi	s2,s2,0
     238:	0004                	0x4
     23a:	0301                	addi	t1,t1,0
     23c:	0901                	addi	s2,s2,0
     23e:	0004                	0x4
     240:	0301                	addi	t1,t1,0
     242:	0901                	addi	s2,s2,0
     244:	0004                	0x4
     246:	0301                	addi	t1,t1,0
     248:	0901                	addi	s2,s2,0
     24a:	0004                	0x4
     24c:	0301                	addi	t1,t1,0
     24e:	0901                	addi	s2,s2,0
     250:	0004                	0x4
     252:	0301                	addi	t1,t1,0
     254:	0901                	addi	s2,s2,0
     256:	0004                	0x4
     258:	0301                	addi	t1,t1,0
     25a:	0901                	addi	s2,s2,0
     25c:	0004                	0x4
     25e:	0301                	addi	t1,t1,0
     260:	0901                	addi	s2,s2,0
     262:	0004                	0x4
     264:	0301                	addi	t1,t1,0
     266:	0901                	addi	s2,s2,0
     268:	0004                	0x4
     26a:	0301                	addi	t1,t1,0
     26c:	0901                	addi	s2,s2,0
     26e:	0004                	0x4
     270:	0301                	addi	t1,t1,0
     272:	0901                	addi	s2,s2,0
     274:	0004                	0x4
     276:	0301                	addi	t1,t1,0
     278:	0901                	addi	s2,s2,0
     27a:	0004                	0x4
     27c:	0301                	addi	t1,t1,0
     27e:	0901                	addi	s2,s2,0
     280:	0004                	0x4
     282:	0301                	addi	t1,t1,0
     284:	0901                	addi	s2,s2,0
     286:	0004                	0x4
     288:	0901                	addi	s2,s2,0
     28a:	0004                	0x4
     28c:	0100                	addi	s0,sp,128
     28e:	0001                	nop
     290:	0205                	addi	tp,tp,1
     292:	00c0                	addi	s0,sp,68
     294:	0000                	unimp
     296:	0100d603          	lhu	a2,16(ra)
     29a:	02090103          	lb	sp,32(s2)
     29e:	0100                	addi	s0,sp,128
     2a0:	02090103          	lb	sp,32(s2)
     2a4:	0100                	addi	s0,sp,128
     2a6:	02090103          	lb	sp,32(s2)
     2aa:	0100                	addi	s0,sp,128
     2ac:	02090103          	lb	sp,32(s2)
     2b0:	0100                	addi	s0,sp,128
     2b2:	02090103          	lb	sp,32(s2)
     2b6:	0100                	addi	s0,sp,128
     2b8:	02090103          	lb	sp,32(s2)
     2bc:	0100                	addi	s0,sp,128
     2be:	02090103          	lb	sp,32(s2)
     2c2:	0100                	addi	s0,sp,128
     2c4:	02090103          	lb	sp,32(s2)
     2c8:	0100                	addi	s0,sp,128
     2ca:	02090103          	lb	sp,32(s2)
     2ce:	0100                	addi	s0,sp,128
     2d0:	02090103          	lb	sp,32(s2)
     2d4:	0100                	addi	s0,sp,128
     2d6:	02090103          	lb	sp,32(s2)
     2da:	0100                	addi	s0,sp,128
     2dc:	02090103          	lb	sp,32(s2)
     2e0:	0100                	addi	s0,sp,128
     2e2:	02090103          	lb	sp,32(s2)
     2e6:	0100                	addi	s0,sp,128
     2e8:	02090103          	lb	sp,32(s2)
     2ec:	0100                	addi	s0,sp,128
     2ee:	02090103          	lb	sp,32(s2)
     2f2:	0100                	addi	s0,sp,128
     2f4:	02090103          	lb	sp,32(s2)
     2f8:	0100                	addi	s0,sp,128
     2fa:	02090103          	lb	sp,32(s2)
     2fe:	0100                	addi	s0,sp,128
     300:	02090103          	lb	sp,32(s2)
     304:	0100                	addi	s0,sp,128
     306:	02090103          	lb	sp,32(s2)
     30a:	0100                	addi	s0,sp,128
     30c:	02090103          	lb	sp,32(s2)
     310:	0100                	addi	s0,sp,128
     312:	02090103          	lb	sp,32(s2)
     316:	0100                	addi	s0,sp,128
     318:	02090103          	lb	sp,32(s2)
     31c:	0100                	addi	s0,sp,128
     31e:	02090103          	lb	sp,32(s2)
     322:	0100                	addi	s0,sp,128
     324:	02090103          	lb	sp,32(s2)
     328:	0100                	addi	s0,sp,128
     32a:	0209                	addi	tp,tp,2
     32c:	0000                	unimp
     32e:	0101                	addi	sp,sp,0
     330:	0500                	addi	s0,sp,640
     332:	f202                	fsw	ft0,36(sp)
     334:	0000                	unimp
     336:	0300                	addi	s0,sp,384
     338:	00f6                	slli	ra,ra,0x1d
     33a:	0301                	addi	t1,t1,0
     33c:	00080903          	lb	s2,0(a6)
     340:	0301                	addi	t1,t1,0
     342:	00080903          	lb	s2,0(a6)
     346:	0301                	addi	t1,t1,0
     348:	0901                	addi	s2,s2,0
     34a:	0008                	0x8
     34c:	0301                	addi	t1,t1,0
     34e:	0901                	addi	s2,s2,0
     350:	0008                	0x8
     352:	0301                	addi	t1,t1,0
     354:	0901                	addi	s2,s2,0
     356:	0008                	0x8
     358:	0301                	addi	t1,t1,0
     35a:	0902                	c.slli64	s2
     35c:	0004                	0x4
     35e:	0301                	addi	t1,t1,0
     360:	0901                	addi	s2,s2,0
     362:	0004                	0x4
     364:	0301                	addi	t1,t1,0
     366:	0901                	addi	s2,s2,0
     368:	0004                	0x4
     36a:	0301                	addi	t1,t1,0
     36c:	0901                	addi	s2,s2,0
     36e:	0002                	c.slli64	zero
     370:	0301                	addi	t1,t1,0
     372:	0901                	addi	s2,s2,0
     374:	0002                	c.slli64	zero
     376:	0301                	addi	t1,t1,0
     378:	0904                	addi	s1,sp,144
     37a:	0004                	0x4
     37c:	0301                	addi	t1,t1,0
     37e:	0901                	addi	s2,s2,0
     380:	0008                	0x8
     382:	0301                	addi	t1,t1,0
     384:	0901                	addi	s2,s2,0
     386:	0008                	0x8
     388:	0301                	addi	t1,t1,0
     38a:	0901                	addi	s2,s2,0
     38c:	0008                	0x8
     38e:	0301                	addi	t1,t1,0
     390:	0902                	c.slli64	s2
     392:	0004                	0x4
     394:	0301                	addi	t1,t1,0
     396:	0901                	addi	s2,s2,0
     398:	0004                	0x4
     39a:	0301                	addi	t1,t1,0
     39c:	0901                	addi	s2,s2,0
     39e:	0004                	0x4
     3a0:	0301                	addi	t1,t1,0
     3a2:	0901                	addi	s2,s2,0
     3a4:	0002                	c.slli64	zero
     3a6:	0301                	addi	t1,t1,0
     3a8:	0901                	addi	s2,s2,0
     3aa:	0002                	c.slli64	zero
     3ac:	0301                	addi	t1,t1,0
     3ae:	00040903          	lb	s2,0(s0)
     3b2:	0301                	addi	t1,t1,0
     3b4:	0901                	addi	s2,s2,0
     3b6:	0008                	0x8
     3b8:	0301                	addi	t1,t1,0
     3ba:	0901                	addi	s2,s2,0
     3bc:	0008                	0x8
     3be:	0301                	addi	t1,t1,0
     3c0:	0902                	c.slli64	s2
     3c2:	0004                	0x4
     3c4:	0301                	addi	t1,t1,0
     3c6:	0901                	addi	s2,s2,0
     3c8:	0004                	0x4
     3ca:	0301                	addi	t1,t1,0
     3cc:	0901                	addi	s2,s2,0
     3ce:	0002                	c.slli64	zero
     3d0:	0301                	addi	t1,t1,0
     3d2:	0904                	addi	s1,sp,144
     3d4:	0004                	0x4
     3d6:	0301                	addi	t1,t1,0
     3d8:	0901                	addi	s2,s2,0
     3da:	0004                	0x4
     3dc:	0301                	addi	t1,t1,0
     3de:	0901                	addi	s2,s2,0
     3e0:	0004                	0x4
     3e2:	0301                	addi	t1,t1,0
     3e4:	0901                	addi	s2,s2,0
     3e6:	0008                	0x8
     3e8:	0301                	addi	t1,t1,0
     3ea:	0901                	addi	s2,s2,0
     3ec:	0004                	0x4
     3ee:	0301                	addi	t1,t1,0
     3f0:	0901                	addi	s2,s2,0
     3f2:	0004                	0x4
     3f4:	0301                	addi	t1,t1,0
     3f6:	0901                	addi	s2,s2,0
     3f8:	0008                	0x8
     3fa:	0301                	addi	t1,t1,0
     3fc:	00040903          	lb	s2,0(s0)
     400:	0901                	addi	s2,s2,0
     402:	0004                	0x4
     404:	0100                	addi	s0,sp,128
     406:	1e01                	addi	t3,t3,-32
     408:	0000                	unimp
     40a:	0200                	addi	s0,sp,256
     40c:	2900                	fld	fs0,16(a0)
     40e:	0004                	0x4
     410:	0400                	addi	s0,sp,512
     412:	a001                	j	412 <handle_reset+0x320>
     414:	0001                	nop
     416:	d800                	sw	s0,48(s0)
     418:	0004                	0x4
     41a:	7800                	flw	fs0,48(s0)
     41c:	0004                	0x4
     41e:	9700                	0x9700
     420:	0004                	0x4
     422:	c500                	sw	s0,8(a0)
     424:	0004                	0x4
     426:	0100                	addi	s0,sp,128
     428:	0180                	addi	s0,sp,192
     42a:	0011                	c.nop	4
     42c:	0610                	addi	a2,sp,768
     42e:	0655                	addi	a2,a2,21
     430:	0e1b0e03          	lb	t3,225(s6)
     434:	0e25                	addi	t3,t3,9
     436:	00000513          	li	a0,0
     43a:	0000                	unimp
     43c:	0000                	unimp
     43e:	0000                	unimp
     440:	0034                	addi	a3,sp,8
     442:	0000                	unimp
     444:	0002                	c.slli64	zero
     446:	00000407          	0x407
     44a:	0004                	0x4
	...
     454:	0004                	0x4
     456:	0000                	unimp
     458:	0004                	0x4
     45a:	0000                	unimp
     45c:	0094                	addi	a3,sp,64
     45e:	0000                	unimp
     460:	00c0                	addi	s0,sp,68
     462:	0000                	unimp
     464:	0032                	c.slli	zero,0xc
     466:	0000                	unimp
     468:	00f2                	slli	ra,ra,0x1c
     46a:	0000                	unimp
     46c:	00ae                	slli	ra,ra,0xb
	...
     476:	0000                	unimp
     478:	2e2e                	fld	ft8,200(sp)
     47a:	4352532f          	0x4352532f
     47e:	6174532f          	0x6174532f
     482:	7472                	flw	fs0,60(sp)
     484:	7075                	c.lui	zero,0xffffd
     486:	6174732f          	0x6174732f
     48a:	7472                	flw	fs0,60(sp)
     48c:	7075                	c.lui	zero,0xffffd
     48e:	435f 3548 7836      	0x78363548435f
     494:	532e                	lw	t1,232(sp)
     496:	4500                	lw	s0,8(a0)
     498:	5c3a                	lw	s8,172(sp)
     49a:	cfc1cad7          	0xcfc1cad7
     49e:	435c                	lw	a5,4(a4)
     4a0:	3548                	fld	fa0,168(a0)
     4a2:	3936                	fld	fs2,360(sp)
     4a4:	435c                	lw	a5,4(a4)
     4a6:	3548                	fld	fa0,168(a0)
     4a8:	3936                	fld	fs2,360(sp)
     4aa:	f8cd                	bnez	s1,45c <handle_reset+0x36a>
     4ac:	e7c2                	fsw	fa6,204(sp)
     4ae:	fdc0                	fsw	fs0,60(a1)
     4b0:	4d5cccb3          	0x4d5cccb3
     4b4:	5451                	li	s0,-12
     4b6:	5c54                	lw	a3,60(s0)
     4b8:	514d                	li	sp,-13
     4ba:	5454                	lw	a3,44(s0)
     4bc:	535f 4255 6f5c      	0x6f5c4255535f
     4c2:	6a62                	flw	fs4,24(sp)
     4c4:	4700                	lw	s0,8(a4)
     4c6:	554e                	lw	a0,240(sp)
     4c8:	4120                	lw	s0,64(a0)
     4ca:	2e322053          	0x2e322053
     4ce:	00003233          	snez	tp,zero
     4d2:	0000                	unimp
     4d4:	0000                	unimp
     4d6:	0000                	unimp
     4d8:	ffff                	0xffff
     4da:	ffff                	0xffff
	...
     4e4:	0004                	0x4
     4e6:	0000                	unimp
     4e8:	0004                	0x4
     4ea:	0000                	unimp
     4ec:	0098                	addi	a4,sp,64
     4ee:	0000                	unimp
     4f0:	00c0                	addi	s0,sp,68
     4f2:	0000                	unimp
     4f4:	00f2                	slli	ra,ra,0x1c
     4f6:	0000                	unimp
     4f8:	00f2                	slli	ra,ra,0x1c
     4fa:	0000                	unimp
     4fc:	01a0                	addi	s0,sp,200
	...

00000508 <tcp_new_port>:
     508:	20001797          	auipc	a5,0x20001
     50c:	9bc78793          	addi	a5,a5,-1604 # 20000ec4 <tcp_active_pcbs>
     510:	4390                	lw	a2,0(a5)
     512:	20001797          	auipc	a5,0x20001
     516:	9c678793          	addi	a5,a5,-1594 # 20000ed8 <tcp_tw_pcbs>
     51a:	438c                	lw	a1,0(a5)
     51c:	20001797          	auipc	a5,0x20001
     520:	9b078793          	addi	a5,a5,-1616 # 20000ecc <tcp_listen_pcbs>
     524:	0007a803          	lw	a6,0(a5)
     528:	20000517          	auipc	a0,0x20000
     52c:	b6855503          	lhu	a0,-1176(a0) # 20000090 <port.3573>
     530:	00150793          	addi	a5,a0,1
     534:	01079513          	slli	a0,a5,0x10
     538:	01079713          	slli	a4,a5,0x10
     53c:	8141                	srli	a0,a0,0x10
     53e:	00075363          	bgez	a4,544 <tcp_new_port+0x3c>
     542:	6505                	lui	a0,0x1
     544:	87b2                	mv	a5,a2
     546:	eb91                	bnez	a5,55a <tcp_new_port+0x52>
     548:	87ae                	mv	a5,a1
     54a:	ef9d                	bnez	a5,588 <tcp_new_port+0x80>
     54c:	87c2                	mv	a5,a6
     54e:	e7a5                	bnez	a5,5b6 <tcp_new_port+0xae>
     550:	20000797          	auipc	a5,0x20000
     554:	b4a79023          	sh	a0,-1216(a5) # 20000090 <port.3573>
     558:	8082                	ret
     55a:	01a7c703          	lbu	a4,26(a5)
     55e:	0197c683          	lbu	a3,25(a5)
     562:	0722                	slli	a4,a4,0x8
     564:	8f55                	or	a4,a4,a3
     566:	fca705e3          	beq	a4,a0,530 <tcp_new_port+0x28>
     56a:	00d7c703          	lbu	a4,13(a5)
     56e:	00c7c683          	lbu	a3,12(a5)
     572:	0722                	slli	a4,a4,0x8
     574:	8ed9                	or	a3,a3,a4
     576:	00e7c703          	lbu	a4,14(a5)
     57a:	00f7c783          	lbu	a5,15(a5)
     57e:	0742                	slli	a4,a4,0x10
     580:	8f55                	or	a4,a4,a3
     582:	07e2                	slli	a5,a5,0x18
     584:	8fd9                	or	a5,a5,a4
     586:	b7c1                	j	546 <tcp_new_port+0x3e>
     588:	01a7c703          	lbu	a4,26(a5)
     58c:	0197c683          	lbu	a3,25(a5)
     590:	0722                	slli	a4,a4,0x8
     592:	8f55                	or	a4,a4,a3
     594:	f8a70ee3          	beq	a4,a0,530 <tcp_new_port+0x28>
     598:	00d7c703          	lbu	a4,13(a5)
     59c:	00c7c683          	lbu	a3,12(a5)
     5a0:	0722                	slli	a4,a4,0x8
     5a2:	8ed9                	or	a3,a3,a4
     5a4:	00e7c703          	lbu	a4,14(a5)
     5a8:	00f7c783          	lbu	a5,15(a5)
     5ac:	0742                	slli	a4,a4,0x10
     5ae:	8f55                	or	a4,a4,a3
     5b0:	07e2                	slli	a5,a5,0x18
     5b2:	8fd9                	or	a5,a5,a4
     5b4:	bf59                	j	54a <tcp_new_port+0x42>
     5b6:	01a7c703          	lbu	a4,26(a5)
     5ba:	0197c683          	lbu	a3,25(a5)
     5be:	0722                	slli	a4,a4,0x8
     5c0:	8f55                	or	a4,a4,a3
     5c2:	f6a707e3          	beq	a4,a0,530 <tcp_new_port+0x28>
     5c6:	00d7c703          	lbu	a4,13(a5)
     5ca:	00c7c683          	lbu	a3,12(a5)
     5ce:	0722                	slli	a4,a4,0x8
     5d0:	8ed9                	or	a3,a3,a4
     5d2:	00e7c703          	lbu	a4,14(a5)
     5d6:	00f7c783          	lbu	a5,15(a5)
     5da:	0742                	slli	a4,a4,0x10
     5dc:	8f55                	or	a4,a4,a3
     5de:	07e2                	slli	a5,a5,0x18
     5e0:	8fd9                	or	a5,a5,a4
     5e2:	b7b5                	j	54e <tcp_new_port+0x46>

000005e4 <tcp_bind>:
     5e4:	01154703          	lbu	a4,17(a0) # 1011 <tcp_slowtmr+0x45b>
     5e8:	01054783          	lbu	a5,16(a0)
     5ec:	0722                	slli	a4,a4,0x8
     5ee:	8f5d                	or	a4,a4,a5
     5f0:	01254783          	lbu	a5,18(a0)
     5f4:	07c2                	slli	a5,a5,0x10
     5f6:	8f5d                	or	a4,a4,a5
     5f8:	01354783          	lbu	a5,19(a0)
     5fc:	07e2                	slli	a5,a5,0x18
     5fe:	8fd9                	or	a5,a5,a4
     600:	28079063          	bnez	a5,880 <__stack_size+0x80>
     604:	20020317          	auipc	t1,0x20020
     608:	a2c302e7          	jalr	t0,-1492(t1) # 20020030 <__riscv_save_0>
     60c:	1141                	addi	sp,sp,-16
     60e:	842a                	mv	s0,a0
     610:	84b2                	mv	s1,a2
     612:	e609                	bnez	a2,61c <tcp_bind+0x38>
     614:	c62e                	sw	a1,12(sp)
     616:	3dcd                	jal	508 <tcp_new_port>
     618:	45b2                	lw	a1,12(sp)
     61a:	84aa                	mv	s1,a0
     61c:	20001797          	auipc	a5,0x20001
     620:	8b078793          	addi	a5,a5,-1872 # 20000ecc <tcp_listen_pcbs>
     624:	439c                	lw	a5,0(a5)
     626:	ebd1                	bnez	a5,6ba <tcp_bind+0xd6>
     628:	20001797          	auipc	a5,0x20001
     62c:	89c78793          	addi	a5,a5,-1892 # 20000ec4 <tcp_active_pcbs>
     630:	439c                	lw	a5,0(a5)
     632:	effd                	bnez	a5,730 <tcp_bind+0x14c>
     634:	20001797          	auipc	a5,0x20001
     638:	8a078793          	addi	a5,a5,-1888 # 20000ed4 <tcp_bound_pcbs>
     63c:	0007a903          	lw	s2,0(a5)
     640:	87ca                	mv	a5,s2
     642:	16079263          	bnez	a5,7a6 <tcp_bind+0x1c2>
     646:	20001797          	auipc	a5,0x20001
     64a:	89278793          	addi	a5,a5,-1902 # 20000ed8 <tcp_tw_pcbs>
     64e:	439c                	lw	a5,0(a5)
     650:	1c079363          	bnez	a5,816 <__stack_size+0x16>
     654:	c595                	beqz	a1,680 <tcp_bind+0x9c>
     656:	0015c703          	lbu	a4,1(a1)
     65a:	0005c783          	lbu	a5,0(a1)
     65e:	0722                	slli	a4,a4,0x8
     660:	8f5d                	or	a4,a4,a5
     662:	0025c783          	lbu	a5,2(a1)
     666:	07c2                	slli	a5,a5,0x10
     668:	8f5d                	or	a4,a4,a5
     66a:	0035c783          	lbu	a5,3(a1)
     66e:	07e2                	slli	a5,a5,0x18
     670:	8fd9                	or	a5,a5,a4
     672:	c799                	beqz	a5,680 <tcp_bind+0x9c>
     674:	4611                	li	a2,4
     676:	8522                	mv	a0,s0
     678:	20025097          	auipc	ra,0x20025
     67c:	b70080e7          	jalr	-1168(ra) # 200251e8 <memcpy>
     680:	00895793          	srli	a5,s2,0x8
     684:	00940ca3          	sb	s1,25(s0)
     688:	01240623          	sb	s2,12(s0)
     68c:	80a1                	srli	s1,s1,0x8
     68e:	00f406a3          	sb	a5,13(s0)
     692:	01095793          	srli	a5,s2,0x10
     696:	01895913          	srli	s2,s2,0x18
     69a:	00f40723          	sb	a5,14(s0)
     69e:	00940d23          	sb	s1,26(s0)
     6a2:	012407a3          	sb	s2,15(s0)
     6a6:	20001797          	auipc	a5,0x20001
     6aa:	8287a723          	sw	s0,-2002(a5) # 20000ed4 <tcp_bound_pcbs>
     6ae:	4501                	li	a0,0
     6b0:	0141                	addi	sp,sp,16
     6b2:	20020317          	auipc	t1,0x20020
     6b6:	9a230067          	jr	-1630(t1) # 20020054 <__riscv_restore_0>
     6ba:	01a7c703          	lbu	a4,26(a5)
     6be:	0197c683          	lbu	a3,25(a5)
     6c2:	0722                	slli	a4,a4,0x8
     6c4:	8f55                	or	a4,a4,a3
     6c6:	04971663          	bne	a4,s1,712 <tcp_bind+0x12e>
     6ca:	0017c703          	lbu	a4,1(a5)
     6ce:	0007c683          	lbu	a3,0(a5)
     6d2:	0722                	slli	a4,a4,0x8
     6d4:	8f55                	or	a4,a4,a3
     6d6:	0027c683          	lbu	a3,2(a5)
     6da:	06c2                	slli	a3,a3,0x10
     6dc:	8f55                	or	a4,a4,a3
     6de:	0037c683          	lbu	a3,3(a5)
     6e2:	06e2                	slli	a3,a3,0x18
     6e4:	8ed9                	or	a3,a3,a4
     6e6:	18068f63          	beqz	a3,884 <__stack_size+0x84>
     6ea:	18058d63          	beqz	a1,884 <__stack_size+0x84>
     6ee:	0015c603          	lbu	a2,1(a1)
     6f2:	0005c703          	lbu	a4,0(a1)
     6f6:	0622                	slli	a2,a2,0x8
     6f8:	8e59                	or	a2,a2,a4
     6fa:	0025c703          	lbu	a4,2(a1)
     6fe:	0742                	slli	a4,a4,0x10
     700:	8e59                	or	a2,a2,a4
     702:	0035c703          	lbu	a4,3(a1)
     706:	0762                	slli	a4,a4,0x18
     708:	8f51                	or	a4,a4,a2
     70a:	16070d63          	beqz	a4,884 <__stack_size+0x84>
     70e:	16e68b63          	beq	a3,a4,884 <__stack_size+0x84>
     712:	00d7c703          	lbu	a4,13(a5)
     716:	00c7c683          	lbu	a3,12(a5)
     71a:	0722                	slli	a4,a4,0x8
     71c:	8ed9                	or	a3,a3,a4
     71e:	00e7c703          	lbu	a4,14(a5)
     722:	00f7c783          	lbu	a5,15(a5)
     726:	0742                	slli	a4,a4,0x10
     728:	8f55                	or	a4,a4,a3
     72a:	07e2                	slli	a5,a5,0x18
     72c:	8fd9                	or	a5,a5,a4
     72e:	bde5                	j	626 <tcp_bind+0x42>
     730:	01a7c703          	lbu	a4,26(a5)
     734:	0197c683          	lbu	a3,25(a5)
     738:	0722                	slli	a4,a4,0x8
     73a:	8f55                	or	a4,a4,a3
     73c:	04971663          	bne	a4,s1,788 <tcp_bind+0x1a4>
     740:	0017c703          	lbu	a4,1(a5)
     744:	0007c683          	lbu	a3,0(a5)
     748:	0722                	slli	a4,a4,0x8
     74a:	8f55                	or	a4,a4,a3
     74c:	0027c683          	lbu	a3,2(a5)
     750:	06c2                	slli	a3,a3,0x10
     752:	8f55                	or	a4,a4,a3
     754:	0037c683          	lbu	a3,3(a5)
     758:	06e2                	slli	a3,a3,0x18
     75a:	8ed9                	or	a3,a3,a4
     75c:	12068463          	beqz	a3,884 <__stack_size+0x84>
     760:	12058263          	beqz	a1,884 <__stack_size+0x84>
     764:	0015c603          	lbu	a2,1(a1)
     768:	0005c703          	lbu	a4,0(a1)
     76c:	0622                	slli	a2,a2,0x8
     76e:	8e59                	or	a2,a2,a4
     770:	0025c703          	lbu	a4,2(a1)
     774:	0742                	slli	a4,a4,0x10
     776:	8e59                	or	a2,a2,a4
     778:	0035c703          	lbu	a4,3(a1)
     77c:	0762                	slli	a4,a4,0x18
     77e:	8f51                	or	a4,a4,a2
     780:	10070263          	beqz	a4,884 <__stack_size+0x84>
     784:	10e68063          	beq	a3,a4,884 <__stack_size+0x84>
     788:	00d7c703          	lbu	a4,13(a5)
     78c:	00c7c683          	lbu	a3,12(a5)
     790:	0722                	slli	a4,a4,0x8
     792:	8ed9                	or	a3,a3,a4
     794:	00e7c703          	lbu	a4,14(a5)
     798:	00f7c783          	lbu	a5,15(a5)
     79c:	0742                	slli	a4,a4,0x10
     79e:	8f55                	or	a4,a4,a3
     7a0:	07e2                	slli	a5,a5,0x18
     7a2:	8fd9                	or	a5,a5,a4
     7a4:	b579                	j	632 <tcp_bind+0x4e>
     7a6:	01a7c703          	lbu	a4,26(a5)
     7aa:	0197c683          	lbu	a3,25(a5)
     7ae:	0722                	slli	a4,a4,0x8
     7b0:	8f55                	or	a4,a4,a3
     7b2:	04971363          	bne	a4,s1,7f8 <tcp_bind+0x214>
     7b6:	0017c703          	lbu	a4,1(a5)
     7ba:	0007c683          	lbu	a3,0(a5)
     7be:	0722                	slli	a4,a4,0x8
     7c0:	8f55                	or	a4,a4,a3
     7c2:	0027c683          	lbu	a3,2(a5)
     7c6:	06c2                	slli	a3,a3,0x10
     7c8:	8f55                	or	a4,a4,a3
     7ca:	0037c683          	lbu	a3,3(a5)
     7ce:	06e2                	slli	a3,a3,0x18
     7d0:	8ed9                	or	a3,a3,a4
     7d2:	cacd                	beqz	a3,884 <__stack_size+0x84>
     7d4:	c9c5                	beqz	a1,884 <__stack_size+0x84>
     7d6:	0015c603          	lbu	a2,1(a1)
     7da:	0005c703          	lbu	a4,0(a1)
     7de:	0622                	slli	a2,a2,0x8
     7e0:	8e59                	or	a2,a2,a4
     7e2:	0025c703          	lbu	a4,2(a1)
     7e6:	0742                	slli	a4,a4,0x10
     7e8:	8e59                	or	a2,a2,a4
     7ea:	0035c703          	lbu	a4,3(a1)
     7ee:	0762                	slli	a4,a4,0x18
     7f0:	8f51                	or	a4,a4,a2
     7f2:	cb49                	beqz	a4,884 <__stack_size+0x84>
     7f4:	08e68863          	beq	a3,a4,884 <__stack_size+0x84>
     7f8:	00d7c703          	lbu	a4,13(a5)
     7fc:	00c7c683          	lbu	a3,12(a5)
     800:	0722                	slli	a4,a4,0x8
     802:	8ed9                	or	a3,a3,a4
     804:	00e7c703          	lbu	a4,14(a5)
     808:	00f7c783          	lbu	a5,15(a5)
     80c:	0742                	slli	a4,a4,0x10
     80e:	8f55                	or	a4,a4,a3
     810:	07e2                	slli	a5,a5,0x18
     812:	8fd9                	or	a5,a5,a4
     814:	b53d                	j	642 <tcp_bind+0x5e>
     816:	01a7c703          	lbu	a4,26(a5)
     81a:	0197c683          	lbu	a3,25(a5)
     81e:	0722                	slli	a4,a4,0x8
     820:	8f55                	or	a4,a4,a3
     822:	04971063          	bne	a4,s1,862 <__stack_size+0x62>
     826:	0017c703          	lbu	a4,1(a5)
     82a:	0007c683          	lbu	a3,0(a5)
     82e:	0015c603          	lbu	a2,1(a1)
     832:	0722                	slli	a4,a4,0x8
     834:	8f55                	or	a4,a4,a3
     836:	0027c683          	lbu	a3,2(a5)
     83a:	0622                	slli	a2,a2,0x8
     83c:	06c2                	slli	a3,a3,0x10
     83e:	8f55                	or	a4,a4,a3
     840:	0037c683          	lbu	a3,3(a5)
     844:	06e2                	slli	a3,a3,0x18
     846:	8ed9                	or	a3,a3,a4
     848:	0005c703          	lbu	a4,0(a1)
     84c:	8e59                	or	a2,a2,a4
     84e:	0025c703          	lbu	a4,2(a1)
     852:	0742                	slli	a4,a4,0x10
     854:	8e59                	or	a2,a2,a4
     856:	0035c703          	lbu	a4,3(a1)
     85a:	0762                	slli	a4,a4,0x18
     85c:	8f51                	or	a4,a4,a2
     85e:	02e68363          	beq	a3,a4,884 <__stack_size+0x84>
     862:	00d7c703          	lbu	a4,13(a5)
     866:	00c7c683          	lbu	a3,12(a5)
     86a:	0722                	slli	a4,a4,0x8
     86c:	8ed9                	or	a3,a3,a4
     86e:	00e7c703          	lbu	a4,14(a5)
     872:	00f7c783          	lbu	a5,15(a5)
     876:	0742                	slli	a4,a4,0x10
     878:	8f55                	or	a4,a4,a3
     87a:	07e2                	slli	a5,a5,0x18
     87c:	8fd9                	or	a5,a5,a4
     87e:	bbc9                	j	650 <tcp_bind+0x6c>
     880:	554d                	li	a0,-13
     882:	8082                	ret
     884:	5555                	li	a0,-11
     886:	b52d                	j	6b0 <tcp_bind+0xcc>

00000888 <tcp_update_rcv_ann_wnd>:
     888:	02354583          	lbu	a1,35(a0)
     88c:	02254703          	lbu	a4,34(a0)
     890:	02754603          	lbu	a2,39(a0)
     894:	05a2                	slli	a1,a1,0x8
     896:	8f4d                	or	a4,a4,a1
     898:	02454583          	lbu	a1,36(a0)
     89c:	0622                	slli	a2,a2,0x8
     89e:	02a54683          	lbu	a3,42(a0)
     8a2:	05c2                	slli	a1,a1,0x10
     8a4:	8dd9                	or	a1,a1,a4
     8a6:	02554703          	lbu	a4,37(a0)
     8aa:	87aa                	mv	a5,a0
     8ac:	0377c803          	lbu	a6,55(a5)
     8b0:	0762                	slli	a4,a4,0x18
     8b2:	8dd9                	or	a1,a1,a4
     8b4:	02654703          	lbu	a4,38(a0)
     8b8:	0367c883          	lbu	a7,54(a5)
     8bc:	0822                	slli	a6,a6,0x8
     8be:	8e59                	or	a2,a2,a4
     8c0:	02b54703          	lbu	a4,43(a0)
     8c4:	01186833          	or	a6,a6,a7
     8c8:	0722                	slli	a4,a4,0x8
     8ca:	8ed9                	or	a3,a3,a4
     8cc:	02c54703          	lbu	a4,44(a0)
     8d0:	0742                	slli	a4,a4,0x10
     8d2:	8f55                	or	a4,a4,a3
     8d4:	02d54683          	lbu	a3,45(a0)
     8d8:	06e2                	slli	a3,a3,0x18
     8da:	8f55                	or	a4,a4,a3
     8dc:	20000697          	auipc	a3,0x20000
     8e0:	50868693          	addi	a3,a3,1288 # 20000de4 <CH569Cfg>
     8e4:	42d4                	lw	a3,4(a3)
     8e6:	40e60533          	sub	a0,a2,a4
     8ea:	952e                	add	a0,a0,a1
     8ec:	8285                	srli	a3,a3,0x1
     8ee:	00d87363          	bgeu	a6,a3,8f4 <tcp_update_rcv_ann_wnd+0x6c>
     8f2:	86c2                	mv	a3,a6
     8f4:	40d506b3          	sub	a3,a0,a3
     8f8:	0006c863          	bltz	a3,908 <tcp_update_rcv_ann_wnd+0x80>
     8fc:	02c78423          	sb	a2,40(a5)
     900:	8221                	srli	a2,a2,0x8
     902:	02c784a3          	sb	a2,41(a5)
     906:	8082                	ret
     908:	40e586b3          	sub	a3,a1,a4
     90c:	00d05863          	blez	a3,91c <tcp_update_rcv_ann_wnd+0x94>
     910:	02078423          	sb	zero,40(a5)
     914:	020784a3          	sb	zero,41(a5)
     918:	4501                	li	a0,0
     91a:	8082                	ret
     91c:	8f0d                	sub	a4,a4,a1
     91e:	0742                	slli	a4,a4,0x10
     920:	8341                	srli	a4,a4,0x10
     922:	02e78423          	sb	a4,40(a5)
     926:	8321                	srli	a4,a4,0x8
     928:	02e784a3          	sb	a4,41(a5)
     92c:	b7f5                	j	918 <tcp_update_rcv_ann_wnd+0x90>

0000092e <tcp_recved>:
     92e:	2001f317          	auipc	t1,0x2001f
     932:	702302e7          	jalr	t0,1794(t1) # 20020030 <__riscv_save_0>
     936:	02754783          	lbu	a5,39(a0)
     93a:	02654703          	lbu	a4,38(a0)
     93e:	842a                	mv	s0,a0
     940:	07a2                	slli	a5,a5,0x8
     942:	8fd9                	or	a5,a5,a4
     944:	95be                	add	a1,a1,a5
     946:	05c2                	slli	a1,a1,0x10
     948:	81c1                	srli	a1,a1,0x10
     94a:	0085d793          	srli	a5,a1,0x8
     94e:	20000717          	auipc	a4,0x20000
     952:	49670713          	addi	a4,a4,1174 # 20000de4 <CH569Cfg>
     956:	02f503a3          	sb	a5,39(a0)
     95a:	435c                	lw	a5,4(a4)
     95c:	02b50323          	sb	a1,38(a0)
     960:	84ba                	mv	s1,a4
     962:	00b7f963          	bgeu	a5,a1,974 <tcp_recved+0x46>
     966:	07c2                	slli	a5,a5,0x10
     968:	83c1                	srli	a5,a5,0x10
     96a:	02f50323          	sb	a5,38(a0)
     96e:	83a1                	srli	a5,a5,0x8
     970:	02f503a3          	sb	a5,39(a0)
     974:	8522                	mv	a0,s0
     976:	3f09                	jal	888 <tcp_update_rcv_ann_wnd>
     978:	40dc                	lw	a5,4(s1)
     97a:	8389                	srli	a5,a5,0x2
     97c:	00f56b63          	bltu	a0,a5,992 <tcp_recved+0x64>
     980:	02144783          	lbu	a5,33(s0)
     984:	8522                	mv	a0,s0
     986:	0027e793          	ori	a5,a5,2
     98a:	02f400a3          	sb	a5,33(s0)
     98e:	470040ef          	jal	ra,4dfe <tcp_output>
     992:	2001f317          	auipc	t1,0x2001f
     996:	6c230067          	jr	1730(t1) # 20020054 <__riscv_restore_0>

0000099a <tcp_seg_free>:
     99a:	2001f317          	auipc	t1,0x2001f
     99e:	696302e7          	jalr	t0,1686(t1) # 20020030 <__riscv_save_0>
     9a2:	1141                	addi	sp,sp,-16
     9a4:	4401                	li	s0,0
     9a6:	cd09                	beqz	a0,9c0 <tcp_seg_free+0x26>
     9a8:	85aa                	mv	a1,a0
     9aa:	4148                	lw	a0,4(a0)
     9ac:	4401                	li	s0,0
     9ae:	c511                	beqz	a0,9ba <tcp_seg_free+0x20>
     9b0:	c62e                	sw	a1,12(sp)
     9b2:	784060ef          	jal	ra,7136 <pbuf_free>
     9b6:	45b2                	lw	a1,12(sp)
     9b8:	842a                	mv	s0,a0
     9ba:	4511                	li	a0,4
     9bc:	303050ef          	jal	ra,64be <memp_free>
     9c0:	8522                	mv	a0,s0
     9c2:	0141                	addi	sp,sp,16
     9c4:	2001f317          	auipc	t1,0x2001f
     9c8:	69030067          	jr	1680(t1) # 20020054 <__riscv_restore_0>

000009cc <tcp_segs_free>:
     9cc:	2001f317          	auipc	t1,0x2001f
     9d0:	664302e7          	jalr	t0,1636(t1) # 20020030 <__riscv_save_0>
     9d4:	4401                	li	s0,0
     9d6:	e511                	bnez	a0,9e2 <tcp_segs_free+0x16>
     9d8:	8522                	mv	a0,s0
     9da:	2001f317          	auipc	t1,0x2001f
     9de:	67a30067          	jr	1658(t1) # 20020054 <__riscv_restore_0>
     9e2:	4104                	lw	s1,0(a0)
     9e4:	3f5d                	jal	99a <tcp_seg_free>
     9e6:	942a                	add	s0,s0,a0
     9e8:	0ff47413          	andi	s0,s0,255
     9ec:	8526                	mv	a0,s1
     9ee:	b7e5                	j	9d6 <tcp_segs_free+0xa>

000009f0 <tcp_seg_copy>:
     9f0:	2001f317          	auipc	t1,0x2001f
     9f4:	640302e7          	jalr	t0,1600(t1) # 20020030 <__riscv_save_0>
     9f8:	1141                	addi	sp,sp,-16
     9fa:	c62a                	sw	a0,12(sp)
     9fc:	4511                	li	a0,4
     9fe:	2a1050ef          	jal	ra,649e <memp_malloc>
     a02:	842a                	mv	s0,a0
     a04:	c911                	beqz	a0,a18 <tcp_seg_copy+0x28>
     a06:	45b2                	lw	a1,12(sp)
     a08:	4651                	li	a2,20
     a0a:	20024097          	auipc	ra,0x20024
     a0e:	7de080e7          	jalr	2014(ra) # 200251e8 <memcpy>
     a12:	4048                	lw	a0,4(s0)
     a14:	339060ef          	jal	ra,754c <pbuf_ref>
     a18:	8522                	mv	a0,s0
     a1a:	0141                	addi	sp,sp,16
     a1c:	2001f317          	auipc	t1,0x2001f
     a20:	63830067          	jr	1592(t1) # 20020054 <__riscv_restore_0>

00000a24 <tcp_arg>:
     a24:	0085d793          	srli	a5,a1,0x8
     a28:	00b50aa3          	sb	a1,21(a0)
     a2c:	00f50b23          	sb	a5,22(a0)
     a30:	0105d793          	srli	a5,a1,0x10
     a34:	81e1                	srli	a1,a1,0x18
     a36:	00f50ba3          	sb	a5,23(a0)
     a3a:	00b50c23          	sb	a1,24(a0)
     a3e:	8082                	ret

00000a40 <tcp_recv>:
     a40:	0085d793          	srli	a5,a1,0x8
     a44:	06b50e23          	sb	a1,124(a0)
     a48:	06f50ea3          	sb	a5,125(a0)
     a4c:	0105d793          	srli	a5,a1,0x10
     a50:	81e1                	srli	a1,a1,0x18
     a52:	06f50f23          	sb	a5,126(a0)
     a56:	06b50fa3          	sb	a1,127(a0)
     a5a:	8082                	ret

00000a5c <tcp_sent>:
     a5c:	0085d793          	srli	a5,a1,0x8
     a60:	06b50c23          	sb	a1,120(a0)
     a64:	06f50ca3          	sb	a5,121(a0)
     a68:	0105d793          	srli	a5,a1,0x10
     a6c:	81e1                	srli	a1,a1,0x18
     a6e:	06f50d23          	sb	a5,122(a0)
     a72:	06b50da3          	sb	a1,123(a0)
     a76:	8082                	ret

00000a78 <tcp_err>:
     a78:	0085d793          	srli	a5,a1,0x8
     a7c:	08b50423          	sb	a1,136(a0)
     a80:	08f504a3          	sb	a5,137(a0)
     a84:	0105d793          	srli	a5,a1,0x10
     a88:	81e1                	srli	a1,a1,0x18
     a8a:	08f50523          	sb	a5,138(a0)
     a8e:	08b505a3          	sb	a1,139(a0)
     a92:	8082                	ret

00000a94 <tcp_poll>:
     a94:	0085d793          	srli	a5,a1,0x8
     a98:	08b50223          	sb	a1,132(a0)
     a9c:	08f502a3          	sb	a5,133(a0)
     aa0:	0105d793          	srli	a5,a1,0x10
     aa4:	81e1                	srli	a1,a1,0x18
     aa6:	08f50323          	sb	a5,134(a0)
     aaa:	08b503a3          	sb	a1,135(a0)
     aae:	02c509a3          	sb	a2,51(a0)
     ab2:	8082                	ret

00000ab4 <tcp_pcb_purge>:
     ab4:	01154703          	lbu	a4,17(a0)
     ab8:	01054783          	lbu	a5,16(a0)
     abc:	0722                	slli	a4,a4,0x8
     abe:	8f5d                	or	a4,a4,a5
     ac0:	01254783          	lbu	a5,18(a0)
     ac4:	07c2                	slli	a5,a5,0x10
     ac6:	8f5d                	or	a4,a4,a5
     ac8:	01354783          	lbu	a5,19(a0)
     acc:	07e2                	slli	a5,a5,0x18
     ace:	8fd9                	or	a5,a5,a4
     ad0:	4705                	li	a4,1
     ad2:	0ef77163          	bgeu	a4,a5,bb4 <tcp_pcb_purge+0x100>
     ad6:	4729                	li	a4,10
     ad8:	0ce78e63          	beq	a5,a4,bb4 <tcp_pcb_purge+0x100>
     adc:	2001f317          	auipc	t1,0x2001f
     ae0:	554302e7          	jalr	t0,1364(t1) # 20020030 <__riscv_save_0>
     ae4:	842a                	mv	s0,a0
     ae6:	07544783          	lbu	a5,117(s0)
     aea:	07454503          	lbu	a0,116(a0)
     aee:	07a2                	slli	a5,a5,0x8
     af0:	8fc9                	or	a5,a5,a0
     af2:	07644503          	lbu	a0,118(s0)
     af6:	0542                	slli	a0,a0,0x10
     af8:	8fc9                	or	a5,a5,a0
     afa:	07744503          	lbu	a0,119(s0)
     afe:	0562                	slli	a0,a0,0x18
     b00:	8d5d                	or	a0,a0,a5
     b02:	c919                	beqz	a0,b18 <tcp_pcb_purge+0x64>
     b04:	632060ef          	jal	ra,7136 <pbuf_free>
     b08:	06040a23          	sb	zero,116(s0)
     b0c:	06040aa3          	sb	zero,117(s0)
     b10:	06040b23          	sb	zero,118(s0)
     b14:	06040ba3          	sb	zero,119(s0)
     b18:	07144503          	lbu	a0,113(s0)
     b1c:	07044783          	lbu	a5,112(s0)
     b20:	577d                	li	a4,-1
     b22:	0522                	slli	a0,a0,0x8
     b24:	8d5d                	or	a0,a0,a5
     b26:	07244783          	lbu	a5,114(s0)
     b2a:	02e40a23          	sb	a4,52(s0)
     b2e:	02e40aa3          	sb	a4,53(s0)
     b32:	07c2                	slli	a5,a5,0x10
     b34:	8fc9                	or	a5,a5,a0
     b36:	07344503          	lbu	a0,115(s0)
     b3a:	0562                	slli	a0,a0,0x18
     b3c:	8d5d                	or	a0,a0,a5
     b3e:	3579                	jal	9cc <tcp_segs_free>
     b40:	06944503          	lbu	a0,105(s0)
     b44:	06844783          	lbu	a5,104(s0)
     b48:	06040823          	sb	zero,112(s0)
     b4c:	0522                	slli	a0,a0,0x8
     b4e:	8d5d                	or	a0,a0,a5
     b50:	06a44783          	lbu	a5,106(s0)
     b54:	060408a3          	sb	zero,113(s0)
     b58:	06040923          	sb	zero,114(s0)
     b5c:	07c2                	slli	a5,a5,0x10
     b5e:	8fc9                	or	a5,a5,a0
     b60:	06b44503          	lbu	a0,107(s0)
     b64:	060409a3          	sb	zero,115(s0)
     b68:	0562                	slli	a0,a0,0x18
     b6a:	8d5d                	or	a0,a0,a5
     b6c:	3585                	jal	9cc <tcp_segs_free>
     b6e:	06d44503          	lbu	a0,109(s0)
     b72:	06c44783          	lbu	a5,108(s0)
     b76:	0522                	slli	a0,a0,0x8
     b78:	8d5d                	or	a0,a0,a5
     b7a:	06e44783          	lbu	a5,110(s0)
     b7e:	07c2                	slli	a5,a5,0x10
     b80:	8fc9                	or	a5,a5,a0
     b82:	06f44503          	lbu	a0,111(s0)
     b86:	0562                	slli	a0,a0,0x18
     b88:	8d5d                	or	a0,a0,a5
     b8a:	3589                	jal	9cc <tcp_segs_free>
     b8c:	06040423          	sb	zero,104(s0)
     b90:	060404a3          	sb	zero,105(s0)
     b94:	06040523          	sb	zero,106(s0)
     b98:	060405a3          	sb	zero,107(s0)
     b9c:	06040623          	sb	zero,108(s0)
     ba0:	060406a3          	sb	zero,109(s0)
     ba4:	06040723          	sb	zero,110(s0)
     ba8:	060407a3          	sb	zero,111(s0)
     bac:	2001f317          	auipc	t1,0x2001f
     bb0:	4a830067          	jr	1192(t1) # 20020054 <__riscv_restore_0>
     bb4:	8082                	ret

00000bb6 <tcp_slowtmr>:
     bb6:	2001f317          	auipc	t1,0x2001f
     bba:	44a302e7          	jalr	t0,1098(t1) # 20020000 <__riscv_save_12>
     bbe:	20000497          	auipc	s1,0x20000
     bc2:	30a48493          	addi	s1,s1,778 # 20000ec8 <tcp_ticks>
     bc6:	409c                	lw	a5,0(s1)
     bc8:	20000b17          	auipc	s6,0x20000
     bcc:	270b4b03          	lbu	s6,624(s6) # 20000e38 <CH569Inf+0x18>
     bd0:	06600993          	li	s3,102
     bd4:	0785                	addi	a5,a5,1
     bd6:	20000717          	auipc	a4,0x20000
     bda:	2ef72923          	sw	a5,754(a4) # 20000ec8 <tcp_ticks>
     bde:	20000797          	auipc	a5,0x20000
     be2:	2e678793          	addi	a5,a5,742 # 20000ec4 <tcp_active_pcbs>
     be6:	4380                	lw	s0,0(a5)
     be8:	4901                	li	s2,0
     bea:	4b89                	li	s7,2
     bec:	1ffffd97          	auipc	s11,0x1ffff
     bf0:	4c0d8d93          	addi	s11,s11,1216 # 200000ac <tcp_persist_backoff>
     bf4:	4a19                	li	s4,6
     bf6:	02800c13          	li	s8,40
     bfa:	20000c97          	auipc	s9,0x20000
     bfe:	21ac8c93          	addi	s9,s9,538 # 20000e14 <KeepLiveCfg>
     c02:	ec01                	bnez	s0,c1a <tcp_slowtmr+0x64>
     c04:	20000797          	auipc	a5,0x20000
     c08:	2d478793          	addi	a5,a5,724 # 20000ed8 <tcp_tw_pcbs>
     c0c:	4380                	lw	s0,0(a5)
     c0e:	54041463          	bnez	s0,1156 <tcp_slowtmr+0x5a0>
     c12:	2001f317          	auipc	t1,0x2001f
     c16:	42a30067          	jr	1066(t1) # 2002003c <__riscv_restore_12>
     c1a:	19fd                	addi	s3,s3,-1
     c1c:	0ff9f993          	andi	s3,s3,255
     c20:	fe0989e3          	beqz	s3,c12 <tcp_slowtmr+0x5c>
     c24:	01144783          	lbu	a5,17(s0)
     c28:	01044683          	lbu	a3,16(s0)
     c2c:	04644603          	lbu	a2,70(s0)
     c30:	07a2                	slli	a5,a5,0x8
     c32:	8fd5                	or	a5,a5,a3
     c34:	01244683          	lbu	a3,18(s0)
     c38:	4d05                	li	s10,1
     c3a:	06c2                	slli	a3,a3,0x10
     c3c:	8fd5                	or	a5,a5,a3
     c3e:	01344683          	lbu	a3,19(s0)
     c42:	06e2                	slli	a3,a3,0x18
     c44:	8edd                	or	a3,a3,a5
     c46:	04cb0a63          	beq	s6,a2,c9a <tcp_slowtmr+0xe4>
     c4a:	09444d03          	lbu	s10,148(s0)
     c4e:	240d0563          	beqz	s10,e98 <tcp_slowtmr+0x2e2>
     c52:	09144683          	lbu	a3,145(s0)
     c56:	09044703          	lbu	a4,144(s0)
     c5a:	06a2                	slli	a3,a3,0x8
     c5c:	8ed9                	or	a3,a3,a4
     c5e:	09244703          	lbu	a4,146(s0)
     c62:	0742                	slli	a4,a4,0x10
     c64:	8ed9                	or	a3,a3,a4
     c66:	09344703          	lbu	a4,147(s0)
     c6a:	0762                	slli	a4,a4,0x18
     c6c:	8f55                	or	a4,a4,a3
     c6e:	0705                	addi	a4,a4,1
     c70:	00875693          	srli	a3,a4,0x8
     c74:	08d408a3          	sb	a3,145(s0)
     c78:	01075693          	srli	a3,a4,0x10
     c7c:	08d40923          	sb	a3,146(s0)
     c80:	01875693          	srli	a3,a4,0x18
     c84:	08d409a3          	sb	a3,147(s0)
     c88:	01ad86b3          	add	a3,s11,s10
     c8c:	fff6c683          	lbu	a3,-1(a3)
     c90:	08e40823          	sb	a4,144(s0)
     c94:	1ed77063          	bgeu	a4,a3,e74 <tcp_slowtmr+0x2be>
     c98:	4d01                	li	s10,0
     c9a:	01144683          	lbu	a3,17(s0)
     c9e:	01044703          	lbu	a4,16(s0)
     ca2:	06a2                	slli	a3,a3,0x8
     ca4:	8ed9                	or	a3,a3,a4
     ca6:	01244703          	lbu	a4,18(s0)
     caa:	0742                	slli	a4,a4,0x10
     cac:	8ed9                	or	a3,a3,a4
     cae:	01344703          	lbu	a4,19(s0)
     cb2:	0762                	slli	a4,a4,0x18
     cb4:	8f55                	or	a4,a4,a3
     cb6:	03471963          	bne	a4,s4,ce8 <tcp_slowtmr+0x132>
     cba:	02f44603          	lbu	a2,47(s0)
     cbe:	02e44683          	lbu	a3,46(s0)
     cc2:	0622                	slli	a2,a2,0x8
     cc4:	8e55                	or	a2,a2,a3
     cc6:	03044683          	lbu	a3,48(s0)
     cca:	06c2                	slli	a3,a3,0x10
     ccc:	8e55                	or	a2,a2,a3
     cce:	03144683          	lbu	a3,49(s0)
     cd2:	06e2                	slli	a3,a3,0x18
     cd4:	8ed1                	or	a3,a3,a2
     cd6:	4090                	lw	a2,0(s1)
     cd8:	40d606b3          	sub	a3,a2,a3
     cdc:	00dc7663          	bgeu	s8,a3,ce8 <tcp_slowtmr+0x132>
     ce0:	001d0793          	addi	a5,s10,1
     ce4:	0ff7fd13          	andi	s10,a5,255
     ce8:	00844683          	lbu	a3,8(s0)
     cec:	4a81                	li	s5,0
     cee:	8aa1                	andi	a3,a3,8
     cf0:	c6bd                	beqz	a3,d5e <tcp_slowtmr+0x1a8>
     cf2:	4691                	li	a3,4
     cf4:	00d70563          	beq	a4,a3,cfe <tcp_slowtmr+0x148>
     cf8:	469d                	li	a3,7
     cfa:	06d71263          	bne	a4,a3,d5e <tcp_slowtmr+0x1a8>
     cfe:	02f44703          	lbu	a4,47(s0)
     d02:	02e44583          	lbu	a1,46(s0)
     d06:	08d44603          	lbu	a2,141(s0)
     d0a:	0722                	slli	a4,a4,0x8
     d0c:	8dd9                	or	a1,a1,a4
     d0e:	03044703          	lbu	a4,48(s0)
     d12:	004ca803          	lw	a6,4(s9)
     d16:	008ca683          	lw	a3,8(s9)
     d1a:	0742                	slli	a4,a4,0x10
     d1c:	8f4d                	or	a4,a4,a1
     d1e:	03144583          	lbu	a1,49(s0)
     d22:	0622                	slli	a2,a2,0x8
     d24:	02d806b3          	mul	a3,a6,a3
     d28:	05e2                	slli	a1,a1,0x18
     d2a:	8f4d                	or	a4,a4,a1
     d2c:	408c                	lw	a1,0(s1)
     d2e:	1f400513          	li	a0,500
     d32:	8d99                	sub	a1,a1,a4
     d34:	08c44703          	lbu	a4,140(s0)
     d38:	8f51                	or	a4,a4,a2
     d3a:	08e44603          	lbu	a2,142(s0)
     d3e:	0642                	slli	a2,a2,0x10
     d40:	8e59                	or	a2,a2,a4
     d42:	08f44703          	lbu	a4,143(s0)
     d46:	0762                	slli	a4,a4,0x18
     d48:	8e59                	or	a2,a2,a4
     d4a:	96b2                	add	a3,a3,a2
     d4c:	02a6d6b3          	divu	a3,a3,a0
     d50:	24b6fb63          	bgeu	a3,a1,fa6 <tcp_slowtmr+0x3f0>
     d54:	001d0793          	addi	a5,s10,1
     d58:	0ff7fd13          	andi	s10,a5,255
     d5c:	4a85                	li	s5,1
     d5e:	07144703          	lbu	a4,113(s0)
     d62:	07044503          	lbu	a0,112(s0)
     d66:	0722                	slli	a4,a4,0x8
     d68:	8f49                	or	a4,a4,a0
     d6a:	07244503          	lbu	a0,114(s0)
     d6e:	0542                	slli	a0,a0,0x10
     d70:	8f49                	or	a4,a4,a0
     d72:	07344503          	lbu	a0,115(s0)
     d76:	0562                	slli	a0,a0,0x18
     d78:	8d59                	or	a0,a0,a4
     d7a:	c531                	beqz	a0,dc6 <tcp_slowtmr+0x210>
     d7c:	02f44683          	lbu	a3,47(s0)
     d80:	02e44703          	lbu	a4,46(s0)
     d84:	04444603          	lbu	a2,68(s0)
     d88:	06a2                	slli	a3,a3,0x8
     d8a:	8ed9                	or	a3,a3,a4
     d8c:	03044703          	lbu	a4,48(s0)
     d90:	0742                	slli	a4,a4,0x10
     d92:	8ed9                	or	a3,a3,a4
     d94:	03144703          	lbu	a4,49(s0)
     d98:	0762                	slli	a4,a4,0x18
     d9a:	8f55                	or	a4,a4,a3
     d9c:	4094                	lw	a3,0(s1)
     d9e:	8e99                	sub	a3,a3,a4
     da0:	04544703          	lbu	a4,69(s0)
     da4:	0722                	slli	a4,a4,0x8
     da6:	8f51                	or	a4,a4,a2
     da8:	0742                	slli	a4,a4,0x10
     daa:	8741                	srai	a4,a4,0x10
     dac:	03470733          	mul	a4,a4,s4
     db0:	00e6eb63          	bltu	a3,a4,dc6 <tcp_slowtmr+0x210>
     db4:	3921                	jal	9cc <tcp_segs_free>
     db6:	06040823          	sb	zero,112(s0)
     dba:	060408a3          	sb	zero,113(s0)
     dbe:	06040923          	sb	zero,114(s0)
     dc2:	060409a3          	sb	zero,115(s0)
     dc6:	01144683          	lbu	a3,17(s0)
     dca:	01044703          	lbu	a4,16(s0)
     dce:	06a2                	slli	a3,a3,0x8
     dd0:	8ed9                	or	a3,a3,a4
     dd2:	01244703          	lbu	a4,18(s0)
     dd6:	0742                	slli	a4,a4,0x10
     dd8:	8ed9                	or	a3,a3,a4
     dda:	01344703          	lbu	a4,19(s0)
     dde:	0762                	slli	a4,a4,0x18
     de0:	8f55                	or	a4,a4,a3
     de2:	468d                	li	a3,3
     de4:	1ed71463          	bne	a4,a3,fcc <tcp_slowtmr+0x416>
     de8:	02f44683          	lbu	a3,47(s0)
     dec:	02e44703          	lbu	a4,46(s0)
     df0:	06a2                	slli	a3,a3,0x8
     df2:	8ed9                	or	a3,a3,a4
     df4:	03044703          	lbu	a4,48(s0)
     df8:	0742                	slli	a4,a4,0x10
     dfa:	8ed9                	or	a3,a3,a4
     dfc:	03144703          	lbu	a4,49(s0)
     e00:	0762                	slli	a4,a4,0x18
     e02:	8f55                	or	a4,a4,a3
     e04:	4094                	lw	a3,0(s1)
     e06:	40e68733          	sub	a4,a3,a4
     e0a:	1eec6963          	bltu	s8,a4,ffc <tcp_slowtmr+0x446>
     e0e:	1e0d1763          	bnez	s10,ffc <tcp_slowtmr+0x446>
     e12:	03244783          	lbu	a5,50(s0)
     e16:	03344703          	lbu	a4,51(s0)
     e1a:	0785                	addi	a5,a5,1
     e1c:	0ff7f793          	andi	a5,a5,255
     e20:	02f40923          	sb	a5,50(s0)
     e24:	02e7e763          	bltu	a5,a4,e52 <tcp_slowtmr+0x29c>
     e28:	08544703          	lbu	a4,133(s0)
     e2c:	08444783          	lbu	a5,132(s0)
     e30:	02040923          	sb	zero,50(s0)
     e34:	0722                	slli	a4,a4,0x8
     e36:	8f5d                	or	a4,a4,a5
     e38:	08644783          	lbu	a5,134(s0)
     e3c:	07c2                	slli	a5,a5,0x10
     e3e:	8f5d                	or	a4,a4,a5
     e40:	08744783          	lbu	a5,135(s0)
     e44:	07e2                	slli	a5,a5,0x18
     e46:	8fd9                	or	a5,a5,a4
     e48:	2e079463          	bnez	a5,1130 <tcp_slowtmr+0x57a>
     e4c:	8522                	mv	a0,s0
     e4e:	7b1030ef          	jal	ra,4dfe <tcp_output>
     e52:	00d44783          	lbu	a5,13(s0)
     e56:	00c44703          	lbu	a4,12(s0)
     e5a:	8922                	mv	s2,s0
     e5c:	07a2                	slli	a5,a5,0x8
     e5e:	8f5d                	or	a4,a4,a5
     e60:	00e44783          	lbu	a5,14(s0)
     e64:	07c2                	slli	a5,a5,0x10
     e66:	8fd9                	or	a5,a5,a4
     e68:	00f44703          	lbu	a4,15(s0)
     e6c:	0762                	slli	a4,a4,0x18
     e6e:	00f76433          	or	s0,a4,a5
     e72:	bb41                	j	c02 <tcp_slowtmr+0x4c>
     e74:	08040823          	sb	zero,144(s0)
     e78:	080408a3          	sb	zero,145(s0)
     e7c:	08040923          	sb	zero,146(s0)
     e80:	080409a3          	sb	zero,147(s0)
     e84:	01aa6663          	bltu	s4,s10,e90 <tcp_slowtmr+0x2da>
     e88:	001d0793          	addi	a5,s10,1
     e8c:	08f40a23          	sb	a5,148(s0)
     e90:	8522                	mv	a0,s0
     e92:	245040ef          	jal	ra,58d6 <tcp_zero_window_probe>
     e96:	b509                	j	c98 <tcp_slowtmr+0xe2>
     e98:	03544703          	lbu	a4,53(s0)
     e9c:	03444583          	lbu	a1,52(s0)
     ea0:	0722                	slli	a4,a4,0x8
     ea2:	8f4d                	or	a4,a4,a1
     ea4:	0742                	slli	a4,a4,0x10
     ea6:	8741                	srai	a4,a4,0x10
     ea8:	00074a63          	bltz	a4,ebc <tcp_slowtmr+0x306>
     eac:	0705                	addi	a4,a4,1
     eae:	0742                	slli	a4,a4,0x10
     eb0:	8341                	srli	a4,a4,0x10
     eb2:	02e40a23          	sb	a4,52(s0)
     eb6:	8321                	srli	a4,a4,0x8
     eb8:	02e40aa3          	sb	a4,53(s0)
     ebc:	06d44583          	lbu	a1,109(s0)
     ec0:	06c44703          	lbu	a4,108(s0)
     ec4:	05a2                	slli	a1,a1,0x8
     ec6:	8dd9                	or	a1,a1,a4
     ec8:	06e44703          	lbu	a4,110(s0)
     ecc:	0742                	slli	a4,a4,0x10
     ece:	8dd9                	or	a1,a1,a4
     ed0:	06f44703          	lbu	a4,111(s0)
     ed4:	0762                	slli	a4,a4,0x18
     ed6:	8f4d                	or	a4,a4,a1
     ed8:	dc0700e3          	beqz	a4,c98 <tcp_slowtmr+0xe2>
     edc:	03544703          	lbu	a4,53(s0)
     ee0:	03444583          	lbu	a1,52(s0)
     ee4:	0722                	slli	a4,a4,0x8
     ee6:	8f4d                	or	a4,a4,a1
     ee8:	0742                	slli	a4,a4,0x10
     eea:	8741                	srai	a4,a4,0x10
     eec:	dae056e3          	blez	a4,c98 <tcp_slowtmr+0xe2>
     ef0:	05768463          	beq	a3,s7,f38 <tcp_slowtmr+0x382>
     ef4:	04144703          	lbu	a4,65(s0)
     ef8:	04044683          	lbu	a3,64(s0)
     efc:	04244583          	lbu	a1,66(s0)
     f00:	0722                	slli	a4,a4,0x8
     f02:	8f55                	or	a4,a4,a3
     f04:	04344683          	lbu	a3,67(s0)
     f08:	0742                	slli	a4,a4,0x10
     f0a:	8741                	srai	a4,a4,0x10
     f0c:	06a2                	slli	a3,a3,0x8
     f0e:	8ecd                	or	a3,a3,a1
     f10:	06c2                	slli	a3,a3,0x10
     f12:	20026797          	auipc	a5,0x20026
     f16:	f1678793          	addi	a5,a5,-234 # 20026e28 <tcp_backoff>
     f1a:	86c1                	srai	a3,a3,0x10
     f1c:	870d                	srai	a4,a4,0x3
     f1e:	963e                	add	a2,a2,a5
     f20:	9736                	add	a4,a4,a3
     f22:	00064683          	lbu	a3,0(a2)
     f26:	00d71733          	sll	a4,a4,a3
     f2a:	0742                	slli	a4,a4,0x10
     f2c:	8341                	srli	a4,a4,0x10
     f2e:	04e40223          	sb	a4,68(s0)
     f32:	8321                	srli	a4,a4,0x8
     f34:	04e402a3          	sb	a4,69(s0)
     f38:	05544603          	lbu	a2,85(s0)
     f3c:	05444703          	lbu	a4,84(s0)
     f40:	04c44683          	lbu	a3,76(s0)
     f44:	0622                	slli	a2,a2,0x8
     f46:	8e59                	or	a2,a2,a4
     f48:	04d44703          	lbu	a4,77(s0)
     f4c:	02040a23          	sb	zero,52(s0)
     f50:	02040aa3          	sb	zero,53(s0)
     f54:	0722                	slli	a4,a4,0x8
     f56:	8f55                	or	a4,a4,a3
     f58:	86b2                	mv	a3,a2
     f5a:	00c77363          	bgeu	a4,a2,f60 <tcp_slowtmr+0x3aa>
     f5e:	86ba                	mv	a3,a4
     f60:	06c2                	slli	a3,a3,0x10
     f62:	82c1                	srli	a3,a3,0x10
     f64:	8285                	srli	a3,a3,0x1
     f66:	0086d713          	srli	a4,a3,0x8
     f6a:	04e407a3          	sb	a4,79(s0)
     f6e:	03744703          	lbu	a4,55(s0)
     f72:	03644603          	lbu	a2,54(s0)
     f76:	04d40723          	sb	a3,78(s0)
     f7a:	0722                	slli	a4,a4,0x8
     f7c:	8f51                	or	a4,a4,a2
     f7e:	00e6fb63          	bgeu	a3,a4,f94 <tcp_slowtmr+0x3de>
     f82:	00171693          	slli	a3,a4,0x1
     f86:	06c2                	slli	a3,a3,0x10
     f88:	82c1                	srli	a3,a3,0x10
     f8a:	04d40723          	sb	a3,78(s0)
     f8e:	82a1                	srli	a3,a3,0x8
     f90:	04d407a3          	sb	a3,79(s0)
     f94:	04e40623          	sb	a4,76(s0)
     f98:	8321                	srli	a4,a4,0x8
     f9a:	04e406a3          	sb	a4,77(s0)
     f9e:	8522                	mv	a0,s0
     fa0:	698040ef          	jal	ra,5638 <tcp_rexmit_rto>
     fa4:	b9dd                	j	c9a <tcp_slowtmr+0xe4>
     fa6:	09544703          	lbu	a4,149(s0)
     faa:	4a81                	li	s5,0
     fac:	03070733          	mul	a4,a4,a6
     fb0:	9732                	add	a4,a4,a2
     fb2:	02a75733          	divu	a4,a4,a0
     fb6:	dab774e3          	bgeu	a4,a1,d5e <tcp_slowtmr+0x1a8>
     fba:	8522                	mv	a0,s0
     fbc:	0b3040ef          	jal	ra,586e <tcp_keepalive>
     fc0:	09544703          	lbu	a4,149(s0)
     fc4:	0705                	addi	a4,a4,1
     fc6:	08e40aa3          	sb	a4,149(s0)
     fca:	bb51                	j	d5e <tcp_slowtmr+0x1a8>
     fcc:	46a5                	li	a3,9
     fce:	e4d710e3          	bne	a4,a3,e0e <tcp_slowtmr+0x258>
     fd2:	02f44683          	lbu	a3,47(s0)
     fd6:	02e44703          	lbu	a4,46(s0)
     fda:	06a2                	slli	a3,a3,0x8
     fdc:	8ed9                	or	a3,a3,a4
     fde:	03044703          	lbu	a4,48(s0)
     fe2:	0742                	slli	a4,a4,0x10
     fe4:	8ed9                	or	a3,a3,a4
     fe6:	03144703          	lbu	a4,49(s0)
     fea:	0762                	slli	a4,a4,0x18
     fec:	8f55                	or	a4,a4,a3
     fee:	4094                	lw	a3,0(s1)
     ff0:	40e68733          	sub	a4,a3,a4
     ff4:	0f000693          	li	a3,240
     ff8:	e0e6fbe3          	bgeu	a3,a4,e0e <tcp_slowtmr+0x258>
     ffc:	8522                	mv	a0,s0
     ffe:	20022097          	auipc	ra,0x20022
    1002:	d7e080e7          	jalr	-642(ra) # 20022d7c <LwipRemoveTcpPcb>
    1006:	8522                	mv	a0,s0
    1008:	3475                	jal	ab4 <tcp_pcb_purge>
    100a:	00d44603          	lbu	a2,13(s0)
    100e:	00c44783          	lbu	a5,12(s0)
    1012:	00e44683          	lbu	a3,14(s0)
    1016:	00f44703          	lbu	a4,15(s0)
    101a:	0622                	slli	a2,a2,0x8
    101c:	10090063          	beqz	s2,111c <tcp_slowtmr+0x566>
    1020:	8fd1                	or	a5,a5,a2
    1022:	06c2                	slli	a3,a3,0x10
    1024:	8edd                	or	a3,a3,a5
    1026:	01871793          	slli	a5,a4,0x18
    102a:	8fd5                	or	a5,a5,a3
    102c:	0087d713          	srli	a4,a5,0x8
    1030:	00f90623          	sb	a5,12(s2)
    1034:	00e906a3          	sb	a4,13(s2)
    1038:	0107d713          	srli	a4,a5,0x10
    103c:	83e1                	srli	a5,a5,0x18
    103e:	00e90723          	sb	a4,14(s2)
    1042:	00f907a3          	sb	a5,15(s2)
    1046:	08944703          	lbu	a4,137(s0)
    104a:	08844783          	lbu	a5,136(s0)
    104e:	0722                	slli	a4,a4,0x8
    1050:	8f5d                	or	a4,a4,a5
    1052:	08a44783          	lbu	a5,138(s0)
    1056:	07c2                	slli	a5,a5,0x10
    1058:	8f5d                	or	a4,a4,a5
    105a:	08b44783          	lbu	a5,139(s0)
    105e:	07e2                	slli	a5,a5,0x18
    1060:	8fd9                	or	a5,a5,a4
    1062:	c38d                	beqz	a5,1084 <tcp_slowtmr+0x4ce>
    1064:	01644503          	lbu	a0,22(s0)
    1068:	01544703          	lbu	a4,21(s0)
    106c:	55ed                	li	a1,-5
    106e:	0522                	slli	a0,a0,0x8
    1070:	8d59                	or	a0,a0,a4
    1072:	01744703          	lbu	a4,23(s0)
    1076:	0742                	slli	a4,a4,0x10
    1078:	8f49                	or	a4,a4,a0
    107a:	01844503          	lbu	a0,24(s0)
    107e:	0562                	slli	a0,a0,0x18
    1080:	8d59                	or	a0,a0,a4
    1082:	9782                	jalr	a5
    1084:	060a8563          	beqz	s5,10ee <tcp_slowtmr+0x538>
    1088:	02344583          	lbu	a1,35(s0)
    108c:	05144503          	lbu	a0,81(s0)
    1090:	02244883          	lbu	a7,34(s0)
    1094:	05044803          	lbu	a6,80(s0)
    1098:	05a2                	slli	a1,a1,0x8
    109a:	0522                	slli	a0,a0,0x8
    109c:	0115e5b3          	or	a1,a1,a7
    10a0:	01056533          	or	a0,a0,a6
    10a4:	02444883          	lbu	a7,36(s0)
    10a8:	05244803          	lbu	a6,82(s0)
    10ac:	02044783          	lbu	a5,32(s0)
    10b0:	08c2                	slli	a7,a7,0x10
    10b2:	0842                	slli	a6,a6,0x10
    10b4:	00b8e8b3          	or	a7,a7,a1
    10b8:	00a86833          	or	a6,a6,a0
    10bc:	01a44703          	lbu	a4,26(s0)
    10c0:	02544583          	lbu	a1,37(s0)
    10c4:	05344503          	lbu	a0,83(s0)
    10c8:	01f44603          	lbu	a2,31(s0)
    10cc:	01944683          	lbu	a3,25(s0)
    10d0:	07a2                	slli	a5,a5,0x8
    10d2:	0722                	slli	a4,a4,0x8
    10d4:	05e2                	slli	a1,a1,0x18
    10d6:	0562                	slli	a0,a0,0x18
    10d8:	8fd1                	or	a5,a5,a2
    10da:	8f55                	or	a4,a4,a3
    10dc:	8622                	mv	a2,s0
    10de:	00440693          	addi	a3,s0,4
    10e2:	0115e5b3          	or	a1,a1,a7
    10e6:	01056533          	or	a0,a0,a6
    10ea:	3ea040ef          	jal	ra,54d4 <tcp_rst>
    10ee:	00d44783          	lbu	a5,13(s0)
    10f2:	00c44a83          	lbu	s5,12(s0)
    10f6:	85a2                	mv	a1,s0
    10f8:	07a2                	slli	a5,a5,0x8
    10fa:	0157e7b3          	or	a5,a5,s5
    10fe:	00e44a83          	lbu	s5,14(s0)
    1102:	4509                	li	a0,2
    1104:	0ac2                	slli	s5,s5,0x10
    1106:	00fae7b3          	or	a5,s5,a5
    110a:	00f44a83          	lbu	s5,15(s0)
    110e:	0ae2                	slli	s5,s5,0x18
    1110:	00faeab3          	or	s5,s5,a5
    1114:	8456                	mv	s0,s5
    1116:	3a8050ef          	jal	ra,64be <memp_free>
    111a:	b4e5                	j	c02 <tcp_slowtmr+0x4c>
    111c:	8e5d                	or	a2,a2,a5
    111e:	06c2                	slli	a3,a3,0x10
    1120:	8ed1                	or	a3,a3,a2
    1122:	0762                	slli	a4,a4,0x18
    1124:	8f55                	or	a4,a4,a3
    1126:	20000797          	auipc	a5,0x20000
    112a:	d8e7af23          	sw	a4,-610(a5) # 20000ec4 <tcp_active_pcbs>
    112e:	bf21                	j	1046 <tcp_slowtmr+0x490>
    1130:	01644503          	lbu	a0,22(s0)
    1134:	01544703          	lbu	a4,21(s0)
    1138:	85a2                	mv	a1,s0
    113a:	0522                	slli	a0,a0,0x8
    113c:	8d59                	or	a0,a0,a4
    113e:	01744703          	lbu	a4,23(s0)
    1142:	0742                	slli	a4,a4,0x10
    1144:	8f49                	or	a4,a4,a0
    1146:	01844503          	lbu	a0,24(s0)
    114a:	0562                	slli	a0,a0,0x18
    114c:	8d59                	or	a0,a0,a4
    114e:	9782                	jalr	a5
    1150:	ce050ee3          	beqz	a0,e4c <tcp_slowtmr+0x296>
    1154:	b9fd                	j	e52 <tcp_slowtmr+0x29c>
    1156:	8522                	mv	a0,s0
    1158:	20022097          	auipc	ra,0x20022
    115c:	c24080e7          	jalr	-988(ra) # 20022d7c <LwipRemoveTcpPcb>
    1160:	8522                	mv	a0,s0
    1162:	3a89                	jal	ab4 <tcp_pcb_purge>
    1164:	00d44783          	lbu	a5,13(s0)
    1168:	00c44483          	lbu	s1,12(s0)
    116c:	85a2                	mv	a1,s0
    116e:	07a2                	slli	a5,a5,0x8
    1170:	8fc5                	or	a5,a5,s1
    1172:	00e44483          	lbu	s1,14(s0)
    1176:	4509                	li	a0,2
    1178:	04c2                	slli	s1,s1,0x10
    117a:	8fc5                	or	a5,a5,s1
    117c:	00f44483          	lbu	s1,15(s0)
    1180:	04e2                	slli	s1,s1,0x18
    1182:	8cdd                	or	s1,s1,a5
    1184:	20000797          	auipc	a5,0x20000
    1188:	d497aa23          	sw	s1,-684(a5) # 20000ed8 <tcp_tw_pcbs>
    118c:	8426                	mv	s0,s1
    118e:	330050ef          	jal	ra,64be <memp_free>
    1192:	bcb5                	j	c0e <tcp_slowtmr+0x58>

00001194 <RemoveTimeWaiTCP>:
    1194:	2001f317          	auipc	t1,0x2001f
    1198:	e9c302e7          	jalr	t0,-356(t1) # 20020030 <__riscv_save_0>
    119c:	20000797          	auipc	a5,0x20000
    11a0:	d3c78793          	addi	a5,a5,-708 # 20000ed8 <tcp_tw_pcbs>
    11a4:	4380                	lw	s0,0(a5)
    11a6:	e409                	bnez	s0,11b0 <RemoveTimeWaiTCP+0x1c>
    11a8:	2001f317          	auipc	t1,0x2001f
    11ac:	eac30067          	jr	-340(t1) # 20020054 <__riscv_restore_0>
    11b0:	8522                	mv	a0,s0
    11b2:	20022097          	auipc	ra,0x20022
    11b6:	bca080e7          	jalr	-1078(ra) # 20022d7c <LwipRemoveTcpPcb>
    11ba:	8522                	mv	a0,s0
    11bc:	38e5                	jal	ab4 <tcp_pcb_purge>
    11be:	00d44783          	lbu	a5,13(s0)
    11c2:	00c44483          	lbu	s1,12(s0)
    11c6:	85a2                	mv	a1,s0
    11c8:	07a2                	slli	a5,a5,0x8
    11ca:	8fc5                	or	a5,a5,s1
    11cc:	00e44483          	lbu	s1,14(s0)
    11d0:	4509                	li	a0,2
    11d2:	04c2                	slli	s1,s1,0x10
    11d4:	8fc5                	or	a5,a5,s1
    11d6:	00f44483          	lbu	s1,15(s0)
    11da:	04e2                	slli	s1,s1,0x18
    11dc:	8cdd                	or	s1,s1,a5
    11de:	20000797          	auipc	a5,0x20000
    11e2:	ce97ad23          	sw	s1,-774(a5) # 20000ed8 <tcp_tw_pcbs>
    11e6:	8426                	mv	s0,s1
    11e8:	2d6050ef          	jal	ra,64be <memp_free>
    11ec:	bf6d                	j	11a6 <RemoveTimeWaiTCP+0x12>

000011ee <tcp_pcb_remove>:
    11ee:	2001f317          	auipc	t1,0x2001f
    11f2:	e42302e7          	jalr	t0,-446(t1) # 20020030 <__riscv_save_0>
    11f6:	411c                	lw	a5,0(a0)
    11f8:	842e                	mv	s0,a1
    11fa:	08b79763          	bne	a5,a1,1288 <tcp_pcb_remove+0x9a>
    11fe:	00d5c703          	lbu	a4,13(a1)
    1202:	00c5c783          	lbu	a5,12(a1)
    1206:	0722                	slli	a4,a4,0x8
    1208:	8f5d                	or	a4,a4,a5
    120a:	00e5c783          	lbu	a5,14(a1)
    120e:	07c2                	slli	a5,a5,0x10
    1210:	8f5d                	or	a4,a4,a5
    1212:	00f5c783          	lbu	a5,15(a1)
    1216:	07e2                	slli	a5,a5,0x18
    1218:	8fd9                	or	a5,a5,a4
    121a:	c11c                	sw	a5,0(a0)
    121c:	00040623          	sb	zero,12(s0)
    1220:	000406a3          	sb	zero,13(s0)
    1224:	00040723          	sb	zero,14(s0)
    1228:	000407a3          	sb	zero,15(s0)
    122c:	8522                	mv	a0,s0
    122e:	3059                	jal	ab4 <tcp_pcb_purge>
    1230:	01144703          	lbu	a4,17(s0)
    1234:	01044783          	lbu	a5,16(s0)
    1238:	0722                	slli	a4,a4,0x8
    123a:	8f5d                	or	a4,a4,a5
    123c:	01244783          	lbu	a5,18(s0)
    1240:	07c2                	slli	a5,a5,0x10
    1242:	8f5d                	or	a4,a4,a5
    1244:	01344783          	lbu	a5,19(s0)
    1248:	07e2                	slli	a5,a5,0x18
    124a:	8fd9                	or	a5,a5,a4
    124c:	4729                	li	a4,10
    124e:	02e78163          	beq	a5,a4,1270 <tcp_pcb_remove+0x82>
    1252:	4705                	li	a4,1
    1254:	00e78e63          	beq	a5,a4,1270 <tcp_pcb_remove+0x82>
    1258:	02144783          	lbu	a5,33(s0)
    125c:	0017f713          	andi	a4,a5,1
    1260:	cb01                	beqz	a4,1270 <tcp_pcb_remove+0x82>
    1262:	0027e793          	ori	a5,a5,2
    1266:	02f400a3          	sb	a5,33(s0)
    126a:	8522                	mv	a0,s0
    126c:	393030ef          	jal	ra,4dfe <tcp_output>
    1270:	00040823          	sb	zero,16(s0)
    1274:	000408a3          	sb	zero,17(s0)
    1278:	00040923          	sb	zero,18(s0)
    127c:	000409a3          	sb	zero,19(s0)
    1280:	2001f317          	auipc	t1,0x2001f
    1284:	dd430067          	jr	-556(t1) # 20020054 <__riscv_restore_0>
    1288:	20000717          	auipc	a4,0x20000
    128c:	c4f72423          	sw	a5,-952(a4) # 20000ed0 <tcp_tmp_pcb>
    1290:	4601                	li	a2,0
    1292:	e799                	bnez	a5,12a0 <tcp_pcb_remove+0xb2>
    1294:	d641                	beqz	a2,121c <tcp_pcb_remove+0x2e>
    1296:	20000797          	auipc	a5,0x20000
    129a:	c207ad23          	sw	zero,-966(a5) # 20000ed0 <tcp_tmp_pcb>
    129e:	bfbd                	j	121c <tcp_pcb_remove+0x2e>
    12a0:	00d7c683          	lbu	a3,13(a5)
    12a4:	00c7c703          	lbu	a4,12(a5)
    12a8:	06a2                	slli	a3,a3,0x8
    12aa:	8ed9                	or	a3,a3,a4
    12ac:	00e7c703          	lbu	a4,14(a5)
    12b0:	0742                	slli	a4,a4,0x10
    12b2:	8ed9                	or	a3,a3,a4
    12b4:	00f7c703          	lbu	a4,15(a5)
    12b8:	0762                	slli	a4,a4,0x18
    12ba:	8f55                	or	a4,a4,a3
    12bc:	04871363          	bne	a4,s0,1302 <tcp_pcb_remove+0x114>
    12c0:	c609                	beqz	a2,12ca <tcp_pcb_remove+0xdc>
    12c2:	20000717          	auipc	a4,0x20000
    12c6:	c0f72723          	sw	a5,-1010(a4) # 20000ed0 <tcp_tmp_pcb>
    12ca:	00d44683          	lbu	a3,13(s0)
    12ce:	00c44703          	lbu	a4,12(s0)
    12d2:	06a2                	slli	a3,a3,0x8
    12d4:	8ed9                	or	a3,a3,a4
    12d6:	00e44703          	lbu	a4,14(s0)
    12da:	0742                	slli	a4,a4,0x10
    12dc:	8ed9                	or	a3,a3,a4
    12de:	00f44703          	lbu	a4,15(s0)
    12e2:	0762                	slli	a4,a4,0x18
    12e4:	8f55                	or	a4,a4,a3
    12e6:	00875693          	srli	a3,a4,0x8
    12ea:	00e78623          	sb	a4,12(a5)
    12ee:	00d786a3          	sb	a3,13(a5)
    12f2:	01075693          	srli	a3,a4,0x10
    12f6:	8361                	srli	a4,a4,0x18
    12f8:	00d78723          	sb	a3,14(a5)
    12fc:	00e787a3          	sb	a4,15(a5)
    1300:	bf31                	j	121c <tcp_pcb_remove+0x2e>
    1302:	4605                	li	a2,1
    1304:	87ba                	mv	a5,a4
    1306:	b771                	j	1292 <tcp_pcb_remove+0xa4>

00001308 <tcp_close>:
    1308:	01154703          	lbu	a4,17(a0)
    130c:	01054783          	lbu	a5,16(a0)
    1310:	0722                	slli	a4,a4,0x8
    1312:	8f5d                	or	a4,a4,a5
    1314:	01254783          	lbu	a5,18(a0)
    1318:	07c2                	slli	a5,a5,0x10
    131a:	8f5d                	or	a4,a4,a5
    131c:	01354783          	lbu	a5,19(a0)
    1320:	07e2                	slli	a5,a5,0x18
    1322:	8fd9                	or	a5,a5,a4
    1324:	471d                	li	a4,7
    1326:	14f76d63          	bltu	a4,a5,1480 <tcp_close+0x178>
    132a:	2001f317          	auipc	t1,0x2001f
    132e:	d06302e7          	jalr	t0,-762(t1) # 20020030 <__riscv_save_0>
    1332:	20026717          	auipc	a4,0x20026
    1336:	ad670713          	addi	a4,a4,-1322 # 20026e08 <ErrTable+0x74>
    133a:	078a                	slli	a5,a5,0x2
    133c:	97ba                	add	a5,a5,a4
    133e:	439c                	lw	a5,0(a5)
    1340:	842a                	mv	s0,a0
    1342:	97ba                	add	a5,a5,a4
    1344:	8782                	jr	a5
    1346:	20022097          	auipc	ra,0x20022
    134a:	a36080e7          	jalr	-1482(ra) # 20022d7c <LwipRemoveTcpPcb>
    134e:	20000797          	auipc	a5,0x20000
    1352:	b8678793          	addi	a5,a5,-1146 # 20000ed4 <tcp_bound_pcbs>
    1356:	439c                	lw	a5,0(a5)
    1358:	02879f63          	bne	a5,s0,1396 <tcp_close+0x8e>
    135c:	00d44703          	lbu	a4,13(s0)
    1360:	00c44783          	lbu	a5,12(s0)
    1364:	0722                	slli	a4,a4,0x8
    1366:	8f5d                	or	a4,a4,a5
    1368:	00e44783          	lbu	a5,14(s0)
    136c:	07c2                	slli	a5,a5,0x10
    136e:	8f5d                	or	a4,a4,a5
    1370:	00f44783          	lbu	a5,15(s0)
    1374:	07e2                	slli	a5,a5,0x18
    1376:	8fd9                	or	a5,a5,a4
    1378:	20000717          	auipc	a4,0x20000
    137c:	b4f72e23          	sw	a5,-1188(a4) # 20000ed4 <tcp_bound_pcbs>
    1380:	00040623          	sb	zero,12(s0)
    1384:	000406a3          	sb	zero,13(s0)
    1388:	00040723          	sb	zero,14(s0)
    138c:	000407a3          	sb	zero,15(s0)
    1390:	85a2                	mv	a1,s0
    1392:	4509                	li	a0,2
    1394:	a869                	j	142e <tcp_close+0x126>
    1396:	20000717          	auipc	a4,0x20000
    139a:	b2f72d23          	sw	a5,-1222(a4) # 20000ed0 <tcp_tmp_pcb>
    139e:	4601                	li	a2,0
    13a0:	e799                	bnez	a5,13ae <tcp_close+0xa6>
    13a2:	de79                	beqz	a2,1380 <tcp_close+0x78>
    13a4:	20000797          	auipc	a5,0x20000
    13a8:	b207a623          	sw	zero,-1236(a5) # 20000ed0 <tcp_tmp_pcb>
    13ac:	bfd1                	j	1380 <tcp_close+0x78>
    13ae:	00d7c683          	lbu	a3,13(a5)
    13b2:	00c7c703          	lbu	a4,12(a5)
    13b6:	06a2                	slli	a3,a3,0x8
    13b8:	8ed9                	or	a3,a3,a4
    13ba:	00e7c703          	lbu	a4,14(a5)
    13be:	0742                	slli	a4,a4,0x10
    13c0:	8ed9                	or	a3,a3,a4
    13c2:	00f7c703          	lbu	a4,15(a5)
    13c6:	0762                	slli	a4,a4,0x18
    13c8:	8f55                	or	a4,a4,a3
    13ca:	04871363          	bne	a4,s0,1410 <tcp_close+0x108>
    13ce:	c609                	beqz	a2,13d8 <tcp_close+0xd0>
    13d0:	20000717          	auipc	a4,0x20000
    13d4:	b0f72023          	sw	a5,-1280(a4) # 20000ed0 <tcp_tmp_pcb>
    13d8:	00d44683          	lbu	a3,13(s0)
    13dc:	00c44703          	lbu	a4,12(s0)
    13e0:	06a2                	slli	a3,a3,0x8
    13e2:	8ed9                	or	a3,a3,a4
    13e4:	00e44703          	lbu	a4,14(s0)
    13e8:	0742                	slli	a4,a4,0x10
    13ea:	8ed9                	or	a3,a3,a4
    13ec:	00f44703          	lbu	a4,15(s0)
    13f0:	0762                	slli	a4,a4,0x18
    13f2:	8f55                	or	a4,a4,a3
    13f4:	00875693          	srli	a3,a4,0x8
    13f8:	00e78623          	sb	a4,12(a5)
    13fc:	00d786a3          	sb	a3,13(a5)
    1400:	01075693          	srli	a3,a4,0x10
    1404:	8361                	srli	a4,a4,0x18
    1406:	00d78723          	sb	a3,14(a5)
    140a:	00e787a3          	sb	a4,15(a5)
    140e:	bf8d                	j	1380 <tcp_close+0x78>
    1410:	4605                	li	a2,1
    1412:	87ba                	mv	a5,a4
    1414:	b771                	j	13a0 <tcp_close+0x98>
    1416:	20022097          	auipc	ra,0x20022
    141a:	966080e7          	jalr	-1690(ra) # 20022d7c <LwipRemoveTcpPcb>
    141e:	85a2                	mv	a1,s0
    1420:	20000517          	auipc	a0,0x20000
    1424:	aac50513          	addi	a0,a0,-1364 # 20000ecc <tcp_listen_pcbs>
    1428:	33d9                	jal	11ee <tcp_pcb_remove>
    142a:	85a2                	mv	a1,s0
    142c:	450d                	li	a0,3
    142e:	090050ef          	jal	ra,64be <memp_free>
    1432:	4501                	li	a0,0
    1434:	a00d                	j	1456 <tcp_close+0x14e>
    1436:	20022097          	auipc	ra,0x20022
    143a:	946080e7          	jalr	-1722(ra) # 20022d7c <LwipRemoveTcpPcb>
    143e:	85a2                	mv	a1,s0
    1440:	20000517          	auipc	a0,0x20000
    1444:	a8450513          	addi	a0,a0,-1404 # 20000ec4 <tcp_active_pcbs>
    1448:	335d                	jal	11ee <tcp_pcb_remove>
    144a:	b799                	j	1390 <tcp_close+0x88>
    144c:	4585                	li	a1,1
    144e:	0c9030ef          	jal	ra,4d16 <tcp_send_ctrl>
    1452:	4795                	li	a5,5
    1454:	c911                	beqz	a0,1468 <tcp_close+0x160>
    1456:	2001f317          	auipc	t1,0x2001f
    145a:	bfe30067          	jr	-1026(t1) # 20020054 <__riscv_restore_0>
    145e:	4585                	li	a1,1
    1460:	0b7030ef          	jal	ra,4d16 <tcp_send_ctrl>
    1464:	f96d                	bnez	a0,1456 <tcp_close+0x14e>
    1466:	47a5                	li	a5,9
    1468:	00f40823          	sb	a5,16(s0)
    146c:	000408a3          	sb	zero,17(s0)
    1470:	00040923          	sb	zero,18(s0)
    1474:	000409a3          	sb	zero,19(s0)
    1478:	8522                	mv	a0,s0
    147a:	185030ef          	jal	ra,4dfe <tcp_output>
    147e:	bf55                	j	1432 <tcp_close+0x12a>
    1480:	4501                	li	a0,0
    1482:	8082                	ret

00001484 <tcp_recv_null>:
    1484:	2001f317          	auipc	t1,0x2001f
    1488:	bac302e7          	jalr	t0,-1108(t1) # 20020030 <__riscv_save_0>
    148c:	1141                	addi	sp,sp,-16
    148e:	852e                	mv	a0,a1
    1490:	c60d                	beqz	a2,14ba <tcp_recv_null+0x36>
    1492:	00964783          	lbu	a5,9(a2)
    1496:	00864583          	lbu	a1,8(a2)
    149a:	c632                	sw	a2,12(sp)
    149c:	07a2                	slli	a5,a5,0x8
    149e:	8ddd                	or	a1,a1,a5
    14a0:	c8eff0ef          	jal	ra,92e <tcp_recved>
    14a4:	4632                	lw	a2,12(sp)
    14a6:	8532                	mv	a0,a2
    14a8:	48f050ef          	jal	ra,7136 <pbuf_free>
    14ac:	4781                	li	a5,0
    14ae:	853e                	mv	a0,a5
    14b0:	0141                	addi	sp,sp,16
    14b2:	2001f317          	auipc	t1,0x2001f
    14b6:	ba230067          	jr	-1118(t1) # 20020054 <__riscv_restore_0>
    14ba:	4781                	li	a5,0
    14bc:	faed                	bnez	a3,14ae <tcp_recv_null+0x2a>
    14be:	35a9                	jal	1308 <tcp_close>
    14c0:	87aa                	mv	a5,a0
    14c2:	b7f5                	j	14ae <tcp_recv_null+0x2a>

000014c4 <tcp_fasttmr>:
    14c4:	2001f317          	auipc	t1,0x2001f
    14c8:	b6c302e7          	jalr	t0,-1172(t1) # 20020030 <__riscv_save_0>
    14cc:	20000797          	auipc	a5,0x20000
    14d0:	9f878793          	addi	a5,a5,-1544 # 20000ec4 <tcp_active_pcbs>
    14d4:	4380                	lw	s0,0(a5)
    14d6:	06500493          	li	s1,101
    14da:	c449                	beqz	s0,1564 <tcp_fasttmr+0xa0>
    14dc:	07544783          	lbu	a5,117(s0)
    14e0:	07444603          	lbu	a2,116(s0)
    14e4:	07a2                	slli	a5,a5,0x8
    14e6:	8fd1                	or	a5,a5,a2
    14e8:	07644603          	lbu	a2,118(s0)
    14ec:	0642                	slli	a2,a2,0x10
    14ee:	8fd1                	or	a5,a5,a2
    14f0:	07744603          	lbu	a2,119(s0)
    14f4:	0662                	slli	a2,a2,0x18
    14f6:	8e5d                	or	a2,a2,a5
    14f8:	ca31                	beqz	a2,154c <tcp_fasttmr+0x88>
    14fa:	07d44703          	lbu	a4,125(s0)
    14fe:	07c44783          	lbu	a5,124(s0)
    1502:	0722                	slli	a4,a4,0x8
    1504:	8f5d                	or	a4,a4,a5
    1506:	07e44783          	lbu	a5,126(s0)
    150a:	07c2                	slli	a5,a5,0x10
    150c:	8f5d                	or	a4,a4,a5
    150e:	07f44783          	lbu	a5,127(s0)
    1512:	07e2                	slli	a5,a5,0x18
    1514:	8fd9                	or	a5,a5,a4
    1516:	cbb9                	beqz	a5,156c <tcp_fasttmr+0xa8>
    1518:	01644503          	lbu	a0,22(s0)
    151c:	01544703          	lbu	a4,21(s0)
    1520:	4681                	li	a3,0
    1522:	0522                	slli	a0,a0,0x8
    1524:	8d59                	or	a0,a0,a4
    1526:	01744703          	lbu	a4,23(s0)
    152a:	85a2                	mv	a1,s0
    152c:	0742                	slli	a4,a4,0x10
    152e:	8f49                	or	a4,a4,a0
    1530:	01844503          	lbu	a0,24(s0)
    1534:	0562                	slli	a0,a0,0x18
    1536:	8d59                	or	a0,a0,a4
    1538:	9782                	jalr	a5
    153a:	e909                	bnez	a0,154c <tcp_fasttmr+0x88>
    153c:	06040a23          	sb	zero,116(s0)
    1540:	06040aa3          	sb	zero,117(s0)
    1544:	06040b23          	sb	zero,118(s0)
    1548:	06040ba3          	sb	zero,119(s0)
    154c:	14fd                	addi	s1,s1,-1
    154e:	0ff4f493          	andi	s1,s1,255
    1552:	e095                	bnez	s1,1576 <tcp_fasttmr+0xb2>
    1554:	20026517          	auipc	a0,0x20026
    1558:	8e850513          	addi	a0,a0,-1816 # 20026e3c <tcp_backoff+0x14>
    155c:	20024097          	auipc	ra,0x20024
    1560:	e8e080e7          	jalr	-370(ra) # 200253ea <puts>
    1564:	2001f317          	auipc	t1,0x2001f
    1568:	af030067          	jr	-1296(t1) # 20020054 <__riscv_restore_0>
    156c:	4681                	li	a3,0
    156e:	85a2                	mv	a1,s0
    1570:	4501                	li	a0,0
    1572:	3f09                	jal	1484 <tcp_recv_null>
    1574:	b7d9                	j	153a <tcp_fasttmr+0x76>
    1576:	02144783          	lbu	a5,33(s0)
    157a:	0017f713          	andi	a4,a5,1
    157e:	cf09                	beqz	a4,1598 <tcp_fasttmr+0xd4>
    1580:	0027e793          	ori	a5,a5,2
    1584:	02f400a3          	sb	a5,33(s0)
    1588:	8522                	mv	a0,s0
    158a:	075030ef          	jal	ra,4dfe <tcp_output>
    158e:	02144783          	lbu	a5,33(s0)
    1592:	9bf1                	andi	a5,a5,-4
    1594:	02f400a3          	sb	a5,33(s0)
    1598:	00d44783          	lbu	a5,13(s0)
    159c:	00c44703          	lbu	a4,12(s0)
    15a0:	07a2                	slli	a5,a5,0x8
    15a2:	8f5d                	or	a4,a4,a5
    15a4:	00e44783          	lbu	a5,14(s0)
    15a8:	00f44403          	lbu	s0,15(s0)
    15ac:	07c2                	slli	a5,a5,0x10
    15ae:	8fd9                	or	a5,a5,a4
    15b0:	0462                	slli	s0,s0,0x18
    15b2:	8c5d                	or	s0,s0,a5
    15b4:	b71d                	j	14da <tcp_fasttmr+0x16>

000015b6 <tcp_tmr>:
    15b6:	2001f317          	auipc	t1,0x2001f
    15ba:	a7a302e7          	jalr	t0,-1414(t1) # 20020030 <__riscv_save_0>
    15be:	3719                	jal	14c4 <tcp_fasttmr>
    15c0:	1ffff797          	auipc	a5,0x1ffff
    15c4:	b447c783          	lbu	a5,-1212(a5) # 20000104 <tcp_timer>
    15c8:	0785                	addi	a5,a5,1
    15ca:	0ff7f793          	andi	a5,a5,255
    15ce:	1ffff717          	auipc	a4,0x1ffff
    15d2:	b2f70b23          	sb	a5,-1226(a4) # 20000104 <tcp_timer>
    15d6:	8b85                	andi	a5,a5,1
    15d8:	c399                	beqz	a5,15de <tcp_tmr+0x28>
    15da:	ddcff0ef          	jal	ra,bb6 <tcp_slowtmr>
    15de:	2001f317          	auipc	t1,0x2001f
    15e2:	a7630067          	jr	-1418(t1) # 20020054 <__riscv_restore_0>

000015e6 <tcp_abandon>:
    15e6:	2001f317          	auipc	t1,0x2001f
    15ea:	a22302e7          	jalr	t0,-1502(t1) # 20020008 <__riscv_save_10>
    15ee:	01154703          	lbu	a4,17(a0)
    15f2:	01054783          	lbu	a5,16(a0)
    15f6:	1141                	addi	sp,sp,-16
    15f8:	0722                	slli	a4,a4,0x8
    15fa:	8f5d                	or	a4,a4,a5
    15fc:	01254783          	lbu	a5,18(a0)
    1600:	842a                	mv	s0,a0
    1602:	07c2                	slli	a5,a5,0x10
    1604:	8f5d                	or	a4,a4,a5
    1606:	01354783          	lbu	a5,19(a0)
    160a:	07e2                	slli	a5,a5,0x18
    160c:	8fd9                	or	a5,a5,a4
    160e:	4729                	li	a4,10
    1610:	02e79163          	bne	a5,a4,1632 <tcp_abandon+0x4c>
    1614:	85aa                	mv	a1,a0
    1616:	20000517          	auipc	a0,0x20000
    161a:	8c250513          	addi	a0,a0,-1854 # 20000ed8 <tcp_tw_pcbs>
    161e:	3ec1                	jal	11ee <tcp_pcb_remove>
    1620:	85a2                	mv	a1,s0
    1622:	4509                	li	a0,2
    1624:	69b040ef          	jal	ra,64be <memp_free>
    1628:	0141                	addi	sp,sp,16
    162a:	2001f317          	auipc	t1,0x2001f
    162e:	a1630067          	jr	-1514(t1) # 20020040 <__riscv_restore_10>
    1632:	05154783          	lbu	a5,81(a0)
    1636:	05054903          	lbu	s2,80(a0)
    163a:	02254983          	lbu	s3,34(a0)
    163e:	07a2                	slli	a5,a5,0x8
    1640:	0127e7b3          	or	a5,a5,s2
    1644:	05254903          	lbu	s2,82(a0)
    1648:	00154703          	lbu	a4,1(a0)
    164c:	8bae                	mv	s7,a1
    164e:	0942                	slli	s2,s2,0x10
    1650:	00f967b3          	or	a5,s2,a5
    1654:	05354903          	lbu	s2,83(a0)
    1658:	0722                	slli	a4,a4,0x8
    165a:	0962                	slli	s2,s2,0x18
    165c:	00f96933          	or	s2,s2,a5
    1660:	02354783          	lbu	a5,35(a0)
    1664:	07a2                	slli	a5,a5,0x8
    1666:	0137e7b3          	or	a5,a5,s3
    166a:	02454983          	lbu	s3,36(a0)
    166e:	09c2                	slli	s3,s3,0x10
    1670:	00f9e7b3          	or	a5,s3,a5
    1674:	02554983          	lbu	s3,37(a0)
    1678:	09e2                	slli	s3,s3,0x18
    167a:	00f9e9b3          	or	s3,s3,a5
    167e:	00054783          	lbu	a5,0(a0)
    1682:	8f5d                	or	a4,a4,a5
    1684:	00254783          	lbu	a5,2(a0)
    1688:	07c2                	slli	a5,a5,0x10
    168a:	8f5d                	or	a4,a4,a5
    168c:	00354783          	lbu	a5,3(a0)
    1690:	07e2                	slli	a5,a5,0x18
    1692:	8fd9                	or	a5,a5,a4
    1694:	c63e                	sw	a5,12(sp)
    1696:	00554703          	lbu	a4,5(a0)
    169a:	00454783          	lbu	a5,4(a0)
    169e:	0722                	slli	a4,a4,0x8
    16a0:	8f5d                	or	a4,a4,a5
    16a2:	00654783          	lbu	a5,6(a0)
    16a6:	07c2                	slli	a5,a5,0x10
    16a8:	8f5d                	or	a4,a4,a5
    16aa:	00754783          	lbu	a5,7(a0)
    16ae:	07e2                	slli	a5,a5,0x18
    16b0:	8fd9                	or	a5,a5,a4
    16b2:	c43e                	sw	a5,8(sp)
    16b4:	01a54a03          	lbu	s4,26(a0)
    16b8:	01954783          	lbu	a5,25(a0)
    16bc:	02054a83          	lbu	s5,32(a0)
    16c0:	0a22                	slli	s4,s4,0x8
    16c2:	00fa6a33          	or	s4,s4,a5
    16c6:	01f54783          	lbu	a5,31(a0)
    16ca:	0aa2                	slli	s5,s5,0x8
    16cc:	08854483          	lbu	s1,136(a0)
    16d0:	00faeab3          	or	s5,s5,a5
    16d4:	08954783          	lbu	a5,137(a0)
    16d8:	01554b03          	lbu	s6,21(a0)
    16dc:	07a2                	slli	a5,a5,0x8
    16de:	8fc5                	or	a5,a5,s1
    16e0:	08a54483          	lbu	s1,138(a0)
    16e4:	04c2                	slli	s1,s1,0x10
    16e6:	8fc5                	or	a5,a5,s1
    16e8:	08b54483          	lbu	s1,139(a0)
    16ec:	04e2                	slli	s1,s1,0x18
    16ee:	8cdd                	or	s1,s1,a5
    16f0:	01654783          	lbu	a5,22(a0)
    16f4:	07a2                	slli	a5,a5,0x8
    16f6:	0167e7b3          	or	a5,a5,s6
    16fa:	01754b03          	lbu	s6,23(a0)
    16fe:	0b42                	slli	s6,s6,0x10
    1700:	00fb67b3          	or	a5,s6,a5
    1704:	01854b03          	lbu	s6,24(a0)
    1708:	0b62                	slli	s6,s6,0x18
    170a:	00fb6b33          	or	s6,s6,a5
    170e:	20021097          	auipc	ra,0x20021
    1712:	66e080e7          	jalr	1646(ra) # 20022d7c <LwipRemoveTcpPcb>
    1716:	1ffff517          	auipc	a0,0x1ffff
    171a:	7ae50513          	addi	a0,a0,1966 # 20000ec4 <tcp_active_pcbs>
    171e:	85a2                	mv	a1,s0
    1720:	34f9                	jal	11ee <tcp_pcb_remove>
    1722:	06d44783          	lbu	a5,109(s0)
    1726:	06c44503          	lbu	a0,108(s0)
    172a:	07a2                	slli	a5,a5,0x8
    172c:	8fc9                	or	a5,a5,a0
    172e:	06e44503          	lbu	a0,110(s0)
    1732:	0542                	slli	a0,a0,0x10
    1734:	8fc9                	or	a5,a5,a0
    1736:	06f44503          	lbu	a0,111(s0)
    173a:	0562                	slli	a0,a0,0x18
    173c:	8d5d                	or	a0,a0,a5
    173e:	c119                	beqz	a0,1744 <tcp_abandon+0x15e>
    1740:	a8cff0ef          	jal	ra,9cc <tcp_segs_free>
    1744:	06944783          	lbu	a5,105(s0)
    1748:	06844503          	lbu	a0,104(s0)
    174c:	07a2                	slli	a5,a5,0x8
    174e:	8fc9                	or	a5,a5,a0
    1750:	06a44503          	lbu	a0,106(s0)
    1754:	0542                	slli	a0,a0,0x10
    1756:	8fc9                	or	a5,a5,a0
    1758:	06b44503          	lbu	a0,107(s0)
    175c:	0562                	slli	a0,a0,0x18
    175e:	8d5d                	or	a0,a0,a5
    1760:	c119                	beqz	a0,1766 <tcp_abandon+0x180>
    1762:	a6aff0ef          	jal	ra,9cc <tcp_segs_free>
    1766:	07144783          	lbu	a5,113(s0)
    176a:	07044503          	lbu	a0,112(s0)
    176e:	07a2                	slli	a5,a5,0x8
    1770:	8fc9                	or	a5,a5,a0
    1772:	07244503          	lbu	a0,114(s0)
    1776:	0542                	slli	a0,a0,0x10
    1778:	8fc9                	or	a5,a5,a0
    177a:	07344503          	lbu	a0,115(s0)
    177e:	0562                	slli	a0,a0,0x18
    1780:	8d5d                	or	a0,a0,a5
    1782:	c119                	beqz	a0,1788 <tcp_abandon+0x1a2>
    1784:	a48ff0ef          	jal	ra,9cc <tcp_segs_free>
    1788:	85a2                	mv	a1,s0
    178a:	4509                	li	a0,2
    178c:	533040ef          	jal	ra,64be <memp_free>
    1790:	c481                	beqz	s1,1798 <tcp_abandon+0x1b2>
    1792:	55ed                	li	a1,-5
    1794:	855a                	mv	a0,s6
    1796:	9482                	jalr	s1
    1798:	e80b88e3          	beqz	s7,1628 <tcp_abandon+0x42>
    179c:	87d6                	mv	a5,s5
    179e:	8752                	mv	a4,s4
    17a0:	0034                	addi	a3,sp,8
    17a2:	0070                	addi	a2,sp,12
    17a4:	85ce                	mv	a1,s3
    17a6:	854a                	mv	a0,s2
    17a8:	52d030ef          	jal	ra,54d4 <tcp_rst>
    17ac:	bdb5                	j	1628 <tcp_abandon+0x42>

000017ae <tcp_next_iss>:
    17ae:	1ffff797          	auipc	a5,0x1ffff
    17b2:	8de78793          	addi	a5,a5,-1826 # 2000008c <iss.3741>
    17b6:	1ffff717          	auipc	a4,0x1ffff
    17ba:	71270713          	addi	a4,a4,1810 # 20000ec8 <tcp_ticks>
    17be:	4388                	lw	a0,0(a5)
    17c0:	4318                	lw	a4,0(a4)
    17c2:	953a                	add	a0,a0,a4
    17c4:	c388                	sw	a0,0(a5)
    17c6:	8082                	ret

000017c8 <tcp_alloc>:
    17c8:	2001f317          	auipc	t1,0x2001f
    17cc:	84e302e7          	jalr	t0,-1970(t1) # 20020016 <__riscv_save_4>
    17d0:	892a                	mv	s2,a0
    17d2:	4509                	li	a0,2
    17d4:	4cb040ef          	jal	ra,649e <memp_malloc>
    17d8:	1ffff497          	auipc	s1,0x1ffff
    17dc:	60c48493          	addi	s1,s1,1548 # 20000de4 <CH569Cfg>
    17e0:	842a                	mv	s0,a0
    17e2:	e92d                	bnez	a0,1854 <tcp_alloc+0x8c>
    17e4:	489c                	lw	a5,16(s1)
    17e6:	8b91                	andi	a5,a5,4
    17e8:	e799                	bnez	a5,17f6 <tcp_alloc+0x2e>
    17ea:	4401                	li	s0,0
    17ec:	8522                	mv	a0,s0
    17ee:	2001f317          	auipc	t1,0x2001f
    17f2:	85c30067          	jr	-1956(t1) # 2002004a <__riscv_restore_4>
    17f6:	1ffff797          	auipc	a5,0x1ffff
    17fa:	6e278793          	addi	a5,a5,1762 # 20000ed8 <tcp_tw_pcbs>
    17fe:	1ffff997          	auipc	s3,0x1ffff
    1802:	6ca98993          	addi	s3,s3,1738 # 20000ec8 <tcp_ticks>
    1806:	439c                	lw	a5,0(a5)
    1808:	0009a583          	lw	a1,0(s3)
    180c:	4501                	li	a0,0
    180e:	4601                	li	a2,0
    1810:	1a079163          	bnez	a5,19b2 <tcp_alloc+0x1ea>
    1814:	c119                	beqz	a0,181a <tcp_alloc+0x52>
    1816:	4585                	li	a1,1
    1818:	33f9                	jal	15e6 <tcp_abandon>
    181a:	4509                	li	a0,2
    181c:	483040ef          	jal	ra,649e <memp_malloc>
    1820:	842a                	mv	s0,a0
    1822:	e90d                	bnez	a0,1854 <tcp_alloc+0x8c>
    1824:	1ffff797          	auipc	a5,0x1ffff
    1828:	6a078793          	addi	a5,a5,1696 # 20000ec4 <tcp_active_pcbs>
    182c:	439c                	lw	a5,0(a5)
    182e:	0009a803          	lw	a6,0(s3)
    1832:	197d                	addi	s2,s2,-1
    1834:	0ff97913          	andi	s2,s2,255
    1838:	07f00593          	li	a1,127
    183c:	4501                	li	a0,0
    183e:	1a079d63          	bnez	a5,19f8 <tcp_alloc+0x230>
    1842:	c401                	beqz	s0,184a <tcp_alloc+0x82>
    1844:	4585                	li	a1,1
    1846:	8522                	mv	a0,s0
    1848:	3b79                	jal	15e6 <tcp_abandon>
    184a:	4509                	li	a0,2
    184c:	453040ef          	jal	ra,649e <memp_malloc>
    1850:	842a                	mv	s0,a0
    1852:	dd41                	beqz	a0,17ea <tcp_alloc+0x22>
    1854:	09600613          	li	a2,150
    1858:	4581                	li	a1,0
    185a:	8522                	mv	a0,s0
    185c:	2001f097          	auipc	ra,0x2001f
    1860:	804080e7          	jalr	-2044(ra) # 20020060 <memset>
    1864:	04000793          	li	a5,64
    1868:	00f40a23          	sb	a5,20(s0)
    186c:	02000793          	li	a5,32
    1870:	06f402a3          	sb	a5,101(s0)
    1874:	40dc                	lw	a5,4(s1)
    1876:	00040523          	sb	zero,10(s0)
    187a:	01079713          	slli	a4,a5,0x10
    187e:	8341                	srli	a4,a4,0x10
    1880:	0ff77693          	andi	a3,a4,255
    1884:	8321                	srli	a4,a4,0x8
    1886:	02e403a3          	sb	a4,39(s0)
    188a:	02e404a3          	sb	a4,41(s0)
    188e:	f8000713          	li	a4,-128
    1892:	00e405a3          	sb	a4,11(s0)
    1896:	02d40323          	sb	a3,38(s0)
    189a:	02d40423          	sb	a3,40(s0)
    189e:	21800713          	li	a4,536
    18a2:	00f77463          	bgeu	a4,a5,18aa <tcp_alloc+0xe2>
    18a6:	21800793          	li	a5,536
    18aa:	07c2                	slli	a5,a5,0x10
    18ac:	83c1                	srli	a5,a5,0x10
    18ae:	02f40b23          	sb	a5,54(s0)
    18b2:	83a1                	srli	a5,a5,0x8
    18b4:	02f40ba3          	sb	a5,55(s0)
    18b8:	4799                	li	a5,6
    18ba:	04f40223          	sb	a5,68(s0)
    18be:	04f40123          	sb	a5,66(s0)
    18c2:	57fd                	li	a5,-1
    18c4:	02f40a23          	sb	a5,52(s0)
    18c8:	02f40aa3          	sb	a5,53(s0)
    18cc:	4785                	li	a5,1
    18ce:	04f40623          	sb	a5,76(s0)
    18d2:	040402a3          	sb	zero,69(s0)
    18d6:	04040023          	sb	zero,64(s0)
    18da:	040400a3          	sb	zero,65(s0)
    18de:	040401a3          	sb	zero,67(s0)
    18e2:	040406a3          	sb	zero,77(s0)
    18e6:	35e1                	jal	17ae <tcp_next_iss>
    18e8:	01055793          	srli	a5,a0,0x10
    18ec:	0ff7f793          	andi	a5,a5,255
    18f0:	04f40e23          	sb	a5,92(s0)
    18f4:	04f40923          	sb	a5,82(s0)
    18f8:	04f404a3          	sb	a5,73(s0)
    18fc:	06f40023          	sb	a5,96(s0)
    1900:	1ffff797          	auipc	a5,0x1ffff
    1904:	5c878793          	addi	a5,a5,1480 # 20000ec8 <tcp_ticks>
    1908:	439c                	lw	a5,0(a5)
    190a:	00855713          	srli	a4,a0,0x8
    190e:	0ff77713          	andi	a4,a4,255
    1912:	04e40da3          	sb	a4,91(s0)
    1916:	04e408a3          	sb	a4,81(s0)
    191a:	04e40423          	sb	a4,72(s0)
    191e:	04e40fa3          	sb	a4,95(s0)
    1922:	0087d713          	srli	a4,a5,0x8
    1926:	02f40723          	sb	a5,46(s0)
    192a:	02e407a3          	sb	a4,47(s0)
    192e:	0107d713          	srli	a4,a5,0x10
    1932:	83e1                	srli	a5,a5,0x18
    1934:	02f408a3          	sb	a5,49(s0)
    1938:	00000797          	auipc	a5,0x0
    193c:	b4c78793          	addi	a5,a5,-1204 # 1484 <tcp_recv_null>
    1940:	02e40823          	sb	a4,48(s0)
    1944:	0087d713          	srli	a4,a5,0x8
    1948:	06f40e23          	sb	a5,124(s0)
    194c:	06e40ea3          	sb	a4,125(s0)
    1950:	0107d713          	srli	a4,a5,0x10
    1954:	83e1                	srli	a5,a5,0x18
    1956:	06f40fa3          	sb	a5,127(s0)
    195a:	1ffff797          	auipc	a5,0x1ffff
    195e:	4ba78793          	addi	a5,a5,1210 # 20000e14 <KeepLiveCfg>
    1962:	439c                	lw	a5,0(a5)
    1964:	06e40f23          	sb	a4,126(s0)
    1968:	0ff57693          	andi	a3,a0,255
    196c:	0087d713          	srli	a4,a5,0x8
    1970:	8161                	srli	a0,a0,0x18
    1972:	08f40623          	sb	a5,140(s0)
    1976:	08e406a3          	sb	a4,141(s0)
    197a:	0107d713          	srli	a4,a5,0x10
    197e:	83e1                	srli	a5,a5,0x18
    1980:	04d40d23          	sb	a3,90(s0)
    1984:	04a40ea3          	sb	a0,93(s0)
    1988:	04d40823          	sb	a3,80(s0)
    198c:	04a409a3          	sb	a0,83(s0)
    1990:	04d403a3          	sb	a3,71(s0)
    1994:	04a40523          	sb	a0,74(s0)
    1998:	04d40f23          	sb	a3,94(s0)
    199c:	06a400a3          	sb	a0,97(s0)
    19a0:	02040923          	sb	zero,50(s0)
    19a4:	08e40723          	sb	a4,142(s0)
    19a8:	08f407a3          	sb	a5,143(s0)
    19ac:	08040aa3          	sb	zero,149(s0)
    19b0:	bd35                	j	17ec <tcp_alloc+0x24>
    19b2:	02f7c683          	lbu	a3,47(a5)
    19b6:	02e7c703          	lbu	a4,46(a5)
    19ba:	06a2                	slli	a3,a3,0x8
    19bc:	8ed9                	or	a3,a3,a4
    19be:	0307c703          	lbu	a4,48(a5)
    19c2:	0742                	slli	a4,a4,0x10
    19c4:	8ed9                	or	a3,a3,a4
    19c6:	0317c703          	lbu	a4,49(a5)
    19ca:	0762                	slli	a4,a4,0x18
    19cc:	8f55                	or	a4,a4,a3
    19ce:	40e58733          	sub	a4,a1,a4
    19d2:	00c76463          	bltu	a4,a2,19da <tcp_alloc+0x212>
    19d6:	863a                	mv	a2,a4
    19d8:	853e                	mv	a0,a5
    19da:	00d7c703          	lbu	a4,13(a5)
    19de:	00c7c683          	lbu	a3,12(a5)
    19e2:	0722                	slli	a4,a4,0x8
    19e4:	8ed9                	or	a3,a3,a4
    19e6:	00e7c703          	lbu	a4,14(a5)
    19ea:	00f7c783          	lbu	a5,15(a5)
    19ee:	0742                	slli	a4,a4,0x10
    19f0:	8f55                	or	a4,a4,a3
    19f2:	07e2                	slli	a5,a5,0x18
    19f4:	8fd9                	or	a5,a5,a4
    19f6:	bd29                	j	1810 <tcp_alloc+0x48>
    19f8:	0147c603          	lbu	a2,20(a5)
    19fc:	02c96963          	bltu	s2,a2,1a2e <tcp_alloc+0x266>
    1a00:	02c5e763          	bltu	a1,a2,1a2e <tcp_alloc+0x266>
    1a04:	02f7c683          	lbu	a3,47(a5)
    1a08:	02e7c703          	lbu	a4,46(a5)
    1a0c:	06a2                	slli	a3,a3,0x8
    1a0e:	8ed9                	or	a3,a3,a4
    1a10:	0307c703          	lbu	a4,48(a5)
    1a14:	0742                	slli	a4,a4,0x10
    1a16:	8ed9                	or	a3,a3,a4
    1a18:	0317c703          	lbu	a4,49(a5)
    1a1c:	0762                	slli	a4,a4,0x18
    1a1e:	8f55                	or	a4,a4,a3
    1a20:	40e80733          	sub	a4,a6,a4
    1a24:	00a76563          	bltu	a4,a0,1a2e <tcp_alloc+0x266>
    1a28:	85b2                	mv	a1,a2
    1a2a:	853a                	mv	a0,a4
    1a2c:	843e                	mv	s0,a5
    1a2e:	00d7c703          	lbu	a4,13(a5)
    1a32:	00c7c683          	lbu	a3,12(a5)
    1a36:	0722                	slli	a4,a4,0x8
    1a38:	8ed9                	or	a3,a3,a4
    1a3a:	00e7c703          	lbu	a4,14(a5)
    1a3e:	00f7c783          	lbu	a5,15(a5)
    1a42:	0742                	slli	a4,a4,0x10
    1a44:	8f55                	or	a4,a4,a3
    1a46:	07e2                	slli	a5,a5,0x18
    1a48:	8fd9                	or	a5,a5,a4
    1a4a:	bbd5                	j	183e <tcp_alloc+0x76>

00001a4c <tcp_new>:
    1a4c:	2001e317          	auipc	t1,0x2001e
    1a50:	5e4302e7          	jalr	t0,1508(t1) # 20020030 <__riscv_save_0>
    1a54:	04000513          	li	a0,64
    1a58:	3b85                	jal	17c8 <tcp_alloc>
    1a5a:	2001e317          	auipc	t1,0x2001e
    1a5e:	5fa30067          	jr	1530(t1) # 20020054 <__riscv_restore_0>

00001a62 <tcp_eff_send_mss>:
    1a62:	2001e317          	auipc	t1,0x2001e
    1a66:	5ce302e7          	jalr	t0,1486(t1) # 20020030 <__riscv_save_0>
    1a6a:	842a                	mv	s0,a0
    1a6c:	852e                	mv	a0,a1
    1a6e:	791030ef          	jal	ra,59fe <ip_route>
    1a72:	cd19                	beqz	a0,1a90 <tcp_eff_send_mss+0x2e>
    1a74:	02455783          	lhu	a5,36(a0)
    1a78:	cf81                	beqz	a5,1a90 <tcp_eff_send_mss+0x2e>
    1a7a:	fd878793          	addi	a5,a5,-40
    1a7e:	873e                	mv	a4,a5
    1a80:	07c2                	slli	a5,a5,0x10
    1a82:	83c1                	srli	a5,a5,0x10
    1a84:	00f47363          	bgeu	s0,a5,1a8a <tcp_eff_send_mss+0x28>
    1a88:	8722                	mv	a4,s0
    1a8a:	01071413          	slli	s0,a4,0x10
    1a8e:	8041                	srli	s0,s0,0x10
    1a90:	8522                	mv	a0,s0
    1a92:	2001e317          	auipc	t1,0x2001e
    1a96:	5c230067          	jr	1474(t1) # 20020054 <__riscv_restore_0>

00001a9a <tcp_connect>:
    1a9a:	2001e317          	auipc	t1,0x2001e
    1a9e:	57c302e7          	jalr	t0,1404(t1) # 20020016 <__riscv_save_4>
    1aa2:	01154703          	lbu	a4,17(a0)
    1aa6:	01054783          	lbu	a5,16(a0)
    1aaa:	594d                	li	s2,-13
    1aac:	0722                	slli	a4,a4,0x8
    1aae:	8f5d                	or	a4,a4,a5
    1ab0:	01254783          	lbu	a5,18(a0)
    1ab4:	07c2                	slli	a5,a5,0x10
    1ab6:	8f5d                	or	a4,a4,a5
    1ab8:	01354783          	lbu	a5,19(a0)
    1abc:	07e2                	slli	a5,a5,0x18
    1abe:	8fd9                	or	a5,a5,a4
    1ac0:	1c079c63          	bnez	a5,1c98 <tcp_connect+0x1fe>
    1ac4:	89ae                	mv	s3,a1
    1ac6:	595d                	li	s2,-9
    1ac8:	1c058863          	beqz	a1,1c98 <tcp_connect+0x1fe>
    1acc:	842a                	mv	s0,a0
    1ace:	8932                	mv	s2,a2
    1ad0:	0511                	addi	a0,a0,4
    1ad2:	4611                	li	a2,4
    1ad4:	84b6                	mv	s1,a3
    1ad6:	20023097          	auipc	ra,0x20023
    1ada:	712080e7          	jalr	1810(ra) # 200251e8 <memcpy>
    1ade:	01a44783          	lbu	a5,26(s0)
    1ae2:	01944703          	lbu	a4,25(s0)
    1ae6:	01240fa3          	sb	s2,31(s0)
    1aea:	07a2                	slli	a5,a5,0x8
    1aec:	00895913          	srli	s2,s2,0x8
    1af0:	03240023          	sb	s2,32(s0)
    1af4:	8fd9                	or	a5,a5,a4
    1af6:	eb81                	bnez	a5,1b06 <tcp_connect+0x6c>
    1af8:	a11fe0ef          	jal	ra,508 <tcp_new_port>
    1afc:	00a40ca3          	sb	a0,25(s0)
    1b00:	8121                	srli	a0,a0,0x8
    1b02:	00a40d23          	sb	a0,26(s0)
    1b06:	3165                	jal	17ae <tcp_next_iss>
    1b08:	00855793          	srli	a5,a0,0x8
    1b0c:	04f408a3          	sb	a5,81(s0)
    1b10:	01055793          	srli	a5,a0,0x10
    1b14:	04a40823          	sb	a0,80(s0)
    1b18:	04f40923          	sb	a5,82(s0)
    1b1c:	01855793          	srli	a5,a0,0x18
    1b20:	157d                	addi	a0,a0,-1
    1b22:	04f409a3          	sb	a5,83(s0)
    1b26:	01055793          	srli	a5,a0,0x10
    1b2a:	0ff7f793          	andi	a5,a5,255
    1b2e:	0ff57693          	andi	a3,a0,255
    1b32:	00855713          	srli	a4,a0,0x8
    1b36:	04f404a3          	sb	a5,73(s0)
    1b3a:	8161                	srli	a0,a0,0x18
    1b3c:	06f40023          	sb	a5,96(s0)
    1b40:	1ffff797          	auipc	a5,0x1ffff
    1b44:	2a478793          	addi	a5,a5,676 # 20000de4 <CH569Cfg>
    1b48:	04a40523          	sb	a0,74(s0)
    1b4c:	06a400a3          	sb	a0,97(s0)
    1b50:	43c8                	lw	a0,4(a5)
    1b52:	0ff77713          	andi	a4,a4,255
    1b56:	04e40423          	sb	a4,72(s0)
    1b5a:	01051793          	slli	a5,a0,0x10
    1b5e:	83c1                	srli	a5,a5,0x10
    1b60:	04e40fa3          	sb	a4,95(s0)
    1b64:	0ff7f713          	andi	a4,a5,255
    1b68:	83a1                	srli	a5,a5,0x8
    1b6a:	02f403a3          	sb	a5,39(s0)
    1b6e:	02f404a3          	sb	a5,41(s0)
    1b72:	04f40aa3          	sb	a5,85(s0)
    1b76:	02040123          	sb	zero,34(s0)
    1b7a:	020401a3          	sb	zero,35(s0)
    1b7e:	02040223          	sb	zero,36(s0)
    1b82:	020402a3          	sb	zero,37(s0)
    1b86:	04d403a3          	sb	a3,71(s0)
    1b8a:	04d40f23          	sb	a3,94(s0)
    1b8e:	02e40323          	sb	a4,38(s0)
    1b92:	02e40423          	sb	a4,40(s0)
    1b96:	02040523          	sb	zero,42(s0)
    1b9a:	020405a3          	sb	zero,43(s0)
    1b9e:	02040623          	sb	zero,44(s0)
    1ba2:	020406a3          	sb	zero,45(s0)
    1ba6:	04e40a23          	sb	a4,84(s0)
    1baa:	21800793          	li	a5,536
    1bae:	00a7f463          	bgeu	a5,a0,1bb6 <tcp_connect+0x11c>
    1bb2:	21800513          	li	a0,536
    1bb6:	0542                	slli	a0,a0,0x10
    1bb8:	8141                	srli	a0,a0,0x10
    1bba:	00855793          	srli	a5,a0,0x8
    1bbe:	02f40ba3          	sb	a5,55(s0)
    1bc2:	02a40b23          	sb	a0,54(s0)
    1bc6:	85ce                	mv	a1,s3
    1bc8:	3d69                	jal	1a62 <tcp_eff_send_mss>
    1bca:	00855793          	srli	a5,a0,0x8
    1bce:	02f40ba3          	sb	a5,55(s0)
    1bd2:	4785                	li	a5,1
    1bd4:	04f40623          	sb	a5,76(s0)
    1bd8:	47a9                	li	a5,10
    1bda:	02a40b23          	sb	a0,54(s0)
    1bde:	02f50533          	mul	a0,a0,a5
    1be2:	4789                	li	a5,2
    1be4:	00f40823          	sb	a5,16(s0)
    1be8:	0084d793          	srli	a5,s1,0x8
    1bec:	08f400a3          	sb	a5,129(s0)
    1bf0:	0104d793          	srli	a5,s1,0x10
    1bf4:	08f40123          	sb	a5,130(s0)
    1bf8:	1ffff797          	auipc	a5,0x1ffff
    1bfc:	2dc78793          	addi	a5,a5,732 # 20000ed4 <tcp_bound_pcbs>
    1c00:	439c                	lw	a5,0(a5)
    1c02:	08940023          	sb	s1,128(s0)
    1c06:	0542                	slli	a0,a0,0x10
    1c08:	8141                	srli	a0,a0,0x10
    1c0a:	04a40723          	sb	a0,78(s0)
    1c0e:	80e1                	srli	s1,s1,0x18
    1c10:	8121                	srli	a0,a0,0x8
    1c12:	040406a3          	sb	zero,77(s0)
    1c16:	04a407a3          	sb	a0,79(s0)
    1c1a:	000408a3          	sb	zero,17(s0)
    1c1e:	00040923          	sb	zero,18(s0)
    1c22:	000409a3          	sb	zero,19(s0)
    1c26:	089401a3          	sb	s1,131(s0)
    1c2a:	06879c63          	bne	a5,s0,1ca2 <tcp_connect+0x208>
    1c2e:	00d44703          	lbu	a4,13(s0)
    1c32:	00c44783          	lbu	a5,12(s0)
    1c36:	0722                	slli	a4,a4,0x8
    1c38:	8f5d                	or	a4,a4,a5
    1c3a:	00e44783          	lbu	a5,14(s0)
    1c3e:	07c2                	slli	a5,a5,0x10
    1c40:	8f5d                	or	a4,a4,a5
    1c42:	00f44783          	lbu	a5,15(s0)
    1c46:	07e2                	slli	a5,a5,0x18
    1c48:	8fd9                	or	a5,a5,a4
    1c4a:	1ffff717          	auipc	a4,0x1ffff
    1c4e:	28f72523          	sw	a5,650(a4) # 20000ed4 <tcp_bound_pcbs>
    1c52:	1ffff797          	auipc	a5,0x1ffff
    1c56:	27278793          	addi	a5,a5,626 # 20000ec4 <tcp_active_pcbs>
    1c5a:	439c                	lw	a5,0(a5)
    1c5c:	4689                	li	a3,2
    1c5e:	4601                	li	a2,0
    1c60:	0087d713          	srli	a4,a5,0x8
    1c64:	00f40623          	sb	a5,12(s0)
    1c68:	00e406a3          	sb	a4,13(s0)
    1c6c:	0107d713          	srli	a4,a5,0x10
    1c70:	83e1                	srli	a5,a5,0x18
    1c72:	00f407a3          	sb	a5,15(s0)
    1c76:	1ffff797          	auipc	a5,0x1ffff
    1c7a:	2487a723          	sw	s0,590(a5) # 20000ec4 <tcp_active_pcbs>
    1c7e:	00e40723          	sb	a4,14(s0)
    1c82:	4785                	li	a5,1
    1c84:	4701                	li	a4,0
    1c86:	4581                	li	a1,0
    1c88:	8522                	mv	a0,s0
    1c8a:	259020ef          	jal	ra,46e2 <tcp_enqueue>
    1c8e:	892a                	mv	s2,a0
    1c90:	e501                	bnez	a0,1c98 <tcp_connect+0x1fe>
    1c92:	8522                	mv	a0,s0
    1c94:	16a030ef          	jal	ra,4dfe <tcp_output>
    1c98:	854a                	mv	a0,s2
    1c9a:	2001e317          	auipc	t1,0x2001e
    1c9e:	3b030067          	jr	944(t1) # 2002004a <__riscv_restore_4>
    1ca2:	1ffff717          	auipc	a4,0x1ffff
    1ca6:	22f72723          	sw	a5,558(a4) # 20000ed0 <tcp_tmp_pcb>
    1caa:	4601                	li	a2,0
    1cac:	e799                	bnez	a5,1cba <tcp_connect+0x220>
    1cae:	d255                	beqz	a2,1c52 <tcp_connect+0x1b8>
    1cb0:	1ffff797          	auipc	a5,0x1ffff
    1cb4:	2207a023          	sw	zero,544(a5) # 20000ed0 <tcp_tmp_pcb>
    1cb8:	bf69                	j	1c52 <tcp_connect+0x1b8>
    1cba:	00d7c683          	lbu	a3,13(a5)
    1cbe:	00c7c703          	lbu	a4,12(a5)
    1cc2:	06a2                	slli	a3,a3,0x8
    1cc4:	8ed9                	or	a3,a3,a4
    1cc6:	00e7c703          	lbu	a4,14(a5)
    1cca:	0742                	slli	a4,a4,0x10
    1ccc:	8ed9                	or	a3,a3,a4
    1cce:	00f7c703          	lbu	a4,15(a5)
    1cd2:	0762                	slli	a4,a4,0x18
    1cd4:	8f55                	or	a4,a4,a3
    1cd6:	04871363          	bne	a4,s0,1d1c <tcp_connect+0x282>
    1cda:	c609                	beqz	a2,1ce4 <tcp_connect+0x24a>
    1cdc:	1ffff717          	auipc	a4,0x1ffff
    1ce0:	1ef72a23          	sw	a5,500(a4) # 20000ed0 <tcp_tmp_pcb>
    1ce4:	00d44683          	lbu	a3,13(s0)
    1ce8:	00c44703          	lbu	a4,12(s0)
    1cec:	06a2                	slli	a3,a3,0x8
    1cee:	8ed9                	or	a3,a3,a4
    1cf0:	00e44703          	lbu	a4,14(s0)
    1cf4:	0742                	slli	a4,a4,0x10
    1cf6:	8ed9                	or	a3,a3,a4
    1cf8:	00f44703          	lbu	a4,15(s0)
    1cfc:	0762                	slli	a4,a4,0x18
    1cfe:	8f55                	or	a4,a4,a3
    1d00:	00875693          	srli	a3,a4,0x8
    1d04:	00e78623          	sb	a4,12(a5)
    1d08:	00d786a3          	sb	a3,13(a5)
    1d0c:	01075693          	srli	a3,a4,0x10
    1d10:	8361                	srli	a4,a4,0x18
    1d12:	00d78723          	sb	a3,14(a5)
    1d16:	00e787a3          	sb	a4,15(a5)
    1d1a:	bf25                	j	1c52 <tcp_connect+0x1b8>
    1d1c:	4605                	li	a2,1
    1d1e:	87ba                	mv	a5,a4
    1d20:	b771                	j	1cac <tcp_connect+0x212>

00001d22 <tcp_parseopt>:
    1d22:	2001e317          	auipc	t1,0x2001e
    1d26:	30e302e7          	jalr	t0,782(t1) # 20020030 <__riscv_save_0>
    1d2a:	1fffe917          	auipc	s2,0x1fffe
    1d2e:	3f690913          	addi	s2,s2,1014 # 20000120 <tcphdr>
    1d32:	00092483          	lw	s1,0(s2)
    1d36:	842a                	mv	s0,a0
    1d38:	00d4c783          	lbu	a5,13(s1)
    1d3c:	00c4c503          	lbu	a0,12(s1)
    1d40:	07a2                	slli	a5,a5,0x8
    1d42:	8d5d                	or	a0,a0,a5
    1d44:	20022097          	auipc	ra,0x20022
    1d48:	07a080e7          	jalr	122(ra) # 20023dbe <ntohs>
    1d4c:	8131                	srli	a0,a0,0xc
    1d4e:	0542                	slli	a0,a0,0x10
    1d50:	8141                	srli	a0,a0,0x10
    1d52:	4795                	li	a5,5
    1d54:	04a7f263          	bgeu	a5,a0,1d98 <tcp_parseopt+0x76>
    1d58:	00092783          	lw	a5,0(s2)
    1d5c:	04d1                	addi	s1,s1,20
    1d5e:	00c7c503          	lbu	a0,12(a5)
    1d62:	00d7c783          	lbu	a5,13(a5)
    1d66:	07a2                	slli	a5,a5,0x8
    1d68:	8d5d                	or	a0,a0,a5
    1d6a:	20022097          	auipc	ra,0x20022
    1d6e:	054080e7          	jalr	84(ra) # 20023dbe <ntohs>
    1d72:	1ffff797          	auipc	a5,0x1ffff
    1d76:	07278793          	addi	a5,a5,114 # 20000de4 <CH569Cfg>
    1d7a:	43d0                	lw	a2,4(a5)
    1d7c:	8131                	srli	a0,a0,0xc
    1d7e:	156d                	addi	a0,a0,-5
    1d80:	050a                	slli	a0,a0,0x2
    1d82:	0542                	slli	a0,a0,0x10
    1d84:	01061593          	slli	a1,a2,0x10
    1d88:	8141                	srli	a0,a0,0x10
    1d8a:	81c1                	srli	a1,a1,0x10
    1d8c:	4781                	li	a5,0
    1d8e:	4805                	li	a6,1
    1d90:	4889                	li	a7,2
    1d92:	4311                	li	t1,4
    1d94:	00a7e663          	bltu	a5,a0,1da0 <tcp_parseopt+0x7e>
    1d98:	2001e317          	auipc	t1,0x2001e
    1d9c:	2bc30067          	jr	700(t1) # 20020054 <__riscv_restore_0>
    1da0:	00f486b3          	add	a3,s1,a5
    1da4:	0006c703          	lbu	a4,0(a3)
    1da8:	01070a63          	beq	a4,a6,1dbc <tcp_parseopt+0x9a>
    1dac:	d775                	beqz	a4,1d98 <tcp_parseopt+0x76>
    1dae:	01170b63          	beq	a4,a7,1dc4 <tcp_parseopt+0xa2>
    1db2:	0016c703          	lbu	a4,1(a3)
    1db6:	d36d                	beqz	a4,1d98 <tcp_parseopt+0x76>
    1db8:	97ba                	add	a5,a5,a4
    1dba:	a011                	j	1dbe <tcp_parseopt+0x9c>
    1dbc:	0785                	addi	a5,a5,1
    1dbe:	07c2                	slli	a5,a5,0x10
    1dc0:	83c1                	srli	a5,a5,0x10
    1dc2:	bfc9                	j	1d94 <tcp_parseopt+0x72>
    1dc4:	0016c703          	lbu	a4,1(a3)
    1dc8:	fc6718e3          	bne	a4,t1,1d98 <tcp_parseopt+0x76>
    1dcc:	00378713          	addi	a4,a5,3
    1dd0:	fca754e3          	bge	a4,a0,1d98 <tcp_parseopt+0x76>
    1dd4:	0026c703          	lbu	a4,2(a3)
    1dd8:	0036c683          	lbu	a3,3(a3)
    1ddc:	0722                	slli	a4,a4,0x8
    1dde:	8f55                	or	a4,a4,a3
    1de0:	00e66363          	bltu	a2,a4,1de6 <tcp_parseopt+0xc4>
    1de4:	e311                	bnez	a4,1de8 <tcp_parseopt+0xc6>
    1de6:	872e                	mv	a4,a1
    1de8:	02e40b23          	sb	a4,54(s0)
    1dec:	8321                	srli	a4,a4,0x8
    1dee:	02e40ba3          	sb	a4,55(s0)
    1df2:	0791                	addi	a5,a5,4
    1df4:	b7e9                	j	1dbe <tcp_parseopt+0x9c>

00001df6 <tcp_oos_insert_segment>:
    1df6:	2001e317          	auipc	t1,0x2001e
    1dfa:	220302e7          	jalr	t0,544(t1) # 20020016 <__riscv_save_4>
    1dfe:	491c                	lw	a5,16(a0)
    1e00:	84aa                	mv	s1,a0
    1e02:	8a2e                	mv	s4,a1
    1e04:	00c7c503          	lbu	a0,12(a5)
    1e08:	00d7c783          	lbu	a5,13(a5)
    1e0c:	07a2                	slli	a5,a5,0x8
    1e0e:	8d5d                	or	a0,a0,a5
    1e10:	20022097          	auipc	ra,0x20022
    1e14:	fae080e7          	jalr	-82(ra) # 20023dbe <ntohs>
    1e18:	8905                	andi	a0,a0,1
    1e1a:	e52d                	bnez	a0,1e84 <tcp_oos_insert_segment+0x8e>
    1e1c:	6941                	lui	s2,0x10
    1e1e:	1fffe997          	auipc	s3,0x1fffe
    1e22:	2fe98993          	addi	s3,s3,766 # 2000011c <seqno>
    1e26:	fc090913          	addi	s2,s2,-64 # ffc0 <_ramcode_lma+0x7fc0>
    1e2a:	010a2703          	lw	a4,16(s4)
    1e2e:	0009a603          	lw	a2,0(s3)
    1e32:	00c4d783          	lhu	a5,12(s1)
    1e36:	00574683          	lbu	a3,5(a4)
    1e3a:	00474583          	lbu	a1,4(a4)
    1e3e:	97b2                	add	a5,a5,a2
    1e40:	06a2                	slli	a3,a3,0x8
    1e42:	8dd5                	or	a1,a1,a3
    1e44:	00674683          	lbu	a3,6(a4)
    1e48:	06c2                	slli	a3,a3,0x10
    1e4a:	8ecd                	or	a3,a3,a1
    1e4c:	00774583          	lbu	a1,7(a4)
    1e50:	05e2                	slli	a1,a1,0x18
    1e52:	8dd5                	or	a1,a1,a3
    1e54:	00ca5683          	lhu	a3,12(s4)
    1e58:	96ae                	add	a3,a3,a1
    1e5a:	40d786b3          	sub	a3,a5,a3
    1e5e:	0206d863          	bgez	a3,1e8e <tcp_oos_insert_segment+0x98>
    1e62:	8f8d                	sub	a5,a5,a1
    1e64:	00f05a63          	blez	a5,1e78 <tcp_oos_insert_segment+0x82>
    1e68:	8d91                	sub	a1,a1,a2
    1e6a:	05c2                	slli	a1,a1,0x10
    1e6c:	40c8                	lw	a0,4(s1)
    1e6e:	81c1                	srli	a1,a1,0x10
    1e70:	00b49623          	sh	a1,12(s1)
    1e74:	5b6050ef          	jal	ra,742a <pbuf_realloc>
    1e78:	0144a023          	sw	s4,0(s1)
    1e7c:	2001e317          	auipc	t1,0x2001e
    1e80:	1ce30067          	jr	462(t1) # 2002004a <__riscv_restore_4>
    1e84:	8552                	mv	a0,s4
    1e86:	b47fe0ef          	jal	ra,9cc <tcp_segs_free>
    1e8a:	4a01                	li	s4,0
    1e8c:	b7f5                	j	1e78 <tcp_oos_insert_segment+0x82>
    1e8e:	00d74783          	lbu	a5,13(a4)
    1e92:	00c74503          	lbu	a0,12(a4)
    1e96:	07a2                	slli	a5,a5,0x8
    1e98:	8d5d                	or	a0,a0,a5
    1e9a:	20022097          	auipc	ra,0x20022
    1e9e:	f24080e7          	jalr	-220(ra) # 20023dbe <ntohs>
    1ea2:	8905                	andi	a0,a0,1
    1ea4:	c931                	beqz	a0,1ef8 <tcp_oos_insert_segment+0x102>
    1ea6:	489c                	lw	a5,16(s1)
    1ea8:	00d7c403          	lbu	s0,13(a5)
    1eac:	00c7c503          	lbu	a0,12(a5)
    1eb0:	0422                	slli	s0,s0,0x8
    1eb2:	8c49                	or	s0,s0,a0
    1eb4:	854a                	mv	a0,s2
    1eb6:	20022097          	auipc	ra,0x20022
    1eba:	efa080e7          	jalr	-262(ra) # 20023db0 <htons>
    1ebe:	489c                	lw	a5,16(s1)
    1ec0:	8c69                	and	s0,s0,a0
    1ec2:	00c7c503          	lbu	a0,12(a5)
    1ec6:	00d7c783          	lbu	a5,13(a5)
    1eca:	07a2                	slli	a5,a5,0x8
    1ecc:	8d5d                	or	a0,a0,a5
    1ece:	20022097          	auipc	ra,0x20022
    1ed2:	ef0080e7          	jalr	-272(ra) # 20023dbe <ntohs>
    1ed6:	03e57513          	andi	a0,a0,62
    1eda:	00156513          	ori	a0,a0,1
    1ede:	20022097          	auipc	ra,0x20022
    1ee2:	ed2080e7          	jalr	-302(ra) # 20023db0 <htons>
    1ee6:	489c                	lw	a5,16(s1)
    1ee8:	8d41                	or	a0,a0,s0
    1eea:	0542                	slli	a0,a0,0x10
    1eec:	8141                	srli	a0,a0,0x10
    1eee:	00a78623          	sb	a0,12(a5)
    1ef2:	8121                	srli	a0,a0,0x8
    1ef4:	00a786a3          	sb	a0,13(a5)
    1ef8:	000a2403          	lw	s0,0(s4)
    1efc:	8552                	mv	a0,s4
    1efe:	a9dfe0ef          	jal	ra,99a <tcp_seg_free>
    1f02:	d441                	beqz	s0,1e8a <tcp_oos_insert_segment+0x94>
    1f04:	8a22                	mv	s4,s0
    1f06:	b715                	j	1e2a <tcp_oos_insert_segment+0x34>

00001f08 <tcp_receive>:
    1f08:	2001e317          	auipc	t1,0x2001e
    1f0c:	10e302e7          	jalr	t0,270(t1) # 20020016 <__riscv_save_4>
    1f10:	1fffe797          	auipc	a5,0x1fffe
    1f14:	1fc7c783          	lbu	a5,508(a5) # 2000010c <flags>
    1f18:	8bc1                	andi	a5,a5,16
    1f1a:	842a                	mv	s0,a0
    1f1c:	1fffe497          	auipc	s1,0x1fffe
    1f20:	20048493          	addi	s1,s1,512 # 2000011c <seqno>
    1f24:	1e078963          	beqz	a5,2116 <tcp_receive+0x20e>
    1f28:	05554683          	lbu	a3,85(a0)
    1f2c:	05454783          	lbu	a5,84(a0)
    1f30:	05a54603          	lbu	a2,90(a0)
    1f34:	06a2                	slli	a3,a3,0x8
    1f36:	8edd                	or	a3,a3,a5
    1f38:	05b54783          	lbu	a5,91(a0)
    1f3c:	05654583          	lbu	a1,86(a0)
    1f40:	4098                	lw	a4,0(s1)
    1f42:	07a2                	slli	a5,a5,0x8
    1f44:	8fd1                	or	a5,a5,a2
    1f46:	05c54603          	lbu	a2,92(a0)
    1f4a:	1fffe917          	auipc	s2,0x1fffe
    1f4e:	1be90913          	addi	s2,s2,446 # 20000108 <ackno>
    1f52:	0642                	slli	a2,a2,0x10
    1f54:	8fd1                	or	a5,a5,a2
    1f56:	05d54603          	lbu	a2,93(a0)
    1f5a:	0662                	slli	a2,a2,0x18
    1f5c:	8e5d                	or	a2,a2,a5
    1f5e:	05754783          	lbu	a5,87(a0)
    1f62:	07a2                	slli	a5,a5,0x8
    1f64:	8fcd                	or	a5,a5,a1
    1f66:	05854583          	lbu	a1,88(a0)
    1f6a:	05c2                	slli	a1,a1,0x10
    1f6c:	8fcd                	or	a5,a5,a1
    1f6e:	05954583          	lbu	a1,89(a0)
    1f72:	05e2                	slli	a1,a1,0x18
    1f74:	8ddd                	or	a1,a1,a5
    1f76:	40e58533          	sub	a0,a1,a4
    1f7a:	00092783          	lw	a5,0(s2)
    1f7e:	02054863          	bltz	a0,1fae <tcp_receive+0xa6>
    1f82:	00e59663          	bne	a1,a4,1f8e <tcp_receive+0x86>
    1f86:	40f605b3          	sub	a1,a2,a5
    1f8a:	0205c263          	bltz	a1,1fae <tcp_receive+0xa6>
    1f8e:	08f61363          	bne	a2,a5,2014 <tcp_receive+0x10c>
    1f92:	1fffe597          	auipc	a1,0x1fffe
    1f96:	18e58593          	addi	a1,a1,398 # 20000120 <tcphdr>
    1f9a:	4188                	lw	a0,0(a1)
    1f9c:	00f54583          	lbu	a1,15(a0)
    1fa0:	00e54803          	lbu	a6,14(a0)
    1fa4:	05a2                	slli	a1,a1,0x8
    1fa6:	0105e5b3          	or	a1,a1,a6
    1faa:	06b6f563          	bgeu	a3,a1,2014 <tcp_receive+0x10c>
    1fae:	1fffe597          	auipc	a1,0x1fffe
    1fb2:	17258593          	addi	a1,a1,370 # 20000120 <tcphdr>
    1fb6:	4188                	lw	a0,0(a1)
    1fb8:	00f54583          	lbu	a1,15(a0)
    1fbc:	00e54803          	lbu	a6,14(a0)
    1fc0:	04e40b23          	sb	a4,86(s0)
    1fc4:	05a2                	slli	a1,a1,0x8
    1fc6:	0105e5b3          	or	a1,a1,a6
    1fca:	0085d513          	srli	a0,a1,0x8
    1fce:	04a40aa3          	sb	a0,85(s0)
    1fd2:	00875513          	srli	a0,a4,0x8
    1fd6:	04a40ba3          	sb	a0,87(s0)
    1fda:	01075513          	srli	a0,a4,0x10
    1fde:	8361                	srli	a4,a4,0x18
    1fe0:	04e40ca3          	sb	a4,89(s0)
    1fe4:	0087d713          	srli	a4,a5,0x8
    1fe8:	04e40da3          	sb	a4,91(s0)
    1fec:	0107d713          	srli	a4,a5,0x10
    1ff0:	04e40e23          	sb	a4,92(s0)
    1ff4:	0187d713          	srli	a4,a5,0x18
    1ff8:	04b40a23          	sb	a1,84(s0)
    1ffc:	04a40c23          	sb	a0,88(s0)
    2000:	04f40d23          	sb	a5,90(s0)
    2004:	04e40ea3          	sb	a4,93(s0)
    2008:	c591                	beqz	a1,2014 <tcp_receive+0x10c>
    200a:	09444703          	lbu	a4,148(s0)
    200e:	c319                	beqz	a4,2014 <tcp_receive+0x10c>
    2010:	08040a23          	sb	zero,148(s0)
    2014:	04844703          	lbu	a4,72(s0)
    2018:	04744583          	lbu	a1,71(s0)
    201c:	0722                	slli	a4,a4,0x8
    201e:	8f4d                	or	a4,a4,a1
    2020:	04944583          	lbu	a1,73(s0)
    2024:	05c2                	slli	a1,a1,0x10
    2026:	8f4d                	or	a4,a4,a1
    2028:	04a44583          	lbu	a1,74(s0)
    202c:	05e2                	slli	a1,a1,0x18
    202e:	8dd9                	or	a1,a1,a4
    2030:	40b78733          	sub	a4,a5,a1
    2034:	4ee04963          	bgtz	a4,2526 <tcp_receive+0x61e>
    2038:	06040123          	sb	zero,98(s0)
    203c:	060401a3          	sb	zero,99(s0)
    2040:	1fffe717          	auipc	a4,0x1fffe
    2044:	0e475703          	lhu	a4,228(a4) # 20000124 <tcplen>
    2048:	4c071c63          	bnez	a4,2520 <tcp_receive+0x618>
    204c:	05b44503          	lbu	a0,91(s0)
    2050:	05a44703          	lbu	a4,90(s0)
    2054:	05444803          	lbu	a6,84(s0)
    2058:	0522                	slli	a0,a0,0x8
    205a:	8d59                	or	a0,a0,a4
    205c:	05c44703          	lbu	a4,92(s0)
    2060:	96b2                	add	a3,a3,a2
    2062:	0742                	slli	a4,a4,0x10
    2064:	8d59                	or	a0,a0,a4
    2066:	05d44703          	lbu	a4,93(s0)
    206a:	0762                	slli	a4,a4,0x18
    206c:	8f49                	or	a4,a4,a0
    206e:	05544503          	lbu	a0,85(s0)
    2072:	0522                	slli	a0,a0,0x8
    2074:	01056533          	or	a0,a0,a6
    2078:	972a                	add	a4,a4,a0
    207a:	4ad71363          	bne	a4,a3,2520 <tcp_receive+0x618>
    207e:	03544703          	lbu	a4,53(s0)
    2082:	03444683          	lbu	a3,52(s0)
    2086:	0722                	slli	a4,a4,0x8
    2088:	8f55                	or	a4,a4,a3
    208a:	0742                	slli	a4,a4,0x10
    208c:	8741                	srai	a4,a4,0x10
    208e:	48074963          	bltz	a4,2520 <tcp_receive+0x618>
    2092:	48f59763          	bne	a1,a5,2520 <tcp_receive+0x618>
    2096:	04b44783          	lbu	a5,75(s0)
    209a:	470d                	li	a4,3
    209c:	0785                	addi	a5,a5,1
    209e:	0ff7f793          	andi	a5,a5,255
    20a2:	04f405a3          	sb	a5,75(s0)
    20a6:	46f77763          	bgeu	a4,a5,2514 <tcp_receive+0x60c>
    20aa:	04d44703          	lbu	a4,77(s0)
    20ae:	04c44783          	lbu	a5,76(s0)
    20b2:	03644683          	lbu	a3,54(s0)
    20b6:	0722                	slli	a4,a4,0x8
    20b8:	8f5d                	or	a4,a4,a5
    20ba:	03744783          	lbu	a5,55(s0)
    20be:	07a2                	slli	a5,a5,0x8
    20c0:	8fd5                	or	a5,a5,a3
    20c2:	97ba                	add	a5,a5,a4
    20c4:	07c2                	slli	a5,a5,0x10
    20c6:	83c1                	srli	a5,a5,0x10
    20c8:	00f77763          	bgeu	a4,a5,20d6 <tcp_receive+0x1ce>
    20cc:	04f40623          	sb	a5,76(s0)
    20d0:	83a1                	srli	a5,a5,0x8
    20d2:	04f406a3          	sb	a5,77(s0)
    20d6:	06944703          	lbu	a4,105(s0)
    20da:	06844783          	lbu	a5,104(s0)
    20de:	0722                	slli	a4,a4,0x8
    20e0:	8f5d                	or	a4,a4,a5
    20e2:	06a44783          	lbu	a5,106(s0)
    20e6:	07c2                	slli	a5,a5,0x10
    20e8:	8f5d                	or	a4,a4,a5
    20ea:	06b44783          	lbu	a5,107(s0)
    20ee:	07e2                	slli	a5,a5,0x18
    20f0:	8fd9                	or	a5,a5,a4
    20f2:	6e079763          	bnez	a5,27e0 <tcp_receive+0x8d8>
    20f6:	03944783          	lbu	a5,57(s0)
    20fa:	03844603          	lbu	a2,56(s0)
    20fe:	07a2                	slli	a5,a5,0x8
    2100:	8fd1                	or	a5,a5,a2
    2102:	03a44603          	lbu	a2,58(s0)
    2106:	0642                	slli	a2,a2,0x10
    2108:	8fd1                	or	a5,a5,a2
    210a:	03b44603          	lbu	a2,59(s0)
    210e:	0662                	slli	a2,a2,0x18
    2110:	8e5d                	or	a2,a2,a5
    2112:	020611e3          	bnez	a2,2934 <tcp_receive+0xa2c>
    2116:	02344603          	lbu	a2,35(s0)
    211a:	02244703          	lbu	a4,34(s0)
    211e:	1fffe517          	auipc	a0,0x1fffe
    2122:	00655503          	lhu	a0,6(a0) # 20000124 <tcplen>
    2126:	0622                	slli	a2,a2,0x8
    2128:	8e59                	or	a2,a2,a4
    212a:	02444703          	lbu	a4,36(s0)
    212e:	409c                	lw	a5,0(s1)
    2130:	0742                	slli	a4,a4,0x10
    2132:	8e59                	or	a2,a2,a4
    2134:	02544703          	lbu	a4,37(s0)
    2138:	0762                	slli	a4,a4,0x18
    213a:	8f51                	or	a4,a4,a2
    213c:	6c050be3          	beqz	a0,3012 <tcp_receive+0x110a>
    2140:	40f705b3          	sub	a1,a4,a5
    2144:	fff58693          	addi	a3,a1,-1
    2148:	1006c2e3          	bltz	a3,2a4c <tcp_receive+0xb44>
    214c:	4685                	li	a3,1
    214e:	8e9d                	sub	a3,a3,a5
    2150:	8e89                	sub	a3,a3,a0
    2152:	96ba                	add	a3,a3,a4
    2154:	0ed04ce3          	bgtz	a3,2a4c <tcp_receive+0xb44>
    2158:	1fffe997          	auipc	s3,0x1fffe
    215c:	ffc98993          	addi	s3,s3,-4 # 20000154 <inseg>
    2160:	0049a903          	lw	s2,4(s3)
    2164:	01059693          	slli	a3,a1,0x10
    2168:	82c1                	srli	a3,a3,0x10
    216a:	00b94703          	lbu	a4,11(s2)
    216e:	00a94783          	lbu	a5,10(s2)
    2172:	0722                	slli	a4,a4,0x8
    2174:	8f5d                	or	a4,a4,a5
    2176:	0cb755e3          	bge	a4,a1,2a40 <tcp_receive+0xb38>
    217a:	00994783          	lbu	a5,9(s2)
    217e:	00894703          	lbu	a4,8(s2)
    2182:	07a2                	slli	a5,a5,0x8
    2184:	8fd9                	or	a5,a5,a4
    2186:	8f95                	sub	a5,a5,a3
    2188:	07c2                	slli	a5,a5,0x10
    218a:	83c1                	srli	a5,a5,0x10
    218c:	0ff7f613          	andi	a2,a5,255
    2190:	83a1                	srli	a5,a5,0x8
    2192:	00b94703          	lbu	a4,11(s2)
    2196:	00a94683          	lbu	a3,10(s2)
    219a:	0722                	slli	a4,a4,0x8
    219c:	8f55                	or	a4,a4,a3
    219e:	06b747e3          	blt	a4,a1,2a0c <tcp_receive+0xb04>
    21a2:	40b005b3          	neg	a1,a1
    21a6:	05c2                	slli	a1,a1,0x10
    21a8:	85c1                	srai	a1,a1,0x10
    21aa:	854a                	mv	a0,s2
    21ac:	6a3040ef          	jal	ra,704e <pbuf_header>
    21b0:	00594703          	lbu	a4,5(s2)
    21b4:	00494783          	lbu	a5,4(s2)
    21b8:	00c9d683          	lhu	a3,12(s3)
    21bc:	0722                	slli	a4,a4,0x8
    21be:	8f5d                	or	a4,a4,a5
    21c0:	00694783          	lbu	a5,6(s2)
    21c4:	07c2                	slli	a5,a5,0x10
    21c6:	8f5d                	or	a4,a4,a5
    21c8:	00794783          	lbu	a5,7(s2)
    21cc:	07e2                	slli	a5,a5,0x18
    21ce:	8fd9                	or	a5,a5,a4
    21d0:	1fffe717          	auipc	a4,0x1fffe
    21d4:	f8f72623          	sw	a5,-116(a4) # 2000015c <inseg+0x8>
    21d8:	02344703          	lbu	a4,35(s0)
    21dc:	02244783          	lbu	a5,34(s0)
    21e0:	0722                	slli	a4,a4,0x8
    21e2:	8f5d                	or	a4,a4,a5
    21e4:	02444783          	lbu	a5,36(s0)
    21e8:	07c2                	slli	a5,a5,0x10
    21ea:	8f5d                	or	a4,a4,a5
    21ec:	02544783          	lbu	a5,37(s0)
    21f0:	07e2                	slli	a5,a5,0x18
    21f2:	8fd9                	or	a5,a5,a4
    21f4:	4098                	lw	a4,0(s1)
    21f6:	9736                	add	a4,a4,a3
    21f8:	8f1d                	sub	a4,a4,a5
    21fa:	1fffe697          	auipc	a3,0x1fffe
    21fe:	f6e69323          	sh	a4,-154(a3) # 20000160 <inseg+0xc>
    2202:	1fffe717          	auipc	a4,0x1fffe
    2206:	f0f72d23          	sw	a5,-230(a4) # 2000011c <seqno>
    220a:	0109a703          	lw	a4,16(s3)
    220e:	0087d693          	srli	a3,a5,0x8
    2212:	00f70223          	sb	a5,4(a4)
    2216:	00d702a3          	sb	a3,5(a4)
    221a:	0107d693          	srli	a3,a5,0x10
    221e:	83e1                	srli	a5,a5,0x18
    2220:	00d70323          	sb	a3,6(a4)
    2224:	00f703a3          	sb	a5,7(a4)
    2228:	02344703          	lbu	a4,35(s0)
    222c:	02244783          	lbu	a5,34(s0)
    2230:	4090                	lw	a2,0(s1)
    2232:	0722                	slli	a4,a4,0x8
    2234:	8f5d                	or	a4,a4,a5
    2236:	02444783          	lbu	a5,36(s0)
    223a:	07c2                	slli	a5,a5,0x10
    223c:	8f5d                	or	a4,a4,a5
    223e:	02544783          	lbu	a5,37(s0)
    2242:	07e2                	slli	a5,a5,0x18
    2244:	8fd9                	or	a5,a5,a4
    2246:	40f60733          	sub	a4,a2,a5
    224a:	5c0740e3          	bltz	a4,300a <tcp_receive+0x1102>
    224e:	02744683          	lbu	a3,39(s0)
    2252:	02644583          	lbu	a1,38(s0)
    2256:	00160713          	addi	a4,a2,1
    225a:	06a2                	slli	a3,a3,0x8
    225c:	8f1d                	sub	a4,a4,a5
    225e:	8ecd                	or	a3,a3,a1
    2260:	8f15                	sub	a4,a4,a3
    2262:	5ae044e3          	bgtz	a4,300a <tcp_receive+0x1102>
    2266:	38f617e3          	bne	a2,a5,2df4 <tcp_receive+0xeec>
    226a:	1fffe917          	auipc	s2,0x1fffe
    226e:	eea90913          	addi	s2,s2,-278 # 20000154 <inseg>
    2272:	01092783          	lw	a5,16(s2)
    2276:	1fffe997          	auipc	s3,0x1fffe
    227a:	eea9d983          	lhu	s3,-278(s3) # 20000160 <inseg+0xc>
    227e:	00c7c503          	lbu	a0,12(a5)
    2282:	00d7c783          	lbu	a5,13(a5)
    2286:	07a2                	slli	a5,a5,0x8
    2288:	8d5d                	or	a0,a0,a5
    228a:	20022097          	auipc	ra,0x20022
    228e:	b34080e7          	jalr	-1228(ra) # 20023dbe <ntohs>
    2292:	890d                	andi	a0,a0,3
    2294:	00a03533          	snez	a0,a0
    2298:	954e                	add	a0,a0,s3
    229a:	0542                	slli	a0,a0,0x10
    229c:	8141                	srli	a0,a0,0x10
    229e:	1fffe797          	auipc	a5,0x1fffe
    22a2:	e8a79323          	sh	a0,-378(a5) # 20000124 <tcplen>
    22a6:	02744783          	lbu	a5,39(s0)
    22aa:	02644703          	lbu	a4,38(s0)
    22ae:	07a2                	slli	a5,a5,0x8
    22b0:	8fd9                	or	a5,a5,a4
    22b2:	0ea7fe63          	bgeu	a5,a0,23ae <tcp_receive+0x4a6>
    22b6:	01092783          	lw	a5,16(s2)
    22ba:	00c7c503          	lbu	a0,12(a5)
    22be:	00d7c783          	lbu	a5,13(a5)
    22c2:	07a2                	slli	a5,a5,0x8
    22c4:	8d5d                	or	a0,a0,a5
    22c6:	20022097          	auipc	ra,0x20022
    22ca:	af8080e7          	jalr	-1288(ra) # 20023dbe <ntohs>
    22ce:	8905                	andi	a0,a0,1
    22d0:	c125                	beqz	a0,2330 <tcp_receive+0x428>
    22d2:	01092783          	lw	a5,16(s2)
    22d6:	00d7c983          	lbu	s3,13(a5)
    22da:	00c7c503          	lbu	a0,12(a5)
    22de:	09a2                	slli	s3,s3,0x8
    22e0:	00a9e9b3          	or	s3,s3,a0
    22e4:	6541                	lui	a0,0x10
    22e6:	fc050513          	addi	a0,a0,-64 # ffc0 <_ramcode_lma+0x7fc0>
    22ea:	20022097          	auipc	ra,0x20022
    22ee:	ac6080e7          	jalr	-1338(ra) # 20023db0 <htons>
    22f2:	01092783          	lw	a5,16(s2)
    22f6:	00a9f9b3          	and	s3,s3,a0
    22fa:	00c7c503          	lbu	a0,12(a5)
    22fe:	00d7c783          	lbu	a5,13(a5)
    2302:	07a2                	slli	a5,a5,0x8
    2304:	8d5d                	or	a0,a0,a5
    2306:	20022097          	auipc	ra,0x20022
    230a:	ab8080e7          	jalr	-1352(ra) # 20023dbe <ntohs>
    230e:	03e57513          	andi	a0,a0,62
    2312:	20022097          	auipc	ra,0x20022
    2316:	a9e080e7          	jalr	-1378(ra) # 20023db0 <htons>
    231a:	01092783          	lw	a5,16(s2)
    231e:	00a9e533          	or	a0,s3,a0
    2322:	0542                	slli	a0,a0,0x10
    2324:	8141                	srli	a0,a0,0x10
    2326:	00a78623          	sb	a0,12(a5)
    232a:	8121                	srli	a0,a0,0x8
    232c:	00a786a3          	sb	a0,13(a5)
    2330:	02744783          	lbu	a5,39(s0)
    2334:	02644703          	lbu	a4,38(s0)
    2338:	07a2                	slli	a5,a5,0x8
    233a:	8fd9                	or	a5,a5,a4
    233c:	1fffe717          	auipc	a4,0x1fffe
    2340:	e2f71223          	sh	a5,-476(a4) # 20000160 <inseg+0xc>
    2344:	01092783          	lw	a5,16(s2)
    2348:	00c7c503          	lbu	a0,12(a5)
    234c:	00d7c783          	lbu	a5,13(a5)
    2350:	07a2                	slli	a5,a5,0x8
    2352:	8d5d                	or	a0,a0,a5
    2354:	20022097          	auipc	ra,0x20022
    2358:	a6a080e7          	jalr	-1430(ra) # 20023dbe <ntohs>
    235c:	8909                	andi	a0,a0,2
    235e:	c901                	beqz	a0,236e <tcp_receive+0x466>
    2360:	00c95783          	lhu	a5,12(s2)
    2364:	17fd                	addi	a5,a5,-1
    2366:	1fffe717          	auipc	a4,0x1fffe
    236a:	def71d23          	sh	a5,-518(a4) # 20000160 <inseg+0xc>
    236e:	00492503          	lw	a0,4(s2)
    2372:	1fffe597          	auipc	a1,0x1fffe
    2376:	dee5d583          	lhu	a1,-530(a1) # 20000160 <inseg+0xc>
    237a:	0b0050ef          	jal	ra,742a <pbuf_realloc>
    237e:	01092783          	lw	a5,16(s2)
    2382:	1fffe997          	auipc	s3,0x1fffe
    2386:	dde9d983          	lhu	s3,-546(s3) # 20000160 <inseg+0xc>
    238a:	00c7c503          	lbu	a0,12(a5)
    238e:	00d7c783          	lbu	a5,13(a5)
    2392:	07a2                	slli	a5,a5,0x8
    2394:	8d5d                	or	a0,a0,a5
    2396:	20022097          	auipc	ra,0x20022
    239a:	a28080e7          	jalr	-1496(ra) # 20023dbe <ntohs>
    239e:	890d                	andi	a0,a0,3
    23a0:	00a03533          	snez	a0,a0
    23a4:	99aa                	add	s3,s3,a0
    23a6:	1fffe797          	auipc	a5,0x1fffe
    23aa:	d7379f23          	sh	s3,-642(a5) # 20000124 <tcplen>
    23ae:	07144703          	lbu	a4,113(s0)
    23b2:	07044783          	lbu	a5,112(s0)
    23b6:	0722                	slli	a4,a4,0x8
    23b8:	8f5d                	or	a4,a4,a5
    23ba:	07244783          	lbu	a5,114(s0)
    23be:	07c2                	slli	a5,a5,0x10
    23c0:	8f5d                	or	a4,a4,a5
    23c2:	07344783          	lbu	a5,115(s0)
    23c6:	07e2                	slli	a5,a5,0x18
    23c8:	8fd9                	or	a5,a5,a4
    23ca:	6e078063          	beqz	a5,2aaa <tcp_receive+0xba2>
    23ce:	01092783          	lw	a5,16(s2)
    23d2:	00c7c503          	lbu	a0,12(a5)
    23d6:	00d7c783          	lbu	a5,13(a5)
    23da:	07a2                	slli	a5,a5,0x8
    23dc:	8d5d                	or	a0,a0,a5
    23de:	20022097          	auipc	ra,0x20022
    23e2:	9e0080e7          	jalr	-1568(ra) # 20023dbe <ntohs>
    23e6:	8905                	andi	a0,a0,1
    23e8:	6a051263          	bnez	a0,2a8c <tcp_receive+0xb84>
    23ec:	07144783          	lbu	a5,113(s0)
    23f0:	07044983          	lbu	s3,112(s0)
    23f4:	6ac1                	lui	s5,0x10
    23f6:	07a2                	slli	a5,a5,0x8
    23f8:	0137e7b3          	or	a5,a5,s3
    23fc:	07244983          	lbu	s3,114(s0)
    2400:	fc0a8a93          	addi	s5,s5,-64 # ffc0 <_ramcode_lma+0x7fc0>
    2404:	09c2                	slli	s3,s3,0x10
    2406:	00f9e7b3          	or	a5,s3,a5
    240a:	07344983          	lbu	s3,115(s0)
    240e:	09e2                	slli	s3,s3,0x18
    2410:	00f9e9b3          	or	s3,s3,a5
    2414:	4088                	lw	a0,0(s1)
    2416:	1fffe717          	auipc	a4,0x1fffe
    241a:	d0e75703          	lhu	a4,-754(a4) # 20000124 <tcplen>
    241e:	972a                	add	a4,a4,a0
    2420:	0c098b63          	beqz	s3,24f6 <tcp_receive+0x5ee>
    2424:	0109a603          	lw	a2,16(s3)
    2428:	00c9d583          	lhu	a1,12(s3)
    242c:	00564783          	lbu	a5,5(a2)
    2430:	00464683          	lbu	a3,4(a2)
    2434:	07a2                	slli	a5,a5,0x8
    2436:	8fd5                	or	a5,a5,a3
    2438:	00664683          	lbu	a3,6(a2)
    243c:	06c2                	slli	a3,a3,0x10
    243e:	8fd5                	or	a5,a5,a3
    2440:	00764683          	lbu	a3,7(a2)
    2444:	06e2                	slli	a3,a3,0x18
    2446:	8edd                	or	a3,a3,a5
    2448:	95b6                	add	a1,a1,a3
    244a:	40b705b3          	sub	a1,a4,a1
    244e:	7005d663          	bgez	a1,2b5a <tcp_receive+0xc52>
    2452:	8f15                	sub	a4,a4,a3
    2454:	0ae05163          	blez	a4,24f6 <tcp_receive+0x5ee>
    2458:	07144683          	lbu	a3,113(s0)
    245c:	07044703          	lbu	a4,112(s0)
    2460:	06a2                	slli	a3,a3,0x8
    2462:	8ed9                	or	a3,a3,a4
    2464:	07244703          	lbu	a4,114(s0)
    2468:	0742                	slli	a4,a4,0x10
    246a:	8ed9                	or	a3,a3,a4
    246c:	07344703          	lbu	a4,115(s0)
    2470:	0762                	slli	a4,a4,0x18
    2472:	8f55                	or	a4,a4,a3
    2474:	4b18                	lw	a4,16(a4)
    2476:	00574783          	lbu	a5,5(a4)
    247a:	00474683          	lbu	a3,4(a4)
    247e:	07a2                	slli	a5,a5,0x8
    2480:	8fd5                	or	a5,a5,a3
    2482:	8f89                	sub	a5,a5,a0
    2484:	1fffe717          	auipc	a4,0x1fffe
    2488:	ccf71e23          	sh	a5,-804(a4) # 20000160 <inseg+0xc>
    248c:	01092783          	lw	a5,16(s2)
    2490:	00c7c503          	lbu	a0,12(a5)
    2494:	00d7c783          	lbu	a5,13(a5)
    2498:	07a2                	slli	a5,a5,0x8
    249a:	8d5d                	or	a0,a0,a5
    249c:	20022097          	auipc	ra,0x20022
    24a0:	922080e7          	jalr	-1758(ra) # 20023dbe <ntohs>
    24a4:	8909                	andi	a0,a0,2
    24a6:	c901                	beqz	a0,24b6 <tcp_receive+0x5ae>
    24a8:	00c95783          	lhu	a5,12(s2)
    24ac:	17fd                	addi	a5,a5,-1
    24ae:	1fffe717          	auipc	a4,0x1fffe
    24b2:	caf71923          	sh	a5,-846(a4) # 20000160 <inseg+0xc>
    24b6:	00492503          	lw	a0,4(s2)
    24ba:	1fffe597          	auipc	a1,0x1fffe
    24be:	ca65d583          	lhu	a1,-858(a1) # 20000160 <inseg+0xc>
    24c2:	769040ef          	jal	ra,742a <pbuf_realloc>
    24c6:	01092783          	lw	a5,16(s2)
    24ca:	1fffea17          	auipc	s4,0x1fffe
    24ce:	c96a5a03          	lhu	s4,-874(s4) # 20000160 <inseg+0xc>
    24d2:	00c7c503          	lbu	a0,12(a5)
    24d6:	00d7c783          	lbu	a5,13(a5)
    24da:	07a2                	slli	a5,a5,0x8
    24dc:	8d5d                	or	a0,a0,a5
    24de:	20022097          	auipc	ra,0x20022
    24e2:	8e0080e7          	jalr	-1824(ra) # 20023dbe <ntohs>
    24e6:	890d                	andi	a0,a0,3
    24e8:	00a03533          	snez	a0,a0
    24ec:	9a2a                	add	s4,s4,a0
    24ee:	1fffe797          	auipc	a5,0x1fffe
    24f2:	c3479b23          	sh	s4,-970(a5) # 20000124 <tcplen>
    24f6:	0089d793          	srli	a5,s3,0x8
    24fa:	07340823          	sb	s3,112(s0)
    24fe:	06f408a3          	sb	a5,113(s0)
    2502:	0109d793          	srli	a5,s3,0x10
    2506:	0189d993          	srli	s3,s3,0x18
    250a:	06f40923          	sb	a5,114(s0)
    250e:	073409a3          	sb	s3,115(s0)
    2512:	ab61                	j	2aaa <tcp_receive+0xba2>
    2514:	bce791e3          	bne	a5,a4,20d6 <tcp_receive+0x1ce>
    2518:	8522                	mv	a0,s0
    251a:	298030ef          	jal	ra,57b2 <tcp_rexmit_fast>
    251e:	be65                	j	20d6 <tcp_receive+0x1ce>
    2520:	040405a3          	sb	zero,75(s0)
    2524:	be4d                	j	20d6 <tcp_receive+0x1ce>
    2526:	05144603          	lbu	a2,81(s0)
    252a:	05044683          	lbu	a3,80(s0)
    252e:	0622                	slli	a2,a2,0x8
    2530:	8e55                	or	a2,a2,a3
    2532:	05244683          	lbu	a3,82(s0)
    2536:	06c2                	slli	a3,a3,0x10
    2538:	8e55                	or	a2,a2,a3
    253a:	05344683          	lbu	a3,83(s0)
    253e:	06e2                	slli	a3,a3,0x18
    2540:	8ed1                	or	a3,a3,a2
    2542:	40d786b3          	sub	a3,a5,a3
    2546:	28d04863          	bgtz	a3,27d6 <tcp_receive+0x8ce>
    254a:	02144683          	lbu	a3,33(s0)
    254e:	0046f613          	andi	a2,a3,4
    2552:	ce19                	beqz	a2,2570 <tcp_receive+0x668>
    2554:	9aed                	andi	a3,a3,-5
    2556:	02d400a3          	sb	a3,33(s0)
    255a:	04f44683          	lbu	a3,79(s0)
    255e:	04e44603          	lbu	a2,78(s0)
    2562:	06a2                	slli	a3,a3,0x8
    2564:	8ed1                	or	a3,a3,a2
    2566:	04d40623          	sb	a3,76(s0)
    256a:	82a1                	srli	a3,a3,0x8
    256c:	04d406a3          	sb	a3,77(s0)
    2570:	04144683          	lbu	a3,65(s0)
    2574:	04044603          	lbu	a2,64(s0)
    2578:	04244583          	lbu	a1,66(s0)
    257c:	06a2                	slli	a3,a3,0x8
    257e:	8ed1                	or	a3,a3,a2
    2580:	06c2                	slli	a3,a3,0x10
    2582:	86c1                	srai	a3,a3,0x10
    2584:	4036d613          	srai	a2,a3,0x3
    2588:	04344683          	lbu	a3,67(s0)
    258c:	0742                	slli	a4,a4,0x10
    258e:	8341                	srli	a4,a4,0x10
    2590:	06a2                	slli	a3,a3,0x8
    2592:	8ecd                	or	a3,a3,a1
    2594:	96b2                	add	a3,a3,a2
    2596:	06c2                	slli	a3,a3,0x10
    2598:	82c1                	srli	a3,a3,0x10
    259a:	04d40223          	sb	a3,68(s0)
    259e:	82a1                	srli	a3,a3,0x8
    25a0:	04d402a3          	sb	a3,69(s0)
    25a4:	00875693          	srli	a3,a4,0x8
    25a8:	06d401a3          	sb	a3,99(s0)
    25ac:	06544683          	lbu	a3,101(s0)
    25b0:	06444603          	lbu	a2,100(s0)
    25b4:	06e40123          	sb	a4,98(s0)
    25b8:	06a2                	slli	a3,a3,0x8
    25ba:	8ed1                	or	a3,a3,a2
    25bc:	9736                	add	a4,a4,a3
    25be:	0742                	slli	a4,a4,0x10
    25c0:	8341                	srli	a4,a4,0x10
    25c2:	06e40223          	sb	a4,100(s0)
    25c6:	8321                	srli	a4,a4,0x8
    25c8:	06e402a3          	sb	a4,101(s0)
    25cc:	0087d713          	srli	a4,a5,0x8
    25d0:	04e40423          	sb	a4,72(s0)
    25d4:	0107d713          	srli	a4,a5,0x10
    25d8:	04f403a3          	sb	a5,71(s0)
    25dc:	04e404a3          	sb	a4,73(s0)
    25e0:	83e1                	srli	a5,a5,0x18
    25e2:	01144703          	lbu	a4,17(s0)
    25e6:	04f40523          	sb	a5,74(s0)
    25ea:	01044783          	lbu	a5,16(s0)
    25ee:	0722                	slli	a4,a4,0x8
    25f0:	04040323          	sb	zero,70(s0)
    25f4:	8f5d                	or	a4,a4,a5
    25f6:	01244783          	lbu	a5,18(s0)
    25fa:	040405a3          	sb	zero,75(s0)
    25fe:	07c2                	slli	a5,a5,0x10
    2600:	8f5d                	or	a4,a4,a5
    2602:	01344783          	lbu	a5,19(s0)
    2606:	07e2                	slli	a5,a5,0x18
    2608:	8fd9                	or	a5,a5,a4
    260a:	470d                	li	a4,3
    260c:	04f77063          	bgeu	a4,a5,264c <tcp_receive+0x744>
    2610:	04d44703          	lbu	a4,77(s0)
    2614:	04c44783          	lbu	a5,76(s0)
    2618:	03644683          	lbu	a3,54(s0)
    261c:	0722                	slli	a4,a4,0x8
    261e:	8f5d                	or	a4,a4,a5
    2620:	03744783          	lbu	a5,55(s0)
    2624:	04e44603          	lbu	a2,78(s0)
    2628:	07a2                	slli	a5,a5,0x8
    262a:	8fd5                	or	a5,a5,a3
    262c:	04f44683          	lbu	a3,79(s0)
    2630:	06a2                	slli	a3,a3,0x8
    2632:	8ed1                	or	a3,a3,a2
    2634:	06d77763          	bgeu	a4,a3,26a2 <tcp_receive+0x79a>
    2638:	97ba                	add	a5,a5,a4
    263a:	07c2                	slli	a5,a5,0x10
    263c:	83c1                	srli	a5,a5,0x10
    263e:	00f77763          	bgeu	a4,a5,264c <tcp_receive+0x744>
    2642:	04f40623          	sb	a5,76(s0)
    2646:	83a1                	srli	a5,a5,0x8
    2648:	04f406a3          	sb	a5,77(s0)
    264c:	06d44703          	lbu	a4,109(s0)
    2650:	06c44783          	lbu	a5,108(s0)
    2654:	0722                	slli	a4,a4,0x8
    2656:	8f5d                	or	a4,a4,a5
    2658:	06e44783          	lbu	a5,110(s0)
    265c:	07c2                	slli	a5,a5,0x10
    265e:	8f5d                	or	a4,a4,a5
    2660:	06f44783          	lbu	a5,111(s0)
    2664:	07e2                	slli	a5,a5,0x18
    2666:	8fd9                	or	a5,a5,a4
    2668:	e3b1                	bnez	a5,26ac <tcp_receive+0x7a4>
    266a:	06d44703          	lbu	a4,109(s0)
    266e:	06c44783          	lbu	a5,108(s0)
    2672:	02040923          	sb	zero,50(s0)
    2676:	0722                	slli	a4,a4,0x8
    2678:	8f5d                	or	a4,a4,a5
    267a:	06e44783          	lbu	a5,110(s0)
    267e:	07c2                	slli	a5,a5,0x10
    2680:	8f5d                	or	a4,a4,a5
    2682:	06f44783          	lbu	a5,111(s0)
    2686:	07e2                	slli	a5,a5,0x18
    2688:	8fd9                	or	a5,a5,a4
    268a:	0017b793          	seqz	a5,a5
    268e:	40f007b3          	neg	a5,a5
    2692:	07c2                	slli	a5,a5,0x10
    2694:	83c1                	srli	a5,a5,0x10
    2696:	02f40a23          	sb	a5,52(s0)
    269a:	83a1                	srli	a5,a5,0x8
    269c:	02f40aa3          	sb	a5,53(s0)
    26a0:	bc1d                	j	20d6 <tcp_receive+0x1ce>
    26a2:	02f787b3          	mul	a5,a5,a5
    26a6:	02e7c7b3          	div	a5,a5,a4
    26aa:	b779                	j	2638 <tcp_receive+0x730>
    26ac:	4b98                	lw	a4,16(a5)
    26ae:	00574503          	lbu	a0,5(a4)
    26b2:	00474783          	lbu	a5,4(a4)
    26b6:	0522                	slli	a0,a0,0x8
    26b8:	8d5d                	or	a0,a0,a5
    26ba:	00674783          	lbu	a5,6(a4)
    26be:	07c2                	slli	a5,a5,0x10
    26c0:	8fc9                	or	a5,a5,a0
    26c2:	00774503          	lbu	a0,7(a4)
    26c6:	0562                	slli	a0,a0,0x18
    26c8:	8d5d                	or	a0,a0,a5
    26ca:	20021097          	auipc	ra,0x20021
    26ce:	726080e7          	jalr	1830(ra) # 20023df0 <ntohl>
    26d2:	06d44703          	lbu	a4,109(s0)
    26d6:	06c44783          	lbu	a5,108(s0)
    26da:	89aa                	mv	s3,a0
    26dc:	0722                	slli	a4,a4,0x8
    26de:	8f5d                	or	a4,a4,a5
    26e0:	06e44783          	lbu	a5,110(s0)
    26e4:	07c2                	slli	a5,a5,0x10
    26e6:	8f5d                	or	a4,a4,a5
    26e8:	06f44783          	lbu	a5,111(s0)
    26ec:	07e2                	slli	a5,a5,0x18
    26ee:	8fd9                	or	a5,a5,a4
    26f0:	00c7da03          	lhu	s4,12(a5)
    26f4:	4b9c                	lw	a5,16(a5)
    26f6:	00c7c503          	lbu	a0,12(a5)
    26fa:	00d7c783          	lbu	a5,13(a5)
    26fe:	07a2                	slli	a5,a5,0x8
    2700:	8d5d                	or	a0,a0,a5
    2702:	20021097          	auipc	ra,0x20021
    2706:	6bc080e7          	jalr	1724(ra) # 20023dbe <ntohs>
    270a:	00092783          	lw	a5,0(s2)
    270e:	890d                	andi	a0,a0,3
    2710:	00a03533          	snez	a0,a0
    2714:	9552                	add	a0,a0,s4
    2716:	40f989b3          	sub	s3,s3,a5
    271a:	954e                	add	a0,a0,s3
    271c:	f4a047e3          	bgtz	a0,266a <tcp_receive+0x762>
    2720:	06d44783          	lbu	a5,109(s0)
    2724:	06c44983          	lbu	s3,108(s0)
    2728:	06244703          	lbu	a4,98(s0)
    272c:	07a2                	slli	a5,a5,0x8
    272e:	0137e7b3          	or	a5,a5,s3
    2732:	06e44983          	lbu	s3,110(s0)
    2736:	09c2                	slli	s3,s3,0x10
    2738:	00f9e7b3          	or	a5,s3,a5
    273c:	06f44983          	lbu	s3,111(s0)
    2740:	09e2                	slli	s3,s3,0x18
    2742:	00f9e9b3          	or	s3,s3,a5
    2746:	0009c783          	lbu	a5,0(s3)
    274a:	06f40623          	sb	a5,108(s0)
    274e:	0019c783          	lbu	a5,1(s3)
    2752:	06f406a3          	sb	a5,109(s0)
    2756:	0029c783          	lbu	a5,2(s3)
    275a:	06f40723          	sb	a5,110(s0)
    275e:	0039c783          	lbu	a5,3(s3)
    2762:	06f407a3          	sb	a5,111(s0)
    2766:	06344783          	lbu	a5,99(s0)
    276a:	07a2                	slli	a5,a5,0x8
    276c:	8fd9                	or	a5,a5,a4
    276e:	cf8d                	beqz	a5,27a8 <tcp_receive+0x8a0>
    2770:	0109a783          	lw	a5,16(s3)
    2774:	00c7c503          	lbu	a0,12(a5)
    2778:	00d7c783          	lbu	a5,13(a5)
    277c:	07a2                	slli	a5,a5,0x8
    277e:	8d5d                	or	a0,a0,a5
    2780:	20021097          	auipc	ra,0x20021
    2784:	63e080e7          	jalr	1598(ra) # 20023dbe <ntohs>
    2788:	8905                	andi	a0,a0,1
    278a:	cd19                	beqz	a0,27a8 <tcp_receive+0x8a0>
    278c:	06344783          	lbu	a5,99(s0)
    2790:	06244703          	lbu	a4,98(s0)
    2794:	07a2                	slli	a5,a5,0x8
    2796:	8fd9                	or	a5,a5,a4
    2798:	17fd                	addi	a5,a5,-1
    279a:	07c2                	slli	a5,a5,0x10
    279c:	83c1                	srli	a5,a5,0x10
    279e:	06f40123          	sb	a5,98(s0)
    27a2:	83a1                	srli	a5,a5,0x8
    27a4:	06f401a3          	sb	a5,99(s0)
    27a8:	0049a503          	lw	a0,4(s3)
    27ac:	575040ef          	jal	ra,7520 <pbuf_clen>
    27b0:	06744783          	lbu	a5,103(s0)
    27b4:	06644703          	lbu	a4,102(s0)
    27b8:	07a2                	slli	a5,a5,0x8
    27ba:	8fd9                	or	a5,a5,a4
    27bc:	40a78533          	sub	a0,a5,a0
    27c0:	0542                	slli	a0,a0,0x10
    27c2:	8141                	srli	a0,a0,0x10
    27c4:	06a40323          	sb	a0,102(s0)
    27c8:	8121                	srli	a0,a0,0x8
    27ca:	06a403a3          	sb	a0,103(s0)
    27ce:	854e                	mv	a0,s3
    27d0:	9cafe0ef          	jal	ra,99a <tcp_seg_free>
    27d4:	bda5                	j	264c <tcp_receive+0x744>
    27d6:	06040123          	sb	zero,98(s0)
    27da:	060401a3          	sb	zero,99(s0)
    27de:	b8e5                	j	20d6 <tcp_receive+0x1ce>
    27e0:	4b94                	lw	a3,16(a5)
    27e2:	00092983          	lw	s3,0(s2)
    27e6:	0056c503          	lbu	a0,5(a3)
    27ea:	0046c703          	lbu	a4,4(a3)
    27ee:	0522                	slli	a0,a0,0x8
    27f0:	8d59                	or	a0,a0,a4
    27f2:	0066c703          	lbu	a4,6(a3)
    27f6:	0742                	slli	a4,a4,0x10
    27f8:	8f49                	or	a4,a4,a0
    27fa:	0076c503          	lbu	a0,7(a3)
    27fe:	0562                	slli	a0,a0,0x18
    2800:	8d59                	or	a0,a0,a4
    2802:	20021097          	auipc	ra,0x20021
    2806:	5ee080e7          	jalr	1518(ra) # 20023df0 <ntohl>
    280a:	06944703          	lbu	a4,105(s0)
    280e:	06844783          	lbu	a5,104(s0)
    2812:	8aaa                	mv	s5,a0
    2814:	0722                	slli	a4,a4,0x8
    2816:	8fd9                	or	a5,a5,a4
    2818:	06a44703          	lbu	a4,106(s0)
    281c:	0742                	slli	a4,a4,0x10
    281e:	8f5d                	or	a4,a4,a5
    2820:	06b44783          	lbu	a5,107(s0)
    2824:	07e2                	slli	a5,a5,0x18
    2826:	8fd9                	or	a5,a5,a4
    2828:	4b98                	lw	a4,16(a5)
    282a:	00c7da03          	lhu	s4,12(a5)
    282e:	00c74503          	lbu	a0,12(a4)
    2832:	00d74703          	lbu	a4,13(a4)
    2836:	0722                	slli	a4,a4,0x8
    2838:	8d59                	or	a0,a0,a4
    283a:	20021097          	auipc	ra,0x20021
    283e:	584080e7          	jalr	1412(ra) # 20023dbe <ntohs>
    2842:	890d                	andi	a0,a0,3
    2844:	00a03533          	snez	a0,a0
    2848:	415987b3          	sub	a5,s3,s5
    284c:	9552                	add	a0,a0,s4
    284e:	8f89                	sub	a5,a5,a0
    2850:	8a07c3e3          	bltz	a5,20f6 <tcp_receive+0x1ee>
    2854:	05144703          	lbu	a4,81(s0)
    2858:	05044783          	lbu	a5,80(s0)
    285c:	0722                	slli	a4,a4,0x8
    285e:	8f5d                	or	a4,a4,a5
    2860:	05244783          	lbu	a5,82(s0)
    2864:	07c2                	slli	a5,a5,0x10
    2866:	8f5d                	or	a4,a4,a5
    2868:	05344783          	lbu	a5,83(s0)
    286c:	07e2                	slli	a5,a5,0x18
    286e:	8fd9                	or	a5,a5,a4
    2870:	00092703          	lw	a4,0(s2)
    2874:	40f707b3          	sub	a5,a4,a5
    2878:	86f04fe3          	bgtz	a5,20f6 <tcp_receive+0x1ee>
    287c:	06944783          	lbu	a5,105(s0)
    2880:	06844983          	lbu	s3,104(s0)
    2884:	06244703          	lbu	a4,98(s0)
    2888:	07a2                	slli	a5,a5,0x8
    288a:	0137e7b3          	or	a5,a5,s3
    288e:	06a44983          	lbu	s3,106(s0)
    2892:	09c2                	slli	s3,s3,0x10
    2894:	00f9e7b3          	or	a5,s3,a5
    2898:	06b44983          	lbu	s3,107(s0)
    289c:	09e2                	slli	s3,s3,0x18
    289e:	00f9e9b3          	or	s3,s3,a5
    28a2:	0009c783          	lbu	a5,0(s3)
    28a6:	06f40423          	sb	a5,104(s0)
    28aa:	0019c783          	lbu	a5,1(s3)
    28ae:	06f404a3          	sb	a5,105(s0)
    28b2:	0029c783          	lbu	a5,2(s3)
    28b6:	06f40523          	sb	a5,106(s0)
    28ba:	0039c783          	lbu	a5,3(s3)
    28be:	06f405a3          	sb	a5,107(s0)
    28c2:	06344783          	lbu	a5,99(s0)
    28c6:	07a2                	slli	a5,a5,0x8
    28c8:	8fd9                	or	a5,a5,a4
    28ca:	cf8d                	beqz	a5,2904 <tcp_receive+0x9fc>
    28cc:	0109a783          	lw	a5,16(s3)
    28d0:	00c7c503          	lbu	a0,12(a5)
    28d4:	00d7c783          	lbu	a5,13(a5)
    28d8:	07a2                	slli	a5,a5,0x8
    28da:	8d5d                	or	a0,a0,a5
    28dc:	20021097          	auipc	ra,0x20021
    28e0:	4e2080e7          	jalr	1250(ra) # 20023dbe <ntohs>
    28e4:	8905                	andi	a0,a0,1
    28e6:	cd19                	beqz	a0,2904 <tcp_receive+0x9fc>
    28e8:	06344783          	lbu	a5,99(s0)
    28ec:	06244703          	lbu	a4,98(s0)
    28f0:	07a2                	slli	a5,a5,0x8
    28f2:	8fd9                	or	a5,a5,a4
    28f4:	17fd                	addi	a5,a5,-1
    28f6:	07c2                	slli	a5,a5,0x10
    28f8:	83c1                	srli	a5,a5,0x10
    28fa:	06f40123          	sb	a5,98(s0)
    28fe:	83a1                	srli	a5,a5,0x8
    2900:	06f401a3          	sb	a5,99(s0)
    2904:	0049a503          	lw	a0,4(s3)
    2908:	419040ef          	jal	ra,7520 <pbuf_clen>
    290c:	06744783          	lbu	a5,103(s0)
    2910:	06644703          	lbu	a4,102(s0)
    2914:	07a2                	slli	a5,a5,0x8
    2916:	8fd9                	or	a5,a5,a4
    2918:	40a78533          	sub	a0,a5,a0
    291c:	0542                	slli	a0,a0,0x10
    291e:	8141                	srli	a0,a0,0x10
    2920:	06a40323          	sb	a0,102(s0)
    2924:	8121                	srli	a0,a0,0x8
    2926:	06a403a3          	sb	a0,103(s0)
    292a:	854e                	mv	a0,s3
    292c:	86efe0ef          	jal	ra,99a <tcp_seg_free>
    2930:	fa6ff06f          	j	20d6 <tcp_receive+0x1ce>
    2934:	03d44703          	lbu	a4,61(s0)
    2938:	03c44783          	lbu	a5,60(s0)
    293c:	0722                	slli	a4,a4,0x8
    293e:	8f5d                	or	a4,a4,a5
    2940:	03e44783          	lbu	a5,62(s0)
    2944:	07c2                	slli	a5,a5,0x10
    2946:	8f5d                	or	a4,a4,a5
    2948:	03f44783          	lbu	a5,63(s0)
    294c:	07e2                	slli	a5,a5,0x18
    294e:	8fd9                	or	a5,a5,a4
    2950:	00092703          	lw	a4,0(s2)
    2954:	8f99                	sub	a5,a5,a4
    2956:	fc07d063          	bgez	a5,2116 <tcp_receive+0x20e>
    295a:	04144683          	lbu	a3,65(s0)
    295e:	04044583          	lbu	a1,64(s0)
    2962:	0642                	slli	a2,a2,0x10
    2964:	06a2                	slli	a3,a3,0x8
    2966:	8ecd                	or	a3,a3,a1
    2968:	01069593          	slli	a1,a3,0x10
    296c:	85c1                	srai	a1,a1,0x10
    296e:	4035d513          	srai	a0,a1,0x3
    2972:	1fffe797          	auipc	a5,0x1fffe
    2976:	5567d783          	lhu	a5,1366(a5) # 20000ec8 <tcp_ticks>
    297a:	8241                	srli	a2,a2,0x10
    297c:	0542                	slli	a0,a0,0x10
    297e:	8141                	srli	a0,a0,0x10
    2980:	40c786b3          	sub	a3,a5,a2
    2984:	8e89                	sub	a3,a3,a0
    2986:	06c2                	slli	a3,a3,0x10
    2988:	82c1                	srli	a3,a3,0x10
    298a:	01069813          	slli	a6,a3,0x10
    298e:	96ae                	add	a3,a3,a1
    2990:	06c2                	slli	a3,a3,0x10
    2992:	86c1                	srai	a3,a3,0x10
    2994:	01069593          	slli	a1,a3,0x10
    2998:	81c1                	srli	a1,a1,0x10
    299a:	04b40023          	sb	a1,64(s0)
    299e:	81a1                	srli	a1,a1,0x8
    29a0:	41085813          	srai	a6,a6,0x10
    29a4:	04b400a3          	sb	a1,65(s0)
    29a8:	00085863          	bgez	a6,29b8 <tcp_receive+0xab0>
    29ac:	8e1d                	sub	a2,a2,a5
    29ae:	962a                	add	a2,a2,a0
    29b0:	01061813          	slli	a6,a2,0x10
    29b4:	41085813          	srai	a6,a6,0x10
    29b8:	04344703          	lbu	a4,67(s0)
    29bc:	04244783          	lbu	a5,66(s0)
    29c0:	868d                	srai	a3,a3,0x3
    29c2:	0722                	slli	a4,a4,0x8
    29c4:	8f5d                	or	a4,a4,a5
    29c6:	0742                	slli	a4,a4,0x10
    29c8:	8741                	srai	a4,a4,0x10
    29ca:	40275793          	srai	a5,a4,0x2
    29ce:	40f707b3          	sub	a5,a4,a5
    29d2:	97c2                	add	a5,a5,a6
    29d4:	07c2                	slli	a5,a5,0x10
    29d6:	83c1                	srli	a5,a5,0x10
    29d8:	01079713          	slli	a4,a5,0x10
    29dc:	97b6                	add	a5,a5,a3
    29de:	07c2                	slli	a5,a5,0x10
    29e0:	8341                	srli	a4,a4,0x10
    29e2:	83c1                	srli	a5,a5,0x10
    29e4:	04e40123          	sb	a4,66(s0)
    29e8:	04f40223          	sb	a5,68(s0)
    29ec:	8321                	srli	a4,a4,0x8
    29ee:	83a1                	srli	a5,a5,0x8
    29f0:	04e401a3          	sb	a4,67(s0)
    29f4:	04f402a3          	sb	a5,69(s0)
    29f8:	02040c23          	sb	zero,56(s0)
    29fc:	02040ca3          	sb	zero,57(s0)
    2a00:	02040d23          	sb	zero,58(s0)
    2a04:	02040da3          	sb	zero,59(s0)
    2a08:	f0eff06f          	j	2116 <tcp_receive+0x20e>
    2a0c:	8d99                	sub	a1,a1,a4
    2a0e:	00194703          	lbu	a4,1(s2)
    2a12:	00094683          	lbu	a3,0(s2)
    2a16:	00c90423          	sb	a2,8(s2)
    2a1a:	0722                	slli	a4,a4,0x8
    2a1c:	8ed9                	or	a3,a3,a4
    2a1e:	00294703          	lbu	a4,2(s2)
    2a22:	00f904a3          	sb	a5,9(s2)
    2a26:	00090523          	sb	zero,10(s2)
    2a2a:	000905a3          	sb	zero,11(s2)
    2a2e:	00394903          	lbu	s2,3(s2)
    2a32:	0742                	slli	a4,a4,0x10
    2a34:	8f55                	or	a4,a4,a3
    2a36:	0962                	slli	s2,s2,0x18
    2a38:	00e96933          	or	s2,s2,a4
    2a3c:	f56ff06f          	j	2192 <tcp_receive+0x28a>
    2a40:	40d006b3          	neg	a3,a3
    2a44:	01069593          	slli	a1,a3,0x10
    2a48:	f60ff06f          	j	21a8 <tcp_receive+0x2a0>
    2a4c:	8f99                	sub	a5,a5,a4
    2a4e:	fc07dd63          	bgez	a5,2228 <tcp_receive+0x320>
    2a52:	02144783          	lbu	a5,33(s0)
    2a56:	8522                	mv	a0,s0
    2a58:	0027e793          	ori	a5,a5,2
    2a5c:	02f400a3          	sb	a5,33(s0)
    2a60:	39e020ef          	jal	ra,4dfe <tcp_output>
    2a64:	fc4ff06f          	j	2228 <tcp_receive+0x320>
    2a68:	00054783          	lbu	a5,0(a0)
    2a6c:	06f40823          	sb	a5,112(s0)
    2a70:	00154783          	lbu	a5,1(a0)
    2a74:	06f408a3          	sb	a5,113(s0)
    2a78:	00254783          	lbu	a5,2(a0)
    2a7c:	06f40923          	sb	a5,114(s0)
    2a80:	00354783          	lbu	a5,3(a0)
    2a84:	06f409a3          	sb	a5,115(s0)
    2a88:	f13fd0ef          	jal	ra,99a <tcp_seg_free>
    2a8c:	07144783          	lbu	a5,113(s0)
    2a90:	07044503          	lbu	a0,112(s0)
    2a94:	07a2                	slli	a5,a5,0x8
    2a96:	8fc9                	or	a5,a5,a0
    2a98:	07244503          	lbu	a0,114(s0)
    2a9c:	0542                	slli	a0,a0,0x10
    2a9e:	8fc9                	or	a5,a5,a0
    2aa0:	07344503          	lbu	a0,115(s0)
    2aa4:	0562                	slli	a0,a0,0x18
    2aa6:	8d5d                	or	a0,a0,a5
    2aa8:	f161                	bnez	a0,2a68 <tcp_receive+0xb60>
    2aaa:	4098                	lw	a4,0(s1)
    2aac:	1fffd697          	auipc	a3,0x1fffd
    2ab0:	6786d683          	lhu	a3,1656(a3) # 20000124 <tcplen>
    2ab4:	8522                	mv	a0,s0
    2ab6:	9736                	add	a4,a4,a3
    2ab8:	00875793          	srli	a5,a4,0x8
    2abc:	02f401a3          	sb	a5,35(s0)
    2ac0:	01075793          	srli	a5,a4,0x10
    2ac4:	02e40123          	sb	a4,34(s0)
    2ac8:	02f40223          	sb	a5,36(s0)
    2acc:	8361                	srli	a4,a4,0x18
    2ace:	02744783          	lbu	a5,39(s0)
    2ad2:	02e402a3          	sb	a4,37(s0)
    2ad6:	02644703          	lbu	a4,38(s0)
    2ada:	07a2                	slli	a5,a5,0x8
    2adc:	8fd9                	or	a5,a5,a4
    2ade:	8f95                	sub	a5,a5,a3
    2ae0:	07c2                	slli	a5,a5,0x10
    2ae2:	83c1                	srli	a5,a5,0x10
    2ae4:	02f40323          	sb	a5,38(s0)
    2ae8:	83a1                	srli	a5,a5,0x8
    2aea:	02f403a3          	sb	a5,39(s0)
    2aee:	d9bfd0ef          	jal	ra,888 <tcp_update_rcv_ann_wnd>
    2af2:	00492703          	lw	a4,4(s2)
    2af6:	00974783          	lbu	a5,9(a4)
    2afa:	00874683          	lbu	a3,8(a4)
    2afe:	07a2                	slli	a5,a5,0x8
    2b00:	8fd5                	or	a5,a5,a3
    2b02:	cb89                	beqz	a5,2b14 <tcp_receive+0xc0c>
    2b04:	1fffd797          	auipc	a5,0x1fffd
    2b08:	60e7a823          	sw	a4,1552(a5) # 20000114 <recv_data>
    2b0c:	1fffd797          	auipc	a5,0x1fffd
    2b10:	6407a623          	sw	zero,1612(a5) # 20000158 <inseg+0x4>
    2b14:	01092783          	lw	a5,16(s2)
    2b18:	00c7c503          	lbu	a0,12(a5)
    2b1c:	00d7c783          	lbu	a5,13(a5)
    2b20:	07a2                	slli	a5,a5,0x8
    2b22:	8d5d                	or	a0,a0,a5
    2b24:	20021097          	auipc	ra,0x20021
    2b28:	29a080e7          	jalr	666(ra) # 20023dbe <ntohs>
    2b2c:	8905                	andi	a0,a0,1
    2b2e:	c919                	beqz	a0,2b44 <tcp_receive+0xc3c>
    2b30:	1fffd797          	auipc	a5,0x1fffd
    2b34:	5e87c783          	lbu	a5,1512(a5) # 20000118 <recv_flags>
    2b38:	0207e793          	ori	a5,a5,32
    2b3c:	1fffd717          	auipc	a4,0x1fffd
    2b40:	5cf70e23          	sb	a5,1500(a4) # 20000118 <recv_flags>
    2b44:	1fffd917          	auipc	s2,0x1fffd
    2b48:	5d090913          	addi	s2,s2,1488 # 20000114 <recv_data>
    2b4c:	1fffd997          	auipc	s3,0x1fffd
    2b50:	5cc98993          	addi	s3,s3,1484 # 20000118 <recv_flags>
    2b54:	4a11                	li	s4,4
    2b56:	4a9d                	li	s5,7
    2b58:	a429                	j	2d62 <tcp_receive+0xe5a>
    2b5a:	00d64783          	lbu	a5,13(a2)
    2b5e:	00c64503          	lbu	a0,12(a2)
    2b62:	07a2                	slli	a5,a5,0x8
    2b64:	8d5d                	or	a0,a0,a5
    2b66:	20021097          	auipc	ra,0x20021
    2b6a:	258080e7          	jalr	600(ra) # 20023dbe <ntohs>
    2b6e:	8905                	andi	a0,a0,1
    2b70:	cd59                	beqz	a0,2c0e <tcp_receive+0xd06>
    2b72:	01092783          	lw	a5,16(s2)
    2b76:	00c7c503          	lbu	a0,12(a5)
    2b7a:	00d7c783          	lbu	a5,13(a5)
    2b7e:	07a2                	slli	a5,a5,0x8
    2b80:	8d5d                	or	a0,a0,a5
    2b82:	20021097          	auipc	ra,0x20021
    2b86:	23c080e7          	jalr	572(ra) # 20023dbe <ntohs>
    2b8a:	8909                	andi	a0,a0,2
    2b8c:	e149                	bnez	a0,2c0e <tcp_receive+0xd06>
    2b8e:	01092783          	lw	a5,16(s2)
    2b92:	00d7ca03          	lbu	s4,13(a5)
    2b96:	00c7c503          	lbu	a0,12(a5)
    2b9a:	0a22                	slli	s4,s4,0x8
    2b9c:	00aa6a33          	or	s4,s4,a0
    2ba0:	8556                	mv	a0,s5
    2ba2:	20021097          	auipc	ra,0x20021
    2ba6:	20e080e7          	jalr	526(ra) # 20023db0 <htons>
    2baa:	01092783          	lw	a5,16(s2)
    2bae:	00aa7a33          	and	s4,s4,a0
    2bb2:	00c7c503          	lbu	a0,12(a5)
    2bb6:	00d7c783          	lbu	a5,13(a5)
    2bba:	07a2                	slli	a5,a5,0x8
    2bbc:	8d5d                	or	a0,a0,a5
    2bbe:	20021097          	auipc	ra,0x20021
    2bc2:	200080e7          	jalr	512(ra) # 20023dbe <ntohs>
    2bc6:	03e57513          	andi	a0,a0,62
    2bca:	00156513          	ori	a0,a0,1
    2bce:	20021097          	auipc	ra,0x20021
    2bd2:	1e2080e7          	jalr	482(ra) # 20023db0 <htons>
