BL51 BANKED LINKER/LOCATER V6.22                                                        03/16/2021  09:41:50  PAGE 1


BL51 BANKED LINKER/LOCATER V6.22, INVOKED BY:
D:\KEIL_V4\C51\BIN\BL51.EXE CH395.obj TO CH395EVT RAMSIZE (256)


MEMORY MODEL: LARGE


INPUT MODULES INCLUDED:
  CH395.obj (CH395)
  D:\KEIL_V4\C51\LIB\C51L.LIB (?C_STARTUP)
  D:\KEIL_V4\C51\LIB\C51L.LIB (?C?COPY)
  D:\KEIL_V4\C51\LIB\C51L.LIB (?C?CLDPTR)
  D:\KEIL_V4\C51\LIB\C51L.LIB (?C?CSTPTR)
  D:\KEIL_V4\C51\LIB\C51L.LIB (?C?IMUL)
  D:\KEIL_V4\C51\LIB\C51L.LIB (?C?ILDIX)
  D:\KEIL_V4\C51\LIB\C51L.LIB (?C?SLCMP)
  D:\KEIL_V4\C51\LIB\C51L.LIB (?C?ULSHR)
  D:\KEIL_V4\C51\LIB\C51L.LIB (?C?LSHL)
  D:\KEIL_V4\C51\LIB\C51L.LIB (?C?LSTXDATA)
  D:\KEIL_V4\C51\LIB\C51L.LIB (?C?LSTKXDATA)
  D:\KEIL_V4\C51\LIB\C51L.LIB (PRINTF)
  D:\KEIL_V4\C51\LIB\C51L.LIB (?C?MEMSET)
  D:\KEIL_V4\C51\LIB\C51L.LIB (?C_INIT)
  D:\KEIL_V4\C51\LIB\C51L.LIB (?C?CLDOPTR)
  D:\KEIL_V4\C51\LIB\C51L.LIB (?C?PLDIXDATA)
  D:\KEIL_V4\C51\LIB\C51L.LIB (?C?PSTXDATA)
  D:\KEIL_V4\C51\LIB\C51L.LIB (?C?CCASE)
  D:\KEIL_V4\C51\LIB\C51L.LIB (PUTCHAR)


LINK MAP OF MODULE:  CH395EVT (CH395)


            TYPE    BASE      LENGTH    RELOCATION   SEGMENT NAME
            -----------------------------------------------------

            * * * * * * *   D A T A   M E M O R Y   * * * * * * *
            REG     0000H     0008H     ABSOLUTE     "REG BANK 0"
            DATA    0008H     0005H     UNIT         _DATA_GROUP_
            IDATA   000DH     000AH     UNIT         _IDATA_GROUP_
                    0017H     0009H                  *** GAP ***
            BIT     0020H.0   0001H.1   UNIT         _BIT_GROUP_
                    0021H.1   0000H.7                *** GAP ***
            IDATA   0022H     0001H     UNIT         ?STACK

            * * * * * * *  X D A T A   M E M O R Y  * * * * * * *
            XDATA   0000H     1D9DH     UNIT         ?XD?CH395
            XDATA   1D9DH     003CH     UNIT         _XDATA_GROUP_
            XDATA   1DD9H     0014H     UNIT         ?XD?_CH395CRCRET6BIT?CH395
            XDATA   1DEDH     000DH     UNIT         ?XD?_CH395UDPSENDTO?CH395
            XDATA   1DFAH     0009H     UNIT         ?XD?_CH395CMDSETMACFILT?CH395
            XDATA   1E03H     0006H     UNIT         ?XD?_CH395EEPROMWRITE?CH395
            XDATA   1E09H     0006H     UNIT         ?XD?_CH395EEPROMREAD?CH395
            XDATA   1E0FH     0005H     UNIT         ?XD?_CH395CMDSETUARTBAUDRATE?CH395
            XDATA   1E14H     0004H     UNIT         ?XD?_CH395KEEPLIVEIDLE?CH395
            XDATA   1E18H     0004H     UNIT         ?XD?_CH395KEEPLIVEINTVL?CH395
            XDATA   1E1CH     0003H     UNIT         ?XD?_CH395CMDSETMACADDR?CH395
            XDATA   1E1FH     0003H     UNIT         ?XD?_CH395CMDGETMACADDR?CH395
BL51 BANKED LINKER/LOCATER V6.22                                                      03/16/2021  09:41:50  PAGE 2


            XDATA   1E22H     0003H     UNIT         ?XD?_CH395SETSOCKETDESIP?CH395
            XDATA   1E25H     0003H     UNIT         ?XD?_CH395CMDGETSOCKETSTATUS?CH395
            XDATA   1E28H     0003H     UNIT         ?XD?_CH395GETIPINF?CH395

            * * * * * * *   C O D E   M E M O R Y   * * * * * * *
            CODE    0000H     0003H     ABSOLUTE     
            CODE    0003H     0365H     UNIT         ?PR?PRINTF?PRINTF
            CODE    0368H     0261H     UNIT         ?C?LIB_CODE
            CODE    05C9H     0175H     UNIT         ?PR?_CH395CRCRET6BIT?CH395
            CODE    073EH     0152H     UNIT         ?PR?_CH395SOCKETINTERRUPT?CH395
            CODE    0890H     00B6H     UNIT         ?CO?CH395
            CODE    0946H     0093H     UNIT         ?PR?_CH395CMDSETMACFILT?CH395
            CODE    09D9H     008FH     UNIT         ?PR?SOCKET_R_S_BUF_MODIFY?CH395
            CODE    0A68H     008CH     UNIT         ?C_C51STARTUP
            CODE    0AF4H     0088H     UNIT         ?PR?CH395GLOBALINTERRUPT?CH395
            CODE    0B7CH     006BH     UNIT         ?PR?MAIN?CH395
            CODE    0BE7H     0057H     UNIT         ?PR?_CH395GETRECVDATA?CH395
            CODE    0C3EH     0054H     UNIT         ?PR?_CH395UDPSENDTO?CH395
            CODE    0C92H     0053H     UNIT         ?PR?_CH395EEPROMWRITE?CH395
            CODE    0CE5H     004EH     UNIT         ?PR?_CH395SETSTARTPARA?CH395
            CODE    0D33H     004EH     UNIT         ?PR?_CH395KEEPLIVEIDLE?CH395
            CODE    0D81H     004EH     UNIT         ?PR?_CH395KEEPLIVEINTVL?CH395
            CODE    0DCFH     004DH     UNIT         ?PR?_CH395EEPROMREAD?CH395
            CODE    0E1CH     004AH     UNIT         ?PR?CH395SOCKETINITOPEN?CH395
            CODE    0E66H     0048H     UNIT         ?PR?INITCH395INFPARAM?CH395
            CODE    0EAEH     0046H     UNIT         ?PR?_CH395SENDDATA?CH395
            CODE    0EF4H     0041H     UNIT         ?PR?_CH395CMDSETUARTBAUDRATE?CH395
            CODE    0F35H     0040H     UNIT         ?PR?_CH395CMDGETSOCKETSTATUS?CH395
            CODE    0F75H     003CH     UNIT         ?PR?CH395INIT?CH395
            CODE    0FB1H     0038H     UNIT         ?PR?_CH395CMDGETREMOTEIPP?CH395
            CODE    0FE9H     0031H     UNIT         ?PR?_CH395CMDGETMACADDR?CH395
            CODE    101AH     0031H     UNIT         ?PR?_CH395CMDGETUNREACHIPPT?CH395
            CODE    104BH     0031H     UNIT         ?PR?_CH395GETIPINF?CH395
            CODE    107CH     002EH     UNIT         ?PR?_XWRITECH395DATA?CH395
            CODE    10AAH     002EH     UNIT         ?PR?CH395CMDINITCH395?CH395
            CODE    10D8H     002CH     UNIT         ?PR?_MSTOPIFERROR?CH395
            CODE    1104H     002BH     UNIT         ?PR?INITSOCKETPARAM?CH395
            CODE    112FH     0029H     UNIT         ?PR?_CH395TCPCONNECT?CH395
            CODE    1158H     0029H     UNIT         ?PR?_CH395TCPLISTEN?CH395
            CODE    1181H     0029H     UNIT         ?PR?_CH395TCPDISCONNECT?CH395
            CODE    11AAH     0029H     UNIT         ?PR?_CH395DHCPENABLE?CH395
            CODE    11D3H     0027H     UNIT         ?PR?PUTCHAR?PUTCHAR
            CODE    11FAH     0026H     UNIT         ?PR?_CH395OPENSOCKET?CH395
            CODE    1220H     0026H     UNIT         ?PR?_CH395CLOSESOCKET?CH395
            CODE    1246H     0024H     UNIT         ?PR?_CH395CMDSETMACADDR?CH395
            CODE    126AH     0021H     UNIT         ?PR?CH395CMDGETGLOBINTSTATUS_ALL?CH395
            CODE    128BH     0020H     UNIT         ?PR?_CH395CMDSETIPADDR?CH395
            CODE    12ABH     0020H     UNIT         ?PR?_CH395CMDSETGWIPADDR?CH395
            CODE    12CBH     0020H     UNIT         ?PR?_CH395CMDSETMASKADDR?CH395
            CODE    12EBH     0020H     UNIT         ?PR?_CH395SETSOCKETDESIP?CH395
            CODE    130BH     001BH     UNIT         ?PR?_CH395GETRECVLENGTH?CH395
            CODE    1326H     001BH     UNIT         ?C_INITSEG
            CODE    1341H     0019H     UNIT         ?PR?_CH395SETSOCKETDESPORT?CH395
            CODE    135AH     0019H     UNIT         ?PR?_CH395SETSOCKETSOURPORT?CH395
            CODE    1373H     0018H     UNIT         ?PR?_MDELAYMS?CH395
            CODE    138BH     0017H     UNIT         ?PR?_CH395GETSOCKETINT?CH395
            CODE    13A2H     0016H     UNIT         ?PR?_CH395CMDSETRETRYPERIOD?CH395
BL51 BANKED LINKER/LOCATER V6.22                                                      03/16/2021  09:41:50  PAGE 3


            CODE    13B8H     0016H     UNIT         ?PR?_CH395SETSOCKETRECVBUF?CH395
            CODE    13CEH     0016H     UNIT         ?PR?_CH395SETSOCKETSENDBUF?CH395
            CODE    13E4H     0015H     UNIT         ?PR?_CH395READGPIOADDR?CH395
            CODE    13F9H     0014H     UNIT         ?PR?_CH395SETSOCKETPROTTYPE?CH395
            CODE    140DH     0014H     UNIT         ?PR?_CH395SETSOCKETIPRAWPROTO?CH395
            CODE    1421H     0013H     UNIT         ?PR?CH395EEPROMERASE?CH395
            CODE    1434H     0013H     UNIT         ?PR?_CH395SETTCPMSS?CH395
            CODE    1447H     0011H     UNIT         ?PR?_CH395WRITEGPIOADDR?CH395
            CODE    1458H     0011H     UNIT         ?PR?_CH395SETKEEPLIVE?CH395
            CODE    1469H     0011H     UNIT         ?PR?_CH395SETTTLNUM?CH395
            CODE    147AH     0011H     UNIT         ?PR?MINITSTDIO?CH395
            CODE    148BH     0010H     UNIT         ?PR?CH395GETCMDSTATUS?CH395
            CODE    149BH     000FH     UNIT         ?PR?_XWRITECH395CMD?CH395
            CODE    14AAH     000FH     UNIT         ?PR?_CH395CMDSETPHY?CH395
            CODE    14B9H     000FH     UNIT         ?PR?_CH395ENABLEPING?CH395
            CODE    14C8H     000FH     UNIT         ?PR?_CH395CLEARRECVBUF?CH395
            CODE    14D7H     000FH     UNIT         ?PR?_CH395CMDSETRETRYCOUNT?CH395
            CODE    14E6H     000EH     UNIT         ?PR?_MDELAYUS?CH395
            CODE    14F4H     000EH     UNIT         ?PR?XREADCH395DATA?CH395
            CODE    1502H     000DH     UNIT         ?PR?_SPI395EXCHANGE?CH395
            CODE    150FH     000CH     UNIT         ?PR?_CH395KEEPLIVECNT?CH395
            CODE    151BH     000BH     UNIT         ?PR?CH395CMDGETVER?CH395
            CODE    1526H     000BH     UNIT         ?PR?CH395CMDGETPHYSTATUS?CH395
            CODE    1531H     000BH     UNIT         ?PR?CH395CMDGETGLOBINTSTATUS?CH395
            CODE    153CH     000BH     UNIT         ?PR?CH395GETDHCPSTATUS?CH395
            CODE    1547H     000AH     UNIT         ?PR?_CH395CMDCHECKEXIST?CH395
            CODE    1551H     0009H     UNIT         ?PR?CH395_PORT_INIT?CH395
            CODE    155AH     0008H     UNIT         ?PR?CH395CMDRESET?CH395
            CODE    1562H     0008H     UNIT         ?PR?CH395CMDSLEEP?CH395



OVERLAY MAP OF MODULE:   CH395EVT (CH395)


SEGMENT                                           BIT_GROUP          DATA_GROUP          IDATA_GROUP         XDATA_GROUP
>> 
  +--> CALLED SEGMENT                          START    LENGTH     START    LENGTH     START    LENGTH     START    LENG
>> TH
------------------------------------------------------------------------------------------------------------------------
>> --
?C_C51STARTUP                                  -----    -----      -----    -----      -----    -----      -----    ----
>> -
  +--> ?PR?MAIN?CH395
  +--> ?C_INITSEG

?PR?MAIN?CH395                                 -----    -----      -----    -----      -----    -----      1D9DH    0001
>> H
  +--> ?PR?_MDELAYMS?CH395
  +--> ?PR?MINITSTDIO?CH395
  +--> ?CO?CH395
  +--> ?PR?PRINTF?PRINTF
  +--> ?PR?CH395_PORT_INIT?CH395
  +--> ?PR?CH395CMDGETVER?CH395
  +--> ?PR?INITCH395INFPARAM?CH395
  +--> ?PR?CH395INIT?CH395
  +--> ?PR?_MSTOPIFERROR?CH395
BL51 BANKED LINKER/LOCATER V6.22                                                      03/16/2021  09:41:50  PAGE 4


  +--> ?PR?SOCKET_R_S_BUF_MODIFY?CH395
  +--> ?PR?_CH395SETTCPMSS?CH395
  +--> ?PR?CH395CMDGETPHYSTATUS?CH395
  +--> ?PR?INITSOCKETPARAM?CH395
  +--> ?PR?CH395SOCKETINITOPEN?CH395
  +--> ?PR?CH395GLOBALINTERRUPT?CH395

?PR?_MDELAYMS?CH395                            -----    -----      -----    -----      -----    -----      -----    ----
>> -
  +--> ?PR?_MDELAYUS?CH395

?PR?PRINTF?PRINTF                              0020H.0  0001H.1    0008H    0005H      -----    -----      1DB1H    0028
>> H
  +--> ?PR?PUTCHAR?PUTCHAR

?PR?CH395CMDGETVER?CH395                       -----    -----      -----    -----      -----    -----      -----    ----
>> -
  +--> ?PR?_XWRITECH395CMD?CH395
  +--> ?PR?XREADCH395DATA?CH395

?PR?_XWRITECH395CMD?CH395                      -----    -----      -----    -----      -----    -----      -----    ----
>> -
  +--> ?PR?_SPI395EXCHANGE?CH395
  +--> ?PR?_MDELAYUS?CH395

?PR?XREADCH395DATA?CH395                       -----    -----      -----    -----      -----    -----      -----    ----
>> -
  +--> ?PR?_XWRITECH395CMD?CH395
  +--> ?PR?_XWRITECH395DATA?CH395
  +--> ?PR?_SPI395EXCHANGE?CH395

?PR?_XWRITECH395DATA?CH395                     -----    -----      -----    -----      -----    -----      -----    ----
>> -
  +--> ?PR?_SPI395EXCHANGE?CH395

?PR?CH395INIT?CH395                            -----    -----      -----    -----      -----    -----      -----    ----
>> -
  +--> ?PR?_CH395CMDCHECKEXIST?CH395
  +--> ?PR?_CH395CMDSETIPADDR?CH395
  +--> ?PR?_CH395CMDSETGWIPADDR?CH395
  +--> ?PR?_CH395CMDSETMASKADDR?CH395
  +--> ?PR?_CH395SETSTARTPARA?CH395
  +--> ?PR?_MDELAYMS?CH395
  +--> ?PR?CH395CMDINITCH395?CH395

?PR?_CH395CMDCHECKEXIST?CH395                  -----    -----      -----    -----      -----    -----      -----    ----
>> -
  +--> ?PR?XREADCH395DATA?CH395

?PR?_CH395CMDSETIPADDR?CH395                   -----    -----      -----    -----      -----    -----      1D9EH    0003
>> H
  +--> ?PR?_XWRITECH395CMD?CH395
  +--> ?PR?_XWRITECH395DATA?CH395

?PR?_CH395CMDSETGWIPADDR?CH395                 -----    -----      -----    -----      -----    -----      1D9EH    0003
>> H
  +--> ?PR?_XWRITECH395CMD?CH395
BL51 BANKED LINKER/LOCATER V6.22                                                      03/16/2021  09:41:50  PAGE 5


  +--> ?PR?_XWRITECH395DATA?CH395

?PR?_CH395CMDSETMASKADDR?CH395                 -----    -----      -----    -----      -----    -----      1D9EH    0003
>> H
  +--> ?PR?_XWRITECH395CMD?CH395
  +--> ?PR?_XWRITECH395DATA?CH395

?PR?_CH395SETSTARTPARA?CH395                   -----    -----      -----    -----      -----    -----      1D9EH    0004
>> H
  +--> ?PR?_XWRITECH395CMD?CH395
  +--> ?PR?_XWRITECH395DATA?CH395

?PR?CH395CMDINITCH395?CH395                    -----    -----      -----    -----      -----    -----      1D9EH    0001
>> H
  +--> ?PR?_XWRITECH395CMD?CH395
  +--> ?PR?_MDELAYMS?CH395
  +--> ?PR?CH395GETCMDSTATUS?CH395

?PR?CH395GETCMDSTATUS?CH395                    -----    -----      -----    -----      -----    -----      -----    ----
>> -
  +--> ?PR?_MDELAYMS?CH395
  +--> ?PR?_XWRITECH395CMD?CH395
  +--> ?PR?XREADCH395DATA?CH395

?PR?_MSTOPIFERROR?CH395                        -----    -----      -----    -----      -----    -----      -----    ----
>> -
  +--> ?PR?_MDELAYMS?CH395
  +--> ?PR?_CH395OPENSOCKET?CH395
  +--> ?CO?CH395
  +--> ?PR?PRINTF?PRINTF

?PR?_CH395OPENSOCKET?CH395                     -----    -----      -----    -----      -----    -----      -----    ----
>> -
  +--> ?PR?_XWRITECH395CMD?CH395
  +--> ?PR?_XWRITECH395DATA?CH395
  +--> ?PR?CH395GETCMDSTATUS?CH395

?PR?SOCKET_R_S_BUF_MODIFY?CH395                -----    -----      -----    -----      -----    -----      -----    ----
>> -
  +--> ?PR?_CH395SETSOCKETRECVBUF?CH395
  +--> ?PR?_CH395SETSOCKETSENDBUF?CH395

?PR?_CH395SETSOCKETRECVBUF?CH395               -----    -----      -----    -----      -----    -----      -----    ----
>> -
  +--> ?PR?_XWRITECH395CMD?CH395
  +--> ?PR?_XWRITECH395DATA?CH395

?PR?_CH395SETSOCKETSENDBUF?CH395               -----    -----      -----    -----      -----    -----      -----    ----
>> -
  +--> ?PR?_XWRITECH395CMD?CH395
  +--> ?PR?_XWRITECH395DATA?CH395

?PR?_CH395SETTCPMSS?CH395                      -----    -----      -----    -----      -----    -----      -----    ----
>> -
  +--> ?PR?_XWRITECH395CMD?CH395
  +--> ?PR?_XWRITECH395DATA?CH395

BL51 BANKED LINKER/LOCATER V6.22                                                      03/16/2021  09:41:50  PAGE 6


?PR?CH395CMDGETPHYSTATUS?CH395                 -----    -----      -----    -----      -----    -----      -----    ----
>> -
  +--> ?PR?_XWRITECH395CMD?CH395
  +--> ?PR?XREADCH395DATA?CH395

?PR?CH395SOCKETINITOPEN?CH395                  -----    -----      -----    -----      -----    -----      -----    ----
>> -
  +--> ?PR?_CH395SETSOCKETPROTTYPE?CH395
  +--> ?PR?_CH395SETSOCKETSOURPORT?CH395
  +--> ?PR?_CH395OPENSOCKET?CH395
  +--> ?PR?_MSTOPIFERROR?CH395
  +--> ?PR?_CH395TCPLISTEN?CH395

?PR?_CH395SETSOCKETPROTTYPE?CH395              -----    -----      -----    -----      -----    -----      -----    ----
>> -
  +--> ?PR?_XWRITECH395CMD?CH395
  +--> ?PR?_XWRITECH395DATA?CH395

?PR?_CH395SETSOCKETSOURPORT?CH395              -----    -----      -----    -----      -----    -----      -----    ----
>> -
  +--> ?PR?_XWRITECH395CMD?CH395
  +--> ?PR?_XWRITECH395DATA?CH395

?PR?_CH395TCPLISTEN?CH395                      -----    -----      -----    -----      -----    -----      -----    ----
>> -
  +--> ?PR?_XWRITECH395CMD?CH395
  +--> ?PR?_XWRITECH395DATA?CH395
  +--> ?PR?CH395GETCMDSTATUS?CH395

?PR?CH395GLOBALINTERRUPT?CH395                 -----    -----      -----    -----      -----    -----      1D9EH    000C
>> H
  +--> ?PR?CH395CMDGETGLOBINTSTATUS_ALL?CH395
  +--> ?PR?_CH395CMDGETUNREACHIPPT?CH395
  +--> ?CO?CH395
  +--> ?PR?PRINTF?PRINTF
  +--> ?PR?_CH395SOCKETINTERRUPT?CH395

?PR?CH395CMDGETGLOBINTSTATUS_ALL?CH395         -----    -----      -----    -----      -----    -----      -----    ----
>> -
  +--> ?PR?_XWRITECH395CMD?CH395
  +--> ?PR?_MDELAYUS?CH395
  +--> ?PR?XREADCH395DATA?CH395

?PR?_CH395CMDGETUNREACHIPPT?CH395              -----    -----      -----    -----      -----    -----      1DAAH    0003
>> H
  +--> ?PR?_XWRITECH395CMD?CH395
  +--> ?PR?XREADCH395DATA?CH395

?PR?_CH395SOCKETINTERRUPT?CH395                -----    -----      -----    -----      000DH    000AH      1DAAH    0007
>> H
  +--> ?PR?_CH395GETSOCKETINT?CH395
  +--> ?PR?_CH395GETRECVLENGTH?CH395
  +--> ?CO?CH395
  +--> ?PR?PRINTF?PRINTF
  +--> ?PR?_CH395GETRECVDATA?CH395
  +--> ?PR?_CH395SENDDATA?CH395
  +--> ?PR?_CH395CMDGETREMOTEIPP?CH395
BL51 BANKED LINKER/LOCATER V6.22                                                      03/16/2021  09:41:50  PAGE 7


  +--> ?PR?_CH395CLOSESOCKET?CH395
  +--> ?PR?_MSTOPIFERROR?CH395

?PR?_CH395GETSOCKETINT?CH395                   -----    -----      -----    -----      -----    -----      -----    ----
>> -
  +--> ?PR?_XWRITECH395CMD?CH395
  +--> ?PR?_XWRITECH395DATA?CH395
  +--> ?PR?_MDELAYUS?CH395
  +--> ?PR?XREADCH395DATA?CH395

?PR?_CH395GETRECVLENGTH?CH395                  -----    -----      -----    -----      -----    -----      -----    ----
>> -
  +--> ?PR?XREADCH395DATA?CH395

?PR?_CH395GETRECVDATA?CH395                    -----    -----      -----    -----      -----    -----      1DB1H    0003
>> H
  +--> ?PR?_XWRITECH395CMD?CH395
  +--> ?PR?_XWRITECH395DATA?CH395
  +--> ?PR?_MDELAYUS?CH395
  +--> ?PR?XREADCH395DATA?CH395

?PR?_CH395SENDDATA?CH395                       -----    -----      -----    -----      -----    -----      1DB1H    0006
>> H
  +--> ?PR?_XWRITECH395CMD?CH395
  +--> ?PR?_XWRITECH395DATA?CH395

?PR?_CH395CMDGETREMOTEIPP?CH395                -----    -----      -----    -----      -----    -----      1DB1H    0003
>> H
  +--> ?PR?_XWRITECH395CMD?CH395
  +--> ?PR?_XWRITECH395DATA?CH395
  +--> ?PR?XREADCH395DATA?CH395

?PR?_CH395CLOSESOCKET?CH395                    -----    -----      -----    -----      -----    -----      -----    ----
>> -
  +--> ?PR?_XWRITECH395CMD?CH395
  +--> ?PR?_XWRITECH395DATA?CH395
  +--> ?PR?CH395GETCMDSTATUS?CH395



SYMBOL TABLE OF MODULE:  CH395EVT (CH395)

  VALUE           TYPE          NAME
  ----------------------------------

  -------         MODULE        CH395
  C:0000H         SYMBOL        _ICE_DUMMY_
  C:1562H         PUBLIC        CH395CMDSleep
  C:0FB1H         PUBLIC        _CH395CMDGetRemoteIPP
  D:0090H         PUBLIC        P1
  C:12EBH         PUBLIC        _CH395SetSocketDesIP
  C:1246H         PUBLIC        _CH395CMDSetMACAddr
  D:00B0H         PUBLIC        P3
  C:1469H         PUBLIC        _CH395SetTTLNum
  C:0C92H         PUBLIC        _CH395EEPROMWrite
  C:104BH         PUBLIC        _CH395GetIPInf
  C:147AH         PUBLIC        mInitSTDIO
BL51 BANKED LINKER/LOCATER V6.22                                                      03/16/2021  09:41:50  PAGE 8


  C:14B9H         PUBLIC        _CH395EnablePing
  C:1158H         PUBLIC        _CH395TCPListen
  C:155AH         PUBLIC        CH395CMDReset
  C:05C9H         PUBLIC        _CH395CRCRet6Bit
  D:00A8H         PUBLIC        IE
  C:1341H         PUBLIC        _CH395SetSocketDesPort
  C:1220H         PUBLIC        _CH395CloseSocket
  C:0946H         PUBLIC        _CH395CMDSetMACFilt
  C:13F9H         PUBLIC        _CH395SetSocketProtType
  D:00B8H         PUBLIC        IP
  C:11AAH         PUBLIC        _CH395DHCPEnable
  C:0F35H         PUBLIC        _CH395CMDGetSocketStatus
  C:126AH         PUBLIC        CH395CMDGetGlobIntStatus_ALL
  B:0098H.1       PUBLIC        TI
  B:00B0H.3       PUBLIC        INT1
  C:09D9H         PUBLIC        Socket_R_S_Buf_Modify
  C:135AH         PUBLIC        _CH395SetSocketSourPort
  C:1526H         PUBLIC        CH395CMDGetPHYStatus
  C:137AH         PUBLIC        _mDelaymS
  C:14FCH         PUBLIC        xReadCH395Data
  C:14AAH         PUBLIC        _CH395CMDSetPHY
  X:0000H         PUBLIC        MyBuffer
  C:0B7CH         PUBLIC        main
  C:1181H         PUBLIC        _CH395TCPDisconnect
  C:14EDH         PUBLIC        _mDelayuS
  C:150FH         PUBLIC        _CH395KeepLiveCNT
  C:11FAH         PUBLIC        _CH395OpenSocket
  C:101AH         PUBLIC        _CH395CMDGetUnreachIPPT
  X:1D50H         PUBLIC        SockInf
  D:0087H         PUBLIC        PCON
  C:10A7H         PUBLIC        _xWriteCH395Data
  C:13A2H         PUBLIC        _CH395CMDSetRetryPeriod
  D:0098H         PUBLIC        SCON
  B:0090H.4       PUBLIC        P14
  D:0089H         PUBLIC        TMOD
  D:0088H         PUBLIC        TCON
  C:0EAEH         PUBLIC        _CH395SendData
  D:00D5H         PUBLIC        SPCR
  D:0086H         PUBLIC        SPDR
  C:0F75H         PUBLIC        CH395Init
  X:1D6CH         PUBLIC        CH395IPAddr
  C:0E1CH         PUBLIC        CH395SocketInitOpen
  C:10AAH         PUBLIC        CH395CMDInitCH395
  C:130BH         PUBLIC        _CH395GetRecvLength
  C:128BH         PUBLIC        _CH395CMDSetIPAddr
  D:00AAH         PUBLIC        SPSR
  C:14C8H         PUBLIC        _CH395ClearRecvBuf
  C:149EH         PUBLIC        _xWriteCH395Cmd
  X:1D70H         PUBLIC        CH395Inf
  D:008DH         PUBLIC        TH1
  C:10EAH         PUBLIC        _mStopIfError
  C:151BH         PUBLIC        CH395CMDGetVer
  X:1D93H         PUBLIC        CH395IPMask
  C:0AF4H         PUBLIC        CH395GlobalInterrupt
  B:0088H.6       PUBLIC        TR1
  C:0E66H         PUBLIC        InitCH395InfParam
  C:0D81H         PUBLIC        _CH395KeepLiveINTVL
BL51 BANKED LINKER/LOCATER V6.22                                                      03/16/2021  09:41:50  PAGE 9


  C:14D7H         PUBLIC        _CH395CMDSetRetryCount
  C:13E4H         PUBLIC        _CH395ReadGPIOAddr
  C:12CBH         PUBLIC        _CH395CMDSetMASKAddr
  C:0EF4H         PUBLIC        _CH395CMDSetUartBaudRate
  C:0BE7H         PUBLIC        _CH395GetRecvData
  C:1531H         PUBLIC        CH395CMDGetGlobIntStatus
  X:1D97H         PUBLIC        CH395GWIPAddr
  C:112FH         PUBLIC        _CH395TCPConnect
  C:140DH         PUBLIC        _CH395SetSocketIPRAWProto
  D:00C8H         PUBLIC        T2CON
  C:0D33H         PUBLIC        _CH395KeepLiveIDLE
  C:12ABH         PUBLIC        _CH395CMDSetGWIPAddr
  C:0C3EH         PUBLIC        _CH395UDPSendTo
  C:138BH         PUBLIC        _CH395GetSocketInt
  C:1551H         PUBLIC        CH395_PORT_INIT
  C:1447H         PUBLIC        _CH395WriteGPIOAddr
  C:1421H         PUBLIC        CH395EEPROMErase
  C:1490H         PUBLIC        CH395GetCmdStatus
  C:073EH         PUBLIC        _CH395SocketInterrupt
  X:1D9BH         PUBLIC        Socket0SourPort
  C:0CE5H         PUBLIC        _CH395SetStartPara
  C:13CEH         PUBLIC        _CH395SetSocketSendBuf
  C:0FE9H         PUBLIC        _CH395CMDGetMACAddr
  C:1547H         PUBLIC        _CH395CMDCheckExist
  C:1458H         PUBLIC        _CH395SetKeepLive
  C:0DCFH         PUBLIC        _CH395EEPROMRead
  C:1104H         PUBLIC        InitSocketParam
  C:1502H         PUBLIC        _Spi395Exchange
  C:153CH         PUBLIC        CH395GetDHCPStatus
  C:1434H         PUBLIC        _CH395SetTCPMss
  D:00D0H         PUBLIC        PSW
  C:13B8H         PUBLIC        _CH395SetSocketRecvBuf
  -------         PROC          L?0207
  -------         ENDPROC       L?0207
  -------         PROC          _MDELAYUS
  D:0007H         SYMBOL        us
  C:14EDH         LINE#         39
  C:14EDH         LINE#         40
  C:14EDH         LINE#         41
  C:14F3H         LINE#         42
  -------         ENDPROC       _MDELAYUS
  -------         PROC          L?0208
  -------         ENDPROC       L?0208
  -------         PROC          _MDELAYMS
  D:0005H         SYMBOL        ms
  C:137AH         LINE#         51
  C:137CH         LINE#         52
  C:137CH         LINE#         53
  C:1382H         LINE#         54
  C:1382H         LINE#         55
  C:1382H         LINE#         56
  C:1385H         LINE#         57
  C:1385H         LINE#         58
  C:1388H         LINE#         59
  C:138AH         LINE#         60
  -------         ENDPROC       _MDELAYMS
  -------         PROC          CH395_PORT_INIT
BL51 BANKED LINKER/LOCATER V6.22                                                      03/16/2021  09:41:50  PAGE 10


  C:1551H         LINE#         69
  C:1551H         LINE#         70
  C:1551H         LINE#         71
  C:1553H         LINE#         74
  C:1556H         LINE#         78
  C:1559H         LINE#         80
  -------         ENDPROC       CH395_PORT_INIT
  -------         PROC          _SPI395EXCHANGE
  D:0007H         SYMBOL        d
  C:1502H         LINE#         89
  C:1502H         LINE#         90
  C:1502H         LINE#         92
  C:1504H         LINE#         93
  C:1509H         LINE#         94
  C:150CH         LINE#         95
  C:150EH         LINE#         96
  -------         ENDPROC       _SPI395EXCHANGE
  -------         PROC          L?0206
  -------         ENDPROC       L?0206
  -------         PROC          _XWRITECH395CMD
  D:0007H         SYMBOL        cmd
  C:149EH         LINE#         105
  C:149EH         LINE#         106
  C:149EH         LINE#         107
  C:14A0H         LINE#         108
  C:14A2H         LINE#         109
  C:14A5H         LINE#         110
  -------         ENDPROC       _XWRITECH395CMD
  C:1096H         SYMBOL        L?0199
  -------         PROC          L?0198
  -------         ENDPROC       L?0198
  C:1096H         SYMBOL        L?0199
  -------         PROC          _XWRITECH395DATA
  D:0007H         SYMBOL        mdata
  C:10A7H         LINE#         120
  C:10A7H         LINE#         121
  C:10A7H         LINE#         122
  -------         ENDPROC       _XWRITECH395DATA
  C:14F4H         SYMBOL        L?0205
  -------         PROC          L?0204
  -------         ENDPROC       L?0204
  C:14F4H         SYMBOL        L?0205
  -------         PROC          XREADCH395DATA
  -------         DO            
  D:0007H         SYMBOL        i
  -------         ENDDO         
  C:14FCH         LINE#         132
  C:14FCH         LINE#         133
  C:14FCH         LINE#         135
  C:1501H         LINE#         136
  C:1501H         LINE#         137
  -------         ENDPROC       XREADCH395DATA
  -------         PROC          CH395CMDRESET
  C:155AH         LINE#         21
  C:155AH         LINE#         22
  C:155AH         LINE#         23
  C:155FH         LINE#         24
BL51 BANKED LINKER/LOCATER V6.22                                                      03/16/2021  09:41:50  PAGE 11


  C:1561H         LINE#         25
  -------         ENDPROC       CH395CMDRESET
  -------         PROC          CH395CMDSLEEP
  C:1562H         LINE#         34
  C:1562H         LINE#         35
  C:1562H         LINE#         36
  C:1567H         LINE#         37
  C:1569H         LINE#         38
  -------         ENDPROC       CH395CMDSLEEP
  -------         PROC          CH395CMDGETVER
  -------         DO            
  D:0007H         SYMBOL        i
  -------         ENDDO         
  C:151BH         LINE#         48
  C:151BH         LINE#         49
  C:151BH         LINE#         51
  C:1520H         LINE#         52
  C:1523H         LINE#         53
  C:1525H         LINE#         54
  C:1525H         LINE#         55
  -------         ENDPROC       CH395CMDGETVER
  -------         PROC          _CH395CMDCHECKEXIST
  D:0005H         SYMBOL        testdata
  -------         DO            
  D:0007H         SYMBOL        i
  -------         ENDDO         
  C:1547H         LINE#         64
  C:1549H         LINE#         65
  C:1549H         LINE#         68
  C:154BH         LINE#         69
  C:154BH         LINE#         70
  C:154EH         LINE#         71
  C:1550H         LINE#         72
  C:1550H         LINE#         73
  -------         ENDPROC       _CH395CMDCHECKEXIST
  -------         PROC          _CH395CMDSETPHY
  D:0005H         SYMBOL        phystat
  C:14AAH         LINE#         83
  C:14ACH         LINE#         84
  C:14ACH         LINE#         85
  C:14B1H         LINE#         86
  C:14B6H         LINE#         87
  C:14B8H         LINE#         88
  -------         ENDPROC       _CH395CMDSETPHY
  -------         PROC          CH395CMDGETPHYSTATUS
  -------         DO            
  D:0007H         SYMBOL        i
  -------         ENDDO         
  C:1526H         LINE#         97
  C:1526H         LINE#         98
  C:1526H         LINE#         101
  C:152BH         LINE#         102
  C:152EH         LINE#         103
  C:1530H         LINE#         104
  C:1530H         LINE#         105
  -------         ENDPROC       CH395CMDGETPHYSTATUS
  -------         PROC          CH395CMDGETGLOBINTSTATUS
BL51 BANKED LINKER/LOCATER V6.22                                                      03/16/2021  09:41:50  PAGE 12


  -------         DO            
  D:0007H         SYMBOL        init_status
  -------         ENDDO         
  C:1531H         LINE#         114
  C:1531H         LINE#         115
  C:1531H         LINE#         118
  C:1536H         LINE#         119
  C:1539H         LINE#         120
  C:153BH         LINE#         121
  C:153BH         LINE#         122
  -------         ENDPROC       CH395CMDGETGLOBINTSTATUS
  -------         PROC          CH395CMDINITCH395
  -------         DO            
  X:1D9EH         SYMBOL        i
  D:0005H         SYMBOL        s
  -------         ENDDO         
  C:10AAH         LINE#         131
  C:10AAH         LINE#         132
  C:10AAH         LINE#         133
  C:10AFH         LINE#         134
  C:10B0H         LINE#         136
  C:10B5H         LINE#         137
  C:10B7H         LINE#         138
  C:10B7H         LINE#         139
  C:10B7H         LINE#         140
  C:10BCH         LINE#         141
  C:10C1H         LINE#         142
  C:10C5H         LINE#         143
  C:10D5H         LINE#         144
  C:10D5H         LINE#         145
  C:10D7H         LINE#         146
  -------         ENDPROC       CH395CMDINITCH395
  -------         PROC          _CH395CMDSETUARTBAUDRATE
  X:1E0FH         SYMBOL        baudrate
  -------         DO            
  X:1E13H         SYMBOL        i
  -------         ENDDO         
  C:0EF4H         LINE#         155
  C:0EFAH         LINE#         156
  C:0EFAH         LINE#         158
  C:0EFFH         LINE#         159
  C:0F0AH         LINE#         160
  C:0F16H         LINE#         161
  C:0F2CH         LINE#         162
  C:0F32H         LINE#         163
  C:0F34H         LINE#         164
  -------         ENDPROC       _CH395CMDSETUARTBAUDRATE
  C:148BH         SYMBOL        L?0201
  -------         PROC          L?0200
  -------         ENDPROC       L?0200
  C:148BH         SYMBOL        L?0201
  -------         PROC          CH395GETCMDSTATUS
  -------         DO            
  D:0007H         SYMBOL        i
  -------         ENDDO         
  C:1490H         LINE#         173
  C:1490H         LINE#         174
BL51 BANKED LINKER/LOCATER V6.22                                                      03/16/2021  09:41:50  PAGE 13


  C:1490H         LINE#         177
  C:1495H         LINE#         178
  C:1498H         LINE#         179
  C:149AH         LINE#         180
  C:149AH         LINE#         181
  -------         ENDPROC       CH395GETCMDSTATUS
  -------         PROC          _CH395CMDSETIPADDR
  X:1D9EH         SYMBOL        ipaddr
  -------         DO            
  D:0006H         SYMBOL        i
  -------         ENDDO         
  C:128BH         LINE#         190
  C:1296H         LINE#         191
  C:1296H         LINE#         194
  C:129BH         LINE#         195
  C:12A8H         LINE#         196
  C:12AAH         LINE#         197
  -------         ENDPROC       _CH395CMDSETIPADDR
  -------         PROC          _CH395CMDSETGWIPADDR
  X:1D9EH         SYMBOL        gwipaddr
  -------         DO            
  D:0006H         SYMBOL        i
  -------         ENDDO         
  C:12ABH         LINE#         206
  C:12B6H         LINE#         207
  C:12B6H         LINE#         210
  C:12BBH         LINE#         211
  C:12C8H         LINE#         212
  C:12CAH         LINE#         213
  -------         ENDPROC       _CH395CMDSETGWIPADDR
  -------         PROC          _CH395CMDSETMASKADDR
  X:1D9EH         SYMBOL        maskaddr
  -------         DO            
  D:0006H         SYMBOL        i
  -------         ENDDO         
  C:12CBH         LINE#         222
  C:12D6H         LINE#         223
  C:12D6H         LINE#         226
  C:12DBH         LINE#         227
  C:12E8H         LINE#         228
  C:12EAH         LINE#         229
  -------         ENDPROC       _CH395CMDSETMASKADDR
  -------         PROC          _CH395CMDSETMACADDR
  X:1E1CH         SYMBOL        amcaddr
  -------         DO            
  D:0006H         SYMBOL        i
  -------         ENDDO         
  C:1246H         LINE#         238
  C:1251H         LINE#         239
  C:1251H         LINE#         242
  C:1256H         LINE#         243
  C:1263H         LINE#         244
  C:1265H         LINE#         245
  -------         ENDPROC       _CH395CMDSETMACADDR
  -------         PROC          _CH395CMDGETMACADDR
  X:1E1FH         SYMBOL        amcaddr
  -------         DO            
BL51 BANKED LINKER/LOCATER V6.22                                                      03/16/2021  09:41:50  PAGE 14


  D:0006H         SYMBOL        i
  -------         ENDDO         
  C:0FE9H         LINE#         255
  C:0FF4H         LINE#         256
  C:0FF4H         LINE#         259
  C:0FF9H         LINE#         260
  C:1017H         LINE#         261
  C:1019H         LINE#         262
  -------         ENDPROC       _CH395CMDGETMACADDR
  -------         PROC          _CH395CMDSETMACFILT
  D:0005H         SYMBOL        filtype
  X:1DFBH         SYMBOL        table0
  X:1DFFH         SYMBOL        table1
  C:0946H         LINE#         273
  C:0948H         LINE#         274
  C:0948H         LINE#         275
  C:094DH         LINE#         276
  C:0952H         LINE#         277
  C:095DH         LINE#         278
  C:0969H         LINE#         279
  C:097FH         LINE#         280
  C:0995H         LINE#         282
  C:099EH         LINE#         283
  C:09AAH         LINE#         284
  C:09C0H         LINE#         285
  C:09D6H         LINE#         286
  C:09D8H         LINE#         287
  -------         ENDPROC       _CH395CMDSETMACFILT
  -------         PROC          _CH395CMDGETUNREACHIPPT
  X:1DAAH         SYMBOL        list
  -------         DO            
  D:0006H         SYMBOL        i
  -------         ENDDO         
  C:101AH         LINE#         300
  C:1025H         LINE#         301
  C:1025H         LINE#         304
  C:102AH         LINE#         305
  C:102CH         LINE#         306
  C:102CH         LINE#         307
  C:1043H         LINE#         308
  C:1048H         LINE#         309
  C:104AH         LINE#         310
  -------         ENDPROC       _CH395CMDGETUNREACHIPPT
  -------         PROC          _CH395CMDGETREMOTEIPP
  D:0005H         SYMBOL        sockindex
  X:1DB1H         SYMBOL        list
  -------         DO            
  D:0006H         SYMBOL        i
  -------         ENDDO         
  C:0FB1H         LINE#         320
  C:0FBEH         LINE#         321
  C:0FBEH         LINE#         324
  C:0FC3H         LINE#         325
  C:0FC8H         LINE#         326
  C:0FCAH         LINE#         327
  C:0FCAH         LINE#         328
  C:0FE1H         LINE#         329
BL51 BANKED LINKER/LOCATER V6.22                                                      03/16/2021  09:41:50  PAGE 15


  C:0FE6H         LINE#         330
  C:0FE8H         LINE#         331
  -------         ENDPROC       _CH395CMDGETREMOTEIPP
  -------         PROC          _CH395SETSOCKETDESIP
  D:0005H         SYMBOL        sockindex
  X:1E22H         SYMBOL        ipaddr
  C:12EBH         LINE#         341
  C:12F8H         LINE#         342
  C:12F8H         LINE#         343
  C:12FDH         LINE#         344
  C:1302H         LINE#         345
  C:1302H         LINE#         346
  C:1305H         LINE#         347
  C:1305H         LINE#         348
  C:1308H         LINE#         349
  C:130AH         LINE#         350
  -------         ENDPROC       _CH395SETSOCKETDESIP
  -------         PROC          _CH395SETSOCKETPROTTYPE
  D:0004H         SYMBOL        sockindex
  D:0005H         SYMBOL        prottype
  C:13F9H         LINE#         360
  C:13FBH         LINE#         361
  C:13FBH         LINE#         362
  C:1400H         LINE#         363
  C:1405H         LINE#         364
  C:140AH         LINE#         365
  C:140CH         LINE#         366
  -------         ENDPROC       _CH395SETSOCKETPROTTYPE
  -------         PROC          _CH395SETSOCKETDESPORT
  D:0003H         SYMBOL        sockindex
  D:0004H         SYMBOL        desprot
  C:1341H         LINE#         377
  C:1343H         LINE#         378
  C:1343H         LINE#         379
  C:1348H         LINE#         380
  C:134DH         LINE#         381
  C:1352H         LINE#         382
  C:1357H         LINE#         383
  C:1359H         LINE#         384
  -------         ENDPROC       _CH395SETSOCKETDESPORT
  -------         PROC          _CH395SETSOCKETSOURPORT
  D:0003H         SYMBOL        sockindex
  D:0004H         SYMBOL        surprot
  C:135AH         LINE#         394
  C:135CH         LINE#         395
  C:135CH         LINE#         396
  C:1361H         LINE#         397
  C:1366H         LINE#         398
  C:136BH         LINE#         399
  C:1370H         LINE#         400
  C:1372H         LINE#         401
  -------         ENDPROC       _CH395SETSOCKETSOURPORT
  -------         PROC          _CH395SETSOCKETIPRAWPROTO
  D:0004H         SYMBOL        sockindex
  D:0005H         SYMBOL        prototype
  C:140DH         LINE#         411
  C:140FH         LINE#         412
BL51 BANKED LINKER/LOCATER V6.22                                                      03/16/2021  09:41:50  PAGE 16


  C:140FH         LINE#         413
  C:1414H         LINE#         414
  C:1419H         LINE#         415
  C:141EH         LINE#         416
  C:1420H         LINE#         417
  -------         ENDPROC       _CH395SETSOCKETIPRAWPROTO
  -------         PROC          _CH395ENABLEPING
  D:0005H         SYMBOL        enable
  C:14B9H         LINE#         427
  C:14BBH         LINE#         428
  C:14BBH         LINE#         429
  C:14C0H         LINE#         430
  C:14C5H         LINE#         431
  C:14C7H         LINE#         432
  -------         ENDPROC       _CH395ENABLEPING
  -------         PROC          _CH395SENDDATA
  D:0005H         SYMBOL        sockindex
  X:1DB2H         SYMBOL        databuf
  X:1DB5H         SYMBOL        len
  -------         DO            
  D:0004H         SYMBOL        i
  -------         ENDDO         
  C:0EAEH         LINE#         444
  C:0EBBH         LINE#         445
  C:0EBBH         LINE#         448
  C:0EC0H         LINE#         449
  C:0EC5H         LINE#         450
  C:0ECCH         LINE#         451
  C:0ED4H         LINE#         453
  C:0EE4H         LINE#         454
  C:0EE4H         LINE#         455
  C:0EEAH         LINE#         456
  C:0EF1H         LINE#         457
  C:0EF3H         LINE#         458
  -------         ENDPROC       _CH395SENDDATA
  -------         PROC          _CH395GETRECVLENGTH
  D:0005H         SYMBOL        sockindex
  -------         DO            
  D:0004H         SYMBOL        i
  -------         ENDDO         
  C:130BH         LINE#         467
  C:130DH         LINE#         468
  C:130DH         LINE#         471
  C:130FH         LINE#         472
  C:130FH         LINE#         473
  C:1316H         LINE#         474
  C:1320H         LINE#         475
  C:1322H         LINE#         476
  C:1325H         LINE#         477
  -------         ENDPROC       _CH395GETRECVLENGTH
  -------         PROC          _CH395CLEARRECVBUF
  D:0005H         SYMBOL        sockindex
  C:14C8H         LINE#         486
  C:14CAH         LINE#         487
  C:14CAH         LINE#         488
  C:14CFH         LINE#         489
  C:14D4H         LINE#         490
BL51 BANKED LINKER/LOCATER V6.22                                                      03/16/2021  09:41:50  PAGE 17


  C:14D6H         LINE#         491
  -------         ENDPROC       _CH395CLEARRECVBUF
  -------         PROC          _CH395GETRECVDATA
  X:1DB1H         SYMBOL        sockindex
  X:1DB2H         SYMBOL        len
  D:0001H         SYMBOL        pbuf
  -------         DO            
  D:0004H         SYMBOL        i
  -------         ENDDO         
  C:0BE7H         LINE#         502
  C:0BF2H         LINE#         503
  C:0BF2H         LINE#         505
  C:0BF5H         LINE#         506
  C:0BFAH         LINE#         507
  C:0C02H         LINE#         508
  C:0C09H         LINE#         509
  C:0C11H         LINE#         510
  C:0C16H         LINE#         511
  C:0C26H         LINE#         512
  C:0C26H         LINE#         513
  C:0C2DH         LINE#         514
  C:0C34H         LINE#         515
  C:0C3BH         LINE#         516
  C:0C3DH         LINE#         517
  -------         ENDPROC       _CH395GETRECVDATA
  -------         PROC          _CH395CMDSETRETRYCOUNT
  D:0005H         SYMBOL        count
  C:14D7H         LINE#         526
  C:14D9H         LINE#         527
  C:14D9H         LINE#         528
  C:14DEH         LINE#         529
  C:14E3H         LINE#         530
  C:14E5H         LINE#         531
  -------         ENDPROC       _CH395CMDSETRETRYCOUNT
  -------         PROC          _CH395CMDSETRETRYPERIOD
  D:0004H         SYMBOL        period
  C:13A2H         LINE#         540
  C:13A6H         LINE#         541
  C:13A6H         LINE#         542
  C:13ABH         LINE#         543
  C:13B0H         LINE#         544
  C:13B5H         LINE#         545
  C:13B7H         LINE#         546
  -------         ENDPROC       _CH395CMDSETRETRYPERIOD
  -------         PROC          _CH395CMDGETSOCKETSTATUS
  D:0005H         SYMBOL        sockindex
  X:1E25H         SYMBOL        status
  C:0F35H         LINE#         556
  C:0F42H         LINE#         557
  C:0F42H         LINE#         558
  C:0F44H         LINE#         559
  C:0F44H         LINE#         560
  C:0F5BH         LINE#         561
  C:0F72H         LINE#         562
  C:0F74H         LINE#         563
  -------         ENDPROC       _CH395CMDGETSOCKETSTATUS
  -------         PROC          _CH395OPENSOCKET
BL51 BANKED LINKER/LOCATER V6.22                                                      03/16/2021  09:41:50  PAGE 18


  D:0005H         SYMBOL        sockindex
  -------         DO            
  D:0004H         SYMBOL        i
  D:0003H         SYMBOL        s
  -------         ENDDO         
  C:11FAH         LINE#         572
  C:11FCH         LINE#         573
  C:11FCH         LINE#         574
  C:11FCH         LINE#         575
  C:11FCH         LINE#         576
  C:1201H         LINE#         577
  C:1206H         LINE#         578
  C:1208H         LINE#         579
  C:1208H         LINE#         580
  C:1208H         LINE#         581
  C:1208H         LINE#         582
  C:120DH         LINE#         583
  C:1211H         LINE#         584
  C:121DH         LINE#         585
  C:121DH         LINE#         586
  C:121FH         LINE#         587
  -------         ENDPROC       _CH395OPENSOCKET
  -------         PROC          _CH395CLOSESOCKET
  D:0005H         SYMBOL        sockindex
  -------         DO            
  D:0004H         SYMBOL        i
  D:0003H         SYMBOL        s
  -------         ENDDO         
  C:1220H         LINE#         596
  C:1222H         LINE#         597
  C:1222H         LINE#         598
  C:1222H         LINE#         599
  C:1222H         LINE#         600
  C:1227H         LINE#         601
  C:122CH         LINE#         602
  C:122EH         LINE#         603
  C:122EH         LINE#         604
  C:122EH         LINE#         605
  C:122EH         LINE#         606
  C:1233H         LINE#         607
  C:1237H         LINE#         608
  C:1243H         LINE#         609
  C:1243H         LINE#         610
  C:1245H         LINE#         611
  -------         ENDPROC       _CH395CLOSESOCKET
  -------         PROC          _CH395TCPCONNECT
  D:0005H         SYMBOL        sockindex
  -------         DO            
  D:0004H         SYMBOL        i
  D:0003H         SYMBOL        s
  -------         ENDDO         
  C:112FH         LINE#         620
  C:1131H         LINE#         621
  C:1131H         LINE#         622
  C:1133H         LINE#         623
  C:1134H         LINE#         624
  C:1139H         LINE#         625
BL51 BANKED LINKER/LOCATER V6.22                                                      03/16/2021  09:41:50  PAGE 19


  C:113EH         LINE#         626
  C:1140H         LINE#         627
  C:1140H         LINE#         628
  C:1140H         LINE#         629
  C:1140H         LINE#         630
  C:1145H         LINE#         631
  C:1149H         LINE#         632
  C:1155H         LINE#         633
  C:1155H         LINE#         634
  C:1157H         LINE#         635
  -------         ENDPROC       _CH395TCPCONNECT
  -------         PROC          _CH395TCPLISTEN
  D:0005H         SYMBOL        sockindex
  -------         DO            
  D:0004H         SYMBOL        i
  D:0003H         SYMBOL        s
  -------         ENDDO         
  C:1158H         LINE#         644
  C:115AH         LINE#         645
  C:115AH         LINE#         646
  C:115CH         LINE#         647
  C:115DH         LINE#         648
  C:1162H         LINE#         649
  C:1167H         LINE#         650
  C:1169H         LINE#         651
  C:1169H         LINE#         652
  C:1169H         LINE#         653
  C:1169H         LINE#         654
  C:116EH         LINE#         655
  C:1172H         LINE#         656
  C:117EH         LINE#         657
  C:117EH         LINE#         658
  C:1180H         LINE#         659
  -------         ENDPROC       _CH395TCPLISTEN
  -------         PROC          _CH395TCPDISCONNECT
  D:0005H         SYMBOL        sockindex
  -------         DO            
  D:0004H         SYMBOL        i
  D:0003H         SYMBOL        s
  -------         ENDDO         
  C:1181H         LINE#         668
  C:1183H         LINE#         669
  C:1183H         LINE#         670
  C:1185H         LINE#         671
  C:1186H         LINE#         672
  C:118BH         LINE#         673
  C:1190H         LINE#         674
  C:1192H         LINE#         675
  C:1192H         LINE#         676
  C:1192H         LINE#         677
  C:1192H         LINE#         678
  C:1197H         LINE#         679
  C:119BH         LINE#         680
  C:11A7H         LINE#         681
  C:11A7H         LINE#         682
  C:11A9H         LINE#         683
  -------         ENDPROC       _CH395TCPDISCONNECT
BL51 BANKED LINKER/LOCATER V6.22                                                      03/16/2021  09:41:50  PAGE 20


  -------         PROC          _CH395GETSOCKETINT
  D:0005H         SYMBOL        sockindex
  -------         DO            
  D:0007H         SYMBOL        intstatus
  -------         ENDDO         
  C:138BH         LINE#         692
  C:138DH         LINE#         693
  C:138DH         LINE#         695
  C:1392H         LINE#         696
  C:1397H         LINE#         697
  C:139CH         LINE#         698
  C:139FH         LINE#         699
  C:13A1H         LINE#         700
  C:13A1H         LINE#         701
  -------         ENDPROC       _CH395GETSOCKETINT
  -------         PROC          _CH395CRCRET6BIT
  X:1DD9H         SYMBOL        mac_addr
  -------         DO            
  X:1DDCH         SYMBOL        perByte
  X:1DE0H         SYMBOL        perBit
  X:1DE4H         SYMBOL        poly
  X:1DE8H         SYMBOL        crc_value
  X:1DECH         SYMBOL        c
  -------         ENDDO         
  C:05C9H         LINE#         710
  C:05D4H         LINE#         711
  C:05D4H         LINE#         714
  C:05DEH         LINE#         715
  C:05E8H         LINE#         717
  C:060FH         LINE#         718
  C:060FH         LINE#         719
  C:0626H         LINE#         720
  C:064DH         LINE#         721
  C:064DH         LINE#         722
  C:06C5H         LINE#         723
  C:06CCH         LINE#         724
  C:06F4H         LINE#         725
  C:071CH         LINE#         726
  C:0735H         LINE#         727
  C:073DH         LINE#         728
  -------         ENDPROC       _CH395CRCRET6BIT
  -------         PROC          _CH395DHCPENABLE
  D:0005H         SYMBOL        flag
  -------         DO            
  D:0004H         SYMBOL        i
  D:0007H         SYMBOL        s
  -------         ENDDO         
  C:11AAH         LINE#         737
  C:11ACH         LINE#         738
  C:11ACH         LINE#         739
  C:11AEH         LINE#         741
  C:11B3H         LINE#         742
  C:11B8H         LINE#         743
  C:11BAH         LINE#         744
  C:11BAH         LINE#         745
  C:11BAH         LINE#         746
  C:11BFH         LINE#         747
BL51 BANKED LINKER/LOCATER V6.22                                                      03/16/2021  09:41:50  PAGE 21


  C:11C2H         LINE#         748
  C:11C6H         LINE#         749
  C:11D2H         LINE#         750
  C:11D2H         LINE#         751
  C:11D2H         LINE#         752
  -------         ENDPROC       _CH395DHCPENABLE
  -------         PROC          CH395GETDHCPSTATUS
  -------         DO            
  D:0007H         SYMBOL        status
  -------         ENDDO         
  C:153CH         LINE#         761
  C:153CH         LINE#         762
  C:153CH         LINE#         764
  C:1541H         LINE#         765
  C:1544H         LINE#         766
  C:1546H         LINE#         767
  C:1546H         LINE#         768
  -------         ENDPROC       CH395GETDHCPSTATUS
  -------         PROC          _CH395GETIPINF
  X:1E28H         SYMBOL        addr
  -------         DO            
  D:0006H         SYMBOL        i
  -------         ENDDO         
  C:104BH         LINE#         777
  C:1056H         LINE#         778
  C:1056H         LINE#         780
  C:105BH         LINE#         781
  C:105DH         LINE#         782
  C:105DH         LINE#         783
  C:1074H         LINE#         784
  C:1079H         LINE#         785
  C:107BH         LINE#         786
  -------         ENDPROC       _CH395GETIPINF
  -------         PROC          _CH395WRITEGPIOADDR
  D:0004H         SYMBOL        regadd
  D:0005H         SYMBOL        regval
  C:1447H         LINE#         796
  C:1449H         LINE#         797
  C:1449H         LINE#         798
  C:144EH         LINE#         799
  C:1453H         LINE#         800
  -------         ENDPROC       _CH395WRITEGPIOADDR
  -------         PROC          _CH395READGPIOADDR
  D:0005H         SYMBOL        regadd
  -------         DO            
  D:0007H         SYMBOL        i
  -------         ENDDO         
  C:13E4H         LINE#         810
  C:13E6H         LINE#         811
  C:13E6H         LINE#         813
  C:13EBH         LINE#         814
  C:13F0H         LINE#         815
  C:13F5H         LINE#         816
  C:13F8H         LINE#         817
  C:13F8H         LINE#         818
  -------         ENDPROC       _CH395READGPIOADDR
  -------         PROC          CH395EEPROMERASE
BL51 BANKED LINKER/LOCATER V6.22                                                      03/16/2021  09:41:50  PAGE 22


  -------         DO            
  D:0007H         SYMBOL        i
  -------         ENDDO         
  C:1421H         LINE#         827
  C:1421H         LINE#         828
  C:1421H         LINE#         830
  C:1426H         LINE#         831
  C:1426H         LINE#         832
  C:1426H         LINE#         833
  C:142BH         LINE#         834
  C:142EH         LINE#         835
  C:1433H         LINE#         836
  C:1433H         LINE#         837
  C:1433H         LINE#         838
  C:1433H         LINE#         839
  -------         ENDPROC       CH395EEPROMERASE
  -------         PROC          _CH395EEPROMWRITE
  D:0004H         SYMBOL        eepaddr
  X:1E05H         SYMBOL        buf
  X:1E08H         SYMBOL        len
  -------         DO            
  D:0007H         SYMBOL        i
  -------         ENDDO         
  C:0C92H         LINE#         850
  C:0CA1H         LINE#         851
  C:0CA1H         LINE#         853
  C:0CA6H         LINE#         854
  C:0CABH         LINE#         855
  C:0CB0H         LINE#         856
  C:0CB4H         LINE#         857
  C:0CD7H         LINE#         858
  C:0CD7H         LINE#         859
  C:0CD7H         LINE#         860
  C:0CDCH         LINE#         861
  C:0CDFH         LINE#         862
  C:0CE4H         LINE#         863
  C:0CE4H         LINE#         864
  C:0CE4H         LINE#         865
  C:0CE4H         LINE#         866
  -------         ENDPROC       _CH395EEPROMWRITE
  -------         PROC          _CH395EEPROMREAD
  D:0004H         SYMBOL        eepaddr
  X:1E0BH         SYMBOL        buf
  X:1E0EH         SYMBOL        len
  C:0DCFH         LINE#         877
  C:0DDEH         LINE#         878
  C:0DDEH         LINE#         879
  C:0DE3H         LINE#         880
  C:0DE8H         LINE#         881
  C:0DEDH         LINE#         882
  C:0DF3H         LINE#         883
  C:0DF8H         LINE#         884
  C:0E1BH         LINE#         885
  -------         ENDPROC       _CH395EEPROMREAD
  -------         PROC          _CH395SETTCPMSS
  D:0004H         SYMBOL        tcpmss
  C:1434H         LINE#         894
BL51 BANKED LINKER/LOCATER V6.22                                                      03/16/2021  09:41:50  PAGE 23


  C:1438H         LINE#         895
  C:1438H         LINE#         896
  C:143DH         LINE#         897
  C:1442H         LINE#         898
  -------         ENDPROC       _CH395SETTCPMSS
  -------         PROC          _CH395SETSOCKETRECVBUF
  D:0004H         SYMBOL        sockindex
  D:0005H         SYMBOL        startblk
  D:0003H         SYMBOL        blknum
  C:13B8H         LINE#         910
  C:13BAH         LINE#         911
  C:13BAH         LINE#         912
  C:13BFH         LINE#         913
  C:13C4H         LINE#         914
  C:13C9H         LINE#         915
  -------         ENDPROC       _CH395SETSOCKETRECVBUF
  -------         PROC          _CH395SETSOCKETSENDBUF
  D:0004H         SYMBOL        sockindex
  D:0005H         SYMBOL        startblk
  D:0003H         SYMBOL        blknum
  C:13CEH         LINE#         927
  C:13D0H         LINE#         928
  C:13D0H         LINE#         929
  C:13D5H         LINE#         930
  C:13DAH         LINE#         931
  C:13DFH         LINE#         932
  -------         ENDPROC       _CH395SETSOCKETSENDBUF
  -------         PROC          _CH395UDPSENDTO
  X:1DEDH         SYMBOL        buf
  X:1DF0H         SYMBOL        len
  X:1DF4H         SYMBOL        ip
  X:1DF7H         SYMBOL        port
  X:1DF9H         SYMBOL        sockindex
  C:0C3EH         LINE#         946
  C:0C4DH         LINE#         947
  C:0C4DH         LINE#         948
  C:0C60H         LINE#         949
  C:0C70H         LINE#         950
  -------         ENDPROC       _CH395UDPSENDTO
  -------         PROC          _CH395SETSTARTPARA
  X:1D9EH         SYMBOL        mdata
  C:0CE5H         LINE#         960
  C:0CEBH         LINE#         961
  C:0CEBH         LINE#         962
  C:0CF0H         LINE#         963
  C:0CFBH         LINE#         964
  C:0D07H         LINE#         965
  C:0D1DH         LINE#         966
  -------         ENDPROC       _CH395SETSTARTPARA
  -------         PROC          CH395CMDGETGLOBINTSTATUS_ALL
  -------         DO            
  D:0004H         SYMBOL        init_status
  -------         ENDDO         
  C:126AH         LINE#         976
  C:126AH         LINE#         977
  C:126AH         LINE#         979
  C:126FH         LINE#         980
BL51 BANKED LINKER/LOCATER V6.22                                                      03/16/2021  09:41:50  PAGE 24


  C:1274H         LINE#         981
  C:127BH         LINE#         982
  C:1285H         LINE#         983
  C:1287H         LINE#         984
  C:128AH         LINE#         985
  -------         ENDPROC       CH395CMDGETGLOBINTSTATUS_ALL
  -------         PROC          _CH395SETKEEPLIVE
  D:0004H         SYMBOL        sockindex
  D:0005H         SYMBOL        cmd
  C:1458H         LINE#         995
  C:145AH         LINE#         996
  C:145AH         LINE#         997
  C:145FH         LINE#         998
  C:1464H         LINE#         999
  -------         ENDPROC       _CH395SETKEEPLIVE
  -------         PROC          _CH395KEEPLIVECNT
  D:0005H         SYMBOL        cnt
  C:150FH         LINE#         1009
  C:1511H         LINE#         1010
  C:1511H         LINE#         1011
  C:1516H         LINE#         1012
  -------         ENDPROC       _CH395KEEPLIVECNT
  -------         PROC          _CH395KEEPLIVEIDLE
  X:1E14H         SYMBOL        idle
  C:0D33H         LINE#         1022
  C:0D39H         LINE#         1023
  C:0D39H         LINE#         1024
  C:0D3EH         LINE#         1025
  C:0D49H         LINE#         1026
  C:0D55H         LINE#         1027
  C:0D6BH         LINE#         1028
  -------         ENDPROC       _CH395KEEPLIVEIDLE
  -------         PROC          _CH395KEEPLIVEINTVL
  X:1E18H         SYMBOL        intvl
  C:0D81H         LINE#         1038
  C:0D87H         LINE#         1039
  C:0D87H         LINE#         1040
  C:0D8CH         LINE#         1041
  C:0D97H         LINE#         1042
  C:0DA3H         LINE#         1043
  C:0DB9H         LINE#         1044
  -------         ENDPROC       _CH395KEEPLIVEINTVL
  -------         PROC          _CH395SETTTLNUM
  D:0004H         SYMBOL        sockindex
  D:0005H         SYMBOL        TTLnum
  C:1469H         LINE#         1055
  C:146BH         LINE#         1056
  C:146BH         LINE#         1057
  C:1470H         LINE#         1058
  C:1475H         LINE#         1059
  -------         ENDPROC       _CH395SETTTLNUM
  C:10E5H         SYMBOL        L?0203
  -------         PROC          L?0202
  -------         ENDPROC       L?0202
  C:10E5H         SYMBOL        L?0203
  -------         PROC          _MSTOPIFERROR
  D:0007H         SYMBOL        iError
BL51 BANKED LINKER/LOCATER V6.22                                                      03/16/2021  09:41:50  PAGE 25


  C:10EAH         LINE#         74
  C:10EAH         LINE#         75
  C:10EAH         LINE#         76
  C:10EDH         LINE#         78
  C:10FEH         LINE#         80
  C:10FEH         LINE#         81
  C:10FEH         LINE#         82
  C:10FEH         LINE#         83
  C:1101H         LINE#         84
  C:1103H         LINE#         85
  -------         ENDPROC       _MSTOPIFERROR
  -------         PROC          INITCH395INFPARAM
  C:0E66H         LINE#         94
  C:0E66H         LINE#         95
  C:0E66H         LINE#         96
  C:0E75H         LINE#         97
  C:0E88H         LINE#         98
  C:0E9BH         LINE#         99
  -------         ENDPROC       INITCH395INFPARAM
  -------         PROC          INITSOCKETPARAM
  C:1104H         LINE#         109
  C:1104H         LINE#         110
  C:1104H         LINE#         111
  C:1113H         LINE#         112
  C:1122H         LINE#         113
  C:1128H         LINE#         114
  C:112EH         LINE#         115
  -------         ENDPROC       INITSOCKETPARAM
  -------         PROC          CH395SOCKETINITOPEN
  -------         DO            
  D:0002H         SYMBOL        i
  -------         ENDDO         
  C:0E1CH         LINE#         124
  C:0E1CH         LINE#         125
  C:0E1CH         LINE#         128
  C:0E26H         LINE#         129
  C:0E33H         LINE#         130
  C:0E3AH         LINE#         131
  C:0E3DH         LINE#         132
  C:0E44H         LINE#         133
  C:0E47H         LINE#         135
  C:0E49H         LINE#         136
  C:0E49H         LINE#         137
  C:0E53H         LINE#         138
  C:0E60H         LINE#         139
  C:0E65H         LINE#         140
  -------         ENDPROC       CH395SOCKETINITOPEN
  -------         PROC          _CH395SOCKETINTERRUPT
  X:1DAAH         SYMBOL        sockindex
  -------         DO            
  X:1DABH         SYMBOL        sock_int_socket
  X:1DACH         SYMBOL        i
  X:1DADH         SYMBOL        len
  X:1DAFH         SYMBOL        tmp
  I:000DH         SYMBOL        buf
  -------         ENDDO         
  C:073EH         LINE#         149
BL51 BANKED LINKER/LOCATER V6.22                                                      03/16/2021  09:41:50  PAGE 26


  C:0743H         LINE#         150
  C:0743H         LINE#         156
  C:0749H         LINE#         157
  C:0749H         LINE#         158
  C:0749H         LINE#         159
  C:0749H         LINE#         160
  C:0749H         LINE#         161
  C:0749H         LINE#         162
  C:0749H         LINE#         163
  C:0753H         LINE#         164
  C:0753H         LINE#         165
  C:0763H         LINE#         167
  C:0774H         LINE#         169
  C:0782H         LINE#         170
  C:0794H         LINE#         171
  C:07B9H         LINE#         172
  C:07E3H         LINE#         173
  C:07E3H         LINE#         174
  C:07EAH         LINE#         175
  C:07EAH         LINE#         177
  C:07F3H         LINE#         179
  C:07FBH         LINE#         180
  C:07FBH         LINE#         181
  C:0809H         LINE#         182
  C:081DH         LINE#         184
  C:084DH         LINE#         185
  C:0865H         LINE#         187
  C:0865H         LINE#         188
  C:0865H         LINE#         195
  C:086CH         LINE#         196
  C:086CH         LINE#         198
  C:0874H         LINE#         199
  C:0877H         LINE#         200
  C:0877H         LINE#         201
  C:0877H         LINE#         202
  C:087AH         LINE#         203
  C:087AH         LINE#         204
  C:0881H         LINE#         205
  C:0881H         LINE#         206
  C:0889H         LINE#         207
  C:088CH         LINE#         208
  C:088CH         LINE#         209
  C:088CH         LINE#         210
  C:088FH         LINE#         211
  C:088FH         LINE#         212
  -------         ENDPROC       _CH395SOCKETINTERRUPT
  -------         PROC          CH395GLOBALINTERRUPT
  -------         DO            
  X:1D9EH         SYMBOL        init_status
  X:1DA0H         SYMBOL        buf
  -------         ENDDO         
  C:0AF4H         LINE#         221
  C:0AF4H         LINE#         222
  C:0AF4H         LINE#         226
  C:0AFFH         LINE#         227
  C:0B02H         LINE#         228
  C:0B02H         LINE#         229
BL51 BANKED LINKER/LOCATER V6.22                                                      03/16/2021  09:41:50  PAGE 27


  C:0B0BH         LINE#         230
  C:0B0BH         LINE#         231
  C:0B0BH         LINE#         232
  C:0B0BH         LINE#         233
  C:0B0BH         LINE#         234
  C:0B12H         LINE#         235
  C:0B12H         LINE#         237
  C:0B1BH         LINE#         239
  C:0B1BH         LINE#         240
  C:0B22H         LINE#         241
  C:0B22H         LINE#         242
  C:0B27H         LINE#         243
  C:0B27H         LINE#         244
  C:0B2EH         LINE#         245
  C:0B2EH         LINE#         246
  C:0B33H         LINE#         247
  C:0B33H         LINE#         248
  C:0B3AH         LINE#         249
  C:0B3AH         LINE#         250
  C:0B3FH         LINE#         251
  C:0B3FH         LINE#         252
  C:0B46H         LINE#         253
  C:0B46H         LINE#         254
  C:0B4BH         LINE#         255
  C:0B4BH         LINE#         256
  C:0B52H         LINE#         257
  C:0B52H         LINE#         258
  C:0B57H         LINE#         259
  C:0B57H         LINE#         260
  C:0B5EH         LINE#         261
  C:0B5EH         LINE#         262
  C:0B63H         LINE#         263
  C:0B63H         LINE#         264
  C:0B6AH         LINE#         265
  C:0B6AH         LINE#         266
  C:0B6FH         LINE#         267
  C:0B6FH         LINE#         268
  C:0B76H         LINE#         269
  C:0B76H         LINE#         270
  C:0B7BH         LINE#         271
  C:0B7BH         LINE#         272
  -------         ENDPROC       CH395GLOBALINTERRUPT
  -------         PROC          CH395INIT
  -------         DO            
  D:0007H         SYMBOL        i
  -------         ENDDO         
  C:0F75H         LINE#         281
  C:0F75H         LINE#         282
  C:0F75H         LINE#         285
  C:0F7AH         LINE#         286
  C:0F82H         LINE#         294
  C:0F8BH         LINE#         295
  C:0F94H         LINE#         296
  C:0F9DH         LINE#         301
  C:0FA8H         LINE#         302
  C:0FADH         LINE#         303
  C:0FB0H         LINE#         304
BL51 BANKED LINKER/LOCATER V6.22                                                      03/16/2021  09:41:50  PAGE 28


  C:0FB0H         LINE#         305
  -------         ENDPROC       CH395INIT
  -------         PROC          MINITSTDIO
  C:147AH         LINE#         314
  C:147AH         LINE#         315
  C:147AH         LINE#         316
  C:147DH         LINE#         317
  C:1480H         LINE#         318
  C:1483H         LINE#         319
  C:1486H         LINE#         320
  C:1488H         LINE#         321
  C:148AH         LINE#         322
  -------         ENDPROC       MINITSTDIO
  -------         PROC          SOCKET_R_S_BUF_MODIFY
  C:09D9H         LINE#         331
  C:09D9H         LINE#         332
  C:09D9H         LINE#         334
  C:09E1H         LINE#         335
  C:09EAH         LINE#         337
  C:09F3H         LINE#         338
  C:09FCH         LINE#         340
  C:0A05H         LINE#         341
  C:0A0EH         LINE#         343
  C:0A17H         LINE#         344
  C:0A20H         LINE#         346
  C:0A29H         LINE#         347
  C:0A32H         LINE#         349
  C:0A3BH         LINE#         350
  C:0A44H         LINE#         352
  C:0A4DH         LINE#         353
  C:0A56H         LINE#         355
  C:0A5FH         LINE#         356
  -------         ENDPROC       SOCKET_R_S_BUF_MODIFY
  -------         PROC          MAIN
  -------         DO            
  X:1D9DH         SYMBOL        i
  -------         ENDDO         
  C:0B7CH         LINE#         366
  C:0B7CH         LINE#         367
  C:0B7CH         LINE#         370
  C:0B81H         LINE#         371
  C:0B84H         LINE#         373
  C:0B8DH         LINE#         375
  C:0B90H         LINE#         377
  C:0B98H         LINE#         378
  C:0B9DH         LINE#         379
  C:0B9DH         LINE#         381
  C:0BA6H         LINE#         383
  C:0BA6H         LINE#         384
  C:0BA6H         LINE#         385
  C:0BA6H         LINE#         386
  C:0BA9H         LINE#         387
  C:0BABH         LINE#         388
  C:0BABH         LINE#         389
  C:0BAEH         LINE#         390
  C:0BB6H         LINE#         391
  C:0BB9H         LINE#         393
BL51 BANKED LINKER/LOCATER V6.22                                                      03/16/2021  09:41:50  PAGE 29


  C:0BBCH         LINE#         394
  C:0BC3H         LINE#         396
  C:0BC3H         LINE#         397
  C:0BC3H         LINE#         398
  C:0BC9H         LINE#         399
  C:0BC9H         LINE#         400
  C:0BCEH         LINE#         401
  C:0BD0H         LINE#         403
  C:0BD0H         LINE#         405
  C:0BD9H         LINE#         407
  C:0BD9H         LINE#         408
  C:0BD9H         LINE#         409
  C:0BD9H         LINE#         410
  C:0BDCH         LINE#         411
  C:0BDFH         LINE#         412
  C:0BDFH         LINE#         413
  C:0BDFH         LINE#         414
  C:0BE5H         LINE#         415
  -------         ENDPROC       MAIN
  -------         ENDMOD        CH395

  -------         MODULE        ?C?COPY
  C:0438H         PUBLIC        ?C?COPY
  -------         ENDMOD        ?C?COPY

  -------         MODULE        ?C?CLDPTR
  C:045EH         PUBLIC        ?C?CLDPTR
  -------         ENDMOD        ?C?CLDPTR

  -------         MODULE        ?C?CSTPTR
  C:0477H         PUBLIC        ?C?CSTPTR
  -------         ENDMOD        ?C?CSTPTR

  -------         MODULE        ?C?IMUL
  C:0489H         PUBLIC        ?C?IMUL
  -------         ENDMOD        ?C?IMUL

  -------         MODULE        ?C?ILDIX
  C:049BH         PUBLIC        ?C?ILDIX
  -------         ENDMOD        ?C?ILDIX

  -------         MODULE        ?C?SLCMP
  C:04B1H         PUBLIC        ?C?SLCMP
  -------         ENDMOD        ?C?SLCMP

  -------         MODULE        ?C?ULSHR
  C:04C7H         PUBLIC        ?C?ULSHR
  -------         ENDMOD        ?C?ULSHR

  -------         MODULE        ?C?LSHL
  C:04DAH         PUBLIC        ?C?LSHL
  -------         ENDMOD        ?C?LSHL

  -------         MODULE        ?C?LSTXDATA
  C:04EDH         PUBLIC        ?C?LSTXDATA
  -------         ENDMOD        ?C?LSTXDATA

BL51 BANKED LINKER/LOCATER V6.22                                                      03/16/2021  09:41:50  PAGE 30


  -------         MODULE        ?C?LSTKXDATA
  C:04F9H         PUBLIC        ?C?LSTKXDATA
  -------         ENDMOD        ?C?LSTKXDATA

  -------         MODULE        PRINTF
  X:1DB1H         PUBLIC        ?_PRINTF517?BYTE
  X:1DB1H         PUBLIC        ?_PRINTF?BYTE
  X:1DB1H         PUBLIC        ?_SPRINTF517?BYTE
  X:1DB1H         PUBLIC        ?_SPRINTF?BYTE
  C:006EH         PUBLIC        _PRINTF
  C:006EH         PUBLIC        _PRINTF517
  C:0068H         PUBLIC        _SPRINTF
  C:0068H         PUBLIC        _SPRINTF517
  -------         ENDMOD        PRINTF

  -------         MODULE        ?C?MEMSET
  C:052AH         PUBLIC        ?C?MEMSET
  -------         ENDMOD        ?C?MEMSET

  -------         MODULE        ?C?CLDOPTR
  C:0556H         PUBLIC        ?C?CLDOPTR
  -------         ENDMOD        ?C?CLDOPTR

  -------         MODULE        ?C?PLDIXDATA
  C:0583H         PUBLIC        ?C?PLDIXDATA
  -------         ENDMOD        ?C?PLDIXDATA

  -------         MODULE        ?C?PSTXDATA
  C:059AH         PUBLIC        ?C?PSTXDATA
  -------         ENDMOD        ?C?PSTXDATA

  -------         MODULE        ?C?CCASE
  C:05A3H         PUBLIC        ?C?CCASE
  -------         ENDMOD        ?C?CCASE

  -------         MODULE        PUTCHAR
  C:11D3H         PUBLIC        _PUTCHAR
  -------         ENDMOD        PUTCHAR

*** WARNING L16: UNCALLED SEGMENT, IGNORED FOR OVERLAY PROCESS
    SEGMENT: ?PR?CH395CMDRESET?CH395

*** WARNING L16: UNCALLED SEGMENT, IGNORED FOR OVERLAY PROCESS
    SEGMENT: ?PR?CH395CMDSLEEP?CH395

*** WARNING L16: UNCALLED SEGMENT, IGNORED FOR OVERLAY PROCESS
    SEGMENT: ?PR?_CH395CMDSETPHY?CH395

*** WARNING L16: UNCALLED SEGMENT, IGNORED FOR OVERLAY PROCESS
    SEGMENT: ?PR?CH395CMDGETGLOBINTSTATUS?CH395

*** WARNING L16: UNCALLED SEGMENT, IGNORED FOR OVERLAY PROCESS
    SEGMENT: ?PR?_CH395CMDSETUARTBAUDRATE?CH395

*** WARNING L16: UNCALLED SEGMENT, IGNORED FOR OVERLAY PROCESS
    SEGMENT: ?PR?_CH395CMDSETMACADDR?CH395

BL51 BANKED LINKER/LOCATER V6.22                                                      03/16/2021  09:41:50  PAGE 31


*** WARNING L16: UNCALLED SEGMENT, IGNORED FOR OVERLAY PROCESS
    SEGMENT: ?PR?_CH395CMDGETMACADDR?CH395

*** WARNING L16: UNCALLED SEGMENT, IGNORED FOR OVERLAY PROCESS
    SEGMENT: ?PR?_CH395CMDSETMACFILT?CH395

*** WARNING L16: UNCALLED SEGMENT, IGNORED FOR OVERLAY PROCESS
    SEGMENT: ?PR?_CH395SETSOCKETIPRAWPROTO?CH395

*** WARNING L16: UNCALLED SEGMENT, IGNORED FOR OVERLAY PROCESS
    SEGMENT: ?PR?_CH395ENABLEPING?CH395

*** WARNING L16: UNCALLED SEGMENT, IGNORED FOR OVERLAY PROCESS
    SEGMENT: ?PR?_CH395CLEARRECVBUF?CH395

*** WARNING L16: UNCALLED SEGMENT, IGNORED FOR OVERLAY PROCESS
    SEGMENT: ?PR?_CH395CMDSETRETRYCOUNT?CH395

*** WARNING L16: UNCALLED SEGMENT, IGNORED FOR OVERLAY PROCESS
    SEGMENT: ?PR?_CH395CMDSETRETRYPERIOD?CH395

*** WARNING L16: UNCALLED SEGMENT, IGNORED FOR OVERLAY PROCESS
    SEGMENT: ?PR?_CH395CMDGETSOCKETSTATUS?CH395

*** WARNING L16: UNCALLED SEGMENT, IGNORED FOR OVERLAY PROCESS
    SEGMENT: ?PR?_CH395TCPCONNECT?CH395

*** WARNING L16: UNCALLED SEGMENT, IGNORED FOR OVERLAY PROCESS
    SEGMENT: ?PR?_CH395TCPDISCONNECT?CH395

*** WARNING L16: UNCALLED SEGMENT, IGNORED FOR OVERLAY PROCESS
    SEGMENT: ?PR?_CH395CRCRET6BIT?CH395

*** WARNING L16: UNCALLED SEGMENT, IGNORED FOR OVERLAY PROCESS
    SEGMENT: ?PR?_CH395DHCPENABLE?CH395

*** WARNING L16: UNCALLED SEGMENT, IGNORED FOR OVERLAY PROCESS
    SEGMENT: ?PR?CH395GETDHCPSTATUS?CH395

*** WARNING L16: UNCALLED SEGMENT, IGNORED FOR OVERLAY PROCESS
    SEGMENT: ?PR?_CH395GETIPINF?CH395

*** WARNING L16: UNCALLED SEGMENT, IGNORED FOR OVERLAY PROCESS
    SEGMENT: ?PR?_CH395WRITEGPIOADDR?CH395

*** WARNING L16: UNCALLED SEGMENT, IGNORED FOR OVERLAY PROCESS
    SEGMENT: ?PR?_CH395READGPIOADDR?CH395

*** WARNING L16: UNCALLED SEGMENT, IGNORED FOR OVERLAY PROCESS
    SEGMENT: ?PR?CH395EEPROMERASE?CH395

*** WARNING L16: UNCALLED SEGMENT, IGNORED FOR OVERLAY PROCESS
    SEGMENT: ?PR?_CH395EEPROMWRITE?CH395

*** WARNING L16: UNCALLED SEGMENT, IGNORED FOR OVERLAY PROCESS
    SEGMENT: ?PR?_CH395EEPROMREAD?CH395

BL51 BANKED LINKER/LOCATER V6.22                                                      03/16/2021  09:41:50  PAGE 32


*** WARNING L16: UNCALLED SEGMENT, IGNORED FOR OVERLAY PROCESS
    SEGMENT: ?PR?_CH395UDPSENDTO?CH395

*** WARNING L16: UNCALLED SEGMENT, IGNORED FOR OVERLAY PROCESS
    SEGMENT: ?PR?_CH395SETKEEPLIVE?CH395

*** WARNING L16: UNCALLED SEGMENT, IGNORED FOR OVERLAY PROCESS
    SEGMENT: ?PR?_CH395KEEPLIVECNT?CH395

*** WARNING L16: UNCALLED SEGMENT, IGNORED FOR OVERLAY PROCESS
    SEGMENT: ?PR?_CH395KEEPLIVEIDLE?CH395

*** WARNING L16: UNCALLED SEGMENT, IGNORED FOR OVERLAY PROCESS
    SEGMENT: ?PR?_CH395KEEPLIVEINTVL?CH395

*** WARNING L16: UNCALLED SEGMENT, IGNORED FOR OVERLAY PROCESS
    SEGMENT: ?PR?_CH395SETTTLNUM?CH395

Program Size: data=25.1 xdata=7723 code=5482
LINK/LOCATE RUN COMPLETE.  31 WARNING(S),  0 ERROR(S)
