
IP_RAW.elf:     file format elf32-littleriscv
IP_RAW.elf
architecture: riscv:rv32, flags 0x00000112:
EXEC_P, HAS_SYMS, D_PAGED
start address 0x00000000

Program Header:
    LOAD off    0x00001000 vaddr 0x00000000 paddr 0x00000000 align 2**12
         filesz 0x000070c4 memsz 0x000070c4 flags r-x
    LOAD off    0x00009000 vaddr 0x20000000 paddr 0x000070c4 align 2**12
         filesz 0x000000a0 memsz 0x00000ec4 flags rw-
    LOAD off    0x0000a000 vaddr 0x20020000 paddr 0x00008000 align 2**12
         filesz 0x0000c240 memsz 0x0000c240 flags rwx

Sections:
Idx Name          Size      VMA       LMA       File off  Algn
  0 .init         00000004  00000000  00000000  00001000  2**1
                  CONTENTS, ALLOC, LOAD, READONLY, CODE
  1 .vector       000000bc  00000004  00000004  00001004  2**1
                  CONTENTS, ALLOC, LOAD, READONLY, CODE
  2 .text         00007004  000000c0  000000c0  000010c0  2**3
                  CONTENTS, ALLOC, LOAD, READONLY, CODE
  3 .ramcodelalign 00000000  00008000  00008000  00016240  2**0
                  CONTENTS
  4 .ramcode      0000c240  20020000  00008000  0000a000  2**4
                  CONTENTS, ALLOC, LOAD, CODE
  5 .fini         00000000  000070c4  000070c4  00016240  2**0
                  CONTENTS, ALLOC, LOAD, CODE
  6 .dalign       00000000  20000000  20000000  00016240  2**0
                  CONTENTS
  7 .dlalign      00000000  000070c4  000070c4  00016240  2**0
                  CONTENTS
  8 .data         000000a0  20000000  000070c4  00009000  2**2
                  CONTENTS, ALLOC, LOAD, DATA
  9 .bss          00000e24  200000a0  00007164  000090a0  2**2
                  ALLOC
 10 .heap         00000000  20000ec4  20000ec4  00016240  2**0
                  CONTENTS
 11 .usrstack     00000000  20004000  20004000  00016240  2**0
                  CONTENTS
 12 .debug_info   000088a8  00000000  00000000  00016240  2**0
                  CONTENTS, READONLY, DEBUGGING
 13 .debug_abbrev 000018e9  00000000  00000000  0001eae8  2**0
                  CONTENTS, READONLY, DEBUGGING
 14 .debug_loc    00001085  00000000  00000000  000203d1  2**0
                  CONTENTS, READONLY, DEBUGGING
 15 .debug_aranges 000002a0  00000000  00000000  00021456  2**0
                  CONTENTS, READONLY, DEBUGGING
 16 .debug_ranges 00000298  00000000  00000000  000216f6  2**0
                  CONTENTS, READONLY, DEBUGGING
 17 .debug_line   00005368  00000000  00000000  0002198e  2**0
                  CONTENTS, READONLY, DEBUGGING
 18 .debug_str    00001b3d  00000000  00000000  00026cf6  2**0
                  CONTENTS, READONLY, DEBUGGING
 19 .comment      00000033  00000000  00000000  00028833  2**0
                  CONTENTS, READONLY
 20 .debug_frame  00000fc8  00000000  00000000  00028868  2**2
                  CONTENTS, READONLY, DEBUGGING
 21 .stab         00000084  00000000  00000000  00029830  2**2
                  CONTENTS, READONLY, DEBUGGING
 22 .stabstr      00000117  00000000  00000000  000298b4  2**0
                  CONTENTS, READONLY, DEBUGGING
SYMBOL TABLE:
00000000 l    d  .init	00000000 .init
00000004 l    d  .vector	00000000 .vector
000000c0 l    d  .text	00000000 .text
00008000 l    d  .ramcodelalign	00000000 .ramcodelalign
20020000 l    d  .ramcode	00000000 .ramcode
000070c4 l    d  .fini	00000000 .fini
20000000 l    d  .dalign	00000000 .dalign
000070c4 l    d  .dlalign	00000000 .dlalign
20000000 l    d  .data	00000000 .data
200000a0 l    d  .bss	00000000 .bss
20000ec4 l    d  .heap	00000000 .heap
20004000 l    d  .usrstack	00000000 .usrstack
00000000 l    d  .debug_info	00000000 .debug_info
00000000 l    d  .debug_abbrev	00000000 .debug_abbrev
00000000 l    d  .debug_loc	00000000 .debug_loc
00000000 l    d  .debug_aranges	00000000 .debug_aranges
00000000 l    d  .debug_ranges	00000000 .debug_ranges
00000000 l    d  .debug_line	00000000 .debug_line
00000000 l    d  .debug_str	00000000 .debug_str
00000000 l    d  .comment	00000000 .comment
00000000 l    d  .debug_frame	00000000 .debug_frame
00000000 l    d  .stab	00000000 .stab
00000000 l    d  .stabstr	00000000 .stabstr
00000000 l    df *ABS*	00000000 ./SRC/Startup/startup_CH56x.o
00000004 l       .vector	00000000 _vector_base
00000000 l    df *ABS*	00000000 tcp.c
200000e0 l     O .bss	00000001 tcp_timer
20000078 l     O .data	00000004 iss.3741
00000000 l    df *ABS*	00000000 tcp_in.c
0000166c l     F .text	000000d4 tcp_parseopt
00001740 l     F .text	00000112 tcp_oos_insert_segment
00001852 l     F .text	0000112e tcp_receive
20000130 l     O .bss	00000014 inseg
200000e4 l     O .bss	00000004 ackno
200000e8 l     O .bss	00000001 flags
200000ec l     O .bss	00000004 iphdr
200000f0 l     O .bss	00000004 recv_data
200000f4 l     O .bss	00000001 recv_flags
200000f8 l     O .bss	00000004 seqno
200000fc l     O .bss	00000004 tcphdr
20000100 l     O .bss	00000002 tcplen
00000000 l    df *ABS*	00000000 tcp_out.c
00003e84 l     F .text	000001a8 tcp_output_set_header.constprop.0
00000000 l    df *ABS*	00000000 ip.c
200000c8 l     O .bss	00000002 ip_id.3576
00000000 l    df *ABS*	00000000 mem.c
200000d0 l     O .bss	00000004 ram
200000d4 l     O .bss	00000004 ram_end
00000000 l    df *ABS*	00000000 memp.c
20000110 l     O .bss	00000020 memp_tab
00000000 l    df *ABS*	00000000 udp.c
00000000 l    df *ABS*	00000000 pbuf.c
00000000 l    df *ABS*	00000000 ip_addr.c
00000000 l    df *ABS*	00000000 PHY_interrupt.c
00000000 l    df *ABS*	00000000 ethernet_driver.c
00000000 l    df *ABS*	00000000 timer.c
00000000 l    df *ABS*	00000000 Main.c
00000000 l    df *ABS*	00000000 CH56x_clk.c
00000000 l    df *ABS*	00000000 CH56x_gpio.c
00000000 l    df *ABS*	00000000 CH56x_sys.c
200000a0 l     O .bss	00000002 p_ms
200000a2 l     O .bss	00000001 p_us
00000000 l    df *ABS*	00000000 ch569sock.c
00000000 l    df *ABS*	00000000 etharp.c
20021f8e l     F .ramcode	0000025c find_entry
200221ea l     F .ramcode	000000f2 update_arp_entry
200000a8 l     O .bss	00000001 etharp_cached_entry
00000000 l    df *ABS*	00000000 ethernetif.c
200229ec l     F .ramcode	00000092 low_level_output
00000000 l    df *ABS*	00000000 ipcheck.c
00000000 l    df *ABS*	00000000 inet.c
00000000 l    df *ABS*	00000000 init.c
00000000 l    df *ABS*	00000000 ip_frag.c
200000ca l     O .bss	00000002 ip_reass_pbufcount
200000cc l     O .bss	00000004 reassdatagrams
00000000 l    df *ABS*	00000000 netif.c
200000d8 l     O .bss	00000001 netifnum.2254
00000000 l    df *ABS*	00000000 raw.c
200000dc l     O .bss	00000004 raw_pcbs
00000000 l    df *ABS*	00000000 icmp.c
20023b50 l     F .ramcode	000000c6 icmp_send_response
00000000 l    df *ABS*	00000000 inet_chksum.c
20023f78 l     F .ramcode	00000084 lwip_standard_chksum
00000000 l    df *ABS*	00000000 memcpy.c
00000000 l    df *ABS*	00000000 printf.c
00000000 l    df *ABS*	00000000 putchar.c
00000000 l    df *ABS*	00000000 puts.c
00000000 l    df *ABS*	00000000 wbuf.c
00000000 l    df *ABS*	00000000 wsetup.c
00000000 l    df *ABS*	00000000 fflush.c
00000000 l    df *ABS*	00000000 findfp.c
20024766 l     F .ramcode	0000006a std
00000000 l    df *ABS*	00000000 fwalk.c
00000000 l    df *ABS*	00000000 makebuf.c
00000000 l    df *ABS*	00000000 nano-mallocr.c
00000000 l    df *ABS*	00000000 nano-mallocr.c
00000000 l    df *ABS*	00000000 nano-vfprintf.c
20024c2a l     F .ramcode	0000002a __sfputc_r
00000000 l    df *ABS*	00000000 nano-vfprintf_i.c
00000000 l    df *ABS*	00000000 putc.c
00000000 l    df *ABS*	00000000 sbrkr.c
00000000 l    df *ABS*	00000000 stdio.c
00000000 l    df *ABS*	00000000 writer.c
00000000 l    df *ABS*	00000000 closer.c
00000000 l    df *ABS*	00000000 fstatr.c
00000000 l    df *ABS*	00000000 isattyr.c
00000000 l    df *ABS*	00000000 lseekr.c
00000000 l    df *ABS*	00000000 memchr.c
00000000 l    df *ABS*	00000000 mlock.c
00000000 l    df *ABS*	00000000 readr.c
00000000 l    df *ABS*	00000000 close.c
00000000 l    df *ABS*	00000000 fstat.c
00000000 l    df *ABS*	00000000 isatty.c
00000000 l    df *ABS*	00000000 lseek.c
00000000 l    df *ABS*	00000000 read.c
00000000 l    df *ABS*	00000000 sbrk.c
2000010c l     O .bss	00000004 heap_end.1518
00000000 l    df *ABS*	00000000 mem_malloc.c
00000000 l    df *ABS*	00000000 impure.c
20000000 l     O .data	00000060 impure_data
00000000 l    df *ABS*	00000000 reent.c
00006f6c g     F .text	00000028 GPIO_IRQHandler
200242de g     F .ramcode	0000002e putchar
20024126 g     F .ramcode	00000014 inet_chksum
20022ffc g     F .ramcode	00000574 ip_reass
00006ba2 g     F .text	000000f6 pbuf_realloc
200254ec g     F .ramcode	00000030 _isatty_r
00001396 g     F .text	0000001a tcp_next_iss
2002430c g     F .ramcode	000000da _puts_r
00000500 g     F .text	000000a6 tcp_update_rcv_ann_wnd
2002551c g     F .ramcode	00000034 _lseek_r
20000e98 g     O .bss	00000004 netif_list
000000dc  w      .text	00000000 EMMC_IRQHandler
20020d20 g     F .ramcode	00000006 Net_TimerIsr
00004e1e g     F .text	00000164 tcp_rst
000000d2  w      .text	00000000 LINK_IRQHandler
20021cd4 g     F .ramcode	00000026 CH569NET_MainTask
200000c4 g     O .bss	00000004 TCPTimer
2002255a g     F .ramcode	0000012e etharp_request
20000dbc g     O .bss	00000001 PingEnable
2002429a g     F .ramcode	00000044 printf
20020008 g     F .ramcode	00000028 .hidden __riscv_save_8
20023ffc g     F .ramcode	0000012a inet_chksum_pseudo
200204b2 g     F .ramcode	000000e0 ETH_StructInit
20025418 g     F .ramcode	00000036 __sseek
20024820 g     F .ramcode	0000006c __sinit
00004660 g     F .text	0000001e tcp_send_ctrl
200243f4 g     F .ramcode	000000c0 __swbuf_r
0000707c g     F .text	00000048 HardFault_Handler
0000576c g     F .text	000001f4 ip_output_if
20021978 g     F .ramcode	00000026 CH569NET_SocketRecvLen
200247da g     F .ramcode	00000046 __sfmoreglue
20020108 g     F .ramcode	000000bc phy_int_cheak_init
00005e08 g     F .text	00000018 memp_free
2002556c g     F .ramcode	00000002 __malloc_unlock
000068ae g     F .text	0000008e pbuf_free
20020054 g     F .ramcode	0000000c .hidden __riscv_restore_3
200207e0 g     F .ramcode	000002e4 ETH_Init
000000c4  w      .text	00000000 SysTick_Handler
00006ce4 g     F .text	0000006e pbuf_cat
20000dc0 g     O .bss	00000014 CH569Cfg
20021c6e g     F .ramcode	0000002c CH569NET_GetSocketInt
00005960 g     F .text	0000003c ip_output
20020040 g     F .ramcode	00000020 .hidden __riscv_restore_10
00006302 g     F .text	00000054 udp_sendto
000000c0  w      .text	00000000 NMI_Handler
20020e0a g     F .ramcode	000000bc CH569NET_HandleSockInt
000051b8 g     F .text	00000068 tcp_keepalive
200222dc g     F .ramcode	00000080 etharp_tmr
20020008 g     F .ramcode	00000028 .hidden __riscv_save_11
000013b0 g     F .text	00000284 tcp_alloc
000000e4  w      .text	00000000 UART1_IRQHandler
20022a7e g     F .ramcode	00000038 low_level_init
20025cd0 g     O .ramcode	00000010 MemSize
00006356 g     F .text	000002d8 udp_sendto_if
000000da  w      .text	00000000 USBHS_IRQHandler
200223b4 g     F .ramcode	000001a6 etharp_arp_input
20000ea0 g     O .bss	00000004 tcp_active_pcbs
200254ba g     F .ramcode	00000032 _fstat_r
20000ebc g     O .bss	00000004 udp_pcbs
20000ec0 g     O .bss	00000004 errno
20022968 g     F .ramcode	00000084 ethernet_input
200000a0 g       .bss	00000000 _sbss
00000800 g       *ABS*	00000000 __stack_size
00006cc4 g     F .text	00000020 pbuf_ref
0000106c g     F .text	00000040 tcp_recv_null
20000e8c g     O .bss	00000004 current_netif
00000ef0 g     F .text	0000017c tcp_close
20000860 g       .data	00000000 _global_pointer$
20000e80 g     O .bss	0000000c SelARP
000005a6 g     F .text	0000006c tcp_recved
20020054 g     F .ramcode	0000000c .hidden __riscv_restore_2
0000069c g     F .text	00000102 tcp_pcb_purge
000000d8  w      .text	00000000 UART0_IRQHandler
20000090 g     O .data	00000007 tcp_persist_backoff
20000e94 g     O .bss	00000004 lfree
2002170c g     F .ramcode	00000016 CH569NET_ConfigKeepLive
200241e4 g     F .ramcode	000000b6 memcpy
000059f0 g     F .text	000000fa mem_free
20000ea4 g     O .bss	00000004 tcp_ticks
2002068c g     F .ramcode	00000050 ETH_buf_init
20000ea8 g     O .bss	00000004 tcp_listen_pcbs
00004f82 g     F .text	000000a0 tcp_rexmit_rto
200247d0 g     F .ramcode	0000000a _cleanup_r
00006f1a g     F .text	00000052 ip_addr_isbroadcast
20000cc4 g     O .bss	00000004 DMARxDescToGet
20022dba g     F .ramcode	0000005c IPCheckTmr
200243e6 g     F .ramcode	0000000e puts
20000dd4 g     O .bss	00000018 DHCPCtrl
20023b42 g     F .ramcode	0000000e raw_send
2002413a g     F .ramcode	000000aa inet_chksum_pbuf
000000c6  w      .text	00000000 SWI_Handler
200255b2 g     F .ramcode	00000010 _fstat
20023c16 g     F .ramcode	0000033e icmp_input
00000004 g       .init	00000000 _einit
200215b2 g     F .ramcode	0000015a CH569NET_Init
200239a2 g     F .ramcode	00000066 netif_add
20020000 g     F .ramcode	00000030 .hidden __riscv_save_12
00000644 g     F .text	00000024 tcp_segs_free
00007028 g     F .text	0000002a PMT_IRQHandler
20023804 g     F .ramcode	00000142 netif_set_ipaddr
20020040 g     F .ramcode	00000020 .hidden __riscv_restore_11
000000e2  w      .text	00000000 SPI1_IRQHandler
2002536a g     F .ramcode	00000030 _sbrk_r
0000467e g     F .text	00000050 tcp_write
20020030 g     F .ramcode	0000000c .hidden __riscv_save_1
00007052 g     F .text	0000002a TMR0_IRQHandler
20020054 g     F .ramcode	0000000c .hidden __riscv_restore_0
2002556e g     F .ramcode	00000034 _read_r
20020016 g     F .ramcode	0000001a .hidden __riscv_save_7
20020d78 g     F .ramcode	00000026 net_initkeeplive
2002117c g     F .ramcode	00000330 GPIOB_ITModeCfg
20023f66 g     F .ramcode	00000012 icmp_time_exceeded
20023570 g     F .ramcode	00000294 ip_frag
200214d6 g     F .ramcode	0000002c mDelaymS
000000f0  w      .text	00000000 ECDC_IRQHandler
2002030a g     F .ramcode	0000002a ETH_GPIO_Init
20023aa8 g     F .ramcode	0000009a raw_sendto
200255c2 g     F .ramcode	00000010 _isatty
20020bd6 g     F .ramcode	0000002a ETH_init
20000098 g     O .data	00000004 _global_impure_ptr
2002004a g     F .ramcode	00000016 .hidden __riscv_restore_5
20000158 g     O .bss	00000001 SocketId
20020000 g       .ramcode	00000000 _ramcode_vma
200255f2 g     F .ramcode	00000030 _sbrk
00006d6a g     F .text	000001b0 pbuf_copy
00005022 g     F .text	000000da tcp_rexmit
20000cc8 g     O .bss	00000004 DMATxDescToSet
20020ac4 g     F .ramcode	000000b2 ETH_MACDMA_Config
2002004a g     F .ramcode	00000016 .hidden __riscv_restore_6
20000eac g     O .bss	00000004 tcp_tmp_pcb
20000ec4 g       .bss	00000000 _ebss
2000015c g     O .bss	000005b4 MyBuf
200283c0 g     O .ramcode	0000120c Mem_Heap_Memory
200000b4 g     O .bss	00000004 DHCPcoarseTimer
20000dec g     O .bss	00000001 SocketNum
20020334 g     F .ramcode	00000032 RGMII_TXC_Delay
200214ac g     F .ramcode	0000002a Delay_Init
0000599c g     F .text	00000054 mem_init
000000de  w      .text	00000000 DVP_IRQHandler
200206dc g     F .ramcode	00000040 Check_TxDes
00004748 g     F .text	000006d6 tcp_output
000000d0  w      .text	00000000 USBSS_IRQHandler
200252e4 g     F .ramcode	00000086 _putc_r
20020392 g     F .ramcode	00000030 ETH_uClock_enable
20000eb8 g     O .bss	00000004 tcp_input_pcb
20023a1a g     F .ramcode	0000008e raw_input
000046ce g     F .text	0000007a tcp_send_empty_ack
20020008 g     F .ramcode	00000028 .hidden __riscv_save_9
000050fc g     F .text	000000bc tcp_rexmit_fast
20000e4c g     O .bss	00000034 CH569NetIf
200295cc g     O .ramcode	00002c73 Memp_Memory
20022e90 g     F .ramcode	0000000a ntohl
20000144 g     O .bss	0000000c globe_eth_status
2002071c g     F .ramcode	0000000e ETH_SoftwareReset
20025e20 g     O .ramcode	00000020 __sf_fake_stderr
20020016 g     F .ramcode	0000001a .hidden __riscv_save_4
20023a08 g     F .ramcode	0000000a netif_set_default
2002078c g     F .ramcode	00000054 ETH_WritePHYRegister
20000ec4 g       .bss	00000000 end
20000150 g     O .bss	00000008 Globe_RxDes_status
000000e6  w      .text	00000000 UART2_IRQHandler
20020f36 g     F .ramcode	00000028 register_if_fn
00008000 g       .ramcodelalign	00000000 _ramcode_lma
20022e16 g     F .ramcode	0000003a IPConflictHandle
0000693c g     F .text	00000266 pbuf_alloc
20022d92 g     F .ramcode	00000028 SelIPARPSend
20021c14 g     F .ramcode	00000048 CH569NET_QueryGlobalInt
20021548 g     F .ramcode	00000022 MemShortCopy
20020d9e g     F .ramcode	0000006c CH569NET_LibInit
20024c54 g     F .ramcode	00000042 __sfputs_r
20025550 g     F .ramcode	0000001a memchr
20022eb2 g     F .ramcode	0000014a ip_reass_tmr
20000074 g     O .data	00000004 memp_sizes
20024a92 g     F .ramcode	000000b0 _free_r
20020030 g     F .ramcode	0000000c .hidden __riscv_save_3
20000e90 g     O .bss	00000004 current_header
20025ce0 g     O .ramcode	00000010 ErrTable
20023946 g     F .ramcode	0000005c netif_set_addr
20020d26 g     F .ramcode	00000052 DebugInit
00000000 g       .init	00000000 _start
20020c00 g     F .ramcode	000000ec ETH_MACDMA_reConfig
200255d2 g     F .ramcode	00000010 _lseek
00005de8 g     F .text	00000020 memp_malloc
20021bac g     F .ramcode	00000068 CH569ScokedIntHandle
00005220 g     F .text	00000128 tcp_zero_window_probe
20020b76 g     F .ramcode	00000060 Mac_init
200000b0 g     O .bss	00000004 DHCPTestTimer
20000df0 g     O .bss	0000000c KeepLiveCfg
20020374 g     F .ramcode	0000001e ETH_Mem_Malloc
20000eb0 g     O .bss	00000004 tcp_bound_pcbs
20022e6c g     F .ramcode	00000024 htonl
00000612 g     F .text	00000032 tcp_seg_free
000000d6  w      .text	00000000 TMR2_IRQHandler
20021742 g     F .ramcode	00000004 CH569NET_GetVer
20021e9c g     F .ramcode	000000aa LwipRemoveTcpPcb
20022c66 g     F .ramcode	00000106 LwIPPeriodicHandle
200000a4 g     O .bss	00000004 CH569NETConfig
200203c2 g     F .ramcode	0000009a mac_send
2002072a g     F .ramcode	0000000a ETH_GetSoftwareResetStatus
2002548a g     F .ramcode	00000030 _close_r
00005c24 g     F .text	0000016a mem_malloc
20000000 g       .dalign	00000000 _data_vma
20000dfc g     O .bss	00000044 CH569Inf
200205d0 g     F .ramcode	00000054 ETH_DMARxDescChainInit
200244b4 g     F .ramcode	00000110 __swsetup_r
20020734 g     F .ramcode	00000058 ETH_ReadPHYRegister
2002488c g     F .ramcode	000000a2 __sfp
0000402c g     F .text	00000634 tcp_enqueue
00001634 g     F .text	00000038 tcp_eff_send_mss
20020008 g     F .ramcode	00000028 .hidden __riscv_save_10
20021e38 g     F .ramcode	00000064 CH569FileCorrectTCBPcb
2002539a g     F .ramcode	00000030 __sread
2002556a g     F .ramcode	00000002 __malloc_lock
2002004a g     F .ramcode	00000016 .hidden __riscv_restore_4
20020040 g     F .ramcode	00000020 .hidden __riscv_restore_8
20024700 g     F .ramcode	00000066 _fflush_r
20020016 g     F .ramcode	0000001a .hidden __riscv_save_6
20025e40 g     O .ramcode	00000020 __sf_fake_stdin
20020060 g     F .ramcode	000000a8 memset
20020040 g     F .ramcode	00000020 .hidden __riscv_restore_9
2002004a g     F .ramcode	00000016 .hidden __riscv_restore_7
20020f5e g     F .ramcode	00000124 main
200000c0 g     O .bss	00000004 LocalTime
20023f54 g     F .ramcode	00000012 icmp_dest_unreach
20020366 g     F .ramcode	0000000e Get_TxBuff_Addr
20023a12 g     F .ramcode	00000008 netif_is_up
2002544e g     F .ramcode	00000006 __sclose
2002156a g     F .ramcode	00000048 CH569SocketInit
20022e5e g     F .ramcode	0000000e ntohs
20024b42 g     F .ramcode	000000e8 _malloc_r
200000bc g     O .bss	00000004 IPFragTimer
20022ae4 g     F .ramcode	000000e0 ethernetif_input
2002045c g     F .ramcode	00000056 mac_rece
200201c4 g     F .ramcode	00000146 cheak_phy_int
20021ab2 g     F .ramcode	000000fa SocketUdpSend
0000662e g     F .text	00000198 udp_bind
0000119e g     F .text	00000030 tcp_tmr
20022688 g     F .ramcode	0000015a etharp_query
20022e9a g     F .ramcode	00000018 lwip_init
200227e2 g     F .ramcode	00000186 etharp_output
20021082 g     F .ramcode	000000fa SystemInit
2002429a g     F .ramcode	00000044 iprintf
20021cfa g     F .ramcode	000000ee SocketTcpSend
20021f7a g     F .ramcode	00000014 frame_input
00006c98 g     F .text	0000002c pbuf_clen
00000000 g       .init	00000000 _sinit
20025454 g     F .ramcode	00000036 _write_r
2002152a g     F .ramcode	0000001e ErrorEncode
000062c8 g     F .text	0000003a udp_send
20025cc0 g     O .ramcode	00000010 MemNum
00006f94 g     F .text	00000094 ETH_IRQHandler
20024f34 g     F .ramcode	0000010c _printf_common
2000007c g     O .data	00000004 _impure_ptr
20021722 g     F .ramcode	00000020 CH569NET_ConfigLIB
0000079e g     F .text	000005de tcp_slowtmr
20021c5c g     F .ramcode	00000012 CH569NET_GetGlobalInt
200245c4 g     F .ramcode	0000013c __sflush_r
20000060 g     O .data	00000004 CH569IPAddr
20022ab6 g     F .ramcode	0000002e ethernetif_init
20004000 g       .usrstack	00000000 _eusrstack
20020030 g     F .ramcode	0000000c .hidden __riscv_save_2
20021de8 g     F .ramcode	00000050 CH569NET_SocketSend
20021756 g     F .ramcode	00000040 tcp_recved_socket
20022d6c g     F .ramcode	00000026 IPCheckParaInit
2002c240 g       .ramcode	00000000 _eramcode
2002499a g     F .ramcode	0000005a __swhatbuf_r
20000eb4 g     O .bss	00000004 tcp_tw_pcbs
00005e20 g     F .text	000004a8 udp_input
20020016 g     F .ramcode	0000001a .hidden __riscv_save_5
200000b8 g     O .bss	00000004 DHCPfineTimer
20021502 g     F .ramcode	00000028 _write
200000a0 g       .data	00000000 _edata
000000ce  w      .text	00000000 SPI0_IRQHandler
20022e50 g     F .ramcode	0000000e htons
00005348 g     F .text	0000006e ip_route
000070c4 g       .dlalign	00000000 _data_lma
000067c6 g     F .text	000000e8 pbuf_header
00005aea g     F .text	0000013a mem_realloc
20000e9c g     O .bss	00000004 netif_default
00000dd6 g     F .text	0000011a tcp_pcb_remove
20000068 g     O .data	00000004 SubMaskIp
200253ca g     F .ramcode	0000004e __swrite
20021c9a g     F .ramcode	0000003a CH569IPSetSocketRecvInit
00006d52 g     F .text	00000018 pbuf_chain
200282c0 g     O .ramcode	00000100 Mem_ArpTable
20025ec0 g     O .ramcode	00002400 MAC_QUEUE
200000ac g     O .bss	00000004 ARPTimer
000011ce g     F .text	000001c8 tcp_abandon
20024c96 g     F .ramcode	0000029e _vfiprintf_r
2000006c g     O .data	00000006 local_mac
20020592 g     F .ramcode	0000003e ETH_MACAddressConfig
2002492e g     F .ramcode	0000006c _fwalk_reent
20000ccc g     O .bss	000000f0 SocketInf
00005d8e g     F .text	0000005a memp_init
000010ac g     F .text	000000f2 tcp_fasttmr
2002199e g     F .ramcode	00000114 SocketIPRawSend
20020cec g     F .ramcode	00000034 TMR0_init
20025e60 g     O .ramcode	00000020 __sf_fake_stdout
2002235c g     F .ramcode	00000058 etharp_ip_input
20021746 g     F .ramcode	00000010 CH569NET_TimeIsr
2002003c g     F .ramcode	00000024 .hidden __riscv_restore_12
000000c8  w      .text	00000000 WDOG_IRQHandler
20020ec6 g     F .ramcode	00000070 CH569NET_HandleGlobalInt
000000e0  w      .text	00000000 HSPI_IRQHandler
20000e40 g     O .bss	0000000c ethernet_if
200255e2 g     F .ramcode	00000010 _read
000000f2  w      .text	00000000 handle_reset
20000710 g     O .bss	000005b4 SocketRecvBuf
20020030 g     F .ramcode	0000000c .hidden __riscv_save_0
20021f46 g     F .ramcode	0000000a QueryPingEnable
00000668 g     F .text	00000034 tcp_seg_copy
200249f4 g     F .ramcode	0000009e __smakebuf_r
20022bc4 g     F .ramcode	000000a2 SetupNetif
20025040 g     F .ramcode	000002a4 _printf_i
000000e8  w      .text	00000000 UART3_IRQHandler
20000108 g     O .bss	00000004 __malloc_sbrk_start
20000064 g     O .data	00000004 GatewayIp
20000080 g     O .data	00000006 ethbroadcast
20025d74 g     O .ramcode	00000014 tcp_backoff
20000104 g     O .bss	00000004 __malloc_free_list
20020054 g     F .ramcode	0000000c .hidden __riscv_restore_1
20024c96 g     F .ramcode	0000029e _vfprintf_r
000000d4  w      .text	00000000 TMR1_IRQHandler
20021f6e g     F .ramcode	0000000c LwipArpCheck
000000ea  w      .text	00000000 SERDES_IRQHandler
00002980 g     F .text	00001504 tcp_input
20021796 g     F .ramcode	000001e2 CH569NET_SocketRecv
00000d7c g     F .text	0000005a RemoveTimeWaiTCP
000053b6 g     F .text	000003b6 ip_input
20000088 g     O .data	00000006 ethzero
200255a2 g     F .ramcode	00000010 _close
20021f50 g     F .ramcode	0000001e LwipUnreachPort
20020624 g     F .ramcode	00000068 ETH_DMATxDescChainInit



Disassembly of section .init:

00000000 <_sinit>:
   0:	0f20006f          	j	f2 <handle_reset>

Disassembly of section .vector:

00000004 <_vector_base>:
	...
   c:	0b40006f          	j	c0 <NMI_Handler>
  10:	06c0706f          	j	707c <HardFault_Handler>
	...
  34:	0900006f          	j	c4 <SysTick_Handler>
  38:	0000                	unimp
  3a:	0000                	unimp
  3c:	08a0006f          	j	c6 <SWI_Handler>
  40:	0000                	unimp
  42:	0000                	unimp
  44:	0840006f          	j	c8 <WDOG_IRQHandler>
  48:	00a0706f          	j	7052 <TMR0_IRQHandler>
  4c:	7210606f          	j	6f6c <GPIO_IRQHandler>
  50:	07e0006f          	j	ce <SPI0_IRQHandler>
  54:	07c0006f          	j	d0 <USBSS_IRQHandler>
  58:	07a0006f          	j	d2 <LINK_IRQHandler>
  5c:	0780006f          	j	d4 <TMR1_IRQHandler>
  60:	0760006f          	j	d6 <TMR2_IRQHandler>
  64:	0740006f          	j	d8 <UART0_IRQHandler>
  68:	0720006f          	j	da <USBHS_IRQHandler>
  6c:	0700006f          	j	dc <EMMC_IRQHandler>
  70:	06e0006f          	j	de <DVP_IRQHandler>
  74:	06c0006f          	j	e0 <HSPI_IRQHandler>
  78:	06a0006f          	j	e2 <SPI1_IRQHandler>
  7c:	0680006f          	j	e4 <UART1_IRQHandler>
  80:	0660006f          	j	e6 <UART2_IRQHandler>
  84:	0640006f          	j	e8 <UART3_IRQHandler>
  88:	0620006f          	j	ea <SERDES_IRQHandler>
  8c:	7090606f          	j	6f94 <ETH_IRQHandler>
  90:	7990606f          	j	7028 <PMT_IRQHandler>
  94:	05c0006f          	j	f0 <ECDC_IRQHandler>
	...

Disassembly of section .text:

000000c0 <NMI_Handler>:
      c0:	a001                	j	c0 <NMI_Handler>
      c2:	a001                	j	c2 <NMI_Handler+0x2>

000000c4 <SysTick_Handler>:
      c4:	a001                	j	c4 <SysTick_Handler>

000000c6 <SWI_Handler>:
      c6:	a001                	j	c6 <SWI_Handler>

000000c8 <WDOG_IRQHandler>:
      c8:	a001                	j	c8 <WDOG_IRQHandler>
      ca:	a001                	j	ca <WDOG_IRQHandler+0x2>
      cc:	a001                	j	cc <WDOG_IRQHandler+0x4>

000000ce <SPI0_IRQHandler>:
      ce:	a001                	j	ce <SPI0_IRQHandler>

000000d0 <USBSS_IRQHandler>:
      d0:	a001                	j	d0 <USBSS_IRQHandler>

000000d2 <LINK_IRQHandler>:
      d2:	a001                	j	d2 <LINK_IRQHandler>

000000d4 <TMR1_IRQHandler>:
      d4:	a001                	j	d4 <TMR1_IRQHandler>

000000d6 <TMR2_IRQHandler>:
      d6:	a001                	j	d6 <TMR2_IRQHandler>

000000d8 <UART0_IRQHandler>:
      d8:	a001                	j	d8 <UART0_IRQHandler>

000000da <USBHS_IRQHandler>:
      da:	a001                	j	da <USBHS_IRQHandler>

000000dc <EMMC_IRQHandler>:
      dc:	a001                	j	dc <EMMC_IRQHandler>

000000de <DVP_IRQHandler>:
      de:	a001                	j	de <DVP_IRQHandler>

000000e0 <HSPI_IRQHandler>:
      e0:	a001                	j	e0 <HSPI_IRQHandler>

000000e2 <SPI1_IRQHandler>:
      e2:	a001                	j	e2 <SPI1_IRQHandler>

000000e4 <UART1_IRQHandler>:
      e4:	a001                	j	e4 <UART1_IRQHandler>

000000e6 <UART2_IRQHandler>:
      e6:	a001                	j	e6 <UART2_IRQHandler>

000000e8 <UART3_IRQHandler>:
      e8:	a001                	j	e8 <UART3_IRQHandler>

000000ea <SERDES_IRQHandler>:
      ea:	a001                	j	ea <SERDES_IRQHandler>
      ec:	a001                	j	ec <SERDES_IRQHandler+0x2>
      ee:	a001                	j	ee <SERDES_IRQHandler+0x4>

000000f0 <ECDC_IRQHandler>:
      f0:	a001                	j	f0 <ECDC_IRQHandler>

000000f2 <handle_reset>:
      f2:	20000197          	auipc	gp,0x20000
      f6:	76e18193          	addi	gp,gp,1902 # 20000860 <_global_pointer$>
      fa:	20004117          	auipc	sp,0x20004
      fe:	f0610113          	addi	sp,sp,-250 # 20004000 <_eusrstack>
     102:	00008517          	auipc	a0,0x8
     106:	efe50513          	addi	a0,a0,-258 # 8000 <_ramcode_lma>
     10a:	20020597          	auipc	a1,0x20020
     10e:	ef658593          	addi	a1,a1,-266 # 20020000 <__riscv_save_12>
     112:	2002c617          	auipc	a2,0x2002c
     116:	12e60613          	addi	a2,a2,302 # 2002c240 <_eramcode>
     11a:	00c5fa63          	bgeu	a1,a2,12e <handle_reset+0x3c>
     11e:	00052283          	lw	t0,0(a0)
     122:	0055a023          	sw	t0,0(a1)
     126:	0511                	addi	a0,a0,4
     128:	0591                	addi	a1,a1,4
     12a:	fec5eae3          	bltu	a1,a2,11e <handle_reset+0x2c>
     12e:	00007517          	auipc	a0,0x7
     132:	f9650513          	addi	a0,a0,-106 # 70c4 <_data_lma>
     136:	20000597          	auipc	a1,0x20000
     13a:	eca58593          	addi	a1,a1,-310 # 20000000 <_data_vma>
     13e:	20000617          	auipc	a2,0x20000
     142:	f6260613          	addi	a2,a2,-158 # 200000a0 <_edata>
     146:	00c5fa63          	bgeu	a1,a2,15a <handle_reset+0x68>
     14a:	00052283          	lw	t0,0(a0)
     14e:	0055a023          	sw	t0,0(a1)
     152:	0511                	addi	a0,a0,4
     154:	0591                	addi	a1,a1,4
     156:	fec5eae3          	bltu	a1,a2,14a <handle_reset+0x58>
     15a:	20000517          	auipc	a0,0x20000
     15e:	f4650513          	addi	a0,a0,-186 # 200000a0 <_edata>
     162:	20001597          	auipc	a1,0x20001
     166:	d6258593          	addi	a1,a1,-670 # 20000ec4 <_ebss>
     16a:	00b57763          	bgeu	a0,a1,178 <handle_reset+0x86>
     16e:	00052023          	sw	zero,0(a0)
     172:	0511                	addi	a0,a0,4
     174:	feb56de3          	bltu	a0,a1,16e <handle_reset+0x7c>
     178:	08800293          	li	t0,136
     17c:	3002a073          	csrs	mstatus,t0
     180:	00000297          	auipc	t0,0x0
     184:	e8428293          	addi	t0,t0,-380 # 4 <_einit>
     188:	0012e293          	ori	t0,t0,1
     18c:	30529073          	csrw	mtvec,t0
     190:	20021297          	auipc	t0,0x20021
     194:	dce28293          	addi	t0,t0,-562 # 20020f5e <main>
     198:	34129073          	csrw	mepc,t0
     19c:	30200073          	mret
     1a0:	00000263          	beqz	zero,1a4 <handle_reset+0xb2>
     1a4:	00350003          	lb	zero,3(a0)
     1a8:	0000                	unimp
     1aa:	0101                	addi	sp,sp,0
     1ac:	000d0efb          	0xd0efb
     1b0:	0101                	addi	sp,sp,0
     1b2:	0101                	addi	sp,sp,0
     1b4:	0000                	unimp
     1b6:	0100                	addi	s0,sp,128
     1b8:	0000                	unimp
     1ba:	2e01                	jal	4ca <handle_reset+0x3d8>
     1bc:	2f2e                	fld	ft10,200(sp)
     1be:	2f435253          	0x2f435253
     1c2:	72617453          	0x72617453
     1c6:	7574                	flw	fa3,108(a0)
     1c8:	0070                	addi	a2,sp,12
     1ca:	7300                	flw	fs0,32(a4)
     1cc:	6174                	flw	fa3,68(a0)
     1ce:	7472                	flw	fs0,60(sp)
     1d0:	7075                	c.lui	zero,0xffffd
     1d2:	435f 3548 7836      	0x78363548435f
     1d8:	532e                	lw	t1,232(sp)
     1da:	0100                	addi	s0,sp,128
     1dc:	0000                	unimp
     1de:	0000                	unimp
     1e0:	0205                	addi	tp,tp,1
     1e2:	0000                	unimp
     1e4:	0000                	unimp
     1e6:	09010c03          	lb	s8,144(sp)
     1ea:	0004                	0x4
     1ec:	0100                	addi	s0,sp,128
     1ee:	0001                	nop
     1f0:	0205                	addi	tp,tp,1
     1f2:	000c                	0xc
     1f4:	0000                	unimp
     1f6:	03011403          	lh	s0,48(sp)
     1fa:	0901                	addi	s2,s2,0
     1fc:	0004                	0x4
     1fe:	0301                	addi	t1,t1,0
     200:	0909                	addi	s2,s2,2
     202:	0024                	addi	s1,sp,8
     204:	0301                	addi	t1,t1,0
     206:	0902                	c.slli64	s2
     208:	0008                	0x8
     20a:	0301                	addi	t1,t1,0
     20c:	00080903          	lb	s2,0(a6)
     210:	0301                	addi	t1,t1,0
     212:	0901                	addi	s2,s2,0
     214:	0004                	0x4
     216:	0301                	addi	t1,t1,0
     218:	0901                	addi	s2,s2,0
     21a:	0004                	0x4
     21c:	0301                	addi	t1,t1,0
     21e:	0901                	addi	s2,s2,0
     220:	0004                	0x4
     222:	0301                	addi	t1,t1,0
     224:	0901                	addi	s2,s2,0
     226:	0004                	0x4
     228:	0301                	addi	t1,t1,0
     22a:	0901                	addi	s2,s2,0
     22c:	0004                	0x4
     22e:	0301                	addi	t1,t1,0
     230:	0901                	addi	s2,s2,0
     232:	0004                	0x4
     234:	0301                	addi	t1,t1,0
     236:	0901                	addi	s2,s2,0
     238:	0004                	0x4
     23a:	0301                	addi	t1,t1,0
     23c:	0901                	addi	s2,s2,0
     23e:	0004                	0x4
     240:	0301                	addi	t1,t1,0
     242:	0901                	addi	s2,s2,0
     244:	0004                	0x4
     246:	0301                	addi	t1,t1,0
     248:	0901                	addi	s2,s2,0
     24a:	0004                	0x4
     24c:	0301                	addi	t1,t1,0
     24e:	0901                	addi	s2,s2,0
     250:	0004                	0x4
     252:	0301                	addi	t1,t1,0
     254:	0901                	addi	s2,s2,0
     256:	0004                	0x4
     258:	0301                	addi	t1,t1,0
     25a:	0901                	addi	s2,s2,0
     25c:	0004                	0x4
     25e:	0301                	addi	t1,t1,0
     260:	0901                	addi	s2,s2,0
     262:	0004                	0x4
     264:	0301                	addi	t1,t1,0
     266:	0901                	addi	s2,s2,0
     268:	0004                	0x4
     26a:	0301                	addi	t1,t1,0
     26c:	0901                	addi	s2,s2,0
     26e:	0004                	0x4
     270:	0301                	addi	t1,t1,0
     272:	0901                	addi	s2,s2,0
     274:	0004                	0x4
     276:	0301                	addi	t1,t1,0
     278:	0901                	addi	s2,s2,0
     27a:	0004                	0x4
     27c:	0301                	addi	t1,t1,0
     27e:	0901                	addi	s2,s2,0
     280:	0004                	0x4
     282:	0301                	addi	t1,t1,0
     284:	0901                	addi	s2,s2,0
     286:	0004                	0x4
     288:	0901                	addi	s2,s2,0
     28a:	0004                	0x4
     28c:	0100                	addi	s0,sp,128
     28e:	0001                	nop
     290:	0205                	addi	tp,tp,1
     292:	00c0                	addi	s0,sp,68
     294:	0000                	unimp
     296:	0100d603          	lhu	a2,16(ra)
     29a:	02090103          	lb	sp,32(s2)
     29e:	0100                	addi	s0,sp,128
     2a0:	02090103          	lb	sp,32(s2)
     2a4:	0100                	addi	s0,sp,128
     2a6:	02090103          	lb	sp,32(s2)
     2aa:	0100                	addi	s0,sp,128
     2ac:	02090103          	lb	sp,32(s2)
     2b0:	0100                	addi	s0,sp,128
     2b2:	02090103          	lb	sp,32(s2)
     2b6:	0100                	addi	s0,sp,128
     2b8:	02090103          	lb	sp,32(s2)
     2bc:	0100                	addi	s0,sp,128
     2be:	02090103          	lb	sp,32(s2)
     2c2:	0100                	addi	s0,sp,128
     2c4:	02090103          	lb	sp,32(s2)
     2c8:	0100                	addi	s0,sp,128
     2ca:	02090103          	lb	sp,32(s2)
     2ce:	0100                	addi	s0,sp,128
     2d0:	02090103          	lb	sp,32(s2)
     2d4:	0100                	addi	s0,sp,128
     2d6:	02090103          	lb	sp,32(s2)
     2da:	0100                	addi	s0,sp,128
     2dc:	02090103          	lb	sp,32(s2)
     2e0:	0100                	addi	s0,sp,128
     2e2:	02090103          	lb	sp,32(s2)
     2e6:	0100                	addi	s0,sp,128
     2e8:	02090103          	lb	sp,32(s2)
     2ec:	0100                	addi	s0,sp,128
     2ee:	02090103          	lb	sp,32(s2)
     2f2:	0100                	addi	s0,sp,128
     2f4:	02090103          	lb	sp,32(s2)
     2f8:	0100                	addi	s0,sp,128
     2fa:	02090103          	lb	sp,32(s2)
     2fe:	0100                	addi	s0,sp,128
     300:	02090103          	lb	sp,32(s2)
     304:	0100                	addi	s0,sp,128
     306:	02090103          	lb	sp,32(s2)
     30a:	0100                	addi	s0,sp,128
     30c:	02090103          	lb	sp,32(s2)
     310:	0100                	addi	s0,sp,128
     312:	02090103          	lb	sp,32(s2)
     316:	0100                	addi	s0,sp,128
     318:	02090103          	lb	sp,32(s2)
     31c:	0100                	addi	s0,sp,128
     31e:	02090103          	lb	sp,32(s2)
     322:	0100                	addi	s0,sp,128
     324:	02090103          	lb	sp,32(s2)
     328:	0100                	addi	s0,sp,128
     32a:	0209                	addi	tp,tp,2
     32c:	0000                	unimp
     32e:	0101                	addi	sp,sp,0
     330:	0500                	addi	s0,sp,640
     332:	f202                	fsw	ft0,36(sp)
     334:	0000                	unimp
     336:	0300                	addi	s0,sp,384
     338:	00f6                	slli	ra,ra,0x1d
     33a:	0301                	addi	t1,t1,0
     33c:	00080903          	lb	s2,0(a6)
     340:	0301                	addi	t1,t1,0
     342:	00080903          	lb	s2,0(a6)
     346:	0301                	addi	t1,t1,0
     348:	0901                	addi	s2,s2,0
     34a:	0008                	0x8
     34c:	0301                	addi	t1,t1,0
     34e:	0901                	addi	s2,s2,0
     350:	0008                	0x8
     352:	0301                	addi	t1,t1,0
     354:	0901                	addi	s2,s2,0
     356:	0008                	0x8
     358:	0301                	addi	t1,t1,0
     35a:	0902                	c.slli64	s2
     35c:	0004                	0x4
     35e:	0301                	addi	t1,t1,0
     360:	0901                	addi	s2,s2,0
     362:	0004                	0x4
     364:	0301                	addi	t1,t1,0
     366:	0901                	addi	s2,s2,0
     368:	0004                	0x4
     36a:	0301                	addi	t1,t1,0
     36c:	0901                	addi	s2,s2,0
     36e:	0002                	c.slli64	zero
     370:	0301                	addi	t1,t1,0
     372:	0901                	addi	s2,s2,0
     374:	0002                	c.slli64	zero
     376:	0301                	addi	t1,t1,0
     378:	0904                	addi	s1,sp,144
     37a:	0004                	0x4
     37c:	0301                	addi	t1,t1,0
     37e:	0901                	addi	s2,s2,0
     380:	0008                	0x8
     382:	0301                	addi	t1,t1,0
     384:	0901                	addi	s2,s2,0
     386:	0008                	0x8
     388:	0301                	addi	t1,t1,0
     38a:	0901                	addi	s2,s2,0
     38c:	0008                	0x8
     38e:	0301                	addi	t1,t1,0
     390:	0902                	c.slli64	s2
     392:	0004                	0x4
     394:	0301                	addi	t1,t1,0
     396:	0901                	addi	s2,s2,0
     398:	0004                	0x4
     39a:	0301                	addi	t1,t1,0
     39c:	0901                	addi	s2,s2,0
     39e:	0004                	0x4
     3a0:	0301                	addi	t1,t1,0
     3a2:	0901                	addi	s2,s2,0
     3a4:	0002                	c.slli64	zero
     3a6:	0301                	addi	t1,t1,0
     3a8:	0901                	addi	s2,s2,0
     3aa:	0002                	c.slli64	zero
     3ac:	0301                	addi	t1,t1,0
     3ae:	00040903          	lb	s2,0(s0)
     3b2:	0301                	addi	t1,t1,0
     3b4:	0901                	addi	s2,s2,0
     3b6:	0008                	0x8
     3b8:	0301                	addi	t1,t1,0
     3ba:	0901                	addi	s2,s2,0
     3bc:	0008                	0x8
     3be:	0301                	addi	t1,t1,0
     3c0:	0902                	c.slli64	s2
     3c2:	0004                	0x4
     3c4:	0301                	addi	t1,t1,0
     3c6:	0901                	addi	s2,s2,0
     3c8:	0004                	0x4
     3ca:	0301                	addi	t1,t1,0
     3cc:	0901                	addi	s2,s2,0
     3ce:	0002                	c.slli64	zero
     3d0:	0301                	addi	t1,t1,0
     3d2:	0904                	addi	s1,sp,144
     3d4:	0004                	0x4
     3d6:	0301                	addi	t1,t1,0
     3d8:	0901                	addi	s2,s2,0
     3da:	0004                	0x4
     3dc:	0301                	addi	t1,t1,0
     3de:	0901                	addi	s2,s2,0
     3e0:	0004                	0x4
     3e2:	0301                	addi	t1,t1,0
     3e4:	0901                	addi	s2,s2,0
     3e6:	0008                	0x8
     3e8:	0301                	addi	t1,t1,0
     3ea:	0901                	addi	s2,s2,0
     3ec:	0004                	0x4
     3ee:	0301                	addi	t1,t1,0
     3f0:	0901                	addi	s2,s2,0
     3f2:	0004                	0x4
     3f4:	0301                	addi	t1,t1,0
     3f6:	0901                	addi	s2,s2,0
     3f8:	0008                	0x8
     3fa:	0301                	addi	t1,t1,0
     3fc:	00040903          	lb	s2,0(s0)
     400:	0901                	addi	s2,s2,0
     402:	0004                	0x4
     404:	0100                	addi	s0,sp,128
     406:	1e01                	addi	t3,t3,-32
     408:	0000                	unimp
     40a:	0200                	addi	s0,sp,256
     40c:	2900                	fld	fs0,16(a0)
     40e:	0004                	0x4
     410:	0400                	addi	s0,sp,512
     412:	a001                	j	412 <handle_reset+0x320>
     414:	0001                	nop
     416:	d000                	sw	s0,32(s0)
     418:	0004                	0x4
     41a:	7800                	flw	fs0,48(s0)
     41c:	0004                	0x4
     41e:	9700                	0x9700
     420:	0004                	0x4
     422:	be00                	fsd	fs0,56(a2)
     424:	0004                	0x4
     426:	0100                	addi	s0,sp,128
     428:	0180                	addi	s0,sp,192
     42a:	0011                	c.nop	4
     42c:	0610                	addi	a2,sp,768
     42e:	0655                	addi	a2,a2,21
     430:	0e1b0e03          	lb	t3,225(s6)
     434:	0e25                	addi	t3,t3,9
     436:	00000513          	li	a0,0
     43a:	0000                	unimp
     43c:	0000                	unimp
     43e:	0000                	unimp
     440:	0034                	addi	a3,sp,8
     442:	0000                	unimp
     444:	0002                	c.slli64	zero
     446:	00000407          	0x407
     44a:	0004                	0x4
	...
     454:	0004                	0x4
     456:	0000                	unimp
     458:	0004                	0x4
     45a:	0000                	unimp
     45c:	0094                	addi	a3,sp,64
     45e:	0000                	unimp
     460:	00c0                	addi	s0,sp,68
     462:	0000                	unimp
     464:	0032                	c.slli	zero,0xc
     466:	0000                	unimp
     468:	00f2                	slli	ra,ra,0x1c
     46a:	0000                	unimp
     46c:	00ae                	slli	ra,ra,0xb
	...
     476:	0000                	unimp
     478:	2e2e                	fld	ft8,200(sp)
     47a:	4352532f          	0x4352532f
     47e:	6174532f          	0x6174532f
     482:	7472                	flw	fs0,60(sp)
     484:	7075                	c.lui	zero,0xffffd
     486:	6174732f          	0x6174732f
     48a:	7472                	flw	fs0,60(sp)
     48c:	7075                	c.lui	zero,0xffffd
     48e:	435f 3548 7836      	0x78363548435f
     494:	532e                	lw	t1,232(sp)
     496:	4500                	lw	s0,8(a0)
     498:	5c3a                	lw	s8,172(sp)
     49a:	cfc1cad7          	0xcfc1cad7
     49e:	435c                	lw	a5,4(a4)
     4a0:	3548                	fld	fa0,168(a0)
     4a2:	3936                	fld	fs2,360(sp)
     4a4:	435c                	lw	a5,4(a4)
     4a6:	3548                	fld	fa0,168(a0)
     4a8:	3936                	fld	fs2,360(sp)
     4aa:	f8cd                	bnez	s1,45c <handle_reset+0x36a>
     4ac:	e7c2                	fsw	fa6,204(sp)
     4ae:	fdc0                	fsw	fs0,60(a1)
     4b0:	495cccb3          	0x495cccb3
     4b4:	5f50                	lw	a2,60(a4)
     4b6:	4152                	lw	sp,20(sp)
     4b8:	626f5c57          	0x626f5c57
     4bc:	006a                	c.slli	zero,0x1a
     4be:	20554e47          	fmsub.s	ft8,fa0,ft5,ft4,rmm
     4c2:	5341                	li	t1,-16
     4c4:	3220                	fld	fs0,96(a2)
     4c6:	332e                	fld	ft6,232(sp)
     4c8:	0032                	c.slli	zero,0xc
     4ca:	0000                	unimp
     4cc:	0000                	unimp
     4ce:	0000                	unimp
     4d0:	ffff                	0xffff
     4d2:	ffff                	0xffff
	...
     4dc:	0004                	0x4
     4de:	0000                	unimp
     4e0:	0004                	0x4
     4e2:	0000                	unimp
     4e4:	0098                	addi	a4,sp,64
     4e6:	0000                	unimp
     4e8:	00c0                	addi	s0,sp,68
     4ea:	0000                	unimp
     4ec:	00f2                	slli	ra,ra,0x1c
     4ee:	0000                	unimp
     4f0:	00f2                	slli	ra,ra,0x1c
     4f2:	0000                	unimp
     4f4:	01a0                	addi	s0,sp,200
	...

00000500 <tcp_update_rcv_ann_wnd>:
     500:	02354583          	lbu	a1,35(a0)
     504:	02254703          	lbu	a4,34(a0)
     508:	02754603          	lbu	a2,39(a0)
     50c:	05a2                	slli	a1,a1,0x8
     50e:	8f4d                	or	a4,a4,a1
     510:	02454583          	lbu	a1,36(a0)
     514:	0622                	slli	a2,a2,0x8
     516:	02a54683          	lbu	a3,42(a0)
     51a:	05c2                	slli	a1,a1,0x10
     51c:	8dd9                	or	a1,a1,a4
     51e:	02554703          	lbu	a4,37(a0)
     522:	87aa                	mv	a5,a0
     524:	0377c803          	lbu	a6,55(a5)
     528:	0762                	slli	a4,a4,0x18
     52a:	8dd9                	or	a1,a1,a4
     52c:	02654703          	lbu	a4,38(a0)
     530:	0367c883          	lbu	a7,54(a5)
     534:	0822                	slli	a6,a6,0x8
     536:	8e59                	or	a2,a2,a4
     538:	02b54703          	lbu	a4,43(a0)
     53c:	01186833          	or	a6,a6,a7
     540:	0722                	slli	a4,a4,0x8
     542:	8ed9                	or	a3,a3,a4
     544:	02c54703          	lbu	a4,44(a0)
     548:	0742                	slli	a4,a4,0x10
     54a:	8f55                	or	a4,a4,a3
     54c:	02d54683          	lbu	a3,45(a0)
     550:	06e2                	slli	a3,a3,0x18
     552:	8f55                	or	a4,a4,a3
     554:	20001697          	auipc	a3,0x20001
     558:	86c68693          	addi	a3,a3,-1940 # 20000dc0 <CH569Cfg>
     55c:	42d4                	lw	a3,4(a3)
     55e:	40e60533          	sub	a0,a2,a4
     562:	952e                	add	a0,a0,a1
     564:	8285                	srli	a3,a3,0x1
     566:	00d87363          	bgeu	a6,a3,56c <tcp_update_rcv_ann_wnd+0x6c>
     56a:	86c2                	mv	a3,a6
     56c:	40d506b3          	sub	a3,a0,a3
     570:	0006c863          	bltz	a3,580 <tcp_update_rcv_ann_wnd+0x80>
     574:	02c78423          	sb	a2,40(a5)
     578:	8221                	srli	a2,a2,0x8
     57a:	02c784a3          	sb	a2,41(a5)
     57e:	8082                	ret
     580:	40e586b3          	sub	a3,a1,a4
     584:	00d05863          	blez	a3,594 <tcp_update_rcv_ann_wnd+0x94>
     588:	02078423          	sb	zero,40(a5)
     58c:	020784a3          	sb	zero,41(a5)
     590:	4501                	li	a0,0
     592:	8082                	ret
     594:	8f0d                	sub	a4,a4,a1
     596:	0742                	slli	a4,a4,0x10
     598:	8341                	srli	a4,a4,0x10
     59a:	02e78423          	sb	a4,40(a5)
     59e:	8321                	srli	a4,a4,0x8
     5a0:	02e784a3          	sb	a4,41(a5)
     5a4:	b7f5                	j	590 <tcp_update_rcv_ann_wnd+0x90>

000005a6 <tcp_recved>:
     5a6:	20020317          	auipc	t1,0x20020
     5aa:	a8a302e7          	jalr	t0,-1398(t1) # 20020030 <__riscv_save_0>
     5ae:	02754783          	lbu	a5,39(a0)
     5b2:	02654703          	lbu	a4,38(a0)
     5b6:	842a                	mv	s0,a0
     5b8:	07a2                	slli	a5,a5,0x8
     5ba:	8fd9                	or	a5,a5,a4
     5bc:	95be                	add	a1,a1,a5
     5be:	05c2                	slli	a1,a1,0x10
     5c0:	81c1                	srli	a1,a1,0x10
     5c2:	0085d793          	srli	a5,a1,0x8
     5c6:	20000717          	auipc	a4,0x20000
     5ca:	7fa70713          	addi	a4,a4,2042 # 20000dc0 <CH569Cfg>
     5ce:	02f503a3          	sb	a5,39(a0)
     5d2:	435c                	lw	a5,4(a4)
     5d4:	02b50323          	sb	a1,38(a0)
     5d8:	84ba                	mv	s1,a4
     5da:	00b7f963          	bgeu	a5,a1,5ec <tcp_recved+0x46>
     5de:	07c2                	slli	a5,a5,0x10
     5e0:	83c1                	srli	a5,a5,0x10
     5e2:	02f50323          	sb	a5,38(a0)
     5e6:	83a1                	srli	a5,a5,0x8
     5e8:	02f503a3          	sb	a5,39(a0)
     5ec:	8522                	mv	a0,s0
     5ee:	3f09                	jal	500 <tcp_update_rcv_ann_wnd>
     5f0:	40dc                	lw	a5,4(s1)
     5f2:	8389                	srli	a5,a5,0x2
     5f4:	00f56b63          	bltu	a0,a5,60a <tcp_recved+0x64>
     5f8:	02144783          	lbu	a5,33(s0)
     5fc:	8522                	mv	a0,s0
     5fe:	0027e793          	ori	a5,a5,2
     602:	02f400a3          	sb	a5,33(s0)
     606:	142040ef          	jal	ra,4748 <tcp_output>
     60a:	20020317          	auipc	t1,0x20020
     60e:	a4a30067          	jr	-1462(t1) # 20020054 <__riscv_restore_0>

00000612 <tcp_seg_free>:
     612:	20020317          	auipc	t1,0x20020
     616:	a1e302e7          	jalr	t0,-1506(t1) # 20020030 <__riscv_save_0>
     61a:	1141                	addi	sp,sp,-16
     61c:	4401                	li	s0,0
     61e:	cd09                	beqz	a0,638 <tcp_seg_free+0x26>
     620:	85aa                	mv	a1,a0
     622:	4148                	lw	a0,4(a0)
     624:	4401                	li	s0,0
     626:	c511                	beqz	a0,632 <tcp_seg_free+0x20>
     628:	c62e                	sw	a1,12(sp)
     62a:	284060ef          	jal	ra,68ae <pbuf_free>
     62e:	45b2                	lw	a1,12(sp)
     630:	842a                	mv	s0,a0
     632:	4511                	li	a0,4
     634:	7d4050ef          	jal	ra,5e08 <memp_free>
     638:	8522                	mv	a0,s0
     63a:	0141                	addi	sp,sp,16
     63c:	20020317          	auipc	t1,0x20020
     640:	a1830067          	jr	-1512(t1) # 20020054 <__riscv_restore_0>

00000644 <tcp_segs_free>:
     644:	20020317          	auipc	t1,0x20020
     648:	9ec302e7          	jalr	t0,-1556(t1) # 20020030 <__riscv_save_0>
     64c:	4401                	li	s0,0
     64e:	e511                	bnez	a0,65a <tcp_segs_free+0x16>
     650:	8522                	mv	a0,s0
     652:	20020317          	auipc	t1,0x20020
     656:	a0230067          	jr	-1534(t1) # 20020054 <__riscv_restore_0>
     65a:	4104                	lw	s1,0(a0)
     65c:	3f5d                	jal	612 <tcp_seg_free>
     65e:	942a                	add	s0,s0,a0
     660:	0ff47413          	andi	s0,s0,255
     664:	8526                	mv	a0,s1
     666:	b7e5                	j	64e <tcp_segs_free+0xa>

00000668 <tcp_seg_copy>:
     668:	20020317          	auipc	t1,0x20020
     66c:	9c8302e7          	jalr	t0,-1592(t1) # 20020030 <__riscv_save_0>
     670:	1141                	addi	sp,sp,-16
     672:	c62a                	sw	a0,12(sp)
     674:	4511                	li	a0,4
     676:	772050ef          	jal	ra,5de8 <memp_malloc>
     67a:	842a                	mv	s0,a0
     67c:	c911                	beqz	a0,690 <tcp_seg_copy+0x28>
     67e:	45b2                	lw	a1,12(sp)
     680:	4651                	li	a2,20
     682:	20024097          	auipc	ra,0x20024
     686:	b62080e7          	jalr	-1182(ra) # 200241e4 <memcpy>
     68a:	4048                	lw	a0,4(s0)
     68c:	638060ef          	jal	ra,6cc4 <pbuf_ref>
     690:	8522                	mv	a0,s0
     692:	0141                	addi	sp,sp,16
     694:	20020317          	auipc	t1,0x20020
     698:	9c030067          	jr	-1600(t1) # 20020054 <__riscv_restore_0>

0000069c <tcp_pcb_purge>:
     69c:	01154703          	lbu	a4,17(a0)
     6a0:	01054783          	lbu	a5,16(a0)
     6a4:	0722                	slli	a4,a4,0x8
     6a6:	8f5d                	or	a4,a4,a5
     6a8:	01254783          	lbu	a5,18(a0)
     6ac:	07c2                	slli	a5,a5,0x10
     6ae:	8f5d                	or	a4,a4,a5
     6b0:	01354783          	lbu	a5,19(a0)
     6b4:	07e2                	slli	a5,a5,0x18
     6b6:	8fd9                	or	a5,a5,a4
     6b8:	4705                	li	a4,1
     6ba:	0ef77163          	bgeu	a4,a5,79c <tcp_pcb_purge+0x100>
     6be:	4729                	li	a4,10
     6c0:	0ce78e63          	beq	a5,a4,79c <tcp_pcb_purge+0x100>
     6c4:	20020317          	auipc	t1,0x20020
     6c8:	96c302e7          	jalr	t0,-1684(t1) # 20020030 <__riscv_save_0>
     6cc:	842a                	mv	s0,a0
     6ce:	07544783          	lbu	a5,117(s0)
     6d2:	07454503          	lbu	a0,116(a0)
     6d6:	07a2                	slli	a5,a5,0x8
     6d8:	8fc9                	or	a5,a5,a0
     6da:	07644503          	lbu	a0,118(s0)
     6de:	0542                	slli	a0,a0,0x10
     6e0:	8fc9                	or	a5,a5,a0
     6e2:	07744503          	lbu	a0,119(s0)
     6e6:	0562                	slli	a0,a0,0x18
     6e8:	8d5d                	or	a0,a0,a5
     6ea:	c919                	beqz	a0,700 <tcp_pcb_purge+0x64>
     6ec:	1c2060ef          	jal	ra,68ae <pbuf_free>
     6f0:	06040a23          	sb	zero,116(s0)
     6f4:	06040aa3          	sb	zero,117(s0)
     6f8:	06040b23          	sb	zero,118(s0)
     6fc:	06040ba3          	sb	zero,119(s0)
     700:	07144503          	lbu	a0,113(s0)
     704:	07044783          	lbu	a5,112(s0)
     708:	577d                	li	a4,-1
     70a:	0522                	slli	a0,a0,0x8
     70c:	8d5d                	or	a0,a0,a5
     70e:	07244783          	lbu	a5,114(s0)
     712:	02e40a23          	sb	a4,52(s0)
     716:	02e40aa3          	sb	a4,53(s0)
     71a:	07c2                	slli	a5,a5,0x10
     71c:	8fc9                	or	a5,a5,a0
     71e:	07344503          	lbu	a0,115(s0)
     722:	0562                	slli	a0,a0,0x18
     724:	8d5d                	or	a0,a0,a5
     726:	3f39                	jal	644 <tcp_segs_free>
     728:	06944503          	lbu	a0,105(s0)
     72c:	06844783          	lbu	a5,104(s0)
     730:	06040823          	sb	zero,112(s0)
     734:	0522                	slli	a0,a0,0x8
     736:	8d5d                	or	a0,a0,a5
     738:	06a44783          	lbu	a5,106(s0)
     73c:	060408a3          	sb	zero,113(s0)
     740:	06040923          	sb	zero,114(s0)
     744:	07c2                	slli	a5,a5,0x10
     746:	8fc9                	or	a5,a5,a0
     748:	06b44503          	lbu	a0,107(s0)
     74c:	060409a3          	sb	zero,115(s0)
     750:	0562                	slli	a0,a0,0x18
     752:	8d5d                	or	a0,a0,a5
     754:	3dc5                	jal	644 <tcp_segs_free>
     756:	06d44503          	lbu	a0,109(s0)
     75a:	06c44783          	lbu	a5,108(s0)
     75e:	0522                	slli	a0,a0,0x8
     760:	8d5d                	or	a0,a0,a5
     762:	06e44783          	lbu	a5,110(s0)
     766:	07c2                	slli	a5,a5,0x10
     768:	8fc9                	or	a5,a5,a0
     76a:	06f44503          	lbu	a0,111(s0)
     76e:	0562                	slli	a0,a0,0x18
     770:	8d5d                	or	a0,a0,a5
     772:	3dc9                	jal	644 <tcp_segs_free>
     774:	06040423          	sb	zero,104(s0)
     778:	060404a3          	sb	zero,105(s0)
     77c:	06040523          	sb	zero,106(s0)
     780:	060405a3          	sb	zero,107(s0)
     784:	06040623          	sb	zero,108(s0)
     788:	060406a3          	sb	zero,109(s0)
     78c:	06040723          	sb	zero,110(s0)
     790:	060407a3          	sb	zero,111(s0)
     794:	20020317          	auipc	t1,0x20020
     798:	8c030067          	jr	-1856(t1) # 20020054 <__riscv_restore_0>
     79c:	8082                	ret

0000079e <tcp_slowtmr>:
     79e:	20020317          	auipc	t1,0x20020
     7a2:	862302e7          	jalr	t0,-1950(t1) # 20020000 <__riscv_save_12>
     7a6:	20000497          	auipc	s1,0x20000
     7aa:	6fe48493          	addi	s1,s1,1790 # 20000ea4 <tcp_ticks>
     7ae:	409c                	lw	a5,0(s1)
     7b0:	20000b17          	auipc	s6,0x20000
     7b4:	664b4b03          	lbu	s6,1636(s6) # 20000e14 <CH569Inf+0x18>
     7b8:	06600993          	li	s3,102
     7bc:	0785                	addi	a5,a5,1
     7be:	20000717          	auipc	a4,0x20000
     7c2:	6ef72323          	sw	a5,1766(a4) # 20000ea4 <tcp_ticks>
     7c6:	20000797          	auipc	a5,0x20000
     7ca:	6da78793          	addi	a5,a5,1754 # 20000ea0 <tcp_active_pcbs>
     7ce:	4380                	lw	s0,0(a5)
     7d0:	4901                	li	s2,0
     7d2:	4b89                	li	s7,2
     7d4:	20000d97          	auipc	s11,0x20000
     7d8:	8bcd8d93          	addi	s11,s11,-1860 # 20000090 <tcp_persist_backoff>
     7dc:	4a19                	li	s4,6
     7de:	02800c13          	li	s8,40
     7e2:	20000c97          	auipc	s9,0x20000
     7e6:	60ec8c93          	addi	s9,s9,1550 # 20000df0 <KeepLiveCfg>
     7ea:	ec01                	bnez	s0,802 <__stack_size+0x2>
     7ec:	20000797          	auipc	a5,0x20000
     7f0:	6c878793          	addi	a5,a5,1736 # 20000eb4 <tcp_tw_pcbs>
     7f4:	4380                	lw	s0,0(a5)
     7f6:	54041463          	bnez	s0,d3e <__stack_size+0x53e>
     7fa:	20020317          	auipc	t1,0x20020
     7fe:	84230067          	jr	-1982(t1) # 2002003c <__riscv_restore_12>
     802:	19fd                	addi	s3,s3,-1
     804:	0ff9f993          	andi	s3,s3,255
     808:	fe0989e3          	beqz	s3,7fa <tcp_slowtmr+0x5c>
     80c:	01144783          	lbu	a5,17(s0)
     810:	01044683          	lbu	a3,16(s0)
     814:	04644603          	lbu	a2,70(s0)
     818:	07a2                	slli	a5,a5,0x8
     81a:	8fd5                	or	a5,a5,a3
     81c:	01244683          	lbu	a3,18(s0)
     820:	4d05                	li	s10,1
     822:	06c2                	slli	a3,a3,0x10
     824:	8fd5                	or	a5,a5,a3
     826:	01344683          	lbu	a3,19(s0)
     82a:	06e2                	slli	a3,a3,0x18
     82c:	8edd                	or	a3,a3,a5
     82e:	04cb0a63          	beq	s6,a2,882 <__stack_size+0x82>
     832:	09444d03          	lbu	s10,148(s0)
     836:	240d0563          	beqz	s10,a80 <__stack_size+0x280>
     83a:	09144683          	lbu	a3,145(s0)
     83e:	09044703          	lbu	a4,144(s0)
     842:	06a2                	slli	a3,a3,0x8
     844:	8ed9                	or	a3,a3,a4
     846:	09244703          	lbu	a4,146(s0)
     84a:	0742                	slli	a4,a4,0x10
     84c:	8ed9                	or	a3,a3,a4
     84e:	09344703          	lbu	a4,147(s0)
     852:	0762                	slli	a4,a4,0x18
     854:	8f55                	or	a4,a4,a3
     856:	0705                	addi	a4,a4,1
     858:	00875693          	srli	a3,a4,0x8
     85c:	08d408a3          	sb	a3,145(s0)
     860:	01075693          	srli	a3,a4,0x10
     864:	08d40923          	sb	a3,146(s0)
     868:	01875693          	srli	a3,a4,0x18
     86c:	08d409a3          	sb	a3,147(s0)
     870:	01ad86b3          	add	a3,s11,s10
     874:	fff6c683          	lbu	a3,-1(a3)
     878:	08e40823          	sb	a4,144(s0)
     87c:	1ed77063          	bgeu	a4,a3,a5c <__stack_size+0x25c>
     880:	4d01                	li	s10,0
     882:	01144683          	lbu	a3,17(s0)
     886:	01044703          	lbu	a4,16(s0)
     88a:	06a2                	slli	a3,a3,0x8
     88c:	8ed9                	or	a3,a3,a4
     88e:	01244703          	lbu	a4,18(s0)
     892:	0742                	slli	a4,a4,0x10
     894:	8ed9                	or	a3,a3,a4
     896:	01344703          	lbu	a4,19(s0)
     89a:	0762                	slli	a4,a4,0x18
     89c:	8f55                	or	a4,a4,a3
     89e:	03471963          	bne	a4,s4,8d0 <__stack_size+0xd0>
     8a2:	02f44603          	lbu	a2,47(s0)
     8a6:	02e44683          	lbu	a3,46(s0)
     8aa:	0622                	slli	a2,a2,0x8
     8ac:	8e55                	or	a2,a2,a3
     8ae:	03044683          	lbu	a3,48(s0)
     8b2:	06c2                	slli	a3,a3,0x10
     8b4:	8e55                	or	a2,a2,a3
     8b6:	03144683          	lbu	a3,49(s0)
     8ba:	06e2                	slli	a3,a3,0x18
     8bc:	8ed1                	or	a3,a3,a2
     8be:	4090                	lw	a2,0(s1)
     8c0:	40d606b3          	sub	a3,a2,a3
     8c4:	00dc7663          	bgeu	s8,a3,8d0 <__stack_size+0xd0>
     8c8:	001d0793          	addi	a5,s10,1
     8cc:	0ff7fd13          	andi	s10,a5,255
     8d0:	00844683          	lbu	a3,8(s0)
     8d4:	4a81                	li	s5,0
     8d6:	8aa1                	andi	a3,a3,8
     8d8:	c6bd                	beqz	a3,946 <__stack_size+0x146>
     8da:	4691                	li	a3,4
     8dc:	00d70563          	beq	a4,a3,8e6 <__stack_size+0xe6>
     8e0:	469d                	li	a3,7
     8e2:	06d71263          	bne	a4,a3,946 <__stack_size+0x146>
     8e6:	02f44703          	lbu	a4,47(s0)
     8ea:	02e44583          	lbu	a1,46(s0)
     8ee:	08d44603          	lbu	a2,141(s0)
     8f2:	0722                	slli	a4,a4,0x8
     8f4:	8dd9                	or	a1,a1,a4
     8f6:	03044703          	lbu	a4,48(s0)
     8fa:	004ca803          	lw	a6,4(s9)
     8fe:	008ca683          	lw	a3,8(s9)
     902:	0742                	slli	a4,a4,0x10
     904:	8f4d                	or	a4,a4,a1
     906:	03144583          	lbu	a1,49(s0)
     90a:	0622                	slli	a2,a2,0x8
     90c:	02d806b3          	mul	a3,a6,a3
     910:	05e2                	slli	a1,a1,0x18
     912:	8f4d                	or	a4,a4,a1
     914:	408c                	lw	a1,0(s1)
     916:	1f400513          	li	a0,500
     91a:	8d99                	sub	a1,a1,a4
     91c:	08c44703          	lbu	a4,140(s0)
     920:	8f51                	or	a4,a4,a2
     922:	08e44603          	lbu	a2,142(s0)
     926:	0642                	slli	a2,a2,0x10
     928:	8e59                	or	a2,a2,a4
     92a:	08f44703          	lbu	a4,143(s0)
     92e:	0762                	slli	a4,a4,0x18
     930:	8e59                	or	a2,a2,a4
     932:	96b2                	add	a3,a3,a2
     934:	02a6d6b3          	divu	a3,a3,a0
     938:	24b6fb63          	bgeu	a3,a1,b8e <__stack_size+0x38e>
     93c:	001d0793          	addi	a5,s10,1
     940:	0ff7fd13          	andi	s10,a5,255
     944:	4a85                	li	s5,1
     946:	07144703          	lbu	a4,113(s0)
     94a:	07044503          	lbu	a0,112(s0)
     94e:	0722                	slli	a4,a4,0x8
     950:	8f49                	or	a4,a4,a0
     952:	07244503          	lbu	a0,114(s0)
     956:	0542                	slli	a0,a0,0x10
     958:	8f49                	or	a4,a4,a0
     95a:	07344503          	lbu	a0,115(s0)
     95e:	0562                	slli	a0,a0,0x18
     960:	8d59                	or	a0,a0,a4
     962:	c531                	beqz	a0,9ae <__stack_size+0x1ae>
     964:	02f44683          	lbu	a3,47(s0)
     968:	02e44703          	lbu	a4,46(s0)
     96c:	04444603          	lbu	a2,68(s0)
     970:	06a2                	slli	a3,a3,0x8
     972:	8ed9                	or	a3,a3,a4
     974:	03044703          	lbu	a4,48(s0)
     978:	0742                	slli	a4,a4,0x10
     97a:	8ed9                	or	a3,a3,a4
     97c:	03144703          	lbu	a4,49(s0)
     980:	0762                	slli	a4,a4,0x18
     982:	8f55                	or	a4,a4,a3
     984:	4094                	lw	a3,0(s1)
     986:	8e99                	sub	a3,a3,a4
     988:	04544703          	lbu	a4,69(s0)
     98c:	0722                	slli	a4,a4,0x8
     98e:	8f51                	or	a4,a4,a2
     990:	0742                	slli	a4,a4,0x10
     992:	8741                	srai	a4,a4,0x10
     994:	03470733          	mul	a4,a4,s4
     998:	00e6eb63          	bltu	a3,a4,9ae <__stack_size+0x1ae>
     99c:	3165                	jal	644 <tcp_segs_free>
     99e:	06040823          	sb	zero,112(s0)
     9a2:	060408a3          	sb	zero,113(s0)
     9a6:	06040923          	sb	zero,114(s0)
     9aa:	060409a3          	sb	zero,115(s0)
     9ae:	01144683          	lbu	a3,17(s0)
     9b2:	01044703          	lbu	a4,16(s0)
     9b6:	06a2                	slli	a3,a3,0x8
     9b8:	8ed9                	or	a3,a3,a4
     9ba:	01244703          	lbu	a4,18(s0)
     9be:	0742                	slli	a4,a4,0x10
     9c0:	8ed9                	or	a3,a3,a4
     9c2:	01344703          	lbu	a4,19(s0)
     9c6:	0762                	slli	a4,a4,0x18
     9c8:	8f55                	or	a4,a4,a3
     9ca:	468d                	li	a3,3
     9cc:	1ed71463          	bne	a4,a3,bb4 <__stack_size+0x3b4>
     9d0:	02f44683          	lbu	a3,47(s0)
     9d4:	02e44703          	lbu	a4,46(s0)
     9d8:	06a2                	slli	a3,a3,0x8
     9da:	8ed9                	or	a3,a3,a4
     9dc:	03044703          	lbu	a4,48(s0)
     9e0:	0742                	slli	a4,a4,0x10
     9e2:	8ed9                	or	a3,a3,a4
     9e4:	03144703          	lbu	a4,49(s0)
     9e8:	0762                	slli	a4,a4,0x18
     9ea:	8f55                	or	a4,a4,a3
     9ec:	4094                	lw	a3,0(s1)
     9ee:	40e68733          	sub	a4,a3,a4
     9f2:	1eec6963          	bltu	s8,a4,be4 <__stack_size+0x3e4>
     9f6:	1e0d1763          	bnez	s10,be4 <__stack_size+0x3e4>
     9fa:	03244783          	lbu	a5,50(s0)
     9fe:	03344703          	lbu	a4,51(s0)
     a02:	0785                	addi	a5,a5,1
     a04:	0ff7f793          	andi	a5,a5,255
     a08:	02f40923          	sb	a5,50(s0)
     a0c:	02e7e763          	bltu	a5,a4,a3a <__stack_size+0x23a>
     a10:	08544703          	lbu	a4,133(s0)
     a14:	08444783          	lbu	a5,132(s0)
     a18:	02040923          	sb	zero,50(s0)
     a1c:	0722                	slli	a4,a4,0x8
     a1e:	8f5d                	or	a4,a4,a5
     a20:	08644783          	lbu	a5,134(s0)
     a24:	07c2                	slli	a5,a5,0x10
     a26:	8f5d                	or	a4,a4,a5
     a28:	08744783          	lbu	a5,135(s0)
     a2c:	07e2                	slli	a5,a5,0x18
     a2e:	8fd9                	or	a5,a5,a4
     a30:	2e079463          	bnez	a5,d18 <__stack_size+0x518>
     a34:	8522                	mv	a0,s0
     a36:	513030ef          	jal	ra,4748 <tcp_output>
     a3a:	00d44783          	lbu	a5,13(s0)
     a3e:	00c44703          	lbu	a4,12(s0)
     a42:	8922                	mv	s2,s0
     a44:	07a2                	slli	a5,a5,0x8
     a46:	8f5d                	or	a4,a4,a5
     a48:	00e44783          	lbu	a5,14(s0)
     a4c:	07c2                	slli	a5,a5,0x10
     a4e:	8fd9                	or	a5,a5,a4
     a50:	00f44703          	lbu	a4,15(s0)
     a54:	0762                	slli	a4,a4,0x18
     a56:	00f76433          	or	s0,a4,a5
     a5a:	bb41                	j	7ea <tcp_slowtmr+0x4c>
     a5c:	08040823          	sb	zero,144(s0)
     a60:	080408a3          	sb	zero,145(s0)
     a64:	08040923          	sb	zero,146(s0)
     a68:	080409a3          	sb	zero,147(s0)
     a6c:	01aa6663          	bltu	s4,s10,a78 <__stack_size+0x278>
     a70:	001d0793          	addi	a5,s10,1
     a74:	08f40a23          	sb	a5,148(s0)
     a78:	8522                	mv	a0,s0
     a7a:	7a6040ef          	jal	ra,5220 <tcp_zero_window_probe>
     a7e:	b509                	j	880 <__stack_size+0x80>
     a80:	03544703          	lbu	a4,53(s0)
     a84:	03444583          	lbu	a1,52(s0)
     a88:	0722                	slli	a4,a4,0x8
     a8a:	8f4d                	or	a4,a4,a1
     a8c:	0742                	slli	a4,a4,0x10
     a8e:	8741                	srai	a4,a4,0x10
     a90:	00074a63          	bltz	a4,aa4 <__stack_size+0x2a4>
     a94:	0705                	addi	a4,a4,1
     a96:	0742                	slli	a4,a4,0x10
     a98:	8341                	srli	a4,a4,0x10
     a9a:	02e40a23          	sb	a4,52(s0)
     a9e:	8321                	srli	a4,a4,0x8
     aa0:	02e40aa3          	sb	a4,53(s0)
     aa4:	06d44583          	lbu	a1,109(s0)
     aa8:	06c44703          	lbu	a4,108(s0)
     aac:	05a2                	slli	a1,a1,0x8
     aae:	8dd9                	or	a1,a1,a4
     ab0:	06e44703          	lbu	a4,110(s0)
     ab4:	0742                	slli	a4,a4,0x10
     ab6:	8dd9                	or	a1,a1,a4
     ab8:	06f44703          	lbu	a4,111(s0)
     abc:	0762                	slli	a4,a4,0x18
     abe:	8f4d                	or	a4,a4,a1
     ac0:	dc0700e3          	beqz	a4,880 <__stack_size+0x80>
     ac4:	03544703          	lbu	a4,53(s0)
     ac8:	03444583          	lbu	a1,52(s0)
     acc:	0722                	slli	a4,a4,0x8
     ace:	8f4d                	or	a4,a4,a1
     ad0:	0742                	slli	a4,a4,0x10
     ad2:	8741                	srai	a4,a4,0x10
     ad4:	dae056e3          	blez	a4,880 <__stack_size+0x80>
     ad8:	05768463          	beq	a3,s7,b20 <__stack_size+0x320>
     adc:	04144703          	lbu	a4,65(s0)
     ae0:	04044683          	lbu	a3,64(s0)
     ae4:	04244583          	lbu	a1,66(s0)
     ae8:	0722                	slli	a4,a4,0x8
     aea:	8f55                	or	a4,a4,a3
     aec:	04344683          	lbu	a3,67(s0)
     af0:	0742                	slli	a4,a4,0x10
     af2:	8741                	srai	a4,a4,0x10
     af4:	06a2                	slli	a3,a3,0x8
     af6:	8ecd                	or	a3,a3,a1
     af8:	06c2                	slli	a3,a3,0x10
     afa:	20025797          	auipc	a5,0x20025
     afe:	27a78793          	addi	a5,a5,634 # 20025d74 <tcp_backoff>
     b02:	86c1                	srai	a3,a3,0x10
     b04:	870d                	srai	a4,a4,0x3
     b06:	963e                	add	a2,a2,a5
     b08:	9736                	add	a4,a4,a3
     b0a:	00064683          	lbu	a3,0(a2)
     b0e:	00d71733          	sll	a4,a4,a3
     b12:	0742                	slli	a4,a4,0x10
     b14:	8341                	srli	a4,a4,0x10
     b16:	04e40223          	sb	a4,68(s0)
     b1a:	8321                	srli	a4,a4,0x8
     b1c:	04e402a3          	sb	a4,69(s0)
     b20:	05544603          	lbu	a2,85(s0)
     b24:	05444703          	lbu	a4,84(s0)
     b28:	04c44683          	lbu	a3,76(s0)
     b2c:	0622                	slli	a2,a2,0x8
     b2e:	8e59                	or	a2,a2,a4
     b30:	04d44703          	lbu	a4,77(s0)
     b34:	02040a23          	sb	zero,52(s0)
     b38:	02040aa3          	sb	zero,53(s0)
     b3c:	0722                	slli	a4,a4,0x8
     b3e:	8f55                	or	a4,a4,a3
     b40:	86b2                	mv	a3,a2
     b42:	00c77363          	bgeu	a4,a2,b48 <__stack_size+0x348>
     b46:	86ba                	mv	a3,a4
     b48:	06c2                	slli	a3,a3,0x10
     b4a:	82c1                	srli	a3,a3,0x10
     b4c:	8285                	srli	a3,a3,0x1
     b4e:	0086d713          	srli	a4,a3,0x8
     b52:	04e407a3          	sb	a4,79(s0)
     b56:	03744703          	lbu	a4,55(s0)
     b5a:	03644603          	lbu	a2,54(s0)
     b5e:	04d40723          	sb	a3,78(s0)
     b62:	0722                	slli	a4,a4,0x8
     b64:	8f51                	or	a4,a4,a2
     b66:	00e6fb63          	bgeu	a3,a4,b7c <__stack_size+0x37c>
     b6a:	00171693          	slli	a3,a4,0x1
     b6e:	06c2                	slli	a3,a3,0x10
     b70:	82c1                	srli	a3,a3,0x10
     b72:	04d40723          	sb	a3,78(s0)
     b76:	82a1                	srli	a3,a3,0x8
     b78:	04d407a3          	sb	a3,79(s0)
     b7c:	04e40623          	sb	a4,76(s0)
     b80:	8321                	srli	a4,a4,0x8
     b82:	04e406a3          	sb	a4,77(s0)
     b86:	8522                	mv	a0,s0
     b88:	3fa040ef          	jal	ra,4f82 <tcp_rexmit_rto>
     b8c:	b9dd                	j	882 <__stack_size+0x82>
     b8e:	09544703          	lbu	a4,149(s0)
     b92:	4a81                	li	s5,0
     b94:	03070733          	mul	a4,a4,a6
     b98:	9732                	add	a4,a4,a2
     b9a:	02a75733          	divu	a4,a4,a0
     b9e:	dab774e3          	bgeu	a4,a1,946 <__stack_size+0x146>
     ba2:	8522                	mv	a0,s0
     ba4:	614040ef          	jal	ra,51b8 <tcp_keepalive>
     ba8:	09544703          	lbu	a4,149(s0)
     bac:	0705                	addi	a4,a4,1
     bae:	08e40aa3          	sb	a4,149(s0)
     bb2:	bb51                	j	946 <__stack_size+0x146>
     bb4:	46a5                	li	a3,9
     bb6:	e4d710e3          	bne	a4,a3,9f6 <__stack_size+0x1f6>
     bba:	02f44683          	lbu	a3,47(s0)
     bbe:	02e44703          	lbu	a4,46(s0)
     bc2:	06a2                	slli	a3,a3,0x8
     bc4:	8ed9                	or	a3,a3,a4
     bc6:	03044703          	lbu	a4,48(s0)
     bca:	0742                	slli	a4,a4,0x10
     bcc:	8ed9                	or	a3,a3,a4
     bce:	03144703          	lbu	a4,49(s0)
     bd2:	0762                	slli	a4,a4,0x18
     bd4:	8f55                	or	a4,a4,a3
     bd6:	4094                	lw	a3,0(s1)
     bd8:	40e68733          	sub	a4,a3,a4
     bdc:	0f000693          	li	a3,240
     be0:	e0e6fbe3          	bgeu	a3,a4,9f6 <__stack_size+0x1f6>
     be4:	8522                	mv	a0,s0
     be6:	20021097          	auipc	ra,0x20021
     bea:	2b6080e7          	jalr	694(ra) # 20021e9c <LwipRemoveTcpPcb>
     bee:	8522                	mv	a0,s0
     bf0:	3475                	jal	69c <tcp_pcb_purge>
     bf2:	00d44603          	lbu	a2,13(s0)
     bf6:	00c44783          	lbu	a5,12(s0)
     bfa:	00e44683          	lbu	a3,14(s0)
     bfe:	00f44703          	lbu	a4,15(s0)
     c02:	0622                	slli	a2,a2,0x8
     c04:	10090063          	beqz	s2,d04 <__stack_size+0x504>
     c08:	8fd1                	or	a5,a5,a2
     c0a:	06c2                	slli	a3,a3,0x10
     c0c:	8edd                	or	a3,a3,a5
     c0e:	01871793          	slli	a5,a4,0x18
     c12:	8fd5                	or	a5,a5,a3
     c14:	0087d713          	srli	a4,a5,0x8
     c18:	00f90623          	sb	a5,12(s2)
     c1c:	00e906a3          	sb	a4,13(s2)
     c20:	0107d713          	srli	a4,a5,0x10
     c24:	83e1                	srli	a5,a5,0x18
     c26:	00e90723          	sb	a4,14(s2)
     c2a:	00f907a3          	sb	a5,15(s2)
     c2e:	08944703          	lbu	a4,137(s0)
     c32:	08844783          	lbu	a5,136(s0)
     c36:	0722                	slli	a4,a4,0x8
     c38:	8f5d                	or	a4,a4,a5
     c3a:	08a44783          	lbu	a5,138(s0)
     c3e:	07c2                	slli	a5,a5,0x10
     c40:	8f5d                	or	a4,a4,a5
     c42:	08b44783          	lbu	a5,139(s0)
     c46:	07e2                	slli	a5,a5,0x18
     c48:	8fd9                	or	a5,a5,a4
     c4a:	c38d                	beqz	a5,c6c <__stack_size+0x46c>
     c4c:	01644503          	lbu	a0,22(s0)
     c50:	01544703          	lbu	a4,21(s0)
     c54:	55ed                	li	a1,-5
     c56:	0522                	slli	a0,a0,0x8
     c58:	8d59                	or	a0,a0,a4
     c5a:	01744703          	lbu	a4,23(s0)
     c5e:	0742                	slli	a4,a4,0x10
     c60:	8f49                	or	a4,a4,a0
     c62:	01844503          	lbu	a0,24(s0)
     c66:	0562                	slli	a0,a0,0x18
     c68:	8d59                	or	a0,a0,a4
     c6a:	9782                	jalr	a5
     c6c:	060a8563          	beqz	s5,cd6 <__stack_size+0x4d6>
     c70:	02344583          	lbu	a1,35(s0)
     c74:	05144503          	lbu	a0,81(s0)
     c78:	02244883          	lbu	a7,34(s0)
     c7c:	05044803          	lbu	a6,80(s0)
     c80:	05a2                	slli	a1,a1,0x8
     c82:	0522                	slli	a0,a0,0x8
     c84:	0115e5b3          	or	a1,a1,a7
     c88:	01056533          	or	a0,a0,a6
     c8c:	02444883          	lbu	a7,36(s0)
     c90:	05244803          	lbu	a6,82(s0)
     c94:	02044783          	lbu	a5,32(s0)
     c98:	08c2                	slli	a7,a7,0x10
     c9a:	0842                	slli	a6,a6,0x10
     c9c:	00b8e8b3          	or	a7,a7,a1
     ca0:	00a86833          	or	a6,a6,a0
     ca4:	01a44703          	lbu	a4,26(s0)
     ca8:	02544583          	lbu	a1,37(s0)
     cac:	05344503          	lbu	a0,83(s0)
     cb0:	01f44603          	lbu	a2,31(s0)
     cb4:	01944683          	lbu	a3,25(s0)
     cb8:	07a2                	slli	a5,a5,0x8
     cba:	0722                	slli	a4,a4,0x8
     cbc:	05e2                	slli	a1,a1,0x18
     cbe:	0562                	slli	a0,a0,0x18
     cc0:	8fd1                	or	a5,a5,a2
     cc2:	8f55                	or	a4,a4,a3
     cc4:	8622                	mv	a2,s0
     cc6:	00440693          	addi	a3,s0,4
     cca:	0115e5b3          	or	a1,a1,a7
     cce:	01056533          	or	a0,a0,a6
     cd2:	14c040ef          	jal	ra,4e1e <tcp_rst>
     cd6:	00d44783          	lbu	a5,13(s0)
     cda:	00c44a83          	lbu	s5,12(s0)
     cde:	85a2                	mv	a1,s0
     ce0:	07a2                	slli	a5,a5,0x8
     ce2:	0157e7b3          	or	a5,a5,s5
     ce6:	00e44a83          	lbu	s5,14(s0)
     cea:	4509                	li	a0,2
     cec:	0ac2                	slli	s5,s5,0x10
     cee:	00fae7b3          	or	a5,s5,a5
     cf2:	00f44a83          	lbu	s5,15(s0)
     cf6:	0ae2                	slli	s5,s5,0x18
     cf8:	00faeab3          	or	s5,s5,a5
     cfc:	8456                	mv	s0,s5
     cfe:	10a050ef          	jal	ra,5e08 <memp_free>
     d02:	b4e5                	j	7ea <tcp_slowtmr+0x4c>
     d04:	8e5d                	or	a2,a2,a5
     d06:	06c2                	slli	a3,a3,0x10
     d08:	8ed1                	or	a3,a3,a2
     d0a:	0762                	slli	a4,a4,0x18
     d0c:	8f55                	or	a4,a4,a3
     d0e:	20000797          	auipc	a5,0x20000
     d12:	18e7a923          	sw	a4,402(a5) # 20000ea0 <tcp_active_pcbs>
     d16:	bf21                	j	c2e <__stack_size+0x42e>
     d18:	01644503          	lbu	a0,22(s0)
     d1c:	01544703          	lbu	a4,21(s0)
     d20:	85a2                	mv	a1,s0
     d22:	0522                	slli	a0,a0,0x8
     d24:	8d59                	or	a0,a0,a4
     d26:	01744703          	lbu	a4,23(s0)
     d2a:	0742                	slli	a4,a4,0x10
     d2c:	8f49                	or	a4,a4,a0
     d2e:	01844503          	lbu	a0,24(s0)
     d32:	0562                	slli	a0,a0,0x18
     d34:	8d59                	or	a0,a0,a4
     d36:	9782                	jalr	a5
     d38:	ce050ee3          	beqz	a0,a34 <__stack_size+0x234>
     d3c:	b9fd                	j	a3a <__stack_size+0x23a>
     d3e:	8522                	mv	a0,s0
     d40:	20021097          	auipc	ra,0x20021
     d44:	15c080e7          	jalr	348(ra) # 20021e9c <LwipRemoveTcpPcb>
     d48:	8522                	mv	a0,s0
     d4a:	3a89                	jal	69c <tcp_pcb_purge>
     d4c:	00d44783          	lbu	a5,13(s0)
     d50:	00c44483          	lbu	s1,12(s0)
     d54:	85a2                	mv	a1,s0
     d56:	07a2                	slli	a5,a5,0x8
     d58:	8fc5                	or	a5,a5,s1
     d5a:	00e44483          	lbu	s1,14(s0)
     d5e:	4509                	li	a0,2
     d60:	04c2                	slli	s1,s1,0x10
     d62:	8fc5                	or	a5,a5,s1
     d64:	00f44483          	lbu	s1,15(s0)
     d68:	04e2                	slli	s1,s1,0x18
     d6a:	8cdd                	or	s1,s1,a5
     d6c:	20000797          	auipc	a5,0x20000
     d70:	1497a423          	sw	s1,328(a5) # 20000eb4 <tcp_tw_pcbs>
     d74:	8426                	mv	s0,s1
     d76:	092050ef          	jal	ra,5e08 <memp_free>
     d7a:	bcb5                	j	7f6 <tcp_slowtmr+0x58>

00000d7c <RemoveTimeWaiTCP>:
     d7c:	2001f317          	auipc	t1,0x2001f
     d80:	2b4302e7          	jalr	t0,692(t1) # 20020030 <__riscv_save_0>
     d84:	20000797          	auipc	a5,0x20000
     d88:	13078793          	addi	a5,a5,304 # 20000eb4 <tcp_tw_pcbs>
     d8c:	4380                	lw	s0,0(a5)
     d8e:	e409                	bnez	s0,d98 <RemoveTimeWaiTCP+0x1c>
     d90:	2001f317          	auipc	t1,0x2001f
     d94:	2c430067          	jr	708(t1) # 20020054 <__riscv_restore_0>
     d98:	8522                	mv	a0,s0
     d9a:	20021097          	auipc	ra,0x20021
     d9e:	102080e7          	jalr	258(ra) # 20021e9c <LwipRemoveTcpPcb>
     da2:	8522                	mv	a0,s0
     da4:	38e5                	jal	69c <tcp_pcb_purge>
     da6:	00d44783          	lbu	a5,13(s0)
     daa:	00c44483          	lbu	s1,12(s0)
     dae:	85a2                	mv	a1,s0
     db0:	07a2                	slli	a5,a5,0x8
     db2:	8fc5                	or	a5,a5,s1
     db4:	00e44483          	lbu	s1,14(s0)
     db8:	4509                	li	a0,2
     dba:	04c2                	slli	s1,s1,0x10
     dbc:	8fc5                	or	a5,a5,s1
     dbe:	00f44483          	lbu	s1,15(s0)
     dc2:	04e2                	slli	s1,s1,0x18
     dc4:	8cdd                	or	s1,s1,a5
     dc6:	20000797          	auipc	a5,0x20000
     dca:	0e97a723          	sw	s1,238(a5) # 20000eb4 <tcp_tw_pcbs>
     dce:	8426                	mv	s0,s1
     dd0:	038050ef          	jal	ra,5e08 <memp_free>
     dd4:	bf6d                	j	d8e <RemoveTimeWaiTCP+0x12>

00000dd6 <tcp_pcb_remove>:
     dd6:	2001f317          	auipc	t1,0x2001f
     dda:	25a302e7          	jalr	t0,602(t1) # 20020030 <__riscv_save_0>
     dde:	411c                	lw	a5,0(a0)
     de0:	842e                	mv	s0,a1
     de2:	08b79763          	bne	a5,a1,e70 <tcp_pcb_remove+0x9a>
     de6:	00d5c703          	lbu	a4,13(a1)
     dea:	00c5c783          	lbu	a5,12(a1)
     dee:	0722                	slli	a4,a4,0x8
     df0:	8f5d                	or	a4,a4,a5
     df2:	00e5c783          	lbu	a5,14(a1)
     df6:	07c2                	slli	a5,a5,0x10
     df8:	8f5d                	or	a4,a4,a5
     dfa:	00f5c783          	lbu	a5,15(a1)
     dfe:	07e2                	slli	a5,a5,0x18
     e00:	8fd9                	or	a5,a5,a4
     e02:	c11c                	sw	a5,0(a0)
     e04:	00040623          	sb	zero,12(s0)
     e08:	000406a3          	sb	zero,13(s0)
     e0c:	00040723          	sb	zero,14(s0)
     e10:	000407a3          	sb	zero,15(s0)
     e14:	8522                	mv	a0,s0
     e16:	3059                	jal	69c <tcp_pcb_purge>
     e18:	01144703          	lbu	a4,17(s0)
     e1c:	01044783          	lbu	a5,16(s0)
     e20:	0722                	slli	a4,a4,0x8
     e22:	8f5d                	or	a4,a4,a5
     e24:	01244783          	lbu	a5,18(s0)
     e28:	07c2                	slli	a5,a5,0x10
     e2a:	8f5d                	or	a4,a4,a5
     e2c:	01344783          	lbu	a5,19(s0)
     e30:	07e2                	slli	a5,a5,0x18
     e32:	8fd9                	or	a5,a5,a4
     e34:	4729                	li	a4,10
     e36:	02e78163          	beq	a5,a4,e58 <tcp_pcb_remove+0x82>
     e3a:	4705                	li	a4,1
     e3c:	00e78e63          	beq	a5,a4,e58 <tcp_pcb_remove+0x82>
     e40:	02144783          	lbu	a5,33(s0)
     e44:	0017f713          	andi	a4,a5,1
     e48:	cb01                	beqz	a4,e58 <tcp_pcb_remove+0x82>
     e4a:	0027e793          	ori	a5,a5,2
     e4e:	02f400a3          	sb	a5,33(s0)
     e52:	8522                	mv	a0,s0
     e54:	0f5030ef          	jal	ra,4748 <tcp_output>
     e58:	00040823          	sb	zero,16(s0)
     e5c:	000408a3          	sb	zero,17(s0)
     e60:	00040923          	sb	zero,18(s0)
     e64:	000409a3          	sb	zero,19(s0)
     e68:	2001f317          	auipc	t1,0x2001f
     e6c:	1ec30067          	jr	492(t1) # 20020054 <__riscv_restore_0>
     e70:	20000717          	auipc	a4,0x20000
     e74:	02f72e23          	sw	a5,60(a4) # 20000eac <tcp_tmp_pcb>
     e78:	4601                	li	a2,0
     e7a:	e799                	bnez	a5,e88 <tcp_pcb_remove+0xb2>
     e7c:	d641                	beqz	a2,e04 <tcp_pcb_remove+0x2e>
     e7e:	20000797          	auipc	a5,0x20000
     e82:	0207a723          	sw	zero,46(a5) # 20000eac <tcp_tmp_pcb>
     e86:	bfbd                	j	e04 <tcp_pcb_remove+0x2e>
     e88:	00d7c683          	lbu	a3,13(a5)
     e8c:	00c7c703          	lbu	a4,12(a5)
     e90:	06a2                	slli	a3,a3,0x8
     e92:	8ed9                	or	a3,a3,a4
     e94:	00e7c703          	lbu	a4,14(a5)
     e98:	0742                	slli	a4,a4,0x10
     e9a:	8ed9                	or	a3,a3,a4
     e9c:	00f7c703          	lbu	a4,15(a5)
     ea0:	0762                	slli	a4,a4,0x18
     ea2:	8f55                	or	a4,a4,a3
     ea4:	04871363          	bne	a4,s0,eea <tcp_pcb_remove+0x114>
     ea8:	c609                	beqz	a2,eb2 <tcp_pcb_remove+0xdc>
     eaa:	20000717          	auipc	a4,0x20000
     eae:	00f72123          	sw	a5,2(a4) # 20000eac <tcp_tmp_pcb>
     eb2:	00d44683          	lbu	a3,13(s0)
     eb6:	00c44703          	lbu	a4,12(s0)
     eba:	06a2                	slli	a3,a3,0x8
     ebc:	8ed9                	or	a3,a3,a4
     ebe:	00e44703          	lbu	a4,14(s0)
     ec2:	0742                	slli	a4,a4,0x10
     ec4:	8ed9                	or	a3,a3,a4
     ec6:	00f44703          	lbu	a4,15(s0)
     eca:	0762                	slli	a4,a4,0x18
     ecc:	8f55                	or	a4,a4,a3
     ece:	00875693          	srli	a3,a4,0x8
     ed2:	00e78623          	sb	a4,12(a5)
     ed6:	00d786a3          	sb	a3,13(a5)
     eda:	01075693          	srli	a3,a4,0x10
     ede:	8361                	srli	a4,a4,0x18
     ee0:	00d78723          	sb	a3,14(a5)
     ee4:	00e787a3          	sb	a4,15(a5)
     ee8:	bf31                	j	e04 <tcp_pcb_remove+0x2e>
     eea:	4605                	li	a2,1
     eec:	87ba                	mv	a5,a4
     eee:	b771                	j	e7a <tcp_pcb_remove+0xa4>

00000ef0 <tcp_close>:
     ef0:	01154703          	lbu	a4,17(a0)
     ef4:	01054783          	lbu	a5,16(a0)
     ef8:	0722                	slli	a4,a4,0x8
     efa:	8f5d                	or	a4,a4,a5
     efc:	01254783          	lbu	a5,18(a0)
     f00:	07c2                	slli	a5,a5,0x10
     f02:	8f5d                	or	a4,a4,a5
     f04:	01354783          	lbu	a5,19(a0)
     f08:	07e2                	slli	a5,a5,0x18
     f0a:	8fd9                	or	a5,a5,a4
     f0c:	471d                	li	a4,7
     f0e:	14f76d63          	bltu	a4,a5,1068 <tcp_close+0x178>
     f12:	2001f317          	auipc	t1,0x2001f
     f16:	11e302e7          	jalr	t0,286(t1) # 20020030 <__riscv_save_0>
     f1a:	20025717          	auipc	a4,0x20025
     f1e:	e3a70713          	addi	a4,a4,-454 # 20025d54 <ErrTable+0x74>
     f22:	078a                	slli	a5,a5,0x2
     f24:	97ba                	add	a5,a5,a4
     f26:	439c                	lw	a5,0(a5)
     f28:	842a                	mv	s0,a0
     f2a:	97ba                	add	a5,a5,a4
     f2c:	8782                	jr	a5
     f2e:	20021097          	auipc	ra,0x20021
     f32:	f6e080e7          	jalr	-146(ra) # 20021e9c <LwipRemoveTcpPcb>
     f36:	20000797          	auipc	a5,0x20000
     f3a:	f7a78793          	addi	a5,a5,-134 # 20000eb0 <tcp_bound_pcbs>
     f3e:	439c                	lw	a5,0(a5)
     f40:	02879f63          	bne	a5,s0,f7e <tcp_close+0x8e>
     f44:	00d44703          	lbu	a4,13(s0)
     f48:	00c44783          	lbu	a5,12(s0)
     f4c:	0722                	slli	a4,a4,0x8
     f4e:	8f5d                	or	a4,a4,a5
     f50:	00e44783          	lbu	a5,14(s0)
     f54:	07c2                	slli	a5,a5,0x10
     f56:	8f5d                	or	a4,a4,a5
     f58:	00f44783          	lbu	a5,15(s0)
     f5c:	07e2                	slli	a5,a5,0x18
     f5e:	8fd9                	or	a5,a5,a4
     f60:	20000717          	auipc	a4,0x20000
     f64:	f4f72823          	sw	a5,-176(a4) # 20000eb0 <tcp_bound_pcbs>
     f68:	00040623          	sb	zero,12(s0)
     f6c:	000406a3          	sb	zero,13(s0)
     f70:	00040723          	sb	zero,14(s0)
     f74:	000407a3          	sb	zero,15(s0)
     f78:	85a2                	mv	a1,s0
     f7a:	4509                	li	a0,2
     f7c:	a869                	j	1016 <tcp_close+0x126>
     f7e:	20000717          	auipc	a4,0x20000
     f82:	f2f72723          	sw	a5,-210(a4) # 20000eac <tcp_tmp_pcb>
     f86:	4601                	li	a2,0
     f88:	e799                	bnez	a5,f96 <tcp_close+0xa6>
     f8a:	de79                	beqz	a2,f68 <tcp_close+0x78>
     f8c:	20000797          	auipc	a5,0x20000
     f90:	f207a023          	sw	zero,-224(a5) # 20000eac <tcp_tmp_pcb>
     f94:	bfd1                	j	f68 <tcp_close+0x78>
     f96:	00d7c683          	lbu	a3,13(a5)
     f9a:	00c7c703          	lbu	a4,12(a5)
     f9e:	06a2                	slli	a3,a3,0x8
     fa0:	8ed9                	or	a3,a3,a4
     fa2:	00e7c703          	lbu	a4,14(a5)
     fa6:	0742                	slli	a4,a4,0x10
     fa8:	8ed9                	or	a3,a3,a4
     faa:	00f7c703          	lbu	a4,15(a5)
     fae:	0762                	slli	a4,a4,0x18
     fb0:	8f55                	or	a4,a4,a3
     fb2:	04871363          	bne	a4,s0,ff8 <tcp_close+0x108>
     fb6:	c609                	beqz	a2,fc0 <tcp_close+0xd0>
     fb8:	20000717          	auipc	a4,0x20000
     fbc:	eef72a23          	sw	a5,-268(a4) # 20000eac <tcp_tmp_pcb>
     fc0:	00d44683          	lbu	a3,13(s0)
     fc4:	00c44703          	lbu	a4,12(s0)
     fc8:	06a2                	slli	a3,a3,0x8
     fca:	8ed9                	or	a3,a3,a4
     fcc:	00e44703          	lbu	a4,14(s0)
     fd0:	0742                	slli	a4,a4,0x10
     fd2:	8ed9                	or	a3,a3,a4
     fd4:	00f44703          	lbu	a4,15(s0)
     fd8:	0762                	slli	a4,a4,0x18
     fda:	8f55                	or	a4,a4,a3
     fdc:	00875693          	srli	a3,a4,0x8
     fe0:	00e78623          	sb	a4,12(a5)
     fe4:	00d786a3          	sb	a3,13(a5)
     fe8:	01075693          	srli	a3,a4,0x10
     fec:	8361                	srli	a4,a4,0x18
     fee:	00d78723          	sb	a3,14(a5)
     ff2:	00e787a3          	sb	a4,15(a5)
     ff6:	bf8d                	j	f68 <tcp_close+0x78>
     ff8:	4605                	li	a2,1
     ffa:	87ba                	mv	a5,a4
     ffc:	b771                	j	f88 <tcp_close+0x98>
     ffe:	20021097          	auipc	ra,0x20021
    1002:	e9e080e7          	jalr	-354(ra) # 20021e9c <LwipRemoveTcpPcb>
    1006:	85a2                	mv	a1,s0
    1008:	20000517          	auipc	a0,0x20000
    100c:	ea050513          	addi	a0,a0,-352 # 20000ea8 <tcp_listen_pcbs>
    1010:	33d9                	jal	dd6 <tcp_pcb_remove>
    1012:	85a2                	mv	a1,s0
    1014:	450d                	li	a0,3
    1016:	5f3040ef          	jal	ra,5e08 <memp_free>
    101a:	4501                	li	a0,0
    101c:	a00d                	j	103e <tcp_close+0x14e>
    101e:	20021097          	auipc	ra,0x20021
    1022:	e7e080e7          	jalr	-386(ra) # 20021e9c <LwipRemoveTcpPcb>
    1026:	85a2                	mv	a1,s0
    1028:	20000517          	auipc	a0,0x20000
    102c:	e7850513          	addi	a0,a0,-392 # 20000ea0 <tcp_active_pcbs>
    1030:	335d                	jal	dd6 <tcp_pcb_remove>
    1032:	b799                	j	f78 <tcp_close+0x88>
    1034:	4585                	li	a1,1
    1036:	62a030ef          	jal	ra,4660 <tcp_send_ctrl>
    103a:	4795                	li	a5,5
    103c:	c911                	beqz	a0,1050 <tcp_close+0x160>
    103e:	2001f317          	auipc	t1,0x2001f
    1042:	01630067          	jr	22(t1) # 20020054 <__riscv_restore_0>
    1046:	4585                	li	a1,1
    1048:	618030ef          	jal	ra,4660 <tcp_send_ctrl>
    104c:	f96d                	bnez	a0,103e <tcp_close+0x14e>
    104e:	47a5                	li	a5,9
    1050:	00f40823          	sb	a5,16(s0)
    1054:	000408a3          	sb	zero,17(s0)
    1058:	00040923          	sb	zero,18(s0)
    105c:	000409a3          	sb	zero,19(s0)
    1060:	8522                	mv	a0,s0
    1062:	6e6030ef          	jal	ra,4748 <tcp_output>
    1066:	bf55                	j	101a <tcp_close+0x12a>
    1068:	4501                	li	a0,0
    106a:	8082                	ret

0000106c <tcp_recv_null>:
    106c:	2001f317          	auipc	t1,0x2001f
    1070:	fc4302e7          	jalr	t0,-60(t1) # 20020030 <__riscv_save_0>
    1074:	1141                	addi	sp,sp,-16
    1076:	852e                	mv	a0,a1
    1078:	c60d                	beqz	a2,10a2 <tcp_recv_null+0x36>
    107a:	00964783          	lbu	a5,9(a2)
    107e:	00864583          	lbu	a1,8(a2)
    1082:	c632                	sw	a2,12(sp)
    1084:	07a2                	slli	a5,a5,0x8
    1086:	8ddd                	or	a1,a1,a5
    1088:	d1eff0ef          	jal	ra,5a6 <tcp_recved>
    108c:	4632                	lw	a2,12(sp)
    108e:	8532                	mv	a0,a2
    1090:	01f050ef          	jal	ra,68ae <pbuf_free>
    1094:	4781                	li	a5,0
    1096:	853e                	mv	a0,a5
    1098:	0141                	addi	sp,sp,16
    109a:	2001f317          	auipc	t1,0x2001f
    109e:	fba30067          	jr	-70(t1) # 20020054 <__riscv_restore_0>
    10a2:	4781                	li	a5,0
    10a4:	faed                	bnez	a3,1096 <tcp_recv_null+0x2a>
    10a6:	35a9                	jal	ef0 <tcp_close>
    10a8:	87aa                	mv	a5,a0
    10aa:	b7f5                	j	1096 <tcp_recv_null+0x2a>

000010ac <tcp_fasttmr>:
    10ac:	2001f317          	auipc	t1,0x2001f
    10b0:	f84302e7          	jalr	t0,-124(t1) # 20020030 <__riscv_save_0>
    10b4:	20000797          	auipc	a5,0x20000
    10b8:	dec78793          	addi	a5,a5,-532 # 20000ea0 <tcp_active_pcbs>
    10bc:	4380                	lw	s0,0(a5)
    10be:	06500493          	li	s1,101
    10c2:	c449                	beqz	s0,114c <tcp_fasttmr+0xa0>
    10c4:	07544783          	lbu	a5,117(s0)
    10c8:	07444603          	lbu	a2,116(s0)
    10cc:	07a2                	slli	a5,a5,0x8
    10ce:	8fd1                	or	a5,a5,a2
    10d0:	07644603          	lbu	a2,118(s0)
    10d4:	0642                	slli	a2,a2,0x10
    10d6:	8fd1                	or	a5,a5,a2
    10d8:	07744603          	lbu	a2,119(s0)
    10dc:	0662                	slli	a2,a2,0x18
    10de:	8e5d                	or	a2,a2,a5
    10e0:	ca31                	beqz	a2,1134 <tcp_fasttmr+0x88>
    10e2:	07d44703          	lbu	a4,125(s0)
    10e6:	07c44783          	lbu	a5,124(s0)
    10ea:	0722                	slli	a4,a4,0x8
    10ec:	8f5d                	or	a4,a4,a5
    10ee:	07e44783          	lbu	a5,126(s0)
    10f2:	07c2                	slli	a5,a5,0x10
    10f4:	8f5d                	or	a4,a4,a5
    10f6:	07f44783          	lbu	a5,127(s0)
    10fa:	07e2                	slli	a5,a5,0x18
    10fc:	8fd9                	or	a5,a5,a4
    10fe:	cbb9                	beqz	a5,1154 <tcp_fasttmr+0xa8>
    1100:	01644503          	lbu	a0,22(s0)
    1104:	01544703          	lbu	a4,21(s0)
    1108:	4681                	li	a3,0
    110a:	0522                	slli	a0,a0,0x8
    110c:	8d59                	or	a0,a0,a4
    110e:	01744703          	lbu	a4,23(s0)
    1112:	85a2                	mv	a1,s0
    1114:	0742                	slli	a4,a4,0x10
    1116:	8f49                	or	a4,a4,a0
    1118:	01844503          	lbu	a0,24(s0)
    111c:	0562                	slli	a0,a0,0x18
    111e:	8d59                	or	a0,a0,a4
    1120:	9782                	jalr	a5
    1122:	e909                	bnez	a0,1134 <tcp_fasttmr+0x88>
    1124:	06040a23          	sb	zero,116(s0)
    1128:	06040aa3          	sb	zero,117(s0)
    112c:	06040b23          	sb	zero,118(s0)
    1130:	06040ba3          	sb	zero,119(s0)
    1134:	14fd                	addi	s1,s1,-1
    1136:	0ff4f493          	andi	s1,s1,255
    113a:	e095                	bnez	s1,115e <tcp_fasttmr+0xb2>
    113c:	20025517          	auipc	a0,0x20025
    1140:	c4c50513          	addi	a0,a0,-948 # 20025d88 <tcp_backoff+0x14>
    1144:	20023097          	auipc	ra,0x20023
    1148:	2a2080e7          	jalr	674(ra) # 200243e6 <puts>
    114c:	2001f317          	auipc	t1,0x2001f
    1150:	f0830067          	jr	-248(t1) # 20020054 <__riscv_restore_0>
    1154:	4681                	li	a3,0
    1156:	85a2                	mv	a1,s0
    1158:	4501                	li	a0,0
    115a:	3f09                	jal	106c <tcp_recv_null>
    115c:	b7d9                	j	1122 <tcp_fasttmr+0x76>
    115e:	02144783          	lbu	a5,33(s0)
    1162:	0017f713          	andi	a4,a5,1
    1166:	cf09                	beqz	a4,1180 <tcp_fasttmr+0xd4>
    1168:	0027e793          	ori	a5,a5,2
    116c:	02f400a3          	sb	a5,33(s0)
    1170:	8522                	mv	a0,s0
    1172:	5d6030ef          	jal	ra,4748 <tcp_output>
    1176:	02144783          	lbu	a5,33(s0)
    117a:	9bf1                	andi	a5,a5,-4
    117c:	02f400a3          	sb	a5,33(s0)
    1180:	00d44783          	lbu	a5,13(s0)
    1184:	00c44703          	lbu	a4,12(s0)
    1188:	07a2                	slli	a5,a5,0x8
    118a:	8f5d                	or	a4,a4,a5
    118c:	00e44783          	lbu	a5,14(s0)
    1190:	00f44403          	lbu	s0,15(s0)
    1194:	07c2                	slli	a5,a5,0x10
    1196:	8fd9                	or	a5,a5,a4
    1198:	0462                	slli	s0,s0,0x18
    119a:	8c5d                	or	s0,s0,a5
    119c:	b71d                	j	10c2 <tcp_fasttmr+0x16>

0000119e <tcp_tmr>:
    119e:	2001f317          	auipc	t1,0x2001f
    11a2:	e92302e7          	jalr	t0,-366(t1) # 20020030 <__riscv_save_0>
    11a6:	3719                	jal	10ac <tcp_fasttmr>
    11a8:	1ffff797          	auipc	a5,0x1ffff
    11ac:	f387c783          	lbu	a5,-200(a5) # 200000e0 <tcp_timer>
    11b0:	0785                	addi	a5,a5,1
    11b2:	0ff7f793          	andi	a5,a5,255
    11b6:	1ffff717          	auipc	a4,0x1ffff
    11ba:	f2f70523          	sb	a5,-214(a4) # 200000e0 <tcp_timer>
    11be:	8b85                	andi	a5,a5,1
    11c0:	c399                	beqz	a5,11c6 <tcp_tmr+0x28>
    11c2:	ddcff0ef          	jal	ra,79e <tcp_slowtmr>
    11c6:	2001f317          	auipc	t1,0x2001f
    11ca:	e8e30067          	jr	-370(t1) # 20020054 <__riscv_restore_0>

000011ce <tcp_abandon>:
    11ce:	2001f317          	auipc	t1,0x2001f
    11d2:	e3a302e7          	jalr	t0,-454(t1) # 20020008 <__riscv_save_10>
    11d6:	01154703          	lbu	a4,17(a0)
    11da:	01054783          	lbu	a5,16(a0)
    11de:	1141                	addi	sp,sp,-16
    11e0:	0722                	slli	a4,a4,0x8
    11e2:	8f5d                	or	a4,a4,a5
    11e4:	01254783          	lbu	a5,18(a0)
    11e8:	842a                	mv	s0,a0
    11ea:	07c2                	slli	a5,a5,0x10
    11ec:	8f5d                	or	a4,a4,a5
    11ee:	01354783          	lbu	a5,19(a0)
    11f2:	07e2                	slli	a5,a5,0x18
    11f4:	8fd9                	or	a5,a5,a4
    11f6:	4729                	li	a4,10
    11f8:	02e79163          	bne	a5,a4,121a <tcp_abandon+0x4c>
    11fc:	85aa                	mv	a1,a0
    11fe:	20000517          	auipc	a0,0x20000
    1202:	cb650513          	addi	a0,a0,-842 # 20000eb4 <tcp_tw_pcbs>
    1206:	3ec1                	jal	dd6 <tcp_pcb_remove>
    1208:	85a2                	mv	a1,s0
    120a:	4509                	li	a0,2
    120c:	3fd040ef          	jal	ra,5e08 <memp_free>
    1210:	0141                	addi	sp,sp,16
    1212:	2001f317          	auipc	t1,0x2001f
    1216:	e2e30067          	jr	-466(t1) # 20020040 <__riscv_restore_10>
    121a:	05154783          	lbu	a5,81(a0)
    121e:	05054903          	lbu	s2,80(a0)
    1222:	02254983          	lbu	s3,34(a0)
    1226:	07a2                	slli	a5,a5,0x8
    1228:	0127e7b3          	or	a5,a5,s2
    122c:	05254903          	lbu	s2,82(a0)
    1230:	00154703          	lbu	a4,1(a0)
    1234:	8bae                	mv	s7,a1
    1236:	0942                	slli	s2,s2,0x10
    1238:	00f967b3          	or	a5,s2,a5
    123c:	05354903          	lbu	s2,83(a0)
    1240:	0722                	slli	a4,a4,0x8
    1242:	0962                	slli	s2,s2,0x18
    1244:	00f96933          	or	s2,s2,a5
    1248:	02354783          	lbu	a5,35(a0)
    124c:	07a2                	slli	a5,a5,0x8
    124e:	0137e7b3          	or	a5,a5,s3
    1252:	02454983          	lbu	s3,36(a0)
    1256:	09c2                	slli	s3,s3,0x10
    1258:	00f9e7b3          	or	a5,s3,a5
    125c:	02554983          	lbu	s3,37(a0)
    1260:	09e2                	slli	s3,s3,0x18
    1262:	00f9e9b3          	or	s3,s3,a5
    1266:	00054783          	lbu	a5,0(a0)
    126a:	8f5d                	or	a4,a4,a5
    126c:	00254783          	lbu	a5,2(a0)
    1270:	07c2                	slli	a5,a5,0x10
    1272:	8f5d                	or	a4,a4,a5
    1274:	00354783          	lbu	a5,3(a0)
    1278:	07e2                	slli	a5,a5,0x18
    127a:	8fd9                	or	a5,a5,a4
    127c:	c63e                	sw	a5,12(sp)
    127e:	00554703          	lbu	a4,5(a0)
    1282:	00454783          	lbu	a5,4(a0)
    1286:	0722                	slli	a4,a4,0x8
    1288:	8f5d                	or	a4,a4,a5
    128a:	00654783          	lbu	a5,6(a0)
    128e:	07c2                	slli	a5,a5,0x10
    1290:	8f5d                	or	a4,a4,a5
    1292:	00754783          	lbu	a5,7(a0)
    1296:	07e2                	slli	a5,a5,0x18
    1298:	8fd9                	or	a5,a5,a4
    129a:	c43e                	sw	a5,8(sp)
    129c:	01a54a03          	lbu	s4,26(a0)
    12a0:	01954783          	lbu	a5,25(a0)
    12a4:	02054a83          	lbu	s5,32(a0)
    12a8:	0a22                	slli	s4,s4,0x8
    12aa:	00fa6a33          	or	s4,s4,a5
    12ae:	01f54783          	lbu	a5,31(a0)
    12b2:	0aa2                	slli	s5,s5,0x8
    12b4:	08854483          	lbu	s1,136(a0)
    12b8:	00faeab3          	or	s5,s5,a5
    12bc:	08954783          	lbu	a5,137(a0)
    12c0:	01554b03          	lbu	s6,21(a0)
    12c4:	07a2                	slli	a5,a5,0x8
    12c6:	8fc5                	or	a5,a5,s1
    12c8:	08a54483          	lbu	s1,138(a0)
    12cc:	04c2                	slli	s1,s1,0x10
    12ce:	8fc5                	or	a5,a5,s1
    12d0:	08b54483          	lbu	s1,139(a0)
    12d4:	04e2                	slli	s1,s1,0x18
    12d6:	8cdd                	or	s1,s1,a5
    12d8:	01654783          	lbu	a5,22(a0)
    12dc:	07a2                	slli	a5,a5,0x8
    12de:	0167e7b3          	or	a5,a5,s6
    12e2:	01754b03          	lbu	s6,23(a0)
    12e6:	0b42                	slli	s6,s6,0x10
    12e8:	00fb67b3          	or	a5,s6,a5
    12ec:	01854b03          	lbu	s6,24(a0)
    12f0:	0b62                	slli	s6,s6,0x18
    12f2:	00fb6b33          	or	s6,s6,a5
    12f6:	20021097          	auipc	ra,0x20021
    12fa:	ba6080e7          	jalr	-1114(ra) # 20021e9c <LwipRemoveTcpPcb>
    12fe:	20000517          	auipc	a0,0x20000
    1302:	ba250513          	addi	a0,a0,-1118 # 20000ea0 <tcp_active_pcbs>
    1306:	85a2                	mv	a1,s0
    1308:	34f9                	jal	dd6 <tcp_pcb_remove>
    130a:	06d44783          	lbu	a5,109(s0)
    130e:	06c44503          	lbu	a0,108(s0)
    1312:	07a2                	slli	a5,a5,0x8
    1314:	8fc9                	or	a5,a5,a0
    1316:	06e44503          	lbu	a0,110(s0)
    131a:	0542                	slli	a0,a0,0x10
    131c:	8fc9                	or	a5,a5,a0
    131e:	06f44503          	lbu	a0,111(s0)
    1322:	0562                	slli	a0,a0,0x18
    1324:	8d5d                	or	a0,a0,a5
    1326:	c119                	beqz	a0,132c <tcp_abandon+0x15e>
    1328:	b1cff0ef          	jal	ra,644 <tcp_segs_free>
    132c:	06944783          	lbu	a5,105(s0)
    1330:	06844503          	lbu	a0,104(s0)
    1334:	07a2                	slli	a5,a5,0x8
    1336:	8fc9                	or	a5,a5,a0
    1338:	06a44503          	lbu	a0,106(s0)
    133c:	0542                	slli	a0,a0,0x10
    133e:	8fc9                	or	a5,a5,a0
    1340:	06b44503          	lbu	a0,107(s0)
    1344:	0562                	slli	a0,a0,0x18
    1346:	8d5d                	or	a0,a0,a5
    1348:	c119                	beqz	a0,134e <tcp_abandon+0x180>
    134a:	afaff0ef          	jal	ra,644 <tcp_segs_free>
    134e:	07144783          	lbu	a5,113(s0)
    1352:	07044503          	lbu	a0,112(s0)
    1356:	07a2                	slli	a5,a5,0x8
    1358:	8fc9                	or	a5,a5,a0
    135a:	07244503          	lbu	a0,114(s0)
    135e:	0542                	slli	a0,a0,0x10
    1360:	8fc9                	or	a5,a5,a0
    1362:	07344503          	lbu	a0,115(s0)
    1366:	0562                	slli	a0,a0,0x18
    1368:	8d5d                	or	a0,a0,a5
    136a:	c119                	beqz	a0,1370 <tcp_abandon+0x1a2>
    136c:	ad8ff0ef          	jal	ra,644 <tcp_segs_free>
    1370:	85a2                	mv	a1,s0
    1372:	4509                	li	a0,2
    1374:	295040ef          	jal	ra,5e08 <memp_free>
    1378:	c481                	beqz	s1,1380 <tcp_abandon+0x1b2>
    137a:	55ed                	li	a1,-5
    137c:	855a                	mv	a0,s6
    137e:	9482                	jalr	s1
    1380:	e80b88e3          	beqz	s7,1210 <tcp_abandon+0x42>
    1384:	87d6                	mv	a5,s5
    1386:	8752                	mv	a4,s4
    1388:	0034                	addi	a3,sp,8
    138a:	0070                	addi	a2,sp,12
    138c:	85ce                	mv	a1,s3
    138e:	854a                	mv	a0,s2
    1390:	28f030ef          	jal	ra,4e1e <tcp_rst>
    1394:	bdb5                	j	1210 <tcp_abandon+0x42>

00001396 <tcp_next_iss>:
    1396:	1ffff797          	auipc	a5,0x1ffff
    139a:	ce278793          	addi	a5,a5,-798 # 20000078 <iss.3741>
    139e:	20000717          	auipc	a4,0x20000
    13a2:	b0670713          	addi	a4,a4,-1274 # 20000ea4 <tcp_ticks>
    13a6:	4388                	lw	a0,0(a5)
    13a8:	4318                	lw	a4,0(a4)
    13aa:	953a                	add	a0,a0,a4
    13ac:	c388                	sw	a0,0(a5)
    13ae:	8082                	ret

000013b0 <tcp_alloc>:
    13b0:	2001f317          	auipc	t1,0x2001f
    13b4:	c66302e7          	jalr	t0,-922(t1) # 20020016 <__riscv_save_4>
    13b8:	892a                	mv	s2,a0
    13ba:	4509                	li	a0,2
    13bc:	22d040ef          	jal	ra,5de8 <memp_malloc>
    13c0:	20000497          	auipc	s1,0x20000
    13c4:	a0048493          	addi	s1,s1,-1536 # 20000dc0 <CH569Cfg>
    13c8:	842a                	mv	s0,a0
    13ca:	e92d                	bnez	a0,143c <tcp_alloc+0x8c>
    13cc:	489c                	lw	a5,16(s1)
    13ce:	8b91                	andi	a5,a5,4
    13d0:	e799                	bnez	a5,13de <tcp_alloc+0x2e>
    13d2:	4401                	li	s0,0
    13d4:	8522                	mv	a0,s0
    13d6:	2001f317          	auipc	t1,0x2001f
    13da:	c7430067          	jr	-908(t1) # 2002004a <__riscv_restore_4>
    13de:	20000797          	auipc	a5,0x20000
    13e2:	ad678793          	addi	a5,a5,-1322 # 20000eb4 <tcp_tw_pcbs>
    13e6:	20000997          	auipc	s3,0x20000
    13ea:	abe98993          	addi	s3,s3,-1346 # 20000ea4 <tcp_ticks>
    13ee:	439c                	lw	a5,0(a5)
    13f0:	0009a583          	lw	a1,0(s3)
    13f4:	4501                	li	a0,0
    13f6:	4601                	li	a2,0
    13f8:	1a079163          	bnez	a5,159a <tcp_alloc+0x1ea>
    13fc:	c119                	beqz	a0,1402 <tcp_alloc+0x52>
    13fe:	4585                	li	a1,1
    1400:	33f9                	jal	11ce <tcp_abandon>
    1402:	4509                	li	a0,2
    1404:	1e5040ef          	jal	ra,5de8 <memp_malloc>
    1408:	842a                	mv	s0,a0
    140a:	e90d                	bnez	a0,143c <tcp_alloc+0x8c>
    140c:	20000797          	auipc	a5,0x20000
    1410:	a9478793          	addi	a5,a5,-1388 # 20000ea0 <tcp_active_pcbs>
    1414:	439c                	lw	a5,0(a5)
    1416:	0009a803          	lw	a6,0(s3)
    141a:	197d                	addi	s2,s2,-1
    141c:	0ff97913          	andi	s2,s2,255
    1420:	07f00593          	li	a1,127
    1424:	4501                	li	a0,0
    1426:	1a079d63          	bnez	a5,15e0 <tcp_alloc+0x230>
    142a:	c401                	beqz	s0,1432 <tcp_alloc+0x82>
    142c:	4585                	li	a1,1
    142e:	8522                	mv	a0,s0
    1430:	3b79                	jal	11ce <tcp_abandon>
    1432:	4509                	li	a0,2
    1434:	1b5040ef          	jal	ra,5de8 <memp_malloc>
    1438:	842a                	mv	s0,a0
    143a:	dd41                	beqz	a0,13d2 <tcp_alloc+0x22>
    143c:	09600613          	li	a2,150
    1440:	4581                	li	a1,0
    1442:	8522                	mv	a0,s0
    1444:	2001f097          	auipc	ra,0x2001f
    1448:	c1c080e7          	jalr	-996(ra) # 20020060 <memset>
    144c:	04000793          	li	a5,64
    1450:	00f40a23          	sb	a5,20(s0)
    1454:	02000793          	li	a5,32
    1458:	06f402a3          	sb	a5,101(s0)
    145c:	40dc                	lw	a5,4(s1)
    145e:	00040523          	sb	zero,10(s0)
    1462:	01079713          	slli	a4,a5,0x10
    1466:	8341                	srli	a4,a4,0x10
    1468:	0ff77693          	andi	a3,a4,255
    146c:	8321                	srli	a4,a4,0x8
    146e:	02e403a3          	sb	a4,39(s0)
    1472:	02e404a3          	sb	a4,41(s0)
    1476:	f8000713          	li	a4,-128
    147a:	00e405a3          	sb	a4,11(s0)
    147e:	02d40323          	sb	a3,38(s0)
    1482:	02d40423          	sb	a3,40(s0)
    1486:	21800713          	li	a4,536
    148a:	00f77463          	bgeu	a4,a5,1492 <tcp_alloc+0xe2>
    148e:	21800793          	li	a5,536
    1492:	07c2                	slli	a5,a5,0x10
    1494:	83c1                	srli	a5,a5,0x10
    1496:	02f40b23          	sb	a5,54(s0)
    149a:	83a1                	srli	a5,a5,0x8
    149c:	02f40ba3          	sb	a5,55(s0)
    14a0:	4799                	li	a5,6
    14a2:	04f40223          	sb	a5,68(s0)
    14a6:	04f40123          	sb	a5,66(s0)
    14aa:	57fd                	li	a5,-1
    14ac:	02f40a23          	sb	a5,52(s0)
    14b0:	02f40aa3          	sb	a5,53(s0)
    14b4:	4785                	li	a5,1
    14b6:	04f40623          	sb	a5,76(s0)
    14ba:	040402a3          	sb	zero,69(s0)
    14be:	04040023          	sb	zero,64(s0)
    14c2:	040400a3          	sb	zero,65(s0)
    14c6:	040401a3          	sb	zero,67(s0)
    14ca:	040406a3          	sb	zero,77(s0)
    14ce:	35e1                	jal	1396 <tcp_next_iss>
    14d0:	01055793          	srli	a5,a0,0x10
    14d4:	0ff7f793          	andi	a5,a5,255
    14d8:	04f40e23          	sb	a5,92(s0)
    14dc:	04f40923          	sb	a5,82(s0)
    14e0:	04f404a3          	sb	a5,73(s0)
    14e4:	06f40023          	sb	a5,96(s0)
    14e8:	20000797          	auipc	a5,0x20000
    14ec:	9bc78793          	addi	a5,a5,-1604 # 20000ea4 <tcp_ticks>
    14f0:	439c                	lw	a5,0(a5)
    14f2:	00855713          	srli	a4,a0,0x8
    14f6:	0ff77713          	andi	a4,a4,255
    14fa:	04e40da3          	sb	a4,91(s0)
    14fe:	04e408a3          	sb	a4,81(s0)
    1502:	04e40423          	sb	a4,72(s0)
    1506:	04e40fa3          	sb	a4,95(s0)
    150a:	0087d713          	srli	a4,a5,0x8
    150e:	02f40723          	sb	a5,46(s0)
    1512:	02e407a3          	sb	a4,47(s0)
    1516:	0107d713          	srli	a4,a5,0x10
    151a:	83e1                	srli	a5,a5,0x18
    151c:	02f408a3          	sb	a5,49(s0)
    1520:	00000797          	auipc	a5,0x0
    1524:	b4c78793          	addi	a5,a5,-1204 # 106c <tcp_recv_null>
    1528:	02e40823          	sb	a4,48(s0)
    152c:	0087d713          	srli	a4,a5,0x8
    1530:	06f40e23          	sb	a5,124(s0)
    1534:	06e40ea3          	sb	a4,125(s0)
    1538:	0107d713          	srli	a4,a5,0x10
    153c:	83e1                	srli	a5,a5,0x18
    153e:	06f40fa3          	sb	a5,127(s0)
    1542:	20000797          	auipc	a5,0x20000
    1546:	8ae78793          	addi	a5,a5,-1874 # 20000df0 <KeepLiveCfg>
    154a:	439c                	lw	a5,0(a5)
    154c:	06e40f23          	sb	a4,126(s0)
    1550:	0ff57693          	andi	a3,a0,255
    1554:	0087d713          	srli	a4,a5,0x8
    1558:	8161                	srli	a0,a0,0x18
    155a:	08f40623          	sb	a5,140(s0)
    155e:	08e406a3          	sb	a4,141(s0)
    1562:	0107d713          	srli	a4,a5,0x10
    1566:	83e1                	srli	a5,a5,0x18
    1568:	04d40d23          	sb	a3,90(s0)
    156c:	04a40ea3          	sb	a0,93(s0)
    1570:	04d40823          	sb	a3,80(s0)
    1574:	04a409a3          	sb	a0,83(s0)
    1578:	04d403a3          	sb	a3,71(s0)
    157c:	04a40523          	sb	a0,74(s0)
    1580:	04d40f23          	sb	a3,94(s0)
    1584:	06a400a3          	sb	a0,97(s0)
    1588:	02040923          	sb	zero,50(s0)
    158c:	08e40723          	sb	a4,142(s0)
    1590:	08f407a3          	sb	a5,143(s0)
    1594:	08040aa3          	sb	zero,149(s0)
    1598:	bd35                	j	13d4 <tcp_alloc+0x24>
    159a:	02f7c683          	lbu	a3,47(a5)
    159e:	02e7c703          	lbu	a4,46(a5)
    15a2:	06a2                	slli	a3,a3,0x8
    15a4:	8ed9                	or	a3,a3,a4
    15a6:	0307c703          	lbu	a4,48(a5)
    15aa:	0742                	slli	a4,a4,0x10
    15ac:	8ed9                	or	a3,a3,a4
    15ae:	0317c703          	lbu	a4,49(a5)
    15b2:	0762                	slli	a4,a4,0x18
    15b4:	8f55                	or	a4,a4,a3
    15b6:	40e58733          	sub	a4,a1,a4
    15ba:	00c76463          	bltu	a4,a2,15c2 <tcp_alloc+0x212>
    15be:	863a                	mv	a2,a4
    15c0:	853e                	mv	a0,a5
    15c2:	00d7c703          	lbu	a4,13(a5)
    15c6:	00c7c683          	lbu	a3,12(a5)
    15ca:	0722                	slli	a4,a4,0x8
    15cc:	8ed9                	or	a3,a3,a4
    15ce:	00e7c703          	lbu	a4,14(a5)
    15d2:	00f7c783          	lbu	a5,15(a5)
    15d6:	0742                	slli	a4,a4,0x10
    15d8:	8f55                	or	a4,a4,a3
    15da:	07e2                	slli	a5,a5,0x18
    15dc:	8fd9                	or	a5,a5,a4
    15de:	bd29                	j	13f8 <tcp_alloc+0x48>
    15e0:	0147c603          	lbu	a2,20(a5)
    15e4:	02c96963          	bltu	s2,a2,1616 <tcp_alloc+0x266>
    15e8:	02c5e763          	bltu	a1,a2,1616 <tcp_alloc+0x266>
    15ec:	02f7c683          	lbu	a3,47(a5)
    15f0:	02e7c703          	lbu	a4,46(a5)
    15f4:	06a2                	slli	a3,a3,0x8
    15f6:	8ed9                	or	a3,a3,a4
    15f8:	0307c703          	lbu	a4,48(a5)
    15fc:	0742                	slli	a4,a4,0x10
    15fe:	8ed9                	or	a3,a3,a4
    1600:	0317c703          	lbu	a4,49(a5)
    1604:	0762                	slli	a4,a4,0x18
    1606:	8f55                	or	a4,a4,a3
    1608:	40e80733          	sub	a4,a6,a4
    160c:	00a76563          	bltu	a4,a0,1616 <tcp_alloc+0x266>
    1610:	85b2                	mv	a1,a2
    1612:	853a                	mv	a0,a4
    1614:	843e                	mv	s0,a5
    1616:	00d7c703          	lbu	a4,13(a5)
    161a:	00c7c683          	lbu	a3,12(a5)
    161e:	0722                	slli	a4,a4,0x8
    1620:	8ed9                	or	a3,a3,a4
    1622:	00e7c703          	lbu	a4,14(a5)
    1626:	00f7c783          	lbu	a5,15(a5)
    162a:	0742                	slli	a4,a4,0x10
    162c:	8f55                	or	a4,a4,a3
    162e:	07e2                	slli	a5,a5,0x18
    1630:	8fd9                	or	a5,a5,a4
    1632:	bbd5                	j	1426 <tcp_alloc+0x76>

00001634 <tcp_eff_send_mss>:
    1634:	2001f317          	auipc	t1,0x2001f
    1638:	9fc302e7          	jalr	t0,-1540(t1) # 20020030 <__riscv_save_0>
    163c:	842a                	mv	s0,a0
    163e:	852e                	mv	a0,a1
    1640:	509030ef          	jal	ra,5348 <ip_route>
    1644:	cd19                	beqz	a0,1662 <tcp_eff_send_mss+0x2e>
    1646:	02455783          	lhu	a5,36(a0)
    164a:	cf81                	beqz	a5,1662 <tcp_eff_send_mss+0x2e>
    164c:	fd878793          	addi	a5,a5,-40
    1650:	873e                	mv	a4,a5
    1652:	07c2                	slli	a5,a5,0x10
    1654:	83c1                	srli	a5,a5,0x10
    1656:	00f47363          	bgeu	s0,a5,165c <tcp_eff_send_mss+0x28>
    165a:	8722                	mv	a4,s0
    165c:	01071413          	slli	s0,a4,0x10
    1660:	8041                	srli	s0,s0,0x10
    1662:	8522                	mv	a0,s0
    1664:	2001f317          	auipc	t1,0x2001f
    1668:	9f030067          	jr	-1552(t1) # 20020054 <__riscv_restore_0>

0000166c <tcp_parseopt>:
    166c:	2001f317          	auipc	t1,0x2001f
    1670:	9c4302e7          	jalr	t0,-1596(t1) # 20020030 <__riscv_save_0>
    1674:	1ffff917          	auipc	s2,0x1ffff
    1678:	a8890913          	addi	s2,s2,-1400 # 200000fc <tcphdr>
    167c:	00092483          	lw	s1,0(s2)
    1680:	842a                	mv	s0,a0
    1682:	00d4c783          	lbu	a5,13(s1)
    1686:	00c4c503          	lbu	a0,12(s1)
    168a:	07a2                	slli	a5,a5,0x8
    168c:	8d5d                	or	a0,a0,a5
    168e:	20021097          	auipc	ra,0x20021
    1692:	7d0080e7          	jalr	2000(ra) # 20022e5e <ntohs>
    1696:	8131                	srli	a0,a0,0xc
    1698:	0542                	slli	a0,a0,0x10
    169a:	8141                	srli	a0,a0,0x10
    169c:	4795                	li	a5,5
    169e:	04a7f263          	bgeu	a5,a0,16e2 <tcp_parseopt+0x76>
    16a2:	00092783          	lw	a5,0(s2)
    16a6:	04d1                	addi	s1,s1,20
    16a8:	00c7c503          	lbu	a0,12(a5)
    16ac:	00d7c783          	lbu	a5,13(a5)
    16b0:	07a2                	slli	a5,a5,0x8
    16b2:	8d5d                	or	a0,a0,a5
    16b4:	20021097          	auipc	ra,0x20021
    16b8:	7aa080e7          	jalr	1962(ra) # 20022e5e <ntohs>
    16bc:	1ffff797          	auipc	a5,0x1ffff
    16c0:	70478793          	addi	a5,a5,1796 # 20000dc0 <CH569Cfg>
    16c4:	43d0                	lw	a2,4(a5)
    16c6:	8131                	srli	a0,a0,0xc
    16c8:	156d                	addi	a0,a0,-5
    16ca:	050a                	slli	a0,a0,0x2
    16cc:	0542                	slli	a0,a0,0x10
    16ce:	01061593          	slli	a1,a2,0x10
    16d2:	8141                	srli	a0,a0,0x10
    16d4:	81c1                	srli	a1,a1,0x10
    16d6:	4781                	li	a5,0
    16d8:	4805                	li	a6,1
    16da:	4889                	li	a7,2
    16dc:	4311                	li	t1,4
    16de:	00a7e663          	bltu	a5,a0,16ea <tcp_parseopt+0x7e>
    16e2:	2001f317          	auipc	t1,0x2001f
    16e6:	97230067          	jr	-1678(t1) # 20020054 <__riscv_restore_0>
    16ea:	00f486b3          	add	a3,s1,a5
    16ee:	0006c703          	lbu	a4,0(a3)
    16f2:	01070a63          	beq	a4,a6,1706 <tcp_parseopt+0x9a>
    16f6:	d775                	beqz	a4,16e2 <tcp_parseopt+0x76>
    16f8:	01170b63          	beq	a4,a7,170e <tcp_parseopt+0xa2>
    16fc:	0016c703          	lbu	a4,1(a3)
    1700:	d36d                	beqz	a4,16e2 <tcp_parseopt+0x76>
    1702:	97ba                	add	a5,a5,a4
    1704:	a011                	j	1708 <tcp_parseopt+0x9c>
    1706:	0785                	addi	a5,a5,1
    1708:	07c2                	slli	a5,a5,0x10
    170a:	83c1                	srli	a5,a5,0x10
    170c:	bfc9                	j	16de <tcp_parseopt+0x72>
    170e:	0016c703          	lbu	a4,1(a3)
    1712:	fc6718e3          	bne	a4,t1,16e2 <tcp_parseopt+0x76>
    1716:	00378713          	addi	a4,a5,3
    171a:	fca754e3          	bge	a4,a0,16e2 <tcp_parseopt+0x76>
    171e:	0026c703          	lbu	a4,2(a3)
    1722:	0036c683          	lbu	a3,3(a3)
    1726:	0722                	slli	a4,a4,0x8
    1728:	8f55                	or	a4,a4,a3
    172a:	00e66363          	bltu	a2,a4,1730 <tcp_parseopt+0xc4>
    172e:	e311                	bnez	a4,1732 <tcp_parseopt+0xc6>
    1730:	872e                	mv	a4,a1
    1732:	02e40b23          	sb	a4,54(s0)
    1736:	8321                	srli	a4,a4,0x8
    1738:	02e40ba3          	sb	a4,55(s0)
    173c:	0791                	addi	a5,a5,4
    173e:	b7e9                	j	1708 <tcp_parseopt+0x9c>

00001740 <tcp_oos_insert_segment>:
    1740:	2001f317          	auipc	t1,0x2001f
    1744:	8d6302e7          	jalr	t0,-1834(t1) # 20020016 <__riscv_save_4>
    1748:	491c                	lw	a5,16(a0)
    174a:	84aa                	mv	s1,a0
    174c:	8a2e                	mv	s4,a1
    174e:	00c7c503          	lbu	a0,12(a5)
    1752:	00d7c783          	lbu	a5,13(a5)
    1756:	07a2                	slli	a5,a5,0x8
    1758:	8d5d                	or	a0,a0,a5
    175a:	20021097          	auipc	ra,0x20021
    175e:	704080e7          	jalr	1796(ra) # 20022e5e <ntohs>
    1762:	8905                	andi	a0,a0,1
    1764:	e52d                	bnez	a0,17ce <tcp_oos_insert_segment+0x8e>
    1766:	6941                	lui	s2,0x10
    1768:	1ffff997          	auipc	s3,0x1ffff
    176c:	99098993          	addi	s3,s3,-1648 # 200000f8 <seqno>
    1770:	fc090913          	addi	s2,s2,-64 # ffc0 <_ramcode_lma+0x7fc0>
    1774:	010a2703          	lw	a4,16(s4)
    1778:	0009a603          	lw	a2,0(s3)
    177c:	00c4d783          	lhu	a5,12(s1)
    1780:	00574683          	lbu	a3,5(a4)
    1784:	00474583          	lbu	a1,4(a4)
    1788:	97b2                	add	a5,a5,a2
    178a:	06a2                	slli	a3,a3,0x8
    178c:	8dd5                	or	a1,a1,a3
    178e:	00674683          	lbu	a3,6(a4)
    1792:	06c2                	slli	a3,a3,0x10
    1794:	8ecd                	or	a3,a3,a1
    1796:	00774583          	lbu	a1,7(a4)
    179a:	05e2                	slli	a1,a1,0x18
    179c:	8dd5                	or	a1,a1,a3
    179e:	00ca5683          	lhu	a3,12(s4)
    17a2:	96ae                	add	a3,a3,a1
    17a4:	40d786b3          	sub	a3,a5,a3
    17a8:	0206d863          	bgez	a3,17d8 <tcp_oos_insert_segment+0x98>
    17ac:	8f8d                	sub	a5,a5,a1
    17ae:	00f05a63          	blez	a5,17c2 <tcp_oos_insert_segment+0x82>
    17b2:	8d91                	sub	a1,a1,a2
    17b4:	05c2                	slli	a1,a1,0x10
    17b6:	40c8                	lw	a0,4(s1)
    17b8:	81c1                	srli	a1,a1,0x10
    17ba:	00b49623          	sh	a1,12(s1)
    17be:	3e4050ef          	jal	ra,6ba2 <pbuf_realloc>
    17c2:	0144a023          	sw	s4,0(s1)
    17c6:	2001f317          	auipc	t1,0x2001f
    17ca:	88430067          	jr	-1916(t1) # 2002004a <__riscv_restore_4>
    17ce:	8552                	mv	a0,s4
    17d0:	e75fe0ef          	jal	ra,644 <tcp_segs_free>
    17d4:	4a01                	li	s4,0
    17d6:	b7f5                	j	17c2 <tcp_oos_insert_segment+0x82>
    17d8:	00d74783          	lbu	a5,13(a4)
    17dc:	00c74503          	lbu	a0,12(a4)
    17e0:	07a2                	slli	a5,a5,0x8
    17e2:	8d5d                	or	a0,a0,a5
    17e4:	20021097          	auipc	ra,0x20021
    17e8:	67a080e7          	jalr	1658(ra) # 20022e5e <ntohs>
    17ec:	8905                	andi	a0,a0,1
    17ee:	c931                	beqz	a0,1842 <tcp_oos_insert_segment+0x102>
    17f0:	489c                	lw	a5,16(s1)
    17f2:	00d7c403          	lbu	s0,13(a5)
    17f6:	00c7c503          	lbu	a0,12(a5)
    17fa:	0422                	slli	s0,s0,0x8
    17fc:	8c49                	or	s0,s0,a0
    17fe:	854a                	mv	a0,s2
    1800:	20021097          	auipc	ra,0x20021
    1804:	650080e7          	jalr	1616(ra) # 20022e50 <htons>
    1808:	489c                	lw	a5,16(s1)
    180a:	8c69                	and	s0,s0,a0
    180c:	00c7c503          	lbu	a0,12(a5)
    1810:	00d7c783          	lbu	a5,13(a5)
    1814:	07a2                	slli	a5,a5,0x8
    1816:	8d5d                	or	a0,a0,a5
    1818:	20021097          	auipc	ra,0x20021
    181c:	646080e7          	jalr	1606(ra) # 20022e5e <ntohs>
    1820:	03e57513          	andi	a0,a0,62
    1824:	00156513          	ori	a0,a0,1
    1828:	20021097          	auipc	ra,0x20021
    182c:	628080e7          	jalr	1576(ra) # 20022e50 <htons>
    1830:	489c                	lw	a5,16(s1)
    1832:	8d41                	or	a0,a0,s0
    1834:	0542                	slli	a0,a0,0x10
    1836:	8141                	srli	a0,a0,0x10
    1838:	00a78623          	sb	a0,12(a5)
    183c:	8121                	srli	a0,a0,0x8
    183e:	00a786a3          	sb	a0,13(a5)
    1842:	000a2403          	lw	s0,0(s4)
    1846:	8552                	mv	a0,s4
    1848:	dcbfe0ef          	jal	ra,612 <tcp_seg_free>
    184c:	d441                	beqz	s0,17d4 <tcp_oos_insert_segment+0x94>
    184e:	8a22                	mv	s4,s0
    1850:	b715                	j	1774 <tcp_oos_insert_segment+0x34>

00001852 <tcp_receive>:
    1852:	2001e317          	auipc	t1,0x2001e
    1856:	7c4302e7          	jalr	t0,1988(t1) # 20020016 <__riscv_save_4>
    185a:	1ffff797          	auipc	a5,0x1ffff
    185e:	88e7c783          	lbu	a5,-1906(a5) # 200000e8 <flags>
    1862:	8bc1                	andi	a5,a5,16
    1864:	842a                	mv	s0,a0
    1866:	1ffff497          	auipc	s1,0x1ffff
    186a:	89248493          	addi	s1,s1,-1902 # 200000f8 <seqno>
    186e:	1e078963          	beqz	a5,1a60 <tcp_receive+0x20e>
    1872:	05554683          	lbu	a3,85(a0)
    1876:	05454783          	lbu	a5,84(a0)
    187a:	05a54603          	lbu	a2,90(a0)
    187e:	06a2                	slli	a3,a3,0x8
    1880:	8edd                	or	a3,a3,a5
    1882:	05b54783          	lbu	a5,91(a0)
    1886:	05654583          	lbu	a1,86(a0)
    188a:	4098                	lw	a4,0(s1)
    188c:	07a2                	slli	a5,a5,0x8
    188e:	8fd1                	or	a5,a5,a2
    1890:	05c54603          	lbu	a2,92(a0)
    1894:	1ffff917          	auipc	s2,0x1ffff
    1898:	85090913          	addi	s2,s2,-1968 # 200000e4 <ackno>
    189c:	0642                	slli	a2,a2,0x10
    189e:	8fd1                	or	a5,a5,a2
    18a0:	05d54603          	lbu	a2,93(a0)
    18a4:	0662                	slli	a2,a2,0x18
    18a6:	8e5d                	or	a2,a2,a5
    18a8:	05754783          	lbu	a5,87(a0)
    18ac:	07a2                	slli	a5,a5,0x8
    18ae:	8fcd                	or	a5,a5,a1
    18b0:	05854583          	lbu	a1,88(a0)
    18b4:	05c2                	slli	a1,a1,0x10
    18b6:	8fcd                	or	a5,a5,a1
    18b8:	05954583          	lbu	a1,89(a0)
    18bc:	05e2                	slli	a1,a1,0x18
    18be:	8ddd                	or	a1,a1,a5
    18c0:	40e58533          	sub	a0,a1,a4
    18c4:	00092783          	lw	a5,0(s2)
    18c8:	02054863          	bltz	a0,18f8 <tcp_receive+0xa6>
    18cc:	00e59663          	bne	a1,a4,18d8 <tcp_receive+0x86>
    18d0:	40f605b3          	sub	a1,a2,a5
    18d4:	0205c263          	bltz	a1,18f8 <tcp_receive+0xa6>
    18d8:	08f61363          	bne	a2,a5,195e <tcp_receive+0x10c>
    18dc:	1ffff597          	auipc	a1,0x1ffff
    18e0:	82058593          	addi	a1,a1,-2016 # 200000fc <tcphdr>
    18e4:	4188                	lw	a0,0(a1)
    18e6:	00f54583          	lbu	a1,15(a0)
    18ea:	00e54803          	lbu	a6,14(a0)
    18ee:	05a2                	slli	a1,a1,0x8
    18f0:	0105e5b3          	or	a1,a1,a6
    18f4:	06b6f563          	bgeu	a3,a1,195e <tcp_receive+0x10c>
    18f8:	1ffff597          	auipc	a1,0x1ffff
    18fc:	80458593          	addi	a1,a1,-2044 # 200000fc <tcphdr>
    1900:	4188                	lw	a0,0(a1)
    1902:	00f54583          	lbu	a1,15(a0)
    1906:	00e54803          	lbu	a6,14(a0)
    190a:	04e40b23          	sb	a4,86(s0)
    190e:	05a2                	slli	a1,a1,0x8
    1910:	0105e5b3          	or	a1,a1,a6
    1914:	0085d513          	srli	a0,a1,0x8
    1918:	04a40aa3          	sb	a0,85(s0)
    191c:	00875513          	srli	a0,a4,0x8
    1920:	04a40ba3          	sb	a0,87(s0)
    1924:	01075513          	srli	a0,a4,0x10
    1928:	8361                	srli	a4,a4,0x18
    192a:	04e40ca3          	sb	a4,89(s0)
    192e:	0087d713          	srli	a4,a5,0x8
    1932:	04e40da3          	sb	a4,91(s0)
    1936:	0107d713          	srli	a4,a5,0x10
    193a:	04e40e23          	sb	a4,92(s0)
    193e:	0187d713          	srli	a4,a5,0x18
    1942:	04b40a23          	sb	a1,84(s0)
    1946:	04a40c23          	sb	a0,88(s0)
    194a:	04f40d23          	sb	a5,90(s0)
    194e:	04e40ea3          	sb	a4,93(s0)
    1952:	c591                	beqz	a1,195e <tcp_receive+0x10c>
    1954:	09444703          	lbu	a4,148(s0)
    1958:	c319                	beqz	a4,195e <tcp_receive+0x10c>
    195a:	08040a23          	sb	zero,148(s0)
    195e:	04844703          	lbu	a4,72(s0)
    1962:	04744583          	lbu	a1,71(s0)
    1966:	0722                	slli	a4,a4,0x8
    1968:	8f4d                	or	a4,a4,a1
    196a:	04944583          	lbu	a1,73(s0)
    196e:	05c2                	slli	a1,a1,0x10
    1970:	8f4d                	or	a4,a4,a1
    1972:	04a44583          	lbu	a1,74(s0)
    1976:	05e2                	slli	a1,a1,0x18
    1978:	8dd9                	or	a1,a1,a4
    197a:	40b78733          	sub	a4,a5,a1
    197e:	4ee04963          	bgtz	a4,1e70 <tcp_receive+0x61e>
    1982:	06040123          	sb	zero,98(s0)
    1986:	060401a3          	sb	zero,99(s0)
    198a:	1fffe717          	auipc	a4,0x1fffe
    198e:	77675703          	lhu	a4,1910(a4) # 20000100 <tcplen>
    1992:	4c071c63          	bnez	a4,1e6a <tcp_receive+0x618>
    1996:	05b44503          	lbu	a0,91(s0)
    199a:	05a44703          	lbu	a4,90(s0)
    199e:	05444803          	lbu	a6,84(s0)
    19a2:	0522                	slli	a0,a0,0x8
    19a4:	8d59                	or	a0,a0,a4
    19a6:	05c44703          	lbu	a4,92(s0)
    19aa:	96b2                	add	a3,a3,a2
    19ac:	0742                	slli	a4,a4,0x10
    19ae:	8d59                	or	a0,a0,a4
    19b0:	05d44703          	lbu	a4,93(s0)
    19b4:	0762                	slli	a4,a4,0x18
    19b6:	8f49                	or	a4,a4,a0
    19b8:	05544503          	lbu	a0,85(s0)
    19bc:	0522                	slli	a0,a0,0x8
    19be:	01056533          	or	a0,a0,a6
    19c2:	972a                	add	a4,a4,a0
    19c4:	4ad71363          	bne	a4,a3,1e6a <tcp_receive+0x618>
    19c8:	03544703          	lbu	a4,53(s0)
    19cc:	03444683          	lbu	a3,52(s0)
    19d0:	0722                	slli	a4,a4,0x8
    19d2:	8f55                	or	a4,a4,a3
    19d4:	0742                	slli	a4,a4,0x10
    19d6:	8741                	srai	a4,a4,0x10
    19d8:	48074963          	bltz	a4,1e6a <tcp_receive+0x618>
    19dc:	48f59763          	bne	a1,a5,1e6a <tcp_receive+0x618>
    19e0:	04b44783          	lbu	a5,75(s0)
    19e4:	470d                	li	a4,3
    19e6:	0785                	addi	a5,a5,1
    19e8:	0ff7f793          	andi	a5,a5,255
    19ec:	04f405a3          	sb	a5,75(s0)
    19f0:	46f77763          	bgeu	a4,a5,1e5e <tcp_receive+0x60c>
    19f4:	04d44703          	lbu	a4,77(s0)
    19f8:	04c44783          	lbu	a5,76(s0)
    19fc:	03644683          	lbu	a3,54(s0)
    1a00:	0722                	slli	a4,a4,0x8
    1a02:	8f5d                	or	a4,a4,a5
    1a04:	03744783          	lbu	a5,55(s0)
    1a08:	07a2                	slli	a5,a5,0x8
    1a0a:	8fd5                	or	a5,a5,a3
    1a0c:	97ba                	add	a5,a5,a4
    1a0e:	07c2                	slli	a5,a5,0x10
    1a10:	83c1                	srli	a5,a5,0x10
    1a12:	00f77763          	bgeu	a4,a5,1a20 <tcp_receive+0x1ce>
    1a16:	04f40623          	sb	a5,76(s0)
    1a1a:	83a1                	srli	a5,a5,0x8
    1a1c:	04f406a3          	sb	a5,77(s0)
    1a20:	06944703          	lbu	a4,105(s0)
    1a24:	06844783          	lbu	a5,104(s0)
    1a28:	0722                	slli	a4,a4,0x8
    1a2a:	8f5d                	or	a4,a4,a5
    1a2c:	06a44783          	lbu	a5,106(s0)
    1a30:	07c2                	slli	a5,a5,0x10
    1a32:	8f5d                	or	a4,a4,a5
    1a34:	06b44783          	lbu	a5,107(s0)
    1a38:	07e2                	slli	a5,a5,0x18
    1a3a:	8fd9                	or	a5,a5,a4
    1a3c:	6e079763          	bnez	a5,212a <tcp_receive+0x8d8>
    1a40:	03944783          	lbu	a5,57(s0)
    1a44:	03844603          	lbu	a2,56(s0)
    1a48:	07a2                	slli	a5,a5,0x8
    1a4a:	8fd1                	or	a5,a5,a2
    1a4c:	03a44603          	lbu	a2,58(s0)
    1a50:	0642                	slli	a2,a2,0x10
    1a52:	8fd1                	or	a5,a5,a2
    1a54:	03b44603          	lbu	a2,59(s0)
    1a58:	0662                	slli	a2,a2,0x18
    1a5a:	8e5d                	or	a2,a2,a5
    1a5c:	020611e3          	bnez	a2,227e <tcp_receive+0xa2c>
    1a60:	02344603          	lbu	a2,35(s0)
    1a64:	02244703          	lbu	a4,34(s0)
    1a68:	1fffe517          	auipc	a0,0x1fffe
    1a6c:	69855503          	lhu	a0,1688(a0) # 20000100 <tcplen>
    1a70:	0622                	slli	a2,a2,0x8
    1a72:	8e59                	or	a2,a2,a4
    1a74:	02444703          	lbu	a4,36(s0)
    1a78:	409c                	lw	a5,0(s1)
    1a7a:	0742                	slli	a4,a4,0x10
    1a7c:	8e59                	or	a2,a2,a4
    1a7e:	02544703          	lbu	a4,37(s0)
    1a82:	0762                	slli	a4,a4,0x18
    1a84:	8f51                	or	a4,a4,a2
    1a86:	6c050be3          	beqz	a0,295c <tcp_receive+0x110a>
    1a8a:	40f705b3          	sub	a1,a4,a5
    1a8e:	fff58693          	addi	a3,a1,-1
    1a92:	1006c2e3          	bltz	a3,2396 <tcp_receive+0xb44>
    1a96:	4685                	li	a3,1
    1a98:	8e9d                	sub	a3,a3,a5
    1a9a:	8e89                	sub	a3,a3,a0
    1a9c:	96ba                	add	a3,a3,a4
    1a9e:	0ed04ce3          	bgtz	a3,2396 <tcp_receive+0xb44>
    1aa2:	1fffe997          	auipc	s3,0x1fffe
    1aa6:	68e98993          	addi	s3,s3,1678 # 20000130 <inseg>
    1aaa:	0049a903          	lw	s2,4(s3)
    1aae:	01059693          	slli	a3,a1,0x10
    1ab2:	82c1                	srli	a3,a3,0x10
    1ab4:	00b94703          	lbu	a4,11(s2)
    1ab8:	00a94783          	lbu	a5,10(s2)
    1abc:	0722                	slli	a4,a4,0x8
    1abe:	8f5d                	or	a4,a4,a5
    1ac0:	0cb755e3          	bge	a4,a1,238a <tcp_receive+0xb38>
    1ac4:	00994783          	lbu	a5,9(s2)
    1ac8:	00894703          	lbu	a4,8(s2)
    1acc:	07a2                	slli	a5,a5,0x8
    1ace:	8fd9                	or	a5,a5,a4
    1ad0:	8f95                	sub	a5,a5,a3
    1ad2:	07c2                	slli	a5,a5,0x10
    1ad4:	83c1                	srli	a5,a5,0x10
    1ad6:	0ff7f613          	andi	a2,a5,255
    1ada:	83a1                	srli	a5,a5,0x8
    1adc:	00b94703          	lbu	a4,11(s2)
    1ae0:	00a94683          	lbu	a3,10(s2)
    1ae4:	0722                	slli	a4,a4,0x8
    1ae6:	8f55                	or	a4,a4,a3
    1ae8:	06b747e3          	blt	a4,a1,2356 <tcp_receive+0xb04>
    1aec:	40b005b3          	neg	a1,a1
    1af0:	05c2                	slli	a1,a1,0x10
    1af2:	85c1                	srai	a1,a1,0x10
    1af4:	854a                	mv	a0,s2
    1af6:	4d1040ef          	jal	ra,67c6 <pbuf_header>
    1afa:	00594703          	lbu	a4,5(s2)
    1afe:	00494783          	lbu	a5,4(s2)
    1b02:	00c9d683          	lhu	a3,12(s3)
    1b06:	0722                	slli	a4,a4,0x8
    1b08:	8f5d                	or	a4,a4,a5
    1b0a:	00694783          	lbu	a5,6(s2)
    1b0e:	07c2                	slli	a5,a5,0x10
    1b10:	8f5d                	or	a4,a4,a5
    1b12:	00794783          	lbu	a5,7(s2)
    1b16:	07e2                	slli	a5,a5,0x18
    1b18:	8fd9                	or	a5,a5,a4
    1b1a:	1fffe717          	auipc	a4,0x1fffe
    1b1e:	60f72f23          	sw	a5,1566(a4) # 20000138 <inseg+0x8>
    1b22:	02344703          	lbu	a4,35(s0)
    1b26:	02244783          	lbu	a5,34(s0)
    1b2a:	0722                	slli	a4,a4,0x8
    1b2c:	8f5d                	or	a4,a4,a5
    1b2e:	02444783          	lbu	a5,36(s0)
    1b32:	07c2                	slli	a5,a5,0x10
    1b34:	8f5d                	or	a4,a4,a5
    1b36:	02544783          	lbu	a5,37(s0)
    1b3a:	07e2                	slli	a5,a5,0x18
    1b3c:	8fd9                	or	a5,a5,a4
    1b3e:	4098                	lw	a4,0(s1)
    1b40:	9736                	add	a4,a4,a3
    1b42:	8f1d                	sub	a4,a4,a5
    1b44:	1fffe697          	auipc	a3,0x1fffe
    1b48:	5ee69c23          	sh	a4,1528(a3) # 2000013c <inseg+0xc>
    1b4c:	1fffe717          	auipc	a4,0x1fffe
    1b50:	5af72623          	sw	a5,1452(a4) # 200000f8 <seqno>
    1b54:	0109a703          	lw	a4,16(s3)
    1b58:	0087d693          	srli	a3,a5,0x8
    1b5c:	00f70223          	sb	a5,4(a4)
    1b60:	00d702a3          	sb	a3,5(a4)
    1b64:	0107d693          	srli	a3,a5,0x10
    1b68:	83e1                	srli	a5,a5,0x18
    1b6a:	00d70323          	sb	a3,6(a4)
    1b6e:	00f703a3          	sb	a5,7(a4)
    1b72:	02344703          	lbu	a4,35(s0)
    1b76:	02244783          	lbu	a5,34(s0)
    1b7a:	4090                	lw	a2,0(s1)
    1b7c:	0722                	slli	a4,a4,0x8
    1b7e:	8f5d                	or	a4,a4,a5
    1b80:	02444783          	lbu	a5,36(s0)
    1b84:	07c2                	slli	a5,a5,0x10
    1b86:	8f5d                	or	a4,a4,a5
    1b88:	02544783          	lbu	a5,37(s0)
    1b8c:	07e2                	slli	a5,a5,0x18
    1b8e:	8fd9                	or	a5,a5,a4
    1b90:	40f60733          	sub	a4,a2,a5
    1b94:	5c0740e3          	bltz	a4,2954 <tcp_receive+0x1102>
    1b98:	02744683          	lbu	a3,39(s0)
    1b9c:	02644583          	lbu	a1,38(s0)
    1ba0:	00160713          	addi	a4,a2,1
    1ba4:	06a2                	slli	a3,a3,0x8
    1ba6:	8f1d                	sub	a4,a4,a5
    1ba8:	8ecd                	or	a3,a3,a1
    1baa:	8f15                	sub	a4,a4,a3
    1bac:	5ae044e3          	bgtz	a4,2954 <tcp_receive+0x1102>
    1bb0:	38f617e3          	bne	a2,a5,273e <tcp_receive+0xeec>
    1bb4:	1fffe917          	auipc	s2,0x1fffe
    1bb8:	57c90913          	addi	s2,s2,1404 # 20000130 <inseg>
    1bbc:	01092783          	lw	a5,16(s2)
    1bc0:	1fffe997          	auipc	s3,0x1fffe
    1bc4:	57c9d983          	lhu	s3,1404(s3) # 2000013c <inseg+0xc>
    1bc8:	00c7c503          	lbu	a0,12(a5)
    1bcc:	00d7c783          	lbu	a5,13(a5)
    1bd0:	07a2                	slli	a5,a5,0x8
    1bd2:	8d5d                	or	a0,a0,a5
    1bd4:	20021097          	auipc	ra,0x20021
    1bd8:	28a080e7          	jalr	650(ra) # 20022e5e <ntohs>
    1bdc:	890d                	andi	a0,a0,3
    1bde:	00a03533          	snez	a0,a0
    1be2:	954e                	add	a0,a0,s3
    1be4:	0542                	slli	a0,a0,0x10
    1be6:	8141                	srli	a0,a0,0x10
    1be8:	1fffe797          	auipc	a5,0x1fffe
    1bec:	50a79c23          	sh	a0,1304(a5) # 20000100 <tcplen>
    1bf0:	02744783          	lbu	a5,39(s0)
    1bf4:	02644703          	lbu	a4,38(s0)
    1bf8:	07a2                	slli	a5,a5,0x8
    1bfa:	8fd9                	or	a5,a5,a4
    1bfc:	0ea7fe63          	bgeu	a5,a0,1cf8 <tcp_receive+0x4a6>
    1c00:	01092783          	lw	a5,16(s2)
    1c04:	00c7c503          	lbu	a0,12(a5)
    1c08:	00d7c783          	lbu	a5,13(a5)
    1c0c:	07a2                	slli	a5,a5,0x8
    1c0e:	8d5d                	or	a0,a0,a5
    1c10:	20021097          	auipc	ra,0x20021
    1c14:	24e080e7          	jalr	590(ra) # 20022e5e <ntohs>
    1c18:	8905                	andi	a0,a0,1
    1c1a:	c125                	beqz	a0,1c7a <tcp_receive+0x428>
    1c1c:	01092783          	lw	a5,16(s2)
    1c20:	00d7c983          	lbu	s3,13(a5)
    1c24:	00c7c503          	lbu	a0,12(a5)
    1c28:	09a2                	slli	s3,s3,0x8
    1c2a:	00a9e9b3          	or	s3,s3,a0
    1c2e:	6541                	lui	a0,0x10
    1c30:	fc050513          	addi	a0,a0,-64 # ffc0 <_ramcode_lma+0x7fc0>
    1c34:	20021097          	auipc	ra,0x20021
    1c38:	21c080e7          	jalr	540(ra) # 20022e50 <htons>
    1c3c:	01092783          	lw	a5,16(s2)
    1c40:	00a9f9b3          	and	s3,s3,a0
    1c44:	00c7c503          	lbu	a0,12(a5)
    1c48:	00d7c783          	lbu	a5,13(a5)
    1c4c:	07a2                	slli	a5,a5,0x8
    1c4e:	8d5d                	or	a0,a0,a5
    1c50:	20021097          	auipc	ra,0x20021
    1c54:	20e080e7          	jalr	526(ra) # 20022e5e <ntohs>
    1c58:	03e57513          	andi	a0,a0,62
    1c5c:	20021097          	auipc	ra,0x20021
    1c60:	1f4080e7          	jalr	500(ra) # 20022e50 <htons>
    1c64:	01092783          	lw	a5,16(s2)
    1c68:	00a9e533          	or	a0,s3,a0
    1c6c:	0542                	slli	a0,a0,0x10
    1c6e:	8141                	srli	a0,a0,0x10
    1c70:	00a78623          	sb	a0,12(a5)
    1c74:	8121                	srli	a0,a0,0x8
    1c76:	00a786a3          	sb	a0,13(a5)
    1c7a:	02744783          	lbu	a5,39(s0)
    1c7e:	02644703          	lbu	a4,38(s0)
    1c82:	07a2                	slli	a5,a5,0x8
    1c84:	8fd9                	or	a5,a5,a4
    1c86:	1fffe717          	auipc	a4,0x1fffe
    1c8a:	4af71b23          	sh	a5,1206(a4) # 2000013c <inseg+0xc>
    1c8e:	01092783          	lw	a5,16(s2)
    1c92:	00c7c503          	lbu	a0,12(a5)
    1c96:	00d7c783          	lbu	a5,13(a5)
    1c9a:	07a2                	slli	a5,a5,0x8
    1c9c:	8d5d                	or	a0,a0,a5
    1c9e:	20021097          	auipc	ra,0x20021
    1ca2:	1c0080e7          	jalr	448(ra) # 20022e5e <ntohs>
    1ca6:	8909                	andi	a0,a0,2
    1ca8:	c901                	beqz	a0,1cb8 <tcp_receive+0x466>
    1caa:	00c95783          	lhu	a5,12(s2)
    1cae:	17fd                	addi	a5,a5,-1
    1cb0:	1fffe717          	auipc	a4,0x1fffe
    1cb4:	48f71623          	sh	a5,1164(a4) # 2000013c <inseg+0xc>
    1cb8:	00492503          	lw	a0,4(s2)
    1cbc:	1fffe597          	auipc	a1,0x1fffe
    1cc0:	4805d583          	lhu	a1,1152(a1) # 2000013c <inseg+0xc>
    1cc4:	6df040ef          	jal	ra,6ba2 <pbuf_realloc>
    1cc8:	01092783          	lw	a5,16(s2)
    1ccc:	1fffe997          	auipc	s3,0x1fffe
    1cd0:	4709d983          	lhu	s3,1136(s3) # 2000013c <inseg+0xc>
    1cd4:	00c7c503          	lbu	a0,12(a5)
    1cd8:	00d7c783          	lbu	a5,13(a5)
    1cdc:	07a2                	slli	a5,a5,0x8
    1cde:	8d5d                	or	a0,a0,a5
    1ce0:	20021097          	auipc	ra,0x20021
    1ce4:	17e080e7          	jalr	382(ra) # 20022e5e <ntohs>
    1ce8:	890d                	andi	a0,a0,3
    1cea:	00a03533          	snez	a0,a0
    1cee:	99aa                	add	s3,s3,a0
    1cf0:	1fffe797          	auipc	a5,0x1fffe
    1cf4:	41379823          	sh	s3,1040(a5) # 20000100 <tcplen>
    1cf8:	07144703          	lbu	a4,113(s0)
    1cfc:	07044783          	lbu	a5,112(s0)
    1d00:	0722                	slli	a4,a4,0x8
    1d02:	8f5d                	or	a4,a4,a5
    1d04:	07244783          	lbu	a5,114(s0)
    1d08:	07c2                	slli	a5,a5,0x10
    1d0a:	8f5d                	or	a4,a4,a5
    1d0c:	07344783          	lbu	a5,115(s0)
    1d10:	07e2                	slli	a5,a5,0x18
    1d12:	8fd9                	or	a5,a5,a4
    1d14:	6e078063          	beqz	a5,23f4 <tcp_receive+0xba2>
    1d18:	01092783          	lw	a5,16(s2)
    1d1c:	00c7c503          	lbu	a0,12(a5)
    1d20:	00d7c783          	lbu	a5,13(a5)
    1d24:	07a2                	slli	a5,a5,0x8
    1d26:	8d5d                	or	a0,a0,a5
    1d28:	20021097          	auipc	ra,0x20021
    1d2c:	136080e7          	jalr	310(ra) # 20022e5e <ntohs>
    1d30:	8905                	andi	a0,a0,1
    1d32:	6a051263          	bnez	a0,23d6 <tcp_receive+0xb84>
    1d36:	07144783          	lbu	a5,113(s0)
    1d3a:	07044983          	lbu	s3,112(s0)
    1d3e:	6ac1                	lui	s5,0x10
    1d40:	07a2                	slli	a5,a5,0x8
    1d42:	0137e7b3          	or	a5,a5,s3
    1d46:	07244983          	lbu	s3,114(s0)
    1d4a:	fc0a8a93          	addi	s5,s5,-64 # ffc0 <_ramcode_lma+0x7fc0>
    1d4e:	09c2                	slli	s3,s3,0x10
    1d50:	00f9e7b3          	or	a5,s3,a5
    1d54:	07344983          	lbu	s3,115(s0)
    1d58:	09e2                	slli	s3,s3,0x18
    1d5a:	00f9e9b3          	or	s3,s3,a5
    1d5e:	4088                	lw	a0,0(s1)
    1d60:	1fffe717          	auipc	a4,0x1fffe
    1d64:	3a075703          	lhu	a4,928(a4) # 20000100 <tcplen>
    1d68:	972a                	add	a4,a4,a0
    1d6a:	0c098b63          	beqz	s3,1e40 <tcp_receive+0x5ee>
    1d6e:	0109a603          	lw	a2,16(s3)
    1d72:	00c9d583          	lhu	a1,12(s3)
    1d76:	00564783          	lbu	a5,5(a2)
    1d7a:	00464683          	lbu	a3,4(a2)
    1d7e:	07a2                	slli	a5,a5,0x8
    1d80:	8fd5                	or	a5,a5,a3
    1d82:	00664683          	lbu	a3,6(a2)
    1d86:	06c2                	slli	a3,a3,0x10
    1d88:	8fd5                	or	a5,a5,a3
    1d8a:	00764683          	lbu	a3,7(a2)
    1d8e:	06e2                	slli	a3,a3,0x18
    1d90:	8edd                	or	a3,a3,a5
    1d92:	95b6                	add	a1,a1,a3
    1d94:	40b705b3          	sub	a1,a4,a1
    1d98:	7005d663          	bgez	a1,24a4 <tcp_receive+0xc52>
    1d9c:	8f15                	sub	a4,a4,a3
    1d9e:	0ae05163          	blez	a4,1e40 <tcp_receive+0x5ee>
    1da2:	07144683          	lbu	a3,113(s0)
    1da6:	07044703          	lbu	a4,112(s0)
    1daa:	06a2                	slli	a3,a3,0x8
    1dac:	8ed9                	or	a3,a3,a4
    1dae:	07244703          	lbu	a4,114(s0)
    1db2:	0742                	slli	a4,a4,0x10
    1db4:	8ed9                	or	a3,a3,a4
    1db6:	07344703          	lbu	a4,115(s0)
    1dba:	0762                	slli	a4,a4,0x18
    1dbc:	8f55                	or	a4,a4,a3
    1dbe:	4b18                	lw	a4,16(a4)
    1dc0:	00574783          	lbu	a5,5(a4)
    1dc4:	00474683          	lbu	a3,4(a4)
    1dc8:	07a2                	slli	a5,a5,0x8
    1dca:	8fd5                	or	a5,a5,a3
    1dcc:	8f89                	sub	a5,a5,a0
    1dce:	1fffe717          	auipc	a4,0x1fffe
    1dd2:	36f71723          	sh	a5,878(a4) # 2000013c <inseg+0xc>
    1dd6:	01092783          	lw	a5,16(s2)
    1dda:	00c7c503          	lbu	a0,12(a5)
    1dde:	00d7c783          	lbu	a5,13(a5)
    1de2:	07a2                	slli	a5,a5,0x8
    1de4:	8d5d                	or	a0,a0,a5
    1de6:	20021097          	auipc	ra,0x20021
    1dea:	078080e7          	jalr	120(ra) # 20022e5e <ntohs>
    1dee:	8909                	andi	a0,a0,2
    1df0:	c901                	beqz	a0,1e00 <tcp_receive+0x5ae>
    1df2:	00c95783          	lhu	a5,12(s2)
    1df6:	17fd                	addi	a5,a5,-1
    1df8:	1fffe717          	auipc	a4,0x1fffe
    1dfc:	34f71223          	sh	a5,836(a4) # 2000013c <inseg+0xc>
    1e00:	00492503          	lw	a0,4(s2)
    1e04:	1fffe597          	auipc	a1,0x1fffe
    1e08:	3385d583          	lhu	a1,824(a1) # 2000013c <inseg+0xc>
    1e0c:	597040ef          	jal	ra,6ba2 <pbuf_realloc>
    1e10:	01092783          	lw	a5,16(s2)
    1e14:	1fffea17          	auipc	s4,0x1fffe
    1e18:	328a5a03          	lhu	s4,808(s4) # 2000013c <inseg+0xc>
    1e1c:	00c7c503          	lbu	a0,12(a5)
    1e20:	00d7c783          	lbu	a5,13(a5)
    1e24:	07a2                	slli	a5,a5,0x8
    1e26:	8d5d                	or	a0,a0,a5
    1e28:	20021097          	auipc	ra,0x20021
    1e2c:	036080e7          	jalr	54(ra) # 20022e5e <ntohs>
    1e30:	890d                	andi	a0,a0,3
    1e32:	00a03533          	snez	a0,a0
    1e36:	9a2a                	add	s4,s4,a0
    1e38:	1fffe797          	auipc	a5,0x1fffe
    1e3c:	2d479423          	sh	s4,712(a5) # 20000100 <tcplen>
    1e40:	0089d793          	srli	a5,s3,0x8
    1e44:	07340823          	sb	s3,112(s0)
    1e48:	06f408a3          	sb	a5,113(s0)
    1e4c:	0109d793          	srli	a5,s3,0x10
    1e50:	0189d993          	srli	s3,s3,0x18
    1e54:	06f40923          	sb	a5,114(s0)
    1e58:	073409a3          	sb	s3,115(s0)
    1e5c:	ab61                	j	23f4 <tcp_receive+0xba2>
    1e5e:	bce791e3          	bne	a5,a4,1a20 <tcp_receive+0x1ce>
    1e62:	8522                	mv	a0,s0
    1e64:	298030ef          	jal	ra,50fc <tcp_rexmit_fast>
    1e68:	be65                	j	1a20 <tcp_receive+0x1ce>
    1e6a:	040405a3          	sb	zero,75(s0)
    1e6e:	be4d                	j	1a20 <tcp_receive+0x1ce>
    1e70:	05144603          	lbu	a2,81(s0)
    1e74:	05044683          	lbu	a3,80(s0)
    1e78:	0622                	slli	a2,a2,0x8
    1e7a:	8e55                	or	a2,a2,a3
    1e7c:	05244683          	lbu	a3,82(s0)
    1e80:	06c2                	slli	a3,a3,0x10
    1e82:	8e55                	or	a2,a2,a3
    1e84:	05344683          	lbu	a3,83(s0)
    1e88:	06e2                	slli	a3,a3,0x18
    1e8a:	8ed1                	or	a3,a3,a2
    1e8c:	40d786b3          	sub	a3,a5,a3
    1e90:	28d04863          	bgtz	a3,2120 <tcp_receive+0x8ce>
    1e94:	02144683          	lbu	a3,33(s0)
    1e98:	0046f613          	andi	a2,a3,4
    1e9c:	ce19                	beqz	a2,1eba <tcp_receive+0x668>
    1e9e:	9aed                	andi	a3,a3,-5
    1ea0:	02d400a3          	sb	a3,33(s0)
    1ea4:	04f44683          	lbu	a3,79(s0)
    1ea8:	04e44603          	lbu	a2,78(s0)
    1eac:	06a2                	slli	a3,a3,0x8
    1eae:	8ed1                	or	a3,a3,a2
    1eb0:	04d40623          	sb	a3,76(s0)
    1eb4:	82a1                	srli	a3,a3,0x8
    1eb6:	04d406a3          	sb	a3,77(s0)
    1eba:	04144683          	lbu	a3,65(s0)
    1ebe:	04044603          	lbu	a2,64(s0)
    1ec2:	04244583          	lbu	a1,66(s0)
    1ec6:	06a2                	slli	a3,a3,0x8
    1ec8:	8ed1                	or	a3,a3,a2
    1eca:	06c2                	slli	a3,a3,0x10
    1ecc:	86c1                	srai	a3,a3,0x10
    1ece:	4036d613          	srai	a2,a3,0x3
    1ed2:	04344683          	lbu	a3,67(s0)
    1ed6:	0742                	slli	a4,a4,0x10
    1ed8:	8341                	srli	a4,a4,0x10
    1eda:	06a2                	slli	a3,a3,0x8
    1edc:	8ecd                	or	a3,a3,a1
    1ede:	96b2                	add	a3,a3,a2
    1ee0:	06c2                	slli	a3,a3,0x10
    1ee2:	82c1                	srli	a3,a3,0x10
    1ee4:	04d40223          	sb	a3,68(s0)
    1ee8:	82a1                	srli	a3,a3,0x8
    1eea:	04d402a3          	sb	a3,69(s0)
    1eee:	00875693          	srli	a3,a4,0x8
    1ef2:	06d401a3          	sb	a3,99(s0)
    1ef6:	06544683          	lbu	a3,101(s0)
    1efa:	06444603          	lbu	a2,100(s0)
    1efe:	06e40123          	sb	a4,98(s0)
    1f02:	06a2                	slli	a3,a3,0x8
    1f04:	8ed1                	or	a3,a3,a2
    1f06:	9736                	add	a4,a4,a3
    1f08:	0742                	slli	a4,a4,0x10
    1f0a:	8341                	srli	a4,a4,0x10
    1f0c:	06e40223          	sb	a4,100(s0)
    1f10:	8321                	srli	a4,a4,0x8
    1f12:	06e402a3          	sb	a4,101(s0)
    1f16:	0087d713          	srli	a4,a5,0x8
    1f1a:	04e40423          	sb	a4,72(s0)
    1f1e:	0107d713          	srli	a4,a5,0x10
    1f22:	04f403a3          	sb	a5,71(s0)
    1f26:	04e404a3          	sb	a4,73(s0)
    1f2a:	83e1                	srli	a5,a5,0x18
    1f2c:	01144703          	lbu	a4,17(s0)
    1f30:	04f40523          	sb	a5,74(s0)
    1f34:	01044783          	lbu	a5,16(s0)
    1f38:	0722                	slli	a4,a4,0x8
    1f3a:	04040323          	sb	zero,70(s0)
    1f3e:	8f5d                	or	a4,a4,a5
    1f40:	01244783          	lbu	a5,18(s0)
    1f44:	040405a3          	sb	zero,75(s0)
    1f48:	07c2                	slli	a5,a5,0x10
    1f4a:	8f5d                	or	a4,a4,a5
    1f4c:	01344783          	lbu	a5,19(s0)
    1f50:	07e2                	slli	a5,a5,0x18
    1f52:	8fd9                	or	a5,a5,a4
    1f54:	470d                	li	a4,3
    1f56:	04f77063          	bgeu	a4,a5,1f96 <tcp_receive+0x744>
    1f5a:	04d44703          	lbu	a4,77(s0)
    1f5e:	04c44783          	lbu	a5,76(s0)
    1f62:	03644683          	lbu	a3,54(s0)
    1f66:	0722                	slli	a4,a4,0x8
    1f68:	8f5d                	or	a4,a4,a5
    1f6a:	03744783          	lbu	a5,55(s0)
    1f6e:	04e44603          	lbu	a2,78(s0)
    1f72:	07a2                	slli	a5,a5,0x8
    1f74:	8fd5                	or	a5,a5,a3
    1f76:	04f44683          	lbu	a3,79(s0)
    1f7a:	06a2                	slli	a3,a3,0x8
    1f7c:	8ed1                	or	a3,a3,a2
    1f7e:	06d77763          	bgeu	a4,a3,1fec <tcp_receive+0x79a>
    1f82:	97ba                	add	a5,a5,a4
    1f84:	07c2                	slli	a5,a5,0x10
    1f86:	83c1                	srli	a5,a5,0x10
    1f88:	00f77763          	bgeu	a4,a5,1f96 <tcp_receive+0x744>
    1f8c:	04f40623          	sb	a5,76(s0)
    1f90:	83a1                	srli	a5,a5,0x8
    1f92:	04f406a3          	sb	a5,77(s0)
    1f96:	06d44703          	lbu	a4,109(s0)
    1f9a:	06c44783          	lbu	a5,108(s0)
    1f9e:	0722                	slli	a4,a4,0x8
    1fa0:	8f5d                	or	a4,a4,a5
    1fa2:	06e44783          	lbu	a5,110(s0)
    1fa6:	07c2                	slli	a5,a5,0x10
    1fa8:	8f5d                	or	a4,a4,a5
    1faa:	06f44783          	lbu	a5,111(s0)
    1fae:	07e2                	slli	a5,a5,0x18
    1fb0:	8fd9                	or	a5,a5,a4
    1fb2:	e3b1                	bnez	a5,1ff6 <tcp_receive+0x7a4>
    1fb4:	06d44703          	lbu	a4,109(s0)
    1fb8:	06c44783          	lbu	a5,108(s0)
    1fbc:	02040923          	sb	zero,50(s0)
    1fc0:	0722                	slli	a4,a4,0x8
    1fc2:	8f5d                	or	a4,a4,a5
    1fc4:	06e44783          	lbu	a5,110(s0)
    1fc8:	07c2                	slli	a5,a5,0x10
    1fca:	8f5d                	or	a4,a4,a5
    1fcc:	06f44783          	lbu	a5,111(s0)
    1fd0:	07e2                	slli	a5,a5,0x18
    1fd2:	8fd9                	or	a5,a5,a4
    1fd4:	0017b793          	seqz	a5,a5
    1fd8:	40f007b3          	neg	a5,a5
    1fdc:	07c2                	slli	a5,a5,0x10
    1fde:	83c1                	srli	a5,a5,0x10
    1fe0:	02f40a23          	sb	a5,52(s0)
    1fe4:	83a1                	srli	a5,a5,0x8
    1fe6:	02f40aa3          	sb	a5,53(s0)
    1fea:	bc1d                	j	1a20 <tcp_receive+0x1ce>
    1fec:	02f787b3          	mul	a5,a5,a5
    1ff0:	02e7c7b3          	div	a5,a5,a4
    1ff4:	b779                	j	1f82 <tcp_receive+0x730>
    1ff6:	4b98                	lw	a4,16(a5)
    1ff8:	00574503          	lbu	a0,5(a4)
    1ffc:	00474783          	lbu	a5,4(a4)
    2000:	0522                	slli	a0,a0,0x8
    2002:	8d5d                	or	a0,a0,a5
    2004:	00674783          	lbu	a5,6(a4)
    2008:	07c2                	slli	a5,a5,0x10
    200a:	8fc9                	or	a5,a5,a0
    200c:	00774503          	lbu	a0,7(a4)
    2010:	0562                	slli	a0,a0,0x18
    2012:	8d5d                	or	a0,a0,a5
    2014:	20021097          	auipc	ra,0x20021
    2018:	e7c080e7          	jalr	-388(ra) # 20022e90 <ntohl>
    201c:	06d44703          	lbu	a4,109(s0)
    2020:	06c44783          	lbu	a5,108(s0)
    2024:	89aa                	mv	s3,a0
    2026:	0722                	slli	a4,a4,0x8
    2028:	8f5d                	or	a4,a4,a5
    202a:	06e44783          	lbu	a5,110(s0)
    202e:	07c2                	slli	a5,a5,0x10
    2030:	8f5d                	or	a4,a4,a5
    2032:	06f44783          	lbu	a5,111(s0)
    2036:	07e2                	slli	a5,a5,0x18
    2038:	8fd9                	or	a5,a5,a4
    203a:	00c7da03          	lhu	s4,12(a5)
    203e:	4b9c                	lw	a5,16(a5)
    2040:	00c7c503          	lbu	a0,12(a5)
    2044:	00d7c783          	lbu	a5,13(a5)
    2048:	07a2                	slli	a5,a5,0x8
    204a:	8d5d                	or	a0,a0,a5
    204c:	20021097          	auipc	ra,0x20021
    2050:	e12080e7          	jalr	-494(ra) # 20022e5e <ntohs>
    2054:	00092783          	lw	a5,0(s2)
    2058:	890d                	andi	a0,a0,3
    205a:	00a03533          	snez	a0,a0
    205e:	9552                	add	a0,a0,s4
    2060:	40f989b3          	sub	s3,s3,a5
    2064:	954e                	add	a0,a0,s3
    2066:	f4a047e3          	bgtz	a0,1fb4 <tcp_receive+0x762>
    206a:	06d44783          	lbu	a5,109(s0)
    206e:	06c44983          	lbu	s3,108(s0)
    2072:	06244703          	lbu	a4,98(s0)
    2076:	07a2                	slli	a5,a5,0x8
    2078:	0137e7b3          	or	a5,a5,s3
    207c:	06e44983          	lbu	s3,110(s0)
    2080:	09c2                	slli	s3,s3,0x10
    2082:	00f9e7b3          	or	a5,s3,a5
    2086:	06f44983          	lbu	s3,111(s0)
    208a:	09e2                	slli	s3,s3,0x18
    208c:	00f9e9b3          	or	s3,s3,a5
    2090:	0009c783          	lbu	a5,0(s3)
    2094:	06f40623          	sb	a5,108(s0)
    2098:	0019c783          	lbu	a5,1(s3)
    209c:	06f406a3          	sb	a5,109(s0)
    20a0:	0029c783          	lbu	a5,2(s3)
    20a4:	06f40723          	sb	a5,110(s0)
    20a8:	0039c783          	lbu	a5,3(s3)
    20ac:	06f407a3          	sb	a5,111(s0)
    20b0:	06344783          	lbu	a5,99(s0)
    20b4:	07a2                	slli	a5,a5,0x8
    20b6:	8fd9                	or	a5,a5,a4
    20b8:	cf8d                	beqz	a5,20f2 <tcp_receive+0x8a0>
    20ba:	0109a783          	lw	a5,16(s3)
    20be:	00c7c503          	lbu	a0,12(a5)
    20c2:	00d7c783          	lbu	a5,13(a5)
    20c6:	07a2                	slli	a5,a5,0x8
    20c8:	8d5d                	or	a0,a0,a5
    20ca:	20021097          	auipc	ra,0x20021
    20ce:	d94080e7          	jalr	-620(ra) # 20022e5e <ntohs>
    20d2:	8905                	andi	a0,a0,1
    20d4:	cd19                	beqz	a0,20f2 <tcp_receive+0x8a0>
    20d6:	06344783          	lbu	a5,99(s0)
    20da:	06244703          	lbu	a4,98(s0)
    20de:	07a2                	slli	a5,a5,0x8
    20e0:	8fd9                	or	a5,a5,a4
    20e2:	17fd                	addi	a5,a5,-1
    20e4:	07c2                	slli	a5,a5,0x10
    20e6:	83c1                	srli	a5,a5,0x10
    20e8:	06f40123          	sb	a5,98(s0)
    20ec:	83a1                	srli	a5,a5,0x8
    20ee:	06f401a3          	sb	a5,99(s0)
    20f2:	0049a503          	lw	a0,4(s3)
    20f6:	3a3040ef          	jal	ra,6c98 <pbuf_clen>
    20fa:	06744783          	lbu	a5,103(s0)
    20fe:	06644703          	lbu	a4,102(s0)
    2102:	07a2                	slli	a5,a5,0x8
    2104:	8fd9                	or	a5,a5,a4
    2106:	40a78533          	sub	a0,a5,a0
    210a:	0542                	slli	a0,a0,0x10
    210c:	8141                	srli	a0,a0,0x10
    210e:	06a40323          	sb	a0,102(s0)
    2112:	8121                	srli	a0,a0,0x8
    2114:	06a403a3          	sb	a0,103(s0)
    2118:	854e                	mv	a0,s3
    211a:	cf8fe0ef          	jal	ra,612 <tcp_seg_free>
    211e:	bda5                	j	1f96 <tcp_receive+0x744>
    2120:	06040123          	sb	zero,98(s0)
    2124:	060401a3          	sb	zero,99(s0)
    2128:	b8e5                	j	1a20 <tcp_receive+0x1ce>
    212a:	4b94                	lw	a3,16(a5)
    212c:	00092983          	lw	s3,0(s2)
    2130:	0056c503          	lbu	a0,5(a3)
    2134:	0046c703          	lbu	a4,4(a3)
    2138:	0522                	slli	a0,a0,0x8
    213a:	8d59                	or	a0,a0,a4
    213c:	0066c703          	lbu	a4,6(a3)
    2140:	0742                	slli	a4,a4,0x10
    2142:	8f49                	or	a4,a4,a0
    2144:	0076c503          	lbu	a0,7(a3)
    2148:	0562                	slli	a0,a0,0x18
    214a:	8d59                	or	a0,a0,a4
    214c:	20021097          	auipc	ra,0x20021
    2150:	d44080e7          	jalr	-700(ra) # 20022e90 <ntohl>
    2154:	06944703          	lbu	a4,105(s0)
    2158:	06844783          	lbu	a5,104(s0)
    215c:	8aaa                	mv	s5,a0
    215e:	0722                	slli	a4,a4,0x8
    2160:	8fd9                	or	a5,a5,a4
    2162:	06a44703          	lbu	a4,106(s0)
    2166:	0742                	slli	a4,a4,0x10
    2168:	8f5d                	or	a4,a4,a5
    216a:	06b44783          	lbu	a5,107(s0)
    216e:	07e2                	slli	a5,a5,0x18
    2170:	8fd9                	or	a5,a5,a4
    2172:	4b98                	lw	a4,16(a5)
    2174:	00c7da03          	lhu	s4,12(a5)
    2178:	00c74503          	lbu	a0,12(a4)
    217c:	00d74703          	lbu	a4,13(a4)
    2180:	0722                	slli	a4,a4,0x8
    2182:	8d59                	or	a0,a0,a4
    2184:	20021097          	auipc	ra,0x20021
    2188:	cda080e7          	jalr	-806(ra) # 20022e5e <ntohs>
    218c:	890d                	andi	a0,a0,3
    218e:	00a03533          	snez	a0,a0
    2192:	415987b3          	sub	a5,s3,s5
    2196:	9552                	add	a0,a0,s4
    2198:	8f89                	sub	a5,a5,a0
    219a:	8a07c3e3          	bltz	a5,1a40 <tcp_receive+0x1ee>
    219e:	05144703          	lbu	a4,81(s0)
    21a2:	05044783          	lbu	a5,80(s0)
    21a6:	0722                	slli	a4,a4,0x8
    21a8:	8f5d                	or	a4,a4,a5
    21aa:	05244783          	lbu	a5,82(s0)
    21ae:	07c2                	slli	a5,a5,0x10
    21b0:	8f5d                	or	a4,a4,a5
    21b2:	05344783          	lbu	a5,83(s0)
    21b6:	07e2                	slli	a5,a5,0x18
    21b8:	8fd9                	or	a5,a5,a4
    21ba:	00092703          	lw	a4,0(s2)
    21be:	40f707b3          	sub	a5,a4,a5
    21c2:	86f04fe3          	bgtz	a5,1a40 <tcp_receive+0x1ee>
    21c6:	06944783          	lbu	a5,105(s0)
    21ca:	06844983          	lbu	s3,104(s0)
    21ce:	06244703          	lbu	a4,98(s0)
    21d2:	07a2                	slli	a5,a5,0x8
    21d4:	0137e7b3          	or	a5,a5,s3
    21d8:	06a44983          	lbu	s3,106(s0)
    21dc:	09c2                	slli	s3,s3,0x10
    21de:	00f9e7b3          	or	a5,s3,a5
    21e2:	06b44983          	lbu	s3,107(s0)
    21e6:	09e2                	slli	s3,s3,0x18
    21e8:	00f9e9b3          	or	s3,s3,a5
    21ec:	0009c783          	lbu	a5,0(s3)
    21f0:	06f40423          	sb	a5,104(s0)
    21f4:	0019c783          	lbu	a5,1(s3)
    21f8:	06f404a3          	sb	a5,105(s0)
    21fc:	0029c783          	lbu	a5,2(s3)
    2200:	06f40523          	sb	a5,106(s0)
    2204:	0039c783          	lbu	a5,3(s3)
    2208:	06f405a3          	sb	a5,107(s0)
    220c:	06344783          	lbu	a5,99(s0)
    2210:	07a2                	slli	a5,a5,0x8
    2212:	8fd9                	or	a5,a5,a4
    2214:	cf8d                	beqz	a5,224e <tcp_receive+0x9fc>
    2216:	0109a783          	lw	a5,16(s3)
    221a:	00c7c503          	lbu	a0,12(a5)
    221e:	00d7c783          	lbu	a5,13(a5)
    2222:	07a2                	slli	a5,a5,0x8
    2224:	8d5d                	or	a0,a0,a5
    2226:	20021097          	auipc	ra,0x20021
    222a:	c38080e7          	jalr	-968(ra) # 20022e5e <ntohs>
    222e:	8905                	andi	a0,a0,1
    2230:	cd19                	beqz	a0,224e <tcp_receive+0x9fc>
    2232:	06344783          	lbu	a5,99(s0)
    2236:	06244703          	lbu	a4,98(s0)
    223a:	07a2                	slli	a5,a5,0x8
    223c:	8fd9                	or	a5,a5,a4
    223e:	17fd                	addi	a5,a5,-1
    2240:	07c2                	slli	a5,a5,0x10
    2242:	83c1                	srli	a5,a5,0x10
    2244:	06f40123          	sb	a5,98(s0)
    2248:	83a1                	srli	a5,a5,0x8
    224a:	06f401a3          	sb	a5,99(s0)
    224e:	0049a503          	lw	a0,4(s3)
    2252:	247040ef          	jal	ra,6c98 <pbuf_clen>
    2256:	06744783          	lbu	a5,103(s0)
    225a:	06644703          	lbu	a4,102(s0)
    225e:	07a2                	slli	a5,a5,0x8
    2260:	8fd9                	or	a5,a5,a4
    2262:	40a78533          	sub	a0,a5,a0
    2266:	0542                	slli	a0,a0,0x10
    2268:	8141                	srli	a0,a0,0x10
    226a:	06a40323          	sb	a0,102(s0)
    226e:	8121                	srli	a0,a0,0x8
    2270:	06a403a3          	sb	a0,103(s0)
    2274:	854e                	mv	a0,s3
    2276:	b9cfe0ef          	jal	ra,612 <tcp_seg_free>
    227a:	fa6ff06f          	j	1a20 <tcp_receive+0x1ce>
    227e:	03d44703          	lbu	a4,61(s0)
    2282:	03c44783          	lbu	a5,60(s0)
    2286:	0722                	slli	a4,a4,0x8
    2288:	8f5d                	or	a4,a4,a5
    228a:	03e44783          	lbu	a5,62(s0)
    228e:	07c2                	slli	a5,a5,0x10
    2290:	8f5d                	or	a4,a4,a5
    2292:	03f44783          	lbu	a5,63(s0)
    2296:	07e2                	slli	a5,a5,0x18
    2298:	8fd9                	or	a5,a5,a4
    229a:	00092703          	lw	a4,0(s2)
    229e:	8f99                	sub	a5,a5,a4
    22a0:	fc07d063          	bgez	a5,1a60 <tcp_receive+0x20e>
    22a4:	04144683          	lbu	a3,65(s0)
    22a8:	04044583          	lbu	a1,64(s0)
    22ac:	0642                	slli	a2,a2,0x10
    22ae:	06a2                	slli	a3,a3,0x8
    22b0:	8ecd                	or	a3,a3,a1
    22b2:	01069593          	slli	a1,a3,0x10
    22b6:	85c1                	srai	a1,a1,0x10
    22b8:	4035d513          	srai	a0,a1,0x3
    22bc:	1ffff797          	auipc	a5,0x1ffff
    22c0:	be87d783          	lhu	a5,-1048(a5) # 20000ea4 <tcp_ticks>
    22c4:	8241                	srli	a2,a2,0x10
    22c6:	0542                	slli	a0,a0,0x10
    22c8:	8141                	srli	a0,a0,0x10
    22ca:	40c786b3          	sub	a3,a5,a2
    22ce:	8e89                	sub	a3,a3,a0
    22d0:	06c2                	slli	a3,a3,0x10
    22d2:	82c1                	srli	a3,a3,0x10
    22d4:	01069813          	slli	a6,a3,0x10
    22d8:	96ae                	add	a3,a3,a1
    22da:	06c2                	slli	a3,a3,0x10
    22dc:	86c1                	srai	a3,a3,0x10
    22de:	01069593          	slli	a1,a3,0x10
    22e2:	81c1                	srli	a1,a1,0x10
    22e4:	04b40023          	sb	a1,64(s0)
    22e8:	81a1                	srli	a1,a1,0x8
    22ea:	41085813          	srai	a6,a6,0x10
    22ee:	04b400a3          	sb	a1,65(s0)
    22f2:	00085863          	bgez	a6,2302 <tcp_receive+0xab0>
    22f6:	8e1d                	sub	a2,a2,a5
    22f8:	962a                	add	a2,a2,a0
    22fa:	01061813          	slli	a6,a2,0x10
    22fe:	41085813          	srai	a6,a6,0x10
    2302:	04344703          	lbu	a4,67(s0)
    2306:	04244783          	lbu	a5,66(s0)
    230a:	868d                	srai	a3,a3,0x3
    230c:	0722                	slli	a4,a4,0x8
    230e:	8f5d                	or	a4,a4,a5
    2310:	0742                	slli	a4,a4,0x10
    2312:	8741                	srai	a4,a4,0x10
    2314:	40275793          	srai	a5,a4,0x2
    2318:	40f707b3          	sub	a5,a4,a5
    231c:	97c2                	add	a5,a5,a6
    231e:	07c2                	slli	a5,a5,0x10
    2320:	83c1                	srli	a5,a5,0x10
    2322:	01079713          	slli	a4,a5,0x10
    2326:	97b6                	add	a5,a5,a3
    2328:	07c2                	slli	a5,a5,0x10
    232a:	8341                	srli	a4,a4,0x10
    232c:	83c1                	srli	a5,a5,0x10
    232e:	04e40123          	sb	a4,66(s0)
    2332:	04f40223          	sb	a5,68(s0)
    2336:	8321                	srli	a4,a4,0x8
    2338:	83a1                	srli	a5,a5,0x8
    233a:	04e401a3          	sb	a4,67(s0)
    233e:	04f402a3          	sb	a5,69(s0)
    2342:	02040c23          	sb	zero,56(s0)
    2346:	02040ca3          	sb	zero,57(s0)
    234a:	02040d23          	sb	zero,58(s0)
    234e:	02040da3          	sb	zero,59(s0)
    2352:	f0eff06f          	j	1a60 <tcp_receive+0x20e>
    2356:	8d99                	sub	a1,a1,a4
    2358:	00194703          	lbu	a4,1(s2)
    235c:	00094683          	lbu	a3,0(s2)
    2360:	00c90423          	sb	a2,8(s2)
    2364:	0722                	slli	a4,a4,0x8
    2366:	8ed9                	or	a3,a3,a4
    2368:	00294703          	lbu	a4,2(s2)
    236c:	00f904a3          	sb	a5,9(s2)
    2370:	00090523          	sb	zero,10(s2)
    2374:	000905a3          	sb	zero,11(s2)
    2378:	00394903          	lbu	s2,3(s2)
    237c:	0742                	slli	a4,a4,0x10
    237e:	8f55                	or	a4,a4,a3
    2380:	0962                	slli	s2,s2,0x18
    2382:	00e96933          	or	s2,s2,a4
    2386:	f56ff06f          	j	1adc <tcp_receive+0x28a>
    238a:	40d006b3          	neg	a3,a3
    238e:	01069593          	slli	a1,a3,0x10
    2392:	f60ff06f          	j	1af2 <tcp_receive+0x2a0>
    2396:	8f99                	sub	a5,a5,a4
    2398:	fc07dd63          	bgez	a5,1b72 <tcp_receive+0x320>
    239c:	02144783          	lbu	a5,33(s0)
    23a0:	8522                	mv	a0,s0
    23a2:	0027e793          	ori	a5,a5,2
    23a6:	02f400a3          	sb	a5,33(s0)
    23aa:	39e020ef          	jal	ra,4748 <tcp_output>
    23ae:	fc4ff06f          	j	1b72 <tcp_receive+0x320>
    23b2:	00054783          	lbu	a5,0(a0)
    23b6:	06f40823          	sb	a5,112(s0)
    23ba:	00154783          	lbu	a5,1(a0)
    23be:	06f408a3          	sb	a5,113(s0)
    23c2:	00254783          	lbu	a5,2(a0)
    23c6:	06f40923          	sb	a5,114(s0)
    23ca:	00354783          	lbu	a5,3(a0)
    23ce:	06f409a3          	sb	a5,115(s0)
    23d2:	a40fe0ef          	jal	ra,612 <tcp_seg_free>
    23d6:	07144783          	lbu	a5,113(s0)
    23da:	07044503          	lbu	a0,112(s0)
    23de:	07a2                	slli	a5,a5,0x8
    23e0:	8fc9                	or	a5,a5,a0
    23e2:	07244503          	lbu	a0,114(s0)
    23e6:	0542                	slli	a0,a0,0x10
    23e8:	8fc9                	or	a5,a5,a0
    23ea:	07344503          	lbu	a0,115(s0)
    23ee:	0562                	slli	a0,a0,0x18
    23f0:	8d5d                	or	a0,a0,a5
    23f2:	f161                	bnez	a0,23b2 <tcp_receive+0xb60>
    23f4:	4098                	lw	a4,0(s1)
    23f6:	1fffe697          	auipc	a3,0x1fffe
    23fa:	d0a6d683          	lhu	a3,-758(a3) # 20000100 <tcplen>
    23fe:	8522                	mv	a0,s0
    2400:	9736                	add	a4,a4,a3
    2402:	00875793          	srli	a5,a4,0x8
    2406:	02f401a3          	sb	a5,35(s0)
    240a:	01075793          	srli	a5,a4,0x10
    240e:	02e40123          	sb	a4,34(s0)
    2412:	02f40223          	sb	a5,36(s0)
    2416:	8361                	srli	a4,a4,0x18
    2418:	02744783          	lbu	a5,39(s0)
    241c:	02e402a3          	sb	a4,37(s0)
    2420:	02644703          	lbu	a4,38(s0)
    2424:	07a2                	slli	a5,a5,0x8
    2426:	8fd9                	or	a5,a5,a4
    2428:	8f95                	sub	a5,a5,a3
    242a:	07c2                	slli	a5,a5,0x10
    242c:	83c1                	srli	a5,a5,0x10
    242e:	02f40323          	sb	a5,38(s0)
    2432:	83a1                	srli	a5,a5,0x8
    2434:	02f403a3          	sb	a5,39(s0)
    2438:	8c8fe0ef          	jal	ra,500 <tcp_update_rcv_ann_wnd>
    243c:	00492703          	lw	a4,4(s2)
    2440:	00974783          	lbu	a5,9(a4)
    2444:	00874683          	lbu	a3,8(a4)
    2448:	07a2                	slli	a5,a5,0x8
    244a:	8fd5                	or	a5,a5,a3
    244c:	cb89                	beqz	a5,245e <tcp_receive+0xc0c>
    244e:	1fffe797          	auipc	a5,0x1fffe
    2452:	cae7a123          	sw	a4,-862(a5) # 200000f0 <recv_data>
    2456:	1fffe797          	auipc	a5,0x1fffe
    245a:	cc07af23          	sw	zero,-802(a5) # 20000134 <inseg+0x4>
    245e:	01092783          	lw	a5,16(s2)
    2462:	00c7c503          	lbu	a0,12(a5)
    2466:	00d7c783          	lbu	a5,13(a5)
    246a:	07a2                	slli	a5,a5,0x8
    246c:	8d5d                	or	a0,a0,a5
    246e:	20021097          	auipc	ra,0x20021
    2472:	9f0080e7          	jalr	-1552(ra) # 20022e5e <ntohs>
    2476:	8905                	andi	a0,a0,1
    2478:	c919                	beqz	a0,248e <tcp_receive+0xc3c>
    247a:	1fffe797          	auipc	a5,0x1fffe
    247e:	c7a7c783          	lbu	a5,-902(a5) # 200000f4 <recv_flags>
    2482:	0207e793          	ori	a5,a5,32
    2486:	1fffe717          	auipc	a4,0x1fffe
    248a:	c6f70723          	sb	a5,-914(a4) # 200000f4 <recv_flags>
    248e:	1fffe917          	auipc	s2,0x1fffe
    2492:	c6290913          	addi	s2,s2,-926 # 200000f0 <recv_data>
    2496:	1fffe997          	auipc	s3,0x1fffe
    249a:	c5e98993          	addi	s3,s3,-930 # 200000f4 <recv_flags>
    249e:	4a11                	li	s4,4
    24a0:	4a9d                	li	s5,7
    24a2:	a429                	j	26ac <tcp_receive+0xe5a>
    24a4:	00d64783          	lbu	a5,13(a2)
    24a8:	00c64503          	lbu	a0,12(a2)
    24ac:	07a2                	slli	a5,a5,0x8
    24ae:	8d5d                	or	a0,a0,a5
    24b0:	20021097          	auipc	ra,0x20021
    24b4:	9ae080e7          	jalr	-1618(ra) # 20022e5e <ntohs>
    24b8:	8905                	andi	a0,a0,1
    24ba:	cd59                	beqz	a0,2558 <tcp_receive+0xd06>
    24bc:	01092783          	lw	a5,16(s2)
    24c0:	00c7c503          	lbu	a0,12(a5)
    24c4:	00d7c783          	lbu	a5,13(a5)
    24c8:	07a2                	slli	a5,a5,0x8
    24ca:	8d5d                	or	a0,a0,a5
    24cc:	20021097          	auipc	ra,0x20021
    24d0:	992080e7          	jalr	-1646(ra) # 20022e5e <ntohs>
    24d4:	8909                	andi	a0,a0,2
    24d6:	e149                	bnez	a0,2558 <tcp_receive+0xd06>
    24d8:	01092783          	lw	a5,16(s2)
    24dc:	00d7ca03          	lbu	s4,13(a5)
    24e0:	00c7c503          	lbu	a0,12(a5)
    24e4:	0a22                	slli	s4,s4,0x8
    24e6:	00aa6a33          	or	s4,s4,a0
    24ea:	8556                	mv	a0,s5
    24ec:	20021097          	auipc	ra,0x20021
    24f0:	964080e7          	jalr	-1692(ra) # 20022e50 <htons>
    24f4:	01092783          	lw	a5,16(s2)
    24f8:	00aa7a33          	and	s4,s4,a0
    24fc:	00c7c503          	lbu	a0,12(a5)
    2500:	00d7c783          	lbu	a5,13(a5)
    2504:	07a2                	slli	a5,a5,0x8
    2506:	8d5d                	or	a0,a0,a5
    2508:	20021097          	auipc	ra,0x20021
    250c:	956080e7          	jalr	-1706(ra) # 20022e5e <ntohs>
    2510:	03e57513          	andi	a0,a0,62
    2514:	00156513          	ori	a0,a0,1
    2518:	20021097          	auipc	ra,0x20021
    251c:	938080e7          	jalr	-1736(ra) # 20022e50 <htons>
    2520:	00aa6533          	or	a0,s4,a0
    2524:	01092783          	lw	a5,16(s2)
    2528:	0542                	slli	a0,a0,0x10
    252a:	8141                	srli	a0,a0,0x10
    252c:	00855713          	srli	a4,a0,0x8
    2530:	00a78623          	sb	a0,12(a5)
    2534:	00e786a3          	sb	a4,13(a5)
    2538:	1fffea17          	auipc	s4,0x1fffe
    253c:	c04a5a03          	lhu	s4,-1020(s4) # 2000013c <inseg+0xc>
    2540:	20021097          	auipc	ra,0x20021
    2544:	91e080e7          	jalr	-1762(ra) # 20022e5e <ntohs>
    2548:	890d                	andi	a0,a0,3
    254a:	00a03533          	snez	a0,a0
    254e:	9a2a                	add	s4,s4,a0
    2550:	1fffe797          	auipc	a5,0x1fffe
    2554:	bb479823          	sh	s4,-1104(a5) # 20000100 <tcplen>
    2558:	0009aa03          	lw	s4,0(s3)
    255c:	854e                	mv	a0,s3
    255e:	8b4fe0ef          	jal	ra,612 <tcp_seg_free>
    2562:	89d2                	mv	s3,s4
    2564:	ffaff06f          	j	1d5e <tcp_receive+0x50c>
    2568:	1fffe717          	auipc	a4,0x1fffe
    256c:	b8f72823          	sw	a5,-1136(a4) # 200000f8 <seqno>
    2570:	00d64783          	lbu	a5,13(a2)
    2574:	00c64503          	lbu	a0,12(a2)
    2578:	00c4db03          	lhu	s6,12(s1)
    257c:	07a2                	slli	a5,a5,0x8
    257e:	8d5d                	or	a0,a0,a5
    2580:	20021097          	auipc	ra,0x20021
    2584:	8de080e7          	jalr	-1826(ra) # 20022e5e <ntohs>
    2588:	02344703          	lbu	a4,35(s0)
    258c:	02244783          	lbu	a5,34(s0)
    2590:	890d                	andi	a0,a0,3
    2592:	0722                	slli	a4,a4,0x8
    2594:	8f5d                	or	a4,a4,a5
    2596:	02444783          	lbu	a5,36(s0)
    259a:	00a03533          	snez	a0,a0
    259e:	955a                	add	a0,a0,s6
    25a0:	07c2                	slli	a5,a5,0x10
    25a2:	8f5d                	or	a4,a4,a5
    25a4:	02544783          	lbu	a5,37(s0)
    25a8:	00c4db03          	lhu	s6,12(s1)
    25ac:	07e2                	slli	a5,a5,0x18
    25ae:	8fd9                	or	a5,a5,a4
    25b0:	953e                	add	a0,a0,a5
    25b2:	00855793          	srli	a5,a0,0x8
    25b6:	4898                	lw	a4,16(s1)
    25b8:	02a40123          	sb	a0,34(s0)
    25bc:	02f401a3          	sb	a5,35(s0)
    25c0:	01055793          	srli	a5,a0,0x10
    25c4:	8161                	srli	a0,a0,0x18
    25c6:	02f40223          	sb	a5,36(s0)
    25ca:	02a402a3          	sb	a0,37(s0)
    25ce:	00c74503          	lbu	a0,12(a4)
    25d2:	00d74703          	lbu	a4,13(a4)
    25d6:	0722                	slli	a4,a4,0x8
    25d8:	8d59                	or	a0,a0,a4
    25da:	20021097          	auipc	ra,0x20021
    25de:	884080e7          	jalr	-1916(ra) # 20022e5e <ntohs>
    25e2:	02744783          	lbu	a5,39(s0)
    25e6:	02644703          	lbu	a4,38(s0)
    25ea:	890d                	andi	a0,a0,3
    25ec:	07a2                	slli	a5,a5,0x8
    25ee:	00a03533          	snez	a0,a0
    25f2:	8fd9                	or	a5,a5,a4
    25f4:	955a                	add	a0,a0,s6
    25f6:	8f89                	sub	a5,a5,a0
    25f8:	07c2                	slli	a5,a5,0x10
    25fa:	83c1                	srli	a5,a5,0x10
    25fc:	02f40323          	sb	a5,38(s0)
    2600:	83a1                	srli	a5,a5,0x8
    2602:	02f403a3          	sb	a5,39(s0)
    2606:	8522                	mv	a0,s0
    2608:	ef9fd0ef          	jal	ra,500 <tcp_update_rcv_ann_wnd>
    260c:	40cc                	lw	a1,4(s1)
    260e:	0095c783          	lbu	a5,9(a1)
    2612:	0085c703          	lbu	a4,8(a1)
    2616:	07a2                	slli	a5,a5,0x8
    2618:	8fd9                	or	a5,a5,a4
    261a:	cb89                	beqz	a5,262c <tcp_receive+0xdda>
    261c:	00092503          	lw	a0,0(s2)
    2620:	10050263          	beqz	a0,2724 <tcp_receive+0xed2>
    2624:	6c0040ef          	jal	ra,6ce4 <pbuf_cat>
    2628:	0004a223          	sw	zero,4(s1)
    262c:	489c                	lw	a5,16(s1)
    262e:	00c7c503          	lbu	a0,12(a5)
    2632:	00d7c783          	lbu	a5,13(a5)
    2636:	07a2                	slli	a5,a5,0x8
    2638:	8d5d                	or	a0,a0,a5
    263a:	20021097          	auipc	ra,0x20021
    263e:	824080e7          	jalr	-2012(ra) # 20022e5e <ntohs>
    2642:	8905                	andi	a0,a0,1
    2644:	c129                	beqz	a0,2686 <tcp_receive+0xe34>
    2646:	0009c783          	lbu	a5,0(s3)
    264a:	0207e793          	ori	a5,a5,32
    264e:	1fffe717          	auipc	a4,0x1fffe
    2652:	aaf70323          	sb	a5,-1370(a4) # 200000f4 <recv_flags>
    2656:	01144703          	lbu	a4,17(s0)
    265a:	01044783          	lbu	a5,16(s0)
    265e:	0722                	slli	a4,a4,0x8
    2660:	8f5d                	or	a4,a4,a5
    2662:	01244783          	lbu	a5,18(s0)
    2666:	07c2                	slli	a5,a5,0x10
    2668:	8f5d                	or	a4,a4,a5
    266a:	01344783          	lbu	a5,19(s0)
    266e:	07e2                	slli	a5,a5,0x18
    2670:	8fd9                	or	a5,a5,a4
    2672:	01479a63          	bne	a5,s4,2686 <tcp_receive+0xe34>
    2676:	01540823          	sb	s5,16(s0)
    267a:	000408a3          	sb	zero,17(s0)
    267e:	00040923          	sb	zero,18(s0)
    2682:	000409a3          	sb	zero,19(s0)
    2686:	0004c783          	lbu	a5,0(s1)
    268a:	8526                	mv	a0,s1
    268c:	06f40823          	sb	a5,112(s0)
    2690:	0014c783          	lbu	a5,1(s1)
    2694:	06f408a3          	sb	a5,113(s0)
    2698:	0024c783          	lbu	a5,2(s1)
    269c:	06f40923          	sb	a5,114(s0)
    26a0:	0034c783          	lbu	a5,3(s1)
    26a4:	06f409a3          	sb	a5,115(s0)
    26a8:	f6bfd0ef          	jal	ra,612 <tcp_seg_free>
    26ac:	07144783          	lbu	a5,113(s0)
    26b0:	07044483          	lbu	s1,112(s0)
    26b4:	07a2                	slli	a5,a5,0x8
    26b6:	8fc5                	or	a5,a5,s1
    26b8:	07244483          	lbu	s1,114(s0)
    26bc:	04c2                	slli	s1,s1,0x10
    26be:	8fc5                	or	a5,a5,s1
    26c0:	07344483          	lbu	s1,115(s0)
    26c4:	04e2                	slli	s1,s1,0x18
    26c6:	8cdd                	or	s1,s1,a5
    26c8:	c0a1                	beqz	s1,2708 <tcp_receive+0xeb6>
    26ca:	4890                	lw	a2,16(s1)
    26cc:	02344683          	lbu	a3,35(s0)
    26d0:	00564703          	lbu	a4,5(a2)
    26d4:	00464783          	lbu	a5,4(a2)
    26d8:	06a2                	slli	a3,a3,0x8
    26da:	0722                	slli	a4,a4,0x8
    26dc:	8f5d                	or	a4,a4,a5
    26de:	00664783          	lbu	a5,6(a2)
    26e2:	07c2                	slli	a5,a5,0x10
    26e4:	8f5d                	or	a4,a4,a5
    26e6:	00764783          	lbu	a5,7(a2)
    26ea:	07e2                	slli	a5,a5,0x18
    26ec:	8fd9                	or	a5,a5,a4
    26ee:	02244703          	lbu	a4,34(s0)
    26f2:	8ed9                	or	a3,a3,a4
    26f4:	02444703          	lbu	a4,36(s0)
    26f8:	0742                	slli	a4,a4,0x10
    26fa:	8ed9                	or	a3,a3,a4
    26fc:	02544703          	lbu	a4,37(s0)
    2700:	0762                	slli	a4,a4,0x18
    2702:	8f55                	or	a4,a4,a3
    2704:	e6e782e3          	beq	a5,a4,2568 <tcp_receive+0xd16>
    2708:	02144783          	lbu	a5,33(s0)
    270c:	0017f713          	andi	a4,a5,1
    2710:	cf19                	beqz	a4,272e <tcp_receive+0xedc>
    2712:	9bf9                	andi	a5,a5,-2
    2714:	0027e793          	ori	a5,a5,2
    2718:	02f400a3          	sb	a5,33(s0)
    271c:	8522                	mv	a0,s0
    271e:	02a020ef          	jal	ra,4748 <tcp_output>
    2722:	a811                	j	2736 <tcp_receive+0xee4>
    2724:	1fffe797          	auipc	a5,0x1fffe
    2728:	9cb7a623          	sw	a1,-1588(a5) # 200000f0 <recv_data>
    272c:	bdf5                	j	2628 <tcp_receive+0xdd6>
    272e:	0017e793          	ori	a5,a5,1
    2732:	02f400a3          	sb	a5,33(s0)
    2736:	2001e317          	auipc	t1,0x2001e
    273a:	91430067          	jr	-1772(t1) # 2002004a <__riscv_restore_4>
    273e:	8522                	mv	a0,s0
    2740:	78f010ef          	jal	ra,46ce <tcp_send_empty_ack>
    2744:	07144783          	lbu	a5,113(s0)
    2748:	07044903          	lbu	s2,112(s0)
    274c:	07a2                	slli	a5,a5,0x8
    274e:	0127e7b3          	or	a5,a5,s2
    2752:	07244903          	lbu	s2,114(s0)
    2756:	0942                	slli	s2,s2,0x10
    2758:	00f967b3          	or	a5,s2,a5
    275c:	07344903          	lbu	s2,115(s0)
    2760:	0962                	slli	s2,s2,0x18
    2762:	00f96933          	or	s2,s2,a5
    2766:	02091663          	bnez	s2,2792 <tcp_receive+0xf40>
    276a:	1fffe517          	auipc	a0,0x1fffe
    276e:	9c650513          	addi	a0,a0,-1594 # 20000130 <inseg>
    2772:	ef7fd0ef          	jal	ra,668 <tcp_seg_copy>
    2776:	00855793          	srli	a5,a0,0x8
    277a:	06a40823          	sb	a0,112(s0)
    277e:	06f408a3          	sb	a5,113(s0)
    2782:	01055793          	srli	a5,a0,0x10
    2786:	8161                	srli	a0,a0,0x18
    2788:	06f40923          	sb	a5,114(s0)
    278c:	06a409a3          	sb	a0,115(s0)
    2790:	b75d                	j	2736 <tcp_receive+0xee4>
    2792:	4098                	lw	a4,0(s1)
    2794:	4981                	li	s3,0
    2796:	fff70813          	addi	a6,a4,-1
    279a:	00170513          	addi	a0,a4,1
    279e:	01092603          	lw	a2,16(s2)
    27a2:	00564683          	lbu	a3,5(a2)
    27a6:	00464783          	lbu	a5,4(a2)
    27aa:	06a2                	slli	a3,a3,0x8
    27ac:	8edd                	or	a3,a3,a5
    27ae:	00664783          	lbu	a5,6(a2)
    27b2:	07c2                	slli	a5,a5,0x10
    27b4:	8edd                	or	a3,a3,a5
    27b6:	00764783          	lbu	a5,7(a2)
    27ba:	07e2                	slli	a5,a5,0x18
    27bc:	8fd5                	or	a5,a5,a3
    27be:	04e79a63          	bne	a5,a4,2812 <tcp_receive+0xfc0>
    27c2:	00c95783          	lhu	a5,12(s2)
    27c6:	1fffe717          	auipc	a4,0x1fffe
    27ca:	97675703          	lhu	a4,-1674(a4) # 2000013c <inseg+0xc>
    27ce:	f6e7f4e3          	bgeu	a5,a4,2736 <tcp_receive+0xee4>
    27d2:	1fffe517          	auipc	a0,0x1fffe
    27d6:	95e50513          	addi	a0,a0,-1698 # 20000130 <inseg>
    27da:	e8ffd0ef          	jal	ra,668 <tcp_seg_copy>
    27de:	dd21                	beqz	a0,2736 <tcp_receive+0xee4>
    27e0:	00098a63          	beqz	s3,27f4 <tcp_receive+0xfa2>
    27e4:	00a9a023          	sw	a0,0(s3)
    27e8:	85ca                	mv	a1,s2
    27ea:	f57fe0ef          	jal	ra,1740 <tcp_oos_insert_segment>
    27ee:	b7a1                	j	2736 <tcp_receive+0xee4>
    27f0:	8936                	mv	s2,a3
    27f2:	b775                	j	279e <tcp_receive+0xf4c>
    27f4:	00855793          	srli	a5,a0,0x8
    27f8:	06f408a3          	sb	a5,113(s0)
    27fc:	01055793          	srli	a5,a0,0x10
    2800:	06f40923          	sb	a5,114(s0)
    2804:	06a40823          	sb	a0,112(s0)
    2808:	01855793          	srli	a5,a0,0x18
    280c:	06f409a3          	sb	a5,115(s0)
    2810:	bfe1                	j	27e8 <tcp_receive+0xf96>
    2812:	02099b63          	bnez	s3,2848 <tcp_receive+0xff6>
    2816:	40f706b3          	sub	a3,a4,a5
    281a:	0a06dd63          	bgez	a3,28d4 <tcp_receive+0x1082>
    281e:	1fffe517          	auipc	a0,0x1fffe
    2822:	91250513          	addi	a0,a0,-1774 # 20000130 <inseg>
    2826:	e43fd0ef          	jal	ra,668 <tcp_seg_copy>
    282a:	f00506e3          	beqz	a0,2736 <tcp_receive+0xee4>
    282e:	00855713          	srli	a4,a0,0x8
    2832:	06e408a3          	sb	a4,113(s0)
    2836:	01055713          	srli	a4,a0,0x10
    283a:	06a40823          	sb	a0,112(s0)
    283e:	06e40923          	sb	a4,114(s0)
    2842:	01855793          	srli	a5,a0,0x18
    2846:	b7d9                	j	280c <tcp_receive+0xfba>
    2848:	0109a883          	lw	a7,16(s3)
    284c:	0058c583          	lbu	a1,5(a7)
    2850:	0048c683          	lbu	a3,4(a7)
    2854:	05a2                	slli	a1,a1,0x8
    2856:	8dd5                	or	a1,a1,a3
    2858:	0068c683          	lbu	a3,6(a7)
    285c:	06c2                	slli	a3,a3,0x10
    285e:	8dd5                	or	a1,a1,a3
    2860:	0078c683          	lbu	a3,7(a7)
    2864:	06e2                	slli	a3,a3,0x18
    2866:	8ecd                	or	a3,a3,a1
    2868:	40d806b3          	sub	a3,a6,a3
    286c:	0606c463          	bltz	a3,28d4 <tcp_receive+0x1082>
    2870:	40f506b3          	sub	a3,a0,a5
    2874:	06d04063          	bgtz	a3,28d4 <tcp_receive+0x1082>
    2878:	1fffe517          	auipc	a0,0x1fffe
    287c:	8b850513          	addi	a0,a0,-1864 # 20000130 <inseg>
    2880:	de9fd0ef          	jal	ra,668 <tcp_seg_copy>
    2884:	842a                	mv	s0,a0
    2886:	ea0508e3          	beqz	a0,2736 <tcp_receive+0xee4>
    288a:	0109a703          	lw	a4,16(s3)
    288e:	00574783          	lbu	a5,5(a4)
    2892:	00474583          	lbu	a1,4(a4)
    2896:	07a2                	slli	a5,a5,0x8
    2898:	8ddd                	or	a1,a1,a5
    289a:	00674783          	lbu	a5,6(a4)
    289e:	07c2                	slli	a5,a5,0x10
    28a0:	8fcd                	or	a5,a5,a1
    28a2:	00774583          	lbu	a1,7(a4)
    28a6:	00c9d703          	lhu	a4,12(s3)
    28aa:	05e2                	slli	a1,a1,0x18
    28ac:	8fcd                	or	a5,a5,a1
    28ae:	408c                	lw	a1,0(s1)
    28b0:	973e                	add	a4,a4,a5
    28b2:	8f0d                	sub	a4,a4,a1
    28b4:	00e05b63          	blez	a4,28ca <tcp_receive+0x1078>
    28b8:	8d9d                	sub	a1,a1,a5
    28ba:	05c2                	slli	a1,a1,0x10
    28bc:	0049a503          	lw	a0,4(s3)
    28c0:	81c1                	srli	a1,a1,0x10
    28c2:	00b99623          	sh	a1,12(s3)
    28c6:	2dc040ef          	jal	ra,6ba2 <pbuf_realloc>
    28ca:	0089a023          	sw	s0,0(s3)
    28ce:	85ca                	mv	a1,s2
    28d0:	8522                	mv	a0,s0
    28d2:	bf21                	j	27ea <tcp_receive+0xf98>
    28d4:	00092683          	lw	a3,0(s2)
    28d8:	89ca                	mv	s3,s2
    28da:	fa99                	bnez	a3,27f0 <tcp_receive+0xf9e>
    28dc:	40f707b3          	sub	a5,a4,a5
    28e0:	e4f05be3          	blez	a5,2736 <tcp_receive+0xee4>
    28e4:	00d64783          	lbu	a5,13(a2)
    28e8:	00c64503          	lbu	a0,12(a2)
    28ec:	07a2                	slli	a5,a5,0x8
    28ee:	8d5d                	or	a0,a0,a5
    28f0:	20020097          	auipc	ra,0x20020
    28f4:	56e080e7          	jalr	1390(ra) # 20022e5e <ntohs>
    28f8:	8905                	andi	a0,a0,1
    28fa:	e2051ee3          	bnez	a0,2736 <tcp_receive+0xee4>
    28fe:	1fffe517          	auipc	a0,0x1fffe
    2902:	83250513          	addi	a0,a0,-1998 # 20000130 <inseg>
    2906:	d63fd0ef          	jal	ra,668 <tcp_seg_copy>
    290a:	00a92023          	sw	a0,0(s2)
    290e:	e20504e3          	beqz	a0,2736 <tcp_receive+0xee4>
    2912:	01092703          	lw	a4,16(s2)
    2916:	00574783          	lbu	a5,5(a4)
    291a:	00474583          	lbu	a1,4(a4)
    291e:	07a2                	slli	a5,a5,0x8
    2920:	8ddd                	or	a1,a1,a5
    2922:	00674783          	lbu	a5,6(a4)
    2926:	07c2                	slli	a5,a5,0x10
    2928:	8fcd                	or	a5,a5,a1
    292a:	00774583          	lbu	a1,7(a4)
    292e:	00c95703          	lhu	a4,12(s2)
    2932:	05e2                	slli	a1,a1,0x18
    2934:	8fcd                	or	a5,a5,a1
    2936:	408c                	lw	a1,0(s1)
    2938:	973e                	add	a4,a4,a5
    293a:	8f0d                	sub	a4,a4,a1
    293c:	dee05de3          	blez	a4,2736 <tcp_receive+0xee4>
    2940:	8d9d                	sub	a1,a1,a5
    2942:	05c2                	slli	a1,a1,0x10
    2944:	00492503          	lw	a0,4(s2)
    2948:	81c1                	srli	a1,a1,0x10
    294a:	00b91623          	sh	a1,12(s2)
    294e:	254040ef          	jal	ra,6ba2 <pbuf_realloc>
    2952:	b3d5                	j	2736 <tcp_receive+0xee4>
    2954:	8522                	mv	a0,s0
    2956:	579010ef          	jal	ra,46ce <tcp_send_empty_ack>
    295a:	bbf1                	j	2736 <tcp_receive+0xee4>
    295c:	40e786b3          	sub	a3,a5,a4
    2960:	0006cd63          	bltz	a3,297a <tcp_receive+0x1128>
    2964:	0785                	addi	a5,a5,1
    2966:	8f99                	sub	a5,a5,a4
    2968:	02744703          	lbu	a4,39(s0)
    296c:	02644683          	lbu	a3,38(s0)
    2970:	0722                	slli	a4,a4,0x8
    2972:	8f55                	or	a4,a4,a3
    2974:	8f99                	sub	a5,a5,a4
    2976:	dcf050e3          	blez	a5,2736 <tcp_receive+0xee4>
    297a:	02144783          	lbu	a5,33(s0)
    297e:	bb59                	j	2714 <tcp_receive+0xec2>

00002980 <tcp_input>:
    2980:	2001d317          	auipc	t1,0x2001d
    2984:	696302e7          	jalr	t0,1686(t1) # 20020016 <__riscv_save_4>
    2988:	00454403          	lbu	s0,4(a0)
    298c:	892a                	mv	s2,a0
    298e:	00554503          	lbu	a0,5(a0)
    2992:	1141                	addi	sp,sp,-16
    2994:	84ae                	mv	s1,a1
    2996:	0522                	slli	a0,a0,0x8
    2998:	8d41                	or	a0,a0,s0
    299a:	00694403          	lbu	s0,6(s2)
    299e:	1fffda17          	auipc	s4,0x1fffd
    29a2:	74ea0a13          	addi	s4,s4,1870 # 200000ec <iphdr>
    29a6:	0442                	slli	s0,s0,0x10
    29a8:	8d41                	or	a0,a0,s0
    29aa:	00794403          	lbu	s0,7(s2)
    29ae:	0462                	slli	s0,s0,0x18
    29b0:	8c49                	or	s0,s0,a0
    29b2:	1fffd797          	auipc	a5,0x1fffd
    29b6:	7287ad23          	sw	s0,1850(a5) # 200000ec <iphdr>
    29ba:	00144783          	lbu	a5,1(s0)
    29be:	00044503          	lbu	a0,0(s0)
    29c2:	07a2                	slli	a5,a5,0x8
    29c4:	8d5d                	or	a0,a0,a5
    29c6:	20020097          	auipc	ra,0x20020
    29ca:	498080e7          	jalr	1176(ra) # 20022e5e <ntohs>
    29ce:	8119                	srli	a0,a0,0x6
    29d0:	03c57513          	andi	a0,a0,60
    29d4:	942a                	add	s0,s0,a0
    29d6:	1fffd797          	auipc	a5,0x1fffd
    29da:	7287a323          	sw	s0,1830(a5) # 200000fc <tcphdr>
    29de:	000a2783          	lw	a5,0(s4)
    29e2:	0007c503          	lbu	a0,0(a5)
    29e6:	0017c783          	lbu	a5,1(a5)
    29ea:	07a2                	slli	a5,a5,0x8
    29ec:	8d5d                	or	a0,a0,a5
    29ee:	20020097          	auipc	ra,0x20020
    29f2:	470080e7          	jalr	1136(ra) # 20022e5e <ntohs>
    29f6:	00655593          	srli	a1,a0,0x6
    29fa:	03c5f593          	andi	a1,a1,60
    29fe:	40b005b3          	neg	a1,a1
    2a02:	854a                	mv	a0,s2
    2a04:	5c3030ef          	jal	ra,67c6 <pbuf_header>
    2a08:	e911                	bnez	a0,2a1c <tcp_input+0x9c>
    2a0a:	00994783          	lbu	a5,9(s2)
    2a0e:	00894703          	lbu	a4,8(s2)
    2a12:	07a2                	slli	a5,a5,0x8
    2a14:	8fd9                	or	a5,a5,a4
    2a16:	474d                	li	a4,19
    2a18:	02f76263          	bltu	a4,a5,2a3c <tcp_input+0xbc>
    2a1c:	20023517          	auipc	a0,0x20023
    2a20:	3a450513          	addi	a0,a0,932 # 20025dc0 <tcp_backoff+0x4c>
    2a24:	20022097          	auipc	ra,0x20022
    2a28:	9c2080e7          	jalr	-1598(ra) # 200243e6 <puts>
    2a2c:	854a                	mv	a0,s2
    2a2e:	681030ef          	jal	ra,68ae <pbuf_free>
    2a32:	0141                	addi	sp,sp,16
    2a34:	2001d317          	auipc	t1,0x2001d
    2a38:	61630067          	jr	1558(t1) # 2002004a <__riscv_restore_4>
    2a3c:	000a2503          	lw	a0,0(s4)
    2a40:	85a6                	mv	a1,s1
    2a42:	0541                	addi	a0,a0,16
    2a44:	4d6040ef          	jal	ra,6f1a <ip_addr_isbroadcast>
    2a48:	f175                	bnez	a0,2a2c <tcp_input+0xac>
    2a4a:	000a2703          	lw	a4,0(s4)
    2a4e:	f0000537          	lui	a0,0xf0000
    2a52:	01174783          	lbu	a5,17(a4)
    2a56:	01074403          	lbu	s0,16(a4)
    2a5a:	07a2                	slli	a5,a5,0x8
    2a5c:	8fc1                	or	a5,a5,s0
    2a5e:	01274403          	lbu	s0,18(a4)
    2a62:	0442                	slli	s0,s0,0x10
    2a64:	8fc1                	or	a5,a5,s0
    2a66:	01374403          	lbu	s0,19(a4)
    2a6a:	0462                	slli	s0,s0,0x18
    2a6c:	8c5d                	or	s0,s0,a5
    2a6e:	20020097          	auipc	ra,0x20020
    2a72:	422080e7          	jalr	1058(ra) # 20022e90 <ntohl>
    2a76:	8c69                	and	s0,s0,a0
    2a78:	e0000537          	lui	a0,0xe0000
    2a7c:	20020097          	auipc	ra,0x20020
    2a80:	414080e7          	jalr	1044(ra) # 20022e90 <ntohl>
    2a84:	faa404e3          	beq	s0,a0,2a2c <tcp_input+0xac>
    2a88:	1fffd997          	auipc	s3,0x1fffd
    2a8c:	67498993          	addi	s3,s3,1652 # 200000fc <tcphdr>
    2a90:	0009a783          	lw	a5,0(s3)
    2a94:	00c7c503          	lbu	a0,12(a5)
    2a98:	00d7c783          	lbu	a5,13(a5)
    2a9c:	07a2                	slli	a5,a5,0x8
    2a9e:	8d5d                	or	a0,a0,a5
    2aa0:	20020097          	auipc	ra,0x20020
    2aa4:	3be080e7          	jalr	958(ra) # 20022e5e <ntohs>
    2aa8:	8131                	srli	a0,a0,0xc
    2aaa:	55f1                	li	a1,-4
    2aac:	02b505b3          	mul	a1,a0,a1
    2ab0:	854a                	mv	a0,s2
    2ab2:	05c2                	slli	a1,a1,0x10
    2ab4:	85c1                	srai	a1,a1,0x10
    2ab6:	511030ef          	jal	ra,67c6 <pbuf_header>
    2aba:	f92d                	bnez	a0,2a2c <tcp_input+0xac>
    2abc:	0009a403          	lw	s0,0(s3)
    2ac0:	1fffea97          	auipc	s5,0x1fffe
    2ac4:	3e0a8a93          	addi	s5,s5,992 # 20000ea0 <tcp_active_pcbs>
    2ac8:	00144783          	lbu	a5,1(s0)
    2acc:	00044503          	lbu	a0,0(s0)
    2ad0:	07a2                	slli	a5,a5,0x8
    2ad2:	8d5d                	or	a0,a0,a5
    2ad4:	20020097          	auipc	ra,0x20020
    2ad8:	38a080e7          	jalr	906(ra) # 20022e5e <ntohs>
    2adc:	00a40023          	sb	a0,0(s0)
    2ae0:	8121                	srli	a0,a0,0x8
    2ae2:	00a400a3          	sb	a0,1(s0)
    2ae6:	0009a403          	lw	s0,0(s3)
    2aea:	00344783          	lbu	a5,3(s0)
    2aee:	00244503          	lbu	a0,2(s0)
    2af2:	07a2                	slli	a5,a5,0x8
    2af4:	8d5d                	or	a0,a0,a5
    2af6:	20020097          	auipc	ra,0x20020
    2afa:	368080e7          	jalr	872(ra) # 20022e5e <ntohs>
    2afe:	00a40123          	sb	a0,2(s0)
    2b02:	8121                	srli	a0,a0,0x8
    2b04:	00a401a3          	sb	a0,3(s0)
    2b08:	0009a403          	lw	s0,0(s3)
    2b0c:	00544503          	lbu	a0,5(s0)
    2b10:	00444783          	lbu	a5,4(s0)
    2b14:	0522                	slli	a0,a0,0x8
    2b16:	8d5d                	or	a0,a0,a5
    2b18:	00644783          	lbu	a5,6(s0)
    2b1c:	07c2                	slli	a5,a5,0x10
    2b1e:	8fc9                	or	a5,a5,a0
    2b20:	00744503          	lbu	a0,7(s0)
    2b24:	0562                	slli	a0,a0,0x18
    2b26:	8d5d                	or	a0,a0,a5
    2b28:	20020097          	auipc	ra,0x20020
    2b2c:	368080e7          	jalr	872(ra) # 20022e90 <ntohl>
    2b30:	00855793          	srli	a5,a0,0x8
    2b34:	00f402a3          	sb	a5,5(s0)
    2b38:	01055793          	srli	a5,a0,0x10
    2b3c:	00f40323          	sb	a5,6(s0)
    2b40:	01855793          	srli	a5,a0,0x18
    2b44:	00f403a3          	sb	a5,7(s0)
    2b48:	00a40223          	sb	a0,4(s0)
    2b4c:	0009a403          	lw	s0,0(s3)
    2b50:	1fffd797          	auipc	a5,0x1fffd
    2b54:	5aa7a423          	sw	a0,1448(a5) # 200000f8 <seqno>
    2b58:	00944503          	lbu	a0,9(s0)
    2b5c:	00844783          	lbu	a5,8(s0)
    2b60:	0522                	slli	a0,a0,0x8
    2b62:	8d5d                	or	a0,a0,a5
    2b64:	00a44783          	lbu	a5,10(s0)
    2b68:	07c2                	slli	a5,a5,0x10
    2b6a:	8fc9                	or	a5,a5,a0
    2b6c:	00b44503          	lbu	a0,11(s0)
    2b70:	0562                	slli	a0,a0,0x18
    2b72:	8d5d                	or	a0,a0,a5
    2b74:	20020097          	auipc	ra,0x20020
    2b78:	31c080e7          	jalr	796(ra) # 20022e90 <ntohl>
    2b7c:	00855793          	srli	a5,a0,0x8
    2b80:	00f404a3          	sb	a5,9(s0)
    2b84:	01055793          	srli	a5,a0,0x10
    2b88:	00f40523          	sb	a5,10(s0)
    2b8c:	01855793          	srli	a5,a0,0x18
    2b90:	00f405a3          	sb	a5,11(s0)
    2b94:	00a40423          	sb	a0,8(s0)
    2b98:	0009a403          	lw	s0,0(s3)
    2b9c:	1fffd797          	auipc	a5,0x1fffd
    2ba0:	54a7a423          	sw	a0,1352(a5) # 200000e4 <ackno>
    2ba4:	00f44783          	lbu	a5,15(s0)
    2ba8:	00e44503          	lbu	a0,14(s0)
    2bac:	07a2                	slli	a5,a5,0x8
    2bae:	8d5d                	or	a0,a0,a5
    2bb0:	20020097          	auipc	ra,0x20020
    2bb4:	2ae080e7          	jalr	686(ra) # 20022e5e <ntohs>
    2bb8:	0009a783          	lw	a5,0(s3)
    2bbc:	00a40723          	sb	a0,14(s0)
    2bc0:	8121                	srli	a0,a0,0x8
    2bc2:	00a407a3          	sb	a0,15(s0)
    2bc6:	00c7c503          	lbu	a0,12(a5)
    2bca:	00d7c783          	lbu	a5,13(a5)
    2bce:	07a2                	slli	a5,a5,0x8
    2bd0:	8d5d                	or	a0,a0,a5
    2bd2:	20020097          	auipc	ra,0x20020
    2bd6:	28c080e7          	jalr	652(ra) # 20022e5e <ntohs>
    2bda:	0ff57813          	andi	a6,a0,255
    2bde:	03f87793          	andi	a5,a6,63
    2be2:	1fffd717          	auipc	a4,0x1fffd
    2be6:	50f70323          	sb	a5,1286(a4) # 200000e8 <flags>
    2bea:	00994503          	lbu	a0,9(s2)
    2bee:	00894783          	lbu	a5,8(s2)
    2bf2:	00387593          	andi	a1,a6,3
    2bf6:	0522                	slli	a0,a0,0x8
    2bf8:	8d5d                	or	a0,a0,a5
    2bfa:	00b035b3          	snez	a1,a1
    2bfe:	95aa                	add	a1,a1,a0
    2c00:	000aa703          	lw	a4,0(s5)
    2c04:	05c2                	slli	a1,a1,0x10
    2c06:	0009a683          	lw	a3,0(s3)
    2c0a:	000a2603          	lw	a2,0(s4)
    2c0e:	81c1                	srli	a1,a1,0x10
    2c10:	1fffd797          	auipc	a5,0x1fffd
    2c14:	4eb79823          	sh	a1,1264(a5) # 20000100 <tcplen>
    2c18:	843a                	mv	s0,a4
    2c1a:	4881                	li	a7,0
    2c1c:	e419                	bnez	s0,2c2a <tcp_input+0x2aa>
    2c1e:	1fffe797          	auipc	a5,0x1fffe
    2c22:	29678793          	addi	a5,a5,662 # 20000eb4 <tcp_tw_pcbs>
    2c26:	4388                	lw	a0,0(a5)
    2c28:	a92d                	j	3062 <tcp_input+0x6e2>
    2c2a:	02044303          	lbu	t1,32(s0)
    2c2e:	0016c783          	lbu	a5,1(a3)
    2c32:	01f44e83          	lbu	t4,31(s0)
    2c36:	0006ce03          	lbu	t3,0(a3)
    2c3a:	0322                	slli	t1,t1,0x8
    2c3c:	07a2                	slli	a5,a5,0x8
    2c3e:	01d36333          	or	t1,t1,t4
    2c42:	01c7e7b3          	or	a5,a5,t3
    2c46:	24f31e63          	bne	t1,a5,2ea2 <tcp_input+0x522>
    2c4a:	01a44303          	lbu	t1,26(s0)
    2c4e:	0036c783          	lbu	a5,3(a3)
    2c52:	01944e83          	lbu	t4,25(s0)
    2c56:	0026ce03          	lbu	t3,2(a3)
    2c5a:	0322                	slli	t1,t1,0x8
    2c5c:	07a2                	slli	a5,a5,0x8
    2c5e:	01d36333          	or	t1,t1,t4
    2c62:	01c7e7b3          	or	a5,a5,t3
    2c66:	22f31e63          	bne	t1,a5,2ea2 <tcp_input+0x522>
    2c6a:	00544783          	lbu	a5,5(s0)
    2c6e:	00444303          	lbu	t1,4(s0)
    2c72:	00d64e03          	lbu	t3,13(a2)
    2c76:	07a2                	slli	a5,a5,0x8
    2c78:	0067e7b3          	or	a5,a5,t1
    2c7c:	00644303          	lbu	t1,6(s0)
    2c80:	0e22                	slli	t3,t3,0x8
    2c82:	0342                	slli	t1,t1,0x10
    2c84:	00f367b3          	or	a5,t1,a5
    2c88:	00744303          	lbu	t1,7(s0)
    2c8c:	0362                	slli	t1,t1,0x18
    2c8e:	00f36333          	or	t1,t1,a5
    2c92:	00c64783          	lbu	a5,12(a2)
    2c96:	00fe6e33          	or	t3,t3,a5
    2c9a:	00e64783          	lbu	a5,14(a2)
    2c9e:	07c2                	slli	a5,a5,0x10
    2ca0:	01c7ee33          	or	t3,a5,t3
    2ca4:	00f64783          	lbu	a5,15(a2)
    2ca8:	07e2                	slli	a5,a5,0x18
    2caa:	01c7e7b3          	or	a5,a5,t3
    2cae:	1ef31a63          	bne	t1,a5,2ea2 <tcp_input+0x522>
    2cb2:	00144783          	lbu	a5,1(s0)
    2cb6:	00044303          	lbu	t1,0(s0)
    2cba:	01164e03          	lbu	t3,17(a2)
    2cbe:	07a2                	slli	a5,a5,0x8
    2cc0:	0067e7b3          	or	a5,a5,t1
    2cc4:	00244303          	lbu	t1,2(s0)
    2cc8:	0e22                	slli	t3,t3,0x8
    2cca:	0342                	slli	t1,t1,0x10
    2ccc:	00f367b3          	or	a5,t1,a5
    2cd0:	00344303          	lbu	t1,3(s0)
    2cd4:	0362                	slli	t1,t1,0x18
    2cd6:	00f36333          	or	t1,t1,a5
    2cda:	01064783          	lbu	a5,16(a2)
    2cde:	00fe6e33          	or	t3,t3,a5
    2ce2:	01264783          	lbu	a5,18(a2)
    2ce6:	07c2                	slli	a5,a5,0x10
    2ce8:	01c7ee33          	or	t3,a5,t3
    2cec:	01364783          	lbu	a5,19(a2)
    2cf0:	07e2                	slli	a5,a5,0x18
    2cf2:	01c7e7b3          	or	a5,a5,t3
    2cf6:	1af31663          	bne	t1,a5,2ea2 <tcp_input+0x522>
