
TCP_Server.elf:     file format elf32-littleriscv
TCP_Server.elf
architecture: riscv:rv32, flags 0x00000112:
EXEC_P, HAS_SYMS, D_PAGED
start address 0x00000000

Program Header:
    LOAD off    0x00001000 vaddr 0x00000000 paddr 0x00000000 align 2**12
         filesz 0x000078f8 memsz 0x000078f8 flags r-x
    LOAD off    0x00009000 vaddr 0x20000000 paddr 0x000078f8 align 2**12
         filesz 0x000000a8 memsz 0x00001fec flags rw-
    LOAD off    0x0000a000 vaddr 0x20020000 paddr 0x00008000 align 2**12
         filesz 0x0000cc70 memsz 0x0000cc70 flags rwx

Sections:
Idx Name          Size      VMA       LMA       File off  Algn
  0 .init         00000004  00000000  00000000  00001000  2**1
                  CONTENTS, ALLOC, LOAD, READONLY, CODE
  1 .vector       000000bc  00000004  00000004  00001004  2**1
                  CONTENTS, ALLOC, LOAD, READONLY, CODE
  2 .text         00007838  000000c0  000000c0  000010c0  2**3
                  CONTENTS, ALLOC, LOAD, READONLY, CODE
  3 .ramcodelalign 00000000  00008000  00008000  00016c70  2**0
                  CONTENTS
  4 .ramcode      0000cc70  20020000  00008000  0000a000  2**4
                  CONTENTS, ALLOC, LOAD, CODE
  5 .fini         00000000  000078f8  000078f8  00016c70  2**0
                  CONTENTS, ALLOC, LOAD, CODE
  6 .dalign       00000000  20000000  20000000  00016c70  2**0
                  CONTENTS
  7 .dlalign      00000000  000078f8  000078f8  00016c70  2**0
                  CONTENTS
  8 .data         000000a8  20000000  000078f8  00009000  2**2
                  CONTENTS, ALLOC, LOAD, DATA
  9 .bss          00001f44  200000a8  000079a0  000090a8  2**2
                  ALLOC
 10 .heap         00000000  20001fec  20001fec  00016c70  2**0
                  CONTENTS
 11 .usrstack     00000000  20004000  20004000  00016c70  2**0
                  CONTENTS
 12 .debug_info   0000895d  00000000  00000000  00016c70  2**0
                  CONTENTS, READONLY, DEBUGGING
 13 .debug_abbrev 000018e9  00000000  00000000  0001f5cd  2**0
                  CONTENTS, READONLY, DEBUGGING
 14 .debug_loc    000010a3  00000000  00000000  00020eb6  2**0
                  CONTENTS, READONLY, DEBUGGING
 15 .debug_aranges 000002a0  00000000  00000000  00021f59  2**0
                  CONTENTS, READONLY, DEBUGGING
 16 .debug_ranges 00000298  00000000  00000000  000221f9  2**0
                  CONTENTS, READONLY, DEBUGGING
 17 .debug_line   00005406  00000000  00000000  00022491  2**0
                  CONTENTS, READONLY, DEBUGGING
 18 .debug_str    00001b66  00000000  00000000  00027897  2**0
                  CONTENTS, READONLY, DEBUGGING
 19 .comment      00000033  00000000  00000000  000293fd  2**0
                  CONTENTS, READONLY
 20 .debug_frame  00000fc8  00000000  00000000  00029430  2**2
                  CONTENTS, READONLY, DEBUGGING
 21 .stab         00000084  00000000  00000000  0002a3f8  2**2
                  CONTENTS, READONLY, DEBUGGING
 22 .stabstr      00000117  00000000  00000000  0002a47c  2**0
                  CONTENTS, READONLY, DEBUGGING
SYMBOL TABLE:
00000000 l    d  .init	00000000 .init
00000004 l    d  .vector	00000000 .vector
000000c0 l    d  .text	00000000 .text
00008000 l    d  .ramcodelalign	00000000 .ramcodelalign
20020000 l    d  .ramcode	00000000 .ramcode
000078f8 l    d  .fini	00000000 .fini
20000000 l    d  .dalign	00000000 .dalign
000078f8 l    d  .dlalign	00000000 .dlalign
20000000 l    d  .data	00000000 .data
200000a8 l    d  .bss	00000000 .bss
20001fec l    d  .heap	00000000 .heap
20004000 l    d  .usrstack	00000000 .usrstack
00000000 l    d  .debug_info	00000000 .debug_info
00000000 l    d  .debug_abbrev	00000000 .debug_abbrev
00000000 l    d  .debug_loc	00000000 .debug_loc
00000000 l    d  .debug_aranges	00000000 .debug_aranges
00000000 l    d  .debug_ranges	00000000 .debug_ranges
00000000 l    d  .debug_line	00000000 .debug_line
00000000 l    d  .debug_str	00000000 .debug_str
00000000 l    d  .comment	00000000 .comment
00000000 l    d  .debug_frame	00000000 .debug_frame
00000000 l    d  .stab	00000000 .stab
00000000 l    d  .stabstr	00000000 .stabstr
00000000 l    df *ABS*	00000000 ./SRC/Startup/startup_CH56x.o
00000004 l       .vector	00000000 _vector_base
00000000 l    df *ABS*	00000000 tcp.c
00000500 l     F .text	00000004 tcp_accept_null
00000504 l     F .text	000000dc tcp_new_port
200000ec l     O .bss	00000001 tcp_timer
20000078 l     O .data	00000004 iss.3741
2000007c l     O .data	00000002 port.3573
00000000 l    df *ABS*	00000000 tcp_in.c
00001ccc l     F .text	000000d4 tcp_parseopt
00001da0 l     F .text	00000112 tcp_oos_insert_segment
00001eb2 l     F .text	0000112e tcp_receive
2000013c l     O .bss	00000014 inseg
200000f0 l     O .bss	00000004 ackno
200000f4 l     O .bss	00000001 flags
200000f8 l     O .bss	00000004 iphdr
200000fc l     O .bss	00000004 recv_data
20000100 l     O .bss	00000001 recv_flags
20000104 l     O .bss	00000004 seqno
20000108 l     O .bss	00000004 tcphdr
2000010c l     O .bss	00000002 tcplen
00000000 l    df *ABS*	00000000 tcp_out.c
000044e4 l     F .text	000001a8 tcp_output_set_header.constprop.0
00000000 l    df *ABS*	00000000 ip.c
200000d4 l     O .bss	00000002 ip_id.3576
00000000 l    df *ABS*	00000000 mem.c
200000dc l     O .bss	00000004 ram
200000e0 l     O .bss	00000004 ram_end
00000000 l    df *ABS*	00000000 memp.c
2000011c l     O .bss	00000020 memp_tab
00000000 l    df *ABS*	00000000 udp.c
00000000 l    df *ABS*	00000000 pbuf.c
00000000 l    df *ABS*	00000000 ip_addr.c
00000000 l    df *ABS*	00000000 PHY_interrupt.c
00000000 l    df *ABS*	00000000 ethernet_driver.c
00000000 l    df *ABS*	00000000 timer.c
00000000 l    df *ABS*	00000000 Main.c
00000000 l    df *ABS*	00000000 CH56x_clk.c
00000000 l    df *ABS*	00000000 CH56x_gpio.c
00000000 l    df *ABS*	00000000 CH56x_sys.c
200000a8 l     O .bss	00000002 p_ms
200000aa l     O .bss	00000001 p_us
00000000 l    df *ABS*	00000000 ch569sock.c
00000000 l    df *ABS*	00000000 etharp.c
20022914 l     F .ramcode	0000025c find_entry
20022b70 l     F .ramcode	000000f2 update_arp_entry
200000b4 l     O .bss	00000001 etharp_cached_entry
00000000 l    df *ABS*	00000000 ethernetif.c
20023372 l     F .ramcode	00000092 low_level_output
00000000 l    df *ABS*	00000000 ipcheck.c
00000000 l    df *ABS*	00000000 inet.c
00000000 l    df *ABS*	00000000 init.c
00000000 l    df *ABS*	00000000 ip_frag.c
200000d6 l     O .bss	00000002 ip_reass_pbufcount
200000d8 l     O .bss	00000004 reassdatagrams
00000000 l    df *ABS*	00000000 netif.c
200000e4 l     O .bss	00000001 netifnum.2254
00000000 l    df *ABS*	00000000 raw.c
200000e8 l     O .bss	00000004 raw_pcbs
00000000 l    df *ABS*	00000000 icmp.c
2002456a l     F .ramcode	000000c6 icmp_send_response
00000000 l    df *ABS*	00000000 inet_chksum.c
20024992 l     F .ramcode	00000084 lwip_standard_chksum
00000000 l    df *ABS*	00000000 memcpy.c
00000000 l    df *ABS*	00000000 printf.c
00000000 l    df *ABS*	00000000 putchar.c
00000000 l    df *ABS*	00000000 puts.c
00000000 l    df *ABS*	00000000 wbuf.c
00000000 l    df *ABS*	00000000 wsetup.c
00000000 l    df *ABS*	00000000 fflush.c
00000000 l    df *ABS*	00000000 findfp.c
20025184 l     F .ramcode	0000006a std
00000000 l    df *ABS*	00000000 fwalk.c
00000000 l    df *ABS*	00000000 makebuf.c
00000000 l    df *ABS*	00000000 nano-mallocr.c
00000000 l    df *ABS*	00000000 nano-mallocr.c
00000000 l    df *ABS*	00000000 nano-vfprintf.c
20025650 l     F .ramcode	0000002a __sfputc_r
00000000 l    df *ABS*	00000000 nano-vfprintf_i.c
00000000 l    df *ABS*	00000000 putc.c
00000000 l    df *ABS*	00000000 sbrkr.c
00000000 l    df *ABS*	00000000 stdio.c
00000000 l    df *ABS*	00000000 writer.c
00000000 l    df *ABS*	00000000 closer.c
00000000 l    df *ABS*	00000000 fstatr.c
00000000 l    df *ABS*	00000000 isattyr.c
00000000 l    df *ABS*	00000000 lseekr.c
00000000 l    df *ABS*	00000000 memchr.c
00000000 l    df *ABS*	00000000 mlock.c
00000000 l    df *ABS*	00000000 readr.c
00000000 l    df *ABS*	00000000 close.c
00000000 l    df *ABS*	00000000 fstat.c
00000000 l    df *ABS*	00000000 isatty.c
00000000 l    df *ABS*	00000000 lseek.c
00000000 l    df *ABS*	00000000 read.c
00000000 l    df *ABS*	00000000 sbrk.c
20000118 l     O .bss	00000004 heap_end.1518
00000000 l    df *ABS*	00000000 mem_malloc.c
00000000 l    df *ABS*	00000000 impure.c
20000000 l     O .data	00000060 impure_data
00000000 l    df *ABS*	00000000 reent.c
0000779e g     F .text	00000028 GPIO_IRQHandler
20024cfa g     F .ramcode	0000002e putchar
20024b42 g     F .ramcode	00000014 inet_chksum
2002442e g     F .ramcode	00000026 raw_bind
20023982 g     F .ramcode	00000574 ip_reass
000073d4 g     F .text	000000f6 pbuf_realloc
20025f14 g     F .ramcode	00000030 _isatty_r
000019e0 g     F .text	0000001a tcp_next_iss
20024d28 g     F .ramcode	000000da _puts_r
00000a9e g     F .text	000000a6 tcp_update_rcv_ann_wnd
20025f44 g     F .ramcode	00000034 _lseek_r
20001fc0 g     O .bss	00000004 netif_list
000000dc  w      .text	00000000 EMMC_IRQHandler
20020d20 g     F .ramcode	00000006 Net_TimerIsr
0000547e g     F .text	00000164 tcp_rst
000000d2  w      .text	00000000 LINK_IRQHandler
20022594 g     F .ramcode	00000026 CH569NET_MainTask
200000d0 g     O .bss	00000004 TCPTimer
20022ee0 g     F .ramcode	0000012e etharp_request
200000b0 g     O .bss	00000004 tcppackt
20001ee4 g     O .bss	00000001 PingEnable
20024cb6 g     F .ramcode	00000044 printf
20020008 g     F .ramcode	00000028 .hidden __riscv_save_8
00000c8e g     F .text	0000001c tcp_err
20000094 g     O .data	00000004 ip_addr_any
20024a16 g     F .ramcode	0000012c inet_chksum_pseudo
200204b2 g     F .ramcode	000000e0 ETH_StructInit
20025e40 g     F .ramcode	00000036 __sseek
2002523e g     F .ramcode	00000070 __sinit
00004cc0 g     F .text	0000001e tcp_send_ctrl
20024e12 g     F .ramcode	000000c0 __swbuf_r
000078ae g     F .text	00000048 HardFault_Handler
00005dcc g     F .text	000001f4 ip_output_if
20022238 g     F .ramcode	00000026 CH569NET_SocketRecvLen
200251f8 g     F .ramcode	00000046 __sfmoreglue
20020108 g     F .ramcode	000000bc phy_int_cheak_init
00006468 g     F .text	00000018 memp_free
20025f94 g     F .ramcode	00000002 __malloc_unlock
000070e0 g     F .text	0000008e pbuf_free
20020054 g     F .ramcode	0000000c .hidden __riscv_restore_3
00000c56 g     F .text	0000001c tcp_recv
200207e0 g     F .ramcode	000002e4 ETH_Init
000000c4  w      .text	00000000 SysTick_Handler
00007516 g     F .text	0000006e pbuf_cat
20001ee8 g     O .bss	00000014 CH569Cfg
2002252e g     F .ramcode	0000002c CH569NET_GetSocketInt
00005fc0 g     F .text	0000003c ip_output
20020040 g     F .ramcode	00000020 .hidden __riscv_restore_10
0000696c g     F .text	00000054 udp_sendto
000000c0  w      .text	00000000 NMI_Handler
20020e0a g     F .ramcode	000000e4 CH569NET_HandleSockInt
00005818 g     F .text	00000068 tcp_keepalive
20022c62 g     F .ramcode	00000080 etharp_tmr
20020008 g     F .ramcode	00000028 .hidden __riscv_save_11
000019fa g     F .text	00000284 tcp_alloc
000000e4  w      .text	00000000 UART1_IRQHandler
20023404 g     F .ramcode	00000038 low_level_init
200266f8 g     O .ramcode	00000010 MemSize
000069c0 g     F .text	000002d8 udp_sendto_if
00000c3a g     F .text	0000001c tcp_arg
20021dbe g     F .ramcode	00000208 CH569NET_SocketCreat
000000da  w      .text	00000000 USBHS_IRQHandler
20022d3a g     F .ramcode	000001a6 etharp_arp_input
20001fc8 g     O .bss	00000004 tcp_active_pcbs
20025ee2 g     F .ramcode	00000032 _fstat_r
20001fe4 g     O .bss	00000004 udp_pcbs
20001fe8 g     O .bss	00000004 errno
200232ee g     F .ramcode	00000084 ethernet_input
200000a8 g       .bss	00000000 _sbss
00000800 g       *ABS*	00000000 __stack_size
000074f6 g     F .text	00000020 pbuf_ref
20020f5e g     F .ramcode	00000086 CH569NET_CreatTcpSocket
000016b6 g     F .text	00000040 tcp_recv_null
20001fb4 g     O .bss	00000004 current_netif
0000153a g     F .text	0000017c tcp_close
20000860 g       .data	00000000 _global_pointer$
20001fa8 g     O .bss	0000000c SelARP
00000b44 g     F .text	0000006c tcp_recved
20020054 g     F .ramcode	0000000c .hidden __riscv_restore_2
00000ce6 g     F .text	00000102 tcp_pcb_purge
000000d8  w      .text	00000000 UART0_IRQHandler
20000098 g     O .data	00000007 tcp_persist_backoff
20001fbc g     O .bss	00000004 lfree
20021d74 g     F .ramcode	00000016 CH569NET_ConfigKeepLive
20024c00 g     F .ramcode	000000b6 memcpy
00006050 g     F .text	000000fa mem_free
20001fcc g     O .bss	00000004 tcp_ticks
2002068c g     F .ramcode	00000050 ETH_buf_init
20001fd0 g     O .bss	00000004 tcp_listen_pcbs
000055e2 g     F .text	000000a0 tcp_rexmit_rto
200251ee g     F .ramcode	0000000a _cleanup_r
0000774c g     F .text	00000052 ip_addr_isbroadcast
20001dec g     O .bss	00000004 DMARxDescToGet
00001c7e g     F .text	00000016 tcp_new
20023740 g     F .ramcode	0000005c IPCheckTmr
20024e02 g     F .ramcode	00000010 puts
20001efc g     O .bss	00000018 DHCPCtrl
2002451a g     F .ramcode	0000000e raw_send
20024b56 g     F .ramcode	000000aa inet_chksum_pbuf
000000c6  w      .text	00000000 SWI_Handler
20025fda g     F .ramcode	00000010 _fstat
20024630 g     F .ramcode	0000033e icmp_input
00000004 g       .init	00000000 _einit
20021c1a g     F .ramcode	0000015a CH569NET_Init
20024328 g     F .ramcode	00000066 netif_add
20020000 g     F .ramcode	00000030 .hidden __riscv_save_12
00000be2 g     F .text	00000024 tcp_segs_free
0000785a g     F .text	0000002a PMT_IRQHandler
2002418a g     F .ramcode	00000142 netif_set_ipaddr
20020040 g     F .ramcode	00000020 .hidden __riscv_restore_11
000000e2  w      .text	00000000 SPI1_IRQHandler
20025d92 g     F .ramcode	00000030 _sbrk_r
00004cde g     F .text	00000050 tcp_write
20020030 g     F .ramcode	0000000c .hidden __riscv_save_1
00007884 g     F .text	0000002a TMR0_IRQHandler
20020054 g     F .ramcode	0000000c .hidden __riscv_restore_0
20025f96 g     F .ramcode	00000034 _read_r
20020016 g     F .ramcode	0000001a .hidden __riscv_save_7
20020d78 g     F .ramcode	00000026 net_initkeeplive
000005e0 g     F .text	000002a4 tcp_bind
2002122c g     F .ramcode	00000330 GPIOB_ITModeCfg
20024980 g     F .ramcode	00000012 icmp_time_exceeded
20023ef6 g     F .ramcode	00000294 ip_frag
20021586 g     F .ramcode	0000002c mDelaymS
000000f0  w      .text	00000000 ECDC_IRQHandler
2002030a g     F .ramcode	0000002a ETH_GPIO_Init
20024480 g     F .ramcode	0000009a raw_sendto
20025fea g     F .ramcode	00000010 _isatty
20020bd6 g     F .ramcode	0000002a ETH_init
200000a0 g     O .data	00000004 _global_impure_ptr
2002004a g     F .ramcode	00000016 .hidden __riscv_restore_5
20000164 g     O .bss	00000001 SocketId
20020000 g       .ramcode	00000000 _ramcode_vma
2002601a g     F .ramcode	00000030 _sbrk
0000759c g     F .text	000001b0 pbuf_copy
00005682 g     F .text	000000da tcp_rexmit
2002164c g     F .ramcode	00000004 LwipTCPPollCallBack
20001df0 g     O .bss	00000004 DMATxDescToSet
20020ac4 g     F .ramcode	000000b2 ETH_MACDMA_Config
2002004a g     F .ramcode	00000016 .hidden __riscv_restore_6
20001fd4 g     O .bss	00000004 tcp_tmp_pcb
20001fec g       .bss	00000000 _ebss
20000168 g     O .bss	000005b4 MyBuf
20028df0 g     O .ramcode	0000120c Mem_Heap_Memory
200000c0 g     O .bss	00000004 DHCPcoarseTimer
20001f14 g     O .bss	00000001 SocketNum
20020334 g     F .ramcode	00000032 RGMII_TXC_Delay
2002155c g     F .ramcode	0000002a Delay_Init
00005ffc g     F .text	00000054 mem_init
000000de  w      .text	00000000 DVP_IRQHandler
200206dc g     F .ramcode	00000040 Check_TxDes
00004da8 g     F .text	000006d6 tcp_output
000000d0  w      .text	00000000 USBSS_IRQHandler
20025d0c g     F .ramcode	00000086 _putc_r
20020392 g     F .ramcode	00000030 ETH_uClock_enable
20001fe0 g     O .bss	00000004 tcp_input_pcb
200243a0 g     F .ramcode	0000008e raw_input
2002200a g     F .ramcode	00000048 CH569NET_ModifyRecvBuf
00004d2e g     F .text	0000007a tcp_send_empty_ack
20020008 g     F .ramcode	00000028 .hidden __riscv_save_9
0000575c g     F .text	000000bc tcp_rexmit_fast
20001f74 g     O .bss	00000034 CH569NetIf
20029ffc g     O .ramcode	00002c73 Memp_Memory
20023816 g     F .ramcode	0000000a ntohl
20000150 g     O .bss	0000000c globe_eth_status
2002071c g     F .ramcode	0000000e ETH_SoftwareReset
20026848 g     O .ramcode	00000020 __sf_fake_stderr
20020016 g     F .ramcode	0000001a .hidden __riscv_save_4
2002438e g     F .ramcode	0000000a netif_set_default
2002078c g     F .ramcode	00000054 ETH_WritePHYRegister
00006f86 g     F .text	0000002e udp_recv
20001fec g       .bss	00000000 end
2000015c g     O .bss	00000008 Globe_RxDes_status
000000e6  w      .text	00000000 UART2_IRQHandler
20020fe4 g     F .ramcode	00000028 register_if_fn
00008000 g       .ramcodelalign	00000000 _ramcode_lma
2002379c g     F .ramcode	0000003a IPConflictHandle
0000716e g     F .text	00000266 pbuf_alloc
20023718 g     F .ramcode	00000028 SelIPARPSend
200224d4 g     F .ramcode	00000048 CH569NET_QueryGlobalInt
20021bb0 g     F .ramcode	00000022 MemShortCopy
20020d9e g     F .ramcode	0000006c CH569NET_LibInit
2002567a g     F .ramcode	00000044 __sfputs_r
200218e2 g     F .ramcode	000001d8 CH569SocketTCPReceive
20025f78 g     F .ramcode	0000001a memchr
20023838 g     F .ramcode	0000014a ip_reass_tmr
20000074 g     O .data	00000004 memp_sizes
200254b8 g     F .ramcode	000000b0 _free_r
20020030 g     F .ramcode	0000000c .hidden __riscv_save_3
00006e30 g     F .text	00000156 udp_connect
20001fb8 g     O .bss	00000004 current_header
20026708 g     O .ramcode	00000010 ErrTable
200242cc g     F .ramcode	0000005c netif_set_addr
20020d26 g     F .ramcode	00000052 DebugInit
00000000 g       .init	00000000 _start
20020c00 g     F .ramcode	000000ec ETH_MACDMA_reConfig
20025ffa g     F .ramcode	00000010 _lseek
00006448 g     F .text	00000020 memp_malloc
2002246c g     F .ramcode	00000068 CH569ScokedIntHandle
00005880 g     F .text	00000128 tcp_zero_window_probe
20020b76 g     F .ramcode	00000060 Mac_init
200000bc g     O .bss	00000004 DHCPTestTimer
20001f18 g     O .bss	0000000c KeepLiveCfg
20020374 g     F .ramcode	0000001e ETH_Mem_Malloc
20001fd8 g     O .bss	00000004 tcp_bound_pcbs
200237f2 g     F .ramcode	00000024 htonl
00000bb0 g     F .text	00000032 tcp_seg_free
000000d6  w      .text	00000000 TMR2_IRQHandler
20021daa g     F .ramcode	00000004 CH569NET_GetVer
2002275e g     F .ramcode	000000aa LwipRemoveTcpPcb
200235ec g     F .ramcode	00000106 LwIPPeriodicHandle
200000ac g     O .bss	00000004 CH569NETConfig
200203c2 g     F .ramcode	0000009a mac_send
2002072a g     F .ramcode	0000000a ETH_GetSoftwareResetStatus
20025eb2 g     F .ramcode	00000030 _close_r
00006284 g     F .text	0000016a mem_malloc
20000000 g       .dalign	00000000 _data_vma
20001f24 g     O .bss	00000044 CH569Inf
200205d0 g     F .ramcode	00000054 ETH_DMARxDescChainInit
200215da g     F .ramcode	00000002 CH569TCPError
20024ed2 g     F .ramcode	00000110 __swsetup_r
20020734 g     F .ramcode	00000058 ETH_ReadPHYRegister
200252ae g     F .ramcode	000000a4 __sfp
0000468c g     F .text	00000634 tcp_enqueue
00001c94 g     F .text	00000038 tcp_eff_send_mss
20020008 g     F .ramcode	00000028 .hidden __riscv_save_10
200226fa g     F .ramcode	00000064 CH569FileCorrectTCBPcb
20025dc2 g     F .ramcode	00000030 __sread
20025f92 g     F .ramcode	00000002 __malloc_lock
2002004a g     F .ramcode	00000016 .hidden __riscv_restore_4
20020040 g     F .ramcode	00000020 .hidden __riscv_restore_8
2002511e g     F .ramcode	00000066 _fflush_r
20020016 g     F .ramcode	0000001a .hidden __riscv_save_6
20024454 g     F .ramcode	00000026 raw_connect
20026868 g     O .ramcode	00000020 __sf_fake_stdin
20020060 g     F .ramcode	000000a8 memset
20020040 g     F .ramcode	00000020 .hidden __riscv_restore_9
2002004a g     F .ramcode	00000016 .hidden __riscv_restore_7
2002100c g     F .ramcode	00000126 main
200000cc g     O .bss	00000004 LocalTime
2002496e g     F .ramcode	00000012 icmp_dest_unreach
20021650 g     F .ramcode	0000014c SocketIPRAWReceive
20020366 g     F .ramcode	0000000e Get_TxBuff_Addr
00000c72 g     F .text	0000001c tcp_sent
20024398 g     F .ramcode	00000008 netif_is_up
20025e76 g     F .ramcode	00000006 __sclose
20021bd2 g     F .ramcode	00000048 CH569SocketInit
200237e4 g     F .ramcode	0000000e ntohs
20025568 g     F .ramcode	000000e8 _malloc_r
200000c8 g     O .bss	00000004 IPFragTimer
20024528 g     F .ramcode	00000042 raw_new
2002346a g     F .ramcode	000000e0 ethernetif_input
20022858 g     F .ramcode	00000074 CH569NET_SocketListen
2002045c g     F .ramcode	00000056 mac_rece
200201c4 g     F .ramcode	00000146 cheak_phy_int
20022372 g     F .ramcode	000000fa SocketUdpSend
00006c98 g     F .text	00000198 udp_bind
000017e8 g     F .text	00000030 tcp_tmr
2002300e g     F .ramcode	0000015a etharp_query
20023820 g     F .ramcode	00000018 lwip_init
20023168 g     F .ramcode	00000186 etharp_output
20021132 g     F .ramcode	000000fa SystemInit
20024cb6 g     F .ramcode	00000044 iprintf
200225ba g     F .ramcode	000000ee SocketTcpSend
20021aba g     F .ramcode	000000d8 CH569TCPServerAccept
20022900 g     F .ramcode	00000014 frame_input
000074ca g     F .text	0000002c pbuf_clen
00000000 g       .init	00000000 _sinit
20025e7c g     F .ramcode	00000036 _write_r
20021b92 g     F .ramcode	0000001e ErrorEncode
00006932 g     F .text	0000003a udp_send
2002447a g     F .ramcode	00000006 raw_recv
200266e8 g     O .ramcode	00000010 MemNum
000077c6 g     F .text	00000094 ETH_IRQHandler
2002595c g     F .ramcode	0000010c _printf_common
20000080 g     O .data	00000004 _impure_ptr
20021d8a g     F .ramcode	00000020 CH569NET_ConfigLIB
00000de8 g     F .text	000005de tcp_slowtmr
2002251c g     F .ramcode	00000012 CH569NET_GetGlobalInt
20024fe2 g     F .ramcode	0000013c __sflush_r
20000060 g     O .data	00000004 CH569IPAddr
00000caa g     F .text	0000001c tcp_accept
2002343c g     F .ramcode	0000002e ethernetif_init
20004000 g       .usrstack	00000000 _eusrstack
20020030 g     F .ramcode	0000000c .hidden __riscv_save_2
200226a8 g     F .ramcode	00000052 CH569NET_SocketSend
20021fc6 g     F .ramcode	00000044 tcp_recved_socket
200236f2 g     F .ramcode	00000026 IPCheckParaInit
2002cc70 g       .ramcode	00000000 _eramcode
200253be g     F .ramcode	0000005a __swhatbuf_r
20001fdc g     O .bss	00000004 tcp_tw_pcbs
00006480 g     F .text	000004b2 udp_input
20020016 g     F .ramcode	0000001a .hidden __riscv_save_5
200000c4 g     O .bss	00000004 DHCPfineTimer
200215b2 g     F .ramcode	00000028 _write
200000a8 g       .data	00000000 _edata
000000ce  w      .text	00000000 SPI0_IRQHandler
200237d6 g     F .ramcode	0000000e htons
20022808 g     F .ramcode	00000050 CH569NET_SocketSetKeepLive
000059a8 g     F .text	0000006e ip_route
00000884 g     F .text	0000021a tcp_listen_with_backlog
000078f8 g       .dlalign	00000000 _data_lma
00006ff8 g     F .text	000000e8 pbuf_header
0000614a g     F .text	0000013a mem_realloc
20001fc4 g     O .bss	00000004 netif_default
00001420 g     F .text	0000011a tcp_pcb_remove
20000068 g     O .data	00000004 SubMaskIp
20025df2 g     F .ramcode	0000004e __swrite
2002255a g     F .ramcode	0000003a CH569IPSetSocketRecvInit
00007584 g     F .text	00000018 pbuf_chain
20028cf0 g     O .ramcode	00000100 Mem_ArpTable
200268f0 g     O .ramcode	00002400 MAC_QUEUE
200000b8 g     O .bss	00000004 ARPTimer
00001818 g     F .text	000001c8 tcp_abandon
2002179c g     F .ramcode	00000146 SocketUdpReceive
200256be g     F .ramcode	0000029e _vfiprintf_r
2000006c g     O .data	00000006 local_mac
20020592 g     F .ramcode	0000003e ETH_MACAddressConfig
20025352 g     F .ramcode	0000006c _fwalk_reent
20001df4 g     O .bss	000000f0 SocketInf
000063ee g     F .text	0000005a memp_init
000016f6 g     F .text	000000f2 tcp_fasttmr
2002225e g     F .ramcode	00000114 SocketIPRawSend
20020cec g     F .ramcode	00000034 TMR0_init
20026888 g     O .ramcode	00000020 __sf_fake_stdout
20022ce2 g     F .ramcode	00000058 etharp_ip_input
20021dae g     F .ramcode	00000010 CH569NET_TimeIsr
2002003c g     F .ramcode	00000024 .hidden __riscv_restore_12
000000c8  w      .text	00000000 WDOG_IRQHandler
20020eee g     F .ramcode	00000070 CH569NET_HandleGlobalInt
000000e0  w      .text	00000000 HSPI_IRQHandler
20001f68 g     O .bss	0000000c ethernet_if
2002600a g     F .ramcode	00000010 _read
000000f2  w      .text	00000000 handle_reset
2000071c g     O .bss	000016d0 SocketRecvBuf
20020030 g     F .ramcode	0000000c .hidden __riscv_save_0
200228cc g     F .ramcode	0000000a QueryPingEnable
00000c06 g     F .text	00000034 tcp_seg_copy
20025418 g     F .ramcode	000000a0 __smakebuf_r
2002354a g     F .ramcode	000000a2 SetupNetif
00000cc6 g     F .text	00000020 tcp_poll
20025a68 g     F .ramcode	000002a4 _printf_i
00006fb4 g     F .text	00000044 udp_new
000000e8  w      .text	00000000 UART3_IRQHandler
20000114 g     O .bss	00000004 __malloc_sbrk_start
20000064 g     O .data	00000004 GatewayIp
20000084 g     O .data	00000006 ethbroadcast
2002679c g     O .ramcode	00000014 tcp_backoff
20000110 g     O .bss	00000004 __malloc_free_list
20020054 g     F .ramcode	0000000c .hidden __riscv_restore_1
200256be g     F .ramcode	0000029e _vfprintf_r
000000d4  w      .text	00000000 TMR1_IRQHandler
200215dc g     F .ramcode	00000070 LwipTCPSendCallBack
200228f4 g     F .ramcode	0000000c LwipArpCheck
000000ea  w      .text	00000000 SERDES_IRQHandler
00002fe0 g     F .text	00001504 tcp_input
20022052 g     F .ramcode	000001e6 CH569NET_SocketRecv
000013c6 g     F .text	0000005a RemoveTimeWaiTCP
00005a16 g     F .text	000003b6 ip_input
2000008c g     O .data	00000006 ethzero
20025fca g     F .ramcode	00000010 _close
200228d6 g     F .ramcode	0000001e LwipUnreachPort
20020624 g     F .ramcode	00000068 ETH_DMATxDescChainInit



Disassembly of section .init:

00000000 <_sinit>:
   0:	0f20006f          	j	f2 <handle_reset>

Disassembly of section .vector:

00000004 <_vector_base>:
	...
   c:	0b40006f          	j	c0 <NMI_Handler>
  10:	09f0706f          	j	78ae <HardFault_Handler>
	...
  34:	0900006f          	j	c4 <SysTick_Handler>
  38:	0000                	unimp
  3a:	0000                	unimp
  3c:	08a0006f          	j	c6 <SWI_Handler>
  40:	0000                	unimp
  42:	0000                	unimp
  44:	0840006f          	j	c8 <WDOG_IRQHandler>
  48:	03d0706f          	j	7884 <TMR0_IRQHandler>
  4c:	7520706f          	j	779e <GPIO_IRQHandler>
  50:	07e0006f          	j	ce <SPI0_IRQHandler>
  54:	07c0006f          	j	d0 <USBSS_IRQHandler>
  58:	07a0006f          	j	d2 <LINK_IRQHandler>
  5c:	0780006f          	j	d4 <TMR1_IRQHandler>
  60:	0760006f          	j	d6 <TMR2_IRQHandler>
  64:	0740006f          	j	d8 <UART0_IRQHandler>
  68:	0720006f          	j	da <USBHS_IRQHandler>
  6c:	0700006f          	j	dc <EMMC_IRQHandler>
  70:	06e0006f          	j	de <DVP_IRQHandler>
  74:	06c0006f          	j	e0 <HSPI_IRQHandler>
  78:	06a0006f          	j	e2 <SPI1_IRQHandler>
  7c:	0680006f          	j	e4 <UART1_IRQHandler>
  80:	0660006f          	j	e6 <UART2_IRQHandler>
  84:	0640006f          	j	e8 <UART3_IRQHandler>
  88:	0620006f          	j	ea <SERDES_IRQHandler>
  8c:	73a0706f          	j	77c6 <ETH_IRQHandler>
  90:	7ca0706f          	j	785a <PMT_IRQHandler>
  94:	05c0006f          	j	f0 <ECDC_IRQHandler>
	...

Disassembly of section .text:

000000c0 <NMI_Handler>:
      c0:	a001                	j	c0 <NMI_Handler>
      c2:	a001                	j	c2 <NMI_Handler+0x2>

000000c4 <SysTick_Handler>:
      c4:	a001                	j	c4 <SysTick_Handler>

000000c6 <SWI_Handler>:
      c6:	a001                	j	c6 <SWI_Handler>

000000c8 <WDOG_IRQHandler>:
      c8:	a001                	j	c8 <WDOG_IRQHandler>
      ca:	a001                	j	ca <WDOG_IRQHandler+0x2>
      cc:	a001                	j	cc <WDOG_IRQHandler+0x4>

000000ce <SPI0_IRQHandler>:
      ce:	a001                	j	ce <SPI0_IRQHandler>

000000d0 <USBSS_IRQHandler>:
      d0:	a001                	j	d0 <USBSS_IRQHandler>

000000d2 <LINK_IRQHandler>:
      d2:	a001                	j	d2 <LINK_IRQHandler>

000000d4 <TMR1_IRQHandler>:
      d4:	a001                	j	d4 <TMR1_IRQHandler>

000000d6 <TMR2_IRQHandler>:
      d6:	a001                	j	d6 <TMR2_IRQHandler>

000000d8 <UART0_IRQHandler>:
      d8:	a001                	j	d8 <UART0_IRQHandler>

000000da <USBHS_IRQHandler>:
      da:	a001                	j	da <USBHS_IRQHandler>

000000dc <EMMC_IRQHandler>:
      dc:	a001                	j	dc <EMMC_IRQHandler>

000000de <DVP_IRQHandler>:
      de:	a001                	j	de <DVP_IRQHandler>

000000e0 <HSPI_IRQHandler>:
      e0:	a001                	j	e0 <HSPI_IRQHandler>

000000e2 <SPI1_IRQHandler>:
      e2:	a001                	j	e2 <SPI1_IRQHandler>

000000e4 <UART1_IRQHandler>:
      e4:	a001                	j	e4 <UART1_IRQHandler>

000000e6 <UART2_IRQHandler>:
      e6:	a001                	j	e6 <UART2_IRQHandler>

000000e8 <UART3_IRQHandler>:
      e8:	a001                	j	e8 <UART3_IRQHandler>

000000ea <SERDES_IRQHandler>:
      ea:	a001                	j	ea <SERDES_IRQHandler>
      ec:	a001                	j	ec <SERDES_IRQHandler+0x2>
      ee:	a001                	j	ee <SERDES_IRQHandler+0x4>

000000f0 <ECDC_IRQHandler>:
      f0:	a001                	j	f0 <ECDC_IRQHandler>

000000f2 <handle_reset>:
      f2:	20000197          	auipc	gp,0x20000
      f6:	76e18193          	addi	gp,gp,1902 # 20000860 <_global_pointer$>
      fa:	20004117          	auipc	sp,0x20004
      fe:	f0610113          	addi	sp,sp,-250 # 20004000 <_eusrstack>
     102:	00008517          	auipc	a0,0x8
     106:	efe50513          	addi	a0,a0,-258 # 8000 <_ramcode_lma>
     10a:	20020597          	auipc	a1,0x20020
     10e:	ef658593          	addi	a1,a1,-266 # 20020000 <__riscv_save_12>
     112:	2002d617          	auipc	a2,0x2002d
     116:	b5e60613          	addi	a2,a2,-1186 # 2002cc70 <_eramcode>
     11a:	00c5fa63          	bgeu	a1,a2,12e <handle_reset+0x3c>
     11e:	00052283          	lw	t0,0(a0)
     122:	0055a023          	sw	t0,0(a1)
     126:	0511                	addi	a0,a0,4
     128:	0591                	addi	a1,a1,4
     12a:	fec5eae3          	bltu	a1,a2,11e <handle_reset+0x2c>
     12e:	00007517          	auipc	a0,0x7
     132:	7ca50513          	addi	a0,a0,1994 # 78f8 <_data_lma>
     136:	20000597          	auipc	a1,0x20000
     13a:	eca58593          	addi	a1,a1,-310 # 20000000 <_data_vma>
     13e:	20000617          	auipc	a2,0x20000
     142:	f6a60613          	addi	a2,a2,-150 # 200000a8 <_edata>
     146:	00c5fa63          	bgeu	a1,a2,15a <handle_reset+0x68>
     14a:	00052283          	lw	t0,0(a0)
     14e:	0055a023          	sw	t0,0(a1)
     152:	0511                	addi	a0,a0,4
     154:	0591                	addi	a1,a1,4
     156:	fec5eae3          	bltu	a1,a2,14a <handle_reset+0x58>
     15a:	20000517          	auipc	a0,0x20000
     15e:	f4e50513          	addi	a0,a0,-178 # 200000a8 <_edata>
     162:	20002597          	auipc	a1,0x20002
     166:	e8a58593          	addi	a1,a1,-374 # 20001fec <_ebss>
     16a:	00b57763          	bgeu	a0,a1,178 <handle_reset+0x86>
     16e:	00052023          	sw	zero,0(a0)
     172:	0511                	addi	a0,a0,4
     174:	feb56de3          	bltu	a0,a1,16e <handle_reset+0x7c>
     178:	08800293          	li	t0,136
     17c:	3002a073          	csrs	mstatus,t0
     180:	00000297          	auipc	t0,0x0
     184:	e8428293          	addi	t0,t0,-380 # 4 <_einit>
     188:	0012e293          	ori	t0,t0,1
     18c:	30529073          	csrw	mtvec,t0
     190:	20021297          	auipc	t0,0x20021
     194:	e7c28293          	addi	t0,t0,-388 # 2002100c <main>
     198:	34129073          	csrw	mepc,t0
     19c:	30200073          	mret
     1a0:	00000263          	beqz	zero,1a4 <handle_reset+0xb2>
     1a4:	00350003          	lb	zero,3(a0)
     1a8:	0000                	unimp
     1aa:	0101                	addi	sp,sp,0
     1ac:	000d0efb          	0xd0efb
     1b0:	0101                	addi	sp,sp,0
     1b2:	0101                	addi	sp,sp,0
     1b4:	0000                	unimp
     1b6:	0100                	addi	s0,sp,128
     1b8:	0000                	unimp
     1ba:	2e01                	jal	4ca <handle_reset+0x3d8>
     1bc:	2f2e                	fld	ft10,200(sp)
     1be:	2f435253          	0x2f435253
     1c2:	72617453          	0x72617453
     1c6:	7574                	flw	fa3,108(a0)
     1c8:	0070                	addi	a2,sp,12
     1ca:	7300                	flw	fs0,32(a4)
     1cc:	6174                	flw	fa3,68(a0)
     1ce:	7472                	flw	fs0,60(sp)
     1d0:	7075                	c.lui	zero,0xffffd
     1d2:	435f 3548 7836      	0x78363548435f
     1d8:	532e                	lw	t1,232(sp)
     1da:	0100                	addi	s0,sp,128
     1dc:	0000                	unimp
     1de:	0000                	unimp
     1e0:	0205                	addi	tp,tp,1
     1e2:	0000                	unimp
     1e4:	0000                	unimp
     1e6:	09010c03          	lb	s8,144(sp)
     1ea:	0004                	0x4
     1ec:	0100                	addi	s0,sp,128
     1ee:	0001                	nop
     1f0:	0205                	addi	tp,tp,1
     1f2:	000c                	0xc
     1f4:	0000                	unimp
     1f6:	03011403          	lh	s0,48(sp)
     1fa:	0901                	addi	s2,s2,0
     1fc:	0004                	0x4
     1fe:	0301                	addi	t1,t1,0
     200:	0909                	addi	s2,s2,2
     202:	0024                	addi	s1,sp,8
     204:	0301                	addi	t1,t1,0
     206:	0902                	c.slli64	s2
     208:	0008                	0x8
     20a:	0301                	addi	t1,t1,0
     20c:	00080903          	lb	s2,0(a6)
     210:	0301                	addi	t1,t1,0
     212:	0901                	addi	s2,s2,0
     214:	0004                	0x4
     216:	0301                	addi	t1,t1,0
     218:	0901                	addi	s2,s2,0
     21a:	0004                	0x4
     21c:	0301                	addi	t1,t1,0
     21e:	0901                	addi	s2,s2,0
     220:	0004                	0x4
     222:	0301                	addi	t1,t1,0
     224:	0901                	addi	s2,s2,0
     226:	0004                	0x4
     228:	0301                	addi	t1,t1,0
     22a:	0901                	addi	s2,s2,0
     22c:	0004                	0x4
     22e:	0301                	addi	t1,t1,0
     230:	0901                	addi	s2,s2,0
     232:	0004                	0x4
     234:	0301                	addi	t1,t1,0
     236:	0901                	addi	s2,s2,0
     238:	0004                	0x4
     23a:	0301                	addi	t1,t1,0
     23c:	0901                	addi	s2,s2,0
     23e:	0004                	0x4
     240:	0301                	addi	t1,t1,0
     242:	0901                	addi	s2,s2,0
     244:	0004                	0x4
     246:	0301                	addi	t1,t1,0
     248:	0901                	addi	s2,s2,0
     24a:	0004                	0x4
     24c:	0301                	addi	t1,t1,0
     24e:	0901                	addi	s2,s2,0
     250:	0004                	0x4
     252:	0301                	addi	t1,t1,0
     254:	0901                	addi	s2,s2,0
     256:	0004                	0x4
     258:	0301                	addi	t1,t1,0
     25a:	0901                	addi	s2,s2,0
     25c:	0004                	0x4
     25e:	0301                	addi	t1,t1,0
     260:	0901                	addi	s2,s2,0
     262:	0004                	0x4
     264:	0301                	addi	t1,t1,0
     266:	0901                	addi	s2,s2,0
     268:	0004                	0x4
     26a:	0301                	addi	t1,t1,0
     26c:	0901                	addi	s2,s2,0
     26e:	0004                	0x4
     270:	0301                	addi	t1,t1,0
     272:	0901                	addi	s2,s2,0
     274:	0004                	0x4
     276:	0301                	addi	t1,t1,0
     278:	0901                	addi	s2,s2,0
     27a:	0004                	0x4
     27c:	0301                	addi	t1,t1,0
     27e:	0901                	addi	s2,s2,0
     280:	0004                	0x4
     282:	0301                	addi	t1,t1,0
     284:	0901                	addi	s2,s2,0
     286:	0004                	0x4
     288:	0901                	addi	s2,s2,0
     28a:	0004                	0x4
     28c:	0100                	addi	s0,sp,128
     28e:	0001                	nop
     290:	0205                	addi	tp,tp,1
     292:	00c0                	addi	s0,sp,68
     294:	0000                	unimp
     296:	0100d603          	lhu	a2,16(ra)
     29a:	02090103          	lb	sp,32(s2)
     29e:	0100                	addi	s0,sp,128
     2a0:	02090103          	lb	sp,32(s2)
     2a4:	0100                	addi	s0,sp,128
     2a6:	02090103          	lb	sp,32(s2)
     2aa:	0100                	addi	s0,sp,128
     2ac:	02090103          	lb	sp,32(s2)
     2b0:	0100                	addi	s0,sp,128
     2b2:	02090103          	lb	sp,32(s2)
     2b6:	0100                	addi	s0,sp,128
     2b8:	02090103          	lb	sp,32(s2)
     2bc:	0100                	addi	s0,sp,128
     2be:	02090103          	lb	sp,32(s2)
     2c2:	0100                	addi	s0,sp,128
     2c4:	02090103          	lb	sp,32(s2)
     2c8:	0100                	addi	s0,sp,128
     2ca:	02090103          	lb	sp,32(s2)
     2ce:	0100                	addi	s0,sp,128
     2d0:	02090103          	lb	sp,32(s2)
     2d4:	0100                	addi	s0,sp,128
     2d6:	02090103          	lb	sp,32(s2)
     2da:	0100                	addi	s0,sp,128
     2dc:	02090103          	lb	sp,32(s2)
     2e0:	0100                	addi	s0,sp,128
     2e2:	02090103          	lb	sp,32(s2)
     2e6:	0100                	addi	s0,sp,128
     2e8:	02090103          	lb	sp,32(s2)
     2ec:	0100                	addi	s0,sp,128
     2ee:	02090103          	lb	sp,32(s2)
     2f2:	0100                	addi	s0,sp,128
     2f4:	02090103          	lb	sp,32(s2)
     2f8:	0100                	addi	s0,sp,128
     2fa:	02090103          	lb	sp,32(s2)
     2fe:	0100                	addi	s0,sp,128
     300:	02090103          	lb	sp,32(s2)
     304:	0100                	addi	s0,sp,128
     306:	02090103          	lb	sp,32(s2)
     30a:	0100                	addi	s0,sp,128
     30c:	02090103          	lb	sp,32(s2)
     310:	0100                	addi	s0,sp,128
     312:	02090103          	lb	sp,32(s2)
     316:	0100                	addi	s0,sp,128
     318:	02090103          	lb	sp,32(s2)
     31c:	0100                	addi	s0,sp,128
     31e:	02090103          	lb	sp,32(s2)
     322:	0100                	addi	s0,sp,128
     324:	02090103          	lb	sp,32(s2)
     328:	0100                	addi	s0,sp,128
     32a:	0209                	addi	tp,tp,2
     32c:	0000                	unimp
     32e:	0101                	addi	sp,sp,0
     330:	0500                	addi	s0,sp,640
     332:	f202                	fsw	ft0,36(sp)
     334:	0000                	unimp
     336:	0300                	addi	s0,sp,384
     338:	00f6                	slli	ra,ra,0x1d
     33a:	0301                	addi	t1,t1,0
     33c:	00080903          	lb	s2,0(a6)
     340:	0301                	addi	t1,t1,0
     342:	00080903          	lb	s2,0(a6)
     346:	0301                	addi	t1,t1,0
     348:	0901                	addi	s2,s2,0
     34a:	0008                	0x8
     34c:	0301                	addi	t1,t1,0
     34e:	0901                	addi	s2,s2,0
     350:	0008                	0x8
     352:	0301                	addi	t1,t1,0
     354:	0901                	addi	s2,s2,0
     356:	0008                	0x8
     358:	0301                	addi	t1,t1,0
     35a:	0902                	c.slli64	s2
     35c:	0004                	0x4
     35e:	0301                	addi	t1,t1,0
     360:	0901                	addi	s2,s2,0
     362:	0004                	0x4
     364:	0301                	addi	t1,t1,0
     366:	0901                	addi	s2,s2,0
     368:	0004                	0x4
     36a:	0301                	addi	t1,t1,0
     36c:	0901                	addi	s2,s2,0
     36e:	0002                	c.slli64	zero
     370:	0301                	addi	t1,t1,0
     372:	0901                	addi	s2,s2,0
     374:	0002                	c.slli64	zero
     376:	0301                	addi	t1,t1,0
     378:	0904                	addi	s1,sp,144
     37a:	0004                	0x4
     37c:	0301                	addi	t1,t1,0
     37e:	0901                	addi	s2,s2,0
     380:	0008                	0x8
     382:	0301                	addi	t1,t1,0
     384:	0901                	addi	s2,s2,0
     386:	0008                	0x8
     388:	0301                	addi	t1,t1,0
     38a:	0901                	addi	s2,s2,0
     38c:	0008                	0x8
     38e:	0301                	addi	t1,t1,0
     390:	0902                	c.slli64	s2
     392:	0004                	0x4
     394:	0301                	addi	t1,t1,0
     396:	0901                	addi	s2,s2,0
     398:	0004                	0x4
     39a:	0301                	addi	t1,t1,0
     39c:	0901                	addi	s2,s2,0
     39e:	0004                	0x4
     3a0:	0301                	addi	t1,t1,0
     3a2:	0901                	addi	s2,s2,0
     3a4:	0002                	c.slli64	zero
     3a6:	0301                	addi	t1,t1,0
     3a8:	0901                	addi	s2,s2,0
     3aa:	0002                	c.slli64	zero
     3ac:	0301                	addi	t1,t1,0
     3ae:	00040903          	lb	s2,0(s0)
     3b2:	0301                	addi	t1,t1,0
     3b4:	0901                	addi	s2,s2,0
     3b6:	0008                	0x8
     3b8:	0301                	addi	t1,t1,0
     3ba:	0901                	addi	s2,s2,0
     3bc:	0008                	0x8
     3be:	0301                	addi	t1,t1,0
     3c0:	0902                	c.slli64	s2
     3c2:	0004                	0x4
     3c4:	0301                	addi	t1,t1,0
     3c6:	0901                	addi	s2,s2,0
     3c8:	0004                	0x4
     3ca:	0301                	addi	t1,t1,0
     3cc:	0901                	addi	s2,s2,0
     3ce:	0002                	c.slli64	zero
     3d0:	0301                	addi	t1,t1,0
     3d2:	0904                	addi	s1,sp,144
     3d4:	0004                	0x4
     3d6:	0301                	addi	t1,t1,0
     3d8:	0901                	addi	s2,s2,0
     3da:	0004                	0x4
     3dc:	0301                	addi	t1,t1,0
     3de:	0901                	addi	s2,s2,0
     3e0:	0004                	0x4
     3e2:	0301                	addi	t1,t1,0
     3e4:	0901                	addi	s2,s2,0
     3e6:	0008                	0x8
     3e8:	0301                	addi	t1,t1,0
     3ea:	0901                	addi	s2,s2,0
     3ec:	0004                	0x4
     3ee:	0301                	addi	t1,t1,0
     3f0:	0901                	addi	s2,s2,0
     3f2:	0004                	0x4
     3f4:	0301                	addi	t1,t1,0
     3f6:	0901                	addi	s2,s2,0
     3f8:	0008                	0x8
     3fa:	0301                	addi	t1,t1,0
     3fc:	00040903          	lb	s2,0(s0)
     400:	0901                	addi	s2,s2,0
     402:	0004                	0x4
     404:	0100                	addi	s0,sp,128
     406:	1e01                	addi	t3,t3,-32
     408:	0000                	unimp
     40a:	0200                	addi	s0,sp,256
     40c:	2900                	fld	fs0,16(a0)
     40e:	0004                	0x4
     410:	0400                	addi	s0,sp,512
     412:	a001                	j	412 <handle_reset+0x320>
     414:	0001                	nop
     416:	d000                	sw	s0,32(s0)
     418:	0004                	0x4
     41a:	7800                	flw	fs0,48(s0)
     41c:	0004                	0x4
     41e:	9700                	0x9700
     420:	0004                	0x4
     422:	c200                	sw	s0,0(a2)
     424:	0004                	0x4
     426:	0100                	addi	s0,sp,128
     428:	0180                	addi	s0,sp,192
     42a:	0011                	c.nop	4
     42c:	0610                	addi	a2,sp,768
     42e:	0655                	addi	a2,a2,21
     430:	0e1b0e03          	lb	t3,225(s6)
     434:	0e25                	addi	t3,t3,9
     436:	00000513          	li	a0,0
     43a:	0000                	unimp
     43c:	0000                	unimp
     43e:	0000                	unimp
     440:	0034                	addi	a3,sp,8
     442:	0000                	unimp
     444:	0002                	c.slli64	zero
     446:	00000407          	0x407
     44a:	0004                	0x4
	...
     454:	0004                	0x4
     456:	0000                	unimp
     458:	0004                	0x4
     45a:	0000                	unimp
     45c:	0094                	addi	a3,sp,64
     45e:	0000                	unimp
     460:	00c0                	addi	s0,sp,68
     462:	0000                	unimp
     464:	0032                	c.slli	zero,0xc
     466:	0000                	unimp
     468:	00f2                	slli	ra,ra,0x1c
     46a:	0000                	unimp
     46c:	00ae                	slli	ra,ra,0xb
	...
     476:	0000                	unimp
     478:	2e2e                	fld	ft8,200(sp)
     47a:	4352532f          	0x4352532f
     47e:	6174532f          	0x6174532f
     482:	7472                	flw	fs0,60(sp)
     484:	7075                	c.lui	zero,0xffffd
     486:	6174732f          	0x6174732f
     48a:	7472                	flw	fs0,60(sp)
     48c:	7075                	c.lui	zero,0xffffd
     48e:	435f 3548 7836      	0x78363548435f
     494:	532e                	lw	t1,232(sp)
     496:	4500                	lw	s0,8(a0)
     498:	5c3a                	lw	s8,172(sp)
     49a:	cfc1cad7          	0xcfc1cad7
     49e:	435c                	lw	a5,4(a4)
     4a0:	3548                	fld	fa0,168(a0)
     4a2:	3936                	fld	fs2,360(sp)
     4a4:	435c                	lw	a5,4(a4)
     4a6:	3548                	fld	fa0,168(a0)
     4a8:	3936                	fld	fs2,360(sp)
     4aa:	f8cd                	bnez	s1,45c <handle_reset+0x36a>
     4ac:	e7c2                	fsw	fa6,204(sp)
     4ae:	fdc0                	fsw	fs0,60(a1)
     4b0:	545cccb3          	0x545cccb3
     4b4:	535f5043          	fmadd.d	ft0,ft10,fs5,fa0,unknown
     4b8:	7265                	lui	tp,0xffff9
     4ba:	6576                	flw	fa0,92(sp)
     4bc:	5c72                	lw	s8,60(sp)
     4be:	006a626f          	jal	tp,a64c4 <_ramcode_lma+0x9e4c4>
     4c2:	20554e47          	fmsub.s	ft8,fa0,ft5,ft4,rmm
     4c6:	5341                	li	t1,-16
     4c8:	3220                	fld	fs0,96(a2)
     4ca:	332e                	fld	ft6,232(sp)
     4cc:	0032                	c.slli	zero,0xc
     4ce:	0000                	unimp
     4d0:	ffff                	0xffff
     4d2:	ffff                	0xffff
	...
     4dc:	0004                	0x4
     4de:	0000                	unimp
     4e0:	0004                	0x4
     4e2:	0000                	unimp
     4e4:	0098                	addi	a4,sp,64
     4e6:	0000                	unimp
     4e8:	00c0                	addi	s0,sp,68
     4ea:	0000                	unimp
     4ec:	00f2                	slli	ra,ra,0x1c
     4ee:	0000                	unimp
     4f0:	00f2                	slli	ra,ra,0x1c
     4f2:	0000                	unimp
     4f4:	01a0                	addi	s0,sp,200
	...

00000500 <tcp_accept_null>:
     500:	556d                	li	a0,-5
     502:	8082                	ret

00000504 <tcp_new_port>:
     504:	20002797          	auipc	a5,0x20002
     508:	ac478793          	addi	a5,a5,-1340 # 20001fc8 <tcp_active_pcbs>
     50c:	4390                	lw	a2,0(a5)
     50e:	20002797          	auipc	a5,0x20002
     512:	ace78793          	addi	a5,a5,-1330 # 20001fdc <tcp_tw_pcbs>
     516:	438c                	lw	a1,0(a5)
     518:	20002797          	auipc	a5,0x20002
     51c:	ab878793          	addi	a5,a5,-1352 # 20001fd0 <tcp_listen_pcbs>
     520:	0007a803          	lw	a6,0(a5)
     524:	20000517          	auipc	a0,0x20000
     528:	b5855503          	lhu	a0,-1192(a0) # 2000007c <port.3573>
     52c:	00150793          	addi	a5,a0,1
     530:	01079513          	slli	a0,a5,0x10
     534:	01079713          	slli	a4,a5,0x10
     538:	8141                	srli	a0,a0,0x10
     53a:	00075363          	bgez	a4,540 <tcp_new_port+0x3c>
     53e:	6505                	lui	a0,0x1
     540:	87b2                	mv	a5,a2
     542:	eb91                	bnez	a5,556 <tcp_new_port+0x52>
     544:	87ae                	mv	a5,a1
     546:	ef9d                	bnez	a5,584 <tcp_new_port+0x80>
     548:	87c2                	mv	a5,a6
     54a:	e7a5                	bnez	a5,5b2 <tcp_new_port+0xae>
     54c:	20000797          	auipc	a5,0x20000
     550:	b2a79823          	sh	a0,-1232(a5) # 2000007c <port.3573>
     554:	8082                	ret
     556:	01a7c703          	lbu	a4,26(a5)
     55a:	0197c683          	lbu	a3,25(a5)
     55e:	0722                	slli	a4,a4,0x8
     560:	8f55                	or	a4,a4,a3
     562:	fca705e3          	beq	a4,a0,52c <tcp_new_port+0x28>
     566:	00d7c703          	lbu	a4,13(a5)
     56a:	00c7c683          	lbu	a3,12(a5)
     56e:	0722                	slli	a4,a4,0x8
     570:	8ed9                	or	a3,a3,a4
     572:	00e7c703          	lbu	a4,14(a5)
     576:	00f7c783          	lbu	a5,15(a5)
     57a:	0742                	slli	a4,a4,0x10
     57c:	8f55                	or	a4,a4,a3
     57e:	07e2                	slli	a5,a5,0x18
     580:	8fd9                	or	a5,a5,a4
     582:	b7c1                	j	542 <tcp_new_port+0x3e>
     584:	01a7c703          	lbu	a4,26(a5)
     588:	0197c683          	lbu	a3,25(a5)
     58c:	0722                	slli	a4,a4,0x8
     58e:	8f55                	or	a4,a4,a3
     590:	f8a70ee3          	beq	a4,a0,52c <tcp_new_port+0x28>
     594:	00d7c703          	lbu	a4,13(a5)
     598:	00c7c683          	lbu	a3,12(a5)
     59c:	0722                	slli	a4,a4,0x8
     59e:	8ed9                	or	a3,a3,a4
     5a0:	00e7c703          	lbu	a4,14(a5)
     5a4:	00f7c783          	lbu	a5,15(a5)
     5a8:	0742                	slli	a4,a4,0x10
     5aa:	8f55                	or	a4,a4,a3
     5ac:	07e2                	slli	a5,a5,0x18
     5ae:	8fd9                	or	a5,a5,a4
     5b0:	bf59                	j	546 <tcp_new_port+0x42>
     5b2:	01a7c703          	lbu	a4,26(a5)
     5b6:	0197c683          	lbu	a3,25(a5)
     5ba:	0722                	slli	a4,a4,0x8
     5bc:	8f55                	or	a4,a4,a3
     5be:	f6a707e3          	beq	a4,a0,52c <tcp_new_port+0x28>
     5c2:	00d7c703          	lbu	a4,13(a5)
     5c6:	00c7c683          	lbu	a3,12(a5)
     5ca:	0722                	slli	a4,a4,0x8
     5cc:	8ed9                	or	a3,a3,a4
     5ce:	00e7c703          	lbu	a4,14(a5)
     5d2:	00f7c783          	lbu	a5,15(a5)
     5d6:	0742                	slli	a4,a4,0x10
     5d8:	8f55                	or	a4,a4,a3
     5da:	07e2                	slli	a5,a5,0x18
     5dc:	8fd9                	or	a5,a5,a4
     5de:	b7b5                	j	54a <tcp_new_port+0x46>

000005e0 <tcp_bind>:
     5e0:	01154703          	lbu	a4,17(a0) # 1011 <tcp_slowtmr+0x229>
     5e4:	01054783          	lbu	a5,16(a0)
     5e8:	0722                	slli	a4,a4,0x8
     5ea:	8f5d                	or	a4,a4,a5
     5ec:	01254783          	lbu	a5,18(a0)
     5f0:	07c2                	slli	a5,a5,0x10
     5f2:	8f5d                	or	a4,a4,a5
     5f4:	01354783          	lbu	a5,19(a0)
     5f8:	07e2                	slli	a5,a5,0x18
     5fa:	8fd9                	or	a5,a5,a4
     5fc:	28079063          	bnez	a5,87c <__stack_size+0x7c>
     600:	20020317          	auipc	t1,0x20020
     604:	a30302e7          	jalr	t0,-1488(t1) # 20020030 <__riscv_save_0>
     608:	1141                	addi	sp,sp,-16
     60a:	842a                	mv	s0,a0
     60c:	84b2                	mv	s1,a2
     60e:	e609                	bnez	a2,618 <tcp_bind+0x38>
     610:	c62e                	sw	a1,12(sp)
     612:	3dcd                	jal	504 <tcp_new_port>
     614:	45b2                	lw	a1,12(sp)
     616:	84aa                	mv	s1,a0
     618:	20002797          	auipc	a5,0x20002
     61c:	9b878793          	addi	a5,a5,-1608 # 20001fd0 <tcp_listen_pcbs>
     620:	439c                	lw	a5,0(a5)
     622:	ebd1                	bnez	a5,6b6 <tcp_bind+0xd6>
     624:	20002797          	auipc	a5,0x20002
     628:	9a478793          	addi	a5,a5,-1628 # 20001fc8 <tcp_active_pcbs>
     62c:	439c                	lw	a5,0(a5)
     62e:	effd                	bnez	a5,72c <tcp_bind+0x14c>
     630:	20002797          	auipc	a5,0x20002
     634:	9a878793          	addi	a5,a5,-1624 # 20001fd8 <tcp_bound_pcbs>
     638:	0007a903          	lw	s2,0(a5)
     63c:	87ca                	mv	a5,s2
     63e:	16079263          	bnez	a5,7a2 <tcp_bind+0x1c2>
     642:	20002797          	auipc	a5,0x20002
     646:	99a78793          	addi	a5,a5,-1638 # 20001fdc <tcp_tw_pcbs>
     64a:	439c                	lw	a5,0(a5)
     64c:	1c079363          	bnez	a5,812 <__stack_size+0x12>
     650:	c595                	beqz	a1,67c <tcp_bind+0x9c>
     652:	0015c703          	lbu	a4,1(a1)
     656:	0005c783          	lbu	a5,0(a1)
     65a:	0722                	slli	a4,a4,0x8
     65c:	8f5d                	or	a4,a4,a5
     65e:	0025c783          	lbu	a5,2(a1)
     662:	07c2                	slli	a5,a5,0x10
     664:	8f5d                	or	a4,a4,a5
     666:	0035c783          	lbu	a5,3(a1)
     66a:	07e2                	slli	a5,a5,0x18
     66c:	8fd9                	or	a5,a5,a4
     66e:	c799                	beqz	a5,67c <tcp_bind+0x9c>
     670:	4611                	li	a2,4
     672:	8522                	mv	a0,s0
     674:	20024097          	auipc	ra,0x20024
     678:	58c080e7          	jalr	1420(ra) # 20024c00 <memcpy>
     67c:	00895793          	srli	a5,s2,0x8
     680:	00940ca3          	sb	s1,25(s0)
     684:	01240623          	sb	s2,12(s0)
     688:	80a1                	srli	s1,s1,0x8
     68a:	00f406a3          	sb	a5,13(s0)
     68e:	01095793          	srli	a5,s2,0x10
     692:	01895913          	srli	s2,s2,0x18
     696:	00f40723          	sb	a5,14(s0)
     69a:	00940d23          	sb	s1,26(s0)
     69e:	012407a3          	sb	s2,15(s0)
     6a2:	20002797          	auipc	a5,0x20002
     6a6:	9287ab23          	sw	s0,-1738(a5) # 20001fd8 <tcp_bound_pcbs>
     6aa:	4501                	li	a0,0
     6ac:	0141                	addi	sp,sp,16
     6ae:	20020317          	auipc	t1,0x20020
     6b2:	9a630067          	jr	-1626(t1) # 20020054 <__riscv_restore_0>
     6b6:	01a7c703          	lbu	a4,26(a5)
     6ba:	0197c683          	lbu	a3,25(a5)
     6be:	0722                	slli	a4,a4,0x8
     6c0:	8f55                	or	a4,a4,a3
     6c2:	04971663          	bne	a4,s1,70e <tcp_bind+0x12e>
     6c6:	0017c703          	lbu	a4,1(a5)
     6ca:	0007c683          	lbu	a3,0(a5)
     6ce:	0722                	slli	a4,a4,0x8
     6d0:	8f55                	or	a4,a4,a3
     6d2:	0027c683          	lbu	a3,2(a5)
     6d6:	06c2                	slli	a3,a3,0x10
     6d8:	8f55                	or	a4,a4,a3
     6da:	0037c683          	lbu	a3,3(a5)
     6de:	06e2                	slli	a3,a3,0x18
     6e0:	8ed9                	or	a3,a3,a4
     6e2:	18068f63          	beqz	a3,880 <__stack_size+0x80>
     6e6:	18058d63          	beqz	a1,880 <__stack_size+0x80>
     6ea:	0015c603          	lbu	a2,1(a1)
     6ee:	0005c703          	lbu	a4,0(a1)
     6f2:	0622                	slli	a2,a2,0x8
     6f4:	8e59                	or	a2,a2,a4
     6f6:	0025c703          	lbu	a4,2(a1)
     6fa:	0742                	slli	a4,a4,0x10
     6fc:	8e59                	or	a2,a2,a4
     6fe:	0035c703          	lbu	a4,3(a1)
     702:	0762                	slli	a4,a4,0x18
     704:	8f51                	or	a4,a4,a2
     706:	16070d63          	beqz	a4,880 <__stack_size+0x80>
     70a:	16e68b63          	beq	a3,a4,880 <__stack_size+0x80>
     70e:	00d7c703          	lbu	a4,13(a5)
     712:	00c7c683          	lbu	a3,12(a5)
     716:	0722                	slli	a4,a4,0x8
     718:	8ed9                	or	a3,a3,a4
     71a:	00e7c703          	lbu	a4,14(a5)
     71e:	00f7c783          	lbu	a5,15(a5)
     722:	0742                	slli	a4,a4,0x10
     724:	8f55                	or	a4,a4,a3
     726:	07e2                	slli	a5,a5,0x18
     728:	8fd9                	or	a5,a5,a4
     72a:	bde5                	j	622 <tcp_bind+0x42>
     72c:	01a7c703          	lbu	a4,26(a5)
     730:	0197c683          	lbu	a3,25(a5)
     734:	0722                	slli	a4,a4,0x8
     736:	8f55                	or	a4,a4,a3
     738:	04971663          	bne	a4,s1,784 <tcp_bind+0x1a4>
     73c:	0017c703          	lbu	a4,1(a5)
     740:	0007c683          	lbu	a3,0(a5)
     744:	0722                	slli	a4,a4,0x8
     746:	8f55                	or	a4,a4,a3
     748:	0027c683          	lbu	a3,2(a5)
     74c:	06c2                	slli	a3,a3,0x10
     74e:	8f55                	or	a4,a4,a3
     750:	0037c683          	lbu	a3,3(a5)
     754:	06e2                	slli	a3,a3,0x18
     756:	8ed9                	or	a3,a3,a4
     758:	12068463          	beqz	a3,880 <__stack_size+0x80>
     75c:	12058263          	beqz	a1,880 <__stack_size+0x80>
     760:	0015c603          	lbu	a2,1(a1)
     764:	0005c703          	lbu	a4,0(a1)
     768:	0622                	slli	a2,a2,0x8
     76a:	8e59                	or	a2,a2,a4
     76c:	0025c703          	lbu	a4,2(a1)
     770:	0742                	slli	a4,a4,0x10
     772:	8e59                	or	a2,a2,a4
     774:	0035c703          	lbu	a4,3(a1)
     778:	0762                	slli	a4,a4,0x18
     77a:	8f51                	or	a4,a4,a2
     77c:	10070263          	beqz	a4,880 <__stack_size+0x80>
     780:	10e68063          	beq	a3,a4,880 <__stack_size+0x80>
     784:	00d7c703          	lbu	a4,13(a5)
     788:	00c7c683          	lbu	a3,12(a5)
     78c:	0722                	slli	a4,a4,0x8
     78e:	8ed9                	or	a3,a3,a4
     790:	00e7c703          	lbu	a4,14(a5)
     794:	00f7c783          	lbu	a5,15(a5)
     798:	0742                	slli	a4,a4,0x10
     79a:	8f55                	or	a4,a4,a3
     79c:	07e2                	slli	a5,a5,0x18
     79e:	8fd9                	or	a5,a5,a4
     7a0:	b579                	j	62e <tcp_bind+0x4e>
     7a2:	01a7c703          	lbu	a4,26(a5)
     7a6:	0197c683          	lbu	a3,25(a5)
     7aa:	0722                	slli	a4,a4,0x8
     7ac:	8f55                	or	a4,a4,a3
     7ae:	04971363          	bne	a4,s1,7f4 <tcp_bind+0x214>
     7b2:	0017c703          	lbu	a4,1(a5)
     7b6:	0007c683          	lbu	a3,0(a5)
     7ba:	0722                	slli	a4,a4,0x8
     7bc:	8f55                	or	a4,a4,a3
     7be:	0027c683          	lbu	a3,2(a5)
     7c2:	06c2                	slli	a3,a3,0x10
     7c4:	8f55                	or	a4,a4,a3
     7c6:	0037c683          	lbu	a3,3(a5)
     7ca:	06e2                	slli	a3,a3,0x18
     7cc:	8ed9                	or	a3,a3,a4
     7ce:	cacd                	beqz	a3,880 <__stack_size+0x80>
     7d0:	c9c5                	beqz	a1,880 <__stack_size+0x80>
     7d2:	0015c603          	lbu	a2,1(a1)
     7d6:	0005c703          	lbu	a4,0(a1)
     7da:	0622                	slli	a2,a2,0x8
     7dc:	8e59                	or	a2,a2,a4
     7de:	0025c703          	lbu	a4,2(a1)
     7e2:	0742                	slli	a4,a4,0x10
     7e4:	8e59                	or	a2,a2,a4
     7e6:	0035c703          	lbu	a4,3(a1)
     7ea:	0762                	slli	a4,a4,0x18
     7ec:	8f51                	or	a4,a4,a2
     7ee:	cb49                	beqz	a4,880 <__stack_size+0x80>
     7f0:	08e68863          	beq	a3,a4,880 <__stack_size+0x80>
     7f4:	00d7c703          	lbu	a4,13(a5)
     7f8:	00c7c683          	lbu	a3,12(a5)
     7fc:	0722                	slli	a4,a4,0x8
     7fe:	8ed9                	or	a3,a3,a4
     800:	00e7c703          	lbu	a4,14(a5)
     804:	00f7c783          	lbu	a5,15(a5)
     808:	0742                	slli	a4,a4,0x10
     80a:	8f55                	or	a4,a4,a3
     80c:	07e2                	slli	a5,a5,0x18
     80e:	8fd9                	or	a5,a5,a4
     810:	b53d                	j	63e <tcp_bind+0x5e>
     812:	01a7c703          	lbu	a4,26(a5)
     816:	0197c683          	lbu	a3,25(a5)
     81a:	0722                	slli	a4,a4,0x8
     81c:	8f55                	or	a4,a4,a3
     81e:	04971063          	bne	a4,s1,85e <__stack_size+0x5e>
     822:	0017c703          	lbu	a4,1(a5)
     826:	0007c683          	lbu	a3,0(a5)
     82a:	0015c603          	lbu	a2,1(a1)
     82e:	0722                	slli	a4,a4,0x8
     830:	8f55                	or	a4,a4,a3
     832:	0027c683          	lbu	a3,2(a5)
     836:	0622                	slli	a2,a2,0x8
     838:	06c2                	slli	a3,a3,0x10
     83a:	8f55                	or	a4,a4,a3
     83c:	0037c683          	lbu	a3,3(a5)
     840:	06e2                	slli	a3,a3,0x18
     842:	8ed9                	or	a3,a3,a4
     844:	0005c703          	lbu	a4,0(a1)
     848:	8e59                	or	a2,a2,a4
     84a:	0025c703          	lbu	a4,2(a1)
     84e:	0742                	slli	a4,a4,0x10
     850:	8e59                	or	a2,a2,a4
     852:	0035c703          	lbu	a4,3(a1)
     856:	0762                	slli	a4,a4,0x18
     858:	8f51                	or	a4,a4,a2
     85a:	02e68363          	beq	a3,a4,880 <__stack_size+0x80>
     85e:	00d7c703          	lbu	a4,13(a5)
     862:	00c7c683          	lbu	a3,12(a5)
     866:	0722                	slli	a4,a4,0x8
     868:	8ed9                	or	a3,a3,a4
     86a:	00e7c703          	lbu	a4,14(a5)
     86e:	00f7c783          	lbu	a5,15(a5)
     872:	0742                	slli	a4,a4,0x10
     874:	8f55                	or	a4,a4,a3
     876:	07e2                	slli	a5,a5,0x18
     878:	8fd9                	or	a5,a5,a4
     87a:	bbc9                	j	64c <tcp_bind+0x6c>
     87c:	554d                	li	a0,-13
     87e:	8082                	ret
     880:	5555                	li	a0,-11
     882:	b52d                	j	6ac <tcp_bind+0xcc>

00000884 <tcp_listen_with_backlog>:
     884:	2001f317          	auipc	t1,0x2001f
     888:	7ac302e7          	jalr	t0,1964(t1) # 20020030 <__riscv_save_0>
     88c:	01154703          	lbu	a4,17(a0)
     890:	01054783          	lbu	a5,16(a0)
     894:	1141                	addi	sp,sp,-16
     896:	0722                	slli	a4,a4,0x8
     898:	8f5d                	or	a4,a4,a5
     89a:	01254783          	lbu	a5,18(a0)
     89e:	07c2                	slli	a5,a5,0x10
     8a0:	8f5d                	or	a4,a4,a5
     8a2:	01354783          	lbu	a5,19(a0)
     8a6:	07e2                	slli	a5,a5,0x18
     8a8:	8fd9                	or	a5,a5,a4
     8aa:	cb81                	beqz	a5,8ba <tcp_listen_with_backlog+0x36>
     8ac:	4401                	li	s0,0
     8ae:	8522                	mv	a0,s0
     8b0:	0141                	addi	sp,sp,16
     8b2:	2001f317          	auipc	t1,0x2001f
     8b6:	7a230067          	jr	1954(t1) # 20020054 <__riscv_restore_0>
     8ba:	c62a                	sw	a0,12(sp)
     8bc:	450d                	li	a0,3
     8be:	38b050ef          	jal	ra,6448 <memp_malloc>
     8c2:	842a                	mv	s0,a0
     8c4:	d565                	beqz	a0,8ac <tcp_listen_with_backlog+0x28>
     8c6:	45b2                	lw	a1,12(sp)
     8c8:	0165c703          	lbu	a4,22(a1)
     8cc:	0155c783          	lbu	a5,21(a1)
     8d0:	0722                	slli	a4,a4,0x8
     8d2:	8f5d                	or	a4,a4,a5
     8d4:	0175c783          	lbu	a5,23(a1)
     8d8:	07c2                	slli	a5,a5,0x10
     8da:	8f5d                	or	a4,a4,a5
     8dc:	0185c783          	lbu	a5,24(a1)
     8e0:	07e2                	slli	a5,a5,0x18
     8e2:	8fd9                	or	a5,a5,a4
     8e4:	0087d713          	srli	a4,a5,0x8
     8e8:	00f50aa3          	sb	a5,21(a0)
     8ec:	00e50b23          	sb	a4,22(a0)
     8f0:	0107d713          	srli	a4,a5,0x10
     8f4:	83e1                	srli	a5,a5,0x18
     8f6:	00e50ba3          	sb	a4,23(a0)
     8fa:	00f50c23          	sb	a5,24(a0)
     8fe:	01a5c783          	lbu	a5,26(a1)
     902:	0195c703          	lbu	a4,25(a1)
     906:	000508a3          	sb	zero,17(a0)
     90a:	07a2                	slli	a5,a5,0x8
     90c:	8fd9                	or	a5,a5,a4
     90e:	00f50ca3          	sb	a5,25(a0)
     912:	83a1                	srli	a5,a5,0x8
     914:	00f50d23          	sb	a5,26(a0)
     918:	4785                	li	a5,1
     91a:	00f50823          	sb	a5,16(a0)
     91e:	00050923          	sb	zero,18(a0)
     922:	000509a3          	sb	zero,19(a0)
     926:	0095c783          	lbu	a5,9(a1)
     92a:	0085c703          	lbu	a4,8(a1)
     92e:	07a2                	slli	a5,a5,0x8
     930:	8fd9                	or	a5,a5,a4
     932:	0027e793          	ori	a5,a5,2
     936:	00f50423          	sb	a5,8(a0)
     93a:	83a1                	srli	a5,a5,0x8
     93c:	00f504a3          	sb	a5,9(a0)
     940:	00b5c783          	lbu	a5,11(a1)
     944:	00f505a3          	sb	a5,11(a0)
     948:	00a5c783          	lbu	a5,10(a1)
     94c:	00f50523          	sb	a5,10(a0)
     950:	0015c703          	lbu	a4,1(a1)
     954:	0005c783          	lbu	a5,0(a1)
     958:	0722                	slli	a4,a4,0x8
     95a:	8f5d                	or	a4,a4,a5
     95c:	0025c783          	lbu	a5,2(a1)
     960:	07c2                	slli	a5,a5,0x10
     962:	8f5d                	or	a4,a4,a5
     964:	0035c783          	lbu	a5,3(a1)
     968:	07e2                	slli	a5,a5,0x18
     96a:	8fd9                	or	a5,a5,a4
     96c:	0087d713          	srli	a4,a5,0x8
     970:	00e500a3          	sb	a4,1(a0)
     974:	0107d713          	srli	a4,a5,0x10
     978:	00f50023          	sb	a5,0(a0)
     97c:	00e50123          	sb	a4,2(a0)
     980:	83e1                	srli	a5,a5,0x18
     982:	00f501a3          	sb	a5,3(a0)
     986:	20001797          	auipc	a5,0x20001
     98a:	65278793          	addi	a5,a5,1618 # 20001fd8 <tcp_bound_pcbs>
     98e:	439c                	lw	a5,0(a5)
     990:	08b79763          	bne	a5,a1,a1e <tcp_listen_with_backlog+0x19a>
     994:	00d5c703          	lbu	a4,13(a1)
     998:	00c5c783          	lbu	a5,12(a1)
     99c:	0722                	slli	a4,a4,0x8
     99e:	8f5d                	or	a4,a4,a5
     9a0:	00e5c783          	lbu	a5,14(a1)
     9a4:	07c2                	slli	a5,a5,0x10
     9a6:	8f5d                	or	a4,a4,a5
     9a8:	00f5c783          	lbu	a5,15(a1)
     9ac:	07e2                	slli	a5,a5,0x18
     9ae:	8fd9                	or	a5,a5,a4
     9b0:	20001717          	auipc	a4,0x20001
     9b4:	62f72423          	sw	a5,1576(a4) # 20001fd8 <tcp_bound_pcbs>
     9b8:	00058623          	sb	zero,12(a1)
     9bc:	000586a3          	sb	zero,13(a1)
     9c0:	00058723          	sb	zero,14(a1)
     9c4:	000587a3          	sb	zero,15(a1)
     9c8:	4509                	li	a0,2
     9ca:	29f050ef          	jal	ra,6468 <memp_free>
     9ce:	00000797          	auipc	a5,0x0
     9d2:	b3278793          	addi	a5,a5,-1230 # 500 <tcp_accept_null>
     9d6:	0087d713          	srli	a4,a5,0x8
     9da:	00f40da3          	sb	a5,27(s0)
     9de:	00e40e23          	sb	a4,28(s0)
     9e2:	0107d713          	srli	a4,a5,0x10
     9e6:	83e1                	srli	a5,a5,0x18
     9e8:	00f40f23          	sb	a5,30(s0)
     9ec:	20001797          	auipc	a5,0x20001
     9f0:	5e478793          	addi	a5,a5,1508 # 20001fd0 <tcp_listen_pcbs>
     9f4:	439c                	lw	a5,0(a5)
     9f6:	00e40ea3          	sb	a4,29(s0)
     9fa:	0087d713          	srli	a4,a5,0x8
     9fe:	00f40623          	sb	a5,12(s0)
     a02:	00e406a3          	sb	a4,13(s0)
     a06:	0107d713          	srli	a4,a5,0x10
     a0a:	83e1                	srli	a5,a5,0x18
     a0c:	00f407a3          	sb	a5,15(s0)
     a10:	00e40723          	sb	a4,14(s0)
     a14:	20001797          	auipc	a5,0x20001
     a18:	5a87ae23          	sw	s0,1468(a5) # 20001fd0 <tcp_listen_pcbs>
     a1c:	bd49                	j	8ae <tcp_listen_with_backlog+0x2a>
     a1e:	20001717          	auipc	a4,0x20001
     a22:	5af72b23          	sw	a5,1462(a4) # 20001fd4 <tcp_tmp_pcb>
     a26:	4601                	li	a2,0
     a28:	e799                	bnez	a5,a36 <tcp_listen_with_backlog+0x1b2>
     a2a:	d659                	beqz	a2,9b8 <tcp_listen_with_backlog+0x134>
     a2c:	20001797          	auipc	a5,0x20001
     a30:	5a07a423          	sw	zero,1448(a5) # 20001fd4 <tcp_tmp_pcb>
     a34:	b751                	j	9b8 <tcp_listen_with_backlog+0x134>
     a36:	00d7c683          	lbu	a3,13(a5)
     a3a:	00c7c703          	lbu	a4,12(a5)
     a3e:	06a2                	slli	a3,a3,0x8
     a40:	8ed9                	or	a3,a3,a4
     a42:	00e7c703          	lbu	a4,14(a5)
     a46:	0742                	slli	a4,a4,0x10
     a48:	8ed9                	or	a3,a3,a4
     a4a:	00f7c703          	lbu	a4,15(a5)
     a4e:	0762                	slli	a4,a4,0x18
     a50:	8f55                	or	a4,a4,a3
     a52:	04b71363          	bne	a4,a1,a98 <tcp_listen_with_backlog+0x214>
     a56:	c609                	beqz	a2,a60 <tcp_listen_with_backlog+0x1dc>
     a58:	20001717          	auipc	a4,0x20001
     a5c:	56f72e23          	sw	a5,1404(a4) # 20001fd4 <tcp_tmp_pcb>
     a60:	00d5c683          	lbu	a3,13(a1)
     a64:	00c5c703          	lbu	a4,12(a1)
     a68:	06a2                	slli	a3,a3,0x8
     a6a:	8ed9                	or	a3,a3,a4
     a6c:	00e5c703          	lbu	a4,14(a1)
     a70:	0742                	slli	a4,a4,0x10
     a72:	8ed9                	or	a3,a3,a4
     a74:	00f5c703          	lbu	a4,15(a1)
     a78:	0762                	slli	a4,a4,0x18
     a7a:	8f55                	or	a4,a4,a3
     a7c:	00875693          	srli	a3,a4,0x8
     a80:	00e78623          	sb	a4,12(a5)
     a84:	00d786a3          	sb	a3,13(a5)
     a88:	01075693          	srli	a3,a4,0x10
     a8c:	8361                	srli	a4,a4,0x18
     a8e:	00d78723          	sb	a3,14(a5)
     a92:	00e787a3          	sb	a4,15(a5)
     a96:	b70d                	j	9b8 <tcp_listen_with_backlog+0x134>
     a98:	4605                	li	a2,1
     a9a:	87ba                	mv	a5,a4
     a9c:	b771                	j	a28 <tcp_listen_with_backlog+0x1a4>

00000a9e <tcp_update_rcv_ann_wnd>:
     a9e:	02354583          	lbu	a1,35(a0)
     aa2:	02254703          	lbu	a4,34(a0)
     aa6:	02754603          	lbu	a2,39(a0)
     aaa:	05a2                	slli	a1,a1,0x8
     aac:	8f4d                	or	a4,a4,a1
     aae:	02454583          	lbu	a1,36(a0)
     ab2:	0622                	slli	a2,a2,0x8
     ab4:	02a54683          	lbu	a3,42(a0)
     ab8:	05c2                	slli	a1,a1,0x10
     aba:	8dd9                	or	a1,a1,a4
     abc:	02554703          	lbu	a4,37(a0)
     ac0:	87aa                	mv	a5,a0
     ac2:	0377c803          	lbu	a6,55(a5)
     ac6:	0762                	slli	a4,a4,0x18
     ac8:	8dd9                	or	a1,a1,a4
     aca:	02654703          	lbu	a4,38(a0)
     ace:	0367c883          	lbu	a7,54(a5)
     ad2:	0822                	slli	a6,a6,0x8
     ad4:	8e59                	or	a2,a2,a4
     ad6:	02b54703          	lbu	a4,43(a0)
     ada:	01186833          	or	a6,a6,a7
     ade:	0722                	slli	a4,a4,0x8
     ae0:	8ed9                	or	a3,a3,a4
     ae2:	02c54703          	lbu	a4,44(a0)
     ae6:	0742                	slli	a4,a4,0x10
     ae8:	8f55                	or	a4,a4,a3
     aea:	02d54683          	lbu	a3,45(a0)
     aee:	06e2                	slli	a3,a3,0x18
     af0:	8f55                	or	a4,a4,a3
     af2:	20001697          	auipc	a3,0x20001
     af6:	3f668693          	addi	a3,a3,1014 # 20001ee8 <CH569Cfg>
     afa:	42d4                	lw	a3,4(a3)
     afc:	40e60533          	sub	a0,a2,a4
     b00:	952e                	add	a0,a0,a1
     b02:	8285                	srli	a3,a3,0x1
     b04:	00d87363          	bgeu	a6,a3,b0a <tcp_update_rcv_ann_wnd+0x6c>
     b08:	86c2                	mv	a3,a6
     b0a:	40d506b3          	sub	a3,a0,a3
     b0e:	0006c863          	bltz	a3,b1e <tcp_update_rcv_ann_wnd+0x80>
     b12:	02c78423          	sb	a2,40(a5)
     b16:	8221                	srli	a2,a2,0x8
     b18:	02c784a3          	sb	a2,41(a5)
     b1c:	8082                	ret
     b1e:	40e586b3          	sub	a3,a1,a4
     b22:	00d05863          	blez	a3,b32 <tcp_update_rcv_ann_wnd+0x94>
     b26:	02078423          	sb	zero,40(a5)
     b2a:	020784a3          	sb	zero,41(a5)
     b2e:	4501                	li	a0,0
     b30:	8082                	ret
     b32:	8f0d                	sub	a4,a4,a1
     b34:	0742                	slli	a4,a4,0x10
     b36:	8341                	srli	a4,a4,0x10
     b38:	02e78423          	sb	a4,40(a5)
     b3c:	8321                	srli	a4,a4,0x8
     b3e:	02e784a3          	sb	a4,41(a5)
     b42:	b7f5                	j	b2e <tcp_update_rcv_ann_wnd+0x90>

00000b44 <tcp_recved>:
     b44:	2001f317          	auipc	t1,0x2001f
     b48:	4ec302e7          	jalr	t0,1260(t1) # 20020030 <__riscv_save_0>
     b4c:	02754783          	lbu	a5,39(a0)
     b50:	02654703          	lbu	a4,38(a0)
     b54:	842a                	mv	s0,a0
     b56:	07a2                	slli	a5,a5,0x8
     b58:	8fd9                	or	a5,a5,a4
     b5a:	95be                	add	a1,a1,a5
     b5c:	05c2                	slli	a1,a1,0x10
     b5e:	81c1                	srli	a1,a1,0x10
     b60:	0085d793          	srli	a5,a1,0x8
     b64:	20001717          	auipc	a4,0x20001
     b68:	38470713          	addi	a4,a4,900 # 20001ee8 <CH569Cfg>
     b6c:	02f503a3          	sb	a5,39(a0)
     b70:	435c                	lw	a5,4(a4)
     b72:	02b50323          	sb	a1,38(a0)
     b76:	84ba                	mv	s1,a4
     b78:	00b7f963          	bgeu	a5,a1,b8a <tcp_recved+0x46>
     b7c:	07c2                	slli	a5,a5,0x10
     b7e:	83c1                	srli	a5,a5,0x10
     b80:	02f50323          	sb	a5,38(a0)
     b84:	83a1                	srli	a5,a5,0x8
     b86:	02f503a3          	sb	a5,39(a0)
     b8a:	8522                	mv	a0,s0
     b8c:	3f09                	jal	a9e <tcp_update_rcv_ann_wnd>
     b8e:	40dc                	lw	a5,4(s1)
     b90:	8389                	srli	a5,a5,0x2
     b92:	00f56b63          	bltu	a0,a5,ba8 <tcp_recved+0x64>
     b96:	02144783          	lbu	a5,33(s0)
     b9a:	8522                	mv	a0,s0
     b9c:	0027e793          	ori	a5,a5,2
     ba0:	02f400a3          	sb	a5,33(s0)
     ba4:	204040ef          	jal	ra,4da8 <tcp_output>
     ba8:	2001f317          	auipc	t1,0x2001f
     bac:	4ac30067          	jr	1196(t1) # 20020054 <__riscv_restore_0>

00000bb0 <tcp_seg_free>:
     bb0:	2001f317          	auipc	t1,0x2001f
     bb4:	480302e7          	jalr	t0,1152(t1) # 20020030 <__riscv_save_0>
     bb8:	1141                	addi	sp,sp,-16
     bba:	4401                	li	s0,0
     bbc:	cd09                	beqz	a0,bd6 <tcp_seg_free+0x26>
     bbe:	85aa                	mv	a1,a0
     bc0:	4148                	lw	a0,4(a0)
     bc2:	4401                	li	s0,0
     bc4:	c511                	beqz	a0,bd0 <tcp_seg_free+0x20>
     bc6:	c62e                	sw	a1,12(sp)
     bc8:	518060ef          	jal	ra,70e0 <pbuf_free>
     bcc:	45b2                	lw	a1,12(sp)
     bce:	842a                	mv	s0,a0
     bd0:	4511                	li	a0,4
     bd2:	097050ef          	jal	ra,6468 <memp_free>
     bd6:	8522                	mv	a0,s0
     bd8:	0141                	addi	sp,sp,16
     bda:	2001f317          	auipc	t1,0x2001f
     bde:	47a30067          	jr	1146(t1) # 20020054 <__riscv_restore_0>

00000be2 <tcp_segs_free>:
     be2:	2001f317          	auipc	t1,0x2001f
     be6:	44e302e7          	jalr	t0,1102(t1) # 20020030 <__riscv_save_0>
     bea:	4401                	li	s0,0
     bec:	e511                	bnez	a0,bf8 <tcp_segs_free+0x16>
     bee:	8522                	mv	a0,s0
     bf0:	2001f317          	auipc	t1,0x2001f
     bf4:	46430067          	jr	1124(t1) # 20020054 <__riscv_restore_0>
     bf8:	4104                	lw	s1,0(a0)
     bfa:	3f5d                	jal	bb0 <tcp_seg_free>
     bfc:	942a                	add	s0,s0,a0
     bfe:	0ff47413          	andi	s0,s0,255
     c02:	8526                	mv	a0,s1
     c04:	b7e5                	j	bec <tcp_segs_free+0xa>

00000c06 <tcp_seg_copy>:
     c06:	2001f317          	auipc	t1,0x2001f
     c0a:	42a302e7          	jalr	t0,1066(t1) # 20020030 <__riscv_save_0>
     c0e:	1141                	addi	sp,sp,-16
     c10:	c62a                	sw	a0,12(sp)
     c12:	4511                	li	a0,4
     c14:	035050ef          	jal	ra,6448 <memp_malloc>
     c18:	842a                	mv	s0,a0
     c1a:	c911                	beqz	a0,c2e <tcp_seg_copy+0x28>
     c1c:	45b2                	lw	a1,12(sp)
     c1e:	4651                	li	a2,20
     c20:	20024097          	auipc	ra,0x20024
     c24:	fe0080e7          	jalr	-32(ra) # 20024c00 <memcpy>
     c28:	4048                	lw	a0,4(s0)
     c2a:	0cd060ef          	jal	ra,74f6 <pbuf_ref>
     c2e:	8522                	mv	a0,s0
     c30:	0141                	addi	sp,sp,16
     c32:	2001f317          	auipc	t1,0x2001f
     c36:	42230067          	jr	1058(t1) # 20020054 <__riscv_restore_0>

00000c3a <tcp_arg>:
     c3a:	0085d793          	srli	a5,a1,0x8
     c3e:	00b50aa3          	sb	a1,21(a0)
     c42:	00f50b23          	sb	a5,22(a0)
     c46:	0105d793          	srli	a5,a1,0x10
     c4a:	81e1                	srli	a1,a1,0x18
     c4c:	00f50ba3          	sb	a5,23(a0)
     c50:	00b50c23          	sb	a1,24(a0)
     c54:	8082                	ret

00000c56 <tcp_recv>:
     c56:	0085d793          	srli	a5,a1,0x8
     c5a:	06b50e23          	sb	a1,124(a0)
     c5e:	06f50ea3          	sb	a5,125(a0)
     c62:	0105d793          	srli	a5,a1,0x10
     c66:	81e1                	srli	a1,a1,0x18
     c68:	06f50f23          	sb	a5,126(a0)
     c6c:	06b50fa3          	sb	a1,127(a0)
     c70:	8082                	ret

00000c72 <tcp_sent>:
     c72:	0085d793          	srli	a5,a1,0x8
     c76:	06b50c23          	sb	a1,120(a0)
     c7a:	06f50ca3          	sb	a5,121(a0)
     c7e:	0105d793          	srli	a5,a1,0x10
     c82:	81e1                	srli	a1,a1,0x18
     c84:	06f50d23          	sb	a5,122(a0)
     c88:	06b50da3          	sb	a1,123(a0)
     c8c:	8082                	ret

00000c8e <tcp_err>:
     c8e:	0085d793          	srli	a5,a1,0x8
     c92:	08b50423          	sb	a1,136(a0)
     c96:	08f504a3          	sb	a5,137(a0)
     c9a:	0105d793          	srli	a5,a1,0x10
     c9e:	81e1                	srli	a1,a1,0x18
     ca0:	08f50523          	sb	a5,138(a0)
     ca4:	08b505a3          	sb	a1,139(a0)
     ca8:	8082                	ret

00000caa <tcp_accept>:
     caa:	0085d793          	srli	a5,a1,0x8
     cae:	00b50da3          	sb	a1,27(a0)
     cb2:	00f50e23          	sb	a5,28(a0)
     cb6:	0105d793          	srli	a5,a1,0x10
     cba:	81e1                	srli	a1,a1,0x18
     cbc:	00f50ea3          	sb	a5,29(a0)
     cc0:	00b50f23          	sb	a1,30(a0)
     cc4:	8082                	ret

00000cc6 <tcp_poll>:
     cc6:	0085d793          	srli	a5,a1,0x8
     cca:	08b50223          	sb	a1,132(a0)
     cce:	08f502a3          	sb	a5,133(a0)
     cd2:	0105d793          	srli	a5,a1,0x10
     cd6:	81e1                	srli	a1,a1,0x18
     cd8:	08f50323          	sb	a5,134(a0)
     cdc:	08b503a3          	sb	a1,135(a0)
     ce0:	02c509a3          	sb	a2,51(a0)
     ce4:	8082                	ret

00000ce6 <tcp_pcb_purge>:
     ce6:	01154703          	lbu	a4,17(a0)
     cea:	01054783          	lbu	a5,16(a0)
     cee:	0722                	slli	a4,a4,0x8
     cf0:	8f5d                	or	a4,a4,a5
     cf2:	01254783          	lbu	a5,18(a0)
     cf6:	07c2                	slli	a5,a5,0x10
     cf8:	8f5d                	or	a4,a4,a5
     cfa:	01354783          	lbu	a5,19(a0)
     cfe:	07e2                	slli	a5,a5,0x18
     d00:	8fd9                	or	a5,a5,a4
     d02:	4705                	li	a4,1
     d04:	0ef77163          	bgeu	a4,a5,de6 <tcp_pcb_purge+0x100>
     d08:	4729                	li	a4,10
     d0a:	0ce78e63          	beq	a5,a4,de6 <tcp_pcb_purge+0x100>
     d0e:	2001f317          	auipc	t1,0x2001f
     d12:	322302e7          	jalr	t0,802(t1) # 20020030 <__riscv_save_0>
     d16:	842a                	mv	s0,a0
     d18:	07544783          	lbu	a5,117(s0)
     d1c:	07454503          	lbu	a0,116(a0)
     d20:	07a2                	slli	a5,a5,0x8
     d22:	8fc9                	or	a5,a5,a0
     d24:	07644503          	lbu	a0,118(s0)
     d28:	0542                	slli	a0,a0,0x10
     d2a:	8fc9                	or	a5,a5,a0
     d2c:	07744503          	lbu	a0,119(s0)
     d30:	0562                	slli	a0,a0,0x18
     d32:	8d5d                	or	a0,a0,a5
     d34:	c919                	beqz	a0,d4a <tcp_pcb_purge+0x64>
     d36:	3aa060ef          	jal	ra,70e0 <pbuf_free>
     d3a:	06040a23          	sb	zero,116(s0)
     d3e:	06040aa3          	sb	zero,117(s0)
     d42:	06040b23          	sb	zero,118(s0)
     d46:	06040ba3          	sb	zero,119(s0)
     d4a:	07144503          	lbu	a0,113(s0)
     d4e:	07044783          	lbu	a5,112(s0)
     d52:	577d                	li	a4,-1
     d54:	0522                	slli	a0,a0,0x8
     d56:	8d5d                	or	a0,a0,a5
     d58:	07244783          	lbu	a5,114(s0)
     d5c:	02e40a23          	sb	a4,52(s0)
     d60:	02e40aa3          	sb	a4,53(s0)
     d64:	07c2                	slli	a5,a5,0x10
     d66:	8fc9                	or	a5,a5,a0
     d68:	07344503          	lbu	a0,115(s0)
     d6c:	0562                	slli	a0,a0,0x18
     d6e:	8d5d                	or	a0,a0,a5
     d70:	3d8d                	jal	be2 <tcp_segs_free>
     d72:	06944503          	lbu	a0,105(s0)
     d76:	06844783          	lbu	a5,104(s0)
     d7a:	06040823          	sb	zero,112(s0)
     d7e:	0522                	slli	a0,a0,0x8
     d80:	8d5d                	or	a0,a0,a5
     d82:	06a44783          	lbu	a5,106(s0)
     d86:	060408a3          	sb	zero,113(s0)
     d8a:	06040923          	sb	zero,114(s0)
     d8e:	07c2                	slli	a5,a5,0x10
     d90:	8fc9                	or	a5,a5,a0
     d92:	06b44503          	lbu	a0,107(s0)
     d96:	060409a3          	sb	zero,115(s0)
     d9a:	0562                	slli	a0,a0,0x18
     d9c:	8d5d                	or	a0,a0,a5
     d9e:	3591                	jal	be2 <tcp_segs_free>
     da0:	06d44503          	lbu	a0,109(s0)
     da4:	06c44783          	lbu	a5,108(s0)
     da8:	0522                	slli	a0,a0,0x8
     daa:	8d5d                	or	a0,a0,a5
     dac:	06e44783          	lbu	a5,110(s0)
     db0:	07c2                	slli	a5,a5,0x10
     db2:	8fc9                	or	a5,a5,a0
     db4:	06f44503          	lbu	a0,111(s0)
     db8:	0562                	slli	a0,a0,0x18
     dba:	8d5d                	or	a0,a0,a5
     dbc:	351d                	jal	be2 <tcp_segs_free>
     dbe:	06040423          	sb	zero,104(s0)
     dc2:	060404a3          	sb	zero,105(s0)
     dc6:	06040523          	sb	zero,106(s0)
     dca:	060405a3          	sb	zero,107(s0)
     dce:	06040623          	sb	zero,108(s0)
     dd2:	060406a3          	sb	zero,109(s0)
     dd6:	06040723          	sb	zero,110(s0)
     dda:	060407a3          	sb	zero,111(s0)
     dde:	2001f317          	auipc	t1,0x2001f
     de2:	27630067          	jr	630(t1) # 20020054 <__riscv_restore_0>
     de6:	8082                	ret

00000de8 <tcp_slowtmr>:
     de8:	2001f317          	auipc	t1,0x2001f
     dec:	218302e7          	jalr	t0,536(t1) # 20020000 <__riscv_save_12>
     df0:	20001497          	auipc	s1,0x20001
     df4:	1dc48493          	addi	s1,s1,476 # 20001fcc <tcp_ticks>
     df8:	409c                	lw	a5,0(s1)
     dfa:	20001b17          	auipc	s6,0x20001
     dfe:	142b4b03          	lbu	s6,322(s6) # 20001f3c <CH569Inf+0x18>
     e02:	06600993          	li	s3,102
     e06:	0785                	addi	a5,a5,1
     e08:	20001717          	auipc	a4,0x20001
     e0c:	1cf72223          	sw	a5,452(a4) # 20001fcc <tcp_ticks>
     e10:	20001797          	auipc	a5,0x20001
     e14:	1b878793          	addi	a5,a5,440 # 20001fc8 <tcp_active_pcbs>
     e18:	4380                	lw	s0,0(a5)
     e1a:	4901                	li	s2,0
     e1c:	4b89                	li	s7,2
     e1e:	1ffffd97          	auipc	s11,0x1ffff
     e22:	27ad8d93          	addi	s11,s11,634 # 20000098 <tcp_persist_backoff>
     e26:	4a19                	li	s4,6
     e28:	02800c13          	li	s8,40
     e2c:	20001c97          	auipc	s9,0x20001
     e30:	0ecc8c93          	addi	s9,s9,236 # 20001f18 <KeepLiveCfg>
     e34:	ec01                	bnez	s0,e4c <tcp_slowtmr+0x64>
     e36:	20001797          	auipc	a5,0x20001
     e3a:	1a678793          	addi	a5,a5,422 # 20001fdc <tcp_tw_pcbs>
     e3e:	4380                	lw	s0,0(a5)
     e40:	54041463          	bnez	s0,1388 <tcp_slowtmr+0x5a0>
     e44:	2001f317          	auipc	t1,0x2001f
     e48:	1f830067          	jr	504(t1) # 2002003c <__riscv_restore_12>
     e4c:	19fd                	addi	s3,s3,-1
     e4e:	0ff9f993          	andi	s3,s3,255
     e52:	fe0989e3          	beqz	s3,e44 <tcp_slowtmr+0x5c>
     e56:	01144783          	lbu	a5,17(s0)
     e5a:	01044683          	lbu	a3,16(s0)
     e5e:	04644603          	lbu	a2,70(s0)
     e62:	07a2                	slli	a5,a5,0x8
     e64:	8fd5                	or	a5,a5,a3
     e66:	01244683          	lbu	a3,18(s0)
     e6a:	4d05                	li	s10,1
     e6c:	06c2                	slli	a3,a3,0x10
     e6e:	8fd5                	or	a5,a5,a3
     e70:	01344683          	lbu	a3,19(s0)
     e74:	06e2                	slli	a3,a3,0x18
     e76:	8edd                	or	a3,a3,a5
     e78:	04cb0a63          	beq	s6,a2,ecc <tcp_slowtmr+0xe4>
     e7c:	09444d03          	lbu	s10,148(s0)
     e80:	240d0563          	beqz	s10,10ca <tcp_slowtmr+0x2e2>
     e84:	09144683          	lbu	a3,145(s0)
     e88:	09044703          	lbu	a4,144(s0)
     e8c:	06a2                	slli	a3,a3,0x8
     e8e:	8ed9                	or	a3,a3,a4
     e90:	09244703          	lbu	a4,146(s0)
     e94:	0742                	slli	a4,a4,0x10
     e96:	8ed9                	or	a3,a3,a4
     e98:	09344703          	lbu	a4,147(s0)
     e9c:	0762                	slli	a4,a4,0x18
     e9e:	8f55                	or	a4,a4,a3
     ea0:	0705                	addi	a4,a4,1
     ea2:	00875693          	srli	a3,a4,0x8
     ea6:	08d408a3          	sb	a3,145(s0)
     eaa:	01075693          	srli	a3,a4,0x10
     eae:	08d40923          	sb	a3,146(s0)
     eb2:	01875693          	srli	a3,a4,0x18
     eb6:	08d409a3          	sb	a3,147(s0)
     eba:	01ad86b3          	add	a3,s11,s10
     ebe:	fff6c683          	lbu	a3,-1(a3)
     ec2:	08e40823          	sb	a4,144(s0)
     ec6:	1ed77063          	bgeu	a4,a3,10a6 <tcp_slowtmr+0x2be>
     eca:	4d01                	li	s10,0
     ecc:	01144683          	lbu	a3,17(s0)
     ed0:	01044703          	lbu	a4,16(s0)
     ed4:	06a2                	slli	a3,a3,0x8
     ed6:	8ed9                	or	a3,a3,a4
     ed8:	01244703          	lbu	a4,18(s0)
     edc:	0742                	slli	a4,a4,0x10
     ede:	8ed9                	or	a3,a3,a4
     ee0:	01344703          	lbu	a4,19(s0)
     ee4:	0762                	slli	a4,a4,0x18
     ee6:	8f55                	or	a4,a4,a3
     ee8:	03471963          	bne	a4,s4,f1a <tcp_slowtmr+0x132>
     eec:	02f44603          	lbu	a2,47(s0)
     ef0:	02e44683          	lbu	a3,46(s0)
     ef4:	0622                	slli	a2,a2,0x8
     ef6:	8e55                	or	a2,a2,a3
     ef8:	03044683          	lbu	a3,48(s0)
     efc:	06c2                	slli	a3,a3,0x10
     efe:	8e55                	or	a2,a2,a3
     f00:	03144683          	lbu	a3,49(s0)
     f04:	06e2                	slli	a3,a3,0x18
     f06:	8ed1                	or	a3,a3,a2
     f08:	4090                	lw	a2,0(s1)
     f0a:	40d606b3          	sub	a3,a2,a3
     f0e:	00dc7663          	bgeu	s8,a3,f1a <tcp_slowtmr+0x132>
     f12:	001d0793          	addi	a5,s10,1
     f16:	0ff7fd13          	andi	s10,a5,255
     f1a:	00844683          	lbu	a3,8(s0)
     f1e:	4a81                	li	s5,0
     f20:	8aa1                	andi	a3,a3,8
     f22:	c6bd                	beqz	a3,f90 <tcp_slowtmr+0x1a8>
     f24:	4691                	li	a3,4
     f26:	00d70563          	beq	a4,a3,f30 <tcp_slowtmr+0x148>
     f2a:	469d                	li	a3,7
     f2c:	06d71263          	bne	a4,a3,f90 <tcp_slowtmr+0x1a8>
     f30:	02f44703          	lbu	a4,47(s0)
     f34:	02e44583          	lbu	a1,46(s0)
     f38:	08d44603          	lbu	a2,141(s0)
     f3c:	0722                	slli	a4,a4,0x8
     f3e:	8dd9                	or	a1,a1,a4
     f40:	03044703          	lbu	a4,48(s0)
     f44:	004ca803          	lw	a6,4(s9)
     f48:	008ca683          	lw	a3,8(s9)
     f4c:	0742                	slli	a4,a4,0x10
     f4e:	8f4d                	or	a4,a4,a1
     f50:	03144583          	lbu	a1,49(s0)
     f54:	0622                	slli	a2,a2,0x8
     f56:	02d806b3          	mul	a3,a6,a3
     f5a:	05e2                	slli	a1,a1,0x18
     f5c:	8f4d                	or	a4,a4,a1
     f5e:	408c                	lw	a1,0(s1)
     f60:	1f400513          	li	a0,500
     f64:	8d99                	sub	a1,a1,a4
     f66:	08c44703          	lbu	a4,140(s0)
     f6a:	8f51                	or	a4,a4,a2
     f6c:	08e44603          	lbu	a2,142(s0)
     f70:	0642                	slli	a2,a2,0x10
     f72:	8e59                	or	a2,a2,a4
     f74:	08f44703          	lbu	a4,143(s0)
     f78:	0762                	slli	a4,a4,0x18
     f7a:	8e59                	or	a2,a2,a4
     f7c:	96b2                	add	a3,a3,a2
     f7e:	02a6d6b3          	divu	a3,a3,a0
     f82:	24b6fb63          	bgeu	a3,a1,11d8 <tcp_slowtmr+0x3f0>
     f86:	001d0793          	addi	a5,s10,1
     f8a:	0ff7fd13          	andi	s10,a5,255
     f8e:	4a85                	li	s5,1
     f90:	07144703          	lbu	a4,113(s0)
     f94:	07044503          	lbu	a0,112(s0)
     f98:	0722                	slli	a4,a4,0x8
     f9a:	8f49                	or	a4,a4,a0
     f9c:	07244503          	lbu	a0,114(s0)
     fa0:	0542                	slli	a0,a0,0x10
     fa2:	8f49                	or	a4,a4,a0
     fa4:	07344503          	lbu	a0,115(s0)
     fa8:	0562                	slli	a0,a0,0x18
     faa:	8d59                	or	a0,a0,a4
     fac:	c531                	beqz	a0,ff8 <tcp_slowtmr+0x210>
     fae:	02f44683          	lbu	a3,47(s0)
     fb2:	02e44703          	lbu	a4,46(s0)
     fb6:	04444603          	lbu	a2,68(s0)
     fba:	06a2                	slli	a3,a3,0x8
     fbc:	8ed9                	or	a3,a3,a4
     fbe:	03044703          	lbu	a4,48(s0)
     fc2:	0742                	slli	a4,a4,0x10
     fc4:	8ed9                	or	a3,a3,a4
     fc6:	03144703          	lbu	a4,49(s0)
     fca:	0762                	slli	a4,a4,0x18
     fcc:	8f55                	or	a4,a4,a3
     fce:	4094                	lw	a3,0(s1)
     fd0:	8e99                	sub	a3,a3,a4
     fd2:	04544703          	lbu	a4,69(s0)
     fd6:	0722                	slli	a4,a4,0x8
     fd8:	8f51                	or	a4,a4,a2
     fda:	0742                	slli	a4,a4,0x10
     fdc:	8741                	srai	a4,a4,0x10
     fde:	03470733          	mul	a4,a4,s4
     fe2:	00e6eb63          	bltu	a3,a4,ff8 <tcp_slowtmr+0x210>
     fe6:	3ef5                	jal	be2 <tcp_segs_free>
     fe8:	06040823          	sb	zero,112(s0)
     fec:	060408a3          	sb	zero,113(s0)
     ff0:	06040923          	sb	zero,114(s0)
     ff4:	060409a3          	sb	zero,115(s0)
     ff8:	01144683          	lbu	a3,17(s0)
     ffc:	01044703          	lbu	a4,16(s0)
    1000:	06a2                	slli	a3,a3,0x8
    1002:	8ed9                	or	a3,a3,a4
    1004:	01244703          	lbu	a4,18(s0)
    1008:	0742                	slli	a4,a4,0x10
    100a:	8ed9                	or	a3,a3,a4
    100c:	01344703          	lbu	a4,19(s0)
    1010:	0762                	slli	a4,a4,0x18
    1012:	8f55                	or	a4,a4,a3
    1014:	468d                	li	a3,3
    1016:	1ed71463          	bne	a4,a3,11fe <tcp_slowtmr+0x416>
    101a:	02f44683          	lbu	a3,47(s0)
    101e:	02e44703          	lbu	a4,46(s0)
    1022:	06a2                	slli	a3,a3,0x8
    1024:	8ed9                	or	a3,a3,a4
    1026:	03044703          	lbu	a4,48(s0)
    102a:	0742                	slli	a4,a4,0x10
    102c:	8ed9                	or	a3,a3,a4
    102e:	03144703          	lbu	a4,49(s0)
    1032:	0762                	slli	a4,a4,0x18
    1034:	8f55                	or	a4,a4,a3
    1036:	4094                	lw	a3,0(s1)
    1038:	40e68733          	sub	a4,a3,a4
    103c:	1eec6963          	bltu	s8,a4,122e <tcp_slowtmr+0x446>
    1040:	1e0d1763          	bnez	s10,122e <tcp_slowtmr+0x446>
    1044:	03244783          	lbu	a5,50(s0)
    1048:	03344703          	lbu	a4,51(s0)
    104c:	0785                	addi	a5,a5,1
    104e:	0ff7f793          	andi	a5,a5,255
    1052:	02f40923          	sb	a5,50(s0)
    1056:	02e7e763          	bltu	a5,a4,1084 <tcp_slowtmr+0x29c>
    105a:	08544703          	lbu	a4,133(s0)
    105e:	08444783          	lbu	a5,132(s0)
    1062:	02040923          	sb	zero,50(s0)
    1066:	0722                	slli	a4,a4,0x8
    1068:	8f5d                	or	a4,a4,a5
    106a:	08644783          	lbu	a5,134(s0)
    106e:	07c2                	slli	a5,a5,0x10
    1070:	8f5d                	or	a4,a4,a5
    1072:	08744783          	lbu	a5,135(s0)
    1076:	07e2                	slli	a5,a5,0x18
    1078:	8fd9                	or	a5,a5,a4
    107a:	2e079463          	bnez	a5,1362 <tcp_slowtmr+0x57a>
    107e:	8522                	mv	a0,s0
    1080:	529030ef          	jal	ra,4da8 <tcp_output>
    1084:	00d44783          	lbu	a5,13(s0)
    1088:	00c44703          	lbu	a4,12(s0)
    108c:	8922                	mv	s2,s0
    108e:	07a2                	slli	a5,a5,0x8
    1090:	8f5d                	or	a4,a4,a5
    1092:	00e44783          	lbu	a5,14(s0)
    1096:	07c2                	slli	a5,a5,0x10
    1098:	8fd9                	or	a5,a5,a4
    109a:	00f44703          	lbu	a4,15(s0)
    109e:	0762                	slli	a4,a4,0x18
    10a0:	00f76433          	or	s0,a4,a5
    10a4:	bb41                	j	e34 <tcp_slowtmr+0x4c>
    10a6:	08040823          	sb	zero,144(s0)
    10aa:	080408a3          	sb	zero,145(s0)
    10ae:	08040923          	sb	zero,146(s0)
    10b2:	080409a3          	sb	zero,147(s0)
    10b6:	01aa6663          	bltu	s4,s10,10c2 <tcp_slowtmr+0x2da>
    10ba:	001d0793          	addi	a5,s10,1
    10be:	08f40a23          	sb	a5,148(s0)
    10c2:	8522                	mv	a0,s0
    10c4:	7bc040ef          	jal	ra,5880 <tcp_zero_window_probe>
    10c8:	b509                	j	eca <tcp_slowtmr+0xe2>
    10ca:	03544703          	lbu	a4,53(s0)
    10ce:	03444583          	lbu	a1,52(s0)
    10d2:	0722                	slli	a4,a4,0x8
    10d4:	8f4d                	or	a4,a4,a1
    10d6:	0742                	slli	a4,a4,0x10
    10d8:	8741                	srai	a4,a4,0x10
    10da:	00074a63          	bltz	a4,10ee <tcp_slowtmr+0x306>
    10de:	0705                	addi	a4,a4,1
    10e0:	0742                	slli	a4,a4,0x10
    10e2:	8341                	srli	a4,a4,0x10
    10e4:	02e40a23          	sb	a4,52(s0)
    10e8:	8321                	srli	a4,a4,0x8
    10ea:	02e40aa3          	sb	a4,53(s0)
    10ee:	06d44583          	lbu	a1,109(s0)
    10f2:	06c44703          	lbu	a4,108(s0)
    10f6:	05a2                	slli	a1,a1,0x8
    10f8:	8dd9                	or	a1,a1,a4
    10fa:	06e44703          	lbu	a4,110(s0)
    10fe:	0742                	slli	a4,a4,0x10
    1100:	8dd9                	or	a1,a1,a4
    1102:	06f44703          	lbu	a4,111(s0)
    1106:	0762                	slli	a4,a4,0x18
    1108:	8f4d                	or	a4,a4,a1
    110a:	dc0700e3          	beqz	a4,eca <tcp_slowtmr+0xe2>
    110e:	03544703          	lbu	a4,53(s0)
    1112:	03444583          	lbu	a1,52(s0)
    1116:	0722                	slli	a4,a4,0x8
    1118:	8f4d                	or	a4,a4,a1
    111a:	0742                	slli	a4,a4,0x10
    111c:	8741                	srai	a4,a4,0x10
    111e:	dae056e3          	blez	a4,eca <tcp_slowtmr+0xe2>
    1122:	05768463          	beq	a3,s7,116a <tcp_slowtmr+0x382>
    1126:	04144703          	lbu	a4,65(s0)
    112a:	04044683          	lbu	a3,64(s0)
    112e:	04244583          	lbu	a1,66(s0)
    1132:	0722                	slli	a4,a4,0x8
    1134:	8f55                	or	a4,a4,a3
    1136:	04344683          	lbu	a3,67(s0)
    113a:	0742                	slli	a4,a4,0x10
    113c:	8741                	srai	a4,a4,0x10
    113e:	06a2                	slli	a3,a3,0x8
    1140:	8ecd                	or	a3,a3,a1
    1142:	06c2                	slli	a3,a3,0x10
    1144:	20025797          	auipc	a5,0x20025
    1148:	65878793          	addi	a5,a5,1624 # 2002679c <tcp_backoff>
    114c:	86c1                	srai	a3,a3,0x10
    114e:	870d                	srai	a4,a4,0x3
    1150:	963e                	add	a2,a2,a5
    1152:	9736                	add	a4,a4,a3
    1154:	00064683          	lbu	a3,0(a2)
    1158:	00d71733          	sll	a4,a4,a3
    115c:	0742                	slli	a4,a4,0x10
    115e:	8341                	srli	a4,a4,0x10
    1160:	04e40223          	sb	a4,68(s0)
    1164:	8321                	srli	a4,a4,0x8
    1166:	04e402a3          	sb	a4,69(s0)
    116a:	05544603          	lbu	a2,85(s0)
    116e:	05444703          	lbu	a4,84(s0)
    1172:	04c44683          	lbu	a3,76(s0)
    1176:	0622                	slli	a2,a2,0x8
    1178:	8e59                	or	a2,a2,a4
    117a:	04d44703          	lbu	a4,77(s0)
    117e:	02040a23          	sb	zero,52(s0)
    1182:	02040aa3          	sb	zero,53(s0)
    1186:	0722                	slli	a4,a4,0x8
    1188:	8f55                	or	a4,a4,a3
    118a:	86b2                	mv	a3,a2
    118c:	00c77363          	bgeu	a4,a2,1192 <tcp_slowtmr+0x3aa>
    1190:	86ba                	mv	a3,a4
    1192:	06c2                	slli	a3,a3,0x10
    1194:	82c1                	srli	a3,a3,0x10
    1196:	8285                	srli	a3,a3,0x1
    1198:	0086d713          	srli	a4,a3,0x8
    119c:	04e407a3          	sb	a4,79(s0)
    11a0:	03744703          	lbu	a4,55(s0)
    11a4:	03644603          	lbu	a2,54(s0)
    11a8:	04d40723          	sb	a3,78(s0)
    11ac:	0722                	slli	a4,a4,0x8
    11ae:	8f51                	or	a4,a4,a2
    11b0:	00e6fb63          	bgeu	a3,a4,11c6 <tcp_slowtmr+0x3de>
    11b4:	00171693          	slli	a3,a4,0x1
    11b8:	06c2                	slli	a3,a3,0x10
    11ba:	82c1                	srli	a3,a3,0x10
    11bc:	04d40723          	sb	a3,78(s0)
    11c0:	82a1                	srli	a3,a3,0x8
    11c2:	04d407a3          	sb	a3,79(s0)
    11c6:	04e40623          	sb	a4,76(s0)
    11ca:	8321                	srli	a4,a4,0x8
    11cc:	04e406a3          	sb	a4,77(s0)
    11d0:	8522                	mv	a0,s0
    11d2:	410040ef          	jal	ra,55e2 <tcp_rexmit_rto>
    11d6:	b9dd                	j	ecc <tcp_slowtmr+0xe4>
    11d8:	09544703          	lbu	a4,149(s0)
    11dc:	4a81                	li	s5,0
    11de:	03070733          	mul	a4,a4,a6
    11e2:	9732                	add	a4,a4,a2
    11e4:	02a75733          	divu	a4,a4,a0
    11e8:	dab774e3          	bgeu	a4,a1,f90 <tcp_slowtmr+0x1a8>
    11ec:	8522                	mv	a0,s0
    11ee:	62a040ef          	jal	ra,5818 <tcp_keepalive>
    11f2:	09544703          	lbu	a4,149(s0)
    11f6:	0705                	addi	a4,a4,1
    11f8:	08e40aa3          	sb	a4,149(s0)
    11fc:	bb51                	j	f90 <tcp_slowtmr+0x1a8>
    11fe:	46a5                	li	a3,9
    1200:	e4d710e3          	bne	a4,a3,1040 <tcp_slowtmr+0x258>
    1204:	02f44683          	lbu	a3,47(s0)
    1208:	02e44703          	lbu	a4,46(s0)
    120c:	06a2                	slli	a3,a3,0x8
    120e:	8ed9                	or	a3,a3,a4
    1210:	03044703          	lbu	a4,48(s0)
    1214:	0742                	slli	a4,a4,0x10
    1216:	8ed9                	or	a3,a3,a4
    1218:	03144703          	lbu	a4,49(s0)
    121c:	0762                	slli	a4,a4,0x18
    121e:	8f55                	or	a4,a4,a3
    1220:	4094                	lw	a3,0(s1)
    1222:	40e68733          	sub	a4,a3,a4
    1226:	0f000693          	li	a3,240
    122a:	e0e6fbe3          	bgeu	a3,a4,1040 <tcp_slowtmr+0x258>
    122e:	8522                	mv	a0,s0
    1230:	20021097          	auipc	ra,0x20021
    1234:	52e080e7          	jalr	1326(ra) # 2002275e <LwipRemoveTcpPcb>
    1238:	8522                	mv	a0,s0
    123a:	3475                	jal	ce6 <tcp_pcb_purge>
    123c:	00d44603          	lbu	a2,13(s0)
    1240:	00c44783          	lbu	a5,12(s0)
    1244:	00e44683          	lbu	a3,14(s0)
    1248:	00f44703          	lbu	a4,15(s0)
    124c:	0622                	slli	a2,a2,0x8
    124e:	10090063          	beqz	s2,134e <tcp_slowtmr+0x566>
    1252:	8fd1                	or	a5,a5,a2
    1254:	06c2                	slli	a3,a3,0x10
    1256:	8edd                	or	a3,a3,a5
    1258:	01871793          	slli	a5,a4,0x18
    125c:	8fd5                	or	a5,a5,a3
    125e:	0087d713          	srli	a4,a5,0x8
    1262:	00f90623          	sb	a5,12(s2)
    1266:	00e906a3          	sb	a4,13(s2)
    126a:	0107d713          	srli	a4,a5,0x10
    126e:	83e1                	srli	a5,a5,0x18
    1270:	00e90723          	sb	a4,14(s2)
    1274:	00f907a3          	sb	a5,15(s2)
    1278:	08944703          	lbu	a4,137(s0)
    127c:	08844783          	lbu	a5,136(s0)
    1280:	0722                	slli	a4,a4,0x8
    1282:	8f5d                	or	a4,a4,a5
    1284:	08a44783          	lbu	a5,138(s0)
    1288:	07c2                	slli	a5,a5,0x10
    128a:	8f5d                	or	a4,a4,a5
    128c:	08b44783          	lbu	a5,139(s0)
    1290:	07e2                	slli	a5,a5,0x18
    1292:	8fd9                	or	a5,a5,a4
    1294:	c38d                	beqz	a5,12b6 <tcp_slowtmr+0x4ce>
    1296:	01644503          	lbu	a0,22(s0)
    129a:	01544703          	lbu	a4,21(s0)
    129e:	55ed                	li	a1,-5
    12a0:	0522                	slli	a0,a0,0x8
    12a2:	8d59                	or	a0,a0,a4
    12a4:	01744703          	lbu	a4,23(s0)
    12a8:	0742                	slli	a4,a4,0x10
    12aa:	8f49                	or	a4,a4,a0
    12ac:	01844503          	lbu	a0,24(s0)
    12b0:	0562                	slli	a0,a0,0x18
    12b2:	8d59                	or	a0,a0,a4
    12b4:	9782                	jalr	a5
    12b6:	060a8563          	beqz	s5,1320 <tcp_slowtmr+0x538>
    12ba:	02344583          	lbu	a1,35(s0)
    12be:	05144503          	lbu	a0,81(s0)
    12c2:	02244883          	lbu	a7,34(s0)
    12c6:	05044803          	lbu	a6,80(s0)
    12ca:	05a2                	slli	a1,a1,0x8
    12cc:	0522                	slli	a0,a0,0x8
    12ce:	0115e5b3          	or	a1,a1,a7
    12d2:	01056533          	or	a0,a0,a6
    12d6:	02444883          	lbu	a7,36(s0)
    12da:	05244803          	lbu	a6,82(s0)
    12de:	02044783          	lbu	a5,32(s0)
    12e2:	08c2                	slli	a7,a7,0x10
    12e4:	0842                	slli	a6,a6,0x10
    12e6:	00b8e8b3          	or	a7,a7,a1
    12ea:	00a86833          	or	a6,a6,a0
    12ee:	01a44703          	lbu	a4,26(s0)
    12f2:	02544583          	lbu	a1,37(s0)
    12f6:	05344503          	lbu	a0,83(s0)
    12fa:	01f44603          	lbu	a2,31(s0)
    12fe:	01944683          	lbu	a3,25(s0)
    1302:	07a2                	slli	a5,a5,0x8
    1304:	0722                	slli	a4,a4,0x8
    1306:	05e2                	slli	a1,a1,0x18
    1308:	0562                	slli	a0,a0,0x18
    130a:	8fd1                	or	a5,a5,a2
    130c:	8f55                	or	a4,a4,a3
    130e:	8622                	mv	a2,s0
    1310:	00440693          	addi	a3,s0,4
    1314:	0115e5b3          	or	a1,a1,a7
    1318:	01056533          	or	a0,a0,a6
    131c:	162040ef          	jal	ra,547e <tcp_rst>
    1320:	00d44783          	lbu	a5,13(s0)
    1324:	00c44a83          	lbu	s5,12(s0)
    1328:	85a2                	mv	a1,s0
    132a:	07a2                	slli	a5,a5,0x8
    132c:	0157e7b3          	or	a5,a5,s5
    1330:	00e44a83          	lbu	s5,14(s0)
    1334:	4509                	li	a0,2
    1336:	0ac2                	slli	s5,s5,0x10
    1338:	00fae7b3          	or	a5,s5,a5
    133c:	00f44a83          	lbu	s5,15(s0)
    1340:	0ae2                	slli	s5,s5,0x18
    1342:	00faeab3          	or	s5,s5,a5
    1346:	8456                	mv	s0,s5
    1348:	120050ef          	jal	ra,6468 <memp_free>
    134c:	b4e5                	j	e34 <tcp_slowtmr+0x4c>
    134e:	8e5d                	or	a2,a2,a5
    1350:	06c2                	slli	a3,a3,0x10
    1352:	8ed1                	or	a3,a3,a2
    1354:	0762                	slli	a4,a4,0x18
    1356:	8f55                	or	a4,a4,a3
    1358:	20001797          	auipc	a5,0x20001
    135c:	c6e7a823          	sw	a4,-912(a5) # 20001fc8 <tcp_active_pcbs>
    1360:	bf21                	j	1278 <tcp_slowtmr+0x490>
    1362:	01644503          	lbu	a0,22(s0)
    1366:	01544703          	lbu	a4,21(s0)
    136a:	85a2                	mv	a1,s0
    136c:	0522                	slli	a0,a0,0x8
    136e:	8d59                	or	a0,a0,a4
    1370:	01744703          	lbu	a4,23(s0)
    1374:	0742                	slli	a4,a4,0x10
    1376:	8f49                	or	a4,a4,a0
    1378:	01844503          	lbu	a0,24(s0)
    137c:	0562                	slli	a0,a0,0x18
    137e:	8d59                	or	a0,a0,a4
    1380:	9782                	jalr	a5
    1382:	ce050ee3          	beqz	a0,107e <tcp_slowtmr+0x296>
    1386:	b9fd                	j	1084 <tcp_slowtmr+0x29c>
    1388:	8522                	mv	a0,s0
    138a:	20021097          	auipc	ra,0x20021
    138e:	3d4080e7          	jalr	980(ra) # 2002275e <LwipRemoveTcpPcb>
    1392:	8522                	mv	a0,s0
    1394:	3a89                	jal	ce6 <tcp_pcb_purge>
    1396:	00d44783          	lbu	a5,13(s0)
    139a:	00c44483          	lbu	s1,12(s0)
    139e:	85a2                	mv	a1,s0
    13a0:	07a2                	slli	a5,a5,0x8
    13a2:	8fc5                	or	a5,a5,s1
    13a4:	00e44483          	lbu	s1,14(s0)
    13a8:	4509                	li	a0,2
    13aa:	04c2                	slli	s1,s1,0x10
    13ac:	8fc5                	or	a5,a5,s1
    13ae:	00f44483          	lbu	s1,15(s0)
    13b2:	04e2                	slli	s1,s1,0x18
    13b4:	8cdd                	or	s1,s1,a5
    13b6:	20001797          	auipc	a5,0x20001
    13ba:	c297a323          	sw	s1,-986(a5) # 20001fdc <tcp_tw_pcbs>
    13be:	8426                	mv	s0,s1
    13c0:	0a8050ef          	jal	ra,6468 <memp_free>
    13c4:	bcb5                	j	e40 <tcp_slowtmr+0x58>

000013c6 <RemoveTimeWaiTCP>:
    13c6:	2001f317          	auipc	t1,0x2001f
    13ca:	c6a302e7          	jalr	t0,-918(t1) # 20020030 <__riscv_save_0>
    13ce:	20001797          	auipc	a5,0x20001
    13d2:	c0e78793          	addi	a5,a5,-1010 # 20001fdc <tcp_tw_pcbs>
    13d6:	4380                	lw	s0,0(a5)
    13d8:	e409                	bnez	s0,13e2 <RemoveTimeWaiTCP+0x1c>
    13da:	2001f317          	auipc	t1,0x2001f
    13de:	c7a30067          	jr	-902(t1) # 20020054 <__riscv_restore_0>
    13e2:	8522                	mv	a0,s0
    13e4:	20021097          	auipc	ra,0x20021
    13e8:	37a080e7          	jalr	890(ra) # 2002275e <LwipRemoveTcpPcb>
    13ec:	8522                	mv	a0,s0
    13ee:	38e5                	jal	ce6 <tcp_pcb_purge>
    13f0:	00d44783          	lbu	a5,13(s0)
    13f4:	00c44483          	lbu	s1,12(s0)
    13f8:	85a2                	mv	a1,s0
    13fa:	07a2                	slli	a5,a5,0x8
    13fc:	8fc5                	or	a5,a5,s1
    13fe:	00e44483          	lbu	s1,14(s0)
    1402:	4509                	li	a0,2
    1404:	04c2                	slli	s1,s1,0x10
    1406:	8fc5                	or	a5,a5,s1
    1408:	00f44483          	lbu	s1,15(s0)
    140c:	04e2                	slli	s1,s1,0x18
    140e:	8cdd                	or	s1,s1,a5
    1410:	20001797          	auipc	a5,0x20001
    1414:	bc97a623          	sw	s1,-1076(a5) # 20001fdc <tcp_tw_pcbs>
    1418:	8426                	mv	s0,s1
    141a:	04e050ef          	jal	ra,6468 <memp_free>
    141e:	bf6d                	j	13d8 <RemoveTimeWaiTCP+0x12>

00001420 <tcp_pcb_remove>:
    1420:	2001f317          	auipc	t1,0x2001f
    1424:	c10302e7          	jalr	t0,-1008(t1) # 20020030 <__riscv_save_0>
    1428:	411c                	lw	a5,0(a0)
    142a:	842e                	mv	s0,a1
    142c:	08b79763          	bne	a5,a1,14ba <tcp_pcb_remove+0x9a>
    1430:	00d5c703          	lbu	a4,13(a1)
    1434:	00c5c783          	lbu	a5,12(a1)
    1438:	0722                	slli	a4,a4,0x8
    143a:	8f5d                	or	a4,a4,a5
    143c:	00e5c783          	lbu	a5,14(a1)
    1440:	07c2                	slli	a5,a5,0x10
    1442:	8f5d                	or	a4,a4,a5
    1444:	00f5c783          	lbu	a5,15(a1)
    1448:	07e2                	slli	a5,a5,0x18
    144a:	8fd9                	or	a5,a5,a4
    144c:	c11c                	sw	a5,0(a0)
    144e:	00040623          	sb	zero,12(s0)
    1452:	000406a3          	sb	zero,13(s0)
    1456:	00040723          	sb	zero,14(s0)
    145a:	000407a3          	sb	zero,15(s0)
    145e:	8522                	mv	a0,s0
    1460:	3059                	jal	ce6 <tcp_pcb_purge>
    1462:	01144703          	lbu	a4,17(s0)
    1466:	01044783          	lbu	a5,16(s0)
    146a:	0722                	slli	a4,a4,0x8
    146c:	8f5d                	or	a4,a4,a5
    146e:	01244783          	lbu	a5,18(s0)
    1472:	07c2                	slli	a5,a5,0x10
    1474:	8f5d                	or	a4,a4,a5
    1476:	01344783          	lbu	a5,19(s0)
    147a:	07e2                	slli	a5,a5,0x18
    147c:	8fd9                	or	a5,a5,a4
    147e:	4729                	li	a4,10
    1480:	02e78163          	beq	a5,a4,14a2 <tcp_pcb_remove+0x82>
    1484:	4705                	li	a4,1
    1486:	00e78e63          	beq	a5,a4,14a2 <tcp_pcb_remove+0x82>
    148a:	02144783          	lbu	a5,33(s0)
    148e:	0017f713          	andi	a4,a5,1
    1492:	cb01                	beqz	a4,14a2 <tcp_pcb_remove+0x82>
    1494:	0027e793          	ori	a5,a5,2
    1498:	02f400a3          	sb	a5,33(s0)
    149c:	8522                	mv	a0,s0
    149e:	10b030ef          	jal	ra,4da8 <tcp_output>
    14a2:	00040823          	sb	zero,16(s0)
    14a6:	000408a3          	sb	zero,17(s0)
    14aa:	00040923          	sb	zero,18(s0)
    14ae:	000409a3          	sb	zero,19(s0)
    14b2:	2001f317          	auipc	t1,0x2001f
    14b6:	ba230067          	jr	-1118(t1) # 20020054 <__riscv_restore_0>
    14ba:	20001717          	auipc	a4,0x20001
    14be:	b0f72d23          	sw	a5,-1254(a4) # 20001fd4 <tcp_tmp_pcb>
    14c2:	4601                	li	a2,0
    14c4:	e799                	bnez	a5,14d2 <tcp_pcb_remove+0xb2>
    14c6:	d641                	beqz	a2,144e <tcp_pcb_remove+0x2e>
    14c8:	20001797          	auipc	a5,0x20001
    14cc:	b007a623          	sw	zero,-1268(a5) # 20001fd4 <tcp_tmp_pcb>
    14d0:	bfbd                	j	144e <tcp_pcb_remove+0x2e>
    14d2:	00d7c683          	lbu	a3,13(a5)
    14d6:	00c7c703          	lbu	a4,12(a5)
    14da:	06a2                	slli	a3,a3,0x8
    14dc:	8ed9                	or	a3,a3,a4
    14de:	00e7c703          	lbu	a4,14(a5)
    14e2:	0742                	slli	a4,a4,0x10
    14e4:	8ed9                	or	a3,a3,a4
    14e6:	00f7c703          	lbu	a4,15(a5)
    14ea:	0762                	slli	a4,a4,0x18
    14ec:	8f55                	or	a4,a4,a3
    14ee:	04871363          	bne	a4,s0,1534 <tcp_pcb_remove+0x114>
    14f2:	c609                	beqz	a2,14fc <tcp_pcb_remove+0xdc>
    14f4:	20001717          	auipc	a4,0x20001
    14f8:	aef72023          	sw	a5,-1312(a4) # 20001fd4 <tcp_tmp_pcb>
    14fc:	00d44683          	lbu	a3,13(s0)
    1500:	00c44703          	lbu	a4,12(s0)
    1504:	06a2                	slli	a3,a3,0x8
    1506:	8ed9                	or	a3,a3,a4
    1508:	00e44703          	lbu	a4,14(s0)
    150c:	0742                	slli	a4,a4,0x10
    150e:	8ed9                	or	a3,a3,a4
    1510:	00f44703          	lbu	a4,15(s0)
    1514:	0762                	slli	a4,a4,0x18
    1516:	8f55                	or	a4,a4,a3
    1518:	00875693          	srli	a3,a4,0x8
    151c:	00e78623          	sb	a4,12(a5)
    1520:	00d786a3          	sb	a3,13(a5)
    1524:	01075693          	srli	a3,a4,0x10
    1528:	8361                	srli	a4,a4,0x18
    152a:	00d78723          	sb	a3,14(a5)
    152e:	00e787a3          	sb	a4,15(a5)
    1532:	bf31                	j	144e <tcp_pcb_remove+0x2e>
    1534:	4605                	li	a2,1
    1536:	87ba                	mv	a5,a4
    1538:	b771                	j	14c4 <tcp_pcb_remove+0xa4>

0000153a <tcp_close>:
    153a:	01154703          	lbu	a4,17(a0)
    153e:	01054783          	lbu	a5,16(a0)
    1542:	0722                	slli	a4,a4,0x8
    1544:	8f5d                	or	a4,a4,a5
    1546:	01254783          	lbu	a5,18(a0)
    154a:	07c2                	slli	a5,a5,0x10
    154c:	8f5d                	or	a4,a4,a5
    154e:	01354783          	lbu	a5,19(a0)
    1552:	07e2                	slli	a5,a5,0x18
    1554:	8fd9                	or	a5,a5,a4
    1556:	471d                	li	a4,7
    1558:	14f76d63          	bltu	a4,a5,16b2 <tcp_close+0x178>
    155c:	2001f317          	auipc	t1,0x2001f
    1560:	ad4302e7          	jalr	t0,-1324(t1) # 20020030 <__riscv_save_0>
    1564:	20025717          	auipc	a4,0x20025
    1568:	21870713          	addi	a4,a4,536 # 2002677c <ErrTable+0x74>
    156c:	078a                	slli	a5,a5,0x2
    156e:	97ba                	add	a5,a5,a4
    1570:	439c                	lw	a5,0(a5)
    1572:	842a                	mv	s0,a0
    1574:	97ba                	add	a5,a5,a4
    1576:	8782                	jr	a5
    1578:	20021097          	auipc	ra,0x20021
    157c:	1e6080e7          	jalr	486(ra) # 2002275e <LwipRemoveTcpPcb>
    1580:	20001797          	auipc	a5,0x20001
    1584:	a5878793          	addi	a5,a5,-1448 # 20001fd8 <tcp_bound_pcbs>
    1588:	439c                	lw	a5,0(a5)
    158a:	02879f63          	bne	a5,s0,15c8 <tcp_close+0x8e>
    158e:	00d44703          	lbu	a4,13(s0)
    1592:	00c44783          	lbu	a5,12(s0)
    1596:	0722                	slli	a4,a4,0x8
    1598:	8f5d                	or	a4,a4,a5
    159a:	00e44783          	lbu	a5,14(s0)
    159e:	07c2                	slli	a5,a5,0x10
    15a0:	8f5d                	or	a4,a4,a5
    15a2:	00f44783          	lbu	a5,15(s0)
    15a6:	07e2                	slli	a5,a5,0x18
    15a8:	8fd9                	or	a5,a5,a4
    15aa:	20001717          	auipc	a4,0x20001
    15ae:	a2f72723          	sw	a5,-1490(a4) # 20001fd8 <tcp_bound_pcbs>
    15b2:	00040623          	sb	zero,12(s0)
    15b6:	000406a3          	sb	zero,13(s0)
    15ba:	00040723          	sb	zero,14(s0)
    15be:	000407a3          	sb	zero,15(s0)
    15c2:	85a2                	mv	a1,s0
    15c4:	4509                	li	a0,2
    15c6:	a869                	j	1660 <tcp_close+0x126>
    15c8:	20001717          	auipc	a4,0x20001
    15cc:	a0f72623          	sw	a5,-1524(a4) # 20001fd4 <tcp_tmp_pcb>
    15d0:	4601                	li	a2,0
    15d2:	e799                	bnez	a5,15e0 <tcp_close+0xa6>
    15d4:	de79                	beqz	a2,15b2 <tcp_close+0x78>
    15d6:	20001797          	auipc	a5,0x20001
    15da:	9e07af23          	sw	zero,-1538(a5) # 20001fd4 <tcp_tmp_pcb>
    15de:	bfd1                	j	15b2 <tcp_close+0x78>
    15e0:	00d7c683          	lbu	a3,13(a5)
    15e4:	00c7c703          	lbu	a4,12(a5)
    15e8:	06a2                	slli	a3,a3,0x8
    15ea:	8ed9                	or	a3,a3,a4
    15ec:	00e7c703          	lbu	a4,14(a5)
    15f0:	0742                	slli	a4,a4,0x10
    15f2:	8ed9                	or	a3,a3,a4
    15f4:	00f7c703          	lbu	a4,15(a5)
    15f8:	0762                	slli	a4,a4,0x18
    15fa:	8f55                	or	a4,a4,a3
    15fc:	04871363          	bne	a4,s0,1642 <tcp_close+0x108>
    1600:	c609                	beqz	a2,160a <tcp_close+0xd0>
    1602:	20001717          	auipc	a4,0x20001
    1606:	9cf72923          	sw	a5,-1582(a4) # 20001fd4 <tcp_tmp_pcb>
    160a:	00d44683          	lbu	a3,13(s0)
    160e:	00c44703          	lbu	a4,12(s0)
    1612:	06a2                	slli	a3,a3,0x8
    1614:	8ed9                	or	a3,a3,a4
    1616:	00e44703          	lbu	a4,14(s0)
    161a:	0742                	slli	a4,a4,0x10
    161c:	8ed9                	or	a3,a3,a4
    161e:	00f44703          	lbu	a4,15(s0)
    1622:	0762                	slli	a4,a4,0x18
    1624:	8f55                	or	a4,a4,a3
    1626:	00875693          	srli	a3,a4,0x8
    162a:	00e78623          	sb	a4,12(a5)
    162e:	00d786a3          	sb	a3,13(a5)
    1632:	01075693          	srli	a3,a4,0x10
    1636:	8361                	srli	a4,a4,0x18
    1638:	00d78723          	sb	a3,14(a5)
    163c:	00e787a3          	sb	a4,15(a5)
    1640:	bf8d                	j	15b2 <tcp_close+0x78>
    1642:	4605                	li	a2,1
    1644:	87ba                	mv	a5,a4
    1646:	b771                	j	15d2 <tcp_close+0x98>
    1648:	20021097          	auipc	ra,0x20021
    164c:	116080e7          	jalr	278(ra) # 2002275e <LwipRemoveTcpPcb>
    1650:	85a2                	mv	a1,s0
    1652:	20001517          	auipc	a0,0x20001
    1656:	97e50513          	addi	a0,a0,-1666 # 20001fd0 <tcp_listen_pcbs>
    165a:	33d9                	jal	1420 <tcp_pcb_remove>
    165c:	85a2                	mv	a1,s0
    165e:	450d                	li	a0,3
    1660:	609040ef          	jal	ra,6468 <memp_free>
    1664:	4501                	li	a0,0
    1666:	a00d                	j	1688 <tcp_close+0x14e>
    1668:	20021097          	auipc	ra,0x20021
    166c:	0f6080e7          	jalr	246(ra) # 2002275e <LwipRemoveTcpPcb>
    1670:	85a2                	mv	a1,s0
    1672:	20001517          	auipc	a0,0x20001
    1676:	95650513          	addi	a0,a0,-1706 # 20001fc8 <tcp_active_pcbs>
    167a:	335d                	jal	1420 <tcp_pcb_remove>
    167c:	b799                	j	15c2 <tcp_close+0x88>
    167e:	4585                	li	a1,1
    1680:	640030ef          	jal	ra,4cc0 <tcp_send_ctrl>
    1684:	4795                	li	a5,5
    1686:	c911                	beqz	a0,169a <tcp_close+0x160>
    1688:	2001f317          	auipc	t1,0x2001f
    168c:	9cc30067          	jr	-1588(t1) # 20020054 <__riscv_restore_0>
    1690:	4585                	li	a1,1
    1692:	62e030ef          	jal	ra,4cc0 <tcp_send_ctrl>
    1696:	f96d                	bnez	a0,1688 <tcp_close+0x14e>
    1698:	47a5                	li	a5,9
    169a:	00f40823          	sb	a5,16(s0)
    169e:	000408a3          	sb	zero,17(s0)
    16a2:	00040923          	sb	zero,18(s0)
    16a6:	000409a3          	sb	zero,19(s0)
    16aa:	8522                	mv	a0,s0
    16ac:	6fc030ef          	jal	ra,4da8 <tcp_output>
    16b0:	bf55                	j	1664 <tcp_close+0x12a>
    16b2:	4501                	li	a0,0
    16b4:	8082                	ret

000016b6 <tcp_recv_null>:
    16b6:	2001f317          	auipc	t1,0x2001f
    16ba:	97a302e7          	jalr	t0,-1670(t1) # 20020030 <__riscv_save_0>
    16be:	1141                	addi	sp,sp,-16
    16c0:	852e                	mv	a0,a1
    16c2:	c60d                	beqz	a2,16ec <tcp_recv_null+0x36>
    16c4:	00964783          	lbu	a5,9(a2)
    16c8:	00864583          	lbu	a1,8(a2)
    16cc:	c632                	sw	a2,12(sp)
    16ce:	07a2                	slli	a5,a5,0x8
    16d0:	8ddd                	or	a1,a1,a5
    16d2:	c72ff0ef          	jal	ra,b44 <tcp_recved>
    16d6:	4632                	lw	a2,12(sp)
    16d8:	8532                	mv	a0,a2
    16da:	207050ef          	jal	ra,70e0 <pbuf_free>
    16de:	4781                	li	a5,0
    16e0:	853e                	mv	a0,a5
    16e2:	0141                	addi	sp,sp,16
    16e4:	2001f317          	auipc	t1,0x2001f
    16e8:	97030067          	jr	-1680(t1) # 20020054 <__riscv_restore_0>
    16ec:	4781                	li	a5,0
    16ee:	faed                	bnez	a3,16e0 <tcp_recv_null+0x2a>
    16f0:	35a9                	jal	153a <tcp_close>
    16f2:	87aa                	mv	a5,a0
    16f4:	b7f5                	j	16e0 <tcp_recv_null+0x2a>

000016f6 <tcp_fasttmr>:
    16f6:	2001f317          	auipc	t1,0x2001f
    16fa:	93a302e7          	jalr	t0,-1734(t1) # 20020030 <__riscv_save_0>
    16fe:	20001797          	auipc	a5,0x20001
    1702:	8ca78793          	addi	a5,a5,-1846 # 20001fc8 <tcp_active_pcbs>
    1706:	4380                	lw	s0,0(a5)
    1708:	06500493          	li	s1,101
    170c:	c449                	beqz	s0,1796 <tcp_fasttmr+0xa0>
    170e:	07544783          	lbu	a5,117(s0)
    1712:	07444603          	lbu	a2,116(s0)
    1716:	07a2                	slli	a5,a5,0x8
    1718:	8fd1                	or	a5,a5,a2
    171a:	07644603          	lbu	a2,118(s0)
    171e:	0642                	slli	a2,a2,0x10
    1720:	8fd1                	or	a5,a5,a2
    1722:	07744603          	lbu	a2,119(s0)
    1726:	0662                	slli	a2,a2,0x18
    1728:	8e5d                	or	a2,a2,a5
    172a:	ca31                	beqz	a2,177e <tcp_fasttmr+0x88>
    172c:	07d44703          	lbu	a4,125(s0)
    1730:	07c44783          	lbu	a5,124(s0)
    1734:	0722                	slli	a4,a4,0x8
    1736:	8f5d                	or	a4,a4,a5
    1738:	07e44783          	lbu	a5,126(s0)
    173c:	07c2                	slli	a5,a5,0x10
    173e:	8f5d                	or	a4,a4,a5
    1740:	07f44783          	lbu	a5,127(s0)
    1744:	07e2                	slli	a5,a5,0x18
    1746:	8fd9                	or	a5,a5,a4
    1748:	cbb9                	beqz	a5,179e <tcp_fasttmr+0xa8>
    174a:	01644503          	lbu	a0,22(s0)
    174e:	01544703          	lbu	a4,21(s0)
    1752:	4681                	li	a3,0
    1754:	0522                	slli	a0,a0,0x8
    1756:	8d59                	or	a0,a0,a4
    1758:	01744703          	lbu	a4,23(s0)
    175c:	85a2                	mv	a1,s0
    175e:	0742                	slli	a4,a4,0x10
    1760:	8f49                	or	a4,a4,a0
    1762:	01844503          	lbu	a0,24(s0)
    1766:	0562                	slli	a0,a0,0x18
    1768:	8d59                	or	a0,a0,a4
    176a:	9782                	jalr	a5
    176c:	e909                	bnez	a0,177e <tcp_fasttmr+0x88>
    176e:	06040a23          	sb	zero,116(s0)
    1772:	06040aa3          	sb	zero,117(s0)
    1776:	06040b23          	sb	zero,118(s0)
    177a:	06040ba3          	sb	zero,119(s0)
    177e:	14fd                	addi	s1,s1,-1
    1780:	0ff4f493          	andi	s1,s1,255
    1784:	e095                	bnez	s1,17a8 <tcp_fasttmr+0xb2>
    1786:	20025517          	auipc	a0,0x20025
    178a:	02a50513          	addi	a0,a0,42 # 200267b0 <tcp_backoff+0x14>
    178e:	20023097          	auipc	ra,0x20023
    1792:	674080e7          	jalr	1652(ra) # 20024e02 <puts>
    1796:	2001f317          	auipc	t1,0x2001f
    179a:	8be30067          	jr	-1858(t1) # 20020054 <__riscv_restore_0>
    179e:	4681                	li	a3,0
    17a0:	85a2                	mv	a1,s0
    17a2:	4501                	li	a0,0
    17a4:	3f09                	jal	16b6 <tcp_recv_null>
    17a6:	b7d9                	j	176c <tcp_fasttmr+0x76>
    17a8:	02144783          	lbu	a5,33(s0)
    17ac:	0017f713          	andi	a4,a5,1
    17b0:	cf09                	beqz	a4,17ca <tcp_fasttmr+0xd4>
    17b2:	0027e793          	ori	a5,a5,2
    17b6:	02f400a3          	sb	a5,33(s0)
    17ba:	8522                	mv	a0,s0
    17bc:	5ec030ef          	jal	ra,4da8 <tcp_output>
    17c0:	02144783          	lbu	a5,33(s0)
    17c4:	9bf1                	andi	a5,a5,-4
    17c6:	02f400a3          	sb	a5,33(s0)
    17ca:	00d44783          	lbu	a5,13(s0)
    17ce:	00c44703          	lbu	a4,12(s0)
    17d2:	07a2                	slli	a5,a5,0x8
    17d4:	8f5d                	or	a4,a4,a5
    17d6:	00e44783          	lbu	a5,14(s0)
    17da:	00f44403          	lbu	s0,15(s0)
    17de:	07c2                	slli	a5,a5,0x10
    17e0:	8fd9                	or	a5,a5,a4
    17e2:	0462                	slli	s0,s0,0x18
    17e4:	8c5d                	or	s0,s0,a5
    17e6:	b71d                	j	170c <tcp_fasttmr+0x16>

000017e8 <tcp_tmr>:
    17e8:	2001f317          	auipc	t1,0x2001f
    17ec:	848302e7          	jalr	t0,-1976(t1) # 20020030 <__riscv_save_0>
    17f0:	3719                	jal	16f6 <tcp_fasttmr>
    17f2:	1ffff797          	auipc	a5,0x1ffff
    17f6:	8fa7c783          	lbu	a5,-1798(a5) # 200000ec <tcp_timer>
    17fa:	0785                	addi	a5,a5,1
    17fc:	0ff7f793          	andi	a5,a5,255
    1800:	1ffff717          	auipc	a4,0x1ffff
    1804:	8ef70623          	sb	a5,-1812(a4) # 200000ec <tcp_timer>
    1808:	8b85                	andi	a5,a5,1
    180a:	c399                	beqz	a5,1810 <tcp_tmr+0x28>
    180c:	ddcff0ef          	jal	ra,de8 <tcp_slowtmr>
    1810:	2001f317          	auipc	t1,0x2001f
    1814:	84430067          	jr	-1980(t1) # 20020054 <__riscv_restore_0>

00001818 <tcp_abandon>:
    1818:	2001e317          	auipc	t1,0x2001e
    181c:	7f0302e7          	jalr	t0,2032(t1) # 20020008 <__riscv_save_10>
    1820:	01154703          	lbu	a4,17(a0)
    1824:	01054783          	lbu	a5,16(a0)
    1828:	1141                	addi	sp,sp,-16
    182a:	0722                	slli	a4,a4,0x8
    182c:	8f5d                	or	a4,a4,a5
    182e:	01254783          	lbu	a5,18(a0)
    1832:	842a                	mv	s0,a0
    1834:	07c2                	slli	a5,a5,0x10
    1836:	8f5d                	or	a4,a4,a5
    1838:	01354783          	lbu	a5,19(a0)
    183c:	07e2                	slli	a5,a5,0x18
    183e:	8fd9                	or	a5,a5,a4
    1840:	4729                	li	a4,10
    1842:	02e79163          	bne	a5,a4,1864 <tcp_abandon+0x4c>
    1846:	85aa                	mv	a1,a0
    1848:	20000517          	auipc	a0,0x20000
    184c:	79450513          	addi	a0,a0,1940 # 20001fdc <tcp_tw_pcbs>
    1850:	3ec1                	jal	1420 <tcp_pcb_remove>
    1852:	85a2                	mv	a1,s0
    1854:	4509                	li	a0,2
    1856:	413040ef          	jal	ra,6468 <memp_free>
    185a:	0141                	addi	sp,sp,16
    185c:	2001e317          	auipc	t1,0x2001e
    1860:	7e430067          	jr	2020(t1) # 20020040 <__riscv_restore_10>
    1864:	05154783          	lbu	a5,81(a0)
    1868:	05054903          	lbu	s2,80(a0)
    186c:	02254983          	lbu	s3,34(a0)
    1870:	07a2                	slli	a5,a5,0x8
    1872:	0127e7b3          	or	a5,a5,s2
    1876:	05254903          	lbu	s2,82(a0)
    187a:	00154703          	lbu	a4,1(a0)
    187e:	8bae                	mv	s7,a1
    1880:	0942                	slli	s2,s2,0x10
    1882:	00f967b3          	or	a5,s2,a5
    1886:	05354903          	lbu	s2,83(a0)
    188a:	0722                	slli	a4,a4,0x8
    188c:	0962                	slli	s2,s2,0x18
    188e:	00f96933          	or	s2,s2,a5
    1892:	02354783          	lbu	a5,35(a0)
    1896:	07a2                	slli	a5,a5,0x8
    1898:	0137e7b3          	or	a5,a5,s3
    189c:	02454983          	lbu	s3,36(a0)
    18a0:	09c2                	slli	s3,s3,0x10
    18a2:	00f9e7b3          	or	a5,s3,a5
    18a6:	02554983          	lbu	s3,37(a0)
    18aa:	09e2                	slli	s3,s3,0x18
    18ac:	00f9e9b3          	or	s3,s3,a5
    18b0:	00054783          	lbu	a5,0(a0)
    18b4:	8f5d                	or	a4,a4,a5
    18b6:	00254783          	lbu	a5,2(a0)
    18ba:	07c2                	slli	a5,a5,0x10
    18bc:	8f5d                	or	a4,a4,a5
    18be:	00354783          	lbu	a5,3(a0)
    18c2:	07e2                	slli	a5,a5,0x18
    18c4:	8fd9                	or	a5,a5,a4
    18c6:	c63e                	sw	a5,12(sp)
    18c8:	00554703          	lbu	a4,5(a0)
    18cc:	00454783          	lbu	a5,4(a0)
    18d0:	0722                	slli	a4,a4,0x8
    18d2:	8f5d                	or	a4,a4,a5
    18d4:	00654783          	lbu	a5,6(a0)
    18d8:	07c2                	slli	a5,a5,0x10
    18da:	8f5d                	or	a4,a4,a5
    18dc:	00754783          	lbu	a5,7(a0)
    18e0:	07e2                	slli	a5,a5,0x18
    18e2:	8fd9                	or	a5,a5,a4
    18e4:	c43e                	sw	a5,8(sp)
    18e6:	01a54a03          	lbu	s4,26(a0)
    18ea:	01954783          	lbu	a5,25(a0)
    18ee:	02054a83          	lbu	s5,32(a0)
    18f2:	0a22                	slli	s4,s4,0x8
    18f4:	00fa6a33          	or	s4,s4,a5
    18f8:	01f54783          	lbu	a5,31(a0)
    18fc:	0aa2                	slli	s5,s5,0x8
    18fe:	08854483          	lbu	s1,136(a0)
    1902:	00faeab3          	or	s5,s5,a5
    1906:	08954783          	lbu	a5,137(a0)
    190a:	01554b03          	lbu	s6,21(a0)
    190e:	07a2                	slli	a5,a5,0x8
    1910:	8fc5                	or	a5,a5,s1
    1912:	08a54483          	lbu	s1,138(a0)
    1916:	04c2                	slli	s1,s1,0x10
    1918:	8fc5                	or	a5,a5,s1
    191a:	08b54483          	lbu	s1,139(a0)
    191e:	04e2                	slli	s1,s1,0x18
    1920:	8cdd                	or	s1,s1,a5
    1922:	01654783          	lbu	a5,22(a0)
    1926:	07a2                	slli	a5,a5,0x8
    1928:	0167e7b3          	or	a5,a5,s6
    192c:	01754b03          	lbu	s6,23(a0)
    1930:	0b42                	slli	s6,s6,0x10
    1932:	00fb67b3          	or	a5,s6,a5
    1936:	01854b03          	lbu	s6,24(a0)
    193a:	0b62                	slli	s6,s6,0x18
    193c:	00fb6b33          	or	s6,s6,a5
    1940:	20021097          	auipc	ra,0x20021
    1944:	e1e080e7          	jalr	-482(ra) # 2002275e <LwipRemoveTcpPcb>
    1948:	20000517          	auipc	a0,0x20000
    194c:	68050513          	addi	a0,a0,1664 # 20001fc8 <tcp_active_pcbs>
    1950:	85a2                	mv	a1,s0
    1952:	34f9                	jal	1420 <tcp_pcb_remove>
    1954:	06d44783          	lbu	a5,109(s0)
    1958:	06c44503          	lbu	a0,108(s0)
    195c:	07a2                	slli	a5,a5,0x8
    195e:	8fc9                	or	a5,a5,a0
    1960:	06e44503          	lbu	a0,110(s0)
    1964:	0542                	slli	a0,a0,0x10
    1966:	8fc9                	or	a5,a5,a0
    1968:	06f44503          	lbu	a0,111(s0)
    196c:	0562                	slli	a0,a0,0x18
    196e:	8d5d                	or	a0,a0,a5
    1970:	c119                	beqz	a0,1976 <tcp_abandon+0x15e>
    1972:	a70ff0ef          	jal	ra,be2 <tcp_segs_free>
    1976:	06944783          	lbu	a5,105(s0)
    197a:	06844503          	lbu	a0,104(s0)
    197e:	07a2                	slli	a5,a5,0x8
    1980:	8fc9                	or	a5,a5,a0
    1982:	06a44503          	lbu	a0,106(s0)
    1986:	0542                	slli	a0,a0,0x10
    1988:	8fc9                	or	a5,a5,a0
    198a:	06b44503          	lbu	a0,107(s0)
    198e:	0562                	slli	a0,a0,0x18
    1990:	8d5d                	or	a0,a0,a5
    1992:	c119                	beqz	a0,1998 <tcp_abandon+0x180>
    1994:	a4eff0ef          	jal	ra,be2 <tcp_segs_free>
    1998:	07144783          	lbu	a5,113(s0)
    199c:	07044503          	lbu	a0,112(s0)
    19a0:	07a2                	slli	a5,a5,0x8
    19a2:	8fc9                	or	a5,a5,a0
    19a4:	07244503          	lbu	a0,114(s0)
    19a8:	0542                	slli	a0,a0,0x10
    19aa:	8fc9                	or	a5,a5,a0
    19ac:	07344503          	lbu	a0,115(s0)
    19b0:	0562                	slli	a0,a0,0x18
    19b2:	8d5d                	or	a0,a0,a5
    19b4:	c119                	beqz	a0,19ba <tcp_abandon+0x1a2>
    19b6:	a2cff0ef          	jal	ra,be2 <tcp_segs_free>
    19ba:	85a2                	mv	a1,s0
    19bc:	4509                	li	a0,2
    19be:	2ab040ef          	jal	ra,6468 <memp_free>
    19c2:	c481                	beqz	s1,19ca <tcp_abandon+0x1b2>
    19c4:	55ed                	li	a1,-5
    19c6:	855a                	mv	a0,s6
    19c8:	9482                	jalr	s1
    19ca:	e80b88e3          	beqz	s7,185a <tcp_abandon+0x42>
    19ce:	87d6                	mv	a5,s5
    19d0:	8752                	mv	a4,s4
    19d2:	0034                	addi	a3,sp,8
    19d4:	0070                	addi	a2,sp,12
    19d6:	85ce                	mv	a1,s3
    19d8:	854a                	mv	a0,s2
    19da:	2a5030ef          	jal	ra,547e <tcp_rst>
    19de:	bdb5                	j	185a <tcp_abandon+0x42>

000019e0 <tcp_next_iss>:
    19e0:	1fffe797          	auipc	a5,0x1fffe
    19e4:	69878793          	addi	a5,a5,1688 # 20000078 <iss.3741>
    19e8:	20000717          	auipc	a4,0x20000
    19ec:	5e470713          	addi	a4,a4,1508 # 20001fcc <tcp_ticks>
    19f0:	4388                	lw	a0,0(a5)
    19f2:	4318                	lw	a4,0(a4)
    19f4:	953a                	add	a0,a0,a4
    19f6:	c388                	sw	a0,0(a5)
    19f8:	8082                	ret

000019fa <tcp_alloc>:
    19fa:	2001e317          	auipc	t1,0x2001e
    19fe:	61c302e7          	jalr	t0,1564(t1) # 20020016 <__riscv_save_4>
    1a02:	892a                	mv	s2,a0
    1a04:	4509                	li	a0,2
    1a06:	243040ef          	jal	ra,6448 <memp_malloc>
    1a0a:	20000497          	auipc	s1,0x20000
    1a0e:	4de48493          	addi	s1,s1,1246 # 20001ee8 <CH569Cfg>
    1a12:	842a                	mv	s0,a0
    1a14:	e92d                	bnez	a0,1a86 <tcp_alloc+0x8c>
    1a16:	489c                	lw	a5,16(s1)
    1a18:	8b91                	andi	a5,a5,4
    1a1a:	e799                	bnez	a5,1a28 <tcp_alloc+0x2e>
    1a1c:	4401                	li	s0,0
    1a1e:	8522                	mv	a0,s0
    1a20:	2001e317          	auipc	t1,0x2001e
    1a24:	62a30067          	jr	1578(t1) # 2002004a <__riscv_restore_4>
    1a28:	20000797          	auipc	a5,0x20000
    1a2c:	5b478793          	addi	a5,a5,1460 # 20001fdc <tcp_tw_pcbs>
    1a30:	20000997          	auipc	s3,0x20000
    1a34:	59c98993          	addi	s3,s3,1436 # 20001fcc <tcp_ticks>
    1a38:	439c                	lw	a5,0(a5)
    1a3a:	0009a583          	lw	a1,0(s3)
    1a3e:	4501                	li	a0,0
    1a40:	4601                	li	a2,0
    1a42:	1a079163          	bnez	a5,1be4 <tcp_alloc+0x1ea>
    1a46:	c119                	beqz	a0,1a4c <tcp_alloc+0x52>
    1a48:	4585                	li	a1,1
    1a4a:	33f9                	jal	1818 <tcp_abandon>
    1a4c:	4509                	li	a0,2
    1a4e:	1fb040ef          	jal	ra,6448 <memp_malloc>
    1a52:	842a                	mv	s0,a0
    1a54:	e90d                	bnez	a0,1a86 <tcp_alloc+0x8c>
    1a56:	20000797          	auipc	a5,0x20000
    1a5a:	57278793          	addi	a5,a5,1394 # 20001fc8 <tcp_active_pcbs>
    1a5e:	439c                	lw	a5,0(a5)
    1a60:	0009a803          	lw	a6,0(s3)
    1a64:	197d                	addi	s2,s2,-1
    1a66:	0ff97913          	andi	s2,s2,255
    1a6a:	07f00593          	li	a1,127
    1a6e:	4501                	li	a0,0
    1a70:	1a079d63          	bnez	a5,1c2a <tcp_alloc+0x230>
    1a74:	c401                	beqz	s0,1a7c <tcp_alloc+0x82>
    1a76:	4585                	li	a1,1
    1a78:	8522                	mv	a0,s0
    1a7a:	3b79                	jal	1818 <tcp_abandon>
    1a7c:	4509                	li	a0,2
    1a7e:	1cb040ef          	jal	ra,6448 <memp_malloc>
    1a82:	842a                	mv	s0,a0
    1a84:	dd41                	beqz	a0,1a1c <tcp_alloc+0x22>
    1a86:	09600613          	li	a2,150
    1a8a:	4581                	li	a1,0
    1a8c:	8522                	mv	a0,s0
    1a8e:	2001e097          	auipc	ra,0x2001e
    1a92:	5d2080e7          	jalr	1490(ra) # 20020060 <memset>
    1a96:	04000793          	li	a5,64
    1a9a:	00f40a23          	sb	a5,20(s0)
    1a9e:	02000793          	li	a5,32
    1aa2:	06f402a3          	sb	a5,101(s0)
    1aa6:	40dc                	lw	a5,4(s1)
    1aa8:	00040523          	sb	zero,10(s0)
    1aac:	01079713          	slli	a4,a5,0x10
    1ab0:	8341                	srli	a4,a4,0x10
    1ab2:	0ff77693          	andi	a3,a4,255
    1ab6:	8321                	srli	a4,a4,0x8
    1ab8:	02e403a3          	sb	a4,39(s0)
    1abc:	02e404a3          	sb	a4,41(s0)
    1ac0:	f8000713          	li	a4,-128
    1ac4:	00e405a3          	sb	a4,11(s0)
    1ac8:	02d40323          	sb	a3,38(s0)
    1acc:	02d40423          	sb	a3,40(s0)
    1ad0:	21800713          	li	a4,536
    1ad4:	00f77463          	bgeu	a4,a5,1adc <tcp_alloc+0xe2>
    1ad8:	21800793          	li	a5,536
    1adc:	07c2                	slli	a5,a5,0x10
    1ade:	83c1                	srli	a5,a5,0x10
    1ae0:	02f40b23          	sb	a5,54(s0)
    1ae4:	83a1                	srli	a5,a5,0x8
    1ae6:	02f40ba3          	sb	a5,55(s0)
    1aea:	4799                	li	a5,6
    1aec:	04f40223          	sb	a5,68(s0)
    1af0:	04f40123          	sb	a5,66(s0)
    1af4:	57fd                	li	a5,-1
    1af6:	02f40a23          	sb	a5,52(s0)
    1afa:	02f40aa3          	sb	a5,53(s0)
    1afe:	4785                	li	a5,1
    1b00:	04f40623          	sb	a5,76(s0)
    1b04:	040402a3          	sb	zero,69(s0)
    1b08:	04040023          	sb	zero,64(s0)
    1b0c:	040400a3          	sb	zero,65(s0)
    1b10:	040401a3          	sb	zero,67(s0)
    1b14:	040406a3          	sb	zero,77(s0)
    1b18:	35e1                	jal	19e0 <tcp_next_iss>
    1b1a:	01055793          	srli	a5,a0,0x10
    1b1e:	0ff7f793          	andi	a5,a5,255
    1b22:	04f40e23          	sb	a5,92(s0)
    1b26:	04f40923          	sb	a5,82(s0)
    1b2a:	04f404a3          	sb	a5,73(s0)
    1b2e:	06f40023          	sb	a5,96(s0)
    1b32:	20000797          	auipc	a5,0x20000
    1b36:	49a78793          	addi	a5,a5,1178 # 20001fcc <tcp_ticks>
    1b3a:	439c                	lw	a5,0(a5)
    1b3c:	00855713          	srli	a4,a0,0x8
    1b40:	0ff77713          	andi	a4,a4,255
    1b44:	04e40da3          	sb	a4,91(s0)
    1b48:	04e408a3          	sb	a4,81(s0)
    1b4c:	04e40423          	sb	a4,72(s0)
    1b50:	04e40fa3          	sb	a4,95(s0)
    1b54:	0087d713          	srli	a4,a5,0x8
    1b58:	02f40723          	sb	a5,46(s0)
    1b5c:	02e407a3          	sb	a4,47(s0)
    1b60:	0107d713          	srli	a4,a5,0x10
    1b64:	83e1                	srli	a5,a5,0x18
    1b66:	02f408a3          	sb	a5,49(s0)
    1b6a:	00000797          	auipc	a5,0x0
    1b6e:	b4c78793          	addi	a5,a5,-1204 # 16b6 <tcp_recv_null>
    1b72:	02e40823          	sb	a4,48(s0)
    1b76:	0087d713          	srli	a4,a5,0x8
    1b7a:	06f40e23          	sb	a5,124(s0)
    1b7e:	06e40ea3          	sb	a4,125(s0)
    1b82:	0107d713          	srli	a4,a5,0x10
    1b86:	83e1                	srli	a5,a5,0x18
    1b88:	06f40fa3          	sb	a5,127(s0)
    1b8c:	20000797          	auipc	a5,0x20000
    1b90:	38c78793          	addi	a5,a5,908 # 20001f18 <KeepLiveCfg>
    1b94:	439c                	lw	a5,0(a5)
    1b96:	06e40f23          	sb	a4,126(s0)
    1b9a:	0ff57693          	andi	a3,a0,255
    1b9e:	0087d713          	srli	a4,a5,0x8
    1ba2:	8161                	srli	a0,a0,0x18
    1ba4:	08f40623          	sb	a5,140(s0)
    1ba8:	08e406a3          	sb	a4,141(s0)
    1bac:	0107d713          	srli	a4,a5,0x10
    1bb0:	83e1                	srli	a5,a5,0x18
    1bb2:	04d40d23          	sb	a3,90(s0)
    1bb6:	04a40ea3          	sb	a0,93(s0)
    1bba:	04d40823          	sb	a3,80(s0)
    1bbe:	04a409a3          	sb	a0,83(s0)
    1bc2:	04d403a3          	sb	a3,71(s0)
    1bc6:	04a40523          	sb	a0,74(s0)
    1bca:	04d40f23          	sb	a3,94(s0)
    1bce:	06a400a3          	sb	a0,97(s0)
    1bd2:	02040923          	sb	zero,50(s0)
    1bd6:	08e40723          	sb	a4,142(s0)
    1bda:	08f407a3          	sb	a5,143(s0)
    1bde:	08040aa3          	sb	zero,149(s0)
    1be2:	bd35                	j	1a1e <tcp_alloc+0x24>
    1be4:	02f7c683          	lbu	a3,47(a5)
    1be8:	02e7c703          	lbu	a4,46(a5)
    1bec:	06a2                	slli	a3,a3,0x8
    1bee:	8ed9                	or	a3,a3,a4
    1bf0:	0307c703          	lbu	a4,48(a5)
    1bf4:	0742                	slli	a4,a4,0x10
    1bf6:	8ed9                	or	a3,a3,a4
    1bf8:	0317c703          	lbu	a4,49(a5)
    1bfc:	0762                	slli	a4,a4,0x18
    1bfe:	8f55                	or	a4,a4,a3
    1c00:	40e58733          	sub	a4,a1,a4
    1c04:	00c76463          	bltu	a4,a2,1c0c <tcp_alloc+0x212>
    1c08:	863a                	mv	a2,a4
    1c0a:	853e                	mv	a0,a5
    1c0c:	00d7c703          	lbu	a4,13(a5)
    1c10:	00c7c683          	lbu	a3,12(a5)
    1c14:	0722                	slli	a4,a4,0x8
    1c16:	8ed9                	or	a3,a3,a4
    1c18:	00e7c703          	lbu	a4,14(a5)
    1c1c:	00f7c783          	lbu	a5,15(a5)
    1c20:	0742                	slli	a4,a4,0x10
    1c22:	8f55                	or	a4,a4,a3
    1c24:	07e2                	slli	a5,a5,0x18
    1c26:	8fd9                	or	a5,a5,a4
    1c28:	bd29                	j	1a42 <tcp_alloc+0x48>
    1c2a:	0147c603          	lbu	a2,20(a5)
    1c2e:	02c96963          	bltu	s2,a2,1c60 <tcp_alloc+0x266>
    1c32:	02c5e763          	bltu	a1,a2,1c60 <tcp_alloc+0x266>
    1c36:	02f7c683          	lbu	a3,47(a5)
    1c3a:	02e7c703          	lbu	a4,46(a5)
    1c3e:	06a2                	slli	a3,a3,0x8
    1c40:	8ed9                	or	a3,a3,a4
    1c42:	0307c703          	lbu	a4,48(a5)
    1c46:	0742                	slli	a4,a4,0x10
    1c48:	8ed9                	or	a3,a3,a4
    1c4a:	0317c703          	lbu	a4,49(a5)
    1c4e:	0762                	slli	a4,a4,0x18
    1c50:	8f55                	or	a4,a4,a3
    1c52:	40e80733          	sub	a4,a6,a4
    1c56:	00a76563          	bltu	a4,a0,1c60 <tcp_alloc+0x266>
    1c5a:	85b2                	mv	a1,a2
    1c5c:	853a                	mv	a0,a4
    1c5e:	843e                	mv	s0,a5
    1c60:	00d7c703          	lbu	a4,13(a5)
    1c64:	00c7c683          	lbu	a3,12(a5)
    1c68:	0722                	slli	a4,a4,0x8
    1c6a:	8ed9                	or	a3,a3,a4
    1c6c:	00e7c703          	lbu	a4,14(a5)
    1c70:	00f7c783          	lbu	a5,15(a5)
    1c74:	0742                	slli	a4,a4,0x10
    1c76:	8f55                	or	a4,a4,a3
    1c78:	07e2                	slli	a5,a5,0x18
    1c7a:	8fd9                	or	a5,a5,a4
    1c7c:	bbd5                	j	1a70 <tcp_alloc+0x76>

00001c7e <tcp_new>:
    1c7e:	2001e317          	auipc	t1,0x2001e
    1c82:	3b2302e7          	jalr	t0,946(t1) # 20020030 <__riscv_save_0>
    1c86:	04000513          	li	a0,64
    1c8a:	3b85                	jal	19fa <tcp_alloc>
    1c8c:	2001e317          	auipc	t1,0x2001e
    1c90:	3c830067          	jr	968(t1) # 20020054 <__riscv_restore_0>

00001c94 <tcp_eff_send_mss>:
    1c94:	2001e317          	auipc	t1,0x2001e
    1c98:	39c302e7          	jalr	t0,924(t1) # 20020030 <__riscv_save_0>
    1c9c:	842a                	mv	s0,a0
    1c9e:	852e                	mv	a0,a1
    1ca0:	509030ef          	jal	ra,59a8 <ip_route>
    1ca4:	cd19                	beqz	a0,1cc2 <tcp_eff_send_mss+0x2e>
    1ca6:	02455783          	lhu	a5,36(a0)
    1caa:	cf81                	beqz	a5,1cc2 <tcp_eff_send_mss+0x2e>
    1cac:	fd878793          	addi	a5,a5,-40
    1cb0:	873e                	mv	a4,a5
    1cb2:	07c2                	slli	a5,a5,0x10
    1cb4:	83c1                	srli	a5,a5,0x10
    1cb6:	00f47363          	bgeu	s0,a5,1cbc <tcp_eff_send_mss+0x28>
    1cba:	8722                	mv	a4,s0
    1cbc:	01071413          	slli	s0,a4,0x10
    1cc0:	8041                	srli	s0,s0,0x10
    1cc2:	8522                	mv	a0,s0
    1cc4:	2001e317          	auipc	t1,0x2001e
    1cc8:	39030067          	jr	912(t1) # 20020054 <__riscv_restore_0>

00001ccc <tcp_parseopt>:
    1ccc:	2001e317          	auipc	t1,0x2001e
    1cd0:	364302e7          	jalr	t0,868(t1) # 20020030 <__riscv_save_0>
    1cd4:	1fffe917          	auipc	s2,0x1fffe
    1cd8:	43490913          	addi	s2,s2,1076 # 20000108 <tcphdr>
    1cdc:	00092483          	lw	s1,0(s2)
    1ce0:	842a                	mv	s0,a0
    1ce2:	00d4c783          	lbu	a5,13(s1)
    1ce6:	00c4c503          	lbu	a0,12(s1)
    1cea:	07a2                	slli	a5,a5,0x8
    1cec:	8d5d                	or	a0,a0,a5
    1cee:	20022097          	auipc	ra,0x20022
    1cf2:	af6080e7          	jalr	-1290(ra) # 200237e4 <ntohs>
    1cf6:	8131                	srli	a0,a0,0xc
    1cf8:	0542                	slli	a0,a0,0x10
    1cfa:	8141                	srli	a0,a0,0x10
    1cfc:	4795                	li	a5,5
    1cfe:	04a7f263          	bgeu	a5,a0,1d42 <tcp_parseopt+0x76>
    1d02:	00092783          	lw	a5,0(s2)
    1d06:	04d1                	addi	s1,s1,20
    1d08:	00c7c503          	lbu	a0,12(a5)
    1d0c:	00d7c783          	lbu	a5,13(a5)
    1d10:	07a2                	slli	a5,a5,0x8
    1d12:	8d5d                	or	a0,a0,a5
    1d14:	20022097          	auipc	ra,0x20022
    1d18:	ad0080e7          	jalr	-1328(ra) # 200237e4 <ntohs>
    1d1c:	20000797          	auipc	a5,0x20000
    1d20:	1cc78793          	addi	a5,a5,460 # 20001ee8 <CH569Cfg>
    1d24:	43d0                	lw	a2,4(a5)
    1d26:	8131                	srli	a0,a0,0xc
    1d28:	156d                	addi	a0,a0,-5
    1d2a:	050a                	slli	a0,a0,0x2
    1d2c:	0542                	slli	a0,a0,0x10
    1d2e:	01061593          	slli	a1,a2,0x10
    1d32:	8141                	srli	a0,a0,0x10
    1d34:	81c1                	srli	a1,a1,0x10
    1d36:	4781                	li	a5,0
    1d38:	4805                	li	a6,1
    1d3a:	4889                	li	a7,2
    1d3c:	4311                	li	t1,4
    1d3e:	00a7e663          	bltu	a5,a0,1d4a <tcp_parseopt+0x7e>
    1d42:	2001e317          	auipc	t1,0x2001e
    1d46:	31230067          	jr	786(t1) # 20020054 <__riscv_restore_0>
    1d4a:	00f486b3          	add	a3,s1,a5
    1d4e:	0006c703          	lbu	a4,0(a3)
    1d52:	01070a63          	beq	a4,a6,1d66 <tcp_parseopt+0x9a>
    1d56:	d775                	beqz	a4,1d42 <tcp_parseopt+0x76>
    1d58:	01170b63          	beq	a4,a7,1d6e <tcp_parseopt+0xa2>
    1d5c:	0016c703          	lbu	a4,1(a3)
    1d60:	d36d                	beqz	a4,1d42 <tcp_parseopt+0x76>
    1d62:	97ba                	add	a5,a5,a4
    1d64:	a011                	j	1d68 <tcp_parseopt+0x9c>
    1d66:	0785                	addi	a5,a5,1
    1d68:	07c2                	slli	a5,a5,0x10
    1d6a:	83c1                	srli	a5,a5,0x10
    1d6c:	bfc9                	j	1d3e <tcp_parseopt+0x72>
    1d6e:	0016c703          	lbu	a4,1(a3)
    1d72:	fc6718e3          	bne	a4,t1,1d42 <tcp_parseopt+0x76>
    1d76:	00378713          	addi	a4,a5,3
    1d7a:	fca754e3          	bge	a4,a0,1d42 <tcp_parseopt+0x76>
    1d7e:	0026c703          	lbu	a4,2(a3)
    1d82:	0036c683          	lbu	a3,3(a3)
    1d86:	0722                	slli	a4,a4,0x8
    1d88:	8f55                	or	a4,a4,a3
    1d8a:	00e66363          	bltu	a2,a4,1d90 <tcp_parseopt+0xc4>
    1d8e:	e311                	bnez	a4,1d92 <tcp_parseopt+0xc6>
    1d90:	872e                	mv	a4,a1
    1d92:	02e40b23          	sb	a4,54(s0)
    1d96:	8321                	srli	a4,a4,0x8
    1d98:	02e40ba3          	sb	a4,55(s0)
    1d9c:	0791                	addi	a5,a5,4
    1d9e:	b7e9                	j	1d68 <tcp_parseopt+0x9c>

00001da0 <tcp_oos_insert_segment>:
    1da0:	2001e317          	auipc	t1,0x2001e
    1da4:	276302e7          	jalr	t0,630(t1) # 20020016 <__riscv_save_4>
    1da8:	491c                	lw	a5,16(a0)
    1daa:	84aa                	mv	s1,a0
    1dac:	8a2e                	mv	s4,a1
    1dae:	00c7c503          	lbu	a0,12(a5)
    1db2:	00d7c783          	lbu	a5,13(a5)
    1db6:	07a2                	slli	a5,a5,0x8
    1db8:	8d5d                	or	a0,a0,a5
    1dba:	20022097          	auipc	ra,0x20022
    1dbe:	a2a080e7          	jalr	-1494(ra) # 200237e4 <ntohs>
    1dc2:	8905                	andi	a0,a0,1
    1dc4:	e52d                	bnez	a0,1e2e <tcp_oos_insert_segment+0x8e>
    1dc6:	6941                	lui	s2,0x10
    1dc8:	1fffe997          	auipc	s3,0x1fffe
    1dcc:	33c98993          	addi	s3,s3,828 # 20000104 <seqno>
    1dd0:	fc090913          	addi	s2,s2,-64 # ffc0 <_ramcode_lma+0x7fc0>
    1dd4:	010a2703          	lw	a4,16(s4)
    1dd8:	0009a603          	lw	a2,0(s3)
    1ddc:	00c4d783          	lhu	a5,12(s1)
    1de0:	00574683          	lbu	a3,5(a4)
    1de4:	00474583          	lbu	a1,4(a4)
    1de8:	97b2                	add	a5,a5,a2
    1dea:	06a2                	slli	a3,a3,0x8
    1dec:	8dd5                	or	a1,a1,a3
    1dee:	00674683          	lbu	a3,6(a4)
    1df2:	06c2                	slli	a3,a3,0x10
    1df4:	8ecd                	or	a3,a3,a1
    1df6:	00774583          	lbu	a1,7(a4)
    1dfa:	05e2                	slli	a1,a1,0x18
    1dfc:	8dd5                	or	a1,a1,a3
    1dfe:	00ca5683          	lhu	a3,12(s4)
    1e02:	96ae                	add	a3,a3,a1
    1e04:	40d786b3          	sub	a3,a5,a3
    1e08:	0206d863          	bgez	a3,1e38 <tcp_oos_insert_segment+0x98>
    1e0c:	8f8d                	sub	a5,a5,a1
    1e0e:	00f05a63          	blez	a5,1e22 <tcp_oos_insert_segment+0x82>
    1e12:	8d91                	sub	a1,a1,a2
    1e14:	05c2                	slli	a1,a1,0x10
    1e16:	40c8                	lw	a0,4(s1)
    1e18:	81c1                	srli	a1,a1,0x10
    1e1a:	00b49623          	sh	a1,12(s1)
    1e1e:	5b6050ef          	jal	ra,73d4 <pbuf_realloc>
    1e22:	0144a023          	sw	s4,0(s1)
    1e26:	2001e317          	auipc	t1,0x2001e
    1e2a:	22430067          	jr	548(t1) # 2002004a <__riscv_restore_4>
    1e2e:	8552                	mv	a0,s4
    1e30:	db3fe0ef          	jal	ra,be2 <tcp_segs_free>
    1e34:	4a01                	li	s4,0
    1e36:	b7f5                	j	1e22 <tcp_oos_insert_segment+0x82>
    1e38:	00d74783          	lbu	a5,13(a4)
    1e3c:	00c74503          	lbu	a0,12(a4)
    1e40:	07a2                	slli	a5,a5,0x8
    1e42:	8d5d                	or	a0,a0,a5
    1e44:	20022097          	auipc	ra,0x20022
    1e48:	9a0080e7          	jalr	-1632(ra) # 200237e4 <ntohs>
    1e4c:	8905                	andi	a0,a0,1
    1e4e:	c931                	beqz	a0,1ea2 <tcp_oos_insert_segment+0x102>
    1e50:	489c                	lw	a5,16(s1)
    1e52:	00d7c403          	lbu	s0,13(a5)
    1e56:	00c7c503          	lbu	a0,12(a5)
    1e5a:	0422                	slli	s0,s0,0x8
    1e5c:	8c49                	or	s0,s0,a0
    1e5e:	854a                	mv	a0,s2
    1e60:	20022097          	auipc	ra,0x20022
    1e64:	976080e7          	jalr	-1674(ra) # 200237d6 <htons>
    1e68:	489c                	lw	a5,16(s1)
    1e6a:	8c69                	and	s0,s0,a0
    1e6c:	00c7c503          	lbu	a0,12(a5)
    1e70:	00d7c783          	lbu	a5,13(a5)
    1e74:	07a2                	slli	a5,a5,0x8
    1e76:	8d5d                	or	a0,a0,a5
    1e78:	20022097          	auipc	ra,0x20022
    1e7c:	96c080e7          	jalr	-1684(ra) # 200237e4 <ntohs>
    1e80:	03e57513          	andi	a0,a0,62
    1e84:	00156513          	ori	a0,a0,1
    1e88:	20022097          	auipc	ra,0x20022
    1e8c:	94e080e7          	jalr	-1714(ra) # 200237d6 <htons>
    1e90:	489c                	lw	a5,16(s1)
    1e92:	8d41                	or	a0,a0,s0
    1e94:	0542                	slli	a0,a0,0x10
    1e96:	8141                	srli	a0,a0,0x10
    1e98:	00a78623          	sb	a0,12(a5)
    1e9c:	8121                	srli	a0,a0,0x8
    1e9e:	00a786a3          	sb	a0,13(a5)
    1ea2:	000a2403          	lw	s0,0(s4)
    1ea6:	8552                	mv	a0,s4
    1ea8:	d09fe0ef          	jal	ra,bb0 <tcp_seg_free>
    1eac:	d441                	beqz	s0,1e34 <tcp_oos_insert_segment+0x94>
    1eae:	8a22                	mv	s4,s0
    1eb0:	b715                	j	1dd4 <tcp_oos_insert_segment+0x34>

00001eb2 <tcp_receive>:
    1eb2:	2001e317          	auipc	t1,0x2001e
    1eb6:	164302e7          	jalr	t0,356(t1) # 20020016 <__riscv_save_4>
    1eba:	1fffe797          	auipc	a5,0x1fffe
    1ebe:	23a7c783          	lbu	a5,570(a5) # 200000f4 <flags>
    1ec2:	8bc1                	andi	a5,a5,16
    1ec4:	842a                	mv	s0,a0
    1ec6:	1fffe497          	auipc	s1,0x1fffe
    1eca:	23e48493          	addi	s1,s1,574 # 20000104 <seqno>
    1ece:	1e078963          	beqz	a5,20c0 <tcp_receive+0x20e>
    1ed2:	05554683          	lbu	a3,85(a0)
    1ed6:	05454783          	lbu	a5,84(a0)
    1eda:	05a54603          	lbu	a2,90(a0)
    1ede:	06a2                	slli	a3,a3,0x8
    1ee0:	8edd                	or	a3,a3,a5
    1ee2:	05b54783          	lbu	a5,91(a0)
    1ee6:	05654583          	lbu	a1,86(a0)
    1eea:	4098                	lw	a4,0(s1)
    1eec:	07a2                	slli	a5,a5,0x8
    1eee:	8fd1                	or	a5,a5,a2
    1ef0:	05c54603          	lbu	a2,92(a0)
    1ef4:	1fffe917          	auipc	s2,0x1fffe
    1ef8:	1fc90913          	addi	s2,s2,508 # 200000f0 <ackno>
    1efc:	0642                	slli	a2,a2,0x10
    1efe:	8fd1                	or	a5,a5,a2
    1f00:	05d54603          	lbu	a2,93(a0)
    1f04:	0662                	slli	a2,a2,0x18
    1f06:	8e5d                	or	a2,a2,a5
    1f08:	05754783          	lbu	a5,87(a0)
    1f0c:	07a2                	slli	a5,a5,0x8
    1f0e:	8fcd                	or	a5,a5,a1
    1f10:	05854583          	lbu	a1,88(a0)
    1f14:	05c2                	slli	a1,a1,0x10
    1f16:	8fcd                	or	a5,a5,a1
    1f18:	05954583          	lbu	a1,89(a0)
    1f1c:	05e2                	slli	a1,a1,0x18
    1f1e:	8ddd                	or	a1,a1,a5
    1f20:	40e58533          	sub	a0,a1,a4
    1f24:	00092783          	lw	a5,0(s2)
    1f28:	02054863          	bltz	a0,1f58 <tcp_receive+0xa6>
    1f2c:	00e59663          	bne	a1,a4,1f38 <tcp_receive+0x86>
    1f30:	40f605b3          	sub	a1,a2,a5
    1f34:	0205c263          	bltz	a1,1f58 <tcp_receive+0xa6>
    1f38:	08f61363          	bne	a2,a5,1fbe <tcp_receive+0x10c>
    1f3c:	1fffe597          	auipc	a1,0x1fffe
    1f40:	1cc58593          	addi	a1,a1,460 # 20000108 <tcphdr>
    1f44:	4188                	lw	a0,0(a1)
    1f46:	00f54583          	lbu	a1,15(a0)
    1f4a:	00e54803          	lbu	a6,14(a0)
    1f4e:	05a2                	slli	a1,a1,0x8
    1f50:	0105e5b3          	or	a1,a1,a6
    1f54:	06b6f563          	bgeu	a3,a1,1fbe <tcp_receive+0x10c>
    1f58:	1fffe597          	auipc	a1,0x1fffe
    1f5c:	1b058593          	addi	a1,a1,432 # 20000108 <tcphdr>
    1f60:	4188                	lw	a0,0(a1)
    1f62:	00f54583          	lbu	a1,15(a0)
    1f66:	00e54803          	lbu	a6,14(a0)
    1f6a:	04e40b23          	sb	a4,86(s0)
    1f6e:	05a2                	slli	a1,a1,0x8
    1f70:	0105e5b3          	or	a1,a1,a6
    1f74:	0085d513          	srli	a0,a1,0x8
    1f78:	04a40aa3          	sb	a0,85(s0)
    1f7c:	00875513          	srli	a0,a4,0x8
    1f80:	04a40ba3          	sb	a0,87(s0)
    1f84:	01075513          	srli	a0,a4,0x10
    1f88:	8361                	srli	a4,a4,0x18
    1f8a:	04e40ca3          	sb	a4,89(s0)
    1f8e:	0087d713          	srli	a4,a5,0x8
    1f92:	04e40da3          	sb	a4,91(s0)
    1f96:	0107d713          	srli	a4,a5,0x10
    1f9a:	04e40e23          	sb	a4,92(s0)
    1f9e:	0187d713          	srli	a4,a5,0x18
    1fa2:	04b40a23          	sb	a1,84(s0)
    1fa6:	04a40c23          	sb	a0,88(s0)
    1faa:	04f40d23          	sb	a5,90(s0)
    1fae:	04e40ea3          	sb	a4,93(s0)
    1fb2:	c591                	beqz	a1,1fbe <tcp_receive+0x10c>
    1fb4:	09444703          	lbu	a4,148(s0)
    1fb8:	c319                	beqz	a4,1fbe <tcp_receive+0x10c>
    1fba:	08040a23          	sb	zero,148(s0)
    1fbe:	04844703          	lbu	a4,72(s0)
    1fc2:	04744583          	lbu	a1,71(s0)
    1fc6:	0722                	slli	a4,a4,0x8
    1fc8:	8f4d                	or	a4,a4,a1
    1fca:	04944583          	lbu	a1,73(s0)
    1fce:	05c2                	slli	a1,a1,0x10
    1fd0:	8f4d                	or	a4,a4,a1
    1fd2:	04a44583          	lbu	a1,74(s0)
    1fd6:	05e2                	slli	a1,a1,0x18
    1fd8:	8dd9                	or	a1,a1,a4
    1fda:	40b78733          	sub	a4,a5,a1
    1fde:	4ee04963          	bgtz	a4,24d0 <tcp_receive+0x61e>
    1fe2:	06040123          	sb	zero,98(s0)
    1fe6:	060401a3          	sb	zero,99(s0)
    1fea:	1fffe717          	auipc	a4,0x1fffe
    1fee:	12275703          	lhu	a4,290(a4) # 2000010c <tcplen>
    1ff2:	4c071c63          	bnez	a4,24ca <tcp_receive+0x618>
    1ff6:	05b44503          	lbu	a0,91(s0)
    1ffa:	05a44703          	lbu	a4,90(s0)
    1ffe:	05444803          	lbu	a6,84(s0)
    2002:	0522                	slli	a0,a0,0x8
    2004:	8d59                	or	a0,a0,a4
    2006:	05c44703          	lbu	a4,92(s0)
    200a:	96b2                	add	a3,a3,a2
    200c:	0742                	slli	a4,a4,0x10
    200e:	8d59                	or	a0,a0,a4
    2010:	05d44703          	lbu	a4,93(s0)
    2014:	0762                	slli	a4,a4,0x18
    2016:	8f49                	or	a4,a4,a0
    2018:	05544503          	lbu	a0,85(s0)
    201c:	0522                	slli	a0,a0,0x8
    201e:	01056533          	or	a0,a0,a6
    2022:	972a                	add	a4,a4,a0
    2024:	4ad71363          	bne	a4,a3,24ca <tcp_receive+0x618>
    2028:	03544703          	lbu	a4,53(s0)
    202c:	03444683          	lbu	a3,52(s0)
    2030:	0722                	slli	a4,a4,0x8
    2032:	8f55                	or	a4,a4,a3
    2034:	0742                	slli	a4,a4,0x10
    2036:	8741                	srai	a4,a4,0x10
    2038:	48074963          	bltz	a4,24ca <tcp_receive+0x618>
    203c:	48f59763          	bne	a1,a5,24ca <tcp_receive+0x618>
    2040:	04b44783          	lbu	a5,75(s0)
    2044:	470d                	li	a4,3
    2046:	0785                	addi	a5,a5,1
    2048:	0ff7f793          	andi	a5,a5,255
    204c:	04f405a3          	sb	a5,75(s0)
    2050:	46f77763          	bgeu	a4,a5,24be <tcp_receive+0x60c>
    2054:	04d44703          	lbu	a4,77(s0)
    2058:	04c44783          	lbu	a5,76(s0)
    205c:	03644683          	lbu	a3,54(s0)
    2060:	0722                	slli	a4,a4,0x8
    2062:	8f5d                	or	a4,a4,a5
    2064:	03744783          	lbu	a5,55(s0)
    2068:	07a2                	slli	a5,a5,0x8
    206a:	8fd5                	or	a5,a5,a3
    206c:	97ba                	add	a5,a5,a4
    206e:	07c2                	slli	a5,a5,0x10
    2070:	83c1                	srli	a5,a5,0x10
    2072:	00f77763          	bgeu	a4,a5,2080 <tcp_receive+0x1ce>
    2076:	04f40623          	sb	a5,76(s0)
    207a:	83a1                	srli	a5,a5,0x8
    207c:	04f406a3          	sb	a5,77(s0)
    2080:	06944703          	lbu	a4,105(s0)
    2084:	06844783          	lbu	a5,104(s0)
    2088:	0722                	slli	a4,a4,0x8
    208a:	8f5d                	or	a4,a4,a5
    208c:	06a44783          	lbu	a5,106(s0)
    2090:	07c2                	slli	a5,a5,0x10
    2092:	8f5d                	or	a4,a4,a5
    2094:	06b44783          	lbu	a5,107(s0)
    2098:	07e2                	slli	a5,a5,0x18
    209a:	8fd9                	or	a5,a5,a4
    209c:	6e079763          	bnez	a5,278a <tcp_receive+0x8d8>
    20a0:	03944783          	lbu	a5,57(s0)
    20a4:	03844603          	lbu	a2,56(s0)
    20a8:	07a2                	slli	a5,a5,0x8
    20aa:	8fd1                	or	a5,a5,a2
    20ac:	03a44603          	lbu	a2,58(s0)
    20b0:	0642                	slli	a2,a2,0x10
    20b2:	8fd1                	or	a5,a5,a2
    20b4:	03b44603          	lbu	a2,59(s0)
    20b8:	0662                	slli	a2,a2,0x18
    20ba:	8e5d                	or	a2,a2,a5
    20bc:	020611e3          	bnez	a2,28de <tcp_receive+0xa2c>
    20c0:	02344603          	lbu	a2,35(s0)
    20c4:	02244703          	lbu	a4,34(s0)
    20c8:	1fffe517          	auipc	a0,0x1fffe
    20cc:	04455503          	lhu	a0,68(a0) # 2000010c <tcplen>
    20d0:	0622                	slli	a2,a2,0x8
    20d2:	8e59                	or	a2,a2,a4
    20d4:	02444703          	lbu	a4,36(s0)
    20d8:	409c                	lw	a5,0(s1)
    20da:	0742                	slli	a4,a4,0x10
    20dc:	8e59                	or	a2,a2,a4
    20de:	02544703          	lbu	a4,37(s0)
    20e2:	0762                	slli	a4,a4,0x18
    20e4:	8f51                	or	a4,a4,a2
    20e6:	6c050be3          	beqz	a0,2fbc <tcp_receive+0x110a>
    20ea:	40f705b3          	sub	a1,a4,a5
    20ee:	fff58693          	addi	a3,a1,-1
    20f2:	1006c2e3          	bltz	a3,29f6 <tcp_receive+0xb44>
    20f6:	4685                	li	a3,1
    20f8:	8e9d                	sub	a3,a3,a5
    20fa:	8e89                	sub	a3,a3,a0
    20fc:	96ba                	add	a3,a3,a4
    20fe:	0ed04ce3          	bgtz	a3,29f6 <tcp_receive+0xb44>
    2102:	1fffe997          	auipc	s3,0x1fffe
    2106:	03a98993          	addi	s3,s3,58 # 2000013c <inseg>
    210a:	0049a903          	lw	s2,4(s3)
    210e:	01059693          	slli	a3,a1,0x10
    2112:	82c1                	srli	a3,a3,0x10
    2114:	00b94703          	lbu	a4,11(s2)
    2118:	00a94783          	lbu	a5,10(s2)
    211c:	0722                	slli	a4,a4,0x8
    211e:	8f5d                	or	a4,a4,a5
    2120:	0cb755e3          	bge	a4,a1,29ea <tcp_receive+0xb38>
    2124:	00994783          	lbu	a5,9(s2)
    2128:	00894703          	lbu	a4,8(s2)
    212c:	07a2                	slli	a5,a5,0x8
    212e:	8fd9                	or	a5,a5,a4
    2130:	8f95                	sub	a5,a5,a3
    2132:	07c2                	slli	a5,a5,0x10
    2134:	83c1                	srli	a5,a5,0x10
    2136:	0ff7f613          	andi	a2,a5,255
    213a:	83a1                	srli	a5,a5,0x8
    213c:	00b94703          	lbu	a4,11(s2)
    2140:	00a94683          	lbu	a3,10(s2)
    2144:	0722                	slli	a4,a4,0x8
    2146:	8f55                	or	a4,a4,a3
    2148:	06b747e3          	blt	a4,a1,29b6 <tcp_receive+0xb04>
    214c:	40b005b3          	neg	a1,a1
    2150:	05c2                	slli	a1,a1,0x10
    2152:	85c1                	srai	a1,a1,0x10
    2154:	854a                	mv	a0,s2
    2156:	6a3040ef          	jal	ra,6ff8 <pbuf_header>
    215a:	00594703          	lbu	a4,5(s2)
    215e:	00494783          	lbu	a5,4(s2)
    2162:	00c9d683          	lhu	a3,12(s3)
    2166:	0722                	slli	a4,a4,0x8
    2168:	8f5d                	or	a4,a4,a5
    216a:	00694783          	lbu	a5,6(s2)
    216e:	07c2                	slli	a5,a5,0x10
    2170:	8f5d                	or	a4,a4,a5
    2172:	00794783          	lbu	a5,7(s2)
    2176:	07e2                	slli	a5,a5,0x18
    2178:	8fd9                	or	a5,a5,a4
    217a:	1fffe717          	auipc	a4,0x1fffe
    217e:	fcf72523          	sw	a5,-54(a4) # 20000144 <inseg+0x8>
    2182:	02344703          	lbu	a4,35(s0)
    2186:	02244783          	lbu	a5,34(s0)
    218a:	0722                	slli	a4,a4,0x8
    218c:	8f5d                	or	a4,a4,a5
    218e:	02444783          	lbu	a5,36(s0)
    2192:	07c2                	slli	a5,a5,0x10
    2194:	8f5d                	or	a4,a4,a5
    2196:	02544783          	lbu	a5,37(s0)
    219a:	07e2                	slli	a5,a5,0x18
    219c:	8fd9                	or	a5,a5,a4
    219e:	4098                	lw	a4,0(s1)
    21a0:	9736                	add	a4,a4,a3
    21a2:	8f1d                	sub	a4,a4,a5
    21a4:	1fffe697          	auipc	a3,0x1fffe
    21a8:	fae69223          	sh	a4,-92(a3) # 20000148 <inseg+0xc>
    21ac:	1fffe717          	auipc	a4,0x1fffe
    21b0:	f4f72c23          	sw	a5,-168(a4) # 20000104 <seqno>
    21b4:	0109a703          	lw	a4,16(s3)
    21b8:	0087d693          	srli	a3,a5,0x8
    21bc:	00f70223          	sb	a5,4(a4)
    21c0:	00d702a3          	sb	a3,5(a4)
    21c4:	0107d693          	srli	a3,a5,0x10
    21c8:	83e1                	srli	a5,a5,0x18
    21ca:	00d70323          	sb	a3,6(a4)
    21ce:	00f703a3          	sb	a5,7(a4)
    21d2:	02344703          	lbu	a4,35(s0)
    21d6:	02244783          	lbu	a5,34(s0)
    21da:	4090                	lw	a2,0(s1)
    21dc:	0722                	slli	a4,a4,0x8
    21de:	8f5d                	or	a4,a4,a5
    21e0:	02444783          	lbu	a5,36(s0)
    21e4:	07c2                	slli	a5,a5,0x10
    21e6:	8f5d                	or	a4,a4,a5
    21e8:	02544783          	lbu	a5,37(s0)
    21ec:	07e2                	slli	a5,a5,0x18
    21ee:	8fd9                	or	a5,a5,a4
    21f0:	40f60733          	sub	a4,a2,a5
    21f4:	5c0740e3          	bltz	a4,2fb4 <tcp_receive+0x1102>
    21f8:	02744683          	lbu	a3,39(s0)
    21fc:	02644583          	lbu	a1,38(s0)
    2200:	00160713          	addi	a4,a2,1
    2204:	06a2                	slli	a3,a3,0x8
    2206:	8f1d                	sub	a4,a4,a5
    2208:	8ecd                	or	a3,a3,a1
    220a:	8f15                	sub	a4,a4,a3
    220c:	5ae044e3          	bgtz	a4,2fb4 <tcp_receive+0x1102>
    2210:	38f617e3          	bne	a2,a5,2d9e <tcp_receive+0xeec>
    2214:	1fffe917          	auipc	s2,0x1fffe
    2218:	f2890913          	addi	s2,s2,-216 # 2000013c <inseg>
    221c:	01092783          	lw	a5,16(s2)
    2220:	1fffe997          	auipc	s3,0x1fffe
    2224:	f289d983          	lhu	s3,-216(s3) # 20000148 <inseg+0xc>
    2228:	00c7c503          	lbu	a0,12(a5)
    222c:	00d7c783          	lbu	a5,13(a5)
    2230:	07a2                	slli	a5,a5,0x8
    2232:	8d5d                	or	a0,a0,a5
    2234:	20021097          	auipc	ra,0x20021
    2238:	5b0080e7          	jalr	1456(ra) # 200237e4 <ntohs>
    223c:	890d                	andi	a0,a0,3
    223e:	00a03533          	snez	a0,a0
    2242:	954e                	add	a0,a0,s3
    2244:	0542                	slli	a0,a0,0x10
    2246:	8141                	srli	a0,a0,0x10
    2248:	1fffe797          	auipc	a5,0x1fffe
    224c:	eca79223          	sh	a0,-316(a5) # 2000010c <tcplen>
    2250:	02744783          	lbu	a5,39(s0)
    2254:	02644703          	lbu	a4,38(s0)
    2258:	07a2                	slli	a5,a5,0x8
    225a:	8fd9                	or	a5,a5,a4
    225c:	0ea7fe63          	bgeu	a5,a0,2358 <tcp_receive+0x4a6>
    2260:	01092783          	lw	a5,16(s2)
    2264:	00c7c503          	lbu	a0,12(a5)
    2268:	00d7c783          	lbu	a5,13(a5)
    226c:	07a2                	slli	a5,a5,0x8
    226e:	8d5d                	or	a0,a0,a5
    2270:	20021097          	auipc	ra,0x20021
    2274:	574080e7          	jalr	1396(ra) # 200237e4 <ntohs>
    2278:	8905                	andi	a0,a0,1
    227a:	c125                	beqz	a0,22da <tcp_receive+0x428>
    227c:	01092783          	lw	a5,16(s2)
    2280:	00d7c983          	lbu	s3,13(a5)
    2284:	00c7c503          	lbu	a0,12(a5)
    2288:	09a2                	slli	s3,s3,0x8
    228a:	00a9e9b3          	or	s3,s3,a0
    228e:	6541                	lui	a0,0x10
    2290:	fc050513          	addi	a0,a0,-64 # ffc0 <_ramcode_lma+0x7fc0>
    2294:	20021097          	auipc	ra,0x20021
    2298:	542080e7          	jalr	1346(ra) # 200237d6 <htons>
    229c:	01092783          	lw	a5,16(s2)
    22a0:	00a9f9b3          	and	s3,s3,a0
    22a4:	00c7c503          	lbu	a0,12(a5)
    22a8:	00d7c783          	lbu	a5,13(a5)
    22ac:	07a2                	slli	a5,a5,0x8
    22ae:	8d5d                	or	a0,a0,a5
    22b0:	20021097          	auipc	ra,0x20021
    22b4:	534080e7          	jalr	1332(ra) # 200237e4 <ntohs>
    22b8:	03e57513          	andi	a0,a0,62
    22bc:	20021097          	auipc	ra,0x20021
    22c0:	51a080e7          	jalr	1306(ra) # 200237d6 <htons>
    22c4:	01092783          	lw	a5,16(s2)
    22c8:	00a9e533          	or	a0,s3,a0
    22cc:	0542                	slli	a0,a0,0x10
    22ce:	8141                	srli	a0,a0,0x10
    22d0:	00a78623          	sb	a0,12(a5)
    22d4:	8121                	srli	a0,a0,0x8
    22d6:	00a786a3          	sb	a0,13(a5)
    22da:	02744783          	lbu	a5,39(s0)
    22de:	02644703          	lbu	a4,38(s0)
    22e2:	07a2                	slli	a5,a5,0x8
    22e4:	8fd9                	or	a5,a5,a4
    22e6:	1fffe717          	auipc	a4,0x1fffe
    22ea:	e6f71123          	sh	a5,-414(a4) # 20000148 <inseg+0xc>
    22ee:	01092783          	lw	a5,16(s2)
    22f2:	00c7c503          	lbu	a0,12(a5)
    22f6:	00d7c783          	lbu	a5,13(a5)
    22fa:	07a2                	slli	a5,a5,0x8
    22fc:	8d5d                	or	a0,a0,a5
    22fe:	20021097          	auipc	ra,0x20021
    2302:	4e6080e7          	jalr	1254(ra) # 200237e4 <ntohs>
    2306:	8909                	andi	a0,a0,2
    2308:	c901                	beqz	a0,2318 <tcp_receive+0x466>
    230a:	00c95783          	lhu	a5,12(s2)
    230e:	17fd                	addi	a5,a5,-1
    2310:	1fffe717          	auipc	a4,0x1fffe
    2314:	e2f71c23          	sh	a5,-456(a4) # 20000148 <inseg+0xc>
    2318:	00492503          	lw	a0,4(s2)
    231c:	1fffe597          	auipc	a1,0x1fffe
    2320:	e2c5d583          	lhu	a1,-468(a1) # 20000148 <inseg+0xc>
    2324:	0b0050ef          	jal	ra,73d4 <pbuf_realloc>
    2328:	01092783          	lw	a5,16(s2)
    232c:	1fffe997          	auipc	s3,0x1fffe
    2330:	e1c9d983          	lhu	s3,-484(s3) # 20000148 <inseg+0xc>
    2334:	00c7c503          	lbu	a0,12(a5)
    2338:	00d7c783          	lbu	a5,13(a5)
    233c:	07a2                	slli	a5,a5,0x8
    233e:	8d5d                	or	a0,a0,a5
    2340:	20021097          	auipc	ra,0x20021
    2344:	4a4080e7          	jalr	1188(ra) # 200237e4 <ntohs>
    2348:	890d                	andi	a0,a0,3
    234a:	00a03533          	snez	a0,a0
    234e:	99aa                	add	s3,s3,a0
    2350:	1fffe797          	auipc	a5,0x1fffe
    2354:	db379e23          	sh	s3,-580(a5) # 2000010c <tcplen>
    2358:	07144703          	lbu	a4,113(s0)
    235c:	07044783          	lbu	a5,112(s0)
    2360:	0722                	slli	a4,a4,0x8
    2362:	8f5d                	or	a4,a4,a5
    2364:	07244783          	lbu	a5,114(s0)
    2368:	07c2                	slli	a5,a5,0x10
    236a:	8f5d                	or	a4,a4,a5
    236c:	07344783          	lbu	a5,115(s0)
    2370:	07e2                	slli	a5,a5,0x18
    2372:	8fd9                	or	a5,a5,a4
    2374:	6e078063          	beqz	a5,2a54 <tcp_receive+0xba2>
    2378:	01092783          	lw	a5,16(s2)
    237c:	00c7c503          	lbu	a0,12(a5)
    2380:	00d7c783          	lbu	a5,13(a5)
    2384:	07a2                	slli	a5,a5,0x8
    2386:	8d5d                	or	a0,a0,a5
    2388:	20021097          	auipc	ra,0x20021
    238c:	45c080e7          	jalr	1116(ra) # 200237e4 <ntohs>
    2390:	8905                	andi	a0,a0,1
    2392:	6a051263          	bnez	a0,2a36 <tcp_receive+0xb84>
    2396:	07144783          	lbu	a5,113(s0)
    239a:	07044983          	lbu	s3,112(s0)
    239e:	6ac1                	lui	s5,0x10
    23a0:	07a2                	slli	a5,a5,0x8
    23a2:	0137e7b3          	or	a5,a5,s3
    23a6:	07244983          	lbu	s3,114(s0)
    23aa:	fc0a8a93          	addi	s5,s5,-64 # ffc0 <_ramcode_lma+0x7fc0>
    23ae:	09c2                	slli	s3,s3,0x10
    23b0:	00f9e7b3          	or	a5,s3,a5
    23b4:	07344983          	lbu	s3,115(s0)
    23b8:	09e2                	slli	s3,s3,0x18
    23ba:	00f9e9b3          	or	s3,s3,a5
    23be:	4088                	lw	a0,0(s1)
    23c0:	1fffe717          	auipc	a4,0x1fffe
    23c4:	d4c75703          	lhu	a4,-692(a4) # 2000010c <tcplen>
    23c8:	972a                	add	a4,a4,a0
    23ca:	0c098b63          	beqz	s3,24a0 <tcp_receive+0x5ee>
    23ce:	0109a603          	lw	a2,16(s3)
    23d2:	00c9d583          	lhu	a1,12(s3)
    23d6:	00564783          	lbu	a5,5(a2)
    23da:	00464683          	lbu	a3,4(a2)
    23de:	07a2                	slli	a5,a5,0x8
    23e0:	8fd5                	or	a5,a5,a3
    23e2:	00664683          	lbu	a3,6(a2)
    23e6:	06c2                	slli	a3,a3,0x10
    23e8:	8fd5                	or	a5,a5,a3
    23ea:	00764683          	lbu	a3,7(a2)
    23ee:	06e2                	slli	a3,a3,0x18
    23f0:	8edd                	or	a3,a3,a5
    23f2:	95b6                	add	a1,a1,a3
    23f4:	40b705b3          	sub	a1,a4,a1
    23f8:	7005d663          	bgez	a1,2b04 <tcp_receive+0xc52>
    23fc:	8f15                	sub	a4,a4,a3
    23fe:	0ae05163          	blez	a4,24a0 <tcp_receive+0x5ee>
    2402:	07144683          	lbu	a3,113(s0)
    2406:	07044703          	lbu	a4,112(s0)
    240a:	06a2                	slli	a3,a3,0x8
    240c:	8ed9                	or	a3,a3,a4
    240e:	07244703          	lbu	a4,114(s0)
    2412:	0742                	slli	a4,a4,0x10
    2414:	8ed9                	or	a3,a3,a4
    2416:	07344703          	lbu	a4,115(s0)
    241a:	0762                	slli	a4,a4,0x18
    241c:	8f55                	or	a4,a4,a3
    241e:	4b18                	lw	a4,16(a4)
    2420:	00574783          	lbu	a5,5(a4)
    2424:	00474683          	lbu	a3,4(a4)
    2428:	07a2                	slli	a5,a5,0x8
    242a:	8fd5                	or	a5,a5,a3
    242c:	8f89                	sub	a5,a5,a0
    242e:	1fffe717          	auipc	a4,0x1fffe
    2432:	d0f71d23          	sh	a5,-742(a4) # 20000148 <inseg+0xc>
    2436:	01092783          	lw	a5,16(s2)
    243a:	00c7c503          	lbu	a0,12(a5)
    243e:	00d7c783          	lbu	a5,13(a5)
    2442:	07a2                	slli	a5,a5,0x8
    2444:	8d5d                	or	a0,a0,a5
    2446:	20021097          	auipc	ra,0x20021
    244a:	39e080e7          	jalr	926(ra) # 200237e4 <ntohs>
    244e:	8909                	andi	a0,a0,2
    2450:	c901                	beqz	a0,2460 <tcp_receive+0x5ae>
    2452:	00c95783          	lhu	a5,12(s2)
    2456:	17fd                	addi	a5,a5,-1
    2458:	1fffe717          	auipc	a4,0x1fffe
    245c:	cef71823          	sh	a5,-784(a4) # 20000148 <inseg+0xc>
    2460:	00492503          	lw	a0,4(s2)
    2464:	1fffe597          	auipc	a1,0x1fffe
    2468:	ce45d583          	lhu	a1,-796(a1) # 20000148 <inseg+0xc>
    246c:	769040ef          	jal	ra,73d4 <pbuf_realloc>
    2470:	01092783          	lw	a5,16(s2)
    2474:	1fffea17          	auipc	s4,0x1fffe
    2478:	cd4a5a03          	lhu	s4,-812(s4) # 20000148 <inseg+0xc>
    247c:	00c7c503          	lbu	a0,12(a5)
    2480:	00d7c783          	lbu	a5,13(a5)
    2484:	07a2                	slli	a5,a5,0x8
    2486:	8d5d                	or	a0,a0,a5
    2488:	20021097          	auipc	ra,0x20021
    248c:	35c080e7          	jalr	860(ra) # 200237e4 <ntohs>
    2490:	890d                	andi	a0,a0,3
    2492:	00a03533          	snez	a0,a0
    2496:	9a2a                	add	s4,s4,a0
    2498:	1fffe797          	auipc	a5,0x1fffe
    249c:	c7479a23          	sh	s4,-908(a5) # 2000010c <tcplen>
    24a0:	0089d793          	srli	a5,s3,0x8
    24a4:	07340823          	sb	s3,112(s0)
    24a8:	06f408a3          	sb	a5,113(s0)
    24ac:	0109d793          	srli	a5,s3,0x10
    24b0:	0189d993          	srli	s3,s3,0x18
    24b4:	06f40923          	sb	a5,114(s0)
    24b8:	073409a3          	sb	s3,115(s0)
    24bc:	ab61                	j	2a54 <tcp_receive+0xba2>
    24be:	bce791e3          	bne	a5,a4,2080 <tcp_receive+0x1ce>
    24c2:	8522                	mv	a0,s0
    24c4:	298030ef          	jal	ra,575c <tcp_rexmit_fast>
    24c8:	be65                	j	2080 <tcp_receive+0x1ce>
    24ca:	040405a3          	sb	zero,75(s0)
    24ce:	be4d                	j	2080 <tcp_receive+0x1ce>
    24d0:	05144603          	lbu	a2,81(s0)
    24d4:	05044683          	lbu	a3,80(s0)
    24d8:	0622                	slli	a2,a2,0x8
    24da:	8e55                	or	a2,a2,a3
    24dc:	05244683          	lbu	a3,82(s0)
    24e0:	06c2                	slli	a3,a3,0x10
    24e2:	8e55                	or	a2,a2,a3
    24e4:	05344683          	lbu	a3,83(s0)
    24e8:	06e2                	slli	a3,a3,0x18
    24ea:	8ed1                	or	a3,a3,a2
    24ec:	40d786b3          	sub	a3,a5,a3
    24f0:	28d04863          	bgtz	a3,2780 <tcp_receive+0x8ce>
    24f4:	02144683          	lbu	a3,33(s0)
    24f8:	0046f613          	andi	a2,a3,4
    24fc:	ce19                	beqz	a2,251a <tcp_receive+0x668>
    24fe:	9aed                	andi	a3,a3,-5
    2500:	02d400a3          	sb	a3,33(s0)
    2504:	04f44683          	lbu	a3,79(s0)
    2508:	04e44603          	lbu	a2,78(s0)
    250c:	06a2                	slli	a3,a3,0x8
    250e:	8ed1                	or	a3,a3,a2
    2510:	04d40623          	sb	a3,76(s0)
    2514:	82a1                	srli	a3,a3,0x8
    2516:	04d406a3          	sb	a3,77(s0)
    251a:	04144683          	lbu	a3,65(s0)
    251e:	04044603          	lbu	a2,64(s0)
    2522:	04244583          	lbu	a1,66(s0)
    2526:	06a2                	slli	a3,a3,0x8
    2528:	8ed1                	or	a3,a3,a2
    252a:	06c2                	slli	a3,a3,0x10
    252c:	86c1                	srai	a3,a3,0x10
    252e:	4036d613          	srai	a2,a3,0x3
    2532:	04344683          	lbu	a3,67(s0)
    2536:	0742                	slli	a4,a4,0x10
    2538:	8341                	srli	a4,a4,0x10
    253a:	06a2                	slli	a3,a3,0x8
    253c:	8ecd                	or	a3,a3,a1
    253e:	96b2                	add	a3,a3,a2
    2540:	06c2                	slli	a3,a3,0x10
    2542:	82c1                	srli	a3,a3,0x10
    2544:	04d40223          	sb	a3,68(s0)
    2548:	82a1                	srli	a3,a3,0x8
    254a:	04d402a3          	sb	a3,69(s0)
    254e:	00875693          	srli	a3,a4,0x8
    2552:	06d401a3          	sb	a3,99(s0)
    2556:	06544683          	lbu	a3,101(s0)
    255a:	06444603          	lbu	a2,100(s0)
    255e:	06e40123          	sb	a4,98(s0)
    2562:	06a2                	slli	a3,a3,0x8
    2564:	8ed1                	or	a3,a3,a2
    2566:	9736                	add	a4,a4,a3
    2568:	0742                	slli	a4,a4,0x10
    256a:	8341                	srli	a4,a4,0x10
    256c:	06e40223          	sb	a4,100(s0)
    2570:	8321                	srli	a4,a4,0x8
    2572:	06e402a3          	sb	a4,101(s0)
    2576:	0087d713          	srli	a4,a5,0x8
    257a:	04e40423          	sb	a4,72(s0)
    257e:	0107d713          	srli	a4,a5,0x10
    2582:	04f403a3          	sb	a5,71(s0)
    2586:	04e404a3          	sb	a4,73(s0)
    258a:	83e1                	srli	a5,a5,0x18
    258c:	01144703          	lbu	a4,17(s0)
    2590:	04f40523          	sb	a5,74(s0)
    2594:	01044783          	lbu	a5,16(s0)
    2598:	0722                	slli	a4,a4,0x8
    259a:	04040323          	sb	zero,70(s0)
    259e:	8f5d                	or	a4,a4,a5
    25a0:	01244783          	lbu	a5,18(s0)
    25a4:	040405a3          	sb	zero,75(s0)
    25a8:	07c2                	slli	a5,a5,0x10
    25aa:	8f5d                	or	a4,a4,a5
    25ac:	01344783          	lbu	a5,19(s0)
    25b0:	07e2                	slli	a5,a5,0x18
    25b2:	8fd9                	or	a5,a5,a4
    25b4:	470d                	li	a4,3
    25b6:	04f77063          	bgeu	a4,a5,25f6 <tcp_receive+0x744>
    25ba:	04d44703          	lbu	a4,77(s0)
    25be:	04c44783          	lbu	a5,76(s0)
    25c2:	03644683          	lbu	a3,54(s0)
    25c6:	0722                	slli	a4,a4,0x8
    25c8:	8f5d                	or	a4,a4,a5
    25ca:	03744783          	lbu	a5,55(s0)
    25ce:	04e44603          	lbu	a2,78(s0)
    25d2:	07a2                	slli	a5,a5,0x8
    25d4:	8fd5                	or	a5,a5,a3
    25d6:	04f44683          	lbu	a3,79(s0)
    25da:	06a2                	slli	a3,a3,0x8
    25dc:	8ed1                	or	a3,a3,a2
    25de:	06d77763          	bgeu	a4,a3,264c <tcp_receive+0x79a>
    25e2:	97ba                	add	a5,a5,a4
    25e4:	07c2                	slli	a5,a5,0x10
    25e6:	83c1                	srli	a5,a5,0x10
    25e8:	00f77763          	bgeu	a4,a5,25f6 <tcp_receive+0x744>
    25ec:	04f40623          	sb	a5,76(s0)
    25f0:	83a1                	srli	a5,a5,0x8
    25f2:	04f406a3          	sb	a5,77(s0)
    25f6:	06d44703          	lbu	a4,109(s0)
    25fa:	06c44783          	lbu	a5,108(s0)
    25fe:	0722                	slli	a4,a4,0x8
    2600:	8f5d                	or	a4,a4,a5
    2602:	06e44783          	lbu	a5,110(s0)
    2606:	07c2                	slli	a5,a5,0x10
    2608:	8f5d                	or	a4,a4,a5
    260a:	06f44783          	lbu	a5,111(s0)
    260e:	07e2                	slli	a5,a5,0x18
    2610:	8fd9                	or	a5,a5,a4
    2612:	e3b1                	bnez	a5,2656 <tcp_receive+0x7a4>
    2614:	06d44703          	lbu	a4,109(s0)
    2618:	06c44783          	lbu	a5,108(s0)
    261c:	02040923          	sb	zero,50(s0)
    2620:	0722                	slli	a4,a4,0x8
    2622:	8f5d                	or	a4,a4,a5
    2624:	06e44783          	lbu	a5,110(s0)
    2628:	07c2                	slli	a5,a5,0x10
    262a:	8f5d                	or	a4,a4,a5
    262c:	06f44783          	lbu	a5,111(s0)
    2630:	07e2                	slli	a5,a5,0x18
    2632:	8fd9                	or	a5,a5,a4
    2634:	0017b793          	seqz	a5,a5
    2638:	40f007b3          	neg	a5,a5
    263c:	07c2                	slli	a5,a5,0x10
    263e:	83c1                	srli	a5,a5,0x10
    2640:	02f40a23          	sb	a5,52(s0)
    2644:	83a1                	srli	a5,a5,0x8
    2646:	02f40aa3          	sb	a5,53(s0)
    264a:	bc1d                	j	2080 <tcp_receive+0x1ce>
    264c:	02f787b3          	mul	a5,a5,a5
    2650:	02e7c7b3          	div	a5,a5,a4
    2654:	b779                	j	25e2 <tcp_receive+0x730>
    2656:	4b98                	lw	a4,16(a5)
    2658:	00574503          	lbu	a0,5(a4)
    265c:	00474783          	lbu	a5,4(a4)
    2660:	0522                	slli	a0,a0,0x8
    2662:	8d5d                	or	a0,a0,a5
    2664:	00674783          	lbu	a5,6(a4)
    2668:	07c2                	slli	a5,a5,0x10
    266a:	8fc9                	or	a5,a5,a0
    266c:	00774503          	lbu	a0,7(a4)
    2670:	0562                	slli	a0,a0,0x18
    2672:	8d5d                	or	a0,a0,a5
    2674:	20021097          	auipc	ra,0x20021
    2678:	1a2080e7          	jalr	418(ra) # 20023816 <ntohl>
    267c:	06d44703          	lbu	a4,109(s0)
    2680:	06c44783          	lbu	a5,108(s0)
    2684:	89aa                	mv	s3,a0
    2686:	0722                	slli	a4,a4,0x8
    2688:	8f5d                	or	a4,a4,a5
    268a:	06e44783          	lbu	a5,110(s0)
    268e:	07c2                	slli	a5,a5,0x10
    2690:	8f5d                	or	a4,a4,a5
    2692:	06f44783          	lbu	a5,111(s0)
    2696:	07e2                	slli	a5,a5,0x18
    2698:	8fd9                	or	a5,a5,a4
    269a:	00c7da03          	lhu	s4,12(a5)
    269e:	4b9c                	lw	a5,16(a5)
    26a0:	00c7c503          	lbu	a0,12(a5)
    26a4:	00d7c783          	lbu	a5,13(a5)
    26a8:	07a2                	slli	a5,a5,0x8
    26aa:	8d5d                	or	a0,a0,a5
    26ac:	20021097          	auipc	ra,0x20021
    26b0:	138080e7          	jalr	312(ra) # 200237e4 <ntohs>
    26b4:	00092783          	lw	a5,0(s2)
    26b8:	890d                	andi	a0,a0,3
    26ba:	00a03533          	snez	a0,a0
    26be:	9552                	add	a0,a0,s4
    26c0:	40f989b3          	sub	s3,s3,a5
    26c4:	954e                	add	a0,a0,s3
    26c6:	f4a047e3          	bgtz	a0,2614 <tcp_receive+0x762>
    26ca:	06d44783          	lbu	a5,109(s0)
    26ce:	06c44983          	lbu	s3,108(s0)
    26d2:	06244703          	lbu	a4,98(s0)
    26d6:	07a2                	slli	a5,a5,0x8
    26d8:	0137e7b3          	or	a5,a5,s3
    26dc:	06e44983          	lbu	s3,110(s0)
    26e0:	09c2                	slli	s3,s3,0x10
    26e2:	00f9e7b3          	or	a5,s3,a5
    26e6:	06f44983          	lbu	s3,111(s0)
    26ea:	09e2                	slli	s3,s3,0x18
    26ec:	00f9e9b3          	or	s3,s3,a5
    26f0:	0009c783          	lbu	a5,0(s3)
    26f4:	06f40623          	sb	a5,108(s0)
    26f8:	0019c783          	lbu	a5,1(s3)
    26fc:	06f406a3          	sb	a5,109(s0)
    2700:	0029c783          	lbu	a5,2(s3)
    2704:	06f40723          	sb	a5,110(s0)
    2708:	0039c783          	lbu	a5,3(s3)
    270c:	06f407a3          	sb	a5,111(s0)
    2710:	06344783          	lbu	a5,99(s0)
    2714:	07a2                	slli	a5,a5,0x8
    2716:	8fd9                	or	a5,a5,a4
    2718:	cf8d                	beqz	a5,2752 <tcp_receive+0x8a0>
    271a:	0109a783          	lw	a5,16(s3)
    271e:	00c7c503          	lbu	a0,12(a5)
    2722:	00d7c783          	lbu	a5,13(a5)
    2726:	07a2                	slli	a5,a5,0x8
    2728:	8d5d                	or	a0,a0,a5
    272a:	20021097          	auipc	ra,0x20021
    272e:	0ba080e7          	jalr	186(ra) # 200237e4 <ntohs>
    2732:	8905                	andi	a0,a0,1
    2734:	cd19                	beqz	a0,2752 <tcp_receive+0x8a0>
    2736:	06344783          	lbu	a5,99(s0)
    273a:	06244703          	lbu	a4,98(s0)
    273e:	07a2                	slli	a5,a5,0x8
    2740:	8fd9                	or	a5,a5,a4
    2742:	17fd                	addi	a5,a5,-1
    2744:	07c2                	slli	a5,a5,0x10
    2746:	83c1                	srli	a5,a5,0x10
    2748:	06f40123          	sb	a5,98(s0)
    274c:	83a1                	srli	a5,a5,0x8
    274e:	06f401a3          	sb	a5,99(s0)
    2752:	0049a503          	lw	a0,4(s3)
    2756:	575040ef          	jal	ra,74ca <pbuf_clen>
    275a:	06744783          	lbu	a5,103(s0)
    275e:	06644703          	lbu	a4,102(s0)
    2762:	07a2                	slli	a5,a5,0x8
    2764:	8fd9                	or	a5,a5,a4
    2766:	40a78533          	sub	a0,a5,a0
    276a:	0542                	slli	a0,a0,0x10
    276c:	8141                	srli	a0,a0,0x10
    276e:	06a40323          	sb	a0,102(s0)
    2772:	8121                	srli	a0,a0,0x8
    2774:	06a403a3          	sb	a0,103(s0)
    2778:	854e                	mv	a0,s3
    277a:	c36fe0ef          	jal	ra,bb0 <tcp_seg_free>
    277e:	bda5                	j	25f6 <tcp_receive+0x744>
    2780:	06040123          	sb	zero,98(s0)
    2784:	060401a3          	sb	zero,99(s0)
    2788:	b8e5                	j	2080 <tcp_receive+0x1ce>
    278a:	4b94                	lw	a3,16(a5)
    278c:	00092983          	lw	s3,0(s2)
    2790:	0056c503          	lbu	a0,5(a3)
    2794:	0046c703          	lbu	a4,4(a3)
    2798:	0522                	slli	a0,a0,0x8
    279a:	8d59                	or	a0,a0,a4
    279c:	0066c703          	lbu	a4,6(a3)
    27a0:	0742                	slli	a4,a4,0x10
    27a2:	8f49                	or	a4,a4,a0
    27a4:	0076c503          	lbu	a0,7(a3)
    27a8:	0562                	slli	a0,a0,0x18
    27aa:	8d59                	or	a0,a0,a4
    27ac:	20021097          	auipc	ra,0x20021
    27b0:	06a080e7          	jalr	106(ra) # 20023816 <ntohl>
    27b4:	06944703          	lbu	a4,105(s0)
    27b8:	06844783          	lbu	a5,104(s0)
    27bc:	8aaa                	mv	s5,a0
    27be:	0722                	slli	a4,a4,0x8
    27c0:	8fd9                	or	a5,a5,a4
    27c2:	06a44703          	lbu	a4,106(s0)
    27c6:	0742                	slli	a4,a4,0x10
    27c8:	8f5d                	or	a4,a4,a5
    27ca:	06b44783          	lbu	a5,107(s0)
    27ce:	07e2                	slli	a5,a5,0x18
    27d0:	8fd9                	or	a5,a5,a4
    27d2:	4b98                	lw	a4,16(a5)
    27d4:	00c7da03          	lhu	s4,12(a5)
    27d8:	00c74503          	lbu	a0,12(a4)
    27dc:	00d74703          	lbu	a4,13(a4)
    27e0:	0722                	slli	a4,a4,0x8
    27e2:	8d59                	or	a0,a0,a4
    27e4:	20021097          	auipc	ra,0x20021
    27e8:	000080e7          	jalr	ra # 200237e4 <ntohs>
    27ec:	890d                	andi	a0,a0,3
    27ee:	00a03533          	snez	a0,a0
    27f2:	415987b3          	sub	a5,s3,s5
    27f6:	9552                	add	a0,a0,s4
    27f8:	8f89                	sub	a5,a5,a0
    27fa:	8a07c3e3          	bltz	a5,20a0 <tcp_receive+0x1ee>
    27fe:	05144703          	lbu	a4,81(s0)
    2802:	05044783          	lbu	a5,80(s0)
    2806:	0722                	slli	a4,a4,0x8
    2808:	8f5d                	or	a4,a4,a5
    280a:	05244783          	lbu	a5,82(s0)
    280e:	07c2                	slli	a5,a5,0x10
    2810:	8f5d                	or	a4,a4,a5
    2812:	05344783          	lbu	a5,83(s0)
    2816:	07e2                	slli	a5,a5,0x18
    2818:	8fd9                	or	a5,a5,a4
    281a:	00092703          	lw	a4,0(s2)
    281e:	40f707b3          	sub	a5,a4,a5
    2822:	86f04fe3          	bgtz	a5,20a0 <tcp_receive+0x1ee>
    2826:	06944783          	lbu	a5,105(s0)
    282a:	06844983          	lbu	s3,104(s0)
    282e:	06244703          	lbu	a4,98(s0)
    2832:	07a2                	slli	a5,a5,0x8
    2834:	0137e7b3          	or	a5,a5,s3
    2838:	06a44983          	lbu	s3,106(s0)
    283c:	09c2                	slli	s3,s3,0x10
    283e:	00f9e7b3          	or	a5,s3,a5
    2842:	06b44983          	lbu	s3,107(s0)
    2846:	09e2                	slli	s3,s3,0x18
    2848:	00f9e9b3          	or	s3,s3,a5
    284c:	0009c783          	lbu	a5,0(s3)
    2850:	06f40423          	sb	a5,104(s0)
    2854:	0019c783          	lbu	a5,1(s3)
    2858:	06f404a3          	sb	a5,105(s0)
    285c:	0029c783          	lbu	a5,2(s3)
    2860:	06f40523          	sb	a5,106(s0)
    2864:	0039c783          	lbu	a5,3(s3)
    2868:	06f405a3          	sb	a5,107(s0)
    286c:	06344783          	lbu	a5,99(s0)
    2870:	07a2                	slli	a5,a5,0x8
    2872:	8fd9                	or	a5,a5,a4
    2874:	cf8d                	beqz	a5,28ae <tcp_receive+0x9fc>
    2876:	0109a783          	lw	a5,16(s3)
    287a:	00c7c503          	lbu	a0,12(a5)
    287e:	00d7c783          	lbu	a5,13(a5)
    2882:	07a2                	slli	a5,a5,0x8
    2884:	8d5d                	or	a0,a0,a5
    2886:	20021097          	auipc	ra,0x20021
    288a:	f5e080e7          	jalr	-162(ra) # 200237e4 <ntohs>
    288e:	8905                	andi	a0,a0,1
    2890:	cd19                	beqz	a0,28ae <tcp_receive+0x9fc>
    2892:	06344783          	lbu	a5,99(s0)
    2896:	06244703          	lbu	a4,98(s0)
    289a:	07a2                	slli	a5,a5,0x8
    289c:	8fd9                	or	a5,a5,a4
    289e:	17fd                	addi	a5,a5,-1
    28a0:	07c2                	slli	a5,a5,0x10
    28a2:	83c1                	srli	a5,a5,0x10
    28a4:	06f40123          	sb	a5,98(s0)
    28a8:	83a1                	srli	a5,a5,0x8
    28aa:	06f401a3          	sb	a5,99(s0)
    28ae:	0049a503          	lw	a0,4(s3)
    28b2:	419040ef          	jal	ra,74ca <pbuf_clen>
    28b6:	06744783          	lbu	a5,103(s0)
    28ba:	06644703          	lbu	a4,102(s0)
    28be:	07a2                	slli	a5,a5,0x8
    28c0:	8fd9                	or	a5,a5,a4
    28c2:	40a78533          	sub	a0,a5,a0
    28c6:	0542                	slli	a0,a0,0x10
    28c8:	8141                	srli	a0,a0,0x10
    28ca:	06a40323          	sb	a0,102(s0)
    28ce:	8121                	srli	a0,a0,0x8
    28d0:	06a403a3          	sb	a0,103(s0)
    28d4:	854e                	mv	a0,s3
    28d6:	adafe0ef          	jal	ra,bb0 <tcp_seg_free>
    28da:	fa6ff06f          	j	2080 <tcp_receive+0x1ce>
    28de:	03d44703          	lbu	a4,61(s0)
    28e2:	03c44783          	lbu	a5,60(s0)
    28e6:	0722                	slli	a4,a4,0x8
    28e8:	8f5d                	or	a4,a4,a5
    28ea:	03e44783          	lbu	a5,62(s0)
    28ee:	07c2                	slli	a5,a5,0x10
    28f0:	8f5d                	or	a4,a4,a5
    28f2:	03f44783          	lbu	a5,63(s0)
    28f6:	07e2                	slli	a5,a5,0x18
    28f8:	8fd9                	or	a5,a5,a4
    28fa:	00092703          	lw	a4,0(s2)
    28fe:	8f99                	sub	a5,a5,a4
    2900:	fc07d063          	bgez	a5,20c0 <tcp_receive+0x20e>
    2904:	04144683          	lbu	a3,65(s0)
    2908:	04044583          	lbu	a1,64(s0)
    290c:	0642                	slli	a2,a2,0x10
    290e:	06a2                	slli	a3,a3,0x8
    2910:	8ecd                	or	a3,a3,a1
    2912:	01069593          	slli	a1,a3,0x10
    2916:	85c1                	srai	a1,a1,0x10
    2918:	4035d513          	srai	a0,a1,0x3
    291c:	1ffff797          	auipc	a5,0x1ffff
    2920:	6b07d783          	lhu	a5,1712(a5) # 20001fcc <tcp_ticks>
    2924:	8241                	srli	a2,a2,0x10
    2926:	0542                	slli	a0,a0,0x10
    2928:	8141                	srli	a0,a0,0x10
    292a:	40c786b3          	sub	a3,a5,a2
    292e:	8e89                	sub	a3,a3,a0
    2930:	06c2                	slli	a3,a3,0x10
    2932:	82c1                	srli	a3,a3,0x10
    2934:	01069813          	slli	a6,a3,0x10
    2938:	96ae                	add	a3,a3,a1
    293a:	06c2                	slli	a3,a3,0x10
    293c:	86c1                	srai	a3,a3,0x10
    293e:	01069593          	slli	a1,a3,0x10
    2942:	81c1                	srli	a1,a1,0x10
    2944:	04b40023          	sb	a1,64(s0)
    2948:	81a1                	srli	a1,a1,0x8
    294a:	41085813          	srai	a6,a6,0x10
    294e:	04b400a3          	sb	a1,65(s0)
    2952:	00085863          	bgez	a6,2962 <tcp_receive+0xab0>
    2956:	8e1d                	sub	a2,a2,a5
    2958:	962a                	add	a2,a2,a0
    295a:	01061813          	slli	a6,a2,0x10
    295e:	41085813          	srai	a6,a6,0x10
    2962:	04344703          	lbu	a4,67(s0)
    2966:	04244783          	lbu	a5,66(s0)
    296a:	868d                	srai	a3,a3,0x3
    296c:	0722                	slli	a4,a4,0x8
    296e:	8f5d                	or	a4,a4,a5
    2970:	0742                	slli	a4,a4,0x10
    2972:	8741                	srai	a4,a4,0x10
    2974:	40275793          	srai	a5,a4,0x2
    2978:	40f707b3          	sub	a5,a4,a5
    297c:	97c2                	add	a5,a5,a6
    297e:	07c2                	slli	a5,a5,0x10
    2980:	83c1                	srli	a5,a5,0x10
    2982:	01079713          	slli	a4,a5,0x10
    2986:	97b6                	add	a5,a5,a3
    2988:	07c2                	slli	a5,a5,0x10
    298a:	8341                	srli	a4,a4,0x10
    298c:	83c1                	srli	a5,a5,0x10
    298e:	04e40123          	sb	a4,66(s0)
    2992:	04f40223          	sb	a5,68(s0)
    2996:	8321                	srli	a4,a4,0x8
    2998:	83a1                	srli	a5,a5,0x8
    299a:	04e401a3          	sb	a4,67(s0)
    299e:	04f402a3          	sb	a5,69(s0)
    29a2:	02040c23          	sb	zero,56(s0)
    29a6:	02040ca3          	sb	zero,57(s0)
    29aa:	02040d23          	sb	zero,58(s0)
    29ae:	02040da3          	sb	zero,59(s0)
    29b2:	f0eff06f          	j	20c0 <tcp_receive+0x20e>
    29b6:	8d99                	sub	a1,a1,a4
    29b8:	00194703          	lbu	a4,1(s2)
    29bc:	00094683          	lbu	a3,0(s2)
    29c0:	00c90423          	sb	a2,8(s2)
    29c4:	0722                	slli	a4,a4,0x8
    29c6:	8ed9                	or	a3,a3,a4
    29c8:	00294703          	lbu	a4,2(s2)
    29cc:	00f904a3          	sb	a5,9(s2)
    29d0:	00090523          	sb	zero,10(s2)
    29d4:	000905a3          	sb	zero,11(s2)
    29d8:	00394903          	lbu	s2,3(s2)
    29dc:	0742                	slli	a4,a4,0x10
    29de:	8f55                	or	a4,a4,a3
    29e0:	0962                	slli	s2,s2,0x18
    29e2:	00e96933          	or	s2,s2,a4
    29e6:	f56ff06f          	j	213c <tcp_receive+0x28a>
    29ea:	40d006b3          	neg	a3,a3
    29ee:	01069593          	slli	a1,a3,0x10
    29f2:	f60ff06f          	j	2152 <tcp_receive+0x2a0>
    29f6:	8f99                	sub	a5,a5,a4
    29f8:	fc07dd63          	bgez	a5,21d2 <tcp_receive+0x320>
    29fc:	02144783          	lbu	a5,33(s0)
    2a00:	8522                	mv	a0,s0
    2a02:	0027e793          	ori	a5,a5,2
    2a06:	02f400a3          	sb	a5,33(s0)
    2a0a:	39e020ef          	jal	ra,4da8 <tcp_output>
    2a0e:	fc4ff06f          	j	21d2 <tcp_receive+0x320>
    2a12:	00054783          	lbu	a5,0(a0)
    2a16:	06f40823          	sb	a5,112(s0)
    2a1a:	00154783          	lbu	a5,1(a0)
    2a1e:	06f408a3          	sb	a5,113(s0)
    2a22:	00254783          	lbu	a5,2(a0)
    2a26:	06f40923          	sb	a5,114(s0)
    2a2a:	00354783          	lbu	a5,3(a0)
    2a2e:	06f409a3          	sb	a5,115(s0)
    2a32:	97efe0ef          	jal	ra,bb0 <tcp_seg_free>
    2a36:	07144783          	lbu	a5,113(s0)
    2a3a:	07044503          	lbu	a0,112(s0)
    2a3e:	07a2                	slli	a5,a5,0x8
    2a40:	8fc9                	or	a5,a5,a0
    2a42:	07244503          	lbu	a0,114(s0)
    2a46:	0542                	slli	a0,a0,0x10
    2a48:	8fc9                	or	a5,a5,a0
    2a4a:	07344503          	lbu	a0,115(s0)
    2a4e:	0562                	slli	a0,a0,0x18
    2a50:	8d5d                	or	a0,a0,a5
    2a52:	f161                	bnez	a0,2a12 <tcp_receive+0xb60>
    2a54:	4098                	lw	a4,0(s1)
    2a56:	1fffd697          	auipc	a3,0x1fffd
    2a5a:	6b66d683          	lhu	a3,1718(a3) # 2000010c <tcplen>
    2a5e:	8522                	mv	a0,s0
    2a60:	9736                	add	a4,a4,a3
    2a62:	00875793          	srli	a5,a4,0x8
    2a66:	02f401a3          	sb	a5,35(s0)
    2a6a:	01075793          	srli	a5,a4,0x10
    2a6e:	02e40123          	sb	a4,34(s0)
    2a72:	02f40223          	sb	a5,36(s0)
    2a76:	8361                	srli	a4,a4,0x18
    2a78:	02744783          	lbu	a5,39(s0)
    2a7c:	02e402a3          	sb	a4,37(s0)
    2a80:	02644703          	lbu	a4,38(s0)
    2a84:	07a2                	slli	a5,a5,0x8
    2a86:	8fd9                	or	a5,a5,a4
    2a88:	8f95                	sub	a5,a5,a3
    2a8a:	07c2                	slli	a5,a5,0x10
    2a8c:	83c1                	srli	a5,a5,0x10
    2a8e:	02f40323          	sb	a5,38(s0)
    2a92:	83a1                	srli	a5,a5,0x8
    2a94:	02f403a3          	sb	a5,39(s0)
    2a98:	806fe0ef          	jal	ra,a9e <tcp_update_rcv_ann_wnd>
    2a9c:	00492703          	lw	a4,4(s2)
    2aa0:	00974783          	lbu	a5,9(a4)
    2aa4:	00874683          	lbu	a3,8(a4)
    2aa8:	07a2                	slli	a5,a5,0x8
    2aaa:	8fd5                	or	a5,a5,a3
    2aac:	cb89                	beqz	a5,2abe <tcp_receive+0xc0c>
    2aae:	1fffd797          	auipc	a5,0x1fffd
    2ab2:	64e7a723          	sw	a4,1614(a5) # 200000fc <recv_data>
    2ab6:	1fffd797          	auipc	a5,0x1fffd
    2aba:	6807a523          	sw	zero,1674(a5) # 20000140 <inseg+0x4>
    2abe:	01092783          	lw	a5,16(s2)
    2ac2:	00c7c503          	lbu	a0,12(a5)
    2ac6:	00d7c783          	lbu	a5,13(a5)
    2aca:	07a2                	slli	a5,a5,0x8
    2acc:	8d5d                	or	a0,a0,a5
    2ace:	20021097          	auipc	ra,0x20021
    2ad2:	d16080e7          	jalr	-746(ra) # 200237e4 <ntohs>
    2ad6:	8905                	andi	a0,a0,1
    2ad8:	c919                	beqz	a0,2aee <tcp_receive+0xc3c>
    2ada:	1fffd797          	auipc	a5,0x1fffd
    2ade:	6267c783          	lbu	a5,1574(a5) # 20000100 <recv_flags>
    2ae2:	0207e793          	ori	a5,a5,32
    2ae6:	1fffd717          	auipc	a4,0x1fffd
    2aea:	60f70d23          	sb	a5,1562(a4) # 20000100 <recv_flags>
    2aee:	1fffd917          	auipc	s2,0x1fffd
    2af2:	60e90913          	addi	s2,s2,1550 # 200000fc <recv_data>
    2af6:	1fffd997          	auipc	s3,0x1fffd
    2afa:	60a98993          	addi	s3,s3,1546 # 20000100 <recv_flags>
    2afe:	4a11                	li	s4,4
    2b00:	4a9d                	li	s5,7
    2b02:	a429                	j	2d0c <tcp_receive+0xe5a>
    2b04:	00d64783          	lbu	a5,13(a2)
    2b08:	00c64503          	lbu	a0,12(a2)
    2b0c:	07a2                	slli	a5,a5,0x8
    2b0e:	8d5d                	or	a0,a0,a5
    2b10:	20021097          	auipc	ra,0x20021
    2b14:	cd4080e7          	jalr	-812(ra) # 200237e4 <ntohs>
    2b18:	8905                	andi	a0,a0,1
    2b1a:	cd59                	beqz	a0,2bb8 <tcp_receive+0xd06>
    2b1c:	01092783          	lw	a5,16(s2)
    2b20:	00c7c503          	lbu	a0,12(a5)
    2b24:	00d7c783          	lbu	a5,13(a5)
    2b28:	07a2                	slli	a5,a5,0x8
    2b2a:	8d5d                	or	a0,a0,a5
    2b2c:	20021097          	auipc	ra,0x20021
    2b30:	cb8080e7          	jalr	-840(ra) # 200237e4 <ntohs>
    2b34:	8909                	andi	a0,a0,2
    2b36:	e149                	bnez	a0,2bb8 <tcp_receive+0xd06>
    2b38:	01092783          	lw	a5,16(s2)
    2b3c:	00d7ca03          	lbu	s4,13(a5)
    2b40:	00c7c503          	lbu	a0,12(a5)
    2b44:	0a22                	slli	s4,s4,0x8
    2b46:	00aa6a33          	or	s4,s4,a0
    2b4a:	8556                	mv	a0,s5
    2b4c:	20021097          	auipc	ra,0x20021
    2b50:	c8a080e7          	jalr	-886(ra) # 200237d6 <htons>
    2b54:	01092783          	lw	a5,16(s2)
    2b58:	00aa7a33          	and	s4,s4,a0
    2b5c:	00c7c503          	lbu	a0,12(a5)
    2b60:	00d7c783          	lbu	a5,13(a5)
    2b64:	07a2                	slli	a5,a5,0x8
    2b66:	8d5d                	or	a0,a0,a5
    2b68:	20021097          	auipc	ra,0x20021
    2b6c:	c7c080e7          	jalr	-900(ra) # 200237e4 <ntohs>
    2b70:	03e57513          	andi	a0,a0,62
    2b74:	00156513          	ori	a0,a0,1
    2b78:	20021097          	auipc	ra,0x20021
    2b7c:	c5e080e7          	jalr	-930(ra) # 200237d6 <htons>
    2b80:	00aa6533          	or	a0,s4,a0
    2b84:	01092783          	lw	a5,16(s2)
    2b88:	0542                	slli	a0,a0,0x10
    2b8a:	8141                	srli	a0,a0,0x10
    2b8c:	00855713          	srli	a4,a0,0x8
    2b90:	00a78623          	sb	a0,12(a5)
    2b94:	00e786a3          	sb	a4,13(a5)
    2b98:	1fffda17          	auipc	s4,0x1fffd
    2b9c:	5b0a5a03          	lhu	s4,1456(s4) # 20000148 <inseg+0xc>
    2ba0:	20021097          	auipc	ra,0x20021
    2ba4:	c44080e7          	jalr	-956(ra) # 200237e4 <ntohs>
    2ba8:	890d                	andi	a0,a0,3
    2baa:	00a03533          	snez	a0,a0
    2bae:	9a2a                	add	s4,s4,a0
    2bb0:	1fffd797          	auipc	a5,0x1fffd
    2bb4:	55479e23          	sh	s4,1372(a5) # 2000010c <tcplen>
    2bb8:	0009aa03          	lw	s4,0(s3)
    2bbc:	854e                	mv	a0,s3
    2bbe:	ff3fd0ef          	jal	ra,bb0 <tcp_seg_free>
    2bc2:	89d2                	mv	s3,s4
    2bc4:	ffaff06f          	j	23be <tcp_receive+0x50c>
    2bc8:	1fffd717          	auipc	a4,0x1fffd
    2bcc:	52f72e23          	sw	a5,1340(a4) # 20000104 <seqno>
    2bd0:	00d64783          	lbu	a5,13(a2)
    2bd4:	00c64503          	lbu	a0,12(a2)
    2bd8:	00c4db03          	lhu	s6,12(s1)
    2bdc:	07a2                	slli	a5,a5,0x8
    2bde:	8d5d                	or	a0,a0,a5
    2be0:	20021097          	auipc	ra,0x20021
    2be4:	c04080e7          	jalr	-1020(ra) # 200237e4 <ntohs>
    2be8:	02344703          	lbu	a4,35(s0)
    2bec:	02244783          	lbu	a5,34(s0)
    2bf0:	890d                	andi	a0,a0,3
    2bf2:	0722                	slli	a4,a4,0x8
    2bf4:	8f5d                	or	a4,a4,a5
    2bf6:	02444783          	lbu	a5,36(s0)
    2bfa:	00a03533          	snez	a0,a0
    2bfe:	955a                	add	a0,a0,s6
    2c00:	07c2                	slli	a5,a5,0x10
    2c02:	8f5d                	or	a4,a4,a5
    2c04:	02544783          	lbu	a5,37(s0)
    2c08:	00c4db03          	lhu	s6,12(s1)
    2c0c:	07e2                	slli	a5,a5,0x18
    2c0e:	8fd9                	or	a5,a5,a4
    2c10:	953e                	add	a0,a0,a5
    2c12:	00855793          	srli	a5,a0,0x8
    2c16:	4898                	lw	a4,16(s1)
