BL51 BANKED LINKER/LOCATER V6.22                                                        03/04/2021  16:19:15  PAGE 1


BL51 BANKED LINKER/LOCATER V6.22, INVOKED BY:
D:\KEIL_V4\C51\BIN\BL51.EXE CH395.obj, CH395PING.obj TO CH395PING RAMSIZE (256)


MEMORY MODEL: LARGE


INPUT MODULES INCLUDED:
  CH395.obj (CH395)
  CH395PING.obj (CH395PING)
  D:\KEIL_V4\C51\LIB\C51L.LIB (?C_STARTUP)
  D:\KEIL_V4\C51\LIB\C51L.LIB (?C?COPY)
  D:\KEIL_V4\C51\LIB\C51L.LIB (?C?CLDPTR)
  D:\KEIL_V4\C51\LIB\C51L.LIB (?C?CLDOPTR)
  D:\KEIL_V4\C51\LIB\C51L.LIB (?C?CSTPTR)
  D:\KEIL_V4\C51\LIB\C51L.LIB (?C?IMUL)
  D:\KEIL_V4\C51\LIB\C51L.LIB (?C?ILDIX)
  D:\KEIL_V4\C51\LIB\C51L.LIB (?C?SLCMP)
  D:\KEIL_V4\C51\LIB\C51L.LIB (?C?ULCMP)
  D:\KEIL_V4\C51\LIB\C51L.LIB (?C?ULSHR)
  D:\KEIL_V4\C51\LIB\C51L.LIB (?C?LSHL)
  D:\KEIL_V4\C51\LIB\C51L.LIB (?C?LSTXDATA)
  D:\KEIL_V4\C51\LIB\C51L.LIB (?C?LSTKXDATA)
  D:\KEIL_V4\C51\LIB\C51L.LIB (PRINTF)
  D:\KEIL_V4\C51\LIB\C51L.LIB (?C?MEMSET)
  D:\KEIL_V4\C51\LIB\C51L.LIB (?C_INIT)
  D:\KEIL_V4\C51\LIB\C51L.LIB (?C?PLDIXDATA)
  D:\KEIL_V4\C51\LIB\C51L.LIB (?C?PSTXDATA)
  D:\KEIL_V4\C51\LIB\C51L.LIB (?C?CCASE)
  D:\KEIL_V4\C51\LIB\C51L.LIB (PUTCHAR)


LINK MAP OF MODULE:  CH395PING (CH395)


            TYPE    BASE      LENGTH    RELOCATION   SEGMENT NAME
            -----------------------------------------------------

            * * * * * * *   D A T A   M E M O R Y   * * * * * * *
            REG     0000H     0008H     ABSOLUTE     "REG BANK 0"
            DATA    0008H     0005H     UNIT         _DATA_GROUP_
                    000DH     0013H                  *** GAP ***
            BIT     0020H.0   0001H.1   UNIT         _BIT_GROUP_
                    0021H.1   0000H.7                *** GAP ***
            IDATA   0022H     0001H     UNIT         ?STACK

            * * * * * * *  X D A T A   M E M O R Y  * * * * * * *
            XDATA   0000H     0250H     UNIT         ?XD?CH395
            XDATA   0250H     0083H     UNIT         ?XD?CH395PING
            XDATA   02D3H     0047H     UNIT         _XDATA_GROUP_
            XDATA   031AH     0014H     UNIT         ?XD?_CH395CRCRET6BIT?CH395
            XDATA   032EH     000DH     UNIT         ?XD?_CH395UDPSENDTO?CH395
            XDATA   033BH     0009H     UNIT         ?XD?_CH395CMDSETMACFILT?CH395
            XDATA   0344H     0006H     UNIT         ?XD?_CH395EEPROMWRITE?CH395
            XDATA   034AH     0006H     UNIT         ?XD?_CH395EEPROMREAD?CH395
            XDATA   0350H     0005H     UNIT         ?XD?_CH395CMDSETUARTBAUDRATE?CH395
            XDATA   0355H     0004H     UNIT         ?XD?_CH395SETSTARTPARA?CH395
            XDATA   0359H     0004H     UNIT         ?XD?_CH395KEEPLIVEIDLE?CH395
BL51 BANKED LINKER/LOCATER V6.22                                                      03/04/2021  16:19:15  PAGE 2


            XDATA   035DH     0004H     UNIT         ?XD?_CH395KEEPLIVEINTVL?CH395
            XDATA   0361H     0003H     UNIT         ?XD?_CH395CMDSETMACADDR?CH395
            XDATA   0364H     0003H     UNIT         ?XD?_CH395CMDGETMACADDR?CH395
            XDATA   0367H     0003H     UNIT         ?XD?_CH395CMDGETREMOTEIPP?CH395
            XDATA   036AH     0003H     UNIT         ?XD?_CH395CMDGETSOCKETSTATUS?CH395

            * * * * * * *   C O D E   M E M O R Y   * * * * * * *
            CODE    0000H     0003H     ABSOLUTE     
            CODE    0003H     03ABH     UNIT         ?PR?CH395_PINGCMD?CH395PING
            CODE    03AEH     0365H     UNIT         ?PR?PRINTF?PRINTF
            CODE    0713H     0272H     UNIT         ?C?LIB_CODE
            CODE    0985H     0233H     UNIT         ?PR?_RESPOND_PING?CH395PING
            CODE    0BB8H     01FBH     UNIT         ?PR?INITPING?CH395PING
            CODE    0DB3H     0175H     UNIT         ?PR?_CH395CRCRET6BIT?CH395
            CODE    0F28H     013CH     UNIT         ?CO?CH395PING
            CODE    1064H     012BH     UNIT         ?PR?_CH395ICMPRECVDATA?CH395PING
            CODE    118FH     00A1H     UNIT         ?PR?CH395GLOBALINTERRUPT?CH395
            CODE    1230H     0093H     UNIT         ?PR?_CH395CMDSETMACFILT?CH395
            CODE    12C3H     008CH     UNIT         ?C_C51STARTUP
            CODE    134FH     008BH     UNIT         ?CO?CH395
            CODE    13DAH     005EH     UNIT         ?PR?_CH395SOCKETINTERRUPT?CH395
            CODE    1438H     0057H     UNIT         ?PR?_CH395GETRECVDATA?CH395
            CODE    148FH     0054H     UNIT         ?PR?_CH395UDPSENDTO?CH395
            CODE    14E3H     0053H     UNIT         ?PR?_CH395EEPROMWRITE?CH395
            CODE    1536H     004EH     UNIT         ?PR?_CH395SETSTARTPARA?CH395
            CODE    1584H     004EH     UNIT         ?PR?_CH395KEEPLIVEIDLE?CH395
            CODE    15D2H     004EH     UNIT         ?PR?_CH395KEEPLIVEINTVL?CH395
            CODE    1620H     004DH     UNIT         ?PR?_CH395EEPROMREAD?CH395
            CODE    166DH     0048H     UNIT         ?PR?INITCH395INFPARAM?CH395
            CODE    16B5H     0046H     UNIT         ?PR?_CH395SENDDATA?CH395
            CODE    16FBH     0041H     UNIT         ?PR?_CH395CMDSETUARTBAUDRATE?CH395
            CODE    173CH     0040H     UNIT         ?PR?_CH395CMDGETSOCKETSTATUS?CH395
            CODE    177CH     003FH     UNIT         ?PR?CH395PINGINIT?CH395
            CODE    17BBH     0038H     UNIT         ?PR?_CH395CMDGETREMOTEIPP?CH395
            CODE    17F3H     0036H     UNIT         ?PR?INITSOCKETPARAM?CH395
            CODE    1829H     0031H     UNIT         ?PR?_CH395CMDGETMACADDR?CH395
            CODE    185AH     0031H     UNIT         ?PR?_CH395CMDGETUNREACHIPPT?CH395
            CODE    188BH     0031H     UNIT         ?PR?_CH395GETIPINF?CH395
            CODE    18BCH     002EH     UNIT         ?PR?_XWRITECH395DATA?CH395
            CODE    18EAH     002EH     UNIT         ?PR?CH395CMDINITCH395?CH395
            CODE    1918H     002CH     UNIT         ?PR?CH395INIT?CH395
            CODE    1944H     002AH     UNIT         ?PR?CH395SOCKETINITOPEN?CH395
            CODE    196EH     0029H     UNIT         ?PR?_CH395TCPCONNECT?CH395
            CODE    1997H     0029H     UNIT         ?PR?_CH395TCPLISTEN?CH395
            CODE    19C0H     0029H     UNIT         ?PR?_CH395TCPDISCONNECT?CH395
            CODE    19E9H     0029H     UNIT         ?PR?_CH395DHCPENABLE?CH395
            CODE    1A12H     0027H     UNIT         ?PR?PUTCHAR?PUTCHAR
            CODE    1A39H     0026H     UNIT         ?PR?_CH395OPENSOCKET?CH395
            CODE    1A5FH     0026H     UNIT         ?PR?_CH395CLOSESOCKET?CH395
            CODE    1A85H     0024H     UNIT         ?PR?_CH395CMDSETMACADDR?CH395
            CODE    1AA9H     0022H     UNIT         ?PR?INITPARAMETER?CH395PING
            CODE    1ACBH     0021H     UNIT         ?PR?CH395CMDGETGLOBINTSTATUS_ALL?CH395
            CODE    1AECH     0021H     UNIT         ?PR?_MSTOPIFERROR?CH395
            CODE    1B0DH     0021H     UNIT         ?C_INITSEG
            CODE    1B2EH     0020H     UNIT         ?PR?_CH395CMDSETIPADDR?CH395
            CODE    1B4EH     0020H     UNIT         ?PR?_CH395CMDSETGWIPADDR?CH395
            CODE    1B6EH     0020H     UNIT         ?PR?_CH395CMDSETMASKADDR?CH395
BL51 BANKED LINKER/LOCATER V6.22                                                      03/04/2021  16:19:15  PAGE 3


            CODE    1B8EH     0020H     UNIT         ?PR?_CH395SETSOCKETDESIP?CH395
            CODE    1BAEH     001BH     UNIT         ?PR?_CH395GETRECVLENGTH?CH395
            CODE    1BC9H     0019H     UNIT         ?PR?_CH395SETSOCKETDESPORT?CH395
            CODE    1BE2H     0019H     UNIT         ?PR?_CH395SETSOCKETSOURPORT?CH395
            CODE    1BFBH     0018H     UNIT         ?PR?MINITSTDIO?CH395
            CODE    1C13H     0017H     UNIT         ?PR?_CH395GETSOCKETINT?CH395
            CODE    1C2AH     0016H     UNIT         ?PR?_CH395CMDSETRETRYPERIOD?CH395
            CODE    1C40H     0016H     UNIT         ?PR?_CH395SETSOCKETRECVBUF?CH395
            CODE    1C56H     0016H     UNIT         ?PR?_CH395SETSOCKETSENDBUF?CH395
            CODE    1C6CH     0015H     UNIT         ?PR?_CH395READGPIOADDR?CH395
            CODE    1C81H     0014H     UNIT         ?PR?_CH395SETSOCKETPROTTYPE?CH395
            CODE    1C95H     0014H     UNIT         ?PR?_CH395SETSOCKETIPRAWPROTO?CH395
            CODE    1CA9H     0013H     UNIT         ?PR?CH395EEPROMERASE?CH395
            CODE    1CBCH     0013H     UNIT         ?PR?_CH395SETTCPMSS?CH395
            CODE    1CCFH     0011H     UNIT         ?PR?_MDELAYMS?CH395
            CODE    1CE0H     0011H     UNIT         ?PR?_CH395WRITEGPIOADDR?CH395
            CODE    1CF1H     0011H     UNIT         ?PR?_CH395SETKEEPLIVE?CH395
            CODE    1D02H     0011H     UNIT         ?PR?_CH395SETTTLNUM?CH395
            CODE    1D13H     0011H     UNIT         ?PR?MAIN?CH395
            CODE    1D24H     0010H     UNIT         ?PR?CH395GETCMDSTATUS?CH395
            CODE    1D34H     000FH     UNIT         ?PR?_XWRITECH395CMD?CH395
            CODE    1D43H     000FH     UNIT         ?PR?_CH395CMDSETPHY?CH395
            CODE    1D52H     000FH     UNIT         ?PR?_CH395ENABLEPING?CH395
            CODE    1D61H     000FH     UNIT         ?PR?_CH395CLEARRECVBUF?CH395
            CODE    1D70H     000FH     UNIT         ?PR?_CH395CMDSETRETRYCOUNT?CH395
            CODE    1D7FH     000EH     UNIT         ?PR?_MDELAYUS?CH395
            CODE    1D8DH     000EH     UNIT         ?PR?XREADCH395DATA?CH395
            CODE    1D9BH     000DH     UNIT         ?PR?_SPI395EXCHANGE?CH395
            CODE    1DA8H     000CH     UNIT         ?PR?_CH395KEEPLIVECNT?CH395
            CODE    1DB4H     000CH     UNIT         ?PR?INTERVALOMETER_4MS?CH395PING
            CODE    1DC0H     000BH     UNIT         ?PR?CH395CMDGETVER?CH395
            CODE    1DCBH     000BH     UNIT         ?PR?CH395CMDGETPHYSTATUS?CH395
            CODE    1DD6H     000BH     UNIT         ?PR?CH395CMDGETGLOBINTSTATUS?CH395
            CODE    1DE1H     000BH     UNIT         ?PR?CH395GETDHCPSTATUS?CH395
            CODE    1DECH     000AH     UNIT         ?PR?_CH395CMDCHECKEXIST?CH395
            CODE    1DF6H     0009H     UNIT         ?PR?CH395_PORT_INIT?CH395
            CODE    1DFFH     0008H     UNIT         ?PR?CH395CMDRESET?CH395
            CODE    1E07H     0008H     UNIT         ?PR?CH395CMDSLEEP?CH395



OVERLAY MAP OF MODULE:   CH395PING (CH395)


SEGMENT                                           BIT_GROUP          DATA_GROUP          XDATA_GROUP
  +--> CALLED SEGMENT                          START    LENGTH     START    LENGTH     START    LENGTH
------------------------------------------------------------------------------------------------------
?C_C51STARTUP                                  -----    -----      -----    -----      -----    -----
  +--> ?PR?MAIN?CH395
  +--> ?C_INITSEG

?PR?MAIN?CH395                                 -----    -----      -----    -----      -----    -----
  +--> ?PR?MINITSTDIO?CH395
  +--> ?PR?CH395PINGINIT?CH395
  +--> ?PR?CH395GLOBALINTERRUPT?CH395
  +--> ?PR?CH395_PINGCMD?CH395PING

BL51 BANKED LINKER/LOCATER V6.22                                                      03/04/2021  16:19:15  PAGE 4


?PR?CH395PINGINIT?CH395                        -----    -----      -----    -----      -----    -----
  +--> ?PR?_MDELAYMS?CH395
  +--> ?CO?CH395
  +--> ?PR?PRINTF?PRINTF
  +--> ?PR?CH395_PORT_INIT?CH395
  +--> ?PR?INITCH395INFPARAM?CH395
  +--> ?PR?CH395INIT?CH395
  +--> ?PR?_MSTOPIFERROR?CH395
  +--> ?PR?CH395CMDGETPHYSTATUS?CH395
  +--> ?PR?INITSOCKETPARAM?CH395
  +--> ?PR?CH395SOCKETINITOPEN?CH395
  +--> ?PR?INITPARAMETER?CH395PING
  +--> ?PR?INITPING?CH395PING
  +--> ?PR?INTERVALOMETER_4MS?CH395PING

?PR?_MDELAYMS?CH395                            -----    -----      -----    -----      -----    -----
  +--> ?PR?_MDELAYUS?CH395

?PR?PRINTF?PRINTF                              0020H.0  0001H.1    0008H    0005H      02DFH    0028H
  +--> ?PR?PUTCHAR?PUTCHAR

?PR?CH395INIT?CH395                            -----    -----      -----    -----      -----    -----
  +--> ?PR?_CH395CMDCHECKEXIST?CH395
  +--> ?PR?_CH395CMDSETIPADDR?CH395
  +--> ?PR?_CH395CMDSETGWIPADDR?CH395
  +--> ?PR?_CH395CMDSETMASKADDR?CH395
  +--> ?PR?CH395CMDINITCH395?CH395

?PR?_CH395CMDCHECKEXIST?CH395                  -----    -----      -----    -----      -----    -----
  +--> ?PR?XREADCH395DATA?CH395

?PR?XREADCH395DATA?CH395                       -----    -----      -----    -----      -----    -----
  +--> ?PR?_XWRITECH395CMD?CH395
  +--> ?PR?_XWRITECH395DATA?CH395
  +--> ?PR?_SPI395EXCHANGE?CH395

?PR?_XWRITECH395CMD?CH395                      -----    -----      -----    -----      -----    -----
  +--> ?PR?_SPI395EXCHANGE?CH395
  +--> ?PR?_MDELAYUS?CH395

?PR?_XWRITECH395DATA?CH395                     -----    -----      -----    -----      -----    -----
  +--> ?PR?_SPI395EXCHANGE?CH395

?PR?_CH395CMDSETIPADDR?CH395                   -----    -----      -----    -----      02D3H    0003H
  +--> ?PR?_XWRITECH395CMD?CH395
  +--> ?PR?_XWRITECH395DATA?CH395

?PR?_CH395CMDSETGWIPADDR?CH395                 -----    -----      -----    -----      02D3H    0003H
  +--> ?PR?_XWRITECH395CMD?CH395
  +--> ?PR?_XWRITECH395DATA?CH395

?PR?_CH395CMDSETMASKADDR?CH395                 -----    -----      -----    -----      02D3H    0003H
  +--> ?PR?_XWRITECH395CMD?CH395
  +--> ?PR?_XWRITECH395DATA?CH395

?PR?CH395CMDINITCH395?CH395                    -----    -----      -----    -----      02D3H    0001H
  +--> ?PR?_XWRITECH395CMD?CH395
BL51 BANKED LINKER/LOCATER V6.22                                                      03/04/2021  16:19:15  PAGE 5


  +--> ?PR?_MDELAYMS?CH395
  +--> ?PR?CH395GETCMDSTATUS?CH395

?PR?CH395GETCMDSTATUS?CH395                    -----    -----      -----    -----      -----    -----
  +--> ?PR?_MDELAYMS?CH395
  +--> ?PR?_XWRITECH395CMD?CH395
  +--> ?PR?XREADCH395DATA?CH395

?PR?_MSTOPIFERROR?CH395                        -----    -----      -----    -----      -----    -----
  +--> ?CO?CH395
  +--> ?PR?PRINTF?PRINTF
  +--> ?PR?_MDELAYMS?CH395

?PR?CH395CMDGETPHYSTATUS?CH395                 -----    -----      -----    -----      -----    -----
  +--> ?PR?_XWRITECH395CMD?CH395
  +--> ?PR?XREADCH395DATA?CH395

?PR?CH395SOCKETINITOPEN?CH395                  -----    -----      -----    -----      -----    -----
  +--> ?PR?_CH395SETSOCKETDESIP?CH395
  +--> ?PR?_CH395SETSOCKETPROTTYPE?CH395
  +--> ?PR?_CH395SETSOCKETIPRAWPROTO?CH395
  +--> ?PR?_CH395OPENSOCKET?CH395
  +--> ?PR?_MSTOPIFERROR?CH395

?PR?_CH395SETSOCKETDESIP?CH395                 -----    -----      -----    -----      02D3H    0003H
  +--> ?PR?_XWRITECH395CMD?CH395
  +--> ?PR?_XWRITECH395DATA?CH395

?PR?_CH395SETSOCKETPROTTYPE?CH395              -----    -----      -----    -----      -----    -----
  +--> ?PR?_XWRITECH395CMD?CH395
  +--> ?PR?_XWRITECH395DATA?CH395

?PR?_CH395SETSOCKETIPRAWPROTO?CH395            -----    -----      -----    -----      -----    -----
  +--> ?PR?_XWRITECH395CMD?CH395
  +--> ?PR?_XWRITECH395DATA?CH395

?PR?_CH395OPENSOCKET?CH395                     -----    -----      -----    -----      -----    -----
  +--> ?PR?_XWRITECH395CMD?CH395
  +--> ?PR?_XWRITECH395DATA?CH395
  +--> ?PR?CH395GETCMDSTATUS?CH395

?PR?INITPARAMETER?CH395PING                    -----    -----      -----    -----      -----    -----
  +--> ?PR?_CH395GETIPINF?CH395

?PR?_CH395GETIPINF?CH395                       -----    -----      -----    -----      02D3H    0003H
  +--> ?PR?_XWRITECH395CMD?CH395
  +--> ?PR?XREADCH395DATA?CH395

?PR?INITPING?CH395PING                         -----    -----      -----    -----      02D3H    002DH

?PR?CH395GLOBALINTERRUPT?CH395                 -----    -----      -----    -----      02D3H    000CH
  +--> ?PR?CH395CMDGETGLOBINTSTATUS_ALL?CH395
  +--> ?CO?CH395
  +--> ?PR?PRINTF?PRINTF
  +--> ?PR?_CH395CMDGETUNREACHIPPT?CH395
  +--> ?PR?_CH395SOCKETINTERRUPT?CH395

BL51 BANKED LINKER/LOCATER V6.22                                                      03/04/2021  16:19:15  PAGE 6


?PR?CH395CMDGETGLOBINTSTATUS_ALL?CH395         -----    -----      -----    -----      -----    -----
  +--> ?PR?_XWRITECH395CMD?CH395
  +--> ?PR?_MDELAYUS?CH395
  +--> ?PR?XREADCH395DATA?CH395

?PR?_CH395CMDGETUNREACHIPPT?CH395              -----    -----      -----    -----      02DFH    0003H
  +--> ?PR?_XWRITECH395CMD?CH395
  +--> ?PR?XREADCH395DATA?CH395

?PR?_CH395SOCKETINTERRUPT?CH395                -----    -----      -----    -----      02DFH    0002H
  +--> ?PR?_CH395GETSOCKETINT?CH395
  +--> ?PR?_CH395GETRECVLENGTH?CH395
  +--> ?PR?_CH395GETRECVDATA?CH395
  +--> ?PR?_CH395ICMPRECVDATA?CH395PING

?PR?_CH395GETSOCKETINT?CH395                   -----    -----      -----    -----      -----    -----
  +--> ?PR?_XWRITECH395CMD?CH395
  +--> ?PR?_XWRITECH395DATA?CH395
  +--> ?PR?_MDELAYUS?CH395
  +--> ?PR?XREADCH395DATA?CH395

?PR?_CH395GETRECVLENGTH?CH395                  -----    -----      -----    -----      -----    -----
  +--> ?PR?XREADCH395DATA?CH395

?PR?_CH395GETRECVDATA?CH395                    -----    -----      -----    -----      02E1H    0003H
  +--> ?PR?_XWRITECH395CMD?CH395
  +--> ?PR?_XWRITECH395DATA?CH395
  +--> ?PR?_MDELAYUS?CH395
  +--> ?PR?XREADCH395DATA?CH395

?PR?_CH395ICMPRECVDATA?CH395PING               -----    -----      -----    -----      02E1H    0009H
  +--> ?PR?_RESPOND_PING?CH395PING

?PR?_RESPOND_PING?CH395PING                    -----    -----      -----    -----      02EAH    0030H

?PR?CH395_PINGCMD?CH395PING                    -----    -----      -----    -----      -----    -----
  +--> ?PR?_CH395SENDDATA?CH395
  +--> ?CO?CH395PING
  +--> ?PR?PRINTF?PRINTF
  +--> ?PR?INITPING?CH395PING
  +--> ?PR?_CH395CLOSESOCKET?CH395

?PR?_CH395SENDDATA?CH395                       -----    -----      -----    -----      02D3H    0006H
  +--> ?PR?_XWRITECH395CMD?CH395
  +--> ?PR?_XWRITECH395DATA?CH395

?PR?_CH395CLOSESOCKET?CH395                    -----    -----      -----    -----      -----    -----
  +--> ?PR?_XWRITECH395CMD?CH395
  +--> ?PR?_XWRITECH395DATA?CH395
  +--> ?PR?CH395GETCMDSTATUS?CH395



SYMBOL TABLE OF MODULE:  CH395PING (CH395)

  VALUE           TYPE          NAME
  ----------------------------------
BL51 BANKED LINKER/LOCATER V6.22                                                      03/04/2021  16:19:15  PAGE 7



  -------         MODULE        CH395
  C:0000H         SYMBOL        _ICE_DUMMY_
  C:1E07H         PUBLIC        CH395CMDSleep
  C:17BBH         PUBLIC        _CH395CMDGetRemoteIPP
  D:0090H         PUBLIC        P1
  C:1B8EH         PUBLIC        _CH395SetSocketDesIP
  C:1A85H         PUBLIC        _CH395CMDSetMACAddr
  D:00B0H         PUBLIC        P3
  C:1D02H         PUBLIC        _CH395SetTTLNum
  C:14E3H         PUBLIC        _CH395EEPROMWrite
  C:188BH         PUBLIC        _CH395GetIPInf
  C:1D52H         PUBLIC        _CH395EnablePing
  C:1997H         PUBLIC        _CH395TCPListen
  C:1DFFH         PUBLIC        CH395CMDReset
  C:1BFBH         PUBLIC        mInitSTDIO
  C:0DB3H         PUBLIC        _CH395CRCRet6Bit
  D:00A8H         PUBLIC        IE
  C:1BC9H         PUBLIC        _CH395SetSocketDesPort
  C:1A5FH         PUBLIC        _CH395CloseSocket
  C:1230H         PUBLIC        _CH395CMDSetMACFilt
  C:1C81H         PUBLIC        _CH395SetSocketProtType
  D:00B8H         PUBLIC        IP
  C:19E9H         PUBLIC        _CH395DHCPEnable
  C:173CH         PUBLIC        _CH395CMDGetSocketStatus
  C:1ACBH         PUBLIC        CH395CMDGetGlobIntStatus_ALL
  B:0098H.1       PUBLIC        TI
  B:00B0H.3       PUBLIC        INT1
  C:1BE2H         PUBLIC        _CH395SetSocketSourPort
  C:1DCBH         PUBLIC        CH395CMDGetPHYStatus
  C:1CCFH         PUBLIC        _mDelaymS
  C:1D95H         PUBLIC        xReadCH395Data
  D:00CBH         PUBLIC        RCAP2H
  C:1D43H         PUBLIC        _CH395CMDSetPHY
  X:0000H         PUBLIC        MyBuffer
  D:00CAH         PUBLIC        RCAP2L
  C:1D13H         PUBLIC        main
  C:19C0H         PUBLIC        _CH395TCPDisconnect
  C:1D86H         PUBLIC        _mDelayuS
  X:0200H         PUBLIC        DestIPAddr
  C:1DA8H         PUBLIC        _CH395KeepLiveCNT
  C:1A39H         PUBLIC        _CH395OpenSocket
  C:185AH         PUBLIC        _CH395CMDGetUnreachIPPT
  X:0204H         PUBLIC        SockInf
  D:0087H         PUBLIC        PCON
  C:18E7H         PUBLIC        _xWriteCH395Data
  C:1C2AH         PUBLIC        _CH395CMDSetRetryPeriod
  D:0098H         PUBLIC        SCON
  B:0090H.4       PUBLIC        P14
  D:0088H         PUBLIC        TCON
  C:16B5H         PUBLIC        _CH395SendData
  D:00D5H         PUBLIC        SPCR
  D:0086H         PUBLIC        SPDR
  C:1918H         PUBLIC        CH395Init
  X:0220H         PUBLIC        CH395IPAddr
  C:1944H         PUBLIC        CH395SocketInitOpen
  C:18EAH         PUBLIC        CH395CMDInitCH395
BL51 BANKED LINKER/LOCATER V6.22                                                      03/04/2021  16:19:15  PAGE 8


  C:1BAEH         PUBLIC        _CH395GetRecvLength
  C:1B2EH         PUBLIC        _CH395CMDSetIPAddr
  D:00AAH         PUBLIC        SPSR
  C:1D61H         PUBLIC        _CH395ClearRecvBuf
  C:1D37H         PUBLIC        _xWriteCH395Cmd
  X:0224H         PUBLIC        CH395Inf
  D:00CDH         PUBLIC        TH2
  D:00CCH         PUBLIC        TL2
  C:1AECH         PUBLIC        _mStopIfError
  C:1DC0H         PUBLIC        CH395CMDGetVer
  X:0247H         PUBLIC        CH395IPMask
  C:118FH         PUBLIC        CH395GlobalInterrupt
  C:166DH         PUBLIC        InitCH395InfParam
  C:15D2H         PUBLIC        _CH395KeepLiveINTVL
  C:1D70H         PUBLIC        _CH395CMDSetRetryCount
  C:1C6CH         PUBLIC        _CH395ReadGPIOAddr
  C:1B6EH         PUBLIC        _CH395CMDSetMASKAddr
  X:024BH         PUBLIC        IPRawProto
  C:16FBH         PUBLIC        _CH395CMDSetUartBaudRate
  C:1438H         PUBLIC        _CH395GetRecvData
  C:1DD6H         PUBLIC        CH395CMDGetGlobIntStatus
  X:024CH         PUBLIC        CH395GWIPAddr
  C:196EH         PUBLIC        _CH395TCPConnect
  C:1C95H         PUBLIC        _CH395SetSocketIPRAWProto
  D:00C8H         PUBLIC        T2CON
  C:1584H         PUBLIC        _CH395KeepLiveIDLE
  C:1B4EH         PUBLIC        _CH395CMDSetGWIPAddr
  C:148FH         PUBLIC        _CH395UDPSendTo
  C:1C13H         PUBLIC        _CH395GetSocketInt
  C:1DF6H         PUBLIC        CH395_PORT_INIT
  C:1CE0H         PUBLIC        _CH395WriteGPIOAddr
  C:1CA9H         PUBLIC        CH395EEPROMErase
  C:1D29H         PUBLIC        CH395GetCmdStatus
  C:13DAH         PUBLIC        _CH395SocketInterrupt
  C:1536H         PUBLIC        _CH395SetStartPara
  C:177CH         PUBLIC        CH395PINGInit
  C:1C56H         PUBLIC        _CH395SetSocketSendBuf
  C:1829H         PUBLIC        _CH395CMDGetMACAddr
  C:1DECH         PUBLIC        _CH395CMDCheckExist
  C:1CF1H         PUBLIC        _CH395SetKeepLive
  C:1620H         PUBLIC        _CH395EEPROMRead
  C:17F3H         PUBLIC        InitSocketParam
  C:1D9BH         PUBLIC        _Spi395Exchange
  C:1DE1H         PUBLIC        CH395GetDHCPStatus
  C:1CBCH         PUBLIC        _CH395SetTCPMss
  D:00D0H         PUBLIC        PSW
  C:1C40H         PUBLIC        _CH395SetSocketRecvBuf
  -------         PROC          L?0198
  -------         ENDPROC       L?0198
  -------         PROC          _MDELAYUS
  D:0007H         SYMBOL        us
  C:1D86H         LINE#         39
  C:1D86H         LINE#         40
  C:1D86H         LINE#         41
  C:1D8CH         LINE#         42
  -------         ENDPROC       _MDELAYUS
  -------         PROC          _MDELAYMS
BL51 BANKED LINKER/LOCATER V6.22                                                      03/04/2021  16:19:15  PAGE 9


  D:0005H         SYMBOL        ms
  C:1CCFH         LINE#         51
  C:1CD1H         LINE#         52
  C:1CD1H         LINE#         53
  C:1CD7H         LINE#         54
  C:1CD7H         LINE#         55
  C:1CD7H         LINE#         56
  C:1CDAH         LINE#         57
  C:1CDAH         LINE#         58
  C:1CDDH         LINE#         59
  C:1CDFH         LINE#         60
  -------         ENDPROC       _MDELAYMS
  -------         PROC          CH395_PORT_INIT
  C:1DF6H         LINE#         69
  C:1DF6H         LINE#         70
  C:1DF6H         LINE#         71
  C:1DF8H         LINE#         74
  C:1DFBH         LINE#         78
  C:1DFEH         LINE#         80
  -------         ENDPROC       CH395_PORT_INIT
  -------         PROC          _SPI395EXCHANGE
  D:0007H         SYMBOL        d
  C:1D9BH         LINE#         89
  C:1D9BH         LINE#         90
  C:1D9BH         LINE#         92
  C:1D9DH         LINE#         93
  C:1DA2H         LINE#         94
  C:1DA5H         LINE#         95
  C:1DA7H         LINE#         96
  -------         ENDPROC       _SPI395EXCHANGE
  -------         PROC          L?0197
  -------         ENDPROC       L?0197
  -------         PROC          _XWRITECH395CMD
  D:0007H         SYMBOL        cmd
  C:1D37H         LINE#         105
  C:1D37H         LINE#         106
  C:1D37H         LINE#         107
  C:1D39H         LINE#         108
  C:1D3BH         LINE#         109
  C:1D3EH         LINE#         110
  -------         ENDPROC       _XWRITECH395CMD
  C:18D6H         SYMBOL        L?0192
  -------         PROC          L?0191
  -------         ENDPROC       L?0191
  C:18D6H         SYMBOL        L?0192
  -------         PROC          _XWRITECH395DATA
  D:0007H         SYMBOL        mdata
  C:18E7H         LINE#         120
  C:18E7H         LINE#         121
  C:18E7H         LINE#         122
  -------         ENDPROC       _XWRITECH395DATA
  C:1D8DH         SYMBOL        L?0196
  -------         PROC          L?0195
  -------         ENDPROC       L?0195
  C:1D8DH         SYMBOL        L?0196
  -------         PROC          XREADCH395DATA
  -------         DO            
BL51 BANKED LINKER/LOCATER V6.22                                                      03/04/2021  16:19:15  PAGE 10


  D:0007H         SYMBOL        i
  -------         ENDDO         
  C:1D95H         LINE#         132
  C:1D95H         LINE#         133
  C:1D95H         LINE#         135
  C:1D9AH         LINE#         136
  C:1D9AH         LINE#         137
  -------         ENDPROC       XREADCH395DATA
  -------         PROC          CH395CMDRESET
  C:1DFFH         LINE#         21
  C:1DFFH         LINE#         22
  C:1DFFH         LINE#         23
  C:1E04H         LINE#         24
  C:1E06H         LINE#         25
  -------         ENDPROC       CH395CMDRESET
  -------         PROC          CH395CMDSLEEP
  C:1E07H         LINE#         34
  C:1E07H         LINE#         35
  C:1E07H         LINE#         36
  C:1E0CH         LINE#         37
  C:1E0EH         LINE#         38
  -------         ENDPROC       CH395CMDSLEEP
  -------         PROC          CH395CMDGETVER
  -------         DO            
  D:0007H         SYMBOL        i
  -------         ENDDO         
  C:1DC0H         LINE#         48
  C:1DC0H         LINE#         49
  C:1DC0H         LINE#         51
  C:1DC5H         LINE#         52
  C:1DC8H         LINE#         53
  C:1DCAH         LINE#         54
  C:1DCAH         LINE#         55
  -------         ENDPROC       CH395CMDGETVER
  -------         PROC          _CH395CMDCHECKEXIST
  D:0005H         SYMBOL        testdata
  -------         DO            
  D:0007H         SYMBOL        i
  -------         ENDDO         
  C:1DECH         LINE#         64
  C:1DEEH         LINE#         65
  C:1DEEH         LINE#         68
  C:1DF0H         LINE#         69
  C:1DF0H         LINE#         70
  C:1DF3H         LINE#         71
  C:1DF5H         LINE#         72
  C:1DF5H         LINE#         73
  -------         ENDPROC       _CH395CMDCHECKEXIST
  -------         PROC          _CH395CMDSETPHY
  D:0005H         SYMBOL        phystat
  C:1D43H         LINE#         83
  C:1D45H         LINE#         84
  C:1D45H         LINE#         85
  C:1D4AH         LINE#         86
  C:1D4FH         LINE#         87
  C:1D51H         LINE#         88
  -------         ENDPROC       _CH395CMDSETPHY
BL51 BANKED LINKER/LOCATER V6.22                                                      03/04/2021  16:19:15  PAGE 11


  -------         PROC          CH395CMDGETPHYSTATUS
  -------         DO            
  D:0007H         SYMBOL        i
  -------         ENDDO         
  C:1DCBH         LINE#         97
  C:1DCBH         LINE#         98
  C:1DCBH         LINE#         101
  C:1DD0H         LINE#         102
  C:1DD3H         LINE#         103
  C:1DD5H         LINE#         104
  C:1DD5H         LINE#         105
  -------         ENDPROC       CH395CMDGETPHYSTATUS
  -------         PROC          CH395CMDGETGLOBINTSTATUS
  -------         DO            
  D:0007H         SYMBOL        init_status
  -------         ENDDO         
  C:1DD6H         LINE#         114
  C:1DD6H         LINE#         115
  C:1DD6H         LINE#         118
  C:1DDBH         LINE#         119
  C:1DDEH         LINE#         120
  C:1DE0H         LINE#         121
  C:1DE0H         LINE#         122
  -------         ENDPROC       CH395CMDGETGLOBINTSTATUS
  -------         PROC          CH395CMDINITCH395
  -------         DO            
  X:02D3H         SYMBOL        i
  D:0005H         SYMBOL        s
  -------         ENDDO         
  C:18EAH         LINE#         131
  C:18EAH         LINE#         132
  C:18EAH         LINE#         133
  C:18EFH         LINE#         134
  C:18F0H         LINE#         136
  C:18F5H         LINE#         137
  C:18F7H         LINE#         138
  C:18F7H         LINE#         139
  C:18F7H         LINE#         140
  C:18FCH         LINE#         141
  C:1901H         LINE#         142
  C:1905H         LINE#         143
  C:1915H         LINE#         144
  C:1915H         LINE#         145
  C:1917H         LINE#         146
  -------         ENDPROC       CH395CMDINITCH395
  -------         PROC          _CH395CMDSETUARTBAUDRATE
  X:0350H         SYMBOL        baudrate
  -------         DO            
  X:0354H         SYMBOL        i
  -------         ENDDO         
  C:16FBH         LINE#         155
  C:1701H         LINE#         156
  C:1701H         LINE#         158
  C:1706H         LINE#         159
  C:1711H         LINE#         160
  C:171DH         LINE#         161
  C:1733H         LINE#         162
BL51 BANKED LINKER/LOCATER V6.22                                                      03/04/2021  16:19:15  PAGE 12


  C:1739H         LINE#         163
  C:173BH         LINE#         164
  -------         ENDPROC       _CH395CMDSETUARTBAUDRATE
  C:1D24H         SYMBOL        L?0194
  -------         PROC          L?0193
  -------         ENDPROC       L?0193
  C:1D24H         SYMBOL        L?0194
  -------         PROC          CH395GETCMDSTATUS
  -------         DO            
  D:0007H         SYMBOL        i
  -------         ENDDO         
  C:1D29H         LINE#         173
  C:1D29H         LINE#         174
  C:1D29H         LINE#         177
  C:1D2EH         LINE#         178
  C:1D31H         LINE#         179
  C:1D33H         LINE#         180
  C:1D33H         LINE#         181
  -------         ENDPROC       CH395GETCMDSTATUS
  -------         PROC          _CH395CMDSETIPADDR
  X:02D3H         SYMBOL        ipaddr
  -------         DO            
  D:0006H         SYMBOL        i
  -------         ENDDO         
  C:1B2EH         LINE#         190
  C:1B39H         LINE#         191
  C:1B39H         LINE#         194
  C:1B3EH         LINE#         195
  C:1B4BH         LINE#         196
  C:1B4DH         LINE#         197
  -------         ENDPROC       _CH395CMDSETIPADDR
  -------         PROC          _CH395CMDSETGWIPADDR
  X:02D3H         SYMBOL        gwipaddr
  -------         DO            
  D:0006H         SYMBOL        i
  -------         ENDDO         
  C:1B4EH         LINE#         206
  C:1B59H         LINE#         207
  C:1B59H         LINE#         210
  C:1B5EH         LINE#         211
  C:1B6BH         LINE#         212
  C:1B6DH         LINE#         213
  -------         ENDPROC       _CH395CMDSETGWIPADDR
  -------         PROC          _CH395CMDSETMASKADDR
  X:02D3H         SYMBOL        maskaddr
  -------         DO            
  D:0006H         SYMBOL        i
  -------         ENDDO         
  C:1B6EH         LINE#         222
  C:1B79H         LINE#         223
  C:1B79H         LINE#         226
  C:1B7EH         LINE#         227
  C:1B8BH         LINE#         228
  C:1B8DH         LINE#         229
  -------         ENDPROC       _CH395CMDSETMASKADDR
  -------         PROC          _CH395CMDSETMACADDR
  X:0361H         SYMBOL        amcaddr
BL51 BANKED LINKER/LOCATER V6.22                                                      03/04/2021  16:19:15  PAGE 13


  -------         DO            
  D:0006H         SYMBOL        i
  -------         ENDDO         
  C:1A85H         LINE#         238
  C:1A90H         LINE#         239
  C:1A90H         LINE#         242
  C:1A95H         LINE#         243
  C:1AA2H         LINE#         244
  C:1AA4H         LINE#         245
  -------         ENDPROC       _CH395CMDSETMACADDR
  -------         PROC          _CH395CMDGETMACADDR
  X:0364H         SYMBOL        amcaddr
  -------         DO            
  D:0006H         SYMBOL        i
  -------         ENDDO         
  C:1829H         LINE#         255
  C:1834H         LINE#         256
  C:1834H         LINE#         259
  C:1839H         LINE#         260
  C:1857H         LINE#         261
  C:1859H         LINE#         262
  -------         ENDPROC       _CH395CMDGETMACADDR
  -------         PROC          _CH395CMDSETMACFILT
  D:0005H         SYMBOL        filtype
  X:033CH         SYMBOL        table0
  X:0340H         SYMBOL        table1
  C:1230H         LINE#         273
  C:1232H         LINE#         274
  C:1232H         LINE#         275
  C:1237H         LINE#         276
  C:123CH         LINE#         277
  C:1247H         LINE#         278
  C:1253H         LINE#         279
  C:1269H         LINE#         280
  C:127FH         LINE#         282
  C:1288H         LINE#         283
  C:1294H         LINE#         284
  C:12AAH         LINE#         285
  C:12C0H         LINE#         286
  C:12C2H         LINE#         287
  -------         ENDPROC       _CH395CMDSETMACFILT
  -------         PROC          _CH395CMDGETUNREACHIPPT
  X:02DFH         SYMBOL        list
  -------         DO            
  D:0006H         SYMBOL        i
  -------         ENDDO         
  C:185AH         LINE#         300
  C:1865H         LINE#         301
  C:1865H         LINE#         304
  C:186AH         LINE#         305
  C:186CH         LINE#         306
  C:186CH         LINE#         307
  C:1883H         LINE#         308
  C:1888H         LINE#         309
  C:188AH         LINE#         310
  -------         ENDPROC       _CH395CMDGETUNREACHIPPT
  -------         PROC          _CH395CMDGETREMOTEIPP
BL51 BANKED LINKER/LOCATER V6.22                                                      03/04/2021  16:19:15  PAGE 14


  D:0005H         SYMBOL        sockindex
  X:0367H         SYMBOL        list
  -------         DO            
  D:0006H         SYMBOL        i
  -------         ENDDO         
  C:17BBH         LINE#         320
  C:17C8H         LINE#         321
  C:17C8H         LINE#         324
  C:17CDH         LINE#         325
  C:17D2H         LINE#         326
  C:17D4H         LINE#         327
  C:17D4H         LINE#         328
  C:17EBH         LINE#         329
  C:17F0H         LINE#         330
  C:17F2H         LINE#         331
  -------         ENDPROC       _CH395CMDGETREMOTEIPP
  -------         PROC          _CH395SETSOCKETDESIP
  D:0005H         SYMBOL        sockindex
  X:02D3H         SYMBOL        ipaddr
  C:1B8EH         LINE#         341
  C:1B9BH         LINE#         342
  C:1B9BH         LINE#         343
  C:1BA0H         LINE#         344
  C:1BA5H         LINE#         345
  C:1BA5H         LINE#         346
  C:1BA8H         LINE#         347
  C:1BA8H         LINE#         348
  C:1BABH         LINE#         349
  C:1BADH         LINE#         350
  -------         ENDPROC       _CH395SETSOCKETDESIP
  -------         PROC          _CH395SETSOCKETPROTTYPE
  D:0004H         SYMBOL        sockindex
  D:0005H         SYMBOL        prottype
  C:1C81H         LINE#         360
  C:1C83H         LINE#         361
  C:1C83H         LINE#         362
  C:1C88H         LINE#         363
  C:1C8DH         LINE#         364
  C:1C92H         LINE#         365
  C:1C94H         LINE#         366
  -------         ENDPROC       _CH395SETSOCKETPROTTYPE
  -------         PROC          _CH395SETSOCKETDESPORT
  D:0003H         SYMBOL        sockindex
  D:0004H         SYMBOL        desprot
  C:1BC9H         LINE#         377
  C:1BCBH         LINE#         378
  C:1BCBH         LINE#         379
  C:1BD0H         LINE#         380
  C:1BD5H         LINE#         381
  C:1BDAH         LINE#         382
  C:1BDFH         LINE#         383
  C:1BE1H         LINE#         384
  -------         ENDPROC       _CH395SETSOCKETDESPORT
  -------         PROC          _CH395SETSOCKETSOURPORT
  D:0003H         SYMBOL        sockindex
  D:0004H         SYMBOL        surprot
  C:1BE2H         LINE#         394
BL51 BANKED LINKER/LOCATER V6.22                                                      03/04/2021  16:19:15  PAGE 15


  C:1BE4H         LINE#         395
  C:1BE4H         LINE#         396
  C:1BE9H         LINE#         397
  C:1BEEH         LINE#         398
  C:1BF3H         LINE#         399
  C:1BF8H         LINE#         400
  C:1BFAH         LINE#         401
  -------         ENDPROC       _CH395SETSOCKETSOURPORT
  -------         PROC          _CH395SETSOCKETIPRAWPROTO
  D:0004H         SYMBOL        sockindex
  D:0005H         SYMBOL        prototype
  C:1C95H         LINE#         411
  C:1C97H         LINE#         412
  C:1C97H         LINE#         413
  C:1C9CH         LINE#         414
  C:1CA1H         LINE#         415
  C:1CA6H         LINE#         416
  C:1CA8H         LINE#         417
  -------         ENDPROC       _CH395SETSOCKETIPRAWPROTO
  -------         PROC          _CH395ENABLEPING
  D:0005H         SYMBOL        enable
  C:1D52H         LINE#         427
  C:1D54H         LINE#         428
  C:1D54H         LINE#         429
  C:1D59H         LINE#         430
  C:1D5EH         LINE#         431
  C:1D60H         LINE#         432
  -------         ENDPROC       _CH395ENABLEPING
  -------         PROC          _CH395SENDDATA
  D:0005H         SYMBOL        sockindex
  X:02D4H         SYMBOL        databuf
  X:02D7H         SYMBOL        len
  -------         DO            
  D:0004H         SYMBOL        i
  -------         ENDDO         
  C:16B5H         LINE#         444
  C:16C2H         LINE#         445
  C:16C2H         LINE#         448
  C:16C7H         LINE#         449
  C:16CCH         LINE#         450
  C:16D3H         LINE#         451
  C:16DBH         LINE#         453
  C:16EBH         LINE#         454
  C:16EBH         LINE#         455
  C:16F1H         LINE#         456
  C:16F8H         LINE#         457
  C:16FAH         LINE#         458
  -------         ENDPROC       _CH395SENDDATA
  -------         PROC          _CH395GETRECVLENGTH
  D:0005H         SYMBOL        sockindex
  -------         DO            
  D:0004H         SYMBOL        i
  -------         ENDDO         
  C:1BAEH         LINE#         467
  C:1BB0H         LINE#         468
  C:1BB0H         LINE#         471
  C:1BB2H         LINE#         472
BL51 BANKED LINKER/LOCATER V6.22                                                      03/04/2021  16:19:15  PAGE 16


  C:1BB2H         LINE#         473
  C:1BB9H         LINE#         474
  C:1BC3H         LINE#         475
  C:1BC5H         LINE#         476
  C:1BC8H         LINE#         477
  -------         ENDPROC       _CH395GETRECVLENGTH
  -------         PROC          _CH395CLEARRECVBUF
  D:0005H         SYMBOL        sockindex
  C:1D61H         LINE#         486
  C:1D63H         LINE#         487
  C:1D63H         LINE#         488
  C:1D68H         LINE#         489
  C:1D6DH         LINE#         490
  C:1D6FH         LINE#         491
  -------         ENDPROC       _CH395CLEARRECVBUF
  -------         PROC          _CH395GETRECVDATA
  X:02E1H         SYMBOL        sockindex
  X:02E2H         SYMBOL        len
  D:0001H         SYMBOL        pbuf
  -------         DO            
  D:0004H         SYMBOL        i
  -------         ENDDO         
  C:1438H         LINE#         502
  C:1443H         LINE#         503
  C:1443H         LINE#         505
  C:1446H         LINE#         506
  C:144BH         LINE#         507
  C:1453H         LINE#         508
  C:145AH         LINE#         509
  C:1462H         LINE#         510
  C:1467H         LINE#         511
  C:1477H         LINE#         512
  C:1477H         LINE#         513
  C:147EH         LINE#         514
  C:1485H         LINE#         515
  C:148CH         LINE#         516
  C:148EH         LINE#         517
  -------         ENDPROC       _CH395GETRECVDATA
  -------         PROC          _CH395CMDSETRETRYCOUNT
  D:0005H         SYMBOL        count
  C:1D70H         LINE#         526
  C:1D72H         LINE#         527
  C:1D72H         LINE#         528
  C:1D77H         LINE#         529
  C:1D7CH         LINE#         530
  C:1D7EH         LINE#         531
  -------         ENDPROC       _CH395CMDSETRETRYCOUNT
  -------         PROC          _CH395CMDSETRETRYPERIOD
  D:0004H         SYMBOL        period
  C:1C2AH         LINE#         540
  C:1C2EH         LINE#         541
  C:1C2EH         LINE#         542
  C:1C33H         LINE#         543
  C:1C38H         LINE#         544
  C:1C3DH         LINE#         545
  C:1C3FH         LINE#         546
  -------         ENDPROC       _CH395CMDSETRETRYPERIOD
BL51 BANKED LINKER/LOCATER V6.22                                                      03/04/2021  16:19:15  PAGE 17


  -------         PROC          _CH395CMDGETSOCKETSTATUS
  D:0005H         SYMBOL        sockindex
  X:036AH         SYMBOL        status
  C:173CH         LINE#         556
  C:1749H         LINE#         557
  C:1749H         LINE#         558
  C:174BH         LINE#         559
  C:174BH         LINE#         560
  C:1762H         LINE#         561
  C:1779H         LINE#         562
  C:177BH         LINE#         563
  -------         ENDPROC       _CH395CMDGETSOCKETSTATUS
  -------         PROC          _CH395OPENSOCKET
  D:0005H         SYMBOL        sockindex
  -------         DO            
  D:0004H         SYMBOL        i
  D:0003H         SYMBOL        s
  -------         ENDDO         
  C:1A39H         LINE#         572
  C:1A3BH         LINE#         573
  C:1A3BH         LINE#         574
  C:1A3BH         LINE#         575
  C:1A3BH         LINE#         576
  C:1A40H         LINE#         577
  C:1A45H         LINE#         578
  C:1A47H         LINE#         579
  C:1A47H         LINE#         580
  C:1A47H         LINE#         581
  C:1A47H         LINE#         582
  C:1A4CH         LINE#         583
  C:1A50H         LINE#         584
  C:1A5CH         LINE#         585
  C:1A5CH         LINE#         586
  C:1A5EH         LINE#         587
  -------         ENDPROC       _CH395OPENSOCKET
  -------         PROC          _CH395CLOSESOCKET
  D:0005H         SYMBOL        sockindex
  -------         DO            
  D:0004H         SYMBOL        i
  D:0003H         SYMBOL        s
  -------         ENDDO         
  C:1A5FH         LINE#         596
  C:1A61H         LINE#         597
  C:1A61H         LINE#         598
  C:1A61H         LINE#         599
  C:1A61H         LINE#         600
  C:1A66H         LINE#         601
  C:1A6BH         LINE#         602
  C:1A6DH         LINE#         603
  C:1A6DH         LINE#         604
  C:1A6DH         LINE#         605
  C:1A6DH         LINE#         606
  C:1A72H         LINE#         607
  C:1A76H         LINE#         608
  C:1A82H         LINE#         609
  C:1A82H         LINE#         610
  C:1A84H         LINE#         611
BL51 BANKED LINKER/LOCATER V6.22                                                      03/04/2021  16:19:15  PAGE 18


  -------         ENDPROC       _CH395CLOSESOCKET
  -------         PROC          _CH395TCPCONNECT
  D:0005H         SYMBOL        sockindex
  -------         DO            
  D:0004H         SYMBOL        i
  D:0003H         SYMBOL        s
  -------         ENDDO         
  C:196EH         LINE#         620
  C:1970H         LINE#         621
  C:1970H         LINE#         622
  C:1972H         LINE#         623
  C:1973H         LINE#         624
  C:1978H         LINE#         625
  C:197DH         LINE#         626
  C:197FH         LINE#         627
  C:197FH         LINE#         628
  C:197FH         LINE#         629
  C:197FH         LINE#         630
  C:1984H         LINE#         631
  C:1988H         LINE#         632
  C:1994H         LINE#         633
  C:1994H         LINE#         634
  C:1996H         LINE#         635
  -------         ENDPROC       _CH395TCPCONNECT
  -------         PROC          _CH395TCPLISTEN
  D:0005H         SYMBOL        sockindex
  -------         DO            
  D:0004H         SYMBOL        i
  D:0003H         SYMBOL        s
  -------         ENDDO         
  C:1997H         LINE#         644
  C:1999H         LINE#         645
  C:1999H         LINE#         646
  C:199BH         LINE#         647
  C:199CH         LINE#         648
  C:19A1H         LINE#         649
  C:19A6H         LINE#         650
  C:19A8H         LINE#         651
  C:19A8H         LINE#         652
  C:19A8H         LINE#         653
  C:19A8H         LINE#         654
  C:19ADH         LINE#         655
  C:19B1H         LINE#         656
  C:19BDH         LINE#         657
  C:19BDH         LINE#         658
  C:19BFH         LINE#         659
  -------         ENDPROC       _CH395TCPLISTEN
  -------         PROC          _CH395TCPDISCONNECT
  D:0005H         SYMBOL        sockindex
  -------         DO            
  D:0004H         SYMBOL        i
  D:0003H         SYMBOL        s
  -------         ENDDO         
  C:19C0H         LINE#         668
  C:19C2H         LINE#         669
  C:19C2H         LINE#         670
  C:19C4H         LINE#         671
BL51 BANKED LINKER/LOCATER V6.22                                                      03/04/2021  16:19:15  PAGE 19


  C:19C5H         LINE#         672
  C:19CAH         LINE#         673
  C:19CFH         LINE#         674
  C:19D1H         LINE#         675
  C:19D1H         LINE#         676
  C:19D1H         LINE#         677
  C:19D1H         LINE#         678
  C:19D6H         LINE#         679
  C:19DAH         LINE#         680
  C:19E6H         LINE#         681
  C:19E6H         LINE#         682
  C:19E8H         LINE#         683
  -------         ENDPROC       _CH395TCPDISCONNECT
  -------         PROC          _CH395GETSOCKETINT
  D:0005H         SYMBOL        sockindex
  -------         DO            
  D:0007H         SYMBOL        intstatus
  -------         ENDDO         
  C:1C13H         LINE#         692
  C:1C15H         LINE#         693
  C:1C15H         LINE#         695
  C:1C1AH         LINE#         696
  C:1C1FH         LINE#         697
  C:1C24H         LINE#         698
  C:1C27H         LINE#         699
  C:1C29H         LINE#         700
  C:1C29H         LINE#         701
  -------         ENDPROC       _CH395GETSOCKETINT
  -------         PROC          _CH395CRCRET6BIT
  X:031AH         SYMBOL        mac_addr
  -------         DO            
  X:031DH         SYMBOL        perByte
  X:0321H         SYMBOL        perBit
  X:0325H         SYMBOL        poly
  X:0329H         SYMBOL        crc_value
  X:032DH         SYMBOL        c
  -------         ENDDO         
  C:0DB3H         LINE#         710
  C:0DBEH         LINE#         711
  C:0DBEH         LINE#         714
  C:0DC8H         LINE#         715
  C:0DD2H         LINE#         717
  C:0DF9H         LINE#         718
  C:0DF9H         LINE#         719
  C:0E10H         LINE#         720
  C:0E37H         LINE#         721
  C:0E37H         LINE#         722
  C:0EAFH         LINE#         723
  C:0EB6H         LINE#         724
  C:0EDEH         LINE#         725
  C:0F06H         LINE#         726
  C:0F1FH         LINE#         727
  C:0F27H         LINE#         728
  -------         ENDPROC       _CH395CRCRET6BIT
  -------         PROC          _CH395DHCPENABLE
  D:0005H         SYMBOL        flag
  -------         DO            
BL51 BANKED LINKER/LOCATER V6.22                                                      03/04/2021  16:19:15  PAGE 20


  D:0004H         SYMBOL        i
  D:0007H         SYMBOL        s
  -------         ENDDO         
  C:19E9H         LINE#         737
  C:19EBH         LINE#         738
  C:19EBH         LINE#         739
  C:19EDH         LINE#         741
  C:19F2H         LINE#         742
  C:19F7H         LINE#         743
  C:19F9H         LINE#         744
  C:19F9H         LINE#         745
  C:19F9H         LINE#         746
  C:19FEH         LINE#         747
  C:1A01H         LINE#         748
  C:1A05H         LINE#         749
  C:1A11H         LINE#         750
  C:1A11H         LINE#         751
  C:1A11H         LINE#         752
  -------         ENDPROC       _CH395DHCPENABLE
  -------         PROC          CH395GETDHCPSTATUS
  -------         DO            
  D:0007H         SYMBOL        status
  -------         ENDDO         
  C:1DE1H         LINE#         761
  C:1DE1H         LINE#         762
  C:1DE1H         LINE#         764
  C:1DE6H         LINE#         765
  C:1DE9H         LINE#         766
  C:1DEBH         LINE#         767
  C:1DEBH         LINE#         768
  -------         ENDPROC       CH395GETDHCPSTATUS
  -------         PROC          _CH395GETIPINF
  X:02D3H         SYMBOL        addr
  -------         DO            
  D:0006H         SYMBOL        i
  -------         ENDDO         
  C:188BH         LINE#         777
  C:1896H         LINE#         778
  C:1896H         LINE#         780
  C:189BH         LINE#         781
  C:189DH         LINE#         782
  C:189DH         LINE#         783
  C:18B4H         LINE#         784
  C:18B9H         LINE#         785
  C:18BBH         LINE#         786
  -------         ENDPROC       _CH395GETIPINF
  -------         PROC          _CH395WRITEGPIOADDR
  D:0004H         SYMBOL        regadd
  D:0005H         SYMBOL        regval
  C:1CE0H         LINE#         796
  C:1CE2H         LINE#         797
  C:1CE2H         LINE#         798
  C:1CE7H         LINE#         799
  C:1CECH         LINE#         800
  -------         ENDPROC       _CH395WRITEGPIOADDR
  -------         PROC          _CH395READGPIOADDR
  D:0005H         SYMBOL        regadd
BL51 BANKED LINKER/LOCATER V6.22                                                      03/04/2021  16:19:15  PAGE 21


  -------         DO            
  D:0007H         SYMBOL        i
  -------         ENDDO         
  C:1C6CH         LINE#         810
  C:1C6EH         LINE#         811
  C:1C6EH         LINE#         813
  C:1C73H         LINE#         814
  C:1C78H         LINE#         815
  C:1C7DH         LINE#         816
  C:1C80H         LINE#         817
  C:1C80H         LINE#         818
  -------         ENDPROC       _CH395READGPIOADDR
  -------         PROC          CH395EEPROMERASE
  -------         DO            
  D:0007H         SYMBOL        i
  -------         ENDDO         
  C:1CA9H         LINE#         827
  C:1CA9H         LINE#         828
  C:1CA9H         LINE#         830
  C:1CAEH         LINE#         831
  C:1CAEH         LINE#         832
  C:1CAEH         LINE#         833
  C:1CB3H         LINE#         834
  C:1CB6H         LINE#         835
  C:1CBBH         LINE#         836
  C:1CBBH         LINE#         837
  C:1CBBH         LINE#         838
  C:1CBBH         LINE#         839
  -------         ENDPROC       CH395EEPROMERASE
  -------         PROC          _CH395EEPROMWRITE
  D:0004H         SYMBOL        eepaddr
  X:0346H         SYMBOL        buf
  X:0349H         SYMBOL        len
  -------         DO            
  D:0007H         SYMBOL        i
  -------         ENDDO         
  C:14E3H         LINE#         850
  C:14F2H         LINE#         851
  C:14F2H         LINE#         853
  C:14F7H         LINE#         854
  C:14FCH         LINE#         855
  C:1501H         LINE#         856
  C:1505H         LINE#         857
  C:1528H         LINE#         858
  C:1528H         LINE#         859
  C:1528H         LINE#         860
  C:152DH         LINE#         861
  C:1530H         LINE#         862
  C:1535H         LINE#         863
  C:1535H         LINE#         864
  C:1535H         LINE#         865
  C:1535H         LINE#         866
  -------         ENDPROC       _CH395EEPROMWRITE
  -------         PROC          _CH395EEPROMREAD
  D:0004H         SYMBOL        eepaddr
  X:034CH         SYMBOL        buf
  X:034FH         SYMBOL        len
BL51 BANKED LINKER/LOCATER V6.22                                                      03/04/2021  16:19:15  PAGE 22


  C:1620H         LINE#         877
  C:162FH         LINE#         878
  C:162FH         LINE#         879
  C:1634H         LINE#         880
  C:1639H         LINE#         881
  C:163EH         LINE#         882
  C:1644H         LINE#         883
  C:1649H         LINE#         884
  C:166CH         LINE#         885
  -------         ENDPROC       _CH395EEPROMREAD
  -------         PROC          _CH395SETTCPMSS
  D:0004H         SYMBOL        tcpmss
  C:1CBCH         LINE#         894
  C:1CC0H         LINE#         895
  C:1CC0H         LINE#         896
  C:1CC5H         LINE#         897
  C:1CCAH         LINE#         898
  -------         ENDPROC       _CH395SETTCPMSS
  -------         PROC          _CH395SETSOCKETRECVBUF
  D:0004H         SYMBOL        sockindex
  D:0005H         SYMBOL        startblk
  D:0003H         SYMBOL        blknum
  C:1C40H         LINE#         910
  C:1C42H         LINE#         911
  C:1C42H         LINE#         912
  C:1C47H         LINE#         913
  C:1C4CH         LINE#         914
  C:1C51H         LINE#         915
  -------         ENDPROC       _CH395SETSOCKETRECVBUF
  -------         PROC          _CH395SETSOCKETSENDBUF
  D:0004H         SYMBOL        sockindex
  D:0005H         SYMBOL        startblk
  D:0003H         SYMBOL        blknum
  C:1C56H         LINE#         927
  C:1C58H         LINE#         928
  C:1C58H         LINE#         929
  C:1C5DH         LINE#         930
  C:1C62H         LINE#         931
  C:1C67H         LINE#         932
  -------         ENDPROC       _CH395SETSOCKETSENDBUF
  -------         PROC          _CH395UDPSENDTO
  X:032EH         SYMBOL        buf
  X:0331H         SYMBOL        len
  X:0335H         SYMBOL        ip
  X:0338H         SYMBOL        port
  X:033AH         SYMBOL        sockindex
  C:148FH         LINE#         946
  C:149EH         LINE#         947
  C:149EH         LINE#         948
  C:14B1H         LINE#         949
  C:14C1H         LINE#         950
  -------         ENDPROC       _CH395UDPSENDTO
  -------         PROC          _CH395SETSTARTPARA
  X:0355H         SYMBOL        mdata
  C:1536H         LINE#         960
  C:153CH         LINE#         961
  C:153CH         LINE#         962
BL51 BANKED LINKER/LOCATER V6.22                                                      03/04/2021  16:19:15  PAGE 23


  C:1541H         LINE#         963
  C:154CH         LINE#         964
  C:1558H         LINE#         965
  C:156EH         LINE#         966
  -------         ENDPROC       _CH395SETSTARTPARA
  -------         PROC          CH395CMDGETGLOBINTSTATUS_ALL
  -------         DO            
  D:0004H         SYMBOL        init_status
  -------         ENDDO         
  C:1ACBH         LINE#         976
  C:1ACBH         LINE#         977
  C:1ACBH         LINE#         979
  C:1AD0H         LINE#         980
  C:1AD5H         LINE#         981
  C:1ADCH         LINE#         982
  C:1AE6H         LINE#         983
  C:1AE8H         LINE#         984
  C:1AEBH         LINE#         985
  -------         ENDPROC       CH395CMDGETGLOBINTSTATUS_ALL
  -------         PROC          _CH395SETKEEPLIVE
  D:0004H         SYMBOL        sockindex
  D:0005H         SYMBOL        cmd
  C:1CF1H         LINE#         995
  C:1CF3H         LINE#         996
  C:1CF3H         LINE#         997
  C:1CF8H         LINE#         998
  C:1CFDH         LINE#         999
  -------         ENDPROC       _CH395SETKEEPLIVE
  -------         PROC          _CH395KEEPLIVECNT
  D:0005H         SYMBOL        cnt
  C:1DA8H         LINE#         1009
  C:1DAAH         LINE#         1010
  C:1DAAH         LINE#         1011
  C:1DAFH         LINE#         1012
  -------         ENDPROC       _CH395KEEPLIVECNT
  -------         PROC          _CH395KEEPLIVEIDLE
  X:0359H         SYMBOL        idle
  C:1584H         LINE#         1022
  C:158AH         LINE#         1023
  C:158AH         LINE#         1024
  C:158FH         LINE#         1025
  C:159AH         LINE#         1026
  C:15A6H         LINE#         1027
  C:15BCH         LINE#         1028
  -------         ENDPROC       _CH395KEEPLIVEIDLE
  -------         PROC          _CH395KEEPLIVEINTVL
  X:035DH         SYMBOL        intvl
  C:15D2H         LINE#         1038
  C:15D8H         LINE#         1039
  C:15D8H         LINE#         1040
  C:15DDH         LINE#         1041
  C:15E8H         LINE#         1042
  C:15F4H         LINE#         1043
  C:160AH         LINE#         1044
  -------         ENDPROC       _CH395KEEPLIVEINTVL
  -------         PROC          _CH395SETTTLNUM
  D:0004H         SYMBOL        sockindex
BL51 BANKED LINKER/LOCATER V6.22                                                      03/04/2021  16:19:15  PAGE 24


  D:0005H         SYMBOL        TTLnum
  C:1D02H         LINE#         1055
  C:1D04H         LINE#         1056
  C:1D04H         LINE#         1057
  C:1D09H         LINE#         1058
  C:1D0EH         LINE#         1059
  -------         ENDPROC       _CH395SETTTLNUM
  -------         PROC          _MSTOPIFERROR
  D:0007H         SYMBOL        iError
  C:1AECH         LINE#         67
  C:1AECH         LINE#         68
  C:1AECH         LINE#         69
  C:1AEFH         LINE#         70
  C:1B00H         LINE#         71
  C:1B00H         LINE#         72
  C:1B00H         LINE#         73
  C:1B05H         LINE#         74
  C:1B0AH         LINE#         75
  C:1B0CH         LINE#         76
  -------         ENDPROC       _MSTOPIFERROR
  -------         PROC          INITCH395INFPARAM
  C:166DH         LINE#         85
  C:166DH         LINE#         86
  C:166DH         LINE#         87
  C:167CH         LINE#         88
  C:168FH         LINE#         89
  C:16A2H         LINE#         90
  -------         ENDPROC       INITCH395INFPARAM
  -------         PROC          INITSOCKETPARAM
  C:17F3H         LINE#         100
  C:17F3H         LINE#         101
  C:17F3H         LINE#         102
  C:1802H         LINE#         103
  C:1815H         LINE#         104
  C:181AH         LINE#         105
  -------         ENDPROC       INITSOCKETPARAM
  -------         PROC          CH395SOCKETINITOPEN
  -------         DO            
  D:0007H         SYMBOL        i
  -------         ENDDO         
  C:1944H         LINE#         115
  C:1944H         LINE#         116
  C:1944H         LINE#         119
  C:194FH         LINE#         120
  C:1959H         LINE#         121
  C:1966H         LINE#         122
  C:196BH         LINE#         123
  -------         ENDPROC       CH395SOCKETINITOPEN
  -------         PROC          _CH395SOCKETINTERRUPT
  D:0003H         SYMBOL        sockindex
  -------         DO            
  D:0007H         SYMBOL        sock_int_socket
  X:02DFH         SYMBOL        len
  -------         ENDDO         
  C:13DAH         LINE#         133
  C:13DCH         LINE#         134
  C:13DCH         LINE#         138
BL51 BANKED LINKER/LOCATER V6.22                                                      03/04/2021  16:19:15  PAGE 25


  C:13DFH         LINE#         139
  C:13DFH         LINE#         140
  C:13DFH         LINE#         141
  C:13DFH         LINE#         142
  C:13E3H         LINE#         143
  C:13E3H         LINE#         144
  C:13E9H         LINE#         145
  C:13E9H         LINE#         146
  C:13EDH         LINE#         147
  C:13EDH         LINE#         148
  C:13FAH         LINE#         149
  C:13FDH         LINE#         150
  C:1412H         LINE#         151
  C:1425H         LINE#         152
  C:1437H         LINE#         153
  C:1437H         LINE#         154
  C:1437H         LINE#         155
  C:1437H         LINE#         156
  C:1437H         LINE#         157
  C:1437H         LINE#         158
  C:1437H         LINE#         159
  C:1437H         LINE#         160
  C:1437H         LINE#         161
  C:1437H         LINE#         162
  C:1437H         LINE#         163
  -------         ENDPROC       _CH395SOCKETINTERRUPT
  -------         PROC          CH395GLOBALINTERRUPT
  -------         DO            
  X:02D3H         SYMBOL        init_status
  X:02D5H         SYMBOL        buf
  -------         ENDDO         
  C:118FH         LINE#         172
  C:118FH         LINE#         173
  C:118FH         LINE#         177
  C:119AH         LINE#         178
  C:119DH         LINE#         179
  C:119DH         LINE#         180
  C:11A6H         LINE#         181
  C:11AFH         LINE#         182
  C:11AFH         LINE#         183
  C:11B6H         LINE#         184
  C:11B6H         LINE#         185
  C:11BFH         LINE#         186
  C:11BFH         LINE#         187
  C:11C6H         LINE#         188
  C:11C6H         LINE#         189
  C:11CFH         LINE#         190
  C:11CFH         LINE#         191
  C:11D6H         LINE#         192
  C:11D6H         LINE#         193
  C:11DBH         LINE#         194
  C:11DBH         LINE#         195
  C:11E2H         LINE#         196
  C:11E2H         LINE#         197
  C:11E7H         LINE#         198
  C:11E7H         LINE#         199
  C:11EEH         LINE#         200
BL51 BANKED LINKER/LOCATER V6.22                                                      03/04/2021  16:19:15  PAGE 26


  C:11EEH         LINE#         201
  C:11F3H         LINE#         202
  C:11F3H         LINE#         203
  C:11FAH         LINE#         204
  C:11FAH         LINE#         205
  C:11FFH         LINE#         206
  C:11FFH         LINE#         207
  C:1206H         LINE#         208
  C:1206H         LINE#         209
  C:120BH         LINE#         210
  C:120BH         LINE#         211
  C:1212H         LINE#         212
  C:1212H         LINE#         213
  C:1217H         LINE#         214
  C:1217H         LINE#         215
  C:121EH         LINE#         216
  C:121EH         LINE#         217
  C:1223H         LINE#         218
  C:1223H         LINE#         219
  C:122AH         LINE#         220
  C:122AH         LINE#         221
  C:122FH         LINE#         222
  C:122FH         LINE#         223
  -------         ENDPROC       CH395GLOBALINTERRUPT
  -------         PROC          CH395INIT
  -------         DO            
  D:0007H         SYMBOL        i
  -------         ENDDO         
  C:1918H         LINE#         232
  C:1918H         LINE#         233
  C:1918H         LINE#         236
  C:191DH         LINE#         237
  C:1925H         LINE#         249
  C:192EH         LINE#         250
  C:1937H         LINE#         251
  C:1940H         LINE#         252
  C:1943H         LINE#         253
  C:1943H         LINE#         254
  -------         ENDPROC       CH395INIT
  -------         PROC          MINITSTDIO
  C:1BFBH         LINE#         263
  C:1BFBH         LINE#         264
  C:1BFBH         LINE#         265
  C:1BFEH         LINE#         266
  C:1C01H         LINE#         267
  C:1C07H         LINE#         268
  C:1C0DH         LINE#         269
  C:1C10H         LINE#         270
  C:1C12H         LINE#         271
  -------         ENDPROC       MINITSTDIO
  -------         PROC          CH395PINGINIT
  -------         DO            
  D:0007H         SYMBOL        i
  -------         ENDDO         
  C:177CH         LINE#         280
  C:177CH         LINE#         281
  C:177CH         LINE#         283
BL51 BANKED LINKER/LOCATER V6.22                                                      03/04/2021  16:19:15  PAGE 27


  C:1781H         LINE#         284
  C:178AH         LINE#         285
  C:178DH         LINE#         286
  C:1790H         LINE#         287
  C:1793H         LINE#         288
  C:1796H         LINE#         289
  C:1796H         LINE#         290
  C:1796H         LINE#         291
  C:179CH         LINE#         292
  C:179CH         LINE#         293
  C:17A1H         LINE#         294
  C:17A3H         LINE#         296
  C:17A3H         LINE#         297
  C:17ACH         LINE#         298
  C:17ACH         LINE#         299
  C:17ACH         LINE#         300
  C:17ACH         LINE#         301
  C:17AFH         LINE#         302
  C:17B2H         LINE#         303
  C:17B5H         LINE#         304
  C:17B8H         LINE#         305
  -------         ENDPROC       CH395PINGINIT
  -------         PROC          MAIN
  C:1D13H         LINE#         315
  C:1D13H         LINE#         316
  C:1D13H         LINE#         318
  C:1D16H         LINE#         319
  C:1D19H         LINE#         320
  C:1D19H         LINE#         321
  C:1D19H         LINE#         322
  C:1D1FH         LINE#         323
  C:1D22H         LINE#         324
  -------         ENDPROC       MAIN
  -------         ENDMOD        CH395

  -------         MODULE        CH395PING
  C:0000H         SYMBOL        _ICE_DUMMY_
  D:0090H         PUBLIC        P1
  D:00B0H         PUBLIC        P3
  X:0250H         PUBLIC        SUCRECV_COUNT
  D:00A8H         PUBLIC        IE
  D:00B8H         PUBLIC        IP
  X:0251H         PUBLIC        TimeCount
  X:0255H         PUBLIC        IcmpCont
  C:0BBEH         PUBLIC        InitPing
  D:0098H         PUBLIC        SCON
  D:0089H         PUBLIC        TMOD
  D:0088H         PUBLIC        TCON
  X:0256H         PUBLIC        IcmpSeq
  X:0257H         PUBLIC        IcmpSuc
  C:1AA9H         PUBLIC        InitParameter
  C:1064H         PUBLIC        _CH395IcmpRecvData
  X:0258H         PUBLIC        CH395INF_BUF
  B:0088H.5       PUBLIC        TF0
  D:008CH         PUBLIC        TH0
  C:0985H         PUBLIC        _Respond_Ping
  X:026CH         PUBLIC        TIMOUT_COUNT
BL51 BANKED LINKER/LOCATER V6.22                                                      03/04/2021  16:19:15  PAGE 28


  D:008AH         PUBLIC        TL0
  C:1DB4H         PUBLIC        Intervalometer_4ms
  C:0003H         PUBLIC        CH395_PINGCmd
  B:0088H.4       PUBLIC        TR0
  X:026DH         PUBLIC        icmp_tmp
  D:00C8H         PUBLIC        T2CON
  X:026EH         PUBLIC        SEND_BUF
  X:02D2H         PUBLIC        UNREACH_COUNT
  D:00D0H         PUBLIC        PSW
  -------         PROC          INTERVALOMETER_4MS
  C:1DB4H         LINE#         35
  C:1DB4H         LINE#         36
  C:1DB4H         LINE#         37
  C:1DB7H         LINE#         38
  C:1DBAH         LINE#         39
  C:1DBDH         LINE#         40
  C:1DBFH         LINE#         41
  -------         ENDPROC       INTERVALOMETER_4MS
  -------         PROC          INITPARAMETER
  C:1AA9H         LINE#         50
  C:1AA9H         LINE#         51
  C:1AA9H         LINE#         52
  C:1AAEH         LINE#         53
  C:1AB2H         LINE#         54
  C:1AB6H         LINE#         55
  C:1ABAH         LINE#         56
  C:1ABCH         LINE#         57
  C:1ABEH         LINE#         58
  C:1AC2H         LINE#         59
  -------         ENDPROC       INITPARAMETER
  -------         PROC          L?0069
  -------         ENDPROC       L?0069
  -------         PROC          INITPING
  -------         DO            
  X:02D3H         SYMBOL        head
  X:02FBH         SYMBOL        check_sum
  X:02FFH         SYMBOL        i
  -------         ENDDO         
  C:0BBEH         LINE#         69
  C:0BBEH         LINE#         70
  C:0BBEH         LINE#         72
  C:0BC8H         LINE#         75
  C:0BCEH         LINE#         76
  C:0BD3H         LINE#         77
  C:0BD9H         LINE#         78
  C:0BDCH         LINE#         79
  C:0BE5H         LINE#         80
  C:0BF5H         LINE#         81
  C:0C04H         LINE#         82
  C:0C16H         LINE#         83
  C:0C21H         LINE#         84
  C:0C35H         LINE#         85
  C:0C6BH         LINE#         86
  C:0C99H         LINE#         87
  C:0CA2H         LINE#         88
  C:0CCEH         LINE#         89
  C:0CF7H         LINE#         90
BL51 BANKED LINKER/LOCATER V6.22                                                      03/04/2021  16:19:15  PAGE 29


  C:0D22H         LINE#         91
  C:0D4DH         LINE#         92
  C:0D68H         LINE#         93
  C:0D80H         LINE#         94
  C:0D91H         LINE#         95
  C:0DA0H         LINE#         96
  -------         ENDPROC       INITPING
  -------         PROC          _RESPOND_PING
  X:02EAH         SYMBOL        pDat
  -------         DO            
  X:02EDH         SYMBOL        head
  X:0315H         SYMBOL        check_sum
  X:0319H         SYMBOL        i
  -------         ENDDO         
  C:0985H         LINE#         106
  C:0990H         LINE#         107
  C:0990H         LINE#         109
  C:099AH         LINE#         112
  C:099FH         LINE#         113
  C:09B4H         LINE#         114
  C:09DCH         LINE#         115
  C:0A04H         LINE#         116
  C:0A30H         LINE#         117
  C:0A59H         LINE#         118
  C:0A84H         LINE#         119
  C:0AAFH         LINE#         120
  C:0AC1H         LINE#         121
  C:0AE8H         LINE#         122
  C:0B1BH         LINE#         123
  C:0B49H         LINE#         124
  C:0B52H         LINE#         125
  C:0B6DH         LINE#         126
  C:0B85H         LINE#         127
  C:0B96H         LINE#         128
  C:0BA5H         LINE#         129
  -------         ENDPROC       _RESPOND_PING
  -------         PROC          _CH395ICMPRECVDATA
  X:02E1H         SYMBOL        len
  X:02E5H         SYMBOL        pDat
  -------         DO            
  X:02E8H         SYMBOL        tmp
  -------         ENDDO         
  C:1064H         LINE#         139
  C:1075H         LINE#         140
  C:1075H         LINE#         141
  C:107AH         LINE#         143
  C:1082H         LINE#         144
  C:1088H         LINE#         145
  C:10A5H         LINE#         146
  C:10B8H         LINE#         147
  C:10C3H         LINE#         148
  C:10D2H         LINE#         149
  C:10DBH         LINE#         150
  C:10EFH         LINE#         151
  C:10F8H         LINE#         152
  C:1112H         LINE#         153
  C:111BH         LINE#         154
BL51 BANKED LINKER/LOCATER V6.22                                                      03/04/2021  16:19:15  PAGE 30


  C:113BH         LINE#         155
  C:1144H         LINE#         156
  C:114AH         LINE#         157
  C:114AH         LINE#         158
  C:114AH         LINE#         159
  C:114AH         LINE#         160
  C:114AH         LINE#         161
  C:115CH         LINE#         162
  C:1164H         LINE#         163
  C:1167H         LINE#         164
  C:116DH         LINE#         165
  C:116DH         LINE#         166
  C:116DH         LINE#         167
  C:116EH         LINE#         168
  C:116EH         LINE#         169
  C:117FH         LINE#         170
  C:1188H         LINE#         171
  C:118EH         LINE#         172
  C:118EH         LINE#         173
  C:118EH         LINE#         174
  C:118EH         LINE#         175
  -------         ENDPROC       _CH395ICMPRECVDATA
  -------         PROC          CH395_PINGCMD
  C:0003H         LINE#         183
  C:0003H         LINE#         184
  C:0003H         LINE#         185
  C:0010H         LINE#         186
  C:0041H         LINE#         187
  C:0041H         LINE#         188
  C:0047H         LINE#         189
  C:005AH         LINE#         190
  C:009EH         LINE#         192
  C:009EH         LINE#         193
  C:00A1H         LINE#         194
  C:00A1H         LINE#         195
  C:00BEH         LINE#         196
  C:00C7H         LINE#         197
  C:00DBH         LINE#         198
  C:00DBH         LINE#         199
  C:00DBH         LINE#         200
  C:00DDH         LINE#         201
  C:00DDH         LINE#         202
  C:00FBH         LINE#         203
  C:0104H         LINE#         204
  C:010AH         LINE#         205
  C:0113H         LINE#         206
  C:0113H         LINE#         207
  C:0116H         LINE#         208
  C:012AH         LINE#         209
  C:0134H         LINE#         210
  C:0137H         LINE#         211
  C:0137H         LINE#         212
  C:0198H         LINE#         215
  C:0198H         LINE#         216
  C:0198H         LINE#         217
  C:0198H         LINE#         218
  C:019BH         LINE#         219
BL51 BANKED LINKER/LOCATER V6.22                                                      03/04/2021  16:19:15  PAGE 31


  C:019BH         LINE#         220
  C:01A1H         LINE#         221
  C:01A1H         LINE#         222
  C:01A4H         LINE#         223
  C:01A4H         LINE#         224
  C:01E8H         LINE#         226
  C:01EEH         LINE#         227
  C:01F7H         LINE#         228
  C:01F7H         LINE#         229
  C:01F7H         LINE#         230
  C:01F7H         LINE#         231
  C:01F7H         LINE#         232
  C:01FAH         LINE#         233
  C:01FAH         LINE#         234
  C:025DH         LINE#         237
  C:025DH         LINE#         238
  C:025DH         LINE#         239
  C:0260H         LINE#         240
  C:0260H         LINE#         241
  C:029DH         LINE#         243
  C:02A3H         LINE#         244
  C:02ACH         LINE#         245
  C:02ACH         LINE#         246
  C:02AFH         LINE#         247
  C:02B9H         LINE#         248
  C:02B9H         LINE#         249
  C:02BBH         LINE#         250
  C:02BBH         LINE#         251
  C:0321H         LINE#         254
  C:0327H         LINE#         255
  C:0327H         LINE#         256
  C:0329H         LINE#         257
  C:0329H         LINE#         258
  C:033DH         LINE#         259
  C:033FH         LINE#         260
  C:033FH         LINE#         261
  C:0348H         LINE#         262
  C:0350H         LINE#         263
  C:0352H         LINE#         264
  C:0352H         LINE#         265
  C:0357H         LINE#         266
  C:035DH         LINE#         267
  C:035DH         LINE#         268
  C:035DH         LINE#         269
  C:035DH         LINE#         270
  C:035DH         LINE#         271
  C:035DH         LINE#         272
  C:0360H         LINE#         273
  C:0362H         LINE#         274
  C:0365H         LINE#         275
  C:0368H         LINE#         276
  C:0387H         LINE#         277
  C:03ADH         LINE#         278
  C:03ADH         LINE#         279
  -------         ENDPROC       CH395_PINGCMD
  -------         ENDMOD        CH395PING

BL51 BANKED LINKER/LOCATER V6.22                                                      03/04/2021  16:19:15  PAGE 32


  -------         MODULE        ?C?COPY
  C:07E3H         PUBLIC        ?C?COPY
  -------         ENDMOD        ?C?COPY

  -------         MODULE        ?C?CLDPTR
  C:0809H         PUBLIC        ?C?CLDPTR
  -------         ENDMOD        ?C?CLDPTR

  -------         MODULE        ?C?CLDOPTR
  C:0822H         PUBLIC        ?C?CLDOPTR
  -------         ENDMOD        ?C?CLDOPTR

  -------         MODULE        ?C?CSTPTR
  C:084FH         PUBLIC        ?C?CSTPTR
  -------         ENDMOD        ?C?CSTPTR

  -------         MODULE        ?C?IMUL
  C:0861H         PUBLIC        ?C?IMUL
  -------         ENDMOD        ?C?IMUL

  -------         MODULE        ?C?ILDIX
  C:0873H         PUBLIC        ?C?ILDIX
  -------         ENDMOD        ?C?ILDIX

  -------         MODULE        ?C?SLCMP
  C:0889H         PUBLIC        ?C?SLCMP
  -------         ENDMOD        ?C?SLCMP

  -------         MODULE        ?C?ULCMP
  C:089FH         PUBLIC        ?C?ULCMP
  -------         ENDMOD        ?C?ULCMP

  -------         MODULE        ?C?ULSHR
  C:08B0H         PUBLIC        ?C?ULSHR
  -------         ENDMOD        ?C?ULSHR

  -------         MODULE        ?C?LSHL
  C:08C3H         PUBLIC        ?C?LSHL
  -------         ENDMOD        ?C?LSHL

  -------         MODULE        ?C?LSTXDATA
  C:08D6H         PUBLIC        ?C?LSTXDATA
  -------         ENDMOD        ?C?LSTXDATA

  -------         MODULE        ?C?LSTKXDATA
  C:08E2H         PUBLIC        ?C?LSTKXDATA
  -------         ENDMOD        ?C?LSTKXDATA

  -------         MODULE        PRINTF
  X:02DFH         PUBLIC        ?_PRINTF517?BYTE
  X:02DFH         PUBLIC        ?_PRINTF?BYTE
  X:02DFH         PUBLIC        ?_SPRINTF517?BYTE
  X:02DFH         PUBLIC        ?_SPRINTF?BYTE
  C:0419H         PUBLIC        _PRINTF
  C:0419H         PUBLIC        _PRINTF517
  C:0413H         PUBLIC        _SPRINTF
  C:0413H         PUBLIC        _SPRINTF517
BL51 BANKED LINKER/LOCATER V6.22                                                      03/04/2021  16:19:15  PAGE 33


  -------         ENDMOD        PRINTF

  -------         MODULE        ?C?MEMSET
  C:0913H         PUBLIC        ?C?MEMSET
  -------         ENDMOD        ?C?MEMSET

  -------         MODULE        ?C?PLDIXDATA
  C:093FH         PUBLIC        ?C?PLDIXDATA
  -------         ENDMOD        ?C?PLDIXDATA

  -------         MODULE        ?C?PSTXDATA
  C:0956H         PUBLIC        ?C?PSTXDATA
  -------         ENDMOD        ?C?PSTXDATA

  -------         MODULE        ?C?CCASE
  C:095FH         PUBLIC        ?C?CCASE
  -------         ENDMOD        ?C?CCASE

  -------         MODULE        PUTCHAR
  C:1A12H         PUBLIC        _PUTCHAR
  -------         ENDMOD        PUTCHAR

*** WARNING L16: UNCALLED SEGMENT, IGNORED FOR OVERLAY PROCESS
    SEGMENT: ?PR?CH395CMDRESET?CH395

*** WARNING L16: UNCALLED SEGMENT, IGNORED FOR OVERLAY PROCESS
    SEGMENT: ?PR?CH395CMDSLEEP?CH395

*** WARNING L16: UNCALLED SEGMENT, IGNORED FOR OVERLAY PROCESS
    SEGMENT: ?PR?CH395CMDGETVER?CH395

*** WARNING L16: UNCALLED SEGMENT, IGNORED FOR OVERLAY PROCESS
    SEGMENT: ?PR?_CH395CMDSETPHY?CH395

*** WARNING L16: UNCALLED SEGMENT, IGNORED FOR OVERLAY PROCESS
    SEGMENT: ?PR?CH395CMDGETGLOBINTSTATUS?CH395

*** WARNING L16: UNCALLED SEGMENT, IGNORED FOR OVERLAY PROCESS
    SEGMENT: ?PR?_CH395CMDSETUARTBAUDRATE?CH395

*** WARNING L16: UNCALLED SEGMENT, IGNORED FOR OVERLAY PROCESS
    SEGMENT: ?PR?_CH395CMDSETMACADDR?CH395

*** WARNING L16: UNCALLED SEGMENT, IGNORED FOR OVERLAY PROCESS
    SEGMENT: ?PR?_CH395CMDGETMACADDR?CH395

*** WARNING L16: UNCALLED SEGMENT, IGNORED FOR OVERLAY PROCESS
    SEGMENT: ?PR?_CH395CMDSETMACFILT?CH395

*** WARNING L16: UNCALLED SEGMENT, IGNORED FOR OVERLAY PROCESS
    SEGMENT: ?PR?_CH395CMDGETREMOTEIPP?CH395

*** WARNING L16: UNCALLED SEGMENT, IGNORED FOR OVERLAY PROCESS
    SEGMENT: ?PR?_CH395SETSOCKETSOURPORT?CH395

*** WARNING L16: UNCALLED SEGMENT, IGNORED FOR OVERLAY PROCESS
    SEGMENT: ?PR?_CH395ENABLEPING?CH395
BL51 BANKED LINKER/LOCATER V6.22                                                      03/04/2021  16:19:15  PAGE 34



*** WARNING L16: UNCALLED SEGMENT, IGNORED FOR OVERLAY PROCESS
    SEGMENT: ?PR?_CH395CLEARRECVBUF?CH395

*** WARNING L16: UNCALLED SEGMENT, IGNORED FOR OVERLAY PROCESS
    SEGMENT: ?PR?_CH395CMDSETRETRYCOUNT?CH395

*** WARNING L16: UNCALLED SEGMENT, IGNORED FOR OVERLAY PROCESS
    SEGMENT: ?PR?_CH395CMDSETRETRYPERIOD?CH395

*** WARNING L16: UNCALLED SEGMENT, IGNORED FOR OVERLAY PROCESS
    SEGMENT: ?PR?_CH395CMDGETSOCKETSTATUS?CH395

*** WARNING L16: UNCALLED SEGMENT, IGNORED FOR OVERLAY PROCESS
    SEGMENT: ?PR?_CH395TCPCONNECT?CH395

*** WARNING L16: UNCALLED SEGMENT, IGNORED FOR OVERLAY PROCESS
    SEGMENT: ?PR?_CH395TCPLISTEN?CH395

*** WARNING L16: UNCALLED SEGMENT, IGNORED FOR OVERLAY PROCESS
    SEGMENT: ?PR?_CH395TCPDISCONNECT?CH395

*** WARNING L16: UNCALLED SEGMENT, IGNORED FOR OVERLAY PROCESS
    SEGMENT: ?PR?_CH395CRCRET6BIT?CH395

*** WARNING L16: UNCALLED SEGMENT, IGNORED FOR OVERLAY PROCESS
    SEGMENT: ?PR?_CH395DHCPENABLE?CH395

*** WARNING L16: UNCALLED SEGMENT, IGNORED FOR OVERLAY PROCESS
    SEGMENT: ?PR?CH395GETDHCPSTATUS?CH395

*** WARNING L16: UNCALLED SEGMENT, IGNORED FOR OVERLAY PROCESS
    SEGMENT: ?PR?_CH395WRITEGPIOADDR?CH395

*** WARNING L16: UNCALLED SEGMENT, IGNORED FOR OVERLAY PROCESS
    SEGMENT: ?PR?_CH395READGPIOADDR?CH395

*** WARNING L16: UNCALLED SEGMENT, IGNORED FOR OVERLAY PROCESS
    SEGMENT: ?PR?CH395EEPROMERASE?CH395

*** WARNING L16: UNCALLED SEGMENT, IGNORED FOR OVERLAY PROCESS
    SEGMENT: ?PR?_CH395EEPROMWRITE?CH395

*** WARNING L16: UNCALLED SEGMENT, IGNORED FOR OVERLAY PROCESS
    SEGMENT: ?PR?_CH395EEPROMREAD?CH395

*** WARNING L16: UNCALLED SEGMENT, IGNORED FOR OVERLAY PROCESS
    SEGMENT: ?PR?_CH395SETTCPMSS?CH395

*** WARNING L16: UNCALLED SEGMENT, IGNORED FOR OVERLAY PROCESS
    SEGMENT: ?PR?_CH395SETSOCKETRECVBUF?CH395

*** WARNING L16: UNCALLED SEGMENT, IGNORED FOR OVERLAY PROCESS
    SEGMENT: ?PR?_CH395SETSOCKETSENDBUF?CH395

*** WARNING L16: UNCALLED SEGMENT, IGNORED FOR OVERLAY PROCESS
    SEGMENT: ?PR?_CH395UDPSENDTO?CH395
BL51 BANKED LINKER/LOCATER V6.22                                                      03/04/2021  16:19:15  PAGE 35



*** WARNING L16: UNCALLED SEGMENT, IGNORED FOR OVERLAY PROCESS
    SEGMENT: ?PR?_CH395SETSTARTPARA?CH395

*** WARNING L16: UNCALLED SEGMENT, IGNORED FOR OVERLAY PROCESS
    SEGMENT: ?PR?_CH395SETKEEPLIVE?CH395

*** WARNING L16: UNCALLED SEGMENT, IGNORED FOR OVERLAY PROCESS
    SEGMENT: ?PR?_CH395KEEPLIVECNT?CH395

*** WARNING L16: UNCALLED SEGMENT, IGNORED FOR OVERLAY PROCESS
    SEGMENT: ?PR?_CH395KEEPLIVEIDLE?CH395

*** WARNING L16: UNCALLED SEGMENT, IGNORED FOR OVERLAY PROCESS
    SEGMENT: ?PR?_CH395KEEPLIVEINTVL?CH395

*** WARNING L16: UNCALLED SEGMENT, IGNORED FOR OVERLAY PROCESS
    SEGMENT: ?PR?_CH395SETTTLNUM?CH395

Program Size: data=15.1 xdata=877 code=7695
LINK/LOCATE RUN COMPLETE.  37 WARNING(S),  0 ERROR(S)
